{"contracts/PolygonCarbonRetirementFacilitator.sol":{"PolygonCarbonRetirementFacilitator":{"abi":[{"inputs":[],"name":"EndpointNotSet","type":"error"},{"inputs":[],"name":"InsufficientAmount","type":"error"},{"inputs":[],"name":"InvalidFee","type":"error"},{"inputs":[],"name":"RetirementFailed","type":"error"},{"inputs":[],"name":"SwapFailed","type":"error"},{"inputs":[],"name":"UnauthorizedCaller","type":"error"},{"inputs":[],"name":"ZeroAddress","type":"error"},{"anonymous":false,"inputs":[{"indexed":false,"internalType":"address","name":"previousAdmin","type":"address"},{"indexed":false,"internalType":"address","name":"newAdmin","type":"address"}],"name":"AdminChanged","type":"event"},{"anonymous":false,"inputs":[{"indexed":true,"internalType":"address","name":"beacon","type":"address"}],"name":"BeaconUpgraded","type":"event"},{"anonymous":false,"inputs":[{"indexed":false,"internalType":"address","name":"newEndpoint","type":"address"}],"name":"BridgeEndpointChanged","type":"event"},{"anonymous":false,"inputs":[{"indexed":true,"internalType":"bytes","name":"srcChain","type":"bytes"},{"indexed":true,"internalType":"bytes","name":"srcAddress","type":"bytes"},{"indexed":true,"internalType":"address","name":"projectToken","type":"address"},{"indexed":false,"internalType":"uint256","name":"amountToken","type":"uint256"},{"indexed":false,"internalType":"uint256","name":"amountRetiredTonnes","type":"uint256"},{"indexed":false,"internalType":"bytes32","name":"retirementId","type":"bytes32"},{"indexed":false,"internalType":"uint256","name":"timestamp","type":"uint256"}],"name":"CrossChainRetirementProcessed","type":"event"},{"anonymous":false,"inputs":[{"indexed":false,"internalType":"uint16","name":"newFeeBps","type":"uint16"}],"name":"FeeChanged","type":"event"},{"anonymous":false,"inputs":[{"indexed":false,"internalType":"uint8","name":"version","type":"uint8"}],"name":"Initialized","type":"event"},{"anonymous":false,"inputs":[{"indexed":true,"internalType":"address","name":"user","type":"address"},{"indexed":true,"internalType":"address","name":"projectToken","type":"address"},{"indexed":false,"internalType":"uint256","name":"amountToken","type":"uint256"},{"indexed":false,"internalType":"uint256","name":"amountRetiredTonnes","type":"uint256"},{"indexed":false,"internalType":"bytes32","name":"retirementId","type":"bytes32"},{"indexed":false,"internalType":"uint256","name":"timestamp","type":"uint256"}],"name":"LocalRetirement","type":"event"},{"anonymous":false,"inputs":[{"indexed":true,"internalType":"address","name":"previousOwner","type":"address"},{"indexed":true,"internalType":"address","name":"newOwner","type":"address"}],"name":"OwnershipTransferred","type":"event"},{"anonymous":false,"inputs":[{"indexed":true,"internalType":"bytes","name":"destChain","type":"bytes"},{"indexed":true,"internalType":"bytes","name":"destAddress","type":"bytes"},{"indexed":false,"internalType":"bytes32","name":"retirementRequestId","type":"bytes32"},{"indexed":false,"internalType":"bytes32","name":"retirementId","type":"bytes32"},{"indexed":false,"internalType":"uint256","name":"timestamp","type":"uint256"}],"name":"RetirementConfirmationSent","type":"event"},{"anonymous":false,"inputs":[{"indexed":false,"internalType":"address","name":"newRouter","type":"address"}],"name":"RouterChanged","type":"event"},{"anonymous":false,"inputs":[{"indexed":false,"internalType":"address","name":"newToucan","type":"address"}],"name":"ToucanRetirementContractChanged","type":"event"},{"anonymous":false,"inputs":[{"indexed":true,"internalType":"address","name":"implementation","type":"address"}],"name":"Upgraded","type":"event"},{"inputs":[],"name":"authorizedBridgeAddress","outputs":[{"internalType":"bytes","name":"","type":"bytes"}],"stateMutability":"view","type":"function"},{"inputs":[{"internalType":"address","name":"token","type":"address"},{"internalType":"address","name":"to","type":"address"},{"internalType":"uint256","name":"amount","type":"uint256"}],"name":"emergencyWithdraw","outputs":[],"stateMutability":"nonpayable","type":"function"},{"inputs":[],"name":"feeBps","outputs":[{"internalType":"uint16","name":"","type":"uint16"}],"stateMutability":"view","type":"function"},{"inputs":[],"name":"feeRecipient","outputs":[{"internalType":"address","name":"","type":"address"}],"stateMutability":"view","type":"function"},{"inputs":[{"internalType":"address","name":"_endpoint","type":"address"},{"internalType":"bytes","name":"_bridgeAddress","type":"bytes"},{"internalType":"address","name":"_router","type":"address"},{"internalType":"address","name":"_toucan","type":"address"},{"internalType":"address","name":"_feeRecipient","type":"address"},{"internalType":"uint16","name":"_feeBps","type":"uint16"}],"name":"initialize","outputs":[],"stateMutability":"nonpayable","type":"function"},{"inputs":[],"name":"lzEndpoint","outputs":[{"internalType":"contract ILayerZeroEndpoint","name":"","type":"address"}],"stateMutability":"view","type":"function"},{"inputs":[{"internalType":"uint16","name":"_srcChainId","type":"uint16"},{"internalType":"bytes","name":"_srcAddress","type":"bytes"},{"internalType":"uint64","name":"","type":"uint64"},{"internalType":"bytes","name":"_payload","type":"bytes"}],"name":"lzReceive","outputs":[],"stateMutability":"nonpayable","type":"function"},{"inputs":[],"name":"owner","outputs":[{"internalType":"address","name":"","type":"address"}],"stateMutability":"view","type":"function"},{"inputs":[],"name":"proxiableUUID","outputs":[{"internalType":"bytes32","name":"","type":"bytes32"}],"stateMutability":"view","type":"function"},{"inputs":[],"name":"renounceOwnership","outputs":[],"stateMutability":"nonpayable","type":"function"},{"inputs":[{"internalType":"address","name":"projectToken","type":"address"},{"internalType":"uint256","name":"amountToken","type":"uint256"},{"internalType":"string","name":"beneficiary","type":"string"},{"internalType":"string","name":"beneficiaryAddress","type":"string"},{"internalType":"string","name":"message","type":"string"}],"name":"retireLocal","outputs":[],"stateMutability":"nonpayable","type":"function"},{"inputs":[],"name":"router","outputs":[{"internalType":"contract IUniswapV2Router","name":"","type":"address"}],"stateMutability":"view","type":"function"},{"inputs":[{"internalType":"address","name":"_endpoint","type":"address"}],"name":"setEndpoint","outputs":[],"stateMutability":"nonpayable","type":"function"},{"inputs":[{"internalType":"uint16","name":"_feeBps","type":"uint16"}],"name":"setFeeBps","outputs":[],"stateMutability":"nonpayable","type":"function"},{"inputs":[{"internalType":"address","name":"_recipient","type":"address"}],"name":"setFeeRecipient","outputs":[],"stateMutability":"nonpayable","type":"function"},{"inputs":[{"internalType":"address","name":"_router","type":"address"}],"name":"setRouter","outputs":[],"stateMutability":"nonpayable","type":"function"},{"inputs":[{"internalType":"address","name":"_toucan","type":"address"}],"name":"setToucanRetirement","outputs":[],"stateMutability":"nonpayable","type":"function"},{"inputs":[],"name":"toucanRetirement","outputs":[{"internalType":"contract IToucanRetirement","name":"","type":"address"}],"stateMutability":"view","type":"function"},{"inputs":[{"internalType":"address","name":"newOwner","type":"address"}],"name":"transferOwnership","outputs":[],"stateMutability":"nonpayable","type":"function"},{"inputs":[{"internalType":"address","name":"newImplementation","type":"address"}],"name":"upgradeTo","outputs":[],"stateMutability":"nonpayable","type":"function"},{"inputs":[{"internalType":"address","name":"newImplementation","type":"address"},{"internalType":"bytes","name":"data","type":"bytes"}],"name":"upgradeToAndCall","outputs":[],"stateMutability":"payable","type":"function"},{"stateMutability":"payable","type":"receive"}],"evm":{"bytecode":{"linkReferences":{},"object":"60a080604052346030573060805261208090816100368239608051818181610b1101528181610c0c0152610ebf0152f35b600080fdfe6080604052600436101561001b575b361561001957600080fd5b005b6000803560e01c80621d3567146111f2578063023b1fc91461116457806324a9d8531461113f5780633659cfe614610ea05780634690484014610e775780634f1ef28614610bc257806352d1902d14610afe578063715018a614610aa157806371d205eb14610a6d57806376337e69146108395780638da5cb5b14610810578063b24822c51461079d578063b353aaa714610774578063b6ffc79f1461074b578063bc2c7b1c14610355578063c0d78655146102e2578063dbbb41551461026f578063e63ea4081461021f578063e74b981b146101c9578063f2fde38b146101385763f887ea401461010d575061000e565b3461013557806003193601126101355760fd546040516001600160a01b039091168152602090f35b80fd5b50346101355760203660031901126101355761015261177e565b61015a611cb4565b6001600160a01b038116156101755761017290611d0c565b80f35b60405162461bcd60e51b815260206004820152602660248201527f4f776e61626c653a206e6577206f776e657220697320746865207a65726f206160448201526564647265737360d01b6064820152608490fd5b5034610135576020366003190112610135576101e361177e565b6101eb611cb4565b6001600160a01b03168015610210576001600160601b0360a01b60ff54161760ff5580f35b63d92e233d60e01b8252600482fd5b50346101355760603660031901126101355761023961177e565b602435906001600160a01b038216820361026b5761017291610259611cb4565b604435916001600160a01b0316611b3c565b8280fd5b50346101355760203660031901126101355761028961177e565b610291611cb4565b6001600160a01b03168015610210576020817f2c653d281228c0f05ec59ac53229f7a63bf00f9ed7a1d83f1f1ccd77e8b640b3926001600160601b0360a01b60fb54161760fb55604051908152a180f35b5034610135576020366003190112610135576102fc61177e565b610304611cb4565b6001600160a01b03168015610210576020817f1085cec9a5108943412475d298086ae4d0abf09cfad47b05436b89fe887a820c926001600160601b0360a01b60fd54161760fd55604051908152a180f35b50346101355760c03660031901126101355761036f61177e565b6024356001600160401b03811161026b5761038e903690600401611751565b906044356001600160a01b0381169190829003610747576064356001600160a01b0381169290839003610743576084356001600160a01b038116949085900361073f5760a4359261ffff841680850361073b5788549760ff8960081c16159889809a61072e575b8015610717575b156106bb5760ff1981166001178b55896106aa575b506001600160a01b031690811580156106a2575b801561069a575b8015610692575b610683576103e8106106745761045860ff8a5460081c1661045381611d55565b611d55565b61046133611d0c565b61047e60ff8a5460081c1661047581611d55565b61045381611d55565b600160c9556001600160601b0360a01b60fb54161760fb556001600160401b0382116106605781906104b160fc5461181d565b601f81116105eb575b508890601f831160011461057857899261056d575b50508160011b916000199060031b1c19161760fc555b6001600160601b0360a01b60fd54161760fd5560fe54926001600160601b0360a01b60ff54161760ff5561ffff60a01b9060a01b169169ffffffffffffffffffff60b01b16171760fe556105365780f35b61ff001981541681557f7f26b83ff96e1f2b6a682f133852f6798a09c465da95921460cefb3847402498602060405160018152a180f35b0135905038806104cf565b60fc8a5260008051602061202b833981519152925090601f1984168a5b8181106105d357509084600195949392106105b9575b505050811b0160fc556104e5565b0135600019600384901b60f8161c191690553880806105ab565b91936020600181928787013581550195019201610595565b90915060fc8952601f830160051c60008051602061202b83398151915201906020841061064a575b90601f8493920160051c60008051602061202b83398151915201905b81811061063c57506104ba565b8a815584935060010161062f565b60008051602061202b8339815191529150610613565b634e487b7160e01b88526041600452602488fd5b6358d620b360e01b8952600489fd5b63d92e233d60e01b8a5260048afd5b508715610433565b50861561042c565b508415610425565b61ffff1916610101178a5538610411565b60405162461bcd60e51b815260206004820152602e60248201527f496e697469616c697a61626c653a20636f6e747261637420697320616c72656160448201526d191e481a5b9a5d1a585b1a5e995960921b6064820152608490fd5b50303b1580156103fc5750600160ff8216146103fc565b50600160ff8216106103f5565b8880fd5b8680fd5b8580fd5b8480fd5b503461013557806003193601126101355760fe546040516001600160a01b039091168152602090f35b503461013557806003193601126101355760fb546040516001600160a01b039091168152602090f35b5034610135576020366003190112610135576107b761177e565b6107bf611cb4565b6001600160a01b03168015610210576020817f9f88fc40f8604608e85e1286146a7a256f9a630e967c94bb7501ace760997960926001600160601b0360a01b60fe54161760fe55604051908152a180f35b50346101355780600319360112610135576097546040516001600160a01b039091168152602090f35b50346101355760a03660031901126101355761085361177e565b6024356044356001600160401b038111610a6957610875903690600401611751565b9190926064356001600160401b03811161074357610897903690600401611751565b9290916084356001600160401b038111610a65576108b9903690600401611751565b90916108c3611a9d565b8315610a565761091697969361099061097e9794602097948c9460018060a01b03169b846108f48e96303389611af3565b61271061090a61ffff60fe5460a01c1683611964565b049081610a395761198d565b998a9661092e8860018060a01b0360fe541688611b7f565b60018060a01b0360fe54169861096c6040519e8f9c8d9b8c9a6305e5e68760e51b8c5260048c015260248b015260a060448b015260a48a0191611a7c565b87810360031901606489015291611a7c565b84810360031901608486015291611a7c565b03925af1918215610a2e5784926109f3575b5060408051828152602081019290925281019190915242606082015233907fd50eecb511287635dc6be9ef069371bd43ae76b063e2e51d6fbef506d83602889080608081015b0390a3600160c95580f35b9091506020813d602011610a26575b81610a0f60209383611794565b81010312610a215751906109e86109a2565b600080fd5b3d9150610a02565b6040513d86823e3d90fd5b60ff54610a519083906001600160a01b031689611b3c565b61198d565b632ca2f52b60e11b8952600489fd5b8780fd5b8380fd5b5034610135578060031936011261013557610a9d610a89611857565b604051918291602083526020830190611921565b0390f35b5034610135578060031936011261013557610aba611cb4565b609780546001600160a01b0319811690915581906001600160a01b03167f8be0079c531659141344cd1fd0a4f28419497f9722a3daafe3b4186f6b6457e08280a380f35b50346101355780600319360112610135577f00000000000000000000000000000000000000000000000000000000000000006001600160a01b03163003610b5757602060405160008051602061200b8339815191528152f35b60405162461bcd60e51b815260206004820152603860248201527f555550535570677261646561626c653a206d757374206e6f742062652063616c60448201527f6c6564207468726f7567682064656c656761746563616c6c00000000000000006064820152608490fd5b50604036600319011261013557610bd761177e565b6024356001600160401b03811161026b573660238201121561026b57610c079036906024816004013591016117e6565b610c5f7f00000000000000000000000000000000000000000000000000000000000000006001600160a01b0316610c40308214156119ba565b60008051602061200b833981519152546001600160a01b031614611a1b565b610c67611cb4565b7f4910fdfa16fed3260ed0e7147f7cc6da11a60208b5b9406d12a635614ffd91435460ff1615610c9b575061017290611ea4565b6040516352d1902d60e01b81526001600160a01b03831690602081600481855afa859181610e43575b50610d255760405162461bcd60e51b815260206004820152602e60248201527f45524331393637557067726164653a206e657720696d706c656d656e7461746960448201526d6f6e206973206e6f74205555505360901b6064820152608490fd5b60008051602061200b83398151915203610dec57610d4283611ea4565b7fbc7cd75a20ee27fd9adebab32041f755214dbc6bffa90cc0225b39da2e5c2d3b8480a2805115801590610de4575b610d7a57505080f35b610de091838060405193610d8f606086611794565b602785527f416464726573733a206c6f772d6c6576656c2064656c65676174652063616c6c6020860152660819985a5b195960ca1b6040860152602081519101845af4610dda611f3d565b91611f6d565b5080f35b506001610d71565b60405162461bcd60e51b815260206004820152602960248201527f45524331393637557067726164653a20756e737570706f727465642070726f786044820152681a58589b195555525160ba1b6064820152608490fd5b9091506020813d602011610e6f575b81610e5f60209383611794565b81010312610a2157519038610cc4565b3d9150610e52565b503461013557806003193601126101355760ff546040516001600160a01b039091168152602090f35b503461013557602036600319011261013557610eba61177e565b610ef37f00000000000000000000000000000000000000000000000000000000000000006001600160a01b0316610c40308214156119ba565b610efb611cb4565b602090604051610f0b8382611794565b83815282810190601f1984013683377f4910fdfa16fed3260ed0e7147f7cc6da11a60208b5b9406d12a635614ffd91435460ff1615610f505750506101729150611ea4565b6040516352d1902d60e01b81529192916001600160a01b038316908581600481855afa879181611110575b50610fdc5760405162461bcd60e51b815260048101879052602e60248201527f45524331393637557067726164653a206e657720696d706c656d656e7461746960448201526d6f6e206973206e6f74205555505360901b6064820152608490fd5b9394937fc9f76b5ec45e5cdef99837d7b6d2467235c1df8933c8ca56df5c35afa2c7d444016110b95790859161101184611ea4565b7fbc7cd75a20ee27fd9adebab32041f755214dbc6bffa90cc0225b39da2e5c2d3b8380a28051158015906110b2575b61104d575b505050505080f35b6110a79482917f416464726573733a206c6f772d6c6576656c2064656c65676174652063616c6c60405196611083606089611794565b60278852870152660819985a5b195960ca1b60408701525190845af4610dda611f3d565b503880808381611045565b5081611040565b60405162461bcd60e51b815260048101859052602960248201527f45524331393637557067726164653a20756e737570706f727465642070726f786044820152681a58589b195555525160ba1b6064820152608490fd5b9091508681813d8311611138575b6111288183611794565b81010312610a2157519038610f7b565b503d61111e565b5034610135578060031936011261013557602061ffff60fe5460a01c16604051908152f35b50346101355760203660031901126101355761117e611740565b611186611cb4565b61ffff8116906103e882116111e35760fe805461ffff60a01b191660a09290921b61ffff60a01b169190911790556040519081527f931a978d852c1b6fa9dd97300fd89c773ff625b91f697b0911e943ba15f9e24390602090a180f35b6358d620b360e01b8352600483fd5b50346101355760803660031901126101355761120c611740565b6024356001600160401b03811161026b5761122b903690600401611751565b91906044356001600160401b03811603610a69576064356001600160401b0381116107475761125e903690600401611751565b611269929192611a9d565b60fb546001600160a01b031633036117085761128660fc5461181d565b8514801590611717575b61170857820191602081840312610743578035906001600160401b03821161073f57019360a085840312610743576040519260a084018481106001600160401b038211176106605760405285356001600160a01b0381168103610a6557845260208401956020810135875260408101356001600160401b03811161073b578261131a918301611946565b906040860191825260608101356001600160401b0381116117045783611341918301611946565b926060870193845260808201356001600160401b038111611700576113669201611946565b9660808601978852805115610a5657855181516020936114359390926113c29261139c91309081906001600160a01b0316611af3565b6127106113b4825161ffff60fe5460a01c1690611964565b0490816116de575b5161198d565b875160fe549195916113e29187916001600160a01b039081169116611b7f565b8a60018060a01b0360fe54169261145960018060a01b038b5116915193519c516114476040519e8f98899788966305e5e68760e51b885260048801528c602488015260a0604488015260a4870190611921565b85810360031901606487015290611921565b83810360031901608485015290611921565b03925af19586156116d3578796611697575b50906115159291604051906114b061ffff88169761ffff60f01b9060f01b1696876020850152600284526114a0602285611794565b516001600160a01b03169261199a565b7ff9270e9fdf0a18200363879f061c4ce9b97384fe40b044a4a2041f123a4e266b61150b604051868882378681018d8152819003902060408051868152602081019690965285018c9052426060860152939081906080820190565b0390a436916117e6565b916040518460208201526020815261152e604082611794565b60fb546040519187916001600160a01b031661154b602085611794565b828452803b1561026b5761158b83886115bb61159d976040519889978896879562c5803160e81b87528d600488015260c0602488015260c4870190611921565b85810360031901604487015290611921565b903360648501528460848501526003198483030160a4850152611921565b03925af1801561168c57611678575b5061163157507f0144e0d3627ecb1bdacd5ec073959e1b0ac2c1e6a669e77a2081329d7e4ed233606061161561160f604051611607602082611794565b87815261199a565b9361199a565b93604051908082526020820152426040820152a3600160c95580f35b606061161561160f7f0144e0d3627ecb1bdacd5ec073959e1b0ac2c1e6a669e77a2081329d7e4ed2339360405190602082015260028152611673602282611794565b61199a565b8561168591969296611794565b93386115ca565b6040513d88823e3d90fd5b92919095506020833d6020116116cb575b816116b560209383611794565b8101031261073f5761151592519590919261146b565b3d91506116a8565b6040513d89823e3d90fd5b895160ff546116fb9184916001600160a01b039081169116611b3c565b6113bc565b8a80fd5b8980fd5b635c427cd960e01b8652600486fd5b506117233686846117e6565b60208151910120611732611857565b602081519101201415611290565b6004359061ffff82168203610a2157565b9181601f84011215610a21578235916001600160401b038311610a215760208381860195010111610a2157565b600435906001600160a01b0382168203610a2157565b90601f801991011681019081106001600160401b038211176117b557604052565b634e487b7160e01b600052604160045260246000fd5b6001600160401b0381116117b557601f01601f191660200190565b9291926117f2826117cb565b916118006040519384611794565b829481845281830111610a21578281602093846000960137010152565b90600182811c9216801561184d575b602083101461183757565b634e487b7160e01b600052602260045260246000fd5b91607f169161182c565b6040519060008260fc549161186b8361181d565b80835292600181169081156118df5750600114611891575b61188f92500383611794565b565b5060fc6000908152909160008051602061202b8339815191525b8183106118c357505090602061188f92820101611883565b60209193508060019154838589010152019101909184926118ab565b6020925061188f94915060ff191682840152151560051b820101611883565b60005b8381106119115750506000910152565b8181015183820152602001611901565b9060209161193a815180928185528580860191016118fe565b601f01601f1916010190565b9080601f83011215610a2157816020611961933591016117e6565b90565b8181029291811591840414171561197757565b634e487b7160e01b600052601160045260246000fd5b9190820391821161197757565b6119b2906020604051928284809451938492016118fe565b810103902090565b156119c157565b60405162461bcd60e51b815260206004820152602c60248201527f46756e6374696f6e206d7573742062652063616c6c6564207468726f7567682060448201526b19195b1959d85d1958d85b1b60a21b6064820152608490fd5b15611a2257565b60405162461bcd60e51b815260206004820152602c60248201527f46756e6374696f6e206d7573742062652063616c6c6564207468726f7567682060448201526b6163746976652070726f787960a01b6064820152608490fd5b908060209392818452848401376000828201840152601f01601f1916010190565b600260c95414611aae57600260c955565b60405162461bcd60e51b815260206004820152601f60248201527f5265656e7472616e637947756172643a207265656e7472616e742063616c6c006044820152606490fd5b6040516323b872dd60e01b60208201526001600160a01b03928316602482015292909116604483015260648083019390935291815261188f91611b37608483611794565b611db5565b60405163a9059cbb60e01b60208201526001600160a01b039092166024830152604482019290925261188f91611b3782606481015b03601f198101845283611794565b91909181158015611c2e575b15611bca5760405163095ea7b360e01b60208201526001600160a01b039093166024840152604483019190915261188f9190611b378260648101611b71565b60405162461bcd60e51b815260206004820152603660248201527f5361666545524332303a20617070726f76652066726f6d206e6f6e2d7a65726f60448201527520746f206e6f6e2d7a65726f20616c6c6f77616e636560501b6064820152608490fd5b50604051636eb1769f60e11b81523060048201526001600160a01b0384811660248301526020908290604490829086165afa908115611ca857600091611c76575b5015611b8b565b90506020813d602011611ca0575b81611c9160209383611794565b81010312610a21575138611c6f565b3d9150611c84565b6040513d6000823e3d90fd5b6097546001600160a01b03163303611cc857565b606460405162461bcd60e51b815260206004820152602060248201527f4f776e61626c653a2063616c6c6572206973206e6f7420746865206f776e65726044820152fd5b609780546001600160a01b039283166001600160a01b0319821681179092559091167f8be0079c531659141344cd1fd0a4f28419497f9722a3daafe3b4186f6b6457e0600080a3565b15611d5c57565b60405162461bcd60e51b815260206004820152602b60248201527f496e697469616c697a61626c653a20636f6e7472616374206973206e6f74206960448201526a6e697469616c697a696e6760a81b6064820152608490fd5b604080519092611e14926001600160a01b0316906000908190611dd88786611794565b602085527f5361666545524332303a206c6f772d6c6576656c2063616c6c206661696c6564602086015260208151910182855af1610dda611f3d565b8051908115918215611e81575b505015611e2b5750565b5162461bcd60e51b815260206004820152602a60248201527f5361666545524332303a204552433230206f7065726174696f6e20646964206e6044820152691bdd081cdd58d8d9595960b21b6064820152608490fd5b8192509060209181010312610a2157602001518015158103610a21573880611e21565b803b15611ee25760018060a01b03166001600160601b0360a01b60008051602061200b83398151915254161760008051602061200b83398151915255565b60405162461bcd60e51b815260206004820152602d60248201527f455243313936373a206e657720696d706c656d656e746174696f6e206973206e60448201526c1bdd08184818dbdb9d1c9858dd609a1b6064820152608490fd5b3d15611f68573d90611f4e826117cb565b91611f5c6040519384611794565b82523d6000602084013e565b606090565b91929015611fcf5750815115611f81575090565b3b15611f8a5790565b60405162461bcd60e51b815260206004820152601d60248201527f416464726573733a2063616c6c20746f206e6f6e2d636f6e74726163740000006044820152606490fd5b825190915015611fe25750805190602001fd5b60405162461bcd60e51b815260206004820152908190612006906024830190611921565b0390fdfe360894a13ba1a3210667c828492db98dca3e2076cc3735a920a3ca505d382bbc371f36870d18f32a11fea0f144b021c8b407bb50f8e0267c711123f454b963c0a2646970667358221220a35f549eef95409600a6c0c727decfe5c6b99827403fb58ade0ec0d5fb8cbb0964736f6c634300081c0033","opcodes":"PUSH1 0xA0 DUP1 PUSH1 0x40 MSTORE CALLVALUE PUSH1 0x30 JUMPI ADDRESS PUSH1 0x80 MSTORE PUSH2 0x2080 SWAP1 DUP2 PUSH2 0x36 DUP3 CODECOPY PUSH1 0x80 MLOAD DUP2 DUP2 DUP2 PUSH2 0xB11 ADD MSTORE DUP2 DUP2 PUSH2 0xC0C ADD MSTORE PUSH2 0xEBF ADD MSTORE RETURN JUMPDEST PUSH1 0x0 DUP1 REVERT INVALID PUSH1 0x80 PUSH1 0x40 MSTORE PUSH1 0x4 CALLDATASIZE LT ISZERO PUSH2 0x1B JUMPI JUMPDEST CALLDATASIZE ISZERO PUSH2 0x19 JUMPI PUSH1 0x0 DUP1 REVERT JUMPDEST STOP JUMPDEST PUSH1 0x0 DUP1 CALLDATALOAD PUSH1 0xE0 SHR DUP1 PUSH3 0x1D3567 EQ PUSH2 0x11F2 JUMPI DUP1 PUSH4 0x23B1FC9 EQ PUSH2 0x1164 JUMPI DUP1 PUSH4 0x24A9D853 EQ PUSH2 0x113F JUMPI DUP1 PUSH4 0x3659CFE6 EQ PUSH2 0xEA0 JUMPI DUP1 PUSH4 0x46904840 EQ PUSH2 0xE77 JUMPI DUP1 PUSH4 0x4F1EF286 EQ PUSH2 0xBC2 JUMPI DUP1 PUSH4 0x52D1902D EQ PUSH2 0xAFE JUMPI DUP1 PUSH4 0x715018A6 EQ PUSH2 0xAA1 JUMPI DUP1 PUSH4 0x71D205EB EQ PUSH2 0xA6D JUMPI DUP1 PUSH4 0x76337E69 EQ PUSH2 0x839 JUMPI DUP1 PUSH4 0x8DA5CB5B EQ PUSH2 0x810 JUMPI DUP1 PUSH4 0xB24822C5 EQ PUSH2 0x79D JUMPI DUP1 PUSH4 0xB353AAA7 EQ PUSH2 0x774 JUMPI DUP1 PUSH4 0xB6FFC79F EQ PUSH2 0x74B JUMPI DUP1 PUSH4 0xBC2C7B1C EQ PUSH2 0x355 JUMPI DUP1 PUSH4 0xC0D78655 EQ PUSH2 0x2E2 JUMPI DUP1 PUSH4 0xDBBB4155 EQ PUSH2 0x26F JUMPI DUP1 PUSH4 0xE63EA408 EQ PUSH2 0x21F JUMPI DUP1 PUSH4 0xE74B981B EQ PUSH2 0x1C9 JUMPI DUP1 PUSH4 0xF2FDE38B EQ PUSH2 0x138 JUMPI PUSH4 0xF887EA40 EQ PUSH2 0x10D JUMPI POP PUSH2 0xE JUMP JUMPDEST CALLVALUE PUSH2 0x135 JUMPI DUP1 PUSH1 0x3 NOT CALLDATASIZE ADD SLT PUSH2 0x135 JUMPI PUSH1 0xFD SLOAD PUSH1 0x40 MLOAD PUSH1 0x1 PUSH1 0x1 PUSH1 0xA0 SHL SUB SWAP1 SWAP2 AND DUP2 MSTORE PUSH1 0x20 SWAP1 RETURN JUMPDEST DUP1 REVERT JUMPDEST POP CALLVALUE PUSH2 0x135 JUMPI PUSH1 0x20 CALLDATASIZE PUSH1 0x3 NOT ADD SLT PUSH2 0x135 JUMPI PUSH2 0x152 PUSH2 0x177E JUMP JUMPDEST PUSH2 0x15A PUSH2 0x1CB4 JUMP JUMPDEST PUSH1 0x1 PUSH1 0x1 PUSH1 0xA0 SHL SUB DUP2 AND ISZERO PUSH2 0x175 JUMPI PUSH2 0x172 SWAP1 PUSH2 0x1D0C JUMP JUMPDEST DUP1 RETURN JUMPDEST PUSH1 0x40 MLOAD PUSH3 0x461BCD PUSH1 0xE5 SHL DUP2 MSTORE PUSH1 0x20 PUSH1 0x4 DUP3 ADD MSTORE PUSH1 0x26 PUSH1 0x24 DUP3 ADD MSTORE PUSH32 0x4F776E61626C653A206E6577206F776E657220697320746865207A65726F2061 PUSH1 0x44 DUP3 ADD MSTORE PUSH6 0x646472657373 PUSH1 0xD0 SHL PUSH1 0x64 DUP3 ADD MSTORE PUSH1 0x84 SWAP1 REVERT JUMPDEST POP CALLVALUE PUSH2 0x135 JUMPI PUSH1 0x20 CALLDATASIZE PUSH1 0x3 NOT ADD SLT PUSH2 0x135 JUMPI PUSH2 0x1E3 PUSH2 0x177E JUMP JUMPDEST PUSH2 0x1EB PUSH2 0x1CB4 JUMP JUMPDEST PUSH1 0x1 PUSH1 0x1 PUSH1 0xA0 SHL SUB AND DUP1 ISZERO PUSH2 0x210 JUMPI PUSH1 0x1 PUSH1 0x1 PUSH1 0x60 SHL SUB PUSH1 0xA0 SHL PUSH1 0xFF SLOAD AND OR PUSH1 0xFF SSTORE DUP1 RETURN JUMPDEST PUSH4 0xD92E233D PUSH1 0xE0 SHL DUP3 MSTORE PUSH1 0x4 DUP3 REVERT JUMPDEST POP CALLVALUE PUSH2 0x135 JUMPI PUSH1 0x60 CALLDATASIZE PUSH1 0x3 NOT ADD SLT PUSH2 0x135 JUMPI PUSH2 0x239 PUSH2 0x177E JUMP JUMPDEST PUSH1 0x24 CALLDATALOAD SWAP1 PUSH1 0x1 PUSH1 0x1 PUSH1 0xA0 SHL SUB DUP3 AND DUP3 SUB PUSH2 0x26B JUMPI PUSH2 0x172 SWAP2 PUSH2 0x259 PUSH2 0x1CB4 JUMP JUMPDEST PUSH1 0x44 CALLDATALOAD SWAP2 PUSH1 0x1 PUSH1 0x1 PUSH1 0xA0 SHL SUB AND PUSH2 0x1B3C JUMP JUMPDEST DUP3 DUP1 REVERT JUMPDEST POP CALLVALUE PUSH2 0x135 JUMPI PUSH1 0x20 CALLDATASIZE PUSH1 0x3 NOT ADD SLT PUSH2 0x135 JUMPI PUSH2 0x289 PUSH2 0x177E JUMP JUMPDEST PUSH2 0x291 PUSH2 0x1CB4 JUMP JUMPDEST PUSH1 0x1 PUSH1 0x1 PUSH1 0xA0 SHL SUB AND DUP1 ISZERO PUSH2 0x210 JUMPI PUSH1 0x20 DUP2 PUSH32 0x2C653D281228C0F05EC59AC53229F7A63BF00F9ED7A1D83F1F1CCD77E8B640B3 SWAP3 PUSH1 0x1 PUSH1 0x1 PUSH1 0x60 SHL SUB PUSH1 0xA0 SHL PUSH1 0xFB SLOAD AND OR PUSH1 0xFB SSTORE PUSH1 0x40 MLOAD SWAP1 DUP2 MSTORE LOG1 DUP1 RETURN JUMPDEST POP CALLVALUE PUSH2 0x135 JUMPI PUSH1 0x20 CALLDATASIZE PUSH1 0x3 NOT ADD SLT PUSH2 0x135 JUMPI PUSH2 0x2FC PUSH2 0x177E JUMP JUMPDEST PUSH2 0x304 PUSH2 0x1CB4 JUMP JUMPDEST PUSH1 0x1 PUSH1 0x1 PUSH1 0xA0 SHL SUB AND DUP1 ISZERO PUSH2 0x210 JUMPI PUSH1 0x20 DUP2 PUSH32 0x1085CEC9A5108943412475D298086AE4D0ABF09CFAD47B05436B89FE887A820C SWAP3 PUSH1 0x1 PUSH1 0x1 PUSH1 0x60 SHL SUB PUSH1 0xA0 SHL PUSH1 0xFD SLOAD AND OR PUSH1 0xFD SSTORE PUSH1 0x40 MLOAD SWAP1 DUP2 MSTORE LOG1 DUP1 RETURN JUMPDEST POP CALLVALUE PUSH2 0x135 JUMPI PUSH1 0xC0 CALLDATASIZE PUSH1 0x3 NOT ADD SLT PUSH2 0x135 JUMPI PUSH2 0x36F PUSH2 0x177E JUMP JUMPDEST PUSH1 0x24 CALLDATALOAD PUSH1 0x1 PUSH1 0x1 PUSH1 0x40 SHL SUB DUP2 GT PUSH2 0x26B JUMPI PUSH2 0x38E SWAP1 CALLDATASIZE SWAP1 PUSH1 0x4 ADD PUSH2 0x1751 JUMP JUMPDEST SWAP1 PUSH1 0x44 CALLDATALOAD PUSH1 0x1 PUSH1 0x1 PUSH1 0xA0 SHL SUB DUP2 AND SWAP2 SWAP1 DUP3 SWAP1 SUB PUSH2 0x747 JUMPI PUSH1 0x64 CALLDATALOAD PUSH1 0x1 PUSH1 0x1 PUSH1 0xA0 SHL SUB DUP2 AND SWAP3 SWAP1 DUP4 SWAP1 SUB PUSH2 0x743 JUMPI PUSH1 0x84 CALLDATALOAD PUSH1 0x1 PUSH1 0x1 PUSH1 0xA0 SHL SUB DUP2 AND SWAP5 SWAP1 DUP6 SWAP1 SUB PUSH2 0x73F JUMPI PUSH1 0xA4 CALLDATALOAD SWAP3 PUSH2 0xFFFF DUP5 AND DUP1 DUP6 SUB PUSH2 0x73B JUMPI DUP9 SLOAD SWAP8 PUSH1 0xFF DUP10 PUSH1 0x8 SHR AND ISZERO SWAP9 DUP10 DUP1 SWAP11 PUSH2 0x72E JUMPI JUMPDEST DUP1 ISZERO PUSH2 0x717 JUMPI JUMPDEST ISZERO PUSH2 0x6BB JUMPI PUSH1 0xFF NOT DUP2 AND PUSH1 0x1 OR DUP12 SSTORE DUP10 PUSH2 0x6AA JUMPI JUMPDEST POP PUSH1 0x1 PUSH1 0x1 PUSH1 0xA0 SHL SUB AND SWAP1 DUP2 ISZERO DUP1 ISZERO PUSH2 0x6A2 JUMPI JUMPDEST DUP1 ISZERO PUSH2 0x69A JUMPI JUMPDEST DUP1 ISZERO PUSH2 0x692 JUMPI JUMPDEST PUSH2 0x683 JUMPI PUSH2 0x3E8 LT PUSH2 0x674 JUMPI PUSH2 0x458 PUSH1 0xFF DUP11 SLOAD PUSH1 0x8 SHR AND PUSH2 0x453 DUP2 PUSH2 0x1D55 JUMP JUMPDEST PUSH2 0x1D55 JUMP JUMPDEST PUSH2 0x461 CALLER PUSH2 0x1D0C JUMP JUMPDEST PUSH2 0x47E PUSH1 0xFF DUP11 SLOAD PUSH1 0x8 SHR AND PUSH2 0x475 DUP2 PUSH2 0x1D55 JUMP JUMPDEST PUSH2 0x453 DUP2 PUSH2 0x1D55 JUMP JUMPDEST PUSH1 0x1 PUSH1 0xC9 SSTORE PUSH1 0x1 PUSH1 0x1 PUSH1 0x60 SHL SUB PUSH1 0xA0 SHL PUSH1 0xFB SLOAD AND OR PUSH1 0xFB SSTORE PUSH1 0x1 PUSH1 0x1 PUSH1 0x40 SHL SUB DUP3 GT PUSH2 0x660 JUMPI DUP2 SWAP1 PUSH2 0x4B1 PUSH1 0xFC SLOAD PUSH2 0x181D JUMP JUMPDEST PUSH1 0x1F DUP2 GT PUSH2 0x5EB JUMPI JUMPDEST POP DUP9 SWAP1 PUSH1 0x1F DUP4 GT PUSH1 0x1 EQ PUSH2 0x578 JUMPI DUP10 SWAP3 PUSH2 0x56D JUMPI JUMPDEST POP POP DUP2 PUSH1 0x1 SHL SWAP2 PUSH1 0x0 NOT SWAP1 PUSH1 0x3 SHL SHR NOT AND OR PUSH1 0xFC SSTORE JUMPDEST PUSH1 0x1 PUSH1 0x1 PUSH1 0x60 SHL SUB PUSH1 0xA0 SHL PUSH1 0xFD SLOAD AND OR PUSH1 0xFD SSTORE PUSH1 0xFE SLOAD SWAP3 PUSH1 0x1 PUSH1 0x1 PUSH1 0x60 SHL SUB PUSH1 0xA0 SHL PUSH1 0xFF SLOAD AND OR PUSH1 0xFF SSTORE PUSH2 0xFFFF PUSH1 0xA0 SHL SWAP1 PUSH1 0xA0 SHL AND SWAP2 PUSH10 0xFFFFFFFFFFFFFFFFFFFF PUSH1 0xB0 SHL AND OR OR PUSH1 0xFE SSTORE PUSH2 0x536 JUMPI DUP1 RETURN JUMPDEST PUSH2 0xFF00 NOT DUP2 SLOAD AND DUP2 SSTORE PUSH32 0x7F26B83FF96E1F2B6A682F133852F6798A09C465DA95921460CEFB3847402498 PUSH1 0x20 PUSH1 0x40 MLOAD PUSH1 0x1 DUP2 MSTORE LOG1 DUP1 RETURN JUMPDEST ADD CALLDATALOAD SWAP1 POP CODESIZE DUP1 PUSH2 0x4CF JUMP JUMPDEST PUSH1 0xFC DUP11 MSTORE PUSH1 0x0 DUP1 MLOAD PUSH1 0x20 PUSH2 0x202B DUP4 CODECOPY DUP2 MLOAD SWAP2 MSTORE SWAP3 POP SWAP1 PUSH1 0x1F NOT DUP5 AND DUP11 JUMPDEST DUP2 DUP2 LT PUSH2 0x5D3 JUMPI POP SWAP1 DUP5 PUSH1 0x1 SWAP6 SWAP5 SWAP4 SWAP3 LT PUSH2 0x5B9 JUMPI JUMPDEST POP POP POP DUP2 SHL ADD PUSH1 0xFC SSTORE PUSH2 0x4E5 JUMP JUMPDEST ADD CALLDATALOAD PUSH1 0x0 NOT PUSH1 0x3 DUP5 SWAP1 SHL PUSH1 0xF8 AND SHR NOT AND SWAP1 SSTORE CODESIZE DUP1 DUP1 PUSH2 0x5AB JUMP JUMPDEST SWAP2 SWAP4 PUSH1 0x20 PUSH1 0x1 DUP2 SWAP3 DUP8 DUP8 ADD CALLDATALOAD DUP2 SSTORE ADD SWAP6 ADD SWAP3 ADD PUSH2 0x595 JUMP JUMPDEST SWAP1 SWAP2 POP PUSH1 0xFC DUP10 MSTORE PUSH1 0x1F DUP4 ADD PUSH1 0x5 SHR PUSH1 0x0 DUP1 MLOAD PUSH1 0x20 PUSH2 0x202B DUP4 CODECOPY DUP2 MLOAD SWAP2 MSTORE ADD SWAP1 PUSH1 0x20 DUP5 LT PUSH2 0x64A JUMPI JUMPDEST SWAP1 PUSH1 0x1F DUP5 SWAP4 SWAP3 ADD PUSH1 0x5 SHR PUSH1 0x0 DUP1 MLOAD PUSH1 0x20 PUSH2 0x202B DUP4 CODECOPY DUP2 MLOAD SWAP2 MSTORE ADD SWAP1 JUMPDEST DUP2 DUP2 LT PUSH2 0x63C JUMPI POP PUSH2 0x4BA JUMP JUMPDEST DUP11 DUP2 SSTORE DUP5 SWAP4 POP PUSH1 0x1 ADD PUSH2 0x62F JUMP JUMPDEST PUSH1 0x0 DUP1 MLOAD PUSH1 0x20 PUSH2 0x202B DUP4 CODECOPY DUP2 MLOAD SWAP2 MSTORE SWAP2 POP PUSH2 0x613 JUMP JUMPDEST PUSH4 0x4E487B71 PUSH1 0xE0 SHL DUP9 MSTORE PUSH1 0x41 PUSH1 0x4 MSTORE PUSH1 0x24 DUP9 REVERT JUMPDEST PUSH4 0x58D620B3 PUSH1 0xE0 SHL DUP10 MSTORE PUSH1 0x4 DUP10 REVERT JUMPDEST PUSH4 0xD92E233D PUSH1 0xE0 SHL DUP11 MSTORE PUSH1 0x4 DUP11 REVERT JUMPDEST POP DUP8 ISZERO PUSH2 0x433 JUMP JUMPDEST POP DUP7 ISZERO PUSH2 0x42C JUMP JUMPDEST POP DUP5 ISZERO PUSH2 0x425 JUMP JUMPDEST PUSH2 0xFFFF NOT AND PUSH2 0x101 OR DUP11 SSTORE CODESIZE PUSH2 0x411 JUMP JUMPDEST PUSH1 0x40 MLOAD PUSH3 0x461BCD PUSH1 0xE5 SHL DUP2 MSTORE PUSH1 0x20 PUSH1 0x4 DUP3 ADD MSTORE PUSH1 0x2E PUSH1 0x24 DUP3 ADD MSTORE PUSH32 0x496E697469616C697A61626C653A20636F6E747261637420697320616C726561 PUSH1 0x44 DUP3 ADD MSTORE PUSH14 0x191E481A5B9A5D1A585B1A5E9959 PUSH1 0x92 SHL PUSH1 0x64 DUP3 ADD MSTORE PUSH1 0x84 SWAP1 REVERT JUMPDEST POP ADDRESS EXTCODESIZE ISZERO DUP1 ISZERO PUSH2 0x3FC JUMPI POP PUSH1 0x1 PUSH1 0xFF DUP3 AND EQ PUSH2 0x3FC JUMP JUMPDEST POP PUSH1 0x1 PUSH1 0xFF DUP3 AND LT PUSH2 0x3F5 JUMP JUMPDEST DUP9 DUP1 REVERT JUMPDEST DUP7 DUP1 REVERT JUMPDEST DUP6 DUP1 REVERT JUMPDEST DUP5 DUP1 REVERT JUMPDEST POP CALLVALUE PUSH2 0x135 JUMPI DUP1 PUSH1 0x3 NOT CALLDATASIZE ADD SLT PUSH2 0x135 JUMPI PUSH1 0xFE SLOAD PUSH1 0x40 MLOAD PUSH1 0x1 PUSH1 0x1 PUSH1 0xA0 SHL SUB SWAP1 SWAP2 AND DUP2 MSTORE PUSH1 0x20 SWAP1 RETURN JUMPDEST POP CALLVALUE PUSH2 0x135 JUMPI DUP1 PUSH1 0x3 NOT CALLDATASIZE ADD SLT PUSH2 0x135 JUMPI PUSH1 0xFB SLOAD PUSH1 0x40 MLOAD PUSH1 0x1 PUSH1 0x1 PUSH1 0xA0 SHL SUB SWAP1 SWAP2 AND DUP2 MSTORE PUSH1 0x20 SWAP1 RETURN JUMPDEST POP CALLVALUE PUSH2 0x135 JUMPI PUSH1 0x20 CALLDATASIZE PUSH1 0x3 NOT ADD SLT PUSH2 0x135 JUMPI PUSH2 0x7B7 PUSH2 0x177E JUMP JUMPDEST PUSH2 0x7BF PUSH2 0x1CB4 JUMP JUMPDEST PUSH1 0x1 PUSH1 0x1 PUSH1 0xA0 SHL SUB AND DUP1 ISZERO PUSH2 0x210 JUMPI PUSH1 0x20 DUP2 PUSH32 0x9F88FC40F8604608E85E1286146A7A256F9A630E967C94BB7501ACE760997960 SWAP3 PUSH1 0x1 PUSH1 0x1 PUSH1 0x60 SHL SUB PUSH1 0xA0 SHL PUSH1 0xFE SLOAD AND OR PUSH1 0xFE SSTORE PUSH1 0x40 MLOAD SWAP1 DUP2 MSTORE LOG1 DUP1 RETURN JUMPDEST POP CALLVALUE PUSH2 0x135 JUMPI DUP1 PUSH1 0x3 NOT CALLDATASIZE ADD SLT PUSH2 0x135 JUMPI PUSH1 0x97 SLOAD PUSH1 0x40 MLOAD PUSH1 0x1 PUSH1 0x1 PUSH1 0xA0 SHL SUB SWAP1 SWAP2 AND DUP2 MSTORE PUSH1 0x20 SWAP1 RETURN JUMPDEST POP CALLVALUE PUSH2 0x135 JUMPI PUSH1 0xA0 CALLDATASIZE PUSH1 0x3 NOT ADD SLT PUSH2 0x135 JUMPI PUSH2 0x853 PUSH2 0x177E JUMP JUMPDEST PUSH1 0x24 CALLDATALOAD PUSH1 0x44 CALLDATALOAD PUSH1 0x1 PUSH1 0x1 PUSH1 0x40 SHL SUB DUP2 GT PUSH2 0xA69 JUMPI PUSH2 0x875 SWAP1 CALLDATASIZE SWAP1 PUSH1 0x4 ADD PUSH2 0x1751 JUMP JUMPDEST SWAP2 SWAP1 SWAP3 PUSH1 0x64 CALLDATALOAD PUSH1 0x1 PUSH1 0x1 PUSH1 0x40 SHL SUB DUP2 GT PUSH2 0x743 JUMPI PUSH2 0x897 SWAP1 CALLDATASIZE SWAP1 PUSH1 0x4 ADD PUSH2 0x1751 JUMP JUMPDEST SWAP3 SWAP1 SWAP2 PUSH1 0x84 CALLDATALOAD PUSH1 0x1 PUSH1 0x1 PUSH1 0x40 SHL SUB DUP2 GT PUSH2 0xA65 JUMPI PUSH2 0x8B9 SWAP1 CALLDATASIZE SWAP1 PUSH1 0x4 ADD PUSH2 0x1751 JUMP JUMPDEST SWAP1 SWAP2 PUSH2 0x8C3 PUSH2 0x1A9D JUMP JUMPDEST DUP4 ISZERO PUSH2 0xA56 JUMPI PUSH2 0x916 SWAP8 SWAP7 SWAP4 PUSH2 0x990 PUSH2 0x97E SWAP8 SWAP5 PUSH1 0x20 SWAP8 SWAP5 DUP13 SWAP5 PUSH1 0x1 DUP1 PUSH1 0xA0 SHL SUB AND SWAP12 DUP5 PUSH2 0x8F4 DUP15 SWAP7 ADDRESS CALLER DUP10 PUSH2 0x1AF3 JUMP JUMPDEST PUSH2 0x2710 PUSH2 0x90A PUSH2 0xFFFF PUSH1 0xFE SLOAD PUSH1 0xA0 SHR AND DUP4 PUSH2 0x1964 JUMP JUMPDEST DIV SWAP1 DUP2 PUSH2 0xA39 JUMPI PUSH2 0x198D JUMP JUMPDEST SWAP10 DUP11 SWAP7 PUSH2 0x92E DUP9 PUSH1 0x1 DUP1 PUSH1 0xA0 SHL SUB PUSH1 0xFE SLOAD AND DUP9 PUSH2 0x1B7F JUMP JUMPDEST PUSH1 0x1 DUP1 PUSH1 0xA0 SHL SUB PUSH1 0xFE SLOAD AND SWAP9 PUSH2 0x96C PUSH1 0x40 MLOAD SWAP15 DUP16 SWAP13 DUP14 SWAP12 DUP13 SWAP11 PUSH4 0x5E5E687 PUSH1 0xE5 SHL DUP13 MSTORE PUSH1 0x4 DUP13 ADD MSTORE PUSH1 0x24 DUP12 ADD MSTORE PUSH1 0xA0 PUSH1 0x44 DUP12 ADD MSTORE PUSH1 0xA4 DUP11 ADD SWAP2 PUSH2 0x1A7C JUMP JUMPDEST DUP8 DUP2 SUB PUSH1 0x3 NOT ADD PUSH1 0x64 DUP10 ADD MSTORE SWAP2 PUSH2 0x1A7C JUMP JUMPDEST DUP5 DUP2 SUB PUSH1 0x3 NOT ADD PUSH1 0x84 DUP7 ADD MSTORE SWAP2 PUSH2 0x1A7C JUMP JUMPDEST SUB SWAP3 GAS CALL SWAP2 DUP3 ISZERO PUSH2 0xA2E JUMPI DUP5 SWAP3 PUSH2 0x9F3 JUMPI JUMPDEST POP PUSH1 0x40 DUP1 MLOAD DUP3 DUP2 MSTORE PUSH1 0x20 DUP2 ADD SWAP3 SWAP1 SWAP3 MSTORE DUP2 ADD SWAP2 SWAP1 SWAP2 MSTORE TIMESTAMP PUSH1 0x60 DUP3 ADD MSTORE CALLER SWAP1 PUSH32 0xD50EECB511287635DC6BE9EF069371BD43AE76B063E2E51D6FBEF506D8360288 SWAP1 DUP1 PUSH1 0x80 DUP2 ADD JUMPDEST SUB SWAP1 LOG3 PUSH1 0x1 PUSH1 0xC9 SSTORE DUP1 RETURN JUMPDEST SWAP1 SWAP2 POP PUSH1 0x20 DUP2 RETURNDATASIZE PUSH1 0x20 GT PUSH2 0xA26 JUMPI JUMPDEST DUP2 PUSH2 0xA0F PUSH1 0x20 SWAP4 DUP4 PUSH2 0x1794 JUMP JUMPDEST DUP2 ADD SUB SLT PUSH2 0xA21 JUMPI MLOAD SWAP1 PUSH2 0x9E8 PUSH2 0x9A2 JUMP JUMPDEST PUSH1 0x0 DUP1 REVERT JUMPDEST RETURNDATASIZE SWAP2 POP PUSH2 0xA02 JUMP JUMPDEST PUSH1 0x40 MLOAD RETURNDATASIZE DUP7 DUP3 RETURNDATACOPY RETURNDATASIZE SWAP1 REVERT JUMPDEST PUSH1 0xFF SLOAD PUSH2 0xA51 SWAP1 DUP4 SWAP1 PUSH1 0x1 PUSH1 0x1 PUSH1 0xA0 SHL SUB AND DUP10 PUSH2 0x1B3C JUMP JUMPDEST PUSH2 0x198D JUMP JUMPDEST PUSH4 0x2CA2F52B PUSH1 0xE1 SHL DUP10 MSTORE PUSH1 0x4 DUP10 REVERT JUMPDEST DUP8 DUP1 REVERT JUMPDEST DUP4 DUP1 REVERT JUMPDEST POP CALLVALUE PUSH2 0x135 JUMPI DUP1 PUSH1 0x3 NOT CALLDATASIZE ADD SLT PUSH2 0x135 JUMPI PUSH2 0xA9D PUSH2 0xA89 PUSH2 0x1857 JUMP JUMPDEST PUSH1 0x40 MLOAD SWAP2 DUP3 SWAP2 PUSH1 0x20 DUP4 MSTORE PUSH1 0x20 DUP4 ADD SWAP1 PUSH2 0x1921 JUMP JUMPDEST SUB SWAP1 RETURN JUMPDEST POP CALLVALUE PUSH2 0x135 JUMPI DUP1 PUSH1 0x3 NOT CALLDATASIZE ADD SLT PUSH2 0x135 JUMPI PUSH2 0xABA PUSH2 0x1CB4 JUMP JUMPDEST PUSH1 0x97 DUP1 SLOAD PUSH1 0x1 PUSH1 0x1 PUSH1 0xA0 SHL SUB NOT DUP2 AND SWAP1 SWAP2 SSTORE DUP2 SWAP1 PUSH1 0x1 PUSH1 0x1 PUSH1 0xA0 SHL SUB AND PUSH32 0x8BE0079C531659141344CD1FD0A4F28419497F9722A3DAAFE3B4186F6B6457E0 DUP3 DUP1 LOG3 DUP1 RETURN JUMPDEST POP CALLVALUE PUSH2 0x135 JUMPI DUP1 PUSH1 0x3 NOT CALLDATASIZE ADD SLT PUSH2 0x135 JUMPI PUSH32 0x0 PUSH1 0x1 PUSH1 0x1 PUSH1 0xA0 SHL SUB AND ADDRESS SUB PUSH2 0xB57 JUMPI PUSH1 0x20 PUSH1 0x40 MLOAD PUSH1 0x0 DUP1 MLOAD PUSH1 0x20 PUSH2 0x200B DUP4 CODECOPY DUP2 MLOAD SWAP2 MSTORE DUP2 MSTORE RETURN JUMPDEST PUSH1 0x40 MLOAD PUSH3 0x461BCD PUSH1 0xE5 SHL DUP2 MSTORE PUSH1 0x20 PUSH1 0x4 DUP3 ADD MSTORE PUSH1 0x38 PUSH1 0x24 DUP3 ADD MSTORE PUSH32 0x555550535570677261646561626C653A206D757374206E6F742062652063616C PUSH1 0x44 DUP3 ADD MSTORE PUSH32 0x6C6564207468726F7567682064656C656761746563616C6C0000000000000000 PUSH1 0x64 DUP3 ADD MSTORE PUSH1 0x84 SWAP1 REVERT JUMPDEST POP PUSH1 0x40 CALLDATASIZE PUSH1 0x3 NOT ADD SLT PUSH2 0x135 JUMPI PUSH2 0xBD7 PUSH2 0x177E JUMP JUMPDEST PUSH1 0x24 CALLDATALOAD PUSH1 0x1 PUSH1 0x1 PUSH1 0x40 SHL SUB DUP2 GT PUSH2 0x26B JUMPI CALLDATASIZE PUSH1 0x23 DUP3 ADD SLT ISZERO PUSH2 0x26B JUMPI PUSH2 0xC07 SWAP1 CALLDATASIZE SWAP1 PUSH1 0x24 DUP2 PUSH1 0x4 ADD CALLDATALOAD SWAP2 ADD PUSH2 0x17E6 JUMP JUMPDEST PUSH2 0xC5F PUSH32 0x0 PUSH1 0x1 PUSH1 0x1 PUSH1 0xA0 SHL SUB AND PUSH2 0xC40 ADDRESS DUP3 EQ ISZERO PUSH2 0x19BA JUMP JUMPDEST PUSH1 0x0 DUP1 MLOAD PUSH1 0x20 PUSH2 0x200B DUP4 CODECOPY DUP2 MLOAD SWAP2 MSTORE SLOAD PUSH1 0x1 PUSH1 0x1 PUSH1 0xA0 SHL SUB AND EQ PUSH2 0x1A1B JUMP JUMPDEST PUSH2 0xC67 PUSH2 0x1CB4 JUMP JUMPDEST PUSH32 0x4910FDFA16FED3260ED0E7147F7CC6DA11A60208B5B9406D12A635614FFD9143 SLOAD PUSH1 0xFF AND ISZERO PUSH2 0xC9B JUMPI POP PUSH2 0x172 SWAP1 PUSH2 0x1EA4 JUMP JUMPDEST PUSH1 0x40 MLOAD PUSH4 0x52D1902D PUSH1 0xE0 SHL DUP2 MSTORE PUSH1 0x1 PUSH1 0x1 PUSH1 0xA0 SHL SUB DUP4 AND SWAP1 PUSH1 0x20 DUP2 PUSH1 0x4 DUP2 DUP6 GAS STATICCALL DUP6 SWAP2 DUP2 PUSH2 0xE43 JUMPI JUMPDEST POP PUSH2 0xD25 JUMPI PUSH1 0x40 MLOAD PUSH3 0x461BCD PUSH1 0xE5 SHL DUP2 MSTORE PUSH1 0x20 PUSH1 0x4 DUP3 ADD MSTORE PUSH1 0x2E PUSH1 0x24 DUP3 ADD MSTORE PUSH32 0x45524331393637557067726164653A206E657720696D706C656D656E74617469 PUSH1 0x44 DUP3 ADD MSTORE PUSH14 0x6F6E206973206E6F742055555053 PUSH1 0x90 SHL PUSH1 0x64 DUP3 ADD MSTORE PUSH1 0x84 SWAP1 REVERT JUMPDEST PUSH1 0x0 DUP1 MLOAD PUSH1 0x20 PUSH2 0x200B DUP4 CODECOPY DUP2 MLOAD SWAP2 MSTORE SUB PUSH2 0xDEC JUMPI PUSH2 0xD42 DUP4 PUSH2 0x1EA4 JUMP JUMPDEST PUSH32 0xBC7CD75A20EE27FD9ADEBAB32041F755214DBC6BFFA90CC0225B39DA2E5C2D3B DUP5 DUP1 LOG2 DUP1 MLOAD ISZERO DUP1 ISZERO SWAP1 PUSH2 0xDE4 JUMPI JUMPDEST PUSH2 0xD7A JUMPI POP POP DUP1 RETURN JUMPDEST PUSH2 0xDE0 SWAP2 DUP4 DUP1 PUSH1 0x40 MLOAD SWAP4 PUSH2 0xD8F PUSH1 0x60 DUP7 PUSH2 0x1794 JUMP JUMPDEST PUSH1 0x27 DUP6 MSTORE PUSH32 0x416464726573733A206C6F772D6C6576656C2064656C65676174652063616C6C PUSH1 0x20 DUP7 ADD MSTORE PUSH7 0x819985A5B1959 PUSH1 0xCA SHL PUSH1 0x40 DUP7 ADD MSTORE PUSH1 0x20 DUP2 MLOAD SWAP2 ADD DUP5 GAS DELEGATECALL PUSH2 0xDDA PUSH2 0x1F3D JUMP JUMPDEST SWAP2 PUSH2 0x1F6D JUMP JUMPDEST POP DUP1 RETURN JUMPDEST POP PUSH1 0x1 PUSH2 0xD71 JUMP JUMPDEST PUSH1 0x40 MLOAD PUSH3 0x461BCD PUSH1 0xE5 SHL DUP2 MSTORE PUSH1 0x20 PUSH1 0x4 DUP3 ADD MSTORE PUSH1 0x29 PUSH1 0x24 DUP3 ADD MSTORE PUSH32 0x45524331393637557067726164653A20756E737570706F727465642070726F78 PUSH1 0x44 DUP3 ADD MSTORE PUSH9 0x1A58589B1955555251 PUSH1 0xBA SHL PUSH1 0x64 DUP3 ADD MSTORE PUSH1 0x84 SWAP1 REVERT JUMPDEST SWAP1 SWAP2 POP PUSH1 0x20 DUP2 RETURNDATASIZE PUSH1 0x20 GT PUSH2 0xE6F JUMPI JUMPDEST DUP2 PUSH2 0xE5F PUSH1 0x20 SWAP4 DUP4 PUSH2 0x1794 JUMP JUMPDEST DUP2 ADD SUB SLT PUSH2 0xA21 JUMPI MLOAD SWAP1 CODESIZE PUSH2 0xCC4 JUMP JUMPDEST RETURNDATASIZE SWAP2 POP PUSH2 0xE52 JUMP JUMPDEST POP CALLVALUE PUSH2 0x135 JUMPI DUP1 PUSH1 0x3 NOT CALLDATASIZE ADD SLT PUSH2 0x135 JUMPI PUSH1 0xFF SLOAD PUSH1 0x40 MLOAD PUSH1 0x1 PUSH1 0x1 PUSH1 0xA0 SHL SUB SWAP1 SWAP2 AND DUP2 MSTORE PUSH1 0x20 SWAP1 RETURN JUMPDEST POP CALLVALUE PUSH2 0x135 JUMPI PUSH1 0x20 CALLDATASIZE PUSH1 0x3 NOT ADD SLT PUSH2 0x135 JUMPI PUSH2 0xEBA PUSH2 0x177E JUMP JUMPDEST PUSH2 0xEF3 PUSH32 0x0 PUSH1 0x1 PUSH1 0x1 PUSH1 0xA0 SHL SUB AND PUSH2 0xC40 ADDRESS DUP3 EQ ISZERO PUSH2 0x19BA JUMP JUMPDEST PUSH2 0xEFB PUSH2 0x1CB4 JUMP JUMPDEST PUSH1 0x20 SWAP1 PUSH1 0x40 MLOAD PUSH2 0xF0B DUP4 DUP3 PUSH2 0x1794 JUMP JUMPDEST DUP4 DUP2 MSTORE DUP3 DUP2 ADD SWAP1 PUSH1 0x1F NOT DUP5 ADD CALLDATASIZE DUP4 CALLDATACOPY PUSH32 0x4910FDFA16FED3260ED0E7147F7CC6DA11A60208B5B9406D12A635614FFD9143 SLOAD PUSH1 0xFF AND ISZERO PUSH2 0xF50 JUMPI POP POP PUSH2 0x172 SWAP2 POP PUSH2 0x1EA4 JUMP JUMPDEST PUSH1 0x40 MLOAD PUSH4 0x52D1902D PUSH1 0xE0 SHL DUP2 MSTORE SWAP2 SWAP3 SWAP2 PUSH1 0x1 PUSH1 0x1 PUSH1 0xA0 SHL SUB DUP4 AND SWAP1 DUP6 DUP2 PUSH1 0x4 DUP2 DUP6 GAS STATICCALL DUP8 SWAP2 DUP2 PUSH2 0x1110 JUMPI JUMPDEST POP PUSH2 0xFDC JUMPI PUSH1 0x40 MLOAD PUSH3 0x461BCD PUSH1 0xE5 SHL DUP2 MSTORE PUSH1 0x4 DUP2 ADD DUP8 SWAP1 MSTORE PUSH1 0x2E PUSH1 0x24 DUP3 ADD MSTORE PUSH32 0x45524331393637557067726164653A206E657720696D706C656D656E74617469 PUSH1 0x44 DUP3 ADD MSTORE PUSH14 0x6F6E206973206E6F742055555053 PUSH1 0x90 SHL PUSH1 0x64 DUP3 ADD MSTORE PUSH1 0x84 SWAP1 REVERT JUMPDEST SWAP4 SWAP5 SWAP4 PUSH32 0xC9F76B5EC45E5CDEF99837D7B6D2467235C1DF8933C8CA56DF5C35AFA2C7D444 ADD PUSH2 0x10B9 JUMPI SWAP1 DUP6 SWAP2 PUSH2 0x1011 DUP5 PUSH2 0x1EA4 JUMP JUMPDEST PUSH32 0xBC7CD75A20EE27FD9ADEBAB32041F755214DBC6BFFA90CC0225B39DA2E5C2D3B DUP4 DUP1 LOG2 DUP1 MLOAD ISZERO DUP1 ISZERO SWAP1 PUSH2 0x10B2 JUMPI JUMPDEST PUSH2 0x104D JUMPI JUMPDEST POP POP POP POP POP DUP1 RETURN JUMPDEST PUSH2 0x10A7 SWAP5 DUP3 SWAP2 PUSH32 0x416464726573733A206C6F772D6C6576656C2064656C65676174652063616C6C PUSH1 0x40 MLOAD SWAP7 PUSH2 0x1083 PUSH1 0x60 DUP10 PUSH2 0x1794 JUMP JUMPDEST PUSH1 0x27 DUP9 MSTORE DUP8 ADD MSTORE PUSH7 0x819985A5B1959 PUSH1 0xCA SHL PUSH1 0x40 DUP8 ADD MSTORE MLOAD SWAP1 DUP5 GAS DELEGATECALL PUSH2 0xDDA PUSH2 0x1F3D JUMP JUMPDEST POP CODESIZE DUP1 DUP1 DUP4 DUP2 PUSH2 0x1045 JUMP JUMPDEST POP DUP2 PUSH2 0x1040 JUMP JUMPDEST PUSH1 0x40 MLOAD PUSH3 0x461BCD PUSH1 0xE5 SHL DUP2 MSTORE PUSH1 0x4 DUP2 ADD DUP6 SWAP1 MSTORE PUSH1 0x29 PUSH1 0x24 DUP3 ADD MSTORE PUSH32 0x45524331393637557067726164653A20756E737570706F727465642070726F78 PUSH1 0x44 DUP3 ADD MSTORE PUSH9 0x1A58589B1955555251 PUSH1 0xBA SHL PUSH1 0x64 DUP3 ADD MSTORE PUSH1 0x84 SWAP1 REVERT JUMPDEST SWAP1 SWAP2 POP DUP7 DUP2 DUP2 RETURNDATASIZE DUP4 GT PUSH2 0x1138 JUMPI JUMPDEST PUSH2 0x1128 DUP2 DUP4 PUSH2 0x1794 JUMP JUMPDEST DUP2 ADD SUB SLT PUSH2 0xA21 JUMPI MLOAD SWAP1 CODESIZE PUSH2 0xF7B JUMP JUMPDEST POP RETURNDATASIZE PUSH2 0x111E JUMP JUMPDEST POP CALLVALUE PUSH2 0x135 JUMPI DUP1 PUSH1 0x3 NOT CALLDATASIZE ADD SLT PUSH2 0x135 JUMPI PUSH1 0x20 PUSH2 0xFFFF PUSH1 0xFE SLOAD PUSH1 0xA0 SHR AND PUSH1 0x40 MLOAD SWAP1 DUP2 MSTORE RETURN JUMPDEST POP CALLVALUE PUSH2 0x135 JUMPI PUSH1 0x20 CALLDATASIZE PUSH1 0x3 NOT ADD SLT PUSH2 0x135 JUMPI PUSH2 0x117E PUSH2 0x1740 JUMP JUMPDEST PUSH2 0x1186 PUSH2 0x1CB4 JUMP JUMPDEST PUSH2 0xFFFF DUP2 AND SWAP1 PUSH2 0x3E8 DUP3 GT PUSH2 0x11E3 JUMPI PUSH1 0xFE DUP1 SLOAD PUSH2 0xFFFF PUSH1 0xA0 SHL NOT AND PUSH1 0xA0 SWAP3 SWAP1 SWAP3 SHL PUSH2 0xFFFF PUSH1 0xA0 SHL AND SWAP2 SWAP1 SWAP2 OR SWAP1 SSTORE PUSH1 0x40 MLOAD SWAP1 DUP2 MSTORE PUSH32 0x931A978D852C1B6FA9DD97300FD89C773FF625B91F697B0911E943BA15F9E243 SWAP1 PUSH1 0x20 SWAP1 LOG1 DUP1 RETURN JUMPDEST PUSH4 0x58D620B3 PUSH1 0xE0 SHL DUP4 MSTORE PUSH1 0x4 DUP4 REVERT JUMPDEST POP CALLVALUE PUSH2 0x135 JUMPI PUSH1 0x80 CALLDATASIZE PUSH1 0x3 NOT ADD SLT PUSH2 0x135 JUMPI PUSH2 0x120C PUSH2 0x1740 JUMP JUMPDEST PUSH1 0x24 CALLDATALOAD PUSH1 0x1 PUSH1 0x1 PUSH1 0x40 SHL SUB DUP2 GT PUSH2 0x26B JUMPI PUSH2 0x122B SWAP1 CALLDATASIZE SWAP1 PUSH1 0x4 ADD PUSH2 0x1751 JUMP JUMPDEST SWAP2 SWAP1 PUSH1 0x44 CALLDATALOAD PUSH1 0x1 PUSH1 0x1 PUSH1 0x40 SHL SUB DUP2 AND SUB PUSH2 0xA69 JUMPI PUSH1 0x64 CALLDATALOAD PUSH1 0x1 PUSH1 0x1 PUSH1 0x40 SHL SUB DUP2 GT PUSH2 0x747 JUMPI PUSH2 0x125E SWAP1 CALLDATASIZE SWAP1 PUSH1 0x4 ADD PUSH2 0x1751 JUMP JUMPDEST PUSH2 0x1269 SWAP3 SWAP2 SWAP3 PUSH2 0x1A9D JUMP JUMPDEST PUSH1 0xFB SLOAD PUSH1 0x1 PUSH1 0x1 PUSH1 0xA0 SHL SUB AND CALLER SUB PUSH2 0x1708 JUMPI PUSH2 0x1286 PUSH1 0xFC SLOAD PUSH2 0x181D JUMP JUMPDEST DUP6 EQ DUP1 ISZERO SWAP1 PUSH2 0x1717 JUMPI JUMPDEST PUSH2 0x1708 JUMPI DUP3 ADD SWAP2 PUSH1 0x20 DUP2 DUP5 SUB SLT PUSH2 0x743 JUMPI DUP1 CALLDATALOAD SWAP1 PUSH1 0x1 PUSH1 0x1 PUSH1 0x40 SHL SUB DUP3 GT PUSH2 0x73F JUMPI ADD SWAP4 PUSH1 0xA0 DUP6 DUP5 SUB SLT PUSH2 0x743 JUMPI PUSH1 0x40 MLOAD SWAP3 PUSH1 0xA0 DUP5 ADD DUP5 DUP2 LT PUSH1 0x1 PUSH1 0x1 PUSH1 0x40 SHL SUB DUP3 GT OR PUSH2 0x660 JUMPI PUSH1 0x40 MSTORE DUP6 CALLDATALOAD PUSH1 0x1 PUSH1 0x1 PUSH1 0xA0 SHL SUB DUP2 AND DUP2 SUB PUSH2 0xA65 JUMPI DUP5 MSTORE PUSH1 0x20 DUP5 ADD SWAP6 PUSH1 0x20 DUP2 ADD CALLDATALOAD DUP8 MSTORE PUSH1 0x40 DUP2 ADD CALLDATALOAD PUSH1 0x1 PUSH1 0x1 PUSH1 0x40 SHL SUB DUP2 GT PUSH2 0x73B JUMPI DUP3 PUSH2 0x131A SWAP2 DUP4 ADD PUSH2 0x1946 JUMP JUMPDEST SWAP1 PUSH1 0x40 DUP7 ADD SWAP2 DUP3 MSTORE PUSH1 0x60 DUP2 ADD CALLDATALOAD PUSH1 0x1 PUSH1 0x1 PUSH1 0x40 SHL SUB DUP2 GT PUSH2 0x1704 JUMPI DUP4 PUSH2 0x1341 SWAP2 DUP4 ADD PUSH2 0x1946 JUMP JUMPDEST SWAP3 PUSH1 0x60 DUP8 ADD SWAP4 DUP5 MSTORE PUSH1 0x80 DUP3 ADD CALLDATALOAD PUSH1 0x1 PUSH1 0x1 PUSH1 0x40 SHL SUB DUP2 GT PUSH2 0x1700 JUMPI PUSH2 0x1366 SWAP3 ADD PUSH2 0x1946 JUMP JUMPDEST SWAP7 PUSH1 0x80 DUP7 ADD SWAP8 DUP9 MSTORE DUP1 MLOAD ISZERO PUSH2 0xA56 JUMPI DUP6 MLOAD DUP2 MLOAD PUSH1 0x20 SWAP4 PUSH2 0x1435 SWAP4 SWAP1 SWAP3 PUSH2 0x13C2 SWAP3 PUSH2 0x139C SWAP2 ADDRESS SWAP1 DUP2 SWAP1 PUSH1 0x1 PUSH1 0x1 PUSH1 0xA0 SHL SUB AND PUSH2 0x1AF3 JUMP JUMPDEST PUSH2 0x2710 PUSH2 0x13B4 DUP3 MLOAD PUSH2 0xFFFF PUSH1 0xFE SLOAD PUSH1 0xA0 SHR AND SWAP1 PUSH2 0x1964 JUMP JUMPDEST DIV SWAP1 DUP2 PUSH2 0x16DE JUMPI JUMPDEST MLOAD PUSH2 0x198D JUMP JUMPDEST DUP8 MLOAD PUSH1 0xFE SLOAD SWAP2 SWAP6 SWAP2 PUSH2 0x13E2 SWAP2 DUP8 SWAP2 PUSH1 0x1 PUSH1 0x1 PUSH1 0xA0 SHL SUB SWAP1 DUP2 AND SWAP2 AND PUSH2 0x1B7F JUMP JUMPDEST DUP11 PUSH1 0x1 DUP1 PUSH1 0xA0 SHL SUB PUSH1 0xFE SLOAD AND SWAP3 PUSH2 0x1459 PUSH1 0x1 DUP1 PUSH1 0xA0 SHL SUB DUP12 MLOAD AND SWAP2 MLOAD SWAP4 MLOAD SWAP13 MLOAD PUSH2 0x1447 PUSH1 0x40 MLOAD SWAP15 DUP16 SWAP9 DUP10 SWAP8 DUP9 SWAP7 PUSH4 0x5E5E687 PUSH1 0xE5 SHL DUP9 MSTORE PUSH1 0x4 DUP9 ADD MSTORE DUP13 PUSH1 0x24 DUP9 ADD MSTORE PUSH1 0xA0 PUSH1 0x44 DUP9 ADD MSTORE PUSH1 0xA4 DUP8 ADD SWAP1 PUSH2 0x1921 JUMP JUMPDEST DUP6 DUP2 SUB PUSH1 0x3 NOT ADD PUSH1 0x64 DUP8 ADD MSTORE SWAP1 PUSH2 0x1921 JUMP JUMPDEST DUP4 DUP2 SUB PUSH1 0x3 NOT ADD PUSH1 0x84 DUP6 ADD MSTORE SWAP1 PUSH2 0x1921 JUMP JUMPDEST SUB SWAP3 GAS CALL SWAP6 DUP7 ISZERO PUSH2 0x16D3 JUMPI DUP8 SWAP7 PUSH2 0x1697 JUMPI JUMPDEST POP SWAP1 PUSH2 0x1515 SWAP3 SWAP2 PUSH1 0x40 MLOAD SWAP1 PUSH2 0x14B0 PUSH2 0xFFFF DUP9 AND SWAP8 PUSH2 0xFFFF PUSH1 0xF0 SHL SWAP1 PUSH1 0xF0 SHL AND SWAP7 DUP8 PUSH1 0x20 DUP6 ADD MSTORE PUSH1 0x2 DUP5 MSTORE PUSH2 0x14A0 PUSH1 0x22 DUP6 PUSH2 0x1794 JUMP JUMPDEST MLOAD PUSH1 0x1 PUSH1 0x1 PUSH1 0xA0 SHL SUB AND SWAP3 PUSH2 0x199A JUMP JUMPDEST PUSH32 0xF9270E9FDF0A18200363879F061C4CE9B97384FE40B044A4A2041F123A4E266B PUSH2 0x150B PUSH1 0x40 MLOAD DUP7 DUP9 DUP3 CALLDATACOPY DUP7 DUP2 ADD DUP14 DUP2 MSTORE DUP2 SWAP1 SUB SWAP1 KECCAK256 PUSH1 0x40 DUP1 MLOAD DUP7 DUP2 MSTORE PUSH1 0x20 DUP2 ADD SWAP7 SWAP1 SWAP7 MSTORE DUP6 ADD DUP13 SWAP1 MSTORE TIMESTAMP PUSH1 0x60 DUP7 ADD MSTORE SWAP4 SWAP1 DUP2 SWAP1 PUSH1 0x80 DUP3 ADD SWAP1 JUMP JUMPDEST SUB SWAP1 LOG4 CALLDATASIZE SWAP2 PUSH2 0x17E6 JUMP JUMPDEST SWAP2 PUSH1 0x40 MLOAD DUP5 PUSH1 0x20 DUP3 ADD MSTORE PUSH1 0x20 DUP2 MSTORE PUSH2 0x152E PUSH1 0x40 DUP3 PUSH2 0x1794 JUMP JUMPDEST PUSH1 0xFB SLOAD PUSH1 0x40 MLOAD SWAP2 DUP8 SWAP2 PUSH1 0x1 PUSH1 0x1 PUSH1 0xA0 SHL SUB AND PUSH2 0x154B PUSH1 0x20 DUP6 PUSH2 0x1794 JUMP JUMPDEST DUP3 DUP5 MSTORE DUP1 EXTCODESIZE ISZERO PUSH2 0x26B JUMPI PUSH2 0x158B DUP4 DUP9 PUSH2 0x15BB PUSH2 0x159D SWAP8 PUSH1 0x40 MLOAD SWAP9 DUP10 SWAP8 DUP9 SWAP7 DUP8 SWAP6 PUSH3 0xC58031 PUSH1 0xE8 SHL DUP8 MSTORE DUP14 PUSH1 0x4 DUP9 ADD MSTORE PUSH1 0xC0 PUSH1 0x24 DUP9 ADD MSTORE PUSH1 0xC4 DUP8 ADD SWAP1 PUSH2 0x1921 JUMP JUMPDEST DUP6 DUP2 SUB PUSH1 0x3 NOT ADD PUSH1 0x44 DUP8 ADD MSTORE SWAP1 PUSH2 0x1921 JUMP JUMPDEST SWAP1 CALLER PUSH1 0x64 DUP6 ADD MSTORE DUP5 PUSH1 0x84 DUP6 ADD MSTORE PUSH1 0x3 NOT DUP5 DUP4 SUB ADD PUSH1 0xA4 DUP6 ADD MSTORE PUSH2 0x1921 JUMP JUMPDEST SUB SWAP3 GAS CALL DUP1 ISZERO PUSH2 0x168C JUMPI PUSH2 0x1678 JUMPI JUMPDEST POP PUSH2 0x1631 JUMPI POP PUSH32 0x144E0D3627ECB1BDACD5EC073959E1B0AC2C1E6A669E77A2081329D7E4ED233 PUSH1 0x60 PUSH2 0x1615 PUSH2 0x160F PUSH1 0x40 MLOAD PUSH2 0x1607 PUSH1 0x20 DUP3 PUSH2 0x1794 JUMP JUMPDEST DUP8 DUP2 MSTORE PUSH2 0x199A JUMP JUMPDEST SWAP4 PUSH2 0x199A JUMP JUMPDEST SWAP4 PUSH1 0x40 MLOAD SWAP1 DUP1 DUP3 MSTORE PUSH1 0x20 DUP3 ADD MSTORE TIMESTAMP PUSH1 0x40 DUP3 ADD MSTORE LOG3 PUSH1 0x1 PUSH1 0xC9 SSTORE DUP1 RETURN JUMPDEST PUSH1 0x60 PUSH2 0x1615 PUSH2 0x160F PUSH32 0x144E0D3627ECB1BDACD5EC073959E1B0AC2C1E6A669E77A2081329D7E4ED233 SWAP4 PUSH1 0x40 MLOAD SWAP1 PUSH1 0x20 DUP3 ADD MSTORE PUSH1 0x2 DUP2 MSTORE PUSH2 0x1673 PUSH1 0x22 DUP3 PUSH2 0x1794 JUMP JUMPDEST PUSH2 0x199A JUMP JUMPDEST DUP6 PUSH2 0x1685 SWAP2 SWAP7 SWAP3 SWAP7 PUSH2 0x1794 JUMP JUMPDEST SWAP4 CODESIZE PUSH2 0x15CA JUMP JUMPDEST PUSH1 0x40 MLOAD RETURNDATASIZE DUP9 DUP3 RETURNDATACOPY RETURNDATASIZE SWAP1 REVERT JUMPDEST SWAP3 SWAP2 SWAP1 SWAP6 POP PUSH1 0x20 DUP4 RETURNDATASIZE PUSH1 0x20 GT PUSH2 0x16CB JUMPI JUMPDEST DUP2 PUSH2 0x16B5 PUSH1 0x20 SWAP4 DUP4 PUSH2 0x1794 JUMP JUMPDEST DUP2 ADD SUB SLT PUSH2 0x73F JUMPI PUSH2 0x1515 SWAP3 MLOAD SWAP6 SWAP1 SWAP2 SWAP3 PUSH2 0x146B JUMP JUMPDEST RETURNDATASIZE SWAP2 POP PUSH2 0x16A8 JUMP JUMPDEST PUSH1 0x40 MLOAD RETURNDATASIZE DUP10 DUP3 RETURNDATACOPY RETURNDATASIZE SWAP1 REVERT JUMPDEST DUP10 MLOAD PUSH1 0xFF SLOAD PUSH2 0x16FB SWAP2 DUP5 SWAP2 PUSH1 0x1 PUSH1 0x1 PUSH1 0xA0 SHL SUB SWAP1 DUP2 AND SWAP2 AND PUSH2 0x1B3C JUMP JUMPDEST PUSH2 0x13BC JUMP JUMPDEST DUP11 DUP1 REVERT JUMPDEST DUP10 DUP1 REVERT JUMPDEST PUSH4 0x5C427CD9 PUSH1 0xE0 SHL DUP7 MSTORE PUSH1 0x4 DUP7 REVERT JUMPDEST POP PUSH2 0x1723 CALLDATASIZE DUP7 DUP5 PUSH2 0x17E6 JUMP JUMPDEST PUSH1 0x20 DUP2 MLOAD SWAP2 ADD KECCAK256 PUSH2 0x1732 PUSH2 0x1857 JUMP JUMPDEST PUSH1 0x20 DUP2 MLOAD SWAP2 ADD KECCAK256 EQ ISZERO PUSH2 0x1290 JUMP JUMPDEST PUSH1 0x4 CALLDATALOAD SWAP1 PUSH2 0xFFFF DUP3 AND DUP3 SUB PUSH2 0xA21 JUMPI JUMP JUMPDEST SWAP2 DUP2 PUSH1 0x1F DUP5 ADD SLT ISZERO PUSH2 0xA21 JUMPI DUP3 CALLDATALOAD SWAP2 PUSH1 0x1 PUSH1 0x1 PUSH1 0x40 SHL SUB DUP4 GT PUSH2 0xA21 JUMPI PUSH1 0x20 DUP4 DUP2 DUP7 ADD SWAP6 ADD ADD GT PUSH2 0xA21 JUMPI JUMP JUMPDEST PUSH1 0x4 CALLDATALOAD SWAP1 PUSH1 0x1 PUSH1 0x1 PUSH1 0xA0 SHL SUB DUP3 AND DUP3 SUB PUSH2 0xA21 JUMPI JUMP JUMPDEST SWAP1 PUSH1 0x1F DUP1 NOT SWAP2 ADD AND DUP2 ADD SWAP1 DUP2 LT PUSH1 0x1 PUSH1 0x1 PUSH1 0x40 SHL SUB DUP3 GT OR PUSH2 0x17B5 JUMPI PUSH1 0x40 MSTORE JUMP JUMPDEST PUSH4 0x4E487B71 PUSH1 0xE0 SHL PUSH1 0x0 MSTORE PUSH1 0x41 PUSH1 0x4 MSTORE PUSH1 0x24 PUSH1 0x0 REVERT JUMPDEST PUSH1 0x1 PUSH1 0x1 PUSH1 0x40 SHL SUB DUP2 GT PUSH2 0x17B5 JUMPI PUSH1 0x1F ADD PUSH1 0x1F NOT AND PUSH1 0x20 ADD SWAP1 JUMP JUMPDEST SWAP3 SWAP2 SWAP3 PUSH2 0x17F2 DUP3 PUSH2 0x17CB JUMP JUMPDEST SWAP2 PUSH2 0x1800 PUSH1 0x40 MLOAD SWAP4 DUP5 PUSH2 0x1794 JUMP JUMPDEST DUP3 SWAP5 DUP2 DUP5 MSTORE DUP2 DUP4 ADD GT PUSH2 0xA21 JUMPI DUP3 DUP2 PUSH1 0x20 SWAP4 DUP5 PUSH1 0x0 SWAP7 ADD CALLDATACOPY ADD ADD MSTORE JUMP JUMPDEST SWAP1 PUSH1 0x1 DUP3 DUP2 SHR SWAP3 AND DUP1 ISZERO PUSH2 0x184D JUMPI JUMPDEST PUSH1 0x20 DUP4 LT EQ PUSH2 0x1837 JUMPI JUMP JUMPDEST PUSH4 0x4E487B71 PUSH1 0xE0 SHL PUSH1 0x0 MSTORE PUSH1 0x22 PUSH1 0x4 MSTORE PUSH1 0x24 PUSH1 0x0 REVERT JUMPDEST SWAP2 PUSH1 0x7F AND SWAP2 PUSH2 0x182C JUMP JUMPDEST PUSH1 0x40 MLOAD SWAP1 PUSH1 0x0 DUP3 PUSH1 0xFC SLOAD SWAP2 PUSH2 0x186B DUP4 PUSH2 0x181D JUMP JUMPDEST DUP1 DUP4 MSTORE SWAP3 PUSH1 0x1 DUP2 AND SWAP1 DUP2 ISZERO PUSH2 0x18DF JUMPI POP PUSH1 0x1 EQ PUSH2 0x1891 JUMPI JUMPDEST PUSH2 0x188F SWAP3 POP SUB DUP4 PUSH2 0x1794 JUMP JUMPDEST JUMP JUMPDEST POP PUSH1 0xFC PUSH1 0x0 SWAP1 DUP2 MSTORE SWAP1 SWAP2 PUSH1 0x0 DUP1 MLOAD PUSH1 0x20 PUSH2 0x202B DUP4 CODECOPY DUP2 MLOAD SWAP2 MSTORE JUMPDEST DUP2 DUP4 LT PUSH2 0x18C3 JUMPI POP POP SWAP1 PUSH1 0x20 PUSH2 0x188F SWAP3 DUP3 ADD ADD PUSH2 0x1883 JUMP JUMPDEST PUSH1 0x20 SWAP2 SWAP4 POP DUP1 PUSH1 0x1 SWAP2 SLOAD DUP4 DUP6 DUP10 ADD ADD MSTORE ADD SWAP2 ADD SWAP1 SWAP2 DUP5 SWAP3 PUSH2 0x18AB JUMP JUMPDEST PUSH1 0x20 SWAP3 POP PUSH2 0x188F SWAP5 SWAP2 POP PUSH1 0xFF NOT AND DUP3 DUP5 ADD MSTORE ISZERO ISZERO PUSH1 0x5 SHL DUP3 ADD ADD PUSH2 0x1883 JUMP JUMPDEST PUSH1 0x0 JUMPDEST DUP4 DUP2 LT PUSH2 0x1911 JUMPI POP POP PUSH1 0x0 SWAP2 ADD MSTORE JUMP JUMPDEST DUP2 DUP2 ADD MLOAD DUP4 DUP3 ADD MSTORE PUSH1 0x20 ADD PUSH2 0x1901 JUMP JUMPDEST SWAP1 PUSH1 0x20 SWAP2 PUSH2 0x193A DUP2 MLOAD DUP1 SWAP3 DUP2 DUP6 MSTORE DUP6 DUP1 DUP7 ADD SWAP2 ADD PUSH2 0x18FE JUMP JUMPDEST PUSH1 0x1F ADD PUSH1 0x1F NOT AND ADD ADD SWAP1 JUMP JUMPDEST SWAP1 DUP1 PUSH1 0x1F DUP4 ADD SLT ISZERO PUSH2 0xA21 JUMPI DUP2 PUSH1 0x20 PUSH2 0x1961 SWAP4 CALLDATALOAD SWAP2 ADD PUSH2 0x17E6 JUMP JUMPDEST SWAP1 JUMP JUMPDEST DUP2 DUP2 MUL SWAP3 SWAP2 DUP2 ISZERO SWAP2 DUP5 DIV EQ OR ISZERO PUSH2 0x1977 JUMPI JUMP JUMPDEST PUSH4 0x4E487B71 PUSH1 0xE0 SHL PUSH1 0x0 MSTORE PUSH1 0x11 PUSH1 0x4 MSTORE PUSH1 0x24 PUSH1 0x0 REVERT JUMPDEST SWAP2 SWAP1 DUP3 SUB SWAP2 DUP3 GT PUSH2 0x1977 JUMPI JUMP JUMPDEST PUSH2 0x19B2 SWAP1 PUSH1 0x20 PUSH1 0x40 MLOAD SWAP3 DUP3 DUP5 DUP1 SWAP5 MLOAD SWAP4 DUP5 SWAP3 ADD PUSH2 0x18FE JUMP JUMPDEST DUP2 ADD SUB SWAP1 KECCAK256 SWAP1 JUMP JUMPDEST ISZERO PUSH2 0x19C1 JUMPI JUMP JUMPDEST PUSH1 0x40 MLOAD PUSH3 0x461BCD PUSH1 0xE5 SHL DUP2 MSTORE PUSH1 0x20 PUSH1 0x4 DUP3 ADD MSTORE PUSH1 0x2C PUSH1 0x24 DUP3 ADD MSTORE PUSH32 0x46756E6374696F6E206D7573742062652063616C6C6564207468726F75676820 PUSH1 0x44 DUP3 ADD MSTORE PUSH12 0x19195B1959D85D1958D85B1B PUSH1 0xA2 SHL PUSH1 0x64 DUP3 ADD MSTORE PUSH1 0x84 SWAP1 REVERT JUMPDEST ISZERO PUSH2 0x1A22 JUMPI JUMP JUMPDEST PUSH1 0x40 MLOAD PUSH3 0x461BCD PUSH1 0xE5 SHL DUP2 MSTORE PUSH1 0x20 PUSH1 0x4 DUP3 ADD MSTORE PUSH1 0x2C PUSH1 0x24 DUP3 ADD MSTORE PUSH32 0x46756E6374696F6E206D7573742062652063616C6C6564207468726F75676820 PUSH1 0x44 DUP3 ADD MSTORE PUSH12 0x6163746976652070726F7879 PUSH1 0xA0 SHL PUSH1 0x64 DUP3 ADD MSTORE PUSH1 0x84 SWAP1 REVERT JUMPDEST SWAP1 DUP1 PUSH1 0x20 SWAP4 SWAP3 DUP2 DUP5 MSTORE DUP5 DUP5 ADD CALLDATACOPY PUSH1 0x0 DUP3 DUP3 ADD DUP5 ADD MSTORE PUSH1 0x1F ADD PUSH1 0x1F NOT AND ADD ADD SWAP1 JUMP JUMPDEST PUSH1 0x2 PUSH1 0xC9 SLOAD EQ PUSH2 0x1AAE JUMPI PUSH1 0x2 PUSH1 0xC9 SSTORE JUMP JUMPDEST PUSH1 0x40 MLOAD PUSH3 0x461BCD PUSH1 0xE5 SHL DUP2 MSTORE PUSH1 0x20 PUSH1 0x4 DUP3 ADD MSTORE PUSH1 0x1F PUSH1 0x24 DUP3 ADD MSTORE PUSH32 0x5265656E7472616E637947756172643A207265656E7472616E742063616C6C00 PUSH1 0x44 DUP3 ADD MSTORE PUSH1 0x64 SWAP1 REVERT JUMPDEST PUSH1 0x40 MLOAD PUSH4 0x23B872DD PUSH1 0xE0 SHL PUSH1 0x20 DUP3 ADD MSTORE PUSH1 0x1 PUSH1 0x1 PUSH1 0xA0 SHL SUB SWAP3 DUP4 AND PUSH1 0x24 DUP3 ADD MSTORE SWAP3 SWAP1 SWAP2 AND PUSH1 0x44 DUP4 ADD MSTORE PUSH1 0x64 DUP1 DUP4 ADD SWAP4 SWAP1 SWAP4 MSTORE SWAP2 DUP2 MSTORE PUSH2 0x188F SWAP2 PUSH2 0x1B37 PUSH1 0x84 DUP4 PUSH2 0x1794 JUMP JUMPDEST PUSH2 0x1DB5 JUMP JUMPDEST PUSH1 0x40 MLOAD PUSH4 0xA9059CBB PUSH1 0xE0 SHL PUSH1 0x20 DUP3 ADD MSTORE PUSH1 0x1 PUSH1 0x1 PUSH1 0xA0 SHL SUB SWAP1 SWAP3 AND PUSH1 0x24 DUP4 ADD MSTORE PUSH1 0x44 DUP3 ADD SWAP3 SWAP1 SWAP3 MSTORE PUSH2 0x188F SWAP2 PUSH2 0x1B37 DUP3 PUSH1 0x64 DUP2 ADD JUMPDEST SUB PUSH1 0x1F NOT DUP2 ADD DUP5 MSTORE DUP4 PUSH2 0x1794 JUMP JUMPDEST SWAP2 SWAP1 SWAP2 DUP2 ISZERO DUP1 ISZERO PUSH2 0x1C2E JUMPI JUMPDEST ISZERO PUSH2 0x1BCA JUMPI PUSH1 0x40 MLOAD PUSH4 0x95EA7B3 PUSH1 0xE0 SHL PUSH1 0x20 DUP3 ADD MSTORE PUSH1 0x1 PUSH1 0x1 PUSH1 0xA0 SHL SUB SWAP1 SWAP4 AND PUSH1 0x24 DUP5 ADD MSTORE PUSH1 0x44 DUP4 ADD SWAP2 SWAP1 SWAP2 MSTORE PUSH2 0x188F SWAP2 SWAP1 PUSH2 0x1B37 DUP3 PUSH1 0x64 DUP2 ADD PUSH2 0x1B71 JUMP JUMPDEST PUSH1 0x40 MLOAD PUSH3 0x461BCD PUSH1 0xE5 SHL DUP2 MSTORE PUSH1 0x20 PUSH1 0x4 DUP3 ADD MSTORE PUSH1 0x36 PUSH1 0x24 DUP3 ADD MSTORE PUSH32 0x5361666545524332303A20617070726F76652066726F6D206E6F6E2D7A65726F PUSH1 0x44 DUP3 ADD MSTORE PUSH22 0x20746F206E6F6E2D7A65726F20616C6C6F77616E6365 PUSH1 0x50 SHL PUSH1 0x64 DUP3 ADD MSTORE PUSH1 0x84 SWAP1 REVERT JUMPDEST POP PUSH1 0x40 MLOAD PUSH4 0x6EB1769F PUSH1 0xE1 SHL DUP2 MSTORE ADDRESS PUSH1 0x4 DUP3 ADD MSTORE PUSH1 0x1 PUSH1 0x1 PUSH1 0xA0 SHL SUB DUP5 DUP2 AND PUSH1 0x24 DUP4 ADD MSTORE PUSH1 0x20 SWAP1 DUP3 SWAP1 PUSH1 0x44 SWAP1 DUP3 SWAP1 DUP7 AND GAS STATICCALL SWAP1 DUP2 ISZERO PUSH2 0x1CA8 JUMPI PUSH1 0x0 SWAP2 PUSH2 0x1C76 JUMPI JUMPDEST POP ISZERO PUSH2 0x1B8B JUMP JUMPDEST SWAP1 POP PUSH1 0x20 DUP2 RETURNDATASIZE PUSH1 0x20 GT PUSH2 0x1CA0 JUMPI JUMPDEST DUP2 PUSH2 0x1C91 PUSH1 0x20 SWAP4 DUP4 PUSH2 0x1794 JUMP JUMPDEST DUP2 ADD SUB SLT PUSH2 0xA21 JUMPI MLOAD CODESIZE PUSH2 0x1C6F JUMP JUMPDEST RETURNDATASIZE SWAP2 POP PUSH2 0x1C84 JUMP JUMPDEST PUSH1 0x40 MLOAD RETURNDATASIZE PUSH1 0x0 DUP3 RETURNDATACOPY RETURNDATASIZE SWAP1 REVERT JUMPDEST PUSH1 0x97 SLOAD PUSH1 0x1 PUSH1 0x1 PUSH1 0xA0 SHL SUB AND CALLER SUB PUSH2 0x1CC8 JUMPI JUMP JUMPDEST PUSH1 0x64 PUSH1 0x40 MLOAD PUSH3 0x461BCD PUSH1 0xE5 SHL DUP2 MSTORE PUSH1 0x20 PUSH1 0x4 DUP3 ADD MSTORE PUSH1 0x20 PUSH1 0x24 DUP3 ADD MSTORE PUSH32 0x4F776E61626C653A2063616C6C6572206973206E6F7420746865206F776E6572 PUSH1 0x44 DUP3 ADD MSTORE REVERT JUMPDEST PUSH1 0x97 DUP1 SLOAD PUSH1 0x1 PUSH1 0x1 PUSH1 0xA0 SHL SUB SWAP3 DUP4 AND PUSH1 0x1 PUSH1 0x1 PUSH1 0xA0 SHL SUB NOT DUP3 AND DUP2 OR SWAP1 SWAP3 SSTORE SWAP1 SWAP2 AND PUSH32 0x8BE0079C531659141344CD1FD0A4F28419497F9722A3DAAFE3B4186F6B6457E0 PUSH1 0x0 DUP1 LOG3 JUMP JUMPDEST ISZERO PUSH2 0x1D5C JUMPI JUMP JUMPDEST PUSH1 0x40 MLOAD PUSH3 0x461BCD PUSH1 0xE5 SHL DUP2 MSTORE PUSH1 0x20 PUSH1 0x4 DUP3 ADD MSTORE PUSH1 0x2B PUSH1 0x24 DUP3 ADD MSTORE PUSH32 0x496E697469616C697A61626C653A20636F6E7472616374206973206E6F742069 PUSH1 0x44 DUP3 ADD MSTORE PUSH11 0x6E697469616C697A696E67 PUSH1 0xA8 SHL PUSH1 0x64 DUP3 ADD MSTORE PUSH1 0x84 SWAP1 REVERT JUMPDEST PUSH1 0x40 DUP1 MLOAD SWAP1 SWAP3 PUSH2 0x1E14 SWAP3 PUSH1 0x1 PUSH1 0x1 PUSH1 0xA0 SHL SUB AND SWAP1 PUSH1 0x0 SWAP1 DUP2 SWAP1 PUSH2 0x1DD8 DUP8 DUP7 PUSH2 0x1794 JUMP JUMPDEST PUSH1 0x20 DUP6 MSTORE PUSH32 0x5361666545524332303A206C6F772D6C6576656C2063616C6C206661696C6564 PUSH1 0x20 DUP7 ADD MSTORE PUSH1 0x20 DUP2 MLOAD SWAP2 ADD DUP3 DUP6 GAS CALL PUSH2 0xDDA PUSH2 0x1F3D JUMP JUMPDEST DUP1 MLOAD SWAP1 DUP2 ISZERO SWAP2 DUP3 ISZERO PUSH2 0x1E81 JUMPI JUMPDEST POP POP ISZERO PUSH2 0x1E2B JUMPI POP JUMP JUMPDEST MLOAD PUSH3 0x461BCD PUSH1 0xE5 SHL DUP2 MSTORE PUSH1 0x20 PUSH1 0x4 DUP3 ADD MSTORE PUSH1 0x2A PUSH1 0x24 DUP3 ADD MSTORE PUSH32 0x5361666545524332303A204552433230206F7065726174696F6E20646964206E PUSH1 0x44 DUP3 ADD MSTORE PUSH10 0x1BDD081CDD58D8D95959 PUSH1 0xB2 SHL PUSH1 0x64 DUP3 ADD MSTORE PUSH1 0x84 SWAP1 REVERT JUMPDEST DUP2 SWAP3 POP SWAP1 PUSH1 0x20 SWAP2 DUP2 ADD SUB SLT PUSH2 0xA21 JUMPI PUSH1 0x20 ADD MLOAD DUP1 ISZERO ISZERO DUP2 SUB PUSH2 0xA21 JUMPI CODESIZE DUP1 PUSH2 0x1E21 JUMP JUMPDEST DUP1 EXTCODESIZE ISZERO PUSH2 0x1EE2 JUMPI PUSH1 0x1 DUP1 PUSH1 0xA0 SHL SUB AND PUSH1 0x1 PUSH1 0x1 PUSH1 0x60 SHL SUB PUSH1 0xA0 SHL PUSH1 0x0 DUP1 MLOAD PUSH1 0x20 PUSH2 0x200B DUP4 CODECOPY DUP2 MLOAD SWAP2 MSTORE SLOAD AND OR PUSH1 0x0 DUP1 MLOAD PUSH1 0x20 PUSH2 0x200B DUP4 CODECOPY DUP2 MLOAD SWAP2 MSTORE SSTORE JUMP JUMPDEST PUSH1 0x40 MLOAD PUSH3 0x461BCD PUSH1 0xE5 SHL DUP2 MSTORE PUSH1 0x20 PUSH1 0x4 DUP3 ADD MSTORE PUSH1 0x2D PUSH1 0x24 DUP3 ADD MSTORE PUSH32 0x455243313936373A206E657720696D706C656D656E746174696F6E206973206E PUSH1 0x44 DUP3 ADD MSTORE PUSH13 0x1BDD08184818DBDB9D1C9858DD PUSH1 0x9A SHL PUSH1 0x64 DUP3 ADD MSTORE PUSH1 0x84 SWAP1 REVERT JUMPDEST RETURNDATASIZE ISZERO PUSH2 0x1F68 JUMPI RETURNDATASIZE SWAP1 PUSH2 0x1F4E DUP3 PUSH2 0x17CB JUMP JUMPDEST SWAP2 PUSH2 0x1F5C PUSH1 0x40 MLOAD SWAP4 DUP5 PUSH2 0x1794 JUMP JUMPDEST DUP3 MSTORE RETURNDATASIZE PUSH1 0x0 PUSH1 0x20 DUP5 ADD RETURNDATACOPY JUMP JUMPDEST PUSH1 0x60 SWAP1 JUMP JUMPDEST SWAP2 SWAP3 SWAP1 ISZERO PUSH2 0x1FCF JUMPI POP DUP2 MLOAD ISZERO PUSH2 0x1F81 JUMPI POP SWAP1 JUMP JUMPDEST EXTCODESIZE ISZERO PUSH2 0x1F8A JUMPI SWAP1 JUMP JUMPDEST PUSH1 0x40 MLOAD PUSH3 0x461BCD PUSH1 0xE5 SHL DUP2 MSTORE PUSH1 0x20 PUSH1 0x4 DUP3 ADD MSTORE PUSH1 0x1D PUSH1 0x24 DUP3 ADD MSTORE PUSH32 0x416464726573733A2063616C6C20746F206E6F6E2D636F6E7472616374000000 PUSH1 0x44 DUP3 ADD MSTORE PUSH1 0x64 SWAP1 REVERT JUMPDEST DUP3 MLOAD SWAP1 SWAP2 POP ISZERO PUSH2 0x1FE2 JUMPI POP DUP1 MLOAD SWAP1 PUSH1 0x20 ADD REVERT JUMPDEST PUSH1 0x40 MLOAD PUSH3 0x461BCD PUSH1 0xE5 SHL DUP2 MSTORE PUSH1 0x20 PUSH1 0x4 DUP3 ADD MSTORE SWAP1 DUP2 SWAP1 PUSH2 0x2006 SWAP1 PUSH1 0x24 DUP4 ADD SWAP1 PUSH2 0x1921 JUMP JUMPDEST SUB SWAP1 REVERT INVALID CALLDATASIZE ADDMOD SWAP5 LOG1 EXTCODESIZE LOG1 LOG3 0x21 MOD PUSH8 0xC828492DB98DCA3E KECCAK256 PUSH23 0xCC3735A920A3CA505D382BBC371F36870D18F32A11FEA0 CALL PREVRANDAO 0xB0 0x21 0xC8 0xB4 SMOD 0xBB POP 0xF8 0xE0 0x26 PUSH29 0x711123F454B963C0A2646970667358221220A35F549EEF95409600A6C0 0xC7 0x27 0xDE 0xCF 0xE5 0xC6 0xB9 SWAP9 0x27 BLOCKHASH EXTCODEHASH 0xB5 DUP11 0xDE 0xE 0xC0 0xD5 0xFB DUP13 0xBB MULMOD PUSH5 0x736F6C6343 STOP ADDMOD SHR STOP CALLER "},"methodIdentifiers":{"authorizedBridgeAddress()":"71d205eb","emergencyWithdraw(address,address,uint256)":"e63ea408","feeBps()":"24a9d853","feeRecipient()":"46904840","initialize(address,bytes,address,address,address,uint16)":"bc2c7b1c","lzEndpoint()":"b353aaa7","lzReceive(uint16,bytes,uint64,bytes)":"001d3567","owner()":"8da5cb5b","proxiableUUID()":"52d1902d","renounceOwnership()":"715018a6","retireLocal(address,uint256,string,string,string)":"76337e69","router()":"f887ea40","setEndpoint(address)":"dbbb4155","setFeeBps(uint16)":"023b1fc9","setFeeRecipient(address)":"e74b981b","setRouter(address)":"c0d78655","setToucanRetirement(address)":"b24822c5","toucanRetirement()":"b6ffc79f","transferOwnership(address)":"f2fde38b","upgradeTo(address)":"3659cfe6","upgradeToAndCall(address,bytes)":"4f1ef286"}}}}}