{"contracts/CarbonRetirementFacilitatorCeloUpgradeable.sol":{"CarbonRetirementFacilitatorCeloUpgradeable":{"abi":[{"inputs":[],"name":"ConfirmationFailed","type":"error"},{"inputs":[],"name":"InvalidFee","type":"error"},{"inputs":[],"name":"InvalidPayload","type":"error"},{"inputs":[],"name":"RetirementFailed","type":"error"},{"inputs":[],"name":"SendingMessageFailed","type":"error"},{"inputs":[],"name":"UnauthorizedBridge","type":"error"},{"inputs":[],"name":"ZeroAddressNotAllowed","type":"error"},{"anonymous":false,"inputs":[{"indexed":false,"internalType":"uint16","name":"dstChainId","type":"uint16"},{"indexed":false,"internalType":"bytes","name":"dstAddress","type":"bytes"},{"indexed":false,"internalType":"address","name":"beneficiary","type":"address"},{"indexed":false,"internalType":"address","name":"projectVintage","type":"address"},{"indexed":false,"internalType":"uint256","name":"amount","type":"uint256"},{"indexed":false,"internalType":"string","name":"retireMessage","type":"string"}],"name":"CrossChainRetirementCompleted","type":"event"},{"anonymous":false,"inputs":[{"indexed":false,"internalType":"uint16","name":"srcChainId","type":"uint16"},{"indexed":false,"internalType":"bytes","name":"srcAddress","type":"bytes"},{"indexed":false,"internalType":"address","name":"beneficiary","type":"address"},{"indexed":false,"internalType":"address","name":"projectVintage","type":"address"},{"indexed":false,"internalType":"uint256","name":"amount","type":"uint256"},{"indexed":false,"internalType":"string","name":"retireMessage","type":"string"}],"name":"CrossChainRetirementReceived","type":"event"},{"anonymous":false,"inputs":[{"indexed":true,"internalType":"address","name":"beneficiary","type":"address"},{"indexed":true,"internalType":"address","name":"projectVintage","type":"address"},{"indexed":false,"internalType":"uint256","name":"amount","type":"uint256"},{"indexed":false,"internalType":"string","name":"retireMessage","type":"string"}],"name":"DirectRetirement","type":"event"},{"anonymous":false,"inputs":[{"indexed":false,"internalType":"uint256","name":"newFeeBasisPoints","type":"uint256"}],"name":"FeeUpdated","type":"event"},{"anonymous":false,"inputs":[{"indexed":false,"internalType":"uint8","name":"version","type":"uint8"}],"name":"Initialized","type":"event"},{"anonymous":false,"inputs":[{"indexed":true,"internalType":"address","name":"previousOwner","type":"address"},{"indexed":true,"internalType":"address","name":"newOwner","type":"address"}],"name":"OwnershipTransferred","type":"event"},{"stateMutability":"payable","type":"fallback"},{"inputs":[],"name":"authorizedBridgeAddress","outputs":[{"internalType":"bytes","name":"","type":"bytes"}],"stateMutability":"view","type":"function"},{"inputs":[],"name":"baseChainId","outputs":[{"internalType":"uint16","name":"","type":"uint16"}],"stateMutability":"view","type":"function"},{"inputs":[],"name":"feeBasisPoints","outputs":[{"internalType":"uint256","name":"","type":"uint256"}],"stateMutability":"view","type":"function"},{"inputs":[{"internalType":"address","name":"_registry","type":"address"},{"internalType":"uint256","name":"_feeBasisPoints","type":"uint256"},{"internalType":"address","name":"_lzEndpoint","type":"address"},{"internalType":"uint16","name":"_baseChainId","type":"uint16"},{"internalType":"bytes","name":"_authorizedBridgeAddress","type":"bytes"}],"name":"initialize","outputs":[],"stateMutability":"nonpayable","type":"function"},{"inputs":[],"name":"lzEndpoint","outputs":[{"internalType":"contract ILayerZeroEndpoint","name":"","type":"address"}],"stateMutability":"view","type":"function"},{"inputs":[{"internalType":"uint16","name":"_srcChainId","type":"uint16"},{"internalType":"bytes","name":"_srcAddress","type":"bytes"},{"internalType":"uint64","name":"","type":"uint64"},{"internalType":"bytes","name":"_payload","type":"bytes"}],"name":"lzReceive","outputs":[],"stateMutability":"nonpayable","type":"function"},{"inputs":[],"name":"owner","outputs":[{"internalType":"address","name":"","type":"address"}],"stateMutability":"view","type":"function"},{"inputs":[{"internalType":"address","name":"projectVintage","type":"address"},{"internalType":"uint256","name":"amount","type":"uint256"},{"internalType":"string","name":"retireMessage","type":"string"}],"name":"purchaseAndRetire","outputs":[],"stateMutability":"nonpayable","type":"function"},{"inputs":[],"name":"registry","outputs":[{"internalType":"contract IToucanContractRegistry","name":"","type":"address"}],"stateMutability":"view","type":"function"},{"inputs":[],"name":"renounceOwnership","outputs":[],"stateMutability":"nonpayable","type":"function"},{"inputs":[{"internalType":"uint16","name":"_chainId","type":"uint16"},{"internalType":"bytes","name":"_bridgeAddress","type":"bytes"}],"name":"setBridgeConfig","outputs":[],"stateMutability":"nonpayable","type":"function"},{"inputs":[{"internalType":"uint256","name":"_newFeeBasisPoints","type":"uint256"}],"name":"setFee","outputs":[],"stateMutability":"nonpayable","type":"function"},{"inputs":[{"internalType":"address","name":"newOwner","type":"address"}],"name":"transferOwnership","outputs":[],"stateMutability":"nonpayable","type":"function"},{"stateMutability":"payable","type":"receive"}],"evm":{"bytecode":{"linkReferences":{},"object":"608080604052346015576115e2908161001b8239f35b600080fdfe60806040526004361015610010575b005b60003560e01c80621d3567146100df5780634c5f6ff6146100da5780635785a67e146100d557806369fe0e2d146100d05780636b2e08a1146100cb578063715018a6146100c657806371d205eb146100c15780637b103999146100bc5780638da5cb5b146100b7578063aa1fa681146100b2578063b353aaa7146100ad578063b8606eef146100a85763f2fde38b0361000e57610ae8565b610aca565b610aa1565b6107e9565b6107c0565b610797565b610763565b61059a565b610578565b610549565b610413565b6102c8565b610139565b6004359061ffff821682036100f557565b600080fd5b6064359061ffff821682036100f557565b9181601f840112156100f55782359167ffffffffffffffff83116100f557602083818601950101116100f557565b346100f55760803660031901126100f5576101526100e4565b60243567ffffffffffffffff81116100f55761017290369060040161010b565b9060443567ffffffffffffffff8116036100f55760643567ffffffffffffffff81116100f5576101a690369060040161010b565b6099549091906101cc906101c0906001600160a01b031681565b6001600160a01b031690565b330361028e576101e96101e2609b5461ffff1690565b61ffff1690565b61ffff86161480159061029f575b61028e5761020791810190610bc0565b9290916001600160a01b03908116911680158015610286575b801561027e575b61026d577fcaacc2cc8b88fd7722e66478b88d9c96eff82c304b6b2e8e7b69fb616531598b8561000e98610265878787878d60405197889788610c40565b0390a1610fbd565b637c6953f960e01b60005260046000fd5b508215610227565b508115610220565b631705e4a760e21b60005260046000fd5b506102ab368585610b79565b602081519101206102ba610669565b6020815191012014156101f7565b346100f55760403660031901126100f5576102e16100e4565b60243567ffffffffffffffff81116100f55761030461ffff91369060040161010b565b91909261030f61125a565b1661ffff19609b541617609b5567ffffffffffffffff81116103fd5761033f8161033a609a546105f7565b610c8f565b6000601f821160011461037f57819061036f93600092610374575b50508160011b916000199060031b1c19161790565b609a55005b01359050388061035a565b609a600052601f198216927f44da158ba27f9252712a74ff6a55c5d531f69609f1f6e7f17c4443a8e2089be491805b8581106103e5575083600195106103cb575b505050811b01609a55005b0135600019600384901b60f8161c191690553880806103c0565b909260206001819286860135815501940191016103ae565b610631565b6001600160a01b038116036100f557565b346100f55760a03660031901126100f55760043561043081610402565b60243560443561043f81610402565b6104476100fa565b916084359267ffffffffffffffff84116100f55761046c6104bd94369060040161010b565b939092600054966104a161048b6104878a60ff9060081c1690565b1590565b8099819a61053b575b811561051b575b50610e0f565b876104b4600160ff196000541617600055565b61050257610e72565b6104c357005b6104d361ff001960005416600055565b604051600181527f7f26b83ff96e1f2b6a682f133852f6798a09c465da95921460cefb384740249890602090a1005b61051661010061ff00196000541617600055565b610e72565b303b1591508161052d575b503861049b565b60ff16600114905038610526565b600160ff8216109150610494565b346100f55760203660031901126100f55761000e60043561056861125a565b611312565b60009103126100f557565b346100f55760003660031901126100f557602061ffff609b5416604051908152f35b346100f55760003660031901126100f5576105b361125a565b603380546001600160a01b031981169091556000906001600160a01b03167f8be0079c531659141344cd1fd0a4f28419497f9722a3daafe3b4186f6b6457e08280a3005b90600182811c92168015610627575b602083101461061157565b634e487b7160e01b600052602260045260246000fd5b91607f1691610606565b634e487b7160e01b600052604160045260246000fd5b90601f8019910116810190811067ffffffffffffffff8211176103fd57604052565b60405190600082609a549161067d836105f7565b808352926001811690811561070357506001146106a3575b6106a192500383610647565b565b50609a600090815290917f44da158ba27f9252712a74ff6a55c5d531f69609f1f6e7f17c4443a8e2089be45b8183106106e75750509060206106a192820101610695565b60209193508060019154838589010152019101909184926106cf565b602092506106a194915060ff191682840152151560051b820101610695565b919082519283825260005b84811061074e575050826000602080949584010152601f8019910116010190565b8060208092840101518282860101520161072d565b346100f55760003660031901126100f55761079361077f610669565b604051918291602083526020830190610722565b0390f35b346100f55760003660031901126100f5576097546040516001600160a01b039091168152602090f35b346100f55760003660031901126100f5576033546040516001600160a01b039091168152602090f35b346100f55760603660031901126100f55760043561080681610402565b6024359060443567ffffffffffffffff81116100f55761082a90369060040161010b565b6108359391936113a6565b6001600160a01b038316938415610a9057821561026d576040516323b872dd60e01b81523360048201523060248201526044810184905260208160648160008a5af18015610a3657610a73575b506108a461089d61089560985486610f4f565b612710900490565b8094610f67565b936108f06020866108bf6101c060975460018060a01b031690565b60405163095ea7b360e01b81526001600160a01b039091166004820152602481019190915291829081906044820190565b038160008b5af18015610a3657610a56575b50609754610918906001600160a01b03166101c0565b803b156100f5578260009185938389610949604051978896879586946340eae90f60e11b8652339160048701610f74565b03925af18015610a3657610a3b575b50826109a0575b7fcf64e15f437b0b4a79c61d051e03191a0cee6678b1dd353c805fd147670b38aa9250610993604051928392339684610fa6565b0390a361000e6001606555565b60335460405163a9059cbb60e01b81526001600160a01b03909116600482015260248101939093526020836044816000895af1928315610a36577fcf64e15f437b0b4a79c61d051e03191a0cee6678b1dd353c805fd147670b38aa93610a07575b5061095f565b610a289060203d602011610a2f575b610a208183610647565b810190610f15565b5038610a01565b503d610a16565b610f2d565b80610a4a6000610a5093610647565b8061056d565b38610958565b610a6e9060203d602011610a2f57610a208183610647565b610902565b610a8b9060203d602011610a2f57610a208183610647565b610882565b6342bcdf7f60e11b60005260046000fd5b346100f55760003660031901126100f5576099546040516001600160a01b039091168152602090f35b346100f55760003660031901126100f5576020609854604051908152f35b346100f55760203660031901126100f557600435610b0581610402565b610b0d61125a565b6001600160a01b03811615610b255761000e9061135d565b60405162461bcd60e51b815260206004820152602660248201527f4f776e61626c653a206e6577206f776e657220697320746865207a65726f206160448201526564647265737360d01b6064820152608490fd5b92919267ffffffffffffffff82116103fd5760405191610ba3601f8201601f191660200184610647565b8294818452818301116100f5578281602093846000960137010152565b6080818303126100f5578035610bd581610402565b926020820135610be481610402565b9260408301359260608101359067ffffffffffffffff82116100f557019080601f830112156100f557816020610c1c93359101610b79565b90565b908060209392818452848401376000828201840152601f01601f1916010190565b93959291610c1c97959261ffff610c659316865260c0602087015260c0860191610c1f565b6001600160a01b03958616604085015294166060830152608082015280830360a090910152610722565b601f8111610c9b575050565b609a6000526020600020906020601f840160051c83019310610cd8575b601f0160051c01905b818110610ccc575050565b60008155600101610cc1565b9091508190610cb8565b601f8211610cef57505050565b6000526020600020906020601f840160051c83019310610d2a575b601f0160051c01905b818110610d1e575050565b60008155600101610d13565b9091508190610d0a565b919067ffffffffffffffff81116103fd57610d5b81610d54609a546105f7565b609a610ce2565b6000601f8211600114610d90578190610d8b93946000926103745750508160011b916000199060031b1c19161790565b609a55565b609a600052601f198216937f44da158ba27f9252712a74ff6a55c5d531f69609f1f6e7f17c4443a8e2089be491805b868110610df75750836001959610610ddd575b505050811b01609a55565b0135600019600384901b60f8161c19169055388080610dd2565b90926020600181928686013581550194019101610dbf565b15610e1657565b60405162461bcd60e51b815260206004820152602e60248201527f496e697469616c697a61626c653a20636f6e747261637420697320616c72656160448201526d191e481a5b9a5d1a585b1a5e995960921b6064820152608490fd5b91610ee36106a19695949261ffff94610e9b60ff60005460081c16610e96816112b2565b6112b2565b610ea43361135d565b610eb960ff60005460081c16610e96816112b2565b600160655560018060a01b03166bffffffffffffffffffffffff60a01b6097541617609755611312565b60018060a01b03166bffffffffffffffffffffffff60a01b60995416176099551661ffff19609b541617609b55610d34565b908160209103126100f5575180151581036100f55790565b6040513d6000823e3d90fd5b634e487b7160e01b600052601160045260246000fd5b81810292918115918404141715610f6257565b610f39565b91908203918211610f6257565b6001600160a01b03918216815260208101929092529091166040820152608060608201819052610c1c93910191610c1f565b604090610c1c949281528160208201520191610c1f565b94929194610fc96113a6565b6001600160a01b03821695611021602082610fea610fe5610669565b6113fc565b6040516323b872dd60e01b81526001600160a01b039091166004820152306024820152604481019190915291829081906064820190565b038160008c5af18015610a365761120b575b5061104d61104661089560985484610f4f565b8092610f67565b966110686020896108bf6101c060975460018060a01b031690565b03816000865af18015610a36576111ee575b50609754611090906001600160a01b03166101c0565b803b156100f55760008487928b83896110bf604051978896879586946340eae90f60e11b865260048601611228565b03925af190816111d9575b506110e057631dfd80c560e11b60005260046000fd5b8161113f575b50509461113292917f0c21476dc1e02cd582ee2c53e05395a767d4185f91199e00065deca44e47780f9661111e848484848a8c6114d5565b609b5461ffff169560405197889788610c40565b0390a16106a16001606555565b60335460405163a9059cbb60e01b81526001600160a01b0390911660048201526024810192909252909691939290602090889060449082906000905af1938415610a36577f0c21476dc1e02cd582ee2c53e05395a767d4185f91199e00065deca44e47780f97611132956111ba575b509196819394506110e6565b6111d29060203d602011610a2f57610a208183610647565b50386111ae565b80610a4a60006111e893610647565b386110ca565b6112069060203d602011610a2f57610a208183610647565b61107a565b6112239060203d602011610a2f57610a208183610647565b611033565b6001600160a01b03918216815260208101929092529091166040820152608060608201819052610c1c92910190610722565b6033546001600160a01b0316330361126e57565b606460405162461bcd60e51b815260206004820152602060248201527f4f776e61626c653a2063616c6c6572206973206e6f7420746865206f776e65726044820152fd5b156112b957565b60405162461bcd60e51b815260206004820152602b60248201527f496e697469616c697a61626c653a20636f6e7472616374206973206e6f74206960448201526a6e697469616c697a696e6760a81b6064820152608490fd5b612710811161134c576020817f8c4d35e54a3f2ef1134138fd8ea3daee6a3c89e10d2665996babdf70261e2c7692609855604051908152a1565b6358d620b360e01b60005260046000fd5b603380546001600160a01b039283166001600160a01b0319821681179092559091167f8be0079c531659141344cd1fd0a4f28419497f9722a3daafe3b4186f6b6457e0600080a3565b6002606554146113b7576002606555565b60405162461bcd60e51b815260206004820152601f60248201527f5265656e7472616e637947756172643a207265656e7472616e742063616c6c006044820152606490fd5b601481510361140c576014015190565b60405162461bcd60e51b8152602060048201526016602482015275092dcecc2d8d2c840c2c8c8e4cae6e640d8cadccee8d60531b6044820152606490fd5b6001600160a01b039182168152911660208201526040810191909152608060608201819052610c1c92910190610722565b926114af926114a19161ffff610c1c99979416865260c0602087015260c0860191610c1f565b908382036040850152610722565b6001600160a01b0390931660608201526000608082015280830360a09190910152610722565b946114ef906114fd9392956040519586946020860161144a565b03601f198101835282610647565b604051600160f01b602082015262030d40602280830191909152815291611525604284610647565b60995461153a906001600160a01b03166101c0565b90611548609b5461ffff1690565b94823b156100f5576115746000956040519788968795869562c5803160e81b875233936004880161147b565b039134905af19081611597575b506106a1576303cc091760e51b60005260046000fd5b80610a4a60006115a693610647565b3861158156fea2646970667358221220f1ca6b33b6c9216a67faa1b1a1136f4f19992817b41f740af6dcd28e1c6e9bdf64736f6c634300081c0033","opcodes":"PUSH1 0x80 DUP1 PUSH1 0x40 MSTORE CALLVALUE PUSH1 0x15 JUMPI PUSH2 0x15E2 SWAP1 DUP2 PUSH2 0x1B DUP3 CODECOPY RETURN JUMPDEST PUSH1 0x0 DUP1 REVERT INVALID PUSH1 0x80 PUSH1 0x40 MSTORE PUSH1 0x4 CALLDATASIZE LT ISZERO PUSH2 0x10 JUMPI JUMPDEST STOP JUMPDEST PUSH1 0x0 CALLDATALOAD PUSH1 0xE0 SHR DUP1 PUSH3 0x1D3567 EQ PUSH2 0xDF JUMPI DUP1 PUSH4 0x4C5F6FF6 EQ PUSH2 0xDA JUMPI DUP1 PUSH4 0x5785A67E EQ PUSH2 0xD5 JUMPI DUP1 PUSH4 0x69FE0E2D EQ PUSH2 0xD0 JUMPI DUP1 PUSH4 0x6B2E08A1 EQ PUSH2 0xCB JUMPI DUP1 PUSH4 0x715018A6 EQ PUSH2 0xC6 JUMPI DUP1 PUSH4 0x71D205EB EQ PUSH2 0xC1 JUMPI DUP1 PUSH4 0x7B103999 EQ PUSH2 0xBC JUMPI DUP1 PUSH4 0x8DA5CB5B EQ PUSH2 0xB7 JUMPI DUP1 PUSH4 0xAA1FA681 EQ PUSH2 0xB2 JUMPI DUP1 PUSH4 0xB353AAA7 EQ PUSH2 0xAD JUMPI DUP1 PUSH4 0xB8606EEF EQ PUSH2 0xA8 JUMPI PUSH4 0xF2FDE38B SUB PUSH2 0xE JUMPI PUSH2 0xAE8 JUMP JUMPDEST PUSH2 0xACA JUMP JUMPDEST PUSH2 0xAA1 JUMP JUMPDEST PUSH2 0x7E9 JUMP JUMPDEST PUSH2 0x7C0 JUMP JUMPDEST PUSH2 0x797 JUMP JUMPDEST PUSH2 0x763 JUMP JUMPDEST PUSH2 0x59A JUMP JUMPDEST PUSH2 0x578 JUMP JUMPDEST PUSH2 0x549 JUMP JUMPDEST PUSH2 0x413 JUMP JUMPDEST PUSH2 0x2C8 JUMP JUMPDEST PUSH2 0x139 JUMP JUMPDEST PUSH1 0x4 CALLDATALOAD SWAP1 PUSH2 0xFFFF DUP3 AND DUP3 SUB PUSH2 0xF5 JUMPI JUMP JUMPDEST PUSH1 0x0 DUP1 REVERT JUMPDEST PUSH1 0x64 CALLDATALOAD SWAP1 PUSH2 0xFFFF DUP3 AND DUP3 SUB PUSH2 0xF5 JUMPI JUMP JUMPDEST SWAP2 DUP2 PUSH1 0x1F DUP5 ADD SLT ISZERO PUSH2 0xF5 JUMPI DUP3 CALLDATALOAD SWAP2 PUSH8 0xFFFFFFFFFFFFFFFF DUP4 GT PUSH2 0xF5 JUMPI PUSH1 0x20 DUP4 DUP2 DUP7 ADD SWAP6 ADD ADD GT PUSH2 0xF5 JUMPI JUMP JUMPDEST CALLVALUE PUSH2 0xF5 JUMPI PUSH1 0x80 CALLDATASIZE PUSH1 0x3 NOT ADD SLT PUSH2 0xF5 JUMPI PUSH2 0x152 PUSH2 0xE4 JUMP JUMPDEST PUSH1 0x24 CALLDATALOAD PUSH8 0xFFFFFFFFFFFFFFFF DUP2 GT PUSH2 0xF5 JUMPI PUSH2 0x172 SWAP1 CALLDATASIZE SWAP1 PUSH1 0x4 ADD PUSH2 0x10B JUMP JUMPDEST SWAP1 PUSH1 0x44 CALLDATALOAD PUSH8 0xFFFFFFFFFFFFFFFF DUP2 AND SUB PUSH2 0xF5 JUMPI PUSH1 0x64 CALLDATALOAD PUSH8 0xFFFFFFFFFFFFFFFF DUP2 GT PUSH2 0xF5 JUMPI PUSH2 0x1A6 SWAP1 CALLDATASIZE SWAP1 PUSH1 0x4 ADD PUSH2 0x10B JUMP JUMPDEST PUSH1 0x99 SLOAD SWAP1 SWAP2 SWAP1 PUSH2 0x1CC SWAP1 PUSH2 0x1C0 SWAP1 PUSH1 0x1 PUSH1 0x1 PUSH1 0xA0 SHL SUB AND DUP2 JUMP JUMPDEST PUSH1 0x1 PUSH1 0x1 PUSH1 0xA0 SHL SUB AND SWAP1 JUMP JUMPDEST CALLER SUB PUSH2 0x28E JUMPI PUSH2 0x1E9 PUSH2 0x1E2 PUSH1 0x9B SLOAD PUSH2 0xFFFF AND SWAP1 JUMP JUMPDEST PUSH2 0xFFFF AND SWAP1 JUMP JUMPDEST PUSH2 0xFFFF DUP7 AND EQ DUP1 ISZERO SWAP1 PUSH2 0x29F JUMPI JUMPDEST PUSH2 0x28E JUMPI PUSH2 0x207 SWAP2 DUP2 ADD SWAP1 PUSH2 0xBC0 JUMP JUMPDEST SWAP3 SWAP1 SWAP2 PUSH1 0x1 PUSH1 0x1 PUSH1 0xA0 SHL SUB SWAP1 DUP2 AND SWAP2 AND DUP1 ISZERO DUP1 ISZERO PUSH2 0x286 JUMPI JUMPDEST DUP1 ISZERO PUSH2 0x27E JUMPI JUMPDEST PUSH2 0x26D JUMPI PUSH32 0xCAACC2CC8B88FD7722E66478B88D9C96EFF82C304B6B2E8E7B69FB616531598B DUP6 PUSH2 0xE SWAP9 PUSH2 0x265 DUP8 DUP8 DUP8 DUP8 DUP14 PUSH1 0x40 MLOAD SWAP8 DUP9 SWAP8 DUP9 PUSH2 0xC40 JUMP JUMPDEST SUB SWAP1 LOG1 PUSH2 0xFBD JUMP JUMPDEST PUSH4 0x7C6953F9 PUSH1 0xE0 SHL PUSH1 0x0 MSTORE PUSH1 0x4 PUSH1 0x0 REVERT JUMPDEST POP DUP3 ISZERO PUSH2 0x227 JUMP JUMPDEST POP DUP2 ISZERO PUSH2 0x220 JUMP JUMPDEST PUSH4 0x1705E4A7 PUSH1 0xE2 SHL PUSH1 0x0 MSTORE PUSH1 0x4 PUSH1 0x0 REVERT JUMPDEST POP PUSH2 0x2AB CALLDATASIZE DUP6 DUP6 PUSH2 0xB79 JUMP JUMPDEST PUSH1 0x20 DUP2 MLOAD SWAP2 ADD KECCAK256 PUSH2 0x2BA PUSH2 0x669 JUMP JUMPDEST PUSH1 0x20 DUP2 MLOAD SWAP2 ADD KECCAK256 EQ ISZERO PUSH2 0x1F7 JUMP JUMPDEST CALLVALUE PUSH2 0xF5 JUMPI PUSH1 0x40 CALLDATASIZE PUSH1 0x3 NOT ADD SLT PUSH2 0xF5 JUMPI PUSH2 0x2E1 PUSH2 0xE4 JUMP JUMPDEST PUSH1 0x24 CALLDATALOAD PUSH8 0xFFFFFFFFFFFFFFFF DUP2 GT PUSH2 0xF5 JUMPI PUSH2 0x304 PUSH2 0xFFFF SWAP2 CALLDATASIZE SWAP1 PUSH1 0x4 ADD PUSH2 0x10B JUMP JUMPDEST SWAP2 SWAP1 SWAP3 PUSH2 0x30F PUSH2 0x125A JUMP JUMPDEST AND PUSH2 0xFFFF NOT PUSH1 0x9B SLOAD AND OR PUSH1 0x9B SSTORE PUSH8 0xFFFFFFFFFFFFFFFF DUP2 GT PUSH2 0x3FD JUMPI PUSH2 0x33F DUP2 PUSH2 0x33A PUSH1 0x9A SLOAD PUSH2 0x5F7 JUMP JUMPDEST PUSH2 0xC8F JUMP JUMPDEST PUSH1 0x0 PUSH1 0x1F DUP3 GT PUSH1 0x1 EQ PUSH2 0x37F JUMPI DUP2 SWAP1 PUSH2 0x36F SWAP4 PUSH1 0x0 SWAP3 PUSH2 0x374 JUMPI JUMPDEST POP POP DUP2 PUSH1 0x1 SHL SWAP2 PUSH1 0x0 NOT SWAP1 PUSH1 0x3 SHL SHR NOT AND OR SWAP1 JUMP JUMPDEST PUSH1 0x9A SSTORE STOP JUMPDEST ADD CALLDATALOAD SWAP1 POP CODESIZE DUP1 PUSH2 0x35A JUMP JUMPDEST PUSH1 0x9A PUSH1 0x0 MSTORE PUSH1 0x1F NOT DUP3 AND SWAP3 PUSH32 0x44DA158BA27F9252712A74FF6A55C5D531F69609F1F6E7F17C4443A8E2089BE4 SWAP2 DUP1 JUMPDEST DUP6 DUP2 LT PUSH2 0x3E5 JUMPI POP DUP4 PUSH1 0x1 SWAP6 LT PUSH2 0x3CB JUMPI JUMPDEST POP POP POP DUP2 SHL ADD PUSH1 0x9A SSTORE STOP JUMPDEST ADD CALLDATALOAD PUSH1 0x0 NOT PUSH1 0x3 DUP5 SWAP1 SHL PUSH1 0xF8 AND SHR NOT AND SWAP1 SSTORE CODESIZE DUP1 DUP1 PUSH2 0x3C0 JUMP JUMPDEST SWAP1 SWAP3 PUSH1 0x20 PUSH1 0x1 DUP2 SWAP3 DUP7 DUP7 ADD CALLDATALOAD DUP2 SSTORE ADD SWAP5 ADD SWAP2 ADD PUSH2 0x3AE JUMP JUMPDEST PUSH2 0x631 JUMP JUMPDEST PUSH1 0x1 PUSH1 0x1 PUSH1 0xA0 SHL SUB DUP2 AND SUB PUSH2 0xF5 JUMPI JUMP JUMPDEST CALLVALUE PUSH2 0xF5 JUMPI PUSH1 0xA0 CALLDATASIZE PUSH1 0x3 NOT ADD SLT PUSH2 0xF5 JUMPI PUSH1 0x4 CALLDATALOAD PUSH2 0x430 DUP2 PUSH2 0x402 JUMP JUMPDEST PUSH1 0x24 CALLDATALOAD PUSH1 0x44 CALLDATALOAD PUSH2 0x43F DUP2 PUSH2 0x402 JUMP JUMPDEST PUSH2 0x447 PUSH2 0xFA JUMP JUMPDEST SWAP2 PUSH1 0x84 CALLDATALOAD SWAP3 PUSH8 0xFFFFFFFFFFFFFFFF DUP5 GT PUSH2 0xF5 JUMPI PUSH2 0x46C PUSH2 0x4BD SWAP5 CALLDATASIZE SWAP1 PUSH1 0x4 ADD PUSH2 0x10B JUMP JUMPDEST SWAP4 SWAP1 SWAP3 PUSH1 0x0 SLOAD SWAP7 PUSH2 0x4A1 PUSH2 0x48B PUSH2 0x487 DUP11 PUSH1 0xFF SWAP1 PUSH1 0x8 SHR AND SWAP1 JUMP JUMPDEST ISZERO SWAP1 JUMP JUMPDEST DUP1 SWAP10 DUP2 SWAP11 PUSH2 0x53B JUMPI JUMPDEST DUP2 ISZERO PUSH2 0x51B JUMPI JUMPDEST POP PUSH2 0xE0F JUMP JUMPDEST DUP8 PUSH2 0x4B4 PUSH1 0x1 PUSH1 0xFF NOT PUSH1 0x0 SLOAD AND OR PUSH1 0x0 SSTORE JUMP JUMPDEST PUSH2 0x502 JUMPI PUSH2 0xE72 JUMP JUMPDEST PUSH2 0x4C3 JUMPI STOP JUMPDEST PUSH2 0x4D3 PUSH2 0xFF00 NOT PUSH1 0x0 SLOAD AND PUSH1 0x0 SSTORE JUMP JUMPDEST PUSH1 0x40 MLOAD PUSH1 0x1 DUP2 MSTORE PUSH32 0x7F26B83FF96E1F2B6A682F133852F6798A09C465DA95921460CEFB3847402498 SWAP1 PUSH1 0x20 SWAP1 LOG1 STOP JUMPDEST PUSH2 0x516 PUSH2 0x100 PUSH2 0xFF00 NOT PUSH1 0x0 SLOAD AND OR PUSH1 0x0 SSTORE JUMP JUMPDEST PUSH2 0xE72 JUMP JUMPDEST ADDRESS EXTCODESIZE ISZERO SWAP2 POP DUP2 PUSH2 0x52D JUMPI JUMPDEST POP CODESIZE PUSH2 0x49B JUMP JUMPDEST PUSH1 0xFF AND PUSH1 0x1 EQ SWAP1 POP CODESIZE PUSH2 0x526 JUMP JUMPDEST PUSH1 0x1 PUSH1 0xFF DUP3 AND LT SWAP2 POP PUSH2 0x494 JUMP JUMPDEST CALLVALUE PUSH2 0xF5 JUMPI PUSH1 0x20 CALLDATASIZE PUSH1 0x3 NOT ADD SLT PUSH2 0xF5 JUMPI PUSH2 0xE PUSH1 0x4 CALLDATALOAD PUSH2 0x568 PUSH2 0x125A JUMP JUMPDEST PUSH2 0x1312 JUMP JUMPDEST PUSH1 0x0 SWAP2 SUB SLT PUSH2 0xF5 JUMPI JUMP JUMPDEST CALLVALUE PUSH2 0xF5 JUMPI PUSH1 0x0 CALLDATASIZE PUSH1 0x3 NOT ADD SLT PUSH2 0xF5 JUMPI PUSH1 0x20 PUSH2 0xFFFF PUSH1 0x9B SLOAD AND PUSH1 0x40 MLOAD SWAP1 DUP2 MSTORE RETURN JUMPDEST CALLVALUE PUSH2 0xF5 JUMPI PUSH1 0x0 CALLDATASIZE PUSH1 0x3 NOT ADD SLT PUSH2 0xF5 JUMPI PUSH2 0x5B3 PUSH2 0x125A JUMP JUMPDEST PUSH1 0x33 DUP1 SLOAD PUSH1 0x1 PUSH1 0x1 PUSH1 0xA0 SHL SUB NOT DUP2 AND SWAP1 SWAP2 SSTORE PUSH1 0x0 SWAP1 PUSH1 0x1 PUSH1 0x1 PUSH1 0xA0 SHL SUB AND PUSH32 0x8BE0079C531659141344CD1FD0A4F28419497F9722A3DAAFE3B4186F6B6457E0 DUP3 DUP1 LOG3 STOP JUMPDEST SWAP1 PUSH1 0x1 DUP3 DUP2 SHR SWAP3 AND DUP1 ISZERO PUSH2 0x627 JUMPI JUMPDEST PUSH1 0x20 DUP4 LT EQ PUSH2 0x611 JUMPI JUMP JUMPDEST PUSH4 0x4E487B71 PUSH1 0xE0 SHL PUSH1 0x0 MSTORE PUSH1 0x22 PUSH1 0x4 MSTORE PUSH1 0x24 PUSH1 0x0 REVERT JUMPDEST SWAP2 PUSH1 0x7F AND SWAP2 PUSH2 0x606 JUMP JUMPDEST PUSH4 0x4E487B71 PUSH1 0xE0 SHL PUSH1 0x0 MSTORE PUSH1 0x41 PUSH1 0x4 MSTORE PUSH1 0x24 PUSH1 0x0 REVERT JUMPDEST SWAP1 PUSH1 0x1F DUP1 NOT SWAP2 ADD AND DUP2 ADD SWAP1 DUP2 LT PUSH8 0xFFFFFFFFFFFFFFFF DUP3 GT OR PUSH2 0x3FD JUMPI PUSH1 0x40 MSTORE JUMP JUMPDEST PUSH1 0x40 MLOAD SWAP1 PUSH1 0x0 DUP3 PUSH1 0x9A SLOAD SWAP2 PUSH2 0x67D DUP4 PUSH2 0x5F7 JUMP JUMPDEST DUP1 DUP4 MSTORE SWAP3 PUSH1 0x1 DUP2 AND SWAP1 DUP2 ISZERO PUSH2 0x703 JUMPI POP PUSH1 0x1 EQ PUSH2 0x6A3 JUMPI JUMPDEST PUSH2 0x6A1 SWAP3 POP SUB DUP4 PUSH2 0x647 JUMP JUMPDEST JUMP JUMPDEST POP PUSH1 0x9A PUSH1 0x0 SWAP1 DUP2 MSTORE SWAP1 SWAP2 PUSH32 0x44DA158BA27F9252712A74FF6A55C5D531F69609F1F6E7F17C4443A8E2089BE4 JUMPDEST DUP2 DUP4 LT PUSH2 0x6E7 JUMPI POP POP SWAP1 PUSH1 0x20 PUSH2 0x6A1 SWAP3 DUP3 ADD ADD PUSH2 0x695 JUMP JUMPDEST PUSH1 0x20 SWAP2 SWAP4 POP DUP1 PUSH1 0x1 SWAP2 SLOAD DUP4 DUP6 DUP10 ADD ADD MSTORE ADD SWAP2 ADD SWAP1 SWAP2 DUP5 SWAP3 PUSH2 0x6CF JUMP JUMPDEST PUSH1 0x20 SWAP3 POP PUSH2 0x6A1 SWAP5 SWAP2 POP PUSH1 0xFF NOT AND DUP3 DUP5 ADD MSTORE ISZERO ISZERO PUSH1 0x5 SHL DUP3 ADD ADD PUSH2 0x695 JUMP JUMPDEST SWAP2 SWAP1 DUP3 MLOAD SWAP3 DUP4 DUP3 MSTORE PUSH1 0x0 JUMPDEST DUP5 DUP2 LT PUSH2 0x74E JUMPI POP POP DUP3 PUSH1 0x0 PUSH1 0x20 DUP1 SWAP5 SWAP6 DUP5 ADD ADD MSTORE PUSH1 0x1F DUP1 NOT SWAP2 ADD AND ADD ADD SWAP1 JUMP JUMPDEST DUP1 PUSH1 0x20 DUP1 SWAP3 DUP5 ADD ADD MLOAD DUP3 DUP3 DUP7 ADD ADD MSTORE ADD PUSH2 0x72D JUMP JUMPDEST CALLVALUE PUSH2 0xF5 JUMPI PUSH1 0x0 CALLDATASIZE PUSH1 0x3 NOT ADD SLT PUSH2 0xF5 JUMPI PUSH2 0x793 PUSH2 0x77F PUSH2 0x669 JUMP JUMPDEST PUSH1 0x40 MLOAD SWAP2 DUP3 SWAP2 PUSH1 0x20 DUP4 MSTORE PUSH1 0x20 DUP4 ADD SWAP1 PUSH2 0x722 JUMP JUMPDEST SUB SWAP1 RETURN JUMPDEST CALLVALUE PUSH2 0xF5 JUMPI PUSH1 0x0 CALLDATASIZE PUSH1 0x3 NOT ADD SLT PUSH2 0xF5 JUMPI PUSH1 0x97 SLOAD PUSH1 0x40 MLOAD PUSH1 0x1 PUSH1 0x1 PUSH1 0xA0 SHL SUB SWAP1 SWAP2 AND DUP2 MSTORE PUSH1 0x20 SWAP1 RETURN JUMPDEST CALLVALUE PUSH2 0xF5 JUMPI PUSH1 0x0 CALLDATASIZE PUSH1 0x3 NOT ADD SLT PUSH2 0xF5 JUMPI PUSH1 0x33 SLOAD PUSH1 0x40 MLOAD PUSH1 0x1 PUSH1 0x1 PUSH1 0xA0 SHL SUB SWAP1 SWAP2 AND DUP2 MSTORE PUSH1 0x20 SWAP1 RETURN JUMPDEST CALLVALUE PUSH2 0xF5 JUMPI PUSH1 0x60 CALLDATASIZE PUSH1 0x3 NOT ADD SLT PUSH2 0xF5 JUMPI PUSH1 0x4 CALLDATALOAD PUSH2 0x806 DUP2 PUSH2 0x402 JUMP JUMPDEST PUSH1 0x24 CALLDATALOAD SWAP1 PUSH1 0x44 CALLDATALOAD PUSH8 0xFFFFFFFFFFFFFFFF DUP2 GT PUSH2 0xF5 JUMPI PUSH2 0x82A SWAP1 CALLDATASIZE SWAP1 PUSH1 0x4 ADD PUSH2 0x10B JUMP JUMPDEST PUSH2 0x835 SWAP4 SWAP2 SWAP4 PUSH2 0x13A6 JUMP JUMPDEST PUSH1 0x1 PUSH1 0x1 PUSH1 0xA0 SHL SUB DUP4 AND SWAP4 DUP5 ISZERO PUSH2 0xA90 JUMPI DUP3 ISZERO PUSH2 0x26D JUMPI PUSH1 0x40 MLOAD PUSH4 0x23B872DD PUSH1 0xE0 SHL DUP2 MSTORE CALLER PUSH1 0x4 DUP3 ADD MSTORE ADDRESS PUSH1 0x24 DUP3 ADD MSTORE PUSH1 0x44 DUP2 ADD DUP5 SWAP1 MSTORE PUSH1 0x20 DUP2 PUSH1 0x64 DUP2 PUSH1 0x0 DUP11 GAS CALL DUP1 ISZERO PUSH2 0xA36 JUMPI PUSH2 0xA73 JUMPI JUMPDEST POP PUSH2 0x8A4 PUSH2 0x89D PUSH2 0x895 PUSH1 0x98 SLOAD DUP7 PUSH2 0xF4F JUMP JUMPDEST PUSH2 0x2710 SWAP1 DIV SWAP1 JUMP JUMPDEST DUP1 SWAP5 PUSH2 0xF67 JUMP JUMPDEST SWAP4 PUSH2 0x8F0 PUSH1 0x20 DUP7 PUSH2 0x8BF PUSH2 0x1C0 PUSH1 0x97 SLOAD PUSH1 0x1 DUP1 PUSH1 0xA0 SHL SUB AND SWAP1 JUMP JUMPDEST PUSH1 0x40 MLOAD PUSH4 0x95EA7B3 PUSH1 0xE0 SHL DUP2 MSTORE PUSH1 0x1 PUSH1 0x1 PUSH1 0xA0 SHL SUB SWAP1 SWAP2 AND PUSH1 0x4 DUP3 ADD MSTORE PUSH1 0x24 DUP2 ADD SWAP2 SWAP1 SWAP2 MSTORE SWAP2 DUP3 SWAP1 DUP2 SWAP1 PUSH1 0x44 DUP3 ADD SWAP1 JUMP JUMPDEST SUB DUP2 PUSH1 0x0 DUP12 GAS CALL DUP1 ISZERO PUSH2 0xA36 JUMPI PUSH2 0xA56 JUMPI JUMPDEST POP PUSH1 0x97 SLOAD PUSH2 0x918 SWAP1 PUSH1 0x1 PUSH1 0x1 PUSH1 0xA0 SHL SUB AND PUSH2 0x1C0 JUMP JUMPDEST DUP1 EXTCODESIZE ISZERO PUSH2 0xF5 JUMPI DUP3 PUSH1 0x0 SWAP2 DUP6 SWAP4 DUP4 DUP10 PUSH2 0x949 PUSH1 0x40 MLOAD SWAP8 DUP9 SWAP7 DUP8 SWAP6 DUP7 SWAP5 PUSH4 0x40EAE90F PUSH1 0xE1 SHL DUP7 MSTORE CALLER SWAP2 PUSH1 0x4 DUP8 ADD PUSH2 0xF74 JUMP JUMPDEST SUB SWAP3 GAS CALL DUP1 ISZERO PUSH2 0xA36 JUMPI PUSH2 0xA3B JUMPI JUMPDEST POP DUP3 PUSH2 0x9A0 JUMPI JUMPDEST PUSH32 0xCF64E15F437B0B4A79C61D051E03191A0CEE6678B1DD353C805FD147670B38AA SWAP3 POP PUSH2 0x993 PUSH1 0x40 MLOAD SWAP3 DUP4 SWAP3 CALLER SWAP7 DUP5 PUSH2 0xFA6 JUMP JUMPDEST SUB SWAP1 LOG3 PUSH2 0xE PUSH1 0x1 PUSH1 0x65 SSTORE JUMP JUMPDEST PUSH1 0x33 SLOAD PUSH1 0x40 MLOAD PUSH4 0xA9059CBB PUSH1 0xE0 SHL DUP2 MSTORE PUSH1 0x1 PUSH1 0x1 PUSH1 0xA0 SHL SUB SWAP1 SWAP2 AND PUSH1 0x4 DUP3 ADD MSTORE PUSH1 0x24 DUP2 ADD SWAP4 SWAP1 SWAP4 MSTORE PUSH1 0x20 DUP4 PUSH1 0x44 DUP2 PUSH1 0x0 DUP10 GAS CALL SWAP3 DUP4 ISZERO PUSH2 0xA36 JUMPI PUSH32 0xCF64E15F437B0B4A79C61D051E03191A0CEE6678B1DD353C805FD147670B38AA SWAP4 PUSH2 0xA07 JUMPI JUMPDEST POP PUSH2 0x95F JUMP JUMPDEST PUSH2 0xA28 SWAP1 PUSH1 0x20 RETURNDATASIZE PUSH1 0x20 GT PUSH2 0xA2F JUMPI JUMPDEST PUSH2 0xA20 DUP2 DUP4 PUSH2 0x647 JUMP JUMPDEST DUP2 ADD SWAP1 PUSH2 0xF15 JUMP JUMPDEST POP CODESIZE PUSH2 0xA01 JUMP JUMPDEST POP RETURNDATASIZE PUSH2 0xA16 JUMP JUMPDEST PUSH2 0xF2D JUMP JUMPDEST DUP1 PUSH2 0xA4A PUSH1 0x0 PUSH2 0xA50 SWAP4 PUSH2 0x647 JUMP JUMPDEST DUP1 PUSH2 0x56D JUMP JUMPDEST CODESIZE PUSH2 0x958 JUMP JUMPDEST PUSH2 0xA6E SWAP1 PUSH1 0x20 RETURNDATASIZE PUSH1 0x20 GT PUSH2 0xA2F JUMPI PUSH2 0xA20 DUP2 DUP4 PUSH2 0x647 JUMP JUMPDEST PUSH2 0x902 JUMP JUMPDEST PUSH2 0xA8B SWAP1 PUSH1 0x20 RETURNDATASIZE PUSH1 0x20 GT PUSH2 0xA2F JUMPI PUSH2 0xA20 DUP2 DUP4 PUSH2 0x647 JUMP JUMPDEST PUSH2 0x882 JUMP JUMPDEST PUSH4 0x42BCDF7F PUSH1 0xE1 SHL PUSH1 0x0 MSTORE PUSH1 0x4 PUSH1 0x0 REVERT JUMPDEST CALLVALUE PUSH2 0xF5 JUMPI PUSH1 0x0 CALLDATASIZE PUSH1 0x3 NOT ADD SLT PUSH2 0xF5 JUMPI PUSH1 0x99 SLOAD PUSH1 0x40 MLOAD PUSH1 0x1 PUSH1 0x1 PUSH1 0xA0 SHL SUB SWAP1 SWAP2 AND DUP2 MSTORE PUSH1 0x20 SWAP1 RETURN JUMPDEST CALLVALUE PUSH2 0xF5 JUMPI PUSH1 0x0 CALLDATASIZE PUSH1 0x3 NOT ADD SLT PUSH2 0xF5 JUMPI PUSH1 0x20 PUSH1 0x98 SLOAD PUSH1 0x40 MLOAD SWAP1 DUP2 MSTORE RETURN JUMPDEST CALLVALUE PUSH2 0xF5 JUMPI PUSH1 0x20 CALLDATASIZE PUSH1 0x3 NOT ADD SLT PUSH2 0xF5 JUMPI PUSH1 0x4 CALLDATALOAD PUSH2 0xB05 DUP2 PUSH2 0x402 JUMP JUMPDEST PUSH2 0xB0D PUSH2 0x125A JUMP JUMPDEST PUSH1 0x1 PUSH1 0x1 PUSH1 0xA0 SHL SUB DUP2 AND ISZERO PUSH2 0xB25 JUMPI PUSH2 0xE SWAP1 PUSH2 0x135D JUMP JUMPDEST PUSH1 0x40 MLOAD PUSH3 0x461BCD PUSH1 0xE5 SHL DUP2 MSTORE PUSH1 0x20 PUSH1 0x4 DUP3 ADD MSTORE PUSH1 0x26 PUSH1 0x24 DUP3 ADD MSTORE PUSH32 0x4F776E61626C653A206E6577206F776E657220697320746865207A65726F2061 PUSH1 0x44 DUP3 ADD MSTORE PUSH6 0x646472657373 PUSH1 0xD0 SHL PUSH1 0x64 DUP3 ADD MSTORE PUSH1 0x84 SWAP1 REVERT JUMPDEST SWAP3 SWAP2 SWAP3 PUSH8 0xFFFFFFFFFFFFFFFF DUP3 GT PUSH2 0x3FD JUMPI PUSH1 0x40 MLOAD SWAP2 PUSH2 0xBA3 PUSH1 0x1F DUP3 ADD PUSH1 0x1F NOT AND PUSH1 0x20 ADD DUP5 PUSH2 0x647 JUMP JUMPDEST DUP3 SWAP5 DUP2 DUP5 MSTORE DUP2 DUP4 ADD GT PUSH2 0xF5 JUMPI DUP3 DUP2 PUSH1 0x20 SWAP4 DUP5 PUSH1 0x0 SWAP7 ADD CALLDATACOPY ADD ADD MSTORE JUMP JUMPDEST PUSH1 0x80 DUP2 DUP4 SUB SLT PUSH2 0xF5 JUMPI DUP1 CALLDATALOAD PUSH2 0xBD5 DUP2 PUSH2 0x402 JUMP JUMPDEST SWAP3 PUSH1 0x20 DUP3 ADD CALLDATALOAD PUSH2 0xBE4 DUP2 PUSH2 0x402 JUMP JUMPDEST SWAP3 PUSH1 0x40 DUP4 ADD CALLDATALOAD SWAP3 PUSH1 0x60 DUP2 ADD CALLDATALOAD SWAP1 PUSH8 0xFFFFFFFFFFFFFFFF DUP3 GT PUSH2 0xF5 JUMPI ADD SWAP1 DUP1 PUSH1 0x1F DUP4 ADD SLT ISZERO PUSH2 0xF5 JUMPI DUP2 PUSH1 0x20 PUSH2 0xC1C SWAP4 CALLDATALOAD SWAP2 ADD PUSH2 0xB79 JUMP JUMPDEST SWAP1 JUMP JUMPDEST SWAP1 DUP1 PUSH1 0x20 SWAP4 SWAP3 DUP2 DUP5 MSTORE DUP5 DUP5 ADD CALLDATACOPY PUSH1 0x0 DUP3 DUP3 ADD DUP5 ADD MSTORE PUSH1 0x1F ADD PUSH1 0x1F NOT AND ADD ADD SWAP1 JUMP JUMPDEST SWAP4 SWAP6 SWAP3 SWAP2 PUSH2 0xC1C SWAP8 SWAP6 SWAP3 PUSH2 0xFFFF PUSH2 0xC65 SWAP4 AND DUP7 MSTORE PUSH1 0xC0 PUSH1 0x20 DUP8 ADD MSTORE PUSH1 0xC0 DUP7 ADD SWAP2 PUSH2 0xC1F JUMP JUMPDEST PUSH1 0x1 PUSH1 0x1 PUSH1 0xA0 SHL SUB SWAP6 DUP7 AND PUSH1 0x40 DUP6 ADD MSTORE SWAP5 AND PUSH1 0x60 DUP4 ADD MSTORE PUSH1 0x80 DUP3 ADD MSTORE DUP1 DUP4 SUB PUSH1 0xA0 SWAP1 SWAP2 ADD MSTORE PUSH2 0x722 JUMP JUMPDEST PUSH1 0x1F DUP2 GT PUSH2 0xC9B JUMPI POP POP JUMP JUMPDEST PUSH1 0x9A PUSH1 0x0 MSTORE PUSH1 0x20 PUSH1 0x0 KECCAK256 SWAP1 PUSH1 0x20 PUSH1 0x1F DUP5 ADD PUSH1 0x5 SHR DUP4 ADD SWAP4 LT PUSH2 0xCD8 JUMPI JUMPDEST PUSH1 0x1F ADD PUSH1 0x5 SHR ADD SWAP1 JUMPDEST DUP2 DUP2 LT PUSH2 0xCCC JUMPI POP POP JUMP JUMPDEST PUSH1 0x0 DUP2 SSTORE PUSH1 0x1 ADD PUSH2 0xCC1 JUMP JUMPDEST SWAP1 SWAP2 POP DUP2 SWAP1 PUSH2 0xCB8 JUMP JUMPDEST PUSH1 0x1F DUP3 GT PUSH2 0xCEF JUMPI POP POP POP JUMP JUMPDEST PUSH1 0x0 MSTORE PUSH1 0x20 PUSH1 0x0 KECCAK256 SWAP1 PUSH1 0x20 PUSH1 0x1F DUP5 ADD PUSH1 0x5 SHR DUP4 ADD SWAP4 LT PUSH2 0xD2A JUMPI JUMPDEST PUSH1 0x1F ADD PUSH1 0x5 SHR ADD SWAP1 JUMPDEST DUP2 DUP2 LT PUSH2 0xD1E JUMPI POP POP JUMP JUMPDEST PUSH1 0x0 DUP2 SSTORE PUSH1 0x1 ADD PUSH2 0xD13 JUMP JUMPDEST SWAP1 SWAP2 POP DUP2 SWAP1 PUSH2 0xD0A JUMP JUMPDEST SWAP2 SWAP1 PUSH8 0xFFFFFFFFFFFFFFFF DUP2 GT PUSH2 0x3FD JUMPI PUSH2 0xD5B DUP2 PUSH2 0xD54 PUSH1 0x9A SLOAD PUSH2 0x5F7 JUMP JUMPDEST PUSH1 0x9A PUSH2 0xCE2 JUMP JUMPDEST PUSH1 0x0 PUSH1 0x1F DUP3 GT PUSH1 0x1 EQ PUSH2 0xD90 JUMPI DUP2 SWAP1 PUSH2 0xD8B SWAP4 SWAP5 PUSH1 0x0 SWAP3 PUSH2 0x374 JUMPI POP POP DUP2 PUSH1 0x1 SHL SWAP2 PUSH1 0x0 NOT SWAP1 PUSH1 0x3 SHL SHR NOT AND OR SWAP1 JUMP JUMPDEST PUSH1 0x9A SSTORE JUMP JUMPDEST PUSH1 0x9A PUSH1 0x0 MSTORE PUSH1 0x1F NOT DUP3 AND SWAP4 PUSH32 0x44DA158BA27F9252712A74FF6A55C5D531F69609F1F6E7F17C4443A8E2089BE4 SWAP2 DUP1 JUMPDEST DUP7 DUP2 LT PUSH2 0xDF7 JUMPI POP DUP4 PUSH1 0x1 SWAP6 SWAP7 LT PUSH2 0xDDD JUMPI JUMPDEST POP POP POP DUP2 SHL ADD PUSH1 0x9A SSTORE JUMP JUMPDEST ADD CALLDATALOAD PUSH1 0x0 NOT PUSH1 0x3 DUP5 SWAP1 SHL PUSH1 0xF8 AND SHR NOT AND SWAP1 SSTORE CODESIZE DUP1 DUP1 PUSH2 0xDD2 JUMP JUMPDEST SWAP1 SWAP3 PUSH1 0x20 PUSH1 0x1 DUP2 SWAP3 DUP7 DUP7 ADD CALLDATALOAD DUP2 SSTORE ADD SWAP5 ADD SWAP2 ADD PUSH2 0xDBF JUMP JUMPDEST ISZERO PUSH2 0xE16 JUMPI JUMP JUMPDEST PUSH1 0x40 MLOAD PUSH3 0x461BCD PUSH1 0xE5 SHL DUP2 MSTORE PUSH1 0x20 PUSH1 0x4 DUP3 ADD MSTORE PUSH1 0x2E PUSH1 0x24 DUP3 ADD MSTORE PUSH32 0x496E697469616C697A61626C653A20636F6E747261637420697320616C726561 PUSH1 0x44 DUP3 ADD MSTORE PUSH14 0x191E481A5B9A5D1A585B1A5E9959 PUSH1 0x92 SHL PUSH1 0x64 DUP3 ADD MSTORE PUSH1 0x84 SWAP1 REVERT JUMPDEST SWAP2 PUSH2 0xEE3 PUSH2 0x6A1 SWAP7 SWAP6 SWAP5 SWAP3 PUSH2 0xFFFF SWAP5 PUSH2 0xE9B PUSH1 0xFF PUSH1 0x0 SLOAD PUSH1 0x8 SHR AND PUSH2 0xE96 DUP2 PUSH2 0x12B2 JUMP JUMPDEST PUSH2 0x12B2 JUMP JUMPDEST PUSH2 0xEA4 CALLER PUSH2 0x135D JUMP JUMPDEST PUSH2 0xEB9 PUSH1 0xFF PUSH1 0x0 SLOAD PUSH1 0x8 SHR AND PUSH2 0xE96 DUP2 PUSH2 0x12B2 JUMP JUMPDEST PUSH1 0x1 PUSH1 0x65 SSTORE PUSH1 0x1 DUP1 PUSH1 0xA0 SHL SUB AND PUSH12 0xFFFFFFFFFFFFFFFFFFFFFFFF PUSH1 0xA0 SHL PUSH1 0x97 SLOAD AND OR PUSH1 0x97 SSTORE PUSH2 0x1312 JUMP JUMPDEST PUSH1 0x1 DUP1 PUSH1 0xA0 SHL SUB AND PUSH12 0xFFFFFFFFFFFFFFFFFFFFFFFF PUSH1 0xA0 SHL PUSH1 0x99 SLOAD AND OR PUSH1 0x99 SSTORE AND PUSH2 0xFFFF NOT PUSH1 0x9B SLOAD AND OR PUSH1 0x9B SSTORE PUSH2 0xD34 JUMP JUMPDEST SWAP1 DUP2 PUSH1 0x20 SWAP2 SUB SLT PUSH2 0xF5 JUMPI MLOAD DUP1 ISZERO ISZERO DUP2 SUB PUSH2 0xF5 JUMPI SWAP1 JUMP JUMPDEST PUSH1 0x40 MLOAD RETURNDATASIZE PUSH1 0x0 DUP3 RETURNDATACOPY RETURNDATASIZE SWAP1 REVERT JUMPDEST PUSH4 0x4E487B71 PUSH1 0xE0 SHL PUSH1 0x0 MSTORE PUSH1 0x11 PUSH1 0x4 MSTORE PUSH1 0x24 PUSH1 0x0 REVERT JUMPDEST DUP2 DUP2 MUL SWAP3 SWAP2 DUP2 ISZERO SWAP2 DUP5 DIV EQ OR ISZERO PUSH2 0xF62 JUMPI JUMP JUMPDEST PUSH2 0xF39 JUMP JUMPDEST SWAP2 SWAP1 DUP3 SUB SWAP2 DUP3 GT PUSH2 0xF62 JUMPI JUMP JUMPDEST PUSH1 0x1 PUSH1 0x1 PUSH1 0xA0 SHL SUB SWAP2 DUP3 AND DUP2 MSTORE PUSH1 0x20 DUP2 ADD SWAP3 SWAP1 SWAP3 MSTORE SWAP1 SWAP2 AND PUSH1 0x40 DUP3 ADD MSTORE PUSH1 0x80 PUSH1 0x60 DUP3 ADD DUP2 SWAP1 MSTORE PUSH2 0xC1C SWAP4 SWAP2 ADD SWAP2 PUSH2 0xC1F JUMP JUMPDEST PUSH1 0x40 SWAP1 PUSH2 0xC1C SWAP5 SWAP3 DUP2 MSTORE DUP2 PUSH1 0x20 DUP3 ADD MSTORE ADD SWAP2 PUSH2 0xC1F JUMP JUMPDEST SWAP5 SWAP3 SWAP2 SWAP5 PUSH2 0xFC9 PUSH2 0x13A6 JUMP JUMPDEST PUSH1 0x1 PUSH1 0x1 PUSH1 0xA0 SHL SUB DUP3 AND SWAP6 PUSH2 0x1021 PUSH1 0x20 DUP3 PUSH2 0xFEA PUSH2 0xFE5 PUSH2 0x669 JUMP JUMPDEST PUSH2 0x13FC JUMP JUMPDEST PUSH1 0x40 MLOAD PUSH4 0x23B872DD PUSH1 0xE0 SHL DUP2 MSTORE PUSH1 0x1 PUSH1 0x1 PUSH1 0xA0 SHL SUB SWAP1 SWAP2 AND PUSH1 0x4 DUP3 ADD MSTORE ADDRESS PUSH1 0x24 DUP3 ADD MSTORE PUSH1 0x44 DUP2 ADD SWAP2 SWAP1 SWAP2 MSTORE SWAP2 DUP3 SWAP1 DUP2 SWAP1 PUSH1 0x64 DUP3 ADD SWAP1 JUMP JUMPDEST SUB DUP2 PUSH1 0x0 DUP13 GAS CALL DUP1 ISZERO PUSH2 0xA36 JUMPI PUSH2 0x120B JUMPI JUMPDEST POP PUSH2 0x104D PUSH2 0x1046 PUSH2 0x895 PUSH1 0x98 SLOAD DUP5 PUSH2 0xF4F JUMP JUMPDEST DUP1 SWAP3 PUSH2 0xF67 JUMP JUMPDEST SWAP7 PUSH2 0x1068 PUSH1 0x20 DUP10 PUSH2 0x8BF PUSH2 0x1C0 PUSH1 0x97 SLOAD PUSH1 0x1 DUP1 PUSH1 0xA0 SHL SUB AND SWAP1 JUMP JUMPDEST SUB DUP2 PUSH1 0x0 DUP7 GAS CALL DUP1 ISZERO PUSH2 0xA36 JUMPI PUSH2 0x11EE JUMPI JUMPDEST POP PUSH1 0x97 SLOAD PUSH2 0x1090 SWAP1 PUSH1 0x1 PUSH1 0x1 PUSH1 0xA0 SHL SUB AND PUSH2 0x1C0 JUMP JUMPDEST DUP1 EXTCODESIZE ISZERO PUSH2 0xF5 JUMPI PUSH1 0x0 DUP5 DUP8 SWAP3 DUP12 DUP4 DUP10 PUSH2 0x10BF PUSH1 0x40 MLOAD SWAP8 DUP9 SWAP7 DUP8 SWAP6 DUP7 SWAP5 PUSH4 0x40EAE90F PUSH1 0xE1 SHL DUP7 MSTORE PUSH1 0x4 DUP7 ADD PUSH2 0x1228 JUMP JUMPDEST SUB SWAP3 GAS CALL SWAP1 DUP2 PUSH2 0x11D9 JUMPI JUMPDEST POP PUSH2 0x10E0 JUMPI PUSH4 0x1DFD80C5 PUSH1 0xE1 SHL PUSH1 0x0 MSTORE PUSH1 0x4 PUSH1 0x0 REVERT JUMPDEST DUP2 PUSH2 0x113F JUMPI JUMPDEST POP POP SWAP5 PUSH2 0x1132 SWAP3 SWAP2 PUSH32 0xC21476DC1E02CD582EE2C53E05395A767D4185F91199E00065DECA44E47780F SWAP7 PUSH2 0x111E DUP5 DUP5 DUP5 DUP5 DUP11 DUP13 PUSH2 0x14D5 JUMP JUMPDEST PUSH1 0x9B SLOAD PUSH2 0xFFFF AND SWAP6 PUSH1 0x40 MLOAD SWAP8 DUP9 SWAP8 DUP9 PUSH2 0xC40 JUMP JUMPDEST SUB SWAP1 LOG1 PUSH2 0x6A1 PUSH1 0x1 PUSH1 0x65 SSTORE JUMP JUMPDEST PUSH1 0x33 SLOAD PUSH1 0x40 MLOAD PUSH4 0xA9059CBB PUSH1 0xE0 SHL DUP2 MSTORE PUSH1 0x1 PUSH1 0x1 PUSH1 0xA0 SHL SUB SWAP1 SWAP2 AND PUSH1 0x4 DUP3 ADD MSTORE PUSH1 0x24 DUP2 ADD SWAP3 SWAP1 SWAP3 MSTORE SWAP1 SWAP7 SWAP2 SWAP4 SWAP3 SWAP1 PUSH1 0x20 SWAP1 DUP9 SWAP1 PUSH1 0x44 SWAP1 DUP3 SWAP1 PUSH1 0x0 SWAP1 GAS CALL SWAP4 DUP5 ISZERO PUSH2 0xA36 JUMPI PUSH32 0xC21476DC1E02CD582EE2C53E05395A767D4185F91199E00065DECA44E47780F SWAP8 PUSH2 0x1132 SWAP6 PUSH2 0x11BA JUMPI JUMPDEST POP SWAP2 SWAP7 DUP2 SWAP4 SWAP5 POP PUSH2 0x10E6 JUMP JUMPDEST PUSH2 0x11D2 SWAP1 PUSH1 0x20 RETURNDATASIZE PUSH1 0x20 GT PUSH2 0xA2F JUMPI PUSH2 0xA20 DUP2 DUP4 PUSH2 0x647 JUMP JUMPDEST POP CODESIZE PUSH2 0x11AE JUMP JUMPDEST DUP1 PUSH2 0xA4A PUSH1 0x0 PUSH2 0x11E8 SWAP4 PUSH2 0x647 JUMP JUMPDEST CODESIZE PUSH2 0x10CA JUMP JUMPDEST PUSH2 0x1206 SWAP1 PUSH1 0x20 RETURNDATASIZE PUSH1 0x20 GT PUSH2 0xA2F JUMPI PUSH2 0xA20 DUP2 DUP4 PUSH2 0x647 JUMP JUMPDEST PUSH2 0x107A JUMP JUMPDEST PUSH2 0x1223 SWAP1 PUSH1 0x20 RETURNDATASIZE PUSH1 0x20 GT PUSH2 0xA2F JUMPI PUSH2 0xA20 DUP2 DUP4 PUSH2 0x647 JUMP JUMPDEST PUSH2 0x1033 JUMP JUMPDEST PUSH1 0x1 PUSH1 0x1 PUSH1 0xA0 SHL SUB SWAP2 DUP3 AND DUP2 MSTORE PUSH1 0x20 DUP2 ADD SWAP3 SWAP1 SWAP3 MSTORE SWAP1 SWAP2 AND PUSH1 0x40 DUP3 ADD MSTORE PUSH1 0x80 PUSH1 0x60 DUP3 ADD DUP2 SWAP1 MSTORE PUSH2 0xC1C SWAP3 SWAP2 ADD SWAP1 PUSH2 0x722 JUMP JUMPDEST PUSH1 0x33 SLOAD PUSH1 0x1 PUSH1 0x1 PUSH1 0xA0 SHL SUB AND CALLER SUB PUSH2 0x126E JUMPI JUMP JUMPDEST PUSH1 0x64 PUSH1 0x40 MLOAD PUSH3 0x461BCD PUSH1 0xE5 SHL DUP2 MSTORE PUSH1 0x20 PUSH1 0x4 DUP3 ADD MSTORE PUSH1 0x20 PUSH1 0x24 DUP3 ADD MSTORE PUSH32 0x4F776E61626C653A2063616C6C6572206973206E6F7420746865206F776E6572 PUSH1 0x44 DUP3 ADD MSTORE REVERT JUMPDEST ISZERO PUSH2 0x12B9 JUMPI JUMP JUMPDEST PUSH1 0x40 MLOAD PUSH3 0x461BCD PUSH1 0xE5 SHL DUP2 MSTORE PUSH1 0x20 PUSH1 0x4 DUP3 ADD MSTORE PUSH1 0x2B PUSH1 0x24 DUP3 ADD MSTORE PUSH32 0x496E697469616C697A61626C653A20636F6E7472616374206973206E6F742069 PUSH1 0x44 DUP3 ADD MSTORE PUSH11 0x6E697469616C697A696E67 PUSH1 0xA8 SHL PUSH1 0x64 DUP3 ADD MSTORE PUSH1 0x84 SWAP1 REVERT JUMPDEST PUSH2 0x2710 DUP2 GT PUSH2 0x134C JUMPI PUSH1 0x20 DUP2 PUSH32 0x8C4D35E54A3F2EF1134138FD8EA3DAEE6A3C89E10D2665996BABDF70261E2C76 SWAP3 PUSH1 0x98 SSTORE PUSH1 0x40 MLOAD SWAP1 DUP2 MSTORE LOG1 JUMP JUMPDEST PUSH4 0x58D620B3 PUSH1 0xE0 SHL PUSH1 0x0 MSTORE PUSH1 0x4 PUSH1 0x0 REVERT JUMPDEST PUSH1 0x33 DUP1 SLOAD PUSH1 0x1 PUSH1 0x1 PUSH1 0xA0 SHL SUB SWAP3 DUP4 AND PUSH1 0x1 PUSH1 0x1 PUSH1 0xA0 SHL SUB NOT DUP3 AND DUP2 OR SWAP1 SWAP3 SSTORE SWAP1 SWAP2 AND PUSH32 0x8BE0079C531659141344CD1FD0A4F28419497F9722A3DAAFE3B4186F6B6457E0 PUSH1 0x0 DUP1 LOG3 JUMP JUMPDEST PUSH1 0x2 PUSH1 0x65 SLOAD EQ PUSH2 0x13B7 JUMPI PUSH1 0x2 PUSH1 0x65 SSTORE JUMP JUMPDEST PUSH1 0x40 MLOAD PUSH3 0x461BCD PUSH1 0xE5 SHL DUP2 MSTORE PUSH1 0x20 PUSH1 0x4 DUP3 ADD MSTORE PUSH1 0x1F PUSH1 0x24 DUP3 ADD MSTORE PUSH32 0x5265656E7472616E637947756172643A207265656E7472616E742063616C6C00 PUSH1 0x44 DUP3 ADD MSTORE PUSH1 0x64 SWAP1 REVERT JUMPDEST PUSH1 0x14 DUP2 MLOAD SUB PUSH2 0x140C JUMPI PUSH1 0x14 ADD MLOAD SWAP1 JUMP JUMPDEST PUSH1 0x40 MLOAD PUSH3 0x461BCD PUSH1 0xE5 SHL DUP2 MSTORE PUSH1 0x20 PUSH1 0x4 DUP3 ADD MSTORE PUSH1 0x16 PUSH1 0x24 DUP3 ADD MSTORE PUSH22 0x92DCECC2D8D2C840C2C8C8E4CAE6E640D8CADCCEE8D PUSH1 0x53 SHL PUSH1 0x44 DUP3 ADD MSTORE PUSH1 0x64 SWAP1 REVERT JUMPDEST PUSH1 0x1 PUSH1 0x1 PUSH1 0xA0 SHL SUB SWAP2 DUP3 AND DUP2 MSTORE SWAP2 AND PUSH1 0x20 DUP3 ADD MSTORE PUSH1 0x40 DUP2 ADD SWAP2 SWAP1 SWAP2 MSTORE PUSH1 0x80 PUSH1 0x60 DUP3 ADD DUP2 SWAP1 MSTORE PUSH2 0xC1C SWAP3 SWAP2 ADD SWAP1 PUSH2 0x722 JUMP JUMPDEST SWAP3 PUSH2 0x14AF SWAP3 PUSH2 0x14A1 SWAP2 PUSH2 0xFFFF PUSH2 0xC1C SWAP10 SWAP8 SWAP5 AND DUP7 MSTORE PUSH1 0xC0 PUSH1 0x20 DUP8 ADD MSTORE PUSH1 0xC0 DUP7 ADD SWAP2 PUSH2 0xC1F JUMP JUMPDEST SWAP1 DUP4 DUP3 SUB PUSH1 0x40 DUP6 ADD MSTORE PUSH2 0x722 JUMP JUMPDEST PUSH1 0x1 PUSH1 0x1 PUSH1 0xA0 SHL SUB SWAP1 SWAP4 AND PUSH1 0x60 DUP3 ADD MSTORE PUSH1 0x0 PUSH1 0x80 DUP3 ADD MSTORE DUP1 DUP4 SUB PUSH1 0xA0 SWAP2 SWAP1 SWAP2 ADD MSTORE PUSH2 0x722 JUMP JUMPDEST SWAP5 PUSH2 0x14EF SWAP1 PUSH2 0x14FD SWAP4 SWAP3 SWAP6 PUSH1 0x40 MLOAD SWAP6 DUP7 SWAP5 PUSH1 0x20 DUP7 ADD PUSH2 0x144A JUMP JUMPDEST SUB PUSH1 0x1F NOT DUP2 ADD DUP4 MSTORE DUP3 PUSH2 0x647 JUMP JUMPDEST PUSH1 0x40 MLOAD PUSH1 0x1 PUSH1 0xF0 SHL PUSH1 0x20 DUP3 ADD MSTORE PUSH3 0x30D40 PUSH1 0x22 DUP1 DUP4 ADD SWAP2 SWAP1 SWAP2 MSTORE DUP2 MSTORE SWAP2 PUSH2 0x1525 PUSH1 0x42 DUP5 PUSH2 0x647 JUMP JUMPDEST PUSH1 0x99 SLOAD PUSH2 0x153A SWAP1 PUSH1 0x1 PUSH1 0x1 PUSH1 0xA0 SHL SUB AND PUSH2 0x1C0 JUMP JUMPDEST SWAP1 PUSH2 0x1548 PUSH1 0x9B SLOAD PUSH2 0xFFFF AND SWAP1 JUMP JUMPDEST SWAP5 DUP3 EXTCODESIZE ISZERO PUSH2 0xF5 JUMPI PUSH2 0x1574 PUSH1 0x0 SWAP6 PUSH1 0x40 MLOAD SWAP8 DUP9 SWAP7 DUP8 SWAP6 DUP7 SWAP6 PUSH3 0xC58031 PUSH1 0xE8 SHL DUP8 MSTORE CALLER SWAP4 PUSH1 0x4 DUP9 ADD PUSH2 0x147B JUMP JUMPDEST SUB SWAP2 CALLVALUE SWAP1 GAS CALL SWAP1 DUP2 PUSH2 0x1597 JUMPI JUMPDEST POP PUSH2 0x6A1 JUMPI PUSH4 0x3CC0917 PUSH1 0xE5 SHL PUSH1 0x0 MSTORE PUSH1 0x4 PUSH1 0x0 REVERT JUMPDEST DUP1 PUSH2 0xA4A PUSH1 0x0 PUSH2 0x15A6 SWAP4 PUSH2 0x647 JUMP JUMPDEST CODESIZE PUSH2 0x1581 JUMP INVALID LOG2 PUSH5 0x6970667358 0x22 SLT KECCAK256 CALL 0xCA PUSH12 0x33B6C9216A67FAA1B1A1136F 0x4F NOT SWAP10 0x28 OR 0xB4 0x1F PUSH21 0xAF6DCD28E1C6E9BDF64736F6C634300081C003300 "},"methodIdentifiers":{"authorizedBridgeAddress()":"71d205eb","baseChainId()":"6b2e08a1","feeBasisPoints()":"b8606eef","initialize(address,uint256,address,uint16,bytes)":"5785a67e","lzEndpoint()":"b353aaa7","lzReceive(uint16,bytes,uint64,bytes)":"001d3567","owner()":"8da5cb5b","purchaseAndRetire(address,uint256,string)":"aa1fa681","registry()":"7b103999","renounceOwnership()":"715018a6","setBridgeConfig(uint16,bytes)":"4c5f6ff6","setFee(uint256)":"69fe0e2d","transferOwnership(address)":"f2fde38b"}}}}}