{"contracts/BaseLayerTest.sol":{"BaseLayerTest":{"abi":[{"inputs":[{"internalType":"address","name":"_endpoint","type":"address"},{"internalType":"address","name":"initialOwner","type":"address"}],"stateMutability":"nonpayable","type":"constructor"},{"inputs":[],"name":"InvalidDelegate","type":"error"},{"inputs":[],"name":"InvalidEndpointCall","type":"error"},{"inputs":[],"name":"LzTokenUnavailable","type":"error"},{"inputs":[{"internalType":"uint32","name":"eid","type":"uint32"}],"name":"NoPeer","type":"error"},{"inputs":[{"internalType":"uint256","name":"msgValue","type":"uint256"}],"name":"NotEnoughNative","type":"error"},{"inputs":[{"internalType":"address","name":"addr","type":"address"}],"name":"OnlyEndpoint","type":"error"},{"inputs":[{"internalType":"uint32","name":"eid","type":"uint32"},{"internalType":"bytes32","name":"sender","type":"bytes32"}],"name":"OnlyPeer","type":"error"},{"inputs":[{"internalType":"address","name":"owner","type":"address"}],"name":"OwnableInvalidOwner","type":"error"},{"inputs":[{"internalType":"address","name":"account","type":"address"}],"name":"OwnableUnauthorizedAccount","type":"error"},{"inputs":[{"internalType":"address","name":"token","type":"address"}],"name":"SafeERC20FailedOperation","type":"error"},{"anonymous":false,"inputs":[{"indexed":true,"internalType":"address","name":"previousOwner","type":"address"},{"indexed":true,"internalType":"address","name":"newOwner","type":"address"}],"name":"OwnershipTransferred","type":"event"},{"anonymous":false,"inputs":[{"indexed":false,"internalType":"uint32","name":"eid","type":"uint32"},{"indexed":false,"internalType":"bytes32","name":"peer","type":"bytes32"}],"name":"PeerSet","type":"event"},{"inputs":[{"components":[{"internalType":"uint32","name":"srcEid","type":"uint32"},{"internalType":"bytes32","name":"sender","type":"bytes32"},{"internalType":"uint64","name":"nonce","type":"uint64"}],"internalType":"struct Origin","name":"origin","type":"tuple"}],"name":"allowInitializePath","outputs":[{"internalType":"bool","name":"","type":"bool"}],"stateMutability":"view","type":"function"},{"inputs":[],"name":"data","outputs":[{"internalType":"string","name":"","type":"string"}],"stateMutability":"view","type":"function"},{"inputs":[],"name":"endpoint","outputs":[{"internalType":"contract ILayerZeroEndpointV2","name":"","type":"address"}],"stateMutability":"view","type":"function"},{"inputs":[{"internalType":"uint32","name":"_dstEid","type":"uint32"},{"internalType":"string","name":"_message","type":"string"},{"internalType":"bytes","name":"_options","type":"bytes"}],"name":"estimateFee","outputs":[{"internalType":"uint256","name":"nativeFee","type":"uint256"},{"internalType":"uint256","name":"lzTokenFee","type":"uint256"}],"stateMutability":"view","type":"function"},{"inputs":[{"components":[{"internalType":"uint32","name":"srcEid","type":"uint32"},{"internalType":"bytes32","name":"sender","type":"bytes32"},{"internalType":"uint64","name":"nonce","type":"uint64"}],"internalType":"struct Origin","name":"","type":"tuple"},{"internalType":"bytes","name":"","type":"bytes"},{"internalType":"address","name":"_sender","type":"address"}],"name":"isComposeMsgSender","outputs":[{"internalType":"bool","name":"","type":"bool"}],"stateMutability":"view","type":"function"},{"inputs":[{"components":[{"internalType":"uint32","name":"srcEid","type":"uint32"},{"internalType":"bytes32","name":"sender","type":"bytes32"},{"internalType":"uint64","name":"nonce","type":"uint64"}],"internalType":"struct Origin","name":"_origin","type":"tuple"},{"internalType":"bytes32","name":"_guid","type":"bytes32"},{"internalType":"bytes","name":"_message","type":"bytes"},{"internalType":"address","name":"_executor","type":"address"},{"internalType":"bytes","name":"_extraData","type":"bytes"}],"name":"lzReceive","outputs":[],"stateMutability":"payable","type":"function"},{"inputs":[{"internalType":"uint32","name":"","type":"uint32"},{"internalType":"bytes32","name":"","type":"bytes32"}],"name":"nextNonce","outputs":[{"internalType":"uint64","name":"nonce","type":"uint64"}],"stateMutability":"view","type":"function"},{"inputs":[],"name":"oAppVersion","outputs":[{"internalType":"uint64","name":"senderVersion","type":"uint64"},{"internalType":"uint64","name":"receiverVersion","type":"uint64"}],"stateMutability":"pure","type":"function"},{"inputs":[],"name":"owner","outputs":[{"internalType":"address","name":"","type":"address"}],"stateMutability":"view","type":"function"},{"inputs":[{"internalType":"uint32","name":"eid","type":"uint32"}],"name":"peers","outputs":[{"internalType":"bytes32","name":"peer","type":"bytes32"}],"stateMutability":"view","type":"function"},{"inputs":[],"name":"renounceOwnership","outputs":[],"stateMutability":"nonpayable","type":"function"},{"inputs":[{"internalType":"uint32","name":"_dstEid","type":"uint32"},{"internalType":"string","name":"_message","type":"string"},{"internalType":"bytes","name":"_options","type":"bytes"}],"name":"sendMessage","outputs":[],"stateMutability":"payable","type":"function"},{"inputs":[{"internalType":"address","name":"_delegate","type":"address"}],"name":"setDelegate","outputs":[],"stateMutability":"nonpayable","type":"function"},{"inputs":[{"internalType":"uint32","name":"_eid","type":"uint32"},{"internalType":"bytes32","name":"_peer","type":"bytes32"}],"name":"setPeer","outputs":[],"stateMutability":"nonpayable","type":"function"},{"inputs":[{"internalType":"address","name":"newOwner","type":"address"}],"name":"transferOwnership","outputs":[],"stateMutability":"nonpayable","type":"function"}],"evm":{"bytecode":{"linkReferences":{},"object":"60a08060405234610144576000906040816110da80380380916100228285610149565b8339810103126101405761003581610182565b906001600160a01b039061004b90602001610182565b16801561012c5782546001600160a01b03198116821784556040519284929182906001600160a01b03167f8be0079c531659141344cd1fd0a4f28419497f9722a3daafe3b4186f6b6457e08580a36001600160a01b0316608081905290813b15610128578383819360249363ca5eb5e160e01b845260048401525af1801561011d5761010d575b604051610f43908161019782396080518181816101a9015281816104e5015281816105a8015281816107e30152818161088501526109a20152f35b8161011791610149565b386100d2565b6040513d84823e3d90fd5b8280fd5b631e4fbdf760e01b83526004839052602483fd5b5080fd5b600080fd5b601f909101601f19168101906001600160401b0382119082101761016c57604052565b634e487b7160e01b600052604160045260246000fd5b51906001600160a01b03821682036101445756fe6080604052600436101561001257600080fd5b6000803560e01c806313137d651461094157806317442b701461091f5780633400288b146108b45780635e280f111461086f5780636951628a1461073e578063715018a6146106e457806371e2a436146103e957806373d4a13a146103145780637d25a05e146102ee57806382413eac1461028d5780638da5cb5b14610266578063bb0b6a5314610231578063ca5eb5e114610184578063f2fde38b146100fe5763ff7bd03d146100c257600080fd5b346100fb5760603660031901126100fb5760209060409063ffffffff6100e6610dce565b16815260018352205460405190602435148152f35b80fd5b50346100fb5760203660031901126100fb57610118610be0565b610120610e15565b6001600160a01b031680156101705781546001600160a01b03198116821783556001600160a01b03167f8be0079c531659141344cd1fd0a4f28419497f9722a3daafe3b4186f6b6457e08380a380f35b631e4fbdf760e01b82526004829052602482fd5b50346100fb5760203660031901126100fb578061019f610be0565b6101a7610e15565b7f00000000000000000000000000000000000000000000000000000000000000006001600160a01b031690813b1561022d5760405163ca5eb5e160e01b81526001600160a01b039091166004820152919081908390602490829084905af18015610220576102125780f35b61021b91610c70565b388180f35b50604051903d90823e3d90fd5b5050fd5b50346100fb5760203660031901126100fb57604060209163ffffffff610255610bf6565b168152600183522054604051908152f35b50346100fb57806003193601126100fb57546040516001600160a01b039091168152602090f35b50346100fb57366003190160a081126102ea576060136100fb576064356001600160401b0381116102ea576102c6903690600401610b98565b50506084356001600160a01b038116908190036102ea576020906040519030148152f35b5080fd5b50346100fb5760403660031901126100fb5760209061030b610bf6565b50604051908152f35b50346100fb57806003193601126100fb5760405190806002549061033782610d53565b80855291600181169081156103c25750600114610377575b6103738461035f81860382610c70565b604051918291602083526020830190610d8d565b0390f35b60028152600080516020610eee833981519152939250905b8082106103a85750909150810160200161035f8261034f565b91926001816020925483858801015201910190929161038f565b60ff191660208087019190915292151560051b8501909201925061035f915083905061034f565b506104216104136103f936610cf5565b929490916040519485916020808401526040830190610d8d565b03601f198101855284610c70565b6104436040519161043183610c3a565b34835260208301938785523691610c91565b9060405161045081610c55565b868152866020820152604080519161046783610c3a565b888352886020840152015251928334036106d157825180610599575b50916080939185936104976104e197610de1565b925115159263ffffffff604051966104ae88610c09565b1686526020860152604085015260608401528383015260405180809581946302637a4560e41b8352339060048401610e7f565b03917f00000000000000000000000000000000000000000000000000000000000000006001600160a01b03165af1801561058e5761051d575080f35b60803d608011610587575b6105328183610c70565b810190608081830312610583576040519161054c83610c55565b8151835260208201516001600160401b038116810361057f57602084015261057691604001610e57565b60408201525080f35b8480fd5b8280fd5b503d610528565b6040513d84823e3d90fd5b60405163393f876560e21b81527f00000000000000000000000000000000000000000000000000000000000000006001600160a01b031690602081600481855afa9081156106c6578991610680575b506001600160a01b031691821561067157602091899160405190848201926323b872dd60e01b8452336024840152604483015260648201526064815261062f608482610c70565b519082855af1156106665786513d61065d5750803b155b1561048357635274afe760e01b8752600452602486fd5b60011415610646565b6040513d88823e3d90fd5b6329b99a9560e11b8952600489fd5b90506020813d6020116106be575b8161069b60209383610c70565b810103126106ba57516001600160a01b03811681036106ba57386105e8565b8880fd5b3d915061068e565b6040513d8b823e3d90fd5b6304fb820960e51b865234600452602486fd5b50346100fb57806003193601126100fb576106fd610e15565b80546001600160a01b03198116825581906001600160a01b03167f8be0079c531659141344cd1fd0a4f28419497f9722a3daafe3b4186f6b6457e08280a380f35b50346100fb576107df604061078261077461078961075b36610cf5565b9187969193965195869160208084015289830190610d8d565b03601f198101865285610c70565b3691610c91565b90610792610e3e565b5061079c83610de1565b63ffffffff8551946107ad86610c09565b1684526020840152838301526060820152836080820152815180938192631bb8518b60e31b8352309060048401610e7f565b03817f00000000000000000000000000000000000000000000000000000000000000006001600160a01b03165afa90811561058e578291610831575b6040826020815191015182519182526020820152f35b905060403d604011610868575b6108488183610c70565b8101916040828403126100fb575060409161086291610e57565b3861081b565b503d61083e565b50346100fb57806003193601126100fb576040517f00000000000000000000000000000000000000000000000000000000000000006001600160a01b03168152602090f35b50346100fb5760403660031901126100fb577f238399d427b947898edb290f5ff0f9109849b1c3ba196a42e35f00c50a54b98b60406108f1610bf6565b63ffffffff60243591610902610e15565b16908185526001602052808386205582519182526020820152a180f35b50346100fb57806003193601126100fb57604080516001815260026020820152f35b50366003190160e081126102ea576060136100fb576084356001600160401b0381116102ea57610975903690600401610b98565b61097d610bca565b5060c4356001600160401b038111610b5d5761099d903690600401610b98565b5050337f00000000000000000000000000000000000000000000000000000000000000006001600160a01b031603610b85576109df6109da610dce565b610de1565b602435809103610b61575081016020828203126105835781356001600160401b038111610b5d57610a109201610cd7565b9081516001600160401b038111610b4957610a2c600254610d53565b601f8111610ade575b50602092601f8211600114610a7257928293829392610a67575b50508160011b916000199060031b1c19161760025580f35b015190503880610a4f565b60028352601f19821693600080516020610eee83398151915291845b868110610ac65750836001959610610aad575b505050811b0160025580f35b015160001960f88460031b161c19169055388080610aa1565b91926020600181928685015181550194019201610a8e565b60028352601f820160051c600080516020610eee833981519152019060208310610b33575b601f0160051c600080516020610eee83398151915201905b818110610b285750610a35565b838155600101610b1b565b600080516020610eee8339815191529150610b03565b634e487b7160e01b82526041600452602482fd5b8380fd5b8360449163ffffffff610b72610dce565b63309afaf360e21b845216600452602452fd5b6391ac5e4f60e01b835233600452602483fd5b9181601f84011215610bc5578235916001600160401b038311610bc55760208381860195010111610bc557565b600080fd5b60a435906001600160a01b0382168203610bc557565b600435906001600160a01b0382168203610bc557565b6004359063ffffffff82168203610bc557565b60a081019081106001600160401b03821117610c2457604052565b634e487b7160e01b600052604160045260246000fd5b604081019081106001600160401b03821117610c2457604052565b606081019081106001600160401b03821117610c2457604052565b90601f801991011681019081106001600160401b03821117610c2457604052565b9291926001600160401b038211610c245760405191610cba601f8201601f191660200184610c70565b829481845281830111610bc5578281602093846000960137010152565b9080601f83011215610bc557816020610cf293359101610c91565b90565b6060600319820112610bc55760043563ffffffff81168103610bc557916024356001600160401b038111610bc55782610d3091600401610cd7565b91604435906001600160401b038211610bc557610d4f91600401610b98565b9091565b90600182811c92168015610d83575b6020831014610d6d57565b634e487b7160e01b600052602260045260246000fd5b91607f1691610d62565b919082519283825260005b848110610db9575050826000602080949584010152601f8019910116010190565b80602080928401015182828601015201610d98565b60043563ffffffff81168103610bc55790565b63ffffffff16806000526001602052604060002054908115610e01575090565b63f6ff4fb760e01b60005260045260246000fd5b6000546001600160a01b03163303610e2957565b63118cdaa760e01b6000523360045260246000fd5b60405190610e4b82610c3a565b60006020838281520152565b9190826040910312610bc557604051610e6f81610c3a565b6020808294805184520151910152565b906020909392936040835263ffffffff81511660408401528181015160608401526080610ed3610ebd604084015160a08488015260e0870190610d8d565b6060840151868203603f190160a0880152610d8d565b910151151560c08401526001600160a01b0390941691015256fe405787fa12a823e0f2b7631cc41b3ba8828b3321ca811111fa75cd3aa3bb5acea2646970667358221220332c1aab9fe32fdd847cac4087c36fb0d842cdb3afe03d40ccd3cb0419af8d1c64736f6c634300081c0033","opcodes":"PUSH1 0xA0 DUP1 PUSH1 0x40 MSTORE CALLVALUE PUSH2 0x144 JUMPI PUSH1 0x0 SWAP1 PUSH1 0x40 DUP2 PUSH2 0x10DA DUP1 CODESIZE SUB DUP1 SWAP2 PUSH2 0x22 DUP3 DUP6 PUSH2 0x149 JUMP JUMPDEST DUP4 CODECOPY DUP2 ADD SUB SLT PUSH2 0x140 JUMPI PUSH2 0x35 DUP2 PUSH2 0x182 JUMP JUMPDEST SWAP1 PUSH1 0x1 PUSH1 0x1 PUSH1 0xA0 SHL SUB SWAP1 PUSH2 0x4B SWAP1 PUSH1 0x20 ADD PUSH2 0x182 JUMP JUMPDEST AND DUP1 ISZERO PUSH2 0x12C JUMPI DUP3 SLOAD PUSH1 0x1 PUSH1 0x1 PUSH1 0xA0 SHL SUB NOT DUP2 AND DUP3 OR DUP5 SSTORE PUSH1 0x40 MLOAD SWAP3 DUP5 SWAP3 SWAP2 DUP3 SWAP1 PUSH1 0x1 PUSH1 0x1 PUSH1 0xA0 SHL SUB AND PUSH32 0x8BE0079C531659141344CD1FD0A4F28419497F9722A3DAAFE3B4186F6B6457E0 DUP6 DUP1 LOG3 PUSH1 0x1 PUSH1 0x1 PUSH1 0xA0 SHL SUB AND PUSH1 0x80 DUP2 SWAP1 MSTORE SWAP1 DUP2 EXTCODESIZE ISZERO PUSH2 0x128 JUMPI DUP4 DUP4 DUP2 SWAP4 PUSH1 0x24 SWAP4 PUSH4 0xCA5EB5E1 PUSH1 0xE0 SHL DUP5 MSTORE PUSH1 0x4 DUP5 ADD MSTORE GAS CALL DUP1 ISZERO PUSH2 0x11D JUMPI PUSH2 0x10D JUMPI JUMPDEST PUSH1 0x40 MLOAD PUSH2 0xF43 SWAP1 DUP2 PUSH2 0x197 DUP3 CODECOPY PUSH1 0x80 MLOAD DUP2 DUP2 DUP2 PUSH2 0x1A9 ADD MSTORE DUP2 DUP2 PUSH2 0x4E5 ADD MSTORE DUP2 DUP2 PUSH2 0x5A8 ADD MSTORE DUP2 DUP2 PUSH2 0x7E3 ADD MSTORE DUP2 DUP2 PUSH2 0x885 ADD MSTORE PUSH2 0x9A2 ADD MSTORE RETURN JUMPDEST DUP2 PUSH2 0x117 SWAP2 PUSH2 0x149 JUMP JUMPDEST CODESIZE PUSH2 0xD2 JUMP JUMPDEST PUSH1 0x40 MLOAD RETURNDATASIZE DUP5 DUP3 RETURNDATACOPY RETURNDATASIZE SWAP1 REVERT JUMPDEST DUP3 DUP1 REVERT JUMPDEST PUSH4 0x1E4FBDF7 PUSH1 0xE0 SHL DUP4 MSTORE PUSH1 0x4 DUP4 SWAP1 MSTORE PUSH1 0x24 DUP4 REVERT JUMPDEST POP DUP1 REVERT JUMPDEST PUSH1 0x0 DUP1 REVERT JUMPDEST PUSH1 0x1F SWAP1 SWAP2 ADD PUSH1 0x1F NOT AND DUP2 ADD SWAP1 PUSH1 0x1 PUSH1 0x1 PUSH1 0x40 SHL SUB DUP3 GT SWAP1 DUP3 LT OR PUSH2 0x16C JUMPI PUSH1 0x40 MSTORE JUMP JUMPDEST PUSH4 0x4E487B71 PUSH1 0xE0 SHL PUSH1 0x0 MSTORE PUSH1 0x41 PUSH1 0x4 MSTORE PUSH1 0x24 PUSH1 0x0 REVERT JUMPDEST MLOAD SWAP1 PUSH1 0x1 PUSH1 0x1 PUSH1 0xA0 SHL SUB DUP3 AND DUP3 SUB PUSH2 0x144 JUMPI JUMP INVALID PUSH1 0x80 PUSH1 0x40 MSTORE PUSH1 0x4 CALLDATASIZE LT ISZERO PUSH2 0x12 JUMPI PUSH1 0x0 DUP1 REVERT JUMPDEST PUSH1 0x0 DUP1 CALLDATALOAD PUSH1 0xE0 SHR DUP1 PUSH4 0x13137D65 EQ PUSH2 0x941 JUMPI DUP1 PUSH4 0x17442B70 EQ PUSH2 0x91F JUMPI DUP1 PUSH4 0x3400288B EQ PUSH2 0x8B4 JUMPI DUP1 PUSH4 0x5E280F11 EQ PUSH2 0x86F JUMPI DUP1 PUSH4 0x6951628A EQ PUSH2 0x73E JUMPI DUP1 PUSH4 0x715018A6 EQ PUSH2 0x6E4 JUMPI DUP1 PUSH4 0x71E2A436 EQ PUSH2 0x3E9 JUMPI DUP1 PUSH4 0x73D4A13A EQ PUSH2 0x314 JUMPI DUP1 PUSH4 0x7D25A05E EQ PUSH2 0x2EE JUMPI DUP1 PUSH4 0x82413EAC EQ PUSH2 0x28D JUMPI DUP1 PUSH4 0x8DA5CB5B EQ PUSH2 0x266 JUMPI DUP1 PUSH4 0xBB0B6A53 EQ PUSH2 0x231 JUMPI DUP1 PUSH4 0xCA5EB5E1 EQ PUSH2 0x184 JUMPI DUP1 PUSH4 0xF2FDE38B EQ PUSH2 0xFE JUMPI PUSH4 0xFF7BD03D EQ PUSH2 0xC2 JUMPI PUSH1 0x0 DUP1 REVERT JUMPDEST CALLVALUE PUSH2 0xFB JUMPI PUSH1 0x60 CALLDATASIZE PUSH1 0x3 NOT ADD SLT PUSH2 0xFB JUMPI PUSH1 0x20 SWAP1 PUSH1 0x40 SWAP1 PUSH4 0xFFFFFFFF PUSH2 0xE6 PUSH2 0xDCE JUMP JUMPDEST AND DUP2 MSTORE PUSH1 0x1 DUP4 MSTORE KECCAK256 SLOAD PUSH1 0x40 MLOAD SWAP1 PUSH1 0x24 CALLDATALOAD EQ DUP2 MSTORE RETURN JUMPDEST DUP1 REVERT JUMPDEST POP CALLVALUE PUSH2 0xFB JUMPI PUSH1 0x20 CALLDATASIZE PUSH1 0x3 NOT ADD SLT PUSH2 0xFB JUMPI PUSH2 0x118 PUSH2 0xBE0 JUMP JUMPDEST PUSH2 0x120 PUSH2 0xE15 JUMP JUMPDEST PUSH1 0x1 PUSH1 0x1 PUSH1 0xA0 SHL SUB AND DUP1 ISZERO PUSH2 0x170 JUMPI DUP2 SLOAD PUSH1 0x1 PUSH1 0x1 PUSH1 0xA0 SHL SUB NOT DUP2 AND DUP3 OR DUP4 SSTORE PUSH1 0x1 PUSH1 0x1 PUSH1 0xA0 SHL SUB AND PUSH32 0x8BE0079C531659141344CD1FD0A4F28419497F9722A3DAAFE3B4186F6B6457E0 DUP4 DUP1 LOG3 DUP1 RETURN JUMPDEST PUSH4 0x1E4FBDF7 PUSH1 0xE0 SHL DUP3 MSTORE PUSH1 0x4 DUP3 SWAP1 MSTORE PUSH1 0x24 DUP3 REVERT JUMPDEST POP CALLVALUE PUSH2 0xFB JUMPI PUSH1 0x20 CALLDATASIZE PUSH1 0x3 NOT ADD SLT PUSH2 0xFB JUMPI DUP1 PUSH2 0x19F PUSH2 0xBE0 JUMP JUMPDEST PUSH2 0x1A7 PUSH2 0xE15 JUMP JUMPDEST PUSH32 0x0 PUSH1 0x1 PUSH1 0x1 PUSH1 0xA0 SHL SUB AND SWAP1 DUP2 EXTCODESIZE ISZERO PUSH2 0x22D JUMPI PUSH1 0x40 MLOAD PUSH4 0xCA5EB5E1 PUSH1 0xE0 SHL DUP2 MSTORE PUSH1 0x1 PUSH1 0x1 PUSH1 0xA0 SHL SUB SWAP1 SWAP2 AND PUSH1 0x4 DUP3 ADD MSTORE SWAP2 SWAP1 DUP2 SWAP1 DUP4 SWAP1 PUSH1 0x24 SWAP1 DUP3 SWAP1 DUP5 SWAP1 GAS CALL DUP1 ISZERO PUSH2 0x220 JUMPI PUSH2 0x212 JUMPI DUP1 RETURN JUMPDEST PUSH2 0x21B SWAP2 PUSH2 0xC70 JUMP JUMPDEST CODESIZE DUP2 DUP1 RETURN JUMPDEST POP PUSH1 0x40 MLOAD SWAP1 RETURNDATASIZE SWAP1 DUP3 RETURNDATACOPY RETURNDATASIZE SWAP1 REVERT JUMPDEST POP POP REVERT JUMPDEST POP CALLVALUE PUSH2 0xFB JUMPI PUSH1 0x20 CALLDATASIZE PUSH1 0x3 NOT ADD SLT PUSH2 0xFB JUMPI PUSH1 0x40 PUSH1 0x20 SWAP2 PUSH4 0xFFFFFFFF PUSH2 0x255 PUSH2 0xBF6 JUMP JUMPDEST AND DUP2 MSTORE PUSH1 0x1 DUP4 MSTORE KECCAK256 SLOAD PUSH1 0x40 MLOAD SWAP1 DUP2 MSTORE RETURN JUMPDEST POP CALLVALUE PUSH2 0xFB JUMPI DUP1 PUSH1 0x3 NOT CALLDATASIZE ADD SLT PUSH2 0xFB JUMPI SLOAD PUSH1 0x40 MLOAD PUSH1 0x1 PUSH1 0x1 PUSH1 0xA0 SHL SUB SWAP1 SWAP2 AND DUP2 MSTORE PUSH1 0x20 SWAP1 RETURN JUMPDEST POP CALLVALUE PUSH2 0xFB JUMPI CALLDATASIZE PUSH1 0x3 NOT ADD PUSH1 0xA0 DUP2 SLT PUSH2 0x2EA JUMPI PUSH1 0x60 SGT PUSH2 0xFB JUMPI PUSH1 0x64 CALLDATALOAD PUSH1 0x1 PUSH1 0x1 PUSH1 0x40 SHL SUB DUP2 GT PUSH2 0x2EA JUMPI PUSH2 0x2C6 SWAP1 CALLDATASIZE SWAP1 PUSH1 0x4 ADD PUSH2 0xB98 JUMP JUMPDEST POP POP PUSH1 0x84 CALLDATALOAD PUSH1 0x1 PUSH1 0x1 PUSH1 0xA0 SHL SUB DUP2 AND SWAP1 DUP2 SWAP1 SUB PUSH2 0x2EA JUMPI PUSH1 0x20 SWAP1 PUSH1 0x40 MLOAD SWAP1 ADDRESS EQ DUP2 MSTORE RETURN JUMPDEST POP DUP1 REVERT JUMPDEST POP CALLVALUE PUSH2 0xFB JUMPI PUSH1 0x40 CALLDATASIZE PUSH1 0x3 NOT ADD SLT PUSH2 0xFB JUMPI PUSH1 0x20 SWAP1 PUSH2 0x30B PUSH2 0xBF6 JUMP JUMPDEST POP PUSH1 0x40 MLOAD SWAP1 DUP2 MSTORE RETURN JUMPDEST POP CALLVALUE PUSH2 0xFB JUMPI DUP1 PUSH1 0x3 NOT CALLDATASIZE ADD SLT PUSH2 0xFB JUMPI PUSH1 0x40 MLOAD SWAP1 DUP1 PUSH1 0x2 SLOAD SWAP1 PUSH2 0x337 DUP3 PUSH2 0xD53 JUMP JUMPDEST DUP1 DUP6 MSTORE SWAP2 PUSH1 0x1 DUP2 AND SWAP1 DUP2 ISZERO PUSH2 0x3C2 JUMPI POP PUSH1 0x1 EQ PUSH2 0x377 JUMPI JUMPDEST PUSH2 0x373 DUP5 PUSH2 0x35F DUP2 DUP7 SUB DUP3 PUSH2 0xC70 JUMP JUMPDEST PUSH1 0x40 MLOAD SWAP2 DUP3 SWAP2 PUSH1 0x20 DUP4 MSTORE PUSH1 0x20 DUP4 ADD SWAP1 PUSH2 0xD8D JUMP JUMPDEST SUB SWAP1 RETURN JUMPDEST PUSH1 0x2 DUP2 MSTORE PUSH1 0x0 DUP1 MLOAD PUSH1 0x20 PUSH2 0xEEE DUP4 CODECOPY DUP2 MLOAD SWAP2 MSTORE SWAP4 SWAP3 POP SWAP1 JUMPDEST DUP1 DUP3 LT PUSH2 0x3A8 JUMPI POP SWAP1 SWAP2 POP DUP2 ADD PUSH1 0x20 ADD PUSH2 0x35F DUP3 PUSH2 0x34F JUMP JUMPDEST SWAP2 SWAP3 PUSH1 0x1 DUP2 PUSH1 0x20 SWAP3 SLOAD DUP4 DUP6 DUP9 ADD ADD MSTORE ADD SWAP2 ADD SWAP1 SWAP3 SWAP2 PUSH2 0x38F JUMP JUMPDEST PUSH1 0xFF NOT AND PUSH1 0x20 DUP1 DUP8 ADD SWAP2 SWAP1 SWAP2 MSTORE SWAP3 ISZERO ISZERO PUSH1 0x5 SHL DUP6 ADD SWAP1 SWAP3 ADD SWAP3 POP PUSH2 0x35F SWAP2 POP DUP4 SWAP1 POP PUSH2 0x34F JUMP JUMPDEST POP PUSH2 0x421 PUSH2 0x413 PUSH2 0x3F9 CALLDATASIZE PUSH2 0xCF5 JUMP JUMPDEST SWAP3 SWAP5 SWAP1 SWAP2 PUSH1 0x40 MLOAD SWAP5 DUP6 SWAP2 PUSH1 0x20 DUP1 DUP5 ADD MSTORE PUSH1 0x40 DUP4 ADD SWAP1 PUSH2 0xD8D JUMP JUMPDEST SUB PUSH1 0x1F NOT DUP2 ADD DUP6 MSTORE DUP5 PUSH2 0xC70 JUMP JUMPDEST PUSH2 0x443 PUSH1 0x40 MLOAD SWAP2 PUSH2 0x431 DUP4 PUSH2 0xC3A JUMP JUMPDEST CALLVALUE DUP4 MSTORE PUSH1 0x20 DUP4 ADD SWAP4 DUP8 DUP6 MSTORE CALLDATASIZE SWAP2 PUSH2 0xC91 JUMP JUMPDEST SWAP1 PUSH1 0x40 MLOAD PUSH2 0x450 DUP2 PUSH2 0xC55 JUMP JUMPDEST DUP7 DUP2 MSTORE DUP7 PUSH1 0x20 DUP3 ADD MSTORE PUSH1 0x40 DUP1 MLOAD SWAP2 PUSH2 0x467 DUP4 PUSH2 0xC3A JUMP JUMPDEST DUP9 DUP4 MSTORE DUP9 PUSH1 0x20 DUP5 ADD MSTORE ADD MSTORE MLOAD SWAP3 DUP4 CALLVALUE SUB PUSH2 0x6D1 JUMPI DUP3 MLOAD DUP1 PUSH2 0x599 JUMPI JUMPDEST POP SWAP2 PUSH1 0x80 SWAP4 SWAP2 DUP6 SWAP4 PUSH2 0x497 PUSH2 0x4E1 SWAP8 PUSH2 0xDE1 JUMP JUMPDEST SWAP3 MLOAD ISZERO ISZERO SWAP3 PUSH4 0xFFFFFFFF PUSH1 0x40 MLOAD SWAP7 PUSH2 0x4AE DUP9 PUSH2 0xC09 JUMP JUMPDEST AND DUP7 MSTORE PUSH1 0x20 DUP7 ADD MSTORE PUSH1 0x40 DUP6 ADD MSTORE PUSH1 0x60 DUP5 ADD MSTORE DUP4 DUP4 ADD MSTORE PUSH1 0x40 MLOAD DUP1 DUP1 SWAP6 DUP2 SWAP5 PUSH4 0x2637A45 PUSH1 0xE4 SHL DUP4 MSTORE CALLER SWAP1 PUSH1 0x4 DUP5 ADD PUSH2 0xE7F JUMP JUMPDEST SUB SWAP2 PUSH32 0x0 PUSH1 0x1 PUSH1 0x1 PUSH1 0xA0 SHL SUB AND GAS CALL DUP1 ISZERO PUSH2 0x58E JUMPI PUSH2 0x51D JUMPI POP DUP1 RETURN JUMPDEST PUSH1 0x80 RETURNDATASIZE PUSH1 0x80 GT PUSH2 0x587 JUMPI JUMPDEST PUSH2 0x532 DUP2 DUP4 PUSH2 0xC70 JUMP JUMPDEST DUP2 ADD SWAP1 PUSH1 0x80 DUP2 DUP4 SUB SLT PUSH2 0x583 JUMPI PUSH1 0x40 MLOAD SWAP2 PUSH2 0x54C DUP4 PUSH2 0xC55 JUMP JUMPDEST DUP2 MLOAD DUP4 MSTORE PUSH1 0x20 DUP3 ADD MLOAD PUSH1 0x1 PUSH1 0x1 PUSH1 0x40 SHL SUB DUP2 AND DUP2 SUB PUSH2 0x57F JUMPI PUSH1 0x20 DUP5 ADD MSTORE PUSH2 0x576 SWAP2 PUSH1 0x40 ADD PUSH2 0xE57 JUMP JUMPDEST PUSH1 0x40 DUP3 ADD MSTORE POP DUP1 RETURN JUMPDEST DUP5 DUP1 REVERT JUMPDEST DUP3 DUP1 REVERT JUMPDEST POP RETURNDATASIZE PUSH2 0x528 JUMP JUMPDEST PUSH1 0x40 MLOAD RETURNDATASIZE DUP5 DUP3 RETURNDATACOPY RETURNDATASIZE SWAP1 REVERT JUMPDEST PUSH1 0x40 MLOAD PUSH4 0x393F8765 PUSH1 0xE2 SHL DUP2 MSTORE PUSH32 0x0 PUSH1 0x1 PUSH1 0x1 PUSH1 0xA0 SHL SUB AND SWAP1 PUSH1 0x20 DUP2 PUSH1 0x4 DUP2 DUP6 GAS STATICCALL SWAP1 DUP2 ISZERO PUSH2 0x6C6 JUMPI DUP10 SWAP2 PUSH2 0x680 JUMPI JUMPDEST POP PUSH1 0x1 PUSH1 0x1 PUSH1 0xA0 SHL SUB AND SWAP2 DUP3 ISZERO PUSH2 0x671 JUMPI PUSH1 0x20 SWAP2 DUP10 SWAP2 PUSH1 0x40 MLOAD SWAP1 DUP5 DUP3 ADD SWAP3 PUSH4 0x23B872DD PUSH1 0xE0 SHL DUP5 MSTORE CALLER PUSH1 0x24 DUP5 ADD MSTORE PUSH1 0x44 DUP4 ADD MSTORE PUSH1 0x64 DUP3 ADD MSTORE PUSH1 0x64 DUP2 MSTORE PUSH2 0x62F PUSH1 0x84 DUP3 PUSH2 0xC70 JUMP JUMPDEST MLOAD SWAP1 DUP3 DUP6 GAS CALL ISZERO PUSH2 0x666 JUMPI DUP7 MLOAD RETURNDATASIZE PUSH2 0x65D JUMPI POP DUP1 EXTCODESIZE ISZERO JUMPDEST ISZERO PUSH2 0x483 JUMPI PUSH4 0x5274AFE7 PUSH1 0xE0 SHL DUP8 MSTORE PUSH1 0x4 MSTORE PUSH1 0x24 DUP7 REVERT JUMPDEST PUSH1 0x1 EQ ISZERO PUSH2 0x646 JUMP JUMPDEST PUSH1 0x40 MLOAD RETURNDATASIZE DUP9 DUP3 RETURNDATACOPY RETURNDATASIZE SWAP1 REVERT JUMPDEST PUSH4 0x29B99A95 PUSH1 0xE1 SHL DUP10 MSTORE PUSH1 0x4 DUP10 REVERT JUMPDEST SWAP1 POP PUSH1 0x20 DUP2 RETURNDATASIZE PUSH1 0x20 GT PUSH2 0x6BE JUMPI JUMPDEST DUP2 PUSH2 0x69B PUSH1 0x20 SWAP4 DUP4 PUSH2 0xC70 JUMP JUMPDEST DUP2 ADD SUB SLT PUSH2 0x6BA JUMPI MLOAD PUSH1 0x1 PUSH1 0x1 PUSH1 0xA0 SHL SUB DUP2 AND DUP2 SUB PUSH2 0x6BA JUMPI CODESIZE PUSH2 0x5E8 JUMP JUMPDEST DUP9 DUP1 REVERT JUMPDEST RETURNDATASIZE SWAP2 POP PUSH2 0x68E JUMP JUMPDEST PUSH1 0x40 MLOAD RETURNDATASIZE DUP12 DUP3 RETURNDATACOPY RETURNDATASIZE SWAP1 REVERT JUMPDEST PUSH4 0x4FB8209 PUSH1 0xE5 SHL DUP7 MSTORE CALLVALUE PUSH1 0x4 MSTORE PUSH1 0x24 DUP7 REVERT JUMPDEST POP CALLVALUE PUSH2 0xFB JUMPI DUP1 PUSH1 0x3 NOT CALLDATASIZE ADD SLT PUSH2 0xFB JUMPI PUSH2 0x6FD PUSH2 0xE15 JUMP JUMPDEST DUP1 SLOAD PUSH1 0x1 PUSH1 0x1 PUSH1 0xA0 SHL SUB NOT DUP2 AND DUP3 SSTORE DUP2 SWAP1 PUSH1 0x1 PUSH1 0x1 PUSH1 0xA0 SHL SUB AND PUSH32 0x8BE0079C531659141344CD1FD0A4F28419497F9722A3DAAFE3B4186F6B6457E0 DUP3 DUP1 LOG3 DUP1 RETURN JUMPDEST POP CALLVALUE PUSH2 0xFB JUMPI PUSH2 0x7DF PUSH1 0x40 PUSH2 0x782 PUSH2 0x774 PUSH2 0x789 PUSH2 0x75B CALLDATASIZE PUSH2 0xCF5 JUMP JUMPDEST SWAP2 DUP8 SWAP7 SWAP2 SWAP4 SWAP7 MLOAD SWAP6 DUP7 SWAP2 PUSH1 0x20 DUP1 DUP5 ADD MSTORE DUP10 DUP4 ADD SWAP1 PUSH2 0xD8D JUMP JUMPDEST SUB PUSH1 0x1F NOT DUP2 ADD DUP7 MSTORE DUP6 PUSH2 0xC70 JUMP JUMPDEST CALLDATASIZE SWAP2 PUSH2 0xC91 JUMP JUMPDEST SWAP1 PUSH2 0x792 PUSH2 0xE3E JUMP JUMPDEST POP PUSH2 0x79C DUP4 PUSH2 0xDE1 JUMP JUMPDEST PUSH4 0xFFFFFFFF DUP6 MLOAD SWAP5 PUSH2 0x7AD DUP7 PUSH2 0xC09 JUMP JUMPDEST AND DUP5 MSTORE PUSH1 0x20 DUP5 ADD MSTORE DUP4 DUP4 ADD MSTORE PUSH1 0x60 DUP3 ADD MSTORE DUP4 PUSH1 0x80 DUP3 ADD MSTORE DUP2 MLOAD DUP1 SWAP4 DUP2 SWAP3 PUSH4 0x1BB8518B PUSH1 0xE3 SHL DUP4 MSTORE ADDRESS SWAP1 PUSH1 0x4 DUP5 ADD PUSH2 0xE7F JUMP JUMPDEST SUB DUP2 PUSH32 0x0 PUSH1 0x1 PUSH1 0x1 PUSH1 0xA0 SHL SUB AND GAS STATICCALL SWAP1 DUP2 ISZERO PUSH2 0x58E JUMPI DUP3 SWAP2 PUSH2 0x831 JUMPI JUMPDEST PUSH1 0x40 DUP3 PUSH1 0x20 DUP2 MLOAD SWAP2 ADD MLOAD DUP3 MLOAD SWAP2 DUP3 MSTORE PUSH1 0x20 DUP3 ADD MSTORE RETURN JUMPDEST SWAP1 POP PUSH1 0x40 RETURNDATASIZE PUSH1 0x40 GT PUSH2 0x868 JUMPI JUMPDEST PUSH2 0x848 DUP2 DUP4 PUSH2 0xC70 JUMP JUMPDEST DUP2 ADD SWAP2 PUSH1 0x40 DUP3 DUP5 SUB SLT PUSH2 0xFB JUMPI POP PUSH1 0x40 SWAP2 PUSH2 0x862 SWAP2 PUSH2 0xE57 JUMP JUMPDEST CODESIZE PUSH2 0x81B JUMP JUMPDEST POP RETURNDATASIZE PUSH2 0x83E JUMP JUMPDEST POP CALLVALUE PUSH2 0xFB JUMPI DUP1 PUSH1 0x3 NOT CALLDATASIZE ADD SLT PUSH2 0xFB JUMPI PUSH1 0x40 MLOAD PUSH32 0x0 PUSH1 0x1 PUSH1 0x1 PUSH1 0xA0 SHL SUB AND DUP2 MSTORE PUSH1 0x20 SWAP1 RETURN JUMPDEST POP CALLVALUE PUSH2 0xFB JUMPI PUSH1 0x40 CALLDATASIZE PUSH1 0x3 NOT ADD SLT PUSH2 0xFB JUMPI PUSH32 0x238399D427B947898EDB290F5FF0F9109849B1C3BA196A42E35F00C50A54B98B PUSH1 0x40 PUSH2 0x8F1 PUSH2 0xBF6 JUMP JUMPDEST PUSH4 0xFFFFFFFF PUSH1 0x24 CALLDATALOAD SWAP2 PUSH2 0x902 PUSH2 0xE15 JUMP JUMPDEST AND SWAP1 DUP2 DUP6 MSTORE PUSH1 0x1 PUSH1 0x20 MSTORE DUP1 DUP4 DUP7 KECCAK256 SSTORE DUP3 MLOAD SWAP2 DUP3 MSTORE PUSH1 0x20 DUP3 ADD MSTORE LOG1 DUP1 RETURN JUMPDEST POP CALLVALUE PUSH2 0xFB JUMPI DUP1 PUSH1 0x3 NOT CALLDATASIZE ADD SLT PUSH2 0xFB JUMPI PUSH1 0x40 DUP1 MLOAD PUSH1 0x1 DUP2 MSTORE PUSH1 0x2 PUSH1 0x20 DUP3 ADD MSTORE RETURN JUMPDEST POP CALLDATASIZE PUSH1 0x3 NOT ADD PUSH1 0xE0 DUP2 SLT PUSH2 0x2EA JUMPI PUSH1 0x60 SGT PUSH2 0xFB JUMPI PUSH1 0x84 CALLDATALOAD PUSH1 0x1 PUSH1 0x1 PUSH1 0x40 SHL SUB DUP2 GT PUSH2 0x2EA JUMPI PUSH2 0x975 SWAP1 CALLDATASIZE SWAP1 PUSH1 0x4 ADD PUSH2 0xB98 JUMP JUMPDEST PUSH2 0x97D PUSH2 0xBCA JUMP JUMPDEST POP PUSH1 0xC4 CALLDATALOAD PUSH1 0x1 PUSH1 0x1 PUSH1 0x40 SHL SUB DUP2 GT PUSH2 0xB5D JUMPI PUSH2 0x99D SWAP1 CALLDATASIZE SWAP1 PUSH1 0x4 ADD PUSH2 0xB98 JUMP JUMPDEST POP POP CALLER PUSH32 0x0 PUSH1 0x1 PUSH1 0x1 PUSH1 0xA0 SHL SUB AND SUB PUSH2 0xB85 JUMPI PUSH2 0x9DF PUSH2 0x9DA PUSH2 0xDCE JUMP JUMPDEST PUSH2 0xDE1 JUMP JUMPDEST PUSH1 0x24 CALLDATALOAD DUP1 SWAP2 SUB PUSH2 0xB61 JUMPI POP DUP2 ADD PUSH1 0x20 DUP3 DUP3 SUB SLT PUSH2 0x583 JUMPI DUP2 CALLDATALOAD PUSH1 0x1 PUSH1 0x1 PUSH1 0x40 SHL SUB DUP2 GT PUSH2 0xB5D JUMPI PUSH2 0xA10 SWAP3 ADD PUSH2 0xCD7 JUMP JUMPDEST SWAP1 DUP2 MLOAD PUSH1 0x1 PUSH1 0x1 PUSH1 0x40 SHL SUB DUP2 GT PUSH2 0xB49 JUMPI PUSH2 0xA2C PUSH1 0x2 SLOAD PUSH2 0xD53 JUMP JUMPDEST PUSH1 0x1F DUP2 GT PUSH2 0xADE JUMPI JUMPDEST POP PUSH1 0x20 SWAP3 PUSH1 0x1F DUP3 GT PUSH1 0x1 EQ PUSH2 0xA72 JUMPI SWAP3 DUP3 SWAP4 DUP3 SWAP4 SWAP3 PUSH2 0xA67 JUMPI JUMPDEST POP POP DUP2 PUSH1 0x1 SHL SWAP2 PUSH1 0x0 NOT SWAP1 PUSH1 0x3 SHL SHR NOT AND OR PUSH1 0x2 SSTORE DUP1 RETURN JUMPDEST ADD MLOAD SWAP1 POP CODESIZE DUP1 PUSH2 0xA4F JUMP JUMPDEST PUSH1 0x2 DUP4 MSTORE PUSH1 0x1F NOT DUP3 AND SWAP4 PUSH1 0x0 DUP1 MLOAD PUSH1 0x20 PUSH2 0xEEE DUP4 CODECOPY DUP2 MLOAD SWAP2 MSTORE SWAP2 DUP5 JUMPDEST DUP7 DUP2 LT PUSH2 0xAC6 JUMPI POP DUP4 PUSH1 0x1 SWAP6 SWAP7 LT PUSH2 0xAAD JUMPI JUMPDEST POP POP POP DUP2 SHL ADD PUSH1 0x2 SSTORE DUP1 RETURN JUMPDEST ADD MLOAD PUSH1 0x0 NOT PUSH1 0xF8 DUP5 PUSH1 0x3 SHL AND SHR NOT AND SWAP1 SSTORE CODESIZE DUP1 DUP1 PUSH2 0xAA1 JUMP JUMPDEST SWAP2 SWAP3 PUSH1 0x20 PUSH1 0x1 DUP2 SWAP3 DUP7 DUP6 ADD MLOAD DUP2 SSTORE ADD SWAP5 ADD SWAP3 ADD PUSH2 0xA8E JUMP JUMPDEST PUSH1 0x2 DUP4 MSTORE PUSH1 0x1F DUP3 ADD PUSH1 0x5 SHR PUSH1 0x0 DUP1 MLOAD PUSH1 0x20 PUSH2 0xEEE DUP4 CODECOPY DUP2 MLOAD SWAP2 MSTORE ADD SWAP1 PUSH1 0x20 DUP4 LT PUSH2 0xB33 JUMPI JUMPDEST PUSH1 0x1F ADD PUSH1 0x5 SHR PUSH1 0x0 DUP1 MLOAD PUSH1 0x20 PUSH2 0xEEE DUP4 CODECOPY DUP2 MLOAD SWAP2 MSTORE ADD SWAP1 JUMPDEST DUP2 DUP2 LT PUSH2 0xB28 JUMPI POP PUSH2 0xA35 JUMP JUMPDEST DUP4 DUP2 SSTORE PUSH1 0x1 ADD PUSH2 0xB1B JUMP JUMPDEST PUSH1 0x0 DUP1 MLOAD PUSH1 0x20 PUSH2 0xEEE DUP4 CODECOPY DUP2 MLOAD SWAP2 MSTORE SWAP2 POP PUSH2 0xB03 JUMP JUMPDEST PUSH4 0x4E487B71 PUSH1 0xE0 SHL DUP3 MSTORE PUSH1 0x41 PUSH1 0x4 MSTORE PUSH1 0x24 DUP3 REVERT JUMPDEST DUP4 DUP1 REVERT JUMPDEST DUP4 PUSH1 0x44 SWAP2 PUSH4 0xFFFFFFFF PUSH2 0xB72 PUSH2 0xDCE JUMP JUMPDEST PUSH4 0x309AFAF3 PUSH1 0xE2 SHL DUP5 MSTORE AND PUSH1 0x4 MSTORE PUSH1 0x24 MSTORE REVERT JUMPDEST PUSH4 0x91AC5E4F PUSH1 0xE0 SHL DUP4 MSTORE CALLER PUSH1 0x4 MSTORE PUSH1 0x24 DUP4 REVERT JUMPDEST SWAP2 DUP2 PUSH1 0x1F DUP5 ADD SLT ISZERO PUSH2 0xBC5 JUMPI DUP3 CALLDATALOAD SWAP2 PUSH1 0x1 PUSH1 0x1 PUSH1 0x40 SHL SUB DUP4 GT PUSH2 0xBC5 JUMPI PUSH1 0x20 DUP4 DUP2 DUP7 ADD SWAP6 ADD ADD GT PUSH2 0xBC5 JUMPI JUMP JUMPDEST PUSH1 0x0 DUP1 REVERT JUMPDEST PUSH1 0xA4 CALLDATALOAD SWAP1 PUSH1 0x1 PUSH1 0x1 PUSH1 0xA0 SHL SUB DUP3 AND DUP3 SUB PUSH2 0xBC5 JUMPI JUMP JUMPDEST PUSH1 0x4 CALLDATALOAD SWAP1 PUSH1 0x1 PUSH1 0x1 PUSH1 0xA0 SHL SUB DUP3 AND DUP3 SUB PUSH2 0xBC5 JUMPI JUMP JUMPDEST PUSH1 0x4 CALLDATALOAD SWAP1 PUSH4 0xFFFFFFFF DUP3 AND DUP3 SUB PUSH2 0xBC5 JUMPI JUMP JUMPDEST PUSH1 0xA0 DUP2 ADD SWAP1 DUP2 LT PUSH1 0x1 PUSH1 0x1 PUSH1 0x40 SHL SUB DUP3 GT OR PUSH2 0xC24 JUMPI PUSH1 0x40 MSTORE JUMP JUMPDEST PUSH4 0x4E487B71 PUSH1 0xE0 SHL PUSH1 0x0 MSTORE PUSH1 0x41 PUSH1 0x4 MSTORE PUSH1 0x24 PUSH1 0x0 REVERT JUMPDEST PUSH1 0x40 DUP2 ADD SWAP1 DUP2 LT PUSH1 0x1 PUSH1 0x1 PUSH1 0x40 SHL SUB DUP3 GT OR PUSH2 0xC24 JUMPI PUSH1 0x40 MSTORE JUMP JUMPDEST PUSH1 0x60 DUP2 ADD SWAP1 DUP2 LT PUSH1 0x1 PUSH1 0x1 PUSH1 0x40 SHL SUB DUP3 GT OR PUSH2 0xC24 JUMPI PUSH1 0x40 MSTORE JUMP JUMPDEST SWAP1 PUSH1 0x1F DUP1 NOT SWAP2 ADD AND DUP2 ADD SWAP1 DUP2 LT PUSH1 0x1 PUSH1 0x1 PUSH1 0x40 SHL SUB DUP3 GT OR PUSH2 0xC24 JUMPI PUSH1 0x40 MSTORE JUMP JUMPDEST SWAP3 SWAP2 SWAP3 PUSH1 0x1 PUSH1 0x1 PUSH1 0x40 SHL SUB DUP3 GT PUSH2 0xC24 JUMPI PUSH1 0x40 MLOAD SWAP2 PUSH2 0xCBA PUSH1 0x1F DUP3 ADD PUSH1 0x1F NOT AND PUSH1 0x20 ADD DUP5 PUSH2 0xC70 JUMP JUMPDEST DUP3 SWAP5 DUP2 DUP5 MSTORE DUP2 DUP4 ADD GT PUSH2 0xBC5 JUMPI DUP3 DUP2 PUSH1 0x20 SWAP4 DUP5 PUSH1 0x0 SWAP7 ADD CALLDATACOPY ADD ADD MSTORE JUMP JUMPDEST SWAP1 DUP1 PUSH1 0x1F DUP4 ADD SLT ISZERO PUSH2 0xBC5 JUMPI DUP2 PUSH1 0x20 PUSH2 0xCF2 SWAP4 CALLDATALOAD SWAP2 ADD PUSH2 0xC91 JUMP JUMPDEST SWAP1 JUMP JUMPDEST PUSH1 0x60 PUSH1 0x3 NOT DUP3 ADD SLT PUSH2 0xBC5 JUMPI PUSH1 0x4 CALLDATALOAD PUSH4 0xFFFFFFFF DUP2 AND DUP2 SUB PUSH2 0xBC5 JUMPI SWAP2 PUSH1 0x24 CALLDATALOAD PUSH1 0x1 PUSH1 0x1 PUSH1 0x40 SHL SUB DUP2 GT PUSH2 0xBC5 JUMPI DUP3 PUSH2 0xD30 SWAP2 PUSH1 0x4 ADD PUSH2 0xCD7 JUMP JUMPDEST SWAP2 PUSH1 0x44 CALLDATALOAD SWAP1 PUSH1 0x1 PUSH1 0x1 PUSH1 0x40 SHL SUB DUP3 GT PUSH2 0xBC5 JUMPI PUSH2 0xD4F SWAP2 PUSH1 0x4 ADD PUSH2 0xB98 JUMP JUMPDEST SWAP1 SWAP2 JUMP JUMPDEST SWAP1 PUSH1 0x1 DUP3 DUP2 SHR SWAP3 AND DUP1 ISZERO PUSH2 0xD83 JUMPI JUMPDEST PUSH1 0x20 DUP4 LT EQ PUSH2 0xD6D JUMPI JUMP JUMPDEST PUSH4 0x4E487B71 PUSH1 0xE0 SHL PUSH1 0x0 MSTORE PUSH1 0x22 PUSH1 0x4 MSTORE PUSH1 0x24 PUSH1 0x0 REVERT JUMPDEST SWAP2 PUSH1 0x7F AND SWAP2 PUSH2 0xD62 JUMP JUMPDEST SWAP2 SWAP1 DUP3 MLOAD SWAP3 DUP4 DUP3 MSTORE PUSH1 0x0 JUMPDEST DUP5 DUP2 LT PUSH2 0xDB9 JUMPI POP POP DUP3 PUSH1 0x0 PUSH1 0x20 DUP1 SWAP5 SWAP6 DUP5 ADD ADD MSTORE PUSH1 0x1F DUP1 NOT SWAP2 ADD AND ADD ADD SWAP1 JUMP JUMPDEST DUP1 PUSH1 0x20 DUP1 SWAP3 DUP5 ADD ADD MLOAD DUP3 DUP3 DUP7 ADD ADD MSTORE ADD PUSH2 0xD98 JUMP JUMPDEST PUSH1 0x4 CALLDATALOAD PUSH4 0xFFFFFFFF DUP2 AND DUP2 SUB PUSH2 0xBC5 JUMPI SWAP1 JUMP JUMPDEST PUSH4 0xFFFFFFFF AND DUP1 PUSH1 0x0 MSTORE PUSH1 0x1 PUSH1 0x20 MSTORE PUSH1 0x40 PUSH1 0x0 KECCAK256 SLOAD SWAP1 DUP2 ISZERO PUSH2 0xE01 JUMPI POP SWAP1 JUMP JUMPDEST PUSH4 0xF6FF4FB7 PUSH1 0xE0 SHL PUSH1 0x0 MSTORE PUSH1 0x4 MSTORE PUSH1 0x24 PUSH1 0x0 REVERT JUMPDEST PUSH1 0x0 SLOAD PUSH1 0x1 PUSH1 0x1 PUSH1 0xA0 SHL SUB AND CALLER SUB PUSH2 0xE29 JUMPI JUMP JUMPDEST PUSH4 0x118CDAA7 PUSH1 0xE0 SHL PUSH1 0x0 MSTORE CALLER PUSH1 0x4 MSTORE PUSH1 0x24 PUSH1 0x0 REVERT JUMPDEST PUSH1 0x40 MLOAD SWAP1 PUSH2 0xE4B DUP3 PUSH2 0xC3A JUMP JUMPDEST PUSH1 0x0 PUSH1 0x20 DUP4 DUP3 DUP2 MSTORE ADD MSTORE JUMP JUMPDEST SWAP2 SWAP1 DUP3 PUSH1 0x40 SWAP2 SUB SLT PUSH2 0xBC5 JUMPI PUSH1 0x40 MLOAD PUSH2 0xE6F DUP2 PUSH2 0xC3A JUMP JUMPDEST PUSH1 0x20 DUP1 DUP3 SWAP5 DUP1 MLOAD DUP5 MSTORE ADD MLOAD SWAP2 ADD MSTORE JUMP JUMPDEST SWAP1 PUSH1 0x20 SWAP1 SWAP4 SWAP3 SWAP4 PUSH1 0x40 DUP4 MSTORE PUSH4 0xFFFFFFFF DUP2 MLOAD AND PUSH1 0x40 DUP5 ADD MSTORE DUP2 DUP2 ADD MLOAD PUSH1 0x60 DUP5 ADD MSTORE PUSH1 0x80 PUSH2 0xED3 PUSH2 0xEBD PUSH1 0x40 DUP5 ADD MLOAD PUSH1 0xA0 DUP5 DUP9 ADD MSTORE PUSH1 0xE0 DUP8 ADD SWAP1 PUSH2 0xD8D JUMP JUMPDEST PUSH1 0x60 DUP5 ADD MLOAD DUP7 DUP3 SUB PUSH1 0x3F NOT ADD PUSH1 0xA0 DUP9 ADD MSTORE PUSH2 0xD8D JUMP JUMPDEST SWAP2 ADD MLOAD ISZERO ISZERO PUSH1 0xC0 DUP5 ADD MSTORE PUSH1 0x1 PUSH1 0x1 PUSH1 0xA0 SHL SUB SWAP1 SWAP5 AND SWAP2 ADD MSTORE JUMP INVALID BLOCKHASH JUMPI DUP8 STATICCALL SLT 0xA8 0x23 0xE0 CALLCODE 0xB7 PUSH4 0x1CC41B3B 0xA8 DUP3 DUP12 CALLER 0x21 0xCA DUP2 GT GT STATICCALL PUSH22 0xCD3AA3BB5ACEA2646970667358221220332C1AAB9FE3 0x2F 0xDD DUP5 PUSH29 0xAC4087C36FB0D842CDB3AFE03D40CCD3CB0419AF8D1C64736F6C634300 ADDMOD SHR STOP CALLER "},"methodIdentifiers":{"allowInitializePath((uint32,bytes32,uint64))":"ff7bd03d","data()":"73d4a13a","endpoint()":"5e280f11","estimateFee(uint32,string,bytes)":"6951628a","isComposeMsgSender((uint32,bytes32,uint64),bytes,address)":"82413eac","lzReceive((uint32,bytes32,uint64),bytes32,bytes,address,bytes)":"13137d65","nextNonce(uint32,bytes32)":"7d25a05e","oAppVersion()":"17442b70","owner()":"8da5cb5b","peers(uint32)":"bb0b6a53","renounceOwnership()":"715018a6","sendMessage(uint32,string,bytes)":"71e2a436","setDelegate(address)":"ca5eb5e1","setPeer(uint32,bytes32)":"3400288b","transferOwnership(address)":"f2fde38b"}}}}}