{"contracts/KlimaRetirementFacilitator.sol":{"KlimaRetirementFacilitator":{"abi":[{"inputs":[],"name":"InvalidCarbonType","type":"error"},{"inputs":[],"name":"OnlyBridge","type":"error"},{"inputs":[],"name":"RetirementFailed","type":"error"},{"inputs":[],"name":"SwapFailed","type":"error"},{"inputs":[],"name":"Unauthorized","type":"error"},{"inputs":[],"name":"ZeroAddress","type":"error"},{"inputs":[],"name":"ZeroAmount","type":"error"},{"anonymous":false,"inputs":[{"indexed":false,"internalType":"address","name":"previousAdmin","type":"address"},{"indexed":false,"internalType":"address","name":"newAdmin","type":"address"}],"name":"AdminChanged","type":"event"},{"anonymous":false,"inputs":[{"indexed":true,"internalType":"address","name":"beacon","type":"address"}],"name":"BeaconUpgraded","type":"event"},{"anonymous":false,"inputs":[],"name":"ConfigUpdated","type":"event"},{"anonymous":false,"inputs":[{"indexed":true,"internalType":"uint256","name":"requestId","type":"uint256"},{"indexed":true,"internalType":"address","name":"user","type":"address"},{"indexed":false,"internalType":"uint256","name":"klimaUsed","type":"uint256"},{"indexed":false,"internalType":"uint256","name":"carbonAmount","type":"uint256"},{"indexed":false,"internalType":"address","name":"carbonPool","type":"address"},{"indexed":false,"internalType":"address","name":"beneficiary","type":"address"},{"indexed":false,"internalType":"string","name":"carbonType","type":"string"},{"indexed":false,"internalType":"uint16","name":"srcChainId","type":"uint16"},{"indexed":false,"internalType":"uint256","name":"timestamp","type":"uint256"}],"name":"CrossChainRetired","type":"event"},{"anonymous":false,"inputs":[{"indexed":false,"internalType":"address","name":"token","type":"address"},{"indexed":false,"internalType":"address","name":"to","type":"address"},{"indexed":false,"internalType":"uint256","name":"amount","type":"uint256"}],"name":"EmergencyWithdraw","type":"event"},{"anonymous":false,"inputs":[{"indexed":false,"internalType":"address","name":"to","type":"address"},{"indexed":false,"internalType":"uint256","name":"amount","type":"uint256"}],"name":"FeesWithdrawn","type":"event"},{"anonymous":false,"inputs":[{"indexed":false,"internalType":"uint8","name":"version","type":"uint8"}],"name":"Initialized","type":"event"},{"anonymous":false,"inputs":[{"indexed":true,"internalType":"uint256","name":"retireId","type":"uint256"},{"indexed":true,"internalType":"address","name":"user","type":"address"},{"indexed":false,"internalType":"uint256","name":"klimaUsed","type":"uint256"},{"indexed":false,"internalType":"uint256","name":"carbonAmount","type":"uint256"},{"indexed":false,"internalType":"address","name":"carbonPool","type":"address"},{"indexed":false,"internalType":"address","name":"beneficiary","type":"address"},{"indexed":false,"internalType":"string","name":"carbonType","type":"string"},{"indexed":false,"internalType":"uint256","name":"timestamp","type":"uint256"}],"name":"LocalRetired","type":"event"},{"anonymous":false,"inputs":[{"indexed":true,"internalType":"address","name":"previousOwner","type":"address"},{"indexed":true,"internalType":"address","name":"newOwner","type":"address"}],"name":"OwnershipTransferred","type":"event"},{"anonymous":false,"inputs":[{"indexed":true,"internalType":"uint256","name":"requestId","type":"uint256"},{"indexed":false,"internalType":"uint16","name":"dstChainId","type":"uint16"},{"indexed":false,"internalType":"bytes","name":"payload","type":"bytes"},{"indexed":false,"internalType":"uint256","name":"timestamp","type":"uint256"}],"name":"RetirementConfirmed","type":"event"},{"anonymous":false,"inputs":[{"indexed":true,"internalType":"address","name":"implementation","type":"address"}],"name":"Upgraded","type":"event"},{"inputs":[],"name":"KLIMA","outputs":[{"internalType":"contract IERC20","name":"","type":"address"}],"stateMutability":"view","type":"function"},{"inputs":[],"name":"aggregator","outputs":[{"internalType":"contract IRetirementAggregator","name":"","type":"address"}],"stateMutability":"view","type":"function"},{"inputs":[],"name":"baseBridge","outputs":[{"internalType":"address","name":"","type":"address"}],"stateMutability":"view","type":"function"},{"inputs":[{"internalType":"address","name":"token","type":"address"},{"internalType":"address","name":"to","type":"address"},{"internalType":"uint256","name":"amount","type":"uint256"}],"name":"emergencyWithdraw","outputs":[],"stateMutability":"nonpayable","type":"function"},{"inputs":[],"name":"feeBps","outputs":[{"internalType":"uint16","name":"","type":"uint16"}],"stateMutability":"view","type":"function"},{"inputs":[{"internalType":"address","name":"_endpoint","type":"address"},{"internalType":"address","name":"_bridge","type":"address"},{"internalType":"address","name":"_router","type":"address"},{"internalType":"address","name":"_aggregator","type":"address"},{"internalType":"address","name":"_poolBCT","type":"address"},{"internalType":"address","name":"_poolNCT","type":"address"},{"internalType":"address","name":"_klima","type":"address"}],"name":"initialize","outputs":[],"stateMutability":"nonpayable","type":"function"},{"inputs":[],"name":"lzEndpoint","outputs":[{"internalType":"contract ILayerZeroEndpoint","name":"","type":"address"}],"stateMutability":"view","type":"function"},{"inputs":[{"internalType":"uint16","name":"srcChainId","type":"uint16"},{"internalType":"bytes","name":"","type":"bytes"},{"internalType":"uint64","name":"","type":"uint64"},{"internalType":"bytes","name":"payload","type":"bytes"}],"name":"lzReceive","outputs":[],"stateMutability":"nonpayable","type":"function"},{"inputs":[],"name":"nextRetireId","outputs":[{"internalType":"uint256","name":"","type":"uint256"}],"stateMutability":"view","type":"function"},{"inputs":[],"name":"owner","outputs":[{"internalType":"address","name":"","type":"address"}],"stateMutability":"view","type":"function"},{"inputs":[],"name":"poolBCT","outputs":[{"internalType":"contract ICarbonPool","name":"","type":"address"}],"stateMutability":"view","type":"function"},{"inputs":[],"name":"poolNCT","outputs":[{"internalType":"contract ICarbonPool","name":"","type":"address"}],"stateMutability":"view","type":"function"},{"inputs":[],"name":"proxiableUUID","outputs":[{"internalType":"bytes32","name":"","type":"bytes32"}],"stateMutability":"view","type":"function"},{"inputs":[{"internalType":"uint256","name":"","type":"uint256"}],"name":"records","outputs":[{"internalType":"address","name":"user","type":"address"},{"internalType":"uint256","name":"klimaUsed","type":"uint256"},{"internalType":"uint256","name":"carbonAmount","type":"uint256"},{"internalType":"address","name":"pool","type":"address"},{"internalType":"address","name":"beneficiary","type":"address"},{"internalType":"string","name":"carbonType","type":"string"},{"internalType":"uint16","name":"srcChain","type":"uint16"},{"internalType":"bool","name":"fulfilled","type":"bool"}],"stateMutability":"view","type":"function"},{"inputs":[],"name":"renounceOwnership","outputs":[],"stateMutability":"nonpayable","type":"function"},{"inputs":[{"internalType":"string","name":"carbonType","type":"string"},{"internalType":"address","name":"beneficiary","type":"address"}],"name":"retireLocal","outputs":[{"internalType":"uint256","name":"retireId","type":"uint256"}],"stateMutability":"payable","type":"function"},{"inputs":[{"internalType":"address","name":"_bridge","type":"address"}],"name":"setBaseBridge","outputs":[],"stateMutability":"nonpayable","type":"function"},{"inputs":[{"internalType":"uint16","name":"_bps","type":"uint16"}],"name":"setFeeBps","outputs":[],"stateMutability":"nonpayable","type":"function"},{"inputs":[],"name":"swapRouter","outputs":[{"internalType":"contract ISushiSwapRouter","name":"","type":"address"}],"stateMutability":"view","type":"function"},{"inputs":[{"internalType":"address","name":"newOwner","type":"address"}],"name":"transferOwnership","outputs":[],"stateMutability":"nonpayable","type":"function"},{"inputs":[{"internalType":"address","name":"newImplementation","type":"address"}],"name":"upgradeTo","outputs":[],"stateMutability":"nonpayable","type":"function"},{"inputs":[{"internalType":"address","name":"newImplementation","type":"address"},{"internalType":"bytes","name":"data","type":"bytes"}],"name":"upgradeToAndCall","outputs":[],"stateMutability":"payable","type":"function"},{"inputs":[{"internalType":"address payable","name":"to","type":"address"}],"name":"withdrawFees","outputs":[],"stateMutability":"nonpayable","type":"function"},{"stateMutability":"payable","type":"receive"}],"evm":{"bytecode":{"linkReferences":{},"object":"60a080604052346030573060805261273590816100368239608051818181610ac201528181610bbd0152610e740152f35b600080fdfe6080604052600436101561001b575b361561001957600080fd5b005b6000803560e01c80621d35671461177c578063023b1fc9146116f857806314c33c051461168d578063164e68de146115e1578063245a7bfc146115b857806324a9d853146115925780632b40213c146115735780632b4435e81461154a57806334461067146113fb57806335876476146110f45780633659cfe614610e555780633feb8f7514610e2c5780634f1ef28614610b7357806352d1902d14610aaf5780635b2458ad14610488578063715018a61461042b5780638da5cb5b146104025780638ff30ffc146103d8578063b353aaa7146103af578063c31c9c0714610386578063e3ed12a01461035c578063e63ea408146101b65763f2fde38b14610123575061000e565b346101b35760203660031901126101b35761013c61200b565b610144612423565b6001600160a01b0381161561015f5761015c90612560565b80f35b60405162461bcd60e51b815260206004820152602660248201527f4f776e61626c653a206e6577206f776e657220697320746865207a65726f206160448201526564647265737360d01b6064820152608490fd5b80fd5b50346101b35760603660031901126101b3576101d061200b565b6101d8612021565b90604435916101e5612423565b6101ed6123cd565b6001600160a01b03811691821561034d576001600160a01b03169084908490836102a05782809281925af161022061239d565b5015610265577ff24ef89f38eadc1bde50701ad6e4d6d11a2dc24f7cf834a486991f3883328504926060925b60405192835260208301526040820152a1600160655580f35b60405162461bcd60e51b8152602060048201526013602482015272115512081d1c985b9cd9995c8819985a5b1959606a1b6044820152606490fd5b5050509060405163a9059cbb60e01b815281600482015283602482015260208160448188875af18015610342576102fe575b50907ff24ef89f38eadc1bde50701ad6e4d6d11a2dc24f7cf834a486991f38833285049260609261024c565b6020929192813d60201161033a575b8161031a602093836120b7565b810103126103365751801515036103325790386102d2565b8380fd5b8480fd5b3d915061030d565b6040513d87823e3d90fd5b63d92e233d60e01b8552600485fd5b50346101b357806003193601126101b357610101546040516001600160a01b039091168152602090f35b50346101b357806003193601126101b35760fd546040516001600160a01b039091168152602090f35b50346101b357806003193601126101b35760fb546040516001600160a01b039091168152602090f35b50346101b357806003193601126101b357610100546040516001600160a01b039091168152602090f35b50346101b357806003193601126101b3576033546040516001600160a01b039091168152602090f35b50346101b357806003193601126101b357610444612423565b603380546001600160a01b0319811690915581906001600160a01b03167f8be0079c531659141344cd1fd0a4f28419497f9722a3daafe3b4186f6b6457e08280a380f35b5060403660031901126101b3576004356001600160401b038111610aab576104b4903690600401611fde565b6104bc612021565b6104c46123cd565b3415610a9c576001600160a01b03811615610a8d5761010154926104fc6127106104f561ffff8760a01c163461222d565b0434612256565b8560609560405161050d88826120b7565b60028152601f19880136602083013760fd546040516315ab88c960e31b8152926001600160a01b039091169190602084600481865afa801561034257610596948691610a5e575b5061055e83612282565b6001600160a01b03918216905216610575826122a5565b52604051948580948193637ff36ab560e01b83524290309060048501612339565b03925af1908115610a53578691610a31575b5080516000198101908111610a1d578151811015610a095760051b01602001519081156109fa576105e26105dd368684612134565b6124db565b60fe5460405163155db7c760e21b81526001600160a01b0383811660048301526024820186905286811660448301529297929091602091839160649183918d91165af180156109c0576109cb575b506040516350c952b760e01b81526001600160a01b038086166004830152909490602090869060249082908b165afa9485156109c0578895610987575b50610102549660001988146109735760018801610102556040519561069187612085565b338752602087019686885289898c6040840185815260408986019260018060a01b03891684526106d28c608089019660018060a01b038d1688523691612134565b60a08801908152608960c0890152600160e08901819052968252610103602052919020865181546001600160a01b03199081166001600160a01b039283161783559e51968201969096559151600283015591516003820180548e169186169190911790559151600483018054909c169316929092179099555180519098906001600160401b03811161095f5761076b600583015461204b565b601f811161091b575b50928a95928c999895928e989560209f508f9c601f821160011461086d5790807f58dd7d7974aee518c09a310abd5edd6ed3befc37789fd0ce334700b422a6486b9d9e600694938d92610862575b50508160011b916000199060031b1c19161760058201555b019061ffff60c08201511662ff000060e08454930151151560101b169162ffffff1916171790556040519788528c88015260018060a01b0316604087015260018060a01b03169085015260c060808501528160c085015260e084013760e085830101524260a082015260e0813395601f80199101168101030190a36001606555604051908152f35b0151905038806107c2565b600583018b528d8b20908b5b601f19841681106108e55750916001917f58dd7d7974aee518c09a310abd5edd6ed3befc37789fd0ce334700b422a6486b9e9f6006959483601f198116106108cc575b505050811b0160058201556107da565b015160001960f88460031b161c191690553880806108bc565b9396999c9e94979a509194979a9c506020600181928685015181550194019201928f9c9a9794918f9a97949e9c9996939e610879565b60208e60058501815220601f830160051c810160208410610958575b601f830160051c8201811061094d575050610774565b8f8155600101610937565b5080610937565b634e487b7160e01b8d52604160045260248dfd5b634e487b7160e01b89526011600452602489fd5b9094506020813d6020116109b8575b816109a3602093836120b7565b810103126109b35751933861066d565b600080fd5b3d9150610996565b6040513d8a823e3d90fd5b6020813d6020116109f2575b816109e4602093836120b7565b810103126109b35751610630565b3d91506109d7565b63081ceff360e41b8652600486fd5b634e487b7160e01b87526032600452602487fd5b634e487b7160e01b87526011600452602487fd5b610a4d91503d8088833e610a4581836120b7565b8101906122b5565b386105a8565b6040513d88823e3d90fd5b610a80915060203d602011610a86575b610a7881836120b7565b810190612263565b38610554565b503d610a6e565b63d92e233d60e01b8452600484fd5b631f2a200560e01b8452600484fd5b5080fd5b50346101b357806003193601126101b3577f00000000000000000000000000000000000000000000000000000000000000006001600160a01b03163003610b085760206040516000805160206126e08339815191528152f35b60405162461bcd60e51b815260206004820152603860248201527f555550535570677261646561626c653a206d757374206e6f742062652063616c60448201527f6c6564207468726f7567682064656c656761746563616c6c00000000000000006064820152608490fd5b5060403660031901126101b357610b8861200b565b6024356001600160401b038111610e285736602382011215610e2857610bb8903690602481600401359101612134565b610c107f00000000000000000000000000000000000000000000000000000000000000006001600160a01b0316610bf13082141561216b565b6000805160206126e0833981519152546001600160a01b0316146121cc565b610c18612423565b7f4910fdfa16fed3260ed0e7147f7cc6da11a60208b5b9406d12a635614ffd91435460ff1615610c4c575061015c906125a9565b6040516352d1902d60e01b81526001600160a01b03831690602081600481855afa859181610df4575b50610cd65760405162461bcd60e51b815260206004820152602e60248201527f45524331393637557067726164653a206e657720696d706c656d656e7461746960448201526d6f6e206973206e6f74205555505360901b6064820152608490fd5b6000805160206126e083398151915203610d9d57610cf3836125a9565b7fbc7cd75a20ee27fd9adebab32041f755214dbc6bffa90cc0225b39da2e5c2d3b8480a2805115801590610d95575b610d2b57505080f35b610d9191838060405193610d406060866120b7565b602785527f416464726573733a206c6f772d6c6576656c2064656c65676174652063616c6c6020860152660819985a5b195960ca1b6040860152602081519101845af4610d8b61239d565b91612642565b5080f35b506001610d22565b60405162461bcd60e51b815260206004820152602960248201527f45524331393637557067726164653a20756e737570706f727465642070726f786044820152681a58589b195555525160ba1b6064820152608490fd5b9091506020813d602011610e20575b81610e10602093836120b7565b810103126109b357519038610c75565b3d9150610e03565b8280fd5b50346101b357806003193601126101b35760ff546040516001600160a01b039091168152602090f35b50346101b35760203660031901126101b357610e6f61200b565b610ea87f00000000000000000000000000000000000000000000000000000000000000006001600160a01b0316610bf13082141561216b565b610eb0612423565b602090604051610ec083826120b7565b83815282810190601f1984013683377f4910fdfa16fed3260ed0e7147f7cc6da11a60208b5b9406d12a635614ffd91435460ff1615610f0557505061015c91506125a9565b6040516352d1902d60e01b81529192916001600160a01b038316908581600481855afa8791816110c5575b50610f915760405162461bcd60e51b815260048101879052602e60248201527f45524331393637557067726164653a206e657720696d706c656d656e7461746960448201526d6f6e206973206e6f74205555505360901b6064820152608490fd5b9394937fc9f76b5ec45e5cdef99837d7b6d2467235c1df8933c8ca56df5c35afa2c7d4440161106e57908591610fc6846125a9565b7fbc7cd75a20ee27fd9adebab32041f755214dbc6bffa90cc0225b39da2e5c2d3b8380a2805115801590611067575b611002575b505050505080f35b61105c9482917f416464726573733a206c6f772d6c6576656c2064656c65676174652063616c6c604051966110386060896120b7565b60278852870152660819985a5b195960ca1b60408701525190845af4610d8b61239d565b503880808381610ffa565b5081610ff5565b60405162461bcd60e51b815260048101859052602960248201527f45524331393637557067726164653a20756e737570706f727465642070726f786044820152681a58589b195555525160ba1b6064820152608490fd5b9091508681813d83116110ed575b6110dd81836120b7565b810103126109b357519038610f30565b503d6110d3565b50346101b35760e03660031901126101b35761110e61200b565b611116612021565b906044356001600160a01b03811690819003610332576064356001600160a01b03811690819003610336576084356001600160a01b038116908190036113f75760a4356001600160a01b03811692908390036113f35760c4356001600160a01b03811694908590036113ef5787549560ff8760081c1615968780986113e2575b80156113cb575b1561136f5760ff1981166001178a558761135e575b506001600160a01b0316968715801561134d575b8015611345575b801561133d575b8015611335575b801561132d575b8015611325575b6113165761120660ff8a5460081c166112018161247b565b61247b565b61120f33612560565b88549761123860ff8a60081c166112258161247b565b61122e8161247b565b600160655561247b565b6001600160601b0360a01b60fb54161760fb5560018060a01b03166001600160601b0360a01b60fc54161760fc556001600160601b0360a01b60fd54161760fd556001600160601b0360a01b60fe54161760fe556001600160601b0360a01b60ff54161760ff556001600160601b0360a01b61010054161761010055601960a21b9069ffffffffffffffffffff60b01b61010154161717610101556001610102556112e1575080f35b61ff00191681557f7f26b83ff96e1f2b6a682f133852f6798a09c465da95921460cefb3847402498602060405160018152a180f35b63d92e233d60e01b8952600489fd5b5085156111e9565b5084156111e2565b5083156111db565b5082156111d4565b5081156111cd565b506001600160a01b038116156111c6565b61ffff1916610101178955386111b2565b60405162461bcd60e51b815260206004820152602e60248201527f496e697469616c697a61626c653a20636f6e747261637420697320616c72656160448201526d191e481a5b9a5d1a585b1a5e995960921b6064820152608490fd5b50303b15801561119d5750600160ff82161461119d565b50600160ff821610611196565b8780fd5b8680fd5b8580fd5b50346101b35760203660031901126101b35760043581526101036020526040812060018060a01b038154169060018101549260028201549160018060a01b0360038201541660018060a01b0360048301541691600581019360405194818154916114648361204b565b808952926001811690811561151f57506001146114e2575b5050509160066114c894926114968760ff989603866120b7565b0154956040519889988952602089015260408801526060870152608086015261010060a08601526101008501906120d8565b9161ffff811660c085015260101c16151560e08301520390f35b9080935052602082205b818310611505575050840160200160068261149661147c565b6001816020929493945483858b01015201910191906114ec565b60ff19166020808b019190915293151560051b8901909301935060069250849150611496905061147c565b50346101b357806003193601126101b35760fc546040516001600160a01b039091168152602090f35b50346101b357806003193601126101b357602061010254604051908152f35b50346101b357806003193601126101b357602061ffff6101015460a01c16604051908152f35b50346101b357806003193601126101b35760fe546040516001600160a01b039091168152602090f35b50346101b35760203660031901126101b3576115fb61200b565b611603612423565b61160b6123cd565b6001600160a01b0316801561167e5747828183828215611675575b839283928392f11561166a577fc0819c13be868895eb93e40eaceb96de976442fa1d404e5c55f14bb65a8c489a9160409182519182526020820152a1600160655580f35b6040513d84823e3d90fd5b506108fc611626565b63d92e233d60e01b8252600482fd5b50346101b35760203660031901126101b3576116a761200b565b6116af612423565b6001600160a01b0316801561167e576001600160601b0360a01b60fc54161760fc557ffe891c6ab12cf73707f8deb6600c12ba382e4cc31eb2b0a2754cad13075ed2d18180a180f35b50346101b35760203660031901126101b357611712611fcd565b61171a612423565b6101f461ffff82161161176e57610101805461ffff60a01b191660a09290921b61ffff60a01b169190911790557ffe891c6ab12cf73707f8deb6600c12ba382e4cc31eb2b0a2754cad13075ed2d18180a180f35b6282b42960e81b8252600482fd5b50346101b35760803660031901126101b357611796611fcd565b906024356001600160401b038111610aab576117b6903690600401611fde565b50506044356001600160401b038116036101b3576064356001600160401b038111610aab576117e9903690600401611fde565b60fb549193916001600160a01b03163303611fbf576118066123cd565b476040519160a083018381106001600160401b03821117611fab5760405284835260208301908582526040840196606088526060850191878352876080870152810160a0828203126113ef5761185e60208301612037565b9060408301356001600160401b038111611fa757830181601f82011215611fa7579081602061188f93359101612134565b61189b60608401612037565b608084810135908901526001600160a01b039081168552908a52168352358452604051869060e0906118cc81612085565b8281528260208201528260408201528260608201528260808201528260a0820152606060c08201520152608084015194611923612710611918610101549861ffff8a60a01c169061222d565b046080870151612256565b60609660405161193389826120b7565b60028152601f19890136602083013760fd546040516315ab88c960e31b81526001600160a01b039091169290602081600481875afa908115611f30579161198893918d95938691610a5e575061055e83612282565b03925af19081156109c057906119a5918991611f8d575b506122a5565b51908115611f7e57886119bd611a0898999a516124db565b60fe54855160405163155db7c760e21b81526001600160a01b03938416600482018190526024820188905291841660448201529a90926020928c9291169082908f9082906064820190565b03925af1988915611f73578b99611f3b575b5084516040516350c952b760e01b81526001600160a01b039091166004820152602081602481855afa908115611f30578c91611ef9575b508851965195519251604051976001600160a01b03978816979195949091169361ffff91611a7e8a612085565b89528760208a01528660408a0152828d8a01528360808a01528460a08a01528560c08a0152168060e089015260405196611ab788612085565b8752602080880196875260408089019384528d89019485526080890195865260a0890196875260c0890192909252600160e0890181905289518f52610103909152908d20875181546001600160a01b03199081166001600160a01b0392831617835597519282019290925591516002830155915160038201805487169184169190911790559151600483018054909516911617909255518051906001600160401b038211611ee557611b6c600584015461204b565b601f8111611ea0575b50602090601f8311600114611e315760069392918b9183611e26575b50508160011b916000199060031b1c19161760058201555b019061ffff60c08201511662ff000060e08454930151151560101b169162ffffff19161717905580517fd6d26fa561e71f05f777fe543f03426a2821a7545c3696071adca4a7356b3c9260018060a01b036020840151169260408101518882015191611c5f60018060a01b036080830151169160018060a01b0360a08201511661ffff60e060c084015193015116936040519687968752602087015260408601528c85015260e0608085015260e08401906120d8565b9060a08301524260c08301520390a384611c97612710611c8e608086015161ffff6101015460a01c169061222d565b04845193612256565b9160405190602082015284604082015260408152611cb586826120b7565b60fb5460fc5460405190881b6bffffffffffffffffffffffff1916602082015260148152936001600160a01b039190911690611cf26034866120b7565b60405190611d016020836120b7565b848252823b156103365760405162c5803160e81b81526001600482015260c0602482015295869485938492611d7292611d5491611d429060c48701906120d8565b858103600319016044870152906120d8565b903060648501528860848501526003198483030160a48501526120d8565b03925af1801561034257611df0575b50907fd4ca7c320d1f569d9c56f234b6a535150ce6898a3c170893e825bf39945adcc291519260405191846020840152604083015260408252611dc481836120b7565b611ddf604051928392600184528060208501528301906120d8565b4260408301520390a2600160655580f35b93611e1e817fd4ca7c320d1f569d9c56f234b6a535150ce6898a3c170893e825bf39945adcc29493966120b7565b939091611d81565b015190503880611b91565b90600584018b52808b20918b5b601f1985168110611e88575091839160019360069695601f19811610611e6f575b505050811b016005820155611ba9565b015160001960f88460031b161c19169055388080611e5f565b91926020600181928685015181550194019201611e3e565b600584018b5260208b20601f840160051c810160208510611ede575b8c601f840160051c83018210611ed457505050611b75565b8155600101611ebc565b5080611ebc565b634e487b7160e01b8a52604160045260248afd5b90508b8160203d602011611f29575b602092611f1582846120b7565b5081010312611f25575138611a51565b8b80fd5b503d611f08565b6040513d8e823e3d90fd5b9098506020813d602011611f6b575b81611f57602093836120b7565b81010312611f6757519738611a1a565b8a80fd5b3d9150611f4a565b6040513d8d823e3d90fd5b63081ceff360e41b8852600488fd5b611fa191503d808b833e610a4581836120b7565b3861199f565b8980fd5b634e487b7160e01b86526041600452602486fd5b6282b42960e81b8352600483fd5b6004359061ffff821682036109b357565b9181601f840112156109b3578235916001600160401b0383116109b357602083818601950101116109b357565b600435906001600160a01b03821682036109b357565b602435906001600160a01b03821682036109b357565b35906001600160a01b03821682036109b357565b90600182811c9216801561207b575b602083101461206557565b634e487b7160e01b600052602260045260246000fd5b91607f169161205a565b61010081019081106001600160401b038211176120a157604052565b634e487b7160e01b600052604160045260246000fd5b90601f801991011681019081106001600160401b038211176120a157604052565b919082519283825260005b848110612104575050826000602080949584010152601f8019910116010190565b806020809284010151828286010152016120e3565b6001600160401b0381116120a157601f01601f191660200190565b92919261214082612119565b9161214e60405193846120b7565b8294818452818301116109b3578281602093846000960137010152565b1561217257565b60405162461bcd60e51b815260206004820152602c60248201527f46756e6374696f6e206d7573742062652063616c6c6564207468726f7567682060448201526b19195b1959d85d1958d85b1b60a21b6064820152608490fd5b156121d357565b60405162461bcd60e51b815260206004820152602c60248201527f46756e6374696f6e206d7573742062652063616c6c6564207468726f7567682060448201526b6163746976652070726f787960a01b6064820152608490fd5b8181029291811591840414171561224057565b634e487b7160e01b600052601160045260246000fd5b9190820391821161224057565b908160209103126109b357516001600160a01b03811681036109b35790565b80511561228f5760200190565b634e487b7160e01b600052603260045260246000fd5b80516001101561228f5760400190565b6020818303126109b3578051906001600160401b0382116109b357019080601f830112156109b3578151916001600160401b0383116120a1578260051b90602082019361230560405195866120b7565b84526020808501928201019283116109b357602001905b8282106123295750505090565b815181526020918201910161231c565b90939291936080820160008352608060208401528151809152602060a0840192019060005b81811061237e575050506001600160a01b03909416604082015260600152565b82516001600160a01b031684526020938401939092019160010161235e565b3d156123c8573d906123ae82612119565b916123bc60405193846120b7565b82523d6000602084013e565b606090565b6002606554146123de576002606555565b60405162461bcd60e51b815260206004820152601f60248201527f5265656e7472616e637947756172643a207265656e7472616e742063616c6c006044820152606490fd5b6033546001600160a01b0316330361243757565b606460405162461bcd60e51b815260206004820152602060248201527f4f776e61626c653a2063616c6c6572206973206e6f7420746865206f776e65726044820152fd5b1561248257565b60405162461bcd60e51b815260206004820152602b60248201527f496e697469616c697a61626c653a20636f6e7472616374206973206e6f74206960448201526a6e697469616c697a696e6760a81b6064820152608490fd5b602081519101207f28f7285c4da5c88f6beb8419ed0cddcd789bdcd06a248cc5ca727fa641e3f37c8114612550577f251977404605d5a90af45602163d330145969f3c4154feb2419ada86868703ef1461254057633bf9b3a960e01b60005260046000fd5b610100546001600160a01b031690565b5060ff546001600160a01b031690565b603380546001600160a01b039283166001600160a01b0319821681179092559091167f8be0079c531659141344cd1fd0a4f28419497f9722a3daafe3b4186f6b6457e0600080a3565b803b156125e75760018060a01b03166001600160601b0360a01b6000805160206126e08339815191525416176000805160206126e083398151915255565b60405162461bcd60e51b815260206004820152602d60248201527f455243313936373a206e657720696d706c656d656e746174696f6e206973206e60448201526c1bdd08184818dbdb9d1c9858dd609a1b6064820152608490fd5b919290156126a45750815115612656575090565b3b1561265f5790565b60405162461bcd60e51b815260206004820152601d60248201527f416464726573733a2063616c6c20746f206e6f6e2d636f6e74726163740000006044820152606490fd5b8251909150156126b75750805190602001fd5b60405162461bcd60e51b8152602060048201529081906126db9060248301906120d8565b0390fdfe360894a13ba1a3210667c828492db98dca3e2076cc3735a920a3ca505d382bbca26469706673582212206f0b5c6cea451a2998b05ce51b88d0d3c6bfaa333e32e497d4b010b5b1ed608d64736f6c634300081c0033","opcodes":"PUSH1 0xA0 DUP1 PUSH1 0x40 MSTORE CALLVALUE PUSH1 0x30 JUMPI ADDRESS PUSH1 0x80 MSTORE PUSH2 0x2735 SWAP1 DUP2 PUSH2 0x36 DUP3 CODECOPY PUSH1 0x80 MLOAD DUP2 DUP2 DUP2 PUSH2 0xAC2 ADD MSTORE DUP2 DUP2 PUSH2 0xBBD ADD MSTORE PUSH2 0xE74 ADD MSTORE RETURN JUMPDEST PUSH1 0x0 DUP1 REVERT INVALID PUSH1 0x80 PUSH1 0x40 MSTORE PUSH1 0x4 CALLDATASIZE LT ISZERO PUSH2 0x1B JUMPI JUMPDEST CALLDATASIZE ISZERO PUSH2 0x19 JUMPI PUSH1 0x0 DUP1 REVERT JUMPDEST STOP JUMPDEST PUSH1 0x0 DUP1 CALLDATALOAD PUSH1 0xE0 SHR DUP1 PUSH3 0x1D3567 EQ PUSH2 0x177C JUMPI DUP1 PUSH4 0x23B1FC9 EQ PUSH2 0x16F8 JUMPI DUP1 PUSH4 0x14C33C05 EQ PUSH2 0x168D JUMPI DUP1 PUSH4 0x164E68DE EQ PUSH2 0x15E1 JUMPI DUP1 PUSH4 0x245A7BFC EQ PUSH2 0x15B8 JUMPI DUP1 PUSH4 0x24A9D853 EQ PUSH2 0x1592 JUMPI DUP1 PUSH4 0x2B40213C EQ PUSH2 0x1573 JUMPI DUP1 PUSH4 0x2B4435E8 EQ PUSH2 0x154A JUMPI DUP1 PUSH4 0x34461067 EQ PUSH2 0x13FB JUMPI DUP1 PUSH4 0x35876476 EQ PUSH2 0x10F4 JUMPI DUP1 PUSH4 0x3659CFE6 EQ PUSH2 0xE55 JUMPI DUP1 PUSH4 0x3FEB8F75 EQ PUSH2 0xE2C JUMPI DUP1 PUSH4 0x4F1EF286 EQ PUSH2 0xB73 JUMPI DUP1 PUSH4 0x52D1902D EQ PUSH2 0xAAF JUMPI DUP1 PUSH4 0x5B2458AD EQ PUSH2 0x488 JUMPI DUP1 PUSH4 0x715018A6 EQ PUSH2 0x42B JUMPI DUP1 PUSH4 0x8DA5CB5B EQ PUSH2 0x402 JUMPI DUP1 PUSH4 0x8FF30FFC EQ PUSH2 0x3D8 JUMPI DUP1 PUSH4 0xB353AAA7 EQ PUSH2 0x3AF JUMPI DUP1 PUSH4 0xC31C9C07 EQ PUSH2 0x386 JUMPI DUP1 PUSH4 0xE3ED12A0 EQ PUSH2 0x35C JUMPI DUP1 PUSH4 0xE63EA408 EQ PUSH2 0x1B6 JUMPI PUSH4 0xF2FDE38B EQ PUSH2 0x123 JUMPI POP PUSH2 0xE JUMP JUMPDEST CALLVALUE PUSH2 0x1B3 JUMPI PUSH1 0x20 CALLDATASIZE PUSH1 0x3 NOT ADD SLT PUSH2 0x1B3 JUMPI PUSH2 0x13C PUSH2 0x200B JUMP JUMPDEST PUSH2 0x144 PUSH2 0x2423 JUMP JUMPDEST PUSH1 0x1 PUSH1 0x1 PUSH1 0xA0 SHL SUB DUP2 AND ISZERO PUSH2 0x15F JUMPI PUSH2 0x15C SWAP1 PUSH2 0x2560 JUMP JUMPDEST DUP1 RETURN JUMPDEST PUSH1 0x40 MLOAD PUSH3 0x461BCD PUSH1 0xE5 SHL DUP2 MSTORE PUSH1 0x20 PUSH1 0x4 DUP3 ADD MSTORE PUSH1 0x26 PUSH1 0x24 DUP3 ADD MSTORE PUSH32 0x4F776E61626C653A206E6577206F776E657220697320746865207A65726F2061 PUSH1 0x44 DUP3 ADD MSTORE PUSH6 0x646472657373 PUSH1 0xD0 SHL PUSH1 0x64 DUP3 ADD MSTORE PUSH1 0x84 SWAP1 REVERT JUMPDEST DUP1 REVERT JUMPDEST POP CALLVALUE PUSH2 0x1B3 JUMPI PUSH1 0x60 CALLDATASIZE PUSH1 0x3 NOT ADD SLT PUSH2 0x1B3 JUMPI PUSH2 0x1D0 PUSH2 0x200B JUMP JUMPDEST PUSH2 0x1D8 PUSH2 0x2021 JUMP JUMPDEST SWAP1 PUSH1 0x44 CALLDATALOAD SWAP2 PUSH2 0x1E5 PUSH2 0x2423 JUMP JUMPDEST PUSH2 0x1ED PUSH2 0x23CD JUMP JUMPDEST PUSH1 0x1 PUSH1 0x1 PUSH1 0xA0 SHL SUB DUP2 AND SWAP2 DUP3 ISZERO PUSH2 0x34D JUMPI PUSH1 0x1 PUSH1 0x1 PUSH1 0xA0 SHL SUB AND SWAP1 DUP5 SWAP1 DUP5 SWAP1 DUP4 PUSH2 0x2A0 JUMPI DUP3 DUP1 SWAP3 DUP2 SWAP3 GAS CALL PUSH2 0x220 PUSH2 0x239D JUMP JUMPDEST POP ISZERO PUSH2 0x265 JUMPI PUSH32 0xF24EF89F38EADC1BDE50701AD6E4D6D11A2DC24F7CF834A486991F3883328504 SWAP3 PUSH1 0x60 SWAP3 JUMPDEST PUSH1 0x40 MLOAD SWAP3 DUP4 MSTORE PUSH1 0x20 DUP4 ADD MSTORE PUSH1 0x40 DUP3 ADD MSTORE LOG1 PUSH1 0x1 PUSH1 0x65 SSTORE DUP1 RETURN JUMPDEST PUSH1 0x40 MLOAD PUSH3 0x461BCD PUSH1 0xE5 SHL DUP2 MSTORE PUSH1 0x20 PUSH1 0x4 DUP3 ADD MSTORE PUSH1 0x13 PUSH1 0x24 DUP3 ADD MSTORE PUSH19 0x115512081D1C985B9CD9995C8819985A5B1959 PUSH1 0x6A SHL PUSH1 0x44 DUP3 ADD MSTORE PUSH1 0x64 SWAP1 REVERT JUMPDEST POP POP POP SWAP1 PUSH1 0x40 MLOAD PUSH4 0xA9059CBB PUSH1 0xE0 SHL DUP2 MSTORE DUP2 PUSH1 0x4 DUP3 ADD MSTORE DUP4 PUSH1 0x24 DUP3 ADD MSTORE PUSH1 0x20 DUP2 PUSH1 0x44 DUP2 DUP9 DUP8 GAS CALL DUP1 ISZERO PUSH2 0x342 JUMPI PUSH2 0x2FE JUMPI JUMPDEST POP SWAP1 PUSH32 0xF24EF89F38EADC1BDE50701AD6E4D6D11A2DC24F7CF834A486991F3883328504 SWAP3 PUSH1 0x60 SWAP3 PUSH2 0x24C JUMP JUMPDEST PUSH1 0x20 SWAP3 SWAP2 SWAP3 DUP2 RETURNDATASIZE PUSH1 0x20 GT PUSH2 0x33A JUMPI JUMPDEST DUP2 PUSH2 0x31A PUSH1 0x20 SWAP4 DUP4 PUSH2 0x20B7 JUMP JUMPDEST DUP2 ADD SUB SLT PUSH2 0x336 JUMPI MLOAD DUP1 ISZERO ISZERO SUB PUSH2 0x332 JUMPI SWAP1 CODESIZE PUSH2 0x2D2 JUMP JUMPDEST DUP4 DUP1 REVERT JUMPDEST DUP5 DUP1 REVERT JUMPDEST RETURNDATASIZE SWAP2 POP PUSH2 0x30D JUMP JUMPDEST PUSH1 0x40 MLOAD RETURNDATASIZE DUP8 DUP3 RETURNDATACOPY RETURNDATASIZE SWAP1 REVERT JUMPDEST PUSH4 0xD92E233D PUSH1 0xE0 SHL DUP6 MSTORE PUSH1 0x4 DUP6 REVERT JUMPDEST POP CALLVALUE PUSH2 0x1B3 JUMPI DUP1 PUSH1 0x3 NOT CALLDATASIZE ADD SLT PUSH2 0x1B3 JUMPI PUSH2 0x101 SLOAD PUSH1 0x40 MLOAD PUSH1 0x1 PUSH1 0x1 PUSH1 0xA0 SHL SUB SWAP1 SWAP2 AND DUP2 MSTORE PUSH1 0x20 SWAP1 RETURN JUMPDEST POP CALLVALUE PUSH2 0x1B3 JUMPI DUP1 PUSH1 0x3 NOT CALLDATASIZE ADD SLT PUSH2 0x1B3 JUMPI PUSH1 0xFD SLOAD PUSH1 0x40 MLOAD PUSH1 0x1 PUSH1 0x1 PUSH1 0xA0 SHL SUB SWAP1 SWAP2 AND DUP2 MSTORE PUSH1 0x20 SWAP1 RETURN JUMPDEST POP CALLVALUE PUSH2 0x1B3 JUMPI DUP1 PUSH1 0x3 NOT CALLDATASIZE ADD SLT PUSH2 0x1B3 JUMPI PUSH1 0xFB SLOAD PUSH1 0x40 MLOAD PUSH1 0x1 PUSH1 0x1 PUSH1 0xA0 SHL SUB SWAP1 SWAP2 AND DUP2 MSTORE PUSH1 0x20 SWAP1 RETURN JUMPDEST POP CALLVALUE PUSH2 0x1B3 JUMPI DUP1 PUSH1 0x3 NOT CALLDATASIZE ADD SLT PUSH2 0x1B3 JUMPI PUSH2 0x100 SLOAD PUSH1 0x40 MLOAD PUSH1 0x1 PUSH1 0x1 PUSH1 0xA0 SHL SUB SWAP1 SWAP2 AND DUP2 MSTORE PUSH1 0x20 SWAP1 RETURN JUMPDEST POP CALLVALUE PUSH2 0x1B3 JUMPI DUP1 PUSH1 0x3 NOT CALLDATASIZE ADD SLT PUSH2 0x1B3 JUMPI PUSH1 0x33 SLOAD PUSH1 0x40 MLOAD PUSH1 0x1 PUSH1 0x1 PUSH1 0xA0 SHL SUB SWAP1 SWAP2 AND DUP2 MSTORE PUSH1 0x20 SWAP1 RETURN JUMPDEST POP CALLVALUE PUSH2 0x1B3 JUMPI DUP1 PUSH1 0x3 NOT CALLDATASIZE ADD SLT PUSH2 0x1B3 JUMPI PUSH2 0x444 PUSH2 0x2423 JUMP JUMPDEST PUSH1 0x33 DUP1 SLOAD PUSH1 0x1 PUSH1 0x1 PUSH1 0xA0 SHL SUB NOT DUP2 AND SWAP1 SWAP2 SSTORE DUP2 SWAP1 PUSH1 0x1 PUSH1 0x1 PUSH1 0xA0 SHL SUB AND PUSH32 0x8BE0079C531659141344CD1FD0A4F28419497F9722A3DAAFE3B4186F6B6457E0 DUP3 DUP1 LOG3 DUP1 RETURN JUMPDEST POP PUSH1 0x40 CALLDATASIZE PUSH1 0x3 NOT ADD SLT PUSH2 0x1B3 JUMPI PUSH1 0x4 CALLDATALOAD PUSH1 0x1 PUSH1 0x1 PUSH1 0x40 SHL SUB DUP2 GT PUSH2 0xAAB JUMPI PUSH2 0x4B4 SWAP1 CALLDATASIZE SWAP1 PUSH1 0x4 ADD PUSH2 0x1FDE JUMP JUMPDEST PUSH2 0x4BC PUSH2 0x2021 JUMP JUMPDEST PUSH2 0x4C4 PUSH2 0x23CD JUMP JUMPDEST CALLVALUE ISZERO PUSH2 0xA9C JUMPI PUSH1 0x1 PUSH1 0x1 PUSH1 0xA0 SHL SUB DUP2 AND ISZERO PUSH2 0xA8D JUMPI PUSH2 0x101 SLOAD SWAP3 PUSH2 0x4FC PUSH2 0x2710 PUSH2 0x4F5 PUSH2 0xFFFF DUP8 PUSH1 0xA0 SHR AND CALLVALUE PUSH2 0x222D JUMP JUMPDEST DIV CALLVALUE PUSH2 0x2256 JUMP JUMPDEST DUP6 PUSH1 0x60 SWAP6 PUSH1 0x40 MLOAD PUSH2 0x50D DUP9 DUP3 PUSH2 0x20B7 JUMP JUMPDEST PUSH1 0x2 DUP2 MSTORE PUSH1 0x1F NOT DUP9 ADD CALLDATASIZE PUSH1 0x20 DUP4 ADD CALLDATACOPY PUSH1 0xFD SLOAD PUSH1 0x40 MLOAD PUSH4 0x15AB88C9 PUSH1 0xE3 SHL DUP2 MSTORE SWAP3 PUSH1 0x1 PUSH1 0x1 PUSH1 0xA0 SHL SUB SWAP1 SWAP2 AND SWAP2 SWAP1 PUSH1 0x20 DUP5 PUSH1 0x4 DUP2 DUP7 GAS STATICCALL DUP1 ISZERO PUSH2 0x342 JUMPI PUSH2 0x596 SWAP5 DUP7 SWAP2 PUSH2 0xA5E JUMPI JUMPDEST POP PUSH2 0x55E DUP4 PUSH2 0x2282 JUMP JUMPDEST PUSH1 0x1 PUSH1 0x1 PUSH1 0xA0 SHL SUB SWAP2 DUP3 AND SWAP1 MSTORE AND PUSH2 0x575 DUP3 PUSH2 0x22A5 JUMP JUMPDEST MSTORE PUSH1 0x40 MLOAD SWAP5 DUP6 DUP1 SWAP5 DUP2 SWAP4 PUSH4 0x7FF36AB5 PUSH1 0xE0 SHL DUP4 MSTORE TIMESTAMP SWAP1 ADDRESS SWAP1 PUSH1 0x4 DUP6 ADD PUSH2 0x2339 JUMP JUMPDEST SUB SWAP3 GAS CALL SWAP1 DUP2 ISZERO PUSH2 0xA53 JUMPI DUP7 SWAP2 PUSH2 0xA31 JUMPI JUMPDEST POP DUP1 MLOAD PUSH1 0x0 NOT DUP2 ADD SWAP1 DUP2 GT PUSH2 0xA1D JUMPI DUP2 MLOAD DUP2 LT ISZERO PUSH2 0xA09 JUMPI PUSH1 0x5 SHL ADD PUSH1 0x20 ADD MLOAD SWAP1 DUP2 ISZERO PUSH2 0x9FA JUMPI PUSH2 0x5E2 PUSH2 0x5DD CALLDATASIZE DUP7 DUP5 PUSH2 0x2134 JUMP JUMPDEST PUSH2 0x24DB JUMP JUMPDEST PUSH1 0xFE SLOAD PUSH1 0x40 MLOAD PUSH4 0x155DB7C7 PUSH1 0xE2 SHL DUP2 MSTORE PUSH1 0x1 PUSH1 0x1 PUSH1 0xA0 SHL SUB DUP4 DUP2 AND PUSH1 0x4 DUP4 ADD MSTORE PUSH1 0x24 DUP3 ADD DUP7 SWAP1 MSTORE DUP7 DUP2 AND PUSH1 0x44 DUP4 ADD MSTORE SWAP3 SWAP8 SWAP3 SWAP1 SWAP2 PUSH1 0x20 SWAP2 DUP4 SWAP2 PUSH1 0x64 SWAP2 DUP4 SWAP2 DUP14 SWAP2 AND GAS CALL DUP1 ISZERO PUSH2 0x9C0 JUMPI PUSH2 0x9CB JUMPI JUMPDEST POP PUSH1 0x40 MLOAD PUSH4 0x50C952B7 PUSH1 0xE0 SHL DUP2 MSTORE PUSH1 0x1 PUSH1 0x1 PUSH1 0xA0 SHL SUB DUP1 DUP7 AND PUSH1 0x4 DUP4 ADD MSTORE SWAP1 SWAP5 SWAP1 PUSH1 0x20 SWAP1 DUP7 SWAP1 PUSH1 0x24 SWAP1 DUP3 SWAP1 DUP12 AND GAS STATICCALL SWAP5 DUP6 ISZERO PUSH2 0x9C0 JUMPI DUP9 SWAP6 PUSH2 0x987 JUMPI JUMPDEST POP PUSH2 0x102 SLOAD SWAP7 PUSH1 0x0 NOT DUP9 EQ PUSH2 0x973 JUMPI PUSH1 0x1 DUP9 ADD PUSH2 0x102 SSTORE PUSH1 0x40 MLOAD SWAP6 PUSH2 0x691 DUP8 PUSH2 0x2085 JUMP JUMPDEST CALLER DUP8 MSTORE PUSH1 0x20 DUP8 ADD SWAP7 DUP7 DUP9 MSTORE DUP10 DUP10 DUP13 PUSH1 0x40 DUP5 ADD DUP6 DUP2 MSTORE PUSH1 0x40 DUP10 DUP7 ADD SWAP3 PUSH1 0x1 DUP1 PUSH1 0xA0 SHL SUB DUP10 AND DUP5 MSTORE PUSH2 0x6D2 DUP13 PUSH1 0x80 DUP10 ADD SWAP7 PUSH1 0x1 DUP1 PUSH1 0xA0 SHL SUB DUP14 AND DUP9 MSTORE CALLDATASIZE SWAP2 PUSH2 0x2134 JUMP JUMPDEST PUSH1 0xA0 DUP9 ADD SWAP1 DUP2 MSTORE PUSH1 0x89 PUSH1 0xC0 DUP10 ADD MSTORE PUSH1 0x1 PUSH1 0xE0 DUP10 ADD DUP2 SWAP1 MSTORE SWAP7 DUP3 MSTORE PUSH2 0x103 PUSH1 0x20 MSTORE SWAP2 SWAP1 KECCAK256 DUP7 MLOAD DUP2 SLOAD PUSH1 0x1 PUSH1 0x1 PUSH1 0xA0 SHL SUB NOT SWAP1 DUP2 AND PUSH1 0x1 PUSH1 0x1 PUSH1 0xA0 SHL SUB SWAP3 DUP4 AND OR DUP4 SSTORE SWAP15 MLOAD SWAP7 DUP3 ADD SWAP7 SWAP1 SWAP7 SSTORE SWAP2 MLOAD PUSH1 0x2 DUP4 ADD SSTORE SWAP2 MLOAD PUSH1 0x3 DUP3 ADD DUP1 SLOAD DUP15 AND SWAP2 DUP7 AND SWAP2 SWAP1 SWAP2 OR SWAP1 SSTORE SWAP2 MLOAD PUSH1 0x4 DUP4 ADD DUP1 SLOAD SWAP1 SWAP13 AND SWAP4 AND SWAP3 SWAP1 SWAP3 OR SWAP1 SWAP10 SSTORE MLOAD DUP1 MLOAD SWAP1 SWAP9 SWAP1 PUSH1 0x1 PUSH1 0x1 PUSH1 0x40 SHL SUB DUP2 GT PUSH2 0x95F JUMPI PUSH2 0x76B PUSH1 0x5 DUP4 ADD SLOAD PUSH2 0x204B JUMP JUMPDEST PUSH1 0x1F DUP2 GT PUSH2 0x91B JUMPI JUMPDEST POP SWAP3 DUP11 SWAP6 SWAP3 DUP13 SWAP10 SWAP9 SWAP6 SWAP3 DUP15 SWAP9 SWAP6 PUSH1 0x20 SWAP16 POP DUP16 SWAP13 PUSH1 0x1F DUP3 GT PUSH1 0x1 EQ PUSH2 0x86D JUMPI SWAP1 DUP1 PUSH32 0x58DD7D7974AEE518C09A310ABD5EDD6ED3BEFC37789FD0CE334700B422A6486B SWAP14 SWAP15 PUSH1 0x6 SWAP5 SWAP4 DUP14 SWAP3 PUSH2 0x862 JUMPI JUMPDEST POP POP DUP2 PUSH1 0x1 SHL SWAP2 PUSH1 0x0 NOT SWAP1 PUSH1 0x3 SHL SHR NOT AND OR PUSH1 0x5 DUP3 ADD SSTORE JUMPDEST ADD SWAP1 PUSH2 0xFFFF PUSH1 0xC0 DUP3 ADD MLOAD AND PUSH3 0xFF0000 PUSH1 0xE0 DUP5 SLOAD SWAP4 ADD MLOAD ISZERO ISZERO PUSH1 0x10 SHL AND SWAP2 PUSH3 0xFFFFFF NOT AND OR OR SWAP1 SSTORE PUSH1 0x40 MLOAD SWAP8 DUP9 MSTORE DUP13 DUP9 ADD MSTORE PUSH1 0x1 DUP1 PUSH1 0xA0 SHL SUB AND PUSH1 0x40 DUP8 ADD MSTORE PUSH1 0x1 DUP1 PUSH1 0xA0 SHL SUB AND SWAP1 DUP6 ADD MSTORE PUSH1 0xC0 PUSH1 0x80 DUP6 ADD MSTORE DUP2 PUSH1 0xC0 DUP6 ADD MSTORE PUSH1 0xE0 DUP5 ADD CALLDATACOPY PUSH1 0xE0 DUP6 DUP4 ADD ADD MSTORE TIMESTAMP PUSH1 0xA0 DUP3 ADD MSTORE PUSH1 0xE0 DUP2 CALLER SWAP6 PUSH1 0x1F DUP1 NOT SWAP2 ADD AND DUP2 ADD SUB ADD SWAP1 LOG3 PUSH1 0x1 PUSH1 0x65 SSTORE PUSH1 0x40 MLOAD SWAP1 DUP2 MSTORE RETURN JUMPDEST ADD MLOAD SWAP1 POP CODESIZE DUP1 PUSH2 0x7C2 JUMP JUMPDEST PUSH1 0x5 DUP4 ADD DUP12 MSTORE DUP14 DUP12 KECCAK256 SWAP1 DUP12 JUMPDEST PUSH1 0x1F NOT DUP5 AND DUP2 LT PUSH2 0x8E5 JUMPI POP SWAP2 PUSH1 0x1 SWAP2 PUSH32 0x58DD7D7974AEE518C09A310ABD5EDD6ED3BEFC37789FD0CE334700B422A6486B SWAP15 SWAP16 PUSH1 0x6 SWAP6 SWAP5 DUP4 PUSH1 0x1F NOT DUP2 AND LT PUSH2 0x8CC JUMPI JUMPDEST POP POP POP DUP2 SHL ADD PUSH1 0x5 DUP3 ADD SSTORE PUSH2 0x7DA JUMP JUMPDEST ADD MLOAD PUSH1 0x0 NOT PUSH1 0xF8 DUP5 PUSH1 0x3 SHL AND SHR NOT AND SWAP1 SSTORE CODESIZE DUP1 DUP1 PUSH2 0x8BC JUMP JUMPDEST SWAP4 SWAP7 SWAP10 SWAP13 SWAP15 SWAP5 SWAP8 SWAP11 POP SWAP2 SWAP5 SWAP8 SWAP11 SWAP13 POP PUSH1 0x20 PUSH1 0x1 DUP2 SWAP3 DUP7 DUP6 ADD MLOAD DUP2 SSTORE ADD SWAP5 ADD SWAP3 ADD SWAP3 DUP16 SWAP13 SWAP11 SWAP8 SWAP5 SWAP2 DUP16 SWAP11 SWAP8 SWAP5 SWAP15 SWAP13 SWAP10 SWAP7 SWAP4 SWAP15 PUSH2 0x879 JUMP JUMPDEST PUSH1 0x20 DUP15 PUSH1 0x5 DUP6 ADD DUP2 MSTORE KECCAK256 PUSH1 0x1F DUP4 ADD PUSH1 0x5 SHR DUP2 ADD PUSH1 0x20 DUP5 LT PUSH2 0x958 JUMPI JUMPDEST PUSH1 0x1F DUP4 ADD PUSH1 0x5 SHR DUP3 ADD DUP2 LT PUSH2 0x94D JUMPI POP POP PUSH2 0x774 JUMP JUMPDEST DUP16 DUP2 SSTORE PUSH1 0x1 ADD PUSH2 0x937 JUMP JUMPDEST POP DUP1 PUSH2 0x937 JUMP JUMPDEST PUSH4 0x4E487B71 PUSH1 0xE0 SHL DUP14 MSTORE PUSH1 0x41 PUSH1 0x4 MSTORE PUSH1 0x24 DUP14 REVERT JUMPDEST PUSH4 0x4E487B71 PUSH1 0xE0 SHL DUP10 MSTORE PUSH1 0x11 PUSH1 0x4 MSTORE PUSH1 0x24 DUP10 REVERT JUMPDEST SWAP1 SWAP5 POP PUSH1 0x20 DUP2 RETURNDATASIZE PUSH1 0x20 GT PUSH2 0x9B8 JUMPI JUMPDEST DUP2 PUSH2 0x9A3 PUSH1 0x20 SWAP4 DUP4 PUSH2 0x20B7 JUMP JUMPDEST DUP2 ADD SUB SLT PUSH2 0x9B3 JUMPI MLOAD SWAP4 CODESIZE PUSH2 0x66D JUMP JUMPDEST PUSH1 0x0 DUP1 REVERT JUMPDEST RETURNDATASIZE SWAP2 POP PUSH2 0x996 JUMP JUMPDEST PUSH1 0x40 MLOAD RETURNDATASIZE DUP11 DUP3 RETURNDATACOPY RETURNDATASIZE SWAP1 REVERT JUMPDEST PUSH1 0x20 DUP2 RETURNDATASIZE PUSH1 0x20 GT PUSH2 0x9F2 JUMPI JUMPDEST DUP2 PUSH2 0x9E4 PUSH1 0x20 SWAP4 DUP4 PUSH2 0x20B7 JUMP JUMPDEST DUP2 ADD SUB SLT PUSH2 0x9B3 JUMPI MLOAD PUSH2 0x630 JUMP JUMPDEST RETURNDATASIZE SWAP2 POP PUSH2 0x9D7 JUMP JUMPDEST PUSH4 0x81CEFF3 PUSH1 0xE4 SHL DUP7 MSTORE PUSH1 0x4 DUP7 REVERT JUMPDEST PUSH4 0x4E487B71 PUSH1 0xE0 SHL DUP8 MSTORE PUSH1 0x32 PUSH1 0x4 MSTORE PUSH1 0x24 DUP8 REVERT JUMPDEST PUSH4 0x4E487B71 PUSH1 0xE0 SHL DUP8 MSTORE PUSH1 0x11 PUSH1 0x4 MSTORE PUSH1 0x24 DUP8 REVERT JUMPDEST PUSH2 0xA4D SWAP2 POP RETURNDATASIZE DUP1 DUP9 DUP4 RETURNDATACOPY PUSH2 0xA45 DUP2 DUP4 PUSH2 0x20B7 JUMP JUMPDEST DUP2 ADD SWAP1 PUSH2 0x22B5 JUMP JUMPDEST CODESIZE PUSH2 0x5A8 JUMP JUMPDEST PUSH1 0x40 MLOAD RETURNDATASIZE DUP9 DUP3 RETURNDATACOPY RETURNDATASIZE SWAP1 REVERT JUMPDEST PUSH2 0xA80 SWAP2 POP PUSH1 0x20 RETURNDATASIZE PUSH1 0x20 GT PUSH2 0xA86 JUMPI JUMPDEST PUSH2 0xA78 DUP2 DUP4 PUSH2 0x20B7 JUMP JUMPDEST DUP2 ADD SWAP1 PUSH2 0x2263 JUMP JUMPDEST CODESIZE PUSH2 0x554 JUMP JUMPDEST POP RETURNDATASIZE PUSH2 0xA6E JUMP JUMPDEST PUSH4 0xD92E233D PUSH1 0xE0 SHL DUP5 MSTORE PUSH1 0x4 DUP5 REVERT JUMPDEST PUSH4 0x1F2A2005 PUSH1 0xE0 SHL DUP5 MSTORE PUSH1 0x4 DUP5 REVERT JUMPDEST POP DUP1 REVERT JUMPDEST POP CALLVALUE PUSH2 0x1B3 JUMPI DUP1 PUSH1 0x3 NOT CALLDATASIZE ADD SLT PUSH2 0x1B3 JUMPI PUSH32 0x0 PUSH1 0x1 PUSH1 0x1 PUSH1 0xA0 SHL SUB AND ADDRESS SUB PUSH2 0xB08 JUMPI PUSH1 0x20 PUSH1 0x40 MLOAD PUSH1 0x0 DUP1 MLOAD PUSH1 0x20 PUSH2 0x26E0 DUP4 CODECOPY DUP2 MLOAD SWAP2 MSTORE DUP2 MSTORE RETURN JUMPDEST PUSH1 0x40 MLOAD PUSH3 0x461BCD PUSH1 0xE5 SHL DUP2 MSTORE PUSH1 0x20 PUSH1 0x4 DUP3 ADD MSTORE PUSH1 0x38 PUSH1 0x24 DUP3 ADD MSTORE PUSH32 0x555550535570677261646561626C653A206D757374206E6F742062652063616C PUSH1 0x44 DUP3 ADD MSTORE PUSH32 0x6C6564207468726F7567682064656C656761746563616C6C0000000000000000 PUSH1 0x64 DUP3 ADD MSTORE PUSH1 0x84 SWAP1 REVERT JUMPDEST POP PUSH1 0x40 CALLDATASIZE PUSH1 0x3 NOT ADD SLT PUSH2 0x1B3 JUMPI PUSH2 0xB88 PUSH2 0x200B JUMP JUMPDEST PUSH1 0x24 CALLDATALOAD PUSH1 0x1 PUSH1 0x1 PUSH1 0x40 SHL SUB DUP2 GT PUSH2 0xE28 JUMPI CALLDATASIZE PUSH1 0x23 DUP3 ADD SLT ISZERO PUSH2 0xE28 JUMPI PUSH2 0xBB8 SWAP1 CALLDATASIZE SWAP1 PUSH1 0x24 DUP2 PUSH1 0x4 ADD CALLDATALOAD SWAP2 ADD PUSH2 0x2134 JUMP JUMPDEST PUSH2 0xC10 PUSH32 0x0 PUSH1 0x1 PUSH1 0x1 PUSH1 0xA0 SHL SUB AND PUSH2 0xBF1 ADDRESS DUP3 EQ ISZERO PUSH2 0x216B JUMP JUMPDEST PUSH1 0x0 DUP1 MLOAD PUSH1 0x20 PUSH2 0x26E0 DUP4 CODECOPY DUP2 MLOAD SWAP2 MSTORE SLOAD PUSH1 0x1 PUSH1 0x1 PUSH1 0xA0 SHL SUB AND EQ PUSH2 0x21CC JUMP JUMPDEST PUSH2 0xC18 PUSH2 0x2423 JUMP JUMPDEST PUSH32 0x4910FDFA16FED3260ED0E7147F7CC6DA11A60208B5B9406D12A635614FFD9143 SLOAD PUSH1 0xFF AND ISZERO PUSH2 0xC4C JUMPI POP PUSH2 0x15C SWAP1 PUSH2 0x25A9 JUMP JUMPDEST PUSH1 0x40 MLOAD PUSH4 0x52D1902D PUSH1 0xE0 SHL DUP2 MSTORE PUSH1 0x1 PUSH1 0x1 PUSH1 0xA0 SHL SUB DUP4 AND SWAP1 PUSH1 0x20 DUP2 PUSH1 0x4 DUP2 DUP6 GAS STATICCALL DUP6 SWAP2 DUP2 PUSH2 0xDF4 JUMPI JUMPDEST POP PUSH2 0xCD6 JUMPI PUSH1 0x40 MLOAD PUSH3 0x461BCD PUSH1 0xE5 SHL DUP2 MSTORE PUSH1 0x20 PUSH1 0x4 DUP3 ADD MSTORE PUSH1 0x2E PUSH1 0x24 DUP3 ADD MSTORE PUSH32 0x45524331393637557067726164653A206E657720696D706C656D656E74617469 PUSH1 0x44 DUP3 ADD MSTORE PUSH14 0x6F6E206973206E6F742055555053 PUSH1 0x90 SHL PUSH1 0x64 DUP3 ADD MSTORE PUSH1 0x84 SWAP1 REVERT JUMPDEST PUSH1 0x0 DUP1 MLOAD PUSH1 0x20 PUSH2 0x26E0 DUP4 CODECOPY DUP2 MLOAD SWAP2 MSTORE SUB PUSH2 0xD9D JUMPI PUSH2 0xCF3 DUP4 PUSH2 0x25A9 JUMP JUMPDEST PUSH32 0xBC7CD75A20EE27FD9ADEBAB32041F755214DBC6BFFA90CC0225B39DA2E5C2D3B DUP5 DUP1 LOG2 DUP1 MLOAD ISZERO DUP1 ISZERO SWAP1 PUSH2 0xD95 JUMPI JUMPDEST PUSH2 0xD2B JUMPI POP POP DUP1 RETURN JUMPDEST PUSH2 0xD91 SWAP2 DUP4 DUP1 PUSH1 0x40 MLOAD SWAP4 PUSH2 0xD40 PUSH1 0x60 DUP7 PUSH2 0x20B7 JUMP JUMPDEST PUSH1 0x27 DUP6 MSTORE PUSH32 0x416464726573733A206C6F772D6C6576656C2064656C65676174652063616C6C PUSH1 0x20 DUP7 ADD MSTORE PUSH7 0x819985A5B1959 PUSH1 0xCA SHL PUSH1 0x40 DUP7 ADD MSTORE PUSH1 0x20 DUP2 MLOAD SWAP2 ADD DUP5 GAS DELEGATECALL PUSH2 0xD8B PUSH2 0x239D JUMP JUMPDEST SWAP2 PUSH2 0x2642 JUMP JUMPDEST POP DUP1 RETURN JUMPDEST POP PUSH1 0x1 PUSH2 0xD22 JUMP JUMPDEST PUSH1 0x40 MLOAD PUSH3 0x461BCD PUSH1 0xE5 SHL DUP2 MSTORE PUSH1 0x20 PUSH1 0x4 DUP3 ADD MSTORE PUSH1 0x29 PUSH1 0x24 DUP3 ADD MSTORE PUSH32 0x45524331393637557067726164653A20756E737570706F727465642070726F78 PUSH1 0x44 DUP3 ADD MSTORE PUSH9 0x1A58589B1955555251 PUSH1 0xBA SHL PUSH1 0x64 DUP3 ADD MSTORE PUSH1 0x84 SWAP1 REVERT JUMPDEST SWAP1 SWAP2 POP PUSH1 0x20 DUP2 RETURNDATASIZE PUSH1 0x20 GT PUSH2 0xE20 JUMPI JUMPDEST DUP2 PUSH2 0xE10 PUSH1 0x20 SWAP4 DUP4 PUSH2 0x20B7 JUMP JUMPDEST DUP2 ADD SUB SLT PUSH2 0x9B3 JUMPI MLOAD SWAP1 CODESIZE PUSH2 0xC75 JUMP JUMPDEST RETURNDATASIZE SWAP2 POP PUSH2 0xE03 JUMP JUMPDEST DUP3 DUP1 REVERT JUMPDEST POP CALLVALUE PUSH2 0x1B3 JUMPI DUP1 PUSH1 0x3 NOT CALLDATASIZE ADD SLT PUSH2 0x1B3 JUMPI PUSH1 0xFF SLOAD PUSH1 0x40 MLOAD PUSH1 0x1 PUSH1 0x1 PUSH1 0xA0 SHL SUB SWAP1 SWAP2 AND DUP2 MSTORE PUSH1 0x20 SWAP1 RETURN JUMPDEST POP CALLVALUE PUSH2 0x1B3 JUMPI PUSH1 0x20 CALLDATASIZE PUSH1 0x3 NOT ADD SLT PUSH2 0x1B3 JUMPI PUSH2 0xE6F PUSH2 0x200B JUMP JUMPDEST PUSH2 0xEA8 PUSH32 0x0 PUSH1 0x1 PUSH1 0x1 PUSH1 0xA0 SHL SUB AND PUSH2 0xBF1 ADDRESS DUP3 EQ ISZERO PUSH2 0x216B JUMP JUMPDEST PUSH2 0xEB0 PUSH2 0x2423 JUMP JUMPDEST PUSH1 0x20 SWAP1 PUSH1 0x40 MLOAD PUSH2 0xEC0 DUP4 DUP3 PUSH2 0x20B7 JUMP JUMPDEST DUP4 DUP2 MSTORE DUP3 DUP2 ADD SWAP1 PUSH1 0x1F NOT DUP5 ADD CALLDATASIZE DUP4 CALLDATACOPY PUSH32 0x4910FDFA16FED3260ED0E7147F7CC6DA11A60208B5B9406D12A635614FFD9143 SLOAD PUSH1 0xFF AND ISZERO PUSH2 0xF05 JUMPI POP POP PUSH2 0x15C SWAP2 POP PUSH2 0x25A9 JUMP JUMPDEST PUSH1 0x40 MLOAD PUSH4 0x52D1902D PUSH1 0xE0 SHL DUP2 MSTORE SWAP2 SWAP3 SWAP2 PUSH1 0x1 PUSH1 0x1 PUSH1 0xA0 SHL SUB DUP4 AND SWAP1 DUP6 DUP2 PUSH1 0x4 DUP2 DUP6 GAS STATICCALL DUP8 SWAP2 DUP2 PUSH2 0x10C5 JUMPI JUMPDEST POP PUSH2 0xF91 JUMPI PUSH1 0x40 MLOAD PUSH3 0x461BCD PUSH1 0xE5 SHL DUP2 MSTORE PUSH1 0x4 DUP2 ADD DUP8 SWAP1 MSTORE PUSH1 0x2E PUSH1 0x24 DUP3 ADD MSTORE PUSH32 0x45524331393637557067726164653A206E657720696D706C656D656E74617469 PUSH1 0x44 DUP3 ADD MSTORE PUSH14 0x6F6E206973206E6F742055555053 PUSH1 0x90 SHL PUSH1 0x64 DUP3 ADD MSTORE PUSH1 0x84 SWAP1 REVERT JUMPDEST SWAP4 SWAP5 SWAP4 PUSH32 0xC9F76B5EC45E5CDEF99837D7B6D2467235C1DF8933C8CA56DF5C35AFA2C7D444 ADD PUSH2 0x106E JUMPI SWAP1 DUP6 SWAP2 PUSH2 0xFC6 DUP5 PUSH2 0x25A9 JUMP JUMPDEST PUSH32 0xBC7CD75A20EE27FD9ADEBAB32041F755214DBC6BFFA90CC0225B39DA2E5C2D3B DUP4 DUP1 LOG2 DUP1 MLOAD ISZERO DUP1 ISZERO SWAP1 PUSH2 0x1067 JUMPI JUMPDEST PUSH2 0x1002 JUMPI JUMPDEST POP POP POP POP POP DUP1 RETURN JUMPDEST PUSH2 0x105C SWAP5 DUP3 SWAP2 PUSH32 0x416464726573733A206C6F772D6C6576656C2064656C65676174652063616C6C PUSH1 0x40 MLOAD SWAP7 PUSH2 0x1038 PUSH1 0x60 DUP10 PUSH2 0x20B7 JUMP JUMPDEST PUSH1 0x27 DUP9 MSTORE DUP8 ADD MSTORE PUSH7 0x819985A5B1959 PUSH1 0xCA SHL PUSH1 0x40 DUP8 ADD MSTORE MLOAD SWAP1 DUP5 GAS DELEGATECALL PUSH2 0xD8B PUSH2 0x239D JUMP JUMPDEST POP CODESIZE DUP1 DUP1 DUP4 DUP2 PUSH2 0xFFA JUMP JUMPDEST POP DUP2 PUSH2 0xFF5 JUMP JUMPDEST PUSH1 0x40 MLOAD PUSH3 0x461BCD PUSH1 0xE5 SHL DUP2 MSTORE PUSH1 0x4 DUP2 ADD DUP6 SWAP1 MSTORE PUSH1 0x29 PUSH1 0x24 DUP3 ADD MSTORE PUSH32 0x45524331393637557067726164653A20756E737570706F727465642070726F78 PUSH1 0x44 DUP3 ADD MSTORE PUSH9 0x1A58589B1955555251 PUSH1 0xBA SHL PUSH1 0x64 DUP3 ADD MSTORE PUSH1 0x84 SWAP1 REVERT JUMPDEST SWAP1 SWAP2 POP DUP7 DUP2 DUP2 RETURNDATASIZE DUP4 GT PUSH2 0x10ED JUMPI JUMPDEST PUSH2 0x10DD DUP2 DUP4 PUSH2 0x20B7 JUMP JUMPDEST DUP2 ADD SUB SLT PUSH2 0x9B3 JUMPI MLOAD SWAP1 CODESIZE PUSH2 0xF30 JUMP JUMPDEST POP RETURNDATASIZE PUSH2 0x10D3 JUMP JUMPDEST POP CALLVALUE PUSH2 0x1B3 JUMPI PUSH1 0xE0 CALLDATASIZE PUSH1 0x3 NOT ADD SLT PUSH2 0x1B3 JUMPI PUSH2 0x110E PUSH2 0x200B JUMP JUMPDEST PUSH2 0x1116 PUSH2 0x2021 JUMP JUMPDEST SWAP1 PUSH1 0x44 CALLDATALOAD PUSH1 0x1 PUSH1 0x1 PUSH1 0xA0 SHL SUB DUP2 AND SWAP1 DUP2 SWAP1 SUB PUSH2 0x332 JUMPI PUSH1 0x64 CALLDATALOAD PUSH1 0x1 PUSH1 0x1 PUSH1 0xA0 SHL SUB DUP2 AND SWAP1 DUP2 SWAP1 SUB PUSH2 0x336 JUMPI PUSH1 0x84 CALLDATALOAD PUSH1 0x1 PUSH1 0x1 PUSH1 0xA0 SHL SUB DUP2 AND SWAP1 DUP2 SWAP1 SUB PUSH2 0x13F7 JUMPI PUSH1 0xA4 CALLDATALOAD PUSH1 0x1 PUSH1 0x1 PUSH1 0xA0 SHL SUB DUP2 AND SWAP3 SWAP1 DUP4 SWAP1 SUB PUSH2 0x13F3 JUMPI PUSH1 0xC4 CALLDATALOAD PUSH1 0x1 PUSH1 0x1 PUSH1 0xA0 SHL SUB DUP2 AND SWAP5 SWAP1 DUP6 SWAP1 SUB PUSH2 0x13EF JUMPI DUP8 SLOAD SWAP6 PUSH1 0xFF DUP8 PUSH1 0x8 SHR AND ISZERO SWAP7 DUP8 DUP1 SWAP9 PUSH2 0x13E2 JUMPI JUMPDEST DUP1 ISZERO PUSH2 0x13CB JUMPI JUMPDEST ISZERO PUSH2 0x136F JUMPI PUSH1 0xFF NOT DUP2 AND PUSH1 0x1 OR DUP11 SSTORE DUP8 PUSH2 0x135E JUMPI JUMPDEST POP PUSH1 0x1 PUSH1 0x1 PUSH1 0xA0 SHL SUB AND SWAP7 DUP8 ISZERO DUP1 ISZERO PUSH2 0x134D JUMPI JUMPDEST DUP1 ISZERO PUSH2 0x1345 JUMPI JUMPDEST DUP1 ISZERO PUSH2 0x133D JUMPI JUMPDEST DUP1 ISZERO PUSH2 0x1335 JUMPI JUMPDEST DUP1 ISZERO PUSH2 0x132D JUMPI JUMPDEST DUP1 ISZERO PUSH2 0x1325 JUMPI JUMPDEST PUSH2 0x1316 JUMPI PUSH2 0x1206 PUSH1 0xFF DUP11 SLOAD PUSH1 0x8 SHR AND PUSH2 0x1201 DUP2 PUSH2 0x247B JUMP JUMPDEST PUSH2 0x247B JUMP JUMPDEST PUSH2 0x120F CALLER PUSH2 0x2560 JUMP JUMPDEST DUP9 SLOAD SWAP8 PUSH2 0x1238 PUSH1 0xFF DUP11 PUSH1 0x8 SHR AND PUSH2 0x1225 DUP2 PUSH2 0x247B JUMP JUMPDEST PUSH2 0x122E DUP2 PUSH2 0x247B JUMP JUMPDEST PUSH1 0x1 PUSH1 0x65 SSTORE PUSH2 0x247B JUMP JUMPDEST PUSH1 0x1 PUSH1 0x1 PUSH1 0x60 SHL SUB PUSH1 0xA0 SHL PUSH1 0xFB SLOAD AND OR PUSH1 0xFB SSTORE PUSH1 0x1 DUP1 PUSH1 0xA0 SHL SUB AND PUSH1 0x1 PUSH1 0x1 PUSH1 0x60 SHL SUB PUSH1 0xA0 SHL PUSH1 0xFC SLOAD AND OR PUSH1 0xFC SSTORE PUSH1 0x1 PUSH1 0x1 PUSH1 0x60 SHL SUB PUSH1 0xA0 SHL PUSH1 0xFD SLOAD AND OR PUSH1 0xFD SSTORE PUSH1 0x1 PUSH1 0x1 PUSH1 0x60 SHL SUB PUSH1 0xA0 SHL PUSH1 0xFE SLOAD AND OR PUSH1 0xFE SSTORE PUSH1 0x1 PUSH1 0x1 PUSH1 0x60 SHL SUB PUSH1 0xA0 SHL PUSH1 0xFF SLOAD AND OR PUSH1 0xFF SSTORE PUSH1 0x1 PUSH1 0x1 PUSH1 0x60 SHL SUB PUSH1 0xA0 SHL PUSH2 0x100 SLOAD AND OR PUSH2 0x100 SSTORE PUSH1 0x19 PUSH1 0xA2 SHL SWAP1 PUSH10 0xFFFFFFFFFFFFFFFFFFFF PUSH1 0xB0 SHL PUSH2 0x101 SLOAD AND OR OR PUSH2 0x101 SSTORE PUSH1 0x1 PUSH2 0x102 SSTORE PUSH2 0x12E1 JUMPI POP DUP1 RETURN JUMPDEST PUSH2 0xFF00 NOT AND DUP2 SSTORE PUSH32 0x7F26B83FF96E1F2B6A682F133852F6798A09C465DA95921460CEFB3847402498 PUSH1 0x20 PUSH1 0x40 MLOAD PUSH1 0x1 DUP2 MSTORE LOG1 DUP1 RETURN JUMPDEST PUSH4 0xD92E233D PUSH1 0xE0 SHL DUP10 MSTORE PUSH1 0x4 DUP10 REVERT JUMPDEST POP DUP6 ISZERO PUSH2 0x11E9 JUMP JUMPDEST POP DUP5 ISZERO PUSH2 0x11E2 JUMP JUMPDEST POP DUP4 ISZERO PUSH2 0x11DB JUMP JUMPDEST POP DUP3 ISZERO PUSH2 0x11D4 JUMP JUMPDEST POP DUP2 ISZERO PUSH2 0x11CD JUMP JUMPDEST POP PUSH1 0x1 PUSH1 0x1 PUSH1 0xA0 SHL SUB DUP2 AND ISZERO PUSH2 0x11C6 JUMP JUMPDEST PUSH2 0xFFFF NOT AND PUSH2 0x101 OR DUP10 SSTORE CODESIZE PUSH2 0x11B2 JUMP JUMPDEST PUSH1 0x40 MLOAD PUSH3 0x461BCD PUSH1 0xE5 SHL DUP2 MSTORE PUSH1 0x20 PUSH1 0x4 DUP3 ADD MSTORE PUSH1 0x2E PUSH1 0x24 DUP3 ADD MSTORE PUSH32 0x496E697469616C697A61626C653A20636F6E747261637420697320616C726561 PUSH1 0x44 DUP3 ADD MSTORE PUSH14 0x191E481A5B9A5D1A585B1A5E9959 PUSH1 0x92 SHL PUSH1 0x64 DUP3 ADD MSTORE PUSH1 0x84 SWAP1 REVERT JUMPDEST POP ADDRESS EXTCODESIZE ISZERO DUP1 ISZERO PUSH2 0x119D JUMPI POP PUSH1 0x1 PUSH1 0xFF DUP3 AND EQ PUSH2 0x119D JUMP JUMPDEST POP PUSH1 0x1 PUSH1 0xFF DUP3 AND LT PUSH2 0x1196 JUMP JUMPDEST DUP8 DUP1 REVERT JUMPDEST DUP7 DUP1 REVERT JUMPDEST DUP6 DUP1 REVERT JUMPDEST POP CALLVALUE PUSH2 0x1B3 JUMPI PUSH1 0x20 CALLDATASIZE PUSH1 0x3 NOT ADD SLT PUSH2 0x1B3 JUMPI PUSH1 0x4 CALLDATALOAD DUP2 MSTORE PUSH2 0x103 PUSH1 0x20 MSTORE PUSH1 0x40 DUP2 KECCAK256 PUSH1 0x1 DUP1 PUSH1 0xA0 SHL SUB DUP2 SLOAD AND SWAP1 PUSH1 0x1 DUP2 ADD SLOAD SWAP3 PUSH1 0x2 DUP3 ADD SLOAD SWAP2 PUSH1 0x1 DUP1 PUSH1 0xA0 SHL SUB PUSH1 0x3 DUP3 ADD SLOAD AND PUSH1 0x1 DUP1 PUSH1 0xA0 SHL SUB PUSH1 0x4 DUP4 ADD SLOAD AND SWAP2 PUSH1 0x5 DUP2 ADD SWAP4 PUSH1 0x40 MLOAD SWAP5 DUP2 DUP2 SLOAD SWAP2 PUSH2 0x1464 DUP4 PUSH2 0x204B JUMP JUMPDEST DUP1 DUP10 MSTORE SWAP3 PUSH1 0x1 DUP2 AND SWAP1 DUP2 ISZERO PUSH2 0x151F JUMPI POP PUSH1 0x1 EQ PUSH2 0x14E2 JUMPI JUMPDEST POP POP POP SWAP2 PUSH1 0x6 PUSH2 0x14C8 SWAP5 SWAP3 PUSH2 0x1496 DUP8 PUSH1 0xFF SWAP9 SWAP7 SUB DUP7 PUSH2 0x20B7 JUMP JUMPDEST ADD SLOAD SWAP6 PUSH1 0x40 MLOAD SWAP9 DUP10 SWAP9 DUP10 MSTORE PUSH1 0x20 DUP10 ADD MSTORE PUSH1 0x40 DUP9 ADD MSTORE PUSH1 0x60 DUP8 ADD MSTORE PUSH1 0x80 DUP7 ADD MSTORE PUSH2 0x100 PUSH1 0xA0 DUP7 ADD MSTORE PUSH2 0x100 DUP6 ADD SWAP1 PUSH2 0x20D8 JUMP JUMPDEST SWAP2 PUSH2 0xFFFF DUP2 AND PUSH1 0xC0 DUP6 ADD MSTORE PUSH1 0x10 SHR AND ISZERO ISZERO PUSH1 0xE0 DUP4 ADD MSTORE SUB SWAP1 RETURN JUMPDEST SWAP1 DUP1 SWAP4 POP MSTORE PUSH1 0x20 DUP3 KECCAK256 JUMPDEST DUP2 DUP4 LT PUSH2 0x1505 JUMPI POP POP DUP5 ADD PUSH1 0x20 ADD PUSH1 0x6 DUP3 PUSH2 0x1496 PUSH2 0x147C JUMP JUMPDEST PUSH1 0x1 DUP2 PUSH1 0x20 SWAP3 SWAP5 SWAP4 SWAP5 SLOAD DUP4 DUP6 DUP12 ADD ADD MSTORE ADD SWAP2 ADD SWAP2 SWAP1 PUSH2 0x14EC JUMP JUMPDEST PUSH1 0xFF NOT AND PUSH1 0x20 DUP1 DUP12 ADD SWAP2 SWAP1 SWAP2 MSTORE SWAP4 ISZERO ISZERO PUSH1 0x5 SHL DUP10 ADD SWAP1 SWAP4 ADD SWAP4 POP PUSH1 0x6 SWAP3 POP DUP5 SWAP2 POP PUSH2 0x1496 SWAP1 POP PUSH2 0x147C JUMP JUMPDEST POP CALLVALUE PUSH2 0x1B3 JUMPI DUP1 PUSH1 0x3 NOT CALLDATASIZE ADD SLT PUSH2 0x1B3 JUMPI PUSH1 0xFC SLOAD PUSH1 0x40 MLOAD PUSH1 0x1 PUSH1 0x1 PUSH1 0xA0 SHL SUB SWAP1 SWAP2 AND DUP2 MSTORE PUSH1 0x20 SWAP1 RETURN JUMPDEST POP CALLVALUE PUSH2 0x1B3 JUMPI DUP1 PUSH1 0x3 NOT CALLDATASIZE ADD SLT PUSH2 0x1B3 JUMPI PUSH1 0x20 PUSH2 0x102 SLOAD PUSH1 0x40 MLOAD SWAP1 DUP2 MSTORE RETURN JUMPDEST POP CALLVALUE PUSH2 0x1B3 JUMPI DUP1 PUSH1 0x3 NOT CALLDATASIZE ADD SLT PUSH2 0x1B3 JUMPI PUSH1 0x20 PUSH2 0xFFFF PUSH2 0x101 SLOAD PUSH1 0xA0 SHR AND PUSH1 0x40 MLOAD SWAP1 DUP2 MSTORE RETURN JUMPDEST POP CALLVALUE PUSH2 0x1B3 JUMPI DUP1 PUSH1 0x3 NOT CALLDATASIZE ADD SLT PUSH2 0x1B3 JUMPI PUSH1 0xFE SLOAD PUSH1 0x40 MLOAD PUSH1 0x1 PUSH1 0x1 PUSH1 0xA0 SHL SUB SWAP1 SWAP2 AND DUP2 MSTORE PUSH1 0x20 SWAP1 RETURN JUMPDEST POP CALLVALUE PUSH2 0x1B3 JUMPI PUSH1 0x20 CALLDATASIZE PUSH1 0x3 NOT ADD SLT PUSH2 0x1B3 JUMPI PUSH2 0x15FB PUSH2 0x200B JUMP JUMPDEST PUSH2 0x1603 PUSH2 0x2423 JUMP JUMPDEST PUSH2 0x160B PUSH2 0x23CD JUMP JUMPDEST PUSH1 0x1 PUSH1 0x1 PUSH1 0xA0 SHL SUB AND DUP1 ISZERO PUSH2 0x167E JUMPI SELFBALANCE DUP3 DUP2 DUP4 DUP3 DUP3 ISZERO PUSH2 0x1675 JUMPI JUMPDEST DUP4 SWAP3 DUP4 SWAP3 DUP4 SWAP3 CALL ISZERO PUSH2 0x166A JUMPI PUSH32 0xC0819C13BE868895EB93E40EACEB96DE976442FA1D404E5C55F14BB65A8C489A SWAP2 PUSH1 0x40 SWAP2 DUP3 MLOAD SWAP2 DUP3 MSTORE PUSH1 0x20 DUP3 ADD MSTORE LOG1 PUSH1 0x1 PUSH1 0x65 SSTORE DUP1 RETURN JUMPDEST PUSH1 0x40 MLOAD RETURNDATASIZE DUP5 DUP3 RETURNDATACOPY RETURNDATASIZE SWAP1 REVERT JUMPDEST POP PUSH2 0x8FC PUSH2 0x1626 JUMP JUMPDEST PUSH4 0xD92E233D PUSH1 0xE0 SHL DUP3 MSTORE PUSH1 0x4 DUP3 REVERT JUMPDEST POP CALLVALUE PUSH2 0x1B3 JUMPI PUSH1 0x20 CALLDATASIZE PUSH1 0x3 NOT ADD SLT PUSH2 0x1B3 JUMPI PUSH2 0x16A7 PUSH2 0x200B JUMP JUMPDEST PUSH2 0x16AF PUSH2 0x2423 JUMP JUMPDEST PUSH1 0x1 PUSH1 0x1 PUSH1 0xA0 SHL SUB AND DUP1 ISZERO PUSH2 0x167E JUMPI PUSH1 0x1 PUSH1 0x1 PUSH1 0x60 SHL SUB PUSH1 0xA0 SHL PUSH1 0xFC SLOAD AND OR PUSH1 0xFC SSTORE PUSH32 0xFE891C6AB12CF73707F8DEB6600C12BA382E4CC31EB2B0A2754CAD13075ED2D1 DUP2 DUP1 LOG1 DUP1 RETURN JUMPDEST POP CALLVALUE PUSH2 0x1B3 JUMPI PUSH1 0x20 CALLDATASIZE PUSH1 0x3 NOT ADD SLT PUSH2 0x1B3 JUMPI PUSH2 0x1712 PUSH2 0x1FCD JUMP JUMPDEST PUSH2 0x171A PUSH2 0x2423 JUMP JUMPDEST PUSH2 0x1F4 PUSH2 0xFFFF DUP3 AND GT PUSH2 0x176E JUMPI PUSH2 0x101 DUP1 SLOAD PUSH2 0xFFFF PUSH1 0xA0 SHL NOT AND PUSH1 0xA0 SWAP3 SWAP1 SWAP3 SHL PUSH2 0xFFFF PUSH1 0xA0 SHL AND SWAP2 SWAP1 SWAP2 OR SWAP1 SSTORE PUSH32 0xFE891C6AB12CF73707F8DEB6600C12BA382E4CC31EB2B0A2754CAD13075ED2D1 DUP2 DUP1 LOG1 DUP1 RETURN JUMPDEST PUSH3 0x82B429 PUSH1 0xE8 SHL DUP3 MSTORE PUSH1 0x4 DUP3 REVERT JUMPDEST POP CALLVALUE PUSH2 0x1B3 JUMPI PUSH1 0x80 CALLDATASIZE PUSH1 0x3 NOT ADD SLT PUSH2 0x1B3 JUMPI PUSH2 0x1796 PUSH2 0x1FCD JUMP JUMPDEST SWAP1 PUSH1 0x24 CALLDATALOAD PUSH1 0x1 PUSH1 0x1 PUSH1 0x40 SHL SUB DUP2 GT PUSH2 0xAAB JUMPI PUSH2 0x17B6 SWAP1 CALLDATASIZE SWAP1 PUSH1 0x4 ADD PUSH2 0x1FDE JUMP JUMPDEST POP POP PUSH1 0x44 CALLDATALOAD PUSH1 0x1 PUSH1 0x1 PUSH1 0x40 SHL SUB DUP2 AND SUB PUSH2 0x1B3 JUMPI PUSH1 0x64 CALLDATALOAD PUSH1 0x1 PUSH1 0x1 PUSH1 0x40 SHL SUB DUP2 GT PUSH2 0xAAB JUMPI PUSH2 0x17E9 SWAP1 CALLDATASIZE SWAP1 PUSH1 0x4 ADD PUSH2 0x1FDE JUMP JUMPDEST PUSH1 0xFB SLOAD SWAP2 SWAP4 SWAP2 PUSH1 0x1 PUSH1 0x1 PUSH1 0xA0 SHL SUB AND CALLER SUB PUSH2 0x1FBF JUMPI PUSH2 0x1806 PUSH2 0x23CD JUMP JUMPDEST SELFBALANCE PUSH1 0x40 MLOAD SWAP2 PUSH1 0xA0 DUP4 ADD DUP4 DUP2 LT PUSH1 0x1 PUSH1 0x1 PUSH1 0x40 SHL SUB DUP3 GT OR PUSH2 0x1FAB JUMPI PUSH1 0x40 MSTORE DUP5 DUP4 MSTORE PUSH1 0x20 DUP4 ADD SWAP1 DUP6 DUP3 MSTORE PUSH1 0x40 DUP5 ADD SWAP7 PUSH1 0x60 DUP9 MSTORE PUSH1 0x60 DUP6 ADD SWAP2 DUP8 DUP4 MSTORE DUP8 PUSH1 0x80 DUP8 ADD MSTORE DUP2 ADD PUSH1 0xA0 DUP3 DUP3 SUB SLT PUSH2 0x13EF JUMPI PUSH2 0x185E PUSH1 0x20 DUP4 ADD PUSH2 0x2037 JUMP JUMPDEST SWAP1 PUSH1 0x40 DUP4 ADD CALLDATALOAD PUSH1 0x1 PUSH1 0x1 PUSH1 0x40 SHL SUB DUP2 GT PUSH2 0x1FA7 JUMPI DUP4 ADD DUP2 PUSH1 0x1F DUP3 ADD SLT ISZERO PUSH2 0x1FA7 JUMPI SWAP1 DUP2 PUSH1 0x20 PUSH2 0x188F SWAP4 CALLDATALOAD SWAP2 ADD PUSH2 0x2134 JUMP JUMPDEST PUSH2 0x189B PUSH1 0x60 DUP5 ADD PUSH2 0x2037 JUMP JUMPDEST PUSH1 0x80 DUP5 DUP2 ADD CALLDATALOAD SWAP1 DUP10 ADD MSTORE PUSH1 0x1 PUSH1 0x1 PUSH1 0xA0 SHL SUB SWAP1 DUP2 AND DUP6 MSTORE SWAP1 DUP11 MSTORE AND DUP4 MSTORE CALLDATALOAD DUP5 MSTORE PUSH1 0x40 MLOAD DUP7 SWAP1 PUSH1 0xE0 SWAP1 PUSH2 0x18CC DUP2 PUSH2 0x2085 JUMP JUMPDEST DUP3 DUP2 MSTORE DUP3 PUSH1 0x20 DUP3 ADD MSTORE DUP3 PUSH1 0x40 DUP3 ADD MSTORE DUP3 PUSH1 0x60 DUP3 ADD MSTORE DUP3 PUSH1 0x80 DUP3 ADD MSTORE DUP3 PUSH1 0xA0 DUP3 ADD MSTORE PUSH1 0x60 PUSH1 0xC0 DUP3 ADD MSTORE ADD MSTORE PUSH1 0x80 DUP5 ADD MLOAD SWAP5 PUSH2 0x1923 PUSH2 0x2710 PUSH2 0x1918 PUSH2 0x101 SLOAD SWAP9 PUSH2 0xFFFF DUP11 PUSH1 0xA0 SHR AND SWAP1 PUSH2 0x222D JUMP JUMPDEST DIV PUSH1 0x80 DUP8 ADD MLOAD PUSH2 0x2256 JUMP JUMPDEST PUSH1 0x60 SWAP7 PUSH1 0x40 MLOAD PUSH2 0x1933 DUP10 DUP3 PUSH2 0x20B7 JUMP JUMPDEST PUSH1 0x2 DUP2 MSTORE PUSH1 0x1F NOT DUP10 ADD CALLDATASIZE PUSH1 0x20 DUP4 ADD CALLDATACOPY PUSH1 0xFD SLOAD PUSH1 0x40 MLOAD PUSH4 0x15AB88C9 PUSH1 0xE3 SHL DUP2 MSTORE PUSH1 0x1 PUSH1 0x1 PUSH1 0xA0 SHL SUB SWAP1 SWAP2 AND SWAP3 SWAP1 PUSH1 0x20 DUP2 PUSH1 0x4 DUP2 DUP8 GAS STATICCALL SWAP1 DUP2 ISZERO PUSH2 0x1F30 JUMPI SWAP2 PUSH2 0x1988 SWAP4 SWAP2 DUP14 SWAP6 SWAP4 DUP7 SWAP2 PUSH2 0xA5E JUMPI POP PUSH2 0x55E DUP4 PUSH2 0x2282 JUMP JUMPDEST SUB SWAP3 GAS CALL SWAP1 DUP2 ISZERO PUSH2 0x9C0 JUMPI SWAP1 PUSH2 0x19A5 SWAP2 DUP10 SWAP2 PUSH2 0x1F8D JUMPI JUMPDEST POP PUSH2 0x22A5 JUMP JUMPDEST MLOAD SWAP1 DUP2 ISZERO PUSH2 0x1F7E JUMPI DUP9 PUSH2 0x19BD PUSH2 0x1A08 SWAP9 SWAP10 SWAP11 MLOAD PUSH2 0x24DB JUMP JUMPDEST PUSH1 0xFE SLOAD DUP6 MLOAD PUSH1 0x40 MLOAD PUSH4 0x155DB7C7 PUSH1 0xE2 SHL DUP2 MSTORE PUSH1 0x1 PUSH1 0x1 PUSH1 0xA0 SHL SUB SWAP4 DUP5 AND PUSH1 0x4 DUP3 ADD DUP2 SWAP1 MSTORE PUSH1 0x24 DUP3 ADD DUP9 SWAP1 MSTORE SWAP2 DUP5 AND PUSH1 0x44 DUP3 ADD MSTORE SWAP11 SWAP1 SWAP3 PUSH1 0x20 SWAP3 DUP13 SWAP3 SWAP2 AND SWAP1 DUP3 SWAP1 DUP16 SWAP1 DUP3 SWAP1 PUSH1 0x64 DUP3 ADD SWAP1 JUMP JUMPDEST SUB SWAP3 GAS CALL SWAP9 DUP10 ISZERO PUSH2 0x1F73 JUMPI DUP12 SWAP10 PUSH2 0x1F3B JUMPI JUMPDEST POP DUP5 MLOAD PUSH1 0x40 MLOAD PUSH4 0x50C952B7 PUSH1 0xE0 SHL DUP2 MSTORE PUSH1 0x1 PUSH1 0x1 PUSH1 0xA0 SHL SUB SWAP1 SWAP2 AND PUSH1 0x4 DUP3 ADD MSTORE PUSH1 0x20 DUP2 PUSH1 0x24 DUP2 DUP6 GAS STATICCALL SWAP1 DUP2 ISZERO PUSH2 0x1F30 JUMPI DUP13 SWAP2 PUSH2 0x1EF9 JUMPI JUMPDEST POP DUP9 MLOAD SWAP7 MLOAD SWAP6 MLOAD SWAP3 MLOAD PUSH1 0x40 MLOAD SWAP8 PUSH1 0x1 PUSH1 0x1 PUSH1 0xA0 SHL SUB SWAP8 DUP9 AND SWAP8 SWAP2 SWAP6 SWAP5 SWAP1 SWAP2 AND SWAP4 PUSH2 0xFFFF SWAP2 PUSH2 0x1A7E DUP11 PUSH2 0x2085 JUMP JUMPDEST DUP10 MSTORE DUP8 PUSH1 0x20 DUP11 ADD MSTORE DUP7 PUSH1 0x40 DUP11 ADD MSTORE DUP3 DUP14 DUP11 ADD MSTORE DUP4 PUSH1 0x80 DUP11 ADD MSTORE DUP5 PUSH1 0xA0 DUP11 ADD MSTORE DUP6 PUSH1 0xC0 DUP11 ADD MSTORE AND DUP1 PUSH1 0xE0 DUP10 ADD MSTORE PUSH1 0x40 MLOAD SWAP7 PUSH2 0x1AB7 DUP9 PUSH2 0x2085 JUMP JUMPDEST DUP8 MSTORE PUSH1 0x20 DUP1 DUP9 ADD SWAP7 DUP8 MSTORE PUSH1 0x40 DUP1 DUP10 ADD SWAP4 DUP5 MSTORE DUP14 DUP10 ADD SWAP5 DUP6 MSTORE PUSH1 0x80 DUP10 ADD SWAP6 DUP7 MSTORE PUSH1 0xA0 DUP10 ADD SWAP7 DUP8 MSTORE PUSH1 0xC0 DUP10 ADD SWAP3 SWAP1 SWAP3 MSTORE PUSH1 0x1 PUSH1 0xE0 DUP10 ADD DUP2 SWAP1 MSTORE DUP10 MLOAD DUP16 MSTORE PUSH2 0x103 SWAP1 SWAP2 MSTORE SWAP1 DUP14 KECCAK256 DUP8 MLOAD DUP2 SLOAD PUSH1 0x1 PUSH1 0x1 PUSH1 0xA0 SHL SUB NOT SWAP1 DUP2 AND PUSH1 0x1 PUSH1 0x1 PUSH1 0xA0 SHL SUB SWAP3 DUP4 AND OR DUP4 SSTORE SWAP8 MLOAD SWAP3 DUP3 ADD SWAP3 SWAP1 SWAP3 SSTORE SWAP2 MLOAD PUSH1 0x2 DUP4 ADD SSTORE SWAP2 MLOAD PUSH1 0x3 DUP3 ADD DUP1 SLOAD DUP8 AND SWAP2 DUP5 AND SWAP2 SWAP1 SWAP2 OR SWAP1 SSTORE SWAP2 MLOAD PUSH1 0x4 DUP4 ADD DUP1 SLOAD SWAP1 SWAP6 AND SWAP2 AND OR SWAP1 SWAP3 SSTORE MLOAD DUP1 MLOAD SWAP1 PUSH1 0x1 PUSH1 0x1 PUSH1 0x40 SHL SUB DUP3 GT PUSH2 0x1EE5 JUMPI PUSH2 0x1B6C PUSH1 0x5 DUP5 ADD SLOAD PUSH2 0x204B JUMP JUMPDEST PUSH1 0x1F DUP2 GT PUSH2 0x1EA0 JUMPI JUMPDEST POP PUSH1 0x20 SWAP1 PUSH1 0x1F DUP4 GT PUSH1 0x1 EQ PUSH2 0x1E31 JUMPI PUSH1 0x6 SWAP4 SWAP3 SWAP2 DUP12 SWAP2 DUP4 PUSH2 0x1E26 JUMPI JUMPDEST POP POP DUP2 PUSH1 0x1 SHL SWAP2 PUSH1 0x0 NOT SWAP1 PUSH1 0x3 SHL SHR NOT AND OR PUSH1 0x5 DUP3 ADD SSTORE JUMPDEST ADD SWAP1 PUSH2 0xFFFF PUSH1 0xC0 DUP3 ADD MLOAD AND PUSH3 0xFF0000 PUSH1 0xE0 DUP5 SLOAD SWAP4 ADD MLOAD ISZERO ISZERO PUSH1 0x10 SHL AND SWAP2 PUSH3 0xFFFFFF NOT AND OR OR SWAP1 SSTORE DUP1 MLOAD PUSH32 0xD6D26FA561E71F05F777FE543F03426A2821A7545C3696071ADCA4A7356B3C92 PUSH1 0x1 DUP1 PUSH1 0xA0 SHL SUB PUSH1 0x20 DUP5 ADD MLOAD AND SWAP3 PUSH1 0x40 DUP2 ADD MLOAD DUP9 DUP3 ADD MLOAD SWAP2 PUSH2 0x1C5F PUSH1 0x1 DUP1 PUSH1 0xA0 SHL SUB PUSH1 0x80 DUP4 ADD MLOAD AND SWAP2 PUSH1 0x1 DUP1 PUSH1 0xA0 SHL SUB PUSH1 0xA0 DUP3 ADD MLOAD AND PUSH2 0xFFFF PUSH1 0xE0 PUSH1 0xC0 DUP5 ADD MLOAD SWAP4 ADD MLOAD AND SWAP4 PUSH1 0x40 MLOAD SWAP7 DUP8 SWAP7 DUP8 MSTORE PUSH1 0x20 DUP8 ADD MSTORE PUSH1 0x40 DUP7 ADD MSTORE DUP13 DUP6 ADD MSTORE PUSH1 0xE0 PUSH1 0x80 DUP6 ADD MSTORE PUSH1 0xE0 DUP5 ADD SWAP1 PUSH2 0x20D8 JUMP JUMPDEST SWAP1 PUSH1 0xA0 DUP4 ADD MSTORE TIMESTAMP PUSH1 0xC0 DUP4 ADD MSTORE SUB SWAP1 LOG3 DUP5 PUSH2 0x1C97 PUSH2 0x2710 PUSH2 0x1C8E PUSH1 0x80 DUP7 ADD MLOAD PUSH2 0xFFFF PUSH2 0x101 SLOAD PUSH1 0xA0 SHR AND SWAP1 PUSH2 0x222D JUMP JUMPDEST DIV DUP5 MLOAD SWAP4 PUSH2 0x2256 JUMP JUMPDEST SWAP2 PUSH1 0x40 MLOAD SWAP1 PUSH1 0x20 DUP3 ADD MSTORE DUP5 PUSH1 0x40 DUP3 ADD MSTORE PUSH1 0x40 DUP2 MSTORE PUSH2 0x1CB5 DUP7 DUP3 PUSH2 0x20B7 JUMP JUMPDEST PUSH1 0xFB SLOAD PUSH1 0xFC SLOAD PUSH1 0x40 MLOAD SWAP1 DUP9 SHL PUSH12 0xFFFFFFFFFFFFFFFFFFFFFFFF NOT AND PUSH1 0x20 DUP3 ADD MSTORE PUSH1 0x14 DUP2 MSTORE SWAP4 PUSH1 0x1 PUSH1 0x1 PUSH1 0xA0 SHL SUB SWAP2 SWAP1 SWAP2 AND SWAP1 PUSH2 0x1CF2 PUSH1 0x34 DUP7 PUSH2 0x20B7 JUMP JUMPDEST PUSH1 0x40 MLOAD SWAP1 PUSH2 0x1D01 PUSH1 0x20 DUP4 PUSH2 0x20B7 JUMP JUMPDEST DUP5 DUP3 MSTORE DUP3 EXTCODESIZE ISZERO PUSH2 0x336 JUMPI PUSH1 0x40 MLOAD PUSH3 0xC58031 PUSH1 0xE8 SHL DUP2 MSTORE PUSH1 0x1 PUSH1 0x4 DUP3 ADD MSTORE PUSH1 0xC0 PUSH1 0x24 DUP3 ADD MSTORE SWAP6 DUP7 SWAP5 DUP6 SWAP4 DUP5 SWAP3 PUSH2 0x1D72 SWAP3 PUSH2 0x1D54 SWAP2 PUSH2 0x1D42 SWAP1 PUSH1 0xC4 DUP8 ADD SWAP1 PUSH2 0x20D8 JUMP JUMPDEST DUP6 DUP2 SUB PUSH1 0x3 NOT ADD PUSH1 0x44 DUP8 ADD MSTORE SWAP1 PUSH2 0x20D8 JUMP JUMPDEST SWAP1 ADDRESS PUSH1 0x64 DUP6 ADD MSTORE DUP9 PUSH1 0x84 DUP6 ADD MSTORE PUSH1 0x3 NOT DUP5 DUP4 SUB ADD PUSH1 0xA4 DUP6 ADD MSTORE PUSH2 0x20D8 JUMP JUMPDEST SUB SWAP3 GAS CALL DUP1 ISZERO PUSH2 0x342 JUMPI PUSH2 0x1DF0 JUMPI JUMPDEST POP SWAP1 PUSH32 0xD4CA7C320D1F569D9C56F234B6A535150CE6898A3C170893E825BF39945ADCC2 SWAP2 MLOAD SWAP3 PUSH1 0x40 MLOAD SWAP2 DUP5 PUSH1 0x20 DUP5 ADD MSTORE PUSH1 0x40 DUP4 ADD MSTORE PUSH1 0x40 DUP3 MSTORE PUSH2 0x1DC4 DUP2 DUP4 PUSH2 0x20B7 JUMP JUMPDEST PUSH2 0x1DDF PUSH1 0x40 MLOAD SWAP3 DUP4 SWAP3 PUSH1 0x1 DUP5 MSTORE DUP1 PUSH1 0x20 DUP6 ADD MSTORE DUP4 ADD SWAP1 PUSH2 0x20D8 JUMP JUMPDEST TIMESTAMP PUSH1 0x40 DUP4 ADD MSTORE SUB SWAP1 LOG2 PUSH1 0x1 PUSH1 0x65 SSTORE DUP1 RETURN JUMPDEST SWAP4 PUSH2 0x1E1E DUP2 PUSH32 0xD4CA7C320D1F569D9C56F234B6A535150CE6898A3C170893E825BF39945ADCC2 SWAP5 SWAP4 SWAP7 PUSH2 0x20B7 JUMP JUMPDEST SWAP4 SWAP1 SWAP2 PUSH2 0x1D81 JUMP JUMPDEST ADD MLOAD SWAP1 POP CODESIZE DUP1 PUSH2 0x1B91 JUMP JUMPDEST SWAP1 PUSH1 0x5 DUP5 ADD DUP12 MSTORE DUP1 DUP12 KECCAK256 SWAP2 DUP12 JUMPDEST PUSH1 0x1F NOT DUP6 AND DUP2 LT PUSH2 0x1E88 JUMPI POP SWAP2 DUP4 SWAP2 PUSH1 0x1 SWAP4 PUSH1 0x6 SWAP7 SWAP6 PUSH1 0x1F NOT DUP2 AND LT PUSH2 0x1E6F JUMPI JUMPDEST POP POP POP DUP2 SHL ADD PUSH1 0x5 DUP3 ADD SSTORE PUSH2 0x1BA9 JUMP JUMPDEST ADD MLOAD PUSH1 0x0 NOT PUSH1 0xF8 DUP5 PUSH1 0x3 SHL AND SHR NOT AND SWAP1 SSTORE CODESIZE DUP1 DUP1 PUSH2 0x1E5F JUMP JUMPDEST SWAP2 SWAP3 PUSH1 0x20 PUSH1 0x1 DUP2 SWAP3 DUP7 DUP6 ADD MLOAD DUP2 SSTORE ADD SWAP5 ADD SWAP3 ADD PUSH2 0x1E3E JUMP JUMPDEST PUSH1 0x5 DUP5 ADD DUP12 MSTORE PUSH1 0x20 DUP12 KECCAK256 PUSH1 0x1F DUP5 ADD PUSH1 0x5 SHR DUP2 ADD PUSH1 0x20 DUP6 LT PUSH2 0x1EDE JUMPI JUMPDEST DUP13 PUSH1 0x1F DUP5 ADD PUSH1 0x5 SHR DUP4 ADD DUP3 LT PUSH2 0x1ED4 JUMPI POP POP POP PUSH2 0x1B75 JUMP JUMPDEST DUP2 SSTORE PUSH1 0x1 ADD PUSH2 0x1EBC JUMP JUMPDEST POP DUP1 PUSH2 0x1EBC JUMP JUMPDEST PUSH4 0x4E487B71 PUSH1 0xE0 SHL DUP11 MSTORE PUSH1 0x41 PUSH1 0x4 MSTORE PUSH1 0x24 DUP11 REVERT JUMPDEST SWAP1 POP DUP12 DUP2 PUSH1 0x20 RETURNDATASIZE PUSH1 0x20 GT PUSH2 0x1F29 JUMPI JUMPDEST PUSH1 0x20 SWAP3 PUSH2 0x1F15 DUP3 DUP5 PUSH2 0x20B7 JUMP JUMPDEST POP DUP2 ADD SUB SLT PUSH2 0x1F25 JUMPI MLOAD CODESIZE PUSH2 0x1A51 JUMP JUMPDEST DUP12 DUP1 REVERT JUMPDEST POP RETURNDATASIZE PUSH2 0x1F08 JUMP JUMPDEST PUSH1 0x40 MLOAD RETURNDATASIZE DUP15 DUP3 RETURNDATACOPY RETURNDATASIZE SWAP1 REVERT JUMPDEST SWAP1 SWAP9 POP PUSH1 0x20 DUP2 RETURNDATASIZE PUSH1 0x20 GT PUSH2 0x1F6B JUMPI JUMPDEST DUP2 PUSH2 0x1F57 PUSH1 0x20 SWAP4 DUP4 PUSH2 0x20B7 JUMP JUMPDEST DUP2 ADD SUB SLT PUSH2 0x1F67 JUMPI MLOAD SWAP8 CODESIZE PUSH2 0x1A1A JUMP JUMPDEST DUP11 DUP1 REVERT JUMPDEST RETURNDATASIZE SWAP2 POP PUSH2 0x1F4A JUMP JUMPDEST PUSH1 0x40 MLOAD RETURNDATASIZE DUP14 DUP3 RETURNDATACOPY RETURNDATASIZE SWAP1 REVERT JUMPDEST PUSH4 0x81CEFF3 PUSH1 0xE4 SHL DUP9 MSTORE PUSH1 0x4 DUP9 REVERT JUMPDEST PUSH2 0x1FA1 SWAP2 POP RETURNDATASIZE DUP1 DUP12 DUP4 RETURNDATACOPY PUSH2 0xA45 DUP2 DUP4 PUSH2 0x20B7 JUMP JUMPDEST CODESIZE PUSH2 0x199F JUMP JUMPDEST DUP10 DUP1 REVERT JUMPDEST PUSH4 0x4E487B71 PUSH1 0xE0 SHL DUP7 MSTORE PUSH1 0x41 PUSH1 0x4 MSTORE PUSH1 0x24 DUP7 REVERT JUMPDEST PUSH3 0x82B429 PUSH1 0xE8 SHL DUP4 MSTORE PUSH1 0x4 DUP4 REVERT JUMPDEST PUSH1 0x4 CALLDATALOAD SWAP1 PUSH2 0xFFFF DUP3 AND DUP3 SUB PUSH2 0x9B3 JUMPI JUMP JUMPDEST SWAP2 DUP2 PUSH1 0x1F DUP5 ADD SLT ISZERO PUSH2 0x9B3 JUMPI DUP3 CALLDATALOAD SWAP2 PUSH1 0x1 PUSH1 0x1 PUSH1 0x40 SHL SUB DUP4 GT PUSH2 0x9B3 JUMPI PUSH1 0x20 DUP4 DUP2 DUP7 ADD SWAP6 ADD ADD GT PUSH2 0x9B3 JUMPI JUMP JUMPDEST PUSH1 0x4 CALLDATALOAD SWAP1 PUSH1 0x1 PUSH1 0x1 PUSH1 0xA0 SHL SUB DUP3 AND DUP3 SUB PUSH2 0x9B3 JUMPI JUMP JUMPDEST PUSH1 0x24 CALLDATALOAD SWAP1 PUSH1 0x1 PUSH1 0x1 PUSH1 0xA0 SHL SUB DUP3 AND DUP3 SUB PUSH2 0x9B3 JUMPI JUMP JUMPDEST CALLDATALOAD SWAP1 PUSH1 0x1 PUSH1 0x1 PUSH1 0xA0 SHL SUB DUP3 AND DUP3 SUB PUSH2 0x9B3 JUMPI JUMP JUMPDEST SWAP1 PUSH1 0x1 DUP3 DUP2 SHR SWAP3 AND DUP1 ISZERO PUSH2 0x207B JUMPI JUMPDEST PUSH1 0x20 DUP4 LT EQ PUSH2 0x2065 JUMPI JUMP JUMPDEST PUSH4 0x4E487B71 PUSH1 0xE0 SHL PUSH1 0x0 MSTORE PUSH1 0x22 PUSH1 0x4 MSTORE PUSH1 0x24 PUSH1 0x0 REVERT JUMPDEST SWAP2 PUSH1 0x7F AND SWAP2 PUSH2 0x205A JUMP JUMPDEST PUSH2 0x100 DUP2 ADD SWAP1 DUP2 LT PUSH1 0x1 PUSH1 0x1 PUSH1 0x40 SHL SUB DUP3 GT OR PUSH2 0x20A1 JUMPI PUSH1 0x40 MSTORE JUMP JUMPDEST PUSH4 0x4E487B71 PUSH1 0xE0 SHL PUSH1 0x0 MSTORE PUSH1 0x41 PUSH1 0x4 MSTORE PUSH1 0x24 PUSH1 0x0 REVERT JUMPDEST SWAP1 PUSH1 0x1F DUP1 NOT SWAP2 ADD AND DUP2 ADD SWAP1 DUP2 LT PUSH1 0x1 PUSH1 0x1 PUSH1 0x40 SHL SUB DUP3 GT OR PUSH2 0x20A1 JUMPI PUSH1 0x40 MSTORE JUMP JUMPDEST SWAP2 SWAP1 DUP3 MLOAD SWAP3 DUP4 DUP3 MSTORE PUSH1 0x0 JUMPDEST DUP5 DUP2 LT PUSH2 0x2104 JUMPI POP POP DUP3 PUSH1 0x0 PUSH1 0x20 DUP1 SWAP5 SWAP6 DUP5 ADD ADD MSTORE PUSH1 0x1F DUP1 NOT SWAP2 ADD AND ADD ADD SWAP1 JUMP JUMPDEST DUP1 PUSH1 0x20 DUP1 SWAP3 DUP5 ADD ADD MLOAD DUP3 DUP3 DUP7 ADD ADD MSTORE ADD PUSH2 0x20E3 JUMP JUMPDEST PUSH1 0x1 PUSH1 0x1 PUSH1 0x40 SHL SUB DUP2 GT PUSH2 0x20A1 JUMPI PUSH1 0x1F ADD PUSH1 0x1F NOT AND PUSH1 0x20 ADD SWAP1 JUMP JUMPDEST SWAP3 SWAP2 SWAP3 PUSH2 0x2140 DUP3 PUSH2 0x2119 JUMP JUMPDEST SWAP2 PUSH2 0x214E PUSH1 0x40 MLOAD SWAP4 DUP5 PUSH2 0x20B7 JUMP JUMPDEST DUP3 SWAP5 DUP2 DUP5 MSTORE DUP2 DUP4 ADD GT PUSH2 0x9B3 JUMPI DUP3 DUP2 PUSH1 0x20 SWAP4 DUP5 PUSH1 0x0 SWAP7 ADD CALLDATACOPY ADD ADD MSTORE JUMP JUMPDEST ISZERO PUSH2 0x2172 JUMPI JUMP JUMPDEST PUSH1 0x40 MLOAD PUSH3 0x461BCD PUSH1 0xE5 SHL DUP2 MSTORE PUSH1 0x20 PUSH1 0x4 DUP3 ADD MSTORE PUSH1 0x2C PUSH1 0x24 DUP3 ADD MSTORE PUSH32 0x46756E6374696F6E206D7573742062652063616C6C6564207468726F75676820 PUSH1 0x44 DUP3 ADD MSTORE PUSH12 0x19195B1959D85D1958D85B1B PUSH1 0xA2 SHL PUSH1 0x64 DUP3 ADD MSTORE PUSH1 0x84 SWAP1 REVERT JUMPDEST ISZERO PUSH2 0x21D3 JUMPI JUMP JUMPDEST PUSH1 0x40 MLOAD PUSH3 0x461BCD PUSH1 0xE5 SHL DUP2 MSTORE PUSH1 0x20 PUSH1 0x4 DUP3 ADD MSTORE PUSH1 0x2C PUSH1 0x24 DUP3 ADD MSTORE PUSH32 0x46756E6374696F6E206D7573742062652063616C6C6564207468726F75676820 PUSH1 0x44 DUP3 ADD MSTORE PUSH12 0x6163746976652070726F7879 PUSH1 0xA0 SHL PUSH1 0x64 DUP3 ADD MSTORE PUSH1 0x84 SWAP1 REVERT JUMPDEST DUP2 DUP2 MUL SWAP3 SWAP2 DUP2 ISZERO SWAP2 DUP5 DIV EQ OR ISZERO PUSH2 0x2240 JUMPI JUMP JUMPDEST PUSH4 0x4E487B71 PUSH1 0xE0 SHL PUSH1 0x0 MSTORE PUSH1 0x11 PUSH1 0x4 MSTORE PUSH1 0x24 PUSH1 0x0 REVERT JUMPDEST SWAP2 SWAP1 DUP3 SUB SWAP2 DUP3 GT PUSH2 0x2240 JUMPI JUMP JUMPDEST SWAP1 DUP2 PUSH1 0x20 SWAP2 SUB SLT PUSH2 0x9B3 JUMPI MLOAD PUSH1 0x1 PUSH1 0x1 PUSH1 0xA0 SHL SUB DUP2 AND DUP2 SUB PUSH2 0x9B3 JUMPI SWAP1 JUMP JUMPDEST DUP1 MLOAD ISZERO PUSH2 0x228F JUMPI PUSH1 0x20 ADD SWAP1 JUMP JUMPDEST PUSH4 0x4E487B71 PUSH1 0xE0 SHL PUSH1 0x0 MSTORE PUSH1 0x32 PUSH1 0x4 MSTORE PUSH1 0x24 PUSH1 0x0 REVERT JUMPDEST DUP1 MLOAD PUSH1 0x1 LT ISZERO PUSH2 0x228F JUMPI PUSH1 0x40 ADD SWAP1 JUMP JUMPDEST PUSH1 0x20 DUP2 DUP4 SUB SLT PUSH2 0x9B3 JUMPI DUP1 MLOAD SWAP1 PUSH1 0x1 PUSH1 0x1 PUSH1 0x40 SHL SUB DUP3 GT PUSH2 0x9B3 JUMPI ADD SWAP1 DUP1 PUSH1 0x1F DUP4 ADD SLT ISZERO PUSH2 0x9B3 JUMPI DUP2 MLOAD SWAP2 PUSH1 0x1 PUSH1 0x1 PUSH1 0x40 SHL SUB DUP4 GT PUSH2 0x20A1 JUMPI DUP3 PUSH1 0x5 SHL SWAP1 PUSH1 0x20 DUP3 ADD SWAP4 PUSH2 0x2305 PUSH1 0x40 MLOAD SWAP6 DUP7 PUSH2 0x20B7 JUMP JUMPDEST DUP5 MSTORE PUSH1 0x20 DUP1 DUP6 ADD SWAP3 DUP3 ADD ADD SWAP3 DUP4 GT PUSH2 0x9B3 JUMPI PUSH1 0x20 ADD SWAP1 JUMPDEST DUP3 DUP3 LT PUSH2 0x2329 JUMPI POP POP POP SWAP1 JUMP JUMPDEST DUP2 MLOAD DUP2 MSTORE PUSH1 0x20 SWAP2 DUP3 ADD SWAP2 ADD PUSH2 0x231C JUMP JUMPDEST SWAP1 SWAP4 SWAP3 SWAP2 SWAP4 PUSH1 0x80 DUP3 ADD PUSH1 0x0 DUP4 MSTORE PUSH1 0x80 PUSH1 0x20 DUP5 ADD MSTORE DUP2 MLOAD DUP1 SWAP2 MSTORE PUSH1 0x20 PUSH1 0xA0 DUP5 ADD SWAP3 ADD SWAP1 PUSH1 0x0 JUMPDEST DUP2 DUP2 LT PUSH2 0x237E JUMPI POP POP POP PUSH1 0x1 PUSH1 0x1 PUSH1 0xA0 SHL SUB SWAP1 SWAP5 AND PUSH1 0x40 DUP3 ADD MSTORE PUSH1 0x60 ADD MSTORE JUMP JUMPDEST DUP3 MLOAD PUSH1 0x1 PUSH1 0x1 PUSH1 0xA0 SHL SUB AND DUP5 MSTORE PUSH1 0x20 SWAP4 DUP5 ADD SWAP4 SWAP1 SWAP3 ADD SWAP2 PUSH1 0x1 ADD PUSH2 0x235E JUMP JUMPDEST RETURNDATASIZE ISZERO PUSH2 0x23C8 JUMPI RETURNDATASIZE SWAP1 PUSH2 0x23AE DUP3 PUSH2 0x2119 JUMP JUMPDEST SWAP2 PUSH2 0x23BC PUSH1 0x40 MLOAD SWAP4 DUP5 PUSH2 0x20B7 JUMP JUMPDEST DUP3 MSTORE RETURNDATASIZE PUSH1 0x0 PUSH1 0x20 DUP5 ADD RETURNDATACOPY JUMP JUMPDEST PUSH1 0x60 SWAP1 JUMP JUMPDEST PUSH1 0x2 PUSH1 0x65 SLOAD EQ PUSH2 0x23DE JUMPI PUSH1 0x2 PUSH1 0x65 SSTORE JUMP JUMPDEST PUSH1 0x40 MLOAD PUSH3 0x461BCD PUSH1 0xE5 SHL DUP2 MSTORE PUSH1 0x20 PUSH1 0x4 DUP3 ADD MSTORE PUSH1 0x1F PUSH1 0x24 DUP3 ADD MSTORE PUSH32 0x5265656E7472616E637947756172643A207265656E7472616E742063616C6C00 PUSH1 0x44 DUP3 ADD MSTORE PUSH1 0x64 SWAP1 REVERT JUMPDEST PUSH1 0x33 SLOAD PUSH1 0x1 PUSH1 0x1 PUSH1 0xA0 SHL SUB AND CALLER SUB PUSH2 0x2437 JUMPI JUMP JUMPDEST PUSH1 0x64 PUSH1 0x40 MLOAD PUSH3 0x461BCD PUSH1 0xE5 SHL DUP2 MSTORE PUSH1 0x20 PUSH1 0x4 DUP3 ADD MSTORE PUSH1 0x20 PUSH1 0x24 DUP3 ADD MSTORE PUSH32 0x4F776E61626C653A2063616C6C6572206973206E6F7420746865206F776E6572 PUSH1 0x44 DUP3 ADD MSTORE REVERT JUMPDEST ISZERO PUSH2 0x2482 JUMPI JUMP JUMPDEST PUSH1 0x40 MLOAD PUSH3 0x461BCD PUSH1 0xE5 SHL DUP2 MSTORE PUSH1 0x20 PUSH1 0x4 DUP3 ADD MSTORE PUSH1 0x2B PUSH1 0x24 DUP3 ADD MSTORE PUSH32 0x496E697469616C697A61626C653A20636F6E7472616374206973206E6F742069 PUSH1 0x44 DUP3 ADD MSTORE PUSH11 0x6E697469616C697A696E67 PUSH1 0xA8 SHL PUSH1 0x64 DUP3 ADD MSTORE PUSH1 0x84 SWAP1 REVERT JUMPDEST PUSH1 0x20 DUP2 MLOAD SWAP2 ADD KECCAK256 PUSH32 0x28F7285C4DA5C88F6BEB8419ED0CDDCD789BDCD06A248CC5CA727FA641E3F37C DUP2 EQ PUSH2 0x2550 JUMPI PUSH32 0x251977404605D5A90AF45602163D330145969F3C4154FEB2419ADA86868703EF EQ PUSH2 0x2540 JUMPI PUSH4 0x3BF9B3A9 PUSH1 0xE0 SHL PUSH1 0x0 MSTORE PUSH1 0x4 PUSH1 0x0 REVERT JUMPDEST PUSH2 0x100 SLOAD PUSH1 0x1 PUSH1 0x1 PUSH1 0xA0 SHL SUB AND SWAP1 JUMP JUMPDEST POP PUSH1 0xFF SLOAD PUSH1 0x1 PUSH1 0x1 PUSH1 0xA0 SHL SUB AND SWAP1 JUMP JUMPDEST PUSH1 0x33 DUP1 SLOAD PUSH1 0x1 PUSH1 0x1 PUSH1 0xA0 SHL SUB SWAP3 DUP4 AND PUSH1 0x1 PUSH1 0x1 PUSH1 0xA0 SHL SUB NOT DUP3 AND DUP2 OR SWAP1 SWAP3 SSTORE SWAP1 SWAP2 AND PUSH32 0x8BE0079C531659141344CD1FD0A4F28419497F9722A3DAAFE3B4186F6B6457E0 PUSH1 0x0 DUP1 LOG3 JUMP JUMPDEST DUP1 EXTCODESIZE ISZERO PUSH2 0x25E7 JUMPI PUSH1 0x1 DUP1 PUSH1 0xA0 SHL SUB AND PUSH1 0x1 PUSH1 0x1 PUSH1 0x60 SHL SUB PUSH1 0xA0 SHL PUSH1 0x0 DUP1 MLOAD PUSH1 0x20 PUSH2 0x26E0 DUP4 CODECOPY DUP2 MLOAD SWAP2 MSTORE SLOAD AND OR PUSH1 0x0 DUP1 MLOAD PUSH1 0x20 PUSH2 0x26E0 DUP4 CODECOPY DUP2 MLOAD SWAP2 MSTORE SSTORE JUMP JUMPDEST PUSH1 0x40 MLOAD PUSH3 0x461BCD PUSH1 0xE5 SHL DUP2 MSTORE PUSH1 0x20 PUSH1 0x4 DUP3 ADD MSTORE PUSH1 0x2D PUSH1 0x24 DUP3 ADD MSTORE PUSH32 0x455243313936373A206E657720696D706C656D656E746174696F6E206973206E PUSH1 0x44 DUP3 ADD MSTORE PUSH13 0x1BDD08184818DBDB9D1C9858DD PUSH1 0x9A SHL PUSH1 0x64 DUP3 ADD MSTORE PUSH1 0x84 SWAP1 REVERT JUMPDEST SWAP2 SWAP3 SWAP1 ISZERO PUSH2 0x26A4 JUMPI POP DUP2 MLOAD ISZERO PUSH2 0x2656 JUMPI POP SWAP1 JUMP JUMPDEST EXTCODESIZE ISZERO PUSH2 0x265F JUMPI SWAP1 JUMP JUMPDEST PUSH1 0x40 MLOAD PUSH3 0x461BCD PUSH1 0xE5 SHL DUP2 MSTORE PUSH1 0x20 PUSH1 0x4 DUP3 ADD MSTORE PUSH1 0x1D PUSH1 0x24 DUP3 ADD MSTORE PUSH32 0x416464726573733A2063616C6C20746F206E6F6E2D636F6E7472616374000000 PUSH1 0x44 DUP3 ADD MSTORE PUSH1 0x64 SWAP1 REVERT JUMPDEST DUP3 MLOAD SWAP1 SWAP2 POP ISZERO PUSH2 0x26B7 JUMPI POP DUP1 MLOAD SWAP1 PUSH1 0x20 ADD REVERT JUMPDEST PUSH1 0x40 MLOAD PUSH3 0x461BCD PUSH1 0xE5 SHL DUP2 MSTORE PUSH1 0x20 PUSH1 0x4 DUP3 ADD MSTORE SWAP1 DUP2 SWAP1 PUSH2 0x26DB SWAP1 PUSH1 0x24 DUP4 ADD SWAP1 PUSH2 0x20D8 JUMP JUMPDEST SUB SWAP1 REVERT INVALID CALLDATASIZE ADDMOD SWAP5 LOG1 EXTCODESIZE LOG1 LOG3 0x21 MOD PUSH8 0xC828492DB98DCA3E KECCAK256 PUSH23 0xCC3735A920A3CA505D382BBCA26469706673582212206F SIGNEXTEND TLOAD PUSH13 0xEA451A2998B05CE51B88D0D3C6 0xBF 0xAA CALLER RETURNDATACOPY ORIGIN 0xE4 SWAP8 0xD4 0xB0 LT 0xB5 0xB1 0xED PUSH1 0x8D PUSH5 0x736F6C6343 STOP ADDMOD SHR STOP CALLER "},"methodIdentifiers":{"KLIMA()":"e3ed12a0","aggregator()":"245a7bfc","baseBridge()":"2b4435e8","emergencyWithdraw(address,address,uint256)":"e63ea408","feeBps()":"24a9d853","initialize(address,address,address,address,address,address,address)":"35876476","lzEndpoint()":"b353aaa7","lzReceive(uint16,bytes,uint64,bytes)":"001d3567","nextRetireId()":"2b40213c","owner()":"8da5cb5b","poolBCT()":"3feb8f75","poolNCT()":"8ff30ffc","proxiableUUID()":"52d1902d","records(uint256)":"34461067","renounceOwnership()":"715018a6","retireLocal(string,address)":"5b2458ad","setBaseBridge(address)":"14c33c05","setFeeBps(uint16)":"023b1fc9","swapRouter()":"c31c9c07","transferOwnership(address)":"f2fde38b","upgradeTo(address)":"3659cfe6","upgradeToAndCall(address,bytes)":"4f1ef286","withdrawFees(address)":"164e68de"}}}}}