{"contracts/BasePolygonBridge.sol":{"BaseCarbonBridge":{"abi":[{"inputs":[],"name":"AlreadyCompleted","type":"error"},{"inputs":[],"name":"InsufficientValue","type":"error"},{"inputs":[],"name":"InvalidCarbonType","type":"error"},{"inputs":[],"name":"InvalidChain","type":"error"},{"inputs":[],"name":"NotLZEndpoint","type":"error"},{"inputs":[],"name":"TransferFailed","type":"error"},{"inputs":[],"name":"Unauthorized","type":"error"},{"inputs":[],"name":"ZeroAddress","type":"error"},{"inputs":[],"name":"ZeroAmount","type":"error"},{"anonymous":false,"inputs":[{"indexed":false,"internalType":"address","name":"previousAdmin","type":"address"},{"indexed":false,"internalType":"address","name":"newAdmin","type":"address"}],"name":"AdminChanged","type":"event"},{"anonymous":false,"inputs":[{"indexed":true,"internalType":"address","name":"beacon","type":"address"}],"name":"BeaconUpgraded","type":"event"},{"anonymous":false,"inputs":[{"indexed":false,"internalType":"address","name":"token","type":"address"},{"indexed":false,"internalType":"address","name":"to","type":"address"},{"indexed":false,"internalType":"uint256","name":"amount","type":"uint256"}],"name":"EmergencyWithdrawn","type":"event"},{"anonymous":false,"inputs":[{"indexed":false,"internalType":"address","name":"newEndpoint","type":"address"}],"name":"EndpointUpdated","type":"event"},{"anonymous":false,"inputs":[{"indexed":false,"internalType":"uint16","name":"newFeeBps","type":"uint16"}],"name":"FeePercentUpdated","type":"event"},{"anonymous":false,"inputs":[{"indexed":false,"internalType":"address","name":"to","type":"address"},{"indexed":false,"internalType":"uint256","name":"amount","type":"uint256"}],"name":"FeesWithdrawn","type":"event"},{"anonymous":false,"inputs":[{"indexed":false,"internalType":"uint8","name":"version","type":"uint8"}],"name":"Initialized","type":"event"},{"anonymous":false,"inputs":[{"indexed":true,"internalType":"address","name":"previousOwner","type":"address"},{"indexed":true,"internalType":"address","name":"newOwner","type":"address"}],"name":"OwnershipTransferred","type":"event"},{"anonymous":false,"inputs":[{"indexed":true,"internalType":"uint256","name":"requestId","type":"uint256"},{"indexed":true,"internalType":"address","name":"user","type":"address"},{"indexed":false,"internalType":"uint256","name":"amountBase","type":"uint256"},{"indexed":false,"internalType":"uint32","name":"srcChainId","type":"uint32"},{"indexed":false,"internalType":"bytes","name":"proof","type":"bytes"}],"name":"RetirementCompleted","type":"event"},{"anonymous":false,"inputs":[{"indexed":true,"internalType":"uint256","name":"requestId","type":"uint256"},{"indexed":true,"internalType":"address","name":"user","type":"address"},{"indexed":false,"internalType":"uint256","name":"amountBase","type":"uint256"},{"indexed":false,"internalType":"uint32","name":"dstChainId","type":"uint32"},{"indexed":false,"internalType":"string","name":"carbonType","type":"string"},{"indexed":false,"internalType":"address","name":"beneficiary","type":"address"}],"name":"RetirementInitiated","type":"event"},{"anonymous":false,"inputs":[{"indexed":true,"internalType":"address","name":"implementation","type":"address"}],"name":"Upgraded","type":"event"},{"inputs":[{"internalType":"address","name":"token","type":"address"},{"internalType":"address","name":"to","type":"address"},{"internalType":"uint256","name":"amount","type":"uint256"}],"name":"emergencyWithdraw","outputs":[],"stateMutability":"nonpayable","type":"function"},{"inputs":[],"name":"feeBps","outputs":[{"internalType":"uint16","name":"","type":"uint16"}],"stateMutability":"view","type":"function"},{"inputs":[{"internalType":"uint256","name":"requestId","type":"uint256"}],"name":"getRequest","outputs":[{"internalType":"address","name":"user","type":"address"},{"internalType":"uint256","name":"amount","type":"uint256"},{"internalType":"uint32","name":"dstChainId","type":"uint32"},{"internalType":"string","name":"carbonType","type":"string"},{"internalType":"address","name":"beneficiary","type":"address"},{"internalType":"bool","name":"completed","type":"bool"},{"internalType":"bytes","name":"proof","type":"bytes"}],"stateMutability":"view","type":"function"},{"inputs":[{"internalType":"address","name":"_endpoint","type":"address"},{"internalType":"address","name":"_usdc","type":"address"}],"name":"initialize","outputs":[],"stateMutability":"nonpayable","type":"function"},{"inputs":[{"internalType":"bool","name":"useUSDC","type":"bool"},{"internalType":"uint256","name":"amount","type":"uint256"},{"internalType":"uint32","name":"dstChainId","type":"uint32"},{"internalType":"string","name":"carbonType","type":"string"},{"internalType":"address","name":"beneficiary","type":"address"},{"internalType":"bytes","name":"destinationAddress","type":"bytes"}],"name":"initiateRetirement","outputs":[{"internalType":"uint256","name":"requestId","type":"uint256"}],"stateMutability":"payable","type":"function"},{"inputs":[],"name":"lzEndpoint","outputs":[{"internalType":"contract ILayerZeroEndpoint","name":"","type":"address"}],"stateMutability":"view","type":"function"},{"inputs":[{"internalType":"uint16","name":"_srcChainId","type":"uint16"},{"internalType":"bytes","name":"_srcAddress","type":"bytes"},{"internalType":"uint64","name":"","type":"uint64"},{"internalType":"bytes","name":"payload","type":"bytes"}],"name":"lzReceive","outputs":[],"stateMutability":"nonpayable","type":"function"},{"inputs":[],"name":"nextRequestId","outputs":[{"internalType":"uint256","name":"","type":"uint256"}],"stateMutability":"view","type":"function"},{"inputs":[],"name":"owner","outputs":[{"internalType":"address","name":"","type":"address"}],"stateMutability":"view","type":"function"},{"inputs":[],"name":"proxiableUUID","outputs":[{"internalType":"bytes32","name":"","type":"bytes32"}],"stateMutability":"view","type":"function"},{"inputs":[],"name":"renounceOwnership","outputs":[],"stateMutability":"nonpayable","type":"function"},{"inputs":[{"internalType":"uint256","name":"","type":"uint256"}],"name":"requests","outputs":[{"internalType":"address","name":"user","type":"address"},{"internalType":"uint256","name":"amount","type":"uint256"},{"internalType":"uint32","name":"dstChainId","type":"uint32"},{"internalType":"string","name":"carbonType","type":"string"},{"internalType":"address","name":"beneficiary","type":"address"},{"internalType":"bool","name":"completed","type":"bool"},{"internalType":"bytes","name":"proof","type":"bytes"}],"stateMutability":"view","type":"function"},{"inputs":[{"internalType":"string","name":"carbonType","type":"string"},{"internalType":"bool","name":"enabled","type":"bool"}],"name":"setCarbonType","outputs":[],"stateMutability":"nonpayable","type":"function"},{"inputs":[{"internalType":"address","name":"newEndpoint","type":"address"}],"name":"setEndpoint","outputs":[],"stateMutability":"nonpayable","type":"function"},{"inputs":[{"internalType":"uint16","name":"newFeeBps","type":"uint16"}],"name":"setFeeBps","outputs":[],"stateMutability":"nonpayable","type":"function"},{"inputs":[{"internalType":"uint32","name":"chainId","type":"uint32"},{"internalType":"bool","name":"enabled","type":"bool"}],"name":"setSupportedChain","outputs":[],"stateMutability":"nonpayable","type":"function"},{"inputs":[{"internalType":"string","name":"","type":"string"}],"name":"supportedCarbonTypes","outputs":[{"internalType":"bool","name":"","type":"bool"}],"stateMutability":"view","type":"function"},{"inputs":[{"internalType":"uint32","name":"","type":"uint32"}],"name":"supportedChains","outputs":[{"internalType":"bool","name":"","type":"bool"}],"stateMutability":"view","type":"function"},{"inputs":[{"internalType":"address","name":"newOwner","type":"address"}],"name":"transferOwnership","outputs":[],"stateMutability":"nonpayable","type":"function"},{"inputs":[{"internalType":"address","name":"newImplementation","type":"address"}],"name":"upgradeTo","outputs":[],"stateMutability":"nonpayable","type":"function"},{"inputs":[{"internalType":"address","name":"newImplementation","type":"address"},{"internalType":"bytes","name":"data","type":"bytes"}],"name":"upgradeToAndCall","outputs":[],"stateMutability":"payable","type":"function"},{"inputs":[],"name":"usdc","outputs":[{"internalType":"contract IERC20Upgradeable","name":"","type":"address"}],"stateMutability":"view","type":"function"},{"inputs":[{"internalType":"address payable","name":"to","type":"address"}],"name":"withdrawFees","outputs":[],"stateMutability":"nonpayable","type":"function"},{"stateMutability":"payable","type":"receive"}],"evm":{"bytecode":{"linkReferences":{},"object":"60a08060405234603057306080526120c8908161003682396080518181816106390152818161072301526111820152f35b600080fdfe6080604052600436101561001b575b361561001957600080fd5b005b6000803560e01c80621d356714611727578063023b1fc914611674578063164e68de146114cd578063248514dd1461149257806324a9d8531461146d57806326f99ea6146114025780633659cfe6146111635780633aea909d14610c865780633e413bee14610c5d578063485cc955146109965780634f1ef286146106ea57806352d1902d146106265780636a84a98514610608578063715018a6146105ab57806381d12c581461054e5780638da5cb5b146105255780638fbbb557146104d4578063b353aaa7146104ab578063c58343ef1461042b578063dbbb4155146103a9578063e63ea40814610227578063ef47829e146101b65763f2fde38b14610123575061000e565b346101b35760203660031901126101b35761013c6119ee565b610144611e3b565b6001600160a01b0381161561015f5761015c90611ef3565b80f35b60405162461bcd60e51b815260206004820152602660248201527f4f776e61626c653a206e6577206f776e657220697320746865207a65726f206160448201526564647265737360d01b6064820152608490fd5b80fd5b50346101b35760203660031901126101b357600435906001600160401b0382116101b357366023830112156101b357602060ff610212826101ff36600488013560248901611a6c565b8160405193828580945193849201611b9f565b81018481520301902054166040519015158152f35b50346101b35760603660031901126101b3576102416119ee565b9061024a611a04565b60443592610256611e3b565b61025e611de5565b6001600160a01b038216801561039a576001600160a01b03821690816103015750508280808087865af1610290611c97565b50156102f2576102e77f457e4fe0c9f161a0c6f3bfb8d7809a4ac19f6291bd81b03b86b0d00f9af3717b93945b604080516001600160a01b0394851681529490931660208501529183019190915281906060820190565b0390a1600160655580f35b6312171d8360e31b8352600483fd5b8495916044602092604051978893849263a9059cbb60e01b845260048401528660248401525af190811561038f577f457e4fe0c9f161a0c6f3bfb8d7809a4ac19f6291bd81b03b86b0d00f9af3717b946102e792610360575b506102bd565b6103819060203d602011610388575b6103798183611a1a565b810190611cc7565b503861035a565b503d61036f565b6040513d87823e3d90fd5b63d92e233d60e01b8452600484fd5b50346101b35760203660031901126101b3576103c36119ee565b6103cb611e3b565b6001600160a01b0316801561041c576020817ffbf944e82135f40e35842ccfa29dab42b6ec33f81d6e8df4bdcb7dab0fe72e0c926001600160601b0360a01b60fb54161760fb55604051908152a180f35b63d92e233d60e01b8252600482fd5b50346101b35760203660031901126101b357604090600435815260fe6020522060018060a01b03815416906104a760018201549163ffffffff60028201541693600482015490610489600561048260038601611afb565b9401611afb565b9260405196879660ff8560a01c169460018060a01b03169388611be7565b0390f35b50346101b357806003193601126101b35760fb546040516001600160a01b039091168152602090f35b50346101b35760403660031901126101b35761015c6104f16119cc565b63ffffffff6104fe6119df565b91610507611e3b565b168352610100602052604083209060ff801983541691151516179055565b50346101b357806003193601126101b3576033546040516001600160a01b039091168152602090f35b50346101b35760203660031901126101b357604090600435815260fe6020522060018060a01b038154166104a760018301549163ffffffff6002850154169361059960038201611afb565b91610489600560048401549301611afb565b50346101b357806003193601126101b3576105c4611e3b565b603380546001600160a01b0319811690915581906001600160a01b03167f8be0079c531659141344cd1fd0a4f28419497f9722a3daafe3b4186f6b6457e08280a380f35b50346101b357806003193601126101b357602060fd54604051908152f35b50346101b357806003193601126101b3577f00000000000000000000000000000000000000000000000000000000000000006001600160a01b0316300361067f5760206040516000805160206120738339815191528152f35b60405162461bcd60e51b815260206004820152603860248201527f555550535570677261646561626c653a206d757374206e6f742062652063616c60448201527f6c6564207468726f7567682064656c656761746563616c6c00000000000000006064820152608490fd5b5060403660031901126101b3576106ff6119ee565b6024356001600160401b0381116109925761071e903690600401611aa3565b6107767f00000000000000000000000000000000000000000000000000000000000000006001600160a01b031661075730821415611cdf565b600080516020612073833981519152546001600160a01b031614611d40565b61077e611e3b565b7f4910fdfa16fed3260ed0e7147f7cc6da11a60208b5b9406d12a635614ffd91435460ff16156107b2575061015c90611f3c565b6040516352d1902d60e01b81526001600160a01b03831690602081600481855afa85918161095a575b5061083c5760405162461bcd60e51b815260206004820152602e60248201527f45524331393637557067726164653a206e657720696d706c656d656e7461746960448201526d6f6e206973206e6f74205555505360901b6064820152608490fd5b600080516020612073833981519152036109035761085983611f3c565b7fbc7cd75a20ee27fd9adebab32041f755214dbc6bffa90cc0225b39da2e5c2d3b8480a28051158015906108fb575b61089157505080f35b6108f7918380604051936108a6606086611a1a565b602785527f416464726573733a206c6f772d6c6576656c2064656c65676174652063616c6c6020860152660819985a5b195960ca1b6040860152602081519101845af46108f1611c97565b91611fd5565b5080f35b506001610888565b60405162461bcd60e51b815260206004820152602960248201527f45524331393637557067726164653a20756e737570706f727465642070726f786044820152681a58589b195555525160ba1b6064820152608490fd5b9091506020813d60201161098a575b8161097660209383611a1a565b81010312610986575190386107db565b8580fd5b3d9150610969565b8280fd5b50346101b35760403660031901126101b3576109b06119ee565b6109b8611a04565b82549160ff8360081c161592838094610c50575b8015610c39575b15610bdd5760ff198116600117855583610bcc575b506001600160a01b031680158015610bbb575b61039a57610a1860ff855460081c16610a1381611e93565b611e93565b610a2133611ef3565b610a4860ff855460081c16610a3581611e93565b610a3e81611e93565b6001606555611e93565b6001600160601b0360a01b60fb54161760fb55601960a21b9060018060a01b031669ffffffffffffffffffff60b01b60fc5416171760fc55600160fd55601a825261010060205260408220600160ff1982541617905561a4ec825261010060205260408220600160ff19825416179055606d825261010060205260408220600160ff1982541617905561aef3825261010060205260408220600160ff1982541617905562013882825261010060205260408220600160ff19825416179055602a604051691d1bdd58d85b97d898dd60b21b815260ff600a82015220600160ff19825416179055602a604051691d1bdd58d85b97db98dd60b21b815260ff600a82015220600160ff198254161790556029604051681adb1a5b5857d898dd60ba1b815260ff600982015220600160ff19825416179055610b845780f35b61ff001981541681557f7f26b83ff96e1f2b6a682f133852f6798a09c465da95921460cefb3847402498602060405160018152a180f35b506001600160a01b038216156109fb565b61ffff1916610101178455386109e8565b60405162461bcd60e51b815260206004820152602e60248201527f496e697469616c697a61626c653a20636f6e747261637420697320616c72656160448201526d191e481a5b9a5d1a585b1a5e995960921b6064820152608490fd5b50303b1580156109d35750600160ff8216146109d3565b50600160ff8216106109cc565b50346101b357806003193601126101b35760fc546040516001600160a01b039091168152602090f35b5060c03660031901126101b357600435801515810361115f576024356044359163ffffffff831680840361115b576064356001600160401b03811161098657610cd390369060040161199f565b90916084359460018060a01b0386168096036111575760a4356001600160401b03811161115357610d0890369060040161199f565b9091610d12611de5565b801561114457838a5261010060205260ff60408b205416156111355760ff60405186888237602081888101848152030190205416156111265787156111175786156110fb5760fc546040516323b872dd60e01b81523360048201523060248201526044810183905290602090829060649082908f906001600160a01b03165af180156110f0576110d3575b50955b61ffff60fc5460a01c168088029088820414881517156110bf57612710610dc991048098611da1565b9660fd54996000198b146110ab5760018b810160fd558b8d5260fe60205260408d2080546001600160a01b031916331781559081018a905560028101805463ffffffff191688179055600381016001600160401b03891161109757888e610e3a82610e348554611ac1565b85611c45565b80601f831160011461102a579180610e6b9260049695949161101f575b508160011b916000199060031b1c19161790565b90555b018a6001600160601b0360a01b825416179055604051918b602084015233604084015289606084015260a06080840152610ec483610eb060c082018b8d611dc4565b8d60a083015203601f198101855284611a1a565b61ffff87116110105760fb548d95946001600160a01b0390911693929190156110075750610ef3855b34611da1565b9060405192610f03602085611a1a565b868452843b156110035761ffff93610f57610f7592610f456040519b8c9a8b998a9862c5803160e81b8a5216600489015260c0602489015260c4880191611dc4565b85810360031901604487015290611bc2565b903360648501528860848501526003198483030160a4850152611bc2565b03925af18015610ff85792610fcf926020997fa7cfcc5eadf5513b4356586e166b2a71decfcd5cf6d953f8b020a708c69f3f5296938a9896610fe8575b505060405194855289850152608060408501526080840191611dc4565b9360608201528033940390a36001606555604051908152f35b81610ff291611a1a565b38610fb2565b6040513d8a823e3d90fd5b8680fd5b610ef390610eed565b63057f3fa760e51b8d5260048dfd5b90508d013538610e57565b908c949392601f1981168484526020842093965b8188106110795750600496501061105f575b505060018a811b019055610e6e565b8c013560001960038d901b60f8161c191690553880611050565b8301358455602096870196600190940193909201918d91508e61103e565b634e487b7160e01b8e52604160045260248efd5b634e487b7160e01b8c52601160045260248cfd5b634e487b7160e01b8b52601160045260248bfd5b6110eb9060203d602011610388576103798183611a1a565b610d9d565b6040513d8d823e3d90fd5b3403611108573495610da0565b63044044a560e21b8952600489fd5b63d92e233d60e01b8a5260048afd5b633bf9b3a960e01b8a5260048afd5b63057f3fa760e51b8a5260048afd5b631f2a200560e01b8a5260048afd5b8880fd5b8780fd5b8480fd5b5080fd5b50346101b35760203660031901126101b35761117d6119ee565b6111b67f00000000000000000000000000000000000000000000000000000000000000006001600160a01b031661075730821415611cdf565b6111be611e3b565b6020906040516111ce8382611a1a565b83815282810190601f1984013683377f4910fdfa16fed3260ed0e7147f7cc6da11a60208b5b9406d12a635614ffd91435460ff161561121357505061015c9150611f3c565b6040516352d1902d60e01b81529192916001600160a01b038316908581600481855afa8791816113d3575b5061129f5760405162461bcd60e51b815260048101879052602e60248201527f45524331393637557067726164653a206e657720696d706c656d656e7461746960448201526d6f6e206973206e6f74205555505360901b6064820152608490fd5b9394937fc9f76b5ec45e5cdef99837d7b6d2467235c1df8933c8ca56df5c35afa2c7d4440161137c579085916112d484611f3c565b7fbc7cd75a20ee27fd9adebab32041f755214dbc6bffa90cc0225b39da2e5c2d3b8380a2805115801590611375575b611310575b505050505080f35b61136a9482917f416464726573733a206c6f772d6c6576656c2064656c65676174652063616c6c60405196611346606089611a1a565b60278852870152660819985a5b195960ca1b60408701525190845af46108f1611c97565b503880808381611308565b5081611303565b60405162461bcd60e51b815260048101859052602960248201527f45524331393637557067726164653a20756e737570706f727465642070726f786044820152681a58589b195555525160ba1b6064820152608490fd5b9091508681813d83116113fb575b6113eb8183611a1a565b810103126111575751903861123e565b503d6113e1565b50346101b35760403660031901126101b3576004356001600160401b03811161115f5761143661015c91369060040161199f565b60206114406119df565b92611449611e3b565b826040519384928337810160ff8152030190209060ff801983541691151516179055565b50346101b357806003193601126101b357602061ffff60fc5460a01c16604051908152f35b50346101b35760203660031901126101b35760ff604060209263ffffffff6114b86119cc565b16815261010084522054166040519015158152f35b50346101b35760203660031901126101b3576004356001600160a01b03811690818103610992576114fc611e3b565b611504611de5565b8115611665578247928380611647575b505060fc546040516370a0823160e01b815230600482015291506001600160a01b0316602082602481845afa91821561038f578592611613575b50816115b7575b5082018092116115a357604080516001600160a01b03909216825260208201929092527fc0819c13be868895eb93e40eaceb96de976442fa1d404e5c55f14bb65a8c489a91819081016102e7565b634e487b7160e01b83526011600452602483fd5b60405163a9059cbb60e01b81526001600160a01b038416600482015260248101839052906020908290604490829089905af1801561038f57156115555761160c9060203d602011610388576103798183611a1a565b5038611555565b9091506020813d60201161163f575b8161162f60209383611a1a565b8101031261115b5751903861154e565b3d9150611622565b8280929181925af1611657611c97565b50156102f257823883611514565b63d92e233d60e01b8352600483fd5b50346101b35760203660031901126101b35761168e611989565b611696611e3b565b61ffff8116906103e882116116f35760fc805461ffff60a01b191660a09290921b61ffff60a01b169190911790556040519081527fcbefe12795a171d23fc26333ec4f03a7478bae6ec54d70e18ff15ebca679407c90602090a180f35b60405162461bcd60e51b815260206004820152600c60248201526b08ccaca40e8dede40d0d2ced60a31b6044820152606490fd5b50346101b35760803660031901126101b357611741611989565b6024356001600160401b0381116109925761176090369060040161199f565b50506044356001600160401b0381160361115f576064356001600160401b0381116109925761179390369060040161199f565b60fb546001600160a01b0316330361197a576117ad611de5565b8101906040818303126119765780359160208201356001600160401b038111610986576117da9201611aa3565b9181845260fe602052604084209260048401805460ff8160a01c166119675760ff60a01b1916600160a01b179055805160058501906001600160401b038111611953576118318161182b8454611ac1565b84611c45565b6020601f82116001146118cf57817f57d96c9df35fae908a950f11bb652ddf1cf058b9718b06d296255e362fecad5195949392611882928a916118c457508160011b916000199060031b1c19161790565b90555b6118b96001808060a01b038754169601549161ffff6040519485948552166020840152606060408401526060830190611bc2565b0390a3600160655580f35b905084015138610e57565b82885280882090601f198316895b81811061193b57509183917f57d96c9df35fae908a950f11bb652ddf1cf058b9718b06d296255e362fecad519796959460019410611922575b5050811b019055611885565b85015160001960f88460031b161c191690553880611916565b9192602060018192868a0151815501940192016118dd565b634e487b7160e01b87526041600452602487fd5b63195332a560e01b8752600487fd5b8380fd5b630d87ef6d60e41b8452600484fd5b6004359061ffff8216820361199a57565b600080fd5b9181601f8401121561199a578235916001600160401b03831161199a576020838186019501011161199a57565b6004359063ffffffff8216820361199a57565b60243590811515820361199a57565b600435906001600160a01b038216820361199a57565b602435906001600160a01b038216820361199a57565b90601f801991011681019081106001600160401b03821117611a3b57604052565b634e487b7160e01b600052604160045260246000fd5b6001600160401b038111611a3b57601f01601f191660200190565b929192611a7882611a51565b91611a866040519384611a1a565b82948184528183011161199a578281602093846000960137010152565b9080601f8301121561199a57816020611abe93359101611a6c565b90565b90600182811c92168015611af1575b6020831014611adb57565b634e487b7160e01b600052602260045260246000fd5b91607f1691611ad0565b9060405191826000825492611b0f84611ac1565b8084529360018116908115611b7d5750600114611b36575b50611b3492500383611a1a565b565b90506000929192526020600020906000915b818310611b61575050906020611b349282010138611b27565b6020919350806001915483858901015201910190918492611b48565b905060209250611b3494915060ff191682840152151560051b82010138611b27565b60005b838110611bb25750506000910152565b8181015183820152602001611ba2565b90602091611bdb81518092818552858086019101611b9f565b601f01601f1916010190565b9390611abe97959693611c209363ffffffff9260018060a01b03168752602087015216604085015260e0606085015260e0840190611bc2565b6001600160a01b039094166080830152151560a082015280830360c090910152611bc2565b601f8211611c5257505050565b6000526020600020906020601f840160051c83019310611c8d575b601f0160051c01905b818110611c81575050565b60008155600101611c76565b9091508190611c6d565b3d15611cc2573d90611ca882611a51565b91611cb66040519384611a1a565b82523d6000602084013e565b606090565b9081602091031261199a5751801515810361199a5790565b15611ce657565b60405162461bcd60e51b815260206004820152602c60248201527f46756e6374696f6e206d7573742062652063616c6c6564207468726f7567682060448201526b19195b1959d85d1958d85b1b60a21b6064820152608490fd5b15611d4757565b60405162461bcd60e51b815260206004820152602c60248201527f46756e6374696f6e206d7573742062652063616c6c6564207468726f7567682060448201526b6163746976652070726f787960a01b6064820152608490fd5b91908203918211611dae57565b634e487b7160e01b600052601160045260246000fd5b908060209392818452848401376000828201840152601f01601f1916010190565b600260655414611df6576002606555565b60405162461bcd60e51b815260206004820152601f60248201527f5265656e7472616e637947756172643a207265656e7472616e742063616c6c006044820152606490fd5b6033546001600160a01b03163303611e4f57565b606460405162461bcd60e51b815260206004820152602060248201527f4f776e61626c653a2063616c6c6572206973206e6f7420746865206f776e65726044820152fd5b15611e9a57565b60405162461bcd60e51b815260206004820152602b60248201527f496e697469616c697a61626c653a20636f6e7472616374206973206e6f74206960448201526a6e697469616c697a696e6760a81b6064820152608490fd5b603380546001600160a01b039283166001600160a01b0319821681179092559091167f8be0079c531659141344cd1fd0a4f28419497f9722a3daafe3b4186f6b6457e0600080a3565b803b15611f7a5760018060a01b03166001600160601b0360a01b60008051602061207383398151915254161760008051602061207383398151915255565b60405162461bcd60e51b815260206004820152602d60248201527f455243313936373a206e657720696d706c656d656e746174696f6e206973206e60448201526c1bdd08184818dbdb9d1c9858dd609a1b6064820152608490fd5b919290156120375750815115611fe9575090565b3b15611ff25790565b60405162461bcd60e51b815260206004820152601d60248201527f416464726573733a2063616c6c20746f206e6f6e2d636f6e74726163740000006044820152606490fd5b82519091501561204a5750805190602001fd5b60405162461bcd60e51b81526020600482015290819061206e906024830190611bc2565b0390fdfe360894a13ba1a3210667c828492db98dca3e2076cc3735a920a3ca505d382bbca2646970667358221220351f673d3fa0572569045e85d09b41180cb38f188f6646349589cf9398d0293264736f6c634300081c0033","opcodes":"PUSH1 0xA0 DUP1 PUSH1 0x40 MSTORE CALLVALUE PUSH1 0x30 JUMPI ADDRESS PUSH1 0x80 MSTORE PUSH2 0x20C8 SWAP1 DUP2 PUSH2 0x36 DUP3 CODECOPY PUSH1 0x80 MLOAD DUP2 DUP2 DUP2 PUSH2 0x639 ADD MSTORE DUP2 DUP2 PUSH2 0x723 ADD MSTORE PUSH2 0x1182 ADD MSTORE RETURN JUMPDEST PUSH1 0x0 DUP1 REVERT INVALID PUSH1 0x80 PUSH1 0x40 MSTORE PUSH1 0x4 CALLDATASIZE LT ISZERO PUSH2 0x1B JUMPI JUMPDEST CALLDATASIZE ISZERO PUSH2 0x19 JUMPI PUSH1 0x0 DUP1 REVERT JUMPDEST STOP JUMPDEST PUSH1 0x0 DUP1 CALLDATALOAD PUSH1 0xE0 SHR DUP1 PUSH3 0x1D3567 EQ PUSH2 0x1727 JUMPI DUP1 PUSH4 0x23B1FC9 EQ PUSH2 0x1674 JUMPI DUP1 PUSH4 0x164E68DE EQ PUSH2 0x14CD JUMPI DUP1 PUSH4 0x248514DD EQ PUSH2 0x1492 JUMPI DUP1 PUSH4 0x24A9D853 EQ PUSH2 0x146D JUMPI DUP1 PUSH4 0x26F99EA6 EQ PUSH2 0x1402 JUMPI DUP1 PUSH4 0x3659CFE6 EQ PUSH2 0x1163 JUMPI DUP1 PUSH4 0x3AEA909D EQ PUSH2 0xC86 JUMPI DUP1 PUSH4 0x3E413BEE EQ PUSH2 0xC5D JUMPI DUP1 PUSH4 0x485CC955 EQ PUSH2 0x996 JUMPI DUP1 PUSH4 0x4F1EF286 EQ PUSH2 0x6EA JUMPI DUP1 PUSH4 0x52D1902D EQ PUSH2 0x626 JUMPI DUP1 PUSH4 0x6A84A985 EQ PUSH2 0x608 JUMPI DUP1 PUSH4 0x715018A6 EQ PUSH2 0x5AB JUMPI DUP1 PUSH4 0x81D12C58 EQ PUSH2 0x54E JUMPI DUP1 PUSH4 0x8DA5CB5B EQ PUSH2 0x525 JUMPI DUP1 PUSH4 0x8FBBB557 EQ PUSH2 0x4D4 JUMPI DUP1 PUSH4 0xB353AAA7 EQ PUSH2 0x4AB JUMPI DUP1 PUSH4 0xC58343EF EQ PUSH2 0x42B JUMPI DUP1 PUSH4 0xDBBB4155 EQ PUSH2 0x3A9 JUMPI DUP1 PUSH4 0xE63EA408 EQ PUSH2 0x227 JUMPI DUP1 PUSH4 0xEF47829E EQ PUSH2 0x1B6 JUMPI PUSH4 0xF2FDE38B EQ PUSH2 0x123 JUMPI POP PUSH2 0xE JUMP JUMPDEST CALLVALUE PUSH2 0x1B3 JUMPI PUSH1 0x20 CALLDATASIZE PUSH1 0x3 NOT ADD SLT PUSH2 0x1B3 JUMPI PUSH2 0x13C PUSH2 0x19EE JUMP JUMPDEST PUSH2 0x144 PUSH2 0x1E3B JUMP JUMPDEST PUSH1 0x1 PUSH1 0x1 PUSH1 0xA0 SHL SUB DUP2 AND ISZERO PUSH2 0x15F JUMPI PUSH2 0x15C SWAP1 PUSH2 0x1EF3 JUMP JUMPDEST DUP1 RETURN JUMPDEST PUSH1 0x40 MLOAD PUSH3 0x461BCD PUSH1 0xE5 SHL DUP2 MSTORE PUSH1 0x20 PUSH1 0x4 DUP3 ADD MSTORE PUSH1 0x26 PUSH1 0x24 DUP3 ADD MSTORE PUSH32 0x4F776E61626C653A206E6577206F776E657220697320746865207A65726F2061 PUSH1 0x44 DUP3 ADD MSTORE PUSH6 0x646472657373 PUSH1 0xD0 SHL PUSH1 0x64 DUP3 ADD MSTORE PUSH1 0x84 SWAP1 REVERT JUMPDEST DUP1 REVERT JUMPDEST POP CALLVALUE PUSH2 0x1B3 JUMPI PUSH1 0x20 CALLDATASIZE PUSH1 0x3 NOT ADD SLT PUSH2 0x1B3 JUMPI PUSH1 0x4 CALLDATALOAD SWAP1 PUSH1 0x1 PUSH1 0x1 PUSH1 0x40 SHL SUB DUP3 GT PUSH2 0x1B3 JUMPI CALLDATASIZE PUSH1 0x23 DUP4 ADD SLT ISZERO PUSH2 0x1B3 JUMPI PUSH1 0x20 PUSH1 0xFF PUSH2 0x212 DUP3 PUSH2 0x1FF CALLDATASIZE PUSH1 0x4 DUP9 ADD CALLDATALOAD PUSH1 0x24 DUP10 ADD PUSH2 0x1A6C JUMP JUMPDEST DUP2 PUSH1 0x40 MLOAD SWAP4 DUP3 DUP6 DUP1 SWAP5 MLOAD SWAP4 DUP5 SWAP3 ADD PUSH2 0x1B9F JUMP JUMPDEST DUP2 ADD DUP5 DUP2 MSTORE SUB ADD SWAP1 KECCAK256 SLOAD AND PUSH1 0x40 MLOAD SWAP1 ISZERO ISZERO DUP2 MSTORE RETURN JUMPDEST POP CALLVALUE PUSH2 0x1B3 JUMPI PUSH1 0x60 CALLDATASIZE PUSH1 0x3 NOT ADD SLT PUSH2 0x1B3 JUMPI PUSH2 0x241 PUSH2 0x19EE JUMP JUMPDEST SWAP1 PUSH2 0x24A PUSH2 0x1A04 JUMP JUMPDEST PUSH1 0x44 CALLDATALOAD SWAP3 PUSH2 0x256 PUSH2 0x1E3B JUMP JUMPDEST PUSH2 0x25E PUSH2 0x1DE5 JUMP JUMPDEST PUSH1 0x1 PUSH1 0x1 PUSH1 0xA0 SHL SUB DUP3 AND DUP1 ISZERO PUSH2 0x39A JUMPI PUSH1 0x1 PUSH1 0x1 PUSH1 0xA0 SHL SUB DUP3 AND SWAP1 DUP2 PUSH2 0x301 JUMPI POP POP DUP3 DUP1 DUP1 DUP1 DUP8 DUP7 GAS CALL PUSH2 0x290 PUSH2 0x1C97 JUMP JUMPDEST POP ISZERO PUSH2 0x2F2 JUMPI PUSH2 0x2E7 PUSH32 0x457E4FE0C9F161A0C6F3BFB8D7809A4AC19F6291BD81B03B86B0D00F9AF3717B SWAP4 SWAP5 JUMPDEST PUSH1 0x40 DUP1 MLOAD PUSH1 0x1 PUSH1 0x1 PUSH1 0xA0 SHL SUB SWAP5 DUP6 AND DUP2 MSTORE SWAP5 SWAP1 SWAP4 AND PUSH1 0x20 DUP6 ADD MSTORE SWAP2 DUP4 ADD SWAP2 SWAP1 SWAP2 MSTORE DUP2 SWAP1 PUSH1 0x60 DUP3 ADD SWAP1 JUMP JUMPDEST SUB SWAP1 LOG1 PUSH1 0x1 PUSH1 0x65 SSTORE DUP1 RETURN JUMPDEST PUSH4 0x12171D83 PUSH1 0xE3 SHL DUP4 MSTORE PUSH1 0x4 DUP4 REVERT JUMPDEST DUP5 SWAP6 SWAP2 PUSH1 0x44 PUSH1 0x20 SWAP3 PUSH1 0x40 MLOAD SWAP8 DUP9 SWAP4 DUP5 SWAP3 PUSH4 0xA9059CBB PUSH1 0xE0 SHL DUP5 MSTORE PUSH1 0x4 DUP5 ADD MSTORE DUP7 PUSH1 0x24 DUP5 ADD MSTORE GAS CALL SWAP1 DUP2 ISZERO PUSH2 0x38F JUMPI PUSH32 0x457E4FE0C9F161A0C6F3BFB8D7809A4AC19F6291BD81B03B86B0D00F9AF3717B SWAP5 PUSH2 0x2E7 SWAP3 PUSH2 0x360 JUMPI JUMPDEST POP PUSH2 0x2BD JUMP JUMPDEST PUSH2 0x381 SWAP1 PUSH1 0x20 RETURNDATASIZE PUSH1 0x20 GT PUSH2 0x388 JUMPI JUMPDEST PUSH2 0x379 DUP2 DUP4 PUSH2 0x1A1A JUMP JUMPDEST DUP2 ADD SWAP1 PUSH2 0x1CC7 JUMP JUMPDEST POP CODESIZE PUSH2 0x35A JUMP JUMPDEST POP RETURNDATASIZE PUSH2 0x36F JUMP JUMPDEST PUSH1 0x40 MLOAD RETURNDATASIZE DUP8 DUP3 RETURNDATACOPY RETURNDATASIZE SWAP1 REVERT JUMPDEST PUSH4 0xD92E233D PUSH1 0xE0 SHL DUP5 MSTORE PUSH1 0x4 DUP5 REVERT JUMPDEST POP CALLVALUE PUSH2 0x1B3 JUMPI PUSH1 0x20 CALLDATASIZE PUSH1 0x3 NOT ADD SLT PUSH2 0x1B3 JUMPI PUSH2 0x3C3 PUSH2 0x19EE JUMP JUMPDEST PUSH2 0x3CB PUSH2 0x1E3B JUMP JUMPDEST PUSH1 0x1 PUSH1 0x1 PUSH1 0xA0 SHL SUB AND DUP1 ISZERO PUSH2 0x41C JUMPI PUSH1 0x20 DUP2 PUSH32 0xFBF944E82135F40E35842CCFA29DAB42B6EC33F81D6E8DF4BDCB7DAB0FE72E0C SWAP3 PUSH1 0x1 PUSH1 0x1 PUSH1 0x60 SHL SUB PUSH1 0xA0 SHL PUSH1 0xFB SLOAD AND OR PUSH1 0xFB SSTORE PUSH1 0x40 MLOAD SWAP1 DUP2 MSTORE LOG1 DUP1 RETURN JUMPDEST PUSH4 0xD92E233D PUSH1 0xE0 SHL DUP3 MSTORE PUSH1 0x4 DUP3 REVERT JUMPDEST POP CALLVALUE PUSH2 0x1B3 JUMPI PUSH1 0x20 CALLDATASIZE PUSH1 0x3 NOT ADD SLT PUSH2 0x1B3 JUMPI PUSH1 0x40 SWAP1 PUSH1 0x4 CALLDATALOAD DUP2 MSTORE PUSH1 0xFE PUSH1 0x20 MSTORE KECCAK256 PUSH1 0x1 DUP1 PUSH1 0xA0 SHL SUB DUP2 SLOAD AND SWAP1 PUSH2 0x4A7 PUSH1 0x1 DUP3 ADD SLOAD SWAP2 PUSH4 0xFFFFFFFF PUSH1 0x2 DUP3 ADD SLOAD AND SWAP4 PUSH1 0x4 DUP3 ADD SLOAD SWAP1 PUSH2 0x489 PUSH1 0x5 PUSH2 0x482 PUSH1 0x3 DUP7 ADD PUSH2 0x1AFB JUMP JUMPDEST SWAP5 ADD PUSH2 0x1AFB JUMP JUMPDEST SWAP3 PUSH1 0x40 MLOAD SWAP7 DUP8 SWAP7 PUSH1 0xFF DUP6 PUSH1 0xA0 SHR AND SWAP5 PUSH1 0x1 DUP1 PUSH1 0xA0 SHL SUB AND SWAP4 DUP9 PUSH2 0x1BE7 JUMP JUMPDEST SUB SWAP1 RETURN JUMPDEST POP CALLVALUE PUSH2 0x1B3 JUMPI DUP1 PUSH1 0x3 NOT CALLDATASIZE ADD SLT PUSH2 0x1B3 JUMPI PUSH1 0xFB SLOAD PUSH1 0x40 MLOAD PUSH1 0x1 PUSH1 0x1 PUSH1 0xA0 SHL SUB SWAP1 SWAP2 AND DUP2 MSTORE PUSH1 0x20 SWAP1 RETURN JUMPDEST POP CALLVALUE PUSH2 0x1B3 JUMPI PUSH1 0x40 CALLDATASIZE PUSH1 0x3 NOT ADD SLT PUSH2 0x1B3 JUMPI PUSH2 0x15C PUSH2 0x4F1 PUSH2 0x19CC JUMP JUMPDEST PUSH4 0xFFFFFFFF PUSH2 0x4FE PUSH2 0x19DF JUMP JUMPDEST SWAP2 PUSH2 0x507 PUSH2 0x1E3B JUMP JUMPDEST AND DUP4 MSTORE PUSH2 0x100 PUSH1 0x20 MSTORE PUSH1 0x40 DUP4 KECCAK256 SWAP1 PUSH1 0xFF DUP1 NOT DUP4 SLOAD AND SWAP2 ISZERO ISZERO AND OR SWAP1 SSTORE JUMP JUMPDEST POP CALLVALUE PUSH2 0x1B3 JUMPI DUP1 PUSH1 0x3 NOT CALLDATASIZE ADD SLT PUSH2 0x1B3 JUMPI PUSH1 0x33 SLOAD PUSH1 0x40 MLOAD PUSH1 0x1 PUSH1 0x1 PUSH1 0xA0 SHL SUB SWAP1 SWAP2 AND DUP2 MSTORE PUSH1 0x20 SWAP1 RETURN JUMPDEST POP CALLVALUE PUSH2 0x1B3 JUMPI PUSH1 0x20 CALLDATASIZE PUSH1 0x3 NOT ADD SLT PUSH2 0x1B3 JUMPI PUSH1 0x40 SWAP1 PUSH1 0x4 CALLDATALOAD DUP2 MSTORE PUSH1 0xFE PUSH1 0x20 MSTORE KECCAK256 PUSH1 0x1 DUP1 PUSH1 0xA0 SHL SUB DUP2 SLOAD AND PUSH2 0x4A7 PUSH1 0x1 DUP4 ADD SLOAD SWAP2 PUSH4 0xFFFFFFFF PUSH1 0x2 DUP6 ADD SLOAD AND SWAP4 PUSH2 0x599 PUSH1 0x3 DUP3 ADD PUSH2 0x1AFB JUMP JUMPDEST SWAP2 PUSH2 0x489 PUSH1 0x5 PUSH1 0x4 DUP5 ADD SLOAD SWAP4 ADD PUSH2 0x1AFB JUMP JUMPDEST POP CALLVALUE PUSH2 0x1B3 JUMPI DUP1 PUSH1 0x3 NOT CALLDATASIZE ADD SLT PUSH2 0x1B3 JUMPI PUSH2 0x5C4 PUSH2 0x1E3B JUMP JUMPDEST PUSH1 0x33 DUP1 SLOAD PUSH1 0x1 PUSH1 0x1 PUSH1 0xA0 SHL SUB NOT DUP2 AND SWAP1 SWAP2 SSTORE DUP2 SWAP1 PUSH1 0x1 PUSH1 0x1 PUSH1 0xA0 SHL SUB AND PUSH32 0x8BE0079C531659141344CD1FD0A4F28419497F9722A3DAAFE3B4186F6B6457E0 DUP3 DUP1 LOG3 DUP1 RETURN JUMPDEST POP CALLVALUE PUSH2 0x1B3 JUMPI DUP1 PUSH1 0x3 NOT CALLDATASIZE ADD SLT PUSH2 0x1B3 JUMPI PUSH1 0x20 PUSH1 0xFD SLOAD PUSH1 0x40 MLOAD SWAP1 DUP2 MSTORE RETURN JUMPDEST POP CALLVALUE PUSH2 0x1B3 JUMPI DUP1 PUSH1 0x3 NOT CALLDATASIZE ADD SLT PUSH2 0x1B3 JUMPI PUSH32 0x0 PUSH1 0x1 PUSH1 0x1 PUSH1 0xA0 SHL SUB AND ADDRESS SUB PUSH2 0x67F JUMPI PUSH1 0x20 PUSH1 0x40 MLOAD PUSH1 0x0 DUP1 MLOAD PUSH1 0x20 PUSH2 0x2073 DUP4 CODECOPY DUP2 MLOAD SWAP2 MSTORE DUP2 MSTORE RETURN JUMPDEST PUSH1 0x40 MLOAD PUSH3 0x461BCD PUSH1 0xE5 SHL DUP2 MSTORE PUSH1 0x20 PUSH1 0x4 DUP3 ADD MSTORE PUSH1 0x38 PUSH1 0x24 DUP3 ADD MSTORE PUSH32 0x555550535570677261646561626C653A206D757374206E6F742062652063616C PUSH1 0x44 DUP3 ADD MSTORE PUSH32 0x6C6564207468726F7567682064656C656761746563616C6C0000000000000000 PUSH1 0x64 DUP3 ADD MSTORE PUSH1 0x84 SWAP1 REVERT JUMPDEST POP PUSH1 0x40 CALLDATASIZE PUSH1 0x3 NOT ADD SLT PUSH2 0x1B3 JUMPI PUSH2 0x6FF PUSH2 0x19EE JUMP JUMPDEST PUSH1 0x24 CALLDATALOAD PUSH1 0x1 PUSH1 0x1 PUSH1 0x40 SHL SUB DUP2 GT PUSH2 0x992 JUMPI PUSH2 0x71E SWAP1 CALLDATASIZE SWAP1 PUSH1 0x4 ADD PUSH2 0x1AA3 JUMP JUMPDEST PUSH2 0x776 PUSH32 0x0 PUSH1 0x1 PUSH1 0x1 PUSH1 0xA0 SHL SUB AND PUSH2 0x757 ADDRESS DUP3 EQ ISZERO PUSH2 0x1CDF JUMP JUMPDEST PUSH1 0x0 DUP1 MLOAD PUSH1 0x20 PUSH2 0x2073 DUP4 CODECOPY DUP2 MLOAD SWAP2 MSTORE SLOAD PUSH1 0x1 PUSH1 0x1 PUSH1 0xA0 SHL SUB AND EQ PUSH2 0x1D40 JUMP JUMPDEST PUSH2 0x77E PUSH2 0x1E3B JUMP JUMPDEST PUSH32 0x4910FDFA16FED3260ED0E7147F7CC6DA11A60208B5B9406D12A635614FFD9143 SLOAD PUSH1 0xFF AND ISZERO PUSH2 0x7B2 JUMPI POP PUSH2 0x15C SWAP1 PUSH2 0x1F3C JUMP JUMPDEST PUSH1 0x40 MLOAD PUSH4 0x52D1902D PUSH1 0xE0 SHL DUP2 MSTORE PUSH1 0x1 PUSH1 0x1 PUSH1 0xA0 SHL SUB DUP4 AND SWAP1 PUSH1 0x20 DUP2 PUSH1 0x4 DUP2 DUP6 GAS STATICCALL DUP6 SWAP2 DUP2 PUSH2 0x95A JUMPI JUMPDEST POP PUSH2 0x83C JUMPI PUSH1 0x40 MLOAD PUSH3 0x461BCD PUSH1 0xE5 SHL DUP2 MSTORE PUSH1 0x20 PUSH1 0x4 DUP3 ADD MSTORE PUSH1 0x2E PUSH1 0x24 DUP3 ADD MSTORE PUSH32 0x45524331393637557067726164653A206E657720696D706C656D656E74617469 PUSH1 0x44 DUP3 ADD MSTORE PUSH14 0x6F6E206973206E6F742055555053 PUSH1 0x90 SHL PUSH1 0x64 DUP3 ADD MSTORE PUSH1 0x84 SWAP1 REVERT JUMPDEST PUSH1 0x0 DUP1 MLOAD PUSH1 0x20 PUSH2 0x2073 DUP4 CODECOPY DUP2 MLOAD SWAP2 MSTORE SUB PUSH2 0x903 JUMPI PUSH2 0x859 DUP4 PUSH2 0x1F3C JUMP JUMPDEST PUSH32 0xBC7CD75A20EE27FD9ADEBAB32041F755214DBC6BFFA90CC0225B39DA2E5C2D3B DUP5 DUP1 LOG2 DUP1 MLOAD ISZERO DUP1 ISZERO SWAP1 PUSH2 0x8FB JUMPI JUMPDEST PUSH2 0x891 JUMPI POP POP DUP1 RETURN JUMPDEST PUSH2 0x8F7 SWAP2 DUP4 DUP1 PUSH1 0x40 MLOAD SWAP4 PUSH2 0x8A6 PUSH1 0x60 DUP7 PUSH2 0x1A1A JUMP JUMPDEST PUSH1 0x27 DUP6 MSTORE PUSH32 0x416464726573733A206C6F772D6C6576656C2064656C65676174652063616C6C PUSH1 0x20 DUP7 ADD MSTORE PUSH7 0x819985A5B1959 PUSH1 0xCA SHL PUSH1 0x40 DUP7 ADD MSTORE PUSH1 0x20 DUP2 MLOAD SWAP2 ADD DUP5 GAS DELEGATECALL PUSH2 0x8F1 PUSH2 0x1C97 JUMP JUMPDEST SWAP2 PUSH2 0x1FD5 JUMP JUMPDEST POP DUP1 RETURN JUMPDEST POP PUSH1 0x1 PUSH2 0x888 JUMP JUMPDEST PUSH1 0x40 MLOAD PUSH3 0x461BCD PUSH1 0xE5 SHL DUP2 MSTORE PUSH1 0x20 PUSH1 0x4 DUP3 ADD MSTORE PUSH1 0x29 PUSH1 0x24 DUP3 ADD MSTORE PUSH32 0x45524331393637557067726164653A20756E737570706F727465642070726F78 PUSH1 0x44 DUP3 ADD MSTORE PUSH9 0x1A58589B1955555251 PUSH1 0xBA SHL PUSH1 0x64 DUP3 ADD MSTORE PUSH1 0x84 SWAP1 REVERT JUMPDEST SWAP1 SWAP2 POP PUSH1 0x20 DUP2 RETURNDATASIZE PUSH1 0x20 GT PUSH2 0x98A JUMPI JUMPDEST DUP2 PUSH2 0x976 PUSH1 0x20 SWAP4 DUP4 PUSH2 0x1A1A JUMP JUMPDEST DUP2 ADD SUB SLT PUSH2 0x986 JUMPI MLOAD SWAP1 CODESIZE PUSH2 0x7DB JUMP JUMPDEST DUP6 DUP1 REVERT JUMPDEST RETURNDATASIZE SWAP2 POP PUSH2 0x969 JUMP JUMPDEST DUP3 DUP1 REVERT JUMPDEST POP CALLVALUE PUSH2 0x1B3 JUMPI PUSH1 0x40 CALLDATASIZE PUSH1 0x3 NOT ADD SLT PUSH2 0x1B3 JUMPI PUSH2 0x9B0 PUSH2 0x19EE JUMP JUMPDEST PUSH2 0x9B8 PUSH2 0x1A04 JUMP JUMPDEST DUP3 SLOAD SWAP2 PUSH1 0xFF DUP4 PUSH1 0x8 SHR AND ISZERO SWAP3 DUP4 DUP1 SWAP5 PUSH2 0xC50 JUMPI JUMPDEST DUP1 ISZERO PUSH2 0xC39 JUMPI JUMPDEST ISZERO PUSH2 0xBDD JUMPI PUSH1 0xFF NOT DUP2 AND PUSH1 0x1 OR DUP6 SSTORE DUP4 PUSH2 0xBCC JUMPI JUMPDEST POP PUSH1 0x1 PUSH1 0x1 PUSH1 0xA0 SHL SUB AND DUP1 ISZERO DUP1 ISZERO PUSH2 0xBBB JUMPI JUMPDEST PUSH2 0x39A JUMPI PUSH2 0xA18 PUSH1 0xFF DUP6 SLOAD PUSH1 0x8 SHR AND PUSH2 0xA13 DUP2 PUSH2 0x1E93 JUMP JUMPDEST PUSH2 0x1E93 JUMP JUMPDEST PUSH2 0xA21 CALLER PUSH2 0x1EF3 JUMP JUMPDEST PUSH2 0xA48 PUSH1 0xFF DUP6 SLOAD PUSH1 0x8 SHR AND PUSH2 0xA35 DUP2 PUSH2 0x1E93 JUMP JUMPDEST PUSH2 0xA3E DUP2 PUSH2 0x1E93 JUMP JUMPDEST PUSH1 0x1 PUSH1 0x65 SSTORE PUSH2 0x1E93 JUMP JUMPDEST PUSH1 0x1 PUSH1 0x1 PUSH1 0x60 SHL SUB PUSH1 0xA0 SHL PUSH1 0xFB SLOAD AND OR PUSH1 0xFB SSTORE PUSH1 0x19 PUSH1 0xA2 SHL SWAP1 PUSH1 0x1 DUP1 PUSH1 0xA0 SHL SUB AND PUSH10 0xFFFFFFFFFFFFFFFFFFFF PUSH1 0xB0 SHL PUSH1 0xFC SLOAD AND OR OR PUSH1 0xFC SSTORE PUSH1 0x1 PUSH1 0xFD SSTORE PUSH1 0x1A DUP3 MSTORE PUSH2 0x100 PUSH1 0x20 MSTORE PUSH1 0x40 DUP3 KECCAK256 PUSH1 0x1 PUSH1 0xFF NOT DUP3 SLOAD AND OR SWAP1 SSTORE PUSH2 0xA4EC DUP3 MSTORE PUSH2 0x100 PUSH1 0x20 MSTORE PUSH1 0x40 DUP3 KECCAK256 PUSH1 0x1 PUSH1 0xFF NOT DUP3 SLOAD AND OR SWAP1 SSTORE PUSH1 0x6D DUP3 MSTORE PUSH2 0x100 PUSH1 0x20 MSTORE PUSH1 0x40 DUP3 KECCAK256 PUSH1 0x1 PUSH1 0xFF NOT DUP3 SLOAD AND OR SWAP1 SSTORE PUSH2 0xAEF3 DUP3 MSTORE PUSH2 0x100 PUSH1 0x20 MSTORE PUSH1 0x40 DUP3 KECCAK256 PUSH1 0x1 PUSH1 0xFF NOT DUP3 SLOAD AND OR SWAP1 SSTORE PUSH3 0x13882 DUP3 MSTORE PUSH2 0x100 PUSH1 0x20 MSTORE PUSH1 0x40 DUP3 KECCAK256 PUSH1 0x1 PUSH1 0xFF NOT DUP3 SLOAD AND OR SWAP1 SSTORE PUSH1 0x2A PUSH1 0x40 MLOAD PUSH10 0x1D1BDD58D85B97D898DD PUSH1 0xB2 SHL DUP2 MSTORE PUSH1 0xFF PUSH1 0xA DUP3 ADD MSTORE KECCAK256 PUSH1 0x1 PUSH1 0xFF NOT DUP3 SLOAD AND OR SWAP1 SSTORE PUSH1 0x2A PUSH1 0x40 MLOAD PUSH10 0x1D1BDD58D85B97DB98DD PUSH1 0xB2 SHL DUP2 MSTORE PUSH1 0xFF PUSH1 0xA DUP3 ADD MSTORE KECCAK256 PUSH1 0x1 PUSH1 0xFF NOT DUP3 SLOAD AND OR SWAP1 SSTORE PUSH1 0x29 PUSH1 0x40 MLOAD PUSH9 0x1ADB1A5B5857D898DD PUSH1 0xBA SHL DUP2 MSTORE PUSH1 0xFF PUSH1 0x9 DUP3 ADD MSTORE KECCAK256 PUSH1 0x1 PUSH1 0xFF NOT DUP3 SLOAD AND OR SWAP1 SSTORE PUSH2 0xB84 JUMPI DUP1 RETURN JUMPDEST PUSH2 0xFF00 NOT DUP2 SLOAD AND DUP2 SSTORE PUSH32 0x7F26B83FF96E1F2B6A682F133852F6798A09C465DA95921460CEFB3847402498 PUSH1 0x20 PUSH1 0x40 MLOAD PUSH1 0x1 DUP2 MSTORE LOG1 DUP1 RETURN JUMPDEST POP PUSH1 0x1 PUSH1 0x1 PUSH1 0xA0 SHL SUB DUP3 AND ISZERO PUSH2 0x9FB JUMP JUMPDEST PUSH2 0xFFFF NOT AND PUSH2 0x101 OR DUP5 SSTORE CODESIZE PUSH2 0x9E8 JUMP JUMPDEST PUSH1 0x40 MLOAD PUSH3 0x461BCD PUSH1 0xE5 SHL DUP2 MSTORE PUSH1 0x20 PUSH1 0x4 DUP3 ADD MSTORE PUSH1 0x2E PUSH1 0x24 DUP3 ADD MSTORE PUSH32 0x496E697469616C697A61626C653A20636F6E747261637420697320616C726561 PUSH1 0x44 DUP3 ADD MSTORE PUSH14 0x191E481A5B9A5D1A585B1A5E9959 PUSH1 0x92 SHL PUSH1 0x64 DUP3 ADD MSTORE PUSH1 0x84 SWAP1 REVERT JUMPDEST POP ADDRESS EXTCODESIZE ISZERO DUP1 ISZERO PUSH2 0x9D3 JUMPI POP PUSH1 0x1 PUSH1 0xFF DUP3 AND EQ PUSH2 0x9D3 JUMP JUMPDEST POP PUSH1 0x1 PUSH1 0xFF DUP3 AND LT PUSH2 0x9CC JUMP JUMPDEST POP CALLVALUE PUSH2 0x1B3 JUMPI DUP1 PUSH1 0x3 NOT CALLDATASIZE ADD SLT PUSH2 0x1B3 JUMPI PUSH1 0xFC SLOAD PUSH1 0x40 MLOAD PUSH1 0x1 PUSH1 0x1 PUSH1 0xA0 SHL SUB SWAP1 SWAP2 AND DUP2 MSTORE PUSH1 0x20 SWAP1 RETURN JUMPDEST POP PUSH1 0xC0 CALLDATASIZE PUSH1 0x3 NOT ADD SLT PUSH2 0x1B3 JUMPI PUSH1 0x4 CALLDATALOAD DUP1 ISZERO ISZERO DUP2 SUB PUSH2 0x115F JUMPI PUSH1 0x24 CALLDATALOAD PUSH1 0x44 CALLDATALOAD SWAP2 PUSH4 0xFFFFFFFF DUP4 AND DUP1 DUP5 SUB PUSH2 0x115B JUMPI PUSH1 0x64 CALLDATALOAD PUSH1 0x1 PUSH1 0x1 PUSH1 0x40 SHL SUB DUP2 GT PUSH2 0x986 JUMPI PUSH2 0xCD3 SWAP1 CALLDATASIZE SWAP1 PUSH1 0x4 ADD PUSH2 0x199F JUMP JUMPDEST SWAP1 SWAP2 PUSH1 0x84 CALLDATALOAD SWAP5 PUSH1 0x1 DUP1 PUSH1 0xA0 SHL SUB DUP7 AND DUP1 SWAP7 SUB PUSH2 0x1157 JUMPI PUSH1 0xA4 CALLDATALOAD PUSH1 0x1 PUSH1 0x1 PUSH1 0x40 SHL SUB DUP2 GT PUSH2 0x1153 JUMPI PUSH2 0xD08 SWAP1 CALLDATASIZE SWAP1 PUSH1 0x4 ADD PUSH2 0x199F JUMP JUMPDEST SWAP1 SWAP2 PUSH2 0xD12 PUSH2 0x1DE5 JUMP JUMPDEST DUP1 ISZERO PUSH2 0x1144 JUMPI DUP4 DUP11 MSTORE PUSH2 0x100 PUSH1 0x20 MSTORE PUSH1 0xFF PUSH1 0x40 DUP12 KECCAK256 SLOAD AND ISZERO PUSH2 0x1135 JUMPI PUSH1 0xFF PUSH1 0x40 MLOAD DUP7 DUP9 DUP3 CALLDATACOPY PUSH1 0x20 DUP2 DUP9 DUP2 ADD DUP5 DUP2 MSTORE SUB ADD SWAP1 KECCAK256 SLOAD AND ISZERO PUSH2 0x1126 JUMPI DUP8 ISZERO PUSH2 0x1117 JUMPI DUP7 ISZERO PUSH2 0x10FB JUMPI PUSH1 0xFC SLOAD PUSH1 0x40 MLOAD PUSH4 0x23B872DD PUSH1 0xE0 SHL DUP2 MSTORE CALLER PUSH1 0x4 DUP3 ADD MSTORE ADDRESS PUSH1 0x24 DUP3 ADD MSTORE PUSH1 0x44 DUP2 ADD DUP4 SWAP1 MSTORE SWAP1 PUSH1 0x20 SWAP1 DUP3 SWAP1 PUSH1 0x64 SWAP1 DUP3 SWAP1 DUP16 SWAP1 PUSH1 0x1 PUSH1 0x1 PUSH1 0xA0 SHL SUB AND GAS CALL DUP1 ISZERO PUSH2 0x10F0 JUMPI PUSH2 0x10D3 JUMPI JUMPDEST POP SWAP6 JUMPDEST PUSH2 0xFFFF PUSH1 0xFC SLOAD PUSH1 0xA0 SHR AND DUP1 DUP9 MUL SWAP1 DUP9 DUP3 DIV EQ DUP9 ISZERO OR ISZERO PUSH2 0x10BF JUMPI PUSH2 0x2710 PUSH2 0xDC9 SWAP2 DIV DUP1 SWAP9 PUSH2 0x1DA1 JUMP JUMPDEST SWAP7 PUSH1 0xFD SLOAD SWAP10 PUSH1 0x0 NOT DUP12 EQ PUSH2 0x10AB JUMPI PUSH1 0x1 DUP12 DUP2 ADD PUSH1 0xFD SSTORE DUP12 DUP14 MSTORE PUSH1 0xFE PUSH1 0x20 MSTORE PUSH1 0x40 DUP14 KECCAK256 DUP1 SLOAD PUSH1 0x1 PUSH1 0x1 PUSH1 0xA0 SHL SUB NOT AND CALLER OR DUP2 SSTORE SWAP1 DUP2 ADD DUP11 SWAP1 SSTORE PUSH1 0x2 DUP2 ADD DUP1 SLOAD PUSH4 0xFFFFFFFF NOT AND DUP9 OR SWAP1 SSTORE PUSH1 0x3 DUP2 ADD PUSH1 0x1 PUSH1 0x1 PUSH1 0x40 SHL SUB DUP10 GT PUSH2 0x1097 JUMPI DUP9 DUP15 PUSH2 0xE3A DUP3 PUSH2 0xE34 DUP6 SLOAD PUSH2 0x1AC1 JUMP JUMPDEST DUP6 PUSH2 0x1C45 JUMP JUMPDEST DUP1 PUSH1 0x1F DUP4 GT PUSH1 0x1 EQ PUSH2 0x102A JUMPI SWAP2 DUP1 PUSH2 0xE6B SWAP3 PUSH1 0x4 SWAP7 SWAP6 SWAP5 SWAP2 PUSH2 0x101F JUMPI JUMPDEST POP DUP2 PUSH1 0x1 SHL SWAP2 PUSH1 0x0 NOT SWAP1 PUSH1 0x3 SHL SHR NOT AND OR SWAP1 JUMP JUMPDEST SWAP1 SSTORE JUMPDEST ADD DUP11 PUSH1 0x1 PUSH1 0x1 PUSH1 0x60 SHL SUB PUSH1 0xA0 SHL DUP3 SLOAD AND OR SWAP1 SSTORE PUSH1 0x40 MLOAD SWAP2 DUP12 PUSH1 0x20 DUP5 ADD MSTORE CALLER PUSH1 0x40 DUP5 ADD MSTORE DUP10 PUSH1 0x60 DUP5 ADD MSTORE PUSH1 0xA0 PUSH1 0x80 DUP5 ADD MSTORE PUSH2 0xEC4 DUP4 PUSH2 0xEB0 PUSH1 0xC0 DUP3 ADD DUP12 DUP14 PUSH2 0x1DC4 JUMP JUMPDEST DUP14 PUSH1 0xA0 DUP4 ADD MSTORE SUB PUSH1 0x1F NOT DUP2 ADD DUP6 MSTORE DUP5 PUSH2 0x1A1A JUMP JUMPDEST PUSH2 0xFFFF DUP8 GT PUSH2 0x1010 JUMPI PUSH1 0xFB SLOAD DUP14 SWAP6 SWAP5 PUSH1 0x1 PUSH1 0x1 PUSH1 0xA0 SHL SUB SWAP1 SWAP2 AND SWAP4 SWAP3 SWAP2 SWAP1 ISZERO PUSH2 0x1007 JUMPI POP PUSH2 0xEF3 DUP6 JUMPDEST CALLVALUE PUSH2 0x1DA1 JUMP JUMPDEST SWAP1 PUSH1 0x40 MLOAD SWAP3 PUSH2 0xF03 PUSH1 0x20 DUP6 PUSH2 0x1A1A JUMP JUMPDEST DUP7 DUP5 MSTORE DUP5 EXTCODESIZE ISZERO PUSH2 0x1003 JUMPI PUSH2 0xFFFF SWAP4 PUSH2 0xF57 PUSH2 0xF75 SWAP3 PUSH2 0xF45 PUSH1 0x40 MLOAD SWAP12 DUP13 SWAP11 DUP12 SWAP10 DUP11 SWAP9 PUSH3 0xC58031 PUSH1 0xE8 SHL DUP11 MSTORE AND PUSH1 0x4 DUP10 ADD MSTORE PUSH1 0xC0 PUSH1 0x24 DUP10 ADD MSTORE PUSH1 0xC4 DUP9 ADD SWAP2 PUSH2 0x1DC4 JUMP JUMPDEST DUP6 DUP2 SUB PUSH1 0x3 NOT ADD PUSH1 0x44 DUP8 ADD MSTORE SWAP1 PUSH2 0x1BC2 JUMP JUMPDEST SWAP1 CALLER PUSH1 0x64 DUP6 ADD MSTORE DUP9 PUSH1 0x84 DUP6 ADD MSTORE PUSH1 0x3 NOT DUP5 DUP4 SUB ADD PUSH1 0xA4 DUP6 ADD MSTORE PUSH2 0x1BC2 JUMP JUMPDEST SUB SWAP3 GAS CALL DUP1 ISZERO PUSH2 0xFF8 JUMPI SWAP3 PUSH2 0xFCF SWAP3 PUSH1 0x20 SWAP10 PUSH32 0xA7CFCC5EADF5513B4356586E166B2A71DECFCD5CF6D953F8B020A708C69F3F52 SWAP7 SWAP4 DUP11 SWAP9 SWAP7 PUSH2 0xFE8 JUMPI JUMPDEST POP POP PUSH1 0x40 MLOAD SWAP5 DUP6 MSTORE DUP10 DUP6 ADD MSTORE PUSH1 0x80 PUSH1 0x40 DUP6 ADD MSTORE PUSH1 0x80 DUP5 ADD SWAP2 PUSH2 0x1DC4 JUMP JUMPDEST SWAP4 PUSH1 0x60 DUP3 ADD MSTORE DUP1 CALLER SWAP5 SUB SWAP1 LOG3 PUSH1 0x1 PUSH1 0x65 SSTORE PUSH1 0x40 MLOAD SWAP1 DUP2 MSTORE RETURN JUMPDEST DUP2 PUSH2 0xFF2 SWAP2 PUSH2 0x1A1A JUMP JUMPDEST CODESIZE PUSH2 0xFB2 JUMP JUMPDEST PUSH1 0x40 MLOAD RETURNDATASIZE DUP11 DUP3 RETURNDATACOPY RETURNDATASIZE SWAP1 REVERT JUMPDEST DUP7 DUP1 REVERT JUMPDEST PUSH2 0xEF3 SWAP1 PUSH2 0xEED JUMP JUMPDEST PUSH4 0x57F3FA7 PUSH1 0xE5 SHL DUP14 MSTORE PUSH1 0x4 DUP14 REVERT JUMPDEST SWAP1 POP DUP14 ADD CALLDATALOAD CODESIZE PUSH2 0xE57 JUMP JUMPDEST SWAP1 DUP13 SWAP5 SWAP4 SWAP3 PUSH1 0x1F NOT DUP2 AND DUP5 DUP5 MSTORE PUSH1 0x20 DUP5 KECCAK256 SWAP4 SWAP7 JUMPDEST DUP2 DUP9 LT PUSH2 0x1079 JUMPI POP PUSH1 0x4 SWAP7 POP LT PUSH2 0x105F JUMPI JUMPDEST POP POP PUSH1 0x1 DUP11 DUP2 SHL ADD SWAP1 SSTORE PUSH2 0xE6E JUMP JUMPDEST DUP13 ADD CALLDATALOAD PUSH1 0x0 NOT PUSH1 0x3 DUP14 SWAP1 SHL PUSH1 0xF8 AND SHR NOT AND SWAP1 SSTORE CODESIZE DUP1 PUSH2 0x1050 JUMP JUMPDEST DUP4 ADD CALLDATALOAD DUP5 SSTORE PUSH1 0x20 SWAP7 DUP8 ADD SWAP7 PUSH1 0x1 SWAP1 SWAP5 ADD SWAP4 SWAP1 SWAP3 ADD SWAP2 DUP14 SWAP2 POP DUP15 PUSH2 0x103E JUMP JUMPDEST PUSH4 0x4E487B71 PUSH1 0xE0 SHL DUP15 MSTORE PUSH1 0x41 PUSH1 0x4 MSTORE PUSH1 0x24 DUP15 REVERT JUMPDEST PUSH4 0x4E487B71 PUSH1 0xE0 SHL DUP13 MSTORE PUSH1 0x11 PUSH1 0x4 MSTORE PUSH1 0x24 DUP13 REVERT JUMPDEST PUSH4 0x4E487B71 PUSH1 0xE0 SHL DUP12 MSTORE PUSH1 0x11 PUSH1 0x4 MSTORE PUSH1 0x24 DUP12 REVERT JUMPDEST PUSH2 0x10EB SWAP1 PUSH1 0x20 RETURNDATASIZE PUSH1 0x20 GT PUSH2 0x388 JUMPI PUSH2 0x379 DUP2 DUP4 PUSH2 0x1A1A JUMP JUMPDEST PUSH2 0xD9D JUMP JUMPDEST PUSH1 0x40 MLOAD RETURNDATASIZE DUP14 DUP3 RETURNDATACOPY RETURNDATASIZE SWAP1 REVERT JUMPDEST CALLVALUE SUB PUSH2 0x1108 JUMPI CALLVALUE SWAP6 PUSH2 0xDA0 JUMP JUMPDEST PUSH4 0x44044A5 PUSH1 0xE2 SHL DUP10 MSTORE PUSH1 0x4 DUP10 REVERT JUMPDEST PUSH4 0xD92E233D PUSH1 0xE0 SHL DUP11 MSTORE PUSH1 0x4 DUP11 REVERT JUMPDEST PUSH4 0x3BF9B3A9 PUSH1 0xE0 SHL DUP11 MSTORE PUSH1 0x4 DUP11 REVERT JUMPDEST PUSH4 0x57F3FA7 PUSH1 0xE5 SHL DUP11 MSTORE PUSH1 0x4 DUP11 REVERT JUMPDEST PUSH4 0x1F2A2005 PUSH1 0xE0 SHL DUP11 MSTORE PUSH1 0x4 DUP11 REVERT JUMPDEST DUP9 DUP1 REVERT JUMPDEST DUP8 DUP1 REVERT JUMPDEST DUP5 DUP1 REVERT JUMPDEST POP DUP1 REVERT JUMPDEST POP CALLVALUE PUSH2 0x1B3 JUMPI PUSH1 0x20 CALLDATASIZE PUSH1 0x3 NOT ADD SLT PUSH2 0x1B3 JUMPI PUSH2 0x117D PUSH2 0x19EE JUMP JUMPDEST PUSH2 0x11B6 PUSH32 0x0 PUSH1 0x1 PUSH1 0x1 PUSH1 0xA0 SHL SUB AND PUSH2 0x757 ADDRESS DUP3 EQ ISZERO PUSH2 0x1CDF JUMP JUMPDEST PUSH2 0x11BE PUSH2 0x1E3B JUMP JUMPDEST PUSH1 0x20 SWAP1 PUSH1 0x40 MLOAD PUSH2 0x11CE DUP4 DUP3 PUSH2 0x1A1A JUMP JUMPDEST DUP4 DUP2 MSTORE DUP3 DUP2 ADD SWAP1 PUSH1 0x1F NOT DUP5 ADD CALLDATASIZE DUP4 CALLDATACOPY PUSH32 0x4910FDFA16FED3260ED0E7147F7CC6DA11A60208B5B9406D12A635614FFD9143 SLOAD PUSH1 0xFF AND ISZERO PUSH2 0x1213 JUMPI POP POP PUSH2 0x15C SWAP2 POP PUSH2 0x1F3C JUMP JUMPDEST PUSH1 0x40 MLOAD PUSH4 0x52D1902D PUSH1 0xE0 SHL DUP2 MSTORE SWAP2 SWAP3 SWAP2 PUSH1 0x1 PUSH1 0x1 PUSH1 0xA0 SHL SUB DUP4 AND SWAP1 DUP6 DUP2 PUSH1 0x4 DUP2 DUP6 GAS STATICCALL DUP8 SWAP2 DUP2 PUSH2 0x13D3 JUMPI JUMPDEST POP PUSH2 0x129F JUMPI PUSH1 0x40 MLOAD PUSH3 0x461BCD PUSH1 0xE5 SHL DUP2 MSTORE PUSH1 0x4 DUP2 ADD DUP8 SWAP1 MSTORE PUSH1 0x2E PUSH1 0x24 DUP3 ADD MSTORE PUSH32 0x45524331393637557067726164653A206E657720696D706C656D656E74617469 PUSH1 0x44 DUP3 ADD MSTORE PUSH14 0x6F6E206973206E6F742055555053 PUSH1 0x90 SHL PUSH1 0x64 DUP3 ADD MSTORE PUSH1 0x84 SWAP1 REVERT JUMPDEST SWAP4 SWAP5 SWAP4 PUSH32 0xC9F76B5EC45E5CDEF99837D7B6D2467235C1DF8933C8CA56DF5C35AFA2C7D444 ADD PUSH2 0x137C JUMPI SWAP1 DUP6 SWAP2 PUSH2 0x12D4 DUP5 PUSH2 0x1F3C JUMP JUMPDEST PUSH32 0xBC7CD75A20EE27FD9ADEBAB32041F755214DBC6BFFA90CC0225B39DA2E5C2D3B DUP4 DUP1 LOG2 DUP1 MLOAD ISZERO DUP1 ISZERO SWAP1 PUSH2 0x1375 JUMPI JUMPDEST PUSH2 0x1310 JUMPI JUMPDEST POP POP POP POP POP DUP1 RETURN JUMPDEST PUSH2 0x136A SWAP5 DUP3 SWAP2 PUSH32 0x416464726573733A206C6F772D6C6576656C2064656C65676174652063616C6C PUSH1 0x40 MLOAD SWAP7 PUSH2 0x1346 PUSH1 0x60 DUP10 PUSH2 0x1A1A JUMP JUMPDEST PUSH1 0x27 DUP9 MSTORE DUP8 ADD MSTORE PUSH7 0x819985A5B1959 PUSH1 0xCA SHL PUSH1 0x40 DUP8 ADD MSTORE MLOAD SWAP1 DUP5 GAS DELEGATECALL PUSH2 0x8F1 PUSH2 0x1C97 JUMP JUMPDEST POP CODESIZE DUP1 DUP1 DUP4 DUP2 PUSH2 0x1308 JUMP JUMPDEST POP DUP2 PUSH2 0x1303 JUMP JUMPDEST PUSH1 0x40 MLOAD PUSH3 0x461BCD PUSH1 0xE5 SHL DUP2 MSTORE PUSH1 0x4 DUP2 ADD DUP6 SWAP1 MSTORE PUSH1 0x29 PUSH1 0x24 DUP3 ADD MSTORE PUSH32 0x45524331393637557067726164653A20756E737570706F727465642070726F78 PUSH1 0x44 DUP3 ADD MSTORE PUSH9 0x1A58589B1955555251 PUSH1 0xBA SHL PUSH1 0x64 DUP3 ADD MSTORE PUSH1 0x84 SWAP1 REVERT JUMPDEST SWAP1 SWAP2 POP DUP7 DUP2 DUP2 RETURNDATASIZE DUP4 GT PUSH2 0x13FB JUMPI JUMPDEST PUSH2 0x13EB DUP2 DUP4 PUSH2 0x1A1A JUMP JUMPDEST DUP2 ADD SUB SLT PUSH2 0x1157 JUMPI MLOAD SWAP1 CODESIZE PUSH2 0x123E JUMP JUMPDEST POP RETURNDATASIZE PUSH2 0x13E1 JUMP JUMPDEST POP CALLVALUE PUSH2 0x1B3 JUMPI PUSH1 0x40 CALLDATASIZE PUSH1 0x3 NOT ADD SLT PUSH2 0x1B3 JUMPI PUSH1 0x4 CALLDATALOAD PUSH1 0x1 PUSH1 0x1 PUSH1 0x40 SHL SUB DUP2 GT PUSH2 0x115F JUMPI PUSH2 0x1436 PUSH2 0x15C SWAP2 CALLDATASIZE SWAP1 PUSH1 0x4 ADD PUSH2 0x199F JUMP JUMPDEST PUSH1 0x20 PUSH2 0x1440 PUSH2 0x19DF JUMP JUMPDEST SWAP3 PUSH2 0x1449 PUSH2 0x1E3B JUMP JUMPDEST DUP3 PUSH1 0x40 MLOAD SWAP4 DUP5 SWAP3 DUP4 CALLDATACOPY DUP2 ADD PUSH1 0xFF DUP2 MSTORE SUB ADD SWAP1 KECCAK256 SWAP1 PUSH1 0xFF DUP1 NOT DUP4 SLOAD AND SWAP2 ISZERO ISZERO AND OR SWAP1 SSTORE JUMP JUMPDEST POP CALLVALUE PUSH2 0x1B3 JUMPI DUP1 PUSH1 0x3 NOT CALLDATASIZE ADD SLT PUSH2 0x1B3 JUMPI PUSH1 0x20 PUSH2 0xFFFF PUSH1 0xFC SLOAD PUSH1 0xA0 SHR AND PUSH1 0x40 MLOAD SWAP1 DUP2 MSTORE RETURN JUMPDEST POP CALLVALUE PUSH2 0x1B3 JUMPI PUSH1 0x20 CALLDATASIZE PUSH1 0x3 NOT ADD SLT PUSH2 0x1B3 JUMPI PUSH1 0xFF PUSH1 0x40 PUSH1 0x20 SWAP3 PUSH4 0xFFFFFFFF PUSH2 0x14B8 PUSH2 0x19CC JUMP JUMPDEST AND DUP2 MSTORE PUSH2 0x100 DUP5 MSTORE KECCAK256 SLOAD AND PUSH1 0x40 MLOAD SWAP1 ISZERO ISZERO DUP2 MSTORE RETURN JUMPDEST POP CALLVALUE PUSH2 0x1B3 JUMPI PUSH1 0x20 CALLDATASIZE PUSH1 0x3 NOT ADD SLT PUSH2 0x1B3 JUMPI PUSH1 0x4 CALLDATALOAD PUSH1 0x1 PUSH1 0x1 PUSH1 0xA0 SHL SUB DUP2 AND SWAP1 DUP2 DUP2 SUB PUSH2 0x992 JUMPI PUSH2 0x14FC PUSH2 0x1E3B JUMP JUMPDEST PUSH2 0x1504 PUSH2 0x1DE5 JUMP JUMPDEST DUP2 ISZERO PUSH2 0x1665 JUMPI DUP3 SELFBALANCE SWAP3 DUP4 DUP1 PUSH2 0x1647 JUMPI JUMPDEST POP POP PUSH1 0xFC SLOAD PUSH1 0x40 MLOAD PUSH4 0x70A08231 PUSH1 0xE0 SHL DUP2 MSTORE ADDRESS PUSH1 0x4 DUP3 ADD MSTORE SWAP2 POP PUSH1 0x1 PUSH1 0x1 PUSH1 0xA0 SHL SUB AND PUSH1 0x20 DUP3 PUSH1 0x24 DUP2 DUP5 GAS STATICCALL SWAP2 DUP3 ISZERO PUSH2 0x38F JUMPI DUP6 SWAP3 PUSH2 0x1613 JUMPI JUMPDEST POP DUP2 PUSH2 0x15B7 JUMPI JUMPDEST POP DUP3 ADD DUP1 SWAP3 GT PUSH2 0x15A3 JUMPI PUSH1 0x40 DUP1 MLOAD PUSH1 0x1 PUSH1 0x1 PUSH1 0xA0 SHL SUB SWAP1 SWAP3 AND DUP3 MSTORE PUSH1 0x20 DUP3 ADD SWAP3 SWAP1 SWAP3 MSTORE PUSH32 0xC0819C13BE868895EB93E40EACEB96DE976442FA1D404E5C55F14BB65A8C489A SWAP2 DUP2 SWAP1 DUP2 ADD PUSH2 0x2E7 JUMP JUMPDEST PUSH4 0x4E487B71 PUSH1 0xE0 SHL DUP4 MSTORE PUSH1 0x11 PUSH1 0x4 MSTORE PUSH1 0x24 DUP4 REVERT JUMPDEST PUSH1 0x40 MLOAD PUSH4 0xA9059CBB PUSH1 0xE0 SHL DUP2 MSTORE PUSH1 0x1 PUSH1 0x1 PUSH1 0xA0 SHL SUB DUP5 AND PUSH1 0x4 DUP3 ADD MSTORE PUSH1 0x24 DUP2 ADD DUP4 SWAP1 MSTORE SWAP1 PUSH1 0x20 SWAP1 DUP3 SWAP1 PUSH1 0x44 SWAP1 DUP3 SWAP1 DUP10 SWAP1 GAS CALL DUP1 ISZERO PUSH2 0x38F JUMPI ISZERO PUSH2 0x1555 JUMPI PUSH2 0x160C SWAP1 PUSH1 0x20 RETURNDATASIZE PUSH1 0x20 GT PUSH2 0x388 JUMPI PUSH2 0x379 DUP2 DUP4 PUSH2 0x1A1A JUMP JUMPDEST POP CODESIZE PUSH2 0x1555 JUMP JUMPDEST SWAP1 SWAP2 POP PUSH1 0x20 DUP2 RETURNDATASIZE PUSH1 0x20 GT PUSH2 0x163F JUMPI JUMPDEST DUP2 PUSH2 0x162F PUSH1 0x20 SWAP4 DUP4 PUSH2 0x1A1A JUMP JUMPDEST DUP2 ADD SUB SLT PUSH2 0x115B JUMPI MLOAD SWAP1 CODESIZE PUSH2 0x154E JUMP JUMPDEST RETURNDATASIZE SWAP2 POP PUSH2 0x1622 JUMP JUMPDEST DUP3 DUP1 SWAP3 SWAP2 DUP2 SWAP3 GAS CALL PUSH2 0x1657 PUSH2 0x1C97 JUMP JUMPDEST POP ISZERO PUSH2 0x2F2 JUMPI DUP3 CODESIZE DUP4 PUSH2 0x1514 JUMP JUMPDEST PUSH4 0xD92E233D PUSH1 0xE0 SHL DUP4 MSTORE PUSH1 0x4 DUP4 REVERT JUMPDEST POP CALLVALUE PUSH2 0x1B3 JUMPI PUSH1 0x20 CALLDATASIZE PUSH1 0x3 NOT ADD SLT PUSH2 0x1B3 JUMPI PUSH2 0x168E PUSH2 0x1989 JUMP JUMPDEST PUSH2 0x1696 PUSH2 0x1E3B JUMP JUMPDEST PUSH2 0xFFFF DUP2 AND SWAP1 PUSH2 0x3E8 DUP3 GT PUSH2 0x16F3 JUMPI PUSH1 0xFC DUP1 SLOAD PUSH2 0xFFFF PUSH1 0xA0 SHL NOT AND PUSH1 0xA0 SWAP3 SWAP1 SWAP3 SHL PUSH2 0xFFFF PUSH1 0xA0 SHL AND SWAP2 SWAP1 SWAP2 OR SWAP1 SSTORE PUSH1 0x40 MLOAD SWAP1 DUP2 MSTORE PUSH32 0xCBEFE12795A171D23FC26333EC4F03A7478BAE6EC54D70E18FF15EBCA679407C SWAP1 PUSH1 0x20 SWAP1 LOG1 DUP1 RETURN JUMPDEST PUSH1 0x40 MLOAD PUSH3 0x461BCD PUSH1 0xE5 SHL DUP2 MSTORE PUSH1 0x20 PUSH1 0x4 DUP3 ADD MSTORE PUSH1 0xC PUSH1 0x24 DUP3 ADD MSTORE PUSH12 0x8CCACA40E8DEDE40D0D2CED PUSH1 0xA3 SHL PUSH1 0x44 DUP3 ADD MSTORE PUSH1 0x64 SWAP1 REVERT JUMPDEST POP CALLVALUE PUSH2 0x1B3 JUMPI PUSH1 0x80 CALLDATASIZE PUSH1 0x3 NOT ADD SLT PUSH2 0x1B3 JUMPI PUSH2 0x1741 PUSH2 0x1989 JUMP JUMPDEST PUSH1 0x24 CALLDATALOAD PUSH1 0x1 PUSH1 0x1 PUSH1 0x40 SHL SUB DUP2 GT PUSH2 0x992 JUMPI PUSH2 0x1760 SWAP1 CALLDATASIZE SWAP1 PUSH1 0x4 ADD PUSH2 0x199F JUMP JUMPDEST POP POP PUSH1 0x44 CALLDATALOAD PUSH1 0x1 PUSH1 0x1 PUSH1 0x40 SHL SUB DUP2 AND SUB PUSH2 0x115F JUMPI PUSH1 0x64 CALLDATALOAD PUSH1 0x1 PUSH1 0x1 PUSH1 0x40 SHL SUB DUP2 GT PUSH2 0x992 JUMPI PUSH2 0x1793 SWAP1 CALLDATASIZE SWAP1 PUSH1 0x4 ADD PUSH2 0x199F JUMP JUMPDEST PUSH1 0xFB SLOAD PUSH1 0x1 PUSH1 0x1 PUSH1 0xA0 SHL SUB AND CALLER SUB PUSH2 0x197A JUMPI PUSH2 0x17AD PUSH2 0x1DE5 JUMP JUMPDEST DUP2 ADD SWAP1 PUSH1 0x40 DUP2 DUP4 SUB SLT PUSH2 0x1976 JUMPI DUP1 CALLDATALOAD SWAP2 PUSH1 0x20 DUP3 ADD CALLDATALOAD PUSH1 0x1 PUSH1 0x1 PUSH1 0x40 SHL SUB DUP2 GT PUSH2 0x986 JUMPI PUSH2 0x17DA SWAP3 ADD PUSH2 0x1AA3 JUMP JUMPDEST SWAP2 DUP2 DUP5 MSTORE PUSH1 0xFE PUSH1 0x20 MSTORE PUSH1 0x40 DUP5 KECCAK256 SWAP3 PUSH1 0x4 DUP5 ADD DUP1 SLOAD PUSH1 0xFF DUP2 PUSH1 0xA0 SHR AND PUSH2 0x1967 JUMPI PUSH1 0xFF PUSH1 0xA0 SHL NOT AND PUSH1 0x1 PUSH1 0xA0 SHL OR SWAP1 SSTORE DUP1 MLOAD PUSH1 0x5 DUP6 ADD SWAP1 PUSH1 0x1 PUSH1 0x1 PUSH1 0x40 SHL SUB DUP2 GT PUSH2 0x1953 JUMPI PUSH2 0x1831 DUP2 PUSH2 0x182B DUP5 SLOAD PUSH2 0x1AC1 JUMP JUMPDEST DUP5 PUSH2 0x1C45 JUMP JUMPDEST PUSH1 0x20 PUSH1 0x1F DUP3 GT PUSH1 0x1 EQ PUSH2 0x18CF JUMPI DUP2 PUSH32 0x57D96C9DF35FAE908A950F11BB652DDF1CF058B9718B06D296255E362FECAD51 SWAP6 SWAP5 SWAP4 SWAP3 PUSH2 0x1882 SWAP3 DUP11 SWAP2 PUSH2 0x18C4 JUMPI POP DUP2 PUSH1 0x1 SHL SWAP2 PUSH1 0x0 NOT SWAP1 PUSH1 0x3 SHL SHR NOT AND OR SWAP1 JUMP JUMPDEST SWAP1 SSTORE JUMPDEST PUSH2 0x18B9 PUSH1 0x1 DUP1 DUP1 PUSH1 0xA0 SHL SUB DUP8 SLOAD AND SWAP7 ADD SLOAD SWAP2 PUSH2 0xFFFF PUSH1 0x40 MLOAD SWAP5 DUP6 SWAP5 DUP6 MSTORE AND PUSH1 0x20 DUP5 ADD MSTORE PUSH1 0x60 PUSH1 0x40 DUP5 ADD MSTORE PUSH1 0x60 DUP4 ADD SWAP1 PUSH2 0x1BC2 JUMP JUMPDEST SUB SWAP1 LOG3 PUSH1 0x1 PUSH1 0x65 SSTORE DUP1 RETURN JUMPDEST SWAP1 POP DUP5 ADD MLOAD CODESIZE PUSH2 0xE57 JUMP JUMPDEST DUP3 DUP9 MSTORE DUP1 DUP9 KECCAK256 SWAP1 PUSH1 0x1F NOT DUP4 AND DUP10 JUMPDEST DUP2 DUP2 LT PUSH2 0x193B JUMPI POP SWAP2 DUP4 SWAP2 PUSH32 0x57D96C9DF35FAE908A950F11BB652DDF1CF058B9718B06D296255E362FECAD51 SWAP8 SWAP7 SWAP6 SWAP5 PUSH1 0x1 SWAP5 LT PUSH2 0x1922 JUMPI JUMPDEST POP POP DUP2 SHL ADD SWAP1 SSTORE PUSH2 0x1885 JUMP JUMPDEST DUP6 ADD MLOAD PUSH1 0x0 NOT PUSH1 0xF8 DUP5 PUSH1 0x3 SHL AND SHR NOT AND SWAP1 SSTORE CODESIZE DUP1 PUSH2 0x1916 JUMP JUMPDEST SWAP2 SWAP3 PUSH1 0x20 PUSH1 0x1 DUP2 SWAP3 DUP7 DUP11 ADD MLOAD DUP2 SSTORE ADD SWAP5 ADD SWAP3 ADD PUSH2 0x18DD JUMP JUMPDEST PUSH4 0x4E487B71 PUSH1 0xE0 SHL DUP8 MSTORE PUSH1 0x41 PUSH1 0x4 MSTORE PUSH1 0x24 DUP8 REVERT JUMPDEST PUSH4 0x195332A5 PUSH1 0xE0 SHL DUP8 MSTORE PUSH1 0x4 DUP8 REVERT JUMPDEST DUP4 DUP1 REVERT JUMPDEST PUSH4 0xD87EF6D PUSH1 0xE4 SHL DUP5 MSTORE PUSH1 0x4 DUP5 REVERT JUMPDEST PUSH1 0x4 CALLDATALOAD SWAP1 PUSH2 0xFFFF DUP3 AND DUP3 SUB PUSH2 0x199A JUMPI JUMP JUMPDEST PUSH1 0x0 DUP1 REVERT JUMPDEST SWAP2 DUP2 PUSH1 0x1F DUP5 ADD SLT ISZERO PUSH2 0x199A JUMPI DUP3 CALLDATALOAD SWAP2 PUSH1 0x1 PUSH1 0x1 PUSH1 0x40 SHL SUB DUP4 GT PUSH2 0x199A JUMPI PUSH1 0x20 DUP4 DUP2 DUP7 ADD SWAP6 ADD ADD GT PUSH2 0x199A JUMPI JUMP JUMPDEST PUSH1 0x4 CALLDATALOAD SWAP1 PUSH4 0xFFFFFFFF DUP3 AND DUP3 SUB PUSH2 0x199A JUMPI JUMP JUMPDEST PUSH1 0x24 CALLDATALOAD SWAP1 DUP2 ISZERO ISZERO DUP3 SUB PUSH2 0x199A JUMPI JUMP JUMPDEST PUSH1 0x4 CALLDATALOAD SWAP1 PUSH1 0x1 PUSH1 0x1 PUSH1 0xA0 SHL SUB DUP3 AND DUP3 SUB PUSH2 0x199A JUMPI JUMP JUMPDEST PUSH1 0x24 CALLDATALOAD SWAP1 PUSH1 0x1 PUSH1 0x1 PUSH1 0xA0 SHL SUB DUP3 AND DUP3 SUB PUSH2 0x199A JUMPI JUMP JUMPDEST SWAP1 PUSH1 0x1F DUP1 NOT SWAP2 ADD AND DUP2 ADD SWAP1 DUP2 LT PUSH1 0x1 PUSH1 0x1 PUSH1 0x40 SHL SUB DUP3 GT OR PUSH2 0x1A3B JUMPI PUSH1 0x40 MSTORE JUMP JUMPDEST PUSH4 0x4E487B71 PUSH1 0xE0 SHL PUSH1 0x0 MSTORE PUSH1 0x41 PUSH1 0x4 MSTORE PUSH1 0x24 PUSH1 0x0 REVERT JUMPDEST PUSH1 0x1 PUSH1 0x1 PUSH1 0x40 SHL SUB DUP2 GT PUSH2 0x1A3B JUMPI PUSH1 0x1F ADD PUSH1 0x1F NOT AND PUSH1 0x20 ADD SWAP1 JUMP JUMPDEST SWAP3 SWAP2 SWAP3 PUSH2 0x1A78 DUP3 PUSH2 0x1A51 JUMP JUMPDEST SWAP2 PUSH2 0x1A86 PUSH1 0x40 MLOAD SWAP4 DUP5 PUSH2 0x1A1A JUMP JUMPDEST DUP3 SWAP5 DUP2 DUP5 MSTORE DUP2 DUP4 ADD GT PUSH2 0x199A JUMPI DUP3 DUP2 PUSH1 0x20 SWAP4 DUP5 PUSH1 0x0 SWAP7 ADD CALLDATACOPY ADD ADD MSTORE JUMP JUMPDEST SWAP1 DUP1 PUSH1 0x1F DUP4 ADD SLT ISZERO PUSH2 0x199A JUMPI DUP2 PUSH1 0x20 PUSH2 0x1ABE SWAP4 CALLDATALOAD SWAP2 ADD PUSH2 0x1A6C JUMP JUMPDEST SWAP1 JUMP JUMPDEST SWAP1 PUSH1 0x1 DUP3 DUP2 SHR SWAP3 AND DUP1 ISZERO PUSH2 0x1AF1 JUMPI JUMPDEST PUSH1 0x20 DUP4 LT EQ PUSH2 0x1ADB JUMPI JUMP JUMPDEST PUSH4 0x4E487B71 PUSH1 0xE0 SHL PUSH1 0x0 MSTORE PUSH1 0x22 PUSH1 0x4 MSTORE PUSH1 0x24 PUSH1 0x0 REVERT JUMPDEST SWAP2 PUSH1 0x7F AND SWAP2 PUSH2 0x1AD0 JUMP JUMPDEST SWAP1 PUSH1 0x40 MLOAD SWAP2 DUP3 PUSH1 0x0 DUP3 SLOAD SWAP3 PUSH2 0x1B0F DUP5 PUSH2 0x1AC1 JUMP JUMPDEST DUP1 DUP5 MSTORE SWAP4 PUSH1 0x1 DUP2 AND SWAP1 DUP2 ISZERO PUSH2 0x1B7D JUMPI POP PUSH1 0x1 EQ PUSH2 0x1B36 JUMPI JUMPDEST POP PUSH2 0x1B34 SWAP3 POP SUB DUP4 PUSH2 0x1A1A JUMP JUMPDEST JUMP JUMPDEST SWAP1 POP PUSH1 0x0 SWAP3 SWAP2 SWAP3 MSTORE PUSH1 0x20 PUSH1 0x0 KECCAK256 SWAP1 PUSH1 0x0 SWAP2 JUMPDEST DUP2 DUP4 LT PUSH2 0x1B61 JUMPI POP POP SWAP1 PUSH1 0x20 PUSH2 0x1B34 SWAP3 DUP3 ADD ADD CODESIZE PUSH2 0x1B27 JUMP JUMPDEST PUSH1 0x20 SWAP2 SWAP4 POP DUP1 PUSH1 0x1 SWAP2 SLOAD DUP4 DUP6 DUP10 ADD ADD MSTORE ADD SWAP2 ADD SWAP1 SWAP2 DUP5 SWAP3 PUSH2 0x1B48 JUMP JUMPDEST SWAP1 POP PUSH1 0x20 SWAP3 POP PUSH2 0x1B34 SWAP5 SWAP2 POP PUSH1 0xFF NOT AND DUP3 DUP5 ADD MSTORE ISZERO ISZERO PUSH1 0x5 SHL DUP3 ADD ADD CODESIZE PUSH2 0x1B27 JUMP JUMPDEST PUSH1 0x0 JUMPDEST DUP4 DUP2 LT PUSH2 0x1BB2 JUMPI POP POP PUSH1 0x0 SWAP2 ADD MSTORE JUMP JUMPDEST DUP2 DUP2 ADD MLOAD DUP4 DUP3 ADD MSTORE PUSH1 0x20 ADD PUSH2 0x1BA2 JUMP JUMPDEST SWAP1 PUSH1 0x20 SWAP2 PUSH2 0x1BDB DUP2 MLOAD DUP1 SWAP3 DUP2 DUP6 MSTORE DUP6 DUP1 DUP7 ADD SWAP2 ADD PUSH2 0x1B9F JUMP JUMPDEST PUSH1 0x1F ADD PUSH1 0x1F NOT AND ADD ADD SWAP1 JUMP JUMPDEST SWAP4 SWAP1 PUSH2 0x1ABE SWAP8 SWAP6 SWAP7 SWAP4 PUSH2 0x1C20 SWAP4 PUSH4 0xFFFFFFFF SWAP3 PUSH1 0x1 DUP1 PUSH1 0xA0 SHL SUB AND DUP8 MSTORE PUSH1 0x20 DUP8 ADD MSTORE AND PUSH1 0x40 DUP6 ADD MSTORE PUSH1 0xE0 PUSH1 0x60 DUP6 ADD MSTORE PUSH1 0xE0 DUP5 ADD SWAP1 PUSH2 0x1BC2 JUMP JUMPDEST PUSH1 0x1 PUSH1 0x1 PUSH1 0xA0 SHL SUB SWAP1 SWAP5 AND PUSH1 0x80 DUP4 ADD MSTORE ISZERO ISZERO PUSH1 0xA0 DUP3 ADD MSTORE DUP1 DUP4 SUB PUSH1 0xC0 SWAP1 SWAP2 ADD MSTORE PUSH2 0x1BC2 JUMP JUMPDEST PUSH1 0x1F DUP3 GT PUSH2 0x1C52 JUMPI POP POP POP JUMP JUMPDEST PUSH1 0x0 MSTORE PUSH1 0x20 PUSH1 0x0 KECCAK256 SWAP1 PUSH1 0x20 PUSH1 0x1F DUP5 ADD PUSH1 0x5 SHR DUP4 ADD SWAP4 LT PUSH2 0x1C8D JUMPI JUMPDEST PUSH1 0x1F ADD PUSH1 0x5 SHR ADD SWAP1 JUMPDEST DUP2 DUP2 LT PUSH2 0x1C81 JUMPI POP POP JUMP JUMPDEST PUSH1 0x0 DUP2 SSTORE PUSH1 0x1 ADD PUSH2 0x1C76 JUMP JUMPDEST SWAP1 SWAP2 POP DUP2 SWAP1 PUSH2 0x1C6D JUMP JUMPDEST RETURNDATASIZE ISZERO PUSH2 0x1CC2 JUMPI RETURNDATASIZE SWAP1 PUSH2 0x1CA8 DUP3 PUSH2 0x1A51 JUMP JUMPDEST SWAP2 PUSH2 0x1CB6 PUSH1 0x40 MLOAD SWAP4 DUP5 PUSH2 0x1A1A JUMP JUMPDEST DUP3 MSTORE RETURNDATASIZE PUSH1 0x0 PUSH1 0x20 DUP5 ADD RETURNDATACOPY JUMP JUMPDEST PUSH1 0x60 SWAP1 JUMP JUMPDEST SWAP1 DUP2 PUSH1 0x20 SWAP2 SUB SLT PUSH2 0x199A JUMPI MLOAD DUP1 ISZERO ISZERO DUP2 SUB PUSH2 0x199A JUMPI SWAP1 JUMP JUMPDEST ISZERO PUSH2 0x1CE6 JUMPI JUMP JUMPDEST PUSH1 0x40 MLOAD PUSH3 0x461BCD PUSH1 0xE5 SHL DUP2 MSTORE PUSH1 0x20 PUSH1 0x4 DUP3 ADD MSTORE PUSH1 0x2C PUSH1 0x24 DUP3 ADD MSTORE PUSH32 0x46756E6374696F6E206D7573742062652063616C6C6564207468726F75676820 PUSH1 0x44 DUP3 ADD MSTORE PUSH12 0x19195B1959D85D1958D85B1B PUSH1 0xA2 SHL PUSH1 0x64 DUP3 ADD MSTORE PUSH1 0x84 SWAP1 REVERT JUMPDEST ISZERO PUSH2 0x1D47 JUMPI JUMP JUMPDEST PUSH1 0x40 MLOAD PUSH3 0x461BCD PUSH1 0xE5 SHL DUP2 MSTORE PUSH1 0x20 PUSH1 0x4 DUP3 ADD MSTORE PUSH1 0x2C PUSH1 0x24 DUP3 ADD MSTORE PUSH32 0x46756E6374696F6E206D7573742062652063616C6C6564207468726F75676820 PUSH1 0x44 DUP3 ADD MSTORE PUSH12 0x6163746976652070726F7879 PUSH1 0xA0 SHL PUSH1 0x64 DUP3 ADD MSTORE PUSH1 0x84 SWAP1 REVERT JUMPDEST SWAP2 SWAP1 DUP3 SUB SWAP2 DUP3 GT PUSH2 0x1DAE JUMPI JUMP JUMPDEST PUSH4 0x4E487B71 PUSH1 0xE0 SHL PUSH1 0x0 MSTORE PUSH1 0x11 PUSH1 0x4 MSTORE PUSH1 0x24 PUSH1 0x0 REVERT JUMPDEST SWAP1 DUP1 PUSH1 0x20 SWAP4 SWAP3 DUP2 DUP5 MSTORE DUP5 DUP5 ADD CALLDATACOPY PUSH1 0x0 DUP3 DUP3 ADD DUP5 ADD MSTORE PUSH1 0x1F ADD PUSH1 0x1F NOT AND ADD ADD SWAP1 JUMP JUMPDEST PUSH1 0x2 PUSH1 0x65 SLOAD EQ PUSH2 0x1DF6 JUMPI PUSH1 0x2 PUSH1 0x65 SSTORE JUMP JUMPDEST PUSH1 0x40 MLOAD PUSH3 0x461BCD PUSH1 0xE5 SHL DUP2 MSTORE PUSH1 0x20 PUSH1 0x4 DUP3 ADD MSTORE PUSH1 0x1F PUSH1 0x24 DUP3 ADD MSTORE PUSH32 0x5265656E7472616E637947756172643A207265656E7472616E742063616C6C00 PUSH1 0x44 DUP3 ADD MSTORE PUSH1 0x64 SWAP1 REVERT JUMPDEST PUSH1 0x33 SLOAD PUSH1 0x1 PUSH1 0x1 PUSH1 0xA0 SHL SUB AND CALLER SUB PUSH2 0x1E4F JUMPI JUMP JUMPDEST PUSH1 0x64 PUSH1 0x40 MLOAD PUSH3 0x461BCD PUSH1 0xE5 SHL DUP2 MSTORE PUSH1 0x20 PUSH1 0x4 DUP3 ADD MSTORE PUSH1 0x20 PUSH1 0x24 DUP3 ADD MSTORE PUSH32 0x4F776E61626C653A2063616C6C6572206973206E6F7420746865206F776E6572 PUSH1 0x44 DUP3 ADD MSTORE REVERT JUMPDEST ISZERO PUSH2 0x1E9A JUMPI JUMP JUMPDEST PUSH1 0x40 MLOAD PUSH3 0x461BCD PUSH1 0xE5 SHL DUP2 MSTORE PUSH1 0x20 PUSH1 0x4 DUP3 ADD MSTORE PUSH1 0x2B PUSH1 0x24 DUP3 ADD MSTORE PUSH32 0x496E697469616C697A61626C653A20636F6E7472616374206973206E6F742069 PUSH1 0x44 DUP3 ADD MSTORE PUSH11 0x6E697469616C697A696E67 PUSH1 0xA8 SHL PUSH1 0x64 DUP3 ADD MSTORE PUSH1 0x84 SWAP1 REVERT JUMPDEST PUSH1 0x33 DUP1 SLOAD PUSH1 0x1 PUSH1 0x1 PUSH1 0xA0 SHL SUB SWAP3 DUP4 AND PUSH1 0x1 PUSH1 0x1 PUSH1 0xA0 SHL SUB NOT DUP3 AND DUP2 OR SWAP1 SWAP3 SSTORE SWAP1 SWAP2 AND PUSH32 0x8BE0079C531659141344CD1FD0A4F28419497F9722A3DAAFE3B4186F6B6457E0 PUSH1 0x0 DUP1 LOG3 JUMP JUMPDEST DUP1 EXTCODESIZE ISZERO PUSH2 0x1F7A JUMPI PUSH1 0x1 DUP1 PUSH1 0xA0 SHL SUB AND PUSH1 0x1 PUSH1 0x1 PUSH1 0x60 SHL SUB PUSH1 0xA0 SHL PUSH1 0x0 DUP1 MLOAD PUSH1 0x20 PUSH2 0x2073 DUP4 CODECOPY DUP2 MLOAD SWAP2 MSTORE SLOAD AND OR PUSH1 0x0 DUP1 MLOAD PUSH1 0x20 PUSH2 0x2073 DUP4 CODECOPY DUP2 MLOAD SWAP2 MSTORE SSTORE JUMP JUMPDEST PUSH1 0x40 MLOAD PUSH3 0x461BCD PUSH1 0xE5 SHL DUP2 MSTORE PUSH1 0x20 PUSH1 0x4 DUP3 ADD MSTORE PUSH1 0x2D PUSH1 0x24 DUP3 ADD MSTORE PUSH32 0x455243313936373A206E657720696D706C656D656E746174696F6E206973206E PUSH1 0x44 DUP3 ADD MSTORE PUSH13 0x1BDD08184818DBDB9D1C9858DD PUSH1 0x9A SHL PUSH1 0x64 DUP3 ADD MSTORE PUSH1 0x84 SWAP1 REVERT JUMPDEST SWAP2 SWAP3 SWAP1 ISZERO PUSH2 0x2037 JUMPI POP DUP2 MLOAD ISZERO PUSH2 0x1FE9 JUMPI POP SWAP1 JUMP JUMPDEST EXTCODESIZE ISZERO PUSH2 0x1FF2 JUMPI SWAP1 JUMP JUMPDEST PUSH1 0x40 MLOAD PUSH3 0x461BCD PUSH1 0xE5 SHL DUP2 MSTORE PUSH1 0x20 PUSH1 0x4 DUP3 ADD MSTORE PUSH1 0x1D PUSH1 0x24 DUP3 ADD MSTORE PUSH32 0x416464726573733A2063616C6C20746F206E6F6E2D636F6E7472616374000000 PUSH1 0x44 DUP3 ADD MSTORE PUSH1 0x64 SWAP1 REVERT JUMPDEST DUP3 MLOAD SWAP1 SWAP2 POP ISZERO PUSH2 0x204A JUMPI POP DUP1 MLOAD SWAP1 PUSH1 0x20 ADD REVERT JUMPDEST PUSH1 0x40 MLOAD PUSH3 0x461BCD PUSH1 0xE5 SHL DUP2 MSTORE PUSH1 0x20 PUSH1 0x4 DUP3 ADD MSTORE SWAP1 DUP2 SWAP1 PUSH2 0x206E SWAP1 PUSH1 0x24 DUP4 ADD SWAP1 PUSH2 0x1BC2 JUMP JUMPDEST SUB SWAP1 REVERT INVALID CALLDATASIZE ADDMOD SWAP5 LOG1 EXTCODESIZE LOG1 LOG3 0x21 MOD PUSH8 0xC828492DB98DCA3E KECCAK256 PUSH23 0xCC3735A920A3CA505D382BBCA264697066735822122035 0x1F PUSH8 0x3D3FA0572569045E DUP6 0xD0 SWAP12 COINBASE XOR 0xC 0xB3 DUP16 XOR DUP16 PUSH7 0x46349589CF9398 0xD0 0x29 ORIGIN PUSH5 0x736F6C6343 STOP ADDMOD SHR STOP CALLER "},"methodIdentifiers":{"emergencyWithdraw(address,address,uint256)":"e63ea408","feeBps()":"24a9d853","getRequest(uint256)":"c58343ef","initialize(address,address)":"485cc955","initiateRetirement(bool,uint256,uint32,string,address,bytes)":"3aea909d","lzEndpoint()":"b353aaa7","lzReceive(uint16,bytes,uint64,bytes)":"001d3567","nextRequestId()":"6a84a985","owner()":"8da5cb5b","proxiableUUID()":"52d1902d","renounceOwnership()":"715018a6","requests(uint256)":"81d12c58","setCarbonType(string,bool)":"26f99ea6","setEndpoint(address)":"dbbb4155","setFeeBps(uint16)":"023b1fc9","setSupportedChain(uint32,bool)":"8fbbb557","supportedCarbonTypes(string)":"ef47829e","supportedChains(uint32)":"248514dd","transferOwnership(address)":"f2fde38b","upgradeTo(address)":"3659cfe6","upgradeToAndCall(address,bytes)":"4f1ef286","usdc()":"3e413bee","withdrawFees(address)":"164e68de"}}}}}