{"contracts/klima.sol":{"AcrossCarbonRetirementReceiver":{"abi":[{"inputs":[],"stateMutability":"nonpayable","type":"constructor"},{"inputs":[{"internalType":"address","name":"owner","type":"address"}],"name":"OwnableInvalidOwner","type":"error"},{"inputs":[{"internalType":"address","name":"account","type":"address"}],"name":"OwnableUnauthorizedAccount","type":"error"},{"inputs":[],"name":"ReentrancyGuardReentrantCall","type":"error"},{"anonymous":false,"inputs":[{"indexed":true,"internalType":"address","name":"previousOwner","type":"address"},{"indexed":true,"internalType":"address","name":"newOwner","type":"address"}],"name":"OwnershipTransferred","type":"event"},{"anonymous":false,"inputs":[{"indexed":true,"internalType":"address","name":"beneficiary","type":"address"},{"indexed":false,"internalType":"string","name":"beneficiaryName","type":"string"},{"indexed":false,"internalType":"address","name":"poolToken","type":"address"},{"indexed":false,"internalType":"uint256","name":"usdcAmount","type":"uint256"},{"indexed":false,"internalType":"uint256","name":"carbonAmount","type":"uint256"}],"name":"RetirementExecuted","type":"event"},{"anonymous":false,"inputs":[{"indexed":true,"internalType":"address","name":"beneficiary","type":"address"},{"indexed":false,"internalType":"address","name":"poolToken","type":"address"},{"indexed":false,"internalType":"uint256","name":"usdcAmount","type":"uint256"},{"indexed":false,"internalType":"string","name":"reason","type":"string"}],"name":"RetirementFailed","type":"event"},{"inputs":[],"name":"ACROSS_SPOKE_POOL","outputs":[{"internalType":"address","name":"","type":"address"}],"stateMutability":"view","type":"function"},{"inputs":[],"name":"DEFAULT_POOL_TOKEN","outputs":[{"internalType":"address","name":"","type":"address"}],"stateMutability":"view","type":"function"},{"inputs":[],"name":"KLIMA_AGGREGATOR","outputs":[{"internalType":"address","name":"","type":"address"}],"stateMutability":"view","type":"function"},{"inputs":[],"name":"MULTICALL_HANDLER_ADDRESS","outputs":[{"internalType":"address","name":"","type":"address"}],"stateMutability":"view","type":"function"},{"inputs":[],"name":"USDC_TOKEN","outputs":[{"internalType":"address","name":"","type":"address"}],"stateMutability":"view","type":"function"},{"inputs":[{"internalType":"address","name":"recipient","type":"address"},{"internalType":"uint256","name":"amount","type":"uint256"},{"internalType":"bytes","name":"message","type":"bytes"}],"name":"handleAcrossTransfer","outputs":[],"stateMutability":"nonpayable","type":"function"},{"inputs":[{"internalType":"uint256","name":"usdcAmount","type":"uint256"},{"internalType":"address","name":"beneficiary","type":"address"},{"internalType":"string","name":"beneficiaryName","type":"string"},{"internalType":"address","name":"poolToken","type":"address"}],"name":"manualRetire","outputs":[],"stateMutability":"nonpayable","type":"function"},{"inputs":[],"name":"owner","outputs":[{"internalType":"address","name":"","type":"address"}],"stateMutability":"view","type":"function"},{"inputs":[],"name":"recoverEth","outputs":[],"stateMutability":"nonpayable","type":"function"},{"inputs":[{"internalType":"address","name":"token","type":"address"},{"internalType":"uint256","name":"amount","type":"uint256"}],"name":"recoverTokens","outputs":[],"stateMutability":"nonpayable","type":"function"},{"inputs":[],"name":"renounceOwnership","outputs":[],"stateMutability":"nonpayable","type":"function"},{"inputs":[{"internalType":"address","name":"operator","type":"address"},{"internalType":"address","name":"from","type":"address"},{"internalType":"address","name":"to","type":"address"},{"internalType":"uint256","name":"amount","type":"uint256"},{"internalType":"bytes","name":"userData","type":"bytes"},{"internalType":"bytes","name":"operatorData","type":"bytes"}],"name":"tokensReceived","outputs":[],"stateMutability":"nonpayable","type":"function"},{"inputs":[{"internalType":"address","name":"newOwner","type":"address"}],"name":"transferOwnership","outputs":[],"stateMutability":"nonpayable","type":"function"},{"stateMutability":"payable","type":"receive"}],"evm":{"bytecode":{"linkReferences":{},"object":"608080604052346101a9576000903315610195578154336001600160a01b0319821681178455906001600160a01b03167f8be0079c531659141344cd1fd0a4f28419497f9722a3daafe3b4186f6b6457e08480a36001805563095ea7b360e01b8152738ce54d9625371fb2a068986d32c85de8e6e995f86004820152600019602482015260208160448185732791bca1f2de4661ed88a30c99a7a9449aa841745af1801561014f5761015d575b50731820a4b7618bde71dce8cdc73aab6c95905fad243b1561015a576040516329965a1d60e01b815230600482018190527fb281fc8c12954d22544db45de3159a39272895b169a852b314f9cc762e44c53b60248301526044820152818160648183731820a4b7618bde71dce8cdc73aab6c95905fad245af1801561014f5761013f575b60405161136d90816101e88239f35b81610149916101ae565b38610130565b6040513d84823e3d90fd5b80fd5b6020813d60201161018d575b81610176602093836101ae565b81010312610189575180151581146100ac575b5080fd5b3d9150610169565b631e4fbdf760e01b82526004829052602482fd5b600080fd5b601f909101601f19168101906001600160401b038211908210176101d157604052565b634e487b7160e01b600052604160045260246000fdfe6080604052600436101561001b575b361561001957600080fd5b005b60003560e01c806223de29146100ea578063069c9fae146100e557806335e86070146100e057806340429fe1146100db578063715018a6146100d65780638da5cb5b146100d15780639df875f0146100cc578063bcdb446b146100c7578063d4d0f984146100c2578063d72b1de1146100bd578063db3ac0ce146100b8578063f2fde38b146100b35763fa5692740361000e5761073d565b6106b4565b610685565b610656565b61054c565b6104f9565b6104ca565b6104a1565b610448565b61035e565b61029f565b6101e9565b610164565b600435906001600160a01b038216820361010557565b600080fd5b602435906001600160a01b038216820361010557565b606435906001600160a01b038216820361010557565b9181601f840112156101055782359167ffffffffffffffff8311610105576020838186019501011161010557565b346101055760c03660031901126101055761017d6100ef565b61018561010a565b604435916001600160a01b03831683036101055760643560843567ffffffffffffffff8111610105576101bc903690600401610136565b9160a4359567ffffffffffffffff8711610105576101e1610019973690600401610136565b96909561076c565b34610105576040366003190112610105576102026100ef565b602060243561020f610f43565b610217610961565b6000805460405163a9059cbb60e01b81526001600160a01b03918216600482015260248101939093529193849260449284929091165af1801561029a57610262575b61001960018055565b6020813d602011610292575b8161027b602093836102e4565b810103126101055751801515036101055738610259565b3d915061026e565b610846565b34610105576000366003190112610105576020604051732f800db0fdb5223b3c3f354886d907a671414a7f8152f35b634e487b7160e01b600052604160045260246000fd5b90601f8019910116810190811067ffffffffffffffff82111761030657604052565b6102ce565b67ffffffffffffffff811161030657601f01601f191660200190565b9291926103338261030b565b9161034160405193846102e4565b829481845281830111610105578281602093846000960137010152565b346101055760803660031901126101055760043561037a61010a565b60443567ffffffffffffffff81116101055736602382011215610105576103ab903690602481600401359101610327565b6103b3610120565b916103bc610f43565b6103c4610961565b6040516370a0823160e01b815230600482015293602085602481732791bca1f2de4661ed88a30c99a7a9449aa841745afa801561029a57816104149161025997600091610419575b501015610861565b610d9f565b61043b915060203d602011610441575b61043381836102e4565b810190610852565b3861040c565b503d610429565b3461010557600036600319011261010557610461610f43565b600080546001600160a01b0319811682556001600160a01b03167f8be0079c531659141344cd1fd0a4f28419497f9722a3daafe3b4186f6b6457e08280a3005b34610105576000366003190112610105576000546040516001600160a01b039091168152602090f35b3461010557600036600319011261010557602060405173924a9f036260ddd5808007e1aa95f08ed08aa5698152f35b3461010557600036600319011261010557610512610f43565b61051a610961565b6000805481908190819047906001600160a01b0316828215610543575bf11561029a5760018055005b506108fc610537565b34610105576060366003190112610105576105656100ef565b6024356044359167ffffffffffffffff83116101055761058c6105ce933690600401610136565b939091610597610961565b739295ee1d8c5b022be115a2ad3c30c72e34e7f09633148015610639575b6105be906108ad565b6001600160a01b03163014610915565b6040516370a0823160e01b8152306004820152602081602481732791bca1f2de4661ed88a30c99a7a9449aa841745afa91821561029a5761025994610624856106309561062b9560009161041957501015610861565b3691610327565b610a5a565b92919091610d9f565b503373924a9f036260ddd5808007e1aa95f08ed08aa569146105b5565b34610105576000366003190112610105576020604051739295ee1d8c5b022be115a2ad3c30c72e34e7f0968152f35b34610105576000366003190112610105576020604051738ce54d9625371fb2a068986d32c85de8e6e995f88152f35b34610105576020366003190112610105576106cd6100ef565b6106d5610f43565b6001600160a01b0316801561072757600080546001600160a01b03198116831782556001600160a01b0316907f8be0079c531659141344cd1fd0a4f28419497f9722a3daafe3b4186f6b6457e09080a3005b631e4fbdf760e01b600052600060045260246000fd5b34610105576000366003190112610105576020604051732791bca1f2de4661ed88a30c99a7a9449aa841748152f35b50955090935091909161077d610961565b6001600160a01b038516739295ee1d8c5b022be115a2ad3c30c72e34e7f096149081610807575b506107b4575b5050505060018055565b6107d79381156107e057506107ce9161062b913691610327565b92909190610d9f565b388080806107aa565b9150506107eb61081a565b90732f800db0fdb5223b3c3f354886d907a671414a7f92610d9f565b6001600160a01b031630149050386107a4565b604051906108296040836102e4565b600e82526d27b33339b2ba2d30b8102ab9b2b960911b6020830152565b6040513d6000823e3d90fd5b90816020910312610105575190565b1561086857565b60405162461bcd60e51b815260206004820152601960248201527f496e73756666696369656e7420555344432062616c616e6365000000000000006044820152606490fd5b156108b457565b60405162461bcd60e51b815260206004820152603360248201527f4f6e6c79204163726f73732053706f6b65506f6f6c206f72206d756c746963616044820152721b1b081a185b991b195c8818d85b8818d85b1b606a1b6064820152608490fd5b1561091c57565b60405162461bcd60e51b815260206004820152601f60248201527f526563697069656e74206d757374206265207468697320636f6e7472616374006044820152606490fd5b600260015414610972576002600155565b633ee5aeb560e01b60005260046000fd5b604051906109926040836102e4565b601082526f16113132b732b334b1b4b0b93c911d1160811b6020830152565b634e487b7160e01b600052601160045260246000fd5b90600282018092116109d557565b6109b1565b90600382018092116109d557565b919082018092116109d557565b60405190610a046040836102e4565b601582527416113837b7b62a37b5b2b720b2323932b9b9911d1160591b6020830152565b60405190610a376040836102e4565b601482527316113132b732b334b1b4b0b93ca730b6b2911d1160611b6020830152565b90600091610a6661081a565b91732f800db0fdb5223b3c3f354886d907a671414a7f918051610ac7575b506001600160a01b03841615610abf575b6001600160a01b03821615610aa657565b732f800db0fdb5223b3c3f354886d907a671414a7f9150565b339350610a95565b610acf610983565b610ad98183610faf565b906000821215610b68575b5050610aee6109f5565b610af88183610faf565b906000821215610b49575b5050610b0d610a28565b610b178183610faf565b906000821215610b29575b5050610a84565b51929450610b4092610b3a916109e8565b9061128f565b91388080610b22565b51919350610b6091610b5a916109e8565b8361114d565b913880610b03565b51919550610b7f91610b79916109e8565b8561114d565b933880610ae4565b919082519283825260005b848110610bb3575050826000602080949584010152601f8019910116010190565b80602080928401015182828601015201610b92565b9493610c4390610c819460e094604094732791bca1f2de4661ed88a30c99a7a9449aa841748a5260018060a01b031660208a015284890152610100606089015260096101008901526804f66667365745a61760bc1b61012089015260018060a01b0316608088015261014060a0880152610140870190610b87565b85810360c0870152601b81527f436172626f6e206f666673657420766961204f66667365745a617000000000006020820152019301600060ff169052565b565b9092610c9c606093969594608084526080840190610b87565b6001600160a01b03909616602083015260408201520152565b60009060033d11610cc257565b905060046000803e60005160e01c90565b600060443d10610d3a576040513d600319016004823e8051913d602484011167ffffffffffffffff841117610d45578282019283519167ffffffffffffffff8311610d3d573d84016003190185840160200111610d3d5750610d3a929101602001906102e4565b90565b949350505050565b92915050565b610d3a939260609260018060a01b0316825260208201528160408201520190610b87565b3d15610d9a573d90610d808261030b565b91610d8e60405193846102e4565b82523d6000602084013e565b606090565b9091604051636fb9367f60e11b815260208180610dc28588888b60048601610bc8565b03816000738ce54d9625371fb2a068986d32c85de8e6e995f85af160009181610f22575b50610ee25750506001610df7610cb5565b6308c379a014610e82575b610e0b57505050565b7fd80252b4823cfb933240fde61f4f459729a50f971c0c76746e264117496d5e9491610e35610d6f565b50604080516001600160a01b03958616815260208101939093526060908301819052600d908301526c2ab735b737bbb71032b93937b960991b6080830152909216918060a081015b0390a2565b610e8a610cd3565b80610e96575b50610e02565b604051600092506001600160a01b038516917fd80252b4823cfb933240fde61f4f459729a50f971c0c76746e264117496d5e9491908190610ed990878a84610d4b565b0390a238610e90565b6040516001600160a01b03909416947f9844159a631815b14cd3c5871074053d7610ffe1a6a016d77b7524e53c41af9a94938493610e7d93929085610c83565b610f3c91925060203d6020116104415761043381836102e4565b9038610de6565b6000546001600160a01b03163303610f5757565b63118cdaa760e01b6000523360045260246000fd5b60001981146109d55760010190565b919082039182116109d557565b908151811015610f99570160200190565b634e487b7160e01b600052603260045260246000fd5b908051801561107a57825110611072576000905b610fd08351825190610f7b565b82116110695760019260005b825181101561105f57611009610ffb610ff583876109e8565b84610f88565b516001600160f81b03191690565b611026611019610ffb8487610f88565b6001600160f81b03191690565b6001600160f81b03199091160361103f57600101610fdc565b5092509060005b6110595761105390610f6c565b90610fc3565b91505090565b5092919091611046565b50505060001990565b505060001990565b505050600090565b6040516060919061109383826102e4565b602a815291601f1901366020840137565b604080519091906110b583826102e4565b6014815291601f1901366020840137565b906110d08261030b565b6110dd60405191826102e4565b82815280926110ee601f199161030b565b0190602036910137565b600181901b91906001600160ff1b038116036109d557565b9060ff8091169116039060ff82116109d557565b60041b90610ff060f08316921682036109d557565b9060ff8091169116019060ff82116109d557565b919091611158611082565b9260005b602a81108061127c575b1561119d5780611185610ffb61117f61119894866109e8565b86610f88565b60001a6111928288610f88565b53610f6c565b61115c565b5050506111a86110a4565b60005b601481106111bc5750602001519150565b6001906112606112508661124b6112458560416112176112116111ff610ffb6112248686868686868f61120b6111fa611205858561117f848d6110f8565b6109c7565b60f81c90565b986110f8565b90610f88565b60ff1690565b1061127457603790611110565b9861120b6112406112056111ff610ffb61117f6112408d6110f8565b6109da565b91611124565b611139565b60f81b6001600160f81b03191690565b60001a61126d8285610f88565b53016111ab565b603090611110565b5061128781836109e8565b835111611166565b91815b8351811080611315575b156112af576112aa90610f6c565b611292565b918083038381116109d5576112c3906110c6565b9160005b6112d18386610f7b565b81101561130c57826001826112f5610ffb6112ef6112d196866109e8565b8b610f88565b60001a6113028289610f88565b53019150506112c7565b50935050905090565b50601160f91b6001600160f81b031961132e8387610f88565b5116141561129c56fea26469706673582212200cbb29b9af039e0bd831e7bfa422d8f53979db480b12fc390088f1f4dbf1ccb864736f6c634300081c0033","opcodes":"PUSH1 0x80 DUP1 PUSH1 0x40 MSTORE CALLVALUE PUSH2 0x1A9 JUMPI PUSH1 0x0 SWAP1 CALLER ISZERO PUSH2 0x195 JUMPI DUP2 SLOAD CALLER PUSH1 0x1 PUSH1 0x1 PUSH1 0xA0 SHL SUB NOT DUP3 AND DUP2 OR DUP5 SSTORE SWAP1 PUSH1 0x1 PUSH1 0x1 PUSH1 0xA0 SHL SUB AND PUSH32 0x8BE0079C531659141344CD1FD0A4F28419497F9722A3DAAFE3B4186F6B6457E0 DUP5 DUP1 LOG3 PUSH1 0x1 DUP1 SSTORE PUSH4 0x95EA7B3 PUSH1 0xE0 SHL DUP2 MSTORE PUSH20 0x8CE54D9625371FB2A068986D32C85DE8E6E995F8 PUSH1 0x4 DUP3 ADD MSTORE PUSH1 0x0 NOT PUSH1 0x24 DUP3 ADD MSTORE PUSH1 0x20 DUP2 PUSH1 0x44 DUP2 DUP6 PUSH20 0x2791BCA1F2DE4661ED88A30C99A7A9449AA84174 GAS CALL DUP1 ISZERO PUSH2 0x14F JUMPI PUSH2 0x15D JUMPI JUMPDEST POP PUSH20 0x1820A4B7618BDE71DCE8CDC73AAB6C95905FAD24 EXTCODESIZE ISZERO PUSH2 0x15A JUMPI PUSH1 0x40 MLOAD PUSH4 0x29965A1D PUSH1 0xE0 SHL DUP2 MSTORE ADDRESS PUSH1 0x4 DUP3 ADD DUP2 SWAP1 MSTORE PUSH32 0xB281FC8C12954D22544DB45DE3159A39272895B169A852B314F9CC762E44C53B PUSH1 0x24 DUP4 ADD MSTORE PUSH1 0x44 DUP3 ADD MSTORE DUP2 DUP2 PUSH1 0x64 DUP2 DUP4 PUSH20 0x1820A4B7618BDE71DCE8CDC73AAB6C95905FAD24 GAS CALL DUP1 ISZERO PUSH2 0x14F JUMPI PUSH2 0x13F JUMPI JUMPDEST PUSH1 0x40 MLOAD PUSH2 0x136D SWAP1 DUP2 PUSH2 0x1E8 DUP3 CODECOPY RETURN JUMPDEST DUP2 PUSH2 0x149 SWAP2 PUSH2 0x1AE JUMP JUMPDEST CODESIZE PUSH2 0x130 JUMP JUMPDEST PUSH1 0x40 MLOAD RETURNDATASIZE DUP5 DUP3 RETURNDATACOPY RETURNDATASIZE SWAP1 REVERT JUMPDEST DUP1 REVERT JUMPDEST PUSH1 0x20 DUP2 RETURNDATASIZE PUSH1 0x20 GT PUSH2 0x18D JUMPI JUMPDEST DUP2 PUSH2 0x176 PUSH1 0x20 SWAP4 DUP4 PUSH2 0x1AE JUMP JUMPDEST DUP2 ADD SUB SLT PUSH2 0x189 JUMPI MLOAD DUP1 ISZERO ISZERO DUP2 EQ PUSH2 0xAC JUMPI JUMPDEST POP DUP1 REVERT JUMPDEST RETURNDATASIZE SWAP2 POP PUSH2 0x169 JUMP JUMPDEST PUSH4 0x1E4FBDF7 PUSH1 0xE0 SHL DUP3 MSTORE PUSH1 0x4 DUP3 SWAP1 MSTORE PUSH1 0x24 DUP3 REVERT JUMPDEST PUSH1 0x0 DUP1 REVERT JUMPDEST PUSH1 0x1F SWAP1 SWAP2 ADD PUSH1 0x1F NOT AND DUP2 ADD SWAP1 PUSH1 0x1 PUSH1 0x1 PUSH1 0x40 SHL SUB DUP3 GT SWAP1 DUP3 LT OR PUSH2 0x1D1 JUMPI PUSH1 0x40 MSTORE JUMP JUMPDEST PUSH4 0x4E487B71 PUSH1 0xE0 SHL PUSH1 0x0 MSTORE PUSH1 0x41 PUSH1 0x4 MSTORE PUSH1 0x24 PUSH1 0x0 REVERT INVALID PUSH1 0x80 PUSH1 0x40 MSTORE PUSH1 0x4 CALLDATASIZE LT ISZERO PUSH2 0x1B JUMPI JUMPDEST CALLDATASIZE ISZERO PUSH2 0x19 JUMPI PUSH1 0x0 DUP1 REVERT JUMPDEST STOP JUMPDEST PUSH1 0x0 CALLDATALOAD PUSH1 0xE0 SHR DUP1 PUSH3 0x23DE29 EQ PUSH2 0xEA JUMPI DUP1 PUSH4 0x69C9FAE EQ PUSH2 0xE5 JUMPI DUP1 PUSH4 0x35E86070 EQ PUSH2 0xE0 JUMPI DUP1 PUSH4 0x40429FE1 EQ PUSH2 0xDB JUMPI DUP1 PUSH4 0x715018A6 EQ PUSH2 0xD6 JUMPI DUP1 PUSH4 0x8DA5CB5B EQ PUSH2 0xD1 JUMPI DUP1 PUSH4 0x9DF875F0 EQ PUSH2 0xCC JUMPI DUP1 PUSH4 0xBCDB446B EQ PUSH2 0xC7 JUMPI DUP1 PUSH4 0xD4D0F984 EQ PUSH2 0xC2 JUMPI DUP1 PUSH4 0xD72B1DE1 EQ PUSH2 0xBD JUMPI DUP1 PUSH4 0xDB3AC0CE EQ PUSH2 0xB8 JUMPI DUP1 PUSH4 0xF2FDE38B EQ PUSH2 0xB3 JUMPI PUSH4 0xFA569274 SUB PUSH2 0xE JUMPI PUSH2 0x73D JUMP JUMPDEST PUSH2 0x6B4 JUMP JUMPDEST PUSH2 0x685 JUMP JUMPDEST PUSH2 0x656 JUMP JUMPDEST PUSH2 0x54C JUMP JUMPDEST PUSH2 0x4F9 JUMP JUMPDEST PUSH2 0x4CA JUMP JUMPDEST PUSH2 0x4A1 JUMP JUMPDEST PUSH2 0x448 JUMP JUMPDEST PUSH2 0x35E JUMP JUMPDEST PUSH2 0x29F JUMP JUMPDEST PUSH2 0x1E9 JUMP JUMPDEST PUSH2 0x164 JUMP JUMPDEST PUSH1 0x4 CALLDATALOAD SWAP1 PUSH1 0x1 PUSH1 0x1 PUSH1 0xA0 SHL SUB DUP3 AND DUP3 SUB PUSH2 0x105 JUMPI JUMP JUMPDEST PUSH1 0x0 DUP1 REVERT JUMPDEST PUSH1 0x24 CALLDATALOAD SWAP1 PUSH1 0x1 PUSH1 0x1 PUSH1 0xA0 SHL SUB DUP3 AND DUP3 SUB PUSH2 0x105 JUMPI JUMP JUMPDEST PUSH1 0x64 CALLDATALOAD SWAP1 PUSH1 0x1 PUSH1 0x1 PUSH1 0xA0 SHL SUB DUP3 AND DUP3 SUB PUSH2 0x105 JUMPI JUMP JUMPDEST SWAP2 DUP2 PUSH1 0x1F DUP5 ADD SLT ISZERO PUSH2 0x105 JUMPI DUP3 CALLDATALOAD SWAP2 PUSH8 0xFFFFFFFFFFFFFFFF DUP4 GT PUSH2 0x105 JUMPI PUSH1 0x20 DUP4 DUP2 DUP7 ADD SWAP6 ADD ADD GT PUSH2 0x105 JUMPI JUMP JUMPDEST CALLVALUE PUSH2 0x105 JUMPI PUSH1 0xC0 CALLDATASIZE PUSH1 0x3 NOT ADD SLT PUSH2 0x105 JUMPI PUSH2 0x17D PUSH2 0xEF JUMP JUMPDEST PUSH2 0x185 PUSH2 0x10A JUMP JUMPDEST PUSH1 0x44 CALLDATALOAD SWAP2 PUSH1 0x1 PUSH1 0x1 PUSH1 0xA0 SHL SUB DUP4 AND DUP4 SUB PUSH2 0x105 JUMPI PUSH1 0x64 CALLDATALOAD PUSH1 0x84 CALLDATALOAD PUSH8 0xFFFFFFFFFFFFFFFF DUP2 GT PUSH2 0x105 JUMPI PUSH2 0x1BC SWAP1 CALLDATASIZE SWAP1 PUSH1 0x4 ADD PUSH2 0x136 JUMP JUMPDEST SWAP2 PUSH1 0xA4 CALLDATALOAD SWAP6 PUSH8 0xFFFFFFFFFFFFFFFF DUP8 GT PUSH2 0x105 JUMPI PUSH2 0x1E1 PUSH2 0x19 SWAP8 CALLDATASIZE SWAP1 PUSH1 0x4 ADD PUSH2 0x136 JUMP JUMPDEST SWAP7 SWAP1 SWAP6 PUSH2 0x76C JUMP JUMPDEST CALLVALUE PUSH2 0x105 JUMPI PUSH1 0x40 CALLDATASIZE PUSH1 0x3 NOT ADD SLT PUSH2 0x105 JUMPI PUSH2 0x202 PUSH2 0xEF JUMP JUMPDEST PUSH1 0x20 PUSH1 0x24 CALLDATALOAD PUSH2 0x20F PUSH2 0xF43 JUMP JUMPDEST PUSH2 0x217 PUSH2 0x961 JUMP JUMPDEST PUSH1 0x0 DUP1 SLOAD PUSH1 0x40 MLOAD PUSH4 0xA9059CBB PUSH1 0xE0 SHL DUP2 MSTORE PUSH1 0x1 PUSH1 0x1 PUSH1 0xA0 SHL SUB SWAP2 DUP3 AND PUSH1 0x4 DUP3 ADD MSTORE PUSH1 0x24 DUP2 ADD SWAP4 SWAP1 SWAP4 MSTORE SWAP2 SWAP4 DUP5 SWAP3 PUSH1 0x44 SWAP3 DUP5 SWAP3 SWAP1 SWAP2 AND GAS CALL DUP1 ISZERO PUSH2 0x29A JUMPI PUSH2 0x262 JUMPI JUMPDEST PUSH2 0x19 PUSH1 0x1 DUP1 SSTORE JUMP JUMPDEST PUSH1 0x20 DUP2 RETURNDATASIZE PUSH1 0x20 GT PUSH2 0x292 JUMPI JUMPDEST DUP2 PUSH2 0x27B PUSH1 0x20 SWAP4 DUP4 PUSH2 0x2E4 JUMP JUMPDEST DUP2 ADD SUB SLT PUSH2 0x105 JUMPI MLOAD DUP1 ISZERO ISZERO SUB PUSH2 0x105 JUMPI CODESIZE PUSH2 0x259 JUMP JUMPDEST RETURNDATASIZE SWAP2 POP PUSH2 0x26E JUMP JUMPDEST PUSH2 0x846 JUMP JUMPDEST CALLVALUE PUSH2 0x105 JUMPI PUSH1 0x0 CALLDATASIZE PUSH1 0x3 NOT ADD SLT PUSH2 0x105 JUMPI PUSH1 0x20 PUSH1 0x40 MLOAD PUSH20 0x2F800DB0FDB5223B3C3F354886D907A671414A7F DUP2 MSTORE RETURN JUMPDEST PUSH4 0x4E487B71 PUSH1 0xE0 SHL PUSH1 0x0 MSTORE PUSH1 0x41 PUSH1 0x4 MSTORE PUSH1 0x24 PUSH1 0x0 REVERT JUMPDEST SWAP1 PUSH1 0x1F DUP1 NOT SWAP2 ADD AND DUP2 ADD SWAP1 DUP2 LT PUSH8 0xFFFFFFFFFFFFFFFF DUP3 GT OR PUSH2 0x306 JUMPI PUSH1 0x40 MSTORE JUMP JUMPDEST PUSH2 0x2CE JUMP JUMPDEST PUSH8 0xFFFFFFFFFFFFFFFF DUP2 GT PUSH2 0x306 JUMPI PUSH1 0x1F ADD PUSH1 0x1F NOT AND PUSH1 0x20 ADD SWAP1 JUMP JUMPDEST SWAP3 SWAP2 SWAP3 PUSH2 0x333 DUP3 PUSH2 0x30B JUMP JUMPDEST SWAP2 PUSH2 0x341 PUSH1 0x40 MLOAD SWAP4 DUP5 PUSH2 0x2E4 JUMP JUMPDEST DUP3 SWAP5 DUP2 DUP5 MSTORE DUP2 DUP4 ADD GT PUSH2 0x105 JUMPI DUP3 DUP2 PUSH1 0x20 SWAP4 DUP5 PUSH1 0x0 SWAP7 ADD CALLDATACOPY ADD ADD MSTORE JUMP JUMPDEST CALLVALUE PUSH2 0x105 JUMPI PUSH1 0x80 CALLDATASIZE PUSH1 0x3 NOT ADD SLT PUSH2 0x105 JUMPI PUSH1 0x4 CALLDATALOAD PUSH2 0x37A PUSH2 0x10A JUMP JUMPDEST PUSH1 0x44 CALLDATALOAD PUSH8 0xFFFFFFFFFFFFFFFF DUP2 GT PUSH2 0x105 JUMPI CALLDATASIZE PUSH1 0x23 DUP3 ADD SLT ISZERO PUSH2 0x105 JUMPI PUSH2 0x3AB SWAP1 CALLDATASIZE SWAP1 PUSH1 0x24 DUP2 PUSH1 0x4 ADD CALLDATALOAD SWAP2 ADD PUSH2 0x327 JUMP JUMPDEST PUSH2 0x3B3 PUSH2 0x120 JUMP JUMPDEST SWAP2 PUSH2 0x3BC PUSH2 0xF43 JUMP JUMPDEST PUSH2 0x3C4 PUSH2 0x961 JUMP JUMPDEST PUSH1 0x40 MLOAD PUSH4 0x70A08231 PUSH1 0xE0 SHL DUP2 MSTORE ADDRESS PUSH1 0x4 DUP3 ADD MSTORE SWAP4 PUSH1 0x20 DUP6 PUSH1 0x24 DUP2 PUSH20 0x2791BCA1F2DE4661ED88A30C99A7A9449AA84174 GAS STATICCALL DUP1 ISZERO PUSH2 0x29A JUMPI DUP2 PUSH2 0x414 SWAP2 PUSH2 0x259 SWAP8 PUSH1 0x0 SWAP2 PUSH2 0x419 JUMPI JUMPDEST POP LT ISZERO PUSH2 0x861 JUMP JUMPDEST PUSH2 0xD9F JUMP JUMPDEST PUSH2 0x43B SWAP2 POP PUSH1 0x20 RETURNDATASIZE PUSH1 0x20 GT PUSH2 0x441 JUMPI JUMPDEST PUSH2 0x433 DUP2 DUP4 PUSH2 0x2E4 JUMP JUMPDEST DUP2 ADD SWAP1 PUSH2 0x852 JUMP JUMPDEST CODESIZE PUSH2 0x40C JUMP JUMPDEST POP RETURNDATASIZE PUSH2 0x429 JUMP JUMPDEST CALLVALUE PUSH2 0x105 JUMPI PUSH1 0x0 CALLDATASIZE PUSH1 0x3 NOT ADD SLT PUSH2 0x105 JUMPI PUSH2 0x461 PUSH2 0xF43 JUMP JUMPDEST PUSH1 0x0 DUP1 SLOAD PUSH1 0x1 PUSH1 0x1 PUSH1 0xA0 SHL SUB NOT DUP2 AND DUP3 SSTORE PUSH1 0x1 PUSH1 0x1 PUSH1 0xA0 SHL SUB AND PUSH32 0x8BE0079C531659141344CD1FD0A4F28419497F9722A3DAAFE3B4186F6B6457E0 DUP3 DUP1 LOG3 STOP JUMPDEST CALLVALUE PUSH2 0x105 JUMPI PUSH1 0x0 CALLDATASIZE PUSH1 0x3 NOT ADD SLT PUSH2 0x105 JUMPI PUSH1 0x0 SLOAD PUSH1 0x40 MLOAD PUSH1 0x1 PUSH1 0x1 PUSH1 0xA0 SHL SUB SWAP1 SWAP2 AND DUP2 MSTORE PUSH1 0x20 SWAP1 RETURN JUMPDEST CALLVALUE PUSH2 0x105 JUMPI PUSH1 0x0 CALLDATASIZE PUSH1 0x3 NOT ADD SLT PUSH2 0x105 JUMPI PUSH1 0x20 PUSH1 0x40 MLOAD PUSH20 0x924A9F036260DDD5808007E1AA95F08ED08AA569 DUP2 MSTORE RETURN JUMPDEST CALLVALUE PUSH2 0x105 JUMPI PUSH1 0x0 CALLDATASIZE PUSH1 0x3 NOT ADD SLT PUSH2 0x105 JUMPI PUSH2 0x512 PUSH2 0xF43 JUMP JUMPDEST PUSH2 0x51A PUSH2 0x961 JUMP JUMPDEST PUSH1 0x0 DUP1 SLOAD DUP2 SWAP1 DUP2 SWAP1 DUP2 SWAP1 SELFBALANCE SWAP1 PUSH1 0x1 PUSH1 0x1 PUSH1 0xA0 SHL SUB AND DUP3 DUP3 ISZERO PUSH2 0x543 JUMPI JUMPDEST CALL ISZERO PUSH2 0x29A JUMPI PUSH1 0x1 DUP1 SSTORE STOP JUMPDEST POP PUSH2 0x8FC PUSH2 0x537 JUMP JUMPDEST CALLVALUE PUSH2 0x105 JUMPI PUSH1 0x60 CALLDATASIZE PUSH1 0x3 NOT ADD SLT PUSH2 0x105 JUMPI PUSH2 0x565 PUSH2 0xEF JUMP JUMPDEST PUSH1 0x24 CALLDATALOAD PUSH1 0x44 CALLDATALOAD SWAP2 PUSH8 0xFFFFFFFFFFFFFFFF DUP4 GT PUSH2 0x105 JUMPI PUSH2 0x58C PUSH2 0x5CE SWAP4 CALLDATASIZE SWAP1 PUSH1 0x4 ADD PUSH2 0x136 JUMP JUMPDEST SWAP4 SWAP1 SWAP2 PUSH2 0x597 PUSH2 0x961 JUMP JUMPDEST PUSH20 0x9295EE1D8C5B022BE115A2AD3C30C72E34E7F096 CALLER EQ DUP1 ISZERO PUSH2 0x639 JUMPI JUMPDEST PUSH2 0x5BE SWAP1 PUSH2 0x8AD JUMP JUMPDEST PUSH1 0x1 PUSH1 0x1 PUSH1 0xA0 SHL SUB AND ADDRESS EQ PUSH2 0x915 JUMP JUMPDEST PUSH1 0x40 MLOAD PUSH4 0x70A08231 PUSH1 0xE0 SHL DUP2 MSTORE ADDRESS PUSH1 0x4 DUP3 ADD MSTORE PUSH1 0x20 DUP2 PUSH1 0x24 DUP2 PUSH20 0x2791BCA1F2DE4661ED88A30C99A7A9449AA84174 GAS STATICCALL SWAP2 DUP3 ISZERO PUSH2 0x29A JUMPI PUSH2 0x259 SWAP5 PUSH2 0x624 DUP6 PUSH2 0x630 SWAP6 PUSH2 0x62B SWAP6 PUSH1 0x0 SWAP2 PUSH2 0x419 JUMPI POP LT ISZERO PUSH2 0x861 JUMP JUMPDEST CALLDATASIZE SWAP2 PUSH2 0x327 JUMP JUMPDEST PUSH2 0xA5A JUMP JUMPDEST SWAP3 SWAP2 SWAP1 SWAP2 PUSH2 0xD9F JUMP JUMPDEST POP CALLER PUSH20 0x924A9F036260DDD5808007E1AA95F08ED08AA569 EQ PUSH2 0x5B5 JUMP JUMPDEST CALLVALUE PUSH2 0x105 JUMPI PUSH1 0x0 CALLDATASIZE PUSH1 0x3 NOT ADD SLT PUSH2 0x105 JUMPI PUSH1 0x20 PUSH1 0x40 MLOAD PUSH20 0x9295EE1D8C5B022BE115A2AD3C30C72E34E7F096 DUP2 MSTORE RETURN JUMPDEST CALLVALUE PUSH2 0x105 JUMPI PUSH1 0x0 CALLDATASIZE PUSH1 0x3 NOT ADD SLT PUSH2 0x105 JUMPI PUSH1 0x20 PUSH1 0x40 MLOAD PUSH20 0x8CE54D9625371FB2A068986D32C85DE8E6E995F8 DUP2 MSTORE RETURN JUMPDEST CALLVALUE PUSH2 0x105 JUMPI PUSH1 0x20 CALLDATASIZE PUSH1 0x3 NOT ADD SLT PUSH2 0x105 JUMPI PUSH2 0x6CD PUSH2 0xEF JUMP JUMPDEST PUSH2 0x6D5 PUSH2 0xF43 JUMP JUMPDEST PUSH1 0x1 PUSH1 0x1 PUSH1 0xA0 SHL SUB AND DUP1 ISZERO PUSH2 0x727 JUMPI PUSH1 0x0 DUP1 SLOAD PUSH1 0x1 PUSH1 0x1 PUSH1 0xA0 SHL SUB NOT DUP2 AND DUP4 OR DUP3 SSTORE PUSH1 0x1 PUSH1 0x1 PUSH1 0xA0 SHL SUB AND SWAP1 PUSH32 0x8BE0079C531659141344CD1FD0A4F28419497F9722A3DAAFE3B4186F6B6457E0 SWAP1 DUP1 LOG3 STOP JUMPDEST PUSH4 0x1E4FBDF7 PUSH1 0xE0 SHL PUSH1 0x0 MSTORE PUSH1 0x0 PUSH1 0x4 MSTORE PUSH1 0x24 PUSH1 0x0 REVERT JUMPDEST CALLVALUE PUSH2 0x105 JUMPI PUSH1 0x0 CALLDATASIZE PUSH1 0x3 NOT ADD SLT PUSH2 0x105 JUMPI PUSH1 0x20 PUSH1 0x40 MLOAD PUSH20 0x2791BCA1F2DE4661ED88A30C99A7A9449AA84174 DUP2 MSTORE RETURN JUMPDEST POP SWAP6 POP SWAP1 SWAP4 POP SWAP2 SWAP1 SWAP2 PUSH2 0x77D PUSH2 0x961 JUMP JUMPDEST PUSH1 0x1 PUSH1 0x1 PUSH1 0xA0 SHL SUB DUP6 AND PUSH20 0x9295EE1D8C5B022BE115A2AD3C30C72E34E7F096 EQ SWAP1 DUP2 PUSH2 0x807 JUMPI JUMPDEST POP PUSH2 0x7B4 JUMPI JUMPDEST POP POP POP POP PUSH1 0x1 DUP1 SSTORE JUMP JUMPDEST PUSH2 0x7D7 SWAP4 DUP2 ISZERO PUSH2 0x7E0 JUMPI POP PUSH2 0x7CE SWAP2 PUSH2 0x62B SWAP2 CALLDATASIZE SWAP2 PUSH2 0x327 JUMP JUMPDEST SWAP3 SWAP1 SWAP2 SWAP1 PUSH2 0xD9F JUMP JUMPDEST CODESIZE DUP1 DUP1 DUP1 PUSH2 0x7AA JUMP JUMPDEST SWAP2 POP POP PUSH2 0x7EB PUSH2 0x81A JUMP JUMPDEST SWAP1 PUSH20 0x2F800DB0FDB5223B3C3F354886D907A671414A7F SWAP3 PUSH2 0xD9F JUMP JUMPDEST PUSH1 0x1 PUSH1 0x1 PUSH1 0xA0 SHL SUB AND ADDRESS EQ SWAP1 POP CODESIZE PUSH2 0x7A4 JUMP JUMPDEST PUSH1 0x40 MLOAD SWAP1 PUSH2 0x829 PUSH1 0x40 DUP4 PUSH2 0x2E4 JUMP JUMPDEST PUSH1 0xE DUP3 MSTORE PUSH14 0x27B33339B2BA2D30B8102AB9B2B9 PUSH1 0x91 SHL PUSH1 0x20 DUP4 ADD MSTORE JUMP JUMPDEST PUSH1 0x40 MLOAD RETURNDATASIZE PUSH1 0x0 DUP3 RETURNDATACOPY RETURNDATASIZE SWAP1 REVERT JUMPDEST SWAP1 DUP2 PUSH1 0x20 SWAP2 SUB SLT PUSH2 0x105 JUMPI MLOAD SWAP1 JUMP JUMPDEST ISZERO PUSH2 0x868 JUMPI JUMP JUMPDEST PUSH1 0x40 MLOAD PUSH3 0x461BCD PUSH1 0xE5 SHL DUP2 MSTORE PUSH1 0x20 PUSH1 0x4 DUP3 ADD MSTORE PUSH1 0x19 PUSH1 0x24 DUP3 ADD MSTORE PUSH32 0x496E73756666696369656E7420555344432062616C616E636500000000000000 PUSH1 0x44 DUP3 ADD MSTORE PUSH1 0x64 SWAP1 REVERT JUMPDEST ISZERO PUSH2 0x8B4 JUMPI JUMP JUMPDEST PUSH1 0x40 MLOAD PUSH3 0x461BCD PUSH1 0xE5 SHL DUP2 MSTORE PUSH1 0x20 PUSH1 0x4 DUP3 ADD MSTORE PUSH1 0x33 PUSH1 0x24 DUP3 ADD MSTORE PUSH32 0x4F6E6C79204163726F73732053706F6B65506F6F6C206F72206D756C74696361 PUSH1 0x44 DUP3 ADD MSTORE PUSH19 0x1B1B081A185B991B195C8818D85B8818D85B1B PUSH1 0x6A SHL PUSH1 0x64 DUP3 ADD MSTORE PUSH1 0x84 SWAP1 REVERT JUMPDEST ISZERO PUSH2 0x91C JUMPI JUMP JUMPDEST PUSH1 0x40 MLOAD PUSH3 0x461BCD PUSH1 0xE5 SHL DUP2 MSTORE PUSH1 0x20 PUSH1 0x4 DUP3 ADD MSTORE PUSH1 0x1F PUSH1 0x24 DUP3 ADD MSTORE PUSH32 0x526563697069656E74206D757374206265207468697320636F6E747261637400 PUSH1 0x44 DUP3 ADD MSTORE PUSH1 0x64 SWAP1 REVERT JUMPDEST PUSH1 0x2 PUSH1 0x1 SLOAD EQ PUSH2 0x972 JUMPI PUSH1 0x2 PUSH1 0x1 SSTORE JUMP JUMPDEST PUSH4 0x3EE5AEB5 PUSH1 0xE0 SHL PUSH1 0x0 MSTORE PUSH1 0x4 PUSH1 0x0 REVERT JUMPDEST PUSH1 0x40 MLOAD SWAP1 PUSH2 0x992 PUSH1 0x40 DUP4 PUSH2 0x2E4 JUMP JUMPDEST PUSH1 0x10 DUP3 MSTORE PUSH16 0x16113132B732B334B1B4B0B93C911D11 PUSH1 0x81 SHL PUSH1 0x20 DUP4 ADD MSTORE JUMP JUMPDEST PUSH4 0x4E487B71 PUSH1 0xE0 SHL PUSH1 0x0 MSTORE PUSH1 0x11 PUSH1 0x4 MSTORE PUSH1 0x24 PUSH1 0x0 REVERT JUMPDEST SWAP1 PUSH1 0x2 DUP3 ADD DUP1 SWAP3 GT PUSH2 0x9D5 JUMPI JUMP JUMPDEST PUSH2 0x9B1 JUMP JUMPDEST SWAP1 PUSH1 0x3 DUP3 ADD DUP1 SWAP3 GT PUSH2 0x9D5 JUMPI JUMP JUMPDEST SWAP2 SWAP1 DUP3 ADD DUP1 SWAP3 GT PUSH2 0x9D5 JUMPI JUMP JUMPDEST PUSH1 0x40 MLOAD SWAP1 PUSH2 0xA04 PUSH1 0x40 DUP4 PUSH2 0x2E4 JUMP JUMPDEST PUSH1 0x15 DUP3 MSTORE PUSH21 0x16113837B7B62A37B5B2B720B2323932B9B9911D11 PUSH1 0x59 SHL PUSH1 0x20 DUP4 ADD MSTORE JUMP JUMPDEST PUSH1 0x40 MLOAD SWAP1 PUSH2 0xA37 PUSH1 0x40 DUP4 PUSH2 0x2E4 JUMP JUMPDEST PUSH1 0x14 DUP3 MSTORE PUSH20 0x16113132B732B334B1B4B0B93CA730B6B2911D11 PUSH1 0x61 SHL PUSH1 0x20 DUP4 ADD MSTORE JUMP JUMPDEST SWAP1 PUSH1 0x0 SWAP2 PUSH2 0xA66 PUSH2 0x81A JUMP JUMPDEST SWAP2 PUSH20 0x2F800DB0FDB5223B3C3F354886D907A671414A7F SWAP2 DUP1 MLOAD PUSH2 0xAC7 JUMPI JUMPDEST POP PUSH1 0x1 PUSH1 0x1 PUSH1 0xA0 SHL SUB DUP5 AND ISZERO PUSH2 0xABF JUMPI JUMPDEST PUSH1 0x1 PUSH1 0x1 PUSH1 0xA0 SHL SUB DUP3 AND ISZERO PUSH2 0xAA6 JUMPI JUMP JUMPDEST PUSH20 0x2F800DB0FDB5223B3C3F354886D907A671414A7F SWAP2 POP JUMP JUMPDEST CALLER SWAP4 POP PUSH2 0xA95 JUMP JUMPDEST PUSH2 0xACF PUSH2 0x983 JUMP JUMPDEST PUSH2 0xAD9 DUP2 DUP4 PUSH2 0xFAF JUMP JUMPDEST SWAP1 PUSH1 0x0 DUP3 SLT ISZERO PUSH2 0xB68 JUMPI JUMPDEST POP POP PUSH2 0xAEE PUSH2 0x9F5 JUMP JUMPDEST PUSH2 0xAF8 DUP2 DUP4 PUSH2 0xFAF JUMP JUMPDEST SWAP1 PUSH1 0x0 DUP3 SLT ISZERO PUSH2 0xB49 JUMPI JUMPDEST POP POP PUSH2 0xB0D PUSH2 0xA28 JUMP JUMPDEST PUSH2 0xB17 DUP2 DUP4 PUSH2 0xFAF JUMP JUMPDEST SWAP1 PUSH1 0x0 DUP3 SLT ISZERO PUSH2 0xB29 JUMPI JUMPDEST POP POP PUSH2 0xA84 JUMP JUMPDEST MLOAD SWAP3 SWAP5 POP PUSH2 0xB40 SWAP3 PUSH2 0xB3A SWAP2 PUSH2 0x9E8 JUMP JUMPDEST SWAP1 PUSH2 0x128F JUMP JUMPDEST SWAP2 CODESIZE DUP1 DUP1 PUSH2 0xB22 JUMP JUMPDEST MLOAD SWAP2 SWAP4 POP PUSH2 0xB60 SWAP2 PUSH2 0xB5A SWAP2 PUSH2 0x9E8 JUMP JUMPDEST DUP4 PUSH2 0x114D JUMP JUMPDEST SWAP2 CODESIZE DUP1 PUSH2 0xB03 JUMP JUMPDEST MLOAD SWAP2 SWAP6 POP PUSH2 0xB7F SWAP2 PUSH2 0xB79 SWAP2 PUSH2 0x9E8 JUMP JUMPDEST DUP6 PUSH2 0x114D JUMP JUMPDEST SWAP4 CODESIZE DUP1 PUSH2 0xAE4 JUMP JUMPDEST SWAP2 SWAP1 DUP3 MLOAD SWAP3 DUP4 DUP3 MSTORE PUSH1 0x0 JUMPDEST DUP5 DUP2 LT PUSH2 0xBB3 JUMPI POP POP DUP3 PUSH1 0x0 PUSH1 0x20 DUP1 SWAP5 SWAP6 DUP5 ADD ADD MSTORE PUSH1 0x1F DUP1 NOT SWAP2 ADD AND ADD ADD SWAP1 JUMP JUMPDEST DUP1 PUSH1 0x20 DUP1 SWAP3 DUP5 ADD ADD MLOAD DUP3 DUP3 DUP7 ADD ADD MSTORE ADD PUSH2 0xB92 JUMP JUMPDEST SWAP5 SWAP4 PUSH2 0xC43 SWAP1 PUSH2 0xC81 SWAP5 PUSH1 0xE0 SWAP5 PUSH1 0x40 SWAP5 PUSH20 0x2791BCA1F2DE4661ED88A30C99A7A9449AA84174 DUP11 MSTORE PUSH1 0x1 DUP1 PUSH1 0xA0 SHL SUB AND PUSH1 0x20 DUP11 ADD MSTORE DUP5 DUP10 ADD MSTORE PUSH2 0x100 PUSH1 0x60 DUP10 ADD MSTORE PUSH1 0x9 PUSH2 0x100 DUP10 ADD MSTORE PUSH9 0x4F66667365745A617 PUSH1 0xBC SHL PUSH2 0x120 DUP10 ADD MSTORE PUSH1 0x1 DUP1 PUSH1 0xA0 SHL SUB AND PUSH1 0x80 DUP9 ADD MSTORE PUSH2 0x140 PUSH1 0xA0 DUP9 ADD MSTORE PUSH2 0x140 DUP8 ADD SWAP1 PUSH2 0xB87 JUMP JUMPDEST DUP6 DUP2 SUB PUSH1 0xC0 DUP8 ADD MSTORE PUSH1 0x1B DUP2 MSTORE PUSH32 0x436172626F6E206F666673657420766961204F66667365745A61700000000000 PUSH1 0x20 DUP3 ADD MSTORE ADD SWAP4 ADD PUSH1 0x0 PUSH1 0xFF AND SWAP1 MSTORE JUMP JUMPDEST JUMP JUMPDEST SWAP1 SWAP3 PUSH2 0xC9C PUSH1 0x60 SWAP4 SWAP7 SWAP6 SWAP5 PUSH1 0x80 DUP5 MSTORE PUSH1 0x80 DUP5 ADD SWAP1 PUSH2 0xB87 JUMP JUMPDEST PUSH1 0x1 PUSH1 0x1 PUSH1 0xA0 SHL SUB SWAP1 SWAP7 AND PUSH1 0x20 DUP4 ADD MSTORE PUSH1 0x40 DUP3 ADD MSTORE ADD MSTORE JUMP JUMPDEST PUSH1 0x0 SWAP1 PUSH1 0x3 RETURNDATASIZE GT PUSH2 0xCC2 JUMPI JUMP JUMPDEST SWAP1 POP PUSH1 0x4 PUSH1 0x0 DUP1 RETURNDATACOPY PUSH1 0x0 MLOAD PUSH1 0xE0 SHR SWAP1 JUMP JUMPDEST PUSH1 0x0 PUSH1 0x44 RETURNDATASIZE LT PUSH2 0xD3A JUMPI PUSH1 0x40 MLOAD RETURNDATASIZE PUSH1 0x3 NOT ADD PUSH1 0x4 DUP3 RETURNDATACOPY DUP1 MLOAD SWAP2 RETURNDATASIZE PUSH1 0x24 DUP5 ADD GT PUSH8 0xFFFFFFFFFFFFFFFF DUP5 GT OR PUSH2 0xD45 JUMPI DUP3 DUP3 ADD SWAP3 DUP4 MLOAD SWAP2 PUSH8 0xFFFFFFFFFFFFFFFF DUP4 GT PUSH2 0xD3D JUMPI RETURNDATASIZE DUP5 ADD PUSH1 0x3 NOT ADD DUP6 DUP5 ADD PUSH1 0x20 ADD GT PUSH2 0xD3D JUMPI POP PUSH2 0xD3A SWAP3 SWAP2 ADD PUSH1 0x20 ADD SWAP1 PUSH2 0x2E4 JUMP JUMPDEST SWAP1 JUMP JUMPDEST SWAP5 SWAP4 POP POP POP POP JUMP JUMPDEST SWAP3 SWAP2 POP POP JUMP JUMPDEST PUSH2 0xD3A SWAP4 SWAP3 PUSH1 0x60 SWAP3 PUSH1 0x1 DUP1 PUSH1 0xA0 SHL SUB AND DUP3 MSTORE PUSH1 0x20 DUP3 ADD MSTORE DUP2 PUSH1 0x40 DUP3 ADD MSTORE ADD SWAP1 PUSH2 0xB87 JUMP JUMPDEST RETURNDATASIZE ISZERO PUSH2 0xD9A JUMPI RETURNDATASIZE SWAP1 PUSH2 0xD80 DUP3 PUSH2 0x30B JUMP JUMPDEST SWAP2 PUSH2 0xD8E PUSH1 0x40 MLOAD SWAP4 DUP5 PUSH2 0x2E4 JUMP JUMPDEST DUP3 MSTORE RETURNDATASIZE PUSH1 0x0 PUSH1 0x20 DUP5 ADD RETURNDATACOPY JUMP JUMPDEST PUSH1 0x60 SWAP1 JUMP JUMPDEST SWAP1 SWAP2 PUSH1 0x40 MLOAD PUSH4 0x6FB9367F PUSH1 0xE1 SHL DUP2 MSTORE PUSH1 0x20 DUP2 DUP1 PUSH2 0xDC2 DUP6 DUP9 DUP9 DUP12 PUSH1 0x4 DUP7 ADD PUSH2 0xBC8 JUMP JUMPDEST SUB DUP2 PUSH1 0x0 PUSH20 0x8CE54D9625371FB2A068986D32C85DE8E6E995F8 GAS CALL PUSH1 0x0 SWAP2 DUP2 PUSH2 0xF22 JUMPI JUMPDEST POP PUSH2 0xEE2 JUMPI POP POP PUSH1 0x1 PUSH2 0xDF7 PUSH2 0xCB5 JUMP JUMPDEST PUSH4 0x8C379A0 EQ PUSH2 0xE82 JUMPI JUMPDEST PUSH2 0xE0B JUMPI POP POP POP JUMP JUMPDEST PUSH32 0xD80252B4823CFB933240FDE61F4F459729A50F971C0C76746E264117496D5E94 SWAP2 PUSH2 0xE35 PUSH2 0xD6F JUMP JUMPDEST POP PUSH1 0x40 DUP1 MLOAD PUSH1 0x1 PUSH1 0x1 PUSH1 0xA0 SHL SUB SWAP6 DUP7 AND DUP2 MSTORE PUSH1 0x20 DUP2 ADD SWAP4 SWAP1 SWAP4 MSTORE PUSH1 0x60 SWAP1 DUP4 ADD DUP2 SWAP1 MSTORE PUSH1 0xD SWAP1 DUP4 ADD MSTORE PUSH13 0x2AB735B737BBB71032B93937B9 PUSH1 0x99 SHL PUSH1 0x80 DUP4 ADD MSTORE SWAP1 SWAP3 AND SWAP2 DUP1 PUSH1 0xA0 DUP2 ADD JUMPDEST SUB SWAP1 LOG2 JUMP JUMPDEST PUSH2 0xE8A PUSH2 0xCD3 JUMP JUMPDEST DUP1 PUSH2 0xE96 JUMPI JUMPDEST POP PUSH2 0xE02 JUMP JUMPDEST PUSH1 0x40 MLOAD PUSH1 0x0 SWAP3 POP PUSH1 0x1 PUSH1 0x1 PUSH1 0xA0 SHL SUB DUP6 AND SWAP2 PUSH32 0xD80252B4823CFB933240FDE61F4F459729A50F971C0C76746E264117496D5E94 SWAP2 SWAP1 DUP2 SWAP1 PUSH2 0xED9 SWAP1 DUP8 DUP11 DUP5 PUSH2 0xD4B JUMP JUMPDEST SUB SWAP1 LOG2 CODESIZE PUSH2 0xE90 JUMP JUMPDEST PUSH1 0x40 MLOAD PUSH1 0x1 PUSH1 0x1 PUSH1 0xA0 SHL SUB SWAP1 SWAP5 AND SWAP5 PUSH32 0x9844159A631815B14CD3C5871074053D7610FFE1A6A016D77B7524E53C41AF9A SWAP5 SWAP4 DUP5 SWAP4 PUSH2 0xE7D SWAP4 SWAP3 SWAP1 DUP6 PUSH2 0xC83 JUMP JUMPDEST PUSH2 0xF3C SWAP2 SWAP3 POP PUSH1 0x20 RETURNDATASIZE PUSH1 0x20 GT PUSH2 0x441 JUMPI PUSH2 0x433 DUP2 DUP4 PUSH2 0x2E4 JUMP JUMPDEST SWAP1 CODESIZE PUSH2 0xDE6 JUMP JUMPDEST PUSH1 0x0 SLOAD PUSH1 0x1 PUSH1 0x1 PUSH1 0xA0 SHL SUB AND CALLER SUB PUSH2 0xF57 JUMPI JUMP JUMPDEST PUSH4 0x118CDAA7 PUSH1 0xE0 SHL PUSH1 0x0 MSTORE CALLER PUSH1 0x4 MSTORE PUSH1 0x24 PUSH1 0x0 REVERT JUMPDEST PUSH1 0x0 NOT DUP2 EQ PUSH2 0x9D5 JUMPI PUSH1 0x1 ADD SWAP1 JUMP JUMPDEST SWAP2 SWAP1 DUP3 SUB SWAP2 DUP3 GT PUSH2 0x9D5 JUMPI JUMP JUMPDEST SWAP1 DUP2 MLOAD DUP2 LT ISZERO PUSH2 0xF99 JUMPI ADD PUSH1 0x20 ADD SWAP1 JUMP JUMPDEST PUSH4 0x4E487B71 PUSH1 0xE0 SHL PUSH1 0x0 MSTORE PUSH1 0x32 PUSH1 0x4 MSTORE PUSH1 0x24 PUSH1 0x0 REVERT JUMPDEST SWAP1 DUP1 MLOAD DUP1 ISZERO PUSH2 0x107A JUMPI DUP3 MLOAD LT PUSH2 0x1072 JUMPI PUSH1 0x0 SWAP1 JUMPDEST PUSH2 0xFD0 DUP4 MLOAD DUP3 MLOAD SWAP1 PUSH2 0xF7B JUMP JUMPDEST DUP3 GT PUSH2 0x1069 JUMPI PUSH1 0x1 SWAP3 PUSH1 0x0 JUMPDEST DUP3 MLOAD DUP2 LT ISZERO PUSH2 0x105F JUMPI PUSH2 0x1009 PUSH2 0xFFB PUSH2 0xFF5 DUP4 DUP8 PUSH2 0x9E8 JUMP JUMPDEST DUP5 PUSH2 0xF88 JUMP JUMPDEST MLOAD PUSH1 0x1 PUSH1 0x1 PUSH1 0xF8 SHL SUB NOT AND SWAP1 JUMP JUMPDEST PUSH2 0x1026 PUSH2 0x1019 PUSH2 0xFFB DUP5 DUP8 PUSH2 0xF88 JUMP JUMPDEST PUSH1 0x1 PUSH1 0x1 PUSH1 0xF8 SHL SUB NOT AND SWAP1 JUMP JUMPDEST PUSH1 0x1 PUSH1 0x1 PUSH1 0xF8 SHL SUB NOT SWAP1 SWAP2 AND SUB PUSH2 0x103F JUMPI PUSH1 0x1 ADD PUSH2 0xFDC JUMP JUMPDEST POP SWAP3 POP SWAP1 PUSH1 0x0 JUMPDEST PUSH2 0x1059 JUMPI PUSH2 0x1053 SWAP1 PUSH2 0xF6C JUMP JUMPDEST SWAP1 PUSH2 0xFC3 JUMP JUMPDEST SWAP2 POP POP SWAP1 JUMP JUMPDEST POP SWAP3 SWAP2 SWAP1 SWAP2 PUSH2 0x1046 JUMP JUMPDEST POP POP POP PUSH1 0x0 NOT SWAP1 JUMP JUMPDEST POP POP PUSH1 0x0 NOT SWAP1 JUMP JUMPDEST POP POP POP PUSH1 0x0 SWAP1 JUMP JUMPDEST PUSH1 0x40 MLOAD PUSH1 0x60 SWAP2 SWAP1 PUSH2 0x1093 DUP4 DUP3 PUSH2 0x2E4 JUMP JUMPDEST PUSH1 0x2A DUP2 MSTORE SWAP2 PUSH1 0x1F NOT ADD CALLDATASIZE PUSH1 0x20 DUP5 ADD CALLDATACOPY JUMP JUMPDEST PUSH1 0x40 DUP1 MLOAD SWAP1 SWAP2 SWAP1 PUSH2 0x10B5 DUP4 DUP3 PUSH2 0x2E4 JUMP JUMPDEST PUSH1 0x14 DUP2 MSTORE SWAP2 PUSH1 0x1F NOT ADD CALLDATASIZE PUSH1 0x20 DUP5 ADD CALLDATACOPY JUMP JUMPDEST SWAP1 PUSH2 0x10D0 DUP3 PUSH2 0x30B JUMP JUMPDEST PUSH2 0x10DD PUSH1 0x40 MLOAD SWAP2 DUP3 PUSH2 0x2E4 JUMP JUMPDEST DUP3 DUP2 MSTORE DUP1 SWAP3 PUSH2 0x10EE PUSH1 0x1F NOT SWAP2 PUSH2 0x30B JUMP JUMPDEST ADD SWAP1 PUSH1 0x20 CALLDATASIZE SWAP2 ADD CALLDATACOPY JUMP JUMPDEST PUSH1 0x1 DUP2 SWAP1 SHL SWAP2 SWAP1 PUSH1 0x1 PUSH1 0x1 PUSH1 0xFF SHL SUB DUP2 AND SUB PUSH2 0x9D5 JUMPI JUMP JUMPDEST SWAP1 PUSH1 0xFF DUP1 SWAP2 AND SWAP2 AND SUB SWAP1 PUSH1 0xFF DUP3 GT PUSH2 0x9D5 JUMPI JUMP JUMPDEST PUSH1 0x4 SHL SWAP1 PUSH2 0xFF0 PUSH1 0xF0 DUP4 AND SWAP3 AND DUP3 SUB PUSH2 0x9D5 JUMPI JUMP JUMPDEST SWAP1 PUSH1 0xFF DUP1 SWAP2 AND SWAP2 AND ADD SWAP1 PUSH1 0xFF DUP3 GT PUSH2 0x9D5 JUMPI JUMP JUMPDEST SWAP2 SWAP1 SWAP2 PUSH2 0x1158 PUSH2 0x1082 JUMP JUMPDEST SWAP3 PUSH1 0x0 JUMPDEST PUSH1 0x2A DUP2 LT DUP1 PUSH2 0x127C JUMPI JUMPDEST ISZERO PUSH2 0x119D JUMPI DUP1 PUSH2 0x1185 PUSH2 0xFFB PUSH2 0x117F PUSH2 0x1198 SWAP5 DUP7 PUSH2 0x9E8 JUMP JUMPDEST DUP7 PUSH2 0xF88 JUMP JUMPDEST PUSH1 0x0 BYTE PUSH2 0x1192 DUP3 DUP9 PUSH2 0xF88 JUMP JUMPDEST MSTORE8 PUSH2 0xF6C JUMP JUMPDEST PUSH2 0x115C JUMP JUMPDEST POP POP POP PUSH2 0x11A8 PUSH2 0x10A4 JUMP JUMPDEST PUSH1 0x0 JUMPDEST PUSH1 0x14 DUP2 LT PUSH2 0x11BC JUMPI POP PUSH1 0x20 ADD MLOAD SWAP2 POP JUMP JUMPDEST PUSH1 0x1 SWAP1 PUSH2 0x1260 PUSH2 0x1250 DUP7 PUSH2 0x124B PUSH2 0x1245 DUP6 PUSH1 0x41 PUSH2 0x1217 PUSH2 0x1211 PUSH2 0x11FF PUSH2 0xFFB PUSH2 0x1224 DUP7 DUP7 DUP7 DUP7 DUP7 DUP7 DUP16 PUSH2 0x120B PUSH2 0x11FA PUSH2 0x1205 DUP6 DUP6 PUSH2 0x117F DUP5 DUP14 PUSH2 0x10F8 JUMP JUMPDEST PUSH2 0x9C7 JUMP JUMPDEST PUSH1 0xF8 SHR SWAP1 JUMP JUMPDEST SWAP9 PUSH2 0x10F8 JUMP JUMPDEST SWAP1 PUSH2 0xF88 JUMP JUMPDEST PUSH1 0xFF AND SWAP1 JUMP JUMPDEST LT PUSH2 0x1274 JUMPI PUSH1 0x37 SWAP1 PUSH2 0x1110 JUMP JUMPDEST SWAP9 PUSH2 0x120B PUSH2 0x1240 PUSH2 0x1205 PUSH2 0x11FF PUSH2 0xFFB PUSH2 0x117F PUSH2 0x1240 DUP14 PUSH2 0x10F8 JUMP JUMPDEST PUSH2 0x9DA JUMP JUMPDEST SWAP2 PUSH2 0x1124 JUMP JUMPDEST PUSH2 0x1139 JUMP JUMPDEST PUSH1 0xF8 SHL PUSH1 0x1 PUSH1 0x1 PUSH1 0xF8 SHL SUB NOT AND SWAP1 JUMP JUMPDEST PUSH1 0x0 BYTE PUSH2 0x126D DUP3 DUP6 PUSH2 0xF88 JUMP JUMPDEST MSTORE8 ADD PUSH2 0x11AB JUMP JUMPDEST PUSH1 0x30 SWAP1 PUSH2 0x1110 JUMP JUMPDEST POP PUSH2 0x1287 DUP2 DUP4 PUSH2 0x9E8 JUMP JUMPDEST DUP4 MLOAD GT PUSH2 0x1166 JUMP JUMPDEST SWAP2 DUP2 JUMPDEST DUP4 MLOAD DUP2 LT DUP1 PUSH2 0x1315 JUMPI JUMPDEST ISZERO PUSH2 0x12AF JUMPI PUSH2 0x12AA SWAP1 PUSH2 0xF6C JUMP JUMPDEST PUSH2 0x1292 JUMP JUMPDEST SWAP2 DUP1 DUP4 SUB DUP4 DUP2 GT PUSH2 0x9D5 JUMPI PUSH2 0x12C3 SWAP1 PUSH2 0x10C6 JUMP JUMPDEST SWAP2 PUSH1 0x0 JUMPDEST PUSH2 0x12D1 DUP4 DUP7 PUSH2 0xF7B JUMP JUMPDEST DUP2 LT ISZERO PUSH2 0x130C JUMPI DUP3 PUSH1 0x1 DUP3 PUSH2 0x12F5 PUSH2 0xFFB PUSH2 0x12EF PUSH2 0x12D1 SWAP7 DUP7 PUSH2 0x9E8 JUMP JUMPDEST DUP12 PUSH2 0xF88 JUMP JUMPDEST PUSH1 0x0 BYTE PUSH2 0x1302 DUP3 DUP10 PUSH2 0xF88 JUMP JUMPDEST MSTORE8 ADD SWAP2 POP POP PUSH2 0x12C7 JUMP JUMPDEST POP SWAP4 POP POP SWAP1 POP SWAP1 JUMP JUMPDEST POP PUSH1 0x11 PUSH1 0xF9 SHL PUSH1 0x1 PUSH1 0x1 PUSH1 0xF8 SHL SUB NOT PUSH2 0x132E DUP4 DUP8 PUSH2 0xF88 JUMP JUMPDEST MLOAD AND EQ ISZERO PUSH2 0x129C JUMP INVALID LOG2 PUSH5 0x6970667358 0x22 SLT KECCAK256 0xC 0xBB 0x29 0xB9 0xAF SUB SWAP15 SIGNEXTEND 0xD8 BALANCE 0xE7 0xBF LOG4 0x22 0xD8 CREATE2 CODECOPY PUSH26 0xDB480B12FC390088F1F4DBF1CCB864736F6C634300081C003300 "},"methodIdentifiers":{"ACROSS_SPOKE_POOL()":"d72b1de1","DEFAULT_POOL_TOKEN()":"35e86070","KLIMA_AGGREGATOR()":"db3ac0ce","MULTICALL_HANDLER_ADDRESS()":"9df875f0","USDC_TOKEN()":"fa569274","handleAcrossTransfer(address,uint256,bytes)":"d4d0f984","manualRetire(uint256,address,string,address)":"40429fe1","owner()":"8da5cb5b","recoverEth()":"bcdb446b","recoverTokens(address,uint256)":"069c9fae","renounceOwnership()":"715018a6","tokensReceived(address,address,address,uint256,bytes,bytes)":"0023de29","transferOwnership(address)":"f2fde38b"}}}}}