{"contracts/OffsetZapKlimaFacilitator.sol":{"OffsetZapKlimaFacilitator":{"abi":[{"inputs":[{"internalType":"address","name":"_usdcTokenAddress","type":"address"},{"internalType":"address","name":"_klimaAggregatorAddress","type":"address"},{"internalType":"address","name":"_defaultPoolTokenAddress","type":"address"}],"stateMutability":"nonpayable","type":"constructor"},{"anonymous":false,"inputs":[{"indexed":true,"internalType":"address","name":"beneficiary","type":"address"},{"indexed":false,"internalType":"string","name":"beneficiaryName","type":"string"},{"indexed":false,"internalType":"uint256","name":"usdcAmountRetired","type":"uint256"}],"name":"CarbonRetiredViaFacilitator","type":"event"},{"inputs":[],"name":"defaultPoolTokenAddress","outputs":[{"internalType":"address","name":"","type":"address"}],"stateMutability":"view","type":"function"},{"inputs":[],"name":"klimaAggregatorAddress","outputs":[{"internalType":"address","name":"","type":"address"}],"stateMutability":"view","type":"function"},{"inputs":[],"name":"owner","outputs":[{"internalType":"address","name":"","type":"address"}],"stateMutability":"view","type":"function"},{"inputs":[{"internalType":"uint256","name":"usdcAmountToRetire","type":"uint256"},{"internalType":"string","name":"beneficiaryName","type":"string"},{"internalType":"address","name":"beneficiaryAddress","type":"address"},{"internalType":"address","name":"poolToken","type":"address"}],"name":"retireWithUsdc","outputs":[],"stateMutability":"nonpayable","type":"function"},{"inputs":[],"name":"usdcTokenAddress","outputs":[{"internalType":"address","name":"","type":"address"}],"stateMutability":"view","type":"function"},{"inputs":[],"name":"withdrawEth","outputs":[],"stateMutability":"nonpayable","type":"function"},{"inputs":[{"internalType":"address","name":"tokenAddress","type":"address"}],"name":"withdrawTokens","outputs":[],"stateMutability":"nonpayable","type":"function"}],"evm":{"bytecode":{"linkReferences":{},"object":"610100346100c357601f610a1038819003918201601f19168301916001600160401b038311848410176100c8578084926060946040528339810103126100c357610048816100de565b90610061604061005a602084016100de565b92016100de565b913360805260a05260c05260e05260405161091d90816100f3823960805181818160cc0152818161064801526106e5015260a0518181816101d2015261068d015260c05181818161021c015261080a015260e0518181816083015261024e0152f35b600080fd5b634e487b7160e01b600052604160045260246000fd5b51906001600160a01b03821682036100c35756fe608080604052600436101561001357600080fd5b600090813560e01c90816329fa22df146107f65750806349df728c146106bc57806377b53ece146106775780638da5cb5b146106325780639139793114610127578063a0ef91df146100b55763b6f85ae71461006e57600080fd5b346100b257806003193601126100b2576040517f00000000000000000000000000000000000000000000000000000000000000006001600160a01b03168152602090f35b80fd5b50346100b257806003193601126100b257808080807f00000000000000000000000000000000000000000000000000000000000000006001600160a01b03166100ff338214610839565b479082821561011e575bf1156101125780f35b604051903d90823e3d90fd5b506108fc610109565b50346100b25760803660031901126100b2576004359060243567ffffffffffffffff811161062e573660238201121561062e5780600401359067ffffffffffffffff821161062a576024810190602483369201011161062a576044356001600160a01b0381169290839003610626576064356001600160a01b0381168082036106225786156105de576040516323b872dd60e01b8152336004820152306024820152604481018890527f00000000000000000000000000000000000000000000000000000000000000006001600160a01b031691906020816064818b875af19081156104cd5788916105bf575b501561057a577f0000000000000000000000000000000000000000000000000000000000000000926001600160a01b0384169161057457507f0000000000000000000000000000000000000000000000000000000000000000925b60405163de260f3760e01b81526001600160a01b039094166004850181905293602081602481865afa908115610510578991610555575b501561051b57604051633c197f5760e01b8152836004820152846024820152896044820152886064820152604081608481865afa9081156105105789916104d8575b5060405163095ea7b360e01b81526001600160a01b039092166004830152602482015260208180604481015b03818b875af19081156104cd57889161049e575b501561044e57803b1561044a5790869160405193849263a98c962560e01b84526004840152602483015288604483015282606483015286608483015260e060a48301528183604061037d60e48401898b6108c6565b7f436172626f6e207265746972656d656e7420766961204f66667365745a617000602085830392600319840160c4880152601f8152015201925af1801561043f5761040b575b507f6f9582fbf31628201f2084a1a939b445b03654a9000618be3685a7a5be567c5b9293946103ff6040519384936040855260408501916108c6565b9060208301520390a280f35b93610438817f6f9582fbf31628201f2084a1a939b445b03654a9000618be3685a7a5be567c5b9596610871565b93926103c3565b6040513d87823e3d90fd5b8680fd5b60405162461bcd60e51b815260206004820152602260248201527f555344435f415050524f56455f464f525f41474752454741544f525f4641494c604482015261115160f21b6064820152608490fd5b6104c0915060203d6020116104c6575b6104b88183610871565b8101906108a9565b38610328565b503d6104ae565b6040513d8a823e3d90fd5b90506040813d604011610508575b816104f360409383610871565b8101031261050457516103146102e8565b8880fd5b3d91506104e6565b6040513d8b823e3d90fd5b60405162461bcd60e51b815260206004820152601260248201527124b73b30b634b2103837b7b6103a37b5b2b760711b6044820152606490fd5b61056e915060203d6020116104c6576104b88183610871565b386102a6565b9261026f565b60405162461bcd60e51b815260206004820152601960248201527f555344435f5452414e534645525f46524f4d5f4641494c4544000000000000006044820152606490fd5b6105d8915060203d6020116104c6576104b88183610871565b38610214565b606460405162461bcd60e51b815260206004820152602060248201527f416d6f756e74206d7573742062652067726561746572207468616e207a65726f6044820152fd5b8580fd5b8380fd5b8280fd5b5080fd5b50346100b257806003193601126100b2576040517f00000000000000000000000000000000000000000000000000000000000000006001600160a01b03168152602090f35b50346100b257806003193601126100b2576040517f00000000000000000000000000000000000000000000000000000000000000006001600160a01b03168152602090f35b50346100b25760203660031901126100b2576004356001600160a01b0381169081900361062e577f0000000000000000000000000000000000000000000000000000000000000000610718336001600160a01b03831614610839565b6040516370a0823160e01b8152306004820152602081602481865afa9081156107eb5784916107b9575b508061074c578380f35b60405163a9059cbb60e01b81526001600160a01b039290921660048301526024820152906020908290604490829086905af180156107ae5761078f575b80808380f35b6107a79060203d6020116104c6576104b88183610871565b5038610789565b6040513d84823e3d90fd5b90506020813d6020116107e3575b816107d460209383610871565b81010312610626575138610742565b3d91506107c7565b6040513d86823e3d90fd5b90503461062e578160031936011261062e577f00000000000000000000000000000000000000000000000000000000000000006001600160a01b03168152602090f35b1561084057565b60405162461bcd60e51b81526020600482015260096024820152682737ba1037bbb732b960b91b6044820152606490fd5b90601f8019910116810190811067ffffffffffffffff82111761089357604052565b634e487b7160e01b600052604160045260246000fd5b908160209103126108c1575180151581036108c15790565b600080fd5b908060209392818452848401376000828201840152601f01601f191601019056fea26469706673582212200e5475c016d82e74f87cc9593a856a8e95e90f6171d5515dae97da3dd06cb41564736f6c634300081c0033","opcodes":"PUSH2 0x100 CALLVALUE PUSH2 0xC3 JUMPI PUSH1 0x1F PUSH2 0xA10 CODESIZE DUP2 SWAP1 SUB SWAP2 DUP3 ADD PUSH1 0x1F NOT AND DUP4 ADD SWAP2 PUSH1 0x1 PUSH1 0x1 PUSH1 0x40 SHL SUB DUP4 GT DUP5 DUP5 LT OR PUSH2 0xC8 JUMPI DUP1 DUP5 SWAP3 PUSH1 0x60 SWAP5 PUSH1 0x40 MSTORE DUP4 CODECOPY DUP2 ADD SUB SLT PUSH2 0xC3 JUMPI PUSH2 0x48 DUP2 PUSH2 0xDE JUMP JUMPDEST SWAP1 PUSH2 0x61 PUSH1 0x40 PUSH2 0x5A PUSH1 0x20 DUP5 ADD PUSH2 0xDE JUMP JUMPDEST SWAP3 ADD PUSH2 0xDE JUMP JUMPDEST SWAP2 CALLER PUSH1 0x80 MSTORE PUSH1 0xA0 MSTORE PUSH1 0xC0 MSTORE PUSH1 0xE0 MSTORE PUSH1 0x40 MLOAD PUSH2 0x91D SWAP1 DUP2 PUSH2 0xF3 DUP3 CODECOPY PUSH1 0x80 MLOAD DUP2 DUP2 DUP2 PUSH1 0xCC ADD MSTORE DUP2 DUP2 PUSH2 0x648 ADD MSTORE PUSH2 0x6E5 ADD MSTORE PUSH1 0xA0 MLOAD DUP2 DUP2 DUP2 PUSH2 0x1D2 ADD MSTORE PUSH2 0x68D ADD MSTORE PUSH1 0xC0 MLOAD DUP2 DUP2 DUP2 PUSH2 0x21C ADD MSTORE PUSH2 0x80A ADD MSTORE PUSH1 0xE0 MLOAD DUP2 DUP2 DUP2 PUSH1 0x83 ADD MSTORE PUSH2 0x24E ADD MSTORE RETURN JUMPDEST PUSH1 0x0 DUP1 REVERT JUMPDEST PUSH4 0x4E487B71 PUSH1 0xE0 SHL PUSH1 0x0 MSTORE PUSH1 0x41 PUSH1 0x4 MSTORE PUSH1 0x24 PUSH1 0x0 REVERT JUMPDEST MLOAD SWAP1 PUSH1 0x1 PUSH1 0x1 PUSH1 0xA0 SHL SUB DUP3 AND DUP3 SUB PUSH2 0xC3 JUMPI JUMP INVALID PUSH1 0x80 DUP1 PUSH1 0x40 MSTORE PUSH1 0x4 CALLDATASIZE LT ISZERO PUSH2 0x13 JUMPI PUSH1 0x0 DUP1 REVERT JUMPDEST PUSH1 0x0 SWAP1 DUP2 CALLDATALOAD PUSH1 0xE0 SHR SWAP1 DUP2 PUSH4 0x29FA22DF EQ PUSH2 0x7F6 JUMPI POP DUP1 PUSH4 0x49DF728C EQ PUSH2 0x6BC JUMPI DUP1 PUSH4 0x77B53ECE EQ PUSH2 0x677 JUMPI DUP1 PUSH4 0x8DA5CB5B EQ PUSH2 0x632 JUMPI DUP1 PUSH4 0x91397931 EQ PUSH2 0x127 JUMPI DUP1 PUSH4 0xA0EF91DF EQ PUSH2 0xB5 JUMPI PUSH4 0xB6F85AE7 EQ PUSH2 0x6E JUMPI PUSH1 0x0 DUP1 REVERT JUMPDEST CALLVALUE PUSH2 0xB2 JUMPI DUP1 PUSH1 0x3 NOT CALLDATASIZE ADD SLT PUSH2 0xB2 JUMPI PUSH1 0x40 MLOAD PUSH32 0x0 PUSH1 0x1 PUSH1 0x1 PUSH1 0xA0 SHL SUB AND DUP2 MSTORE PUSH1 0x20 SWAP1 RETURN JUMPDEST DUP1 REVERT JUMPDEST POP CALLVALUE PUSH2 0xB2 JUMPI DUP1 PUSH1 0x3 NOT CALLDATASIZE ADD SLT PUSH2 0xB2 JUMPI DUP1 DUP1 DUP1 DUP1 PUSH32 0x0 PUSH1 0x1 PUSH1 0x1 PUSH1 0xA0 SHL SUB AND PUSH2 0xFF CALLER DUP3 EQ PUSH2 0x839 JUMP JUMPDEST SELFBALANCE SWAP1 DUP3 DUP3 ISZERO PUSH2 0x11E JUMPI JUMPDEST CALL ISZERO PUSH2 0x112 JUMPI DUP1 RETURN JUMPDEST PUSH1 0x40 MLOAD SWAP1 RETURNDATASIZE SWAP1 DUP3 RETURNDATACOPY RETURNDATASIZE SWAP1 REVERT JUMPDEST POP PUSH2 0x8FC PUSH2 0x109 JUMP JUMPDEST POP CALLVALUE PUSH2 0xB2 JUMPI PUSH1 0x80 CALLDATASIZE PUSH1 0x3 NOT ADD SLT PUSH2 0xB2 JUMPI PUSH1 0x4 CALLDATALOAD SWAP1 PUSH1 0x24 CALLDATALOAD PUSH8 0xFFFFFFFFFFFFFFFF DUP2 GT PUSH2 0x62E JUMPI CALLDATASIZE PUSH1 0x23 DUP3 ADD SLT ISZERO PUSH2 0x62E JUMPI DUP1 PUSH1 0x4 ADD CALLDATALOAD SWAP1 PUSH8 0xFFFFFFFFFFFFFFFF DUP3 GT PUSH2 0x62A JUMPI PUSH1 0x24 DUP2 ADD SWAP1 PUSH1 0x24 DUP4 CALLDATASIZE SWAP3 ADD ADD GT PUSH2 0x62A JUMPI PUSH1 0x44 CALLDATALOAD PUSH1 0x1 PUSH1 0x1 PUSH1 0xA0 SHL SUB DUP2 AND SWAP3 SWAP1 DUP4 SWAP1 SUB PUSH2 0x626 JUMPI PUSH1 0x64 CALLDATALOAD PUSH1 0x1 PUSH1 0x1 PUSH1 0xA0 SHL SUB DUP2 AND DUP1 DUP3 SUB PUSH2 0x622 JUMPI DUP7 ISZERO PUSH2 0x5DE JUMPI PUSH1 0x40 MLOAD PUSH4 0x23B872DD PUSH1 0xE0 SHL DUP2 MSTORE CALLER PUSH1 0x4 DUP3 ADD MSTORE ADDRESS PUSH1 0x24 DUP3 ADD MSTORE PUSH1 0x44 DUP2 ADD DUP9 SWAP1 MSTORE PUSH32 0x0 PUSH1 0x1 PUSH1 0x1 PUSH1 0xA0 SHL SUB AND SWAP2 SWAP1 PUSH1 0x20 DUP2 PUSH1 0x64 DUP2 DUP12 DUP8 GAS CALL SWAP1 DUP2 ISZERO PUSH2 0x4CD JUMPI DUP9 SWAP2 PUSH2 0x5BF JUMPI JUMPDEST POP ISZERO PUSH2 0x57A JUMPI PUSH32 0x0 SWAP3 PUSH1 0x1 PUSH1 0x1 PUSH1 0xA0 SHL SUB DUP5 AND SWAP2 PUSH2 0x574 JUMPI POP PUSH32 0x0 SWAP3 JUMPDEST PUSH1 0x40 MLOAD PUSH4 0xDE260F37 PUSH1 0xE0 SHL DUP2 MSTORE PUSH1 0x1 PUSH1 0x1 PUSH1 0xA0 SHL SUB SWAP1 SWAP5 AND PUSH1 0x4 DUP6 ADD DUP2 SWAP1 MSTORE SWAP4 PUSH1 0x20 DUP2 PUSH1 0x24 DUP2 DUP7 GAS STATICCALL SWAP1 DUP2 ISZERO PUSH2 0x510 JUMPI DUP10 SWAP2 PUSH2 0x555 JUMPI JUMPDEST POP ISZERO PUSH2 0x51B JUMPI PUSH1 0x40 MLOAD PUSH4 0x3C197F57 PUSH1 0xE0 SHL DUP2 MSTORE DUP4 PUSH1 0x4 DUP3 ADD MSTORE DUP5 PUSH1 0x24 DUP3 ADD MSTORE DUP10 PUSH1 0x44 DUP3 ADD MSTORE DUP9 PUSH1 0x64 DUP3 ADD MSTORE PUSH1 0x40 DUP2 PUSH1 0x84 DUP2 DUP7 GAS STATICCALL SWAP1 DUP2 ISZERO PUSH2 0x510 JUMPI DUP10 SWAP2 PUSH2 0x4D8 JUMPI JUMPDEST POP PUSH1 0x40 MLOAD PUSH4 0x95EA7B3 PUSH1 0xE0 SHL DUP2 MSTORE PUSH1 0x1 PUSH1 0x1 PUSH1 0xA0 SHL SUB SWAP1 SWAP3 AND PUSH1 0x4 DUP4 ADD MSTORE PUSH1 0x24 DUP3 ADD MSTORE PUSH1 0x20 DUP2 DUP1 PUSH1 0x44 DUP2 ADD JUMPDEST SUB DUP2 DUP12 DUP8 GAS CALL SWAP1 DUP2 ISZERO PUSH2 0x4CD JUMPI DUP9 SWAP2 PUSH2 0x49E JUMPI JUMPDEST POP ISZERO PUSH2 0x44E JUMPI DUP1 EXTCODESIZE ISZERO PUSH2 0x44A JUMPI SWAP1 DUP7 SWAP2 PUSH1 0x40 MLOAD SWAP4 DUP5 SWAP3 PUSH4 0xA98C9625 PUSH1 0xE0 SHL DUP5 MSTORE PUSH1 0x4 DUP5 ADD MSTORE PUSH1 0x24 DUP4 ADD MSTORE DUP9 PUSH1 0x44 DUP4 ADD MSTORE DUP3 PUSH1 0x64 DUP4 ADD MSTORE DUP7 PUSH1 0x84 DUP4 ADD MSTORE PUSH1 0xE0 PUSH1 0xA4 DUP4 ADD MSTORE DUP2 DUP4 PUSH1 0x40 PUSH2 0x37D PUSH1 0xE4 DUP5 ADD DUP10 DUP12 PUSH2 0x8C6 JUMP JUMPDEST PUSH32 0x436172626F6E207265746972656D656E7420766961204F66667365745A617000 PUSH1 0x20 DUP6 DUP4 SUB SWAP3 PUSH1 0x3 NOT DUP5 ADD PUSH1 0xC4 DUP9 ADD MSTORE PUSH1 0x1F DUP2 MSTORE ADD MSTORE ADD SWAP3 GAS CALL DUP1 ISZERO PUSH2 0x43F JUMPI PUSH2 0x40B JUMPI JUMPDEST POP PUSH32 0x6F9582FBF31628201F2084A1A939B445B03654A9000618BE3685A7A5BE567C5B SWAP3 SWAP4 SWAP5 PUSH2 0x3FF PUSH1 0x40 MLOAD SWAP4 DUP5 SWAP4 PUSH1 0x40 DUP6 MSTORE PUSH1 0x40 DUP6 ADD SWAP2 PUSH2 0x8C6 JUMP JUMPDEST SWAP1 PUSH1 0x20 DUP4 ADD MSTORE SUB SWAP1 LOG2 DUP1 RETURN JUMPDEST SWAP4 PUSH2 0x438 DUP2 PUSH32 0x6F9582FBF31628201F2084A1A939B445B03654A9000618BE3685A7A5BE567C5B SWAP6 SWAP7 PUSH2 0x871 JUMP JUMPDEST SWAP4 SWAP3 PUSH2 0x3C3 JUMP JUMPDEST PUSH1 0x40 MLOAD RETURNDATASIZE DUP8 DUP3 RETURNDATACOPY RETURNDATASIZE SWAP1 REVERT JUMPDEST DUP7 DUP1 REVERT JUMPDEST PUSH1 0x40 MLOAD PUSH3 0x461BCD PUSH1 0xE5 SHL DUP2 MSTORE PUSH1 0x20 PUSH1 0x4 DUP3 ADD MSTORE PUSH1 0x22 PUSH1 0x24 DUP3 ADD MSTORE PUSH32 0x555344435F415050524F56455F464F525F41474752454741544F525F4641494C PUSH1 0x44 DUP3 ADD MSTORE PUSH2 0x1151 PUSH1 0xF2 SHL PUSH1 0x64 DUP3 ADD MSTORE PUSH1 0x84 SWAP1 REVERT JUMPDEST PUSH2 0x4C0 SWAP2 POP PUSH1 0x20 RETURNDATASIZE PUSH1 0x20 GT PUSH2 0x4C6 JUMPI JUMPDEST PUSH2 0x4B8 DUP2 DUP4 PUSH2 0x871 JUMP JUMPDEST DUP2 ADD SWAP1 PUSH2 0x8A9 JUMP JUMPDEST CODESIZE PUSH2 0x328 JUMP JUMPDEST POP RETURNDATASIZE PUSH2 0x4AE JUMP JUMPDEST PUSH1 0x40 MLOAD RETURNDATASIZE DUP11 DUP3 RETURNDATACOPY RETURNDATASIZE SWAP1 REVERT JUMPDEST SWAP1 POP PUSH1 0x40 DUP2 RETURNDATASIZE PUSH1 0x40 GT PUSH2 0x508 JUMPI JUMPDEST DUP2 PUSH2 0x4F3 PUSH1 0x40 SWAP4 DUP4 PUSH2 0x871 JUMP JUMPDEST DUP2 ADD SUB SLT PUSH2 0x504 JUMPI MLOAD PUSH2 0x314 PUSH2 0x2E8 JUMP JUMPDEST DUP9 DUP1 REVERT JUMPDEST RETURNDATASIZE SWAP2 POP PUSH2 0x4E6 JUMP JUMPDEST PUSH1 0x40 MLOAD RETURNDATASIZE DUP12 DUP3 RETURNDATACOPY RETURNDATASIZE SWAP1 REVERT JUMPDEST PUSH1 0x40 MLOAD PUSH3 0x461BCD PUSH1 0xE5 SHL DUP2 MSTORE PUSH1 0x20 PUSH1 0x4 DUP3 ADD MSTORE PUSH1 0x12 PUSH1 0x24 DUP3 ADD MSTORE PUSH18 0x24B73B30B634B2103837B7B6103A37B5B2B7 PUSH1 0x71 SHL PUSH1 0x44 DUP3 ADD MSTORE PUSH1 0x64 SWAP1 REVERT JUMPDEST PUSH2 0x56E SWAP2 POP PUSH1 0x20 RETURNDATASIZE PUSH1 0x20 GT PUSH2 0x4C6 JUMPI PUSH2 0x4B8 DUP2 DUP4 PUSH2 0x871 JUMP JUMPDEST CODESIZE PUSH2 0x2A6 JUMP JUMPDEST SWAP3 PUSH2 0x26F JUMP JUMPDEST PUSH1 0x40 MLOAD PUSH3 0x461BCD PUSH1 0xE5 SHL DUP2 MSTORE PUSH1 0x20 PUSH1 0x4 DUP3 ADD MSTORE PUSH1 0x19 PUSH1 0x24 DUP3 ADD MSTORE PUSH32 0x555344435F5452414E534645525F46524F4D5F4641494C454400000000000000 PUSH1 0x44 DUP3 ADD MSTORE PUSH1 0x64 SWAP1 REVERT JUMPDEST PUSH2 0x5D8 SWAP2 POP PUSH1 0x20 RETURNDATASIZE PUSH1 0x20 GT PUSH2 0x4C6 JUMPI PUSH2 0x4B8 DUP2 DUP4 PUSH2 0x871 JUMP JUMPDEST CODESIZE PUSH2 0x214 JUMP JUMPDEST PUSH1 0x64 PUSH1 0x40 MLOAD PUSH3 0x461BCD PUSH1 0xE5 SHL DUP2 MSTORE PUSH1 0x20 PUSH1 0x4 DUP3 ADD MSTORE PUSH1 0x20 PUSH1 0x24 DUP3 ADD MSTORE PUSH32 0x416D6F756E74206D7573742062652067726561746572207468616E207A65726F PUSH1 0x44 DUP3 ADD MSTORE REVERT JUMPDEST DUP6 DUP1 REVERT JUMPDEST DUP4 DUP1 REVERT JUMPDEST DUP3 DUP1 REVERT JUMPDEST POP DUP1 REVERT JUMPDEST POP CALLVALUE PUSH2 0xB2 JUMPI DUP1 PUSH1 0x3 NOT CALLDATASIZE ADD SLT PUSH2 0xB2 JUMPI PUSH1 0x40 MLOAD PUSH32 0x0 PUSH1 0x1 PUSH1 0x1 PUSH1 0xA0 SHL SUB AND DUP2 MSTORE PUSH1 0x20 SWAP1 RETURN JUMPDEST POP CALLVALUE PUSH2 0xB2 JUMPI DUP1 PUSH1 0x3 NOT CALLDATASIZE ADD SLT PUSH2 0xB2 JUMPI PUSH1 0x40 MLOAD PUSH32 0x0 PUSH1 0x1 PUSH1 0x1 PUSH1 0xA0 SHL SUB AND DUP2 MSTORE PUSH1 0x20 SWAP1 RETURN JUMPDEST POP CALLVALUE PUSH2 0xB2 JUMPI PUSH1 0x20 CALLDATASIZE PUSH1 0x3 NOT ADD SLT PUSH2 0xB2 JUMPI PUSH1 0x4 CALLDATALOAD PUSH1 0x1 PUSH1 0x1 PUSH1 0xA0 SHL SUB DUP2 AND SWAP1 DUP2 SWAP1 SUB PUSH2 0x62E JUMPI PUSH32 0x0 PUSH2 0x718 CALLER PUSH1 0x1 PUSH1 0x1 PUSH1 0xA0 SHL SUB DUP4 AND EQ PUSH2 0x839 JUMP JUMPDEST PUSH1 0x40 MLOAD PUSH4 0x70A08231 PUSH1 0xE0 SHL DUP2 MSTORE ADDRESS PUSH1 0x4 DUP3 ADD MSTORE PUSH1 0x20 DUP2 PUSH1 0x24 DUP2 DUP7 GAS STATICCALL SWAP1 DUP2 ISZERO PUSH2 0x7EB JUMPI DUP5 SWAP2 PUSH2 0x7B9 JUMPI JUMPDEST POP DUP1 PUSH2 0x74C JUMPI DUP4 DUP1 RETURN JUMPDEST PUSH1 0x40 MLOAD PUSH4 0xA9059CBB PUSH1 0xE0 SHL DUP2 MSTORE PUSH1 0x1 PUSH1 0x1 PUSH1 0xA0 SHL SUB SWAP3 SWAP1 SWAP3 AND PUSH1 0x4 DUP4 ADD MSTORE PUSH1 0x24 DUP3 ADD MSTORE SWAP1 PUSH1 0x20 SWAP1 DUP3 SWAP1 PUSH1 0x44 SWAP1 DUP3 SWAP1 DUP7 SWAP1 GAS CALL DUP1 ISZERO PUSH2 0x7AE JUMPI PUSH2 0x78F JUMPI JUMPDEST DUP1 DUP1 DUP4 DUP1 RETURN JUMPDEST PUSH2 0x7A7 SWAP1 PUSH1 0x20 RETURNDATASIZE PUSH1 0x20 GT PUSH2 0x4C6 JUMPI PUSH2 0x4B8 DUP2 DUP4 PUSH2 0x871 JUMP JUMPDEST POP CODESIZE PUSH2 0x789 JUMP JUMPDEST PUSH1 0x40 MLOAD RETURNDATASIZE DUP5 DUP3 RETURNDATACOPY RETURNDATASIZE SWAP1 REVERT JUMPDEST SWAP1 POP PUSH1 0x20 DUP2 RETURNDATASIZE PUSH1 0x20 GT PUSH2 0x7E3 JUMPI JUMPDEST DUP2 PUSH2 0x7D4 PUSH1 0x20 SWAP4 DUP4 PUSH2 0x871 JUMP JUMPDEST DUP2 ADD SUB SLT PUSH2 0x626 JUMPI MLOAD CODESIZE PUSH2 0x742 JUMP JUMPDEST RETURNDATASIZE SWAP2 POP PUSH2 0x7C7 JUMP JUMPDEST PUSH1 0x40 MLOAD RETURNDATASIZE DUP7 DUP3 RETURNDATACOPY RETURNDATASIZE SWAP1 REVERT JUMPDEST SWAP1 POP CALLVALUE PUSH2 0x62E JUMPI DUP2 PUSH1 0x3 NOT CALLDATASIZE ADD SLT PUSH2 0x62E JUMPI PUSH32 0x0 PUSH1 0x1 PUSH1 0x1 PUSH1 0xA0 SHL SUB AND DUP2 MSTORE PUSH1 0x20 SWAP1 RETURN JUMPDEST ISZERO PUSH2 0x840 JUMPI JUMP JUMPDEST PUSH1 0x40 MLOAD PUSH3 0x461BCD PUSH1 0xE5 SHL DUP2 MSTORE PUSH1 0x20 PUSH1 0x4 DUP3 ADD MSTORE PUSH1 0x9 PUSH1 0x24 DUP3 ADD MSTORE PUSH9 0x2737BA1037BBB732B9 PUSH1 0xB9 SHL PUSH1 0x44 DUP3 ADD MSTORE PUSH1 0x64 SWAP1 REVERT JUMPDEST SWAP1 PUSH1 0x1F DUP1 NOT SWAP2 ADD AND DUP2 ADD SWAP1 DUP2 LT PUSH8 0xFFFFFFFFFFFFFFFF DUP3 GT OR PUSH2 0x893 JUMPI PUSH1 0x40 MSTORE JUMP JUMPDEST PUSH4 0x4E487B71 PUSH1 0xE0 SHL PUSH1 0x0 MSTORE PUSH1 0x41 PUSH1 0x4 MSTORE PUSH1 0x24 PUSH1 0x0 REVERT JUMPDEST SWAP1 DUP2 PUSH1 0x20 SWAP2 SUB SLT PUSH2 0x8C1 JUMPI MLOAD DUP1 ISZERO ISZERO DUP2 SUB PUSH2 0x8C1 JUMPI SWAP1 JUMP JUMPDEST PUSH1 0x0 DUP1 REVERT JUMPDEST SWAP1 DUP1 PUSH1 0x20 SWAP4 SWAP3 DUP2 DUP5 MSTORE DUP5 DUP5 ADD CALLDATACOPY PUSH1 0x0 DUP3 DUP3 ADD DUP5 ADD MSTORE PUSH1 0x1F ADD PUSH1 0x1F NOT AND ADD ADD SWAP1 JUMP INVALID LOG2 PUSH5 0x6970667358 0x22 SLT KECCAK256 0xE SLOAD PUSH22 0xC016D82E74F87CC9593A856A8E95E90F6171D5515DAE SWAP8 0xDA RETURNDATASIZE 0xD0 PUSH13 0xB41564736F6C634300081C0033 "},"methodIdentifiers":{"defaultPoolTokenAddress()":"b6f85ae7","klimaAggregatorAddress()":"29fa22df","owner()":"8da5cb5b","retireWithUsdc(uint256,string,address,address)":"91397931","usdcTokenAddress()":"77b53ece","withdrawEth()":"a0ef91df","withdrawTokens(address)":"49df728c"}}}}}