{"contracts/klima.sol":{"AcrossCarbonRetirementReceiver":{"abi":[{"inputs":[],"stateMutability":"nonpayable","type":"constructor"},{"inputs":[{"internalType":"address","name":"owner","type":"address"}],"name":"OwnableInvalidOwner","type":"error"},{"inputs":[{"internalType":"address","name":"account","type":"address"}],"name":"OwnableUnauthorizedAccount","type":"error"},{"inputs":[],"name":"ReentrancyGuardReentrantCall","type":"error"},{"anonymous":false,"inputs":[{"indexed":true,"internalType":"address","name":"previousOwner","type":"address"},{"indexed":true,"internalType":"address","name":"newOwner","type":"address"}],"name":"OwnershipTransferred","type":"event"},{"anonymous":false,"inputs":[{"indexed":true,"internalType":"address","name":"beneficiary","type":"address"},{"indexed":false,"internalType":"string","name":"beneficiaryName","type":"string"},{"indexed":false,"internalType":"address","name":"poolToken","type":"address"},{"indexed":false,"internalType":"uint256","name":"usdcAmount","type":"uint256"},{"indexed":false,"internalType":"uint256","name":"carbonAmount","type":"uint256"}],"name":"RetirementExecuted","type":"event"},{"anonymous":false,"inputs":[{"indexed":true,"internalType":"address","name":"beneficiary","type":"address"},{"indexed":false,"internalType":"address","name":"poolToken","type":"address"},{"indexed":false,"internalType":"uint256","name":"usdcAmount","type":"uint256"},{"indexed":false,"internalType":"string","name":"reason","type":"string"}],"name":"RetirementFailed","type":"event"},{"inputs":[],"name":"ACROSS_SPOKE_POOL","outputs":[{"internalType":"address","name":"","type":"address"}],"stateMutability":"view","type":"function"},{"inputs":[],"name":"DEFAULT_POOL_TOKEN","outputs":[{"internalType":"address","name":"","type":"address"}],"stateMutability":"view","type":"function"},{"inputs":[],"name":"KLIMA_AGGREGATOR","outputs":[{"internalType":"address","name":"","type":"address"}],"stateMutability":"view","type":"function"},{"inputs":[],"name":"USDC_TOKEN","outputs":[{"internalType":"address","name":"","type":"address"}],"stateMutability":"view","type":"function"},{"inputs":[{"internalType":"address","name":"recipient","type":"address"},{"internalType":"uint256","name":"amount","type":"uint256"},{"internalType":"bytes","name":"message","type":"bytes"}],"name":"handleAcrossTransfer","outputs":[],"stateMutability":"nonpayable","type":"function"},{"inputs":[{"internalType":"uint256","name":"usdcAmount","type":"uint256"},{"internalType":"address","name":"beneficiary","type":"address"},{"internalType":"string","name":"beneficiaryName","type":"string"},{"internalType":"address","name":"poolToken","type":"address"}],"name":"manualRetire","outputs":[],"stateMutability":"nonpayable","type":"function"},{"inputs":[],"name":"owner","outputs":[{"internalType":"address","name":"","type":"address"}],"stateMutability":"view","type":"function"},{"inputs":[],"name":"recoverEth","outputs":[],"stateMutability":"nonpayable","type":"function"},{"inputs":[{"internalType":"address","name":"token","type":"address"},{"internalType":"uint256","name":"amount","type":"uint256"}],"name":"recoverTokens","outputs":[],"stateMutability":"nonpayable","type":"function"},{"inputs":[],"name":"renounceOwnership","outputs":[],"stateMutability":"nonpayable","type":"function"},{"inputs":[{"internalType":"address","name":"operator","type":"address"},{"internalType":"address","name":"from","type":"address"},{"internalType":"address","name":"to","type":"address"},{"internalType":"uint256","name":"amount","type":"uint256"},{"internalType":"bytes","name":"userData","type":"bytes"},{"internalType":"bytes","name":"operatorData","type":"bytes"}],"name":"tokensReceived","outputs":[],"stateMutability":"nonpayable","type":"function"},{"inputs":[{"internalType":"address","name":"newOwner","type":"address"}],"name":"transferOwnership","outputs":[],"stateMutability":"nonpayable","type":"function"},{"stateMutability":"payable","type":"receive"}],"evm":{"bytecode":{"linkReferences":{},"object":"608080604052346101a9576000903315610195578154336001600160a01b0319821681178455906001600160a01b03167f8be0079c531659141344cd1fd0a4f28419497f9722a3daafe3b4186f6b6457e08480a36001805563095ea7b360e01b8152738ce54d9625371fb2a068986d32c85de8e6e995f86004820152600019602482015260208160448185732791bca1f2de4661ed88a30c99a7a9449aa841745af1801561014f5761015d575b50731820a4b7618bde71dce8cdc73aab6c95905fad243b1561015a576040516329965a1d60e01b815230600482018190527fb281fc8c12954d22544db45de3159a39272895b169a852b314f9cc762e44c53b60248301526044820152818160648183731820a4b7618bde71dce8cdc73aab6c95905fad245af1801561014f5761013f575b6040516112ed90816101e88239f35b81610149916101ae565b38610130565b6040513d84823e3d90fd5b80fd5b6020813d60201161018d575b81610176602093836101ae565b81010312610189575180151581146100ac575b5080fd5b3d9150610169565b631e4fbdf760e01b82526004829052602482fd5b600080fd5b601f909101601f19168101906001600160401b038211908210176101d157604052565b634e487b7160e01b600052604160045260246000fdfe6080604052600436101561001b575b361561001957600080fd5b005b60003560e01c806223de29146100da578063069c9fae146100d557806335e86070146100d057806340429fe1146100cb578063715018a6146100c65780638da5cb5b146100c1578063bcdb446b146100bc578063d4d0f984146100b7578063d72b1de1146100b2578063db3ac0ce146100ad578063f2fde38b146100a85763fa5692740361000e576106d9565b610650565b610621565b6105f2565b61050d565b6104ba565b610491565b610438565b61034e565b61028f565b6101d9565b610154565b600435906001600160a01b03821682036100f557565b600080fd5b602435906001600160a01b03821682036100f557565b606435906001600160a01b03821682036100f557565b9181601f840112156100f55782359167ffffffffffffffff83116100f557602083818601950101116100f557565b346100f55760c03660031901126100f55761016d6100df565b6101756100fa565b604435916001600160a01b03831683036100f55760643560843567ffffffffffffffff81116100f5576101ac903690600401610126565b9160a4359567ffffffffffffffff87116100f5576101d1610019973690600401610126565b969095610708565b346100f55760403660031901126100f5576101f26100df565b60206024356101ff610ec3565b6102076108e1565b6000805460405163a9059cbb60e01b81526001600160a01b03918216600482015260248101939093529193849260449284929091165af1801561028a57610252575b61001960018055565b6020813d602011610282575b8161026b602093836102d4565b810103126100f55751801515036100f55738610249565b3d915061025e565b6107e2565b346100f55760003660031901126100f5576020604051732f800db0fdb5223b3c3f354886d907a671414a7f8152f35b634e487b7160e01b600052604160045260246000fd5b90601f8019910116810190811067ffffffffffffffff8211176102f657604052565b6102be565b67ffffffffffffffff81116102f657601f01601f191660200190565b929192610323826102fb565b9161033160405193846102d4565b8294818452818301116100f5578281602093846000960137010152565b346100f55760803660031901126100f55760043561036a6100fa565b60443567ffffffffffffffff81116100f557366023820112156100f55761039b903690602481600401359101610317565b6103a3610110565b916103ac610ec3565b6103b46108e1565b6040516370a0823160e01b815230600482015293602085602481732791bca1f2de4661ed88a30c99a7a9449aa841745afa801561028a57816104049161024997600091610409575b5010156107fd565b610d1f565b61042b915060203d602011610431575b61042381836102d4565b8101906107ee565b386103fc565b503d610419565b346100f55760003660031901126100f557610451610ec3565b600080546001600160a01b0319811682556001600160a01b03167f8be0079c531659141344cd1fd0a4f28419497f9722a3daafe3b4186f6b6457e08280a3005b346100f55760003660031901126100f5576000546040516001600160a01b039091168152602090f35b346100f55760003660031901126100f5576104d3610ec3565b6104db6108e1565b6000805481908190819047906001600160a01b0316828215610504575bf11561028a5760018055005b506108fc6104f8565b346100f55760603660031901126100f5576105266100df565b6024356044359167ffffffffffffffff83116100f55761054d610587933690600401610126565b9390916105586108e1565b610577739295ee1d8c5b022be115a2ad3c30c72e34e7f0963314610849565b6001600160a01b03163014610895565b6040516370a0823160e01b8152306004820152602081602481732791bca1f2de4661ed88a30c99a7a9449aa841745afa91821561028a57610249946105dd856105e9956105e495600091610409575010156107fd565b3691610317565b6109da565b92919091610d1f565b346100f55760003660031901126100f5576020604051739295ee1d8c5b022be115a2ad3c30c72e34e7f0968152f35b346100f55760003660031901126100f5576020604051738ce54d9625371fb2a068986d32c85de8e6e995f88152f35b346100f55760203660031901126100f5576106696100df565b610671610ec3565b6001600160a01b031680156106c357600080546001600160a01b03198116831782556001600160a01b0316907f8be0079c531659141344cd1fd0a4f28419497f9722a3daafe3b4186f6b6457e09080a3005b631e4fbdf760e01b600052600060045260246000fd5b346100f55760003660031901126100f5576020604051732791bca1f2de4661ed88a30c99a7a9449aa841748152f35b5095509093509190916107196108e1565b6001600160a01b038516739295ee1d8c5b022be115a2ad3c30c72e34e7f0961490816107a3575b50610750575b5050505060018055565b61077393811561077c575061076a916105e4913691610317565b92909190610d1f565b38808080610746565b9150506107876107b6565b90732f800db0fdb5223b3c3f354886d907a671414a7f92610d1f565b6001600160a01b03163014905038610740565b604051906107c56040836102d4565b600e82526d27b33339b2ba2d30b8102ab9b2b960911b6020830152565b6040513d6000823e3d90fd5b908160209103126100f5575190565b1561080457565b60405162461bcd60e51b815260206004820152601960248201527f496e73756666696369656e7420555344432062616c616e6365000000000000006044820152606490fd5b1561085057565b60405162461bcd60e51b815260206004820152601e60248201527f4f6e6c79204163726f73732053706f6b65506f6f6c2063616e2063616c6c00006044820152606490fd5b1561089c57565b60405162461bcd60e51b815260206004820152601f60248201527f526563697069656e74206d757374206265207468697320636f6e7472616374006044820152606490fd5b6002600154146108f2576002600155565b633ee5aeb560e01b60005260046000fd5b604051906109126040836102d4565b601082526f16113132b732b334b1b4b0b93c911d1160811b6020830152565b634e487b7160e01b600052601160045260246000fd5b906002820180921161095557565b610931565b906003820180921161095557565b9190820180921161095557565b604051906109846040836102d4565b601582527416113837b7b62a37b5b2b720b2323932b9b9911d1160591b6020830152565b604051906109b76040836102d4565b601482527316113132b732b334b1b4b0b93ca730b6b2911d1160611b6020830152565b906000916109e66107b6565b91732f800db0fdb5223b3c3f354886d907a671414a7f918051610a47575b506001600160a01b03841615610a3f575b6001600160a01b03821615610a2657565b732f800db0fdb5223b3c3f354886d907a671414a7f9150565b339350610a15565b610a4f610903565b610a598183610f2f565b906000821215610ae8575b5050610a6e610975565b610a788183610f2f565b906000821215610ac9575b5050610a8d6109a8565b610a978183610f2f565b906000821215610aa9575b5050610a04565b51929450610ac092610aba91610968565b9061120f565b91388080610aa2565b51919350610ae091610ada91610968565b836110cd565b913880610a83565b51919550610aff91610af991610968565b856110cd565b933880610a64565b919082519283825260005b848110610b33575050826000602080949584010152601f8019910116010190565b80602080928401015182828601015201610b12565b9493610bc390610c019460e094604094732791bca1f2de4661ed88a30c99a7a9449aa841748a5260018060a01b031660208a015284890152610100606089015260096101008901526804f66667365745a61760bc1b61012089015260018060a01b0316608088015261014060a0880152610140870190610b07565b85810360c0870152601b81527f436172626f6e206f666673657420766961204f66667365745a617000000000006020820152019301600060ff169052565b565b9092610c1c606093969594608084526080840190610b07565b6001600160a01b03909616602083015260408201520152565b60009060033d11610c4257565b905060046000803e60005160e01c90565b600060443d10610cba576040513d600319016004823e8051913d602484011167ffffffffffffffff841117610cc5578282019283519167ffffffffffffffff8311610cbd573d84016003190185840160200111610cbd5750610cba929101602001906102d4565b90565b949350505050565b92915050565b610cba939260609260018060a01b0316825260208201528160408201520190610b07565b3d15610d1a573d90610d00826102fb565b91610d0e60405193846102d4565b82523d6000602084013e565b606090565b9091604051636fb9367f60e11b815260208180610d428588888b60048601610b48565b03816000738ce54d9625371fb2a068986d32c85de8e6e995f85af160009181610ea2575b50610e625750506001610d77610c35565b6308c379a014610e02575b610d8b57505050565b7fd80252b4823cfb933240fde61f4f459729a50f971c0c76746e264117496d5e9491610db5610cef565b50604080516001600160a01b03958616815260208101939093526060908301819052600d908301526c2ab735b737bbb71032b93937b960991b6080830152909216918060a081015b0390a2565b610e0a610c53565b80610e16575b50610d82565b604051600092506001600160a01b038516917fd80252b4823cfb933240fde61f4f459729a50f971c0c76746e264117496d5e9491908190610e5990878a84610ccb565b0390a238610e10565b6040516001600160a01b03909416947f9844159a631815b14cd3c5871074053d7610ffe1a6a016d77b7524e53c41af9a94938493610dfd93929085610c03565b610ebc91925060203d6020116104315761042381836102d4565b9038610d66565b6000546001600160a01b03163303610ed757565b63118cdaa760e01b6000523360045260246000fd5b60001981146109555760010190565b9190820391821161095557565b908151811015610f19570160200190565b634e487b7160e01b600052603260045260246000fd5b9080518015610ffa57825110610ff2576000905b610f508351825190610efb565b8211610fe95760019260005b8251811015610fdf57610f89610f7b610f758387610968565b84610f08565b516001600160f81b03191690565b610fa6610f99610f7b8487610f08565b6001600160f81b03191690565b6001600160f81b031990911603610fbf57600101610f5c565b5092509060005b610fd957610fd390610eec565b90610f43565b91505090565b5092919091610fc6565b50505060001990565b505060001990565b505050600090565b6040516060919061101383826102d4565b602a815291601f1901366020840137565b6040805190919061103583826102d4565b6014815291601f1901366020840137565b90611050826102fb565b61105d60405191826102d4565b828152809261106e601f19916102fb565b0190602036910137565b600181901b91906001600160ff1b0381160361095557565b9060ff8091169116039060ff821161095557565b60041b90610ff060f083169216820361095557565b9060ff8091169116019060ff821161095557565b9190916110d8611002565b9260005b602a8110806111fc575b1561111d5780611105610f7b6110ff6111189486610968565b86610f08565b60001a6111128288610f08565b53610eec565b6110dc565b505050611128611024565b60005b6014811061113c5750602001519150565b6001906111e06111d0866111cb6111c585604161119761119161117f610f7b6111a48686868686868f61118b61117a61118585856110ff848d611078565b610947565b60f81c90565b98611078565b90610f08565b60ff1690565b106111f457603790611090565b9861118b6111c061118561117f610f7b6110ff6111c08d611078565b61095a565b916110a4565b6110b9565b60f81b6001600160f81b03191690565b60001a6111ed8285610f08565b530161112b565b603090611090565b506112078183610968565b8351116110e6565b91815b8351811080611295575b1561122f5761122a90610eec565b611212565b918083038381116109555761124390611046565b9160005b6112518386610efb565b81101561128c5782600182611275610f7b61126f6112519686610968565b8b610f08565b60001a6112828289610f08565b5301915050611247565b50935050905090565b50601160f91b6001600160f81b03196112ae8387610f08565b5116141561121c56fea2646970667358221220bf0ac09bb0b88683cca8b823d15518993a2e11cb3f02b736d1c713107a24879264736f6c634300081c0033","opcodes":"PUSH1 0x80 DUP1 PUSH1 0x40 MSTORE CALLVALUE PUSH2 0x1A9 JUMPI PUSH1 0x0 SWAP1 CALLER ISZERO PUSH2 0x195 JUMPI DUP2 SLOAD CALLER PUSH1 0x1 PUSH1 0x1 PUSH1 0xA0 SHL SUB NOT DUP3 AND DUP2 OR DUP5 SSTORE SWAP1 PUSH1 0x1 PUSH1 0x1 PUSH1 0xA0 SHL SUB AND PUSH32 0x8BE0079C531659141344CD1FD0A4F28419497F9722A3DAAFE3B4186F6B6457E0 DUP5 DUP1 LOG3 PUSH1 0x1 DUP1 SSTORE PUSH4 0x95EA7B3 PUSH1 0xE0 SHL DUP2 MSTORE PUSH20 0x8CE54D9625371FB2A068986D32C85DE8E6E995F8 PUSH1 0x4 DUP3 ADD MSTORE PUSH1 0x0 NOT PUSH1 0x24 DUP3 ADD MSTORE PUSH1 0x20 DUP2 PUSH1 0x44 DUP2 DUP6 PUSH20 0x2791BCA1F2DE4661ED88A30C99A7A9449AA84174 GAS CALL DUP1 ISZERO PUSH2 0x14F JUMPI PUSH2 0x15D JUMPI JUMPDEST POP PUSH20 0x1820A4B7618BDE71DCE8CDC73AAB6C95905FAD24 EXTCODESIZE ISZERO PUSH2 0x15A JUMPI PUSH1 0x40 MLOAD PUSH4 0x29965A1D PUSH1 0xE0 SHL DUP2 MSTORE ADDRESS PUSH1 0x4 DUP3 ADD DUP2 SWAP1 MSTORE PUSH32 0xB281FC8C12954D22544DB45DE3159A39272895B169A852B314F9CC762E44C53B PUSH1 0x24 DUP4 ADD MSTORE PUSH1 0x44 DUP3 ADD MSTORE DUP2 DUP2 PUSH1 0x64 DUP2 DUP4 PUSH20 0x1820A4B7618BDE71DCE8CDC73AAB6C95905FAD24 GAS CALL DUP1 ISZERO PUSH2 0x14F JUMPI PUSH2 0x13F JUMPI JUMPDEST PUSH1 0x40 MLOAD PUSH2 0x12ED SWAP1 DUP2 PUSH2 0x1E8 DUP3 CODECOPY RETURN JUMPDEST DUP2 PUSH2 0x149 SWAP2 PUSH2 0x1AE JUMP JUMPDEST CODESIZE PUSH2 0x130 JUMP JUMPDEST PUSH1 0x40 MLOAD RETURNDATASIZE DUP5 DUP3 RETURNDATACOPY RETURNDATASIZE SWAP1 REVERT JUMPDEST DUP1 REVERT JUMPDEST PUSH1 0x20 DUP2 RETURNDATASIZE PUSH1 0x20 GT PUSH2 0x18D JUMPI JUMPDEST DUP2 PUSH2 0x176 PUSH1 0x20 SWAP4 DUP4 PUSH2 0x1AE JUMP JUMPDEST DUP2 ADD SUB SLT PUSH2 0x189 JUMPI MLOAD DUP1 ISZERO ISZERO DUP2 EQ PUSH2 0xAC JUMPI JUMPDEST POP DUP1 REVERT JUMPDEST RETURNDATASIZE SWAP2 POP PUSH2 0x169 JUMP JUMPDEST PUSH4 0x1E4FBDF7 PUSH1 0xE0 SHL DUP3 MSTORE PUSH1 0x4 DUP3 SWAP1 MSTORE PUSH1 0x24 DUP3 REVERT JUMPDEST PUSH1 0x0 DUP1 REVERT JUMPDEST PUSH1 0x1F SWAP1 SWAP2 ADD PUSH1 0x1F NOT AND DUP2 ADD SWAP1 PUSH1 0x1 PUSH1 0x1 PUSH1 0x40 SHL SUB DUP3 GT SWAP1 DUP3 LT OR PUSH2 0x1D1 JUMPI PUSH1 0x40 MSTORE JUMP JUMPDEST PUSH4 0x4E487B71 PUSH1 0xE0 SHL PUSH1 0x0 MSTORE PUSH1 0x41 PUSH1 0x4 MSTORE PUSH1 0x24 PUSH1 0x0 REVERT INVALID PUSH1 0x80 PUSH1 0x40 MSTORE PUSH1 0x4 CALLDATASIZE LT ISZERO PUSH2 0x1B JUMPI JUMPDEST CALLDATASIZE ISZERO PUSH2 0x19 JUMPI PUSH1 0x0 DUP1 REVERT JUMPDEST STOP JUMPDEST PUSH1 0x0 CALLDATALOAD PUSH1 0xE0 SHR DUP1 PUSH3 0x23DE29 EQ PUSH2 0xDA JUMPI DUP1 PUSH4 0x69C9FAE EQ PUSH2 0xD5 JUMPI DUP1 PUSH4 0x35E86070 EQ PUSH2 0xD0 JUMPI DUP1 PUSH4 0x40429FE1 EQ PUSH2 0xCB JUMPI DUP1 PUSH4 0x715018A6 EQ PUSH2 0xC6 JUMPI DUP1 PUSH4 0x8DA5CB5B EQ PUSH2 0xC1 JUMPI DUP1 PUSH4 0xBCDB446B EQ PUSH2 0xBC JUMPI DUP1 PUSH4 0xD4D0F984 EQ PUSH2 0xB7 JUMPI DUP1 PUSH4 0xD72B1DE1 EQ PUSH2 0xB2 JUMPI DUP1 PUSH4 0xDB3AC0CE EQ PUSH2 0xAD JUMPI DUP1 PUSH4 0xF2FDE38B EQ PUSH2 0xA8 JUMPI PUSH4 0xFA569274 SUB PUSH2 0xE JUMPI PUSH2 0x6D9 JUMP JUMPDEST PUSH2 0x650 JUMP JUMPDEST PUSH2 0x621 JUMP JUMPDEST PUSH2 0x5F2 JUMP JUMPDEST PUSH2 0x50D JUMP JUMPDEST PUSH2 0x4BA JUMP JUMPDEST PUSH2 0x491 JUMP JUMPDEST PUSH2 0x438 JUMP JUMPDEST PUSH2 0x34E JUMP JUMPDEST PUSH2 0x28F JUMP JUMPDEST PUSH2 0x1D9 JUMP JUMPDEST PUSH2 0x154 JUMP JUMPDEST PUSH1 0x4 CALLDATALOAD SWAP1 PUSH1 0x1 PUSH1 0x1 PUSH1 0xA0 SHL SUB DUP3 AND DUP3 SUB PUSH2 0xF5 JUMPI JUMP JUMPDEST PUSH1 0x0 DUP1 REVERT JUMPDEST PUSH1 0x24 CALLDATALOAD SWAP1 PUSH1 0x1 PUSH1 0x1 PUSH1 0xA0 SHL SUB DUP3 AND DUP3 SUB PUSH2 0xF5 JUMPI JUMP JUMPDEST PUSH1 0x64 CALLDATALOAD SWAP1 PUSH1 0x1 PUSH1 0x1 PUSH1 0xA0 SHL SUB DUP3 AND DUP3 SUB PUSH2 0xF5 JUMPI JUMP JUMPDEST SWAP2 DUP2 PUSH1 0x1F DUP5 ADD SLT ISZERO PUSH2 0xF5 JUMPI DUP3 CALLDATALOAD SWAP2 PUSH8 0xFFFFFFFFFFFFFFFF DUP4 GT PUSH2 0xF5 JUMPI PUSH1 0x20 DUP4 DUP2 DUP7 ADD SWAP6 ADD ADD GT PUSH2 0xF5 JUMPI JUMP JUMPDEST CALLVALUE PUSH2 0xF5 JUMPI PUSH1 0xC0 CALLDATASIZE PUSH1 0x3 NOT ADD SLT PUSH2 0xF5 JUMPI PUSH2 0x16D PUSH2 0xDF JUMP JUMPDEST PUSH2 0x175 PUSH2 0xFA JUMP JUMPDEST PUSH1 0x44 CALLDATALOAD SWAP2 PUSH1 0x1 PUSH1 0x1 PUSH1 0xA0 SHL SUB DUP4 AND DUP4 SUB PUSH2 0xF5 JUMPI PUSH1 0x64 CALLDATALOAD PUSH1 0x84 CALLDATALOAD PUSH8 0xFFFFFFFFFFFFFFFF DUP2 GT PUSH2 0xF5 JUMPI PUSH2 0x1AC SWAP1 CALLDATASIZE SWAP1 PUSH1 0x4 ADD PUSH2 0x126 JUMP JUMPDEST SWAP2 PUSH1 0xA4 CALLDATALOAD SWAP6 PUSH8 0xFFFFFFFFFFFFFFFF DUP8 GT PUSH2 0xF5 JUMPI PUSH2 0x1D1 PUSH2 0x19 SWAP8 CALLDATASIZE SWAP1 PUSH1 0x4 ADD PUSH2 0x126 JUMP JUMPDEST SWAP7 SWAP1 SWAP6 PUSH2 0x708 JUMP JUMPDEST CALLVALUE PUSH2 0xF5 JUMPI PUSH1 0x40 CALLDATASIZE PUSH1 0x3 NOT ADD SLT PUSH2 0xF5 JUMPI PUSH2 0x1F2 PUSH2 0xDF JUMP JUMPDEST PUSH1 0x20 PUSH1 0x24 CALLDATALOAD PUSH2 0x1FF PUSH2 0xEC3 JUMP JUMPDEST PUSH2 0x207 PUSH2 0x8E1 JUMP JUMPDEST PUSH1 0x0 DUP1 SLOAD PUSH1 0x40 MLOAD PUSH4 0xA9059CBB PUSH1 0xE0 SHL DUP2 MSTORE PUSH1 0x1 PUSH1 0x1 PUSH1 0xA0 SHL SUB SWAP2 DUP3 AND PUSH1 0x4 DUP3 ADD MSTORE PUSH1 0x24 DUP2 ADD SWAP4 SWAP1 SWAP4 MSTORE SWAP2 SWAP4 DUP5 SWAP3 PUSH1 0x44 SWAP3 DUP5 SWAP3 SWAP1 SWAP2 AND GAS CALL DUP1 ISZERO PUSH2 0x28A JUMPI PUSH2 0x252 JUMPI JUMPDEST PUSH2 0x19 PUSH1 0x1 DUP1 SSTORE JUMP JUMPDEST PUSH1 0x20 DUP2 RETURNDATASIZE PUSH1 0x20 GT PUSH2 0x282 JUMPI JUMPDEST DUP2 PUSH2 0x26B PUSH1 0x20 SWAP4 DUP4 PUSH2 0x2D4 JUMP JUMPDEST DUP2 ADD SUB SLT PUSH2 0xF5 JUMPI MLOAD DUP1 ISZERO ISZERO SUB PUSH2 0xF5 JUMPI CODESIZE PUSH2 0x249 JUMP JUMPDEST RETURNDATASIZE SWAP2 POP PUSH2 0x25E JUMP JUMPDEST PUSH2 0x7E2 JUMP JUMPDEST CALLVALUE PUSH2 0xF5 JUMPI PUSH1 0x0 CALLDATASIZE PUSH1 0x3 NOT ADD SLT PUSH2 0xF5 JUMPI PUSH1 0x20 PUSH1 0x40 MLOAD PUSH20 0x2F800DB0FDB5223B3C3F354886D907A671414A7F DUP2 MSTORE RETURN JUMPDEST PUSH4 0x4E487B71 PUSH1 0xE0 SHL PUSH1 0x0 MSTORE PUSH1 0x41 PUSH1 0x4 MSTORE PUSH1 0x24 PUSH1 0x0 REVERT JUMPDEST SWAP1 PUSH1 0x1F DUP1 NOT SWAP2 ADD AND DUP2 ADD SWAP1 DUP2 LT PUSH8 0xFFFFFFFFFFFFFFFF DUP3 GT OR PUSH2 0x2F6 JUMPI PUSH1 0x40 MSTORE JUMP JUMPDEST PUSH2 0x2BE JUMP JUMPDEST PUSH8 0xFFFFFFFFFFFFFFFF DUP2 GT PUSH2 0x2F6 JUMPI PUSH1 0x1F ADD PUSH1 0x1F NOT AND PUSH1 0x20 ADD SWAP1 JUMP JUMPDEST SWAP3 SWAP2 SWAP3 PUSH2 0x323 DUP3 PUSH2 0x2FB JUMP JUMPDEST SWAP2 PUSH2 0x331 PUSH1 0x40 MLOAD SWAP4 DUP5 PUSH2 0x2D4 JUMP JUMPDEST DUP3 SWAP5 DUP2 DUP5 MSTORE DUP2 DUP4 ADD GT PUSH2 0xF5 JUMPI DUP3 DUP2 PUSH1 0x20 SWAP4 DUP5 PUSH1 0x0 SWAP7 ADD CALLDATACOPY ADD ADD MSTORE JUMP JUMPDEST CALLVALUE PUSH2 0xF5 JUMPI PUSH1 0x80 CALLDATASIZE PUSH1 0x3 NOT ADD SLT PUSH2 0xF5 JUMPI PUSH1 0x4 CALLDATALOAD PUSH2 0x36A PUSH2 0xFA JUMP JUMPDEST PUSH1 0x44 CALLDATALOAD PUSH8 0xFFFFFFFFFFFFFFFF DUP2 GT PUSH2 0xF5 JUMPI CALLDATASIZE PUSH1 0x23 DUP3 ADD SLT ISZERO PUSH2 0xF5 JUMPI PUSH2 0x39B SWAP1 CALLDATASIZE SWAP1 PUSH1 0x24 DUP2 PUSH1 0x4 ADD CALLDATALOAD SWAP2 ADD PUSH2 0x317 JUMP JUMPDEST PUSH2 0x3A3 PUSH2 0x110 JUMP JUMPDEST SWAP2 PUSH2 0x3AC PUSH2 0xEC3 JUMP JUMPDEST PUSH2 0x3B4 PUSH2 0x8E1 JUMP JUMPDEST PUSH1 0x40 MLOAD PUSH4 0x70A08231 PUSH1 0xE0 SHL DUP2 MSTORE ADDRESS PUSH1 0x4 DUP3 ADD MSTORE SWAP4 PUSH1 0x20 DUP6 PUSH1 0x24 DUP2 PUSH20 0x2791BCA1F2DE4661ED88A30C99A7A9449AA84174 GAS STATICCALL DUP1 ISZERO PUSH2 0x28A JUMPI DUP2 PUSH2 0x404 SWAP2 PUSH2 0x249 SWAP8 PUSH1 0x0 SWAP2 PUSH2 0x409 JUMPI JUMPDEST POP LT ISZERO PUSH2 0x7FD JUMP JUMPDEST PUSH2 0xD1F JUMP JUMPDEST PUSH2 0x42B SWAP2 POP PUSH1 0x20 RETURNDATASIZE PUSH1 0x20 GT PUSH2 0x431 JUMPI JUMPDEST PUSH2 0x423 DUP2 DUP4 PUSH2 0x2D4 JUMP JUMPDEST DUP2 ADD SWAP1 PUSH2 0x7EE JUMP JUMPDEST CODESIZE PUSH2 0x3FC JUMP JUMPDEST POP RETURNDATASIZE PUSH2 0x419 JUMP JUMPDEST CALLVALUE PUSH2 0xF5 JUMPI PUSH1 0x0 CALLDATASIZE PUSH1 0x3 NOT ADD SLT PUSH2 0xF5 JUMPI PUSH2 0x451 PUSH2 0xEC3 JUMP JUMPDEST PUSH1 0x0 DUP1 SLOAD PUSH1 0x1 PUSH1 0x1 PUSH1 0xA0 SHL SUB NOT DUP2 AND DUP3 SSTORE PUSH1 0x1 PUSH1 0x1 PUSH1 0xA0 SHL SUB AND PUSH32 0x8BE0079C531659141344CD1FD0A4F28419497F9722A3DAAFE3B4186F6B6457E0 DUP3 DUP1 LOG3 STOP JUMPDEST CALLVALUE PUSH2 0xF5 JUMPI PUSH1 0x0 CALLDATASIZE PUSH1 0x3 NOT ADD SLT PUSH2 0xF5 JUMPI PUSH1 0x0 SLOAD PUSH1 0x40 MLOAD PUSH1 0x1 PUSH1 0x1 PUSH1 0xA0 SHL SUB SWAP1 SWAP2 AND DUP2 MSTORE PUSH1 0x20 SWAP1 RETURN JUMPDEST CALLVALUE PUSH2 0xF5 JUMPI PUSH1 0x0 CALLDATASIZE PUSH1 0x3 NOT ADD SLT PUSH2 0xF5 JUMPI PUSH2 0x4D3 PUSH2 0xEC3 JUMP JUMPDEST PUSH2 0x4DB PUSH2 0x8E1 JUMP JUMPDEST PUSH1 0x0 DUP1 SLOAD DUP2 SWAP1 DUP2 SWAP1 DUP2 SWAP1 SELFBALANCE SWAP1 PUSH1 0x1 PUSH1 0x1 PUSH1 0xA0 SHL SUB AND DUP3 DUP3 ISZERO PUSH2 0x504 JUMPI JUMPDEST CALL ISZERO PUSH2 0x28A JUMPI PUSH1 0x1 DUP1 SSTORE STOP JUMPDEST POP PUSH2 0x8FC PUSH2 0x4F8 JUMP JUMPDEST CALLVALUE PUSH2 0xF5 JUMPI PUSH1 0x60 CALLDATASIZE PUSH1 0x3 NOT ADD SLT PUSH2 0xF5 JUMPI PUSH2 0x526 PUSH2 0xDF JUMP JUMPDEST PUSH1 0x24 CALLDATALOAD PUSH1 0x44 CALLDATALOAD SWAP2 PUSH8 0xFFFFFFFFFFFFFFFF DUP4 GT PUSH2 0xF5 JUMPI PUSH2 0x54D PUSH2 0x587 SWAP4 CALLDATASIZE SWAP1 PUSH1 0x4 ADD PUSH2 0x126 JUMP JUMPDEST SWAP4 SWAP1 SWAP2 PUSH2 0x558 PUSH2 0x8E1 JUMP JUMPDEST PUSH2 0x577 PUSH20 0x9295EE1D8C5B022BE115A2AD3C30C72E34E7F096 CALLER EQ PUSH2 0x849 JUMP JUMPDEST PUSH1 0x1 PUSH1 0x1 PUSH1 0xA0 SHL SUB AND ADDRESS EQ PUSH2 0x895 JUMP JUMPDEST PUSH1 0x40 MLOAD PUSH4 0x70A08231 PUSH1 0xE0 SHL DUP2 MSTORE ADDRESS PUSH1 0x4 DUP3 ADD MSTORE PUSH1 0x20 DUP2 PUSH1 0x24 DUP2 PUSH20 0x2791BCA1F2DE4661ED88A30C99A7A9449AA84174 GAS STATICCALL SWAP2 DUP3 ISZERO PUSH2 0x28A JUMPI PUSH2 0x249 SWAP5 PUSH2 0x5DD DUP6 PUSH2 0x5E9 SWAP6 PUSH2 0x5E4 SWAP6 PUSH1 0x0 SWAP2 PUSH2 0x409 JUMPI POP LT ISZERO PUSH2 0x7FD JUMP JUMPDEST CALLDATASIZE SWAP2 PUSH2 0x317 JUMP JUMPDEST PUSH2 0x9DA JUMP JUMPDEST SWAP3 SWAP2 SWAP1 SWAP2 PUSH2 0xD1F JUMP JUMPDEST CALLVALUE PUSH2 0xF5 JUMPI PUSH1 0x0 CALLDATASIZE PUSH1 0x3 NOT ADD SLT PUSH2 0xF5 JUMPI PUSH1 0x20 PUSH1 0x40 MLOAD PUSH20 0x9295EE1D8C5B022BE115A2AD3C30C72E34E7F096 DUP2 MSTORE RETURN JUMPDEST CALLVALUE PUSH2 0xF5 JUMPI PUSH1 0x0 CALLDATASIZE PUSH1 0x3 NOT ADD SLT PUSH2 0xF5 JUMPI PUSH1 0x20 PUSH1 0x40 MLOAD PUSH20 0x8CE54D9625371FB2A068986D32C85DE8E6E995F8 DUP2 MSTORE RETURN JUMPDEST CALLVALUE PUSH2 0xF5 JUMPI PUSH1 0x20 CALLDATASIZE PUSH1 0x3 NOT ADD SLT PUSH2 0xF5 JUMPI PUSH2 0x669 PUSH2 0xDF JUMP JUMPDEST PUSH2 0x671 PUSH2 0xEC3 JUMP JUMPDEST PUSH1 0x1 PUSH1 0x1 PUSH1 0xA0 SHL SUB AND DUP1 ISZERO PUSH2 0x6C3 JUMPI PUSH1 0x0 DUP1 SLOAD PUSH1 0x1 PUSH1 0x1 PUSH1 0xA0 SHL SUB NOT DUP2 AND DUP4 OR DUP3 SSTORE PUSH1 0x1 PUSH1 0x1 PUSH1 0xA0 SHL SUB AND SWAP1 PUSH32 0x8BE0079C531659141344CD1FD0A4F28419497F9722A3DAAFE3B4186F6B6457E0 SWAP1 DUP1 LOG3 STOP JUMPDEST PUSH4 0x1E4FBDF7 PUSH1 0xE0 SHL PUSH1 0x0 MSTORE PUSH1 0x0 PUSH1 0x4 MSTORE PUSH1 0x24 PUSH1 0x0 REVERT JUMPDEST CALLVALUE PUSH2 0xF5 JUMPI PUSH1 0x0 CALLDATASIZE PUSH1 0x3 NOT ADD SLT PUSH2 0xF5 JUMPI PUSH1 0x20 PUSH1 0x40 MLOAD PUSH20 0x2791BCA1F2DE4661ED88A30C99A7A9449AA84174 DUP2 MSTORE RETURN JUMPDEST POP SWAP6 POP SWAP1 SWAP4 POP SWAP2 SWAP1 SWAP2 PUSH2 0x719 PUSH2 0x8E1 JUMP JUMPDEST PUSH1 0x1 PUSH1 0x1 PUSH1 0xA0 SHL SUB DUP6 AND PUSH20 0x9295EE1D8C5B022BE115A2AD3C30C72E34E7F096 EQ SWAP1 DUP2 PUSH2 0x7A3 JUMPI JUMPDEST POP PUSH2 0x750 JUMPI JUMPDEST POP POP POP POP PUSH1 0x1 DUP1 SSTORE JUMP JUMPDEST PUSH2 0x773 SWAP4 DUP2 ISZERO PUSH2 0x77C JUMPI POP PUSH2 0x76A SWAP2 PUSH2 0x5E4 SWAP2 CALLDATASIZE SWAP2 PUSH2 0x317 JUMP JUMPDEST SWAP3 SWAP1 SWAP2 SWAP1 PUSH2 0xD1F JUMP JUMPDEST CODESIZE DUP1 DUP1 DUP1 PUSH2 0x746 JUMP JUMPDEST SWAP2 POP POP PUSH2 0x787 PUSH2 0x7B6 JUMP JUMPDEST SWAP1 PUSH20 0x2F800DB0FDB5223B3C3F354886D907A671414A7F SWAP3 PUSH2 0xD1F JUMP JUMPDEST PUSH1 0x1 PUSH1 0x1 PUSH1 0xA0 SHL SUB AND ADDRESS EQ SWAP1 POP CODESIZE PUSH2 0x740 JUMP JUMPDEST PUSH1 0x40 MLOAD SWAP1 PUSH2 0x7C5 PUSH1 0x40 DUP4 PUSH2 0x2D4 JUMP JUMPDEST PUSH1 0xE DUP3 MSTORE PUSH14 0x27B33339B2BA2D30B8102AB9B2B9 PUSH1 0x91 SHL PUSH1 0x20 DUP4 ADD MSTORE JUMP JUMPDEST PUSH1 0x40 MLOAD RETURNDATASIZE PUSH1 0x0 DUP3 RETURNDATACOPY RETURNDATASIZE SWAP1 REVERT JUMPDEST SWAP1 DUP2 PUSH1 0x20 SWAP2 SUB SLT PUSH2 0xF5 JUMPI MLOAD SWAP1 JUMP JUMPDEST ISZERO PUSH2 0x804 JUMPI JUMP JUMPDEST PUSH1 0x40 MLOAD PUSH3 0x461BCD PUSH1 0xE5 SHL DUP2 MSTORE PUSH1 0x20 PUSH1 0x4 DUP3 ADD MSTORE PUSH1 0x19 PUSH1 0x24 DUP3 ADD MSTORE PUSH32 0x496E73756666696369656E7420555344432062616C616E636500000000000000 PUSH1 0x44 DUP3 ADD MSTORE PUSH1 0x64 SWAP1 REVERT JUMPDEST ISZERO PUSH2 0x850 JUMPI JUMP JUMPDEST PUSH1 0x40 MLOAD PUSH3 0x461BCD PUSH1 0xE5 SHL DUP2 MSTORE PUSH1 0x20 PUSH1 0x4 DUP3 ADD MSTORE PUSH1 0x1E PUSH1 0x24 DUP3 ADD MSTORE PUSH32 0x4F6E6C79204163726F73732053706F6B65506F6F6C2063616E2063616C6C0000 PUSH1 0x44 DUP3 ADD MSTORE PUSH1 0x64 SWAP1 REVERT JUMPDEST ISZERO PUSH2 0x89C JUMPI JUMP JUMPDEST PUSH1 0x40 MLOAD PUSH3 0x461BCD PUSH1 0xE5 SHL DUP2 MSTORE PUSH1 0x20 PUSH1 0x4 DUP3 ADD MSTORE PUSH1 0x1F PUSH1 0x24 DUP3 ADD MSTORE PUSH32 0x526563697069656E74206D757374206265207468697320636F6E747261637400 PUSH1 0x44 DUP3 ADD MSTORE PUSH1 0x64 SWAP1 REVERT JUMPDEST PUSH1 0x2 PUSH1 0x1 SLOAD EQ PUSH2 0x8F2 JUMPI PUSH1 0x2 PUSH1 0x1 SSTORE JUMP JUMPDEST PUSH4 0x3EE5AEB5 PUSH1 0xE0 SHL PUSH1 0x0 MSTORE PUSH1 0x4 PUSH1 0x0 REVERT JUMPDEST PUSH1 0x40 MLOAD SWAP1 PUSH2 0x912 PUSH1 0x40 DUP4 PUSH2 0x2D4 JUMP JUMPDEST PUSH1 0x10 DUP3 MSTORE PUSH16 0x16113132B732B334B1B4B0B93C911D11 PUSH1 0x81 SHL PUSH1 0x20 DUP4 ADD MSTORE JUMP JUMPDEST PUSH4 0x4E487B71 PUSH1 0xE0 SHL PUSH1 0x0 MSTORE PUSH1 0x11 PUSH1 0x4 MSTORE PUSH1 0x24 PUSH1 0x0 REVERT JUMPDEST SWAP1 PUSH1 0x2 DUP3 ADD DUP1 SWAP3 GT PUSH2 0x955 JUMPI JUMP JUMPDEST PUSH2 0x931 JUMP JUMPDEST SWAP1 PUSH1 0x3 DUP3 ADD DUP1 SWAP3 GT PUSH2 0x955 JUMPI JUMP JUMPDEST SWAP2 SWAP1 DUP3 ADD DUP1 SWAP3 GT PUSH2 0x955 JUMPI JUMP JUMPDEST PUSH1 0x40 MLOAD SWAP1 PUSH2 0x984 PUSH1 0x40 DUP4 PUSH2 0x2D4 JUMP JUMPDEST PUSH1 0x15 DUP3 MSTORE PUSH21 0x16113837B7B62A37B5B2B720B2323932B9B9911D11 PUSH1 0x59 SHL PUSH1 0x20 DUP4 ADD MSTORE JUMP JUMPDEST PUSH1 0x40 MLOAD SWAP1 PUSH2 0x9B7 PUSH1 0x40 DUP4 PUSH2 0x2D4 JUMP JUMPDEST PUSH1 0x14 DUP3 MSTORE PUSH20 0x16113132B732B334B1B4B0B93CA730B6B2911D11 PUSH1 0x61 SHL PUSH1 0x20 DUP4 ADD MSTORE JUMP JUMPDEST SWAP1 PUSH1 0x0 SWAP2 PUSH2 0x9E6 PUSH2 0x7B6 JUMP JUMPDEST SWAP2 PUSH20 0x2F800DB0FDB5223B3C3F354886D907A671414A7F SWAP2 DUP1 MLOAD PUSH2 0xA47 JUMPI JUMPDEST POP PUSH1 0x1 PUSH1 0x1 PUSH1 0xA0 SHL SUB DUP5 AND ISZERO PUSH2 0xA3F JUMPI JUMPDEST PUSH1 0x1 PUSH1 0x1 PUSH1 0xA0 SHL SUB DUP3 AND ISZERO PUSH2 0xA26 JUMPI JUMP JUMPDEST PUSH20 0x2F800DB0FDB5223B3C3F354886D907A671414A7F SWAP2 POP JUMP JUMPDEST CALLER SWAP4 POP PUSH2 0xA15 JUMP JUMPDEST PUSH2 0xA4F PUSH2 0x903 JUMP JUMPDEST PUSH2 0xA59 DUP2 DUP4 PUSH2 0xF2F JUMP JUMPDEST SWAP1 PUSH1 0x0 DUP3 SLT ISZERO PUSH2 0xAE8 JUMPI JUMPDEST POP POP PUSH2 0xA6E PUSH2 0x975 JUMP JUMPDEST PUSH2 0xA78 DUP2 DUP4 PUSH2 0xF2F JUMP JUMPDEST SWAP1 PUSH1 0x0 DUP3 SLT ISZERO PUSH2 0xAC9 JUMPI JUMPDEST POP POP PUSH2 0xA8D PUSH2 0x9A8 JUMP JUMPDEST PUSH2 0xA97 DUP2 DUP4 PUSH2 0xF2F JUMP JUMPDEST SWAP1 PUSH1 0x0 DUP3 SLT ISZERO PUSH2 0xAA9 JUMPI JUMPDEST POP POP PUSH2 0xA04 JUMP JUMPDEST MLOAD SWAP3 SWAP5 POP PUSH2 0xAC0 SWAP3 PUSH2 0xABA SWAP2 PUSH2 0x968 JUMP JUMPDEST SWAP1 PUSH2 0x120F JUMP JUMPDEST SWAP2 CODESIZE DUP1 DUP1 PUSH2 0xAA2 JUMP JUMPDEST MLOAD SWAP2 SWAP4 POP PUSH2 0xAE0 SWAP2 PUSH2 0xADA SWAP2 PUSH2 0x968 JUMP JUMPDEST DUP4 PUSH2 0x10CD JUMP JUMPDEST SWAP2 CODESIZE DUP1 PUSH2 0xA83 JUMP JUMPDEST MLOAD SWAP2 SWAP6 POP PUSH2 0xAFF SWAP2 PUSH2 0xAF9 SWAP2 PUSH2 0x968 JUMP JUMPDEST DUP6 PUSH2 0x10CD JUMP JUMPDEST SWAP4 CODESIZE DUP1 PUSH2 0xA64 JUMP JUMPDEST SWAP2 SWAP1 DUP3 MLOAD SWAP3 DUP4 DUP3 MSTORE PUSH1 0x0 JUMPDEST DUP5 DUP2 LT PUSH2 0xB33 JUMPI POP POP DUP3 PUSH1 0x0 PUSH1 0x20 DUP1 SWAP5 SWAP6 DUP5 ADD ADD MSTORE PUSH1 0x1F DUP1 NOT SWAP2 ADD AND ADD ADD SWAP1 JUMP JUMPDEST DUP1 PUSH1 0x20 DUP1 SWAP3 DUP5 ADD ADD MLOAD DUP3 DUP3 DUP7 ADD ADD MSTORE ADD PUSH2 0xB12 JUMP JUMPDEST SWAP5 SWAP4 PUSH2 0xBC3 SWAP1 PUSH2 0xC01 SWAP5 PUSH1 0xE0 SWAP5 PUSH1 0x40 SWAP5 PUSH20 0x2791BCA1F2DE4661ED88A30C99A7A9449AA84174 DUP11 MSTORE PUSH1 0x1 DUP1 PUSH1 0xA0 SHL SUB AND PUSH1 0x20 DUP11 ADD MSTORE DUP5 DUP10 ADD MSTORE PUSH2 0x100 PUSH1 0x60 DUP10 ADD MSTORE PUSH1 0x9 PUSH2 0x100 DUP10 ADD MSTORE PUSH9 0x4F66667365745A617 PUSH1 0xBC SHL PUSH2 0x120 DUP10 ADD MSTORE PUSH1 0x1 DUP1 PUSH1 0xA0 SHL SUB AND PUSH1 0x80 DUP9 ADD MSTORE PUSH2 0x140 PUSH1 0xA0 DUP9 ADD MSTORE PUSH2 0x140 DUP8 ADD SWAP1 PUSH2 0xB07 JUMP JUMPDEST DUP6 DUP2 SUB PUSH1 0xC0 DUP8 ADD MSTORE PUSH1 0x1B DUP2 MSTORE PUSH32 0x436172626F6E206F666673657420766961204F66667365745A61700000000000 PUSH1 0x20 DUP3 ADD MSTORE ADD SWAP4 ADD PUSH1 0x0 PUSH1 0xFF AND SWAP1 MSTORE JUMP JUMPDEST JUMP JUMPDEST SWAP1 SWAP3 PUSH2 0xC1C PUSH1 0x60 SWAP4 SWAP7 SWAP6 SWAP5 PUSH1 0x80 DUP5 MSTORE PUSH1 0x80 DUP5 ADD SWAP1 PUSH2 0xB07 JUMP JUMPDEST PUSH1 0x1 PUSH1 0x1 PUSH1 0xA0 SHL SUB SWAP1 SWAP7 AND PUSH1 0x20 DUP4 ADD MSTORE PUSH1 0x40 DUP3 ADD MSTORE ADD MSTORE JUMP JUMPDEST PUSH1 0x0 SWAP1 PUSH1 0x3 RETURNDATASIZE GT PUSH2 0xC42 JUMPI JUMP JUMPDEST SWAP1 POP PUSH1 0x4 PUSH1 0x0 DUP1 RETURNDATACOPY PUSH1 0x0 MLOAD PUSH1 0xE0 SHR SWAP1 JUMP JUMPDEST PUSH1 0x0 PUSH1 0x44 RETURNDATASIZE LT PUSH2 0xCBA JUMPI PUSH1 0x40 MLOAD RETURNDATASIZE PUSH1 0x3 NOT ADD PUSH1 0x4 DUP3 RETURNDATACOPY DUP1 MLOAD SWAP2 RETURNDATASIZE PUSH1 0x24 DUP5 ADD GT PUSH8 0xFFFFFFFFFFFFFFFF DUP5 GT OR PUSH2 0xCC5 JUMPI DUP3 DUP3 ADD SWAP3 DUP4 MLOAD SWAP2 PUSH8 0xFFFFFFFFFFFFFFFF DUP4 GT PUSH2 0xCBD JUMPI RETURNDATASIZE DUP5 ADD PUSH1 0x3 NOT ADD DUP6 DUP5 ADD PUSH1 0x20 ADD GT PUSH2 0xCBD JUMPI POP PUSH2 0xCBA SWAP3 SWAP2 ADD PUSH1 0x20 ADD SWAP1 PUSH2 0x2D4 JUMP JUMPDEST SWAP1 JUMP JUMPDEST SWAP5 SWAP4 POP POP POP POP JUMP JUMPDEST SWAP3 SWAP2 POP POP JUMP JUMPDEST PUSH2 0xCBA SWAP4 SWAP3 PUSH1 0x60 SWAP3 PUSH1 0x1 DUP1 PUSH1 0xA0 SHL SUB AND DUP3 MSTORE PUSH1 0x20 DUP3 ADD MSTORE DUP2 PUSH1 0x40 DUP3 ADD MSTORE ADD SWAP1 PUSH2 0xB07 JUMP JUMPDEST RETURNDATASIZE ISZERO PUSH2 0xD1A JUMPI RETURNDATASIZE SWAP1 PUSH2 0xD00 DUP3 PUSH2 0x2FB JUMP JUMPDEST SWAP2 PUSH2 0xD0E PUSH1 0x40 MLOAD SWAP4 DUP5 PUSH2 0x2D4 JUMP JUMPDEST DUP3 MSTORE RETURNDATASIZE PUSH1 0x0 PUSH1 0x20 DUP5 ADD RETURNDATACOPY JUMP JUMPDEST PUSH1 0x60 SWAP1 JUMP JUMPDEST SWAP1 SWAP2 PUSH1 0x40 MLOAD PUSH4 0x6FB9367F PUSH1 0xE1 SHL DUP2 MSTORE PUSH1 0x20 DUP2 DUP1 PUSH2 0xD42 DUP6 DUP9 DUP9 DUP12 PUSH1 0x4 DUP7 ADD PUSH2 0xB48 JUMP JUMPDEST SUB DUP2 PUSH1 0x0 PUSH20 0x8CE54D9625371FB2A068986D32C85DE8E6E995F8 GAS CALL PUSH1 0x0 SWAP2 DUP2 PUSH2 0xEA2 JUMPI JUMPDEST POP PUSH2 0xE62 JUMPI POP POP PUSH1 0x1 PUSH2 0xD77 PUSH2 0xC35 JUMP JUMPDEST PUSH4 0x8C379A0 EQ PUSH2 0xE02 JUMPI JUMPDEST PUSH2 0xD8B JUMPI POP POP POP JUMP JUMPDEST PUSH32 0xD80252B4823CFB933240FDE61F4F459729A50F971C0C76746E264117496D5E94 SWAP2 PUSH2 0xDB5 PUSH2 0xCEF JUMP JUMPDEST POP PUSH1 0x40 DUP1 MLOAD PUSH1 0x1 PUSH1 0x1 PUSH1 0xA0 SHL SUB SWAP6 DUP7 AND DUP2 MSTORE PUSH1 0x20 DUP2 ADD SWAP4 SWAP1 SWAP4 MSTORE PUSH1 0x60 SWAP1 DUP4 ADD DUP2 SWAP1 MSTORE PUSH1 0xD SWAP1 DUP4 ADD MSTORE PUSH13 0x2AB735B737BBB71032B93937B9 PUSH1 0x99 SHL PUSH1 0x80 DUP4 ADD MSTORE SWAP1 SWAP3 AND SWAP2 DUP1 PUSH1 0xA0 DUP2 ADD JUMPDEST SUB SWAP1 LOG2 JUMP JUMPDEST PUSH2 0xE0A PUSH2 0xC53 JUMP JUMPDEST DUP1 PUSH2 0xE16 JUMPI JUMPDEST POP PUSH2 0xD82 JUMP JUMPDEST PUSH1 0x40 MLOAD PUSH1 0x0 SWAP3 POP PUSH1 0x1 PUSH1 0x1 PUSH1 0xA0 SHL SUB DUP6 AND SWAP2 PUSH32 0xD80252B4823CFB933240FDE61F4F459729A50F971C0C76746E264117496D5E94 SWAP2 SWAP1 DUP2 SWAP1 PUSH2 0xE59 SWAP1 DUP8 DUP11 DUP5 PUSH2 0xCCB JUMP JUMPDEST SUB SWAP1 LOG2 CODESIZE PUSH2 0xE10 JUMP JUMPDEST PUSH1 0x40 MLOAD PUSH1 0x1 PUSH1 0x1 PUSH1 0xA0 SHL SUB SWAP1 SWAP5 AND SWAP5 PUSH32 0x9844159A631815B14CD3C5871074053D7610FFE1A6A016D77B7524E53C41AF9A SWAP5 SWAP4 DUP5 SWAP4 PUSH2 0xDFD SWAP4 SWAP3 SWAP1 DUP6 PUSH2 0xC03 JUMP JUMPDEST PUSH2 0xEBC SWAP2 SWAP3 POP PUSH1 0x20 RETURNDATASIZE PUSH1 0x20 GT PUSH2 0x431 JUMPI PUSH2 0x423 DUP2 DUP4 PUSH2 0x2D4 JUMP JUMPDEST SWAP1 CODESIZE PUSH2 0xD66 JUMP JUMPDEST PUSH1 0x0 SLOAD PUSH1 0x1 PUSH1 0x1 PUSH1 0xA0 SHL SUB AND CALLER SUB PUSH2 0xED7 JUMPI JUMP JUMPDEST PUSH4 0x118CDAA7 PUSH1 0xE0 SHL PUSH1 0x0 MSTORE CALLER PUSH1 0x4 MSTORE PUSH1 0x24 PUSH1 0x0 REVERT JUMPDEST PUSH1 0x0 NOT DUP2 EQ PUSH2 0x955 JUMPI PUSH1 0x1 ADD SWAP1 JUMP JUMPDEST SWAP2 SWAP1 DUP3 SUB SWAP2 DUP3 GT PUSH2 0x955 JUMPI JUMP JUMPDEST SWAP1 DUP2 MLOAD DUP2 LT ISZERO PUSH2 0xF19 JUMPI ADD PUSH1 0x20 ADD SWAP1 JUMP JUMPDEST PUSH4 0x4E487B71 PUSH1 0xE0 SHL PUSH1 0x0 MSTORE PUSH1 0x32 PUSH1 0x4 MSTORE PUSH1 0x24 PUSH1 0x0 REVERT JUMPDEST SWAP1 DUP1 MLOAD DUP1 ISZERO PUSH2 0xFFA JUMPI DUP3 MLOAD LT PUSH2 0xFF2 JUMPI PUSH1 0x0 SWAP1 JUMPDEST PUSH2 0xF50 DUP4 MLOAD DUP3 MLOAD SWAP1 PUSH2 0xEFB JUMP JUMPDEST DUP3 GT PUSH2 0xFE9 JUMPI PUSH1 0x1 SWAP3 PUSH1 0x0 JUMPDEST DUP3 MLOAD DUP2 LT ISZERO PUSH2 0xFDF JUMPI PUSH2 0xF89 PUSH2 0xF7B PUSH2 0xF75 DUP4 DUP8 PUSH2 0x968 JUMP JUMPDEST DUP5 PUSH2 0xF08 JUMP JUMPDEST MLOAD PUSH1 0x1 PUSH1 0x1 PUSH1 0xF8 SHL SUB NOT AND SWAP1 JUMP JUMPDEST PUSH2 0xFA6 PUSH2 0xF99 PUSH2 0xF7B DUP5 DUP8 PUSH2 0xF08 JUMP JUMPDEST PUSH1 0x1 PUSH1 0x1 PUSH1 0xF8 SHL SUB NOT AND SWAP1 JUMP JUMPDEST PUSH1 0x1 PUSH1 0x1 PUSH1 0xF8 SHL SUB NOT SWAP1 SWAP2 AND SUB PUSH2 0xFBF JUMPI PUSH1 0x1 ADD PUSH2 0xF5C JUMP JUMPDEST POP SWAP3 POP SWAP1 PUSH1 0x0 JUMPDEST PUSH2 0xFD9 JUMPI PUSH2 0xFD3 SWAP1 PUSH2 0xEEC JUMP JUMPDEST SWAP1 PUSH2 0xF43 JUMP JUMPDEST SWAP2 POP POP SWAP1 JUMP JUMPDEST POP SWAP3 SWAP2 SWAP1 SWAP2 PUSH2 0xFC6 JUMP JUMPDEST POP POP POP PUSH1 0x0 NOT SWAP1 JUMP JUMPDEST POP POP PUSH1 0x0 NOT SWAP1 JUMP JUMPDEST POP POP POP PUSH1 0x0 SWAP1 JUMP JUMPDEST PUSH1 0x40 MLOAD PUSH1 0x60 SWAP2 SWAP1 PUSH2 0x1013 DUP4 DUP3 PUSH2 0x2D4 JUMP JUMPDEST PUSH1 0x2A DUP2 MSTORE SWAP2 PUSH1 0x1F NOT ADD CALLDATASIZE PUSH1 0x20 DUP5 ADD CALLDATACOPY JUMP JUMPDEST PUSH1 0x40 DUP1 MLOAD SWAP1 SWAP2 SWAP1 PUSH2 0x1035 DUP4 DUP3 PUSH2 0x2D4 JUMP JUMPDEST PUSH1 0x14 DUP2 MSTORE SWAP2 PUSH1 0x1F NOT ADD CALLDATASIZE PUSH1 0x20 DUP5 ADD CALLDATACOPY JUMP JUMPDEST SWAP1 PUSH2 0x1050 DUP3 PUSH2 0x2FB JUMP JUMPDEST PUSH2 0x105D PUSH1 0x40 MLOAD SWAP2 DUP3 PUSH2 0x2D4 JUMP JUMPDEST DUP3 DUP2 MSTORE DUP1 SWAP3 PUSH2 0x106E PUSH1 0x1F NOT SWAP2 PUSH2 0x2FB JUMP JUMPDEST ADD SWAP1 PUSH1 0x20 CALLDATASIZE SWAP2 ADD CALLDATACOPY JUMP JUMPDEST PUSH1 0x1 DUP2 SWAP1 SHL SWAP2 SWAP1 PUSH1 0x1 PUSH1 0x1 PUSH1 0xFF SHL SUB DUP2 AND SUB PUSH2 0x955 JUMPI JUMP JUMPDEST SWAP1 PUSH1 0xFF DUP1 SWAP2 AND SWAP2 AND SUB SWAP1 PUSH1 0xFF DUP3 GT PUSH2 0x955 JUMPI JUMP JUMPDEST PUSH1 0x4 SHL SWAP1 PUSH2 0xFF0 PUSH1 0xF0 DUP4 AND SWAP3 AND DUP3 SUB PUSH2 0x955 JUMPI JUMP JUMPDEST SWAP1 PUSH1 0xFF DUP1 SWAP2 AND SWAP2 AND ADD SWAP1 PUSH1 0xFF DUP3 GT PUSH2 0x955 JUMPI JUMP JUMPDEST SWAP2 SWAP1 SWAP2 PUSH2 0x10D8 PUSH2 0x1002 JUMP JUMPDEST SWAP3 PUSH1 0x0 JUMPDEST PUSH1 0x2A DUP2 LT DUP1 PUSH2 0x11FC JUMPI JUMPDEST ISZERO PUSH2 0x111D JUMPI DUP1 PUSH2 0x1105 PUSH2 0xF7B PUSH2 0x10FF PUSH2 0x1118 SWAP5 DUP7 PUSH2 0x968 JUMP JUMPDEST DUP7 PUSH2 0xF08 JUMP JUMPDEST PUSH1 0x0 BYTE PUSH2 0x1112 DUP3 DUP9 PUSH2 0xF08 JUMP JUMPDEST MSTORE8 PUSH2 0xEEC JUMP JUMPDEST PUSH2 0x10DC JUMP JUMPDEST POP POP POP PUSH2 0x1128 PUSH2 0x1024 JUMP JUMPDEST PUSH1 0x0 JUMPDEST PUSH1 0x14 DUP2 LT PUSH2 0x113C JUMPI POP PUSH1 0x20 ADD MLOAD SWAP2 POP JUMP JUMPDEST PUSH1 0x1 SWAP1 PUSH2 0x11E0 PUSH2 0x11D0 DUP7 PUSH2 0x11CB PUSH2 0x11C5 DUP6 PUSH1 0x41 PUSH2 0x1197 PUSH2 0x1191 PUSH2 0x117F PUSH2 0xF7B PUSH2 0x11A4 DUP7 DUP7 DUP7 DUP7 DUP7 DUP7 DUP16 PUSH2 0x118B PUSH2 0x117A PUSH2 0x1185 DUP6 DUP6 PUSH2 0x10FF DUP5 DUP14 PUSH2 0x1078 JUMP JUMPDEST PUSH2 0x947 JUMP JUMPDEST PUSH1 0xF8 SHR SWAP1 JUMP JUMPDEST SWAP9 PUSH2 0x1078 JUMP JUMPDEST SWAP1 PUSH2 0xF08 JUMP JUMPDEST PUSH1 0xFF AND SWAP1 JUMP JUMPDEST LT PUSH2 0x11F4 JUMPI PUSH1 0x37 SWAP1 PUSH2 0x1090 JUMP JUMPDEST SWAP9 PUSH2 0x118B PUSH2 0x11C0 PUSH2 0x1185 PUSH2 0x117F PUSH2 0xF7B PUSH2 0x10FF PUSH2 0x11C0 DUP14 PUSH2 0x1078 JUMP JUMPDEST PUSH2 0x95A JUMP JUMPDEST SWAP2 PUSH2 0x10A4 JUMP JUMPDEST PUSH2 0x10B9 JUMP JUMPDEST PUSH1 0xF8 SHL PUSH1 0x1 PUSH1 0x1 PUSH1 0xF8 SHL SUB NOT AND SWAP1 JUMP JUMPDEST PUSH1 0x0 BYTE PUSH2 0x11ED DUP3 DUP6 PUSH2 0xF08 JUMP JUMPDEST MSTORE8 ADD PUSH2 0x112B JUMP JUMPDEST PUSH1 0x30 SWAP1 PUSH2 0x1090 JUMP JUMPDEST POP PUSH2 0x1207 DUP2 DUP4 PUSH2 0x968 JUMP JUMPDEST DUP4 MLOAD GT PUSH2 0x10E6 JUMP JUMPDEST SWAP2 DUP2 JUMPDEST DUP4 MLOAD DUP2 LT DUP1 PUSH2 0x1295 JUMPI JUMPDEST ISZERO PUSH2 0x122F JUMPI PUSH2 0x122A SWAP1 PUSH2 0xEEC JUMP JUMPDEST PUSH2 0x1212 JUMP JUMPDEST SWAP2 DUP1 DUP4 SUB DUP4 DUP2 GT PUSH2 0x955 JUMPI PUSH2 0x1243 SWAP1 PUSH2 0x1046 JUMP JUMPDEST SWAP2 PUSH1 0x0 JUMPDEST PUSH2 0x1251 DUP4 DUP7 PUSH2 0xEFB JUMP JUMPDEST DUP2 LT ISZERO PUSH2 0x128C JUMPI DUP3 PUSH1 0x1 DUP3 PUSH2 0x1275 PUSH2 0xF7B PUSH2 0x126F PUSH2 0x1251 SWAP7 DUP7 PUSH2 0x968 JUMP JUMPDEST DUP12 PUSH2 0xF08 JUMP JUMPDEST PUSH1 0x0 BYTE PUSH2 0x1282 DUP3 DUP10 PUSH2 0xF08 JUMP JUMPDEST MSTORE8 ADD SWAP2 POP POP PUSH2 0x1247 JUMP JUMPDEST POP SWAP4 POP POP SWAP1 POP SWAP1 JUMP JUMPDEST POP PUSH1 0x11 PUSH1 0xF9 SHL PUSH1 0x1 PUSH1 0x1 PUSH1 0xF8 SHL SUB NOT PUSH2 0x12AE DUP4 DUP8 PUSH2 0xF08 JUMP JUMPDEST MLOAD AND EQ ISZERO PUSH2 0x121C JUMP INVALID LOG2 PUSH5 0x6970667358 0x22 SLT KECCAK256 0xBF EXP 0xC0 SWAP12 0xB0 0xB8 DUP7 DUP4 0xCC 0xA8 0xB8 0x23 0xD1 SSTORE XOR SWAP10 GASPRICE 0x2E GT 0xCB EXTCODEHASH MUL 0xB7 CALLDATASIZE 0xD1 0xC7 SGT LT PUSH27 0x24879264736F6C634300081C003300000000000000000000000000 "},"methodIdentifiers":{"ACROSS_SPOKE_POOL()":"d72b1de1","DEFAULT_POOL_TOKEN()":"35e86070","KLIMA_AGGREGATOR()":"db3ac0ce","USDC_TOKEN()":"fa569274","handleAcrossTransfer(address,uint256,bytes)":"d4d0f984","manualRetire(uint256,address,string,address)":"40429fe1","owner()":"8da5cb5b","recoverEth()":"bcdb446b","recoverTokens(address,uint256)":"069c9fae","renounceOwnership()":"715018a6","tokensReceived(address,address,address,uint256,bytes,bytes)":"0023de29","transferOwnership(address)":"f2fde38b"}}}}}