{
  "_format": "hh-sol-artifact-1",
  "contractName": "SeriesVault",
  "sourceName": "contracts/SeriesVault.sol",
  "abi": [
    {
      "inputs": [
        {
          "internalType": "string",
          "name": "_name",
          "type": "string"
        },
        {
          "internalType": "string",
          "name": "_symbol",
          "type": "string"
        },
        {
          "internalType": "address",
          "name": "feeCollector",
          "type": "address"
        }
      ],
      "stateMutability": "payable",
      "type": "constructor"
    },
    {
      "inputs": [],
      "name": "AlreadyRedeemed",
      "type": "error"
    },
    {
      "inputs": [
        {
          "internalType": "uint256",
          "name": "amount",
          "type": "uint256"
        }
      ],
      "name": "AmountOverflow",
      "type": "error"
    },
    {
      "inputs": [
        {
          "internalType": "int256",
          "name": "code",
          "type": "int256"
        }
      ],
      "name": "HTSCallFailed",
      "type": "error"
    },
    {
      "inputs": [],
      "name": "InvalidArrayLengths",
      "type": "error"
    },
    {
      "inputs": [],
      "name": "NotSeriesOwner",
      "type": "error"
    },
    {
      "inputs": [
        {
          "internalType": "address",
          "name": "owner",
          "type": "address"
        }
      ],
      "name": "OwnableInvalidOwner",
      "type": "error"
    },
    {
      "inputs": [
        {
          "internalType": "address",
          "name": "account",
          "type": "address"
        }
      ],
      "name": "OwnableUnauthorizedAccount",
      "type": "error"
    },
    {
      "inputs": [],
      "name": "ReentrancyGuardReentrantCall",
      "type": "error"
    },
    {
      "anonymous": false,
      "inputs": [
        {
          "indexed": false,
          "internalType": "bool",
          "name": "",
          "type": "bool"
        },
        {
          "indexed": false,
          "internalType": "bytes",
          "name": "",
          "type": "bytes"
        }
      ],
      "name": "CallResponseEvent",
      "type": "event"
    },
    {
      "anonymous": false,
      "inputs": [
        {
          "indexed": false,
          "internalType": "int64",
          "name": "serial",
          "type": "int64"
        },
        {
          "indexed": false,
          "internalType": "address",
          "name": "to",
          "type": "address"
        },
        {
          "indexed": false,
          "internalType": "uint256",
          "name": "tokenCount",
          "type": "uint256"
        }
      ],
      "name": "DebugSerial",
      "type": "event"
    },
    {
      "anonymous": false,
      "inputs": [
        {
          "indexed": false,
          "internalType": "uint256",
          "name": "idx",
          "type": "uint256"
        },
        {
          "indexed": false,
          "internalType": "address",
          "name": "token",
          "type": "address"
        },
        {
          "indexed": false,
          "internalType": "uint256",
          "name": "amount",
          "type": "uint256"
        },
        {
          "indexed": false,
          "internalType": "int64",
          "name": "amountSigned",
          "type": "int64"
        }
      ],
      "name": "DebugToken",
      "type": "event"
    },
    {
      "anonymous": false,
      "inputs": [
        {
          "indexed": true,
          "internalType": "address",
          "name": "from",
          "type": "address"
        },
        {
          "indexed": false,
          "internalType": "address[]",
          "name": "tokenIds",
          "type": "address[]"
        },
        {
          "indexed": false,
          "internalType": "uint256[]",
          "name": "amounts",
          "type": "uint256[]"
        },
        {
          "indexed": false,
          "internalType": "int64",
          "name": "serial",
          "type": "int64"
        }
      ],
      "name": "Deposited",
      "type": "event"
    },
    {
      "anonymous": false,
      "inputs": [
        {
          "indexed": false,
          "internalType": "int256",
          "name": "rc",
          "type": "int256"
        },
        {
          "indexed": false,
          "internalType": "address",
          "name": "evmAddr",
          "type": "address"
        },
        {
          "indexed": false,
          "internalType": "int64",
          "name": "tokenId",
          "type": "int64"
        }
      ],
      "name": "HTSCreateResult",
      "type": "event"
    },
    {
      "anonymous": false,
      "inputs": [
        {
          "indexed": false,
          "internalType": "int256",
          "name": "rc",
          "type": "int256"
        }
      ],
      "name": "HTSResult",
      "type": "event"
    },
    {
      "anonymous": false,
      "inputs": [
        {
          "indexed": false,
          "internalType": "address",
          "name": "token",
          "type": "address"
        },
        {
          "indexed": false,
          "internalType": "int256",
          "name": "rc",
          "type": "int256"
        }
      ],
      "name": "HTSResultForToken",
      "type": "event"
    },
    {
      "anonymous": false,
      "inputs": [
        {
          "indexed": true,
          "internalType": "address",
          "name": "previousOwner",
          "type": "address"
        },
        {
          "indexed": true,
          "internalType": "address",
          "name": "newOwner",
          "type": "address"
        }
      ],
      "name": "OwnershipTransferred",
      "type": "event"
    },
    {
      "anonymous": false,
      "inputs": [
        {
          "indexed": false,
          "internalType": "int64",
          "name": "serial",
          "type": "int64"
        },
        {
          "indexed": false,
          "internalType": "address",
          "name": "to",
          "type": "address"
        },
        {
          "indexed": false,
          "internalType": "address",
          "name": "caller",
          "type": "address"
        }
      ],
      "name": "RedeemFunctionEntered",
      "type": "event"
    },
    {
      "anonymous": false,
      "inputs": [
        {
          "indexed": true,
          "internalType": "int64",
          "name": "serial",
          "type": "int64"
        },
        {
          "indexed": true,
          "internalType": "address",
          "name": "to",
          "type": "address"
        }
      ],
      "name": "SeriesMinted",
      "type": "event"
    },
    {
      "anonymous": false,
      "inputs": [
        {
          "indexed": true,
          "internalType": "int64",
          "name": "serial",
          "type": "int64"
        },
        {
          "indexed": true,
          "internalType": "address",
          "name": "to",
          "type": "address"
        }
      ],
      "name": "SeriesRedeemed",
      "type": "event"
    },
    {
      "anonymous": false,
      "inputs": [
        {
          "indexed": false,
          "internalType": "address",
          "name": "tokenAddress",
          "type": "address"
        },
        {
          "indexed": false,
          "internalType": "int64",
          "name": "tokenId",
          "type": "int64"
        }
      ],
      "name": "SeriesTokenCreated",
      "type": "event"
    },
    {
      "inputs": [
        {
          "internalType": "string",
          "name": "name",
          "type": "string"
        },
        {
          "internalType": "string",
          "name": "symbol",
          "type": "string"
        },
        {
          "internalType": "string",
          "name": "memo",
          "type": "string"
        },
        {
          "internalType": "int64",
          "name": "maxSupply",
          "type": "int64"
        }
      ],
      "name": "initCreateSeriesToken",
      "outputs": [
        {
          "internalType": "address",
          "name": "tokenAddress",
          "type": "address"
        },
        {
          "internalType": "int64",
          "name": "tokenId",
          "type": "int64"
        }
      ],
      "stateMutability": "payable",
      "type": "function"
    },
    {
      "inputs": [],
      "name": "initialized",
      "outputs": [
        {
          "internalType": "bool",
          "name": "",
          "type": "bool"
        }
      ],
      "stateMutability": "view",
      "type": "function"
    },
    {
      "inputs": [
        {
          "internalType": "address[]",
          "name": "tokenIds",
          "type": "address[]"
        },
        {
          "internalType": "uint256[]",
          "name": "amounts",
          "type": "uint256[]"
        },
        {
          "internalType": "address",
          "name": "to",
          "type": "address"
        },
        {
          "internalType": "address",
          "name": "userAddress",
          "type": "address"
        }
      ],
      "name": "mintSeries",
      "outputs": [
        {
          "internalType": "int64",
          "name": "newSerial",
          "type": "int64"
        }
      ],
      "stateMutability": "nonpayable",
      "type": "function"
    },
    {
      "inputs": [],
      "name": "owner",
      "outputs": [
        {
          "internalType": "address",
          "name": "",
          "type": "address"
        }
      ],
      "stateMutability": "view",
      "type": "function"
    },
    {
      "inputs": [
        {
          "internalType": "int64",
          "name": "serial",
          "type": "int64"
        }
      ],
      "name": "previewBundle",
      "outputs": [
        {
          "internalType": "address[]",
          "name": "",
          "type": "address[]"
        },
        {
          "internalType": "int64[]",
          "name": "",
          "type": "int64[]"
        },
        {
          "internalType": "address",
          "name": "",
          "type": "address"
        },
        {
          "internalType": "bool",
          "name": "",
          "type": "bool"
        },
        {
          "internalType": "bool",
          "name": "",
          "type": "bool"
        }
      ],
      "stateMutability": "view",
      "type": "function"
    },
    {
      "inputs": [
        {
          "internalType": "int256",
          "name": "serial",
          "type": "int256"
        },
        {
          "internalType": "address",
          "name": "to",
          "type": "address"
        }
      ],
      "name": "redeem",
      "outputs": [],
      "stateMutability": "nonpayable",
      "type": "function"
    },
    {
      "inputs": [
        {
          "internalType": "address",
          "name": "token",
          "type": "address"
        },
        {
          "internalType": "bytes",
          "name": "encodedFunctionSelector",
          "type": "bytes"
        }
      ],
      "name": "redirectForToken",
      "outputs": [
        {
          "internalType": "int256",
          "name": "responseCode",
          "type": "int256"
        },
        {
          "internalType": "bytes",
          "name": "response",
          "type": "bytes"
        }
      ],
      "stateMutability": "nonpayable",
      "type": "function"
    },
    {
      "inputs": [],
      "name": "renounceOwnership",
      "outputs": [],
      "stateMutability": "nonpayable",
      "type": "function"
    },
    {
      "inputs": [],
      "name": "seriesToken",
      "outputs": [
        {
          "internalType": "address",
          "name": "",
          "type": "address"
        }
      ],
      "stateMutability": "view",
      "type": "function"
    },
    {
      "inputs": [],
      "name": "seriesTokenCreated",
      "outputs": [
        {
          "internalType": "bool",
          "name": "",
          "type": "bool"
        }
      ],
      "stateMutability": "view",
      "type": "function"
    },
    {
      "inputs": [],
      "name": "seriesTokenId",
      "outputs": [
        {
          "internalType": "int64",
          "name": "",
          "type": "int64"
        }
      ],
      "stateMutability": "view",
      "type": "function"
    },
    {
      "inputs": [
        {
          "internalType": "address",
          "name": "tokenAddr",
          "type": "address"
        }
      ],
      "name": "setSeriesToken",
      "outputs": [],
      "stateMutability": "nonpayable",
      "type": "function"
    },
    {
      "inputs": [
        {
          "internalType": "address",
          "name": "token",
          "type": "address"
        },
        {
          "internalType": "address",
          "name": "from",
          "type": "address"
        },
        {
          "internalType": "address",
          "name": "to",
          "type": "address"
        },
        {
          "internalType": "uint256",
          "name": "amount",
          "type": "uint256"
        }
      ],
      "name": "transferFrom",
      "outputs": [
        {
          "internalType": "int64",
          "name": "responseCode",
          "type": "int64"
        }
      ],
      "stateMutability": "nonpayable",
      "type": "function"
    },
    {
      "inputs": [
        {
          "internalType": "address",
          "name": "token",
          "type": "address"
        },
        {
          "internalType": "address",
          "name": "from",
          "type": "address"
        },
        {
          "internalType": "address",
          "name": "to",
          "type": "address"
        },
        {
          "internalType": "uint256",
          "name": "serialNumber",
          "type": "uint256"
        }
      ],
      "name": "transferFromNFT",
      "outputs": [
        {
          "internalType": "int64",
          "name": "responseCode",
          "type": "int64"
        }
      ],
      "stateMutability": "nonpayable",
      "type": "function"
    },
    {
      "inputs": [
        {
          "internalType": "address",
          "name": "newOwner",
          "type": "address"
        }
      ],
      "name": "transferOwnership",
      "outputs": [],
      "stateMutability": "nonpayable",
      "type": "function"
    },
    {
      "inputs": [
        {
          "internalType": "int64",
          "name": "serial",
          "type": "int64"
        },
        {
          "internalType": "address",
          "name": "newOwner",
          "type": "address"
        }
      ],
      "name": "updateBundleOnTransfer",
      "outputs": [],
      "stateMutability": "nonpayable",
      "type": "function"
    }
  ],
  "bytecode": "0x60806040819052600080546001600160a01b03191690556200258c388190039081908339810160408190526200003591620002b3565b600160208181527fa6eef7e35abe7026729641147f7915573c7e97b47efa546f5f6e3230263bcb499190915560027fcc69885fda6bcc1a4ace058b4a62bf5e179ea78fd58a1ccd71c22cc9b688792f5560047fd9d16d34ffb15ba3a3d852f0d403e2ce1d691fb54de27ac87cd2f993f3ec330f5560087f7dfe757ecd65cbd7922a9c0161e935dd7fdbcc0e999689c7d31633896b1fc60b5560107fedc95719e9a3b28dd8e80877cb5880a9be7de1a13fc8b05e7999683b6b567643557fe2689cd4a84e23ad2f564004f1c9013e9589d260bde6380aba3ca7e09e4df40c55600660005260407f8f331abe73332f95a25873e8b430885974c0409691f89d643119a11623a7924a5533806200016357604051631e4fbdf760e01b81526000600482015260240160405180910390fd5b6200016e816200019c565b5050600160035550506004805460ff60e81b19169055600080546001600160a01b0319163017905562000340565b600280546001600160a01b038381166001600160a01b0319831681179093556040519116919082907f8be0079c531659141344cd1fd0a4f28419497f9722a3daafe3b4186f6b6457e090600090a35050565b634e487b7160e01b600052604160045260246000fd5b600082601f8301126200021657600080fd5b81516001600160401b0380821115620002335762000233620001ee565b604051601f8301601f19908116603f011681019082821181831017156200025e576200025e620001ee565b816040528381526020925086838588010111156200027b57600080fd5b600091505b838210156200029f578582018301518183018401529082019062000280565b600093810190920192909252949350505050565b600080600060608486031215620002c957600080fd5b83516001600160401b0380821115620002e157600080fd5b620002ef8783880162000204565b945060208601519150808211156200030657600080fd5b50620003158682870162000204565b604086015190935090506001600160a01b03811681146200033557600080fd5b809150509250925092565b61223c80620003506000396000f3fe6080604052600436106100f35760003560e01c80635f95deb91161008a5780638da5cb5b116100595780638da5cb5b146102d15780639b23d3d9146102ef578063d768012d1461030f578063f2fde38b1461034457600080fd5b80635f95deb91461024e578063618dc65e1461026e578063713be4d41461029c578063715018a6146102bc57600080fd5b806331f120f2116100c657806331f120f2146101b357806337b0ac19146101d45780634bd9bcbf1461020c5780634eccb8151461022e57600080fd5b80630a8de691146100f8578063158ef93e1461012e57806315dacbea1461014f578063243a09e614610182575b600080fd5b34801561010457600080fd5b5060045461011990600160a01b900460ff1681565b60405190151581526020015b60405180910390f35b34801561013a57600080fd5b5060045461011990600160e81b900460ff1681565b34801561015b57600080fd5b5061016f61016a3660046117f5565b610364565b60405160079190910b8152602001610125565b34801561018e57600080fd5b506101a261019d366004611855565b610458565b6040516101259594939291906118b7565b3480156101bf57600080fd5b5060045461016f90600160a81b900460070b81565b3480156101e057600080fd5b506004546101f4906001600160a01b031681565b6040516001600160a01b039091168152602001610125565b34801561021857600080fd5b5061022c610227366004611937565b610585565b005b34801561023a57600080fd5b5061022c610249366004611967565b6106e7565b34801561025a57600080fd5b5061016f6102693660046119d0565b6107ad565b34801561027a57600080fd5b5061028e610289366004611aac565b610a52565b604051610125929190611ba4565b3480156102a857600080fd5b5061022c6102b7366004611bc5565b610b70565b3480156102c857600080fd5b5061022c610bb6565b3480156102dd57600080fd5b506002546001600160a01b03166101f4565b3480156102fb57600080fd5b5061016f61030a3660046117f5565b610bca565b61032261031d366004611c35565b610c0f565b604080516001600160a01b03909316835260079190910b602083015201610125565b34801561035057600080fd5b5061022c61035f366004611967565b610f0c565b6040516001600160a01b038581166024830152848116604483015283166064820152608481018290526000908190819061016790630aed65f560e11b9060a4015b60408051601f198184030181529181526020820180516001600160e01b03166001600160e01b03199094169390931790925290516103e39190611ce3565b6000604051808303816000865af19150503d8060008114610420576040519150601f19603f3d011682016040523d82523d6000602084013e610425565b606091505b50915091508161043657601561044a565b8080602001905181019061044a9190611d16565b60030b979650505050505050565b600781900b60009081526005602090815260408083206002810154815483518186028101860190945280845260609586959094859485949093849360018501936001600160a01b0384169360ff600160a01b8204811694600160a81b90920416928791908301828280156104f557602002820191906000526020600020905b81546001600160a01b031681526001909101906020018083116104d7575b505050505094508380548060200260200160405190810160405280929190818152602001828054801561056a57602002820191906000526020600020906000905b825461010083900a900460070b81526020600f83018190049384019360010360089093019290920291018084116105365790505b50505050509350955095509550955095505091939590929450565b600782900b60009081526005602052604090206002810154839190600160a01b900460ff16156105c8576040516306d3830f60e21b815260040160405180910390fd5b80541561069e57620f424060005b825481101561069b5760008360000182815481106105f6576105f6611d31565b60009182526020822001546001600160a01b0316915061061882308987610f4a565b604080516001600160a01b0385168152602081018390529192507fcee972eeb5f7ac12acde2eaa99bc397af905d73cb532d1ab5cd80781dfa92192910160405180910390a160168114610686576040516308d4243b60e41b8152600481018290526024015b60405180910390fd5b5050808061069390611d47565b9150506105d6565b50505b6106a782610f92565b826001600160a01b03168260070b7fe1e873c80495abf25b31a4fea9b130166acd3afdd4b4f850969929f4ca1c570a60405160405180910390a350505050565b6106ef611021565b600454600160e81b900460ff16156107325760405162461bcd60e51b815260206004820152600660248201526512539255115160d21b604482015260640161067d565b6001600160a01b03811661076e5760405162461bcd60e51b815260206004820152600360248201526210905160ea1b604482015260640161067d565b600480547fffff00ffffffffffffffffff0000000000000000000000000000000000000000166001600160a01b0390921691909117600160e81b179055565b60006107b761104e565b8584146107d75760405163a9854bc960e01b815260040160405180910390fd5b6107e083611078565b905060008467ffffffffffffffff8111156107fd576107fd611a65565b604051908082528060200260200182016040528015610826578160200160208202803683370190505b50905060005b858110156108c557600087878381811061084857610848611d31565b905060200201359050677fffffffffffffff67ffffffffffffffff1681111561088a57604051600162d630f360e01b031981526004810182905260240161067d565b8083838151811061089d5761089d611d31565b602002602001019060070b908160070b815250505080806108bd90611d47565b91505061082c565b506040518060a00160405280898980806020026020016040519081016040528093929190818152602001838360200280828437600092018290525093855250505060208083018590526001600160a01b038716604080850191909152606084018390526080909301829052600786900b82526005815291902082518051919261095392849290910190611650565b50602082810151805161096c92600185019201906116b5565b506040828101516002909201805460608501516080909501511515600160a81b0260ff60a81b19951515600160a01b026001600160a81b03199092166001600160a01b03909516949094171793909316919091179091555133907fc113a9ca8f202b4a460d3afdc6d6d31f4ef1ca963403e93e4f332035b423a709906109fb908b908b908b908b908990611d6e565b60405180910390a2836001600160a01b03168260070b7f53e0cca7d6f19636d79c03d0ca544aa885e65daf021107e11fa5a2a765300e4460405160405180910390a350610a486001600355565b9695505050505050565b600060606000806101676001600160a01b031663618dc65e60e01b8787604051602401610a80929190611dfb565b60408051601f198184030181529181526020820180516001600160e01b03166001600160e01b0319909416939093179092529051610abe9190611ce3565b6000604051808303816000865af19150503d8060008114610afb576040519150601f19603f3d011682016040523d82523d6000602084013e610b00565b606091505b50915091507f4af4780e06fe8cb9df64b0794fa6f01399af979175bb988e35e0e57e594567bc8282604051610b36929190611e1f565b60405180910390a181610b5a57601560405180602001604052806000815250610b5e565b6016815b60039190910b97909650945050505050565b610b7861104e565b600782900b60009081526005602052604090206002018054600161ff0160a01b0319166001600160a01b038316179055610bb26001600355565b5050565b610bbe611021565b610bc860006111a9565b565b6040516001600160a01b038581166024830152848116604483015283166064820152608481018290526000908190819061016790639b23d3d960e01b9060a4016103a5565b600080610c1a611021565b600454600160a01b900460ff1615610c665760405162461bcd60e51b815260206004820152600f60248201526e185b1c9958591e4818dc99585d1959608a1b604482015260640161067d565b610ccc60408051610120810182526060808252602080830182905260008385018190528284018390526080840181905260a0840181905260c0840181905260e0840183905284519283018552808352908201819052928101929092529061010082015290565b89898080601f016020809104026020016040519081016040528093929190818152602001838380828437600092019190915250505090825250604080516020601f8a01819004810282018101909252888152908990899081908401838280828437600092019190915250505050602080830191909152306040808401919091528051601f88018390048302810183019091528681529087908790819084018382808284376000920182905250606086019490945250505060808201819052600785900b60a083015260c082018190526101008201805130602090910152516276a7006040918201528051600180825281830190925290816020015b610dcf611773565b815260200190600190039081610dc7579050509050610df160046001306111fb565b81600081518110610e0457610e04611d31565b602090810291909101015260e08201819052600080610e2284611230565b604080518381526001600160a01b038316602082015260008183015290519294509092507ff2238c4b5e42a79781650f026c0fa4cb13fcbcb1ef7345fe721b948ce208860d919081900360600190a160168214610e95576040516308d4243b60e41b81526004810183905260240161067d565b600480546001600160a81b0319166001600160a01b038316908117600160a01b179091556040805191825260006020830181905292975091955086917fa4d11af2ab42095905c649cae30275a71760ffbb8b95fb2fb8e4b6fc2e1300e7910160405180910390a15050505097509795505050505050565b610f14611021565b6001600160a01b038116610f3e57604051631e4fbdf760e01b81526000600482015260240161067d565b610f47816111a9565b50565b6040516001600160a01b038581166024830152848116604483015283166064820152600782900b6084820152600090819081906101679063eca3691760e01b9060a4016103a5565b604080516001808252818301909252600091602080830190803683370190505090508181600081518110610fc857610fc8611d31565b60079290920b60209283029190910190910152600454600090610ff5906001600160a01b03168284611340565b5090506016811461101c576040516308d4243b60e41b81526004810182905260240161067d565b505050565b6002546001600160a01b03163314610bc85760405163118cdaa760e01b815233600482015260240161067d565b60026003540361107157604051633ee5aeb560e01b815260040160405180910390fd5b6002600355565b604080516001808252818301909252600091829190816020015b6060815260200190600190039081611092579050506040516b53657269657342756e646c6560a01b6020820152909150602c01604051602081830303815290604052816000815181106110e7576110e7611d31565b6020908102919091010152600454600090819061110e906001600160a01b03168285611429565b9250509150601660030b821461113a576040516308d4243b60e41b81526004810183905260240161067d565b8060008151811061114d5761114d611d31565b60200260200101519350600061117a600460009054906101000a90046001600160a01b0316308888611527565b9050601681146111a0576040516308d4243b60e41b81526004810182905260240161067d565b50505050919050565b600280546001600160a01b038381166001600160a01b0319831681179093556040519116919082907f8be0079c531659141344cd1fd0a4f28419497f9722a3daafe3b4186f6b6457e090600090a35050565b611203611773565b60405180604001604052806112178661156f565b815260200161122685856115ae565b9052949350505050565b600080828061010001516000015160070b600014801561125a57506101008101516040015160070b155b15611270576101008101516276a7006040909101525b6000806101676001600160a01b03163463ea83f29360e01b886040516024016112999190611efd565b60408051601f198184030181529181526020820180516001600160e01b03166001600160e01b03199094169390931790925290516112d79190611ce3565b60006040518083038185875af1925050503d8060008114611314576040519150601f19603f3d011682016040523d82523d6000602084013e611319565b606091505b50915091508161132c5760156000610b5e565b80806020019051810190610b5e9190612011565b6000806000806101676001600160a01b031663d6910d0660e01b88888860405160240161136f9392919061203d565b60408051601f198184030181529181526020820180516001600160e01b03166001600160e01b03199094169390931790925290516113ad9190611ce3565b6000604051808303816000865af19150503d80600081146113ea576040519150601f19603f3d011682016040523d82523d6000602084013e6113ef565b606091505b5091509150816114025760156000611416565b808060200190518101906114169190612070565b60039190910b9890975095505050505050565b60008060606000806101676001600160a01b031663e0f4059a60e01b89898960405160240161145a9392919061209c565b60408051601f198184030181529181526020820180516001600160e01b03166001600160e01b03199094169390931790925290516114989190611ce3565b6000604051808303816000865af19150503d80600081146114d5576040519150601f19603f3d011682016040523d82523d6000602084013e6114da565b606091505b5091509150816114fd576040805160008082526020820190925260159190611511565b808060200190518101906115119190612118565b60039290920b9a90995090975095505050505050565b6040516001600160a01b038581166024830152848116604483015283166064820152600782900b60848201526000908190819061016790635cfc901160e01b9060a4016103a5565b600060016000836006811115611587576115876121f0565b6006811115611598576115986121f0565b8152602001908152602001600020549050919050565b6115f46040518060a0016040528060001515815260200160006001600160a01b03168152602001606081526020016060815260200160006001600160a01b031681525090565b6001836004811115611608576116086121f0565b03611621576001600160a01b038216602082015261164a565b6004836004811115611635576116356121f0565b0361164a576001600160a01b03821660808201525b92915050565b8280548282559060005260206000209081019282156116a5579160200282015b828111156116a557825182546001600160a01b0319166001600160a01b03909116178255602090920191600190910190611670565b506116b19291506117cb565b5090565b828054828255906000526020600020906003016004900481019282156116a55791602002820160005b8382111561172d57835183826101000a81548167ffffffffffffffff021916908360070b67ffffffffffffffff16021790555092602001926008016020816007010492830192600103026116de565b80156117615782816101000a81549067ffffffffffffffff021916905560080160208160070104928301926001030261172d565b50506116b19291506117cb565b905290565b60405180604001604052806000815260200161176e6040518060a0016040528060001515815260200160006001600160a01b03168152602001606081526020016060815260200160006001600160a01b031681525090565b5b808211156116b157600081556001016117cc565b6001600160a01b0381168114610f4757600080fd5b6000806000806080858703121561180b57600080fd5b8435611816816117e0565b93506020850135611826816117e0565b92506040850135611836816117e0565b9396929550929360600135925050565b8060070b8114610f4757600080fd5b60006020828403121561186757600080fd5b813561187281611846565b9392505050565b600081518084526020808501945080840160005b838110156118ac57815160070b8752958201959082019060010161188d565b509495945050505050565b60a0808252865190820181905260009060209060c0840190828a01845b828110156118f95781516001600160a01b0316845292840192908401906001016118d4565b5050508381038285015261190d8189611879565b6001600160a01b039790971660408501525050509115156060830152151560809091015292915050565b6000806040838503121561194a57600080fd5b82359150602083013561195c816117e0565b809150509250929050565b60006020828403121561197957600080fd5b8135611872816117e0565b60008083601f84011261199657600080fd5b50813567ffffffffffffffff8111156119ae57600080fd5b6020830191508360208260051b85010111156119c957600080fd5b9250929050565b600080600080600080608087890312156119e957600080fd5b863567ffffffffffffffff80821115611a0157600080fd5b611a0d8a838b01611984565b90985096506020890135915080821115611a2657600080fd5b50611a3389828a01611984565b9095509350506040870135611a47816117e0565b91506060870135611a57816117e0565b809150509295509295509295565b634e487b7160e01b600052604160045260246000fd5b604051601f8201601f1916810167ffffffffffffffff81118282101715611aa457611aa4611a65565b604052919050565b60008060408385031215611abf57600080fd5b8235611aca816117e0565b915060208381013567ffffffffffffffff80821115611ae857600080fd5b818601915086601f830112611afc57600080fd5b813581811115611b0e57611b0e611a65565b611b20601f8201601f19168501611a7b565b91508082528784828501011115611b3657600080fd5b80848401858401376000848284010152508093505050509250929050565b60005b83811015611b6f578181015183820152602001611b57565b50506000910152565b60008151808452611b90816020860160208601611b54565b601f01601f19169290920160200192915050565b828152604060208201526000611bbd6040830184611b78565b949350505050565b60008060408385031215611bd857600080fd5b8235611be381611846565b9150602083013561195c816117e0565b60008083601f840112611c0557600080fd5b50813567ffffffffffffffff811115611c1d57600080fd5b6020830191508360208285010111156119c957600080fd5b60008060008060008060006080888a031215611c5057600080fd5b873567ffffffffffffffff80821115611c6857600080fd5b611c748b838c01611bf3565b909950975060208a0135915080821115611c8d57600080fd5b611c998b838c01611bf3565b909750955060408a0135915080821115611cb257600080fd5b50611cbf8a828b01611bf3565b9094509250506060880135611cd381611846565b8091505092959891949750929550565b60008251611cf5818460208701611b54565b9190910192915050565b8051600381900b8114611d1157600080fd5b919050565b600060208284031215611d2857600080fd5b61187282611cff565b634e487b7160e01b600052603260045260246000fd5b600060018201611d6757634e487b7160e01b600052601160045260246000fd5b5060010190565b6060808252810185905260008660808301825b88811015611db1578235611d94816117e0565b6001600160a01b0316825260209283019290910190600101611d81565b5083810360208501528581526001600160fb1b03861115611dd157600080fd5b8560051b915081876020830137602082820101925050508260070b60408301529695505050505050565b6001600160a01b0383168152604060208201819052600090611bbd90830184611b78565b8215158152604060208201526000611bbd6040830184611b78565b600081518084526020808501808196508360051b8101915082860160005b85811015611ef057828403895281516040815186528682015191508087870152815115158187015286820151606060018060a01b03808316828a015283850151935060a09250608083818b0152611eb260e08b0186611b78565b928601518a8403603f1901858c0152929450611ece8584611b78565b9501511660c09890980197909752505098850198935090840190600101611e58565b5091979650505050505050565b60208152600082516101606020840152611f1b610180840182611b78565b90506020840151601f1980858403016040860152611f398383611b78565b925060408601519150611f5760608601836001600160a01b03169052565b6060860151915080858403016080860152611f728383611b78565b925060808601519150611f8960a086018315159052565b60a08601519150611f9f60c086018360070b9052565b60c086015180151560e0870152915060e08601519150610100818685030181870152611fcb8484611e3a565b908701518051600790810b61012089015260208201516001600160a01b03166101408901526040820151900b61016088015290935091506120099050565b509392505050565b6000806040838503121561202457600080fd5b61202d83611cff565b9150602083015161195c816117e0565b60018060a01b03841681528260070b60208201526060604082015260006120676060830184611879565b95945050505050565b6000806040838503121561208357600080fd5b61208c83611cff565b9150602083015161195c81611846565b60006060820160018060a01b038616835260208560070b818501526060604085015281855180845260808601915060808160051b870101935082870160005b8281101561210957607f198887030184526120f7868351611b78565b955092840192908401906001016120db565b50939998505050505050505050565b60008060006060848603121561212d57600080fd5b61213684611cff565b925060208085015161214781611846565b604086015190935067ffffffffffffffff8082111561216557600080fd5b818701915087601f83011261217957600080fd5b81518181111561218b5761218b611a65565b8060051b915061219c848301611a7b565b818152918301840191848101908a8411156121b657600080fd5b938501935b838510156121e057845192506121d083611846565b82825293850193908501906121bb565b8096505050505050509250925092565b634e487b7160e01b600052602160045260246000fdfea2646970667358221220ca7da8df68e7ca0ab8e2455b973b83b2c2407dd0542ea5924c85ca5cbb7f436b64736f6c63430008140033",
  "linkReferences": {},
  "deployedLinkReferences": {}
}