{
  "_format": "hh-sol-artifact-1",
  "contractName": "HbarOffset",
  "sourceName": "contracts/CDR/HbarOffset.sol",
  "abi": [
    {
      "inputs": [],
      "stateMutability": "nonpayable",
      "type": "constructor"
    },
    {
      "anonymous": false,
      "inputs": [
        {
          "indexed": true,
          "internalType": "address",
          "name": "user",
          "type": "address"
        },
        {
          "indexed": false,
          "internalType": "uint256",
          "name": "hbarAmount",
          "type": "uint256"
        },
        {
          "indexed": false,
          "internalType": "string",
          "name": "metadata",
          "type": "string"
        },
        {
          "indexed": false,
          "internalType": "address",
          "name": "poolAddress",
          "type": "address"
        },
        {
          "indexed": false,
          "internalType": "uint256",
          "name": "requestId",
          "type": "uint256"
        }
      ],
      "name": "OffsetRequested",
      "type": "event"
    },
    {
      "inputs": [],
      "name": "getBalance",
      "outputs": [
        {
          "internalType": "uint256",
          "name": "",
          "type": "uint256"
        }
      ],
      "stateMutability": "view",
      "type": "function"
    },
    {
      "inputs": [],
      "name": "nextRequestId",
      "outputs": [
        {
          "internalType": "uint256",
          "name": "",
          "type": "uint256"
        }
      ],
      "stateMutability": "view",
      "type": "function"
    },
    {
      "inputs": [],
      "name": "owner",
      "outputs": [
        {
          "internalType": "address",
          "name": "",
          "type": "address"
        }
      ],
      "stateMutability": "view",
      "type": "function"
    },
    {
      "inputs": [
        {
          "internalType": "string",
          "name": "metadata",
          "type": "string"
        },
        {
          "internalType": "uint256",
          "name": "amount",
          "type": "uint256"
        },
        {
          "internalType": "address",
          "name": "poolAddress",
          "type": "address"
        }
      ],
      "name": "requestOffset",
      "outputs": [],
      "stateMutability": "nonpayable",
      "type": "function"
    },
    {
      "inputs": [
        {
          "internalType": "address payable",
          "name": "to",
          "type": "address"
        },
        {
          "internalType": "uint256",
          "name": "amount",
          "type": "uint256"
        }
      ],
      "name": "sweep",
      "outputs": [],
      "stateMutability": "nonpayable",
      "type": "function"
    }
  ],
  "bytecode": "0x608060405234801561001057600080fd5b50600180546001600160a01b0319163317815560005561041e806100356000396000f3fe608060405234801561001057600080fd5b50600436106100575760003560e01c806312065fe01461005c5780636a84a985146100715780636ea056a91461007a57806370e486fc1461008f5780638da5cb5b146100a2575b600080fd5b475b6040519081526020015b60405180910390f35b61005e60005481565b61008d6100883660046102ba565b6100cd565b005b61008d61009d3660046102e6565b61019b565b6001546100b5906001600160a01b031681565b6040516001600160a01b039091168152602001610068565b6001546001600160a01b031633146101195760405162461bcd60e51b815260206004820152600a60248201526927b7363c9037bbb732b960b11b60448201526064015b60405180910390fd5b478111156101605760405162461bcd60e51b8152602060048201526014602482015273496e73756666696369656e742062616c616e636560601b6044820152606401610110565b6040516001600160a01b0383169082156108fc029083906000818181858888f19350505050158015610196573d6000803e3d6000fd5b505050565b600082116101eb5760405162461bcd60e51b815260206004820152601d60248201527f416d6f756e74206d7573742062652067726561746572207468616e20300000006044820152606401610110565b6001600160a01b0381166102415760405162461bcd60e51b815260206004820152601b60248201527f506f6f6c20616464726573732063616e6e6f74206265207a65726f00000000006044820152606401610110565b6000805490600190806102548385610371565b909155505060405133907f2d06ef9311c22cb1888586e35e46f8448778b404b7aa96141b2ba129b177842e906102939086908990899088908890610398565b60405180910390a25050505050565b6001600160a01b03811681146102b757600080fd5b50565b600080604083850312156102cd57600080fd5b82356102d8816102a2565b946020939093013593505050565b600080600080606085870312156102fc57600080fd5b843567ffffffffffffffff8082111561031457600080fd5b818701915087601f83011261032857600080fd5b81358181111561033757600080fd5b88602082850101111561034957600080fd5b6020928301965094505085013591506040850135610366816102a2565b939692955090935050565b8082018082111561039257634e487b7160e01b600052601160045260246000fd5b92915050565b85815260806020820152836080820152838560a0830137600060a08583018101919091526001600160a01b039390931660408201526060810191909152601f909201601f1916909101019291505056fea26469706673582212204d7969df2d1f6a4d6da29db27726192d64205b0c82705ff4fd3e2285d70a6a6b64736f6c63430008140033",
  "linkReferences": {},
  "deployedLinkReferences": {}
}