{
  "_format": "hh-sol-artifact-1",
  "contractName": "HbarOffset",
  "sourceName": "contracts/CDR/HbarOffset.sol",
  "abi": [
    {
      "inputs": [],
      "stateMutability": "nonpayable",
      "type": "constructor"
    },
    {
      "anonymous": false,
      "inputs": [
        {
          "indexed": true,
          "internalType": "address",
          "name": "user",
          "type": "address"
        },
        {
          "indexed": false,
          "internalType": "uint256",
          "name": "hbarAmount",
          "type": "uint256"
        },
        {
          "indexed": false,
          "internalType": "string",
          "name": "metadata",
          "type": "string"
        },
        {
          "indexed": false,
          "internalType": "uint256",
          "name": "requestId",
          "type": "uint256"
        }
      ],
      "name": "OffsetRequested",
      "type": "event"
    },
    {
      "inputs": [],
      "name": "getBalance",
      "outputs": [
        {
          "internalType": "uint256",
          "name": "",
          "type": "uint256"
        }
      ],
      "stateMutability": "view",
      "type": "function"
    },
    {
      "inputs": [],
      "name": "nextRequestId",
      "outputs": [
        {
          "internalType": "uint256",
          "name": "",
          "type": "uint256"
        }
      ],
      "stateMutability": "view",
      "type": "function"
    },
    {
      "inputs": [],
      "name": "owner",
      "outputs": [
        {
          "internalType": "address",
          "name": "",
          "type": "address"
        }
      ],
      "stateMutability": "view",
      "type": "function"
    },
    {
      "inputs": [
        {
          "internalType": "string",
          "name": "metadata",
          "type": "string"
        },
        {
          "internalType": "uint256",
          "name": "amount",
          "type": "uint256"
        }
      ],
      "name": "requestOffset",
      "outputs": [],
      "stateMutability": "payable",
      "type": "function"
    },
    {
      "inputs": [
        {
          "internalType": "address payable",
          "name": "to",
          "type": "address"
        },
        {
          "internalType": "uint256",
          "name": "amount",
          "type": "uint256"
        }
      ],
      "name": "sweep",
      "outputs": [],
      "stateMutability": "nonpayable",
      "type": "function"
    }
  ],
  "bytecode": "0x608060405234801561001057600080fd5b50600180546001600160a01b031916331781556000556103bd806100356000396000f3fe60806040526004361061004a5760003560e01c806312065fe01461004f5780636a84a985146100715780636ea056a9146100875780638da5cb5b146100a9578063f94731a1146100e1575b600080fd5b34801561005b57600080fd5b50475b6040519081526020015b60405180910390f35b34801561007d57600080fd5b5061005e60005481565b34801561009357600080fd5b506100a76100a2366004610270565b6100f4565b005b3480156100b557600080fd5b506001546100c9906001600160a01b031681565b6040516001600160a01b039091168152602001610068565b6100a76100ef3660046102a8565b6101c2565b6001546001600160a01b031633146101405760405162461bcd60e51b815260206004820152600a60248201526927b7363c9037bbb732b960b11b60448201526064015b60405180910390fd5b478111156101875760405162461bcd60e51b8152602060048201526014602482015273496e73756666696369656e742062616c616e636560601b6044820152606401610137565b6040516001600160a01b0383169082156108fc029083906000818181858888f193505050501580156101bd573d6000803e3d6000fd5b505050565b600081116102125760405162461bcd60e51b815260206004820152601d60248201527f416d6f756e74206d7573742062652067726561746572207468616e20300000006044820152606401610137565b6000805490600190806102258385610320565b909155505060405133907f4b3265dac646c75b11da98453879ec7d1ecf11a3c7a75a7d4d9cb9763f7ee60890610262908590889088908790610347565b60405180910390a250505050565b6000806040838503121561028357600080fd5b82356001600160a01b038116811461029a57600080fd5b946020939093013593505050565b6000806000604084860312156102bd57600080fd5b833567ffffffffffffffff808211156102d557600080fd5b818601915086601f8301126102e957600080fd5b8135818111156102f857600080fd5b87602082850101111561030a57600080fd5b6020928301989097509590910135949350505050565b8082018082111561034157634e487b7160e01b600052601160045260246000fd5b92915050565b848152606060208201528260608201528284608083013760006080848301015260006080601f19601f86011683010190508260408301529594505050505056fea26469706673582212208cb525735082cafa6b52e78c6833e8860e52cdc586218b90ad8e5f45be137afa64736f6c63430008140033",
  "linkReferences": {},
  "deployedLinkReferences": {}
}