{
  "_format": "hh-sol-artifact-1",
  "contractName": "FCDR1155",
  "sourceName": "contracts/FCDR1155.sol",
  "abi": [
    {
      "inputs": [
        {
          "internalType": "string",
          "name": "uri_",
          "type": "string"
        }
      ],
      "stateMutability": "nonpayable",
      "type": "constructor"
    },
    {
      "inputs": [
        {
          "internalType": "address",
          "name": "sender",
          "type": "address"
        },
        {
          "internalType": "uint256",
          "name": "balance",
          "type": "uint256"
        },
        {
          "internalType": "uint256",
          "name": "needed",
          "type": "uint256"
        },
        {
          "internalType": "uint256",
          "name": "tokenId",
          "type": "uint256"
        }
      ],
      "name": "ERC1155InsufficientBalance",
      "type": "error"
    },
    {
      "inputs": [
        {
          "internalType": "address",
          "name": "approver",
          "type": "address"
        }
      ],
      "name": "ERC1155InvalidApprover",
      "type": "error"
    },
    {
      "inputs": [
        {
          "internalType": "uint256",
          "name": "idsLength",
          "type": "uint256"
        },
        {
          "internalType": "uint256",
          "name": "valuesLength",
          "type": "uint256"
        }
      ],
      "name": "ERC1155InvalidArrayLength",
      "type": "error"
    },
    {
      "inputs": [
        {
          "internalType": "address",
          "name": "operator",
          "type": "address"
        }
      ],
      "name": "ERC1155InvalidOperator",
      "type": "error"
    },
    {
      "inputs": [
        {
          "internalType": "address",
          "name": "receiver",
          "type": "address"
        }
      ],
      "name": "ERC1155InvalidReceiver",
      "type": "error"
    },
    {
      "inputs": [
        {
          "internalType": "address",
          "name": "sender",
          "type": "address"
        }
      ],
      "name": "ERC1155InvalidSender",
      "type": "error"
    },
    {
      "inputs": [
        {
          "internalType": "address",
          "name": "operator",
          "type": "address"
        },
        {
          "internalType": "address",
          "name": "owner",
          "type": "address"
        }
      ],
      "name": "ERC1155MissingApprovalForAll",
      "type": "error"
    },
    {
      "inputs": [
        {
          "internalType": "address",
          "name": "owner",
          "type": "address"
        }
      ],
      "name": "OwnableInvalidOwner",
      "type": "error"
    },
    {
      "inputs": [
        {
          "internalType": "address",
          "name": "account",
          "type": "address"
        }
      ],
      "name": "OwnableUnauthorizedAccount",
      "type": "error"
    },
    {
      "anonymous": false,
      "inputs": [
        {
          "indexed": true,
          "internalType": "address",
          "name": "account",
          "type": "address"
        },
        {
          "indexed": true,
          "internalType": "address",
          "name": "operator",
          "type": "address"
        },
        {
          "indexed": false,
          "internalType": "bool",
          "name": "approved",
          "type": "bool"
        }
      ],
      "name": "ApprovalForAll",
      "type": "event"
    },
    {
      "anonymous": false,
      "inputs": [
        {
          "indexed": true,
          "internalType": "address",
          "name": "owner",
          "type": "address"
        },
        {
          "indexed": true,
          "internalType": "uint256",
          "name": "fcdrId",
          "type": "uint256"
        },
        {
          "indexed": false,
          "internalType": "uint256",
          "name": "hbarAmount",
          "type": "uint256"
        },
        {
          "indexed": false,
          "internalType": "uint256",
          "name": "timestamp",
          "type": "uint256"
        }
      ],
      "name": "FCDRMinted",
      "type": "event"
    },
    {
      "anonymous": false,
      "inputs": [
        {
          "indexed": true,
          "internalType": "address",
          "name": "lp",
          "type": "address"
        },
        {
          "indexed": false,
          "internalType": "uint256",
          "name": "tokenId",
          "type": "uint256"
        }
      ],
      "name": "LPRegistered",
      "type": "event"
    },
    {
      "anonymous": false,
      "inputs": [
        {
          "indexed": true,
          "internalType": "address",
          "name": "previousOwner",
          "type": "address"
        },
        {
          "indexed": true,
          "internalType": "address",
          "name": "newOwner",
          "type": "address"
        }
      ],
      "name": "OwnershipTransferred",
      "type": "event"
    },
    {
      "anonymous": false,
      "inputs": [
        {
          "indexed": true,
          "internalType": "address",
          "name": "operator",
          "type": "address"
        },
        {
          "indexed": true,
          "internalType": "address",
          "name": "from",
          "type": "address"
        },
        {
          "indexed": true,
          "internalType": "address",
          "name": "to",
          "type": "address"
        },
        {
          "indexed": false,
          "internalType": "uint256[]",
          "name": "ids",
          "type": "uint256[]"
        },
        {
          "indexed": false,
          "internalType": "uint256[]",
          "name": "values",
          "type": "uint256[]"
        }
      ],
      "name": "TransferBatch",
      "type": "event"
    },
    {
      "anonymous": false,
      "inputs": [
        {
          "indexed": true,
          "internalType": "address",
          "name": "operator",
          "type": "address"
        },
        {
          "indexed": true,
          "internalType": "address",
          "name": "from",
          "type": "address"
        },
        {
          "indexed": true,
          "internalType": "address",
          "name": "to",
          "type": "address"
        },
        {
          "indexed": false,
          "internalType": "uint256",
          "name": "id",
          "type": "uint256"
        },
        {
          "indexed": false,
          "internalType": "uint256",
          "name": "value",
          "type": "uint256"
        }
      ],
      "name": "TransferSingle",
      "type": "event"
    },
    {
      "anonymous": false,
      "inputs": [
        {
          "indexed": false,
          "internalType": "string",
          "name": "value",
          "type": "string"
        },
        {
          "indexed": true,
          "internalType": "uint256",
          "name": "id",
          "type": "uint256"
        }
      ],
      "name": "URI",
      "type": "event"
    },
    {
      "inputs": [
        {
          "internalType": "address",
          "name": "account",
          "type": "address"
        },
        {
          "internalType": "uint256",
          "name": "id",
          "type": "uint256"
        }
      ],
      "name": "balanceOf",
      "outputs": [
        {
          "internalType": "uint256",
          "name": "",
          "type": "uint256"
        }
      ],
      "stateMutability": "view",
      "type": "function"
    },
    {
      "inputs": [
        {
          "internalType": "address[]",
          "name": "accounts",
          "type": "address[]"
        },
        {
          "internalType": "uint256[]",
          "name": "ids",
          "type": "uint256[]"
        }
      ],
      "name": "balanceOfBatch",
      "outputs": [
        {
          "internalType": "uint256[]",
          "name": "",
          "type": "uint256[]"
        }
      ],
      "stateMutability": "view",
      "type": "function"
    },
    {
      "inputs": [
        {
          "internalType": "address",
          "name": "from",
          "type": "address"
        },
        {
          "internalType": "address",
          "name": "lp",
          "type": "address"
        },
        {
          "internalType": "uint256",
          "name": "amount",
          "type": "uint256"
        }
      ],
      "name": "burnFrom",
      "outputs": [],
      "stateMutability": "nonpayable",
      "type": "function"
    },
    {
      "inputs": [
        {
          "internalType": "uint256",
          "name": "",
          "type": "uint256"
        }
      ],
      "name": "fcdrMetadata",
      "outputs": [
        {
          "internalType": "uint256",
          "name": "hbarAmount",
          "type": "uint256"
        },
        {
          "internalType": "uint256",
          "name": "timestamp",
          "type": "uint256"
        },
        {
          "internalType": "address",
          "name": "ownerAddress",
          "type": "address"
        },
        {
          "internalType": "address",
          "name": "poolAddress",
          "type": "address"
        },
        {
          "internalType": "uint256",
          "name": "fcdrId",
          "type": "uint256"
        }
      ],
      "stateMutability": "view",
      "type": "function"
    },
    {
      "inputs": [
        {
          "internalType": "uint256",
          "name": "fcdrId",
          "type": "uint256"
        }
      ],
      "name": "getFCDRMetadata",
      "outputs": [
        {
          "components": [
            {
              "internalType": "uint256",
              "name": "hbarAmount",
              "type": "uint256"
            },
            {
              "internalType": "uint256",
              "name": "timestamp",
              "type": "uint256"
            },
            {
              "internalType": "address",
              "name": "ownerAddress",
              "type": "address"
            },
            {
              "internalType": "address",
              "name": "poolAddress",
              "type": "address"
            },
            {
              "internalType": "uint256",
              "name": "fcdrId",
              "type": "uint256"
            }
          ],
          "internalType": "struct FCDR1155.FCDRMetadata",
          "name": "",
          "type": "tuple"
        }
      ],
      "stateMutability": "view",
      "type": "function"
    },
    {
      "inputs": [
        {
          "internalType": "address",
          "name": "lp",
          "type": "address"
        }
      ],
      "name": "getLPTokenId",
      "outputs": [
        {
          "internalType": "uint256",
          "name": "",
          "type": "uint256"
        }
      ],
      "stateMutability": "view",
      "type": "function"
    },
    {
      "inputs": [
        {
          "internalType": "address",
          "name": "owner",
          "type": "address"
        }
      ],
      "name": "getOwnerFCDRs",
      "outputs": [
        {
          "internalType": "uint256[]",
          "name": "",
          "type": "uint256[]"
        }
      ],
      "stateMutability": "view",
      "type": "function"
    },
    {
      "inputs": [],
      "name": "getTotalFCDRs",
      "outputs": [
        {
          "internalType": "uint256",
          "name": "",
          "type": "uint256"
        }
      ],
      "stateMutability": "view",
      "type": "function"
    },
    {
      "inputs": [
        {
          "internalType": "address",
          "name": "account",
          "type": "address"
        },
        {
          "internalType": "address",
          "name": "operator",
          "type": "address"
        }
      ],
      "name": "isApprovedForAll",
      "outputs": [
        {
          "internalType": "bool",
          "name": "",
          "type": "bool"
        }
      ],
      "stateMutability": "view",
      "type": "function"
    },
    {
      "inputs": [
        {
          "internalType": "address",
          "name": "lp",
          "type": "address"
        }
      ],
      "name": "isLPRegistered",
      "outputs": [
        {
          "internalType": "bool",
          "name": "",
          "type": "bool"
        }
      ],
      "stateMutability": "view",
      "type": "function"
    },
    {
      "inputs": [
        {
          "internalType": "address",
          "name": "",
          "type": "address"
        }
      ],
      "name": "lpTokenId",
      "outputs": [
        {
          "internalType": "uint256",
          "name": "",
          "type": "uint256"
        }
      ],
      "stateMutability": "view",
      "type": "function"
    },
    {
      "inputs": [
        {
          "internalType": "address",
          "name": "to",
          "type": "address"
        },
        {
          "internalType": "address",
          "name": "lp",
          "type": "address"
        },
        {
          "internalType": "uint256",
          "name": "hbarAmount",
          "type": "uint256"
        },
        {
          "internalType": "bytes",
          "name": "data",
          "type": "bytes"
        }
      ],
      "name": "mintFCDRWithMetadata",
      "outputs": [
        {
          "internalType": "uint256",
          "name": "",
          "type": "uint256"
        }
      ],
      "stateMutability": "nonpayable",
      "type": "function"
    },
    {
      "inputs": [
        {
          "internalType": "address",
          "name": "to",
          "type": "address"
        },
        {
          "internalType": "address",
          "name": "lp",
          "type": "address"
        },
        {
          "internalType": "uint256",
          "name": "amount",
          "type": "uint256"
        },
        {
          "internalType": "bytes",
          "name": "data",
          "type": "bytes"
        }
      ],
      "name": "mintTo",
      "outputs": [],
      "stateMutability": "nonpayable",
      "type": "function"
    },
    {
      "inputs": [],
      "name": "nextId",
      "outputs": [
        {
          "internalType": "uint256",
          "name": "",
          "type": "uint256"
        }
      ],
      "stateMutability": "view",
      "type": "function"
    },
    {
      "inputs": [],
      "name": "owner",
      "outputs": [
        {
          "internalType": "address",
          "name": "",
          "type": "address"
        }
      ],
      "stateMutability": "view",
      "type": "function"
    },
    {
      "inputs": [
        {
          "internalType": "address",
          "name": "",
          "type": "address"
        },
        {
          "internalType": "uint256",
          "name": "",
          "type": "uint256"
        }
      ],
      "name": "ownerFCDRs",
      "outputs": [
        {
          "internalType": "uint256",
          "name": "",
          "type": "uint256"
        }
      ],
      "stateMutability": "view",
      "type": "function"
    },
    {
      "inputs": [
        {
          "internalType": "address",
          "name": "lp",
          "type": "address"
        }
      ],
      "name": "registerLP",
      "outputs": [
        {
          "internalType": "uint256",
          "name": "",
          "type": "uint256"
        }
      ],
      "stateMutability": "nonpayable",
      "type": "function"
    },
    {
      "inputs": [],
      "name": "renounceOwnership",
      "outputs": [],
      "stateMutability": "nonpayable",
      "type": "function"
    },
    {
      "inputs": [
        {
          "internalType": "address",
          "name": "from",
          "type": "address"
        },
        {
          "internalType": "address",
          "name": "to",
          "type": "address"
        },
        {
          "internalType": "uint256[]",
          "name": "ids",
          "type": "uint256[]"
        },
        {
          "internalType": "uint256[]",
          "name": "values",
          "type": "uint256[]"
        },
        {
          "internalType": "bytes",
          "name": "data",
          "type": "bytes"
        }
      ],
      "name": "safeBatchTransferFrom",
      "outputs": [],
      "stateMutability": "nonpayable",
      "type": "function"
    },
    {
      "inputs": [
        {
          "internalType": "address",
          "name": "from",
          "type": "address"
        },
        {
          "internalType": "address",
          "name": "to",
          "type": "address"
        },
        {
          "internalType": "uint256",
          "name": "id",
          "type": "uint256"
        },
        {
          "internalType": "uint256",
          "name": "value",
          "type": "uint256"
        },
        {
          "internalType": "bytes",
          "name": "data",
          "type": "bytes"
        }
      ],
      "name": "safeTransferFrom",
      "outputs": [],
      "stateMutability": "nonpayable",
      "type": "function"
    },
    {
      "inputs": [
        {
          "internalType": "address",
          "name": "operator",
          "type": "address"
        },
        {
          "internalType": "bool",
          "name": "approved",
          "type": "bool"
        }
      ],
      "name": "setApprovalForAll",
      "outputs": [],
      "stateMutability": "nonpayable",
      "type": "function"
    },
    {
      "inputs": [
        {
          "internalType": "bytes4",
          "name": "interfaceId",
          "type": "bytes4"
        }
      ],
      "name": "supportsInterface",
      "outputs": [
        {
          "internalType": "bool",
          "name": "",
          "type": "bool"
        }
      ],
      "stateMutability": "view",
      "type": "function"
    },
    {
      "inputs": [],
      "name": "totalFCDRs",
      "outputs": [
        {
          "internalType": "uint256",
          "name": "",
          "type": "uint256"
        }
      ],
      "stateMutability": "view",
      "type": "function"
    },
    {
      "inputs": [
        {
          "internalType": "address",
          "name": "newOwner",
          "type": "address"
        }
      ],
      "name": "transferOwnership",
      "outputs": [],
      "stateMutability": "nonpayable",
      "type": "function"
    },
    {
      "inputs": [
        {
          "internalType": "uint256",
          "name": "",
          "type": "uint256"
        }
      ],
      "name": "uri",
      "outputs": [
        {
          "internalType": "string",
          "name": "",
          "type": "string"
        }
      ],
      "stateMutability": "view",
      "type": "function"
    }
  ],
  "bytecode": "0x6080604052346200027c5762001f96803803806200001d8162000281565b928339810190602080828403126200027c5781516001600160401b03928382116200027c570192601f908082860112156200027c5784518481116200025157601f1995620000718285018816860162000281565b928284528583830101116200027c57849060005b838110620002675750506000918301015280519384116200025157600254926001938481811c9116801562000246575b828210146200023057838111620001e4575b5080928511600114620001795750839450908392916000946200016d575b50501b916000199060031b1c1916176002555b3315620001545760038054336001600160a01b03198216811790925560405191906001600160a01b03167f8be0079c531659141344cd1fd0a4f28419497f9722a3daafe3b4186f6b6457e0600080a3611cee9081620002a88239f35b604051631e4fbdf760e01b815260006004820152602490fd5b015192503880620000e5565b929484908116600260005284600020946000905b88838310620001c95750505010620001af575b505050811b01600255620000f8565b015160001960f88460031b161c19169055388080620001a0565b8587015188559096019594850194879350908101906200018d565b6002600052816000208480880160051c82019284891062000226575b0160051c019085905b82811062000219575050620000c7565b6000815501859062000209565b9250819262000200565b634e487b7160e01b600052602260045260246000fd5b90607f1690620000b5565b634e487b7160e01b600052604160045260246000fd5b81810183015185820184015286920162000085565b600080fd5b6040519190601f01601f191682016001600160401b03811183821017620002515760405256fe6080604052600436101561001257600080fd5b60003560e01c8062fdd58e1461019c57806301ffc9a7146101975780630e89341c1461019257806313e2e0191461018d5780631cf2e698146101885780631d737319146101565780631e96838b14610183578063238ab97d1461017e57806324582cef146101795780632eb2c2d61461017457806332acf78b1461014257806338b37d1c1461016f5780634ddd1c541461016a5780634e1273f41461016557806361b8ce8c14610160578063715018a61461015b5780637410d06a146101565780637d56be3c146101515780638da5cb5b1461014c578063a22cb46514610147578063a7112efe14610142578063e985e9c51461013d578063ec60bcf314610138578063f242432a146101335763f2fde38b1461012e57600080fd5b611183565b61107e565b610fc6565b610f69565b610b6b565b610eac565b610e83565b610e2b565b6106d4565b610d97565b610d79565b610ccb565b610beb565b610b89565b610a44565b6108a0565b610807565b61070e565b610650565b610477565b610307565b610245565b6101e6565b600435906001600160a01b03821682036101b757565b600080fd5b602435906001600160a01b03821682036101b757565b35906001600160a01b03821682036101b757565b346101b75760403660031901126101b757602061022a6102046101a1565b6024356000526000835260406000209060018060a01b0316600052602052604060002090565b54604051908152f35b6001600160e01b03198116036101b757565b346101b75760203660031901126101b757602060043561026481610233565b63ffffffff60e01b16636cdb3d1360e11b81149081156102a2575b8115610291575b506040519015158152f35b6301ffc9a760e01b14905038610286565b6303a24d0760e21b8114915061027f565b919082519283825260005b8481106102df575050826000602080949584010152601f8019910116010190565b6020818301810151848301820152016102be565b9060206103049281815201906102b3565b90565b346101b7576020806003193601126101b7576040519060009060025460019181831c92808316928315610403575b82851084146103ef5784875260208701939081156103d05750600114610376575b610372866103668188038261092f565b604051918291826102f3565b0390f35b6002600090815294509192917f405787fa12a823e0f2b7631cc41b3ba8828b3321ca811111fa75cd3aa3bb5ace5b8386106103bf57505050910190506103668261037238610356565b8054858701529482019481016103a4565b60ff1916845250505090151560051b0190506103668261037238610356565b634e487b7160e01b86526022600452602486fd5b93607f1693610335565b60806003198201126101b7576004356001600160a01b03811681036101b757916104356101bc565b916044359160643567ffffffffffffffff928382116101b757806023830112156101b75781600401359384116101b757602484830101116101b7576024019190565b346101b7576103726105e76104ce6104d561057a6104943661040d565b9195929396906104a2611211565b6001600160a01b038516600090815260046020526040902054926104c7841515611bb9565b36916109f2565b9086611bf7565b61052560085461050f6104e6610951565b8681524260208201526001600160a01b0388166040820152936001600160a01b03166060850152565b8060808401526000526006602052604060002090565b815181556020820151600182015560408201516002820180546001600160a01b039283166001600160a01b03199182161790915560608401516003840180549190931691161790559060049060800151910155565b6001600160a01b038216600090815260076020526040902060085461059e91611c36565b60085460408051928352426020840152909384936001600160a01b0316927fb5d1185f9eb3bc9f64976a0642fa385671626df86e9aecd91bcda7206b0456669290918291820190565b0390a36105fb6105f682611253565b600855565b6040519081529081906020820190565b90815180825260208080930193019160005b82811061062b575050505090565b83518552938101939281019260010161061d565b90602061030492818152019061060b565b346101b7576020806003193601126101b7576001600160a01b036106726101a1565b1660005260078152604060002090604051908181845491828152019360005281600020916000905b8282106106bd57610372856106b18189038261092f565b6040519182918261063f565b83548652948501946001938401939091019061069a565b346101b75760203660031901126101b7576001600160a01b036106f56101a1565b1660005260046020526020604060002054604051908152f35b346101b75760203660031901126101b7576107276101a1565b61072f611211565b6001600160a01b0381169081156107dc57610372918161076e61076761079f9460018060a01b03166000526004602052604060002090565b5415611b84565b61078161077c600554611253565b600555565b60055492839160018060a01b03166000526004602052604060002090565b556040518281527f140a4ef683af5330a897d5eace634a6b4a103c36c7bdccd97706a66bd854196890602090a26040519081529081906020820190565b606460405162461bcd60e51b815260206004820152600460248201526306c7020360e41b6044820152fd5b346101b75761084c6108183661040d565b919490610826949394611211565b6001600160a01b03948516600090815260046020526040902054926104c7841515611bb9565b92821615610887576108859361087f60405192600184526020840152604083019160018352606084015260808301604052565b916114c5565b005b604051632bfa23e760e11b815260006004820152602490fd5b346101b75760203660031901126101b7576001600160a01b036108c16101a1565b16600052600460205260206040600020541515604051908152f35b634e487b7160e01b600052604160045260246000fd5b60a0810190811067ffffffffffffffff82111761090e57604052565b6108dc565b6020810190811067ffffffffffffffff82111761090e57604052565b90601f8019910116810190811067ffffffffffffffff82111761090e57604052565b6040519061095e826108f2565b565b67ffffffffffffffff811161090e5760051b60200190565b81601f820112156101b75780359161098f83610960565b9261099d604051948561092f565b808452602092838086019260051b8201019283116101b7578301905b8282106109c7575050505090565b813581529083019083016109b9565b67ffffffffffffffff811161090e57601f01601f191660200190565b9291926109fe826109d6565b91610a0c604051938461092f565b8294818452818301116101b7578281602093846000960137010152565b9080601f830112156101b757816020610304933591016109f2565b346101b75760a03660031901126101b757610a5d6101a1565b610a656101bc565b906044359167ffffffffffffffff908184116101b757610a8a60049436908601610978565b906064358381116101b757610aa29036908701610978565b926084359081116101b757610aba9036908701610a29565b936001600160a01b03808216903382141580610b47575b610b1a57831615610b025715610aeb57610885955061162e565b604051626a0d4560e21b8152600081880152602490fd5b604051632bfa23e760e11b8152600081890152602490fd5b6040805163711bec9160e11b815233818b019081526001600160a01b038616602082015290918291010390fd5b50600082815260016020908152604080832033845290915290205460ff1615610ad1565b346101b75760003660031901126101b7576020600854604051908152f35b346101b75760203660031901126101b757600435600052600660205260a06040600020805490600181015490600180851b0360048160028401541691600384015416920154926040519485526020850152604084015260608301526080820152f35b346101b75760203660031901126101b75760043560006080604051610c0f816108f2565b8281528260208201528260408201528260608201520152600854811015610c9457610c4f610c4a610372926000526006602052604060002090565b611c70565b6040519182918291909160808060a0830194805184526020810151602085015260018060a01b0380604083015116604086015260608201511660608501520151910152565b60405162461bcd60e51b815260206004820152600f60248201526e125b9d985b1a59081190d114881251608a1b6044820152606490fd5b346101b75760403660031901126101b75760043567ffffffffffffffff8082116101b757366023830112156101b7578160040135610d0881610960565b92610d16604051948561092f565b81845260209160248386019160051b830101913683116101b757602401905b828210610d6257856024358681116101b75761037291610d5c6106b1923690600401610978565b9061127b565b838091610d6e846101d2565b815201910190610d35565b346101b75760003660031901126101b7576020600554604051908152f35b346101b757600080600319360112610df557610db1611211565b600380546001600160a01b0319811690915581906001600160a01b03167f8be0079c531659141344cd1fd0a4f28419497f9722a3daafe3b4186f6b6457e08280a380f35b80fd5b634e487b7160e01b600052603260045260246000fd5b8054821015610e265760005260206000200190600090565b610df8565b346101b75760403660031901126101b757610e446101a1565b6001600160a01b03166000908152600760205260409020805460243591908210156101b757602091610e7591610e0e565b90546040519160031b1c8152f35b346101b75760003660031901126101b7576003546040516001600160a01b039091168152602090f35b346101b75760403660031901126101b757610ec56101a1565b6024358015158082036101b7576001600160a01b038316928315610f51573360009081526001602090815260408083206001600160a01b039094168352929052209060ff801983541691161790557f17307eab39ab6107e8899845ad3d59bd9653f200f220920489ca2b5937696c3160405180610f4c339482919091602081019215159052565b0390a3005b60405162ced3e160e81b815260006004820152602490fd5b346101b75760403660031901126101b757602060ff610fba610f896101a1565b610f916101bc565b6001600160a01b0391821660009081526001865260408082209290931681526020919091522090565b54166040519015158152f35b346101b75760603660031901126101b757610fdf6101a1565b610fe76101bc565b90610ff0611211565b6001600160a01b039182166000908152600460205260408120549092611017821515611bb9565b821615611066579061104f61106392604435909160405192600184526020840152604083019160018352606084015260808301604052565b918460405161105d81610913565b52611340565b80f35b604051626a0d4560e21b815260048101849052602490fd5b346101b75760a03660031901126101b7576110976101a1565b61109f6101bc565b60843567ffffffffffffffff81116101b7576110bf903690600401610a29565b906001600160a01b0383811690338214158061115f575b61113857821615610887571561112057610885926111186064356044359160405192600184526020840152604083019160018352606084015260808301604052565b92909161162e565b604051626a0d4560e21b815260006004820152602490fd5b60405163711bec9160e11b81523360048201526001600160a01b0386166024820152604490fd5b50600082815260016020908152604080832033845290915290205460ff16156110d6565b346101b75760203660031901126101b75761119c6101a1565b6111a4611211565b6001600160a01b039081169081156111f857600354826bffffffffffffffffffffffff60a01b821617600355167f8be0079c531659141344cd1fd0a4f28419497f9722a3daafe3b4186f6b6457e0600080a3005b604051631e4fbdf760e01b815260006004820152602490fd5b6003546001600160a01b0316330361122557565b60405163118cdaa760e01b8152336004820152602490fd5b634e487b7160e01b600052601160045260246000fd5b60001981146112625760010190565b61123d565b8051821015610e265760209160051b010190565b9190918051835180820361131e57505080519061129782610960565b916112a5604051938461092f565b8083526112b4601f1991610960565b0190602091368385013760005b815181101561131657600581901b8281018401519087018401516000908152602081815260408083206001600160a01b0390941683529290522054611311919061130b8287611267565b52611253565b6112c1565b509193505050565b604051635b05999160e01b815260048101919091526024810191909152604490fd5b929190805182519081810361131e57505060005b815181101561142557600581901b82810160209081015191850101516001600160a01b03871661138f575b505061138a90611253565b611354565b6113be876113a7846000526000602052604060002090565b9060018060a01b0316600052602052604060002090565b548181106113ee57876113a761138a9594936113e69303936000526000602052604060002090565b55903861137f565b6040516303dee4c560e01b81526001600160a01b038916600482015260248101919091526044810182905260648101839052608490fd5b5090600092939160018151148414611486576020908101519181015160408051938452918301526001600160a01b039092169133917fc3d58168c5ae7397731d063d5bbf3d657854427343f4c083240f7aacaa2d0f6291819081015b0390a4565b6040516001600160a01b039093169233927f4a39dc06d4c0dbc64b70af90fd698a233a518aa5d07e595d983b8c0526c8f7fb9282916114819183611839565b90805183519081810361131e57505060005b815181101561154357600581901b8281016020908101519186010151611511929185906001600160a01b038216611516575b505050611253565b6114d7565b611539916113a7611531926000526000602052604060002090565b91825461182c565b9055388481611509565b508051919392916001036115e5576020818101518382015160408051928352928201526001600160a01b0386169160009133917fc3d58168c5ae7397731d063d5bbf3d657854427343f4c083240f7aacaa2d0f6291a45b6001600160a01b0384166115af575b50505050565b80516001036115d657906020806115cd959301519101519133611907565b388080806115a9565b6115e09333611b18565b6115cd565b6040516001600160a01b0385169060009033907f4a39dc06d4c0dbc64b70af90fd698a233a518aa5d07e595d983b8c0526c8f7fb9080611626888883611839565b0390a461159a565b94919091815184519081810361131e57505060005b825181101561173657600581901b83810160209081015191870101516001600160a01b03929186908a85166116af575b61168594821661168a57505050611253565b611643565b6116a5916113a7611531926000526000602052604060002090565b9055388581611509565b91929390506116cc8a6113a7846000526000602052604060002090565b548381106116ff5791879184611685969594036116f78d6113a7856000526000602052604060002090565b559450611673565b6040516303dee4c560e01b81526001600160a01b038c16600482015260248101919091526044810184905260648101839052608490fd5b5094919392909360018551146000146117e1576020858101518382015160408051928352928201526001600160a01b03838116929086169133917fc3d58168c5ae7397731d063d5bbf3d657854427343f4c083240f7aacaa2d0f6291a45b6001600160a01b0381166117aa575b5050505050565b84516001036117d0576020806117c69601519201519233611a01565b38808080806117a3565b6117dc94919233611b4d565b6117c6565b6040516001600160a01b03828116919085169033907f4a39dc06d4c0dbc64b70af90fd698a233a518aa5d07e595d983b8c0526c8f7fb9080611824888c83611839565b0390a4611794565b9190820180921161126257565b90916118506103049360408452604084019061060b565b91602081840391015261060b565b908160209103126101b7575161030481610233565b909260a0926103049594600180861b03168352600060208401526040830152606082015281608082015201906102b3565b919261030495949160a094600180871b0380921685521660208401526040830152606082015281608082015201906102b3565b3d15611902573d906118e8826109d6565b916118f6604051938461092f565b82523d6000602084013e565b606090565b9293919093843b611919575050505050565b60209161193c604051948593849363f23a6e6160e01b9889865260048601611873565b038160006001600160a01b0388165af1600091816119d1575b5061199457826119636118d7565b805191908261198d57604051632bfa23e760e11b81526001600160a01b0383166004820152602490fd5b6020915001fd5b6001600160e01b031916036119ae575038808080806117a3565b604051632bfa23e760e11b81526001600160a01b03919091166004820152602490fd5b6119f391925060203d81116119fa575b6119eb818361092f565b81019061185e565b9038611955565b503d6119e1565b939290949194853b611a16575b505050505050565b611a39602093604051958694859463f23a6e6160e01b998a8752600487016118a4565b038160006001600160a01b0388165af160009181611a7b575b50611a6057826119636118d7565b6001600160e01b031916036119ae5750388080808080611a0e565b611a9491925060203d81116119fa576119eb818361092f565b9038611a52565b92611aca6103049593611ad89360018060a01b031686526000602087015260a0604087015260a086019061060b565b90848203606086015261060b565b9160808184039101526102b3565b93906103049593611aca91611ad89460018060a01b03809216885216602087015260a0604087015260a086019061060b565b9293919093843b611b2a575050505050565b60209161193c604051948593849363bc197c8160e01b9889865260048601611a9b565b939290949194853b611b6157505050505050565b611a39602093604051958694859463bc197c8160e01b998a875260048701611ae6565b15611b8b57565b60405162461bcd60e51b815260206004820152600660248201526565786973747360d01b6044820152606490fd5b15611bc057565b60405162461bcd60e51b815260206004820152600f60248201526e0756e72656769737465726564206c7608c1b6044820152606490fd5b9091906001600160a01b038116156108875761095e926040519060018252602082015260408101916001835260016060830152608082016040526114c5565b80546801000000000000000081101561090e57611c5891600182018155610e0e565b819291549060031b91821b91600019901b1916179055565b90604051611c7d816108f2565b825481526001830154602082015260028301546001600160a01b0390811660408301526003840154166060820152600490920154608083015256fea264697066735822122027e708459310a49046d64383a0fdb848ac5a6d7096ea1521617884bed99797c764736f6c63430008140033",
  "linkReferences": {},
  "deployedLinkReferences": {}
}