{
  "_format": "hh-sol-artifact-1",
  "contractName": "FCDR1155",
  "sourceName": "contracts/FCDR1155.sol",
  "abi": [
    {
      "inputs": [
        {
          "internalType": "string",
          "name": "uri_",
          "type": "string"
        }
      ],
      "stateMutability": "nonpayable",
      "type": "constructor"
    },
    {
      "inputs": [
        {
          "internalType": "address",
          "name": "sender",
          "type": "address"
        },
        {
          "internalType": "uint256",
          "name": "balance",
          "type": "uint256"
        },
        {
          "internalType": "uint256",
          "name": "needed",
          "type": "uint256"
        },
        {
          "internalType": "uint256",
          "name": "tokenId",
          "type": "uint256"
        }
      ],
      "name": "ERC1155InsufficientBalance",
      "type": "error"
    },
    {
      "inputs": [
        {
          "internalType": "address",
          "name": "approver",
          "type": "address"
        }
      ],
      "name": "ERC1155InvalidApprover",
      "type": "error"
    },
    {
      "inputs": [
        {
          "internalType": "uint256",
          "name": "idsLength",
          "type": "uint256"
        },
        {
          "internalType": "uint256",
          "name": "valuesLength",
          "type": "uint256"
        }
      ],
      "name": "ERC1155InvalidArrayLength",
      "type": "error"
    },
    {
      "inputs": [
        {
          "internalType": "address",
          "name": "operator",
          "type": "address"
        }
      ],
      "name": "ERC1155InvalidOperator",
      "type": "error"
    },
    {
      "inputs": [
        {
          "internalType": "address",
          "name": "receiver",
          "type": "address"
        }
      ],
      "name": "ERC1155InvalidReceiver",
      "type": "error"
    },
    {
      "inputs": [
        {
          "internalType": "address",
          "name": "sender",
          "type": "address"
        }
      ],
      "name": "ERC1155InvalidSender",
      "type": "error"
    },
    {
      "inputs": [
        {
          "internalType": "address",
          "name": "operator",
          "type": "address"
        },
        {
          "internalType": "address",
          "name": "owner",
          "type": "address"
        }
      ],
      "name": "ERC1155MissingApprovalForAll",
      "type": "error"
    },
    {
      "inputs": [
        {
          "internalType": "address",
          "name": "owner",
          "type": "address"
        }
      ],
      "name": "OwnableInvalidOwner",
      "type": "error"
    },
    {
      "inputs": [
        {
          "internalType": "address",
          "name": "account",
          "type": "address"
        }
      ],
      "name": "OwnableUnauthorizedAccount",
      "type": "error"
    },
    {
      "anonymous": false,
      "inputs": [
        {
          "indexed": true,
          "internalType": "address",
          "name": "account",
          "type": "address"
        },
        {
          "indexed": true,
          "internalType": "address",
          "name": "operator",
          "type": "address"
        },
        {
          "indexed": false,
          "internalType": "bool",
          "name": "approved",
          "type": "bool"
        }
      ],
      "name": "ApprovalForAll",
      "type": "event"
    },
    {
      "anonymous": false,
      "inputs": [
        {
          "indexed": true,
          "internalType": "address",
          "name": "owner",
          "type": "address"
        },
        {
          "indexed": true,
          "internalType": "uint256",
          "name": "fcdrId",
          "type": "uint256"
        },
        {
          "indexed": false,
          "internalType": "uint256",
          "name": "hbarAmount",
          "type": "uint256"
        },
        {
          "indexed": false,
          "internalType": "uint256",
          "name": "timestamp",
          "type": "uint256"
        }
      ],
      "name": "FCDRMinted",
      "type": "event"
    },
    {
      "anonymous": false,
      "inputs": [
        {
          "indexed": true,
          "internalType": "address",
          "name": "lp",
          "type": "address"
        },
        {
          "indexed": false,
          "internalType": "uint256",
          "name": "tokenId",
          "type": "uint256"
        }
      ],
      "name": "LPRegistered",
      "type": "event"
    },
    {
      "anonymous": false,
      "inputs": [
        {
          "indexed": true,
          "internalType": "address",
          "name": "previousOwner",
          "type": "address"
        },
        {
          "indexed": true,
          "internalType": "address",
          "name": "newOwner",
          "type": "address"
        }
      ],
      "name": "OwnershipTransferred",
      "type": "event"
    },
    {
      "anonymous": false,
      "inputs": [
        {
          "indexed": true,
          "internalType": "address",
          "name": "operator",
          "type": "address"
        },
        {
          "indexed": true,
          "internalType": "address",
          "name": "from",
          "type": "address"
        },
        {
          "indexed": true,
          "internalType": "address",
          "name": "to",
          "type": "address"
        },
        {
          "indexed": false,
          "internalType": "uint256[]",
          "name": "ids",
          "type": "uint256[]"
        },
        {
          "indexed": false,
          "internalType": "uint256[]",
          "name": "values",
          "type": "uint256[]"
        }
      ],
      "name": "TransferBatch",
      "type": "event"
    },
    {
      "anonymous": false,
      "inputs": [
        {
          "indexed": true,
          "internalType": "address",
          "name": "operator",
          "type": "address"
        },
        {
          "indexed": true,
          "internalType": "address",
          "name": "from",
          "type": "address"
        },
        {
          "indexed": true,
          "internalType": "address",
          "name": "to",
          "type": "address"
        },
        {
          "indexed": false,
          "internalType": "uint256",
          "name": "id",
          "type": "uint256"
        },
        {
          "indexed": false,
          "internalType": "uint256",
          "name": "value",
          "type": "uint256"
        }
      ],
      "name": "TransferSingle",
      "type": "event"
    },
    {
      "anonymous": false,
      "inputs": [
        {
          "indexed": false,
          "internalType": "string",
          "name": "value",
          "type": "string"
        },
        {
          "indexed": true,
          "internalType": "uint256",
          "name": "id",
          "type": "uint256"
        }
      ],
      "name": "URI",
      "type": "event"
    },
    {
      "inputs": [
        {
          "internalType": "address",
          "name": "account",
          "type": "address"
        },
        {
          "internalType": "uint256",
          "name": "id",
          "type": "uint256"
        }
      ],
      "name": "balanceOf",
      "outputs": [
        {
          "internalType": "uint256",
          "name": "",
          "type": "uint256"
        }
      ],
      "stateMutability": "view",
      "type": "function"
    },
    {
      "inputs": [
        {
          "internalType": "address[]",
          "name": "accounts",
          "type": "address[]"
        },
        {
          "internalType": "uint256[]",
          "name": "ids",
          "type": "uint256[]"
        }
      ],
      "name": "balanceOfBatch",
      "outputs": [
        {
          "internalType": "uint256[]",
          "name": "",
          "type": "uint256[]"
        }
      ],
      "stateMutability": "view",
      "type": "function"
    },
    {
      "inputs": [
        {
          "internalType": "address",
          "name": "from",
          "type": "address"
        },
        {
          "internalType": "address",
          "name": "lp",
          "type": "address"
        },
        {
          "internalType": "uint256",
          "name": "amount",
          "type": "uint256"
        }
      ],
      "name": "burnFrom",
      "outputs": [],
      "stateMutability": "nonpayable",
      "type": "function"
    },
    {
      "inputs": [
        {
          "internalType": "uint256",
          "name": "",
          "type": "uint256"
        }
      ],
      "name": "fcdrMetadata",
      "outputs": [
        {
          "internalType": "uint256",
          "name": "hbarAmount",
          "type": "uint256"
        },
        {
          "internalType": "uint256",
          "name": "timestamp",
          "type": "uint256"
        },
        {
          "internalType": "address",
          "name": "ownerAddress",
          "type": "address"
        },
        {
          "internalType": "address",
          "name": "poolAddress",
          "type": "address"
        },
        {
          "internalType": "uint256",
          "name": "fcdrId",
          "type": "uint256"
        }
      ],
      "stateMutability": "view",
      "type": "function"
    },
    {
      "inputs": [
        {
          "internalType": "uint256",
          "name": "fcdrId",
          "type": "uint256"
        }
      ],
      "name": "getFCDRMetadata",
      "outputs": [
        {
          "components": [
            {
              "internalType": "uint256",
              "name": "hbarAmount",
              "type": "uint256"
            },
            {
              "internalType": "uint256",
              "name": "timestamp",
              "type": "uint256"
            },
            {
              "internalType": "address",
              "name": "ownerAddress",
              "type": "address"
            },
            {
              "internalType": "address",
              "name": "poolAddress",
              "type": "address"
            },
            {
              "internalType": "uint256",
              "name": "fcdrId",
              "type": "uint256"
            }
          ],
          "internalType": "struct FCDR1155.FCDRMetadata",
          "name": "",
          "type": "tuple"
        }
      ],
      "stateMutability": "view",
      "type": "function"
    },
    {
      "inputs": [
        {
          "internalType": "address",
          "name": "lp",
          "type": "address"
        }
      ],
      "name": "getLPTokenId",
      "outputs": [
        {
          "internalType": "uint256",
          "name": "",
          "type": "uint256"
        }
      ],
      "stateMutability": "view",
      "type": "function"
    },
    {
      "inputs": [
        {
          "internalType": "address",
          "name": "owner",
          "type": "address"
        }
      ],
      "name": "getOwnerFCDRs",
      "outputs": [
        {
          "internalType": "uint256[]",
          "name": "",
          "type": "uint256[]"
        }
      ],
      "stateMutability": "view",
      "type": "function"
    },
    {
      "inputs": [],
      "name": "getTotalFCDRs",
      "outputs": [
        {
          "internalType": "uint256",
          "name": "",
          "type": "uint256"
        }
      ],
      "stateMutability": "view",
      "type": "function"
    },
    {
      "inputs": [
        {
          "internalType": "address",
          "name": "account",
          "type": "address"
        },
        {
          "internalType": "address",
          "name": "operator",
          "type": "address"
        }
      ],
      "name": "isApprovedForAll",
      "outputs": [
        {
          "internalType": "bool",
          "name": "",
          "type": "bool"
        }
      ],
      "stateMutability": "view",
      "type": "function"
    },
    {
      "inputs": [
        {
          "internalType": "address",
          "name": "lp",
          "type": "address"
        }
      ],
      "name": "isLPRegistered",
      "outputs": [
        {
          "internalType": "bool",
          "name": "",
          "type": "bool"
        }
      ],
      "stateMutability": "view",
      "type": "function"
    },
    {
      "inputs": [
        {
          "internalType": "address",
          "name": "",
          "type": "address"
        }
      ],
      "name": "lpTokenId",
      "outputs": [
        {
          "internalType": "uint256",
          "name": "",
          "type": "uint256"
        }
      ],
      "stateMutability": "view",
      "type": "function"
    },
    {
      "inputs": [
        {
          "internalType": "address",
          "name": "to",
          "type": "address"
        },
        {
          "internalType": "address",
          "name": "lp",
          "type": "address"
        },
        {
          "internalType": "uint256",
          "name": "hbarAmount",
          "type": "uint256"
        },
        {
          "internalType": "bytes",
          "name": "data",
          "type": "bytes"
        }
      ],
      "name": "mintFCDRWithMetadata",
      "outputs": [
        {
          "internalType": "uint256",
          "name": "",
          "type": "uint256"
        }
      ],
      "stateMutability": "nonpayable",
      "type": "function"
    },
    {
      "inputs": [
        {
          "internalType": "address",
          "name": "to",
          "type": "address"
        },
        {
          "internalType": "address",
          "name": "lp",
          "type": "address"
        },
        {
          "internalType": "uint256",
          "name": "amount",
          "type": "uint256"
        },
        {
          "internalType": "bytes",
          "name": "data",
          "type": "bytes"
        }
      ],
      "name": "mintTo",
      "outputs": [],
      "stateMutability": "nonpayable",
      "type": "function"
    },
    {
      "inputs": [],
      "name": "nextId",
      "outputs": [
        {
          "internalType": "uint256",
          "name": "",
          "type": "uint256"
        }
      ],
      "stateMutability": "view",
      "type": "function"
    },
    {
      "inputs": [],
      "name": "owner",
      "outputs": [
        {
          "internalType": "address",
          "name": "",
          "type": "address"
        }
      ],
      "stateMutability": "view",
      "type": "function"
    },
    {
      "inputs": [
        {
          "internalType": "address",
          "name": "",
          "type": "address"
        },
        {
          "internalType": "uint256",
          "name": "",
          "type": "uint256"
        }
      ],
      "name": "ownerFCDRs",
      "outputs": [
        {
          "internalType": "uint256",
          "name": "",
          "type": "uint256"
        }
      ],
      "stateMutability": "view",
      "type": "function"
    },
    {
      "inputs": [
        {
          "internalType": "address",
          "name": "lp",
          "type": "address"
        }
      ],
      "name": "registerLP",
      "outputs": [
        {
          "internalType": "uint256",
          "name": "",
          "type": "uint256"
        }
      ],
      "stateMutability": "nonpayable",
      "type": "function"
    },
    {
      "inputs": [],
      "name": "renounceOwnership",
      "outputs": [],
      "stateMutability": "nonpayable",
      "type": "function"
    },
    {
      "inputs": [
        {
          "internalType": "address",
          "name": "from",
          "type": "address"
        },
        {
          "internalType": "address",
          "name": "to",
          "type": "address"
        },
        {
          "internalType": "uint256[]",
          "name": "ids",
          "type": "uint256[]"
        },
        {
          "internalType": "uint256[]",
          "name": "values",
          "type": "uint256[]"
        },
        {
          "internalType": "bytes",
          "name": "data",
          "type": "bytes"
        }
      ],
      "name": "safeBatchTransferFrom",
      "outputs": [],
      "stateMutability": "nonpayable",
      "type": "function"
    },
    {
      "inputs": [
        {
          "internalType": "address",
          "name": "from",
          "type": "address"
        },
        {
          "internalType": "address",
          "name": "to",
          "type": "address"
        },
        {
          "internalType": "uint256",
          "name": "id",
          "type": "uint256"
        },
        {
          "internalType": "uint256",
          "name": "value",
          "type": "uint256"
        },
        {
          "internalType": "bytes",
          "name": "data",
          "type": "bytes"
        }
      ],
      "name": "safeTransferFrom",
      "outputs": [],
      "stateMutability": "nonpayable",
      "type": "function"
    },
    {
      "inputs": [
        {
          "internalType": "address",
          "name": "operator",
          "type": "address"
        },
        {
          "internalType": "bool",
          "name": "approved",
          "type": "bool"
        }
      ],
      "name": "setApprovalForAll",
      "outputs": [],
      "stateMutability": "nonpayable",
      "type": "function"
    },
    {
      "inputs": [
        {
          "internalType": "bytes4",
          "name": "interfaceId",
          "type": "bytes4"
        }
      ],
      "name": "supportsInterface",
      "outputs": [
        {
          "internalType": "bool",
          "name": "",
          "type": "bool"
        }
      ],
      "stateMutability": "view",
      "type": "function"
    },
    {
      "inputs": [],
      "name": "totalFCDRs",
      "outputs": [
        {
          "internalType": "uint256",
          "name": "",
          "type": "uint256"
        }
      ],
      "stateMutability": "view",
      "type": "function"
    },
    {
      "inputs": [
        {
          "internalType": "address",
          "name": "newOwner",
          "type": "address"
        }
      ],
      "name": "transferOwnership",
      "outputs": [],
      "stateMutability": "nonpayable",
      "type": "function"
    },
    {
      "inputs": [
        {
          "internalType": "uint256",
          "name": "",
          "type": "uint256"
        }
      ],
      "name": "uri",
      "outputs": [
        {
          "internalType": "string",
          "name": "",
          "type": "string"
        }
      ],
      "stateMutability": "view",
      "type": "function"
    }
  ],
  "bytecode": "0x60806040523480156200001157600080fd5b5060405162001eb538038062001eb58339810160408190526200003491620000fe565b3381620000418162000084565b506001600160a01b0381166200007157604051631e4fbdf760e01b81526000600482015260240160405180910390fd5b6200007c8162000096565b50506200032e565b600262000092828262000262565b5050565b600380546001600160a01b038381166001600160a01b0319831681179093556040519116919082907f8be0079c531659141344cd1fd0a4f28419497f9722a3daafe3b4186f6b6457e090600090a35050565b634e487b7160e01b600052604160045260246000fd5b600060208083850312156200011257600080fd5b82516001600160401b03808211156200012a57600080fd5b818501915085601f8301126200013f57600080fd5b815181811115620001545762000154620000e8565b604051601f8201601f19908116603f011681019083821181831017156200017f576200017f620000e8565b8160405282815288868487010111156200019857600080fd5b600093505b82841015620001bc57848401860151818501870152928501926200019d565b600086848301015280965050505050505092915050565b600181811c90821680620001e857607f821691505b6020821081036200020957634e487b7160e01b600052602260045260246000fd5b50919050565b601f8211156200025d57600081815260208120601f850160051c81016020861015620002385750805b601f850160051c820191505b81811015620002595782815560010162000244565b5050505b505050565b81516001600160401b038111156200027e576200027e620000e8565b62000296816200028f8454620001d3565b846200020f565b602080601f831160018114620002ce5760008415620002b55750858301515b600019600386901b1c1916600185901b17855562000259565b600085815260208120601f198616915b82811015620002ff57888601518255948401946001909101908401620002de565b50858210156200031e5787850151600019600388901b60f8161c191681555b5050505050600190811b01905550565b611b77806200033e6000396000f3fe608060405234801561001057600080fd5b50600436106101725760003560e01c80634ddd1c54116100de5780638da5cb5b11610097578063e985e9c511610071578063e985e9c514610417578063ec60bcf31461042a578063f242432a1461043d578063f2fde38b1461045057600080fd5b80638da5cb5b146103e0578063a22cb465146103fb578063a7112efe1461040e57600080fd5b80634ddd1c541461031f5780634e1273f41461038057806361b8ce8c14610393578063715018a61461039c5780637410d06a146103a45780637d56be3c146103cd57600080fd5b80631e96838b116101305780631e96838b14610233578063238ab97d1461024657806324582cef1461025b5780632eb2c2d61461028657806332acf78b1461029957806338b37d1c146102a157600080fd5b8062fdd58e1461017757806301ffc9a71461019d5780630e89341c146101c057806313e2e019146101e05780631cf2e698146101f35780631d73731914610213575b600080fd5b61018a6101853660046113fe565b610463565b6040519081526020015b60405180910390f35b6101b06101ab36600461143e565b61048b565b6040519015158152602001610194565b6101d36101ce366004611462565b6104db565b60405161019491906114c1565b61018a6101ee3660046114d4565b61056f565b61020661020136600461156f565b61070c565b60405161019491906115c5565b61018a61022136600461156f565b60046020526000908152604090205481565b61018a61024136600461156f565b610777565b6102596102543660046114d4565b610887565b005b6101b061026936600461156f565b6001600160a01b0316600090815260046020526040902054151590565b61025961029436600461171e565b610912565b60085461018a565b6102eb6102af366004611462565b60066020526000908152604090208054600182015460028301546003840154600490940154929391926001600160a01b03918216929091169085565b6040805195865260208601949094526001600160a01b0392831693850193909352166060830152608082015260a001610194565b61033261032d366004611462565b610971565b604051610194919081518152602080830151908201526040808301516001600160a01b0390811691830191909152606080840151909116908201526080918201519181019190915260a00190565b61020661038e3660046117c8565b610a55565b61018a60055481565b610259610b2a565b61018a6103b236600461156f565b6001600160a01b031660009081526004602052604090205490565b61018a6103db3660046113fe565b610b3e565b6003546040516001600160a01b039091168152602001610194565b610259610409366004611888565b610b6f565b61018a60085481565b6101b06104253660046118c4565b610b7e565b6102596104383660046118f7565b610bac565b61025961044b366004611933565b610bfe565b61025961045e36600461156f565b610c5d565b6000818152602081815260408083206001600160a01b03861684529091529020545b92915050565b60006001600160e01b03198216636cdb3d1360e11b14806104bc57506001600160e01b031982166303a24d0760e21b145b8061048557506301ffc9a760e01b6001600160e01b0319831614610485565b6060600280546104ea90611998565b80601f016020809104026020016040519081016040528092919081815260200182805461051690611998565b80156105635780601f1061053857610100808354040283529160200191610563565b820191906000526020600020905b81548152906001019060200180831161054657829003601f168201915b50505050509050919050565b6000610579610c9b565b6001600160a01b038516600090815260046020526040812054908190036105bb5760405162461bcd60e51b81526004016105b2906119d2565b60405180910390fd5b6105fe8782600187878080601f016020809104026020016040519081016040528093929190818152602001838380828437600092019190915250610cc892505050565b6040805160a0810182528681524260208083018281526001600160a01b038c81168587018181528d8316606088019081526008805460808a018181526000918252600689528b82209a518b5596516001808c0191909155935160028b0180546001600160a01b0319908116928916929092179055925160038b01805490941696169590951790915593516004909701969096558082526007845286822083548154978801825590835291849020909501555484518a81529182019290925290927fb5d1185f9eb3bc9f64976a0642fa385671626df86e9aecd91bcda7206b045666910160405180910390a36008805490819060006106fb83611a11565b909155509098975050505050505050565b6001600160a01b03811660009081526007602090815260409182902080548351818402810184019094528084526060939283018282801561056357602002820191906000526020600020905b8154815260200190600101908083116107585750505050509050919050565b6000610781610c9b565b6001600160a01b0382166107c05760405162461bcd60e51b81526004016105b29060208082526004908201526306c7020360e41b604082015260600190565b6001600160a01b0382166000908152600460205260409020541561080f5760405162461bcd60e51b815260206004820152600660248201526565786973747360d01b60448201526064016105b2565b6005805490600061081f83611a11565b90915550506005546001600160a01b038316600081815260046020526040908190208390555190917f140a4ef683af5330a897d5eace634a6b4a103c36c7bdccd97706a66bd85419689161087591815260200190565b60405180910390a2506005545b919050565b61088f610c9b565b6001600160a01b038416600090815260046020526040812054908190036108c85760405162461bcd60e51b81526004016105b2906119d2565b61090a86828686868080601f016020809104026020016040519081016040528093929190818152602001838380828437600092019190915250610cc892505050565b505050505050565b336001600160a01b038616811480159061093357506109318682610b7e565b155b156109645760405163711bec9160e11b81526001600160a01b038083166004830152871660248201526044016105b2565b61090a8686868686610d25565b6109b56040518060a00160405280600081526020016000815260200160006001600160a01b0316815260200160006001600160a01b03168152602001600081525090565b60085482106109f85760405162461bcd60e51b815260206004820152600f60248201526e125b9d985b1a59081190d114881251608a1b60448201526064016105b2565b50600090815260066020908152604091829020825160a0810184528154815260018201549281019290925260028101546001600160a01b039081169383019390935260038101549092166060820152600490910154608082015290565b60608151835114610a865781518351604051635b05999160e01b8152600481019290925260248201526044016105b2565b6000835167ffffffffffffffff811115610aa257610aa26115d8565b604051908082528060200260200182016040528015610acb578160200160208202803683370190505b50905060005b8451811015610b2257602080820286010151610af590602080840287010151610463565b828281518110610b0757610b07611a2a565b6020908102919091010152610b1b81611a11565b9050610ad1565b509392505050565b610b32610c9b565b610b3c6000610d8c565b565b60076020528160005260406000208181548110610b5a57600080fd5b90600052602060002001600091509150505481565b610b7a338383610dde565b5050565b6001600160a01b03918216600090815260016020908152604080832093909416825291909152205460ff1690565b610bb4610c9b565b6001600160a01b03821660009081526004602052604081205490819003610bed5760405162461bcd60e51b81526004016105b2906119d2565b610bf8848284610e74565b50505050565b336001600160a01b0386168114801590610c1f5750610c1d8682610b7e565b155b15610c505760405163711bec9160e11b81526001600160a01b038083166004830152871660248201526044016105b2565b61090a8686868686610edc565b610c65610c9b565b6001600160a01b038116610c8f57604051631e4fbdf760e01b8152600060048201526024016105b2565b610c9881610d8c565b50565b6003546001600160a01b03163314610b3c5760405163118cdaa760e01b81523360048201526024016105b2565b6001600160a01b038416610cf257604051632bfa23e760e11b8152600060048201526024016105b2565b6040805160018082526020820186905281830190815260608201859052608082019092529061090a600087848487610f6a565b6001600160a01b038416610d4f57604051632bfa23e760e11b8152600060048201526024016105b2565b6001600160a01b038516610d7857604051626a0d4560e21b8152600060048201526024016105b2565b610d858585858585610f6a565b5050505050565b600380546001600160a01b038381166001600160a01b0319831681179093556040519116919082907f8be0079c531659141344cd1fd0a4f28419497f9722a3daafe3b4186f6b6457e090600090a35050565b6001600160a01b038216610e075760405162ced3e160e81b8152600060048201526024016105b2565b6001600160a01b03838116600081815260016020908152604080832094871680845294825291829020805460ff191686151590811790915591519182527f17307eab39ab6107e8899845ad3d59bd9653f200f220920489ca2b5937696c31910160405180910390a3505050565b6001600160a01b038316610e9d57604051626a0d4560e21b8152600060048201526024016105b2565b604080516001808252602082018590528183019081526060820184905260a08201909252600060808201818152919291610d8591879185908590610f6a565b6001600160a01b038416610f0657604051632bfa23e760e11b8152600060048201526024016105b2565b6001600160a01b038516610f2f57604051626a0d4560e21b8152600060048201526024016105b2565b60408051600180825260208201869052818301908152606082018590526080820190925290610f618787848487610f6a565b50505050505050565b610f7685858585610fbd565b6001600160a01b03841615610d855782513390600103610faf5760208481015190840151610fa88389898585896111da565b505061090a565b61090a8187878787876112fe565b8051825114610fec5781518151604051635b05999160e01b8152600481019290925260248201526044016105b2565b3360005b83518110156110fb576020818102858101820151908501909101516001600160a01b038816156110a3576000828152602081815260408083206001600160a01b038c1684529091529020548181101561107c576040516303dee4c560e01b81526001600160a01b038a1660048201526024810182905260448101839052606481018490526084016105b2565b6000838152602081815260408083206001600160a01b038d16845290915290209082900390555b6001600160a01b038716156110e8576000828152602081815260408083206001600160a01b038b168452909152812080548392906110e2908490611a40565b90915550505b5050806110f490611a11565b9050610ff0565b50825160010361117c5760208301516000906020840151909150856001600160a01b0316876001600160a01b0316846001600160a01b03167fc3d58168c5ae7397731d063d5bbf3d657854427343f4c083240f7aacaa2d0f62858560405161116d929190918252602082015260400190565b60405180910390a45050610d85565b836001600160a01b0316856001600160a01b0316826001600160a01b03167f4a39dc06d4c0dbc64b70af90fd698a233a518aa5d07e595d983b8c0526c8f7fb86866040516111cb929190611a53565b60405180910390a45050505050565b6001600160a01b0384163b1561090a5760405163f23a6e6160e01b81526001600160a01b0385169063f23a6e619061121e9089908990889088908890600401611a81565b6020604051808303816000875af1925050508015611259575060408051601f3d908101601f1916820190925261125691810190611ac6565b60015b6112c2573d808015611287576040519150601f19603f3d011682016040523d82523d6000602084013e61128c565b606091505b5080516000036112ba57604051632bfa23e760e11b81526001600160a01b03861660048201526024016105b2565b805160208201fd5b6001600160e01b0319811663f23a6e6160e01b14610f6157604051632bfa23e760e11b81526001600160a01b03861660048201526024016105b2565b6001600160a01b0384163b1561090a5760405163bc197c8160e01b81526001600160a01b0385169063bc197c81906113429089908990889088908890600401611ae3565b6020604051808303816000875af192505050801561137d575060408051601f3d908101601f1916820190925261137a91810190611ac6565b60015b6113ab573d808015611287576040519150601f19603f3d011682016040523d82523d6000602084013e61128c565b6001600160e01b0319811663bc197c8160e01b14610f6157604051632bfa23e760e11b81526001600160a01b03861660048201526024016105b2565b80356001600160a01b038116811461088257600080fd5b6000806040838503121561141157600080fd5b61141a836113e7565b946020939093013593505050565b6001600160e01b031981168114610c9857600080fd5b60006020828403121561145057600080fd5b813561145b81611428565b9392505050565b60006020828403121561147457600080fd5b5035919050565b6000815180845260005b818110156114a157602081850181015186830182015201611485565b506000602082860101526020601f19601f83011685010191505092915050565b60208152600061145b602083018461147b565b6000806000806000608086880312156114ec57600080fd5b6114f5866113e7565b9450611503602087016113e7565b935060408601359250606086013567ffffffffffffffff8082111561152757600080fd5b818801915088601f83011261153b57600080fd5b81358181111561154a57600080fd5b89602082850101111561155c57600080fd5b9699959850939650602001949392505050565b60006020828403121561158157600080fd5b61145b826113e7565b600081518084526020808501945080840160005b838110156115ba5781518752958201959082019060010161159e565b509495945050505050565b60208152600061145b602083018461158a565b634e487b7160e01b600052604160045260246000fd5b604051601f8201601f1916810167ffffffffffffffff81118282101715611617576116176115d8565b604052919050565b600067ffffffffffffffff821115611639576116396115d8565b5060051b60200190565b600082601f83011261165457600080fd5b813560206116696116648361161f565b6115ee565b82815260059290921b8401810191818101908684111561168857600080fd5b8286015b848110156116a3578035835291830191830161168c565b509695505050505050565b600082601f8301126116bf57600080fd5b813567ffffffffffffffff8111156116d9576116d96115d8565b6116ec601f8201601f19166020016115ee565b81815284602083860101111561170157600080fd5b816020850160208301376000918101602001919091529392505050565b600080600080600060a0868803121561173657600080fd5b61173f866113e7565b945061174d602087016113e7565b9350604086013567ffffffffffffffff8082111561176a57600080fd5b61177689838a01611643565b9450606088013591508082111561178c57600080fd5b61179889838a01611643565b935060808801359150808211156117ae57600080fd5b506117bb888289016116ae565b9150509295509295909350565b600080604083850312156117db57600080fd5b823567ffffffffffffffff808211156117f357600080fd5b818501915085601f83011261180757600080fd5b813560206118176116648361161f565b82815260059290921b8401810191818101908984111561183657600080fd5b948201945b8386101561185b5761184c866113e7565b8252948201949082019061183b565b9650508601359250508082111561187157600080fd5b5061187e85828601611643565b9150509250929050565b6000806040838503121561189b57600080fd5b6118a4836113e7565b9150602083013580151581146118b957600080fd5b809150509250929050565b600080604083850312156118d757600080fd5b6118e0836113e7565b91506118ee602084016113e7565b90509250929050565b60008060006060848603121561190c57600080fd5b611915846113e7565b9250611923602085016113e7565b9150604084013590509250925092565b600080600080600060a0868803121561194b57600080fd5b611954866113e7565b9450611962602087016113e7565b93506040860135925060608601359150608086013567ffffffffffffffff81111561198c57600080fd5b6117bb888289016116ae565b600181811c908216806119ac57607f821691505b6020821081036119cc57634e487b7160e01b600052602260045260246000fd5b50919050565b6020808252600f908201526e0756e72656769737465726564206c7608c1b604082015260600190565b634e487b7160e01b600052601160045260246000fd5b600060018201611a2357611a236119fb565b5060010190565b634e487b7160e01b600052603260045260246000fd5b80820180821115610485576104856119fb565b604081526000611a66604083018561158a565b8281036020840152611a78818561158a565b95945050505050565b6001600160a01b03868116825285166020820152604081018490526060810183905260a060808201819052600090611abb9083018461147b565b979650505050505050565b600060208284031215611ad857600080fd5b815161145b81611428565b6001600160a01b0386811682528516602082015260a060408201819052600090611b0f9083018661158a565b8281036060840152611b21818661158a565b90508281036080840152611b35818561147b565b9897505050505050505056fea2646970667358221220b1f2b315122b29fcafba312b49f363779d7a7dc5cf3ff452cd566713868e42f864736f6c63430008140033",
  "linkReferences": {},
  "deployedLinkReferences": {}
}