{
  "_format": "hh-sol-artifact-1",
  "contractName": "ClearSkyLiquidityPoolV2",
  "sourceName": "contracts/ClearSkyLiquidityPoolV2.sol",
  "abi": [
    {
      "inputs": [
        {
          "internalType": "address",
          "name": "_owner",
          "type": "address"
        },
        {
          "internalType": "string",
          "name": "_tokenName",
          "type": "string"
        },
        {
          "internalType": "string",
          "name": "_tokenSymbol",
          "type": "string"
        }
      ],
      "stateMutability": "nonpayable",
      "type": "constructor"
    },
    {
      "inputs": [],
      "name": "EnforcedPause",
      "type": "error"
    },
    {
      "inputs": [],
      "name": "ExpectedPause",
      "type": "error"
    },
    {
      "inputs": [],
      "name": "InsufficientHBAR",
      "type": "error"
    },
    {
      "inputs": [],
      "name": "InsufficientInitialLiquidity",
      "type": "error"
    },
    {
      "inputs": [],
      "name": "InsufficientLPBalance",
      "type": "error"
    },
    {
      "inputs": [],
      "name": "InvalidAmounts",
      "type": "error"
    },
    {
      "inputs": [],
      "name": "NoLiquidityProvided",
      "type": "error"
    },
    {
      "inputs": [
        {
          "internalType": "address",
          "name": "owner",
          "type": "address"
        }
      ],
      "name": "OwnableInvalidOwner",
      "type": "error"
    },
    {
      "inputs": [
        {
          "internalType": "address",
          "name": "account",
          "type": "address"
        }
      ],
      "name": "OwnableUnauthorizedAccount",
      "type": "error"
    },
    {
      "inputs": [],
      "name": "PoolAlreadyInitialized",
      "type": "error"
    },
    {
      "inputs": [],
      "name": "PoolNotActive",
      "type": "error"
    },
    {
      "inputs": [],
      "name": "ReentrancyGuardReentrantCall",
      "type": "error"
    },
    {
      "inputs": [],
      "name": "SlippageExceeded",
      "type": "error"
    },
    {
      "inputs": [
        {
          "internalType": "int32",
          "name": "responseCode",
          "type": "int32"
        }
      ],
      "name": "TokenCreationFailed",
      "type": "error"
    },
    {
      "inputs": [],
      "name": "TokenNotCreated",
      "type": "error"
    },
    {
      "anonymous": false,
      "inputs": [
        {
          "indexed": false,
          "internalType": "bool",
          "name": "",
          "type": "bool"
        },
        {
          "indexed": false,
          "internalType": "bytes",
          "name": "",
          "type": "bytes"
        }
      ],
      "name": "CallResponseEvent",
      "type": "event"
    },
    {
      "anonymous": false,
      "inputs": [
        {
          "indexed": true,
          "internalType": "address",
          "name": "collector",
          "type": "address"
        },
        {
          "indexed": false,
          "internalType": "uint256",
          "name": "hbarAmount",
          "type": "uint256"
        },
        {
          "indexed": false,
          "internalType": "uint256",
          "name": "timestamp",
          "type": "uint256"
        }
      ],
      "name": "FeesCollected",
      "type": "event"
    },
    {
      "anonymous": false,
      "inputs": [
        {
          "indexed": true,
          "internalType": "address",
          "name": "token",
          "type": "address"
        },
        {
          "indexed": true,
          "internalType": "address",
          "name": "account",
          "type": "address"
        }
      ],
      "name": "HTSAssociateAttempt",
      "type": "event"
    },
    {
      "anonymous": false,
      "inputs": [
        {
          "indexed": true,
          "internalType": "address",
          "name": "token",
          "type": "address"
        },
        {
          "indexed": true,
          "internalType": "address",
          "name": "account",
          "type": "address"
        },
        {
          "indexed": false,
          "internalType": "string",
          "name": "reason",
          "type": "string"
        }
      ],
      "name": "HTSAssociateSkipped",
      "type": "event"
    },
    {
      "anonymous": false,
      "inputs": [
        {
          "indexed": true,
          "internalType": "address",
          "name": "token",
          "type": "address"
        },
        {
          "indexed": true,
          "internalType": "address",
          "name": "account",
          "type": "address"
        }
      ],
      "name": "HTSAssociateSuccess",
      "type": "event"
    },
    {
      "anonymous": false,
      "inputs": [
        {
          "indexed": true,
          "internalType": "address",
          "name": "token",
          "type": "address"
        },
        {
          "indexed": false,
          "internalType": "int64",
          "name": "amount",
          "type": "int64"
        },
        {
          "indexed": false,
          "internalType": "int64[]",
          "name": "serialNumbers",
          "type": "int64[]"
        }
      ],
      "name": "HTSBurnAttempt",
      "type": "event"
    },
    {
      "anonymous": false,
      "inputs": [
        {
          "indexed": true,
          "internalType": "address",
          "name": "token",
          "type": "address"
        },
        {
          "indexed": false,
          "internalType": "int64",
          "name": "amount",
          "type": "int64"
        },
        {
          "indexed": false,
          "internalType": "int32",
          "name": "responseCode",
          "type": "int32"
        }
      ],
      "name": "HTSBurnFailed",
      "type": "event"
    },
    {
      "anonymous": false,
      "inputs": [
        {
          "indexed": true,
          "internalType": "address",
          "name": "token",
          "type": "address"
        },
        {
          "indexed": false,
          "internalType": "int64",
          "name": "amount",
          "type": "int64"
        },
        {
          "indexed": false,
          "internalType": "int64",
          "name": "newTotalSupply",
          "type": "int64"
        }
      ],
      "name": "HTSBurnSuccess",
      "type": "event"
    },
    {
      "anonymous": false,
      "inputs": [
        {
          "indexed": true,
          "internalType": "address",
          "name": "token",
          "type": "address"
        },
        {
          "indexed": true,
          "internalType": "address",
          "name": "to",
          "type": "address"
        },
        {
          "indexed": false,
          "internalType": "int64",
          "name": "amount",
          "type": "int64"
        }
      ],
      "name": "HTSMintAttempt",
      "type": "event"
    },
    {
      "anonymous": false,
      "inputs": [
        {
          "indexed": true,
          "internalType": "address",
          "name": "token",
          "type": "address"
        },
        {
          "indexed": true,
          "internalType": "address",
          "name": "to",
          "type": "address"
        },
        {
          "indexed": false,
          "internalType": "int64",
          "name": "amount",
          "type": "int64"
        },
        {
          "indexed": false,
          "internalType": "int32",
          "name": "responseCode",
          "type": "int32"
        }
      ],
      "name": "HTSMintFailed",
      "type": "event"
    },
    {
      "anonymous": false,
      "inputs": [
        {
          "indexed": true,
          "internalType": "address",
          "name": "token",
          "type": "address"
        },
        {
          "indexed": true,
          "internalType": "address",
          "name": "to",
          "type": "address"
        },
        {
          "indexed": false,
          "internalType": "int64",
          "name": "amount",
          "type": "int64"
        },
        {
          "indexed": false,
          "internalType": "int64",
          "name": "newTotalSupply",
          "type": "int64"
        }
      ],
      "name": "HTSMintSuccess",
      "type": "event"
    },
    {
      "anonymous": false,
      "inputs": [
        {
          "indexed": true,
          "internalType": "address",
          "name": "token",
          "type": "address"
        },
        {
          "indexed": true,
          "internalType": "address",
          "name": "from",
          "type": "address"
        },
        {
          "indexed": true,
          "internalType": "address",
          "name": "to",
          "type": "address"
        },
        {
          "indexed": false,
          "internalType": "int64",
          "name": "amount",
          "type": "int64"
        }
      ],
      "name": "HTSTransferAttempt",
      "type": "event"
    },
    {
      "anonymous": false,
      "inputs": [
        {
          "indexed": true,
          "internalType": "address",
          "name": "token",
          "type": "address"
        },
        {
          "indexed": true,
          "internalType": "address",
          "name": "from",
          "type": "address"
        },
        {
          "indexed": true,
          "internalType": "address",
          "name": "to",
          "type": "address"
        },
        {
          "indexed": false,
          "internalType": "int64",
          "name": "amount",
          "type": "int64"
        },
        {
          "indexed": false,
          "internalType": "int32",
          "name": "responseCode",
          "type": "int32"
        }
      ],
      "name": "HTSTransferFailed",
      "type": "event"
    },
    {
      "anonymous": false,
      "inputs": [
        {
          "indexed": true,
          "internalType": "address",
          "name": "token",
          "type": "address"
        },
        {
          "indexed": true,
          "internalType": "address",
          "name": "from",
          "type": "address"
        },
        {
          "indexed": true,
          "internalType": "address",
          "name": "to",
          "type": "address"
        },
        {
          "indexed": false,
          "internalType": "int64",
          "name": "amount",
          "type": "int64"
        }
      ],
      "name": "HTSTransferSuccess",
      "type": "event"
    },
    {
      "anonymous": false,
      "inputs": [
        {
          "indexed": true,
          "internalType": "address",
          "name": "user",
          "type": "address"
        },
        {
          "indexed": false,
          "internalType": "uint256",
          "name": "hbarAmount",
          "type": "uint256"
        },
        {
          "indexed": false,
          "internalType": "uint256",
          "name": "lpTokensMinted",
          "type": "uint256"
        },
        {
          "indexed": false,
          "internalType": "uint256",
          "name": "timestamp",
          "type": "uint256"
        }
      ],
      "name": "LiquidityAdded",
      "type": "event"
    },
    {
      "anonymous": false,
      "inputs": [
        {
          "indexed": true,
          "internalType": "address",
          "name": "user",
          "type": "address"
        },
        {
          "indexed": false,
          "internalType": "uint256",
          "name": "hbarAmount",
          "type": "uint256"
        },
        {
          "indexed": false,
          "internalType": "uint256",
          "name": "lpTokensBurned",
          "type": "uint256"
        },
        {
          "indexed": false,
          "internalType": "uint256",
          "name": "timestamp",
          "type": "uint256"
        }
      ],
      "name": "LiquidityRemoved",
      "type": "event"
    },
    {
      "anonymous": false,
      "inputs": [
        {
          "indexed": true,
          "internalType": "address",
          "name": "previousOwner",
          "type": "address"
        },
        {
          "indexed": true,
          "internalType": "address",
          "name": "newOwner",
          "type": "address"
        }
      ],
      "name": "OwnershipTransferred",
      "type": "event"
    },
    {
      "anonymous": false,
      "inputs": [
        {
          "indexed": false,
          "internalType": "address",
          "name": "account",
          "type": "address"
        }
      ],
      "name": "Paused",
      "type": "event"
    },
    {
      "anonymous": false,
      "inputs": [
        {
          "indexed": true,
          "internalType": "address",
          "name": "tokenAddress",
          "type": "address"
        },
        {
          "indexed": false,
          "internalType": "string",
          "name": "name",
          "type": "string"
        },
        {
          "indexed": false,
          "internalType": "string",
          "name": "symbol",
          "type": "string"
        },
        {
          "indexed": false,
          "internalType": "uint8",
          "name": "decimals",
          "type": "uint8"
        },
        {
          "indexed": false,
          "internalType": "address",
          "name": "treasury",
          "type": "address"
        }
      ],
      "name": "TokenCreated",
      "type": "event"
    },
    {
      "anonymous": false,
      "inputs": [
        {
          "indexed": false,
          "internalType": "address",
          "name": "account",
          "type": "address"
        }
      ],
      "name": "Unpaused",
      "type": "event"
    },
    {
      "stateMutability": "payable",
      "type": "fallback"
    },
    {
      "inputs": [],
      "name": "FEE_BPS",
      "outputs": [
        {
          "internalType": "uint256",
          "name": "",
          "type": "uint256"
        }
      ],
      "stateMutability": "view",
      "type": "function"
    },
    {
      "inputs": [],
      "name": "FEE_DENOMINATOR",
      "outputs": [
        {
          "internalType": "uint256",
          "name": "",
          "type": "uint256"
        }
      ],
      "stateMutability": "view",
      "type": "function"
    },
    {
      "inputs": [],
      "name": "MIN_LIQUIDITY",
      "outputs": [
        {
          "internalType": "uint256",
          "name": "",
          "type": "uint256"
        }
      ],
      "stateMutability": "view",
      "type": "function"
    },
    {
      "inputs": [
        {
          "internalType": "uint256",
          "name": "minLPTokens",
          "type": "uint256"
        }
      ],
      "name": "addLiquidity",
      "outputs": [],
      "stateMutability": "payable",
      "type": "function"
    },
    {
      "inputs": [
        {
          "internalType": "uint256",
          "name": "lpTokenAmount",
          "type": "uint256"
        }
      ],
      "name": "calculateHBAR",
      "outputs": [
        {
          "internalType": "uint256",
          "name": "hbarAmount",
          "type": "uint256"
        }
      ],
      "stateMutability": "view",
      "type": "function"
    },
    {
      "inputs": [
        {
          "internalType": "uint256",
          "name": "hbarAmount",
          "type": "uint256"
        }
      ],
      "name": "calculateLPTokens",
      "outputs": [
        {
          "internalType": "uint256",
          "name": "lpTokens",
          "type": "uint256"
        }
      ],
      "stateMutability": "view",
      "type": "function"
    },
    {
      "inputs": [],
      "name": "emergencyWithdraw",
      "outputs": [],
      "stateMutability": "nonpayable",
      "type": "function"
    },
    {
      "inputs": [],
      "name": "getPoolInfo",
      "outputs": [
        {
          "internalType": "uint256",
          "name": "_totalHBAR",
          "type": "uint256"
        },
        {
          "internalType": "uint256",
          "name": "_totalLPTokens",
          "type": "uint256"
        },
        {
          "internalType": "uint256",
          "name": "_totalValue",
          "type": "uint256"
        }
      ],
      "stateMutability": "view",
      "type": "function"
    },
    {
      "inputs": [],
      "name": "getTokenInfo",
      "outputs": [
        {
          "components": [
            {
              "internalType": "string",
              "name": "name",
              "type": "string"
            },
            {
              "internalType": "string",
              "name": "symbol",
              "type": "string"
            },
            {
              "internalType": "uint8",
              "name": "decimals",
              "type": "uint8"
            },
            {
              "internalType": "address",
              "name": "tokenAddress",
              "type": "address"
            },
            {
              "internalType": "bool",
              "name": "created",
              "type": "bool"
            }
          ],
          "internalType": "struct ClearSkyLiquidityPoolV2.TokenInfo",
          "name": "",
          "type": "tuple"
        }
      ],
      "stateMutability": "view",
      "type": "function"
    },
    {
      "inputs": [
        {
          "internalType": "address",
          "name": "user",
          "type": "address"
        }
      ],
      "name": "getUserShare",
      "outputs": [
        {
          "internalType": "uint256",
          "name": "userLPBalance",
          "type": "uint256"
        },
        {
          "internalType": "uint256",
          "name": "userHBARValue",
          "type": "uint256"
        },
        {
          "internalType": "uint256",
          "name": "sharePercentage",
          "type": "uint256"
        }
      ],
      "stateMutability": "view",
      "type": "function"
    },
    {
      "inputs": [
        {
          "internalType": "address",
          "name": "user",
          "type": "address"
        }
      ],
      "name": "getUserValue",
      "outputs": [
        {
          "internalType": "uint256",
          "name": "userValue",
          "type": "uint256"
        }
      ],
      "stateMutability": "view",
      "type": "function"
    },
    {
      "inputs": [],
      "name": "getValuePerLPToken",
      "outputs": [
        {
          "internalType": "uint256",
          "name": "valuePerToken",
          "type": "uint256"
        }
      ],
      "stateMutability": "view",
      "type": "function"
    },
    {
      "inputs": [],
      "name": "initializePool",
      "outputs": [],
      "stateMutability": "payable",
      "type": "function"
    },
    {
      "inputs": [],
      "name": "lpToken",
      "outputs": [
        {
          "internalType": "address",
          "name": "",
          "type": "address"
        }
      ],
      "stateMutability": "view",
      "type": "function"
    },
    {
      "inputs": [],
      "name": "owner",
      "outputs": [
        {
          "internalType": "address",
          "name": "",
          "type": "address"
        }
      ],
      "stateMutability": "view",
      "type": "function"
    },
    {
      "inputs": [],
      "name": "pause",
      "outputs": [],
      "stateMutability": "nonpayable",
      "type": "function"
    },
    {
      "inputs": [],
      "name": "paused",
      "outputs": [
        {
          "internalType": "bool",
          "name": "",
          "type": "bool"
        }
      ],
      "stateMutability": "view",
      "type": "function"
    },
    {
      "inputs": [
        {
          "internalType": "address",
          "name": "token",
          "type": "address"
        },
        {
          "internalType": "bytes",
          "name": "encodedFunctionSelector",
          "type": "bytes"
        }
      ],
      "name": "redirectForToken",
      "outputs": [
        {
          "internalType": "int256",
          "name": "responseCode",
          "type": "int256"
        },
        {
          "internalType": "bytes",
          "name": "response",
          "type": "bytes"
        }
      ],
      "stateMutability": "nonpayable",
      "type": "function"
    },
    {
      "inputs": [
        {
          "internalType": "uint256",
          "name": "lpTokenAmount",
          "type": "uint256"
        },
        {
          "internalType": "uint256",
          "name": "minHBAR",
          "type": "uint256"
        }
      ],
      "name": "removeLiquidity",
      "outputs": [],
      "stateMutability": "nonpayable",
      "type": "function"
    },
    {
      "inputs": [],
      "name": "renounceOwnership",
      "outputs": [],
      "stateMutability": "nonpayable",
      "type": "function"
    },
    {
      "inputs": [],
      "name": "tokenInfo",
      "outputs": [
        {
          "internalType": "string",
          "name": "name",
          "type": "string"
        },
        {
          "internalType": "string",
          "name": "symbol",
          "type": "string"
        },
        {
          "internalType": "uint8",
          "name": "decimals",
          "type": "uint8"
        },
        {
          "internalType": "address",
          "name": "tokenAddress",
          "type": "address"
        },
        {
          "internalType": "bool",
          "name": "created",
          "type": "bool"
        }
      ],
      "stateMutability": "view",
      "type": "function"
    },
    {
      "inputs": [],
      "name": "totalHBAR",
      "outputs": [
        {
          "internalType": "uint256",
          "name": "",
          "type": "uint256"
        }
      ],
      "stateMutability": "view",
      "type": "function"
    },
    {
      "inputs": [],
      "name": "totalLPTokens",
      "outputs": [
        {
          "internalType": "uint256",
          "name": "",
          "type": "uint256"
        }
      ],
      "stateMutability": "view",
      "type": "function"
    },
    {
      "inputs": [],
      "name": "totalValue",
      "outputs": [
        {
          "internalType": "uint256",
          "name": "",
          "type": "uint256"
        }
      ],
      "stateMutability": "view",
      "type": "function"
    },
    {
      "inputs": [
        {
          "internalType": "address",
          "name": "token",
          "type": "address"
        },
        {
          "internalType": "address",
          "name": "from",
          "type": "address"
        },
        {
          "internalType": "address",
          "name": "to",
          "type": "address"
        },
        {
          "internalType": "uint256",
          "name": "amount",
          "type": "uint256"
        }
      ],
      "name": "transferFrom",
      "outputs": [
        {
          "internalType": "int64",
          "name": "responseCode",
          "type": "int64"
        }
      ],
      "stateMutability": "nonpayable",
      "type": "function"
    },
    {
      "inputs": [
        {
          "internalType": "address",
          "name": "token",
          "type": "address"
        },
        {
          "internalType": "address",
          "name": "from",
          "type": "address"
        },
        {
          "internalType": "address",
          "name": "to",
          "type": "address"
        },
        {
          "internalType": "uint256",
          "name": "serialNumber",
          "type": "uint256"
        }
      ],
      "name": "transferFromNFT",
      "outputs": [
        {
          "internalType": "int64",
          "name": "responseCode",
          "type": "int64"
        }
      ],
      "stateMutability": "nonpayable",
      "type": "function"
    },
    {
      "inputs": [
        {
          "internalType": "address",
          "name": "newOwner",
          "type": "address"
        }
      ],
      "name": "transferOwnership",
      "outputs": [],
      "stateMutability": "nonpayable",
      "type": "function"
    },
    {
      "inputs": [],
      "name": "unpause",
      "outputs": [],
      "stateMutability": "nonpayable",
      "type": "function"
    },
    {
      "stateMutability": "payable",
      "type": "receive"
    }
  ],
  "bytecode": "0x608080604052346200081c57620028d38038038091620000208285620009de565b83398101906060818303126200081c5780516001600160a01b03811691908290036200081c5760208101516001600160401b0381116200081c57836200006891830162000a43565b60408201519093906001600160401b0381116200081c576200008b920162000a43565b9080156200098d57600080546001600160a01b03198116831782556001600160a01b0316907f8be0079c531659141344cd1fd0a4f28419497f9722a3daafe3b4186f6b6457e09080a360018055815115620009485780511562000903576040519161012083016001600160401b03811184821017620007095760405260608352606060208401526000604084015260608084015260006080840152600060a0840152600060c0840152606060e084015260405180606081011060018060401b0360608301111762000709576060810160405260008152600060208201526000604082015261010084015280835281602084015230604084015260405180604081011060018060401b036040830111176200070957604081016040526001815260005b60208110620008e9575060e084015262000239620001ca62000a90565b60048152604051620001dc81620009c2565b60008152604051620001ee81620009c2565b60008152604051916200020183620009a6565b600083523060208401526040830152606082015260006080820152602082015260e085015190620002328262000ae6565b5262000ae6565b50610100830151805160070b1580620008d9575b620008c9575b50604051630fb65bf360e01b602082015260606024820152620002ce620002a46200028d865161016060848601526101e485019062000b0a565b60208701518482036083190160a486015262000b0a565b60408601516001600160a01b031660c484015260608601518382036083190160e485015262000b0a565b936080810151151561010483015260a081015160070b61012483015260c0810151151561014483015260e08101519060831983870301610164840152815180875260208701906020808260051b8a01019401916000905b828210620008365788886000808a62000386818c60406101008e0151805160070b61018485015260018060a01b036020820151166101a4850152015160070b6101c48301528460448301526006606483015203601f198101835282620009de565b602081519101826101675af1913d156200082d573d92620003a78462000a02565b93620003b76040519586620009de565b84523d6000602086013e5b1562000821576040838051810103126200081c576020830151928360030b84036200081c57604001516001600160a01b03811693908490036200081c5760030b5b60030b6016810362000804575060028054610100600160a81b031916600885901b610100600160a81b03161790556040516200043f81620009a6565b82815260208101829052600660408201526001600160a01b03841660608201526001608082015282516001600160401b0381116200070957600654600181811c91168015620007f9575b6020821014620006e857601f8111620007a4575b50806020601f82116001146200072b576000916200071f575b508160011b916000199060031b1c1916176006555b60208101518051906001600160401b0382116200070957600754600181811c91168015620006fe575b6020821014620006e857601f81116200067e575b50602090601f8311600114620005f2579282620005ba93620005ab9693600080516020620028938339815191529896600092620005e6575b50508160011b916000199060031b1c1916176007555b60ff6040820151169060085491610100600160a81b03606083015160081b1691608060ff60a81b910151151560a81b169260018060b01b03191617171760085560405193849360808552608085019062000b0a565b90838203602085015262000b0a565b600660408301523060608301526001600160a01b03909416930390a2604051611d61908162000b328239f35b01519050898062000540565b90600760005260206000209160005b601f198516811062000665575083620005ab969360008051602062002893833981519152989693600193620005ba97601f198116106200064b575b505050811b0160075562000556565b015160001960f88460031b161c191690558980806200063c565b9192602060018192868501518155019401920162000601565b60076000527fa66cc928b5edb82af9bd49922954155ab7b0942694bea4ce44661d9a8736c688601f840160051c81019160208510620006dd575b601f0160051c01905b818110620006d0575062000508565b60008155600101620006c1565b9091508190620006b8565b634e487b7160e01b600052602260045260246000fd5b90607f1690620004f4565b634e487b7160e01b600052604160045260246000fd5b905084015186620004b6565b600660009081529250600080516020620028b3833981519152905b601f19831684106200078b576001935082601f1981161062000771575b5050811b01600655620004cb565b86015160001960f88460031b161c19169055868062000763565b8681015182556020938401936001909201910162000746565b6006600052600080516020620028b3833981519152601f830160051c810160208410620007f1575b601f830160051c82018110620007e45750506200049d565b60008155600101620007cc565b5080620007cc565b90607f169062000489565b60249060405190631dd454b160e01b82526004820152fd5b600080fd5b60009250601562000403565b606092620003c2565b90919294602080600192601f198d820301855281895180518352015190604083820152815115156040820152848060a01b038383015116606082015260c0620008aa62000893604085015160a0608086015260e085019062000b0a565b6060850151848203603f190160a086015262000b0a565b926080878060a01b039101511691015297019201920190929162000325565b60406276a7009101523862000253565b50604081015160070b156200024d565b602090620008f662000a90565b82828501015201620001ad565b60405162461bcd60e51b815260206004820152601560248201527f546f6b656e2073796d626f6c20726571756972656400000000000000000000006044820152606490fd5b60405162461bcd60e51b815260206004820152601360248201527f546f6b656e206e616d65207265717569726564000000000000000000000000006044820152606490fd5b604051631e4fbdf760e01b815260006004820152602490fd5b60a081019081106001600160401b038211176200070957604052565b602081019081106001600160401b038211176200070957604052565b601f909101601f19168101906001600160401b038211908210176200070957604052565b6001600160401b0381116200070957601f01601f191660200190565b60005b83811062000a325750506000910152565b818101518382015260200162000a21565b81601f820112156200081c57805162000a5c8162000a02565b9262000a6c6040519485620009de565b818452602082840101116200081c5762000a8d916020808501910162000a1e565b90565b60408051919082016001600160401b038111838210176200070957604052816000815260206040519162000ac483620009a6565b6000835260008284015260606040840152606080840152600060808401520152565b80511562000af45760200190565b634e487b7160e01b600052603260045260246000fd5b9060209162000b258151809281855285808601910162000a1e565b601f01601f191601019056fe608060409080825260049081361015610053575b503615610051576020606492519162461bcd60e51b83528201526012602482015271119d5b98dd1a5bdb881b9bdd08199bdd5b9960721b6044820152fd5b005b600090813560e01c90816315dacbea146115925750806321b77d6314611574578063250e6de01461135157806328999437146113325780632fb9125d1461131557806334111bbf146112f45780633f4ba83a1461129c57806342c649de1461127b57806351c6590a14610caf5780635c975abb14610c8b5780635fcbd28514610c5e57806360246c8814610c2d578063618dc65e14610ae45780636addb66314610a67578063715018a614610a0d5780638456cb59146109b25780638da5cb5b1461098a5780639b23d3d9146108e25780639d7de6b3146104e9578063a78c849b146104bb578063abb1dc44146103db578063bbbaee4c14610393578063bf333f2c14610377578063d4c3eea014610358578063d73792a914610337578063db2e21bc1461023a578063ef6283d91461021b5763f2fde38b0361001357919034610217576020366003190112610217576101ab6115eb565b906101b46118b2565b6001600160a01b0391821692831561020157505082546001600160a01b0319811683178455167f8be0079c531659141344cd1fd0a4f28419497f9722a3daafe3b4186f6b6457e08380a380f35b51631e4fbdf760e01b8152908101849052602490fd5b8280fd5b5091903461021757826003193601126102175760209250549051908152f35b5091346102175782600319360112610217576102546118b2565b61025c611b65565b479182156102ff5760018060a01b03908480808087868254165af161027f611a39565b50156102bc5750907f2e4fb6077d4acf86e12bb7411fb82b2b3eaa6a49787f4b1e17b423e7ea84116991845416928151908152426020820152a280f35b606490602084519162461bcd60e51b8352820152601b60248201527f456d657267656e6379207769746864726177616c206661696c656400000000006044820152fd5b6020606492519162461bcd60e51b835282015260136024820152724e6f204842415220746f20776974686472617760681b6044820152fd5b508234610354578160031936011261035457602090516127108152f35b5080fd5b5082346103545781600319360112610354576020906005549051908152f35b50823461035457816003193601126103545760209051601e8152f35b508234610354576020366003190112610354576103d7906103b26115eb565b506103bb611aac565b9251918252602082015260408101919091529081906060820190565b0390f35b50823461035457816003193601126103545761048d91608082516103fe81611647565b60608152606060208201528284820152826060820152015280519061042282611647565b61042a611713565b82526104346117fe565b9060208301918252600854908084019260ff8316845260ff6104a0606087019260018060a01b0394858760081c1685528360808a019760a81c16151587528051998a9960208b525160a060208c015260c08b01906116d3565b915190601f198a840301908a01526116d3565b94511660608601525116608084015251151560a08301520390f35b508234610354576020366003190112610354576020906104d96115eb565b506104e2611b28565b9051908152f35b5091903461021757816003193601126102175780359161050761195c565b61050f61193e565b61052060ff60085460a81c166118de565b82156108a657815491821561086d57600354926105468161054186886119e2565b61191e565b9361055560243586101561197f565b47851161082a576105739161056b8688936119f5565b6003556119f5565b8155610581836005546119f5565b60055567ffffffffffffffff841660070b825161059d81611679565b868152868060018060a01b03926106286106368560025460081c1692837fb310aaac57f9a89f4e3661e38cb8df5ea9428b82d1bb2b8ab6a77c3f52818f026105f58c80519182918d8352806020840152820186611a02565b0390a289519283916020830195636b48868360e11b87526024840152896044840152606060648401526084830190611a02565b03601f198101835282611695565b5190826101675af190610647611a39565b911561082057848280518101031261081c576106708561066960208501611b84565b9301611b92565b915b60030b601681036107635750907f7b2f31b2ffda9d7a1ac640400c8f7eb1c8d0071689111f45797448a14697587c9160025460081c16926106ca865192839283909291602090604083019460070b835260070b910152565b0390a28480808086335af16106dd611a39565b501561072a575051908152602081019190915242604082015233907f1dc8bb69df2b8e91fbdcbfcf93d951b3f0000f085a95fe3f7946d6161439245d9080606081015b0390a26001805580f35b6020606492519162461bcd60e51b8352820152601460248201527312109054881d1c985b9cd9995c8819985a5b195960621b6044820152fd5b907fcccb9ca916a4b1199913d752d315547b23a41451ab4c699f6bae82cecf211b1e92506107b2876107a960649a6107a160209a999b6003546119bf565b508a546119bf565b506005546119bf565b5060025460081c16926107dc855192839283909291602090604083019460070b835260030b910152565b0390a25162461bcd60e51b815291820152601860248201527f48545320746f6b656e206275726e696e67206661696c656400000000000000006044820152fd5b8780fd5b8791506015610672565b835162461bcd60e51b8152602081850152601960248201527f496e73756666696369656e74204842415220696e20706f6f6c000000000000006044820152606490fd5b6020606492519162461bcd60e51b83528201526014602482015273139bc81b1a5c5d5a591a5d1e481a5b881c1bdbdb60621b6044820152fd5b906020606492519162461bcd60e51b83528201526016602482015275139bc81314081d1bdad95b9cc81cdc1958da599a595960521b6044820152fd5b50823461035457818061093d6106286108fa36611606565b8851639b23d3d960e01b602082019081526001600160a01b03958616602483015293851660448201529390911660648401526084830152929091829060a4820190565b5190826101675af19161094e611a39565b921561097d5760208380518101031261097a575061096f6020809301611b84565b905b519060030b8152f35b80fd5b5060209150601590610971565b508234610354578160031936011261035457905490516001600160a01b039091168152602090f35b50823461035457816003193601126103545760207f62e78cea01bee320cd4e420270b5ea74000d11b0c9f74754ebdbfc544b05a258916109f06118b2565b6109f861193e565b600160ff19600254161760025551338152a180f35b503461097a578060031936011261097a57610a266118b2565b80546001600160a01b03198116825581906001600160a01b03167f8be0079c531659141344cd1fd0a4f28419497f9722a3daafe3b4186f6b6457e08280a380f35b508234610354578160031936011261035457610aaa90610a85611713565b9060ff610a906117fe565b610ab860085491845196879660a0885260a08801906116d3565b9086820360208801526116d3565b81831693850193909352600881901c6001600160a01b0316606085015260a81c16151560808301520390f35b509034610354578260031936011261035457610afe6115eb565b906024359067ffffffffffffffff8211610c295736602383011215610c2957810135610b29816116b7565b91610b3686519384611695565b8183523660248383010111610c2557610b968594929385602086829760246106289701838601378301015287516330c6e32f60e11b602082019081526001600160a01b0390951660248201526044810189905292839160648301906116d3565b5190826101675af190610ba7611a39565b917f4af4780e06fe8cb9df64b0794fa6f01399af979175bb988e35e0e57e594567bc8451821515815285602082015280610be3878201876116d3565b0390a115610c0b57506103d76016915b835193849360030b84528060208501528301906116d3565b82519150610c1882611679565b81526103d7601591610bf3565b8480fd5b8380fd5b503461097a578060031936011261097a57506003549054600554925191825260208201526040810191909152606090f35b508234610354578160031936011261035457600254905160089190911c6001600160a01b03168152602090f35b50823461035457816003193601126103545760209060ff6002541690519015158152f35b506020833660031901821361021757610cc661195c565b610cce61193e565b600891610ce160ff845460a81c166118de565b84541561124257341561120d57610cf734611a69565b92610d05863585101561197f565b610d11346003546119bf565b600355610d20346005546119bf565b60055567ffffffffffffffff80851660070b9160018060a01b03906002610d86838254841c168851878152817fb7555d949a897acb395f95e3f2df8b700519404826bb13cd6526b756f6a1c9078a3393a386895191610d7e83611679565b8c8352611ba0565b5094906016810361117257508154885190841c85169133837e76f2144a259bc469a1890872ec3851efddbfeb0a9150fed87b7ba8650b1d0c8e80a38882019163248a35ef60e11b835260249333858301526044820152604481526080810181811083821117611060578d9182918d52516101679482865af1610e06611a39565b901561116a5789818051810103126111665789610e239101611b84565b60030b601681036110745750338c7ffdda3a3d0687144c9bd8edbb3cc99da0c2a20b000492b79076f963d71f3339c2888754891c169180a35b858454861c16908a518981523390837fd9cd850143c0756b15b46ebdc8b4ed7701b66aaed30858ee17a225eb005cca2e8d3093a48a51908a82019263eca3691760e01b8452858301523060448301523360648301528960848301526084825260c082019082821090821117611060578b52518c9283929083905af1610edf611a39565b90156110585787818051810103126110545787610efc9101611b84565b60030b60168103610fc457505089610f38897f64b83944e79c3ce8d4c297411de637c3e102d064677aac0c163976ebdcd6f50e9a9b9c546119bf565b9055548651600786810b82529490940b6020850152901c1690339082907fad91542866f4da9ebed5a2b1713258f4bf970f84e7b2a0b8aab2de28d11ffffd90604090a383519182527f67325b2f3de1d8273fc1aeeaf3b161488fc28427430d9f6b341831dedfc2d63333933093a451348152602081019290925242604083015233918060608101610720565b888891886064978f9760199754901c167fcc975f63304dfdaa80a8ecbfbfc654fd86ea8a7cdb68086a0d883f26ad08e4c18451806110183396309683909291602090604083019460070b835260030b910152565b0390a45162461bcd60e51b8152938401528201527f48545320746f6b656e207472616e73666572206661696c6564000000000000006044820152fd5b8a80fd5b506015610efc565b5050634e487b7160e01b8c5260418d52828cfd5b60c281036110d45750858454861c168a51908a825260128b83015271105b1c9958591e48185cdcdbd8da585d195960721b8c8301527f393657bca6819244b5099fc39434a68f9839dbda30aaaf13dc6bab90313d9b2d60603393a3610e5c565b8d6018858c8e8d6064967f03f5e21a75677e84382c9f010b9f5780b534bb2a966c378fa090d12ba52caa0861112a8f8f8f54901c16928551918291339683909291602090604083019460070b835260030b910152565b0390a35162461bcd60e51b8152938401528201527f546f6b656e206173736f63696174696f6e206661696c656400000000000000006044820152fd5b8c80fd5b506015610e23565b82548951600789900b815260039290920b6020830152611209918d918b913391881c8916907f03f5e21a75677e84382c9f010b9f5780b534bb2a966c378fa090d12ba52caa089080604081015b0390a35191829162461bcd60e51b8352820160609060208152601860208201527f48545320746f6b656e206d696e74696e67206661696c6564000000000000000060408201520190565b0390fd5b8490606492519162461bcd60e51b8352820152601060248201526f139bc812109054881c1c9bdd9a59195960821b6044820152fd5b8490606492519162461bcd60e51b83528201526014602482015273141bdbdb081b9bdd081a5b9a5d1a585b1a5e995960621b6044820152fd5b5082903461097a57602036600319011261097a57506104e260209235611a69565b50823461035457816003193601126103545760207f5db9ee0a495bf2e6ff9c91a7834c1ba4fdd244a5e8aa4e537bd38aeae4b073aa916112da6118b2565b6112e2611b65565b60ff196002541660025551338152a180f35b5082903461097a57602036600319011261097a57506104e260209235611a93565b5082346103545781600319360112610354576020906104e2611b0a565b5082346103545781600319360112610354576020906003549051908152f35b508281600319360112610354576113666118b2565b61136e61195c565b61137661193e565b61138760ff60085460a81c166118de565b825461153257620186a034106114f0573460035534600555606434049067ffffffffffffffff821660070b60018060a01b03946114068660025460081c168451848152817fb7555d949a897acb395f95e3f2df8b700519404826bb13cd6526b756f6a1c90760203393a3838551916113fe83611679565b888352611ba0565b5091906016810361149b57508490556002548351600793840b81529190920b6020820152939492937f64b83944e79c3ce8d4c297411de637c3e102d064677aac0c163976ebdcd6f50e93339260081c16907fad91542866f4da9ebed5a2b1713258f4bf970f84e7b2a0b8aab2de28d11ffffd90604090a351348152602081019290925242604083015233918060608101610720565b6002548551600786900b815260039290920b602083015261120992918691339160089190911c8b16907f03f5e21a75677e84382c9f010b9f5780b534bb2a966c378fa090d12ba52caa089080604081016111bf565b5162461bcd60e51b8152602081840152601e60248201527f496e73756666696369656e7420696e697469616c206c697175696469747900006044820152606490fd5b5162461bcd60e51b8152602081840152601860248201527f506f6f6c20616c726561647920696e697469616c697a656400000000000000006044820152606490fd5b50823461035457816003193601126103545760209051620186a08152f35b8483809234610354576106288161093d84936115ad36611606565b630aed65f560e11b602086019081526001600160a01b03948516602487015292841660448601529216606484015260848301919091529360a4820190565b600435906001600160a01b038216820361160157565b600080fd5b6080906003190112611601576001600160a01b0360043581811681036116015791602435828116810361160157916044359081168103611601579060643590565b60a0810190811067ffffffffffffffff82111761166357604052565b634e487b7160e01b600052604160045260246000fd5b6020810190811067ffffffffffffffff82111761166357604052565b90601f8019910116810190811067ffffffffffffffff82111761166357604052565b67ffffffffffffffff811161166357601f01601f191660200190565b919082519283825260005b8481106116ff575050826000602080949584010152601f8019910116010190565b6020818301810151848301820152016116de565b60405190600060065490600182811c908084169384156117f4575b60209485841081146117e057838852879493929181156117c05750600114611761575b505061175f92500383611695565b565b9093915060066000527ff652222313e28459528d920b65115c16c04f3efc82aaedc97be59f3f377c0d3f936000915b8183106117a857505061175f93508201013880611751565b85548884018501529485019487945091830191611790565b91505061175f94925060ff191682840152151560051b8201013880611751565b634e487b7160e01b85526022600452602485fd5b91607f169161172e565b60405190600060075490600182811c908084169384156118a8575b60209485841081146117e057838852879493929181156117c0575060011461184957505061175f92500383611695565b9093915060076000527fa66cc928b5edb82af9bd49922954155ab7b0942694bea4ce44661d9a8736c688936000915b81831061189057505061175f93508201013880611751565b85548884018501529485019487945091830191611878565b91607f1691611819565b6000546001600160a01b031633036118c657565b60405163118cdaa760e01b8152336004820152602490fd5b156118e557565b60405162461bcd60e51b8152602060048201526011602482015270151bdad95b881b9bdd0818dc99585d1959607a1b6044820152606490fd5b8115611928570490565b634e487b7160e01b600052601260045260246000fd5b60ff6002541661194a57565b60405163d93c066560e01b8152600490fd5b60026001541461196d576002600155565b604051633ee5aeb560e01b8152600490fd5b1561198657565b60405162461bcd60e51b815260206004820152601160248201527014db1a5c1c1859d948195e18d959591959607a1b6044820152606490fd5b919082018092116119cc57565b634e487b7160e01b600052601160045260246000fd5b818102929181159184041417156119cc57565b919082039182116119cc57565b90815180825260208080930193019160005b828110611a22575050505090565b835160070b85529381019392810192600101611a14565b3d15611a64573d90611a4a826116b7565b91611a586040519384611695565b82523d6000602084013e565b606090565b600454908115611a8c57611a8991611a80916119e2565b6003549061191e565b90565b5050600090565b6004548015611a8c57610541611a8992600354906119e2565b60ff60085460a81c1615611aff576004546000918115611af457611ad682610541600354866119e2565b91612710908185029185830414851517156119cc57611a899161191e565b600092508291508190565b600090600090600090565b6004548015611b2257611a899060646005540461191e565b50600090565b60ff60085460a81c16158015611b5b575b611b565760055415600117156119cc576004541561192857600090565b600090565b5060045415611b39565b60ff6002541615611b7257565b604051638dfc202b60e01b8152600490fd5b51908160030b820361160157565b51908160070b820361160157565b906040928351906020938483019363707a02cd60e11b8552608484019160018060a01b0316602485015260070b604484015260606064840152815180915260a48301908560a48260051b8601019301916000905b87838310611d025750505050509181611c1a60009493859403601f198101835282611695565b5190826101675af190611c2b611a39565b9160009015611ce25750815182019060608382840193031261160157611c52818401611b84565b91611c5e858501611b92565b94606085015167ffffffffffffffff9586821161160157019082603f830112156116015783820151958611611663578560051b91815196611ca186850189611695565b875281858801938201019384116116015701905b828210611ccb575050505091905b909160030b92565b838091611cd784611b92565b815201910190611cb5565b929150505190611cf182611679565b808252368137601590600090611cc3565b80611d1d6001939495969760a3198a820301865288516116d3565b960192019201909291611bf456fea2646970667358221220b93f11fc65fc254ba98ef512a44cf00cbd68dd43fb20535f573bcaef5887a73b64736f6c634300081400338fb1ffd0ab3f6379154037519ff749b01e1fa060a331f5394175f393c3db596bf652222313e28459528d920b65115c16c04f3efc82aaedc97be59f3f377c0d3f",
  "linkReferences": {},
  "deployedLinkReferences": {}
}