{
  "_format": "hh-sol-artifact-1",
  "contractName": "OffsetZap",
  "sourceName": "contracts/OffsetZap.sol",
  "abi": [
    {
      "inputs": [],
      "stateMutability": "nonpayable",
      "type": "constructor"
    },
    {
      "anonymous": false,
      "inputs": [
        {
          "indexed": true,
          "internalType": "address",
          "name": "user",
          "type": "address"
        },
        {
          "indexed": false,
          "internalType": "uint256",
          "name": "amount",
          "type": "uint256"
        }
      ],
      "name": "Offset",
      "type": "event"
    },
    {
      "inputs": [],
      "name": "getBalance",
      "outputs": [
        {
          "internalType": "uint256",
          "name": "",
          "type": "uint256"
        }
      ],
      "stateMutability": "view",
      "type": "function"
    },
    {
      "inputs": [],
      "name": "owner",
      "outputs": [
        {
          "internalType": "address",
          "name": "",
          "type": "address"
        }
      ],
      "stateMutability": "view",
      "type": "function"
    },
    {
      "inputs": [],
      "name": "totalOffsets",
      "outputs": [
        {
          "internalType": "uint256",
          "name": "",
          "type": "uint256"
        }
      ],
      "stateMutability": "view",
      "type": "function"
    },
    {
      "inputs": [],
      "name": "withdraw",
      "outputs": [],
      "stateMutability": "nonpayable",
      "type": "function"
    },
    {
      "stateMutability": "payable",
      "type": "receive"
    }
  ],
  "bytecode": "0x608060405234801561001057600080fd5b50336000806101000a81548173ffffffffffffffffffffffffffffffffffffffff021916908373ffffffffffffffffffffffffffffffffffffffff1602179055506104cc806100606000396000f3fe6080604052600436106100435760003560e01c806312065fe0146100f95780633ccfd60b146101245780638da5cb5b1461013b578063e8eb685f14610166576100f4565b366100f4576000341161008b576040517f08c379a000000000000000000000000000000000000000000000000000000000815260040161008290610317565b60405180910390fd5b346001600082825461009d9190610370565b925050819055503373ffffffffffffffffffffffffffffffffffffffff167f34ea76956884cf5a870184e95247be7a9ce55b0fd84ac7a88665a0bdad0085f1346040516100ea91906103b3565b60405180910390a2005b600080fd5b34801561010557600080fd5b5061010e610191565b60405161011b91906103b3565b60405180910390f35b34801561013057600080fd5b50610139610199565b005b34801561014757600080fd5b50610150610290565b60405161015d919061040f565b60405180910390f35b34801561017257600080fd5b5061017b6102b4565b60405161018891906103b3565b60405180910390f35b600047905090565b60008054906101000a900473ffffffffffffffffffffffffffffffffffffffff1673ffffffffffffffffffffffffffffffffffffffff163373ffffffffffffffffffffffffffffffffffffffff1614610227576040517f08c379a000000000000000000000000000000000000000000000000000000000815260040161021e90610476565b60405180910390fd5b60008054906101000a900473ffffffffffffffffffffffffffffffffffffffff1673ffffffffffffffffffffffffffffffffffffffff166108fc479081150290604051600060405180830381858888f1935050505015801561028d573d6000803e3d6000fd5b50565b60008054906101000a900473ffffffffffffffffffffffffffffffffffffffff1681565b60015481565b600082825260208201905092915050565b7f4e6f204554482073656e74000000000000000000000000000000000000000000600082015250565b6000610301600b836102ba565b915061030c826102cb565b602082019050919050565b60006020820190508181036000830152610330816102f4565b9050919050565b6000819050919050565b7f4e487b7100000000000000000000000000000000000000000000000000000000600052601160045260246000fd5b600061037b82610337565b915061038683610337565b925082820190508082111561039e5761039d610341565b5b92915050565b6103ad81610337565b82525050565b60006020820190506103c860008301846103a4565b92915050565b600073ffffffffffffffffffffffffffffffffffffffff82169050919050565b60006103f9826103ce565b9050919050565b610409816103ee565b82525050565b60006020820190506104246000830184610400565b92915050565b7f4f6e6c79206f776e657200000000000000000000000000000000000000000000600082015250565b6000610460600a836102ba565b915061046b8261042a565b602082019050919050565b6000602082019050818103600083015261048f81610453565b905091905056fea2646970667358221220719688bf597df0a57b28248fdecd483bbf64289fb99b7fa7a18e4c70b6d9b0fb64736f6c63430008140033",
  "linkReferences": {},
  "deployedLinkReferences": {}
}