{
  "_format": "hh-sol-artifact-1",
  "contractName": "ClearSkyFactory",
  "sourceName": "contracts/ClearSkyFactory.sol",
  "abi": [
    {
      "inputs": [],
      "stateMutability": "nonpayable",
      "type": "constructor"
    },
    {
      "anonymous": false,
      "inputs": [
        {
          "indexed": false,
          "internalType": "bool",
          "name": "",
          "type": "bool"
        },
        {
          "indexed": false,
          "internalType": "bytes",
          "name": "",
          "type": "bytes"
        }
      ],
      "name": "CallResponseEvent",
      "type": "event"
    },
    {
      "anonymous": false,
      "inputs": [
        {
          "indexed": true,
          "internalType": "address",
          "name": "poolAddress",
          "type": "address"
        },
        {
          "indexed": true,
          "internalType": "address",
          "name": "cslpToken",
          "type": "address"
        },
        {
          "indexed": false,
          "internalType": "uint256",
          "name": "hbarAmount",
          "type": "uint256"
        },
        {
          "indexed": false,
          "internalType": "uint256",
          "name": "cslpTokensMinted",
          "type": "uint256"
        }
      ],
      "name": "MaturationDepositCompleted",
      "type": "event"
    },
    {
      "anonymous": false,
      "inputs": [
        {
          "indexed": true,
          "internalType": "address",
          "name": "previousOwner",
          "type": "address"
        },
        {
          "indexed": true,
          "internalType": "address",
          "name": "newOwner",
          "type": "address"
        }
      ],
      "name": "OwnershipTransferred",
      "type": "event"
    },
    {
      "anonymous": false,
      "inputs": [
        {
          "indexed": true,
          "internalType": "address",
          "name": "user",
          "type": "address"
        },
        {
          "indexed": true,
          "internalType": "address",
          "name": "poolAddress",
          "type": "address"
        },
        {
          "indexed": true,
          "internalType": "address",
          "name": "cslpToken",
          "type": "address"
        },
        {
          "indexed": false,
          "internalType": "uint256",
          "name": "poolIndex",
          "type": "uint256"
        }
      ],
      "name": "PoolCreated",
      "type": "event"
    },
    {
      "inputs": [
        {
          "internalType": "uint256",
          "name": "",
          "type": "uint256"
        }
      ],
      "name": "allPools",
      "outputs": [
        {
          "internalType": "address",
          "name": "",
          "type": "address"
        }
      ],
      "stateMutability": "view",
      "type": "function"
    },
    {
      "inputs": [
        {
          "internalType": "address",
          "name": "poolAddress",
          "type": "address"
        },
        {
          "internalType": "uint256",
          "name": "amount",
          "type": "uint256"
        }
      ],
      "name": "burnCSLP",
      "outputs": [],
      "stateMutability": "nonpayable",
      "type": "function"
    },
    {
      "inputs": [
        {
          "internalType": "address",
          "name": "from",
          "type": "address"
        },
        {
          "internalType": "address",
          "name": "poolAddress",
          "type": "address"
        },
        {
          "internalType": "uint256",
          "name": "amount",
          "type": "uint256"
        }
      ],
      "name": "burnFCDR",
      "outputs": [],
      "stateMutability": "nonpayable",
      "type": "function"
    },
    {
      "inputs": [
        {
          "internalType": "address",
          "name": "newPoolAddress",
          "type": "address"
        },
        {
          "internalType": "address",
          "name": "prevPoolAddress",
          "type": "address"
        },
        {
          "internalType": "uint256",
          "name": "hbarAmount",
          "type": "uint256"
        }
      ],
      "name": "completeMaturationDeposit",
      "outputs": [],
      "stateMutability": "nonpayable",
      "type": "function"
    },
    {
      "inputs": [
        {
          "internalType": "address",
          "name": "user",
          "type": "address"
        },
        {
          "internalType": "address",
          "name": "cslpToken",
          "type": "address"
        }
      ],
      "name": "createMaturationPool",
      "outputs": [
        {
          "internalType": "address",
          "name": "",
          "type": "address"
        }
      ],
      "stateMutability": "nonpayable",
      "type": "function"
    },
    {
      "inputs": [
        {
          "internalType": "address",
          "name": "user",
          "type": "address"
        },
        {
          "internalType": "address",
          "name": "cslpToken",
          "type": "address"
        }
      ],
      "name": "createUserPool",
      "outputs": [
        {
          "internalType": "address",
          "name": "",
          "type": "address"
        }
      ],
      "stateMutability": "nonpayable",
      "type": "function"
    },
    {
      "inputs": [],
      "name": "fcdr1155Contract",
      "outputs": [
        {
          "internalType": "address",
          "name": "",
          "type": "address"
        }
      ],
      "stateMutability": "view",
      "type": "function"
    },
    {
      "inputs": [],
      "name": "getAllPools",
      "outputs": [
        {
          "internalType": "address[]",
          "name": "",
          "type": "address[]"
        }
      ],
      "stateMutability": "view",
      "type": "function"
    },
    {
      "inputs": [
        {
          "internalType": "address",
          "name": "user",
          "type": "address"
        }
      ],
      "name": "getUserPool",
      "outputs": [
        {
          "internalType": "address",
          "name": "",
          "type": "address"
        }
      ],
      "stateMutability": "view",
      "type": "function"
    },
    {
      "inputs": [
        {
          "internalType": "address",
          "name": "user",
          "type": "address"
        }
      ],
      "name": "hasPool",
      "outputs": [
        {
          "internalType": "bool",
          "name": "",
          "type": "bool"
        }
      ],
      "stateMutability": "view",
      "type": "function"
    },
    {
      "inputs": [
        {
          "internalType": "address",
          "name": "",
          "type": "address"
        }
      ],
      "name": "isPool",
      "outputs": [
        {
          "internalType": "bool",
          "name": "",
          "type": "bool"
        }
      ],
      "stateMutability": "view",
      "type": "function"
    },
    {
      "inputs": [
        {
          "internalType": "address",
          "name": "poolAddress",
          "type": "address"
        },
        {
          "internalType": "address",
          "name": "user",
          "type": "address"
        },
        {
          "internalType": "uint256",
          "name": "amount",
          "type": "uint256"
        }
      ],
      "name": "mintCSLP",
      "outputs": [],
      "stateMutability": "nonpayable",
      "type": "function"
    },
    {
      "inputs": [
        {
          "internalType": "address",
          "name": "poolAddress",
          "type": "address"
        },
        {
          "internalType": "address",
          "name": "fcdrOwner",
          "type": "address"
        },
        {
          "internalType": "uint256",
          "name": "hbarAmount",
          "type": "uint256"
        }
      ],
      "name": "mintFCDR",
      "outputs": [],
      "stateMutability": "nonpayable",
      "type": "function"
    },
    {
      "inputs": [],
      "name": "orderbookAddress",
      "outputs": [
        {
          "internalType": "address",
          "name": "",
          "type": "address"
        }
      ],
      "stateMutability": "view",
      "type": "function"
    },
    {
      "inputs": [],
      "name": "owner",
      "outputs": [
        {
          "internalType": "address",
          "name": "",
          "type": "address"
        }
      ],
      "stateMutability": "view",
      "type": "function"
    },
    {
      "inputs": [
        {
          "internalType": "address",
          "name": "",
          "type": "address"
        }
      ],
      "name": "poolCSLPTokens",
      "outputs": [
        {
          "internalType": "address",
          "name": "",
          "type": "address"
        }
      ],
      "stateMutability": "view",
      "type": "function"
    },
    {
      "inputs": [
        {
          "internalType": "address",
          "name": "token",
          "type": "address"
        },
        {
          "internalType": "bytes",
          "name": "encodedFunctionSelector",
          "type": "bytes"
        }
      ],
      "name": "redirectForToken",
      "outputs": [
        {
          "internalType": "int256",
          "name": "responseCode",
          "type": "int256"
        },
        {
          "internalType": "bytes",
          "name": "response",
          "type": "bytes"
        }
      ],
      "stateMutability": "nonpayable",
      "type": "function"
    },
    {
      "inputs": [
        {
          "internalType": "address",
          "name": "_fcdr1155Contract",
          "type": "address"
        }
      ],
      "name": "setFCDR1155Contract",
      "outputs": [],
      "stateMutability": "nonpayable",
      "type": "function"
    },
    {
      "inputs": [
        {
          "internalType": "address",
          "name": "_orderbookAddress",
          "type": "address"
        }
      ],
      "name": "setOrderbookAddress",
      "outputs": [],
      "stateMutability": "nonpayable",
      "type": "function"
    },
    {
      "inputs": [
        {
          "internalType": "address",
          "name": "poolAddress",
          "type": "address"
        },
        {
          "internalType": "string",
          "name": "newUrl",
          "type": "string"
        }
      ],
      "name": "setPoolRetirementUrl",
      "outputs": [],
      "stateMutability": "nonpayable",
      "type": "function"
    },
    {
      "inputs": [
        {
          "internalType": "address",
          "name": "poolAddress",
          "type": "address"
        },
        {
          "internalType": "address",
          "name": "user",
          "type": "address"
        },
        {
          "internalType": "uint256",
          "name": "amount",
          "type": "uint256"
        }
      ],
      "name": "transferCSLPToUser",
      "outputs": [],
      "stateMutability": "nonpayable",
      "type": "function"
    },
    {
      "inputs": [
        {
          "internalType": "address",
          "name": "token",
          "type": "address"
        },
        {
          "internalType": "address",
          "name": "from",
          "type": "address"
        },
        {
          "internalType": "address",
          "name": "to",
          "type": "address"
        },
        {
          "internalType": "uint256",
          "name": "amount",
          "type": "uint256"
        }
      ],
      "name": "transferFrom",
      "outputs": [
        {
          "internalType": "int64",
          "name": "responseCode",
          "type": "int64"
        }
      ],
      "stateMutability": "nonpayable",
      "type": "function"
    },
    {
      "inputs": [
        {
          "internalType": "address",
          "name": "token",
          "type": "address"
        },
        {
          "internalType": "address",
          "name": "from",
          "type": "address"
        },
        {
          "internalType": "address",
          "name": "to",
          "type": "address"
        },
        {
          "internalType": "uint256",
          "name": "serialNumber",
          "type": "uint256"
        }
      ],
      "name": "transferFromNFT",
      "outputs": [
        {
          "internalType": "int64",
          "name": "responseCode",
          "type": "int64"
        }
      ],
      "stateMutability": "nonpayable",
      "type": "function"
    },
    {
      "inputs": [
        {
          "internalType": "address",
          "name": "poolAddress",
          "type": "address"
        },
        {
          "internalType": "address",
          "name": "newUser",
          "type": "address"
        }
      ],
      "name": "updatePoolUser",
      "outputs": [],
      "stateMutability": "nonpayable",
      "type": "function"
    },
    {
      "inputs": [
        {
          "internalType": "address",
          "name": "",
          "type": "address"
        }
      ],
      "name": "userPools",
      "outputs": [
        {
          "internalType": "address",
          "name": "",
          "type": "address"
        }
      ],
      "stateMutability": "view",
      "type": "function"
    }
  ],
  "bytecode": "0x6080604052600080546001600160a01b031916905534801561002057600080fd5b50600160208181527fa6eef7e35abe7026729641147f7915573c7e97b47efa546f5f6e3230263bcb499190915560027fcc69885fda6bcc1a4ace058b4a62bf5e179ea78fd58a1ccd71c22cc9b688792f5560047fd9d16d34ffb15ba3a3d852f0d403e2ce1d691fb54de27ac87cd2f993f3ec330f5560087f7dfe757ecd65cbd7922a9c0161e935dd7fdbcc0e999689c7d31633896b1fc60b81905560107fedc95719e9a3b28dd8e80877cb5880a9be7de1a13fc8b05e7999683b6b567643557fe2689cd4a84e23ad2f564004f1c9013e9589d260bde6380aba3ca7e09e4df40c919091556006600090815260407f8f331abe73332f95a25873e8b430885974c0409691f89d643119a11623a7924a8190558254336001600160a01b03199182168117909455600580549091169055517f8be0079c531659141344cd1fd0a4f28419497f9722a3daafe3b4186f6b6457e0908290a3615a72806101836000396000f3fe60806040523480156200001157600080fd5b5060043610620001925760003560e01c80635b16ebb711620000f0578063ad28893011620000a3578063d514cf73116200007a578063d514cf73146200041b578063d88ff1f41462000432578063ed4bbdf4146200044b578063f1f658d6146200047757600080fd5b8063ad28893014620003d6578063b21feca214620003ed578063ceb58555146200040457600080fd5b80635b16ebb71462000330578063618dc65e14620003565780638da5cb5b146200037d57806394937a48146200039157806395f40f9514620003a85780639b23d3d914620003bf57600080fd5b806333049e0e116200014957806333049e0e146200029757806341d1de9714620002c35780634327f82614620002da5780634ab3f5a414620002f15780634e826aee14620003085780635839f07f146200031c57600080fd5b8063074e2e391462000197578063107a480214620001b05780631246dbf514620001fc57806315dacbea146200023e578063168c864014620002695780631916258d1462000280575b600080fd5b620001ae620001a8366004620018c4565b6200048e565b005b620001df620001c136600462001905565b6001600160a01b039081166000908152600260205260409020541690565b6040516001600160a01b0390911681526020015b60405180910390f35b6200022d6200020d36600462001905565b6001600160a01b0390811660009081526002602052604090205416151590565b6040519015158152602001620001f3565b620002556200024f3660046200192a565b62000599565b60405160079190910b8152602001620001f3565b620001ae6200027a3660046200197c565b62000695565b620001ae6200029136600462001905565b62000750565b620001df620002a836600462001905565b6002602052600090815260409020546001600160a01b031681565b620001df620002d4366004620019a9565b62000801565b620001ae620002eb366004620018c4565b6200082c565b620001ae62000302366004620018c4565b620009b3565b600654620001df906001600160a01b031681565b600554620001df906001600160a01b031681565b6200022d6200034136600462001905565b60046020526000908152604090205460ff1681565b6200036d6200036736600462001a0d565b62000d27565b604051620001f392919062001b12565b600854620001df906001600160a01b031681565b620001ae620003a236600462001905565b62000e4f565b620001ae620003b9366004620018c4565b62000f01565b62000255620003d03660046200192a565b62001023565b620001df620003e736600462001b35565b62001069565b620001df620003fe36600462001b35565b620012b6565b620001ae6200041536600462001b6d565b62001339565b620001ae6200042c36600462001b35565b620013ee565b6200043c62001512565b604051620001f3919062001bf7565b620001df6200045c36600462001905565b6007602052600090815260409020546001600160a01b031681565b620001ae62000488366004620018c4565b62001576565b6008546001600160a01b0316331480620004b757503360009081526004602052604090205460ff165b620004df5760405162461bcd60e51b8152600401620004d69062001c46565b60405180910390fd5b6005546001600160a01b0316620005235760405162461bcd60e51b81526020600482015260076024820152662727afa321a22960c91b6044820152606401620004d6565b60055460405163ec60bcf360e01b81526001600160a01b0385811660048301528481166024830152604482018490529091169063ec60bcf3906064015b600060405180830381600087803b1580156200057b57600080fd5b505af115801562000590573d6000803e3d6000fd5b50505050505050565b6040516001600160a01b038581166024830152848116604483015283166064820152608481018290526000908190819061016790630aed65f560e11b9060a4015b60408051601f198184030181529181526020820180516001600160e01b03166001600160e01b03199094169390931790925290516200061a919062001c64565b6000604051808303816000865af19150503d806000811462000659576040519150601f19603f3d011682016040523d82523d6000602084013e6200065e565b606091505b5091509150816200067157601562000687565b8080602001905181019062000687919062001c95565b60030b979650505050505050565b6008546001600160a01b0316331480620006be57503360009081526004602052604090205460ff165b620006dd5760405162461bcd60e51b8152600401620004d69062001c46565b6001600160a01b038083166000908152600760205260409020541680620007185760405162461bcd60e51b8152600401620004d69062001cb3565b6040805160008082526020820190925283916200073784848462001655565b509050601681146200074857600080fd5b505050505050565b6008546001600160a01b031633146200077d5760405162461bcd60e51b8152600401620004d69062001cd4565b6001600160a01b038116620007df5760405162461bcd60e51b815260206004820152602160248201527f496e76616c696420464344523131353520636f6e7472616374206164647265736044820152607360f81b6064820152608401620004d6565b600580546001600160a01b0319166001600160a01b0392909216919091179055565b600381815481106200081257600080fd5b6000918252602090912001546001600160a01b0316905081565b6008546001600160a01b03163314806200085557503360009081526004602052604090205460ff165b620008745760405162461bcd60e51b8152600401620004d69062001c46565b6001600160a01b038084166000908152600760205260409020541680620008af5760405162461bcd60e51b8152600401620004d69062001cb3565b816000620008f68383835b604051908082528060200260200182016040528015620008ef57816020015b6060815260200190600190039081620008d95790505b5062001748565b509091505060168114620009395760405162461bcd60e51b81526020600482015260096024820152681352539517d190525360ba1b6044820152606401620004d6565b6008546001600160a01b0386811691161462000748576008546000906200096d9085906001600160a01b0316888662001850565b905060168114620005905760405162461bcd60e51b815260206004820152600f60248201526e151c985b9cd9995c8819985a5b1959608a1b6044820152606401620004d6565b6008546001600160a01b03163314620009e05760405162461bcd60e51b8152600401620004d69062001cd4565b6001600160a01b03831662000a225760405162461bcd60e51b81526020600482015260076024820152664241445f4e455760c81b6044820152606401620004d6565b6001600160a01b03821662000a655760405162461bcd60e51b81526020600482015260086024820152672120a22fa82922ab60c11b6044820152606401620004d6565b6000811162000aa35760405162461bcd60e51b8152602060048201526009602482015268484241525f5a45524f60b81b6044820152606401620004d6565b6001600160a01b03808416600090815260076020526040902054168062000ade5760405162461bcd60e51b8152600401620004d69062001cb3565b620f424080600062000af2848383620008ba565b50909150506016811462000b355760405162461bcd60e51b81526020600482015260096024820152681352539517d190525360ba1b6044820152606401620004d6565b60085460009062000b539086906001600160a01b03168a8662001850565b90506016811462000b995760405162461bcd60e51b815260206004820152600f60248201526e151c985b9cd9995c8819985a5b1959608a1b6044820152606401620004d6565b6040516345861b7d60e11b8152600481018790526001600160a01b03891690638b0c36fa90602401600060405180830381600087803b15801562000bdc57600080fd5b505af115801562000bf1573d6000803e3d6000fd5b506001925060009150606e905062000c0c6127108462001d07565b62000c18919062001d21565b604051630f2d65fb60e41b8152600481018290529091506001600160a01b038b169063f2d65fb090602401600060405180830381600087803b15801562000c5e57600080fd5b505af115801562000c73573d6000803e3d6000fd5b5050604051633318b63160e21b8152600481018990526001600160a01b038d16925063cc62d8c49150602401600060405180830381600087803b15801562000cba57600080fd5b505af115801562000ccf573d6000803e3d6000fd5b5050604080518b8152602081018a90526001600160a01b03808c1694508e1692507fcfcfd05776fd40794ffc040f445799ecd818f2b4462ecb5d0b8bf6d2328383eb910160405180910390a350505050505050505050565b600060606000806101676001600160a01b031663618dc65e60e01b878760405160240162000d5792919062001d44565b60408051601f198184030181529181526020820180516001600160e01b03166001600160e01b031990941693909317909252905162000d97919062001c64565b6000604051808303816000865af19150503d806000811462000dd6576040519150601f19603f3d011682016040523d82523d6000602084013e62000ddb565b606091505b50915091507f4af4780e06fe8cb9df64b0794fa6f01399af979175bb988e35e0e57e594567bc828260405162000e1392919062001d6a565b60405180910390a18162000e395760156040518060200160405280600081525062000e3d565b6016815b60039190910b97909650945050505050565b6008546001600160a01b0316331462000e7c5760405162461bcd60e51b8152600401620004d69062001cd4565b6001600160a01b03811662000edf5760405162461bcd60e51b815260206004820152602260248201527f496e76616c6964204f72646572626f6f6b20636f6e7472616374206164647265604482015261737360f01b6064820152608401620004d6565b600680546001600160a01b0319166001600160a01b0392909216919091179055565b6008546001600160a01b031633148062000f2a57503360009081526004602052604090205460ff165b62000f495760405162461bcd60e51b8152600401620004d69062001c46565b6005546001600160a01b031662000f8d5760405162461bcd60e51b81526020600482015260076024820152662727afa321a22960c91b6044820152606401620004d6565b6005546040516313e2e01960e01b81526001600160a01b0384811660048301528581166024830152604482018490526080606483015260006084830152909116906313e2e0199060a4016020604051808303816000875af115801562000ff7573d6000803e3d6000fd5b505050506040513d601f19601f820116820180604052508101906200101d919062001d87565b50505050565b6040516001600160a01b038581166024830152848116604483015283166064820152608481018290526000908190819061016790639b23d3d960e01b9060a401620005da565b60006001600160a01b038316620010945760405162461bcd60e51b8152600401620004d69062001da1565b6001600160a01b038216620010bd5760405162461bcd60e51b8152600401620004d69062001cb3565b6005546008546040516000923092879287926001600160a01b03908116921690620010e89062001899565b6001600160a01b0395861681529385166020850152918416604084015283166060830152909116608082015260a001604051809103906000f08015801562001134573d6000803e3d6000fd5b506001600160a01b03818116600090815260076020526040902080546001600160a01b03191686831617905560055491925082911615620011e457600554604051631e96838b60e01b81526001600160a01b03838116600483015290911690631e96838b906024016020604051808303816000875af1158015620011bc573d6000803e3d6000fd5b505050506040513d601f19601f82011682018060405250810190620011e2919062001d87565b505b6001600160a01b03808616600081815260026020908152604080832080548688166001600160a01b0319918216811790925560038054600181810183557fc2575a0e9e593c00f959f8c92f12db2869c3395a3b0502d05e2516446f71f85b90910180549093168417909255828652600490945291909320805460ff1916821790559054938816939192917febbbe9dc3a19d2f959ac76ac0372b4983cdfb945f5d6aef4873c36fabb2ba8aa916200129b9162001dc3565b60405190815260200160405180910390a49150505b92915050565b60006001600160a01b038316620012e15760405162461bcd60e51b8152600401620004d69062001da1565b6001600160a01b038381166000908152600260205260409020541615620010945760405162461bcd60e51b815260206004820152600b60248201526a504f4f4c5f45584953545360a81b6044820152606401620004d6565b6008546001600160a01b03163314620013665760405162461bcd60e51b8152600401620004d69062001cd4565b6001600160a01b03831660009081526004602052604090205460ff16620013bb5760405162461bcd60e51b81526020600482015260086024820152671393d517d413d3d360c21b6044820152606401620004d6565b60405160016213e09360e31b031981526001600160a01b0384169063ff60fb689062000560908590859060040162001dd9565b6006546001600160a01b031633146200143b5760405162461bcd60e51b815260206004820152600e60248201526d4f4e4c595f4f52444552424f4f4b60901b6044820152606401620004d6565b6001600160a01b03821660009081526004602052604090205460ff16620014905760405162461bcd60e51b81526020600482015260086024820152671393d517d413d3d360c21b6044820152606401620004d6565b6001600160a01b038116620014b95760405162461bcd60e51b8152600401620004d69062001da1565b604051632f27f78b60e21b81526001600160a01b03828116600483015283169063bc9fde2c90602401600060405180830381600087803b158015620014fd57600080fd5b505af115801562000748573d6000803e3d6000fd5b606060038054806020026020016040519081016040528092919081815260200182805480156200156c57602002820191906000526020600020905b81546001600160a01b031681526001909101906020018083116200154d575b5050505050905090565b6001600160a01b038316620015b95760405162461bcd60e51b815260206004820152600860248201526710905117d413d3d360c21b6044820152606401620004d6565b6001600160a01b038216620015e25760405162461bcd60e51b8152600401620004d69062001da1565b600081116200161f5760405162461bcd60e51b8152602060048201526008602482015267414d545f5a45524f60c01b6044820152606401620004d6565b60405163c257309960e01b81526001600160a01b0383811660048301526024820183905284169063c25730999060440162000560565b6000806000806101676001600160a01b031663d6910d0660e01b888888604051602401620016869392919062001e08565b60408051601f198184030181529181526020820180516001600160e01b03166001600160e01b0319909416939093179092529051620016c6919062001c64565b6000604051808303816000865af19150503d806000811462001705576040519150601f19603f3d011682016040523d82523d6000602084013e6200170a565b606091505b5091509150816200171f576015600062001735565b8080602001905181019062001735919062001e81565b60039190910b9890975095505050505050565b60008060606000806101676001600160a01b031663e0f4059a60e01b8989896040516024016200177b9392919062001eb0565b60408051601f198184030181529181526020820180516001600160e01b03166001600160e01b0319909416939093179092529051620017bb919062001c64565b6000604051808303816000865af19150503d8060008114620017fa576040519150601f19603f3d011682016040523d82523d6000602084013e620017ff565b606091505b509150915081620018245760408051600080825260208201909252601591906200183a565b808060200190518101906200183a919062001f30565b60039290920b9a90995090975095505050505050565b6040516001600160a01b038581166024830152848116604483015283166064820152600782900b6084820152600090819081906101679063eca3691760e01b9060a401620005da565b613a2b806200201283390190565b80356001600160a01b0381168114620018bf57600080fd5b919050565b600080600060608486031215620018da57600080fd5b620018e584620018a7565b9250620018f560208501620018a7565b9150604084013590509250925092565b6000602082840312156200191857600080fd5b6200192382620018a7565b9392505050565b600080600080608085870312156200194157600080fd5b6200194c85620018a7565b93506200195c60208601620018a7565b92506200196c60408601620018a7565b9396929550929360600135925050565b600080604083850312156200199057600080fd5b6200199b83620018a7565b946020939093013593505050565b600060208284031215620019bc57600080fd5b5035919050565b634e487b7160e01b600052604160045260246000fd5b604051601f8201601f1916810167ffffffffffffffff8111828210171562001a055762001a05620019c3565b604052919050565b6000806040838503121562001a2157600080fd5b62001a2c83620018a7565b915060208084013567ffffffffffffffff8082111562001a4b57600080fd5b818601915086601f83011262001a6057600080fd5b81358181111562001a755762001a75620019c3565b62001a89601f8201601f19168501620019d9565b9150808252878482850101111562001aa057600080fd5b80848401858401376000848284010152508093505050509250929050565b60005b8381101562001adb57818101518382015260200162001ac1565b50506000910152565b6000815180845262001afe81602086016020860162001abe565b601f01601f19169290920160200192915050565b82815260406020820152600062001b2d604083018462001ae4565b949350505050565b6000806040838503121562001b4957600080fd5b62001b5483620018a7565b915062001b6460208401620018a7565b90509250929050565b60008060006040848603121562001b8357600080fd5b62001b8e84620018a7565b9250602084013567ffffffffffffffff8082111562001bac57600080fd5b818601915086601f83011262001bc157600080fd5b81358181111562001bd157600080fd5b87602082850101111562001be457600080fd5b6020830194508093505050509250925092565b6020808252825182820181905260009190848201906040850190845b8181101562001c3a5783516001600160a01b03168352928401929184019160010162001c13565b50909695505050505050565b602080825260049082015263082aaa8960e31b604082015260600190565b6000825162001c7881846020870162001abe565b9190910192915050565b8051600381900b8114620018bf57600080fd5b60006020828403121562001ca857600080fd5b620019238262001c82565b60208082526007908201526604e4f5f43534c560cc1b604082015260600190565b60208082526003908201526227aba760e91b604082015260600190565b634e487b7160e01b600052601160045260246000fd5b8082028115828204841417620012b057620012b062001cf1565b60008262001d3f57634e487b7160e01b600052601260045260246000fd5b500490565b6001600160a01b038316815260406020820181905260009062001b2d9083018462001ae4565b821515815260406020820152600062001b2d604083018462001ae4565b60006020828403121562001d9a57600080fd5b5051919050565b6020808252600890820152672120a22faaa9a2a960c11b604082015260600190565b81810381811115620012b057620012b062001cf1565b60208152816020820152818360408301376000818301604090810191909152601f909201601f19160101919050565b60006060820160018060a01b03861683526020600786810b8286015260606040860152828651808552608087019150838801945060005b8181101562001e5f578551840b8352948401949184019160010162001e3f565b50909998505050505050505050565b8051600781900b8114620018bf57600080fd5b6000806040838503121562001e9557600080fd5b62001ea08362001c82565b915062001b646020840162001e6e565b60006060820160018060a01b038616835260208560070b818501526060604085015281855180845260808601915060808160051b870101935082870160005b8281101562001f2157607f1988870301845262001f0e86835162001ae4565b9550928401929084019060010162001eef565b50939998505050505050505050565b60008060006060848603121562001f4657600080fd5b62001f518462001c82565b9250602062001f6281860162001e6e565b9250604085015167ffffffffffffffff8082111562001f8057600080fd5b818701915087601f83011262001f9557600080fd5b81518181111562001faa5762001faa620019c3565b8060051b915062001fbd848301620019d9565b818152918301840191848101908a84111562001fd857600080fd5b938501935b83851015620020015762001ff18562001e6e565b8252938501939085019062001fdd565b809650505050505050925092509256fe60e060405260028054610100600160a81b03191690553480156200002257600080fd5b5060405162003a2b38038062003a2b833981016040819052620000459162000384565b806001600160a01b0381166200007657604051631e4fbdf760e01b8152600060048201526024015b60405180910390fd5b620000818162000317565b506001808055600360209081527f3617319a054d772f909f7c479a2cebe5066e836a939412e32403c99029b92eff9190915560027fa15bc60c955c405d20d9149c709e2460f1c2d9a497496a7f46004d1772c3054c5560047fc3a24b0501bd2c13a7e57f2db4369ec4c223447539fc0724a9d55ac4a06ebd4d5560087fcbc4e5fb02c3d1de23a9f1e014b4d2ee5aeaea9505df5e855c9210bf472495af5560107f83ec6a1f0257b830b5e016457c9cf1435391bf56cc98f369a58a54fe93772465557f405aad32e1adbac89bb7f176e338b8fc6e994ca210c9bb7bdca249b46594225055600660005260407fc69056f16cbaa3c616b828e333ab7d3a32310765507f8f58359e99ebb7a885f3556001600160a01b038516620001d45760405162461bcd60e51b815260206004820152600b60248201526a4241445f464143544f525960a81b60448201526064016200006d565b6001600160a01b038416620002175760405162461bcd60e51b81526020600482015260086024820152672120a22faaa9a2a960c11b60448201526064016200006d565b6001600160a01b0383166200025a5760405162461bcd60e51b815260206004820152600860248201526704241445f43534c560c41b60448201526064016200006d565b6001600160a01b0382166200029d5760405162461bcd60e51b81526020600482015260086024820152672120a22fa321a22960c11b60448201526064016200006d565b6001600160a01b038116620002e15760405162461bcd60e51b81526020600482015260096024820152682120a22fa7aba722a960b91b60448201526064016200006d565b506001600160a01b03938416608052600480546001600160a01b03191693851693909317909255821660a0521660c052620003f4565b600080546001600160a01b038381166001600160a01b0319831681178455604051919092169283917f8be0079c531659141344cd1fd0a4f28419497f9722a3daafe3b4186f6b6457e09190a35050565b80516001600160a01b03811681146200037f57600080fd5b919050565b600080600080600060a086880312156200039d57600080fd5b620003a88662000367565b9450620003b86020870162000367565b9350620003c86040870162000367565b9250620003d86060870162000367565b9150620003e86080870162000367565b90509295509295909350565b60805160a05160c051613566620004c5600039600081816104f1015261061b0152600081816106910152818161093d01528181610b8901528181610c8801528181610d83015281816111390152818161127e0152818161137a01528181611435015281816115db01528181611703015281816117850152611ff40152600081816107bd01528181610cf501528181610fab015281816112eb015281816116480152818161194d01528181611f34015281816120d50152818161233b015281816123ff015261281001526135666000f3fe6080604052600436106102765760003560e01c80638eabd14e1161014f578063c6e5d8f6116100c1578063e78340291161007a578063e78340291461088d578063ea04f155146108a2578063ef6283d9146108b7578063f2d65fb0146108cd578063f2fde38b146108ed578063ff60fb681461090d5761027d565b8063c6e5d8f6146107df578063cc62d8c41461080c578063cf2c03341461082c578063d4c3eea01461084c578063d73792a914610862578063db2e21bc146108785761027d565b8063bc9fde2c11610113578063bc9fde2c14610706578063be59112914610726578063bf333f2c14610746578063c25730991461075b578063c279a2bc1461077b578063c45a0155146107ab5761027d565b80638eabd14e1461065d5780639827d4731461067f5780639b23d3d9146106b3578063aebf3e41146106d3578063b79c41a2146106e65761027d565b80635839f07f116101e8578063715018a6116101ac578063715018a6146105ac57806372459f39146105c15780638456cb59146105d75780638b0c36fa146105ec5780638c58eff11461060c5780638da5cb5b1461063f5761027d565b80635839f07f146104df5780635962a941146105135780635c975abb1461052957806360246c881461054d578063618dc65e1461057e5761027d565b8063250e6de01161023a578063250e6de0146103b657806328999437146103be5780632fb9125d146103d45780633474d1f9146103e95780633e7e516a146104925780633f4ba83a146104ca5761027d565b806310b42fd4146102af57806310ca0bce146102d357806315dacbea146102ea57806321b77d631461031d578063240f1b62146103345761027d565b3661027d57005b60405162461bcd60e51b8152602060048201526002602482015261272360f11b60448201526064015b60405180910390fd5b3480156102bb57600080fd5b506008545b6040519081526020015b60405180910390f35b3480156102df57600080fd5b506102e861092d565b005b3480156102f657600080fd5b5061030a6103053660046128c0565b6109ad565b60405160079190910b81526020016102ca565b34801561032957600080fd5b506102c0620186a081565b34801561034057600080fd5b5061035461034f36600461290b565b610aa1565b6040516102ca9190815181526020808301519082015260408083015190820152606080830151908201526080808301516001600160a01b039081169183019190915260a08084015182169083015260c092830151169181019190915260e00190565b6102e8610b6f565b3480156103ca57600080fd5b506102c060055481565b3480156103e057600080fd5b506102c0610e1d565b3480156103f557600080fd5b5061044e61040436600461290b565b600a60205260009081526040902080546001820154600283015460038401546004850154600586015460069096015494959394929391926001600160a01b03918216928216911687565b6040805197885260208801969096529486019390935260608501919091526001600160a01b03908116608085015290811660a08401521660c082015260e0016102ca565b34801561049e57600080fd5b506004546104b2906001600160a01b031681565b6040516001600160a01b0390911681526020016102ca565b3480156104d657600080fd5b506102e8610e50565b3480156104eb57600080fd5b506104b27f000000000000000000000000000000000000000000000000000000000000000081565b34801561051f57600080fd5b506102c0600c5481565b34801561053557600080fd5b5060025460ff165b60405190151581526020016102ca565b34801561055957600080fd5b50600554600654600754604080519384526020840192909252908201526060016102ca565b34801561058a57600080fd5b5061059e61059936600461293a565b610e60565b6040516102ca929190612a4c565b3480156105b857600080fd5b506102e8610f7e565b3480156105cd57600080fd5b506102c060085481565b3480156105e357600080fd5b506102e8610f90565b3480156105f857600080fd5b506102e861060736600461290b565b610fa0565b34801561061857600080fd5b507f00000000000000000000000000000000000000000000000000000000000000006104b2565b34801561064b57600080fd5b506000546001600160a01b03166104b2565b34801561066957600080fd5b50610672611054565b6040516102ca9190612a6d565b34801561068b57600080fd5b506104b27f000000000000000000000000000000000000000000000000000000000000000081565b3480156106bf57600080fd5b5061030a6106ce3660046128c0565b6110e2565b6102e86106e1366004612a80565b611127565b3480156106f257600080fd5b506102c0610701366004612ab2565b6118ac565b34801561071257600080fd5b506102e8610721366004612ad4565b611942565b34801561073257600080fd5b50610672610741366004612afe565b6119ed565b34801561075257600080fd5b506102c0601e81565b34801561076757600080fd5b506102e8610776366004612b1b565b611f29565b34801561078757600080fd5b5061053d610796366004612ad4565b600d6020526000908152604090205460ff1681565b3480156107b757600080fd5b506104b27f000000000000000000000000000000000000000000000000000000000000000081565b3480156107eb57600080fd5b506107ff6107fa366004612ad4565b61205e565b6040516102ca9190612b45565b34801561081857600080fd5b506102e861082736600461290b565b6120ca565b34801561083857600080fd5b506102c0610847366004612b1b565b612117565b34801561085857600080fd5b506102c060075481565b34801561086e57600080fd5b506102c061271081565b34801561088457600080fd5b506102e8612148565b34801561089957600080fd5b506102e861223a565b3480156108ae57600080fd5b50600c546102c0565b3480156108c357600080fd5b506102c060065481565b3480156108d957600080fd5b506102e86108e836600461290b565b612330565b3480156108f957600080fd5b506102e8610908366004612ad4565b6123b9565b34801561091957600080fd5b506102e8610928366004612b89565b6123f4565b610935612449565b6000610961307f0000000000000000000000000000000000000000000000000000000000000000612476565b9050601681146109aa57610974816119ed565b6040516020016109849190612bfb565b60408051601f198184030181529082905262461bcd60e51b82526102a691600401612a6d565b50565b6040516001600160a01b038581166024830152848116604483015283166064820152608481018290526000908190819061016790630aed65f560e11b9060a4015b60408051601f198184030181529181526020820180516001600160e01b03166001600160e01b0319909416939093179092529051610a2c9190612c40565b6000604051808303816000865af19150503d8060008114610a69576040519150601f19603f3d011682016040523d82523d6000602084013e610a6e565b606091505b509150915081610a7f576015610a93565b80806020019051810190610a939190612c5c565b60030b979650505050505050565b610afc6040518060e001604052806000815260200160008152602001600081526020016000815260200160006001600160a01b0316815260200160006001600160a01b0316815260200160006001600160a01b031681525090565b506000908152600a6020908152604091829020825160e081018452815481526001820154928101929092526002810154928201929092526003820154606082015260048201546001600160a01b0390811660808301526005830154811660a083015260069092015490911660c082015290565b610b77612449565b610b7f61254a565b610b87612574565b7f00000000000000000000000000000000000000000000000000000000000000006001600160a01b0316610be75760405162461bcd60e51b815260206004820152600760248201526604e4f5f43534c560cc1b60448201526064016102a6565b60065415610c205760405162461bcd60e51b815260206004820152600660248201526512539255115160d21b60448201526064016102a6565b620186a0341015610c5d5760405162461bcd60e51b81526020600482015260076024820152662624a8afa6a4a760c91b60448201526064016102a6565b3460058190556007819055600090610c7790606490612c8f565b604051600782900b815290915033907f00000000000000000000000000000000000000000000000000000000000000006001600160a01b0316907fb7555d949a897acb395f95e3f2df8b700519404826bb13cd6526b756f6a1c9079060200160405180910390a3604051632193fc1360e11b81526001600160a01b037f00000000000000000000000000000000000000000000000000000000000000001690634327f82690610d2e90309033908690600401612cb1565b600060405180830381600087803b158015610d4857600080fd5b505af1158015610d5c573d6000803e3d6000fd5b50505060068290555060408051600783900b81526000602082015233916001600160a01b037f000000000000000000000000000000000000000000000000000000000000000016917fad91542866f4da9ebed5a2b1713258f4bf970f84e7b2a0b8aab2de28d11ffffd910160405180910390a360408051348152602081018390524281830152905133917f64b83944e79c3ce8d4c297411de637c3e102d064677aac0c163976ebdcd6f50e919081900360600190a250610e1b60018055565b565b6000600654600003610e2f5750600090565b6006546064600754610e419190612c8f565b610e4b9190612c8f565b905090565b610e58612449565b610e1b612598565b600060606000806101676001600160a01b031663618dc65e60e01b8787604051602401610e8e929190612cd5565b60408051601f198184030181529181526020820180516001600160e01b03166001600160e01b0319909416939093179092529051610ecc9190612c40565b6000604051808303816000865af19150503d8060008114610f09576040519150601f19603f3d011682016040523d82523d6000602084013e610f0e565b606091505b50915091507f4af4780e06fe8cb9df64b0794fa6f01399af979175bb988e35e0e57e594567bc8282604051610f44929190612cf9565b60405180910390a181610f6857601560405180602001604052806000815250610f6c565b6016815b60039190910b97909650945050505050565b610f86612449565b610e1b60006125ea565b610f98612449565b610e1b61263a565b336001600160a01b037f00000000000000000000000000000000000000000000000000000000000000001614610fe85760405162461bcd60e51b81526004016102a690612d14565b600081116110215760405162461bcd60e51b81526020600482015260066024820152650484241523c360d41b60448201526064016102a6565b80600560008282546110339190612d36565b92505081905550806007600082825461104c9190612d36565b909155505050565b6009805461106190612d4f565b80601f016020809104026020016040519081016040528092919081815260200182805461108d90612d4f565b80156110da5780601f106110af576101008083540402835291602001916110da565b820191906000526020600020905b8154815290600101906020018083116110bd57829003601f168201915b505050505081565b6040516001600160a01b038581166024830152848116604483015283166064820152608481018290526000908190819061016790639b23d3d960e01b9060a4016109ee565b61112f61254a565b611137612574565b7f00000000000000000000000000000000000000000000000000000000000000006001600160a01b03166111975760405162461bcd60e51b815260206004820152600760248201526604e4f5f43534c560cc1b60448201526064016102a6565b600034116111b75760405162461bcd60e51b81526004016102a690612d89565b600083116111f25760405162461bcd60e51b81526020600482015260086024820152675553445f5a45524f60c01b60448201526064016102a6565b6000821161122d5760405162461bcd60e51b81526020600482015260086024820152674d41545f5a45524f60c01b60448201526064016102a6565b60065460000361155f57346005819055600755336000908152600d602052604081205460ff1661126057620f4240611263565b60005b62ffffff16905080156113ed57604051600782900b815233907f00000000000000000000000000000000000000000000000000000000000000006001600160a01b0316907fb7555d949a897acb395f95e3f2df8b700519404826bb13cd6526b756f6a1c9079060200160405180910390a3604051632193fc1360e11b81526001600160a01b037f00000000000000000000000000000000000000000000000000000000000000001690634327f8269061132490309033908690600401612cb1565b600060405180830381600087803b15801561133e57600080fd5b505af1158015611352573d6000803e3d6000fd5b5050336000818152600d6020526040808220805460ff191660011790556006869055519193507f00000000000000000000000000000000000000000000000000000000000000006001600160a01b031692507fad91542866f4da9ebed5a2b1713258f4bf970f84e7b2a0b8aab2de28d11ffffd916113e0918691600792830b8152910b602082015260400190565b60405180910390a36113f3565b60016006555b60006040518060e0016040528034815260200142815260200161141687876118ac565b81526020808201859052336040808401829052306060808601919091527f00000000000000000000000000000000000000000000000000000000000000006001600160a01b03908116608096870152600c80546000908152600a875284812089518155898801516001808301919091558a8701516002830155948a01516003820155978901516004890180549185166001600160a01b031992831617905560a08a015160058a01805491861691831691909117905560c08a01516006909901805499909416981697909717909155928552600b8452908420825481549283018255908552928420019190915580549293509061151183612daa565b909155505060408051348152602081018490524281830152905133917f64b83944e79c3ce8d4c297411de637c3e102d064677aac0c163976ebdcd6f50e919081900360600190a2505061189d565b600061156b84846118ac565b9050346005600082825461157f9190612d36565b9250508190555034600760008282546115989190612d36565b9091555050336000908152600d602052604081205460ff166115bd57620f42406115c0565b60005b62ffffff169050801561175057604051600782900b815233907f00000000000000000000000000000000000000000000000000000000000000006001600160a01b0316907fb7555d949a897acb395f95e3f2df8b700519404826bb13cd6526b756f6a1c9079060200160405180910390a3604051632193fc1360e11b81526001600160a01b037f00000000000000000000000000000000000000000000000000000000000000001690634327f8269061168190309033908690600401612cb1565b600060405180830381600087803b15801561169b57600080fd5b505af11580156116af573d6000803e3d6000fd5b5050336000908152600d60205260408120805460ff19166001179055600680548594509092506116e0908490612d36565b909155505060408051600783900b81526000602082015233916001600160a01b037f000000000000000000000000000000000000000000000000000000000000000016917fad91542866f4da9ebed5a2b1713258f4bf970f84e7b2a0b8aab2de28d11ffffd910160405180910390a35b6040805160e0810182523481524260208083019182528284018681526060840186815233608086018181523060a088019081527f00000000000000000000000000000000000000000000000000000000000000006001600160a01b0390811660c08a01908152600c80546000908152600a8a528c81209b518c5599516001808d0191909155975160028c0155955160038b0155925160048a0180549183166001600160a01b0319928316179055915160058a01805491831691841691909117905591516006909801805498909216971696909617909555938352600b82529382208354815495860182559083529082209093019290925580549161185383612daa565b909155505060408051348152602081018390524281830152905133917f64b83944e79c3ce8d4c297411de637c3e102d064677aac0c163976ebdcd6f50e919081900360600190a250505b6118a660018055565b50505050565b60008083116118e85760405162461bcd60e51b81526020600482015260086024820152675553445f5a45524f60c01b60448201526064016102a6565b600082116119235760405162461bcd60e51b81526020600482015260086024820152674d41545f5a45524f60c01b60448201526064016102a6565b8161193184620f4240612dc3565b61193b9190612c8f565b9392505050565b336001600160a01b037f0000000000000000000000000000000000000000000000000000000000000000161461198a5760405162461bcd60e51b81526004016102a690612d14565b6001600160a01b0381166119cb5760405162461bcd60e51b81526020600482015260086024820152672120a22faaa9a2a960c11b60448201526064016102a6565b600480546001600160a01b0319166001600160a01b0392909216919091179055565b6060601519600383900b01611a1f5750506040805180820190915260078152665355434345535360c81b602082015290565b600819600383900b01611a4b576040518060600160405280603181526020016132df6031913992915050565b600919600383900b01611a775760405180606001604052806040815260200161334e6040913992915050565b600619600383900b01611aa3576040518060600160405280603481526020016131a76034913992915050565b600e19600383900b01611acf576040518060600160405280603c8152602001612fa7603c913992915050565b600f19600383900b01611afb576040518060600160405280603e81526020016131db603e913992915050565b601d19600383900b01611b27576040518060600160405280602a815260200161327d602a913992915050565b602119600383900b01611b53576040518060600160405280603881526020016132a76038913992915050565b606e19600383900b01611b7f576040518060600160405280602b81526020016133c7602b913992915050565b60a919600383900b01611bab576040518060600160405280603d81526020016133f2603d913992915050565b60aa19600383900b01611bd7576040518060600160405280602e8152602001613219602e913992915050565b60ad19600383900b01611c03576040518060600160405280603081526020016131426030913992915050565b60ae19600383900b01611c2f5760405180606001604052806039815260200161338e6039913992915050565b60bd19600383900b01611c5b576040518060600160405280602c815260200161342f602c913992915050565b60be19600383900b01611c87576040518060600160405280603581526020016134fc6035913992915050565b60a719600383900b01611cb3576040518060600160405280603881526020016130406038913992915050565b60a819600383900b01611cdf576040518060600160405280603e8152602001613310603e913992915050565b60bc19600383900b01611d0b576040518060600160405280602a815260200161349f602a913992915050565b609a19600383900b01611d3757604051806060016040528060288152602001612fe36028913992915050565b601919600383900b01611d63576040518060600160405280602681526020016130786026913992915050565b601a19600383900b01611d8f5760405180606001604052806026815260200161309e6026913992915050565b602519600383900b01611dbb576040518060600160405280603581526020016131726035913992915050565b603f19600383900b01611de75760405180606001604052806035815260200161300b6035913992915050565b604019600383900b01611e135760405180608001604052806044815260200161345b6044913992915050565b61011619600383900b01611e40576040518060600160405280603681526020016132476036913992915050565b61014419600383900b01611e6d576040518060600160405280603f8152602001613103603f913992915050565b61014519600383900b01611e9a576040518060600160405280603f81526020016130c4603f913992915050565b61014619600383900b01611ec757604051806080016040528060418152602001612f666041913992915050565b61014719600383900b01611ef4576040518060600160405280603381526020016134c96033913992915050565b611f038263ffffffff16612677565b604051602001611f139190612dda565b6040516020818303038152906040529050919050565b336001600160a01b037f00000000000000000000000000000000000000000000000000000000000000001614611f715760405162461bcd60e51b81526004016102a690612d14565b6001600160a01b038216611fb25760405162461bcd60e51b81526020600482015260086024820152672120a22faaa9a2a960c11b60448201526064016102a6565b60008111611fed5760405162461bcd60e51b8152602060048201526008602482015267414d545f5a45524f60c01b60448201526064016102a6565b600061201b7f00000000000000000000000000000000000000000000000000000000000000003085856127a3565b9050601681146120595760405162461bcd60e51b815260206004820152600960248201526821a9a6282fac2322a960b91b60448201526064016102a6565b505050565b6001600160a01b0381166000908152600b60209081526040918290208054835181840281018401909452808452606093928301828280156120be57602002820191906000526020600020905b8154815260200190600101908083116120aa575b50505050509050919050565b336001600160a01b037f000000000000000000000000000000000000000000000000000000000000000016146121125760405162461bcd60e51b81526004016102a690612d14565b600655565b600b602052816000526040600020818154811061213357600080fd5b90600052602060002001600091509150505481565b612150612449565b6121586127eb565b47806121765760405162461bcd60e51b81526004016102a690612d89565b80600560008282546121889190612e15565b9250508190555080600760008282546121a19190612e15565b9091555050600080546040516001600160a01b039091169083908381818185875af1925050503d80600081146121f3576040519150601f19603f3d011682016040523d82523d6000602084013e6121f8565b606091505b50509050806122365760405162461bcd60e51b815260206004820152600a60248201526908a9a8aa48ebeae88beb60b31b60448201526064016102a6565b5050565b612242612449565b61224a6127eb565b47806122685760405162461bcd60e51b81526004016102a690612d89565b6122718161280e565b80600560008282546122839190612e15565b92505081905550806007600082825461229c9190612e15565b9091555050600080546040516001600160a01b039091169083908381818185875af1925050503d80600081146122ee576040519150601f19603f3d011682016040523d82523d6000602084013e6122f3565b606091505b50509050806122365760405162461bcd60e51b81526020600482015260096024820152680908482a4beae88beb60bb1b60448201526064016102a6565b336001600160a01b037f000000000000000000000000000000000000000000000000000000000000000016146123785760405162461bcd60e51b81526004016102a690612d14565b6127108111156123b45760405162461bcd60e51b81526020600482015260076024820152661410d517d0905160ca1b60448201526064016102a6565b600855565b6123c1612449565b6001600160a01b0381166123eb57604051631e4fbdf760e01b8152600060048201526024016102a6565b6109aa816125ea565b336001600160a01b037f0000000000000000000000000000000000000000000000000000000000000000161461243c5760405162461bcd60e51b81526004016102a690612d14565b6009612059828483612e76565b6000546001600160a01b03163314610e1b5760405163118cdaa760e01b81523360048201526024016102a6565b604080516001600160a01b038481166024830152831660448083019190915282518083039091018152606490910182526020810180516001600160e01b031663248a35ef60e11b179052905160009182918291610167916124d79190612c40565b6000604051808303816000865af19150503d8060008114612514576040519150601f19603f3d011682016040523d82523d6000602084013e612519565b606091505b50915091508161252a57601561253e565b8080602001905181019061253e9190612c5c565b60030b95945050505050565b60026001540361256d57604051633ee5aeb560e01b815260040160405180910390fd5b6002600155565b60025460ff1615610e1b5760405163d93c066560e01b815260040160405180910390fd5b6125a06127eb565b6002805460ff191690557f5db9ee0a495bf2e6ff9c91a7834c1ba4fdd244a5e8aa4e537bd38aeae4b073aa335b6040516001600160a01b03909116815260200160405180910390a1565b600080546001600160a01b038381166001600160a01b0319831681178455604051919092169283917f8be0079c531659141344cd1fd0a4f28419497f9722a3daafe3b4186f6b6457e09190a35050565b612642612574565b6002805460ff191660011790557f62e78cea01bee320cd4e420270b5ea74000d11b0c9f74754ebdbfc544b05a2586125cd3390565b60608160000361269e5750506040805180820190915260018152600360fc1b602082015290565b8160005b81156126c857806126b281612daa565b91506126c19050600a83612c8f565b91506126a2565b60008167ffffffffffffffff8111156126e3576126e3612924565b6040519080825280601f01601f19166020018201604052801561270d576020820181803683370190505b509050815b851561279a57612723600182612e15565b90506000612732600a88612c8f565b61273d90600a612dc3565b6127479088612e15565b612752906030612f36565b905060008160f81b90508084848151811061276f5761276f612f4f565b60200101906001600160f81b031916908160001a905350612791600a89612c8f565b97505050612712565b50949350505050565b6040516001600160a01b038581166024830152848116604483015283166064820152600782900b6084820152600090819081906101679063eca3691760e01b9060a4016109ee565b60025460ff16610e1b57604051638dfc202b60e01b815260040160405180910390fd5b7f00000000000000000000000000000000000000000000000000000000000000006001600160a01b03166395f40f95306128506000546001600160a01b031690565b846040518463ffffffff1660e01b815260040161286f93929190612cb1565b600060405180830381600087803b15801561288957600080fd5b505af115801561289d573d6000803e3d6000fd5b5050505050565b80356001600160a01b03811681146128bb57600080fd5b919050565b600080600080608085870312156128d657600080fd5b6128df856128a4565b93506128ed602086016128a4565b92506128fb604086016128a4565b9396929550929360600135925050565b60006020828403121561291d57600080fd5b5035919050565b634e487b7160e01b600052604160045260246000fd5b6000806040838503121561294d57600080fd5b612956836128a4565b9150602083013567ffffffffffffffff8082111561297357600080fd5b818501915085601f83011261298757600080fd5b81358181111561299957612999612924565b604051601f8201601f19908116603f011681019083821181831017156129c1576129c1612924565b816040528281528860208487010111156129da57600080fd5b8260208601602083013760006020848301015280955050505050509250929050565b60005b83811015612a175781810151838201526020016129ff565b50506000910152565b60008151808452612a388160208601602086016129fc565b601f01601f19169290920160200192915050565b828152604060208201526000612a656040830184612a20565b949350505050565b60208152600061193b6020830184612a20565b60008060008060808587031215612a9657600080fd5b5050823594602084013594506040840135936060013592509050565b60008060408385031215612ac557600080fd5b50508035926020909101359150565b600060208284031215612ae657600080fd5b61193b826128a4565b8060030b81146109aa57600080fd5b600060208284031215612b1057600080fd5b813561193b81612aef565b60008060408385031215612b2e57600080fd5b612b37836128a4565b946020939093013593505050565b6020808252825182820181905260009190848201906040850190845b81811015612b7d57835183529284019291840191600101612b61565b50909695505050505050565b60008060208385031215612b9c57600080fd5b823567ffffffffffffffff80821115612bb457600080fd5b818501915085601f830112612bc857600080fd5b813581811115612bd757600080fd5b866020828501011115612be957600080fd5b60209290920196919550909350505050565b7f43534c5020746f6b656e206173736f63696174696f6e206661696c65643a2000815260008251612c3381601f8501602087016129fc565b91909101601f0192915050565b60008251612c528184602087016129fc565b9190910192915050565b600060208284031215612c6e57600080fd5b815161193b81612aef565b634e487b7160e01b600052601160045260246000fd5b600082612cac57634e487b7160e01b600052601260045260246000fd5b500490565b6001600160a01b039384168152919092166020820152604081019190915260600190565b6001600160a01b0383168152604060208201819052600090612a6590830184612a20565b8215158152604060208201526000612a656040830184612a20565b6020808252600890820152674f4e4c595f46414360c01b604082015260600190565b80820180821115612d4957612d49612c79565b92915050565b600181811c90821680612d6357607f821691505b602082108103612d8357634e487b7160e01b600052602260045260246000fd5b50919050565b6020808252600790820152662727afa42120a960c91b604082015260600190565b600060018201612dbc57612dbc612c79565b5060010190565b8082028115828204841417612d4957612d49612c79565b72554e4b4e4f574e5f4552524f525f434f44455f60681b815260008251612e088160138501602087016129fc565b9190910160130192915050565b81810381811115612d4957612d49612c79565b601f82111561205957600081815260208120601f850160051c81016020861015612e4f5750805b601f850160051c820191505b81811015612e6e57828155600101612e5b565b505050505050565b67ffffffffffffffff831115612e8e57612e8e612924565b612ea283612e9c8354612d4f565b83612e28565b6000601f841160018114612ed65760008515612ebe5750838201355b600019600387901b1c1916600186901b17835561289d565b600083815260209020601f19861690835b82811015612f075786850135825560209485019460019092019101612ee7565b5086821015612f245760001960f88860031b161c19848701351681555b505060018560011b0183555050505050565b60ff8181168382160190811115612d4957612d49612c79565b634e487b7160e01b600052603260045260246000fdfe494e53554646494349454e545f53544f524147455f52454e54202d20496e73756666696369656e742062616c616e636520666f722073746f726167652072656e74494e56414c49445f4143434f554e545f4944202d204163636f756e7420494420697320696e76616c6964206f7220646f6573206e6f74206578697374494e56414c49445f41444d494e5f4b4559202d2041646d696e206b657920697320696e76616c69645452414e53414354494f4e5f4f56455253495a45202d205472616e73616374696f6e20657863656564732073697a65206c696d6974494e56414c49445f544f4b454e5f444543494d414c53202d20546f6b656e20646563696d616c732076616c756520697320696e76616c69644b45595f5245515549524544202d205265717569726564206b6579206973206d697373696e674241445f454e434f44494e47202d204b657920656e636f64696e6720697320696e76616c6964494e56414c49445f505245434f4d50494c455f5349474e4154555245202d20496e76616c6964207369676e617475726520666f7220707265636f6d70696c654d41585f454e5449544945535f43524541544544202d204d6178696d756d20656e74697469657320696e20707269636520726567696d6520726561636865644d495353494e475f544f4b454e5f53594d424f4c202d20546f6b656e2073796d626f6c206e6f742070726f7669646564494e56414c49445f4b45595f454e434f44494e47202d204b657920656e636f64696e6720666f726d617420697320696e76616c6964494e56414c49445f5349474e4154555245202d205472616e73616374696f6e207369676e617475726520697320696e76616c6964494e56414c49445f434f4e54524143545f4944202d20436f6e747261637420494420697320696e76616c6964206f7220646f6573206e6f74206578697374494e56414c49445f544f4b454e5f53594d424f4c202d20546f6b656e2073796d626f6c20697320696e76616c6964434f4e53454e5355535f4741535f455848415553544544202d20436f6e73656e737573206e6f64652067617320657868617573746564494e53554646494349454e545f474153202d204e6f7420656e6f7567682067617320737570706c696564434f4e54524143545f455845435554494f4e5f455843455054494f4e202d20436f6e747261637420657865637574696f6e206661696c6564494e53554646494349454e545f54585f464545202d204e6f7420656e6f756768206761732f6665652070726f7669646564494e56414c49445f544f4b454e5f494e495449414c5f535550504c59202d20496e697469616c20737570706c792076616c756520697320696e76616c6964494e53554646494349454e545f50415945525f42414c414e4345202d205061796572206163636f756e742068617320696e73756666696369656e742048424152544f4b454e5f53594d424f4c5f544f4f5f4c4f4e47202d20546f6b656e2073796d626f6c2065786365656473206c656e677468206c696d69744d41585f4741535f4c494d49545f4558434545444544202d20476173206c696d6974206578636565646564494e56414c49445f54524541535552595f4143434f554e545f464f525f544f4b454e202d205472656173757279206163636f756e7420696e76616c69644d495353494e475f544f4b454e5f4e414d45202d20546f6b656e206e616d65206e6f742070726f76696465645452414e53414354494f4e5f544f4f5f4d414e595f4c4159455253202d205472616e73616374696f6e2068617320746f6f206d616e79206e6573746564206c6179657273494e56414c49445f535550504c595f4b4559202d20537570706c79206b657920697320696e76616c69644d41585f4348494c445f5245434f5244535f4558434545444544202d20546f6f206d616e79206368696c64207265636f726473544f4b454e5f4e414d455f544f4f5f4c4f4e47202d20546f6b656e206e616d652065786365656473206c656e677468206c696d6974a2646970667358221220e2be3653a5212dc9d210a018a057fa592536b8c4d9506c038aa2ccca1620665e64736f6c63430008140033a2646970667358221220d3e1c3dec57c6da9114c913fdd2cad1e9487186141f89020fd977506db935bdf64736f6c63430008140033",
  "linkReferences": {},
  "deployedLinkReferences": {}
}