{
  "_format": "hh-sol-artifact-1",
  "contractName": "ClearSkyFactory",
  "sourceName": "contracts/ClearSkyFactory.sol",
  "abi": [
    {
      "inputs": [],
      "stateMutability": "nonpayable",
      "type": "constructor"
    },
    {
      "anonymous": false,
      "inputs": [
        {
          "indexed": true,
          "internalType": "address",
          "name": "tokenAddress",
          "type": "address"
        },
        {
          "indexed": false,
          "internalType": "string",
          "name": "tokenName",
          "type": "string"
        },
        {
          "indexed": false,
          "internalType": "string",
          "name": "tokenSymbol",
          "type": "string"
        },
        {
          "indexed": true,
          "internalType": "address",
          "name": "creator",
          "type": "address"
        }
      ],
      "name": "CSLPTokenCreated",
      "type": "event"
    },
    {
      "anonymous": false,
      "inputs": [
        {
          "indexed": false,
          "internalType": "bool",
          "name": "",
          "type": "bool"
        },
        {
          "indexed": false,
          "internalType": "bytes",
          "name": "",
          "type": "bytes"
        }
      ],
      "name": "CallResponseEvent",
      "type": "event"
    },
    {
      "anonymous": false,
      "inputs": [
        {
          "indexed": false,
          "internalType": "uint256",
          "name": "balanceWei",
          "type": "uint256"
        }
      ],
      "name": "FactoryBalance",
      "type": "event"
    },
    {
      "anonymous": false,
      "inputs": [
        {
          "indexed": false,
          "internalType": "int32",
          "name": "code",
          "type": "int32"
        },
        {
          "indexed": false,
          "internalType": "address",
          "name": "token",
          "type": "address"
        },
        {
          "indexed": false,
          "internalType": "string",
          "name": "tokenName",
          "type": "string"
        },
        {
          "indexed": false,
          "internalType": "string",
          "name": "tokenSymbol",
          "type": "string"
        }
      ],
      "name": "HTSCreateResult",
      "type": "event"
    },
    {
      "anonymous": false,
      "inputs": [
        {
          "indexed": true,
          "internalType": "address",
          "name": "previousOwner",
          "type": "address"
        },
        {
          "indexed": true,
          "internalType": "address",
          "name": "newOwner",
          "type": "address"
        }
      ],
      "name": "OwnershipTransferred",
      "type": "event"
    },
    {
      "anonymous": false,
      "inputs": [
        {
          "indexed": true,
          "internalType": "address",
          "name": "user",
          "type": "address"
        },
        {
          "indexed": true,
          "internalType": "address",
          "name": "poolAddress",
          "type": "address"
        },
        {
          "indexed": true,
          "internalType": "address",
          "name": "cslpToken",
          "type": "address"
        },
        {
          "indexed": false,
          "internalType": "uint256",
          "name": "poolIndex",
          "type": "uint256"
        }
      ],
      "name": "PoolCreated",
      "type": "event"
    },
    {
      "inputs": [
        {
          "internalType": "uint256",
          "name": "",
          "type": "uint256"
        }
      ],
      "name": "allPools",
      "outputs": [
        {
          "internalType": "address",
          "name": "",
          "type": "address"
        }
      ],
      "stateMutability": "view",
      "type": "function"
    },
    {
      "inputs": [
        {
          "internalType": "address",
          "name": "poolAddress",
          "type": "address"
        },
        {
          "internalType": "uint256",
          "name": "amount",
          "type": "uint256"
        }
      ],
      "name": "burnCSLP",
      "outputs": [],
      "stateMutability": "nonpayable",
      "type": "function"
    },
    {
      "inputs": [
        {
          "internalType": "address",
          "name": "from",
          "type": "address"
        },
        {
          "internalType": "address",
          "name": "poolAddress",
          "type": "address"
        },
        {
          "internalType": "uint256",
          "name": "amount",
          "type": "uint256"
        }
      ],
      "name": "burnFCDR",
      "outputs": [],
      "stateMutability": "nonpayable",
      "type": "function"
    },
    {
      "inputs": [
        {
          "internalType": "string",
          "name": "tokenName",
          "type": "string"
        },
        {
          "internalType": "string",
          "name": "tokenSymbol",
          "type": "string"
        }
      ],
      "name": "createCSLPToken",
      "outputs": [
        {
          "internalType": "address",
          "name": "",
          "type": "address"
        }
      ],
      "stateMutability": "nonpayable",
      "type": "function"
    },
    {
      "inputs": [
        {
          "internalType": "address",
          "name": "user",
          "type": "address"
        },
        {
          "internalType": "address",
          "name": "cslpToken",
          "type": "address"
        }
      ],
      "name": "createMaturationPool",
      "outputs": [
        {
          "internalType": "address",
          "name": "",
          "type": "address"
        }
      ],
      "stateMutability": "nonpayable",
      "type": "function"
    },
    {
      "inputs": [
        {
          "internalType": "address",
          "name": "user",
          "type": "address"
        },
        {
          "internalType": "address",
          "name": "cslpToken",
          "type": "address"
        }
      ],
      "name": "createUserPool",
      "outputs": [
        {
          "internalType": "address",
          "name": "",
          "type": "address"
        }
      ],
      "stateMutability": "nonpayable",
      "type": "function"
    },
    {
      "inputs": [],
      "name": "fcdr1155Contract",
      "outputs": [
        {
          "internalType": "address",
          "name": "",
          "type": "address"
        }
      ],
      "stateMutability": "view",
      "type": "function"
    },
    {
      "inputs": [],
      "name": "getAllPools",
      "outputs": [
        {
          "internalType": "address[]",
          "name": "",
          "type": "address[]"
        }
      ],
      "stateMutability": "view",
      "type": "function"
    },
    {
      "inputs": [
        {
          "internalType": "address",
          "name": "poolAddress",
          "type": "address"
        }
      ],
      "name": "getPoolCSLPToken",
      "outputs": [
        {
          "internalType": "address",
          "name": "",
          "type": "address"
        }
      ],
      "stateMutability": "view",
      "type": "function"
    },
    {
      "inputs": [
        {
          "internalType": "address",
          "name": "user",
          "type": "address"
        }
      ],
      "name": "getUserPool",
      "outputs": [
        {
          "internalType": "address",
          "name": "",
          "type": "address"
        }
      ],
      "stateMutability": "view",
      "type": "function"
    },
    {
      "inputs": [
        {
          "internalType": "address",
          "name": "user",
          "type": "address"
        }
      ],
      "name": "hasPool",
      "outputs": [
        {
          "internalType": "bool",
          "name": "",
          "type": "bool"
        }
      ],
      "stateMutability": "view",
      "type": "function"
    },
    {
      "inputs": [
        {
          "internalType": "address",
          "name": "",
          "type": "address"
        }
      ],
      "name": "isPool",
      "outputs": [
        {
          "internalType": "bool",
          "name": "",
          "type": "bool"
        }
      ],
      "stateMutability": "view",
      "type": "function"
    },
    {
      "inputs": [
        {
          "internalType": "address",
          "name": "poolAddress",
          "type": "address"
        },
        {
          "internalType": "address",
          "name": "user",
          "type": "address"
        },
        {
          "internalType": "uint256",
          "name": "amount",
          "type": "uint256"
        }
      ],
      "name": "mintCSLP",
      "outputs": [],
      "stateMutability": "nonpayable",
      "type": "function"
    },
    {
      "inputs": [
        {
          "internalType": "address",
          "name": "poolAddress",
          "type": "address"
        },
        {
          "internalType": "address",
          "name": "fcdrOwner",
          "type": "address"
        },
        {
          "internalType": "uint256",
          "name": "hbarAmount",
          "type": "uint256"
        }
      ],
      "name": "mintFCDR",
      "outputs": [],
      "stateMutability": "nonpayable",
      "type": "function"
    },
    {
      "inputs": [],
      "name": "owner",
      "outputs": [
        {
          "internalType": "address",
          "name": "",
          "type": "address"
        }
      ],
      "stateMutability": "view",
      "type": "function"
    },
    {
      "inputs": [
        {
          "internalType": "address",
          "name": "",
          "type": "address"
        }
      ],
      "name": "poolCSLPTokens",
      "outputs": [
        {
          "internalType": "address",
          "name": "",
          "type": "address"
        }
      ],
      "stateMutability": "view",
      "type": "function"
    },
    {
      "inputs": [
        {
          "internalType": "address",
          "name": "token",
          "type": "address"
        },
        {
          "internalType": "bytes",
          "name": "encodedFunctionSelector",
          "type": "bytes"
        }
      ],
      "name": "redirectForToken",
      "outputs": [
        {
          "internalType": "int256",
          "name": "responseCode",
          "type": "int256"
        },
        {
          "internalType": "bytes",
          "name": "response",
          "type": "bytes"
        }
      ],
      "stateMutability": "nonpayable",
      "type": "function"
    },
    {
      "inputs": [
        {
          "internalType": "address",
          "name": "_fcdr1155Contract",
          "type": "address"
        }
      ],
      "name": "setFCDR1155Contract",
      "outputs": [],
      "stateMutability": "nonpayable",
      "type": "function"
    },
    {
      "inputs": [
        {
          "internalType": "address",
          "name": "token",
          "type": "address"
        },
        {
          "internalType": "address",
          "name": "from",
          "type": "address"
        },
        {
          "internalType": "address",
          "name": "to",
          "type": "address"
        },
        {
          "internalType": "uint256",
          "name": "amount",
          "type": "uint256"
        }
      ],
      "name": "transferFrom",
      "outputs": [
        {
          "internalType": "int64",
          "name": "responseCode",
          "type": "int64"
        }
      ],
      "stateMutability": "nonpayable",
      "type": "function"
    },
    {
      "inputs": [
        {
          "internalType": "address",
          "name": "token",
          "type": "address"
        },
        {
          "internalType": "address",
          "name": "from",
          "type": "address"
        },
        {
          "internalType": "address",
          "name": "to",
          "type": "address"
        },
        {
          "internalType": "uint256",
          "name": "serialNumber",
          "type": "uint256"
        }
      ],
      "name": "transferFromNFT",
      "outputs": [
        {
          "internalType": "int64",
          "name": "responseCode",
          "type": "int64"
        }
      ],
      "stateMutability": "nonpayable",
      "type": "function"
    },
    {
      "inputs": [
        {
          "internalType": "address",
          "name": "",
          "type": "address"
        }
      ],
      "name": "userPools",
      "outputs": [
        {
          "internalType": "address",
          "name": "",
          "type": "address"
        }
      ],
      "stateMutability": "view",
      "type": "function"
    }
  ],
  "bytecode": "0x60806040818152346100a75760018060a01b0319600091818354168355828052600160205260018184205560018352600281842055600283526004818420556003835260088184205560048352601081842055600583526020818420556006835280832055338160075416176007556005541660055533907f8be0079c531659141344cd1fd0a4f28419497f9722a3daafe3b4186f6b6457e08180a3614f9190816100ad8239f35b600080fdfe608060405260043610156200001357600080fd5b6000803560e01c806303fe2c181462001145578063074e2e391462001072578063107a48021462000d4c5780631246dbf5146200103057806315dacbea1462000fd0578063168c86401462000e675780631916258d1462000d8c57806333049e0e1462000d4c5780633461bb941462000d1e57806341d1de971462000cbf5780634327f82614620009425780635839f07f14620009175780635b16ebb714620008d4578063618dc65e146200079a5780638da5cb5b146200076f57806395f40f95146200068f5780639b23d3d914620005d1578063ad28893014620004a2578063b21feca2146200022a578063d88ff1f4146200015c5763ed4bbdf4146200011a57600080fd5b346200015957602036600319011262000159576020906001600160a01b03906040908262000147620017da565b16815260068452205416604051908152f35b80fd5b5034620001595780600319360112620001595760405180916003549081835260208093018092600383527fc2575a0e9e593c00f959f8c92f12db2869c3395a3b0502d05e2516446f71f85b90835b8181106200020c5750505084620001c39103856200173f565b60405193838594850191818652518092526040850193925b828110620001eb57505050500390f35b83516001600160a01b031685528695509381019392810192600101620001db565b82546001600160a01b031684529286019260019283019201620001aa565b503462000159576040366003190112620001595762000248620017da565b9062000253620017f1565b6001600160a01b0391838316906200026d821515620018d1565b81815260209460028652846040832054166200045d57848416936200029485151562001915565b8560055416866007541691604051936132b0808601908682106001600160401b0383111762000449579186959391620002fe959362001cac88393081526001600160a01b039182166020820152918116604083015291821660608201529116608082015260a00190565b039082f080156200043c5784169384825260068652818660408220926001600160601b0360a01b9387858254161790556005541680620003c9575b505083905260028652846040832091825416179055620003598462001962565b8381526004855260408120805460ff19166001179055600354600019810191908211620003b55750907febbbe9dc3a19d2f959ac76ac0372b4983cdfb945f5d6aef4873c36fabb2ba8aa858593604051908152a4604051908152f35b634e487b7160e01b81526011600452602490fd5b602460405180948193631e96838b60e01b83528b60048401525af180156200043157908791620003fd575b90839162000339565b813d831162000429575b6200041381836200173f565b8101031262000424578538620003f4565b600080fd5b503d62000407565b6040513d85823e3d90fd5b50604051903d90823e3d90fd5b634e487b7160e01b88526041600452602488fd5b60405162461bcd60e51b815260048101879052601c60248201527f506f6f6c20616c72656164792065786973747320666f722075736572000000006044820152606490fd5b5034620001595760403660031901126200015957620004c0620017da565b90620004cb620017f1565b6001600160a01b039280841690620004e5821515620018d1565b84831692620004f684151562001915565b8560055416866007541691604051936132b0808601908682106001600160401b03831117620005bd57918695939162000560959362001cac88393081526001600160a01b039182166020820152918116604083015291821660608201529116608082015260a00190565b039084f08015620004315784169283815260209460068652818660408220926001600160601b0360a01b9387858254161790556005541680620003c957505083905260028652846040832091825416179055620003598462001962565b634e487b7160e01b8a52604160045260248afd5b5034620001595780806200064062000631620005ed3662001840565b604051639b23d3d960e01b602082019081526001600160a01b03958616602483015293851660448201529390911660648401526084830152929091829060a4820190565b03601f1981018352826200173f565b5190826101675af1906200065362001c58565b9115620006835760208280518101031262000159575062000678602080920162001c8d565b6040519060030b8152f35b50506020601562000678565b5034620001595760a46020620006a53662001808565b9193908560018060a01b039384600754163314801562000759575b620006cb90620019e3565b846005541690620006de82151562001a6e565b8560405198899788966313e2e01960e01b88521660048701521660248501526044840152608060648401528160848401525af180156200074e5762000721575080f35b602090813d811162000746575b6200073a81836200173f565b81010312620004245780f35b503d6200072e565b6040513d84823e3d90fd5b5033825260048652604082205460ff16620006c0565b503462000159578060031936011262000159576007546040516001600160a01b039091168152602090f35b503462000159576040366003190112620001595780620007b9620017da565b602435906001600160401b038211620008d05736602383011215620008d0576200063162000830620007f7859436906024816004013591016200177d565b604080516330c6e32f60e11b602082019081526001600160a01b03909616602482015260448101919091529283916064830190620018aa565b5190826101675af1906200084362001c58565b917f4af4780e06fe8cb9df64b0794fa6f01399af979175bb988e35e0e57e594567bc60405182151581526040602082015280620008846040820187620018aa565b0390a115620008b6575060165b620008b260405192839260030b8352604060208401526040830190620018aa565b0390f35b6040519150620008c68262001723565b8152601562000891565b5050fd5b503462000159576020366003190112620001595760209060ff906040906001600160a01b0362000903620017da565b168152600484522054166040519015158152f35b503462000159578060031936011262000159576005546040516001600160a01b039091168152602090f35b50346200015957620009543662001808565b9160018060a01b03600754163314801562000ca8575b6200097590620019e3565b6001600160a01b0390811684526006602052604084205416916200099b83151562001a21565b60405190620009aa8262001723565b8482526040519163707a02cd60e11b60208401528260848101918660248301526001600160401b03841660070b604483015260606064830152805180935260a4820192602060a48260051b85010192019389905b82821062000c785750505062000a1e925003601f1981018452836200173f565b848083516020610167950182865af162000a3762001c58565b901562000c5d57805181016060826020830192031262000c595762000a5f6020830162001c8d565b9162000a6e6040820162001c9c565b506060810151906001600160401b03821162000c51570181603f8201121562000c55576020810151906001600160401b03821162000bed57604060208360051b9382519062000ac0838701836200173f565b8152019282010192831162000c5157604001905b82821062000c36575050506016905b60030b0362000c03576007546001600160a01b0390811693169081840362000b09578580f35b6001600160401b039160405194602086019663eca3691760e01b88526024870152604486015260648501521660070b60848301526084825260c08201928284106001600160401b0385111762000bed5784809493819460405251925af162000b7062001c58565b901562000be25760208180518101031262000bde5762000b9560206016920162001c8d565b60030b0362000ba75738808080808580f35b60405162461bcd60e51b815260206004820152600f60248201526e151c985b9cd9995c8819985a5b1959608a1b6044820152606490fd5b5080fd5b506016601562000b95565b634e487b7160e01b600052604160045260246000fd5b60405162461bcd60e51b815260206004820152600b60248201526a135a5b9d0819985a5b195960aa1b6044820152606490fd5b6020809162000c458462001c9c565b81520191019062000ad4565b8880fd5b8780fd5b8680fd5b508460405162000c6d8162001723565b526016601562000ae3565b9193509160208062000c9760019360a3198b82030186528851620018aa565b9601920192018693919492620009fe565b503384526004602052604084205460ff166200096a565b503462000159576020366003190112620001595760043560035481101562000bde5760036000527fc2575a0e9e593c00f959f8c92f12db2869c3395a3b0502d05e2516446f71f85b01546040516001600160a01b039091168152602090f35b50346200015957602036600319011262000159576020906001600160a01b03906040908262000147620017da565b50346200015957602036600319011262000159576020906001600160a01b03906040908262000d7a620017da565b16815260028452205416604051908152f35b503462000159576020366003190112620001595762000daa620017da565b6007546001600160a01b0391908216330362000e2d5716801562000dde576001600160601b0360a01b600554161760055580f35b60405162461bcd60e51b815260206004820152602160248201527f496e76616c696420464344523131353520636f6e7472616374206164647265736044820152607360f81b6064820152608490fd5b60405162461bcd60e51b815260206004820152601260248201527127b7363c903330b1ba37b93c9037bbb732b960711b6044820152606490fd5b503462000159576040366003190112620001595762000e85620017da565b9060018060a01b0380600793818554163314801562000fb9575b62000eaa90620019e3565b1682526020906006825260408320541662000ec781151562001a21565b60405162000ed58162001723565b8381526040519083820192636b48868360e11b8452608483019060248401526001600160401b0360243516870b60448401526060606484015281518091528460a48401920190865b81811062000fa25787878180898962000f40818b03601f1981018352826200173f565b5190826101675af162000f5262001c58565b901562000f965760408180518101031262000f925762000f84604062000f7c601694840162001c8d565b920162001c9c565b505b60030b03620001595780f35b8280fd5b50506016601562000f86565b8251890b8452928601929186019160010162000f1d565b503384526004602052604084205460ff1662000e9f565b503462000159578080620006406200063162000fec3662001840565b604051630aed65f560e11b602082019081526001600160a01b03958616602483015293851660448201529390911660648401526084830152929091829060a4820190565b50346200015957602036600319011262000159576020906001600160a01b0390604090826200105e620017da565b168152600284522054161515604051908152f35b5034620001595780620010853662001808565b6007549193926001600160a01b03928316331480156200112e575b620010ab90620019e3565b826005541691620010be83151562001a6e565b823b156200112a57606492859185604051988997889663ec60bcf360e01b885216600487015216602485015260448401525af180156200074e5762001101575080f35b6001600160401b038111620011165760405280f35b634e487b7160e01b82526041600452602482fd5b8480fd5b503384526004602052604084205460ff16620010a0565b50346200015957604036600319011262000159576001600160401b039060043582811162000bde576200117d903690600401620017b9565b9160243581811162000f925762001199903690600401620017b9565b907f526d3ecc68cb3e004917bddb5b7651caf72e04fd51ca9f2a3040ac3d30810ff5602047604051908152a160405190610120820190811182821017620016d75760405260608152606060208201528260408201526060808201528260808201528260a08201528260c0820152606060e08201526040516200121b81620016eb565b8381528360208201528360408201526101008201528381528160208201523060408201526040516200124d8162001707565b60018152835b60208110620016bd575060e08201526200126c62001af8565b50600483526001602052620012bd60408420546200128962001abb565b306020820152604051916200129e8362001707565b8252602082015260e083015190620012b68262001b1d565b5262001b1d565b50604051620012cc81620016eb565b838152306020820152627864506040820152610100820152604051620012f28162001723565b8381526060820152610100810151805160070b1580620016ad575b6200169d575b508260405191630fb65bf360e01b60208401526060602484015262001390620013666200134f835161016060848801526101e4870190620018aa565b60208401518682036083190160a4880152620018aa565b60408301516001600160a01b031660c486015260608301518582036083190160e4870152620018aa565b906080810151151561010485015260a081015160070b61012485015260c0810151151561014485015260e08101519160831985820301610164860152825180825260208201916020808360051b83010195019286915b8383106200160257505050505083839492604061010062001448940151805160070b61018485015260018060a01b036020820151166101a4850152015160070b6101c48301528460448301526006606483015203601f1981018352826200173f565b602081519101826101675af16200145e62001c58565b9015620015f95760408180518101031262000f92576040620014836020830162001c8d565b9101516001600160a01b038116939084900362000159575060030b5b60030b927f6e4c86be5c5eac20a4a02468d406654c4379a63354d5489345e260bbd96f149b6040519385855260018060a01b031693846020820152608060408201528062001504620014f56080830186620018aa565b828103606084015286620018aa565b0390a1601684036200156e57602093507fb27e36f756b828c5ef4f12a641f47cb2111ddc9cf0076b738e25689462aaaf9762001554849262001563604051928392604084526040840190620018aa565b828103898401523396620018aa565b0390a3604051908152f35b620015f56200157d8562001b2b565b620015d4603760405180937f48545320637265617465206661696c656420636f64653d0000000000000000006020830152620015c3815180926020868601910162001885565b81010360178101845201826200173f565b60405162461bcd60e51b8152602060048201529182916024830190620018aa565b0390fd5b5060156200149f565b91939650919394602080600192601f19858203018652818a5180518352015190604083820152815115156040820152848060a01b038383015116606082015260c06200167962001662604085015160a0608086015260e0850190620018aa565b6060850151848203603f190160a0860152620018aa565b926080878060a01b03910151169101529801930193019092899695949293620013e6565b60406276a7009101523862001313565b50604081015160070b156200130d565b602090620016ca62001af8565b8282850101520162001253565b634e487b7160e01b84526041600452602484fd5b606081019081106001600160401b0382111762000bed57604052565b604081019081106001600160401b0382111762000bed57604052565b602081019081106001600160401b0382111762000bed57604052565b90601f801991011681019081106001600160401b0382111762000bed57604052565b6001600160401b03811162000bed57601f01601f191660200190565b9291926200178b8262001761565b916200179b60405193846200173f565b82948184528183011162000424578281602093846000960137010152565b9080601f830112156200042457816020620017d7933591016200177d565b90565b600435906001600160a01b03821682036200042457565b602435906001600160a01b03821682036200042457565b606090600319011262000424576001600160a01b03906004358281168103620004245791602435908116810362000424579060443590565b608090600319011262000424576001600160a01b0360043581811681036200042457916024358281168103620004245791604435908116810362000424579060643590565b60005b838110620018995750506000910152565b818101518382015260200162001888565b90602091620018c58151809281855285808601910162001885565b601f01601f1916010190565b15620018d957565b60405162461bcd60e51b8152602060048201526014602482015273496e76616c69642075736572206164647265737360601b6044820152606490fd5b156200191d57565b60405162461bcd60e51b815260206004820152601b60248201527f43534c5020746f6b656e206164647265737320726571756972656400000000006044820152606490fd5b6003546801000000000000000081101562000bed576001810180600355811015620019cd5760036000527fc2575a0e9e593c00f959f8c92f12db2869c3395a3b0502d05e2516446f71f85b0180546001600160a01b0319166001600160a01b03909216919091179055565b634e487b7160e01b600052603260045260246000fd5b15620019eb57565b60405162461bcd60e51b815260206004820152600e60248201526d139bdd08185d5d1a1bdc9a5e995960921b6044820152606490fd5b1562001a2957565b60405162461bcd60e51b815260206004820152601d60248201527f43534c5020746f6b656e206e6f7420666f756e6420666f7220706f6f6c0000006044820152606490fd5b1562001a7657565b60405162461bcd60e51b815260206004820152601960248201527f464344523131353520636f6e7472616374206e6f7420736574000000000000006044820152606490fd5b6040519060a082018281106001600160401b0382111762000bed576040526000608083828152826020820152606060408201526060808201520152565b6040519062001b078262001707565b8160008152602062001b1862001abb565b910152565b805115620019cd5760200190565b8060030b91821562001c365760009283811292831562001c2e5750637fffffff19811462001c1a5783035b63ffffffff90811691816060935b1692831562001be157600a90838286061660300184811162001bcd579062001bc5859392604051809360209260ff60f81b9060f81b168383015262001bb481518092602195868601910162001885565b81010360018101845201826200173f565b940462001b64565b634e487b7160e01b88526011600452602488fd5b93925093905050600014620017d757620017d760216040518093602d60f81b602083015262001bb4815180926020868601910162001885565b634e487b7160e01b84526011600452602484fd5b905062001b56565b91505060405162001c478162001707565b60018152600360fc1b602082015290565b3d1562001c88573d9062001c6c8262001761565b9162001c7c60405193846200173f565b82523d6000602084013e565b606090565b51908160030b82036200042457565b51908160070b8203620004245756fe610100346200032c57601f620032b038819003918201601f191683019291906001600160401b0384118385101762000331578160a092849260409687528339810103126200032c57620000528162000347565b6020906200006282840162000347565b9060806200007286860162000347565b93620000816060870162000347565b956001600160a01b0392839162000099910162000347565b169182156200031457600080546001600160a01b031981168517825590939082167f8be0079c531659141344cd1fd0a4f28419497f9722a3daafe3b4186f6b6457e08580a360018055610100600160a81b031960025416600255828052600382526001888420556001835260028884205560028352878060049485828220556003815260088282205585815260108282205560058152848282205560068152205580841615620002d157808516156200028e57808616156200024b57861615620001ff57505060805260a05260c05260e05251612f5390816200035d8239608051818181610341015281816106b90152818161097701528181610fe70152818161133301528181611d910152611ef6015260a0518161118e015260c05181818161087301528181610c5501528181610f2d015281816112bd0152818161164801528181611bd90152818161213d01526121da015260e0518181816116b501526117f30152f35b865162461bcd60e51b815291820152602160248201527f496e76616c696420464344523131353520636f6e7472616374206164647265736044820152607360f81b606482015260849150fd5b875162461bcd60e51b8152808401839052601a60248201527f496e76616c69642043534c5020746f6b656e20616464726573730000000000006044820152606490fd5b875162461bcd60e51b8152808401839052601960248201527f496e76616c696420706f6f6c20757365722061646472657373000000000000006044820152606490fd5b875162461bcd60e51b8152808401839052601760248201527f496e76616c696420666163746f727920616464726573730000000000000000006044820152606490fd5b8751631e4fbdf760e01b815260006004820152602490fd5b600080fd5b634e487b7160e01b600052604160045260246000fd5b51906001600160a01b03821682036200032c5756fe60406080815260048036101561004f575b361561004d576020606492519162461bcd60e51b83528201526012602482015271119d5b98dd1a5bdb881b9bdd08199bdd5b9960721b6044820152fd5b005b6000803560e01c806310ca0bce1461160757806315dacbea146115aa57806321b77d631461158c578063240f1b62146114a1578063250e6de01461128e578063289994371461126f5780632fb9125d1461125257806334111bbf146112315780633474d1f9146111bd5780633e7e516a146111795780633f4ba83a1461112157806342c649de14611100578063545466a514610eff5780635839f07f14610cac5780635962a941146102e15780635c975abb14610edb57806360246c8814610eab578063618dc65e14610d66578063715018a614610d0c5780638456cb5914610cb15780638c58eff114610cac5780638da5cb5b14610c845780639827d47314610c405780639b23d3d914610b985780639d7de6b314610846578063a78c849b1461081f578063aebf3e41146107ed578063b79c41a2146107ca578063bbbaee4c14610786578063be59112914610742578063bf333f2c14610726578063c279a2bc146106e8578063c45a0155146106a4578063c6e5d8f6146105f7578063cf2c03341461059e578063d4c3eea01461057f578063d73792a914610562578063db2e21bc1461047c578063e783402914610300578063ea04f155146102e1578063ef6283d9146102be5763f2fde38b146102295750610010565b9190346102ba5760203660031901126102ba57610244611781565b9061024d6119a2565b6001600160a01b039182169283156102a4575050600054826bffffffffffffffffffffffff60a01b821617600055167f8be0079c531659141344cd1fd0a4f28419497f9722a3daafe3b4186f6b6457e0600080a380f35b51631e4fbdf760e01b8152908101849052602490fd5b8280fd5b5082346102dd57816003193601126102dd576020906005549051908152f35b5080fd5b5082346102dd57816003193601126102dd576020906009549051908152f35b5091346102ba57826003193601126102ba5761031a6119a2565b610322612e43565b479161032f831515612e62565b83546001600160a01b039190859083167f00000000000000000000000000000000000000000000000000000000000000008416803b156102ba5785516395f40f9560e01b8152308582019081526001600160a01b03909316602084015260408301889052918391839182908490829060600103925af180156104725761045a575b50506103bd848254612089565b81556103cb84600654612089565b6006558480808087868254165af16103e1612096565b501561041e5750907f2e4fb6077d4acf86e12bb7411fb82b2b3eaa6a49787f4b1e17b423e7ea84116991845416928151908152426020820152a280f35b606490602084519162461bcd60e51b8352820152601660248201527512109054881dda5d1a191c985dd85b0819985a5b195960521b6044820152fd5b61046390611854565b61046e5784386103b0565b8480fd5b85513d84823e3d90fd5b5091346102ba57826003193601126102ba576104966119a2565b61049e612e43565b47916104ab831515612e62565b6104b6838254612089565b81556104c483600654612089565b60065560018060a01b03908480808087868254165af16104e2612096565b501561051f5750907f2e4fb6077d4acf86e12bb7411fb82b2b3eaa6a49787f4b1e17b423e7ea84116991845416928151908152426020820152a280f35b606490602084519162461bcd60e51b8352820152601b60248201527f456d657267656e6379207769746864726177616c206661696c656400000000006044820152fd5b5082346102dd57816003193601126102dd57602090516127108152f35b5082346102dd57816003193601126102dd576020906006549051908152f35b5082346102dd57806003193601126102dd576105b8611781565b6001600160a01b031682526008602052808220805460243593908410156105f457506020926105e691611974565b91905490519160031b1c8152f35b80fd5b8382346105f457602090816003193601126105f45782906001600160a01b0361061e611781565b16815260088352818120908251808584549182815201908194845286842090845b81811061069057505050816106559103826118d8565b83519485948186019282875251809352850193925b82811061067957505050500390f35b83518552869550938101939281019260010161066a565b82548452928801926001928301920161063f565b5082346102dd57816003193601126102dd57517f00000000000000000000000000000000000000000000000000000000000000006001600160a01b03168152602090f35b5082346102dd5760203660031901126102dd5760209160ff9082906001600160a01b03610713611781565b168152600a855220541690519015158152f35b5082346102dd57816003193601126102dd5760209051601e8152f35b509190346102ba5760203660031901126102ba5735918260030b83036105f4575061076f61078292612236565b9051918291602083526020830190611939565b0390f35b5082346102dd5760203660031901126102dd57610782906107a5611781565b506107ae61213b565b9251918252602082015260408101919091529081906060820190565b5082346102dd576020906107e66107e03661195e565b906120f0565b9051908152f35b5060803660031901126105f457610802611a4d565b61080a611a2f565b610818604435602435611bce565b6001805580f35b5082346102dd5760203660031901126102dd5760209061083d611781565b506107e66121d8565b5091346102ba576108563661195e565b919092610861611a4d565b610869611a2f565b6001600160a01b037f0000000000000000000000000000000000000000000000000000000000000000811661089f8115156119ce565b8515610b5c576005548015610b225783546108cf6108c6836108c1848c612076565b611a0f565b97881015612036565b478711610adf576108ec916108e5888a93612089565b8655612089565b6005556108fb85600654612089565b6006556007918767ffffffffffffffff8816840b9183875161091c81611884565b838152885190898201978683526020988b8a8501528251809152896060850193019187905b8b838310610ab857505050505090807fb310aaac57f9a89f4e3661e38cb8df5ea9428b82d1bb2b8ab6a77c3f52818f02920390a27f000000000000000000000000000000000000000000000000000000000000000016803b156102dd5781809160448b8a519485938492625a321960e61b8452308d85015260248401525af18015610aae5790879291610a93575b50507f7b2f31b2ffda9d7a1ac640400c8f7eb1c8d0071689111f45797448a14697587c9181519081528985820152a28580808087335af1610a0e612096565b5015610a5c57505051908152602081019190915242604082015233907f1dc8bb69df2b8e91fbdcbfcf93d951b3f0000f085a95fe3f7946d6161439245d9080606081015b0390a26001805580f35b606492519162461bcd60e51b8352820152601460248201527312109054881d1c985b9cd9995c8819985a5b195960621b6044820152fd5b610a9e919250611854565b610aaa578488386109cf565b8780fd5b87513d84823e3d90fd5b91946001939698995084839295985051850b81520195019201928e96959389959392610941565b855162461bcd60e51b8152602081870152601960248201527f496e73756666696369656e74204842415220696e20706f6f6c000000000000006044820152606490fd5b845162461bcd60e51b81526020818601526014602482015273139bc81b1a5c5d5a591a5d1e481a5b881c1bdbdb60621b6044820152606490fd5b835162461bcd60e51b81526020818501526016602482015275139bc81314081d1bdad95b9cc81cdc1958da599a595960521b6044820152606490fd5b5082346102dd578180602093610c03610bf5610bb33661179c565b8951639b23d3d960e01b8c82019081526001600160a01b03958616602483015293851660448201529390911660648401526084830152929091829060a4820190565b03601f1981018352826118d8565b5190826101675af1610c13612096565b915015610c3757808380610c2c93518301019101612ea4565b905b519060030b8152f35b50601590610c2e565b5082346102dd57816003193601126102dd57517f00000000000000000000000000000000000000000000000000000000000000006001600160a01b03168152602090f35b5082346102dd57816003193601126102dd57905490516001600160a01b039091168152602090f35b6117dd565b5082346102dd57816003193601126102dd5760207f62e78cea01bee320cd4e420270b5ea74000d11b0c9f74754ebdbfc544b05a25891610cef6119a2565b610cf7611a2f565b600160ff19600254161760025551338152a180f35b50346105f457806003193601126105f457610d256119a2565b600080546001600160a01b0319811682556001600160a01b03167f8be0079c531659141344cd1fd0a4f28419497f9722a3daafe3b4186f6b6457e08280a380f35b5090346102dd57826003193601126102dd57610d80611781565b906024359067ffffffffffffffff8211610ea75736602383011215610ea757810135610dab816118fa565b91610db8865193846118d8565b818352366024838301011161046e57610e18859492938560208682976024610bf59701838601378301015287516330c6e32f60e11b602082019081526001600160a01b039095166024820152604481018990529283916064830190611939565b5190826101675af190610e29612096565b917f4af4780e06fe8cb9df64b0794fa6f01399af979175bb988e35e0e57e594567bc8451821515815285602082015280610e6587820187611939565b0390a115610e8d57506107826016915b835193849360030b8452806020850152830190611939565b82519150610e9a82611884565b8152610782601591610e75565b8380fd5b50346105f457806003193601126105f4575054600554600654925191825260208201526040810191909152606090f35b5082346102dd57816003193601126102dd5760209060ff6002541690519015158152f35b509160603660031901126102ba57813590602435610f1b611a4d565b610f23611a2f565b6001600160a01b037f0000000000000000000000000000000000000000000000000000000000000000811693909190610f5d8515156119ce565b600554156110c6578691610f9191610f76341515611a70565b610f81811515611aaf565b610f8c821515611b05565b6120f0565b94610fa0604435871015612036565b610fab348254611bc1565b8155610fb934600654611bc1565b60065567ffffffffffffffff861660070b92845184815286600080516020612ebe83398151915260203393a37f000000000000000000000000000000000000000000000000000000000000000016803b156102ba578451632193fc1360e11b81523092810192835233602084015260408301889052918391839182908490829060600103925af180156110bc576110a8575b5050600080516020612efe8339815191529261106985600554611bc1565b6005558251918252856020830152600080516020612ede833981519152833393a351348152602081019290925242604083015233918060608101610a52565b6110b190611854565b61046e57843861104b565b84513d84823e3d90fd5b835162461bcd60e51b81526020818801526014602482015273141bdbdb081b9bdd081a5b9a5d1a585b1a5e995960621b6044820152606490fd5b508290346105f45760203660031901126105f457506107e6602092356120c6565b5082346102dd57816003193601126102dd5760207f5db9ee0a495bf2e6ff9c91a7834c1ba4fdd244a5e8aa4e537bd38aeae4b073aa9161115f6119a2565b611167612e43565b60ff196002541660025551338152a180f35b5082346102dd57816003193601126102dd57517f00000000000000000000000000000000000000000000000000000000000000006001600160a01b03168152602090f35b5091346102ba5760203660031901126102ba578060e09383358152600760205220805492600182015492600283015460038401549160018060a01b03809486015416936006816005880154169601541695815197885260208801528601526060850152608084015260a083015260c0820152f35b508290346105f45760203660031901126105f457506107e660209235612122565b5082346102dd57816003193601126102dd576020906107e66121ba565b509190346102ba57826003193601126102ba5760209250549051908152f35b5090816003193601126102dd576112a36119a2565b6112ab611a4d565b6112b3611a2f565b6001600160a01b037f0000000000000000000000000000000000000000000000000000000000000000811693906112eb8515156119ce565b60055461145e57620186a0341061141b5734835534600655606434049267ffffffffffffffff841660070b91835183815287600080516020612ebe83398151915260203393a37f00000000000000000000000000000000000000000000000000000000000000001690813b15611417578351632193fc1360e11b8152309181019182523360208301526040820186905291869183919082908490829060600103925af1801561140d576113ec575b50829394600080516020612efe833981519152936005558251918252856020830152600080516020612ede833981519152833393a351348152602081019290925242604083015233918060608101610a52565b93611406600080516020612efe8339815191529495611854565b9392611399565b83513d87823e3d90fd5b8580fd5b815162461bcd60e51b8152602081850152601e60248201527f496e73756666696369656e7420696e697469616c206c697175696469747900006044820152606490fd5b815162461bcd60e51b8152602081850152601860248201527f506f6f6c20616c726561647920696e697469616c697a656400000000000000006044820152606490fd5b5091346102ba5760203660031901126102ba57808360e09460c083516114c681611822565b82815282602082015282858201528260608201528260808201528260a0820152015283358152600760205220918151906114ff82611822565b8354938483526001810154916020840192835260028201549285850193845260038301546060860190815260018060a01b0396879586809587015416936080890194855260c08660068160058b0154169960a08d019a8b52015416990198895282519a8b525160208b0152519089015251606088015251166080860152511660a0840152511660c0820152f35b5082346102dd57816003193601126102dd5760209051620186a08152f35b5082346102dd578180602093610c03610bf56115c53661179c565b8951630aed65f560e11b8c82019081526001600160a01b03958616602483015293851660448201529390911660648401526084830152929091829060a4820190565b5091346102ba57826003193601126102ba576116216119a2565b8051916020908184019263248a35ef60e11b8452306024860152858060018060a01b0395867f000000000000000000000000000000000000000000000000000000000000000016978860448201526044815261167c81611868565b5190826101675af161168c612096565b9015611779578084806116a493518301019101612ea4565b60030b601681036116fd57505050507f000000000000000000000000000000000000000000000000000000000000000016907f650590083355aaffaa2fa0c2195838842f2b6d5ea01c067f5e128066ea40f15c8380a380f35b9061170a61177592612236565b9061175b603f825180947f43534c5020746f6b656e206173736f63696174696f6e206661696c65643a20008983015261174b815180928b8686019101611916565b810103601f8101855201836118d8565b5193849362461bcd60e51b85528401526024830190611939565b0390fd5b5060156116a4565b600435906001600160a01b038216820361179757565b600080fd5b6080906003190112611797576001600160a01b0360043581811681036117975791602435828116810361179757916044359081168103611797579060643590565b34611797576000366003190112611797576040517f00000000000000000000000000000000000000000000000000000000000000006001600160a01b03168152602090f35b60e0810190811067ffffffffffffffff82111761183e57604052565b634e487b7160e01b600052604160045260246000fd5b67ffffffffffffffff811161183e57604052565b6080810190811067ffffffffffffffff82111761183e57604052565b6020810190811067ffffffffffffffff82111761183e57604052565b6040810190811067ffffffffffffffff82111761183e57604052565b6060810190811067ffffffffffffffff82111761183e57604052565b90601f8019910116810190811067ffffffffffffffff82111761183e57604052565b67ffffffffffffffff811161183e57601f01601f191660200190565b60005b8381106119295750506000910152565b8181015183820152602001611919565b9060209161195281518092818552858086019101611916565b601f01601f1916010190565b6040906003190112611797576004359060243590565b805482101561198c5760005260206000200190600090565b634e487b7160e01b600052603260045260246000fd5b6000546001600160a01b031633036119b657565b60405163118cdaa760e01b8152336004820152602490fd5b156119d557565b60405162461bcd60e51b815260206004820152601260248201527110d4d314081d1bdad95b881b9bdd081cd95d60721b6044820152606490fd5b8115611a19570490565b634e487b7160e01b600052601260045260246000fd5b60ff60025416611a3b57565b60405163d93c066560e01b8152600490fd5b600260015414611a5e576002600155565b604051633ee5aeb560e01b8152600490fd5b15611a7757565b60405162461bcd60e51b815260206004820152601060248201526f139bc812109054881c1c9bdd9a59195960821b6044820152606490fd5b15611ab657565b60405162461bcd60e51b815260206004820152602160248201527f55534420616d6f756e74206d7573742062652067726561746572207468616e206044820152600360fc1b6064820152608490fd5b15611b0c57565b60405162461bcd60e51b815260206004820152602860248201527f4d617475726174696f6e20616d6f756e74206d75737420626520677265617465604482015267072207468616e20360c41b6064820152608490fd5b80546801000000000000000081101561183e57611b8491600182018155611974565b819291549060031b91821b91600019901b1916179055565b6000198114611bab5760010190565b634e487b7160e01b600052601160045260246000fd5b91908201809211611bab57565b906001600160a01b037f000000000000000000000000000000000000000000000000000000000000000081169160009190611c0a8415156119ce565b611c15341515611a70565b611c20851515611aaf565b611c2b811515611b05565b600594855415611ea15790611c3f916120f0565b92611c4c34600454611bc1565b600455611c5b34600654611bc1565b600655338352602091600a835260409460ff8686205416600014611e945762ffffff855b16968780611d72575b9386846006600895898c9b98611d4a9b978d9b600080516020612efe8339815191529f5194611cb686611822565b3486528d8587019042825280880192835260608801938452608088019a338c52600760a08a0198308a5260c08b019e8f5260095483525220965187555160018701555160028601555160038501558160048501975116966bffffffffffffffffffffffff60a01b97888254161790558301915116858254161790550192511690825416179055338352522060095490611b62565b611d55600954611b9c565b6009555134815260208101929092524260408301523391606090a2565b60070b875181815285600080516020612ebe833981519152883393a3837f000000000000000000000000000000000000000000000000000000000000000016803b15610aaa578851632193fc1360e11b8152306004820152336024820152604481018b90529088908290606490829084905af18015611e8a57908a9291611e6d575b5096846006600895898498611d4a9b978b97600080516020612efe8339815191529f9e8f9d600080516020612ede8339815191528f338c52600a8852808c20600160ff19825416179055611e49858754611bc1565b865580519384528b888501523393a3979b5097505099509550509450969750611c88565b88919250611e7a90611854565b611e8657889038611df4565b8680fd5b89513d8a823e3d90fd5b62ffffff620f4240611c7f565b949092913460045534600655338352602091600a835260409460ff86862054166000146120295762ffffff855b1697888015611ffa5760070b875181815289600080516020612ebe833981519152883393a3847f000000000000000000000000000000000000000000000000000000000000000016803b15610aaa578851632193fc1360e11b8152306004820152336024820152604481018c90529088908290606490829084905af18015611e8a57908b9594939291611fcd575b5094600660089588838c9a97611fc0600080516020612efe8339815191529f988e9c98611d4a9f998f600080516020612ede833981519152818e928e338152600a8c5220600160ff198254161790558a885580519384528d8a8501523393a36120f0565b938c5194611cb686611822565b869195888b9996988a998e979e969c611fe68c96611854565b9c9650975050985095919650999299611f5c565b95846006611d4a9888849888611fc0600080516020612efe8339815191529f98998f9d9a600160089d556120f0565b62ffffff620f4240611ece565b1561203d57565b60405162461bcd60e51b815260206004820152601160248201527014db1a5c1c1859d948195e18d959591959607a1b6044820152606490fd5b81810292918115918404141715611bab57565b91908203918211611bab57565b3d156120c1573d906120a7826118fa565b916120b560405193846118d8565b82523d6000602084013e565b606090565b6005549081156120e9576120e6916120dd91612076565b60045490611a0f565b90565b5050600090565b9081156120fd8115611aaf565b612108821515611b05565b620f4240808402938404141715611bab576120e691611a0f565b60055480156120e9576108c16120e69260045490612076565b7f00000000000000000000000000000000000000000000000000000000000000006001600160a01b0316156121af5760055460009181156121a457612186826108c160045486612076565b9161271090818502918583041485151715611bab576120e691611a0f565b600092508291508190565b600090600090600090565b60055480156121d2576120e690606460065404611a0f565b50600090565b7f00000000000000000000000000000000000000000000000000000000000000006001600160a01b031615801561222c575b612227576006541560011715611bab5760055415611a1957600090565b600090565b506005541561220a565b8060030b9060168214612d3e5760098214612ce957600a8214612c885760078214612c3057600f8214612bcf5760108214612b6e57601e8214612b205760228214612abf57606f8214612a705760aa8214612a0f5760ab82146129bd5760ae82146129695760af82146129085760be82146128b85760bf821461285f5760a882146127fe5760a9821461279d5760bd821461274f57609b821461270357601a82146126b957601b821461266f5760268214612616576040918281146125bf57604181146125535761011781146124fb57610145811461249c57610146811461243d5761014781146123d4576101481461238057603361233d63ffffffff6120e69316612d63565b9251809372554e4b4e4f574e5f4552524f525f434f44455f60681b60208301526123708151809260208686019101611916565b81010360138101845201826118d8565b5072206d616e79206368696c64207265636f72647360681b8151916123a4836118bc565b603383527f4d41585f4348494c445f5245434f5244535f4558434545444544202d20546f6f602084015282015290565b50507f6666696369656e742062616c616e636520666f722073746f726167652072656e81519161240383611868565b604183527f494e53554646494349454e545f53544f524147455f52454e54202d20496e73756020840152820152601d60fa1b606082015290565b50507f6e76616c6964207369676e617475726520666f7220707265636f6d70696c650081519161246c836118bc565b603f83527f494e56414c49445f505245434f4d50494c455f5349474e4154555245202d2049602084015282015290565b50507f6e74697469657320696e20707269636520726567696d652072656163686564008151916124cb836118bc565b603f83527f4d41585f454e5449544945535f43524541544544202d204d6178696d756d2065602084015282015290565b5050751cdd5cc81b9bd9194819d85cc8195e1a185d5cdd195960521b815191612523836118bc565b603683527f434f4e53454e5355535f4741535f455848415553544544202d20436f6e73656e602084015282015290565b50507f616e73616374696f6e2068617320746f6f206d616e79206e6573746564206c6181519161258283611868565b604483527f5452414e53414354494f4e5f544f4f5f4d414e595f4c4159455253202d2054726020840152820152637965727360e01b606082015290565b5050741bdb88195e18d959591cc81cda5e99481b1a5b5a5d605a1b8151916125e6836118bc565b603583527f5452414e53414354494f4e5f4f56455253495a45202d205472616e7361637469602084015282015290565b5050604051612624816118bc565b603581527f494e56414c49445f4b45595f454e434f44494e47202d204b657920656e636f646020820152741a5b99c8199bdc9b585d081a5cc81a5b9d985b1a59605a1b604082015290565b505060405161267d816118bc565b602681527f4241445f454e434f44494e47202d204b657920656e636f64696e6720697320696020820152651b9d985b1a5960d21b604082015290565b50506040516126c7816118bc565b602681527f4b45595f5245515549524544202d205265717569726564206b6579206973206d602082015265697373696e6760d01b604082015290565b5050604051612711816118bc565b602881527f494e56414c49445f41444d494e5f4b4559202d2041646d696e206b6579206973602082015267081a5b9d985b1a5960c21b604082015290565b505060405161275d816118bc565b602a81527f494e56414c49445f535550504c595f4b4559202d20537570706c79206b6579206020820152691a5cc81a5b9d985b1a5960b21b604082015290565b50506040516127ab816118bc565b603e81527f494e56414c49445f544f4b454e5f494e495449414c5f535550504c59202d204960208201527f6e697469616c20737570706c792076616c756520697320696e76616c69640000604082015290565b505060405161280c816118bc565b603881527f494e56414c49445f544f4b454e5f444543494d414c53202d20546f6b656e206460208201527f6563696d616c732076616c756520697320696e76616c69640000000000000000604082015290565b505060405161286d816118bc565b603581527f544f4b454e5f4e414d455f544f4f5f4c4f4e47202d20546f6b656e206e616d6560208201527408195e18d959591cc81b195b99dd1a081b1a5b5a5d605a1b604082015290565b50506040516128c6816118bc565b602c81527f4d495353494e475f544f4b454e5f4e414d45202d20546f6b656e206e616d652060208201526b1b9bdd081c1c9bdd9a59195960a21b604082015290565b5050604051612916816118bc565b603981527f544f4b454e5f53594d424f4c5f544f4f5f4c4f4e47202d20546f6b656e20737960208201527f6d626f6c2065786365656473206c656e677468206c696d697400000000000000604082015290565b5050604051612977816118bc565b603081527f4d495353494e475f544f4b454e5f53594d424f4c202d20546f6b656e2073796d60208201526f189bdb081b9bdd081c1c9bdd9a59195960821b604082015290565b50506040516129cb816118bc565b602e81527f494e56414c49445f544f4b454e5f53594d424f4c202d20546f6b656e2073796d60208201526d189bdb081a5cc81a5b9d985b1a5960921b604082015290565b5050604051612a1d816118bc565b603d81527f494e56414c49445f54524541535552595f4143434f554e545f464f525f544f4b60208201527f454e202d205472656173757279206163636f756e7420696e76616c6964000000604082015290565b5050604051612a7e816118bc565b602b81527f4d41585f4741535f4c494d49545f4558434545444544202d20476173206c696d60208201526a1a5d08195e18d95959195960aa1b604082015290565b5050604051612acd816118bc565b603881527f434f4e54524143545f455845435554494f4e5f455843455054494f4e202d204360208201527f6f6e747261637420657865637574696f6e206661696c65640000000000000000604082015290565b5050604051612b2e816118bc565b602a81527f494e53554646494349454e545f474153202d204e6f7420656e6f7567682067616020820152691cc81cdd5c1c1b1a595960b21b604082015290565b5050604051612b7c816118bc565b603e81527f494e56414c49445f434f4e54524143545f4944202d20436f6e7472616374204960208201527f4420697320696e76616c6964206f7220646f6573206e6f742065786973740000604082015290565b5050604051612bdd816118bc565b603c81527f494e56414c49445f4143434f554e545f4944202d204163636f756e742049442060208201527f697320696e76616c6964206f7220646f6573206e6f7420657869737400000000604082015290565b5050604051612c3e816118bc565b603481527f494e56414c49445f5349474e4154555245202d205472616e73616374696f6e206020820152731cda59db985d1d5c99481a5cc81a5b9d985b1a5960621b604082015290565b5050604051612c96816118bc565b604081527f494e53554646494349454e545f50415945525f42414c414e4345202d2050617960208201527f6572206163636f756e742068617320696e73756666696369656e742048424152604082015290565b5050604051612cf7816118bc565b603181527f494e53554646494349454e545f54585f464545202d204e6f7420656e6f7567686020820152700819d85ccbd99959481c1c9bdd9a591959607a1b604082015290565b5050604051612d4c816118a0565b60078152665355434345535360c81b602082015290565b8015612e255780816000925b612e115750612d7d826118fa565b91612d8b60405193846118d8565b80835281601f19612d9b836118fa565b01916020923684870137925b612db15750505090565b6000198301928311611bab5782600a80830492818402918483041484151715611bab57612de160ff928392612089565b16603001908111611bab57855182101561198c5760f81b6001600160f81b03191660001a90850183015380612da7565b91612e1d600a91611b9c565b920480612d6f565b50604051612e32816118a0565b60018152600360fc1b602082015290565b60ff6002541615612e5057565b604051638dfc202b60e01b8152600490fd5b15612e6957565b60405162461bcd60e51b81526020600482015260136024820152724e6f204842415220746f20776974686472617760681b6044820152606490fd5b9081602091031261179757518060030b8103611797579056feb7555d949a897acb395f95e3f2df8b700519404826bb13cd6526b756f6a1c907ad91542866f4da9ebed5a2b1713258f4bf970f84e7b2a0b8aab2de28d11ffffd64b83944e79c3ce8d4c297411de637c3e102d064677aac0c163976ebdcd6f50ea2646970667358221220c85cfbfd53d887ff1fda5fe926f941e077b7bab04f55548811e61aa27d4e4f2d64736f6c63430008140033a2646970667358221220d50ae43b9374b1fbcb6c04c43ab2f7d4b0489eb1ecd8d600a86404d325a87fb864736f6c63430008140033",
  "linkReferences": {},
  "deployedLinkReferences": {}
}