{
  "_format": "hh-sol-artifact-1",
  "contractName": "ClearSkyFactory",
  "sourceName": "contracts/ClearSkyFactory.sol",
  "abi": [
    {
      "inputs": [],
      "stateMutability": "nonpayable",
      "type": "constructor"
    },
    {
      "anonymous": false,
      "inputs": [
        {
          "indexed": false,
          "internalType": "bool",
          "name": "",
          "type": "bool"
        },
        {
          "indexed": false,
          "internalType": "bytes",
          "name": "",
          "type": "bytes"
        }
      ],
      "name": "CallResponseEvent",
      "type": "event"
    },
    {
      "anonymous": false,
      "inputs": [
        {
          "indexed": true,
          "internalType": "address",
          "name": "previousOwner",
          "type": "address"
        },
        {
          "indexed": true,
          "internalType": "address",
          "name": "newOwner",
          "type": "address"
        }
      ],
      "name": "OwnershipTransferred",
      "type": "event"
    },
    {
      "anonymous": false,
      "inputs": [
        {
          "indexed": true,
          "internalType": "address",
          "name": "user",
          "type": "address"
        },
        {
          "indexed": true,
          "internalType": "address",
          "name": "poolAddress",
          "type": "address"
        },
        {
          "indexed": false,
          "internalType": "uint256",
          "name": "poolIndex",
          "type": "uint256"
        }
      ],
      "name": "PoolCreated",
      "type": "event"
    },
    {
      "inputs": [
        {
          "internalType": "uint256",
          "name": "",
          "type": "uint256"
        }
      ],
      "name": "allPools",
      "outputs": [
        {
          "internalType": "address",
          "name": "",
          "type": "address"
        }
      ],
      "stateMutability": "view",
      "type": "function"
    },
    {
      "inputs": [
        {
          "internalType": "uint256",
          "name": "amount",
          "type": "uint256"
        }
      ],
      "name": "burnCSLP",
      "outputs": [],
      "stateMutability": "nonpayable",
      "type": "function"
    },
    {
      "inputs": [],
      "name": "createCSLPToken",
      "outputs": [],
      "stateMutability": "payable",
      "type": "function"
    },
    {
      "inputs": [],
      "name": "createFCDRToken",
      "outputs": [],
      "stateMutability": "payable",
      "type": "function"
    },
    {
      "inputs": [
        {
          "internalType": "address",
          "name": "user",
          "type": "address"
        }
      ],
      "name": "createUserPool",
      "outputs": [
        {
          "internalType": "address",
          "name": "",
          "type": "address"
        }
      ],
      "stateMutability": "nonpayable",
      "type": "function"
    },
    {
      "inputs": [],
      "name": "cslpToken",
      "outputs": [
        {
          "internalType": "address",
          "name": "",
          "type": "address"
        }
      ],
      "stateMutability": "view",
      "type": "function"
    },
    {
      "inputs": [],
      "name": "fcdrToken",
      "outputs": [
        {
          "internalType": "address",
          "name": "",
          "type": "address"
        }
      ],
      "stateMutability": "view",
      "type": "function"
    },
    {
      "inputs": [],
      "name": "getAllPools",
      "outputs": [
        {
          "internalType": "address[]",
          "name": "",
          "type": "address[]"
        }
      ],
      "stateMutability": "view",
      "type": "function"
    },
    {
      "inputs": [
        {
          "internalType": "address",
          "name": "user",
          "type": "address"
        }
      ],
      "name": "getUserPool",
      "outputs": [
        {
          "internalType": "address",
          "name": "",
          "type": "address"
        }
      ],
      "stateMutability": "view",
      "type": "function"
    },
    {
      "inputs": [
        {
          "internalType": "address",
          "name": "user",
          "type": "address"
        }
      ],
      "name": "hasPool",
      "outputs": [
        {
          "internalType": "bool",
          "name": "",
          "type": "bool"
        }
      ],
      "stateMutability": "view",
      "type": "function"
    },
    {
      "inputs": [
        {
          "internalType": "address",
          "name": "",
          "type": "address"
        }
      ],
      "name": "isPool",
      "outputs": [
        {
          "internalType": "bool",
          "name": "",
          "type": "bool"
        }
      ],
      "stateMutability": "view",
      "type": "function"
    },
    {
      "inputs": [
        {
          "internalType": "address",
          "name": "user",
          "type": "address"
        },
        {
          "internalType": "uint256",
          "name": "amount",
          "type": "uint256"
        }
      ],
      "name": "mintCSLP",
      "outputs": [],
      "stateMutability": "nonpayable",
      "type": "function"
    },
    {
      "inputs": [
        {
          "internalType": "address",
          "name": "poolAddress",
          "type": "address"
        }
      ],
      "name": "mintFCDR",
      "outputs": [],
      "stateMutability": "nonpayable",
      "type": "function"
    },
    {
      "inputs": [],
      "name": "owner",
      "outputs": [
        {
          "internalType": "address",
          "name": "",
          "type": "address"
        }
      ],
      "stateMutability": "view",
      "type": "function"
    },
    {
      "inputs": [
        {
          "internalType": "address",
          "name": "token",
          "type": "address"
        },
        {
          "internalType": "bytes",
          "name": "encodedFunctionSelector",
          "type": "bytes"
        }
      ],
      "name": "redirectForToken",
      "outputs": [
        {
          "internalType": "int256",
          "name": "responseCode",
          "type": "int256"
        },
        {
          "internalType": "bytes",
          "name": "response",
          "type": "bytes"
        }
      ],
      "stateMutability": "nonpayable",
      "type": "function"
    },
    {
      "inputs": [
        {
          "internalType": "address",
          "name": "token",
          "type": "address"
        },
        {
          "internalType": "address",
          "name": "from",
          "type": "address"
        },
        {
          "internalType": "address",
          "name": "to",
          "type": "address"
        },
        {
          "internalType": "uint256",
          "name": "amount",
          "type": "uint256"
        }
      ],
      "name": "transferFrom",
      "outputs": [
        {
          "internalType": "int64",
          "name": "responseCode",
          "type": "int64"
        }
      ],
      "stateMutability": "nonpayable",
      "type": "function"
    },
    {
      "inputs": [
        {
          "internalType": "address",
          "name": "token",
          "type": "address"
        },
        {
          "internalType": "address",
          "name": "from",
          "type": "address"
        },
        {
          "internalType": "address",
          "name": "to",
          "type": "address"
        },
        {
          "internalType": "uint256",
          "name": "serialNumber",
          "type": "uint256"
        }
      ],
      "name": "transferFromNFT",
      "outputs": [
        {
          "internalType": "int64",
          "name": "responseCode",
          "type": "int64"
        }
      ],
      "stateMutability": "nonpayable",
      "type": "function"
    },
    {
      "inputs": [
        {
          "internalType": "address",
          "name": "",
          "type": "address"
        }
      ],
      "name": "userPools",
      "outputs": [
        {
          "internalType": "address",
          "name": "",
          "type": "address"
        }
      ],
      "stateMutability": "view",
      "type": "function"
    }
  ],
  "bytecode": "0x60806040818152346100af5760018060a01b03196000918183541683558280526001602052600181842055600183526002818420556002835260048184205560038352600881842055600483526010818420556005835260208184205560068352808320553381600754161760075580600554166005556006541660065533907f8be0079c531659141344cd1fd0a4f28419497f9722a3daafe3b4186f6b6457e08180a361529a90816100b58239f35b600080fdfe6080806040526004803610156200001557600080fd5b60003560e01c9182630a5579d114620016b357508163107a4802146200149a5781631246dbf5146200167257816315dacbea14620016125781631fe4ff2914620014d957816333049e0e146200149a57816341d1de97146200145557816353b4fd0814620010ab5781635b16ebb7146200106a578163618dc65e1462000f09578163772516c31462000cc95781638da5cb5b1462000c9e5781639827d4731462000c735781639b23d3d91462000bb85781639cac984c146200096f578163bb81c87514620006d2578163bc031c5214620001cf575063d88ff1f414620000fa57600080fd5b34620001ca576000366003190112620001ca57604051806003548083526020809301809160036000527fc2575a0e9e593c00f959f8c92f12db2869c3395a3b0502d05e2516446f71f85b9060005b86828210620001ac5786866200016182880383620017ed565b604051928392818401908285525180915260408401929160005b8281106200018b57505050500390f35b83516001600160a01b0316855286955093810193928101926001016200017b565b83546001600160a01b03168552909301926001928301920162000148565b600080fd5b6000366003190112620001ca57620001f360018060a01b036007541633146200186d565b6006546001600160a01b03166200068e576200020e62001905565b906040516200021d8162001783565b600a815269233aba3ab9329021a22960b11b60208201528252604051620002448162001783565b818152632321a22960e11b6020820152602083015230604083015260405160808101906001600160401b0391818110838211176200067957604052604c81527f4e6f6e2d7472616461626c6520746f6b656e20726570726573656e74696e672060208201527f656d657267656e63792048424152207769746864726177616c2066726f6d204360408201526b1b19585c94dade481c1bdbdb60a21b60608201526060840152604051916060830191838310908311176200066457506040526002815260005b604081106200064a575060e08201526200033f620003273062001a6a565b60e0830151906200033882620019f8565b52620019f8565b506200034a620019d3565b50600360005260016020527f7dfe757ecd65cbd7922a9c0161e935dd7fdbcc0e999689c7d31633896b1fc60b54620003ba906200038662001996565b306020820152604051916200039b8362001783565b8252602082015260e083015190620003b38262001a06565b5262001a06565b50610100810151805160070b15806200063a575b6200062a575b50604051630fb65bf360e01b6020820152606060248201526200044f620004256200040e845161016060848601526101e48501906200182b565b60208501518482036083190160a48601526200182b565b60408401516001600160a01b031660c484015260608401518382036083190160e48501526200182b565b916080810151151561010483015260a081015160070b61012483015260c0810151151561014483015260e08101519260831983820301610164840152835180825260208201916020808360051b8301019601926000915b83831062000595576000808862000504818c60406101008d0151805160070b61018485015260018060a01b036020820151166101a4850152015160070b6101c483015284604483015284606483015203601f198101835282620017ed565b602081519101346101675af16200051a62001a17565b90156200058857604081805181010312620001ca5760406200053f6020830162001a4c565b9101516001600160a01b0381169190829003620001ca5760169060030b5b60030b03620001ca57600680546001600160a01b0319166001600160a01b0392909216919091179055005b506000601660156200055d565b9091929396602080600192601f19858203018652818b5180518352015190604083820152815115156040820152848060a01b038383015116606082015260c06200060a620005f3604085015160a0608086015260e08501906200182b565b6060850151848203603f190160a08601526200182b565b926080878060a01b039101511691015299019301930191939290620004a6565b60406276a70091015281620003d4565b50604081015160070b15620003ce565b60209062000657620019d3565b8282850101520162000309565b604190634e487b7160e01b6000525260246000fd5b604184634e487b7160e01b6000525260246000fd5b60649060206040519162461bcd60e51b8352820152601a60248201527f4643445220746f6b656e20616c726561647920637265617465640000000000006044820152fd5b34620001ca576040366003190112620001ca57620006ef620016d9565b60075490916001600160a01b039182163314801562000954575b620007159150620018af565b6001600160401b0391826024351660070b91806005541690604051946200073c86620017b5565b600086526040516020968782019463707a02cd60e11b86526084830190602484015287604484015260606064840152815180915260a48301908960a48260051b8601019301916000905b8b8383106200092857505050505081620007ad600093849303601f198101835282620017ed565b516101679582875af190620007c162001a17565b91156200090b578151820190606083898401930312620001ca57620007e888840162001a4c565b92620007f76040820162001a5b565b506060810151918211620001ca570181603f82011215620001ca57878101516040896200082483620018ed565b6200083283519182620017ed565b838152019160051b830101928311620001ca576040899201905b838210620008f157505050506016905b60030b03620001ca5760008094938194836005541693604051928984019563eca3691760e01b87526024850152306044850152166064830152608482015260848152620008a981620017d1565b51925af1620008b762001a17565b9015620008e5578181805181010312620001ca57601691620008da910162001a4c565b60030b03620001ca57005b505060166015620008da565b828091620008ff8462001a5b565b8152019101906200084c565b505060006040516200091d81620017b5565b52601660156200085c565b80620009456001939495969760a3198a820301865288516200182b565b96019201920190929162000786565b50336000526020526200071560ff6040600020541662000709565b34620001ca5760209081600319360112620001ca576200098e620016d9565b6007546001600160a01b03929083163314801562000b9e575b620009b39150620018af565b81600654169160405190620009c882620017b5565b600082526040518581019263707a02cd60e11b84526084820195602483015260019586604484015260606064840152815180915260a48301908860a48260051b8601019301916000905b898b84841062000b73575050505050508162000a3b600093849303601f198101835282620017ed565b516101679482865af162000a4e62001a17565b901562000b575780518101606082888301920312620001ca5762000a7487830162001a4c565b9162000a836040820162001a5b565b506060810151906001600160401b038211620001ca570181603f82011215620001ca578781015160408962000ab883620018ed565b62000ac683519182620017ed565b838152019160051b830101928311620001ca576040899201905b83821062000b3d57505050506016905b60030b03620001ca5760008094938194836006541693604051928984019563eca3691760e01b87526024850152306044850152166064830152608482015260848152620008a981620017d1565b82809162000b4b8462001a5b565b81520191019062000ae0565b50600060405162000b6881620017b5565b526016601562000af0565b62000b8f8192939495969760a3198a820301865288516200182b565b96019201920190929162000a12565b50336000528352620009b360ff60406000205416620009a7565b34620001ca5760008062000c2762000c1862000bd436620016f0565b604051639b23d3d960e01b602082019081526001600160a01b03958616602483015293851660448201529390911660648401526084830152929091829060a4820190565b03601f198101835282620017ed565b5190826101675af162000c3962001a17565b901562000c6857602081805181010312620001ca5762000c5d602080920162001a4c565b6040519060030b8152f35b506020601562000c5d565b34620001ca576000366003190112620001ca576005546040516001600160a01b039091168152602090f35b34620001ca576000366003190112620001ca576007546040516001600160a01b039091168152602090f35b34620001ca5760209081600319360112620001ca5762000ce8620016d9565b6007546001600160a01b039290831691839062000d073385146200186d565b1691821562000ece578260005260028552836040600020541662000e8a5783600554168460065416916040519261378f92838501938585106001600160401b0386111762000e75579185939160a0959362001ad68639308452888b8501526040840152606083015260808201520301906000f0801562000e695783169282600052600285526040600020846bffffffffffffffffffffffff60a01b8254161790556003546801000000000000000081101562000e545780600162000dcf920160035562001735565b819291549060031b9186831b921b1916179055826000528084526040600020600160ff1982541617905560035490600019820191821162000e3f5750907ff8a0462f666b427ea753848be7e91f9ce413975906f6f39950be296ca9a4d524848493604051908152a3604051908152f35b601190634e487b7160e01b6000525260246000fd5b604183634e487b7160e01b6000525260246000fd5b6040513d6000823e3d90fd5b604187634e487b7160e01b6000525260246000fd5b60405162461bcd60e51b8152808301869052601c60248201527f506f6f6c20616c72656164792065786973747320666f722075736572000000006044820152606490fd5b60405162461bcd60e51b81528083018690526014602482015273496e76616c69642075736572206164647265737360601b6044820152606490fd5b34620001ca576040366003190112620001ca5762000f26620016d9565b602435916001600160401b038311620001ca5736602384011215620001ca578201359062000f54826200180f565b9162000f646040519384620017ed565b8083523660248286010111620001ca5762000fcb600094938560208462000c189560248499018386013783010152604080516330c6e32f60e11b602082019081526001600160a01b039096166024820152604481019190915292839160648301906200182b565b5190826101675af162000fdd62001a17565b907f4af4780e06fe8cb9df64b0794fa6f01399af979175bb988e35e0e57e594567bc604051821515815260406020820152806200101e60408201866200182b565b0390a1156200104f5760165b6200104b60405192839260030b83526040602084015260408301906200182b565b0390f35b506040516200105e81620017b5565b6000815260156200102a565b34620001ca576020366003190112620001ca576001600160a01b036200108f620016d9565b16600052602052602060ff604060002054166040519015158152f35b6000366003190112620001ca57620010cf60018060a01b036007541633146200186d565b6005546001600160a01b03166200141157620010ea62001905565b604051620010f88162001783565b601181527021b632b0b929b5bc902628102a37b5b2b760791b602082015281526020810191604051906200112c8262001783565b815263043534c560e41b602082015282526040810190308252604051620011538162001783565b6001815260005b60208110620013f7575060e08201908152620011886200117a3062001a6a565b8251906200033882620019f8565b50610100820151805160070b1580620013e7575b620013d7575b506200121960405193630fb65bf360e01b602086015260606024860152620011f4620011dd855161016060848901526101e48801906200182b565b96519660831997888883030160a48901526200182b565b90516001600160a01b031660c48601526060840151858203870160e48701526200182b565b906080830151151561010485015260a083015160070b61012485015260c08301511515610144850152519383820301610164840152835180825260208201916020808360051b8301019601926000915b838310620013595760008088620012c8818c60406101008d0151805160070b61018485015260018060a01b036020820151166101a4850152015160070b6101c48301528460448301526006606483015203601f198101835282620017ed565b602081519101346101675af1620012de62001a17565b90156200134c57604081805181010312620001ca576040620013036020830162001a4c565b9101516001600160a01b0381169190829003620001ca5760169060030b5b60030b03620001ca57600580546001600160a01b0319166001600160a01b0392909216919091179055005b5060006016601562001321565b9091929396602080600192601f19858203018652818b5180518352015190604083820152815115156040820152848060a01b038383015116606082015260c0620013b7620005f3604085015160a0608086015260e08501906200182b565b926080878060a01b03910151169101529901930193019193929062001269565b60406276a70091015284620011a2565b50604081015160070b156200119c565b60209062001404620019d3565b828285010152016200115a565b60649060206040519162461bcd60e51b8352820152601a60248201527f43534c5020746f6b656e20616c726561647920637265617465640000000000006044820152fd5b34620001ca576020366003190112620001ca5735600354811015620001ca576200148160209162001735565b905460405160039290921b1c6001600160a01b03168152f35b34620001ca576020366003190112620001ca5760206001600160a01b0380620014c2620016d9565b166000526002825260406000205416604051908152f35b34620001ca57602080600319360112620001ca57600780549092906001600160a01b0390811633148015620015fa575b6200151490620018af565b604051906200152382620017b5565b600082526005541690604051916001600160401b0385840194636b48868360e11b8652608485019260248601523516860b60448401526060606484015281518091528460a4840192019060005b818110620015e35786600080888862001593818a03601f198101835282620017ed565b5190826101675af1620015a562001a17565b9015620008e557604081805181010312620001ca57620015d76040620015cf601694840162001a4c565b920162001a5b565b5060030b03620001ca57005b8251880b8452928601929186019160010162001570565b50336000908152828452604090205460ff1662001509565b34620001ca5760008062000c2762000c186200162e36620016f0565b604051630aed65f560e11b602082019081526001600160a01b03958616602483015293851660448201529390911660648401526084830152929091829060a4820190565b34620001ca576020366003190112620001ca5760206001600160a01b03806200169a620016d9565b1660005260028252604060002054161515604051908152f35b34620001ca576000366003190112620001ca576006546001600160a01b03168152602090f35b600435906001600160a01b0382168203620001ca57565b6080906003190112620001ca576001600160a01b036004358181168103620001ca57916024358281168103620001ca57916044359081168103620001ca579060643590565b6003548110156200176d5760036000527fc2575a0e9e593c00f959f8c92f12db2869c3395a3b0502d05e2516446f71f85b0190600090565b634e487b7160e01b600052603260045260246000fd5b604081019081106001600160401b038211176200179f57604052565b634e487b7160e01b600052604160045260246000fd5b602081019081106001600160401b038211176200179f57604052565b60c081019081106001600160401b038211176200179f57604052565b90601f801991011681019081106001600160401b038211176200179f57604052565b6001600160401b0381116200179f57601f01601f191660200190565b919082519283825260005b84811062001858575050826000602080949584010152601f8019910116010190565b60208183018101518483018201520162001836565b156200187557565b60405162461bcd60e51b815260206004820152601260248201527127b7363c903330b1ba37b93c9037bbb732b960711b6044820152606490fd5b15620018b757565b60405162461bcd60e51b815260206004820152600e60248201526d139bdd08185d5d1a1bdc9a5e995960921b6044820152606490fd5b6001600160401b0381116200179f5760051b60200190565b604080516001600160401b039291906101208101848111828210176200179f5782528093606092838352836020840152600091828285015284808501528260808501528260a08501528260c08501528460e08501528151948501908582109082111762001982578152818452602084018290528301526101000152565b634e487b7160e01b83526041600452602483fd5b6040519060a082018281106001600160401b038211176200179f576040526000608083828152826020820152606060408201526060808201520152565b60405190620019e28262001783565b81600081526020620019f362001996565b910152565b8051156200176d5760200190565b8051600110156200176d5760400190565b3d1562001a47573d9062001a2b826200180f565b9162001a3b6040519384620017ed565b82523d6000602084013e565b606090565b51908160030b8203620001ca57565b51908160070b8203620001ca57565b62001a74620019d3565b50600460005260016020527fedc95719e9a3b28dd8e80877cb5880a9be7de1a13fc8b05e7999683b6b567643549062001aac62001996565b6001600160a01b0390911660208201526040519162001acb8362001783565b825260208201529056fe610100346200032957601f6200378f38819003918201601f191683019291906001600160401b038411838510176200032e578160a092849260409687528339810103126200032957620000528162000344565b6020906200006282840162000344565b9060806200007286860162000344565b93620000816060870162000344565b956001600160a01b0392839162000099910162000344565b169182156200031157600080546001600160a01b031981168517825590939082167f8be0079c531659141344cd1fd0a4f28419497f9722a3daafe3b4186f6b6457e08580a360018055610100600160a81b031960025416600255828052600382526001888420556001835260028884205560028352878060049485828220556003815260088282205585815260108282205560058152848282205560068152205580841615620002ce57808516156200028b578086161562000248578616156200020657505060805260a05260c05260e0525161343590816200035a82396080518181816103790152818161077701528181610a4f015281816112c50152818161171b015281816121f3015261233c015260a05181611527015260c05181818161094c01528181610d280152818161120c015281816116a601528181611a5c0152818161205401528181612570015261260d015260e051818181610eb801528181611a910152611bc50152f35b865162461bcd60e51b815291820152601a60248201527f496e76616c6964204643445220746f6b656e2061646472657373000000000000604482015260649150fd5b875162461bcd60e51b8152808401839052601a60248201527f496e76616c69642043534c5020746f6b656e20616464726573730000000000006044820152606490fd5b875162461bcd60e51b8152808401839052601960248201527f496e76616c696420706f6f6c20757365722061646472657373000000000000006044820152606490fd5b875162461bcd60e51b8152808401839052601760248201527f496e76616c696420666163746f727920616464726573730000000000000000006044820152606490fd5b8751631e4fbdf760e01b815260006004820152602490fd5b600080fd5b634e487b7160e01b600052604160045260246000fd5b51906001600160a01b0382168203620003295756fe608060409080825260049081361015610053575b503615610051576020606492519162461bcd60e51b83528201526012602482015271119d5b98dd1a5bdb881b9bdd08199bdd5b9960721b6044820152fd5b005b600090813560e01c9081630a5579d114611bb15750806310ca0bce14611a4057806315dacbea146119e35780631cf2e6981461196f57806321b77d6314611951578063240f1b6214611883578063250e6de01461167757806328999437146116585780632fb9125d1461163b57806332acf78b1461090057806334111bbf1461161a5780633474d1f9146115b257806338b37d1c146115565780633e7e516a146115125780633f4ba83a146114ba57806342c649de146114995780634ddd1c54146113d8578063545466a5146111de5780635962a9411461031f5780635c975abb146111ba57806360246c881461118a578063618dc65e1461104a578063715018a614610ff0578063734c79b614610e225780637d56be3c14610dda5780638456cb5914610d7f5780638da5cb5b14610d575780639827d47314610d135780639b23d3d914610c6b5780639d7de6b31461091f578063a7112efe14610900578063a78c849b146108d9578063aebf3e41146108a7578063b79c41a214610884578063bbbaee4c14610840578063be59112914610800578063bf333f2c146107e4578063c279a2bc146107a6578063c45a015514610762578063c6e5d8f6146106e0578063cf2c033414610687578063d4c3eea014610668578063d73792a91461064b578063db2e21bc14610581578063e78340291461033e578063ea04f1551461031f578063ef6283d9146102fc5763f2fde38b03610013579190346102f85760203660031901126102f857610287611bf4565b90610290611e1e565b6001600160a01b039182169283156102e2575050600054826001600160601b0360a01b821617600055167f8be0079c531659141344cd1fd0a4f28419497f9722a3daafe3b4186f6b6457e0600080a380f35b51631e4fbdf760e01b8152908101849052602490fd5b8280fd5b50823461031b578160031936011261031b576020906005549051908152f35b5080fd5b50823461031b578160031936011261031b576020906009549051908152f35b5091346102f857826003193601126102f857610358611e1e565b610360613276565b479161036d831515613295565b6001600160a01b0390847f00000000000000000000000000000000000000000000000000000000000000008316803b1561031b57818091602487518094819363272b261360e21b835230898401525af180156105775761055f575b508290541681600c548551926103dd84611ccf565b8784526020840190428252878501908152606085019130835260808601938085528b52600a602052888b20955186555160018601558660028601915116906001600160601b0360a01b918282541617905586600386019251169082541617905551910155818554168552600b60205261045b838620600c5490611fde565b610466600c54612018565b80600c558286541690600019810190811161054c578680878482957fb5d1185f9eb3bc9f64976a0642fa385671626df86e9aecd91bcda7206b0456666104c685978c51918291874291846040919493926060820195825260208201520152565b0390a25af16104d36124c9565b50156105105750907f2e4fb6077d4acf86e12bb7411fb82b2b3eaa6a49787f4b1e17b423e7ea84116991845416928151908152426020820152a280f35b606490602084519162461bcd60e51b8352820152601660248201527512109054881dda5d1a191c985dd85b0819985a5b195960521b6044820152fd5b634e487b7160e01b875260118352602487fd5b61056890611cbc565b6105735784386103c8565b8480fd5b85513d84823e3d90fd5b5091346102f857826003193601126102f85761059b611e1e565b6105a3613276565b47916105b0831515613295565b60018060a01b03908480808087868254165af16105cb6124c9565b50156106085750907f2e4fb6077d4acf86e12bb7411fb82b2b3eaa6a49787f4b1e17b423e7ea84116991845416928151908152426020820152a280f35b606490602084519162461bcd60e51b8352820152601b60248201527f456d657267656e6379207769746864726177616c206661696c656400000000006044820152fd5b50823461031b578160031936011261031b57602090516127108152f35b50823461031b578160031936011261031b576020906006549051908152f35b50823461031b578060031936011261031b576106a1611bf4565b6001600160a01b031682526008602052808220805460243593908410156106dd57506020926106cf91611dda565b91905490519160031b1c8152f35b80fd5b50823461031b57602090816003193601126102f8576001600160a01b03610705611bf4565b168352600882528083209281518093808654928381520195835280832092905b82821061074b57610747868661073d828b0383611d56565b5191829182611c50565b0390f35b835487529586019560019384019390910190610725565b50823461031b578160031936011261031b57517f00000000000000000000000000000000000000000000000000000000000000006001600160a01b03168152602090f35b50823461031b57602036600319011261031b5760209160ff9082906001600160a01b036107d1611bf4565b168152600d855220541690519015158152f35b50823461031b578160031936011261031b5760209051601e8152f35b509190346102f85760203660031901126102f85735918260030b83036106dd575061082d61074792612669565b9051918291602083526020830190611db5565b50823461031b57602036600319011261031b576107479061085f611bf4565b5061086861256e565b9251918252602082015260408101919091529081906060820190565b50823461031b576020906108a061089a36611e08565b90612523565b9051908152f35b5060803660031901126106dd576108bc611ec9565b6108c4611eab565b6108d260443560243561204a565b6001805580f35b50823461031b57602036600319011261031b576020906108f7611bf4565b506108a061260b565b50823461031b578160031936011261031b57602090600c549051908152f35b5091346102f85761092f36611e08565b91909261093a611ec9565b610942611eab565b6001600160a01b037f00000000000000000000000000000000000000000000000000000000000000008116610978811515611e4a565b8515610c2f576005548015610bf55783546109a861099f8361099a848c6124a9565b611e8b565b97881015612469565b478711610bb2576109c5916109be888a936124bc565b86556124bc565b6005556109d4856006546124bc565b600655600791876001600160401b038816840b918387516109f481611cea565b838152885190898201978683526020988b8a8501528251809152896060850193019187905b8b838310610b8b57505050505090807fb310aaac57f9a89f4e3661e38cb8df5ea9428b82d1bb2b8ab6a77c3f52818f02920390a27f000000000000000000000000000000000000000000000000000000000000000016803b1561031b5781809160248b8a519485938492631fe4ff2960e01b84528c8401525af18015610b815790879291610b66575b50507f7b2f31b2ffda9d7a1ac640400c8f7eb1c8d0071689111f45797448a14697587c9181519081528985820152a28580808087335af1610ae16124c9565b5015610b2f57505051908152602081019190915242604082015233907f1dc8bb69df2b8e91fbdcbfcf93d951b3f0000f085a95fe3f7946d6161439245d9080606081015b0390a26001805580f35b606492519162461bcd60e51b8352820152601460248201527312109054881d1c985b9cd9995c8819985a5b195960621b6044820152fd5b610b71919250611cbc565b610b7d57848838610aa2565b8780fd5b87513d84823e3d90fd5b91946001939698995084839295985051850b81520195019201928e96959389959392610a19565b855162461bcd60e51b8152602081870152601960248201527f496e73756666696369656e74204842415220696e20706f6f6c000000000000006044820152606490fd5b845162461bcd60e51b81526020818601526014602482015273139bc81b1a5c5d5a591a5d1e481a5b881c1bdbdb60621b6044820152606490fd5b835162461bcd60e51b81526020818501526016602482015275139bc81314081d1bdad95b9cc81cdc1958da599a595960521b6044820152606490fd5b50823461031b578180602093610cd6610cc8610c8636611c0f565b8951639b23d3d960e01b8c82019081526001600160a01b03958616602483015293851660448201529390911660648401526084830152929091829060a4820190565b03601f198101835282611d56565b5190826101675af1610ce66124c9565b915015610d0a57808380610cff93518301019101613315565b905b519060030b8152f35b50601590610d01565b50823461031b578160031936011261031b57517f00000000000000000000000000000000000000000000000000000000000000006001600160a01b03168152602090f35b50823461031b578160031936011261031b57905490516001600160a01b039091168152602090f35b50823461031b578160031936011261031b5760207f62e78cea01bee320cd4e420270b5ea74000d11b0c9f74754ebdbfc544b05a25891610dbd611e1e565b610dc5611eab565b600160ff19600254161760025551338152a180f35b50823461031b578060031936011261031b57610df4611bf4565b6001600160a01b03168252600b602052808220805460243593908410156106dd57506020926106cf91611dda565b509190346102f85760209182600319360112610fec578135610e42611e1e565b610e4f600c5482106132d7565b8452600a8352808420815190610e6482611ccf565b8054825260018101548583015260018060a01b03916080858460028501541693848785015285600382015416606085015201549101528186541603610faa5784809183518681019163efef57f960e01b83527f00000000000000000000000000000000000000000000000000000000000000001660248201523060448201526001606482015260648152610ef781611ccf565b5190826101675af1610f076124c9565b9015610fa257808480610f1f93518301019101613315565b60030b60168103610f2e578480f35b90610f3b610f9e92612669565b90610f846035825180947402321a22910313ab93734b733903330b4b632b21d1605d1b89830152610f74815180928b8686019101611d92565b8101036015810185520183611d56565b5193849362461bcd60e51b85528401526024830190611db5565b0390fd5b506015610f1f565b5091606492519162461bcd60e51b8352820152601a60248201527f4e6f7420746865206f776e6572206f66207468697320464344520000000000006044820152fd5b8380fd5b50346106dd57806003193601126106dd57611009611e1e565b600080546001600160a01b0319811682556001600160a01b03167f8be0079c531659141344cd1fd0a4f28419497f9722a3daafe3b4186f6b6457e08280a380f35b50903461031b578260031936011261031b57611064611bf4565b90602435906001600160401b038211610fec5736602383011215610fec5781013561108e81611d77565b9161109b86519384611d56565b8183523660248383010111610573576110fb859492938560208682976024610cc89701838601378301015287516330c6e32f60e11b602082019081526001600160a01b039095166024820152604481018990529283916064830190611db5565b5190826101675af19061110c6124c9565b917f4af4780e06fe8cb9df64b0794fa6f01399af979175bb988e35e0e57e594567bc845182151581528560208201528061114887820187611db5565b0390a11561117057506107476016915b835193849360030b8452806020850152830190611db5565b8251915061117d82611cea565b8152610747601591611158565b50346106dd57806003193601126106dd575054600554600654925191825260208201526040810191909152606090f35b50823461031b578160031936011261031b5760209060ff6002541690519015158152f35b509160603660031901126102f8578135906024356111fa611ec9565b611202611eab565b6001600160a01b037f000000000000000000000000000000000000000000000000000000000000000081169390919061123c851515611e4a565b6005541561139e57869161127091611255341515611eec565b611260811515611f2b565b61126b821515611f81565b612523565b9461127f604435871015612469565b61128a34825461203d565b81556112983460065461203d565b6006556001600160401b03861660070b928451848152866000805160206133a083398151915260203393a37f000000000000000000000000000000000000000000000000000000000000000016803b156102f857845163bb81c87560e01b81523392810192835260208301889052918391839182908490829060400103925af1801561139457611380575b50506000805160206133e0833981519152926113418560055461203d565b60055582519182528560208301526000805160206133c0833981519152833393a351348152602081019290925242604083015233918060608101610b25565b61138990611cbc565b610573578438611323565b84513d84823e3d90fd5b835162461bcd60e51b81526020818801526014602482015273141bdbdb081b9bdd081a5b9a5d1a585b1a5e995960621b6044820152606490fd5b509190346102f85760203660031901126102f8578160a0938235816080845161140081611ccf565b82815282602082015282868201528260608201520152611423600c5482106132d7565b8152600a602052209082519161143883611ccf565b805493848452600182015460208501908152600180881b0393849160808360028701541692858901938452846003880154169660608a0197885201549701968752835197885251602088015251169085015251166060830152516080820152f35b508290346106dd5760203660031901126106dd57506108a0602092356124f9565b50823461031b578160031936011261031b5760207f5db9ee0a495bf2e6ff9c91a7834c1ba4fdd244a5e8aa4e537bd38aeae4b073aa916114f8611e1e565b611500613276565b60ff196002541660025551338152a180f35b50823461031b578160031936011261031b57517f00000000000000000000000000000000000000000000000000000000000000006001600160a01b03168152602090f35b5091346102f85760203660031901126102f8578060a09383358152600a60205220805492600182015492600180871b03918260028501541692600385015416930154938151958652602086015284015260608301526080820152f35b5091346102f85760203660031901126102f8578060c09383358152600760205220805492600182015492600283015490600384015492600560018060a01b038092870154169501541694815196875260208701528501526060840152608083015260a0820152f35b508290346106dd5760203660031901126106dd57506108a060209235612555565b50823461031b578160031936011261031b576020906108a06125ed565b509190346102f857826003193601126102f85760209250549051908152f35b50908160031936011261031b5761168c611e1e565b611694611ec9565b61169c611eab565b6001600160a01b037f0000000000000000000000000000000000000000000000000000000000000000811693906116d4851515611e4a565b60055461184057620186a034106117fd573483553460065560643404926001600160401b03841660070b918351838152876000805160206133a083398151915260203393a37f00000000000000000000000000000000000000000000000000000000000000001690813b156117f957835163bb81c87560e01b8152339181019182526020820186905291869183919082908490829060400103925af180156117ef576117ce575b508293946000805160206133e08339815191529360055582519182528560208301526000805160206133c0833981519152833393a351348152602081019290925242604083015233918060608101610b25565b936117e86000805160206133e08339815191529495611cbc565b939261177b565b83513d87823e3d90fd5b8580fd5b815162461bcd60e51b8152602081850152601e60248201527f496e73756666696369656e7420696e697469616c206c697175696469747900006044820152606490fd5b815162461bcd60e51b8152602081850152601860248201527f506f6f6c20616c726561647920696e697469616c697a656400000000000000006044820152606490fd5b509190346102f85760203660031901126102f857600590828460c09560a083516118ac81611c8b565b8281528260208201528285820152826060820152826080820152015282358152600760205220908351916118df83611c8b565b8054948584526001820154906020850191825260028301548186019081526003840154926060870193845260a0600180821b038099818099890154169760808b0198895201541697019687528251988952516020890152519087015251606086015251166080840152511660a0820152f35b50823461031b578160031936011261031b5760209051620186a08152f35b50823461031b57602090816003193601126102f8576001600160a01b03611994611bf4565b168352600b82528083209281518093808654928381520195835280832092905b8282106119cc57610747868661073d828b0383611d56565b8354875295860195600193840193909101906119b4565b50823461031b578180602093610cd6610cc86119fe36611c0f565b8951630aed65f560e11b8c82019081526001600160a01b03958616602483015293851660448201529390911660648401526084830152929091829060a4820190565b5091346102f857826003193601126102f857611a5a611e1e565b7f000000000000000000000000000000000000000000000000000000000000000091611a86833061332e565b60168103611b5e57507f000000000000000000000000000000000000000000000000000000000000000091611abb833061332e565b60168103611afa575050506001600160a01b0390811691167f650590083355aaffaa2fa0c2195838842f2b6d5ea01c067f5e128066ea40f15c8380a380f35b60209291611b0d610f9e9260030b612669565b90610f84603f825180947f4643445220746f6b656e206173736f63696174696f6e206661696c65643a200089830152611b4e815180928b8686019101611d92565b810103601f810185520183611d56565b602092611b70610f9e9260030b612669565b90610f84603f825180947f43534c5020746f6b656e206173736f63696174696f6e206661696c65643a200089830152611b4e815180928b8686019101611d92565b90503461031b578160031936011261031b577f00000000000000000000000000000000000000000000000000000000000000006001600160a01b03168152602090f35b600435906001600160a01b0382168203611c0a57565b600080fd5b6080906003190112611c0a576001600160a01b036004358181168103611c0a57916024358281168103611c0a57916044359081168103611c0a579060643590565b6020908160408183019282815285518094520193019160005b828110611c77575050505090565b835185529381019392810192600101611c69565b60c081019081106001600160401b03821117611ca657604052565b634e487b7160e01b600052604160045260246000fd5b6001600160401b038111611ca657604052565b60a081019081106001600160401b03821117611ca657604052565b602081019081106001600160401b03821117611ca657604052565b604081019081106001600160401b03821117611ca657604052565b606081019081106001600160401b03821117611ca657604052565b608081019081106001600160401b03821117611ca657604052565b90601f801991011681019081106001600160401b03821117611ca657604052565b6001600160401b038111611ca657601f01601f191660200190565b60005b838110611da55750506000910152565b8181015183820152602001611d95565b90602091611dce81518092818552858086019101611d92565b601f01601f1916010190565b8054821015611df25760005260206000200190600090565b634e487b7160e01b600052603260045260246000fd5b6040906003190112611c0a576004359060243590565b6000546001600160a01b03163303611e3257565b60405163118cdaa760e01b8152336004820152602490fd5b15611e5157565b60405162461bcd60e51b815260206004820152601260248201527110d4d314081d1bdad95b881b9bdd081cd95d60721b6044820152606490fd5b8115611e95570490565b634e487b7160e01b600052601260045260246000fd5b60ff60025416611eb757565b60405163d93c066560e01b8152600490fd5b600260015414611eda576002600155565b604051633ee5aeb560e01b8152600490fd5b15611ef357565b60405162461bcd60e51b815260206004820152601060248201526f139bc812109054881c1c9bdd9a59195960821b6044820152606490fd5b15611f3257565b60405162461bcd60e51b815260206004820152602160248201527f55534420616d6f756e74206d7573742062652067726561746572207468616e206044820152600360fc1b6064820152608490fd5b15611f8857565b60405162461bcd60e51b815260206004820152602860248201527f4d617475726174696f6e20616d6f756e74206d75737420626520677265617465604482015267072207468616e20360c41b6064820152608490fd5b805468010000000000000000811015611ca65761200091600182018155611dda565b819291549060031b91821b91600019901b1916179055565b60001981146120275760010190565b634e487b7160e01b600052601160045260246000fd5b9190820180921161202757565b6001600160a01b037f00000000000000000000000000000000000000000000000000000000000000008116929091600091612086851515611e4a565b612091341515611eec565b61209c821515611f2b565b6120a7811515611f81565b6005918254156122e657906120bb91612523565b906120c83460045461203d565b6004556120d73460065461203d565b600655338352602091600d835260409460ff86862054166000146122d95762ffffff855b1696876121d2575b506121aa938695929386946008936000805160206133e083398151915299519261212c84611c8b565b34845284840193428552888101938452606081018d8152608082019433865260a08301963088526009548b52600789528b8b20935184555160018401555160028301555160038201558260048201945116936001600160601b0360a01b94858254161790550192511690825416179055338352522060095490611fde565b6121b5600954612018565b6009555134815260208101929092524260408301523391606090a2565b8760070b908751828152816000805160206133a0833981519152883393a3827f000000000000000000000000000000000000000000000000000000000000000016803b15610b7d57885163bb81c87560e01b8152336004820152602481018b90529088908290604490829084905af180156122cf576122b7575b50938796936008936121aa97936000805160206133e08339815191529a97338852600d8652888820600160ff1982541617905561228a8d865461203d565b8555885191825287868301526000805160206133c0833981519152893393a3935093965093965093612103565b6122c18891611cbc565b6122cb573861224c565b8680fd5b89513d8a823e3d90fd5b62ffffff620f42406120fb565b939190913460045534600655338452602092600d845260409560ff878720541660001461245c5762ffffff865b16978815612433578860070b908851828152816000805160206133a0833981519152893393a3847f000000000000000000000000000000000000000000000000000000000000000016803b1561242f57895163bb81c87560e01b8152336004820152602481018c90529089908290604490829084905af1801561242557938a999591938c97936000805160206133e08339815191529c99956121aa9b97612407575b50906123fa93929160089899338b52600d89528b8b20600160ff1982541617905587558a5191825289888301526000805160206133c08339815191528b3393a3612523565b9086519261212c84611c8b565b9060089861241a6123fa96959493611cbc565b9850909192936123b5565b8a513d8b823e3d90fd5b8880fd5b5093838796936123fa6008946121aa9860016000805160206133e08339815191529c9955612523565b62ffffff620f4240612313565b1561247057565b60405162461bcd60e51b815260206004820152601160248201527014db1a5c1c1859d948195e18d959591959607a1b6044820152606490fd5b8181029291811591840414171561202757565b9190820391821161202757565b3d156124f4573d906124da82611d77565b916124e86040519384611d56565b82523d6000602084013e565b606090565b60055490811561251c5761251991612510916124a9565b60045490611e8b565b90565b5050600090565b9081156125308115611f2b565b61253b821515611f81565b620f42408084029384041417156120275761251991611e8b565b600554801561251c5761099a61251992600454906124a9565b7f00000000000000000000000000000000000000000000000000000000000000006001600160a01b0316156125e25760055460009181156125d7576125b98261099a600454866124a9565b91612710908185029185830414851517156120275761251991611e8b565b600092508291508190565b600090600090600090565b60055480156126055761251990606460065404611e8b565b50600090565b7f00000000000000000000000000000000000000000000000000000000000000006001600160a01b031615801561265f575b61265a5760065415600117156120275760055415611e9557600090565b600090565b506005541561263d565b8060030b9060168214613171576009821461311c57600a82146130bb576007821461306357600f82146130025760108214612fa157601e8214612f535760228214612ef257606f8214612ea35760aa8214612e425760ab8214612df05760ae8214612d9c5760af8214612d3b5760be8214612ceb5760bf8214612c925760a88214612c315760a98214612bd05760bd8214612b8257609b8214612b3657601a8214612aec57601b8214612aa25760268214612a49576040918281146129f2576041811461298657610117811461292e5761014581146128cf57610146811461287057610147811461280757610148146127b357603361277063ffffffff6125199316613196565b9251809372554e4b4e4f574e5f4552524f525f434f44455f60681b60208301526127a38151809260208686019101611d92565b8101036013810184520182611d56565b5072206d616e79206368696c64207265636f72647360681b8151916127d783611d20565b603383527f4d41585f4348494c445f5245434f5244535f4558434545444544202d20546f6f602084015282015290565b50507f6666696369656e742062616c616e636520666f722073746f726167652072656e81519161283683611d3b565b604183527f494e53554646494349454e545f53544f524147455f52454e54202d20496e73756020840152820152601d60fa1b606082015290565b50507f6e76616c6964207369676e617475726520666f7220707265636f6d70696c650081519161289f83611d20565b603f83527f494e56414c49445f505245434f4d50494c455f5349474e4154555245202d2049602084015282015290565b50507f6e74697469657320696e20707269636520726567696d652072656163686564008151916128fe83611d20565b603f83527f4d41585f454e5449544945535f43524541544544202d204d6178696d756d2065602084015282015290565b5050751cdd5cc81b9bd9194819d85cc8195e1a185d5cdd195960521b81519161295683611d20565b603683527f434f4e53454e5355535f4741535f455848415553544544202d20436f6e73656e602084015282015290565b50507f616e73616374696f6e2068617320746f6f206d616e79206e6573746564206c618151916129b583611d3b565b604483527f5452414e53414354494f4e5f544f4f5f4d414e595f4c4159455253202d2054726020840152820152637965727360e01b606082015290565b5050741bdb88195e18d959591cc81cda5e99481b1a5b5a5d605a1b815191612a1983611d20565b603583527f5452414e53414354494f4e5f4f56455253495a45202d205472616e7361637469602084015282015290565b5050604051612a5781611d20565b603581527f494e56414c49445f4b45595f454e434f44494e47202d204b657920656e636f646020820152741a5b99c8199bdc9b585d081a5cc81a5b9d985b1a59605a1b604082015290565b5050604051612ab081611d20565b602681527f4241445f454e434f44494e47202d204b657920656e636f64696e6720697320696020820152651b9d985b1a5960d21b604082015290565b5050604051612afa81611d20565b602681527f4b45595f5245515549524544202d205265717569726564206b6579206973206d602082015265697373696e6760d01b604082015290565b5050604051612b4481611d20565b602881527f494e56414c49445f41444d494e5f4b4559202d2041646d696e206b6579206973602082015267081a5b9d985b1a5960c21b604082015290565b5050604051612b9081611d20565b602a81527f494e56414c49445f535550504c595f4b4559202d20537570706c79206b6579206020820152691a5cc81a5b9d985b1a5960b21b604082015290565b5050604051612bde81611d20565b603e81527f494e56414c49445f544f4b454e5f494e495449414c5f535550504c59202d204960208201527f6e697469616c20737570706c792076616c756520697320696e76616c69640000604082015290565b5050604051612c3f81611d20565b603881527f494e56414c49445f544f4b454e5f444543494d414c53202d20546f6b656e206460208201527f6563696d616c732076616c756520697320696e76616c69640000000000000000604082015290565b5050604051612ca081611d20565b603581527f544f4b454e5f4e414d455f544f4f5f4c4f4e47202d20546f6b656e206e616d6560208201527408195e18d959591cc81b195b99dd1a081b1a5b5a5d605a1b604082015290565b5050604051612cf981611d20565b602c81527f4d495353494e475f544f4b454e5f4e414d45202d20546f6b656e206e616d652060208201526b1b9bdd081c1c9bdd9a59195960a21b604082015290565b5050604051612d4981611d20565b603981527f544f4b454e5f53594d424f4c5f544f4f5f4c4f4e47202d20546f6b656e20737960208201527f6d626f6c2065786365656473206c656e677468206c696d697400000000000000604082015290565b5050604051612daa81611d20565b603081527f4d495353494e475f544f4b454e5f53594d424f4c202d20546f6b656e2073796d60208201526f189bdb081b9bdd081c1c9bdd9a59195960821b604082015290565b5050604051612dfe81611d20565b602e81527f494e56414c49445f544f4b454e5f53594d424f4c202d20546f6b656e2073796d60208201526d189bdb081a5cc81a5b9d985b1a5960921b604082015290565b5050604051612e5081611d20565b603d81527f494e56414c49445f54524541535552595f4143434f554e545f464f525f544f4b60208201527f454e202d205472656173757279206163636f756e7420696e76616c6964000000604082015290565b5050604051612eb181611d20565b602b81527f4d41585f4741535f4c494d49545f4558434545444544202d20476173206c696d60208201526a1a5d08195e18d95959195960aa1b604082015290565b5050604051612f0081611d20565b603881527f434f4e54524143545f455845435554494f4e5f455843455054494f4e202d204360208201527f6f6e747261637420657865637574696f6e206661696c65640000000000000000604082015290565b5050604051612f6181611d20565b602a81527f494e53554646494349454e545f474153202d204e6f7420656e6f7567682067616020820152691cc81cdd5c1c1b1a595960b21b604082015290565b5050604051612faf81611d20565b603e81527f494e56414c49445f434f4e54524143545f4944202d20436f6e7472616374204960208201527f4420697320696e76616c6964206f7220646f6573206e6f742065786973740000604082015290565b505060405161301081611d20565b603c81527f494e56414c49445f4143434f554e545f4944202d204163636f756e742049442060208201527f697320696e76616c6964206f7220646f6573206e6f7420657869737400000000604082015290565b505060405161307181611d20565b603481527f494e56414c49445f5349474e4154555245202d205472616e73616374696f6e206020820152731cda59db985d1d5c99481a5cc81a5b9d985b1a5960621b604082015290565b50506040516130c981611d20565b604081527f494e53554646494349454e545f50415945525f42414c414e4345202d2050617960208201527f6572206163636f756e742068617320696e73756666696369656e742048424152604082015290565b505060405161312a81611d20565b603181527f494e53554646494349454e545f54585f464545202d204e6f7420656e6f7567686020820152700819d85ccbd99959481c1c9bdd9a591959607a1b604082015290565b505060405161317f81611d05565b60078152665355434345535360c81b602082015290565b80156132585780816000925b61324457506131b082611d77565b916131be6040519384611d56565b80835281601f196131ce83611d77565b01916020923684870137925b6131e45750505090565b60001983019283116120275782600a808304928184029184830414841517156120275761321460ff9283926124bc565b16603001908111612027578551821015611df25760f81b6001600160f81b03191660001a908501830153806131da565b91613250600a91612018565b9204806131a2565b5060405161326581611d05565b60018152600360fc1b602082015290565b60ff600254161561328357565b604051638dfc202b60e01b8152600490fd5b1561329c57565b60405162461bcd60e51b81526020600482015260136024820152724e6f204842415220746f20776974686472617760681b6044820152606490fd5b156132de57565b60405162461bcd60e51b815260206004820152600f60248201526e125b9d985b1a59081190d114881251608a1b6044820152606490fd5b90816020910312611c0a57518060030b8103611c0a5790565b600091829160405190602082019263248a35ef60e11b845260018060a01b0380921660248401521660448201526044815261336881611d3b565b5190826101675af16133786124c9565b9015613397578060208061339193518301019101613315565b60030b90565b50601561339156feb7555d949a897acb395f95e3f2df8b700519404826bb13cd6526b756f6a1c907ad91542866f4da9ebed5a2b1713258f4bf970f84e7b2a0b8aab2de28d11ffffd64b83944e79c3ce8d4c297411de637c3e102d064677aac0c163976ebdcd6f50ea26469706673582212209e9067a04092be509cb78a72f2d70427c1f012fa003b9ea2f71994159ac7013164736f6c63430008140033a2646970667358221220d77bedfdb850455c2b1814c102e7b01a298d2a9cb87fc0f61c48559da621615c64736f6c63430008140033",
  "linkReferences": {},
  "deployedLinkReferences": {}
}