{
  "_format": "hh-sol-artifact-1",
  "contractName": "ClearSkyFactory",
  "sourceName": "contracts/ClearSkyFactory.sol",
  "abi": [
    {
      "inputs": [],
      "stateMutability": "nonpayable",
      "type": "constructor"
    },
    {
      "anonymous": false,
      "inputs": [
        {
          "indexed": false,
          "internalType": "bool",
          "name": "",
          "type": "bool"
        },
        {
          "indexed": false,
          "internalType": "bytes",
          "name": "",
          "type": "bytes"
        }
      ],
      "name": "CallResponseEvent",
      "type": "event"
    },
    {
      "anonymous": false,
      "inputs": [
        {
          "indexed": true,
          "internalType": "address",
          "name": "poolAddress",
          "type": "address"
        },
        {
          "indexed": true,
          "internalType": "address",
          "name": "cslpToken",
          "type": "address"
        },
        {
          "indexed": false,
          "internalType": "uint256",
          "name": "hbarAmount",
          "type": "uint256"
        },
        {
          "indexed": false,
          "internalType": "uint256",
          "name": "cslpTokensMinted",
          "type": "uint256"
        }
      ],
      "name": "MaturationDepositCompleted",
      "type": "event"
    },
    {
      "anonymous": false,
      "inputs": [
        {
          "indexed": true,
          "internalType": "address",
          "name": "previousOwner",
          "type": "address"
        },
        {
          "indexed": true,
          "internalType": "address",
          "name": "newOwner",
          "type": "address"
        }
      ],
      "name": "OwnershipTransferred",
      "type": "event"
    },
    {
      "anonymous": false,
      "inputs": [
        {
          "indexed": true,
          "internalType": "address",
          "name": "user",
          "type": "address"
        },
        {
          "indexed": true,
          "internalType": "address",
          "name": "poolAddress",
          "type": "address"
        },
        {
          "indexed": true,
          "internalType": "address",
          "name": "cslpToken",
          "type": "address"
        },
        {
          "indexed": false,
          "internalType": "uint256",
          "name": "poolIndex",
          "type": "uint256"
        }
      ],
      "name": "PoolCreated",
      "type": "event"
    },
    {
      "inputs": [
        {
          "internalType": "uint256",
          "name": "",
          "type": "uint256"
        }
      ],
      "name": "allPools",
      "outputs": [
        {
          "internalType": "address",
          "name": "",
          "type": "address"
        }
      ],
      "stateMutability": "view",
      "type": "function"
    },
    {
      "inputs": [
        {
          "internalType": "address",
          "name": "poolAddress",
          "type": "address"
        },
        {
          "internalType": "uint256",
          "name": "amount",
          "type": "uint256"
        }
      ],
      "name": "burnCSLP",
      "outputs": [],
      "stateMutability": "nonpayable",
      "type": "function"
    },
    {
      "inputs": [
        {
          "internalType": "address",
          "name": "from",
          "type": "address"
        },
        {
          "internalType": "address",
          "name": "poolAddress",
          "type": "address"
        },
        {
          "internalType": "uint256",
          "name": "amount",
          "type": "uint256"
        }
      ],
      "name": "burnFCDR",
      "outputs": [],
      "stateMutability": "nonpayable",
      "type": "function"
    },
    {
      "inputs": [
        {
          "internalType": "address",
          "name": "newPoolAddress",
          "type": "address"
        },
        {
          "internalType": "address",
          "name": "prevPoolAddress",
          "type": "address"
        },
        {
          "internalType": "uint256",
          "name": "hbarAmount",
          "type": "uint256"
        }
      ],
      "name": "completeMaturationDeposit",
      "outputs": [],
      "stateMutability": "nonpayable",
      "type": "function"
    },
    {
      "inputs": [
        {
          "internalType": "address",
          "name": "user",
          "type": "address"
        },
        {
          "internalType": "address",
          "name": "cslpToken",
          "type": "address"
        }
      ],
      "name": "createMaturationPool",
      "outputs": [
        {
          "internalType": "address",
          "name": "",
          "type": "address"
        }
      ],
      "stateMutability": "nonpayable",
      "type": "function"
    },
    {
      "inputs": [
        {
          "internalType": "address",
          "name": "user",
          "type": "address"
        },
        {
          "internalType": "address",
          "name": "cslpToken",
          "type": "address"
        }
      ],
      "name": "createUserPool",
      "outputs": [
        {
          "internalType": "address",
          "name": "",
          "type": "address"
        }
      ],
      "stateMutability": "nonpayable",
      "type": "function"
    },
    {
      "inputs": [],
      "name": "fcdr1155Contract",
      "outputs": [
        {
          "internalType": "address",
          "name": "",
          "type": "address"
        }
      ],
      "stateMutability": "view",
      "type": "function"
    },
    {
      "inputs": [],
      "name": "getAllPools",
      "outputs": [
        {
          "internalType": "address[]",
          "name": "",
          "type": "address[]"
        }
      ],
      "stateMutability": "view",
      "type": "function"
    },
    {
      "inputs": [
        {
          "internalType": "address",
          "name": "poolAddress",
          "type": "address"
        }
      ],
      "name": "getPoolFCDRStatus",
      "outputs": [
        {
          "internalType": "uint256",
          "name": "",
          "type": "uint256"
        }
      ],
      "stateMutability": "view",
      "type": "function"
    },
    {
      "inputs": [
        {
          "internalType": "address",
          "name": "user",
          "type": "address"
        }
      ],
      "name": "getUserPool",
      "outputs": [
        {
          "internalType": "address",
          "name": "",
          "type": "address"
        }
      ],
      "stateMutability": "view",
      "type": "function"
    },
    {
      "inputs": [
        {
          "internalType": "address",
          "name": "user",
          "type": "address"
        }
      ],
      "name": "hasPool",
      "outputs": [
        {
          "internalType": "bool",
          "name": "",
          "type": "bool"
        }
      ],
      "stateMutability": "view",
      "type": "function"
    },
    {
      "inputs": [
        {
          "internalType": "address",
          "name": "",
          "type": "address"
        }
      ],
      "name": "isPool",
      "outputs": [
        {
          "internalType": "bool",
          "name": "",
          "type": "bool"
        }
      ],
      "stateMutability": "view",
      "type": "function"
    },
    {
      "inputs": [
        {
          "internalType": "address",
          "name": "poolAddress",
          "type": "address"
        },
        {
          "internalType": "address",
          "name": "user",
          "type": "address"
        },
        {
          "internalType": "uint256",
          "name": "amount",
          "type": "uint256"
        }
      ],
      "name": "mintCSLP",
      "outputs": [],
      "stateMutability": "nonpayable",
      "type": "function"
    },
    {
      "inputs": [
        {
          "internalType": "address",
          "name": "poolAddress",
          "type": "address"
        },
        {
          "internalType": "address",
          "name": "fcdrOwner",
          "type": "address"
        },
        {
          "internalType": "uint256",
          "name": "hbarAmount",
          "type": "uint256"
        }
      ],
      "name": "mintFCDR",
      "outputs": [],
      "stateMutability": "nonpayable",
      "type": "function"
    },
    {
      "inputs": [],
      "name": "orderbookAddress",
      "outputs": [
        {
          "internalType": "address",
          "name": "",
          "type": "address"
        }
      ],
      "stateMutability": "view",
      "type": "function"
    },
    {
      "inputs": [],
      "name": "owner",
      "outputs": [
        {
          "internalType": "address",
          "name": "",
          "type": "address"
        }
      ],
      "stateMutability": "view",
      "type": "function"
    },
    {
      "inputs": [
        {
          "internalType": "address",
          "name": "",
          "type": "address"
        }
      ],
      "name": "poolCSLPTokens",
      "outputs": [
        {
          "internalType": "address",
          "name": "",
          "type": "address"
        }
      ],
      "stateMutability": "view",
      "type": "function"
    },
    {
      "inputs": [
        {
          "internalType": "address",
          "name": "token",
          "type": "address"
        },
        {
          "internalType": "bytes",
          "name": "encodedFunctionSelector",
          "type": "bytes"
        }
      ],
      "name": "redirectForToken",
      "outputs": [
        {
          "internalType": "int256",
          "name": "responseCode",
          "type": "int256"
        },
        {
          "internalType": "bytes",
          "name": "response",
          "type": "bytes"
        }
      ],
      "stateMutability": "nonpayable",
      "type": "function"
    },
    {
      "inputs": [
        {
          "internalType": "address",
          "name": "_fcdr1155Contract",
          "type": "address"
        }
      ],
      "name": "setFCDR1155Contract",
      "outputs": [],
      "stateMutability": "nonpayable",
      "type": "function"
    },
    {
      "inputs": [
        {
          "internalType": "address",
          "name": "_orderbookAddress",
          "type": "address"
        }
      ],
      "name": "setOrderbookAddress",
      "outputs": [],
      "stateMutability": "nonpayable",
      "type": "function"
    },
    {
      "inputs": [
        {
          "internalType": "address",
          "name": "poolAddress",
          "type": "address"
        },
        {
          "internalType": "string",
          "name": "newUrl",
          "type": "string"
        }
      ],
      "name": "setPoolRetirementUrl",
      "outputs": [],
      "stateMutability": "nonpayable",
      "type": "function"
    },
    {
      "inputs": [
        {
          "internalType": "address",
          "name": "poolAddress",
          "type": "address"
        },
        {
          "internalType": "address",
          "name": "user",
          "type": "address"
        },
        {
          "internalType": "uint256",
          "name": "amount",
          "type": "uint256"
        }
      ],
      "name": "transferCSLPToUser",
      "outputs": [],
      "stateMutability": "nonpayable",
      "type": "function"
    },
    {
      "inputs": [
        {
          "internalType": "address",
          "name": "token",
          "type": "address"
        },
        {
          "internalType": "address",
          "name": "from",
          "type": "address"
        },
        {
          "internalType": "address",
          "name": "to",
          "type": "address"
        },
        {
          "internalType": "uint256",
          "name": "amount",
          "type": "uint256"
        }
      ],
      "name": "transferFrom",
      "outputs": [
        {
          "internalType": "int64",
          "name": "responseCode",
          "type": "int64"
        }
      ],
      "stateMutability": "nonpayable",
      "type": "function"
    },
    {
      "inputs": [
        {
          "internalType": "address",
          "name": "token",
          "type": "address"
        },
        {
          "internalType": "address",
          "name": "from",
          "type": "address"
        },
        {
          "internalType": "address",
          "name": "to",
          "type": "address"
        },
        {
          "internalType": "uint256",
          "name": "serialNumber",
          "type": "uint256"
        }
      ],
      "name": "transferFromNFT",
      "outputs": [
        {
          "internalType": "int64",
          "name": "responseCode",
          "type": "int64"
        }
      ],
      "stateMutability": "nonpayable",
      "type": "function"
    },
    {
      "inputs": [
        {
          "internalType": "address",
          "name": "poolAddress",
          "type": "address"
        },
        {
          "internalType": "address",
          "name": "newUser",
          "type": "address"
        }
      ],
      "name": "updatePoolUser",
      "outputs": [],
      "stateMutability": "nonpayable",
      "type": "function"
    },
    {
      "inputs": [
        {
          "internalType": "address",
          "name": "",
          "type": "address"
        }
      ],
      "name": "userPools",
      "outputs": [
        {
          "internalType": "address",
          "name": "",
          "type": "address"
        }
      ],
      "stateMutability": "view",
      "type": "function"
    }
  ],
  "bytecode": "0x6080604052600080546001600160a01b031916905534801561002057600080fd5b50600160208181527fa6eef7e35abe7026729641147f7915573c7e97b47efa546f5f6e3230263bcb499190915560027fcc69885fda6bcc1a4ace058b4a62bf5e179ea78fd58a1ccd71c22cc9b688792f5560047fd9d16d34ffb15ba3a3d852f0d403e2ce1d691fb54de27ac87cd2f993f3ec330f5560087f7dfe757ecd65cbd7922a9c0161e935dd7fdbcc0e999689c7d31633896b1fc60b81905560107fedc95719e9a3b28dd8e80877cb5880a9be7de1a13fc8b05e7999683b6b567643557fe2689cd4a84e23ad2f564004f1c9013e9589d260bde6380aba3ca7e09e4df40c919091556006600090815260407f8f331abe73332f95a25873e8b430885974c0409691f89d643119a11623a7924a8190558254336001600160a01b03199182168117909455600580549091169055517f8be0079c531659141344cd1fd0a4f28419497f9722a3daafe3b4186f6b6457e0908290a3615eb8806101836000396000f3fe60806040523480156200001157600080fd5b5060043610620001af5760003560e01c8063618dc65e11620000f0578063ad28893011620000a3578063d514cf73116200007a578063d514cf73146200045e578063d88ff1f41462000475578063ed4bbdf4146200048e578063f1f658d614620004ba57600080fd5b8063ad2889301462000419578063b21feca21462000430578063ceb58555146200044757600080fd5b8063618dc65e146200037357806381925f52146200039a5780638da5cb5b14620003c057806394937a4814620003d457806395f40f9514620003eb5780639b23d3d9146200040257600080fd5b806333049e0e11620001665780634ab3f5a4116200013d5780634ab3f5a4146200030e5780634e826aee14620003255780635839f07f14620003395780635b16ebb7146200034d57600080fd5b806333049e0e14620002b457806341d1de9714620002e05780634327f82614620002f757600080fd5b8063074e2e3914620001b4578063107a480214620001cd5780631246dbf5146200021957806315dacbea146200025b578063168c864014620002865780631916258d146200029d575b600080fd5b620001cb620001c536600462001acb565b620004d1565b005b620001fc620001de36600462001b0c565b6001600160a01b039081166000908152600260205260409020541690565b6040516001600160a01b0390911681526020015b60405180910390f35b6200024a6200022a36600462001b0c565b6001600160a01b0390811660009081526002602052604090205416151590565b604051901515815260200162000210565b620002726200026c36600462001b31565b6200063f565b60405160079190910b815260200162000210565b620001cb6200029736600462001b83565b6200073b565b620001cb620002ae36600462001b0c565b620007f6565b620001fc620002c536600462001b0c565b6002602052600090815260409020546001600160a01b031681565b620001fc620002f136600462001bb0565b620008a7565b620001cb6200030836600462001acb565b620008d2565b620001cb6200031f36600462001acb565b62000a59565b600654620001fc906001600160a01b031681565b600554620001fc906001600160a01b031681565b6200024a6200035e36600462001b0c565b60046020526000908152604090205460ff1681565b6200038a6200038436600462001c14565b62000e8c565b6040516200021092919062001d19565b620003b1620003ab36600462001b0c565b62000fb4565b60405190815260200162000210565b600854620001fc906001600160a01b031681565b620001cb620003e536600462001b0c565b62001028565b620001cb620003fc36600462001acb565b620010da565b620002726200041336600462001b31565b6200122c565b620001fc6200042a36600462001d3c565b62001272565b620001fc6200044136600462001d3c565b620014bd565b620001cb6200045836600462001d74565b62001540565b620001cb6200046f36600462001d3c565b620015f5565b6200047f62001719565b60405162000210919062001dfe565b620001fc6200049f36600462001b0c565b6007602052600090815260409020546001600160a01b031681565b620001cb620004cb36600462001acb565b6200177d565b6008546001600160a01b0316331480620004fa57503360009081526004602052604090205460ff165b620005225760405162461bcd60e51b8152600401620005199062001e4d565b60405180910390fd5b6005546001600160a01b0316620005665760405162461bcd60e51b81526020600482015260076024820152662727afa321a22960c91b604482015260640162000519565b60055460405163ec60bcf360e01b81526001600160a01b0385811660048301528481166024830152604482018490529091169063ec60bcf390606401600060405180830381600087803b158015620005bd57600080fd5b505af1158015620005d2573d6000803e3d6000fd5b505060405163bf4827b560e01b81526001600160a01b0385166004820181905260026024830152925063bf4827b591506044015b600060405180830381600087803b1580156200062157600080fd5b505af115801562000636573d6000803e3d6000fd5b50505050505050565b6040516001600160a01b038581166024830152848116604483015283166064820152608481018290526000908190819061016790630aed65f560e11b9060a4015b60408051601f198184030181529181526020820180516001600160e01b03166001600160e01b0319909416939093179092529051620006c0919062001e6b565b6000604051808303816000865af19150503d8060008114620006ff576040519150601f19603f3d011682016040523d82523d6000602084013e62000704565b606091505b509150915081620007175760156200072d565b808060200190518101906200072d919062001e9c565b60030b979650505050505050565b6008546001600160a01b03163314806200076457503360009081526004602052604090205460ff165b620007835760405162461bcd60e51b8152600401620005199062001e4d565b6001600160a01b038083166000908152600760205260409020541680620007be5760405162461bcd60e51b8152600401620005199062001eba565b604080516000808252602082019092528391620007dd8484846200185c565b50905060168114620007ee57600080fd5b505050505050565b6008546001600160a01b03163314620008235760405162461bcd60e51b8152600401620005199062001edb565b6001600160a01b038116620008855760405162461bcd60e51b815260206004820152602160248201527f496e76616c696420464344523131353520636f6e7472616374206164647265736044820152607360f81b606482015260840162000519565b600580546001600160a01b0319166001600160a01b0392909216919091179055565b60038181548110620008b857600080fd5b6000918252602090912001546001600160a01b0316905081565b6008546001600160a01b0316331480620008fb57503360009081526004602052604090205460ff165b6200091a5760405162461bcd60e51b8152600401620005199062001e4d565b6001600160a01b038084166000908152600760205260409020541680620009555760405162461bcd60e51b8152600401620005199062001eba565b8160006200099c8383835b6040519080825280602002602001820160405280156200099557816020015b60608152602001906001900390816200097f5790505b506200194f565b509091505060168114620009df5760405162461bcd60e51b81526020600482015260096024820152681352539517d190525360ba1b604482015260640162000519565b6008546001600160a01b03868116911614620007ee5760085460009062000a139085906001600160a01b0316888662001a57565b905060168114620006365760405162461bcd60e51b815260206004820152600f60248201526e151c985b9cd9995c8819985a5b1959608a1b604482015260640162000519565b6008546001600160a01b0316331462000a865760405162461bcd60e51b8152600401620005199062001edb565b6001600160a01b03831662000ac85760405162461bcd60e51b81526020600482015260076024820152664241445f4e455760c81b604482015260640162000519565b6001600160a01b03821662000b0b5760405162461bcd60e51b81526020600482015260086024820152672120a22fa82922ab60c11b604482015260640162000519565b6000811162000b495760405162461bcd60e51b8152602060048201526009602482015268484241525f5a45524f60b81b604482015260640162000519565b6001600160a01b03808416600090815260076020526040902054168062000b845760405162461bcd60e51b8152600401620005199062001eba565b620f424080600062000b9884838362000960565b50909150506016811462000bdb5760405162461bcd60e51b81526020600482015260096024820152681352539517d190525360ba1b604482015260640162000519565b60085460009062000bf99086906001600160a01b03168a8662001a57565b90506016811462000c3f5760405162461bcd60e51b815260206004820152600f60248201526e151c985b9cd9995c8819985a5b1959608a1b604482015260640162000519565b6040516345861b7d60e11b8152600481018790526001600160a01b03891690638b0c36fa90602401600060405180830381600087803b15801562000c8257600080fd5b505af115801562000c97573d6000803e3d6000fd5b506001925060009150606e905062000cb26127108462001f0e565b62000cbe919062001f28565b604051630f2d65fb60e41b8152600481018290529091506001600160a01b038b169063f2d65fb090602401600060405180830381600087803b15801562000d0457600080fd5b505af115801562000d19573d6000803e3d6000fd5b5050604051633318b63160e21b8152600481018990526001600160a01b038d16925063cc62d8c49150602401600060405180830381600087803b15801562000d6057600080fd5b505af115801562000d75573d6000803e3d6000fd5b5050604051630e50668560e21b8152600160048201526001600160a01b038c1692506339419a149150602401600060405180830381600087803b15801562000dbc57600080fd5b505af115801562000dd1573d6000803e3d6000fd5b505060405163bf4827b560e01b81526001600160a01b038c166004820181905260026024830152925063bf4827b59150604401600060405180830381600087803b15801562000e1f57600080fd5b505af115801562000e34573d6000803e3d6000fd5b5050604080518b8152602081018a90526001600160a01b03808c1694508e1692507fcfcfd05776fd40794ffc040f445799ecd818f2b4462ecb5d0b8bf6d2328383eb910160405180910390a350505050505050505050565b600060606000806101676001600160a01b031663618dc65e60e01b878760405160240162000ebc92919062001f4b565b60408051601f198184030181529181526020820180516001600160e01b03166001600160e01b031990941693909317909252905162000efc919062001e6b565b6000604051808303816000865af19150503d806000811462000f3b576040519150601f19603f3d011682016040523d82523d6000602084013e62000f40565b606091505b50915091507f4af4780e06fe8cb9df64b0794fa6f01399af979175bb988e35e0e57e594567bc828260405162000f7892919062001f71565b60405180910390a18162000f9e5760156040518060200160405280600081525062000fa2565b6016815b60039190910b97909650945050505050565b604051637469dff760e01b81526001600160a01b03821660048201819052600091637469dff790602401602060405180830381865afa15801562000ffc573d6000803e3d6000fd5b505050506040513d601f19601f8201168201806040525081019062001022919062001f8e565b92915050565b6008546001600160a01b03163314620010555760405162461bcd60e51b8152600401620005199062001edb565b6001600160a01b038116620010b85760405162461bcd60e51b815260206004820152602260248201527f496e76616c6964204f72646572626f6f6b20636f6e7472616374206164647265604482015261737360f01b606482015260840162000519565b600680546001600160a01b0319166001600160a01b0392909216919091179055565b6008546001600160a01b03163314806200110357503360009081526004602052604090205460ff165b620011225760405162461bcd60e51b8152600401620005199062001e4d565b6005546001600160a01b0316620011665760405162461bcd60e51b81526020600482015260076024820152662727afa321a22960c91b604482015260640162000519565b6005546040516313e2e01960e01b81526001600160a01b0384811660048301528581166024830152604482018490526080606483015260006084830152909116906313e2e0199060a4016020604051808303816000875af1158015620011d0573d6000803e3d6000fd5b505050506040513d601f19601f82011682018060405250810190620011f6919062001f8e565b5060405163bf4827b560e01b81526001600160a01b03841660048201819052600160248301529063bf4827b59060440162000606565b6040516001600160a01b038581166024830152848116604483015283166064820152608481018290526000908190819061016790639b23d3d960e01b9060a40162000680565b60006001600160a01b0383166200129d5760405162461bcd60e51b8152600401620005199062001fa8565b6001600160a01b038216620012c65760405162461bcd60e51b8152600401620005199062001eba565b6005546008546040516000923092879287926001600160a01b03908116921690620012f19062001aa0565b6001600160a01b0395861681529385166020850152918416604084015283166060830152909116608082015260a001604051809103906000f0801580156200133d573d6000803e3d6000fd5b506001600160a01b03818116600090815260076020526040902080546001600160a01b03191686831617905560055491925082911615620013ed57600554604051631e96838b60e01b81526001600160a01b03838116600483015290911690631e96838b906024016020604051808303816000875af1158015620013c5573d6000803e3d6000fd5b505050506040513d601f19601f82011682018060405250810190620013eb919062001f8e565b505b6001600160a01b03808616600081815260026020908152604080832080548688166001600160a01b0319918216811790925560038054600181810183557fc2575a0e9e593c00f959f8c92f12db2869c3395a3b0502d05e2516446f71f85b90910180549093168417909255828652600490945291909320805460ff1916821790559054938816939192917febbbe9dc3a19d2f959ac76ac0372b4983cdfb945f5d6aef4873c36fabb2ba8aa91620014a49162001fca565b60405190815260200160405180910390a4949350505050565b60006001600160a01b038316620014e85760405162461bcd60e51b8152600401620005199062001fa8565b6001600160a01b0383811660009081526002602052604090205416156200129d5760405162461bcd60e51b815260206004820152600b60248201526a504f4f4c5f45584953545360a81b604482015260640162000519565b6008546001600160a01b031633146200156d5760405162461bcd60e51b8152600401620005199062001edb565b6001600160a01b03831660009081526004602052604090205460ff16620015c25760405162461bcd60e51b81526020600482015260086024820152671393d517d413d3d360c21b604482015260640162000519565b60405160016213e09360e31b031981526001600160a01b0384169063ff60fb689062000606908590859060040162001fe0565b6006546001600160a01b03163314620016425760405162461bcd60e51b815260206004820152600e60248201526d4f4e4c595f4f52444552424f4f4b60901b604482015260640162000519565b6001600160a01b03821660009081526004602052604090205460ff16620016975760405162461bcd60e51b81526020600482015260086024820152671393d517d413d3d360c21b604482015260640162000519565b6001600160a01b038116620016c05760405162461bcd60e51b8152600401620005199062001fa8565b604051632f27f78b60e21b81526001600160a01b03828116600483015283169063bc9fde2c90602401600060405180830381600087803b1580156200170457600080fd5b505af1158015620007ee573d6000803e3d6000fd5b606060038054806020026020016040519081016040528092919081815260200182805480156200177357602002820191906000526020600020905b81546001600160a01b0316815260019091019060200180831162001754575b5050505050905090565b6001600160a01b038316620017c05760405162461bcd60e51b815260206004820152600860248201526710905117d413d3d360c21b604482015260640162000519565b6001600160a01b038216620017e95760405162461bcd60e51b8152600401620005199062001fa8565b60008111620018265760405162461bcd60e51b8152602060048201526008602482015267414d545f5a45524f60c01b604482015260640162000519565b60405163c257309960e01b81526001600160a01b0383811660048301526024820183905284169063c25730999060440162000606565b6000806000806101676001600160a01b031663d6910d0660e01b8888886040516024016200188d939291906200200f565b60408051601f198184030181529181526020820180516001600160e01b03166001600160e01b0319909416939093179092529051620018cd919062001e6b565b6000604051808303816000865af19150503d80600081146200190c576040519150601f19603f3d011682016040523d82523d6000602084013e62001911565b606091505b5091509150816200192657601560006200193c565b808060200190518101906200193c919062002088565b60039190910b9890975095505050505050565b60008060606000806101676001600160a01b031663e0f4059a60e01b8989896040516024016200198293929190620020b7565b60408051601f198184030181529181526020820180516001600160e01b03166001600160e01b0319909416939093179092529051620019c2919062001e6b565b6000604051808303816000865af19150503d806000811462001a01576040519150601f19603f3d011682016040523d82523d6000602084013e62001a06565b606091505b50915091508162001a2b57604080516000808252602082019092526015919062001a41565b8080602001905181019062001a41919062002137565b60039290920b9a90995090975095505050505050565b6040516001600160a01b038581166024830152848116604483015283166064820152600782900b6084820152600090819081906101679063eca3691760e01b9060a40162000680565b613c6a806200221983390190565b80356001600160a01b038116811462001ac657600080fd5b919050565b60008060006060848603121562001ae157600080fd5b62001aec8462001aae565b925062001afc6020850162001aae565b9150604084013590509250925092565b60006020828403121562001b1f57600080fd5b62001b2a8262001aae565b9392505050565b6000806000806080858703121562001b4857600080fd5b62001b538562001aae565b935062001b636020860162001aae565b925062001b736040860162001aae565b9396929550929360600135925050565b6000806040838503121562001b9757600080fd5b62001ba28362001aae565b946020939093013593505050565b60006020828403121562001bc357600080fd5b5035919050565b634e487b7160e01b600052604160045260246000fd5b604051601f8201601f1916810167ffffffffffffffff8111828210171562001c0c5762001c0c62001bca565b604052919050565b6000806040838503121562001c2857600080fd5b62001c338362001aae565b915060208084013567ffffffffffffffff8082111562001c5257600080fd5b818601915086601f83011262001c6757600080fd5b81358181111562001c7c5762001c7c62001bca565b62001c90601f8201601f1916850162001be0565b9150808252878482850101111562001ca757600080fd5b80848401858401376000848284010152508093505050509250929050565b60005b8381101562001ce257818101518382015260200162001cc8565b50506000910152565b6000815180845262001d0581602086016020860162001cc5565b601f01601f19169290920160200192915050565b82815260406020820152600062001d34604083018462001ceb565b949350505050565b6000806040838503121562001d5057600080fd5b62001d5b8362001aae565b915062001d6b6020840162001aae565b90509250929050565b60008060006040848603121562001d8a57600080fd5b62001d958462001aae565b9250602084013567ffffffffffffffff8082111562001db357600080fd5b818601915086601f83011262001dc857600080fd5b81358181111562001dd857600080fd5b87602082850101111562001deb57600080fd5b6020830194508093505050509250925092565b6020808252825182820181905260009190848201906040850190845b8181101562001e415783516001600160a01b03168352928401929184019160010162001e1a565b50909695505050505050565b602080825260049082015263082aaa8960e31b604082015260600190565b6000825162001e7f81846020870162001cc5565b9190910192915050565b8051600381900b811462001ac657600080fd5b60006020828403121562001eaf57600080fd5b62001b2a8262001e89565b60208082526007908201526604e4f5f43534c560cc1b604082015260600190565b60208082526003908201526227aba760e91b604082015260600190565b634e487b7160e01b600052601160045260246000fd5b808202811582820484141762001022576200102262001ef8565b60008262001f4657634e487b7160e01b600052601260045260246000fd5b500490565b6001600160a01b038316815260406020820181905260009062001d349083018462001ceb565b821515815260406020820152600062001d34604083018462001ceb565b60006020828403121562001fa157600080fd5b5051919050565b6020808252600890820152672120a22faaa9a2a960c11b604082015260600190565b8181038181111562001022576200102262001ef8565b60208152816020820152818360408301376000818301604090810191909152601f909201601f19160101919050565b60006060820160018060a01b03861683526020600786810b8286015260606040860152828651808552608087019150838801945060005b8181101562002066578551840b8352948401949184019160010162002046565b50909998505050505050505050565b8051600781900b811462001ac657600080fd5b600080604083850312156200209c57600080fd5b620020a78362001e89565b915062001d6b6020840162002075565b60006060820160018060a01b038616835260208560070b818501526060604085015281855180845260808601915060808160051b870101935082870160005b828110156200212857607f198887030184526200211586835162001ceb565b95509284019290840190600101620020f6565b50939998505050505050505050565b6000806000606084860312156200214d57600080fd5b620021588462001e89565b925060206200216981860162002075565b9250604085015167ffffffffffffffff808211156200218757600080fd5b818701915087601f8301126200219c57600080fd5b815181811115620021b157620021b162001bca565b8060051b9150620021c484830162001be0565b818152918301840191848101908a841115620021df57600080fd5b938501935b838510156200220857620021f88562002075565b82529385019390850190620021e4565b809650505050505050925092509256fe60e060405260028054610100600160a81b03191690553480156200002257600080fd5b5060405162003c6a38038062003c6a833981016040819052620000459162000384565b806001600160a01b0381166200007657604051631e4fbdf760e01b8152600060048201526024015b60405180910390fd5b620000818162000317565b506001808055600360209081527f3617319a054d772f909f7c479a2cebe5066e836a939412e32403c99029b92eff9190915560027fa15bc60c955c405d20d9149c709e2460f1c2d9a497496a7f46004d1772c3054c5560047fc3a24b0501bd2c13a7e57f2db4369ec4c223447539fc0724a9d55ac4a06ebd4d5560087fcbc4e5fb02c3d1de23a9f1e014b4d2ee5aeaea9505df5e855c9210bf472495af5560107f83ec6a1f0257b830b5e016457c9cf1435391bf56cc98f369a58a54fe93772465557f405aad32e1adbac89bb7f176e338b8fc6e994ca210c9bb7bdca249b46594225055600660005260407fc69056f16cbaa3c616b828e333ab7d3a32310765507f8f58359e99ebb7a885f3556001600160a01b038516620001d45760405162461bcd60e51b815260206004820152600b60248201526a4241445f464143544f525960a81b60448201526064016200006d565b6001600160a01b038416620002175760405162461bcd60e51b81526020600482015260086024820152672120a22faaa9a2a960c11b60448201526064016200006d565b6001600160a01b0383166200025a5760405162461bcd60e51b815260206004820152600860248201526704241445f43534c560c41b60448201526064016200006d565b6001600160a01b0382166200029d5760405162461bcd60e51b81526020600482015260086024820152672120a22fa321a22960c11b60448201526064016200006d565b6001600160a01b038116620002e15760405162461bcd60e51b81526020600482015260096024820152682120a22fa7aba722a960b91b60448201526064016200006d565b506001600160a01b03938416608052600480546001600160a01b03191693851693909317909255821660a0521660c052620003f4565b600080546001600160a01b038381166001600160a01b0319831681178455604051919092169283917f8be0079c531659141344cd1fd0a4f28419497f9722a3daafe3b4186f6b6457e09190a35050565b80516001600160a01b03811681146200037f57600080fd5b919050565b600080600080600060a086880312156200039d57600080fd5b620003a88662000367565b9450620003b86020870162000367565b9350620003c86040870162000367565b9250620003d86060870162000367565b9150620003e86080870162000367565b90509295509295909350565b60805160a05160c051613797620004d36000396000818161056801526106e201526000818161075801528181610a5101528181610c9d01528181610d9c01528181610e97015281816112a8015281816113ed015281816114e9015281816115a40152818161174a01528181611872015281816118f401526122030152600081816108a401528181610e0901528181610f6f0152818161111a0152818161145a015281816117b701528181611abc015281816120a301528181612143015281816122e40152818161254a0152818161260e0152612a1f01526137976000f3fe6080604052600436106102cd5760003560e01c80638eabd14e11610175578063c6e5d8f6116100dc578063e64db87e11610095578063ef6283d91161006f578063ef6283d9146109cb578063f2d65fb0146109e1578063f2fde38b14610a01578063ff60fb6814610a21576102d4565b8063e64db87e14610974578063e7834029146109a1578063ea04f155146109b6576102d4565b8063c6e5d8f6146108c6578063cc62d8c4146108f3578063cf2c033414610913578063d4c3eea014610933578063d73792a914610949578063db2e21bc1461095f576102d4565b8063be5911291161012e578063be591129146107ed578063bf333f2c1461080d578063bf4827b514610822578063c257309914610842578063c279a2bc14610862578063c45a015514610892576102d4565b80638eabd14e146107245780639827d473146107465780639b23d3d91461077a578063aebf3e411461079a578063b79c41a2146107ad578063bc9fde2c146107cd576102d4565b80635839f07f1161023457806372459f39116101ed5780638456cb59116101c75780638456cb591461069e5780638b0c36fa146106b35780638c58eff1146106d35780638da5cb5b14610706576102d4565b806372459f39146106385780637469dff71461064e5780637f2b6a0d14610684576102d4565b80635839f07f146105565780635962a9411461058a5780635c975abb146105a057806360246c88146105c4578063618dc65e146105f5578063715018a614610623576102d4565b8063289994371161028657806328999437146104155780632fb9125d1461042b5780633474d1f91461044057806339419a14146104e95780633e7e516a146105095780633f4ba83a14610541576102d4565b806310b42fd41461030657806310ca0bce1461032a57806315dacbea1461034157806321b77d6314610374578063240f1b621461038b578063250e6de01461040d576102d4565b366102d457005b60405162461bcd60e51b8152602060048201526002602482015261272360f11b60448201526064015b60405180910390fd5b34801561031257600080fd5b506009545b6040519081526020015b60405180910390f35b34801561033657600080fd5b5061033f610a41565b005b34801561034d57600080fd5b5061036161035c366004612acf565b610ac1565b60405160079190910b8152602001610321565b34801561038057600080fd5b50610317620186a081565b34801561039757600080fd5b506103ab6103a6366004612b1a565b610bb5565b6040516103219190815181526020808301519082015260408083015190820152606080830151908201526080808301516001600160a01b039081169183019190915260a08084015182169083015260c092830151169181019190915260e00190565b61033f610c83565b34801561042157600080fd5b5061031760055481565b34801561043757600080fd5b50610317610f31565b34801561044c57600080fd5b506104a561045b366004612b1a565b600c60205260009081526040902080546001820154600283015460038401546004850154600586015460069096015494959394929391926001600160a01b03918216928216911687565b6040805197885260208801969096529486019390935260608501919091526001600160a01b03908116608085015290811660a08401521660c082015260e001610321565b3480156104f557600080fd5b5061033f610504366004612b33565b610f64565b34801561051557600080fd5b50600454610529906001600160a01b031681565b6040516001600160a01b039091168152602001610321565b34801561054d57600080fd5b5061033f610fbf565b34801561056257600080fd5b506105297f000000000000000000000000000000000000000000000000000000000000000081565b34801561059657600080fd5b50610317600e5481565b3480156105ac57600080fd5b5060025460ff165b6040519015158152602001610321565b3480156105d057600080fd5b5060055460065460075460408051938452602084019290925290820152606001610321565b34801561060157600080fd5b50610615610610366004612b6b565b610fcf565b604051610321929190612c7d565b34801561062f57600080fd5b5061033f6110ed565b34801561064457600080fd5b5061031760095481565b34801561065a57600080fd5b50610317610669366004612c9e565b6001600160a01b03166000908152600a602052604090205490565b34801561069057600080fd5b506008546105b49060ff1681565b3480156106aa57600080fd5b5061033f6110ff565b3480156106bf57600080fd5b5061033f6106ce366004612b1a565b61110f565b3480156106df57600080fd5b507f0000000000000000000000000000000000000000000000000000000000000000610529565b34801561071257600080fd5b506000546001600160a01b0316610529565b34801561073057600080fd5b506107396111c3565b6040516103219190612cb9565b34801561075257600080fd5b506105297f000000000000000000000000000000000000000000000000000000000000000081565b34801561078657600080fd5b50610361610795366004612acf565b611251565b61033f6107a8366004612ccc565b611296565b3480156107b957600080fd5b506103176107c8366004612cfe565b611a1b565b3480156107d957600080fd5b5061033f6107e8366004612c9e565b611ab1565b3480156107f957600080fd5b50610739610808366004612d2f565b611b5c565b34801561081957600080fd5b50610317601e81565b34801561082e57600080fd5b5061033f61083d366004612d4c565b612098565b34801561084e57600080fd5b5061033f61085d366004612d4c565b612138565b34801561086e57600080fd5b506105b461087d366004612c9e565b600f6020526000908152604090205460ff1681565b34801561089e57600080fd5b506105297f000000000000000000000000000000000000000000000000000000000000000081565b3480156108d257600080fd5b506108e66108e1366004612c9e565b61226d565b6040516103219190612d76565b3480156108ff57600080fd5b5061033f61090e366004612b1a565b6122d9565b34801561091f57600080fd5b5061031761092e366004612d4c565b612326565b34801561093f57600080fd5b5061031760075481565b34801561095557600080fd5b5061031761271081565b34801561096b57600080fd5b5061033f612357565b34801561098057600080fd5b5061031761098f366004612c9e565b600a6020526000908152604090205481565b3480156109ad57600080fd5b5061033f612449565b3480156109c257600080fd5b50600e54610317565b3480156109d757600080fd5b5061031760065481565b3480156109ed57600080fd5b5061033f6109fc366004612b1a565b61253f565b348015610a0d57600080fd5b5061033f610a1c366004612c9e565b6125c8565b348015610a2d57600080fd5b5061033f610a3c366004612dba565b612603565b610a49612658565b6000610a75307f0000000000000000000000000000000000000000000000000000000000000000612685565b905060168114610abe57610a8881611b5c565b604051602001610a989190612e2c565b60408051601f198184030181529082905262461bcd60e51b82526102fd91600401612cb9565b50565b6040516001600160a01b038581166024830152848116604483015283166064820152608481018290526000908190819061016790630aed65f560e11b9060a4015b60408051601f198184030181529181526020820180516001600160e01b03166001600160e01b0319909416939093179092529051610b409190612e71565b6000604051808303816000865af19150503d8060008114610b7d576040519150601f19603f3d011682016040523d82523d6000602084013e610b82565b606091505b509150915081610b93576015610ba7565b80806020019051810190610ba79190612e8d565b60030b979650505050505050565b610c106040518060e001604052806000815260200160008152602001600081526020016000815260200160006001600160a01b0316815260200160006001600160a01b0316815260200160006001600160a01b031681525090565b506000908152600c6020908152604091829020825160e081018452815481526001820154928101929092526002810154928201929092526003820154606082015260048201546001600160a01b0390811660808301526005830154811660a083015260069092015490911660c082015290565b610c8b612658565b610c93612759565b610c9b612783565b7f00000000000000000000000000000000000000000000000000000000000000006001600160a01b0316610cfb5760405162461bcd60e51b815260206004820152600760248201526604e4f5f43534c560cc1b60448201526064016102fd565b60065415610d345760405162461bcd60e51b815260206004820152600660248201526512539255115160d21b60448201526064016102fd565b620186a0341015610d715760405162461bcd60e51b81526020600482015260076024820152662624a8afa6a4a760c91b60448201526064016102fd565b3460058190556007819055600090610d8b90606490612ec0565b604051600782900b815290915033907f00000000000000000000000000000000000000000000000000000000000000006001600160a01b0316907fb7555d949a897acb395f95e3f2df8b700519404826bb13cd6526b756f6a1c9079060200160405180910390a3604051632193fc1360e11b81526001600160a01b037f00000000000000000000000000000000000000000000000000000000000000001690634327f82690610e4290309033908690600401612ee2565b600060405180830381600087803b158015610e5c57600080fd5b505af1158015610e70573d6000803e3d6000fd5b50505060068290555060408051600783900b81526000602082015233916001600160a01b037f000000000000000000000000000000000000000000000000000000000000000016917fad91542866f4da9ebed5a2b1713258f4bf970f84e7b2a0b8aab2de28d11ffffd910160405180910390a360408051348152602081018390524281830152905133917f64b83944e79c3ce8d4c297411de637c3e102d064677aac0c163976ebdcd6f50e919081900360600190a250610f2f60018055565b565b6000600654600003610f435750600090565b6006546064600754610f559190612ec0565b610f5f9190612ec0565b905090565b336001600160a01b037f00000000000000000000000000000000000000000000000000000000000000001614610fac5760405162461bcd60e51b81526004016102fd90612f06565b6008805460ff1916911515919091179055565b610fc7612658565b610f2f6127a7565b600060606000806101676001600160a01b031663618dc65e60e01b8787604051602401610ffd929190612f28565b60408051601f198184030181529181526020820180516001600160e01b03166001600160e01b031990941693909317909252905161103b9190612e71565b6000604051808303816000865af19150503d8060008114611078576040519150601f19603f3d011682016040523d82523d6000602084013e61107d565b606091505b50915091507f4af4780e06fe8cb9df64b0794fa6f01399af979175bb988e35e0e57e594567bc82826040516110b3929190612f4c565b60405180910390a1816110d7576015604051806020016040528060008152506110db565b6016815b60039190910b97909650945050505050565b6110f5612658565b610f2f60006127f9565b611107612658565b610f2f612849565b336001600160a01b037f000000000000000000000000000000000000000000000000000000000000000016146111575760405162461bcd60e51b81526004016102fd90612f06565b600081116111905760405162461bcd60e51b81526020600482015260066024820152650484241523c360d41b60448201526064016102fd565b80600560008282546111a29190612f67565b9250508190555080600760008282546111bb9190612f67565b909155505050565b600b80546111d090612f80565b80601f01602080910402602001604051908101604052809291908181526020018280546111fc90612f80565b80156112495780601f1061121e57610100808354040283529160200191611249565b820191906000526020600020905b81548152906001019060200180831161122c57829003601f168201915b505050505081565b6040516001600160a01b038581166024830152848116604483015283166064820152608481018290526000908190819061016790639b23d3d960e01b9060a401610b02565b61129e612759565b6112a6612783565b7f00000000000000000000000000000000000000000000000000000000000000006001600160a01b03166113065760405162461bcd60e51b815260206004820152600760248201526604e4f5f43534c560cc1b60448201526064016102fd565b600034116113265760405162461bcd60e51b81526004016102fd90612fba565b600083116113615760405162461bcd60e51b81526020600482015260086024820152675553445f5a45524f60c01b60448201526064016102fd565b6000821161139c5760405162461bcd60e51b81526020600482015260086024820152674d41545f5a45524f60c01b60448201526064016102fd565b6006546000036116ce57346005819055600755336000908152600f602052604081205460ff166113cf57620f42406113d2565b60005b62ffffff169050801561155c57604051600782900b815233907f00000000000000000000000000000000000000000000000000000000000000006001600160a01b0316907fb7555d949a897acb395f95e3f2df8b700519404826bb13cd6526b756f6a1c9079060200160405180910390a3604051632193fc1360e11b81526001600160a01b037f00000000000000000000000000000000000000000000000000000000000000001690634327f8269061149390309033908690600401612ee2565b600060405180830381600087803b1580156114ad57600080fd5b505af11580156114c1573d6000803e3d6000fd5b5050336000818152600f6020526040808220805460ff191660011790556006869055519193507f00000000000000000000000000000000000000000000000000000000000000006001600160a01b031692507fad91542866f4da9ebed5a2b1713258f4bf970f84e7b2a0b8aab2de28d11ffffd9161154f918691600792830b8152910b602082015260400190565b60405180910390a3611562565b60016006555b60006040518060e001604052803481526020014281526020016115858787611a1b565b81526020808201859052336040808401829052306060808601919091527f00000000000000000000000000000000000000000000000000000000000000006001600160a01b03908116608096870152600e80546000908152600c875284812089518155898801516001808301919091558a8701516002830155948a01516003820155978901516004890180549185166001600160a01b031992831617905560a08a015160058a01805491861691831691909117905560c08a01516006909901805499909416981697909717909155928552600d8452908420825481549283018255908552928420019190915580549293509061168083612fdb565b909155505060408051348152602081018490524281830152905133917f64b83944e79c3ce8d4c297411de637c3e102d064677aac0c163976ebdcd6f50e919081900360600190a25050611a0c565b60006116da8484611a1b565b905034600560008282546116ee9190612f67565b9250508190555034600760008282546117079190612f67565b9091555050336000908152600f602052604081205460ff1661172c57620f424061172f565b60005b62ffffff16905080156118bf57604051600782900b815233907f00000000000000000000000000000000000000000000000000000000000000006001600160a01b0316907fb7555d949a897acb395f95e3f2df8b700519404826bb13cd6526b756f6a1c9079060200160405180910390a3604051632193fc1360e11b81526001600160a01b037f00000000000000000000000000000000000000000000000000000000000000001690634327f826906117f090309033908690600401612ee2565b600060405180830381600087803b15801561180a57600080fd5b505af115801561181e573d6000803e3d6000fd5b5050336000908152600f60205260408120805460ff191660011790556006805485945090925061184f908490612f67565b909155505060408051600783900b81526000602082015233916001600160a01b037f000000000000000000000000000000000000000000000000000000000000000016917fad91542866f4da9ebed5a2b1713258f4bf970f84e7b2a0b8aab2de28d11ffffd910160405180910390a35b6040805160e0810182523481524260208083019182528284018681526060840186815233608086018181523060a088019081527f00000000000000000000000000000000000000000000000000000000000000006001600160a01b0390811660c08a01908152600e80546000908152600c8a528c81209b518c5599516001808d0191909155975160028c0155955160038b0155925160048a0180549183166001600160a01b0319928316179055915160058a01805491831691841691909117905591516006909801805498909216971696909617909555938352600d8252938220835481549586018255908352908220909301929092558054916119c283612fdb565b909155505060408051348152602081018390524281830152905133917f64b83944e79c3ce8d4c297411de637c3e102d064677aac0c163976ebdcd6f50e919081900360600190a250505b611a1560018055565b50505050565b6000808311611a575760405162461bcd60e51b81526020600482015260086024820152675553445f5a45524f60c01b60448201526064016102fd565b60008211611a925760405162461bcd60e51b81526020600482015260086024820152674d41545f5a45524f60c01b60448201526064016102fd565b81611aa084620f4240612ff4565b611aaa9190612ec0565b9392505050565b336001600160a01b037f00000000000000000000000000000000000000000000000000000000000000001614611af95760405162461bcd60e51b81526004016102fd90612f06565b6001600160a01b038116611b3a5760405162461bcd60e51b81526020600482015260086024820152672120a22faaa9a2a960c11b60448201526064016102fd565b600480546001600160a01b0319166001600160a01b0392909216919091179055565b6060601519600383900b01611b8e5750506040805180820190915260078152665355434345535360c81b602082015290565b600819600383900b01611bba576040518060600160405280603181526020016135106031913992915050565b600919600383900b01611be65760405180606001604052806040815260200161357f6040913992915050565b600619600383900b01611c12576040518060600160405280603481526020016133d86034913992915050565b600e19600383900b01611c3e576040518060600160405280603c81526020016131d8603c913992915050565b600f19600383900b01611c6a576040518060600160405280603e815260200161340c603e913992915050565b601d19600383900b01611c96576040518060600160405280602a81526020016134ae602a913992915050565b602119600383900b01611cc2576040518060600160405280603881526020016134d86038913992915050565b606e19600383900b01611cee576040518060600160405280602b81526020016135f8602b913992915050565b60a919600383900b01611d1a576040518060600160405280603d8152602001613623603d913992915050565b60aa19600383900b01611d46576040518060600160405280602e815260200161344a602e913992915050565b60ad19600383900b01611d72576040518060600160405280603081526020016133736030913992915050565b60ae19600383900b01611d9e576040518060600160405280603981526020016135bf6039913992915050565b60bd19600383900b01611dca576040518060600160405280602c8152602001613660602c913992915050565b60be19600383900b01611df65760405180606001604052806035815260200161372d6035913992915050565b60a719600383900b01611e22576040518060600160405280603881526020016132716038913992915050565b60a819600383900b01611e4e576040518060600160405280603e8152602001613541603e913992915050565b60bc19600383900b01611e7a576040518060600160405280602a81526020016136d0602a913992915050565b609a19600383900b01611ea6576040518060600160405280602881526020016132146028913992915050565b601919600383900b01611ed2576040518060600160405280602681526020016132a96026913992915050565b601a19600383900b01611efe576040518060600160405280602681526020016132cf6026913992915050565b602519600383900b01611f2a576040518060600160405280603581526020016133a36035913992915050565b603f19600383900b01611f565760405180606001604052806035815260200161323c6035913992915050565b604019600383900b01611f825760405180608001604052806044815260200161368c6044913992915050565b61011619600383900b01611faf576040518060600160405280603681526020016134786036913992915050565b61014419600383900b01611fdc576040518060600160405280603f8152602001613334603f913992915050565b61014519600383900b01612009576040518060600160405280603f81526020016132f5603f913992915050565b61014619600383900b01612036576040518060800160405280604181526020016131976041913992915050565b61014719600383900b01612063576040518060600160405280603381526020016136fa6033913992915050565b6120728263ffffffff16612886565b604051602001612082919061300b565b6040516020818303038152906040529050919050565b336001600160a01b037f000000000000000000000000000000000000000000000000000000000000000016146120e05760405162461bcd60e51b81526004016102fd90612f06565b600281111561211c5760405162461bcd60e51b81526020600482015260086024820152672120a22fa321a22960c11b60448201526064016102fd565b6001600160a01b039091166000908152600a6020526040902055565b336001600160a01b037f000000000000000000000000000000000000000000000000000000000000000016146121805760405162461bcd60e51b81526004016102fd90612f06565b6001600160a01b0382166121c15760405162461bcd60e51b81526020600482015260086024820152672120a22faaa9a2a960c11b60448201526064016102fd565b600081116121fc5760405162461bcd60e51b8152602060048201526008602482015267414d545f5a45524f60c01b60448201526064016102fd565b600061222a7f00000000000000000000000000000000000000000000000000000000000000003085856129b2565b9050601681146122685760405162461bcd60e51b815260206004820152600960248201526821a9a6282fac2322a960b91b60448201526064016102fd565b505050565b6001600160a01b0381166000908152600d60209081526040918290208054835181840281018401909452808452606093928301828280156122cd57602002820191906000526020600020905b8154815260200190600101908083116122b9575b50505050509050919050565b336001600160a01b037f000000000000000000000000000000000000000000000000000000000000000016146123215760405162461bcd60e51b81526004016102fd90612f06565b600655565b600d602052816000526040600020818154811061234257600080fd5b90600052602060002001600091509150505481565b61235f612658565b6123676129fa565b47806123855760405162461bcd60e51b81526004016102fd90612fba565b80600560008282546123979190613046565b9250508190555080600760008282546123b09190613046565b9091555050600080546040516001600160a01b039091169083908381818185875af1925050503d8060008114612402576040519150601f19603f3d011682016040523d82523d6000602084013e612407565b606091505b50509050806124455760405162461bcd60e51b815260206004820152600a60248201526908a9a8aa48ebeae88beb60b31b60448201526064016102fd565b5050565b612451612658565b6124596129fa565b47806124775760405162461bcd60e51b81526004016102fd90612fba565b61248081612a1d565b80600560008282546124929190613046565b9250508190555080600760008282546124ab9190613046565b9091555050600080546040516001600160a01b039091169083908381818185875af1925050503d80600081146124fd576040519150601f19603f3d011682016040523d82523d6000602084013e612502565b606091505b50509050806124455760405162461bcd60e51b81526020600482015260096024820152680908482a4beae88beb60bb1b60448201526064016102fd565b336001600160a01b037f000000000000000000000000000000000000000000000000000000000000000016146125875760405162461bcd60e51b81526004016102fd90612f06565b6127108111156125c35760405162461bcd60e51b81526020600482015260076024820152661410d517d0905160ca1b60448201526064016102fd565b600955565b6125d0612658565b6001600160a01b0381166125fa57604051631e4fbdf760e01b8152600060048201526024016102fd565b610abe816127f9565b336001600160a01b037f0000000000000000000000000000000000000000000000000000000000000000161461264b5760405162461bcd60e51b81526004016102fd90612f06565b600b6122688284836130a7565b6000546001600160a01b03163314610f2f5760405163118cdaa760e01b81523360048201526024016102fd565b604080516001600160a01b038481166024830152831660448083019190915282518083039091018152606490910182526020810180516001600160e01b031663248a35ef60e11b179052905160009182918291610167916126e69190612e71565b6000604051808303816000865af19150503d8060008114612723576040519150601f19603f3d011682016040523d82523d6000602084013e612728565b606091505b50915091508161273957601561274d565b8080602001905181019061274d9190612e8d565b60030b95945050505050565b60026001540361277c57604051633ee5aeb560e01b815260040160405180910390fd5b6002600155565b60025460ff1615610f2f5760405163d93c066560e01b815260040160405180910390fd5b6127af6129fa565b6002805460ff191690557f5db9ee0a495bf2e6ff9c91a7834c1ba4fdd244a5e8aa4e537bd38aeae4b073aa335b6040516001600160a01b03909116815260200160405180910390a1565b600080546001600160a01b038381166001600160a01b0319831681178455604051919092169283917f8be0079c531659141344cd1fd0a4f28419497f9722a3daafe3b4186f6b6457e09190a35050565b612851612783565b6002805460ff191660011790557f62e78cea01bee320cd4e420270b5ea74000d11b0c9f74754ebdbfc544b05a2586127dc3390565b6060816000036128ad5750506040805180820190915260018152600360fc1b602082015290565b8160005b81156128d757806128c181612fdb565b91506128d09050600a83612ec0565b91506128b1565b60008167ffffffffffffffff8111156128f2576128f2612b55565b6040519080825280601f01601f19166020018201604052801561291c576020820181803683370190505b509050815b85156129a957612932600182613046565b90506000612941600a88612ec0565b61294c90600a612ff4565b6129569088613046565b612961906030613167565b905060008160f81b90508084848151811061297e5761297e613180565b60200101906001600160f81b031916908160001a9053506129a0600a89612ec0565b97505050612921565b50949350505050565b6040516001600160a01b038581166024830152848116604483015283166064820152600782900b6084820152600090819081906101679063eca3691760e01b9060a401610b02565b60025460ff16610f2f57604051638dfc202b60e01b815260040160405180910390fd5b7f00000000000000000000000000000000000000000000000000000000000000006001600160a01b03166395f40f9530612a5f6000546001600160a01b031690565b846040518463ffffffff1660e01b8152600401612a7e93929190612ee2565b600060405180830381600087803b158015612a9857600080fd5b505af1158015612aac573d6000803e3d6000fd5b5050505050565b80356001600160a01b0381168114612aca57600080fd5b919050565b60008060008060808587031215612ae557600080fd5b612aee85612ab3565b9350612afc60208601612ab3565b9250612b0a60408601612ab3565b9396929550929360600135925050565b600060208284031215612b2c57600080fd5b5035919050565b600060208284031215612b4557600080fd5b81358015158114611aaa57600080fd5b634e487b7160e01b600052604160045260246000fd5b60008060408385031215612b7e57600080fd5b612b8783612ab3565b9150602083013567ffffffffffffffff80821115612ba457600080fd5b818501915085601f830112612bb857600080fd5b813581811115612bca57612bca612b55565b604051601f8201601f19908116603f01168101908382118183101715612bf257612bf2612b55565b81604052828152886020848701011115612c0b57600080fd5b8260208601602083013760006020848301015280955050505050509250929050565b60005b83811015612c48578181015183820152602001612c30565b50506000910152565b60008151808452612c69816020860160208601612c2d565b601f01601f19169290920160200192915050565b828152604060208201526000612c966040830184612c51565b949350505050565b600060208284031215612cb057600080fd5b611aaa82612ab3565b602081526000611aaa6020830184612c51565b60008060008060808587031215612ce257600080fd5b5050823594602084013594506040840135936060013592509050565b60008060408385031215612d1157600080fd5b50508035926020909101359150565b8060030b8114610abe57600080fd5b600060208284031215612d4157600080fd5b8135611aaa81612d20565b60008060408385031215612d5f57600080fd5b612d6883612ab3565b946020939093013593505050565b6020808252825182820181905260009190848201906040850190845b81811015612dae57835183529284019291840191600101612d92565b50909695505050505050565b60008060208385031215612dcd57600080fd5b823567ffffffffffffffff80821115612de557600080fd5b818501915085601f830112612df957600080fd5b813581811115612e0857600080fd5b866020828501011115612e1a57600080fd5b60209290920196919550909350505050565b7f43534c5020746f6b656e206173736f63696174696f6e206661696c65643a2000815260008251612e6481601f850160208701612c2d565b91909101601f0192915050565b60008251612e83818460208701612c2d565b9190910192915050565b600060208284031215612e9f57600080fd5b8151611aaa81612d20565b634e487b7160e01b600052601160045260246000fd5b600082612edd57634e487b7160e01b600052601260045260246000fd5b500490565b6001600160a01b039384168152919092166020820152604081019190915260600190565b6020808252600890820152674f4e4c595f46414360c01b604082015260600190565b6001600160a01b0383168152604060208201819052600090612c9690830184612c51565b8215158152604060208201526000612c966040830184612c51565b80820180821115612f7a57612f7a612eaa565b92915050565b600181811c90821680612f9457607f821691505b602082108103612fb457634e487b7160e01b600052602260045260246000fd5b50919050565b6020808252600790820152662727afa42120a960c91b604082015260600190565b600060018201612fed57612fed612eaa565b5060010190565b8082028115828204841417612f7a57612f7a612eaa565b72554e4b4e4f574e5f4552524f525f434f44455f60681b815260008251613039816013850160208701612c2d565b9190910160130192915050565b81810381811115612f7a57612f7a612eaa565b601f82111561226857600081815260208120601f850160051c810160208610156130805750805b601f850160051c820191505b8181101561309f5782815560010161308c565b505050505050565b67ffffffffffffffff8311156130bf576130bf612b55565b6130d3836130cd8354612f80565b83613059565b6000601f84116001811461310757600085156130ef5750838201355b600019600387901b1c1916600186901b178355612aac565b600083815260209020601f19861690835b828110156131385786850135825560209485019460019092019101613118565b50868210156131555760001960f88860031b161c19848701351681555b505060018560011b0183555050505050565b60ff8181168382160190811115612f7a57612f7a612eaa565b634e487b7160e01b600052603260045260246000fdfe494e53554646494349454e545f53544f524147455f52454e54202d20496e73756666696369656e742062616c616e636520666f722073746f726167652072656e74494e56414c49445f4143434f554e545f4944202d204163636f756e7420494420697320696e76616c6964206f7220646f6573206e6f74206578697374494e56414c49445f41444d494e5f4b4559202d2041646d696e206b657920697320696e76616c69645452414e53414354494f4e5f4f56455253495a45202d205472616e73616374696f6e20657863656564732073697a65206c696d6974494e56414c49445f544f4b454e5f444543494d414c53202d20546f6b656e20646563696d616c732076616c756520697320696e76616c69644b45595f5245515549524544202d205265717569726564206b6579206973206d697373696e674241445f454e434f44494e47202d204b657920656e636f64696e6720697320696e76616c6964494e56414c49445f505245434f4d50494c455f5349474e4154555245202d20496e76616c6964207369676e617475726520666f7220707265636f6d70696c654d41585f454e5449544945535f43524541544544202d204d6178696d756d20656e74697469657320696e20707269636520726567696d6520726561636865644d495353494e475f544f4b454e5f53594d424f4c202d20546f6b656e2073796d626f6c206e6f742070726f7669646564494e56414c49445f4b45595f454e434f44494e47202d204b657920656e636f64696e6720666f726d617420697320696e76616c6964494e56414c49445f5349474e4154555245202d205472616e73616374696f6e207369676e617475726520697320696e76616c6964494e56414c49445f434f4e54524143545f4944202d20436f6e747261637420494420697320696e76616c6964206f7220646f6573206e6f74206578697374494e56414c49445f544f4b454e5f53594d424f4c202d20546f6b656e2073796d626f6c20697320696e76616c6964434f4e53454e5355535f4741535f455848415553544544202d20436f6e73656e737573206e6f64652067617320657868617573746564494e53554646494349454e545f474153202d204e6f7420656e6f7567682067617320737570706c696564434f4e54524143545f455845435554494f4e5f455843455054494f4e202d20436f6e747261637420657865637574696f6e206661696c6564494e53554646494349454e545f54585f464545202d204e6f7420656e6f756768206761732f6665652070726f7669646564494e56414c49445f544f4b454e5f494e495449414c5f535550504c59202d20496e697469616c20737570706c792076616c756520697320696e76616c6964494e53554646494349454e545f50415945525f42414c414e4345202d205061796572206163636f756e742068617320696e73756666696369656e742048424152544f4b454e5f53594d424f4c5f544f4f5f4c4f4e47202d20546f6b656e2073796d626f6c2065786365656473206c656e677468206c696d69744d41585f4741535f4c494d49545f4558434545444544202d20476173206c696d6974206578636565646564494e56414c49445f54524541535552595f4143434f554e545f464f525f544f4b454e202d205472656173757279206163636f756e7420696e76616c69644d495353494e475f544f4b454e5f4e414d45202d20546f6b656e206e616d65206e6f742070726f76696465645452414e53414354494f4e5f544f4f5f4d414e595f4c4159455253202d205472616e73616374696f6e2068617320746f6f206d616e79206e6573746564206c6179657273494e56414c49445f535550504c595f4b4559202d20537570706c79206b657920697320696e76616c69644d41585f4348494c445f5245434f5244535f4558434545444544202d20546f6f206d616e79206368696c64207265636f726473544f4b454e5f4e414d455f544f4f5f4c4f4e47202d20546f6b656e206e616d652065786365656473206c656e677468206c696d6974a26469706673582212208d891ede4ad27382817c0422f869508c4dbc351471b17841a6242c514a2b71e764736f6c63430008140033a26469706673582212201f2eda747d489f7e74ef2db18be37d91943ac1361b73bdfba59d11b054ce332e64736f6c63430008140033",
  "linkReferences": {},
  "deployedLinkReferences": {}
}