{
  "_format": "hh-sol-artifact-1",
  "contractName": "ClearSkyFactory",
  "sourceName": "contracts/ClearSkyFactory.sol",
  "abi": [
    {
      "inputs": [],
      "stateMutability": "nonpayable",
      "type": "constructor"
    },
    {
      "anonymous": false,
      "inputs": [
        {
          "indexed": false,
          "internalType": "bool",
          "name": "",
          "type": "bool"
        },
        {
          "indexed": false,
          "internalType": "bytes",
          "name": "",
          "type": "bytes"
        }
      ],
      "name": "CallResponseEvent",
      "type": "event"
    },
    {
      "anonymous": false,
      "inputs": [
        {
          "indexed": true,
          "internalType": "address",
          "name": "previousOwner",
          "type": "address"
        },
        {
          "indexed": true,
          "internalType": "address",
          "name": "newOwner",
          "type": "address"
        }
      ],
      "name": "OwnershipTransferred",
      "type": "event"
    },
    {
      "anonymous": false,
      "inputs": [
        {
          "indexed": true,
          "internalType": "address",
          "name": "user",
          "type": "address"
        },
        {
          "indexed": true,
          "internalType": "address",
          "name": "poolAddress",
          "type": "address"
        },
        {
          "indexed": false,
          "internalType": "uint256",
          "name": "poolIndex",
          "type": "uint256"
        }
      ],
      "name": "PoolCreated",
      "type": "event"
    },
    {
      "inputs": [
        {
          "internalType": "uint256",
          "name": "",
          "type": "uint256"
        }
      ],
      "name": "allPools",
      "outputs": [
        {
          "internalType": "address",
          "name": "",
          "type": "address"
        }
      ],
      "stateMutability": "view",
      "type": "function"
    },
    {
      "inputs": [
        {
          "internalType": "uint256",
          "name": "amount",
          "type": "uint256"
        }
      ],
      "name": "burnCSLP",
      "outputs": [],
      "stateMutability": "nonpayable",
      "type": "function"
    },
    {
      "inputs": [],
      "name": "createCSLPToken",
      "outputs": [],
      "stateMutability": "payable",
      "type": "function"
    },
    {
      "inputs": [
        {
          "internalType": "address",
          "name": "user",
          "type": "address"
        }
      ],
      "name": "createUserPool",
      "outputs": [
        {
          "internalType": "address",
          "name": "",
          "type": "address"
        }
      ],
      "stateMutability": "nonpayable",
      "type": "function"
    },
    {
      "inputs": [],
      "name": "cslpToken",
      "outputs": [
        {
          "internalType": "address",
          "name": "",
          "type": "address"
        }
      ],
      "stateMutability": "view",
      "type": "function"
    },
    {
      "inputs": [],
      "name": "fcdr1155Contract",
      "outputs": [
        {
          "internalType": "address",
          "name": "",
          "type": "address"
        }
      ],
      "stateMutability": "view",
      "type": "function"
    },
    {
      "inputs": [],
      "name": "getAllPools",
      "outputs": [
        {
          "internalType": "address[]",
          "name": "",
          "type": "address[]"
        }
      ],
      "stateMutability": "view",
      "type": "function"
    },
    {
      "inputs": [
        {
          "internalType": "address",
          "name": "user",
          "type": "address"
        }
      ],
      "name": "getUserPool",
      "outputs": [
        {
          "internalType": "address",
          "name": "",
          "type": "address"
        }
      ],
      "stateMutability": "view",
      "type": "function"
    },
    {
      "inputs": [
        {
          "internalType": "address",
          "name": "user",
          "type": "address"
        }
      ],
      "name": "hasPool",
      "outputs": [
        {
          "internalType": "bool",
          "name": "",
          "type": "bool"
        }
      ],
      "stateMutability": "view",
      "type": "function"
    },
    {
      "inputs": [
        {
          "internalType": "address",
          "name": "",
          "type": "address"
        }
      ],
      "name": "isPool",
      "outputs": [
        {
          "internalType": "bool",
          "name": "",
          "type": "bool"
        }
      ],
      "stateMutability": "view",
      "type": "function"
    },
    {
      "inputs": [
        {
          "internalType": "address",
          "name": "user",
          "type": "address"
        },
        {
          "internalType": "uint256",
          "name": "amount",
          "type": "uint256"
        }
      ],
      "name": "mintCSLP",
      "outputs": [],
      "stateMutability": "nonpayable",
      "type": "function"
    },
    {
      "inputs": [
        {
          "internalType": "address",
          "name": "poolAddress",
          "type": "address"
        },
        {
          "internalType": "address",
          "name": "fcdrOwner",
          "type": "address"
        },
        {
          "internalType": "uint256",
          "name": "hbarAmount",
          "type": "uint256"
        }
      ],
      "name": "mintFCDR",
      "outputs": [],
      "stateMutability": "nonpayable",
      "type": "function"
    },
    {
      "inputs": [],
      "name": "owner",
      "outputs": [
        {
          "internalType": "address",
          "name": "",
          "type": "address"
        }
      ],
      "stateMutability": "view",
      "type": "function"
    },
    {
      "inputs": [
        {
          "internalType": "address",
          "name": "token",
          "type": "address"
        },
        {
          "internalType": "bytes",
          "name": "encodedFunctionSelector",
          "type": "bytes"
        }
      ],
      "name": "redirectForToken",
      "outputs": [
        {
          "internalType": "int256",
          "name": "responseCode",
          "type": "int256"
        },
        {
          "internalType": "bytes",
          "name": "response",
          "type": "bytes"
        }
      ],
      "stateMutability": "nonpayable",
      "type": "function"
    },
    {
      "inputs": [
        {
          "internalType": "address",
          "name": "_fcdr1155Contract",
          "type": "address"
        }
      ],
      "name": "setFCDR1155Contract",
      "outputs": [],
      "stateMutability": "nonpayable",
      "type": "function"
    },
    {
      "inputs": [
        {
          "internalType": "address",
          "name": "token",
          "type": "address"
        },
        {
          "internalType": "address",
          "name": "from",
          "type": "address"
        },
        {
          "internalType": "address",
          "name": "to",
          "type": "address"
        },
        {
          "internalType": "uint256",
          "name": "amount",
          "type": "uint256"
        }
      ],
      "name": "transferFrom",
      "outputs": [
        {
          "internalType": "int64",
          "name": "responseCode",
          "type": "int64"
        }
      ],
      "stateMutability": "nonpayable",
      "type": "function"
    },
    {
      "inputs": [
        {
          "internalType": "address",
          "name": "token",
          "type": "address"
        },
        {
          "internalType": "address",
          "name": "from",
          "type": "address"
        },
        {
          "internalType": "address",
          "name": "to",
          "type": "address"
        },
        {
          "internalType": "uint256",
          "name": "serialNumber",
          "type": "uint256"
        }
      ],
      "name": "transferFromNFT",
      "outputs": [
        {
          "internalType": "int64",
          "name": "responseCode",
          "type": "int64"
        }
      ],
      "stateMutability": "nonpayable",
      "type": "function"
    },
    {
      "inputs": [
        {
          "internalType": "address",
          "name": "",
          "type": "address"
        }
      ],
      "name": "userPools",
      "outputs": [
        {
          "internalType": "address",
          "name": "",
          "type": "address"
        }
      ],
      "stateMutability": "view",
      "type": "function"
    }
  ],
  "bytecode": "0x60806040818152346100af5760018060a01b03196000918183541683558280526001602052600181842055600183526002818420556002835260048184205560038352600881842055600483526010818420556005835260208184205560068352808320553381600754161760075580600554166005556006541660065533907f8be0079c531659141344cd1fd0a4f28419497f9722a3daafe3b4186f6b6457e08180a361480d90816100b58239f35b600080fdfe60808060405260043610156200001457600080fd5b60003560e01c908163107a480214620012d1575080631246dbf5146200129057806315dacbea14620012305780631916258d14620011835780631fe4ff29146200104657806333049e0e146200100757806341d1de971462000fc057806353b4fd081462000b1c5780635839f07f1462000af15780635b16ebb71462000aae578063618dc65e146200094a578063772516c314620006d45780638da5cb5b14620006a957806395f40f95146200056c5780639827d47314620005415780639b23d3d91462000486578063bb81c87514620001cd5763d88ff1f414620000f857600080fd5b34620001c8576000366003190112620001c857604051806003548083526020809301809160036000527fc2575a0e9e593c00f959f8c92f12db2869c3395a3b0502d05e2516446f71f85b9060005b86828210620001aa5786866200015f82880383620013f1565b604051928392818401908285525180915260408401929160005b8281106200018957505050500390f35b83516001600160a01b03168552869550938101939281019260010162000179565b83546001600160a01b03168552909301926001928301920162000146565b600080fd5b34620001c8576040366003190112620001c857620001ea6200130d565b6007546001600160a01b0391908216331480156200046c575b6200020e90620014b5565b67ffffffffffffffff90816024351660070b92806005541690604051946200023686620013d4565b600086526040516020968782019463707a02cd60e11b86526084830190602484015283604484015260606064840152815180915260a48301908960a48260051b8601019301916000905b8b8383106200044057505050505081620002a7600093849303601f198101835282620013f1565b516101679582875af1620002ba62001564565b9015620004245780518101606082898301920312620001c857620002e088830162001599565b91620002ef60408201620015a8565b50606081015190888211620001c8570181603f82011215620001c85788810151888111620003f45760408a8260051b928251906200033083860183620013f1565b81520191830101928311620001c85760408a9201905b8382106200040a57505050506016905b60030b03620001c857816005541691604051948786019363eca3691760e01b8552602487015230604487015216606485015260848401526084835260c083019383851090851117620003f4576000809493819460405251925af1620003ba62001564565b9015620003e8578181805181010312620001c857601691620003dd910162001599565b60030b03620001c857005b505060166015620003dd565b634e487b7160e01b600052604160045260246000fd5b8280916200041884620015a8565b81520191019062000346565b5060006040516200043581620013d4565b526016601562000356565b806200045d6001939495969760a3198a8203018652885162001431565b96019201920190929162000280565b503360009081526004602052604090205460ff1662000203565b34620001c857600080620004f5620004e6620004a23662001324565b604051639b23d3d960e01b602082019081526001600160a01b03958616602483015293851660448201529390911660648401526084830152929091829060a4820190565b03601f198101835282620013f1565b5190826101675af16200050762001564565b90156200053657602081805181010312620001c8576200052b602080920162001599565b6040519060030b8152f35b50602060156200052b565b34620001c8576000366003190112620001c8576005546040516001600160a01b039091168152602090f35b34620001c8576060366003190112620001c857620005896200130d565b6001600160a01b03906024358281169190829003620001c8578260075416331480156200068f575b620005bc90620014b5565b826006541680156200064a57602092600060a49260405196879586946313e2e01960e01b865260048601521660248401526044356044840152608060648401528160848401525af180156200063e576200061257005b602090813d811162000636575b6200062b8183620013f1565b81010312620001c857005b503d6200061f565b6040513d6000823e3d90fd5b60405162461bcd60e51b815260206004820152601960248201527f464344523131353520636f6e7472616374206e6f7420736574000000000000006044820152606490fd5b503360009081526004602052604090205460ff16620005b1565b34620001c8576000366003190112620001c8576007546040516001600160a01b039091168152602090f35b34620001c857602080600319360112620001c857620006f26200130d565b6007546001600160a01b03919082169082906200071133841462001473565b169081156200090e5781600052600284528260406000205416620008c957826005541683600654169160405192613220918285019185831067ffffffffffffffff841117620003f45760a0948694620015b88639308452878a8501526040840152606083015260808201520301906000f080156200063e578216918060065416848162000864575b50506000828152600285526040902080546001600160a01b0319168417905560035468010000000000000000811015620003f457806001620007df920160035562001369565b819291549060031b9185831b921b191617905581600052600483526040600020600160ff198254161790556003549060001982019182116200084e577ff8a0462f666b427ea753848be7e91f9ce413975906f6f39950be296ca9a4d524848493604051908152a3604051908152f35b634e487b7160e01b600052601160045260246000fd5b600091602460405180948193631e96838b60e01b83528960048401525af19081156200063e5785916200089a575b508062000799565b813d8311620008c1575b620008b08183620013f1565b81010312620001c857838562000892565b503d620008a4565b60405162461bcd60e51b815260048101859052601c60248201527f506f6f6c20616c72656164792065786973747320666f722075736572000000006044820152606490fd5b60405162461bcd60e51b8152600481018590526014602482015273496e76616c69642075736572206164647265737360601b6044820152606490fd5b34620001c8576040366003190112620001c857620009676200130d565b6024359067ffffffffffffffff8211620001c85736602383011215620001c857816004013590620009988262001414565b91620009a86040519384620013f1565b8083523660248286010111620001c85762000a0f6000949385602084620004e69560248499018386013783010152604080516330c6e32f60e11b602082019081526001600160a01b0390961660248201526044810191909152928391606483019062001431565b5190826101675af162000a2162001564565b907f4af4780e06fe8cb9df64b0794fa6f01399af979175bb988e35e0e57e594567bc6040518215158152604060208201528062000a62604082018662001431565b0390a11562000a935760165b62000a8f60405192839260030b835260406020840152604083019062001431565b0390f35b5060405162000aa281620013d4565b60008152601562000a6e565b34620001c8576020366003190112620001c8576001600160a01b0362000ad36200130d565b166000526004602052602060ff604060002054166040519015158152f35b34620001c8576000366003190112620001c8576006546040516001600160a01b039091168152602090f35b6000366003190112620001c85762000b4060018060a01b0360075416331462001473565b6005546001600160a01b031662000f7b5760405167ffffffffffffffff610120820181811183821017620003f45760405260608252606060208301526000604083015260608083015260006080830152600060a0830152600060c0830152606060e08301526040519081606081011090606083011117620003f4576060810160405260008152600060208201526000604082015261010082015260405162000be881620013b7565b601181527021b632b0b929b5bc902628102a37b5b2b760791b6020820152815260405162000c1681620013b7565b6004815263043534c560e41b6020820152602082015230604082015260405162000c4081620013b7565b6001815260005b6020811062000f61575060e082015262000c6062001531565b50600460005260016020527fedc95719e9a3b28dd8e80877cb5880a9be7de1a13fc8b05e7999683b6b5676435462000cd09062000c9c620014f3565b3060208201526040519162000cb183620013b7565b8252602082015260e08301519062000cc98262001556565b5262001556565b50610100810151805160070b158062000f51575b62000f41575b50604051630fb65bf360e01b60208201526060602482015262000d6562000d3b62000d24845161016060848601526101e485019062001431565b60208501518482036083190160a486015262001431565b60408401516001600160a01b031660c484015260608401518382036083190160e485015262001431565b916080810151151561010483015260a081015160070b61012483015260c0810151151561014483015260e08101519260831983820301610164840152835180825260208201916020808360051b8301019601926000915b83831062000eac576000808862000e1b818c60406101008d0151805160070b61018485015260018060a01b036020820151166101a4850152015160070b6101c48301528460448301526006606483015203601f198101835282620013f1565b602081519101346101675af162000e3162001564565b901562000e9f57604081805181010312620001c857604062000e566020830162001599565b9101516001600160a01b0381169190829003620001c85760169060030b5b60030b03620001c857600580546001600160a01b0319166001600160a01b0392909216919091179055005b5060006016601562000e74565b9091929396602080600192601f19858203018652818b5180518352015190604083820152815115156040820152848060a01b038383015116606082015260c062000f2162000f0a604085015160a0608086015260e085019062001431565b6060850151848203603f190160a086015262001431565b926080878060a01b03910151169101529901930193019193929062000dbc565b60406276a7009101528162000cea565b50604081015160070b1562000ce4565b60209062000f6e62001531565b8282850101520162000c47565b60405162461bcd60e51b815260206004820152601a60248201527f43534c5020746f6b656e20616c726561647920637265617465640000000000006044820152606490fd5b34620001c8576020366003190112620001c857600435600354811015620001c85762000fee60209162001369565b905460405160039290921b1c6001600160a01b03168152f35b34620001c8576020366003190112620001c85760206001600160a01b03806200102f6200130d565b166000526002825260406000205416604051908152f35b34620001c857602080600319360112620001c857600780549091906001600160a01b03908116331480156200116a575b6200108190620014b5565b604051906200109082620013d4565b6000825260055416906040519083820192636b48868360e11b84526084830190602484015267ffffffffffffffff60043516860b60448401526060606484015281518091528460a4840192019060005b818110620011535786600080888862001103818a03601f198101835282620013f1565b5190826101675af16200111562001564565b9015620003e857604081805181010312620001c8576200114760406200113f601694840162001599565b9201620015a8565b5060030b03620001c857005b8251880b84529286019291860191600101620010e0565b5033600090815260048352604090205460ff1662001076565b34620001c8576020366003190112620001c857620011a06200130d565b6007546001600160a01b039190620011bc908316331462001473565b168015620011e1576bffffffffffffffffffffffff60a01b6006541617600655600080f35b60405162461bcd60e51b815260206004820152602160248201527f496e76616c696420464344523131353520636f6e7472616374206164647265736044820152607360f81b6064820152608490fd5b34620001c857600080620004f5620004e66200124c3662001324565b604051630aed65f560e11b602082019081526001600160a01b03958616602483015293851660448201529390911660648401526084830152929091829060a4820190565b34620001c8576020366003190112620001c85760206001600160a01b0380620012b86200130d565b1660005260028252604060002054161515604051908152f35b34620001c8576020366003190112620001c8576020906001600160a01b0380620012fa6200130d565b1660005260028352604060002054168152f35b600435906001600160a01b0382168203620001c857565b6080906003190112620001c8576001600160a01b036004358181168103620001c857916024358281168103620001c857916044359081168103620001c8579060643590565b600354811015620013a15760036000527fc2575a0e9e593c00f959f8c92f12db2869c3395a3b0502d05e2516446f71f85b0190600090565b634e487b7160e01b600052603260045260246000fd5b6040810190811067ffffffffffffffff821117620003f457604052565b6020810190811067ffffffffffffffff821117620003f457604052565b90601f8019910116810190811067ffffffffffffffff821117620003f457604052565b67ffffffffffffffff8111620003f457601f01601f191660200190565b919082519283825260005b8481106200145e575050826000602080949584010152601f8019910116010190565b6020818301810151848301820152016200143c565b156200147b57565b60405162461bcd60e51b815260206004820152601260248201527127b7363c903330b1ba37b93c9037bbb732b960711b6044820152606490fd5b15620014bd57565b60405162461bcd60e51b815260206004820152600e60248201526d139bdd08185d5d1a1bdc9a5e995960921b6044820152606490fd5b6040519060a0820182811067ffffffffffffffff821117620003f4576040526000608083828152826020820152606060408201526060808201520152565b604051906200154082620013b7565b8160008152602062001551620014f3565b910152565b805115620013a15760200190565b3d1562001594573d90620015788262001414565b91620015886040519384620013f1565b82523d6000602084013e565b606090565b51908160030b8203620001c857565b51908160070b8203620001c85756fe610100346200032c57601f6200322038819003918201601f191683019291906001600160401b0384118385101762000331578160a092849260409687528339810103126200032c57620000528162000347565b6020906200006282840162000347565b9060806200007286860162000347565b93620000816060870162000347565b956001600160a01b0392839162000099910162000347565b169182156200031457600080546001600160a01b031981168517825590939082167f8be0079c531659141344cd1fd0a4f28419497f9722a3daafe3b4186f6b6457e08580a360018055610100600160a81b031960025416600255828052600382526001888420556001835260028884205560028352878060049485828220556003815260088282205585815260108282205560058152848282205560068152205580841615620002d157808516156200028e57808616156200024b57861615620001ff57505060805260a05260c05260e05251612ec390816200035d823960805181818161033f015281816106a70152818161096501528181610fd00152818161130a01528181611d300152611e79015260a05181611171015260c05181818161086101528181610c3e01528181610f1601528181611294015281816115fc01528181611b8c015281816120ad015261214a015260e05181818161166901526117a70152f35b865162461bcd60e51b815291820152602160248201527f496e76616c696420464344523131353520636f6e7472616374206164647265736044820152607360f81b606482015260849150fd5b875162461bcd60e51b8152808401839052601a60248201527f496e76616c69642043534c5020746f6b656e20616464726573730000000000006044820152606490fd5b875162461bcd60e51b8152808401839052601960248201527f496e76616c696420706f6f6c20757365722061646472657373000000000000006044820152606490fd5b875162461bcd60e51b8152808401839052601760248201527f496e76616c696420666163746f727920616464726573730000000000000000006044820152606490fd5b8751631e4fbdf760e01b815260006004820152602490fd5b600080fd5b634e487b7160e01b600052604160045260246000fd5b51906001600160a01b03821682036200032c5756fe60406080815260048036101561004f575b361561004d576020606492519162461bcd60e51b83528201526012602482015271119d5b98dd1a5bdb881b9bdd08199bdd5b9960721b6044820152fd5b005b6000803560e01c806310ca0bce146115bb57806315dacbea1461155e57806321b77d6314611540578063240f1b6214611472578063250e6de01461126557806328999437146112465780632fb9125d1461122957806334111bbf146112085780633474d1f9146111a05780633e7e516a1461115c5780633f4ba83a1461110457806342c649de146110e3578063545466a514610ee85780635839f07f14610c955780635962a941146102e15780635c975abb14610ec457806360246c8814610e94578063618dc65e14610d4f578063715018a614610cf55780638456cb5914610c9a5780638c58eff114610c955780638da5cb5b14610c6d5780639827d47314610c295780639b23d3d914610b815780639d7de6b314610834578063a78c849b1461080d578063aebf3e41146107db578063b79c41a2146107b8578063bbbaee4c14610774578063be59112914610730578063bf333f2c14610714578063c279a2bc146106d6578063c45a015514610692578063c6e5d8f6146105e5578063cf2c03341461058c578063d4c3eea01461056d578063d73792a914610550578063db2e21bc1461046a578063e783402914610300578063ea04f155146102e1578063ef6283d9146102be5763f2fde38b146102295750610010565b9190346102ba5760203660031901126102ba57610244611735565b9061024d611956565b6001600160a01b039182169283156102a4575050600054826bffffffffffffffffffffffff60a01b821617600055167f8be0079c531659141344cd1fd0a4f28419497f9722a3daafe3b4186f6b6457e0600080a380f35b51631e4fbdf760e01b8152908101849052602490fd5b8280fd5b5082346102dd57816003193601126102dd576020906005549051908152f35b5080fd5b5082346102dd57816003193601126102dd576020906009549051908152f35b5091346102ba57826003193601126102ba5761031a611956565b610322612db3565b479161032f831515612dd2565b83546001600160a01b03919085907f00000000000000000000000000000000000000000000000000000000000000008416908416813b156102ba57829160648392885194859384926395f40f9560e01b8452308a85015260248401528b60448401525af1801561046057610448575b50506103ab848254611ff9565b81556103b984600654611ff9565b6006558480808087868254165af16103cf612006565b501561040c5750907f2e4fb6077d4acf86e12bb7411fb82b2b3eaa6a49787f4b1e17b423e7ea84116991845416928151908152426020820152a280f35b606490602084519162461bcd60e51b8352820152601660248201527512109054881dda5d1a191c985dd85b0819985a5b195960521b6044820152fd5b61045190611808565b61045c57843861039e565b8480fd5b85513d84823e3d90fd5b5091346102ba57826003193601126102ba57610484611956565b61048c612db3565b4791610499831515612dd2565b6104a4838254611ff9565b81556104b283600654611ff9565b60065560018060a01b03908480808087868254165af16104d0612006565b501561050d5750907f2e4fb6077d4acf86e12bb7411fb82b2b3eaa6a49787f4b1e17b423e7ea84116991845416928151908152426020820152a280f35b606490602084519162461bcd60e51b8352820152601b60248201527f456d657267656e6379207769746864726177616c206661696c656400000000006044820152fd5b5082346102dd57816003193601126102dd57602090516127108152f35b5082346102dd57816003193601126102dd576020906006549051908152f35b5082346102dd57806003193601126102dd576105a6611735565b6001600160a01b031682526008602052808220805460243593908410156105e257506020926105d491611928565b91905490519160031b1c8152f35b80fd5b8382346105e257602090816003193601126105e25782906001600160a01b0361060c611735565b16815260088352818120908251808584549182815201908194845286842090845b81811061067e575050508161064391038261188c565b83519485948186019282875251809352850193925b82811061066757505050500390f35b835185528695509381019392810192600101610658565b82548452928801926001928301920161062d565b5082346102dd57816003193601126102dd57517f00000000000000000000000000000000000000000000000000000000000000006001600160a01b03168152602090f35b5082346102dd5760203660031901126102dd5760209160ff9082906001600160a01b03610701611735565b168152600a855220541690519015158152f35b5082346102dd57816003193601126102dd5760209051601e8152f35b509190346102ba5760203660031901126102ba5735918260030b83036105e2575061075d610770926121a6565b90519182916020835260208301906118ed565b0390f35b5082346102dd5760203660031901126102dd5761077090610793611735565b5061079c6120ab565b9251918252602082015260408101919091529081906060820190565b5082346102dd576020906107d46107ce36611912565b90612060565b9051908152f35b5060803660031901126105e2576107f0611a01565b6107f86119e3565b610806604435602435611b82565b6001805580f35b5082346102dd5760203660031901126102dd5760209061082b611735565b506107d4612148565b5091346102ba5761084436611912565b91909261084f611a01565b6108576119e3565b6001600160a01b037f0000000000000000000000000000000000000000000000000000000000000000811661088d811515611982565b8515610b45576005548015610b0b5783546108bd6108b4836108af848c611fe6565b6119c3565b97881015611fa6565b478711610ac8576108da916108d3888a93611ff9565b8655611ff9565b6005556108e985600654611ff9565b6006556007918767ffffffffffffffff8816840b9183875161090a81611838565b838152885190898201978683526020988b8a8501528251809152896060850193019187905b8b838310610aa157505050505090807fb310aaac57f9a89f4e3661e38cb8df5ea9428b82d1bb2b8ab6a77c3f52818f02920390a27f000000000000000000000000000000000000000000000000000000000000000016803b156102dd5781809160248b8a519485938492631fe4ff2960e01b84528c8401525af18015610a975790879291610a7c575b50507f7b2f31b2ffda9d7a1ac640400c8f7eb1c8d0071689111f45797448a14697587c9181519081528985820152a28580808087335af16109f7612006565b5015610a4557505051908152602081019190915242604082015233907f1dc8bb69df2b8e91fbdcbfcf93d951b3f0000f085a95fe3f7946d6161439245d9080606081015b0390a26001805580f35b606492519162461bcd60e51b8352820152601460248201527312109054881d1c985b9cd9995c8819985a5b195960621b6044820152fd5b610a87919250611808565b610a93578488386109b8565b8780fd5b87513d84823e3d90fd5b91946001939698995084839295985051850b81520195019201928e9695938995939261092f565b855162461bcd60e51b8152602081870152601960248201527f496e73756666696369656e74204842415220696e20706f6f6c000000000000006044820152606490fd5b845162461bcd60e51b81526020818601526014602482015273139bc81b1a5c5d5a591a5d1e481a5b881c1bdbdb60621b6044820152606490fd5b835162461bcd60e51b81526020818501526016602482015275139bc81314081d1bdad95b9cc81cdc1958da599a595960521b6044820152606490fd5b5082346102dd578180602093610bec610bde610b9c36611750565b8951639b23d3d960e01b8c82019081526001600160a01b03958616602483015293851660448201529390911660648401526084830152929091829060a4820190565b03601f19810183528261188c565b5190826101675af1610bfc612006565b915015610c2057808380610c1593518301019101612e14565b905b519060030b8152f35b50601590610c17565b5082346102dd57816003193601126102dd57517f00000000000000000000000000000000000000000000000000000000000000006001600160a01b03168152602090f35b5082346102dd57816003193601126102dd57905490516001600160a01b039091168152602090f35b611791565b5082346102dd57816003193601126102dd5760207f62e78cea01bee320cd4e420270b5ea74000d11b0c9f74754ebdbfc544b05a25891610cd8611956565b610ce06119e3565b600160ff19600254161760025551338152a180f35b50346105e257806003193601126105e257610d0e611956565b600080546001600160a01b0319811682556001600160a01b03167f8be0079c531659141344cd1fd0a4f28419497f9722a3daafe3b4186f6b6457e08280a380f35b5090346102dd57826003193601126102dd57610d69611735565b906024359067ffffffffffffffff8211610e905736602383011215610e9057810135610d94816118ae565b91610da18651938461188c565b818352366024838301011161045c57610e01859492938560208682976024610bde9701838601378301015287516330c6e32f60e11b602082019081526001600160a01b0390951660248201526044810189905292839160648301906118ed565b5190826101675af190610e12612006565b917f4af4780e06fe8cb9df64b0794fa6f01399af979175bb988e35e0e57e594567bc8451821515815285602082015280610e4e878201876118ed565b0390a115610e7657506107706016915b835193849360030b84528060208501528301906118ed565b82519150610e8382611838565b8152610770601591610e5e565b8380fd5b50346105e257806003193601126105e2575054600554600654925191825260208201526040810191909152606090f35b5082346102dd57816003193601126102dd5760209060ff6002541690519015158152f35b509160603660031901126102ba57813590602435610f04611a01565b610f0c6119e3565b6001600160a01b037f0000000000000000000000000000000000000000000000000000000000000000811693909190610f46851515611982565b600554156110a9578691610f7a91610f5f341515611a24565b610f6a811515611a63565b610f75821515611ab9565b612060565b94610f89604435871015611fa6565b610f94348254611b75565b8155610fa234600654611b75565b60065567ffffffffffffffff861660070b92845184815286600080516020612e2e83398151915260203393a37f000000000000000000000000000000000000000000000000000000000000000016803b156102ba57845163bb81c87560e01b81523392810192835260208301889052918391839182908490829060400103925af1801561109f5761108b575b5050600080516020612e6e8339815191529261104c85600554611b75565b6005558251918252856020830152600080516020612e4e833981519152833393a351348152602081019290925242604083015233918060608101610a3b565b61109490611808565b61045c57843861102e565b84513d84823e3d90fd5b835162461bcd60e51b81526020818801526014602482015273141bdbdb081b9bdd081a5b9a5d1a585b1a5e995960621b6044820152606490fd5b508290346105e25760203660031901126105e257506107d460209235612036565b5082346102dd57816003193601126102dd5760207f5db9ee0a495bf2e6ff9c91a7834c1ba4fdd244a5e8aa4e537bd38aeae4b073aa91611142611956565b61114a612db3565b60ff196002541660025551338152a180f35b5082346102dd57816003193601126102dd57517f00000000000000000000000000000000000000000000000000000000000000006001600160a01b03168152602090f35b5091346102ba5760203660031901126102ba578060c09383358152600760205220805492600182015492600283015490600384015492600560018060a01b038092870154169501541694815196875260208701528501526060840152608083015260a0820152f35b508290346105e25760203660031901126105e257506107d460209235612092565b5082346102dd57816003193601126102dd576020906107d461212a565b509190346102ba57826003193601126102ba5760209250549051908152f35b5090816003193601126102dd5761127a611956565b611282611a01565b61128a6119e3565b6001600160a01b037f0000000000000000000000000000000000000000000000000000000000000000811693906112c2851515611982565b60055461142f57620186a034106113ec5734835534600655606434049267ffffffffffffffff841660070b91835183815287600080516020612e2e83398151915260203393a37f00000000000000000000000000000000000000000000000000000000000000001690813b156113e857835163bb81c87560e01b8152339181019182526020820186905291869183919082908490829060400103925af180156113de576113bd575b50829394600080516020612e6e833981519152936005558251918252856020830152600080516020612e4e833981519152833393a351348152602081019290925242604083015233918060608101610a3b565b936113d7600080516020612e6e8339815191529495611808565b939261136a565b83513d87823e3d90fd5b8580fd5b815162461bcd60e51b8152602081850152601e60248201527f496e73756666696369656e7420696e697469616c206c697175696469747900006044820152606490fd5b815162461bcd60e51b8152602081850152601860248201527f506f6f6c20616c726561647920696e697469616c697a656400000000000000006044820152606490fd5b509190346102ba5760203660031901126102ba57600590828460c09560a0835161149b816117d6565b8281528260208201528285820152826060820152826080820152015282358152600760205220908351916114ce836117d6565b8054948584526001820154906020850191825260028301548186019081526003840154926060870193845260a0600180821b038099818099890154169760808b0198895201541697019687528251988952516020890152519087015251606086015251166080840152511660a0820152f35b5082346102dd57816003193601126102dd5760209051620186a08152f35b5082346102dd578180602093610bec610bde61157936611750565b8951630aed65f560e11b8c82019081526001600160a01b03958616602483015293851660448201529390911660648401526084830152929091829060a4820190565b5091346102ba57826003193601126102ba576115d5611956565b8051916020908184019263248a35ef60e11b8452306024860152858060018060a01b0395867f00000000000000000000000000000000000000000000000000000000000000001697886044820152604481526116308161181c565b5190826101675af1611640612006565b901561172d5780848061165893518301019101612e14565b60030b601681036116b157505050507f000000000000000000000000000000000000000000000000000000000000000016907f650590083355aaffaa2fa0c2195838842f2b6d5ea01c067f5e128066ea40f15c8380a380f35b906116be611729926121a6565b9061170f603f825180947f43534c5020746f6b656e206173736f63696174696f6e206661696c65643a2000898301526116ff815180928b86860191016118ca565b810103601f81018552018361188c565b5193849362461bcd60e51b855284015260248301906118ed565b0390fd5b506015611658565b600435906001600160a01b038216820361174b57565b600080fd5b608090600319011261174b576001600160a01b03600435818116810361174b5791602435828116810361174b5791604435908116810361174b579060643590565b3461174b57600036600319011261174b576040517f00000000000000000000000000000000000000000000000000000000000000006001600160a01b03168152602090f35b60c0810190811067ffffffffffffffff8211176117f257604052565b634e487b7160e01b600052604160045260246000fd5b67ffffffffffffffff81116117f257604052565b6080810190811067ffffffffffffffff8211176117f257604052565b6020810190811067ffffffffffffffff8211176117f257604052565b6040810190811067ffffffffffffffff8211176117f257604052565b6060810190811067ffffffffffffffff8211176117f257604052565b90601f8019910116810190811067ffffffffffffffff8211176117f257604052565b67ffffffffffffffff81116117f257601f01601f191660200190565b60005b8381106118dd5750506000910152565b81810151838201526020016118cd565b90602091611906815180928185528580860191016118ca565b601f01601f1916010190565b604090600319011261174b576004359060243590565b80548210156119405760005260206000200190600090565b634e487b7160e01b600052603260045260246000fd5b6000546001600160a01b0316330361196a57565b60405163118cdaa760e01b8152336004820152602490fd5b1561198957565b60405162461bcd60e51b815260206004820152601260248201527110d4d314081d1bdad95b881b9bdd081cd95d60721b6044820152606490fd5b81156119cd570490565b634e487b7160e01b600052601260045260246000fd5b60ff600254166119ef57565b60405163d93c066560e01b8152600490fd5b600260015414611a12576002600155565b604051633ee5aeb560e01b8152600490fd5b15611a2b57565b60405162461bcd60e51b815260206004820152601060248201526f139bc812109054881c1c9bdd9a59195960821b6044820152606490fd5b15611a6a57565b60405162461bcd60e51b815260206004820152602160248201527f55534420616d6f756e74206d7573742062652067726561746572207468616e206044820152600360fc1b6064820152608490fd5b15611ac057565b60405162461bcd60e51b815260206004820152602860248201527f4d617475726174696f6e20616d6f756e74206d75737420626520677265617465604482015267072207468616e20360c41b6064820152608490fd5b8054680100000000000000008110156117f257611b3891600182018155611928565b819291549060031b91821b91600019901b1916179055565b6000198114611b5f5760010190565b634e487b7160e01b600052601160045260246000fd5b91908201809211611b5f57565b6001600160a01b037f00000000000000000000000000000000000000000000000000000000000000008116929091600091611bbe851515611982565b611bc9341515611a24565b611bd4821515611a63565b611bdf811515611ab9565b600591825415611e235790611bf391612060565b90611c0034600454611b75565b600455611c0f34600654611b75565b600655338352602091600a835260409460ff8686205416600014611e165762ffffff855b169687611d0f575b50611ce793869592938694600893600080516020612e6e833981519152995192611c64846117d6565b34845284840193428552888101938452606081018d8152608082019433865260a08301963088526009548b52600789528b8b20935184555160018401555160028301555160038201558260048201945116936bffffffffffffffffffffffff60a01b94858254161790550192511690825416179055338352522060095490611b16565b611cf2600954611b50565b6009555134815260208101929092524260408301523391606090a2565b8760070b90875182815281600080516020612e2e833981519152883393a3827f000000000000000000000000000000000000000000000000000000000000000016803b15610a9357885163bb81c87560e01b8152336004820152602481018b90529088908290604490829084905af18015611e0c57611df4575b5093879693600893611ce79793600080516020612e6e8339815191529a97338852600a8652888820600160ff19825416179055611dc78d8654611b75565b855588519182528786830152600080516020612e4e833981519152893393a3935093965093965093611c3b565b611dfe8891611808565b611e085738611d89565b8680fd5b89513d8a823e3d90fd5b62ffffff620f4240611c33565b939190913460045534600655338452602092600a845260409560ff8787205416600014611f995762ffffff865b16978815611f70578860070b90885182815281600080516020612e2e833981519152893393a3847f000000000000000000000000000000000000000000000000000000000000000016803b15611f6c57895163bb81c87560e01b8152336004820152602481018c90529089908290604490829084905af18015611f6257938a999591938c9793600080516020612e6e8339815191529c9995611ce79b97611f44575b5090611f3793929160089899338b52600a89528b8b20600160ff1982541617905587558a519182528988830152600080516020612e4e8339815191528b3393a3612060565b90865192611c64846117d6565b90600898611f57611f3796959493611808565b985090919293611ef2565b8a513d8b823e3d90fd5b8880fd5b509383879693611f37600894611ce7986001600080516020612e6e8339815191529c9955612060565b62ffffff620f4240611e50565b15611fad57565b60405162461bcd60e51b815260206004820152601160248201527014db1a5c1c1859d948195e18d959591959607a1b6044820152606490fd5b81810292918115918404141715611b5f57565b91908203918211611b5f57565b3d15612031573d90612017826118ae565b91612025604051938461188c565b82523d6000602084013e565b606090565b600554908115612059576120569161204d91611fe6565b600454906119c3565b90565b5050600090565b90811561206d8115611a63565b612078821515611ab9565b620f4240808402938404141715611b5f57612056916119c3565b6005548015612059576108af6120569260045490611fe6565b7f00000000000000000000000000000000000000000000000000000000000000006001600160a01b03161561211f576005546000918115612114576120f6826108af60045486611fe6565b9161271090818502918583041485151715611b5f57612056916119c3565b600092508291508190565b600090600090600090565b600554801561214257612056906064600654046119c3565b50600090565b7f00000000000000000000000000000000000000000000000000000000000000006001600160a01b031615801561219c575b612197576006541560011715611b5f57600554156119cd57600090565b600090565b506005541561217a565b8060030b9060168214612cae5760098214612c5957600a8214612bf85760078214612ba057600f8214612b3f5760108214612ade57601e8214612a905760228214612a2f57606f82146129e05760aa821461297f5760ab821461292d5760ae82146128d95760af82146128785760be82146128285760bf82146127cf5760a8821461276e5760a9821461270d5760bd82146126bf57609b821461267357601a821461262957601b82146125df57602682146125865760409182811461252f57604181146124c357610117811461246b57610145811461240c5761014681146123ad57610147811461234457610148146122f05760336122ad63ffffffff6120569316612cd3565b9251809372554e4b4e4f574e5f4552524f525f434f44455f60681b60208301526122e081518092602086860191016118ca565b810103601381018452018261188c565b5072206d616e79206368696c64207265636f72647360681b81519161231483611870565b603383527f4d41585f4348494c445f5245434f5244535f4558434545444544202d20546f6f602084015282015290565b50507f6666696369656e742062616c616e636520666f722073746f726167652072656e8151916123738361181c565b604183527f494e53554646494349454e545f53544f524147455f52454e54202d20496e73756020840152820152601d60fa1b606082015290565b50507f6e76616c6964207369676e617475726520666f7220707265636f6d70696c65008151916123dc83611870565b603f83527f494e56414c49445f505245434f4d50494c455f5349474e4154555245202d2049602084015282015290565b50507f6e74697469657320696e20707269636520726567696d6520726561636865640081519161243b83611870565b603f83527f4d41585f454e5449544945535f43524541544544202d204d6178696d756d2065602084015282015290565b5050751cdd5cc81b9bd9194819d85cc8195e1a185d5cdd195960521b81519161249383611870565b603683527f434f4e53454e5355535f4741535f455848415553544544202d20436f6e73656e602084015282015290565b50507f616e73616374696f6e2068617320746f6f206d616e79206e6573746564206c618151916124f28361181c565b604483527f5452414e53414354494f4e5f544f4f5f4d414e595f4c4159455253202d2054726020840152820152637965727360e01b606082015290565b5050741bdb88195e18d959591cc81cda5e99481b1a5b5a5d605a1b81519161255683611870565b603583527f5452414e53414354494f4e5f4f56455253495a45202d205472616e7361637469602084015282015290565b505060405161259481611870565b603581527f494e56414c49445f4b45595f454e434f44494e47202d204b657920656e636f646020820152741a5b99c8199bdc9b585d081a5cc81a5b9d985b1a59605a1b604082015290565b50506040516125ed81611870565b602681527f4241445f454e434f44494e47202d204b657920656e636f64696e6720697320696020820152651b9d985b1a5960d21b604082015290565b505060405161263781611870565b602681527f4b45595f5245515549524544202d205265717569726564206b6579206973206d602082015265697373696e6760d01b604082015290565b505060405161268181611870565b602881527f494e56414c49445f41444d494e5f4b4559202d2041646d696e206b6579206973602082015267081a5b9d985b1a5960c21b604082015290565b50506040516126cd81611870565b602a81527f494e56414c49445f535550504c595f4b4559202d20537570706c79206b6579206020820152691a5cc81a5b9d985b1a5960b21b604082015290565b505060405161271b81611870565b603e81527f494e56414c49445f544f4b454e5f494e495449414c5f535550504c59202d204960208201527f6e697469616c20737570706c792076616c756520697320696e76616c69640000604082015290565b505060405161277c81611870565b603881527f494e56414c49445f544f4b454e5f444543494d414c53202d20546f6b656e206460208201527f6563696d616c732076616c756520697320696e76616c69640000000000000000604082015290565b50506040516127dd81611870565b603581527f544f4b454e5f4e414d455f544f4f5f4c4f4e47202d20546f6b656e206e616d6560208201527408195e18d959591cc81b195b99dd1a081b1a5b5a5d605a1b604082015290565b505060405161283681611870565b602c81527f4d495353494e475f544f4b454e5f4e414d45202d20546f6b656e206e616d652060208201526b1b9bdd081c1c9bdd9a59195960a21b604082015290565b505060405161288681611870565b603981527f544f4b454e5f53594d424f4c5f544f4f5f4c4f4e47202d20546f6b656e20737960208201527f6d626f6c2065786365656473206c656e677468206c696d697400000000000000604082015290565b50506040516128e781611870565b603081527f4d495353494e475f544f4b454e5f53594d424f4c202d20546f6b656e2073796d60208201526f189bdb081b9bdd081c1c9bdd9a59195960821b604082015290565b505060405161293b81611870565b602e81527f494e56414c49445f544f4b454e5f53594d424f4c202d20546f6b656e2073796d60208201526d189bdb081a5cc81a5b9d985b1a5960921b604082015290565b505060405161298d81611870565b603d81527f494e56414c49445f54524541535552595f4143434f554e545f464f525f544f4b60208201527f454e202d205472656173757279206163636f756e7420696e76616c6964000000604082015290565b50506040516129ee81611870565b602b81527f4d41585f4741535f4c494d49545f4558434545444544202d20476173206c696d60208201526a1a5d08195e18d95959195960aa1b604082015290565b5050604051612a3d81611870565b603881527f434f4e54524143545f455845435554494f4e5f455843455054494f4e202d204360208201527f6f6e747261637420657865637574696f6e206661696c65640000000000000000604082015290565b5050604051612a9e81611870565b602a81527f494e53554646494349454e545f474153202d204e6f7420656e6f7567682067616020820152691cc81cdd5c1c1b1a595960b21b604082015290565b5050604051612aec81611870565b603e81527f494e56414c49445f434f4e54524143545f4944202d20436f6e7472616374204960208201527f4420697320696e76616c6964206f7220646f6573206e6f742065786973740000604082015290565b5050604051612b4d81611870565b603c81527f494e56414c49445f4143434f554e545f4944202d204163636f756e742049442060208201527f697320696e76616c6964206f7220646f6573206e6f7420657869737400000000604082015290565b5050604051612bae81611870565b603481527f494e56414c49445f5349474e4154555245202d205472616e73616374696f6e206020820152731cda59db985d1d5c99481a5cc81a5b9d985b1a5960621b604082015290565b5050604051612c0681611870565b604081527f494e53554646494349454e545f50415945525f42414c414e4345202d2050617960208201527f6572206163636f756e742068617320696e73756666696369656e742048424152604082015290565b5050604051612c6781611870565b603181527f494e53554646494349454e545f54585f464545202d204e6f7420656e6f7567686020820152700819d85ccbd99959481c1c9bdd9a591959607a1b604082015290565b5050604051612cbc81611854565b60078152665355434345535360c81b602082015290565b8015612d955780816000925b612d815750612ced826118ae565b91612cfb604051938461188c565b80835281601f19612d0b836118ae565b01916020923684870137925b612d215750505090565b6000198301928311611b5f5782600a80830492818402918483041484151715611b5f57612d5160ff928392611ff9565b16603001908111611b5f5785518210156119405760f81b6001600160f81b03191660001a90850183015380612d17565b91612d8d600a91611b50565b920480612cdf565b50604051612da281611854565b60018152600360fc1b602082015290565b60ff6002541615612dc057565b604051638dfc202b60e01b8152600490fd5b15612dd957565b60405162461bcd60e51b81526020600482015260136024820152724e6f204842415220746f20776974686472617760681b6044820152606490fd5b9081602091031261174b57518060030b810361174b579056feb7555d949a897acb395f95e3f2df8b700519404826bb13cd6526b756f6a1c907ad91542866f4da9ebed5a2b1713258f4bf970f84e7b2a0b8aab2de28d11ffffd64b83944e79c3ce8d4c297411de637c3e102d064677aac0c163976ebdcd6f50ea2646970667358221220c1468744be4871a85e8b860d3bfcb4cd12b794c73858b8e7ad68616debe9936d64736f6c63430008140033a2646970667358221220ae7f502edb5d976625407f330bd964e406451344caae3d749f382375f97bce9464736f6c63430008140033",
  "linkReferences": {},
  "deployedLinkReferences": {}
}