{
  "_format": "hh-sol-artifact-1",
  "contractName": "ClearSkyFactory",
  "sourceName": "contracts/ClearSkyFactory.sol",
  "abi": [
    {
      "inputs": [],
      "stateMutability": "nonpayable",
      "type": "constructor"
    },
    {
      "anonymous": false,
      "inputs": [
        {
          "indexed": false,
          "internalType": "bool",
          "name": "",
          "type": "bool"
        },
        {
          "indexed": false,
          "internalType": "bytes",
          "name": "",
          "type": "bytes"
        }
      ],
      "name": "CallResponseEvent",
      "type": "event"
    },
    {
      "anonymous": false,
      "inputs": [
        {
          "indexed": true,
          "internalType": "address",
          "name": "poolAddress",
          "type": "address"
        },
        {
          "indexed": true,
          "internalType": "address",
          "name": "cslpToken",
          "type": "address"
        },
        {
          "indexed": false,
          "internalType": "uint256",
          "name": "hbarAmount",
          "type": "uint256"
        },
        {
          "indexed": false,
          "internalType": "uint256",
          "name": "cslpTokensMinted",
          "type": "uint256"
        }
      ],
      "name": "MaturationDepositCompleted",
      "type": "event"
    },
    {
      "anonymous": false,
      "inputs": [
        {
          "indexed": true,
          "internalType": "address",
          "name": "previousOwner",
          "type": "address"
        },
        {
          "indexed": true,
          "internalType": "address",
          "name": "newOwner",
          "type": "address"
        }
      ],
      "name": "OwnershipTransferred",
      "type": "event"
    },
    {
      "anonymous": false,
      "inputs": [
        {
          "indexed": true,
          "internalType": "address",
          "name": "user",
          "type": "address"
        },
        {
          "indexed": true,
          "internalType": "address",
          "name": "poolAddress",
          "type": "address"
        },
        {
          "indexed": true,
          "internalType": "address",
          "name": "cslpToken",
          "type": "address"
        },
        {
          "indexed": false,
          "internalType": "uint256",
          "name": "poolIndex",
          "type": "uint256"
        }
      ],
      "name": "PoolCreated",
      "type": "event"
    },
    {
      "inputs": [
        {
          "internalType": "uint256",
          "name": "",
          "type": "uint256"
        }
      ],
      "name": "allPools",
      "outputs": [
        {
          "internalType": "address",
          "name": "",
          "type": "address"
        }
      ],
      "stateMutability": "view",
      "type": "function"
    },
    {
      "inputs": [
        {
          "internalType": "address",
          "name": "poolAddress",
          "type": "address"
        },
        {
          "internalType": "uint256",
          "name": "amount",
          "type": "uint256"
        }
      ],
      "name": "burnCSLP",
      "outputs": [],
      "stateMutability": "nonpayable",
      "type": "function"
    },
    {
      "inputs": [
        {
          "internalType": "address",
          "name": "from",
          "type": "address"
        },
        {
          "internalType": "address",
          "name": "poolAddress",
          "type": "address"
        },
        {
          "internalType": "uint256",
          "name": "amount",
          "type": "uint256"
        }
      ],
      "name": "burnFCDR",
      "outputs": [],
      "stateMutability": "nonpayable",
      "type": "function"
    },
    {
      "inputs": [
        {
          "internalType": "address",
          "name": "newPoolAddress",
          "type": "address"
        },
        {
          "internalType": "address",
          "name": "prevPoolAddress",
          "type": "address"
        },
        {
          "internalType": "uint256",
          "name": "hbarAmount",
          "type": "uint256"
        }
      ],
      "name": "completeMaturationDeposit",
      "outputs": [],
      "stateMutability": "nonpayable",
      "type": "function"
    },
    {
      "inputs": [
        {
          "internalType": "address",
          "name": "user",
          "type": "address"
        },
        {
          "internalType": "address",
          "name": "cslpToken",
          "type": "address"
        }
      ],
      "name": "createMaturationPool",
      "outputs": [
        {
          "internalType": "address",
          "name": "",
          "type": "address"
        }
      ],
      "stateMutability": "nonpayable",
      "type": "function"
    },
    {
      "inputs": [
        {
          "internalType": "address",
          "name": "user",
          "type": "address"
        },
        {
          "internalType": "address",
          "name": "cslpToken",
          "type": "address"
        }
      ],
      "name": "createUserPool",
      "outputs": [
        {
          "internalType": "address",
          "name": "",
          "type": "address"
        }
      ],
      "stateMutability": "nonpayable",
      "type": "function"
    },
    {
      "inputs": [],
      "name": "fcdr1155Contract",
      "outputs": [
        {
          "internalType": "address",
          "name": "",
          "type": "address"
        }
      ],
      "stateMutability": "view",
      "type": "function"
    },
    {
      "inputs": [],
      "name": "getAllPools",
      "outputs": [
        {
          "internalType": "address[]",
          "name": "",
          "type": "address[]"
        }
      ],
      "stateMutability": "view",
      "type": "function"
    },
    {
      "inputs": [
        {
          "internalType": "address",
          "name": "poolAddress",
          "type": "address"
        }
      ],
      "name": "getPoolFCDRStatus",
      "outputs": [
        {
          "internalType": "uint256",
          "name": "",
          "type": "uint256"
        }
      ],
      "stateMutability": "view",
      "type": "function"
    },
    {
      "inputs": [
        {
          "internalType": "address",
          "name": "user",
          "type": "address"
        }
      ],
      "name": "getUserPool",
      "outputs": [
        {
          "internalType": "address",
          "name": "",
          "type": "address"
        }
      ],
      "stateMutability": "view",
      "type": "function"
    },
    {
      "inputs": [
        {
          "internalType": "address",
          "name": "user",
          "type": "address"
        }
      ],
      "name": "hasPool",
      "outputs": [
        {
          "internalType": "bool",
          "name": "",
          "type": "bool"
        }
      ],
      "stateMutability": "view",
      "type": "function"
    },
    {
      "inputs": [
        {
          "internalType": "address",
          "name": "",
          "type": "address"
        }
      ],
      "name": "isPool",
      "outputs": [
        {
          "internalType": "bool",
          "name": "",
          "type": "bool"
        }
      ],
      "stateMutability": "view",
      "type": "function"
    },
    {
      "inputs": [
        {
          "internalType": "address",
          "name": "poolAddress",
          "type": "address"
        },
        {
          "internalType": "address",
          "name": "user",
          "type": "address"
        },
        {
          "internalType": "uint256",
          "name": "amount",
          "type": "uint256"
        }
      ],
      "name": "mintCSLP",
      "outputs": [],
      "stateMutability": "nonpayable",
      "type": "function"
    },
    {
      "inputs": [
        {
          "internalType": "address",
          "name": "poolAddress",
          "type": "address"
        },
        {
          "internalType": "address",
          "name": "fcdrOwner",
          "type": "address"
        },
        {
          "internalType": "uint256",
          "name": "hbarAmount",
          "type": "uint256"
        }
      ],
      "name": "mintFCDR",
      "outputs": [],
      "stateMutability": "nonpayable",
      "type": "function"
    },
    {
      "inputs": [],
      "name": "owner",
      "outputs": [
        {
          "internalType": "address",
          "name": "",
          "type": "address"
        }
      ],
      "stateMutability": "view",
      "type": "function"
    },
    {
      "inputs": [
        {
          "internalType": "address",
          "name": "",
          "type": "address"
        }
      ],
      "name": "poolCSLPTokens",
      "outputs": [
        {
          "internalType": "address",
          "name": "",
          "type": "address"
        }
      ],
      "stateMutability": "view",
      "type": "function"
    },
    {
      "inputs": [
        {
          "internalType": "address",
          "name": "token",
          "type": "address"
        },
        {
          "internalType": "bytes",
          "name": "encodedFunctionSelector",
          "type": "bytes"
        }
      ],
      "name": "redirectForToken",
      "outputs": [
        {
          "internalType": "int256",
          "name": "responseCode",
          "type": "int256"
        },
        {
          "internalType": "bytes",
          "name": "response",
          "type": "bytes"
        }
      ],
      "stateMutability": "nonpayable",
      "type": "function"
    },
    {
      "inputs": [
        {
          "internalType": "address",
          "name": "_fcdr1155Contract",
          "type": "address"
        }
      ],
      "name": "setFCDR1155Contract",
      "outputs": [],
      "stateMutability": "nonpayable",
      "type": "function"
    },
    {
      "inputs": [
        {
          "internalType": "address",
          "name": "poolAddress",
          "type": "address"
        },
        {
          "internalType": "address",
          "name": "user",
          "type": "address"
        },
        {
          "internalType": "uint256",
          "name": "amount",
          "type": "uint256"
        }
      ],
      "name": "transferCSLPToUser",
      "outputs": [],
      "stateMutability": "nonpayable",
      "type": "function"
    },
    {
      "inputs": [
        {
          "internalType": "address",
          "name": "token",
          "type": "address"
        },
        {
          "internalType": "address",
          "name": "from",
          "type": "address"
        },
        {
          "internalType": "address",
          "name": "to",
          "type": "address"
        },
        {
          "internalType": "uint256",
          "name": "amount",
          "type": "uint256"
        }
      ],
      "name": "transferFrom",
      "outputs": [
        {
          "internalType": "int64",
          "name": "responseCode",
          "type": "int64"
        }
      ],
      "stateMutability": "nonpayable",
      "type": "function"
    },
    {
      "inputs": [
        {
          "internalType": "address",
          "name": "token",
          "type": "address"
        },
        {
          "internalType": "address",
          "name": "from",
          "type": "address"
        },
        {
          "internalType": "address",
          "name": "to",
          "type": "address"
        },
        {
          "internalType": "uint256",
          "name": "serialNumber",
          "type": "uint256"
        }
      ],
      "name": "transferFromNFT",
      "outputs": [
        {
          "internalType": "int64",
          "name": "responseCode",
          "type": "int64"
        }
      ],
      "stateMutability": "nonpayable",
      "type": "function"
    },
    {
      "inputs": [
        {
          "internalType": "address",
          "name": "",
          "type": "address"
        }
      ],
      "name": "userPools",
      "outputs": [
        {
          "internalType": "address",
          "name": "",
          "type": "address"
        }
      ],
      "stateMutability": "view",
      "type": "function"
    }
  ],
  "bytecode": "0x6080604052600080546001600160a01b031916905534801561002057600080fd5b50600160208181527fa6eef7e35abe7026729641147f7915573c7e97b47efa546f5f6e3230263bcb499190915560027fcc69885fda6bcc1a4ace058b4a62bf5e179ea78fd58a1ccd71c22cc9b688792f5560047fd9d16d34ffb15ba3a3d852f0d403e2ce1d691fb54de27ac87cd2f993f3ec330f5560087f7dfe757ecd65cbd7922a9c0161e935dd7fdbcc0e999689c7d31633896b1fc60b5560107fedc95719e9a3b28dd8e80877cb5880a9be7de1a13fc8b05e7999683b6b567643557fe2689cd4a84e23ad2f564004f1c9013e9589d260bde6380aba3ca7e09e4df40c556006600090815260407f8f331abe73332f95a25873e8b430885974c0409691f89d643119a11623a7924a81905560078054336001600160a01b0319918216811790925560058054909116905590519091907f8be0079c531659141344cd1fd0a4f28419497f9722a3daafe3b4186f6b6457e0908290a3615cc7806101846000396000f3fe60806040523480156200001157600080fd5b50600436106200015d5760003560e01c80635b16ebb711620000c75780639b23d3d911620000865780639b23d3d91462000385578063ad288930146200039c578063b21feca214620003b3578063d88ff1f414620003ca578063ed4bbdf414620003e3578063f1f658d6146200040f57600080fd5b80635b16ebb714620002e7578063618dc65e146200030d57806381925f5214620003345780638da5cb5b146200035a57806395f40f95146200036e57600080fd5b80631916258d11620001205780631916258d146200024b57806333049e0e146200026257806341d1de97146200028e5780634327f82614620002a55780634ab3f5a414620002bc5780635839f07f14620002d357600080fd5b8063074e2e391462000162578063107a4802146200017b5780631246dbf514620001c757806315dacbea1462000209578063168c86401462000234575b600080fd5b6200017962000173366004620017bf565b62000426565b005b620001aa6200018c36600462001800565b6001600160a01b039081166000908152600260205260409020541690565b6040516001600160a01b0390911681526020015b60405180910390f35b620001f8620001d836600462001800565b6001600160a01b0390811660009081526002602052604090205416151590565b6040519015158152602001620001be565b620002206200021a36600462001825565b62000594565b60405160079190910b8152602001620001be565b620001796200024536600462001877565b62000690565b620001796200025c36600462001800565b6200074b565b620001aa6200027336600462001800565b6002602052600090815260409020546001600160a01b031681565b620001aa6200029f366004620018a4565b62000811565b62000179620002b6366004620017bf565b6200083c565b62000179620002cd366004620017bf565b620009c3565b600554620001aa906001600160a01b031681565b620001f8620002f836600462001800565b60046020526000908152604090205460ff1681565b620003246200031e36600462001908565b62000e0b565b604051620001be92919062001a0d565b6200034b6200034536600462001800565b62000f33565b604051908152602001620001be565b600754620001aa906001600160a01b031681565b620001796200037f366004620017bf565b62000fa7565b620002206200039636600462001825565b620010f9565b620001aa620003ad36600462001a30565b6200113f565b620001aa620003c436600462001a30565b6200138a565b620003d46200140d565b604051620001be919062001a68565b620001aa620003f436600462001800565b6006602052600090815260409020546001600160a01b031681565b6200017962000420366004620017bf565b62001471565b6007546001600160a01b03163314806200044f57503360009081526004602052604090205460ff165b620004775760405162461bcd60e51b81526004016200046e9062001ab7565b60405180910390fd5b6005546001600160a01b0316620004bb5760405162461bcd60e51b81526020600482015260076024820152662727afa321a22960c91b60448201526064016200046e565b60055460405163ec60bcf360e01b81526001600160a01b0385811660048301528481166024830152604482018490529091169063ec60bcf390606401600060405180830381600087803b1580156200051257600080fd5b505af115801562000527573d6000803e3d6000fd5b505060405163bf4827b560e01b81526001600160a01b0385166004820181905260026024830152925063bf4827b591506044015b600060405180830381600087803b1580156200057657600080fd5b505af11580156200058b573d6000803e3d6000fd5b50505050505050565b6040516001600160a01b038581166024830152848116604483015283166064820152608481018290526000908190819061016790630aed65f560e11b9060a4015b60408051601f198184030181529181526020820180516001600160e01b03166001600160e01b031990941693909317909252905162000615919062001ad5565b6000604051808303816000865af19150503d806000811462000654576040519150601f19603f3d011682016040523d82523d6000602084013e62000659565b606091505b5091509150816200066c57601562000682565b8080602001905181019062000682919062001b06565b60030b979650505050505050565b6007546001600160a01b0316331480620006b957503360009081526004602052604090205460ff165b620006d85760405162461bcd60e51b81526004016200046e9062001ab7565b6001600160a01b038083166000908152600660205260409020541680620007135760405162461bcd60e51b81526004016200046e9062001b24565b6040805160008082526020820190925283916200073284848462001550565b509050601681146200074357600080fd5b505050505050565b6007546001600160a01b031633146200078d5760405162461bcd60e51b815260206004820152600360248201526227aba760e91b60448201526064016200046e565b6001600160a01b038116620007ef5760405162461bcd60e51b815260206004820152602160248201527f496e76616c696420464344523131353520636f6e7472616374206164647265736044820152607360f81b60648201526084016200046e565b600580546001600160a01b0319166001600160a01b0392909216919091179055565b600381815481106200082257600080fd5b6000918252602090912001546001600160a01b0316905081565b6007546001600160a01b03163314806200086557503360009081526004602052604090205460ff165b620008845760405162461bcd60e51b81526004016200046e9062001ab7565b6001600160a01b038084166000908152600660205260409020541680620008bf5760405162461bcd60e51b81526004016200046e9062001b24565b816000620009068383835b604051908082528060200260200182016040528015620008ff57816020015b6060815260200190600190039081620008e95790505b5062001643565b509091505060168114620009495760405162461bcd60e51b81526020600482015260096024820152681352539517d190525360ba1b60448201526064016200046e565b6007546001600160a01b0386811691161462000743576007546000906200097d9085906001600160a01b031688866200174b565b9050601681146200058b5760405162461bcd60e51b815260206004820152600f60248201526e151c985b9cd9995c8819985a5b1959608a1b60448201526064016200046e565b6007546001600160a01b0316331462000a055760405162461bcd60e51b815260206004820152600360248201526227aba760e91b60448201526064016200046e565b6001600160a01b03831662000a475760405162461bcd60e51b81526020600482015260076024820152664241445f4e455760c81b60448201526064016200046e565b6001600160a01b03821662000a8a5760405162461bcd60e51b81526020600482015260086024820152672120a22fa82922ab60c11b60448201526064016200046e565b6000811162000ac85760405162461bcd60e51b8152602060048201526009602482015268484241525f5a45524f60b81b60448201526064016200046e565b6001600160a01b03808416600090815260066020526040902054168062000b035760405162461bcd60e51b81526004016200046e9062001b24565b620f424080600062000b17848383620008ca565b50909150506016811462000b5a5760405162461bcd60e51b81526020600482015260096024820152681352539517d190525360ba1b60448201526064016200046e565b60075460009062000b789086906001600160a01b03168a866200174b565b90506016811462000bbe5760405162461bcd60e51b815260206004820152600f60248201526e151c985b9cd9995c8819985a5b1959608a1b60448201526064016200046e565b6040516345861b7d60e11b8152600481018790526001600160a01b03891690638b0c36fa90602401600060405180830381600087803b15801562000c0157600080fd5b505af115801562000c16573d6000803e3d6000fd5b506001925060009150606e905062000c316127108462001b5b565b62000c3d919062001b75565b604051630f2d65fb60e41b8152600481018290529091506001600160a01b038b169063f2d65fb090602401600060405180830381600087803b15801562000c8357600080fd5b505af115801562000c98573d6000803e3d6000fd5b5050604051633318b63160e21b8152600481018990526001600160a01b038d16925063cc62d8c49150602401600060405180830381600087803b15801562000cdf57600080fd5b505af115801562000cf4573d6000803e3d6000fd5b5050604051630e50668560e21b8152600160048201526001600160a01b038c1692506339419a149150602401600060405180830381600087803b15801562000d3b57600080fd5b505af115801562000d50573d6000803e3d6000fd5b505060405163bf4827b560e01b81526001600160a01b038c166004820181905260026024830152925063bf4827b59150604401600060405180830381600087803b15801562000d9e57600080fd5b505af115801562000db3573d6000803e3d6000fd5b5050604080518b8152602081018a90526001600160a01b03808c1694508e1692507fcfcfd05776fd40794ffc040f445799ecd818f2b4462ecb5d0b8bf6d2328383eb910160405180910390a350505050505050505050565b600060606000806101676001600160a01b031663618dc65e60e01b878760405160240162000e3b92919062001b98565b60408051601f198184030181529181526020820180516001600160e01b03166001600160e01b031990941693909317909252905162000e7b919062001ad5565b6000604051808303816000865af19150503d806000811462000eba576040519150601f19603f3d011682016040523d82523d6000602084013e62000ebf565b606091505b50915091507f4af4780e06fe8cb9df64b0794fa6f01399af979175bb988e35e0e57e594567bc828260405162000ef792919062001bbe565b60405180910390a18162000f1d5760156040518060200160405280600081525062000f21565b6016815b60039190910b97909650945050505050565b604051637469dff760e01b81526001600160a01b03821660048201819052600091637469dff790602401602060405180830381865afa15801562000f7b573d6000803e3d6000fd5b505050506040513d601f19601f8201168201806040525081019062000fa1919062001bdb565b92915050565b6007546001600160a01b031633148062000fd057503360009081526004602052604090205460ff165b62000fef5760405162461bcd60e51b81526004016200046e9062001ab7565b6005546001600160a01b0316620010335760405162461bcd60e51b81526020600482015260076024820152662727afa321a22960c91b60448201526064016200046e565b6005546040516313e2e01960e01b81526001600160a01b0384811660048301528581166024830152604482018490526080606483015260006084830152909116906313e2e0199060a4016020604051808303816000875af11580156200109d573d6000803e3d6000fd5b505050506040513d601f19601f82011682018060405250810190620010c3919062001bdb565b5060405163bf4827b560e01b81526001600160a01b03841660048201819052600160248301529063bf4827b5906044016200055b565b6040516001600160a01b038581166024830152848116604483015283166064820152608481018290526000908190819061016790639b23d3d960e01b9060a401620005d5565b60006001600160a01b0383166200116a5760405162461bcd60e51b81526004016200046e9062001bf5565b6001600160a01b038216620011935760405162461bcd60e51b81526004016200046e9062001b24565b6005546007546040516000923092879287926001600160a01b03908116921690620011be9062001794565b6001600160a01b0395861681529385166020850152918416604084015283166060830152909116608082015260a001604051809103906000f0801580156200120a573d6000803e3d6000fd5b506001600160a01b03818116600090815260066020526040902080546001600160a01b03191686831617905560055491925082911615620012ba57600554604051631e96838b60e01b81526001600160a01b03838116600483015290911690631e96838b906024016020604051808303816000875af115801562001292573d6000803e3d6000fd5b505050506040513d601f19601f82011682018060405250810190620012b8919062001bdb565b505b6001600160a01b03808616600081815260026020908152604080832080548688166001600160a01b0319918216811790925560038054600181810183557fc2575a0e9e593c00f959f8c92f12db2869c3395a3b0502d05e2516446f71f85b90910180549093168417909255828652600490945291909320805460ff1916821790559054938816939192917febbbe9dc3a19d2f959ac76ac0372b4983cdfb945f5d6aef4873c36fabb2ba8aa91620013719162001c17565b60405190815260200160405180910390a4949350505050565b60006001600160a01b038316620013b55760405162461bcd60e51b81526004016200046e9062001bf5565b6001600160a01b0383811660009081526002602052604090205416156200116a5760405162461bcd60e51b815260206004820152600b60248201526a504f4f4c5f45584953545360a81b60448201526064016200046e565b606060038054806020026020016040519081016040528092919081815260200182805480156200146757602002820191906000526020600020905b81546001600160a01b0316815260019091019060200180831162001448575b5050505050905090565b6001600160a01b038316620014b45760405162461bcd60e51b815260206004820152600860248201526710905117d413d3d360c21b60448201526064016200046e565b6001600160a01b038216620014dd5760405162461bcd60e51b81526004016200046e9062001bf5565b600081116200151a5760405162461bcd60e51b8152602060048201526008602482015267414d545f5a45524f60c01b60448201526064016200046e565b60405163c257309960e01b81526001600160a01b0383811660048301526024820183905284169063c2573099906044016200055b565b6000806000806101676001600160a01b031663d6910d0660e01b888888604051602401620015819392919062001c2d565b60408051601f198184030181529181526020820180516001600160e01b03166001600160e01b0319909416939093179092529051620015c1919062001ad5565b6000604051808303816000865af19150503d806000811462001600576040519150601f19603f3d011682016040523d82523d6000602084013e62001605565b606091505b5091509150816200161a576015600062001630565b8080602001905181019062001630919062001ca6565b60039190910b9890975095505050505050565b60008060606000806101676001600160a01b031663e0f4059a60e01b898989604051602401620016769392919062001cd5565b60408051601f198184030181529181526020820180516001600160e01b03166001600160e01b0319909416939093179092529051620016b6919062001ad5565b6000604051808303816000865af19150503d8060008114620016f5576040519150601f19603f3d011682016040523d82523d6000602084013e620016fa565b606091505b5091509150816200171f57604080516000808252602082019092526015919062001735565b8080602001905181019062001735919062001d55565b60039290920b9a90995090975095505050505050565b6040516001600160a01b038581166024830152848116604483015283166064820152600782900b6084820152600090819081906101679063eca3691760e01b9060a401620005d5565b613e5b8062001e3783390190565b80356001600160a01b0381168114620017ba57600080fd5b919050565b600080600060608486031215620017d557600080fd5b620017e084620017a2565b9250620017f060208501620017a2565b9150604084013590509250925092565b6000602082840312156200181357600080fd5b6200181e82620017a2565b9392505050565b600080600080608085870312156200183c57600080fd5b6200184785620017a2565b93506200185760208601620017a2565b92506200186760408601620017a2565b9396929550929360600135925050565b600080604083850312156200188b57600080fd5b6200189683620017a2565b946020939093013593505050565b600060208284031215620018b757600080fd5b5035919050565b634e487b7160e01b600052604160045260246000fd5b604051601f8201601f1916810167ffffffffffffffff81118282101715620019005762001900620018be565b604052919050565b600080604083850312156200191c57600080fd5b6200192783620017a2565b915060208084013567ffffffffffffffff808211156200194657600080fd5b818601915086601f8301126200195b57600080fd5b813581811115620019705762001970620018be565b62001984601f8201601f19168501620018d4565b915080825287848285010111156200199b57600080fd5b80848401858401376000848284010152508093505050509250929050565b60005b83811015620019d6578181015183820152602001620019bc565b50506000910152565b60008151808452620019f9816020860160208601620019b9565b601f01601f19169290920160200192915050565b82815260406020820152600062001a286040830184620019df565b949350505050565b6000806040838503121562001a4457600080fd5b62001a4f83620017a2565b915062001a5f60208401620017a2565b90509250929050565b6020808252825182820181905260009190848201906040850190845b8181101562001aab5783516001600160a01b03168352928401929184019160010162001a84565b50909695505050505050565b602080825260049082015263082aaa8960e31b604082015260600190565b6000825162001ae9818460208701620019b9565b9190910192915050565b8051600381900b8114620017ba57600080fd5b60006020828403121562001b1957600080fd5b6200181e8262001af3565b60208082526007908201526604e4f5f43534c560cc1b604082015260600190565b634e487b7160e01b600052601160045260246000fd5b808202811582820484141762000fa15762000fa162001b45565b60008262001b9357634e487b7160e01b600052601260045260246000fd5b500490565b6001600160a01b038316815260406020820181905260009062001a2890830184620019df565b821515815260406020820152600062001a286040830184620019df565b60006020828403121562001bee57600080fd5b5051919050565b6020808252600890820152672120a22faaa9a2a960c11b604082015260600190565b8181038181111562000fa15762000fa162001b45565b60006060820160018060a01b03861683526020600786810b8286015260606040860152828651808552608087019150838801945060005b8181101562001c84578551840b8352948401949184019160010162001c64565b50909998505050505050505050565b8051600781900b8114620017ba57600080fd5b6000806040838503121562001cba57600080fd5b62001cc58362001af3565b915062001a5f6020840162001c93565b60006060820160018060a01b038616835260208560070b818501526060604085015281855180845260808601915060808160051b870101935082870160005b8281101562001d4657607f1988870301845262001d33868351620019df565b9550928401929084019060010162001d14565b50939998505050505050505050565b60008060006060848603121562001d6b57600080fd5b62001d768462001af3565b9250602062001d8781860162001c93565b9250604085015167ffffffffffffffff8082111562001da557600080fd5b818701915087601f83011262001dba57600080fd5b81518181111562001dcf5762001dcf620018be565b8060051b915062001de2848301620018d4565b818152918301840191848101908a84111562001dfd57600080fd5b938501935b8385101562001e265762001e168562001c93565b8252938501939085019062001e02565b809650505050505050925092509256fe61010060405260028054610100600160a81b03191690553480156200002357600080fd5b5060405162003e5b38038062003e5b833981016040819052620000469162000373565b806001600160a01b0381166200007757604051631e4fbdf760e01b8152600060048201526024015b60405180910390fd5b620000828162000306565b506001808055600360209081527f3617319a054d772f909f7c479a2cebe5066e836a939412e32403c99029b92eff9190915560027fa15bc60c955c405d20d9149c709e2460f1c2d9a497496a7f46004d1772c3054c5560047fc3a24b0501bd2c13a7e57f2db4369ec4c223447539fc0724a9d55ac4a06ebd4d5560087fcbc4e5fb02c3d1de23a9f1e014b4d2ee5aeaea9505df5e855c9210bf472495af5560107f83ec6a1f0257b830b5e016457c9cf1435391bf56cc98f369a58a54fe93772465557f405aad32e1adbac89bb7f176e338b8fc6e994ca210c9bb7bdca249b46594225055600660005260407fc69056f16cbaa3c616b828e333ab7d3a32310765507f8f58359e99ebb7a885f3556001600160a01b038516620001d55760405162461bcd60e51b815260206004820152600b60248201526a4241445f464143544f525960a81b60448201526064016200006e565b6001600160a01b038416620002185760405162461bcd60e51b81526020600482015260086024820152672120a22faaa9a2a960c11b60448201526064016200006e565b6001600160a01b0383166200025b5760405162461bcd60e51b815260206004820152600860248201526704241445f43534c560c41b60448201526064016200006e565b6001600160a01b0382166200029e5760405162461bcd60e51b81526020600482015260086024820152672120a22fa321a22960c11b60448201526064016200006e565b6001600160a01b038116620002e25760405162461bcd60e51b81526020600482015260096024820152682120a22fa7aba722a960b91b60448201526064016200006e565b506001600160a01b0393841660805291831660a052821660c0521660e052620003e3565b600080546001600160a01b038381166001600160a01b0319831681178455604051919092169283917f8be0079c531659141344cd1fd0a4f28419497f9722a3daafe3b4186f6b6457e09190a35050565b80516001600160a01b03811681146200036e57600080fd5b919050565b600080600080600060a086880312156200038c57600080fd5b620003978662000356565b9450620003a76020870162000356565b9350620003b76040870162000356565b9250620003c76060870162000356565b9150620003d76080870162000356565b90509295509295909350565b60805160a05160c05160e051613973620004e86000396000818161057401526106ee01526000818161074201528181610a2801528181610c7401528181610d5901528181610e4201528181610f68015281816110d8015281816111cb0152818161148f015281816117480152818161183d01528181611927015281816119d001528181611b6401528181611c7a01528181611cea01526125060152600061050001526000818161089b01528181610db401528181610ef60152818161112b0152818161138f0152818161163f0152818161189801528181611bbf015281816123a601528181612446015281816125e2015281816128440152612cc401526139736000f3fe6080604052600436106102b25760003560e01c80638c58eff111610175578063c45a0155116100dc578063db2e21bc11610095578063ea04f1551161006f578063ea04f155146109ad578063ef6283d9146109c2578063f2d65fb0146109d8578063f2fde38b146109f8576102b9565b8063db2e21bc14610956578063e64db87e1461096b578063e783402914610998576102b9565b8063c45a015514610889578063c6e5d8f6146108bd578063cc62d8c4146108ea578063cf2c03341461090a578063d4c3eea01461092a578063d73792a914610940576102b9565b8063b79c41a21161012e578063b79c41a2146107b7578063be591129146107d7578063bf333f2c14610804578063bf4827b514610819578063c257309914610839578063c279a2bc14610859576102b9565b80638c58eff1146106df5780638da5cb5b146107125780639827d473146107305780639b23d3d9146107645780639d7de6b314610784578063aebf3e41146107a4576102b9565b8063545466a511610219578063715018a6116101d2578063715018a61461062f57806372459f39146106445780637469dff71461065a5780637f2b6a0d146106905780638456cb59146106aa5780638b0c36fa146106bf576102b9565b8063545466a51461054f5780635839f07f146105625780635962a941146105965780635c975abb146105ac57806360246c88146105d0578063618dc65e14610601576102b9565b8063289994371161026b57806328999437146103fa5780632fb9125d146104105780633474d1f91461042557806339419a14146104ce5780633e7e516a146104ee5780633f4ba83a1461053a576102b9565b806310b42fd4146102eb57806310ca0bce1461030f57806315dacbea1461032657806321b77d6314610359578063240f1b6214610370578063250e6de0146103f2576102b9565b366102b957005b60405162461bcd60e51b8152602060048201526002602482015261272360f11b60448201526064015b60405180910390fd5b3480156102f757600080fd5b506008545b6040519081526020015b60405180910390f35b34801561031b57600080fd5b50610324610a18565b005b34801561033257600080fd5b50610346610341366004612d74565b610a98565b60405160079190910b8152602001610306565b34801561036557600080fd5b506102fc620186a081565b34801561037c57600080fd5b5061039061038b366004612dbf565b610b8c565b6040516103069190815181526020808301519082015260408083015190820152606080830151908201526080808301516001600160a01b039081169183019190915260a08084015182169083015260c092830151169181019190915260e00190565b610324610c5a565b34801561040657600080fd5b506102fc60045481565b34801561041c57600080fd5b506102fc610eb8565b34801561043157600080fd5b5061048a610440366004612dbf565b600a60205260009081526040902080546001820154600283015460038401546004850154600586015460069096015494959394929391926001600160a01b03918216928216911687565b6040805197885260208801969096529486019390935260608501919091526001600160a01b03908116608085015290811660a08401521660c082015260e001610306565b3480156104da57600080fd5b506103246104e9366004612dd8565b610eeb565b3480156104fa57600080fd5b506105227f000000000000000000000000000000000000000000000000000000000000000081565b6040516001600160a01b039091168152602001610306565b34801561054657600080fd5b50610324610f46565b61032461055d366004612dfa565b610f56565b34801561056e57600080fd5b506105227f000000000000000000000000000000000000000000000000000000000000000081565b3480156105a257600080fd5b506102fc600c5481565b3480156105b857600080fd5b5060025460ff165b6040519015158152602001610306565b3480156105dc57600080fd5b5060045460055460065460408051938452602084019290925290820152606001610306565b34801561060d57600080fd5b5061062161061c366004612e3c565b611244565b604051610306929190612f4e565b34801561063b57600080fd5b50610324611362565b34801561065057600080fd5b506102fc60085481565b34801561066657600080fd5b506102fc610675366004612f6f565b6001600160a01b031660009081526009602052604090205490565b34801561069c57600080fd5b506007546105c09060ff1681565b3480156106b657600080fd5b50610324611374565b3480156106cb57600080fd5b506103246106da366004612dbf565b611384565b3480156106eb57600080fd5b507f0000000000000000000000000000000000000000000000000000000000000000610522565b34801561071e57600080fd5b506000546001600160a01b0316610522565b34801561073c57600080fd5b506105227f000000000000000000000000000000000000000000000000000000000000000081565b34801561077057600080fd5b5061034661077f366004612d74565b611438565b34801561079057600080fd5b5061032461079f366004612f8a565b61147d565b6103246107b2366004612fac565b611736565b3480156107c357600080fd5b506102fc6107d2366004612f8a565b611dff565b3480156107e357600080fd5b506107f76107f2366004612fed565b611e5f565b604051610306919061300a565b34801561081057600080fd5b506102fc601e81565b34801561082557600080fd5b5061032461083436600461301d565b61239b565b34801561084557600080fd5b5061032461085436600461301d565b61243b565b34801561086557600080fd5b506105c0610874366004612f6f565b600d6020526000908152604090205460ff1681565b34801561089557600080fd5b506105227f000000000000000000000000000000000000000000000000000000000000000081565b3480156108c957600080fd5b506108dd6108d8366004612f6f565b61256b565b6040516103069190613047565b3480156108f657600080fd5b50610324610905366004612dbf565b6125d7565b34801561091657600080fd5b506102fc61092536600461301d565b612624565b34801561093657600080fd5b506102fc60065481565b34801561094c57600080fd5b506102fc61271081565b34801561096257600080fd5b50610324612655565b34801561097757600080fd5b506102fc610986366004612f6f565b60096020526000908152604090205481565b3480156109a457600080fd5b50610324612743565b3480156109b957600080fd5b50600c546102fc565b3480156109ce57600080fd5b506102fc60055481565b3480156109e457600080fd5b506103246109f3366004612dbf565b612839565b348015610a0457600080fd5b50610324610a13366004612f6f565b6128c2565b610a206128fd565b6000610a4c307f000000000000000000000000000000000000000000000000000000000000000061292a565b905060168114610a9557610a5f81611e5f565b604051602001610a6f919061308b565b60408051601f198184030181529082905262461bcd60e51b82526102e29160040161300a565b50565b6040516001600160a01b038581166024830152848116604483015283166064820152608481018290526000908190819061016790630aed65f560e11b9060a4015b60408051601f198184030181529181526020820180516001600160e01b03166001600160e01b0319909416939093179092529051610b1791906130d0565b6000604051808303816000865af19150503d8060008114610b54576040519150601f19603f3d011682016040523d82523d6000602084013e610b59565b606091505b509150915081610b6a576015610b7e565b80806020019051810190610b7e91906130ec565b60030b979650505050505050565b610be76040518060e001604052806000815260200160008152602001600081526020016000815260200160006001600160a01b0316815260200160006001600160a01b0316815260200160006001600160a01b031681525090565b506000908152600a6020908152604091829020825160e081018452815481526001820154928101929092526002810154928201929092526003820154606082015260048201546001600160a01b0390811660808301526005830154811660a083015260069092015490911660c082015290565b610c626128fd565b610c6a6129fe565b610c72612a28565b7f00000000000000000000000000000000000000000000000000000000000000006001600160a01b0316610cb85760405162461bcd60e51b81526004016102e290613109565b60055415610cf15760405162461bcd60e51b815260206004820152600660248201526512539255115160d21b60448201526064016102e2565b620186a0341015610d2e5760405162461bcd60e51b81526020600482015260076024820152662624a8afa6a4a760c91b60448201526064016102e2565b3460048190556006819055600090610d4890606490613140565b604051600782900b815290915033907f00000000000000000000000000000000000000000000000000000000000000006001600160a01b0316906000805160206133548339815191529060200160405180910390a3604051632193fc1360e11b81526001600160a01b037f00000000000000000000000000000000000000000000000000000000000000001690634327f82690610ded90309033908690600401613162565b600060405180830381600087803b158015610e0757600080fd5b505af1158015610e1b573d6000803e3d6000fd5b50505060058290555060408051600783900b81526000602082015233916001600160a01b037f0000000000000000000000000000000000000000000000000000000000000000169160008051602061340d833981519152910160405180910390a36040805134815260208101839052428183015290513391600080516020613634833981519152919081900360600190a250610eb660018055565b565b6000600554600003610eca5750600090565b6005546064600654610edc9190613140565b610ee69190613140565b905090565b336001600160a01b037f00000000000000000000000000000000000000000000000000000000000000001614610f335760405162461bcd60e51b81526004016102e290613186565b6007805460ff1916911515919091179055565b610f4e6128fd565b610eb6612a4c565b610f5e6129fe565b610f66612a28565b7f00000000000000000000000000000000000000000000000000000000000000006001600160a01b0316610fac5760405162461bcd60e51b81526004016102e290613109565b600060055411610fe95760405162461bcd60e51b81526020600482015260086024820152671393d517d253925560c21b60448201526064016102e2565b600034116110095760405162461bcd60e51b81526004016102e2906131a8565b600083116110295760405162461bcd60e51b81526004016102e2906131c9565b600082116110495760405162461bcd60e51b81526004016102e2906131eb565b60006110558484611dff565b9050818110156110925760405162461bcd60e51b8152602060048201526008602482015267534c49505041474560c01b60448201526064016102e2565b34600460008282546110a4919061320d565b9250508190555034600660008282546110bd919061320d565b9091555050604051600782900b815233906001600160a01b037f000000000000000000000000000000000000000000000000000000000000000016906000805160206133548339815191529060200160405180910390a3604051632193fc1360e11b81526001600160a01b037f00000000000000000000000000000000000000000000000000000000000000001690634327f8269061116490309033908690600401613162565b600060405180830381600087803b15801561117e57600080fd5b505af1158015611192573d6000803e3d6000fd5b5050505080600560008282546111a8919061320d565b909155505060408051600783900b81526000602082015233916001600160a01b037f0000000000000000000000000000000000000000000000000000000000000000169160008051602061340d833981519152910160405180910390a36040805134815260208101839052428183015290513391600080516020613634833981519152919081900360600190a25061123f60018055565b505050565b600060606000806101676001600160a01b031663618dc65e60e01b8787604051602401611272929190613226565b60408051601f198184030181529181526020820180516001600160e01b03166001600160e01b03199094169390931790925290516112b091906130d0565b6000604051808303816000865af19150503d80600081146112ed576040519150601f19603f3d011682016040523d82523d6000602084013e6112f2565b606091505b50915091507f4af4780e06fe8cb9df64b0794fa6f01399af979175bb988e35e0e57e594567bc828260405161132892919061324a565b60405180910390a18161134c57601560405180602001604052806000815250611350565b6016815b60039190910b97909650945050505050565b61136a6128fd565b610eb66000612a9e565b61137c6128fd565b610eb6612aee565b336001600160a01b037f000000000000000000000000000000000000000000000000000000000000000016146113cc5760405162461bcd60e51b81526004016102e290613186565b600081116114055760405162461bcd60e51b81526020600482015260066024820152650484241523c360d41b60448201526064016102e2565b8060046000828254611417919061320d565b925050819055508060066000828254611430919061320d565b909155505050565b6040516001600160a01b038581166024830152848116604483015283166064820152608481018290526000908190819061016790639b23d3d960e01b9060a401610ad9565b6114856129fe565b61148d612a28565b7f00000000000000000000000000000000000000000000000000000000000000006001600160a01b03166114d35760405162461bcd60e51b81526004016102e290613109565b6000821161150b5760405162461bcd60e51b815260206004820152600560248201526404e4f5f4c560dc1b60448201526064016102e2565b6000600554116115465760405162461bcd60e51b81526020600482015260066024820152654e4f5f4c495160d01b60448201526064016102e2565b6000600554600454846115599190613265565b6115639190613140565b9050818110156115a05760405162461bcd60e51b8152602060048201526008602482015267534c49505041474560c01b60448201526064016102e2565b478111156115db5760405162461bcd60e51b8152602060048201526008602482015267484241525f4c4f5760c01b60448201526064016102e2565b80600460008282546115ed919061327c565b925050819055508260056000828254611606919061327c565b92505081905550806006600082825461161f919061327c565b9091555050604051625a321960e61b8152306004820152602481018490527f00000000000000000000000000000000000000000000000000000000000000006001600160a01b03169063168c864090604401600060405180830381600087803b15801561168b57600080fd5b505af115801561169f573d6000803e3d6000fd5b50506040516000925033915083908381818185875af1925050503d80600081146116e5576040519150601f19603f3d011682016040523d82523d6000602084013e6116ea565b606091505b50509050806117275760405162461bcd60e51b8152602060048201526009602482015268242120a92fac2322a960b91b60448201526064016102e2565b505061173260018055565b5050565b61173e6129fe565b611746612a28565b7f00000000000000000000000000000000000000000000000000000000000000006001600160a01b031661178c5760405162461bcd60e51b81526004016102e290613109565b600034116117ac5760405162461bcd60e51b81526004016102e2906131a8565b600083116117cc5760405162461bcd60e51b81526004016102e2906131c9565b600082116117ec5760405162461bcd60e51b81526004016102e2906131eb565b600554600003611ae857346004819055600655336000908152600d602052604081205460ff1661181f57620f4240611822565b60005b62ffffff169050801561198857604051600782900b815233907f00000000000000000000000000000000000000000000000000000000000000006001600160a01b0316906000805160206133548339815191529060200160405180910390a3604051632193fc1360e11b81526001600160a01b037f00000000000000000000000000000000000000000000000000000000000000001690634327f826906118d190309033908690600401613162565b600060405180830381600087803b1580156118eb57600080fd5b505af11580156118ff573d6000803e3d6000fd5b5050336000818152600d6020526040808220805460ff191660011790556005869055519193507f00000000000000000000000000000000000000000000000000000000000000006001600160a01b0316925060008051602061340d8339815191529161197b918691600792830b8152910b602082015260400190565b60405180910390a361198e565b60016005555b60006040518060e001604052803481526020014281526020016119b18787611dff565b81526020808201859052336040808401829052306060808601919091527f00000000000000000000000000000000000000000000000000000000000000006001600160a01b03908116608096870152600c80546000908152600a875284812089518155898801516001808301919091558a8701516002830155948a01516003820155978901516004890180549185166001600160a01b031992831617905560a08a015160058a01805491861691831691909117905560c08a01516006909901805499909416981697909717909155928552600b84529084208254815492830182559085529284200191909155805492935090611aac8361328f565b90915550506040805134815260208101849052428183015290513391600080516020613634833981519152919081900360600190a25050611df0565b6000611af48484611dff565b90503460046000828254611b08919061320d565b925050819055503460066000828254611b21919061320d565b9091555050336000908152600d602052604081205460ff16611b4657620f4240611b49565b60005b62ffffff1690508015611cb557604051600782900b815233907f00000000000000000000000000000000000000000000000000000000000000006001600160a01b0316906000805160206133548339815191529060200160405180910390a3604051632193fc1360e11b81526001600160a01b037f00000000000000000000000000000000000000000000000000000000000000001690634327f82690611bf890309033908690600401613162565b600060405180830381600087803b158015611c1257600080fd5b505af1158015611c26573d6000803e3d6000fd5b5050336000908152600d60205260408120805460ff1916600117905560058054859450909250611c5790849061320d565b909155505060408051600783900b81526000602082015233916001600160a01b037f0000000000000000000000000000000000000000000000000000000000000000169160008051602061340d833981519152910160405180910390a35b6040805160e0810182523481524260208083019182528284018681526060840186815233608086018181523060a088019081527f00000000000000000000000000000000000000000000000000000000000000006001600160a01b0390811660c08a01908152600c80546000908152600a8a528c81209b518c5599516001808d0191909155975160028c0155955160038b0155925160048a0180549183166001600160a01b0319928316179055915160058a01805491831691841691909117905591516006909801805498909216971696909617909555938352600b825293822083548154958601825590835290822090930192909255805491611db88361328f565b90915550506040805134815260208101839052428183015290513391600080516020613634833981519152919081900360600190a250505b611df960018055565b50505050565b6000808311611e205760405162461bcd60e51b81526004016102e2906131c9565b60008211611e405760405162461bcd60e51b81526004016102e2906131eb565b81611e4e84620f4240613265565b611e589190613140565b9392505050565b6060601519600383900b01611e915750506040805180820190915260078152665355434345535360c81b602082015290565b600819600383900b01611ebd576040518060600160405280603181526020016136ec6031913992915050565b600919600383900b01611ee95760405180606001604052806040815260200161375b6040913992915050565b600619600383900b01611f15576040518060600160405280603481526020016135946034913992915050565b600e19600383900b01611f41576040518060600160405280603c8152602001613374603c913992915050565b600f19600383900b01611f6d576040518060600160405280603e81526020016135c8603e913992915050565b601d19600383900b01611f99576040518060600160405280602a815260200161368a602a913992915050565b602119600383900b01611fc5576040518060600160405280603881526020016136b46038913992915050565b606e19600383900b01611ff1576040518060600160405280602b81526020016137d4602b913992915050565b60a919600383900b0161201d576040518060600160405280603d81526020016137ff603d913992915050565b60aa19600383900b01612049576040518060600160405280602e8152602001613606602e913992915050565b60ad19600383900b016120755760405180606001604052806030815260200161352f6030913992915050565b60ae19600383900b016120a15760405180606001604052806039815260200161379b6039913992915050565b60bd19600383900b016120cd576040518060600160405280602c815260200161383c602c913992915050565b60be19600383900b016120f9576040518060600160405280603581526020016139096035913992915050565b60a719600383900b016121255760405180606001604052806038815260200161342d6038913992915050565b60a819600383900b01612151576040518060600160405280603e815260200161371d603e913992915050565b60bc19600383900b0161217d576040518060600160405280602a81526020016138ac602a913992915050565b609a19600383900b016121a9576040518060600160405280602881526020016133b06028913992915050565b601919600383900b016121d5576040518060600160405280602681526020016134656026913992915050565b601a19600383900b016122015760405180606001604052806026815260200161348b6026913992915050565b602519600383900b0161222d5760405180606001604052806035815260200161355f6035913992915050565b603f19600383900b01612259576040518060600160405280603581526020016133d86035913992915050565b604019600383900b01612285576040518060800160405280604481526020016138686044913992915050565b61011619600383900b016122b2576040518060600160405280603681526020016136546036913992915050565b61014419600383900b016122df576040518060600160405280603f81526020016134f0603f913992915050565b61014519600383900b0161230c576040518060600160405280603f81526020016134b1603f913992915050565b61014619600383900b01612339576040518060800160405280604181526020016133136041913992915050565b61014719600383900b01612366576040518060600160405280603381526020016138d66033913992915050565b6123758263ffffffff16612b2b565b60405160200161238591906132a8565b6040516020818303038152906040529050919050565b336001600160a01b037f000000000000000000000000000000000000000000000000000000000000000016146123e35760405162461bcd60e51b81526004016102e290613186565b600281111561241f5760405162461bcd60e51b81526020600482015260086024820152672120a22fa321a22960c11b60448201526064016102e2565b6001600160a01b03909116600090815260096020526040902055565b336001600160a01b037f000000000000000000000000000000000000000000000000000000000000000016146124835760405162461bcd60e51b81526004016102e290613186565b6001600160a01b0382166124c45760405162461bcd60e51b81526020600482015260086024820152672120a22faaa9a2a960c11b60448201526064016102e2565b600081116124ff5760405162461bcd60e51b8152602060048201526008602482015267414d545f5a45524f60c01b60448201526064016102e2565b600061252d7f0000000000000000000000000000000000000000000000000000000000000000308585612c57565b90506016811461123f5760405162461bcd60e51b815260206004820152600960248201526821a9a6282fac2322a960b91b60448201526064016102e2565b6001600160a01b0381166000908152600b60209081526040918290208054835181840281018401909452808452606093928301828280156125cb57602002820191906000526020600020905b8154815260200190600101908083116125b7575b50505050509050919050565b336001600160a01b037f0000000000000000000000000000000000000000000000000000000000000000161461261f5760405162461bcd60e51b81526004016102e290613186565b600555565b600b602052816000526040600020818154811061264057600080fd5b90600052602060002001600091509150505481565b61265d6128fd565b612665612c9f565b47806126835760405162461bcd60e51b81526004016102e2906131a8565b8060046000828254612695919061327c565b9250508190555080600660008282546126ae919061327c565b9091555050600080546040516001600160a01b039091169083908381818185875af1925050503d8060008114612700576040519150601f19603f3d011682016040523d82523d6000602084013e612705565b606091505b50509050806117325760405162461bcd60e51b815260206004820152600a60248201526908a9a8aa48ebeae88beb60b31b60448201526064016102e2565b61274b6128fd565b612753612c9f565b47806127715760405162461bcd60e51b81526004016102e2906131a8565b61277a81612cc2565b806004600082825461278c919061327c565b9250508190555080600660008282546127a5919061327c565b9091555050600080546040516001600160a01b039091169083908381818185875af1925050503d80600081146127f7576040519150601f19603f3d011682016040523d82523d6000602084013e6127fc565b606091505b50509050806117325760405162461bcd60e51b81526020600482015260096024820152680908482a4beae88beb60bb1b60448201526064016102e2565b336001600160a01b037f000000000000000000000000000000000000000000000000000000000000000016146128815760405162461bcd60e51b81526004016102e290613186565b6127108111156128bd5760405162461bcd60e51b81526020600482015260076024820152661410d517d0905160ca1b60448201526064016102e2565b600855565b6128ca6128fd565b6001600160a01b0381166128f457604051631e4fbdf760e01b8152600060048201526024016102e2565b610a9581612a9e565b6000546001600160a01b03163314610eb65760405163118cdaa760e01b81523360048201526024016102e2565b604080516001600160a01b038481166024830152831660448083019190915282518083039091018152606490910182526020810180516001600160e01b031663248a35ef60e11b1790529051600091829182916101679161298b91906130d0565b6000604051808303816000865af19150503d80600081146129c8576040519150601f19603f3d011682016040523d82523d6000602084013e6129cd565b606091505b5091509150816129de5760156129f2565b808060200190518101906129f291906130ec565b60030b95945050505050565b600260015403612a2157604051633ee5aeb560e01b815260040160405180910390fd5b6002600155565b60025460ff1615610eb65760405163d93c066560e01b815260040160405180910390fd5b612a54612c9f565b6002805460ff191690557f5db9ee0a495bf2e6ff9c91a7834c1ba4fdd244a5e8aa4e537bd38aeae4b073aa335b6040516001600160a01b03909116815260200160405180910390a1565b600080546001600160a01b038381166001600160a01b0319831681178455604051919092169283917f8be0079c531659141344cd1fd0a4f28419497f9722a3daafe3b4186f6b6457e09190a35050565b612af6612a28565b6002805460ff191660011790557f62e78cea01bee320cd4e420270b5ea74000d11b0c9f74754ebdbfc544b05a258612a813390565b606081600003612b525750506040805180820190915260018152600360fc1b602082015290565b8160005b8115612b7c5780612b668161328f565b9150612b759050600a83613140565b9150612b56565b60008167ffffffffffffffff811115612b9757612b97612e26565b6040519080825280601f01601f191660200182016040528015612bc1576020820181803683370190505b509050815b8515612c4e57612bd760018261327c565b90506000612be6600a88613140565b612bf190600a613265565b612bfb908861327c565b612c069060306132e3565b905060008160f81b905080848481518110612c2357612c236132fc565b60200101906001600160f81b031916908160001a905350612c45600a89613140565b97505050612bc6565b50949350505050565b6040516001600160a01b038581166024830152848116604483015283166064820152600782900b6084820152600090819081906101679063eca3691760e01b9060a401610ad9565b60025460ff16610eb657604051638dfc202b60e01b815260040160405180910390fd5b7f00000000000000000000000000000000000000000000000000000000000000006001600160a01b03166395f40f9530612d046000546001600160a01b031690565b846040518463ffffffff1660e01b8152600401612d2393929190613162565b600060405180830381600087803b158015612d3d57600080fd5b505af1158015612d51573d6000803e3d6000fd5b5050505050565b80356001600160a01b0381168114612d6f57600080fd5b919050565b60008060008060808587031215612d8a57600080fd5b612d9385612d58565b9350612da160208601612d58565b9250612daf60408601612d58565b9396929550929360600135925050565b600060208284031215612dd157600080fd5b5035919050565b600060208284031215612dea57600080fd5b81358015158114611e5857600080fd5b600080600060608486031215612e0f57600080fd5b505081359360208301359350604090920135919050565b634e487b7160e01b600052604160045260246000fd5b60008060408385031215612e4f57600080fd5b612e5883612d58565b9150602083013567ffffffffffffffff80821115612e7557600080fd5b818501915085601f830112612e8957600080fd5b813581811115612e9b57612e9b612e26565b604051601f8201601f19908116603f01168101908382118183101715612ec357612ec3612e26565b81604052828152886020848701011115612edc57600080fd5b8260208601602083013760006020848301015280955050505050509250929050565b60005b83811015612f19578181015183820152602001612f01565b50506000910152565b60008151808452612f3a816020860160208601612efe565b601f01601f19169290920160200192915050565b828152604060208201526000612f676040830184612f22565b949350505050565b600060208284031215612f8157600080fd5b611e5882612d58565b60008060408385031215612f9d57600080fd5b50508035926020909101359150565b60008060008060808587031215612fc257600080fd5b5050823594602084013594506040840135936060013592509050565b8060030b8114610a9557600080fd5b600060208284031215612fff57600080fd5b8135611e5881612fde565b602081526000611e586020830184612f22565b6000806040838503121561303057600080fd5b61303983612d58565b946020939093013593505050565b6020808252825182820181905260009190848201906040850190845b8181101561307f57835183529284019291840191600101613063565b50909695505050505050565b7f43534c5020746f6b656e206173736f63696174696f6e206661696c65643a20008152600082516130c381601f850160208701612efe565b91909101601f0192915050565b600082516130e2818460208701612efe565b9190910192915050565b6000602082840312156130fe57600080fd5b8151611e5881612fde565b60208082526007908201526604e4f5f43534c560cc1b604082015260600190565b634e487b7160e01b600052601160045260246000fd5b60008261315d57634e487b7160e01b600052601260045260246000fd5b500490565b6001600160a01b039384168152919092166020820152604081019190915260600190565b6020808252600890820152674f4e4c595f46414360c01b604082015260600190565b6020808252600790820152662727afa42120a960c91b604082015260600190565b6020808252600890820152675553445f5a45524f60c01b604082015260600190565b6020808252600890820152674d41545f5a45524f60c01b604082015260600190565b808201808211156132205761322061312a565b92915050565b6001600160a01b0383168152604060208201819052600090612f6790830184612f22565b8215158152604060208201526000612f676040830184612f22565b80820281158282048414176132205761322061312a565b818103818111156132205761322061312a565b6000600182016132a1576132a161312a565b5060010190565b72554e4b4e4f574e5f4552524f525f434f44455f60681b8152600082516132d6816013850160208701612efe565b9190910160130192915050565b60ff81811683821601908111156132205761322061312a565b634e487b7160e01b600052603260045260246000fdfe494e53554646494349454e545f53544f524147455f52454e54202d20496e73756666696369656e742062616c616e636520666f722073746f726167652072656e74b7555d949a897acb395f95e3f2df8b700519404826bb13cd6526b756f6a1c907494e56414c49445f4143434f554e545f4944202d204163636f756e7420494420697320696e76616c6964206f7220646f6573206e6f74206578697374494e56414c49445f41444d494e5f4b4559202d2041646d696e206b657920697320696e76616c69645452414e53414354494f4e5f4f56455253495a45202d205472616e73616374696f6e20657863656564732073697a65206c696d6974ad91542866f4da9ebed5a2b1713258f4bf970f84e7b2a0b8aab2de28d11ffffd494e56414c49445f544f4b454e5f444543494d414c53202d20546f6b656e20646563696d616c732076616c756520697320696e76616c69644b45595f5245515549524544202d205265717569726564206b6579206973206d697373696e674241445f454e434f44494e47202d204b657920656e636f64696e6720697320696e76616c6964494e56414c49445f505245434f4d50494c455f5349474e4154555245202d20496e76616c6964207369676e617475726520666f7220707265636f6d70696c654d41585f454e5449544945535f43524541544544202d204d6178696d756d20656e74697469657320696e20707269636520726567696d6520726561636865644d495353494e475f544f4b454e5f53594d424f4c202d20546f6b656e2073796d626f6c206e6f742070726f7669646564494e56414c49445f4b45595f454e434f44494e47202d204b657920656e636f64696e6720666f726d617420697320696e76616c6964494e56414c49445f5349474e4154555245202d205472616e73616374696f6e207369676e617475726520697320696e76616c6964494e56414c49445f434f4e54524143545f4944202d20436f6e747261637420494420697320696e76616c6964206f7220646f6573206e6f74206578697374494e56414c49445f544f4b454e5f53594d424f4c202d20546f6b656e2073796d626f6c20697320696e76616c696464b83944e79c3ce8d4c297411de637c3e102d064677aac0c163976ebdcd6f50e434f4e53454e5355535f4741535f455848415553544544202d20436f6e73656e737573206e6f64652067617320657868617573746564494e53554646494349454e545f474153202d204e6f7420656e6f7567682067617320737570706c696564434f4e54524143545f455845435554494f4e5f455843455054494f4e202d20436f6e747261637420657865637574696f6e206661696c6564494e53554646494349454e545f54585f464545202d204e6f7420656e6f756768206761732f6665652070726f7669646564494e56414c49445f544f4b454e5f494e495449414c5f535550504c59202d20496e697469616c20737570706c792076616c756520697320696e76616c6964494e53554646494349454e545f50415945525f42414c414e4345202d205061796572206163636f756e742068617320696e73756666696369656e742048424152544f4b454e5f53594d424f4c5f544f4f5f4c4f4e47202d20546f6b656e2073796d626f6c2065786365656473206c656e677468206c696d69744d41585f4741535f4c494d49545f4558434545444544202d20476173206c696d6974206578636565646564494e56414c49445f54524541535552595f4143434f554e545f464f525f544f4b454e202d205472656173757279206163636f756e7420696e76616c69644d495353494e475f544f4b454e5f4e414d45202d20546f6b656e206e616d65206e6f742070726f76696465645452414e53414354494f4e5f544f4f5f4d414e595f4c4159455253202d205472616e73616374696f6e2068617320746f6f206d616e79206e6573746564206c6179657273494e56414c49445f535550504c595f4b4559202d20537570706c79206b657920697320696e76616c69644d41585f4348494c445f5245434f5244535f4558434545444544202d20546f6f206d616e79206368696c64207265636f726473544f4b454e5f4e414d455f544f4f5f4c4f4e47202d20546f6b656e206e616d652065786365656473206c656e677468206c696d6974a2646970667358221220723a71b70806eb965dd3266e9372e78d834ec609c5639fd0b542cbdda6869b9d64736f6c63430008140033a2646970667358221220d0cef87f678bcba813add137e7fde30e14777fa4da40737ff48c91105b9edaaa64736f6c63430008140033",
  "linkReferences": {},
  "deployedLinkReferences": {}
}