{
  "_format": "hh-sol-artifact-1",
  "contractName": "ClearSkyFactory",
  "sourceName": "contracts/ClearSkyFactory.sol",
  "abi": [
    {
      "inputs": [],
      "stateMutability": "nonpayable",
      "type": "constructor"
    },
    {
      "anonymous": false,
      "inputs": [
        {
          "indexed": false,
          "internalType": "bool",
          "name": "",
          "type": "bool"
        },
        {
          "indexed": false,
          "internalType": "bytes",
          "name": "",
          "type": "bytes"
        }
      ],
      "name": "CallResponseEvent",
      "type": "event"
    },
    {
      "anonymous": false,
      "inputs": [
        {
          "indexed": true,
          "internalType": "address",
          "name": "poolAddress",
          "type": "address"
        },
        {
          "indexed": true,
          "internalType": "address",
          "name": "cslpToken",
          "type": "address"
        },
        {
          "indexed": false,
          "internalType": "uint256",
          "name": "hbarAmount",
          "type": "uint256"
        },
        {
          "indexed": false,
          "internalType": "uint256",
          "name": "cslpTokensMinted",
          "type": "uint256"
        }
      ],
      "name": "MaturationDepositCompleted",
      "type": "event"
    },
    {
      "anonymous": false,
      "inputs": [
        {
          "indexed": true,
          "internalType": "address",
          "name": "previousOwner",
          "type": "address"
        },
        {
          "indexed": true,
          "internalType": "address",
          "name": "newOwner",
          "type": "address"
        }
      ],
      "name": "OwnershipTransferred",
      "type": "event"
    },
    {
      "anonymous": false,
      "inputs": [
        {
          "indexed": true,
          "internalType": "address",
          "name": "user",
          "type": "address"
        },
        {
          "indexed": true,
          "internalType": "address",
          "name": "poolAddress",
          "type": "address"
        },
        {
          "indexed": true,
          "internalType": "address",
          "name": "cslpToken",
          "type": "address"
        },
        {
          "indexed": false,
          "internalType": "uint256",
          "name": "poolIndex",
          "type": "uint256"
        }
      ],
      "name": "PoolCreated",
      "type": "event"
    },
    {
      "inputs": [
        {
          "internalType": "uint256",
          "name": "",
          "type": "uint256"
        }
      ],
      "name": "allPools",
      "outputs": [
        {
          "internalType": "address",
          "name": "",
          "type": "address"
        }
      ],
      "stateMutability": "view",
      "type": "function"
    },
    {
      "inputs": [
        {
          "internalType": "address",
          "name": "poolAddress",
          "type": "address"
        },
        {
          "internalType": "uint256",
          "name": "amount",
          "type": "uint256"
        }
      ],
      "name": "burnCSLP",
      "outputs": [],
      "stateMutability": "nonpayable",
      "type": "function"
    },
    {
      "inputs": [
        {
          "internalType": "address",
          "name": "from",
          "type": "address"
        },
        {
          "internalType": "address",
          "name": "poolAddress",
          "type": "address"
        },
        {
          "internalType": "uint256",
          "name": "amount",
          "type": "uint256"
        }
      ],
      "name": "burnFCDR",
      "outputs": [],
      "stateMutability": "nonpayable",
      "type": "function"
    },
    {
      "inputs": [
        {
          "internalType": "address",
          "name": "newPoolAddress",
          "type": "address"
        },
        {
          "internalType": "address",
          "name": "prevPoolAddress",
          "type": "address"
        },
        {
          "internalType": "uint256",
          "name": "hbarAmount",
          "type": "uint256"
        }
      ],
      "name": "completeMaturationDeposit",
      "outputs": [],
      "stateMutability": "nonpayable",
      "type": "function"
    },
    {
      "inputs": [
        {
          "internalType": "address",
          "name": "user",
          "type": "address"
        },
        {
          "internalType": "address",
          "name": "cslpToken",
          "type": "address"
        }
      ],
      "name": "createMaturationPool",
      "outputs": [
        {
          "internalType": "address",
          "name": "",
          "type": "address"
        }
      ],
      "stateMutability": "nonpayable",
      "type": "function"
    },
    {
      "inputs": [
        {
          "internalType": "address",
          "name": "user",
          "type": "address"
        },
        {
          "internalType": "address",
          "name": "cslpToken",
          "type": "address"
        }
      ],
      "name": "createUserPool",
      "outputs": [
        {
          "internalType": "address",
          "name": "",
          "type": "address"
        }
      ],
      "stateMutability": "nonpayable",
      "type": "function"
    },
    {
      "inputs": [],
      "name": "fcdr1155Contract",
      "outputs": [
        {
          "internalType": "address",
          "name": "",
          "type": "address"
        }
      ],
      "stateMutability": "view",
      "type": "function"
    },
    {
      "inputs": [],
      "name": "getAllPools",
      "outputs": [
        {
          "internalType": "address[]",
          "name": "",
          "type": "address[]"
        }
      ],
      "stateMutability": "view",
      "type": "function"
    },
    {
      "inputs": [
        {
          "internalType": "address",
          "name": "user",
          "type": "address"
        }
      ],
      "name": "getUserPool",
      "outputs": [
        {
          "internalType": "address",
          "name": "",
          "type": "address"
        }
      ],
      "stateMutability": "view",
      "type": "function"
    },
    {
      "inputs": [
        {
          "internalType": "address",
          "name": "user",
          "type": "address"
        }
      ],
      "name": "hasPool",
      "outputs": [
        {
          "internalType": "bool",
          "name": "",
          "type": "bool"
        }
      ],
      "stateMutability": "view",
      "type": "function"
    },
    {
      "inputs": [
        {
          "internalType": "address",
          "name": "",
          "type": "address"
        }
      ],
      "name": "isPool",
      "outputs": [
        {
          "internalType": "bool",
          "name": "",
          "type": "bool"
        }
      ],
      "stateMutability": "view",
      "type": "function"
    },
    {
      "inputs": [
        {
          "internalType": "address",
          "name": "poolAddress",
          "type": "address"
        },
        {
          "internalType": "address",
          "name": "user",
          "type": "address"
        },
        {
          "internalType": "uint256",
          "name": "amount",
          "type": "uint256"
        }
      ],
      "name": "mintCSLP",
      "outputs": [],
      "stateMutability": "nonpayable",
      "type": "function"
    },
    {
      "inputs": [
        {
          "internalType": "address",
          "name": "poolAddress",
          "type": "address"
        },
        {
          "internalType": "address",
          "name": "fcdrOwner",
          "type": "address"
        },
        {
          "internalType": "uint256",
          "name": "hbarAmount",
          "type": "uint256"
        }
      ],
      "name": "mintFCDR",
      "outputs": [],
      "stateMutability": "nonpayable",
      "type": "function"
    },
    {
      "inputs": [],
      "name": "orderbookAddress",
      "outputs": [
        {
          "internalType": "address",
          "name": "",
          "type": "address"
        }
      ],
      "stateMutability": "view",
      "type": "function"
    },
    {
      "inputs": [],
      "name": "owner",
      "outputs": [
        {
          "internalType": "address",
          "name": "",
          "type": "address"
        }
      ],
      "stateMutability": "view",
      "type": "function"
    },
    {
      "inputs": [
        {
          "internalType": "address",
          "name": "",
          "type": "address"
        }
      ],
      "name": "poolCSLPTokens",
      "outputs": [
        {
          "internalType": "address",
          "name": "",
          "type": "address"
        }
      ],
      "stateMutability": "view",
      "type": "function"
    },
    {
      "inputs": [
        {
          "internalType": "address",
          "name": "token",
          "type": "address"
        },
        {
          "internalType": "bytes",
          "name": "encodedFunctionSelector",
          "type": "bytes"
        }
      ],
      "name": "redirectForToken",
      "outputs": [
        {
          "internalType": "int256",
          "name": "responseCode",
          "type": "int256"
        },
        {
          "internalType": "bytes",
          "name": "response",
          "type": "bytes"
        }
      ],
      "stateMutability": "nonpayable",
      "type": "function"
    },
    {
      "inputs": [
        {
          "internalType": "address",
          "name": "_fcdr1155Contract",
          "type": "address"
        }
      ],
      "name": "setFCDR1155Contract",
      "outputs": [],
      "stateMutability": "nonpayable",
      "type": "function"
    },
    {
      "inputs": [
        {
          "internalType": "address",
          "name": "_orderbookAddress",
          "type": "address"
        }
      ],
      "name": "setOrderbookAddress",
      "outputs": [],
      "stateMutability": "nonpayable",
      "type": "function"
    },
    {
      "inputs": [
        {
          "internalType": "address",
          "name": "poolAddress",
          "type": "address"
        },
        {
          "internalType": "string",
          "name": "newUrl",
          "type": "string"
        }
      ],
      "name": "setPoolRetirementUrl",
      "outputs": [],
      "stateMutability": "nonpayable",
      "type": "function"
    },
    {
      "inputs": [
        {
          "internalType": "address",
          "name": "poolAddress",
          "type": "address"
        },
        {
          "internalType": "address",
          "name": "user",
          "type": "address"
        },
        {
          "internalType": "uint256",
          "name": "amount",
          "type": "uint256"
        }
      ],
      "name": "transferCSLPToUser",
      "outputs": [],
      "stateMutability": "nonpayable",
      "type": "function"
    },
    {
      "inputs": [
        {
          "internalType": "address",
          "name": "token",
          "type": "address"
        },
        {
          "internalType": "address",
          "name": "from",
          "type": "address"
        },
        {
          "internalType": "address",
          "name": "to",
          "type": "address"
        },
        {
          "internalType": "uint256",
          "name": "amount",
          "type": "uint256"
        }
      ],
      "name": "transferFrom",
      "outputs": [
        {
          "internalType": "int64",
          "name": "responseCode",
          "type": "int64"
        }
      ],
      "stateMutability": "nonpayable",
      "type": "function"
    },
    {
      "inputs": [
        {
          "internalType": "address",
          "name": "token",
          "type": "address"
        },
        {
          "internalType": "address",
          "name": "from",
          "type": "address"
        },
        {
          "internalType": "address",
          "name": "to",
          "type": "address"
        },
        {
          "internalType": "uint256",
          "name": "serialNumber",
          "type": "uint256"
        }
      ],
      "name": "transferFromNFT",
      "outputs": [
        {
          "internalType": "int64",
          "name": "responseCode",
          "type": "int64"
        }
      ],
      "stateMutability": "nonpayable",
      "type": "function"
    },
    {
      "inputs": [
        {
          "internalType": "address",
          "name": "poolAddress",
          "type": "address"
        },
        {
          "internalType": "address",
          "name": "newUser",
          "type": "address"
        }
      ],
      "name": "updatePoolUser",
      "outputs": [],
      "stateMutability": "nonpayable",
      "type": "function"
    },
    {
      "inputs": [
        {
          "internalType": "address",
          "name": "",
          "type": "address"
        }
      ],
      "name": "userPools",
      "outputs": [
        {
          "internalType": "address",
          "name": "",
          "type": "address"
        }
      ],
      "stateMutability": "view",
      "type": "function"
    }
  ],
  "bytecode": "0x6080604052600080546001600160a01b031916905534801561002057600080fd5b50600160208181527fa6eef7e35abe7026729641147f7915573c7e97b47efa546f5f6e3230263bcb499190915560027fcc69885fda6bcc1a4ace058b4a62bf5e179ea78fd58a1ccd71c22cc9b688792f5560047fd9d16d34ffb15ba3a3d852f0d403e2ce1d691fb54de27ac87cd2f993f3ec330f5560087f7dfe757ecd65cbd7922a9c0161e935dd7fdbcc0e999689c7d31633896b1fc60b81905560107fedc95719e9a3b28dd8e80877cb5880a9be7de1a13fc8b05e7999683b6b567643557fe2689cd4a84e23ad2f564004f1c9013e9589d260bde6380aba3ca7e09e4df40c919091556006600090815260407f8f331abe73332f95a25873e8b430885974c0409691f89d643119a11623a7924a8190558254336001600160a01b03199182168117909455600580549091169055517f8be0079c531659141344cd1fd0a4f28419497f9722a3daafe3b4186f6b6457e0908290a3615862806101836000396000f3fe60806040523480156200001157600080fd5b5060043610620001925760003560e01c80635b16ebb711620000f0578063ad28893011620000a3578063d514cf73116200007a578063d514cf731462000404578063d88ff1f4146200041b578063ed4bbdf41462000434578063f1f658d6146200046057600080fd5b8063ad28893014620003d6578063b21feca214620003d6578063ceb5855514620003ed57600080fd5b80635b16ebb71462000330578063618dc65e14620003565780638da5cb5b146200037d57806394937a48146200039157806395f40f9514620003a85780639b23d3d914620003bf57600080fd5b806333049e0e116200014957806333049e0e146200029757806341d1de9714620002c35780634327f82614620002da5780634ab3f5a414620002f15780634e826aee14620003085780635839f07f146200031c57600080fd5b8063074e2e391462000197578063107a480214620001b05780631246dbf514620001fc57806315dacbea146200023e578063168c864014620002695780631916258d1462000280575b600080fd5b620001ae620001a83660046200182a565b62000477565b005b620001df620001c13660046200186b565b6001600160a01b039081166000908152600260205260409020541690565b6040516001600160a01b0390911681526020015b60405180910390f35b6200022d6200020d3660046200186b565b6001600160a01b0390811660009081526002602052604090205416151590565b6040519015158152602001620001f3565b620002556200024f36600462001890565b62000582565b60405160079190910b8152602001620001f3565b620001ae6200027a366004620018e2565b6200067e565b620001ae620002913660046200186b565b62000739565b620001df620002a83660046200186b565b6002602052600090815260409020546001600160a01b031681565b620001df620002d43660046200190f565b620007ea565b620001ae620002eb3660046200182a565b62000815565b620001ae620003023660046200182a565b6200099c565b600654620001df906001600160a01b031681565b600554620001df906001600160a01b031681565b6200022d620003413660046200186b565b60046020526000908152604090205460ff1681565b6200036d6200036736600462001973565b62000d10565b604051620001f392919062001a78565b600854620001df906001600160a01b031681565b620001ae620003a23660046200186b565b62000e38565b620001ae620003b93660046200182a565b62000eea565b62000255620003d036600462001890565b6200100c565b620001df620003e736600462001a9b565b62001052565b620001ae620003fe36600462001ad3565b6200129f565b620001ae6200041536600462001a9b565b62001354565b6200042562001478565b604051620001f3919062001b5d565b620001df620004453660046200186b565b6007602052600090815260409020546001600160a01b031681565b620001ae620004713660046200182a565b620014dc565b6008546001600160a01b0316331480620004a057503360009081526004602052604090205460ff165b620004c85760405162461bcd60e51b8152600401620004bf9062001bac565b60405180910390fd5b6005546001600160a01b03166200050c5760405162461bcd60e51b81526020600482015260076024820152662727afa321a22960c91b6044820152606401620004bf565b60055460405163ec60bcf360e01b81526001600160a01b0385811660048301528481166024830152604482018490529091169063ec60bcf3906064015b600060405180830381600087803b1580156200056457600080fd5b505af115801562000579573d6000803e3d6000fd5b50505050505050565b6040516001600160a01b038581166024830152848116604483015283166064820152608481018290526000908190819061016790630aed65f560e11b9060a4015b60408051601f198184030181529181526020820180516001600160e01b03166001600160e01b031990941693909317909252905162000603919062001bca565b6000604051808303816000865af19150503d806000811462000642576040519150601f19603f3d011682016040523d82523d6000602084013e62000647565b606091505b5091509150816200065a57601562000670565b8080602001905181019062000670919062001bfb565b60030b979650505050505050565b6008546001600160a01b0316331480620006a757503360009081526004602052604090205460ff165b620006c65760405162461bcd60e51b8152600401620004bf9062001bac565b6001600160a01b038083166000908152600760205260409020541680620007015760405162461bcd60e51b8152600401620004bf9062001c19565b60408051600080825260208201909252839162000720848484620015bb565b509050601681146200073157600080fd5b505050505050565b6008546001600160a01b03163314620007665760405162461bcd60e51b8152600401620004bf9062001c3a565b6001600160a01b038116620007c85760405162461bcd60e51b815260206004820152602160248201527f496e76616c696420464344523131353520636f6e7472616374206164647265736044820152607360f81b6064820152608401620004bf565b600580546001600160a01b0319166001600160a01b0392909216919091179055565b60038181548110620007fb57600080fd5b6000918252602090912001546001600160a01b0316905081565b6008546001600160a01b03163314806200083e57503360009081526004602052604090205460ff165b6200085d5760405162461bcd60e51b8152600401620004bf9062001bac565b6001600160a01b038084166000908152600760205260409020541680620008985760405162461bcd60e51b8152600401620004bf9062001c19565b816000620008df8383835b604051908082528060200260200182016040528015620008d857816020015b6060815260200190600190039081620008c25790505b50620016ae565b509091505060168114620009225760405162461bcd60e51b81526020600482015260096024820152681352539517d190525360ba1b6044820152606401620004bf565b6008546001600160a01b038681169116146200073157600854600090620009569085906001600160a01b03168886620017b6565b905060168114620005795760405162461bcd60e51b815260206004820152600f60248201526e151c985b9cd9995c8819985a5b1959608a1b6044820152606401620004bf565b6008546001600160a01b03163314620009c95760405162461bcd60e51b8152600401620004bf9062001c3a565b6001600160a01b03831662000a0b5760405162461bcd60e51b81526020600482015260076024820152664241445f4e455760c81b6044820152606401620004bf565b6001600160a01b03821662000a4e5760405162461bcd60e51b81526020600482015260086024820152672120a22fa82922ab60c11b6044820152606401620004bf565b6000811162000a8c5760405162461bcd60e51b8152602060048201526009602482015268484241525f5a45524f60b81b6044820152606401620004bf565b6001600160a01b03808416600090815260076020526040902054168062000ac75760405162461bcd60e51b8152600401620004bf9062001c19565b620f424080600062000adb848383620008a3565b50909150506016811462000b1e5760405162461bcd60e51b81526020600482015260096024820152681352539517d190525360ba1b6044820152606401620004bf565b60085460009062000b3c9086906001600160a01b03168a86620017b6565b90506016811462000b825760405162461bcd60e51b815260206004820152600f60248201526e151c985b9cd9995c8819985a5b1959608a1b6044820152606401620004bf565b6040516345861b7d60e11b8152600481018790526001600160a01b03891690638b0c36fa90602401600060405180830381600087803b15801562000bc557600080fd5b505af115801562000bda573d6000803e3d6000fd5b506001925060009150606e905062000bf56127108462001c6d565b62000c01919062001c87565b604051630f2d65fb60e41b8152600481018290529091506001600160a01b038b169063f2d65fb090602401600060405180830381600087803b15801562000c4757600080fd5b505af115801562000c5c573d6000803e3d6000fd5b5050604051633318b63160e21b8152600481018990526001600160a01b038d16925063cc62d8c49150602401600060405180830381600087803b15801562000ca357600080fd5b505af115801562000cb8573d6000803e3d6000fd5b5050604080518b8152602081018a90526001600160a01b03808c1694508e1692507fcfcfd05776fd40794ffc040f445799ecd818f2b4462ecb5d0b8bf6d2328383eb910160405180910390a350505050505050505050565b600060606000806101676001600160a01b031663618dc65e60e01b878760405160240162000d4092919062001caa565b60408051601f198184030181529181526020820180516001600160e01b03166001600160e01b031990941693909317909252905162000d80919062001bca565b6000604051808303816000865af19150503d806000811462000dbf576040519150601f19603f3d011682016040523d82523d6000602084013e62000dc4565b606091505b50915091507f4af4780e06fe8cb9df64b0794fa6f01399af979175bb988e35e0e57e594567bc828260405162000dfc92919062001cd0565b60405180910390a18162000e225760156040518060200160405280600081525062000e26565b6016815b60039190910b97909650945050505050565b6008546001600160a01b0316331462000e655760405162461bcd60e51b8152600401620004bf9062001c3a565b6001600160a01b03811662000ec85760405162461bcd60e51b815260206004820152602260248201527f496e76616c6964204f72646572626f6f6b20636f6e7472616374206164647265604482015261737360f01b6064820152608401620004bf565b600680546001600160a01b0319166001600160a01b0392909216919091179055565b6008546001600160a01b031633148062000f1357503360009081526004602052604090205460ff165b62000f325760405162461bcd60e51b8152600401620004bf9062001bac565b6005546001600160a01b031662000f765760405162461bcd60e51b81526020600482015260076024820152662727afa321a22960c91b6044820152606401620004bf565b6005546040516313e2e01960e01b81526001600160a01b0384811660048301528581166024830152604482018490526080606483015260006084830152909116906313e2e0199060a4016020604051808303816000875af115801562000fe0573d6000803e3d6000fd5b505050506040513d601f19601f8201168201806040525081019062001006919062001ced565b50505050565b6040516001600160a01b038581166024830152848116604483015283166064820152608481018290526000908190819061016790639b23d3d960e01b9060a401620005c3565b60006001600160a01b0383166200107d5760405162461bcd60e51b8152600401620004bf9062001d07565b6001600160a01b038216620010a65760405162461bcd60e51b8152600401620004bf9062001c19565b6005546008546040516000923092879287926001600160a01b03908116921690620010d190620017ff565b6001600160a01b0395861681529385166020850152918416604084015283166060830152909116608082015260a001604051809103906000f0801580156200111d573d6000803e3d6000fd5b506001600160a01b03818116600090815260076020526040902080546001600160a01b03191686831617905560055491925082911615620011cd57600554604051631e96838b60e01b81526001600160a01b03838116600483015290911690631e96838b906024016020604051808303816000875af1158015620011a5573d6000803e3d6000fd5b505050506040513d601f19601f82011682018060405250810190620011cb919062001ced565b505b6001600160a01b03808616600081815260026020908152604080832080548688166001600160a01b0319918216811790925560038054600181810183557fc2575a0e9e593c00f959f8c92f12db2869c3395a3b0502d05e2516446f71f85b90910180549093168417909255828652600490945291909320805460ff1916821790559054938816939192917febbbe9dc3a19d2f959ac76ac0372b4983cdfb945f5d6aef4873c36fabb2ba8aa91620012849162001d29565b60405190815260200160405180910390a49150505b92915050565b6008546001600160a01b03163314620012cc5760405162461bcd60e51b8152600401620004bf9062001c3a565b6001600160a01b03831660009081526004602052604090205460ff16620013215760405162461bcd60e51b81526020600482015260086024820152671393d517d413d3d360c21b6044820152606401620004bf565b60405160016213e09360e31b031981526001600160a01b0384169063ff60fb689062000549908590859060040162001d3f565b6006546001600160a01b03163314620013a15760405162461bcd60e51b815260206004820152600e60248201526d4f4e4c595f4f52444552424f4f4b60901b6044820152606401620004bf565b6001600160a01b03821660009081526004602052604090205460ff16620013f65760405162461bcd60e51b81526020600482015260086024820152671393d517d413d3d360c21b6044820152606401620004bf565b6001600160a01b0381166200141f5760405162461bcd60e51b8152600401620004bf9062001d07565b604051632f27f78b60e21b81526001600160a01b03828116600483015283169063bc9fde2c90602401600060405180830381600087803b1580156200146357600080fd5b505af115801562000731573d6000803e3d6000fd5b60606003805480602002602001604051908101604052809291908181526020018280548015620014d257602002820191906000526020600020905b81546001600160a01b03168152600190910190602001808311620014b3575b5050505050905090565b6001600160a01b0383166200151f5760405162461bcd60e51b815260206004820152600860248201526710905117d413d3d360c21b6044820152606401620004bf565b6001600160a01b038216620015485760405162461bcd60e51b8152600401620004bf9062001d07565b60008111620015855760405162461bcd60e51b8152602060048201526008602482015267414d545f5a45524f60c01b6044820152606401620004bf565b60405163c257309960e01b81526001600160a01b0383811660048301526024820183905284169063c25730999060440162000549565b6000806000806101676001600160a01b031663d6910d0660e01b888888604051602401620015ec9392919062001d6e565b60408051601f198184030181529181526020820180516001600160e01b03166001600160e01b03199094169390931790925290516200162c919062001bca565b6000604051808303816000865af19150503d80600081146200166b576040519150601f19603f3d011682016040523d82523d6000602084013e62001670565b606091505b5091509150816200168557601560006200169b565b808060200190518101906200169b919062001de7565b60039190910b9890975095505050505050565b60008060606000806101676001600160a01b031663e0f4059a60e01b898989604051602401620016e19392919062001e16565b60408051601f198184030181529181526020820180516001600160e01b03166001600160e01b031990941693909317909252905162001721919062001bca565b6000604051808303816000865af19150503d806000811462001760576040519150601f19603f3d011682016040523d82523d6000602084013e62001765565b606091505b5091509150816200178a576040805160008082526020820190925260159190620017a0565b80806020019051810190620017a0919062001e96565b60039290920b9a90995090975095505050505050565b6040516001600160a01b038581166024830152848116604483015283166064820152600782900b6084820152600090819081906101679063eca3691760e01b9060a401620005c3565b6138b58062001f7883390190565b80356001600160a01b03811681146200182557600080fd5b919050565b6000806000606084860312156200184057600080fd5b6200184b846200180d565b92506200185b602085016200180d565b9150604084013590509250925092565b6000602082840312156200187e57600080fd5b62001889826200180d565b9392505050565b60008060008060808587031215620018a757600080fd5b620018b2856200180d565b9350620018c2602086016200180d565b9250620018d2604086016200180d565b9396929550929360600135925050565b60008060408385031215620018f657600080fd5b62001901836200180d565b946020939093013593505050565b6000602082840312156200192257600080fd5b5035919050565b634e487b7160e01b600052604160045260246000fd5b604051601f8201601f1916810167ffffffffffffffff811182821017156200196b576200196b62001929565b604052919050565b600080604083850312156200198757600080fd5b62001992836200180d565b915060208084013567ffffffffffffffff80821115620019b157600080fd5b818601915086601f830112620019c657600080fd5b813581811115620019db57620019db62001929565b620019ef601f8201601f191685016200193f565b9150808252878482850101111562001a0657600080fd5b80848401858401376000848284010152508093505050509250929050565b60005b8381101562001a4157818101518382015260200162001a27565b50506000910152565b6000815180845262001a6481602086016020860162001a24565b601f01601f19169290920160200192915050565b82815260406020820152600062001a93604083018462001a4a565b949350505050565b6000806040838503121562001aaf57600080fd5b62001aba836200180d565b915062001aca602084016200180d565b90509250929050565b60008060006040848603121562001ae957600080fd5b62001af4846200180d565b9250602084013567ffffffffffffffff8082111562001b1257600080fd5b818601915086601f83011262001b2757600080fd5b81358181111562001b3757600080fd5b87602082850101111562001b4a57600080fd5b6020830194508093505050509250925092565b6020808252825182820181905260009190848201906040850190845b8181101562001ba05783516001600160a01b03168352928401929184019160010162001b79565b50909695505050505050565b602080825260049082015263082aaa8960e31b604082015260600190565b6000825162001bde81846020870162001a24565b9190910192915050565b8051600381900b81146200182557600080fd5b60006020828403121562001c0e57600080fd5b620018898262001be8565b60208082526007908201526604e4f5f43534c560cc1b604082015260600190565b60208082526003908201526227aba760e91b604082015260600190565b634e487b7160e01b600052601160045260246000fd5b808202811582820484141762001299576200129962001c57565b60008262001ca557634e487b7160e01b600052601260045260246000fd5b500490565b6001600160a01b038316815260406020820181905260009062001a939083018462001a4a565b821515815260406020820152600062001a93604083018462001a4a565b60006020828403121562001d0057600080fd5b5051919050565b6020808252600890820152672120a22faaa9a2a960c11b604082015260600190565b8181038181111562001299576200129962001c57565b60208152816020820152818360408301376000818301604090810191909152601f909201601f19160101919050565b60006060820160018060a01b03861683526020600786810b8286015260606040860152828651808552608087019150838801945060005b8181101562001dc5578551840b8352948401949184019160010162001da5565b50909998505050505050505050565b8051600781900b81146200182557600080fd5b6000806040838503121562001dfb57600080fd5b62001e068362001be8565b915062001aca6020840162001dd4565b60006060820160018060a01b038616835260208560070b818501526060604085015281855180845260808601915060808160051b870101935082870160005b8281101562001e8757607f1988870301845262001e7486835162001a4a565b9550928401929084019060010162001e55565b50939998505050505050505050565b60008060006060848603121562001eac57600080fd5b62001eb78462001be8565b9250602062001ec881860162001dd4565b9250604085015167ffffffffffffffff8082111562001ee657600080fd5b818701915087601f83011262001efb57600080fd5b81518181111562001f105762001f1062001929565b8060051b915062001f238483016200193f565b818152918301840191848101908a84111562001f3e57600080fd5b938501935b8385101562001f675762001f578562001dd4565b8252938501939085019062001f43565b809650505050505050925092509256fe60e0604052600280546001600160a01b03191690553480156200002157600080fd5b50604051620038b5380380620038b5833981016040819052620000449162000383565b806001600160a01b0381166200007557604051631e4fbdf760e01b8152600060048201526024015b60405180910390fd5b620000808162000316565b506001808055600360209081527f3617319a054d772f909f7c479a2cebe5066e836a939412e32403c99029b92eff9190915560027fa15bc60c955c405d20d9149c709e2460f1c2d9a497496a7f46004d1772c3054c5560047fc3a24b0501bd2c13a7e57f2db4369ec4c223447539fc0724a9d55ac4a06ebd4d5560087fcbc4e5fb02c3d1de23a9f1e014b4d2ee5aeaea9505df5e855c9210bf472495af5560107f83ec6a1f0257b830b5e016457c9cf1435391bf56cc98f369a58a54fe93772465557f405aad32e1adbac89bb7f176e338b8fc6e994ca210c9bb7bdca249b46594225055600660005260407fc69056f16cbaa3c616b828e333ab7d3a32310765507f8f58359e99ebb7a885f3556001600160a01b038516620001d35760405162461bcd60e51b815260206004820152600b60248201526a4241445f464143544f525960a81b60448201526064016200006c565b6001600160a01b038416620002165760405162461bcd60e51b81526020600482015260086024820152672120a22faaa9a2a960c11b60448201526064016200006c565b6001600160a01b038316620002595760405162461bcd60e51b815260206004820152600860248201526704241445f43534c560c41b60448201526064016200006c565b6001600160a01b0382166200029c5760405162461bcd60e51b81526020600482015260086024820152672120a22fa321a22960c11b60448201526064016200006c565b6001600160a01b038116620002e05760405162461bcd60e51b81526020600482015260096024820152682120a22fa7aba722a960b91b60448201526064016200006c565b506001600160a01b03938416608052600480546001600160a01b03191693851693909317909255821660a0521660c052620003f3565b600080546001600160a01b038381166001600160a01b0319831681178455604051919092169283917f8be0079c531659141344cd1fd0a4f28419497f9722a3daafe3b4186f6b6457e09190a35050565b80516001600160a01b03811681146200037e57600080fd5b919050565b600080600080600060a086880312156200039c57600080fd5b620003a78662000366565b9450620003b76020870162000366565b9350620003c76040870162000366565b9250620003d76060870162000366565b9150620003e76080870162000366565b90509295509295909350565b60805160a05160c0516133f1620004c4600039600081816104bb01526105ac015260008181610622015281816108de01528181610b2201528181610c2101528181610d1c015281816110aa015281816111ef015281816112eb015281816113a60152818161154c01528181611674015281816116f60152611f6501526000818161075e01528181610c8e01528181610f240152818161125c015281816115b9015281816118be01528181611ea5015281816120460152818161229c01528181612360015261269b01526133f16000f3fe6080604052600436106102555760003560e01c80639b23d3d911610139578063cc62d8c4116100b6578063e78340291161007a578063e78340291461082e578063ea04f15514610843578063ef6283d914610858578063f2d65fb01461086e578063f2fde38b1461088e578063ff60fb68146108ae5761025c565b8063cc62d8c4146107ad578063cf2c0334146107cd578063d4c3eea0146107ed578063d73792a914610803578063db2e21bc146108195761025c565b8063bf333f2c116100fd578063bf333f2c146106d7578063c2573099146106ec578063c279a2bc1461070c578063c45a01551461074c578063c6e5d8f6146107805761025c565b80639b23d3d914610644578063aebf3e4114610664578063b79c41a214610677578063bc9fde2c14610697578063be591129146106b75761025c565b80635839f07f116101d257806372459f391161019657806372459f39146105675780638b0c36fa1461057d5780638c58eff11461059d5780638da5cb5b146105d05780638eabd14e146105ee5780639827d473146106105761025c565b80635839f07f146104a95780635962a941146104dd57806360246c88146104f3578063618dc65e14610524578063715018a6146105525761025c565b8063250e6de011610219578063250e6de014610395578063289994371461039d5780632fb9125d146103b35780633474d1f9146103c85780633e7e516a146104715761025c565b806310b42fd41461028e57806310ca0bce146102b257806315dacbea146102c957806321b77d63146102fc578063240f1b62146103135761025c565b3661025c57005b60405162461bcd60e51b8152602060048201526002602482015261272360f11b60448201526064015b60405180910390fd5b34801561029a57600080fd5b506008545b6040519081526020015b60405180910390f35b3480156102be57600080fd5b506102c76108ce565b005b3480156102d557600080fd5b506102e96102e436600461274b565b61094e565b60405160079190910b81526020016102a9565b34801561030857600080fd5b5061029f620186a081565b34801561031f57600080fd5b5061033361032e366004612796565b610a42565b6040516102a99190815181526020808301519082015260408083015190820152606080830151908201526080808301516001600160a01b039081169183019190915260a08084015182169083015260c092830151169181019190915260e00190565b6102c7610b10565b3480156103a957600080fd5b5061029f60055481565b3480156103bf57600080fd5b5061029f610db6565b3480156103d457600080fd5b5061042d6103e3366004612796565b600a60205260009081526040902080546001820154600283015460038401546004850154600586015460069096015494959394929391926001600160a01b03918216928216911687565b6040805197885260208801969096529486019390935260608501919091526001600160a01b03908116608085015290811660a08401521660c082015260e0016102a9565b34801561047d57600080fd5b50600454610491906001600160a01b031681565b6040516001600160a01b0390911681526020016102a9565b3480156104b557600080fd5b506104917f000000000000000000000000000000000000000000000000000000000000000081565b3480156104e957600080fd5b5061029f600c5481565b3480156104ff57600080fd5b50600554600654600754604080519384526020840192909252908201526060016102a9565b34801561053057600080fd5b5061054461053f3660046127c5565b610de9565b6040516102a99291906128d7565b34801561055e57600080fd5b506102c7610f07565b34801561057357600080fd5b5061029f60085481565b34801561058957600080fd5b506102c7610598366004612796565b610f19565b3480156105a957600080fd5b507f0000000000000000000000000000000000000000000000000000000000000000610491565b3480156105dc57600080fd5b506000546001600160a01b0316610491565b3480156105fa57600080fd5b50610603610fcd565b6040516102a991906128f8565b34801561061c57600080fd5b506104917f000000000000000000000000000000000000000000000000000000000000000081565b34801561065057600080fd5b506102e961065f36600461274b565b61105b565b6102c761067236600461290b565b6110a0565b34801561068357600080fd5b5061029f61069236600461293d565b61181d565b3480156106a357600080fd5b506102c76106b236600461295f565b6118b3565b3480156106c357600080fd5b506106036106d2366004612989565b61195e565b3480156106e357600080fd5b5061029f601e81565b3480156106f857600080fd5b506102c76107073660046129a6565b611e9a565b34801561071857600080fd5b5061073c61072736600461295f565b600d6020526000908152604090205460ff1681565b60405190151581526020016102a9565b34801561075857600080fd5b506104917f000000000000000000000000000000000000000000000000000000000000000081565b34801561078c57600080fd5b506107a061079b36600461295f565b611fcf565b6040516102a991906129d0565b3480156107b957600080fd5b506102c76107c8366004612796565b61203b565b3480156107d957600080fd5b5061029f6107e83660046129a6565b612088565b3480156107f957600080fd5b5061029f60075481565b34801561080f57600080fd5b5061029f61271081565b34801561082557600080fd5b506102c76120b9565b34801561083a57600080fd5b506102c76121a3565b34801561084f57600080fd5b50600c5461029f565b34801561086457600080fd5b5061029f60065481565b34801561087a57600080fd5b506102c7610889366004612796565b612291565b34801561089a57600080fd5b506102c76108a936600461295f565b61231a565b3480156108ba57600080fd5b506102c76108c9366004612a14565b612355565b6108d66123aa565b6000610902307f00000000000000000000000000000000000000000000000000000000000000006123d7565b90506016811461094b576109158161195e565b6040516020016109259190612a86565b60408051601f198184030181529082905262461bcd60e51b8252610285916004016128f8565b50565b6040516001600160a01b038581166024830152848116604483015283166064820152608481018290526000908190819061016790630aed65f560e11b9060a4015b60408051601f198184030181529181526020820180516001600160e01b03166001600160e01b03199094169390931790925290516109cd9190612acb565b6000604051808303816000865af19150503d8060008114610a0a576040519150601f19603f3d011682016040523d82523d6000602084013e610a0f565b606091505b509150915081610a20576015610a34565b80806020019051810190610a349190612ae7565b60030b979650505050505050565b610a9d6040518060e001604052806000815260200160008152602001600081526020016000815260200160006001600160a01b0316815260200160006001600160a01b0316815260200160006001600160a01b031681525090565b506000908152600a6020908152604091829020825160e081018452815481526001820154928101929092526002810154928201929092526003820154606082015260048201546001600160a01b0390811660808301526005830154811660a083015260069092015490911660c082015290565b610b186123aa565b610b206124ab565b7f00000000000000000000000000000000000000000000000000000000000000006001600160a01b0316610b805760405162461bcd60e51b815260206004820152600760248201526604e4f5f43534c560cc1b6044820152606401610285565b60065415610bb95760405162461bcd60e51b815260206004820152600660248201526512539255115160d21b6044820152606401610285565b620186a0341015610bf65760405162461bcd60e51b81526020600482015260076024820152662624a8afa6a4a760c91b6044820152606401610285565b3460058190556007819055600090610c1090606490612b1a565b604051600782900b815290915033907f00000000000000000000000000000000000000000000000000000000000000006001600160a01b0316907fb7555d949a897acb395f95e3f2df8b700519404826bb13cd6526b756f6a1c9079060200160405180910390a3604051632193fc1360e11b81526001600160a01b037f00000000000000000000000000000000000000000000000000000000000000001690634327f82690610cc790309033908690600401612b3c565b600060405180830381600087803b158015610ce157600080fd5b505af1158015610cf5573d6000803e3d6000fd5b50505060068290555060408051600783900b81526000602082015233916001600160a01b037f000000000000000000000000000000000000000000000000000000000000000016917fad91542866f4da9ebed5a2b1713258f4bf970f84e7b2a0b8aab2de28d11ffffd910160405180910390a360408051348152602081018390524281830152905133917f64b83944e79c3ce8d4c297411de637c3e102d064677aac0c163976ebdcd6f50e919081900360600190a250610db460018055565b565b6000600654600003610dc85750600090565b6006546064600754610dda9190612b1a565b610de49190612b1a565b905090565b600060606000806101676001600160a01b031663618dc65e60e01b8787604051602401610e17929190612b60565b60408051601f198184030181529181526020820180516001600160e01b03166001600160e01b0319909416939093179092529051610e559190612acb565b6000604051808303816000865af19150503d8060008114610e92576040519150601f19603f3d011682016040523d82523d6000602084013e610e97565b606091505b50915091507f4af4780e06fe8cb9df64b0794fa6f01399af979175bb988e35e0e57e594567bc8282604051610ecd929190612b84565b60405180910390a181610ef157601560405180602001604052806000815250610ef5565b6016815b60039190910b97909650945050505050565b610f0f6123aa565b610db460006124d5565b336001600160a01b037f00000000000000000000000000000000000000000000000000000000000000001614610f615760405162461bcd60e51b815260040161028590612b9f565b60008111610f9a5760405162461bcd60e51b81526020600482015260066024820152650484241523c360d41b6044820152606401610285565b8060056000828254610fac9190612bc1565b925050819055508060076000828254610fc59190612bc1565b909155505050565b60098054610fda90612bda565b80601f016020809104026020016040519081016040528092919081815260200182805461100690612bda565b80156110535780601f1061102857610100808354040283529160200191611053565b820191906000526020600020905b81548152906001019060200180831161103657829003601f168201915b505050505081565b6040516001600160a01b038581166024830152848116604483015283166064820152608481018290526000908190819061016790639b23d3d960e01b9060a40161098f565b6110a86124ab565b7f00000000000000000000000000000000000000000000000000000000000000006001600160a01b03166111085760405162461bcd60e51b815260206004820152600760248201526604e4f5f43534c560cc1b6044820152606401610285565b600034116111285760405162461bcd60e51b815260040161028590612c14565b600083116111635760405162461bcd60e51b81526020600482015260086024820152675553445f5a45524f60c01b6044820152606401610285565b6000821161119e5760405162461bcd60e51b81526020600482015260086024820152674d41545f5a45524f60c01b6044820152606401610285565b6006546000036114d057346005819055600755336000908152600d602052604081205460ff166111d157620f42406111d4565b60005b62ffffff169050801561135e57604051600782900b815233907f00000000000000000000000000000000000000000000000000000000000000006001600160a01b0316907fb7555d949a897acb395f95e3f2df8b700519404826bb13cd6526b756f6a1c9079060200160405180910390a3604051632193fc1360e11b81526001600160a01b037f00000000000000000000000000000000000000000000000000000000000000001690634327f8269061129590309033908690600401612b3c565b600060405180830381600087803b1580156112af57600080fd5b505af11580156112c3573d6000803e3d6000fd5b5050336000818152600d6020526040808220805460ff191660011790556006869055519193507f00000000000000000000000000000000000000000000000000000000000000006001600160a01b031692507fad91542866f4da9ebed5a2b1713258f4bf970f84e7b2a0b8aab2de28d11ffffd91611351918691600792830b8152910b602082015260400190565b60405180910390a3611364565b60016006555b60006040518060e00160405280348152602001428152602001611387878761181d565b81526020808201859052336040808401829052306060808601919091527f00000000000000000000000000000000000000000000000000000000000000006001600160a01b03908116608096870152600c80546000908152600a875284812089518155898801516001808301919091558a8701516002830155948a01516003820155978901516004890180549185166001600160a01b031992831617905560a08a015160058a01805491861691831691909117905560c08a01516006909901805499909416981697909717909155928552600b8452908420825481549283018255908552928420019190915580549293509061148283612c35565b909155505060408051348152602081018490524281830152905133917f64b83944e79c3ce8d4c297411de637c3e102d064677aac0c163976ebdcd6f50e919081900360600190a2505061180e565b60006114dc848461181d565b905034600560008282546114f09190612bc1565b9250508190555034600760008282546115099190612bc1565b9091555050336000908152600d602052604081205460ff1661152e57620f4240611531565b60005b62ffffff16905080156116c157604051600782900b815233907f00000000000000000000000000000000000000000000000000000000000000006001600160a01b0316907fb7555d949a897acb395f95e3f2df8b700519404826bb13cd6526b756f6a1c9079060200160405180910390a3604051632193fc1360e11b81526001600160a01b037f00000000000000000000000000000000000000000000000000000000000000001690634327f826906115f290309033908690600401612b3c565b600060405180830381600087803b15801561160c57600080fd5b505af1158015611620573d6000803e3d6000fd5b5050336000908152600d60205260408120805460ff1916600117905560068054859450909250611651908490612bc1565b909155505060408051600783900b81526000602082015233916001600160a01b037f000000000000000000000000000000000000000000000000000000000000000016917fad91542866f4da9ebed5a2b1713258f4bf970f84e7b2a0b8aab2de28d11ffffd910160405180910390a35b6040805160e0810182523481524260208083019182528284018681526060840186815233608086018181523060a088019081527f00000000000000000000000000000000000000000000000000000000000000006001600160a01b0390811660c08a01908152600c80546000908152600a8a528c81209b518c5599516001808d0191909155975160028c0155955160038b0155925160048a0180549183166001600160a01b0319928316179055915160058a01805491831691841691909117905591516006909801805498909216971696909617909555938352600b8252938220835481549586018255908352908220909301929092558054916117c483612c35565b909155505060408051348152602081018390524281830152905133917f64b83944e79c3ce8d4c297411de637c3e102d064677aac0c163976ebdcd6f50e919081900360600190a250505b61181760018055565b50505050565b60008083116118595760405162461bcd60e51b81526020600482015260086024820152675553445f5a45524f60c01b6044820152606401610285565b600082116118945760405162461bcd60e51b81526020600482015260086024820152674d41545f5a45524f60c01b6044820152606401610285565b816118a284620f4240612c4e565b6118ac9190612b1a565b9392505050565b336001600160a01b037f000000000000000000000000000000000000000000000000000000000000000016146118fb5760405162461bcd60e51b815260040161028590612b9f565b6001600160a01b03811661193c5760405162461bcd60e51b81526020600482015260086024820152672120a22faaa9a2a960c11b6044820152606401610285565b600480546001600160a01b0319166001600160a01b0392909216919091179055565b6060601519600383900b016119905750506040805180820190915260078152665355434345535360c81b602082015290565b600819600383900b016119bc5760405180606001604052806031815260200161316a6031913992915050565b600919600383900b016119e8576040518060600160405280604081526020016131d96040913992915050565b600619600383900b01611a14576040518060600160405280603481526020016130326034913992915050565b600e19600383900b01611a40576040518060600160405280603c8152602001612e32603c913992915050565b600f19600383900b01611a6c576040518060600160405280603e8152602001613066603e913992915050565b601d19600383900b01611a98576040518060600160405280602a8152602001613108602a913992915050565b602119600383900b01611ac4576040518060600160405280603881526020016131326038913992915050565b606e19600383900b01611af0576040518060600160405280602b8152602001613252602b913992915050565b60a919600383900b01611b1c576040518060600160405280603d815260200161327d603d913992915050565b60aa19600383900b01611b48576040518060600160405280602e81526020016130a4602e913992915050565b60ad19600383900b01611b7457604051806060016040528060308152602001612fcd6030913992915050565b60ae19600383900b01611ba0576040518060600160405280603981526020016132196039913992915050565b60bd19600383900b01611bcc576040518060600160405280602c81526020016132ba602c913992915050565b60be19600383900b01611bf8576040518060600160405280603581526020016133876035913992915050565b60a719600383900b01611c2457604051806060016040528060388152602001612ecb6038913992915050565b60a819600383900b01611c50576040518060600160405280603e815260200161319b603e913992915050565b60bc19600383900b01611c7c576040518060600160405280602a815260200161332a602a913992915050565b609a19600383900b01611ca857604051806060016040528060288152602001612e6e6028913992915050565b601919600383900b01611cd457604051806060016040528060268152602001612f036026913992915050565b601a19600383900b01611d0057604051806060016040528060268152602001612f296026913992915050565b602519600383900b01611d2c57604051806060016040528060358152602001612ffd6035913992915050565b603f19600383900b01611d5857604051806060016040528060358152602001612e966035913992915050565b604019600383900b01611d84576040518060800160405280604481526020016132e66044913992915050565b61011619600383900b01611db1576040518060600160405280603681526020016130d26036913992915050565b61014419600383900b01611dde576040518060600160405280603f8152602001612f8e603f913992915050565b61014519600383900b01611e0b576040518060600160405280603f8152602001612f4f603f913992915050565b61014619600383900b01611e3857604051806080016040528060418152602001612df16041913992915050565b61014719600383900b01611e65576040518060600160405280603381526020016133546033913992915050565b611e748263ffffffff16612525565b604051602001611e849190612c65565b6040516020818303038152906040529050919050565b336001600160a01b037f00000000000000000000000000000000000000000000000000000000000000001614611ee25760405162461bcd60e51b815260040161028590612b9f565b6001600160a01b038216611f235760405162461bcd60e51b81526020600482015260086024820152672120a22faaa9a2a960c11b6044820152606401610285565b60008111611f5e5760405162461bcd60e51b8152602060048201526008602482015267414d545f5a45524f60c01b6044820152606401610285565b6000611f8c7f0000000000000000000000000000000000000000000000000000000000000000308585612651565b905060168114611fca5760405162461bcd60e51b815260206004820152600960248201526821a9a6282fac2322a960b91b6044820152606401610285565b505050565b6001600160a01b0381166000908152600b602090815260409182902080548351818402810184019094528084526060939283018282801561202f57602002820191906000526020600020905b81548152602001906001019080831161201b575b50505050509050919050565b336001600160a01b037f000000000000000000000000000000000000000000000000000000000000000016146120835760405162461bcd60e51b815260040161028590612b9f565b600655565b600b60205281600052604060002081815481106120a457600080fd5b90600052602060002001600091509150505481565b6120c16123aa565b47806120df5760405162461bcd60e51b815260040161028590612c14565b80600560008282546120f19190612ca0565b92505081905550806007600082825461210a9190612ca0565b9091555050600080546040516001600160a01b039091169083908381818185875af1925050503d806000811461215c576040519150601f19603f3d011682016040523d82523d6000602084013e612161565b606091505b505090508061219f5760405162461bcd60e51b815260206004820152600a60248201526908a9a8aa48ebeae88beb60b31b6044820152606401610285565b5050565b6121ab6123aa565b47806121c95760405162461bcd60e51b815260040161028590612c14565b6121d281612699565b80600560008282546121e49190612ca0565b9250508190555080600760008282546121fd9190612ca0565b9091555050600080546040516001600160a01b039091169083908381818185875af1925050503d806000811461224f576040519150601f19603f3d011682016040523d82523d6000602084013e612254565b606091505b505090508061219f5760405162461bcd60e51b81526020600482015260096024820152680908482a4beae88beb60bb1b6044820152606401610285565b336001600160a01b037f000000000000000000000000000000000000000000000000000000000000000016146122d95760405162461bcd60e51b815260040161028590612b9f565b6127108111156123155760405162461bcd60e51b81526020600482015260076024820152661410d517d0905160ca1b6044820152606401610285565b600855565b6123226123aa565b6001600160a01b03811661234c57604051631e4fbdf760e01b815260006004820152602401610285565b61094b816124d5565b336001600160a01b037f0000000000000000000000000000000000000000000000000000000000000000161461239d5760405162461bcd60e51b815260040161028590612b9f565b6009611fca828483612d01565b6000546001600160a01b03163314610db45760405163118cdaa760e01b8152336004820152602401610285565b604080516001600160a01b038481166024830152831660448083019190915282518083039091018152606490910182526020810180516001600160e01b031663248a35ef60e11b179052905160009182918291610167916124389190612acb565b6000604051808303816000865af19150503d8060008114612475576040519150601f19603f3d011682016040523d82523d6000602084013e61247a565b606091505b50915091508161248b57601561249f565b8080602001905181019061249f9190612ae7565b60030b95945050505050565b6002600154036124ce57604051633ee5aeb560e01b815260040160405180910390fd5b6002600155565b600080546001600160a01b038381166001600160a01b0319831681178455604051919092169283917f8be0079c531659141344cd1fd0a4f28419497f9722a3daafe3b4186f6b6457e09190a35050565b60608160000361254c5750506040805180820190915260018152600360fc1b602082015290565b8160005b8115612576578061256081612c35565b915061256f9050600a83612b1a565b9150612550565b60008167ffffffffffffffff811115612591576125916127af565b6040519080825280601f01601f1916602001820160405280156125bb576020820181803683370190505b509050815b8515612648576125d1600182612ca0565b905060006125e0600a88612b1a565b6125eb90600a612c4e565b6125f59088612ca0565b612600906030612dc1565b905060008160f81b90508084848151811061261d5761261d612dda565b60200101906001600160f81b031916908160001a90535061263f600a89612b1a565b975050506125c0565b50949350505050565b6040516001600160a01b038581166024830152848116604483015283166064820152600782900b6084820152600090819081906101679063eca3691760e01b9060a40161098f565b7f00000000000000000000000000000000000000000000000000000000000000006001600160a01b03166395f40f95306126db6000546001600160a01b031690565b846040518463ffffffff1660e01b81526004016126fa93929190612b3c565b600060405180830381600087803b15801561271457600080fd5b505af1158015612728573d6000803e3d6000fd5b5050505050565b80356001600160a01b038116811461274657600080fd5b919050565b6000806000806080858703121561276157600080fd5b61276a8561272f565b93506127786020860161272f565b92506127866040860161272f565b9396929550929360600135925050565b6000602082840312156127a857600080fd5b5035919050565b634e487b7160e01b600052604160045260246000fd5b600080604083850312156127d857600080fd5b6127e18361272f565b9150602083013567ffffffffffffffff808211156127fe57600080fd5b818501915085601f83011261281257600080fd5b813581811115612824576128246127af565b604051601f8201601f19908116603f0116810190838211818310171561284c5761284c6127af565b8160405282815288602084870101111561286557600080fd5b8260208601602083013760006020848301015280955050505050509250929050565b60005b838110156128a257818101518382015260200161288a565b50506000910152565b600081518084526128c3816020860160208601612887565b601f01601f19169290920160200192915050565b8281526040602082015260006128f060408301846128ab565b949350505050565b6020815260006118ac60208301846128ab565b6000806000806080858703121561292157600080fd5b5050823594602084013594506040840135936060013592509050565b6000806040838503121561295057600080fd5b50508035926020909101359150565b60006020828403121561297157600080fd5b6118ac8261272f565b8060030b811461094b57600080fd5b60006020828403121561299b57600080fd5b81356118ac8161297a565b600080604083850312156129b957600080fd5b6129c28361272f565b946020939093013593505050565b6020808252825182820181905260009190848201906040850190845b81811015612a08578351835292840192918401916001016129ec565b50909695505050505050565b60008060208385031215612a2757600080fd5b823567ffffffffffffffff80821115612a3f57600080fd5b818501915085601f830112612a5357600080fd5b813581811115612a6257600080fd5b866020828501011115612a7457600080fd5b60209290920196919550909350505050565b7f43534c5020746f6b656e206173736f63696174696f6e206661696c65643a2000815260008251612abe81601f850160208701612887565b91909101601f0192915050565b60008251612add818460208701612887565b9190910192915050565b600060208284031215612af957600080fd5b81516118ac8161297a565b634e487b7160e01b600052601160045260246000fd5b600082612b3757634e487b7160e01b600052601260045260246000fd5b500490565b6001600160a01b039384168152919092166020820152604081019190915260600190565b6001600160a01b03831681526040602082018190526000906128f0908301846128ab565b82151581526040602082015260006128f060408301846128ab565b6020808252600890820152674f4e4c595f46414360c01b604082015260600190565b80820180821115612bd457612bd4612b04565b92915050565b600181811c90821680612bee57607f821691505b602082108103612c0e57634e487b7160e01b600052602260045260246000fd5b50919050565b6020808252600790820152662727afa42120a960c91b604082015260600190565b600060018201612c4757612c47612b04565b5060010190565b8082028115828204841417612bd457612bd4612b04565b72554e4b4e4f574e5f4552524f525f434f44455f60681b815260008251612c93816013850160208701612887565b9190910160130192915050565b81810381811115612bd457612bd4612b04565b601f821115611fca57600081815260208120601f850160051c81016020861015612cda5750805b601f850160051c820191505b81811015612cf957828155600101612ce6565b505050505050565b67ffffffffffffffff831115612d1957612d196127af565b612d2d83612d278354612bda565b83612cb3565b6000601f841160018114612d615760008515612d495750838201355b600019600387901b1c1916600186901b178355612728565b600083815260209020601f19861690835b82811015612d925786850135825560209485019460019092019101612d72565b5086821015612daf5760001960f88860031b161c19848701351681555b505060018560011b0183555050505050565b60ff8181168382160190811115612bd457612bd4612b04565b634e487b7160e01b600052603260045260246000fdfe494e53554646494349454e545f53544f524147455f52454e54202d20496e73756666696369656e742062616c616e636520666f722073746f726167652072656e74494e56414c49445f4143434f554e545f4944202d204163636f756e7420494420697320696e76616c6964206f7220646f6573206e6f74206578697374494e56414c49445f41444d494e5f4b4559202d2041646d696e206b657920697320696e76616c69645452414e53414354494f4e5f4f56455253495a45202d205472616e73616374696f6e20657863656564732073697a65206c696d6974494e56414c49445f544f4b454e5f444543494d414c53202d20546f6b656e20646563696d616c732076616c756520697320696e76616c69644b45595f5245515549524544202d205265717569726564206b6579206973206d697373696e674241445f454e434f44494e47202d204b657920656e636f64696e6720697320696e76616c6964494e56414c49445f505245434f4d50494c455f5349474e4154555245202d20496e76616c6964207369676e617475726520666f7220707265636f6d70696c654d41585f454e5449544945535f43524541544544202d204d6178696d756d20656e74697469657320696e20707269636520726567696d6520726561636865644d495353494e475f544f4b454e5f53594d424f4c202d20546f6b656e2073796d626f6c206e6f742070726f7669646564494e56414c49445f4b45595f454e434f44494e47202d204b657920656e636f64696e6720666f726d617420697320696e76616c6964494e56414c49445f5349474e4154555245202d205472616e73616374696f6e207369676e617475726520697320696e76616c6964494e56414c49445f434f4e54524143545f4944202d20436f6e747261637420494420697320696e76616c6964206f7220646f6573206e6f74206578697374494e56414c49445f544f4b454e5f53594d424f4c202d20546f6b656e2073796d626f6c20697320696e76616c6964434f4e53454e5355535f4741535f455848415553544544202d20436f6e73656e737573206e6f64652067617320657868617573746564494e53554646494349454e545f474153202d204e6f7420656e6f7567682067617320737570706c696564434f4e54524143545f455845435554494f4e5f455843455054494f4e202d20436f6e747261637420657865637574696f6e206661696c6564494e53554646494349454e545f54585f464545202d204e6f7420656e6f756768206761732f6665652070726f7669646564494e56414c49445f544f4b454e5f494e495449414c5f535550504c59202d20496e697469616c20737570706c792076616c756520697320696e76616c6964494e53554646494349454e545f50415945525f42414c414e4345202d205061796572206163636f756e742068617320696e73756666696369656e742048424152544f4b454e5f53594d424f4c5f544f4f5f4c4f4e47202d20546f6b656e2073796d626f6c2065786365656473206c656e677468206c696d69744d41585f4741535f4c494d49545f4558434545444544202d20476173206c696d6974206578636565646564494e56414c49445f54524541535552595f4143434f554e545f464f525f544f4b454e202d205472656173757279206163636f756e7420696e76616c69644d495353494e475f544f4b454e5f4e414d45202d20546f6b656e206e616d65206e6f742070726f76696465645452414e53414354494f4e5f544f4f5f4d414e595f4c4159455253202d205472616e73616374696f6e2068617320746f6f206d616e79206e6573746564206c6179657273494e56414c49445f535550504c595f4b4559202d20537570706c79206b657920697320696e76616c69644d41585f4348494c445f5245434f5244535f4558434545444544202d20546f6f206d616e79206368696c64207265636f726473544f4b454e5f4e414d455f544f4f5f4c4f4e47202d20546f6b656e206e616d652065786365656473206c656e677468206c696d6974a2646970667358221220249241139c55c54f3ee280e29145fa084ad2e8eeedd41cda4d173879bd17dc8664736f6c63430008140033a2646970667358221220034b287dcba12ea3e72ab48b1fff7f3f97fd52c8ce04deca7be5acc7e9288c1664736f6c63430008140033",
  "linkReferences": {},
  "deployedLinkReferences": {}
}