{
  "_format": "hh-sol-artifact-1",
  "contractName": "PolygonCDRExecutor",
  "sourceName": "contracts/CDR/PolygonCDRExecutor.sol",
  "abi": [
    {
      "inputs": [
        {
          "internalType": "address",
          "name": "_usdc",
          "type": "address"
        },
        {
          "internalType": "address",
          "name": "_bct",
          "type": "address"
        },
        {
          "internalType": "address",
          "name": "_nct",
          "type": "address"
        },
        {
          "internalType": "address",
          "name": "_klimaAgg",
          "type": "address"
        },
        {
          "internalType": "address",
          "name": "_relayer",
          "type": "address"
        }
      ],
      "stateMutability": "nonpayable",
      "type": "constructor"
    },
    {
      "anonymous": false,
      "inputs": [
        {
          "indexed": true,
          "internalType": "uint256",
          "name": "hederaRequestId",
          "type": "uint256"
        },
        {
          "indexed": true,
          "internalType": "address",
          "name": "polygonReceiver",
          "type": "address"
        },
        {
          "indexed": false,
          "internalType": "enum PolygonCDRExecutor.PoolType",
          "name": "pool",
          "type": "uint8"
        },
        {
          "indexed": false,
          "internalType": "uint256",
          "name": "usdcSpent",
          "type": "uint256"
        },
        {
          "indexed": false,
          "internalType": "uint256",
          "name": "tonsRetired",
          "type": "uint256"
        },
        {
          "indexed": false,
          "internalType": "string",
          "name": "beneficiary",
          "type": "string"
        },
        {
          "indexed": false,
          "internalType": "string",
          "name": "message",
          "type": "string"
        }
      ],
      "name": "PolygonRetirementExecuted",
      "type": "event"
    },
    {
      "inputs": [],
      "name": "bctToken",
      "outputs": [
        {
          "internalType": "address",
          "name": "",
          "type": "address"
        }
      ],
      "stateMutability": "view",
      "type": "function"
    },
    {
      "inputs": [
        {
          "internalType": "uint256",
          "name": "hederaRequestId",
          "type": "uint256"
        },
        {
          "internalType": "address",
          "name": "polygonReceiver",
          "type": "address"
        },
        {
          "internalType": "enum PolygonCDRExecutor.PoolType",
          "name": "pool",
          "type": "uint8"
        },
        {
          "internalType": "uint256",
          "name": "usdcAmount",
          "type": "uint256"
        },
        {
          "internalType": "string",
          "name": "beneficiary",
          "type": "string"
        },
        {
          "internalType": "string",
          "name": "message",
          "type": "string"
        }
      ],
      "name": "executeRetirement",
      "outputs": [],
      "stateMutability": "nonpayable",
      "type": "function"
    },
    {
      "inputs": [],
      "name": "klimaAgg",
      "outputs": [
        {
          "internalType": "contract IKlimaRetirementAggregator",
          "name": "",
          "type": "address"
        }
      ],
      "stateMutability": "view",
      "type": "function"
    },
    {
      "inputs": [],
      "name": "nctToken",
      "outputs": [
        {
          "internalType": "address",
          "name": "",
          "type": "address"
        }
      ],
      "stateMutability": "view",
      "type": "function"
    },
    {
      "inputs": [],
      "name": "owner",
      "outputs": [
        {
          "internalType": "address",
          "name": "",
          "type": "address"
        }
      ],
      "stateMutability": "view",
      "type": "function"
    },
    {
      "inputs": [],
      "name": "relayer",
      "outputs": [
        {
          "internalType": "address",
          "name": "",
          "type": "address"
        }
      ],
      "stateMutability": "view",
      "type": "function"
    },
    {
      "inputs": [
        {
          "internalType": "address",
          "name": "_klimaAgg",
          "type": "address"
        }
      ],
      "name": "setKlimaAggregator",
      "outputs": [],
      "stateMutability": "nonpayable",
      "type": "function"
    },
    {
      "inputs": [
        {
          "internalType": "address",
          "name": "_relayer",
          "type": "address"
        }
      ],
      "name": "setRelayer",
      "outputs": [],
      "stateMutability": "nonpayable",
      "type": "function"
    },
    {
      "inputs": [],
      "name": "usdc",
      "outputs": [
        {
          "internalType": "contract IERC20",
          "name": "",
          "type": "address"
        }
      ],
      "stateMutability": "view",
      "type": "function"
    }
  ],
  "bytecode": "0x608060405234801561001057600080fd5b5060405161099c38038061099c83398101604081905261002f916100b7565b60008054336001600160a01b0319918216179091556002805482166001600160a01b03978816179055600380548216958716959095179094556004805485169386169390931790925560058054841691851691909117905560018054909216921691909117905561011c565b80516001600160a01b03811681146100b257600080fd5b919050565b600080600080600060a086880312156100cf57600080fd5b6100d88661009b565b94506100e66020870161009b565b93506100f46040870161009b565b92506101026060870161009b565b91506101106080870161009b565b90509295509295909350565b6108718061012b6000396000f3fe608060405234801561001057600080fd5b50600436106100935760003560e01c80638da5cb5b116100665780638da5cb5b14610102578063b5974aa414610115578063e2ea068d14610128578063f5dc2e421461013b578063fc5e126e1461014e57600080fd5b8063105036ae146100985780633e413bee146100c75780636548e9bc146100da5780638406c079146100ef575b600080fd5b6004546100ab906001600160a01b031681565b6040516001600160a01b03909116815260200160405180910390f35b6002546100ab906001600160a01b031681565b6100ed6100e83660046105e9565b610161565b005b6001546100ab906001600160a01b031681565b6000546100ab906001600160a01b031681565b6100ed6101233660046105e9565b6101ce565b6100ed610136366004610654565b610236565b6003546100ab906001600160a01b031681565b6005546100ab906001600160a01b031681565b6000546001600160a01b031633146101ac5760405162461bcd60e51b81526020600482015260096024820152682737ba1037bbb732b960b91b60448201526064015b60405180910390fd5b600180546001600160a01b0319166001600160a01b0392909216919091179055565b6000546001600160a01b031633146102145760405162461bcd60e51b81526020600482015260096024820152682737ba1037bbb732b960b91b60448201526064016101a3565b600580546001600160a01b0319166001600160a01b0392909216919091179055565b6001546001600160a01b0316331461027e5760405162461bcd60e51b815260206004820152600b60248201526a2737ba103932b630bcb2b960a91b60448201526064016101a3565b600085116102bf5760405162461bcd60e51b815260206004820152600e60248201526d139bc81554d110c8185b5bdd5b9d60921b60448201526064016101a3565b6001600160a01b0387166103045760405162461bcd60e51b815260206004820152600c60248201526b2130b2103932b1b2b4bb32b960a11b60448201526064016101a3565b6002546040516323b872dd60e01b8152336004820152306024820152604481018790526000916001600160a01b0316906323b872dd906064016020604051808303816000875af115801561035c573d6000803e3d6000fd5b505050506040513d601f19601f8201168201806040525081019061038091906106fe565b9050806103cf5760405162461bcd60e51b815260206004820152601860248201527f55534443207472616e7366657246726f6d206661696c6564000000000000000060448201526064016101a3565b60025460055460405163095ea7b360e01b81526001600160a01b0391821660048201526024810189905291169063095ea7b3906044016020604051808303816000875af1158015610424573d6000803e3d6000fd5b505050506040513d601f19601f8201168201806040525081019061044891906106fe565b90508061048d5760405162461bcd60e51b81526020600482015260136024820152721554d110c8185c1c1c9bdd994819985a5b1959606a1b60448201526064016101a3565b6000808860018111156104a2576104a2610720565b146104b8576004546001600160a01b03166104c5565b6003546001600160a01b03165b90506000600560009054906101000a90046001600160a01b03166001600160a01b031663d6acfe18600260009054906101000a90046001600160a01b03168a858e8c8c8c8c6040518963ffffffff1660e01b815260040161052d98979695949392919061075f565b6020604051808303816000875af115801561054c573d6000803e3d6000fd5b505050506040513d601f19601f8201168201806040525081019061057091906107bd565b9050896001600160a01b03168b7f5702fd37bb7ef33e42a5aaa722d4cff38aac6f60e0a536b6ca0e10595ad987658b8b858c8c8c8c6040516105b897969594939291906107d6565b60405180910390a35050505050505050505050565b80356001600160a01b03811681146105e457600080fd5b919050565b6000602082840312156105fb57600080fd5b610604826105cd565b9392505050565b60008083601f84011261061d57600080fd5b50813567ffffffffffffffff81111561063557600080fd5b60208301915083602082850101111561064d57600080fd5b9250929050565b60008060008060008060008060c0898b03121561067057600080fd5b8835975061068060208a016105cd565b965060408901356002811061069457600080fd5b955060608901359450608089013567ffffffffffffffff808211156106b857600080fd5b6106c48c838d0161060b565b909650945060a08b01359150808211156106dd57600080fd5b506106ea8b828c0161060b565b999c989b5096995094979396929594505050565b60006020828403121561071057600080fd5b8151801515811461060457600080fd5b634e487b7160e01b600052602160045260246000fd5b81835281816020850137506000828201602090810191909152601f909101601f19169091010190565b6001600160a01b0389811682526020820189905287811660408301528616606082015260c06080820181905260009061079b9083018688610736565b82810360a08401526107ae818587610736565b9b9a5050505050505050505050565b6000602082840312156107cf57600080fd5b5051919050565b6000600289106107f657634e487b7160e01b600052602160045260246000fd5b88825287602083015286604083015260a0606083015261081a60a083018688610736565b828103608084015261082d818587610736565b9a995050505050505050505056fea2646970667358221220b5ef5de2b9b1285ae2efabe182a671483c38a841868c4f72598491eed1ee642c64736f6c63430008140033",
  "linkReferences": {},
  "deployedLinkReferences": {}
}