{
  "_format": "hh-sol-artifact-1",
  "contractName": "AcrossCarbonRetirementReceiver",
  "sourceName": "contracts/klima.sol",
  "abi": [
    {
      "inputs": [],
      "stateMutability": "nonpayable",
      "type": "constructor"
    },
    {
      "inputs": [
        {
          "internalType": "address",
          "name": "owner",
          "type": "address"
        }
      ],
      "name": "OwnableInvalidOwner",
      "type": "error"
    },
    {
      "inputs": [
        {
          "internalType": "address",
          "name": "account",
          "type": "address"
        }
      ],
      "name": "OwnableUnauthorizedAccount",
      "type": "error"
    },
    {
      "inputs": [],
      "name": "ReentrancyGuardReentrantCall",
      "type": "error"
    },
    {
      "anonymous": false,
      "inputs": [
        {
          "indexed": true,
          "internalType": "address",
          "name": "previousOwner",
          "type": "address"
        },
        {
          "indexed": true,
          "internalType": "address",
          "name": "newOwner",
          "type": "address"
        }
      ],
      "name": "OwnershipTransferred",
      "type": "event"
    },
    {
      "anonymous": false,
      "inputs": [
        {
          "indexed": true,
          "internalType": "address",
          "name": "beneficiary",
          "type": "address"
        },
        {
          "indexed": false,
          "internalType": "string",
          "name": "beneficiaryName",
          "type": "string"
        },
        {
          "indexed": false,
          "internalType": "address",
          "name": "poolToken",
          "type": "address"
        },
        {
          "indexed": false,
          "internalType": "uint256",
          "name": "usdcAmount",
          "type": "uint256"
        },
        {
          "indexed": false,
          "internalType": "uint256",
          "name": "carbonAmount",
          "type": "uint256"
        }
      ],
      "name": "RetirementExecuted",
      "type": "event"
    },
    {
      "anonymous": false,
      "inputs": [
        {
          "indexed": true,
          "internalType": "address",
          "name": "beneficiary",
          "type": "address"
        },
        {
          "indexed": false,
          "internalType": "address",
          "name": "poolToken",
          "type": "address"
        },
        {
          "indexed": false,
          "internalType": "uint256",
          "name": "usdcAmount",
          "type": "uint256"
        },
        {
          "indexed": false,
          "internalType": "string",
          "name": "reason",
          "type": "string"
        }
      ],
      "name": "RetirementFailed",
      "type": "event"
    },
    {
      "inputs": [],
      "name": "ACROSS_SPOKE_POOL",
      "outputs": [
        {
          "internalType": "address",
          "name": "",
          "type": "address"
        }
      ],
      "stateMutability": "view",
      "type": "function"
    },
    {
      "inputs": [],
      "name": "DEFAULT_POOL_TOKEN",
      "outputs": [
        {
          "internalType": "address",
          "name": "",
          "type": "address"
        }
      ],
      "stateMutability": "view",
      "type": "function"
    },
    {
      "inputs": [],
      "name": "KLIMA_AGGREGATOR",
      "outputs": [
        {
          "internalType": "address",
          "name": "",
          "type": "address"
        }
      ],
      "stateMutability": "view",
      "type": "function"
    },
    {
      "inputs": [],
      "name": "MULTICALL_HANDLER_ADDRESS",
      "outputs": [
        {
          "internalType": "address",
          "name": "",
          "type": "address"
        }
      ],
      "stateMutability": "view",
      "type": "function"
    },
    {
      "inputs": [],
      "name": "USDC_TOKEN",
      "outputs": [
        {
          "internalType": "address",
          "name": "",
          "type": "address"
        }
      ],
      "stateMutability": "view",
      "type": "function"
    },
    {
      "inputs": [
        {
          "internalType": "address",
          "name": "recipient",
          "type": "address"
        },
        {
          "internalType": "uint256",
          "name": "amount",
          "type": "uint256"
        },
        {
          "internalType": "bytes",
          "name": "message",
          "type": "bytes"
        }
      ],
      "name": "handleAcrossTransfer",
      "outputs": [],
      "stateMutability": "nonpayable",
      "type": "function"
    },
    {
      "inputs": [
        {
          "internalType": "uint256",
          "name": "usdcAmount",
          "type": "uint256"
        },
        {
          "internalType": "address",
          "name": "beneficiary",
          "type": "address"
        },
        {
          "internalType": "string",
          "name": "beneficiaryName",
          "type": "string"
        },
        {
          "internalType": "address",
          "name": "poolToken",
          "type": "address"
        }
      ],
      "name": "manualRetire",
      "outputs": [],
      "stateMutability": "nonpayable",
      "type": "function"
    },
    {
      "inputs": [],
      "name": "owner",
      "outputs": [
        {
          "internalType": "address",
          "name": "",
          "type": "address"
        }
      ],
      "stateMutability": "view",
      "type": "function"
    },
    {
      "inputs": [],
      "name": "recoverEth",
      "outputs": [],
      "stateMutability": "nonpayable",
      "type": "function"
    },
    {
      "inputs": [
        {
          "internalType": "address",
          "name": "token",
          "type": "address"
        },
        {
          "internalType": "uint256",
          "name": "amount",
          "type": "uint256"
        }
      ],
      "name": "recoverTokens",
      "outputs": [],
      "stateMutability": "nonpayable",
      "type": "function"
    },
    {
      "inputs": [],
      "name": "renounceOwnership",
      "outputs": [],
      "stateMutability": "nonpayable",
      "type": "function"
    },
    {
      "inputs": [
        {
          "internalType": "address",
          "name": "operator",
          "type": "address"
        },
        {
          "internalType": "address",
          "name": "from",
          "type": "address"
        },
        {
          "internalType": "address",
          "name": "to",
          "type": "address"
        },
        {
          "internalType": "uint256",
          "name": "amount",
          "type": "uint256"
        },
        {
          "internalType": "bytes",
          "name": "userData",
          "type": "bytes"
        },
        {
          "internalType": "bytes",
          "name": "operatorData",
          "type": "bytes"
        }
      ],
      "name": "tokensReceived",
      "outputs": [],
      "stateMutability": "nonpayable",
      "type": "function"
    },
    {
      "inputs": [
        {
          "internalType": "address",
          "name": "newOwner",
          "type": "address"
        }
      ],
      "name": "transferOwnership",
      "outputs": [],
      "stateMutability": "nonpayable",
      "type": "function"
    },
    {
      "stateMutability": "payable",
      "type": "receive"
    }
  ],
  "bytecode": "0x608080604052346101a9576000903315610195578154336001600160a01b0319821681178455906001600160a01b03167f8be0079c531659141344cd1fd0a4f28419497f9722a3daafe3b4186f6b6457e08480a36001805563095ea7b360e01b8152738ce54d9625371fb2a068986d32c85de8e6e995f86004820152600019602482015260208160448185732791bca1f2de4661ed88a30c99a7a9449aa841745af1801561014f5761015d575b50731820a4b7618bde71dce8cdc73aab6c95905fad243b1561015a576040516329965a1d60e01b815230600482018190527fb281fc8c12954d22544db45de3159a39272895b169a852b314f9cc762e44c53b60248301526044820152818160648183731820a4b7618bde71dce8cdc73aab6c95905fad245af1801561014f5761013f575b60405161136d90816101e88239f35b81610149916101ae565b38610130565b6040513d84823e3d90fd5b80fd5b6020813d60201161018d575b81610176602093836101ae565b81010312610189575180151581146100ac575b5080fd5b3d9150610169565b631e4fbdf760e01b82526004829052602482fd5b600080fd5b601f909101601f19168101906001600160401b038211908210176101d157604052565b634e487b7160e01b600052604160045260246000fdfe6080604052600436101561001b575b361561001957600080fd5b005b60003560e01c806223de29146100ea578063069c9fae146100e557806335e86070146100e057806340429fe1146100db578063715018a6146100d65780638da5cb5b146100d15780639df875f0146100cc578063bcdb446b146100c7578063d4d0f984146100c2578063d72b1de1146100bd578063db3ac0ce146100b8578063f2fde38b146100b35763fa5692740361000e5761073d565b6106b4565b610685565b610656565b61054c565b6104f9565b6104ca565b6104a1565b610448565b61035e565b61029f565b6101e9565b610164565b600435906001600160a01b038216820361010557565b600080fd5b602435906001600160a01b038216820361010557565b606435906001600160a01b038216820361010557565b9181601f840112156101055782359167ffffffffffffffff8311610105576020838186019501011161010557565b346101055760c03660031901126101055761017d6100ef565b61018561010a565b604435916001600160a01b03831683036101055760643560843567ffffffffffffffff8111610105576101bc903690600401610136565b9160a4359567ffffffffffffffff8711610105576101e1610019973690600401610136565b96909561076c565b34610105576040366003190112610105576102026100ef565b602060243561020f610f43565b610217610961565b6000805460405163a9059cbb60e01b81526001600160a01b03918216600482015260248101939093529193849260449284929091165af1801561029a57610262575b61001960018055565b6020813d602011610292575b8161027b602093836102e4565b810103126101055751801515036101055738610259565b3d915061026e565b610846565b34610105576000366003190112610105576020604051732f800db0fdb5223b3c3f354886d907a671414a7f8152f35b634e487b7160e01b600052604160045260246000fd5b90601f8019910116810190811067ffffffffffffffff82111761030657604052565b6102ce565b67ffffffffffffffff811161030657601f01601f191660200190565b9291926103338261030b565b9161034160405193846102e4565b829481845281830111610105578281602093846000960137010152565b346101055760803660031901126101055760043561037a61010a565b60443567ffffffffffffffff81116101055736602382011215610105576103ab903690602481600401359101610327565b6103b3610120565b916103bc610f43565b6103c4610961565b6040516370a0823160e01b815230600482015293602085602481732791bca1f2de4661ed88a30c99a7a9449aa841745afa801561029a57816104149161025997600091610419575b501015610861565b610d9f565b61043b915060203d602011610441575b61043381836102e4565b810190610852565b3861040c565b503d610429565b3461010557600036600319011261010557610461610f43565b600080546001600160a01b0319811682556001600160a01b03167f8be0079c531659141344cd1fd0a4f28419497f9722a3daafe3b4186f6b6457e08280a3005b34610105576000366003190112610105576000546040516001600160a01b039091168152602090f35b3461010557600036600319011261010557602060405173924a9f036260ddd5808007e1aa95f08ed08aa5698152f35b3461010557600036600319011261010557610512610f43565b61051a610961565b6000805481908190819047906001600160a01b0316828215610543575bf11561029a5760018055005b506108fc610537565b34610105576060366003190112610105576105656100ef565b6024356044359167ffffffffffffffff83116101055761058c6105ce933690600401610136565b939091610597610961565b739295ee1d8c5b022be115a2ad3c30c72e34e7f09633148015610639575b6105be906108ad565b6001600160a01b03163014610915565b6040516370a0823160e01b8152306004820152602081602481732791bca1f2de4661ed88a30c99a7a9449aa841745afa91821561029a5761025994610624856106309561062b9560009161041957501015610861565b3691610327565b610a5a565b92919091610d9f565b503373924a9f036260ddd5808007e1aa95f08ed08aa569146105b5565b34610105576000366003190112610105576020604051739295ee1d8c5b022be115a2ad3c30c72e34e7f0968152f35b34610105576000366003190112610105576020604051738ce54d9625371fb2a068986d32c85de8e6e995f88152f35b34610105576020366003190112610105576106cd6100ef565b6106d5610f43565b6001600160a01b0316801561072757600080546001600160a01b03198116831782556001600160a01b0316907f8be0079c531659141344cd1fd0a4f28419497f9722a3daafe3b4186f6b6457e09080a3005b631e4fbdf760e01b600052600060045260246000fd5b34610105576000366003190112610105576020604051732791bca1f2de4661ed88a30c99a7a9449aa841748152f35b50955090935091909161077d610961565b6001600160a01b038516739295ee1d8c5b022be115a2ad3c30c72e34e7f096149081610807575b506107b4575b5050505060018055565b6107d79381156107e057506107ce9161062b913691610327565b92909190610d9f565b388080806107aa565b9150506107eb61081a565b90732f800db0fdb5223b3c3f354886d907a671414a7f92610d9f565b6001600160a01b031630149050386107a4565b604051906108296040836102e4565b600e82526d27b33339b2ba2d30b8102ab9b2b960911b6020830152565b6040513d6000823e3d90fd5b90816020910312610105575190565b1561086857565b60405162461bcd60e51b815260206004820152601960248201527f496e73756666696369656e7420555344432062616c616e6365000000000000006044820152606490fd5b156108b457565b60405162461bcd60e51b815260206004820152603360248201527f4f6e6c79204163726f73732053706f6b65506f6f6c206f72206d756c746963616044820152721b1b081a185b991b195c8818d85b8818d85b1b606a1b6064820152608490fd5b1561091c57565b60405162461bcd60e51b815260206004820152601f60248201527f526563697069656e74206d757374206265207468697320636f6e7472616374006044820152606490fd5b600260015414610972576002600155565b633ee5aeb560e01b60005260046000fd5b604051906109926040836102e4565b601082526f16113132b732b334b1b4b0b93c911d1160811b6020830152565b634e487b7160e01b600052601160045260246000fd5b90600282018092116109d557565b6109b1565b90600382018092116109d557565b919082018092116109d557565b60405190610a046040836102e4565b601582527416113837b7b62a37b5b2b720b2323932b9b9911d1160591b6020830152565b60405190610a376040836102e4565b601482527316113132b732b334b1b4b0b93ca730b6b2911d1160611b6020830152565b90600091610a6661081a565b91732f800db0fdb5223b3c3f354886d907a671414a7f918051610ac7575b506001600160a01b03841615610abf575b6001600160a01b03821615610aa657565b732f800db0fdb5223b3c3f354886d907a671414a7f9150565b339350610a95565b610acf610983565b610ad98183610faf565b906000821215610b68575b5050610aee6109f5565b610af88183610faf565b906000821215610b49575b5050610b0d610a28565b610b178183610faf565b906000821215610b29575b5050610a84565b51929450610b4092610b3a916109e8565b9061128f565b91388080610b22565b51919350610b6091610b5a916109e8565b8361114d565b913880610b03565b51919550610b7f91610b79916109e8565b8561114d565b933880610ae4565b919082519283825260005b848110610bb3575050826000602080949584010152601f8019910116010190565b80602080928401015182828601015201610b92565b9493610c4390610c819460e094604094732791bca1f2de4661ed88a30c99a7a9449aa841748a5260018060a01b031660208a015284890152610100606089015260096101008901526804f66667365745a61760bc1b61012089015260018060a01b0316608088015261014060a0880152610140870190610b87565b85810360c0870152601b81527f436172626f6e206f666673657420766961204f66667365745a617000000000006020820152019301600060ff169052565b565b9092610c9c606093969594608084526080840190610b87565b6001600160a01b03909616602083015260408201520152565b60009060033d11610cc257565b905060046000803e60005160e01c90565b600060443d10610d3a576040513d600319016004823e8051913d602484011167ffffffffffffffff841117610d45578282019283519167ffffffffffffffff8311610d3d573d84016003190185840160200111610d3d5750610d3a929101602001906102e4565b90565b949350505050565b92915050565b610d3a939260609260018060a01b0316825260208201528160408201520190610b87565b3d15610d9a573d90610d808261030b565b91610d8e60405193846102e4565b82523d6000602084013e565b606090565b9091604051636fb9367f60e11b815260208180610dc28588888b60048601610bc8565b03816000738ce54d9625371fb2a068986d32c85de8e6e995f85af160009181610f22575b50610ee25750506001610df7610cb5565b6308c379a014610e82575b610e0b57505050565b7fd80252b4823cfb933240fde61f4f459729a50f971c0c76746e264117496d5e9491610e35610d6f565b50604080516001600160a01b03958616815260208101939093526060908301819052600d908301526c2ab735b737bbb71032b93937b960991b6080830152909216918060a081015b0390a2565b610e8a610cd3565b80610e96575b50610e02565b604051600092506001600160a01b038516917fd80252b4823cfb933240fde61f4f459729a50f971c0c76746e264117496d5e9491908190610ed990878a84610d4b565b0390a238610e90565b6040516001600160a01b03909416947f9844159a631815b14cd3c5871074053d7610ffe1a6a016d77b7524e53c41af9a94938493610e7d93929085610c83565b610f3c91925060203d6020116104415761043381836102e4565b9038610de6565b6000546001600160a01b03163303610f5757565b63118cdaa760e01b6000523360045260246000fd5b60001981146109d55760010190565b919082039182116109d557565b908151811015610f99570160200190565b634e487b7160e01b600052603260045260246000fd5b908051801561107a57825110611072576000905b610fd08351825190610f7b565b82116110695760019260005b825181101561105f57611009610ffb610ff583876109e8565b84610f88565b516001600160f81b03191690565b611026611019610ffb8487610f88565b6001600160f81b03191690565b6001600160f81b03199091160361103f57600101610fdc565b5092509060005b6110595761105390610f6c565b90610fc3565b91505090565b5092919091611046565b50505060001990565b505060001990565b505050600090565b6040516060919061109383826102e4565b602a815291601f1901366020840137565b604080519091906110b583826102e4565b6014815291601f1901366020840137565b906110d08261030b565b6110dd60405191826102e4565b82815280926110ee601f199161030b565b0190602036910137565b600181901b91906001600160ff1b038116036109d557565b9060ff8091169116039060ff82116109d557565b60041b90610ff060f08316921682036109d557565b9060ff8091169116019060ff82116109d557565b919091611158611082565b9260005b602a81108061127c575b1561119d5780611185610ffb61117f61119894866109e8565b86610f88565b60001a6111928288610f88565b53610f6c565b61115c565b5050506111a86110a4565b60005b601481106111bc5750602001519150565b6001906112606112508661124b6112458560416112176112116111ff610ffb6112248686868686868f61120b6111fa611205858561117f848d6110f8565b6109c7565b60f81c90565b986110f8565b90610f88565b60ff1690565b1061127457603790611110565b9861120b6112406112056111ff610ffb61117f6112408d6110f8565b6109da565b91611124565b611139565b60f81b6001600160f81b03191690565b60001a61126d8285610f88565b53016111ab565b603090611110565b5061128781836109e8565b835111611166565b91815b8351811080611315575b156112af576112aa90610f6c565b611292565b918083038381116109d5576112c3906110c6565b9160005b6112d18386610f7b565b81101561130c57826001826112f5610ffb6112ef6112d196866109e8565b8b610f88565b60001a6113028289610f88565b53019150506112c7565b50935050905090565b50601160f91b6001600160f81b031961132e8387610f88565b5116141561129c56fea26469706673582212200cbb29b9af039e0bd831e7bfa422d8f53979db480b12fc390088f1f4dbf1ccb864736f6c634300081c0033",
  "linkReferences": {},
  "deployedLinkReferences": {}
}