{
  "_format": "hh-sol-artifact-1",
  "contractName": "OrderBook",
  "sourceName": "contracts/Orderbook.sol",
  "abi": [
    {
      "inputs": [
        {
          "internalType": "address",
          "name": "_seriesToken",
          "type": "address"
        },
        {
          "internalType": "address",
          "name": "_seriesVault",
          "type": "address"
        },
        {
          "internalType": "address",
          "name": "_feeCollector",
          "type": "address"
        },
        {
          "internalType": "uint16",
          "name": "_feeBps",
          "type": "uint16"
        }
      ],
      "stateMutability": "nonpayable",
      "type": "constructor"
    },
    {
      "inputs": [],
      "name": "ECDSAInvalidSignature",
      "type": "error"
    },
    {
      "inputs": [
        {
          "internalType": "uint256",
          "name": "length",
          "type": "uint256"
        }
      ],
      "name": "ECDSAInvalidSignatureLength",
      "type": "error"
    },
    {
      "inputs": [
        {
          "internalType": "bytes32",
          "name": "s",
          "type": "bytes32"
        }
      ],
      "name": "ECDSAInvalidSignatureS",
      "type": "error"
    },
    {
      "inputs": [],
      "name": "EnforcedPause",
      "type": "error"
    },
    {
      "inputs": [],
      "name": "ExpectedPause",
      "type": "error"
    },
    {
      "inputs": [],
      "name": "InvalidShortString",
      "type": "error"
    },
    {
      "inputs": [
        {
          "internalType": "address",
          "name": "owner",
          "type": "address"
        }
      ],
      "name": "OwnableInvalidOwner",
      "type": "error"
    },
    {
      "inputs": [
        {
          "internalType": "address",
          "name": "account",
          "type": "address"
        }
      ],
      "name": "OwnableUnauthorizedAccount",
      "type": "error"
    },
    {
      "inputs": [],
      "name": "ReentrancyGuardReentrantCall",
      "type": "error"
    },
    {
      "inputs": [
        {
          "internalType": "string",
          "name": "str",
          "type": "string"
        }
      ],
      "name": "StringTooLong",
      "type": "error"
    },
    {
      "anonymous": false,
      "inputs": [],
      "name": "EIP712DomainChanged",
      "type": "event"
    },
    {
      "anonymous": false,
      "inputs": [
        {
          "indexed": true,
          "internalType": "address",
          "name": "collector",
          "type": "address"
        },
        {
          "indexed": false,
          "internalType": "uint16",
          "name": "bps",
          "type": "uint16"
        }
      ],
      "name": "FeeParamsUpdated",
      "type": "event"
    },
    {
      "anonymous": false,
      "inputs": [
        {
          "indexed": true,
          "internalType": "uint256",
          "name": "orderId",
          "type": "uint256"
        }
      ],
      "name": "OrderCancelled",
      "type": "event"
    },
    {
      "anonymous": false,
      "inputs": [
        {
          "indexed": true,
          "internalType": "uint256",
          "name": "orderId",
          "type": "uint256"
        },
        {
          "indexed": true,
          "internalType": "address",
          "name": "seller",
          "type": "address"
        },
        {
          "indexed": true,
          "internalType": "uint256",
          "name": "seriesId",
          "type": "uint256"
        },
        {
          "indexed": false,
          "internalType": "uint256",
          "name": "price",
          "type": "uint256"
        },
        {
          "indexed": false,
          "internalType": "uint256",
          "name": "expiry",
          "type": "uint256"
        }
      ],
      "name": "OrderCreated",
      "type": "event"
    },
    {
      "anonymous": false,
      "inputs": [
        {
          "indexed": true,
          "internalType": "uint256",
          "name": "orderId",
          "type": "uint256"
        },
        {
          "indexed": true,
          "internalType": "address",
          "name": "buyer",
          "type": "address"
        },
        {
          "indexed": false,
          "internalType": "uint256",
          "name": "price",
          "type": "uint256"
        }
      ],
      "name": "OrderFilled",
      "type": "event"
    },
    {
      "anonymous": false,
      "inputs": [
        {
          "indexed": true,
          "internalType": "address",
          "name": "previousOwner",
          "type": "address"
        },
        {
          "indexed": true,
          "internalType": "address",
          "name": "newOwner",
          "type": "address"
        }
      ],
      "name": "OwnershipTransferred",
      "type": "event"
    },
    {
      "anonymous": false,
      "inputs": [
        {
          "indexed": false,
          "internalType": "address",
          "name": "account",
          "type": "address"
        }
      ],
      "name": "Paused",
      "type": "event"
    },
    {
      "anonymous": false,
      "inputs": [
        {
          "indexed": true,
          "internalType": "address",
          "name": "who",
          "type": "address"
        },
        {
          "indexed": false,
          "internalType": "uint256",
          "name": "amount",
          "type": "uint256"
        }
      ],
      "name": "ProceedsWithdrawn",
      "type": "event"
    },
    {
      "anonymous": false,
      "inputs": [
        {
          "indexed": false,
          "internalType": "address",
          "name": "account",
          "type": "address"
        }
      ],
      "name": "Unpaused",
      "type": "event"
    },
    {
      "stateMutability": "payable",
      "type": "fallback"
    },
    {
      "inputs": [
        {
          "internalType": "uint256",
          "name": "orderId",
          "type": "uint256"
        }
      ],
      "name": "cancelOrder",
      "outputs": [],
      "stateMutability": "nonpayable",
      "type": "function"
    },
    {
      "inputs": [
        {
          "internalType": "uint256",
          "name": "seriesId",
          "type": "uint256"
        },
        {
          "internalType": "uint256",
          "name": "price",
          "type": "uint256"
        },
        {
          "internalType": "uint256",
          "name": "expiryTs",
          "type": "uint256"
        }
      ],
      "name": "createOrder",
      "outputs": [
        {
          "internalType": "uint256",
          "name": "",
          "type": "uint256"
        }
      ],
      "stateMutability": "nonpayable",
      "type": "function"
    },
    {
      "inputs": [],
      "name": "eip712Domain",
      "outputs": [
        {
          "internalType": "bytes1",
          "name": "fields",
          "type": "bytes1"
        },
        {
          "internalType": "string",
          "name": "name",
          "type": "string"
        },
        {
          "internalType": "string",
          "name": "version",
          "type": "string"
        },
        {
          "internalType": "uint256",
          "name": "chainId",
          "type": "uint256"
        },
        {
          "internalType": "address",
          "name": "verifyingContract",
          "type": "address"
        },
        {
          "internalType": "bytes32",
          "name": "salt",
          "type": "bytes32"
        },
        {
          "internalType": "uint256[]",
          "name": "extensions",
          "type": "uint256[]"
        }
      ],
      "stateMutability": "view",
      "type": "function"
    },
    {
      "inputs": [],
      "name": "feeBps",
      "outputs": [
        {
          "internalType": "uint16",
          "name": "",
          "type": "uint16"
        }
      ],
      "stateMutability": "view",
      "type": "function"
    },
    {
      "inputs": [],
      "name": "feeCollector",
      "outputs": [
        {
          "internalType": "address",
          "name": "",
          "type": "address"
        }
      ],
      "stateMutability": "view",
      "type": "function"
    },
    {
      "inputs": [
        {
          "internalType": "uint256",
          "name": "orderId",
          "type": "uint256"
        }
      ],
      "name": "fillOrder",
      "outputs": [],
      "stateMutability": "payable",
      "type": "function"
    },
    {
      "inputs": [
        {
          "internalType": "address",
          "name": "seller",
          "type": "address"
        },
        {
          "internalType": "uint256",
          "name": "seriesId",
          "type": "uint256"
        },
        {
          "internalType": "uint256",
          "name": "price",
          "type": "uint256"
        },
        {
          "internalType": "uint256",
          "name": "expiryTs",
          "type": "uint256"
        },
        {
          "internalType": "uint256",
          "name": "signerNonce",
          "type": "uint256"
        },
        {
          "internalType": "bytes",
          "name": "signature",
          "type": "bytes"
        }
      ],
      "name": "fillSignedOrder",
      "outputs": [],
      "stateMutability": "payable",
      "type": "function"
    },
    {
      "inputs": [
        {
          "internalType": "uint256",
          "name": "orderId",
          "type": "uint256"
        }
      ],
      "name": "getOrder",
      "outputs": [
        {
          "components": [
            {
              "internalType": "uint256",
              "name": "orderId",
              "type": "uint256"
            },
            {
              "internalType": "address",
              "name": "seller",
              "type": "address"
            },
            {
              "internalType": "uint256",
              "name": "seriesId",
              "type": "uint256"
            },
            {
              "internalType": "uint256",
              "name": "price",
              "type": "uint256"
            },
            {
              "internalType": "uint256",
              "name": "expiryTs",
              "type": "uint256"
            },
            {
              "internalType": "bool",
              "name": "active",
              "type": "bool"
            }
          ],
          "internalType": "struct OrderBook.Order",
          "name": "",
          "type": "tuple"
        }
      ],
      "stateMutability": "view",
      "type": "function"
    },
    {
      "inputs": [
        {
          "internalType": "address",
          "name": "",
          "type": "address"
        }
      ],
      "name": "nonces",
      "outputs": [
        {
          "internalType": "uint256",
          "name": "",
          "type": "uint256"
        }
      ],
      "stateMutability": "view",
      "type": "function"
    },
    {
      "inputs": [
        {
          "internalType": "uint256",
          "name": "",
          "type": "uint256"
        }
      ],
      "name": "orders",
      "outputs": [
        {
          "internalType": "uint256",
          "name": "orderId",
          "type": "uint256"
        },
        {
          "internalType": "address",
          "name": "seller",
          "type": "address"
        },
        {
          "internalType": "uint256",
          "name": "seriesId",
          "type": "uint256"
        },
        {
          "internalType": "uint256",
          "name": "price",
          "type": "uint256"
        },
        {
          "internalType": "uint256",
          "name": "expiryTs",
          "type": "uint256"
        },
        {
          "internalType": "bool",
          "name": "active",
          "type": "bool"
        }
      ],
      "stateMutability": "view",
      "type": "function"
    },
    {
      "inputs": [],
      "name": "owner",
      "outputs": [
        {
          "internalType": "address",
          "name": "",
          "type": "address"
        }
      ],
      "stateMutability": "view",
      "type": "function"
    },
    {
      "inputs": [],
      "name": "pause",
      "outputs": [],
      "stateMutability": "nonpayable",
      "type": "function"
    },
    {
      "inputs": [],
      "name": "paused",
      "outputs": [
        {
          "internalType": "bool",
          "name": "",
          "type": "bool"
        }
      ],
      "stateMutability": "view",
      "type": "function"
    },
    {
      "inputs": [
        {
          "internalType": "address",
          "name": "",
          "type": "address"
        }
      ],
      "name": "proceeds",
      "outputs": [
        {
          "internalType": "uint256",
          "name": "",
          "type": "uint256"
        }
      ],
      "stateMutability": "view",
      "type": "function"
    },
    {
      "inputs": [],
      "name": "renounceOwnership",
      "outputs": [],
      "stateMutability": "nonpayable",
      "type": "function"
    },
    {
      "inputs": [],
      "name": "seriesToken",
      "outputs": [
        {
          "internalType": "contract IERC721",
          "name": "",
          "type": "address"
        }
      ],
      "stateMutability": "view",
      "type": "function"
    },
    {
      "inputs": [],
      "name": "seriesVault",
      "outputs": [
        {
          "internalType": "contract ISeriesVault",
          "name": "",
          "type": "address"
        }
      ],
      "stateMutability": "view",
      "type": "function"
    },
    {
      "inputs": [
        {
          "internalType": "address",
          "name": "_collector",
          "type": "address"
        },
        {
          "internalType": "uint16",
          "name": "_bps",
          "type": "uint16"
        }
      ],
      "name": "setFeeParams",
      "outputs": [],
      "stateMutability": "nonpayable",
      "type": "function"
    },
    {
      "inputs": [
        {
          "internalType": "address",
          "name": "newOwner",
          "type": "address"
        }
      ],
      "name": "transferOwnership",
      "outputs": [],
      "stateMutability": "nonpayable",
      "type": "function"
    },
    {
      "inputs": [],
      "name": "unpause",
      "outputs": [],
      "stateMutability": "nonpayable",
      "type": "function"
    },
    {
      "inputs": [],
      "name": "withdrawProceeds",
      "outputs": [],
      "stateMutability": "nonpayable",
      "type": "function"
    },
    {
      "stateMutability": "payable",
      "type": "receive"
    }
  ],
  "bytecode": "0x6101a06040523480156200001257600080fd5b506040516200237f3803806200237f8339810160408190526200003591620002ef565b60408051808201825260098152684f72646572426f6f6b60b81b602080830191909152825180840190935260018352603160f81b908301529033806200009657604051631e4fbdf760e01b8152600060048201526024015b60405180910390fd5b620000a18162000206565b5060018055620000b382600362000256565b61012052620000c481600462000256565b61014052815160208084019190912060e052815190820120610100524660a0526200015260e05161010051604080517f8b73c3c69bb8fe3d512ecc4cf759cc79239f7b179b0ffacaa9a75d522b39400f60208201529081019290925260608201524660808201523060a082015260009060c00160405160208183030381529060405280519060200120905090565b60805250503060c0526001600160a01b038416158015906200017c57506001600160a01b03831615155b620001b95760405162461bcd60e51b815260206004820152600c60248201526b7a65726f206164647265737360a01b60448201526064016200008d565b6001600160a01b039384166101605291831661018052600680546001600160b01b03191662010000929094169190910261ffff19169290921761ffff90911617905560016005556200053a565b600080546001600160a01b038381166001600160a01b0319831681178455604051919092169283917f8be0079c531659141344cd1fd0a4f28419497f9722a3daafe3b4186f6b6457e09190a35050565b600060208351101562000276576200026e836200028f565b905062000289565b81620002838482620003f9565b5060ff90505b92915050565b600080829050601f81511115620002bd578260405163305a27a960e01b81526004016200008d9190620004c5565b8051620002ca8262000515565b179392505050565b80516001600160a01b0381168114620002ea57600080fd5b919050565b600080600080608085870312156200030657600080fd5b6200031185620002d2565b93506200032160208601620002d2565b92506200033160408601620002d2565b9150606085015161ffff811681146200034957600080fd5b939692955090935050565b634e487b7160e01b600052604160045260246000fd5b600181811c908216806200037f57607f821691505b602082108103620003a057634e487b7160e01b600052602260045260246000fd5b50919050565b601f821115620003f457600081815260208120601f850160051c81016020861015620003cf5750805b601f850160051c820191505b81811015620003f057828155600101620003db565b5050505b505050565b81516001600160401b0381111562000415576200041562000354565b6200042d816200042684546200036a565b84620003a6565b602080601f8311600181146200046557600084156200044c5750858301515b600019600386901b1c1916600185901b178555620003f0565b600085815260208120601f198616915b82811015620004965788860151825594840194600190910190840162000475565b5085821015620004b55787850151600019600388901b60f8161c191681555b5050505050600190811b01905550565b600060208083528351808285015260005b81811015620004f457858101830151858201604001528201620004d6565b506000604082860101526040601f19601f8301168501019250505092915050565b80516020808301519190811015620003a05760001960209190910360031b1b16919050565b60805160a05160c05160e0516101005161012051610140516101605161018051611daa620005d56000396000818161027b0152818161090e01526111b30152600081816102180152818161076d0152818161089501528181610c8b01526110a6015260006114d5015260006114a3015260006117a20152600061177a015260006116d5015260006116ff015260006117290152611daa6000f3fe60806040526004361061012e5760003560e01c80637ecebe00116100ab578063a1ba444d1161006f578063a1ba444d146103c5578063a85c38ef146103e5578063bf6b771614610479578063c415b95c1461048c578063d09ef241146104b2578063f2fde38b1461052457610181565b80637ecebe00146103285780638456cb591461035557806384b0196e1461036a5780638da5cb5b146103925780639038e693146103b057610181565b8063514fcac7116100f2578063514fcac71461029d5780635c975abb146102bd57806367b830ad146102e0578063715018a6146102f35780637c8cf3e51461030857610181565b806324a9d8531461019857806335adde54146101cb57806337b0ac19146102065780633f4ba83a146102525780634929e0451461026957610181565b3661018157346007600061014a6000546001600160a01b031690565b6001600160a01b03166001600160a01b0316815260200190815260200160002060008282546101799190611a49565b925050819055005b346007600061014a6000546001600160a01b031690565b3480156101a457600080fd5b506006546101b39061ffff1681565b60405161ffff90911681526020015b60405180910390f35b3480156101d757600080fd5b506101f86101e6366004611a71565b60076020526000908152604090205481565b6040519081526020016101c2565b34801561021257600080fd5b5061023a7f000000000000000000000000000000000000000000000000000000000000000081565b6040516001600160a01b0390911681526020016101c2565b34801561025e57600080fd5b50610267610544565b005b34801561027557600080fd5b5061023a7f000000000000000000000000000000000000000000000000000000000000000081565b3480156102a957600080fd5b506102676102b8366004611a95565b610556565b3480156102c957600080fd5b5060025460ff1660405190151581526020016101c2565b6102676102ee366004611a95565b61064f565b3480156102ff57600080fd5b506102676109cb565b34801561031457600080fd5b50610267610323366004611aae565b6109dd565b34801561033457600080fd5b506101f8610343366004611a71565b60096020526000908152604090205481565b34801561036157600080fd5b50610267610add565b34801561037657600080fd5b5061037f610aed565b6040516101c29796959493929190611b34565b34801561039e57600080fd5b506000546001600160a01b031661023a565b3480156103bc57600080fd5b50610267610b33565b3480156103d157600080fd5b506101f86103e0366004611bca565b610c5f565b3480156103f157600080fd5b50610442610400366004611a95565b60086020526000908152604090208054600182015460028301546003840154600485015460059095015493946001600160a01b03909316939192909160ff1686565b604080519687526001600160a01b0390951660208701529385019290925260608401526080830152151560a082015260c0016101c2565b610267610487366004611bf6565b610e5d565b34801561049857600080fd5b5060065461023a906201000090046001600160a01b031681565b3480156104be57600080fd5b506104d26104cd366004611a95565b61125c565b6040516101c29190815181526020808301516001600160a01b03169082015260408083015190820152606080830151908201526080808301519082015260a09182015115159181019190915260c00190565b34801561053057600080fd5b5061026761053f366004611a71565b611307565b61054c611342565b61055461136f565b565b61055e6113c1565b6000818152600860205260409020600581015460ff166105b05760405162461bcd60e51b8152602060048201526008602482015267696e61637469766560c01b60448201526064015b60405180910390fd5b60018101546001600160a01b03163314806105d557506000546001600160a01b031633145b6106145760405162461bcd60e51b815260206004820152601060248201526f3737ba1039b2b63632b917b0b236b4b760811b60448201526064016105a7565b60058101805460ff1916905560405182907f61b9399f2f0f32ca39ce8d7be32caed5ec22fe07a6daba3a467ed479ec60658290600090a25050565b6106576113e5565b61065f6113c1565b6000818152600860205260409020600581015460ff1615156001146106b15760405162461bcd60e51b8152602060048201526008602482015267696e61637469766560c01b60448201526064016105a7565b8060040154421115806106c657506004810154155b6106fc5760405162461bcd60e51b8152602060048201526007602482015266195e1c1a5c995960ca1b60448201526064016105a7565b8060030154341461073f5760405162461bcd60e51b815260206004820152600d60248201526c1ddc9bdb99c81c185e5b595b9d609a1b60448201526064016105a7565b600181015460028201546040516331a9108f60e11b8152600481018290526001600160a01b039283169283917f000000000000000000000000000000000000000000000000000000000000000090911690636352211e90602401602060405180830381865afa1580156107b6573d6000803e3d6000fd5b505050506040513d601f19601f820116820180604052508101906107da9190611ca2565b6001600160a01b0316146108235760405162461bcd60e51b815260206004820152601060248201526f39b2b63632b9103737ba1037bbb732b960811b60448201526064016105a7565b60058301805460ff1916905560038301546040516001600160a01b0384169180156108fc02916000818181858888f19350505050158015610868573d6000803e3d6000fd5b506040516323b872dd60e01b81526001600160a01b038381166004830152336024830152604482018390527f000000000000000000000000000000000000000000000000000000000000000016906323b872dd90606401600060405180830381600087803b1580156108d957600080fd5b505af11580156108ed573d6000803e3d6000fd5b5050604051631c4ef93560e21b8152600784900b60048201523360248201527f00000000000000000000000000000000000000000000000000000000000000006001600160a01b0316925063713be4d49150604401600060405180830381600087803b15801561095c57600080fd5b505af1158015610970573d6000803e3d6000fd5b50505050336001600160a01b0316847f1e7abafb1a786c4e6394b5c494f50a97e3802ff2ce462eca4fe6a2dd4e1f92e885600301546040516109b491815260200190565b60405180910390a35050506109c860018055565b50565b6109d3611342565b610554600061140f565b6109e5611342565b6001600160a01b038216610a305760405162461bcd60e51b81526020600482015260126024820152713d32b937903332b29031b7b63632b1ba37b960711b60448201526064016105a7565b6127108161ffff161115610a725760405162461bcd60e51b815260206004820152600960248201526806270733e31303030360bc1b60448201526064016105a7565b600680546001600160b01b031916620100006001600160a01b03851690810261ffff19169190911761ffff8416908117909255604051918252907fe55b0232856c9787e1d18d323fcc7fd2371c0d41ccb77af911e06e97468e524e9060200160405180910390a25050565b610ae5611342565b61055461145f565b600060608060008060006060610b0161149c565b610b096114ce565b60408051600080825260208201909252600f60f81b9b939a50919850469750309650945092509050565b610b3b6113e5565b3360009081526007602052604090205480610b865760405162461bcd60e51b815260206004820152600b60248201526a6e6f2070726f636565647360a81b60448201526064016105a7565b336000818152600760205260408082208290555190919083908381818185875af1925050503d8060008114610bd7576040519150601f19603f3d011682016040523d82523d6000602084013e610bdc565b606091505b5050905080610c1f5760405162461bcd60e51b815260206004820152600f60248201526e1dda5d1a191c985dc819985a5b1959608a1b60448201526064016105a7565b60405182815233907f0f2fb75cc1977a496e94837f859e957f68e26e70dc1b75d9945ee92ae57969ba9060200160405180910390a2505061055460018055565b6000610c696113c1565b6040516331a9108f60e11b815260048101859052339081906001600160a01b037f00000000000000000000000000000000000000000000000000000000000000001690636352211e90602401602060405180830381865afa158015610cd2573d6000803e3d6000fd5b505050506040513d601f19601f82011682018060405250810190610cf69190611ca2565b6001600160a01b031614610d385760405162461bcd60e51b81526020600482015260096024820152683737ba1037bbb732b960b91b60448201526064016105a7565b60008411610d725760405162461bcd60e51b8152602060048201526007602482015266070726963653d360cc1b60448201526064016105a7565b600580549081906000610d8483611cbf565b90915550506040805160c0810182528281526001600160a01b0384811660208084018281528486018c8152606086018c8152608087018c8152600160a0890181815260008c8152600888528b902099518a55945190890180546001600160a01b0319169190981617909655905160028701555160038601559251600485015591516005909301805460ff1916931515939093179092558251888152908101879052889284917f92669f7499828c9972b3a5b6c0b107ca011f143600fd7b32517024d4a3d7ab28910160405180910390a495945050505050565b610e656113e5565b610e6d6113c1565b843414610eac5760405162461bcd60e51b815260206004820152600d60248201526c1ddc9bdb99c81c185e5b595b9d609a1b60448201526064016105a7565b604080517f66079d85b513f1ce9a708d4f1b9b646a1a52d4f148aa760916abba2208b86b4560208201526001600160a01b03891691810191909152606081018790526080810186905260a0810185905260c0810184905260009060e0016040516020818303038152906040528051906020012090506000610f2c826114fb565b90506000610f708286868080601f01602080910402602001604051908101604052809392919081815260200183838082843760009201919091525061152e92505050565b9050896001600160a01b0316816001600160a01b031614610fc75760405162461bcd60e51b8152602060048201526011602482015270696e76616c6964207369676e617475726560781b60448201526064016105a7565b6001600160a01b038a16600090815260096020526040902054861461101a5760405162461bcd60e51b8152602060048201526009602482015268626164206e6f6e636560b81b60448201526064016105a7565b6001600160a01b038a1660009081526009602052604090205461103e906001611a49565b6001600160a01b038b166000908152600960205260409020554287101580611064575086155b61109a5760405162461bcd60e51b8152602060048201526007602482015266195e1c1a5c995960ca1b60448201526064016105a7565b896001600160a01b03167f00000000000000000000000000000000000000000000000000000000000000006001600160a01b0316636352211e8b6040518263ffffffff1660e01b81526004016110f291815260200190565b602060405180830381865afa15801561110f573d6000803e3d6000fd5b505050506040513d601f19601f820116820180604052508101906111339190611ca2565b6001600160a01b03161461117c5760405162461bcd60e51b815260206004820152601060248201526f39b2b63632b9103737ba1037bbb732b960811b60448201526064016105a7565b611187888a8c611558565b604051637e1433ab60e01b8152600481018a90526001600160a01b038b811660248301523360448301527f00000000000000000000000000000000000000000000000000000000000000001690637e1433ab90606401600060405180830381600087803b1580156111f757600080fd5b505af115801561120b573d6000803e3d6000fd5b50506040518a8152339250600091507f1e7abafb1a786c4e6394b5c494f50a97e3802ff2ce462eca4fe6a2dd4e1f92e89060200160405180910390a350505061125360018055565b50505050505050565b6112a06040518060c001604052806000815260200160006001600160a01b031681526020016000815260200160008152602001600081526020016000151581525090565b50600090815260086020908152604091829020825160c0810184528154815260018201546001600160a01b031692810192909252600281015492820192909252600382015460608201526004820154608082015260059091015460ff16151560a082015290565b61130f611342565b6001600160a01b03811661133957604051631e4fbdf760e01b8152600060048201526024016105a7565b6109c88161140f565b6000546001600160a01b031633146105545760405163118cdaa760e01b81523360048201526024016105a7565b6113776115fa565b6002805460ff191690557f5db9ee0a495bf2e6ff9c91a7834c1ba4fdd244a5e8aa4e537bd38aeae4b073aa335b6040516001600160a01b03909116815260200160405180910390a1565b60025460ff16156105545760405163d93c066560e01b815260040160405180910390fd5b60026001540361140857604051633ee5aeb560e01b815260040160405180910390fd5b6002600155565b600080546001600160a01b038381166001600160a01b0319831681178455604051919092169283917f8be0079c531659141344cd1fd0a4f28419497f9722a3daafe3b4186f6b6457e09190a35050565b6114676113c1565b6002805460ff191660011790557f62e78cea01bee320cd4e420270b5ea74000d11b0c9f74754ebdbfc544b05a2586113a43390565b60606114c97f0000000000000000000000000000000000000000000000000000000000000000600361161d565b905090565b60606114c97f0000000000000000000000000000000000000000000000000000000000000000600461161d565b60006115286115086116c8565b8360405161190160f01b8152600281019290925260228201526042902090565b92915050565b60008060008061153e86866117f3565b92509250925061154e8282611840565b5090949350505050565b600654600090612710906115709061ffff1686611cd8565b61157a9190611cef565b905060006115888286611d11565b905081156115c6576006546201000090046001600160a01b0316600090815260076020526040812080548492906115c0908490611a49565b90915550505b6001600160a01b038316600090815260076020526040812080548392906115ee908490611a49565b90915550505050505050565b60025460ff1661055457604051638dfc202b60e01b815260040160405180910390fd5b606060ff831461163757611630836118fd565b9050611528565b81805461164390611d24565b80601f016020809104026020016040519081016040528092919081815260200182805461166f90611d24565b80156116bc5780601f10611691576101008083540402835291602001916116bc565b820191906000526020600020905b81548152906001019060200180831161169f57829003601f168201915b50505050509050611528565b6000306001600160a01b037f00000000000000000000000000000000000000000000000000000000000000001614801561172157507f000000000000000000000000000000000000000000000000000000000000000046145b1561174b57507f000000000000000000000000000000000000000000000000000000000000000090565b6114c9604080517f8b73c3c69bb8fe3d512ecc4cf759cc79239f7b179b0ffacaa9a75d522b39400f60208201527f0000000000000000000000000000000000000000000000000000000000000000918101919091527f000000000000000000000000000000000000000000000000000000000000000060608201524660808201523060a082015260009060c00160405160208183030381529060405280519060200120905090565b6000806000835160410361182d5760208401516040850151606086015160001a61181f8882858561193c565b955095509550505050611839565b50508151600091506002905b9250925092565b600082600381111561185457611854611d5e565b0361185d575050565b600182600381111561187157611871611d5e565b0361188f5760405163f645eedf60e01b815260040160405180910390fd5b60028260038111156118a3576118a3611d5e565b036118c45760405163fce698f760e01b8152600481018290526024016105a7565b60038260038111156118d8576118d8611d5e565b036118f9576040516335e2f38360e21b8152600481018290526024016105a7565b5050565b6060600061190a83611a0b565b604080516020808252818301909252919250600091906020820181803683375050509182525060208101929092525090565b600080807f7fffffffffffffffffffffffffffffff5d576e7357a4501ddfe92f46681b20a08411156119775750600091506003905082611a01565b604080516000808252602082018084528a905260ff891692820192909252606081018790526080810186905260019060a0016020604051602081039080840390855afa1580156119cb573d6000803e3d6000fd5b5050604051601f1901519150506001600160a01b0381166119f757506000925060019150829050611a01565b9250600091508190505b9450945094915050565b600060ff8216601f81111561152857604051632cd44ac360e21b815260040160405180910390fd5b634e487b7160e01b600052601160045260246000fd5b8082018082111561152857611528611a33565b6001600160a01b03811681146109c857600080fd5b600060208284031215611a8357600080fd5b8135611a8e81611a5c565b9392505050565b600060208284031215611aa757600080fd5b5035919050565b60008060408385031215611ac157600080fd5b8235611acc81611a5c565b9150602083013561ffff81168114611ae357600080fd5b809150509250929050565b6000815180845260005b81811015611b1457602081850181015186830182015201611af8565b506000602082860101526020601f19601f83011685010191505092915050565b60ff60f81b881681526000602060e081840152611b5460e084018a611aee565b8381036040850152611b66818a611aee565b606085018990526001600160a01b038816608086015260a0850187905284810360c0860152855180825283870192509083019060005b81811015611bb857835183529284019291840191600101611b9c565b50909c9b505050505050505050505050565b600080600060608486031215611bdf57600080fd5b505081359360208301359350604090920135919050565b600080600080600080600060c0888a031215611c1157600080fd5b8735611c1c81611a5c565b96506020880135955060408801359450606088013593506080880135925060a088013567ffffffffffffffff80821115611c5557600080fd5b818a0191508a601f830112611c6957600080fd5b813581811115611c7857600080fd5b8b6020828501011115611c8a57600080fd5b60208301945080935050505092959891949750929550565b600060208284031215611cb457600080fd5b8151611a8e81611a5c565b600060018201611cd157611cd1611a33565b5060010190565b808202811582820484141761152857611528611a33565b600082611d0c57634e487b7160e01b600052601260045260246000fd5b500490565b8181038181111561152857611528611a33565b600181811c90821680611d3857607f821691505b602082108103611d5857634e487b7160e01b600052602260045260246000fd5b50919050565b634e487b7160e01b600052602160045260246000fdfea26469706673582212208530b001390f8af3738d89cf3a4f000d8b7fa2c4dd1ab76b59cc59654abac10964736f6c63430008140033",
  "linkReferences": {},
  "deployedLinkReferences": {}
}