{
  "_format": "hh-sol-artifact-1",
  "contractName": "OrderBook",
  "sourceName": "contracts/Orderbook.sol",
  "abi": [
    {
      "inputs": [
        {
          "internalType": "address",
          "name": "_seriesToken",
          "type": "address"
        },
        {
          "internalType": "address",
          "name": "_seriesVault",
          "type": "address"
        },
        {
          "internalType": "address",
          "name": "_feeCollector",
          "type": "address"
        },
        {
          "internalType": "uint16",
          "name": "_feeBps",
          "type": "uint16"
        }
      ],
      "stateMutability": "nonpayable",
      "type": "constructor"
    },
    {
      "inputs": [],
      "name": "ECDSAInvalidSignature",
      "type": "error"
    },
    {
      "inputs": [
        {
          "internalType": "uint256",
          "name": "length",
          "type": "uint256"
        }
      ],
      "name": "ECDSAInvalidSignatureLength",
      "type": "error"
    },
    {
      "inputs": [
        {
          "internalType": "bytes32",
          "name": "s",
          "type": "bytes32"
        }
      ],
      "name": "ECDSAInvalidSignatureS",
      "type": "error"
    },
    {
      "inputs": [],
      "name": "EnforcedPause",
      "type": "error"
    },
    {
      "inputs": [],
      "name": "ExpectedPause",
      "type": "error"
    },
    {
      "inputs": [],
      "name": "InvalidShortString",
      "type": "error"
    },
    {
      "inputs": [
        {
          "internalType": "address",
          "name": "owner",
          "type": "address"
        }
      ],
      "name": "OwnableInvalidOwner",
      "type": "error"
    },
    {
      "inputs": [
        {
          "internalType": "address",
          "name": "account",
          "type": "address"
        }
      ],
      "name": "OwnableUnauthorizedAccount",
      "type": "error"
    },
    {
      "inputs": [],
      "name": "ReentrancyGuardReentrantCall",
      "type": "error"
    },
    {
      "inputs": [
        {
          "internalType": "string",
          "name": "str",
          "type": "string"
        }
      ],
      "name": "StringTooLong",
      "type": "error"
    },
    {
      "anonymous": false,
      "inputs": [],
      "name": "EIP712DomainChanged",
      "type": "event"
    },
    {
      "anonymous": false,
      "inputs": [
        {
          "indexed": true,
          "internalType": "address",
          "name": "collector",
          "type": "address"
        },
        {
          "indexed": false,
          "internalType": "uint16",
          "name": "bps",
          "type": "uint16"
        }
      ],
      "name": "FeeParamsUpdated",
      "type": "event"
    },
    {
      "anonymous": false,
      "inputs": [
        {
          "indexed": true,
          "internalType": "uint256",
          "name": "orderId",
          "type": "uint256"
        }
      ],
      "name": "OrderCancelled",
      "type": "event"
    },
    {
      "anonymous": false,
      "inputs": [
        {
          "indexed": true,
          "internalType": "uint256",
          "name": "orderId",
          "type": "uint256"
        },
        {
          "indexed": true,
          "internalType": "address",
          "name": "seller",
          "type": "address"
        },
        {
          "indexed": true,
          "internalType": "uint256",
          "name": "seriesId",
          "type": "uint256"
        },
        {
          "indexed": false,
          "internalType": "uint256",
          "name": "price",
          "type": "uint256"
        },
        {
          "indexed": false,
          "internalType": "uint256",
          "name": "expiry",
          "type": "uint256"
        }
      ],
      "name": "OrderCreated",
      "type": "event"
    },
    {
      "anonymous": false,
      "inputs": [
        {
          "indexed": true,
          "internalType": "uint256",
          "name": "orderId",
          "type": "uint256"
        },
        {
          "indexed": true,
          "internalType": "address",
          "name": "buyer",
          "type": "address"
        },
        {
          "indexed": false,
          "internalType": "uint256",
          "name": "price",
          "type": "uint256"
        }
      ],
      "name": "OrderFilled",
      "type": "event"
    },
    {
      "anonymous": false,
      "inputs": [
        {
          "indexed": true,
          "internalType": "address",
          "name": "previousOwner",
          "type": "address"
        },
        {
          "indexed": true,
          "internalType": "address",
          "name": "newOwner",
          "type": "address"
        }
      ],
      "name": "OwnershipTransferred",
      "type": "event"
    },
    {
      "anonymous": false,
      "inputs": [
        {
          "indexed": false,
          "internalType": "address",
          "name": "account",
          "type": "address"
        }
      ],
      "name": "Paused",
      "type": "event"
    },
    {
      "anonymous": false,
      "inputs": [
        {
          "indexed": true,
          "internalType": "address",
          "name": "who",
          "type": "address"
        },
        {
          "indexed": false,
          "internalType": "uint256",
          "name": "amount",
          "type": "uint256"
        }
      ],
      "name": "ProceedsWithdrawn",
      "type": "event"
    },
    {
      "anonymous": false,
      "inputs": [
        {
          "indexed": false,
          "internalType": "address",
          "name": "account",
          "type": "address"
        }
      ],
      "name": "Unpaused",
      "type": "event"
    },
    {
      "stateMutability": "payable",
      "type": "fallback"
    },
    {
      "inputs": [
        {
          "internalType": "uint256",
          "name": "orderId",
          "type": "uint256"
        }
      ],
      "name": "cancelOrder",
      "outputs": [],
      "stateMutability": "nonpayable",
      "type": "function"
    },
    {
      "inputs": [
        {
          "internalType": "uint256",
          "name": "seriesId",
          "type": "uint256"
        },
        {
          "internalType": "uint256",
          "name": "price",
          "type": "uint256"
        },
        {
          "internalType": "uint256",
          "name": "expiryTs",
          "type": "uint256"
        }
      ],
      "name": "createOrder",
      "outputs": [
        {
          "internalType": "uint256",
          "name": "",
          "type": "uint256"
        }
      ],
      "stateMutability": "nonpayable",
      "type": "function"
    },
    {
      "inputs": [],
      "name": "eip712Domain",
      "outputs": [
        {
          "internalType": "bytes1",
          "name": "fields",
          "type": "bytes1"
        },
        {
          "internalType": "string",
          "name": "name",
          "type": "string"
        },
        {
          "internalType": "string",
          "name": "version",
          "type": "string"
        },
        {
          "internalType": "uint256",
          "name": "chainId",
          "type": "uint256"
        },
        {
          "internalType": "address",
          "name": "verifyingContract",
          "type": "address"
        },
        {
          "internalType": "bytes32",
          "name": "salt",
          "type": "bytes32"
        },
        {
          "internalType": "uint256[]",
          "name": "extensions",
          "type": "uint256[]"
        }
      ],
      "stateMutability": "view",
      "type": "function"
    },
    {
      "inputs": [],
      "name": "factory",
      "outputs": [
        {
          "internalType": "contract IClearSkyFactory",
          "name": "",
          "type": "address"
        }
      ],
      "stateMutability": "view",
      "type": "function"
    },
    {
      "inputs": [],
      "name": "feeBps",
      "outputs": [
        {
          "internalType": "uint16",
          "name": "",
          "type": "uint16"
        }
      ],
      "stateMutability": "view",
      "type": "function"
    },
    {
      "inputs": [],
      "name": "feeCollector",
      "outputs": [
        {
          "internalType": "address",
          "name": "",
          "type": "address"
        }
      ],
      "stateMutability": "view",
      "type": "function"
    },
    {
      "inputs": [
        {
          "internalType": "uint256",
          "name": "orderId",
          "type": "uint256"
        },
        {
          "internalType": "address[]",
          "name": "poolAddresses",
          "type": "address[]"
        }
      ],
      "name": "fillOrder",
      "outputs": [],
      "stateMutability": "payable",
      "type": "function"
    },
    {
      "inputs": [
        {
          "internalType": "address",
          "name": "seller",
          "type": "address"
        },
        {
          "internalType": "uint256",
          "name": "seriesId",
          "type": "uint256"
        },
        {
          "internalType": "uint256",
          "name": "price",
          "type": "uint256"
        },
        {
          "internalType": "uint256",
          "name": "expiryTs",
          "type": "uint256"
        },
        {
          "internalType": "uint256",
          "name": "signerNonce",
          "type": "uint256"
        },
        {
          "internalType": "bytes",
          "name": "signature",
          "type": "bytes"
        }
      ],
      "name": "fillSignedOrder",
      "outputs": [],
      "stateMutability": "payable",
      "type": "function"
    },
    {
      "inputs": [
        {
          "internalType": "uint256",
          "name": "orderId",
          "type": "uint256"
        }
      ],
      "name": "getOrder",
      "outputs": [
        {
          "components": [
            {
              "internalType": "uint256",
              "name": "orderId",
              "type": "uint256"
            },
            {
              "internalType": "address",
              "name": "seller",
              "type": "address"
            },
            {
              "internalType": "uint256",
              "name": "seriesId",
              "type": "uint256"
            },
            {
              "internalType": "uint256",
              "name": "price",
              "type": "uint256"
            },
            {
              "internalType": "uint256",
              "name": "expiryTs",
              "type": "uint256"
            },
            {
              "internalType": "bool",
              "name": "active",
              "type": "bool"
            }
          ],
          "internalType": "struct OrderBook.Order",
          "name": "",
          "type": "tuple"
        }
      ],
      "stateMutability": "view",
      "type": "function"
    },
    {
      "inputs": [
        {
          "internalType": "address",
          "name": "",
          "type": "address"
        }
      ],
      "name": "nonces",
      "outputs": [
        {
          "internalType": "uint256",
          "name": "",
          "type": "uint256"
        }
      ],
      "stateMutability": "view",
      "type": "function"
    },
    {
      "inputs": [
        {
          "internalType": "uint256",
          "name": "",
          "type": "uint256"
        }
      ],
      "name": "orders",
      "outputs": [
        {
          "internalType": "uint256",
          "name": "orderId",
          "type": "uint256"
        },
        {
          "internalType": "address",
          "name": "seller",
          "type": "address"
        },
        {
          "internalType": "uint256",
          "name": "seriesId",
          "type": "uint256"
        },
        {
          "internalType": "uint256",
          "name": "price",
          "type": "uint256"
        },
        {
          "internalType": "uint256",
          "name": "expiryTs",
          "type": "uint256"
        },
        {
          "internalType": "bool",
          "name": "active",
          "type": "bool"
        }
      ],
      "stateMutability": "view",
      "type": "function"
    },
    {
      "inputs": [],
      "name": "owner",
      "outputs": [
        {
          "internalType": "address",
          "name": "",
          "type": "address"
        }
      ],
      "stateMutability": "view",
      "type": "function"
    },
    {
      "inputs": [],
      "name": "pause",
      "outputs": [],
      "stateMutability": "nonpayable",
      "type": "function"
    },
    {
      "inputs": [],
      "name": "paused",
      "outputs": [
        {
          "internalType": "bool",
          "name": "",
          "type": "bool"
        }
      ],
      "stateMutability": "view",
      "type": "function"
    },
    {
      "inputs": [
        {
          "internalType": "address",
          "name": "",
          "type": "address"
        }
      ],
      "name": "proceeds",
      "outputs": [
        {
          "internalType": "uint256",
          "name": "",
          "type": "uint256"
        }
      ],
      "stateMutability": "view",
      "type": "function"
    },
    {
      "inputs": [],
      "name": "renounceOwnership",
      "outputs": [],
      "stateMutability": "nonpayable",
      "type": "function"
    },
    {
      "inputs": [],
      "name": "seriesToken",
      "outputs": [
        {
          "internalType": "contract IERC721",
          "name": "",
          "type": "address"
        }
      ],
      "stateMutability": "view",
      "type": "function"
    },
    {
      "inputs": [],
      "name": "seriesVault",
      "outputs": [
        {
          "internalType": "contract ISeriesVault",
          "name": "",
          "type": "address"
        }
      ],
      "stateMutability": "view",
      "type": "function"
    },
    {
      "inputs": [
        {
          "internalType": "address",
          "name": "_factory",
          "type": "address"
        }
      ],
      "name": "setFactory",
      "outputs": [],
      "stateMutability": "nonpayable",
      "type": "function"
    },
    {
      "inputs": [
        {
          "internalType": "address",
          "name": "_collector",
          "type": "address"
        },
        {
          "internalType": "uint16",
          "name": "_bps",
          "type": "uint16"
        }
      ],
      "name": "setFeeParams",
      "outputs": [],
      "stateMutability": "nonpayable",
      "type": "function"
    },
    {
      "inputs": [
        {
          "internalType": "address",
          "name": "newOwner",
          "type": "address"
        }
      ],
      "name": "transferOwnership",
      "outputs": [],
      "stateMutability": "nonpayable",
      "type": "function"
    },
    {
      "inputs": [],
      "name": "unpause",
      "outputs": [],
      "stateMutability": "nonpayable",
      "type": "function"
    },
    {
      "inputs": [],
      "name": "withdrawProceeds",
      "outputs": [],
      "stateMutability": "nonpayable",
      "type": "function"
    },
    {
      "stateMutability": "payable",
      "type": "receive"
    }
  ],
  "bytecode": "0x6101a06040523480156200001257600080fd5b50604051620025b4380380620025b48339810160408190526200003591620002ef565b60408051808201825260098152684f72646572426f6f6b60b81b602080830191909152825180840190935260018352603160f81b908301529033806200009657604051631e4fbdf760e01b8152600060048201526024015b60405180910390fd5b620000a18162000206565b5060018055620000b382600362000256565b61012052620000c481600462000256565b61014052815160208084019190912060e052815190820120610100524660a0526200015260e05161010051604080517f8b73c3c69bb8fe3d512ecc4cf759cc79239f7b179b0ffacaa9a75d522b39400f60208201529081019290925260608201524660808201523060a082015260009060c00160405160208183030381529060405280519060200120905090565b60805250503060c0526001600160a01b038416158015906200017c57506001600160a01b03831615155b620001b95760405162461bcd60e51b815260206004820152600c60248201526b7a65726f206164647265737360a01b60448201526064016200008d565b6001600160a01b039384166101605291831661018052600680546001600160b01b03191662010000929094169190910261ffff19169290921761ffff90911617905560016005556200053a565b600080546001600160a01b038381166001600160a01b0319831681178455604051919092169283917f8be0079c531659141344cd1fd0a4f28419497f9722a3daafe3b4186f6b6457e09190a35050565b600060208351101562000276576200026e836200028f565b905062000289565b81620002838482620003f9565b5060ff90505b92915050565b600080829050601f81511115620002bd578260405163305a27a960e01b81526004016200008d9190620004c5565b8051620002ca8262000515565b179392505050565b80516001600160a01b0381168114620002ea57600080fd5b919050565b600080600080608085870312156200030657600080fd5b6200031185620002d2565b93506200032160208601620002d2565b92506200033160408601620002d2565b9150606085015161ffff811681146200034957600080fd5b939692955090935050565b634e487b7160e01b600052604160045260246000fd5b600181811c908216806200037f57607f821691505b602082108103620003a057634e487b7160e01b600052602260045260246000fd5b50919050565b601f821115620003f457600081815260208120601f850160051c81016020861015620003cf5750805b601f850160051c820191505b81811015620003f057828155600101620003db565b5050505b505050565b81516001600160401b0381111562000415576200041562000354565b6200042d816200042684546200036a565b84620003a6565b602080601f8311600181146200046557600084156200044c5750858301515b600019600386901b1c1916600185901b178555620003f0565b600085815260208120601f198616915b82811015620004965788860151825594840194600190910190840162000475565b5085821015620004b55787850151600019600388901b60f8161c191681555b5050505050600190811b01905550565b600060208083528351808285015260005b81811015620004f457858101830151858201604001528201620004d6565b506000604082860101526040601f19601f8301168501019250505092915050565b80516020808301519190811015620003a05760001960209190910360031b1b16919050565b60805160a05160c05160e0516101005161012051610140516101605161018051611fdf620005d56000396000818161029101528181610ae5015261135001526000818161022e0152818161094401528181610a6c01528181610e2801526112430152600061167501526000611643015260006119420152600061191a015260006118750152600061189f015260006118c90152611fdf6000f3fe6080604052600436106101445760003560e01c806381186fa1116100b6578063a85c38ef1161006f578063a85c38ef1461041b578063bf6b7716146104af578063c415b95c146104c2578063c45a0155146104e8578063d09ef24114610508578063f2fde38b1461057a57610197565b806381186fa1146103785780638456cb591461038b57806384b0196e146103a05780638da5cb5b146103c85780639038e693146103e6578063a1ba444d146103fb57610197565b8063514fcac711610108578063514fcac7146102b35780635bb47808146102d35780635c975abb146102f3578063715018a6146103165780637c8cf3e51461032b5780637ecebe001461034b57610197565b806324a9d853146101ae57806335adde54146101e157806337b0ac191461021c5780633f4ba83a146102685780634929e0451461027f57610197565b366101975734600860006101606000546001600160a01b031690565b6001600160a01b03166001600160a01b03168152602001908152602001600020600082825461018f9190611be9565b925050819055005b34600860006101606000546001600160a01b031690565b3480156101ba57600080fd5b506006546101c99061ffff1681565b60405161ffff90911681526020015b60405180910390f35b3480156101ed57600080fd5b5061020e6101fc366004611c11565b60086020526000908152604090205481565b6040519081526020016101d8565b34801561022857600080fd5b506102507f000000000000000000000000000000000000000000000000000000000000000081565b6040516001600160a01b0390911681526020016101d8565b34801561027457600080fd5b5061027d61059a565b005b34801561028b57600080fd5b506102507f000000000000000000000000000000000000000000000000000000000000000081565b3480156102bf57600080fd5b5061027d6102ce366004611c35565b6105ac565b3480156102df57600080fd5b5061027d6102ee366004611c11565b6106a5565b3480156102ff57600080fd5b5060025460ff1660405190151581526020016101d8565b34801561032257600080fd5b5061027d610714565b34801561033757600080fd5b5061027d610346366004611c4e565b610726565b34801561035757600080fd5b5061020e610366366004611c11565b600a6020526000908152604090205481565b61027d610386366004611c8e565b610826565b34801561039757600080fd5b5061027d610c7a565b3480156103ac57600080fd5b506103b5610c8a565b6040516101d89796959493929190611d53565b3480156103d457600080fd5b506000546001600160a01b0316610250565b3480156103f257600080fd5b5061027d610cd0565b34801561040757600080fd5b5061020e610416366004611de9565b610dfc565b34801561042757600080fd5b50610478610436366004611c35565b60096020526000908152604090208054600182015460028301546003840154600485015460059095015493946001600160a01b03909316939192909160ff1686565b604080519687526001600160a01b0390951660208701529385019290925260608401526080830152151560a082015260c0016101d8565b61027d6104bd366004611e15565b610ffa565b3480156104ce57600080fd5b50600654610250906201000090046001600160a01b031681565b3480156104f457600080fd5b50600754610250906001600160a01b031681565b34801561051457600080fd5b50610528610523366004611c35565b6113f9565b6040516101d89190815181526020808301516001600160a01b03169082015260408083015190820152606080830151908201526080808301519082015260a09182015115159181019190915260c00190565b34801561058657600080fd5b5061027d610595366004611c11565b6114a4565b6105a26114e2565b6105aa61150f565b565b6105b4611561565b6000818152600960205260409020600581015460ff166106065760405162461bcd60e51b8152602060048201526008602482015267696e61637469766560c01b60448201526064015b60405180910390fd5b60018101546001600160a01b031633148061062b57506000546001600160a01b031633145b61066a5760405162461bcd60e51b815260206004820152601060248201526f3737ba1039b2b63632b917b0b236b4b760811b60448201526064016105fd565b60058101805460ff1916905560405182907f61b9399f2f0f32ca39ce8d7be32caed5ec22fe07a6daba3a467ed479ec60658290600090a25050565b6106ad6114e2565b6001600160a01b0381166106f25760405162461bcd60e51b815260206004820152600c60248201526b7a65726f20666163746f727960a01b60448201526064016105fd565b600780546001600160a01b0319166001600160a01b0392909216919091179055565b61071c6114e2565b6105aa6000611585565b61072e6114e2565b6001600160a01b0382166107795760405162461bcd60e51b81526020600482015260126024820152713d32b937903332b29031b7b63632b1ba37b960711b60448201526064016105fd565b6127108161ffff1611156107bb5760405162461bcd60e51b815260206004820152600960248201526806270733e31303030360bc1b60448201526064016105fd565b600680546001600160b01b031916620100006001600160a01b03851690810261ffff19169190911761ffff8416908117909255604051918252907fe55b0232856c9787e1d18d323fcc7fd2371c0d41ccb77af911e06e97468e524e9060200160405180910390a25050565b61082e6115d5565b610836611561565b6000838152600960205260409020600581015460ff1615156001146108885760405162461bcd60e51b8152602060048201526008602482015267696e61637469766560c01b60448201526064016105fd565b80600401544211158061089d57506004810154155b6108d35760405162461bcd60e51b8152602060048201526007602482015266195e1c1a5c995960ca1b60448201526064016105fd565b806003015434146109165760405162461bcd60e51b815260206004820152600d60248201526c1ddc9bdb99c81c185e5b595b9d609a1b60448201526064016105fd565b600181015460028201546040516331a9108f60e11b8152600481018290526001600160a01b039283169283917f000000000000000000000000000000000000000000000000000000000000000090911690636352211e90602401602060405180830381865afa15801561098d573d6000803e3d6000fd5b505050506040513d601f19601f820116820180604052508101906109b19190611ec1565b6001600160a01b0316146109fa5760405162461bcd60e51b815260206004820152601060248201526f39b2b63632b9103737ba1037bbb732b960811b60448201526064016105fd565b60058301805460ff1916905560038301546040516001600160a01b0384169180156108fc02916000818181858888f19350505050158015610a3f573d6000803e3d6000fd5b506040516323b872dd60e01b81526001600160a01b038381166004830152336024830152604482018390527f000000000000000000000000000000000000000000000000000000000000000016906323b872dd90606401600060405180830381600087803b158015610ab057600080fd5b505af1158015610ac4573d6000803e3d6000fd5b5050604051631c4ef93560e21b8152600784900b60048201523360248201527f00000000000000000000000000000000000000000000000000000000000000006001600160a01b0316925063713be4d49150604401600060405180830381600087803b158015610b3357600080fd5b505af1158015610b47573d6000803e3d6000fd5b50506007546001600160a01b031615801592509050610b6557508315155b15610c215760005b84811015610c1f576007546001600160a01b031663d514cf73878784818110610b9857610b98611ede565b9050602002016020810190610bad9190611c11565b6040516001600160e01b031960e084901b1681526001600160a01b039091166004820152336024820152604401600060405180830381600087803b158015610bf457600080fd5b505af1158015610c08573d6000803e3d6000fd5b505050508080610c1790611ef4565b915050610b6d565b505b336001600160a01b0316867f1e7abafb1a786c4e6394b5c494f50a97e3802ff2ce462eca4fe6a2dd4e1f92e88560030154604051610c6191815260200190565b60405180910390a3505050610c7560018055565b505050565b610c826114e2565b6105aa6115ff565b600060608060008060006060610c9e61163c565b610ca661166e565b60408051600080825260208201909252600f60f81b9b939a50919850469750309650945092509050565b610cd86115d5565b3360009081526008602052604090205480610d235760405162461bcd60e51b815260206004820152600b60248201526a6e6f2070726f636565647360a81b60448201526064016105fd565b336000818152600860205260408082208290555190919083908381818185875af1925050503d8060008114610d74576040519150601f19603f3d011682016040523d82523d6000602084013e610d79565b606091505b5050905080610dbc5760405162461bcd60e51b815260206004820152600f60248201526e1dda5d1a191c985dc819985a5b1959608a1b60448201526064016105fd565b60405182815233907f0f2fb75cc1977a496e94837f859e957f68e26e70dc1b75d9945ee92ae57969ba9060200160405180910390a250506105aa60018055565b6000610e06611561565b6040516331a9108f60e11b815260048101859052339081906001600160a01b037f00000000000000000000000000000000000000000000000000000000000000001690636352211e90602401602060405180830381865afa158015610e6f573d6000803e3d6000fd5b505050506040513d601f19601f82011682018060405250810190610e939190611ec1565b6001600160a01b031614610ed55760405162461bcd60e51b81526020600482015260096024820152683737ba1037bbb732b960b91b60448201526064016105fd565b60008411610f0f5760405162461bcd60e51b8152602060048201526007602482015266070726963653d360cc1b60448201526064016105fd565b600580549081906000610f2183611ef4565b90915550506040805160c0810182528281526001600160a01b0384811660208084018281528486018c8152606086018c8152608087018c8152600160a0890181815260008c8152600988528b902099518a55945190890180546001600160a01b0319169190981617909655905160028701555160038601559251600485015591516005909301805460ff1916931515939093179092558251888152908101879052889284917f92669f7499828c9972b3a5b6c0b107ca011f143600fd7b32517024d4a3d7ab28910160405180910390a495945050505050565b6110026115d5565b61100a611561565b8434146110495760405162461bcd60e51b815260206004820152600d60248201526c1ddc9bdb99c81c185e5b595b9d609a1b60448201526064016105fd565b604080517f66079d85b513f1ce9a708d4f1b9b646a1a52d4f148aa760916abba2208b86b4560208201526001600160a01b03891691810191909152606081018790526080810186905260a0810185905260c0810184905260009060e00160405160208183030381529060405280519060200120905060006110c98261169b565b9050600061110d8286868080601f0160208091040260200160405190810160405280939291908181526020018383808284376000920191909152506116ce92505050565b9050896001600160a01b0316816001600160a01b0316146111645760405162461bcd60e51b8152602060048201526011602482015270696e76616c6964207369676e617475726560781b60448201526064016105fd565b6001600160a01b038a166000908152600a602052604090205486146111b75760405162461bcd60e51b8152602060048201526009602482015268626164206e6f6e636560b81b60448201526064016105fd565b6001600160a01b038a166000908152600a60205260409020546111db906001611be9565b6001600160a01b038b166000908152600a60205260409020554287101580611201575086155b6112375760405162461bcd60e51b8152602060048201526007602482015266195e1c1a5c995960ca1b60448201526064016105fd565b896001600160a01b03167f00000000000000000000000000000000000000000000000000000000000000006001600160a01b0316636352211e8b6040518263ffffffff1660e01b815260040161128f91815260200190565b602060405180830381865afa1580156112ac573d6000803e3d6000fd5b505050506040513d601f19601f820116820180604052508101906112d09190611ec1565b6001600160a01b0316146113195760405162461bcd60e51b815260206004820152601060248201526f39b2b63632b9103737ba1037bbb732b960811b60448201526064016105fd565b611324888a8c6116f8565b604051637e1433ab60e01b8152600481018a90526001600160a01b038b811660248301523360448301527f00000000000000000000000000000000000000000000000000000000000000001690637e1433ab90606401600060405180830381600087803b15801561139457600080fd5b505af11580156113a8573d6000803e3d6000fd5b50506040518a8152339250600091507f1e7abafb1a786c4e6394b5c494f50a97e3802ff2ce462eca4fe6a2dd4e1f92e89060200160405180910390a35050506113f060018055565b50505050505050565b61143d6040518060c001604052806000815260200160006001600160a01b031681526020016000815260200160008152602001600081526020016000151581525090565b50600090815260096020908152604091829020825160c0810184528154815260018201546001600160a01b031692810192909252600281015492820192909252600382015460608201526004820154608082015260059091015460ff16151560a082015290565b6114ac6114e2565b6001600160a01b0381166114d657604051631e4fbdf760e01b8152600060048201526024016105fd565b6114df81611585565b50565b6000546001600160a01b031633146105aa5760405163118cdaa760e01b81523360048201526024016105fd565b61151761179a565b6002805460ff191690557f5db9ee0a495bf2e6ff9c91a7834c1ba4fdd244a5e8aa4e537bd38aeae4b073aa335b6040516001600160a01b03909116815260200160405180910390a1565b60025460ff16156105aa5760405163d93c066560e01b815260040160405180910390fd5b600080546001600160a01b038381166001600160a01b0319831681178455604051919092169283917f8be0079c531659141344cd1fd0a4f28419497f9722a3daafe3b4186f6b6457e09190a35050565b6002600154036115f857604051633ee5aeb560e01b815260040160405180910390fd5b6002600155565b611607611561565b6002805460ff191660011790557f62e78cea01bee320cd4e420270b5ea74000d11b0c9f74754ebdbfc544b05a2586115443390565b60606116697f000000000000000000000000000000000000000000000000000000000000000060036117bd565b905090565b60606116697f000000000000000000000000000000000000000000000000000000000000000060046117bd565b60006116c86116a8611868565b8360405161190160f01b8152600281019290925260228201526042902090565b92915050565b6000806000806116de8686611993565b9250925092506116ee82826119e0565b5090949350505050565b600654600090612710906117109061ffff1686611f0d565b61171a9190611f24565b905060006117288286611f46565b90508115611766576006546201000090046001600160a01b031660009081526008602052604081208054849290611760908490611be9565b90915550505b6001600160a01b0383166000908152600860205260408120805483929061178e908490611be9565b90915550505050505050565b60025460ff166105aa57604051638dfc202b60e01b815260040160405180910390fd5b606060ff83146117d7576117d083611a9d565b90506116c8565b8180546117e390611f59565b80601f016020809104026020016040519081016040528092919081815260200182805461180f90611f59565b801561185c5780601f106118315761010080835404028352916020019161185c565b820191906000526020600020905b81548152906001019060200180831161183f57829003601f168201915b505050505090506116c8565b6000306001600160a01b037f0000000000000000000000000000000000000000000000000000000000000000161480156118c157507f000000000000000000000000000000000000000000000000000000000000000046145b156118eb57507f000000000000000000000000000000000000000000000000000000000000000090565b611669604080517f8b73c3c69bb8fe3d512ecc4cf759cc79239f7b179b0ffacaa9a75d522b39400f60208201527f0000000000000000000000000000000000000000000000000000000000000000918101919091527f000000000000000000000000000000000000000000000000000000000000000060608201524660808201523060a082015260009060c00160405160208183030381529060405280519060200120905090565b600080600083516041036119cd5760208401516040850151606086015160001a6119bf88828585611adc565b9550955095505050506119d9565b50508151600091506002905b9250925092565b60008260038111156119f4576119f4611f93565b036119fd575050565b6001826003811115611a1157611a11611f93565b03611a2f5760405163f645eedf60e01b815260040160405180910390fd5b6002826003811115611a4357611a43611f93565b03611a645760405163fce698f760e01b8152600481018290526024016105fd565b6003826003811115611a7857611a78611f93565b03611a99576040516335e2f38360e21b8152600481018290526024016105fd565b5050565b60606000611aaa83611bab565b604080516020808252818301909252919250600091906020820181803683375050509182525060208101929092525090565b600080807f7fffffffffffffffffffffffffffffff5d576e7357a4501ddfe92f46681b20a0841115611b175750600091506003905082611ba1565b604080516000808252602082018084528a905260ff891692820192909252606081018790526080810186905260019060a0016020604051602081039080840390855afa158015611b6b573d6000803e3d6000fd5b5050604051601f1901519150506001600160a01b038116611b9757506000925060019150829050611ba1565b9250600091508190505b9450945094915050565b600060ff8216601f8111156116c857604051632cd44ac360e21b815260040160405180910390fd5b634e487b7160e01b600052601160045260246000fd5b808201808211156116c8576116c8611bd3565b6001600160a01b03811681146114df57600080fd5b600060208284031215611c2357600080fd5b8135611c2e81611bfc565b9392505050565b600060208284031215611c4757600080fd5b5035919050565b60008060408385031215611c6157600080fd5b8235611c6c81611bfc565b9150602083013561ffff81168114611c8357600080fd5b809150509250929050565b600080600060408486031215611ca357600080fd5b83359250602084013567ffffffffffffffff80821115611cc257600080fd5b818601915086601f830112611cd657600080fd5b813581811115611ce557600080fd5b8760208260051b8501011115611cfa57600080fd5b6020830194508093505050509250925092565b6000815180845260005b81811015611d3357602081850181015186830182015201611d17565b506000602082860101526020601f19601f83011685010191505092915050565b60ff60f81b881681526000602060e081840152611d7360e084018a611d0d565b8381036040850152611d85818a611d0d565b606085018990526001600160a01b038816608086015260a0850187905284810360c0860152855180825283870192509083019060005b81811015611dd757835183529284019291840191600101611dbb565b50909c9b505050505050505050505050565b600080600060608486031215611dfe57600080fd5b505081359360208301359350604090920135919050565b600080600080600080600060c0888a031215611e3057600080fd5b8735611e3b81611bfc565b96506020880135955060408801359450606088013593506080880135925060a088013567ffffffffffffffff80821115611e7457600080fd5b818a0191508a601f830112611e8857600080fd5b813581811115611e9757600080fd5b8b6020828501011115611ea957600080fd5b60208301945080935050505092959891949750929550565b600060208284031215611ed357600080fd5b8151611c2e81611bfc565b634e487b7160e01b600052603260045260246000fd5b600060018201611f0657611f06611bd3565b5060010190565b80820281158282048414176116c8576116c8611bd3565b600082611f4157634e487b7160e01b600052601260045260246000fd5b500490565b818103818111156116c8576116c8611bd3565b600181811c90821680611f6d57607f821691505b602082108103611f8d57634e487b7160e01b600052602260045260246000fd5b50919050565b634e487b7160e01b600052602160045260246000fdfea2646970667358221220f419a1b898a5f65fef5fed716f60f9df6162f7ac955084884c9594837427081b64736f6c63430008140033",
  "linkReferences": {},
  "deployedLinkReferences": {}
}