{
  "_format": "hh-sol-artifact-1",
  "contractName": "ClearSkyLiquidityPool",
  "sourceName": "contracts/ClearSkyLiquidityPool.sol",
  "abi": [
    {
      "inputs": [
        {
          "internalType": "address",
          "name": "_lpToken",
          "type": "address"
        },
        {
          "internalType": "address",
          "name": "_owner",
          "type": "address"
        }
      ],
      "stateMutability": "nonpayable",
      "type": "constructor"
    },
    {
      "inputs": [],
      "name": "EnforcedPause",
      "type": "error"
    },
    {
      "inputs": [],
      "name": "ExpectedPause",
      "type": "error"
    },
    {
      "inputs": [],
      "name": "InsufficientAmount",
      "type": "error"
    },
    {
      "inputs": [],
      "name": "InsufficientInitialLiquidity",
      "type": "error"
    },
    {
      "inputs": [],
      "name": "InsufficientLPBalance",
      "type": "error"
    },
    {
      "inputs": [],
      "name": "InsufficientLiquidity",
      "type": "error"
    },
    {
      "inputs": [],
      "name": "InvalidAmounts",
      "type": "error"
    },
    {
      "inputs": [],
      "name": "NoLiquidityProvided",
      "type": "error"
    },
    {
      "inputs": [
        {
          "internalType": "address",
          "name": "owner",
          "type": "address"
        }
      ],
      "name": "OwnableInvalidOwner",
      "type": "error"
    },
    {
      "inputs": [
        {
          "internalType": "address",
          "name": "account",
          "type": "address"
        }
      ],
      "name": "OwnableUnauthorizedAccount",
      "type": "error"
    },
    {
      "inputs": [],
      "name": "PoolAlreadyInitialized",
      "type": "error"
    },
    {
      "inputs": [],
      "name": "PoolNotActive",
      "type": "error"
    },
    {
      "inputs": [],
      "name": "ReentrancyGuardReentrantCall",
      "type": "error"
    },
    {
      "inputs": [],
      "name": "SlippageExceeded",
      "type": "error"
    },
    {
      "anonymous": false,
      "inputs": [
        {
          "indexed": false,
          "internalType": "bool",
          "name": "",
          "type": "bool"
        },
        {
          "indexed": false,
          "internalType": "bytes",
          "name": "",
          "type": "bytes"
        }
      ],
      "name": "CallResponseEvent",
      "type": "event"
    },
    {
      "anonymous": false,
      "inputs": [
        {
          "indexed": true,
          "internalType": "address",
          "name": "collector",
          "type": "address"
        },
        {
          "indexed": false,
          "internalType": "uint256",
          "name": "hbarAmount",
          "type": "uint256"
        },
        {
          "indexed": false,
          "internalType": "uint256",
          "name": "timestamp",
          "type": "uint256"
        }
      ],
      "name": "FeesCollected",
      "type": "event"
    },
    {
      "anonymous": false,
      "inputs": [
        {
          "indexed": true,
          "internalType": "address",
          "name": "token",
          "type": "address"
        },
        {
          "indexed": true,
          "internalType": "address",
          "name": "account",
          "type": "address"
        }
      ],
      "name": "HTSAssociateAttempt",
      "type": "event"
    },
    {
      "anonymous": false,
      "inputs": [
        {
          "indexed": true,
          "internalType": "address",
          "name": "token",
          "type": "address"
        },
        {
          "indexed": true,
          "internalType": "address",
          "name": "account",
          "type": "address"
        },
        {
          "indexed": false,
          "internalType": "string",
          "name": "reason",
          "type": "string"
        }
      ],
      "name": "HTSAssociateSkipped",
      "type": "event"
    },
    {
      "anonymous": false,
      "inputs": [
        {
          "indexed": true,
          "internalType": "address",
          "name": "token",
          "type": "address"
        },
        {
          "indexed": true,
          "internalType": "address",
          "name": "account",
          "type": "address"
        }
      ],
      "name": "HTSAssociateSuccess",
      "type": "event"
    },
    {
      "anonymous": false,
      "inputs": [
        {
          "indexed": true,
          "internalType": "address",
          "name": "token",
          "type": "address"
        },
        {
          "indexed": true,
          "internalType": "address",
          "name": "to",
          "type": "address"
        },
        {
          "indexed": false,
          "internalType": "int64",
          "name": "amount",
          "type": "int64"
        }
      ],
      "name": "HTSMintAttempt",
      "type": "event"
    },
    {
      "anonymous": false,
      "inputs": [
        {
          "indexed": true,
          "internalType": "address",
          "name": "token",
          "type": "address"
        },
        {
          "indexed": true,
          "internalType": "address",
          "name": "to",
          "type": "address"
        },
        {
          "indexed": false,
          "internalType": "int64",
          "name": "amount",
          "type": "int64"
        },
        {
          "indexed": false,
          "internalType": "int32",
          "name": "responseCode",
          "type": "int32"
        }
      ],
      "name": "HTSMintFailed",
      "type": "event"
    },
    {
      "anonymous": false,
      "inputs": [
        {
          "indexed": true,
          "internalType": "address",
          "name": "token",
          "type": "address"
        },
        {
          "indexed": true,
          "internalType": "address",
          "name": "to",
          "type": "address"
        },
        {
          "indexed": false,
          "internalType": "int64",
          "name": "amount",
          "type": "int64"
        },
        {
          "indexed": false,
          "internalType": "int64",
          "name": "newTotalSupply",
          "type": "int64"
        }
      ],
      "name": "HTSMintSuccess",
      "type": "event"
    },
    {
      "anonymous": false,
      "inputs": [
        {
          "indexed": true,
          "internalType": "address",
          "name": "token",
          "type": "address"
        },
        {
          "indexed": true,
          "internalType": "address",
          "name": "from",
          "type": "address"
        },
        {
          "indexed": true,
          "internalType": "address",
          "name": "to",
          "type": "address"
        },
        {
          "indexed": false,
          "internalType": "int64",
          "name": "amount",
          "type": "int64"
        }
      ],
      "name": "HTSTransferAttempt",
      "type": "event"
    },
    {
      "anonymous": false,
      "inputs": [
        {
          "indexed": true,
          "internalType": "address",
          "name": "token",
          "type": "address"
        },
        {
          "indexed": true,
          "internalType": "address",
          "name": "from",
          "type": "address"
        },
        {
          "indexed": true,
          "internalType": "address",
          "name": "to",
          "type": "address"
        },
        {
          "indexed": false,
          "internalType": "int64",
          "name": "amount",
          "type": "int64"
        },
        {
          "indexed": false,
          "internalType": "int32",
          "name": "responseCode",
          "type": "int32"
        }
      ],
      "name": "HTSTransferFailed",
      "type": "event"
    },
    {
      "anonymous": false,
      "inputs": [
        {
          "indexed": true,
          "internalType": "address",
          "name": "token",
          "type": "address"
        },
        {
          "indexed": true,
          "internalType": "address",
          "name": "from",
          "type": "address"
        },
        {
          "indexed": true,
          "internalType": "address",
          "name": "to",
          "type": "address"
        },
        {
          "indexed": false,
          "internalType": "int64",
          "name": "amount",
          "type": "int64"
        }
      ],
      "name": "HTSTransferSuccess",
      "type": "event"
    },
    {
      "anonymous": false,
      "inputs": [
        {
          "indexed": true,
          "internalType": "address",
          "name": "user",
          "type": "address"
        },
        {
          "indexed": false,
          "internalType": "uint256",
          "name": "hbarAmount",
          "type": "uint256"
        },
        {
          "indexed": false,
          "internalType": "uint256",
          "name": "lpTokensMinted",
          "type": "uint256"
        },
        {
          "indexed": false,
          "internalType": "uint256",
          "name": "timestamp",
          "type": "uint256"
        }
      ],
      "name": "LiquidityAdded",
      "type": "event"
    },
    {
      "anonymous": false,
      "inputs": [
        {
          "indexed": true,
          "internalType": "address",
          "name": "user",
          "type": "address"
        },
        {
          "indexed": false,
          "internalType": "uint256",
          "name": "hbarAmount",
          "type": "uint256"
        },
        {
          "indexed": false,
          "internalType": "uint256",
          "name": "lpTokensBurned",
          "type": "uint256"
        },
        {
          "indexed": false,
          "internalType": "uint256",
          "name": "timestamp",
          "type": "uint256"
        }
      ],
      "name": "LiquidityRemoved",
      "type": "event"
    },
    {
      "anonymous": false,
      "inputs": [
        {
          "indexed": true,
          "internalType": "address",
          "name": "previousOwner",
          "type": "address"
        },
        {
          "indexed": true,
          "internalType": "address",
          "name": "newOwner",
          "type": "address"
        }
      ],
      "name": "OwnershipTransferred",
      "type": "event"
    },
    {
      "anonymous": false,
      "inputs": [
        {
          "indexed": false,
          "internalType": "address",
          "name": "account",
          "type": "address"
        }
      ],
      "name": "Paused",
      "type": "event"
    },
    {
      "anonymous": false,
      "inputs": [
        {
          "indexed": true,
          "internalType": "address",
          "name": "initializer",
          "type": "address"
        },
        {
          "indexed": false,
          "internalType": "uint256",
          "name": "hbarAmount",
          "type": "uint256"
        },
        {
          "indexed": false,
          "internalType": "uint256",
          "name": "timestamp",
          "type": "uint256"
        }
      ],
      "name": "PoolInitialized",
      "type": "event"
    },
    {
      "anonymous": false,
      "inputs": [
        {
          "indexed": true,
          "internalType": "address",
          "name": "pauser",
          "type": "address"
        },
        {
          "indexed": false,
          "internalType": "uint256",
          "name": "timestamp",
          "type": "uint256"
        }
      ],
      "name": "PoolPaused",
      "type": "event"
    },
    {
      "anonymous": false,
      "inputs": [
        {
          "indexed": true,
          "internalType": "address",
          "name": "unpauser",
          "type": "address"
        },
        {
          "indexed": false,
          "internalType": "uint256",
          "name": "timestamp",
          "type": "uint256"
        }
      ],
      "name": "PoolUnpaused",
      "type": "event"
    },
    {
      "anonymous": false,
      "inputs": [
        {
          "indexed": false,
          "internalType": "address",
          "name": "account",
          "type": "address"
        }
      ],
      "name": "Unpaused",
      "type": "event"
    },
    {
      "inputs": [],
      "name": "FEE_BPS",
      "outputs": [
        {
          "internalType": "uint256",
          "name": "",
          "type": "uint256"
        }
      ],
      "stateMutability": "view",
      "type": "function"
    },
    {
      "inputs": [],
      "name": "FEE_DENOMINATOR",
      "outputs": [
        {
          "internalType": "uint256",
          "name": "",
          "type": "uint256"
        }
      ],
      "stateMutability": "view",
      "type": "function"
    },
    {
      "inputs": [],
      "name": "MIN_LIQUIDITY",
      "outputs": [
        {
          "internalType": "uint256",
          "name": "",
          "type": "uint256"
        }
      ],
      "stateMutability": "view",
      "type": "function"
    },
    {
      "inputs": [
        {
          "internalType": "uint256",
          "name": "minLPTokens",
          "type": "uint256"
        }
      ],
      "name": "addLiquidity",
      "outputs": [],
      "stateMutability": "payable",
      "type": "function"
    },
    {
      "inputs": [
        {
          "internalType": "uint256",
          "name": "hbarAmount",
          "type": "uint256"
        }
      ],
      "name": "calculateLPTokens",
      "outputs": [
        {
          "internalType": "uint256",
          "name": "lpTokens",
          "type": "uint256"
        }
      ],
      "stateMutability": "view",
      "type": "function"
    },
    {
      "inputs": [],
      "name": "collectFees",
      "outputs": [],
      "stateMutability": "nonpayable",
      "type": "function"
    },
    {
      "inputs": [],
      "name": "emergencyWithdraw",
      "outputs": [],
      "stateMutability": "nonpayable",
      "type": "function"
    },
    {
      "inputs": [],
      "name": "getPoolInfo",
      "outputs": [
        {
          "internalType": "uint256",
          "name": "hbarBalance",
          "type": "uint256"
        },
        {
          "internalType": "uint256",
          "name": "lpTokenSupply",
          "type": "uint256"
        },
        {
          "internalType": "uint256",
          "name": "totalPoolValue",
          "type": "uint256"
        }
      ],
      "stateMutability": "view",
      "type": "function"
    },
    {
      "inputs": [
        {
          "internalType": "address",
          "name": "user",
          "type": "address"
        }
      ],
      "name": "getUserShare",
      "outputs": [
        {
          "internalType": "uint256",
          "name": "hbarShare",
          "type": "uint256"
        },
        {
          "internalType": "uint256",
          "name": "lpBalance",
          "type": "uint256"
        }
      ],
      "stateMutability": "view",
      "type": "function"
    },
    {
      "inputs": [
        {
          "internalType": "address",
          "name": "user",
          "type": "address"
        }
      ],
      "name": "getUserValue",
      "outputs": [
        {
          "internalType": "uint256",
          "name": "userValue",
          "type": "uint256"
        }
      ],
      "stateMutability": "view",
      "type": "function"
    },
    {
      "inputs": [],
      "name": "getValuePerLPToken",
      "outputs": [
        {
          "internalType": "uint256",
          "name": "valuePerToken",
          "type": "uint256"
        }
      ],
      "stateMutability": "view",
      "type": "function"
    },
    {
      "inputs": [],
      "name": "initializePool",
      "outputs": [],
      "stateMutability": "payable",
      "type": "function"
    },
    {
      "inputs": [],
      "name": "isInitialized",
      "outputs": [
        {
          "internalType": "bool",
          "name": "initialized",
          "type": "bool"
        }
      ],
      "stateMutability": "view",
      "type": "function"
    },
    {
      "inputs": [],
      "name": "lpToken",
      "outputs": [
        {
          "internalType": "address",
          "name": "",
          "type": "address"
        }
      ],
      "stateMutability": "view",
      "type": "function"
    },
    {
      "inputs": [],
      "name": "owner",
      "outputs": [
        {
          "internalType": "address",
          "name": "",
          "type": "address"
        }
      ],
      "stateMutability": "view",
      "type": "function"
    },
    {
      "inputs": [],
      "name": "pause",
      "outputs": [],
      "stateMutability": "nonpayable",
      "type": "function"
    },
    {
      "inputs": [],
      "name": "paused",
      "outputs": [
        {
          "internalType": "bool",
          "name": "",
          "type": "bool"
        }
      ],
      "stateMutability": "view",
      "type": "function"
    },
    {
      "inputs": [
        {
          "internalType": "address",
          "name": "token",
          "type": "address"
        },
        {
          "internalType": "bytes",
          "name": "encodedFunctionSelector",
          "type": "bytes"
        }
      ],
      "name": "redirectForToken",
      "outputs": [
        {
          "internalType": "int256",
          "name": "responseCode",
          "type": "int256"
        },
        {
          "internalType": "bytes",
          "name": "response",
          "type": "bytes"
        }
      ],
      "stateMutability": "nonpayable",
      "type": "function"
    },
    {
      "inputs": [
        {
          "internalType": "uint256",
          "name": "lpTokens",
          "type": "uint256"
        },
        {
          "internalType": "uint256",
          "name": "minHBAR",
          "type": "uint256"
        }
      ],
      "name": "removeLiquidity",
      "outputs": [],
      "stateMutability": "nonpayable",
      "type": "function"
    },
    {
      "inputs": [],
      "name": "renounceOwnership",
      "outputs": [],
      "stateMutability": "nonpayable",
      "type": "function"
    },
    {
      "inputs": [],
      "name": "totalHBAR",
      "outputs": [
        {
          "internalType": "uint256",
          "name": "",
          "type": "uint256"
        }
      ],
      "stateMutability": "view",
      "type": "function"
    },
    {
      "inputs": [],
      "name": "totalLPTokens",
      "outputs": [
        {
          "internalType": "uint256",
          "name": "",
          "type": "uint256"
        }
      ],
      "stateMutability": "view",
      "type": "function"
    },
    {
      "inputs": [],
      "name": "totalValue",
      "outputs": [
        {
          "internalType": "uint256",
          "name": "",
          "type": "uint256"
        }
      ],
      "stateMutability": "view",
      "type": "function"
    },
    {
      "inputs": [
        {
          "internalType": "address",
          "name": "token",
          "type": "address"
        },
        {
          "internalType": "address",
          "name": "from",
          "type": "address"
        },
        {
          "internalType": "address",
          "name": "to",
          "type": "address"
        },
        {
          "internalType": "uint256",
          "name": "amount",
          "type": "uint256"
        }
      ],
      "name": "transferFrom",
      "outputs": [
        {
          "internalType": "int64",
          "name": "responseCode",
          "type": "int64"
        }
      ],
      "stateMutability": "nonpayable",
      "type": "function"
    },
    {
      "inputs": [
        {
          "internalType": "address",
          "name": "token",
          "type": "address"
        },
        {
          "internalType": "address",
          "name": "from",
          "type": "address"
        },
        {
          "internalType": "address",
          "name": "to",
          "type": "address"
        },
        {
          "internalType": "uint256",
          "name": "serialNumber",
          "type": "uint256"
        }
      ],
      "name": "transferFromNFT",
      "outputs": [
        {
          "internalType": "int64",
          "name": "responseCode",
          "type": "int64"
        }
      ],
      "stateMutability": "nonpayable",
      "type": "function"
    },
    {
      "inputs": [
        {
          "internalType": "address",
          "name": "newOwner",
          "type": "address"
        }
      ],
      "name": "transferOwnership",
      "outputs": [],
      "stateMutability": "nonpayable",
      "type": "function"
    },
    {
      "inputs": [],
      "name": "unpause",
      "outputs": [],
      "stateMutability": "nonpayable",
      "type": "function"
    },
    {
      "stateMutability": "payable",
      "type": "receive"
    }
  ],
  "bytecode": "0x60a0346200015657601f62001b4c38819003918201601f19168301916001600160401b038311848410176200015b578084926040948552833981010312620001565760206200004e8262000171565b916001600160a01b0391829162000066910162000171565b169081156200013d57600080546001600160a01b03198116841782556040519391908316907f8be0079c531659141344cd1fd0a4f28419497f9722a3daafe3b4186f6b6457e09080a360018055821615620000fb57506080526040516119c5908162000187823960805181818161044e0152818161099901528181610a8d0152818161116a0152818161165a01526117230152f35b62461bcd60e51b815260206004820152601860248201527f496e76616c6964204c5020746f6b656e206164647265737300000000000000006044820152606490fd5b604051631e4fbdf760e01b815260006004820152602490fd5b600080fd5b634e487b7160e01b600052604160045260246000fd5b51906001600160a01b0382168203620001565756fe60806040818152600480361015610021575b505050361561001f57600080fd5b005b60009283803560e01c91826315dacbea14611380575050806321b77d6314611362578063250e6de01461111757806328999437146110f85780632fb9125d146110db578063392e53cd146110bc5780633f4ba83a1461102a57806342c649de1461100a57806351c6590a146109ec5780635c975abb146109c85780635fcbd2851461098457806360246c8814610952578063618dc65e14610804578063715018a6146107aa5780638456cb59146107255780638da5cb5b146106fd5780639b23d3d91461064a5780639d7de6b3146103da578063a78c849b146103ad578063bbbaee4c1461037a578063bf333f2c1461035e578063c87965721461029c578063d4c3eea01461027d578063d73792a914610260578063db2e21bc146101fb578063ef6283d9146101de5763f2fde38b0361001157346101da5760203660031901126101da5761016e6113d8565b906101776114e4565b6001600160a01b039182169283156101c457505082546001600160a01b0319811683178455167f8be0079c531659141344cd1fd0a4f28419497f9722a3daafe3b4186f6b6457e08380a380f35b51631e4fbdf760e01b8152908101849052602490fd5b8280fd5b50346101da57826003193601126101da5760209250549051908152f35b50503461025c578160031936011261025c576102156114e4565b81478015908115610224578280f35b82809291819260018060a01b03835416908390610253575bf115610249578181808280f35b51903d90823e3d90fd5b506108fc61023c565b5080fd5b50503461025c578160031936011261025c57602090516127108152f35b50503461025c578160031936011261025c576020906005549051908152f35b50346101da57826003193601126101da576102b56114e4565b60035490601e820291808304601e149015171561034b5750612710900490811580156102df578380f35b838080808660018060a01b039586835416908390610342575bf11561033857907f2e4fb6077d4acf86e12bb7411fb82b2b3eaa6a49787f4b1e17b423e7ea84116991845416928151908152426020820152a23880808380f35b81513d85823e3d90fd5b506108fc6102f8565b634e487b7160e01b845260119052602483fd5b50503461025c578160031936011261025c5760209051601e8152f35b8284346103aa5760203660031901126103aa575061039e6103996113d8565b6116f9565b82519182526020820152f35b80fd5b50503461025c57602036600319011261025c576020906103d36103ce6113d8565b611630565b9051908152f35b50346101da57816003193601126101da578035916103f661154e565b6103fe611530565b821561063d57815480841161062f576104229061041d60055486611571565b611510565b91602435831061062157815161043781611434565b8581528251636b48868360e11b60208083019182527f00000000000000000000000000000000000000000000000000000000000000006001600160a01b0316602484015267ffffffffffffffff8816600790810b604485015260606064850152845160848501819052919460a48501948b949390929187019185905b888383106106045750505050506104d481849503601f198101835282611466565b5190826101675af16104e46117b8565b90156105fa5783818051810103126105f6578061050f8561050885601695016117e8565b92016117f6565b505b60030b036105b6575061052584825461159a565b90556105338260035461159a565b6003556105428260055461159a565b60055583808380156105ac575b8280929181923390f1156105a35751908152602081019190915242604082015233907f1dc8bb69df2b8e91fbdcbfcf93d951b3f0000f085a95fe3f7946d6161439245d9080606081015b0390a26001805580f35b513d84823e3d90fd5b6108fc915061054f565b606492519162461bcd60e51b8352820152601860248201527f48545320746f6b656e206275726e696e67206661696c656400000000000000006044820152fd5b8680fd5b5060166015610511565b8451820b8952978801978e975090930192600191909101906104b3565b9051638199f5f360e01b8152fd5b50516384b8f6a160e01b8152fd5b51636c2b7e2d60e11b8152fd5b50503461025c5781806106b36106a5610662366113f3565b8851639b23d3d960e01b602082019081526001600160a01b03958616602483015293851660448201529390911660648401526084830152929091829060a4820190565b03601f198101835282611466565b5190826101675af1916106c46117b8565b92156106f0576020838051810103126103aa57506106e560208093016117e8565b905b519060030b8152f35b50602091506015906106e7565b50503461025c578160031936011261025c57905490516001600160a01b039091168152602090f35b50503461025c578160031936011261025c5761073f6114e4565b610747611530565b600160ff1960025416176002557f62e78cea01bee320cd4e420270b5ea74000d11b0c9f74754ebdbfc544b05a25860208251338152a1514281527fdeccd871bd16197ce3d021a73302372354d5cd2b5c3f57065638c772bf5a7c2860203392a280f35b83346103aa57806003193601126103aa576107c36114e4565b80546001600160a01b03198116825581906001600160a01b03167f8be0079c531659141344cd1fd0a4f28419497f9722a3daafe3b4186f6b6457e08280a380f35b5082903461025c578260031936011261025c5761081f6113d8565b906024359067ffffffffffffffff821161094e573660238301121561094e5781013561084a81611488565b9161085786519384611466565b818352366024838301011161094a576108b78594929385602086829760246106a59701838601378301015287516330c6e32f60e11b602082019081526001600160a01b0390951660248201526044810189905292839160648301906114a4565b5190826101675af1906108c86117b8565b917f4af4780e06fe8cb9df64b0794fa6f01399af979175bb988e35e0e57e594567bc8451821515815285602082015280610904878201876114a4565b0390a115610930575061092c6016915b835193849360030b84528060208501528301906114a4565b0390f35b8251915061093d82611434565b815261092c601591610914565b8480fd5b8380fd5b5082346103aa57806003193601126103aa57506003549054600554925191825260208201526040810191909152606090f35b50503461025c578160031936011261025c57517f00000000000000000000000000000000000000000000000000000000000000006001600160a01b03168152602090f35b50503461025c578160031936011261025c5760209060ff6002541690519015158152f35b509190602090816003193601126101da57610a0561154e565b610a0d611530565b83548015610fd0573415610f9a57610a259034611571565b91610a336005548094611510565b601e8102818104601e1482151715610f875790612710610a5492049061159a565b9285358410610f7757610a7790610a6d346003546115a7565b60035534906115a7565b60055567ffffffffffffffff9485841660070b907f000000000000000000000000000000000000000000000000000000000000000090610afa60018060a01b038316928651858152847fb7555d949a897acb395f95e3f2df8b700519404826bb13cd6526b756f6a1c907883393a384875191610af283611434565b8a8352611804565b50919060168103610ee2575085519833847e76f2144a259bc469a1890872ec3851efddbfeb0a9150fed87b7ba8650b1d0c8b80a3858a019063248a35ef60e11b82528960249b338d820152866044820152604481526080810181811084821117610ed0579082918b52516101679482865af18a8c610b766117b8565b9215610ec55750508781805181010312610ec1578a9291610b99898e93016117e8565b60030b60168103610dd2575033877ffdda3a3d0687144c9bd8edbb3cc99da0c2a20b000492b79076f963d71f3339c28680a35b89518881523390887fd9cd850143c0756b15b46ebdc8b4ed7701b66aaed30858ee17a225eb005cca2e8c3093a4895190878a83019363eca3691760e01b85528301523060448301523360648301528860848301526084825260c082019082821090821117610dc0578493929184918c5251925af1610c486117b8565b9015610db8578581805181010312610db45785610c6591016117e8565b60030b9860168a03610d29575086979850610ca27f64b83944e79c3ce8d4c297411de637c3e102d064677aac0c163976ebdcd6f50e9782546115a7565b90558451600784810b82529190910b6020820152339082907fad91542866f4da9ebed5a2b1713258f4bf970f84e7b2a0b8aab2de28d11ffffd90604090a383519182527f67325b2f3de1d8273fc1aeeaf3b161488fc28427430d9f6b341831dedfc2d63333933093a451348152602081019290925242604083015233918060608101610599565b90601960649287898d89897fcc975f63304dfdaa80a8ecbfbfc654fd86ea8a7cdb68086a0d883f26ad08e4c1845180610d783396309683909291602090604083019460070b835260030b910152565b0390a45162461bcd60e51b8152938401528201527f48545320746f6b656e207472616e73666572206661696c6564000000000000006044820152fd5b8880fd5b506015610c65565b634e487b7160e01b8552604186528d85fd5b92935091905060c28103610e365750908a8a92895189815260128a82015271105b1c9958591e48185cdcdbd8da585d195960721b8b820152877f393657bca6819244b5099fc39434a68f9839dbda30aaaf13dc6bab90313d9b2d60603393a3610bcc565b8360188d8a8c8b8b7f03f5e21a75677e84382c9f010b9f5780b534bb2a966c378fa090d12ba52caa08610e856064998551918291339683909291602090604083019460070b835260030b910152565b0390a35162461bcd60e51b8152938401528201527f546f6b656e206173736f63696174696f6e206661696c656400000000000000006044820152fd5b8a80fd5b915092916015610b99565b634e487b7160e01b8352604186528d83fd5b8651600786900b815260039190910b6020820152610f7391908790339086907f03f5e21a75677e84382c9f010b9f5780b534bb2a966c378fa090d12ba52caa089080604081015b0390a35191829162461bcd60e51b8352820160609060208152601860208201527f48545320746f6b656e206d696e74696e67206661696c6564000000000000000060408201520190565b0390fd5b8251638199f5f360e01b81528690fd5b634e487b7160e01b865260118752602486fd5b815162461bcd60e51b8152808601849052601060248201526f139bc812109054881c1c9bdd9a59195960821b6044820152606490fd5b815162461bcd60e51b81528086018490526014602482015273141bdbdb081b9bdd081a5b9a5d1a585b1a5e995960621b6044820152606490fd5b5091346103aa5760203660031901126103aa57506103d3602092356115b4565b50346101da57826003193601126101da576110436114e4565b6002549060ff8216156110ae575060ff19166002557f5db9ee0a495bf2e6ff9c91a7834c1ba4fdd244a5e8aa4e537bd38aeae4b073aa60208251338152a1514281527f7218b4a8a456456c2cf5dbcd9202a02880a891c6f9dfafd90e7be5531523a03160203392a280f35b8251638dfc202b60e01b8152fd5b50346101da57826003193601126101da57602092505415159051908152f35b50503461025c578160031936011261025c576020906103d36115ff565b50503461025c578160031936011261025c576020906003549051908152f35b5090826003193601126101da5761112c6114e4565b61113461154e565b61113c611530565b815461131f57620186a034106112dc573460035534600555606434049167ffffffffffffffff831660070b907f0000000000000000000000000000000000000000000000000000000000000000906111d860018060a01b038316928551858152847fb7555d949a897acb395f95e3f2df8b700519404826bb13cd6526b756f6a1c90760203393a3848651916111d083611434565b898352611804565b5091906016810361129157508590558351600793840b8152920b60208301527f64b83944e79c3ce8d4c297411de637c3e102d064677aac0c163976ebdcd6f50e92913391907fad91542866f4da9ebed5a2b1713258f4bf970f84e7b2a0b8aab2de28d11ffffd90604090a380513481524260208201527f997f3e422a7446ccf056e7a989c8a281f20af906a7ac6ad0e6f9fea0edd6055c823392a251348152602081019290925242604083015233918060608101610599565b8551600786900b815260039190910b6020820152610f7391908690339086907f03f5e21a75677e84382c9f010b9f5780b534bb2a966c378fa090d12ba52caa08908060408101610f29565b906020606492519162461bcd60e51b8352820152601e60248201527f496e73756666696369656e7420696e697469616c206c697175696469747900006044820152fd5b906020606492519162461bcd60e51b8352820152601860248201527f506f6f6c20616c726561647920696e697469616c697a656400000000000000006044820152fd5b50503461025c578160031936011261025c5760209051620186a08152f35b8185913461025c576106a5816106b3849361139a366113f3565b630aed65f560e11b602086019081526001600160a01b03948516602487015292841660448601529216606484015260848301919091529360a4820190565b600435906001600160a01b03821682036113ee57565b600080fd5b60809060031901126113ee576001600160a01b0360043581811681036113ee579160243582811681036113ee579160443590811681036113ee579060643590565b6020810190811067ffffffffffffffff82111761145057604052565b634e487b7160e01b600052604160045260246000fd5b90601f8019910116810190811067ffffffffffffffff82111761145057604052565b67ffffffffffffffff811161145057601f01601f191660200190565b919082519283825260005b8481106114d0575050826000602080949584010152601f8019910116010190565b6020818301810151848301820152016114af565b6000546001600160a01b031633036114f857565b60405163118cdaa760e01b8152336004820152602490fd5b811561151a570490565b634e487b7160e01b600052601260045260246000fd5b60ff6002541661153c57565b60405163d93c066560e01b8152600490fd5b60026001541461155f576002600155565b604051633ee5aeb560e01b8152600490fd5b8181029291811591840414171561158457565b634e487b7160e01b600052601160045260246000fd5b9190820391821161158457565b9190820180921161158457565b6004549081156115f8576115d4916115cb91611571565b60055490611510565b601e810290808204601e1481151715611584576127106115f592049061159a565b90565b5050600090565b600454801561162a5760055490620f424091828102928184041490151715611584576115f591611510565b50600090565b6040516370a0823160e01b81526001600160a01b03918216600482015290602090829060249082907f0000000000000000000000000000000000000000000000000000000000000000165afa9081156116ed576000916116bc575b50801580156116b2575b61162a576116a96115f59160055490611571565b60045490611510565b5060045415611695565b906020823d82116116e5575b816116d560209383611466565b810103126103aa5750513861168b565b3d91506116c8565b6040513d6000823e3d90fd5b6040516370a0823160e01b81526001600160a01b03918216600482015290602090829060249082907f0000000000000000000000000000000000000000000000000000000000000000165afa9081156116ed57600091611787575b508015801561177d575b611774576117716116a960055483611571565b91565b50600090600090565b506004541561175e565b906020823d82116117b0575b816117a060209383611466565b810103126103aa57505138611754565b3d9150611793565b3d156117e3573d906117c982611488565b916117d76040519384611466565b82523d6000602084013e565b606090565b51908160030b82036113ee57565b51908160070b82036113ee57565b906040928351906020938483019363707a02cd60e11b8552608484019160018060a01b0316602485015260070b604484015260606064840152815180915260a48301908560a48260051b8601019301916000905b87838310611966575050505050918161187e60009493859403601f198101835282611466565b5190826101675af19061188f6117b8565b9160009015611946575081518201906060838284019303126113ee576118b68184016117e8565b916118c28585016117f6565b94606085015167ffffffffffffffff958682116113ee57019082603f830112156113ee5783820151958611611450578560051b9181519661190586850189611466565b875281858801938201019384116113ee5701905b82821061192f575050505091905b909160030b92565b83809161193b846117f6565b815201910190611919565b92915050519061195582611434565b808252368137601590600090611927565b806119816001939495969760a3198a820301865288516114a4565b96019201920190929161185856fea264697066735822122063effe9b1dad7ab5ad0a464d7e8505fcfe5453831fefbeaebe3ad365e2803b2164736f6c63430008140033",
  "linkReferences": {},
  "deployedLinkReferences": {}
}