{
  "_format": "hh-sol-artifact-1",
  "contractName": "ClearSkyLiquidityPool",
  "sourceName": "contracts/ClearSkyLiquidityPool.sol",
  "abi": [
    {
      "inputs": [
        {
          "internalType": "address",
          "name": "_lpToken",
          "type": "address"
        },
        {
          "internalType": "address",
          "name": "_owner",
          "type": "address"
        }
      ],
      "stateMutability": "nonpayable",
      "type": "constructor"
    },
    {
      "inputs": [],
      "name": "EnforcedPause",
      "type": "error"
    },
    {
      "inputs": [],
      "name": "ExpectedPause",
      "type": "error"
    },
    {
      "inputs": [],
      "name": "InsufficientAmount",
      "type": "error"
    },
    {
      "inputs": [],
      "name": "InsufficientInitialLiquidity",
      "type": "error"
    },
    {
      "inputs": [],
      "name": "InsufficientLPBalance",
      "type": "error"
    },
    {
      "inputs": [],
      "name": "InsufficientLiquidity",
      "type": "error"
    },
    {
      "inputs": [],
      "name": "InvalidAmounts",
      "type": "error"
    },
    {
      "inputs": [],
      "name": "NoLiquidityProvided",
      "type": "error"
    },
    {
      "inputs": [
        {
          "internalType": "address",
          "name": "owner",
          "type": "address"
        }
      ],
      "name": "OwnableInvalidOwner",
      "type": "error"
    },
    {
      "inputs": [
        {
          "internalType": "address",
          "name": "account",
          "type": "address"
        }
      ],
      "name": "OwnableUnauthorizedAccount",
      "type": "error"
    },
    {
      "inputs": [],
      "name": "PoolAlreadyInitialized",
      "type": "error"
    },
    {
      "inputs": [],
      "name": "PoolNotActive",
      "type": "error"
    },
    {
      "inputs": [],
      "name": "ReentrancyGuardReentrantCall",
      "type": "error"
    },
    {
      "inputs": [],
      "name": "SlippageExceeded",
      "type": "error"
    },
    {
      "anonymous": false,
      "inputs": [
        {
          "indexed": false,
          "internalType": "bool",
          "name": "",
          "type": "bool"
        },
        {
          "indexed": false,
          "internalType": "bytes",
          "name": "",
          "type": "bytes"
        }
      ],
      "name": "CallResponseEvent",
      "type": "event"
    },
    {
      "anonymous": false,
      "inputs": [
        {
          "indexed": true,
          "internalType": "address",
          "name": "collector",
          "type": "address"
        },
        {
          "indexed": false,
          "internalType": "uint256",
          "name": "hbarAmount",
          "type": "uint256"
        },
        {
          "indexed": false,
          "internalType": "uint256",
          "name": "timestamp",
          "type": "uint256"
        }
      ],
      "name": "FeesCollected",
      "type": "event"
    },
    {
      "anonymous": false,
      "inputs": [
        {
          "indexed": true,
          "internalType": "address",
          "name": "token",
          "type": "address"
        },
        {
          "indexed": true,
          "internalType": "address",
          "name": "to",
          "type": "address"
        },
        {
          "indexed": false,
          "internalType": "int64",
          "name": "amount",
          "type": "int64"
        }
      ],
      "name": "HTSMintAttempt",
      "type": "event"
    },
    {
      "anonymous": false,
      "inputs": [
        {
          "indexed": true,
          "internalType": "address",
          "name": "token",
          "type": "address"
        },
        {
          "indexed": true,
          "internalType": "address",
          "name": "to",
          "type": "address"
        },
        {
          "indexed": false,
          "internalType": "int64",
          "name": "amount",
          "type": "int64"
        },
        {
          "indexed": false,
          "internalType": "int32",
          "name": "responseCode",
          "type": "int32"
        }
      ],
      "name": "HTSMintFailed",
      "type": "event"
    },
    {
      "anonymous": false,
      "inputs": [
        {
          "indexed": true,
          "internalType": "address",
          "name": "token",
          "type": "address"
        },
        {
          "indexed": true,
          "internalType": "address",
          "name": "to",
          "type": "address"
        },
        {
          "indexed": false,
          "internalType": "int64",
          "name": "amount",
          "type": "int64"
        },
        {
          "indexed": false,
          "internalType": "int64",
          "name": "newTotalSupply",
          "type": "int64"
        }
      ],
      "name": "HTSMintSuccess",
      "type": "event"
    },
    {
      "anonymous": false,
      "inputs": [
        {
          "indexed": true,
          "internalType": "address",
          "name": "user",
          "type": "address"
        },
        {
          "indexed": false,
          "internalType": "uint256",
          "name": "hbarAmount",
          "type": "uint256"
        },
        {
          "indexed": false,
          "internalType": "uint256",
          "name": "lpTokensMinted",
          "type": "uint256"
        },
        {
          "indexed": false,
          "internalType": "uint256",
          "name": "timestamp",
          "type": "uint256"
        }
      ],
      "name": "LiquidityAdded",
      "type": "event"
    },
    {
      "anonymous": false,
      "inputs": [
        {
          "indexed": true,
          "internalType": "address",
          "name": "user",
          "type": "address"
        },
        {
          "indexed": false,
          "internalType": "uint256",
          "name": "hbarAmount",
          "type": "uint256"
        },
        {
          "indexed": false,
          "internalType": "uint256",
          "name": "lpTokensBurned",
          "type": "uint256"
        },
        {
          "indexed": false,
          "internalType": "uint256",
          "name": "timestamp",
          "type": "uint256"
        }
      ],
      "name": "LiquidityRemoved",
      "type": "event"
    },
    {
      "anonymous": false,
      "inputs": [
        {
          "indexed": true,
          "internalType": "address",
          "name": "previousOwner",
          "type": "address"
        },
        {
          "indexed": true,
          "internalType": "address",
          "name": "newOwner",
          "type": "address"
        }
      ],
      "name": "OwnershipTransferred",
      "type": "event"
    },
    {
      "anonymous": false,
      "inputs": [
        {
          "indexed": false,
          "internalType": "address",
          "name": "account",
          "type": "address"
        }
      ],
      "name": "Paused",
      "type": "event"
    },
    {
      "anonymous": false,
      "inputs": [
        {
          "indexed": true,
          "internalType": "address",
          "name": "initializer",
          "type": "address"
        },
        {
          "indexed": false,
          "internalType": "uint256",
          "name": "hbarAmount",
          "type": "uint256"
        },
        {
          "indexed": false,
          "internalType": "uint256",
          "name": "timestamp",
          "type": "uint256"
        }
      ],
      "name": "PoolInitialized",
      "type": "event"
    },
    {
      "anonymous": false,
      "inputs": [
        {
          "indexed": true,
          "internalType": "address",
          "name": "pauser",
          "type": "address"
        },
        {
          "indexed": false,
          "internalType": "uint256",
          "name": "timestamp",
          "type": "uint256"
        }
      ],
      "name": "PoolPaused",
      "type": "event"
    },
    {
      "anonymous": false,
      "inputs": [
        {
          "indexed": true,
          "internalType": "address",
          "name": "unpauser",
          "type": "address"
        },
        {
          "indexed": false,
          "internalType": "uint256",
          "name": "timestamp",
          "type": "uint256"
        }
      ],
      "name": "PoolUnpaused",
      "type": "event"
    },
    {
      "anonymous": false,
      "inputs": [
        {
          "indexed": false,
          "internalType": "address",
          "name": "account",
          "type": "address"
        }
      ],
      "name": "Unpaused",
      "type": "event"
    },
    {
      "inputs": [],
      "name": "FEE_BPS",
      "outputs": [
        {
          "internalType": "uint256",
          "name": "",
          "type": "uint256"
        }
      ],
      "stateMutability": "view",
      "type": "function"
    },
    {
      "inputs": [],
      "name": "FEE_DENOMINATOR",
      "outputs": [
        {
          "internalType": "uint256",
          "name": "",
          "type": "uint256"
        }
      ],
      "stateMutability": "view",
      "type": "function"
    },
    {
      "inputs": [],
      "name": "MIN_LIQUIDITY",
      "outputs": [
        {
          "internalType": "uint256",
          "name": "",
          "type": "uint256"
        }
      ],
      "stateMutability": "view",
      "type": "function"
    },
    {
      "inputs": [
        {
          "internalType": "uint256",
          "name": "minLPTokens",
          "type": "uint256"
        }
      ],
      "name": "addLiquidity",
      "outputs": [],
      "stateMutability": "payable",
      "type": "function"
    },
    {
      "inputs": [
        {
          "internalType": "uint256",
          "name": "hbarAmount",
          "type": "uint256"
        }
      ],
      "name": "calculateLPTokens",
      "outputs": [
        {
          "internalType": "uint256",
          "name": "lpTokens",
          "type": "uint256"
        }
      ],
      "stateMutability": "view",
      "type": "function"
    },
    {
      "inputs": [],
      "name": "collectFees",
      "outputs": [],
      "stateMutability": "nonpayable",
      "type": "function"
    },
    {
      "inputs": [],
      "name": "emergencyWithdraw",
      "outputs": [],
      "stateMutability": "nonpayable",
      "type": "function"
    },
    {
      "inputs": [],
      "name": "getPoolInfo",
      "outputs": [
        {
          "internalType": "uint256",
          "name": "hbarBalance",
          "type": "uint256"
        },
        {
          "internalType": "uint256",
          "name": "lpTokenSupply",
          "type": "uint256"
        },
        {
          "internalType": "uint256",
          "name": "totalPoolValue",
          "type": "uint256"
        }
      ],
      "stateMutability": "view",
      "type": "function"
    },
    {
      "inputs": [
        {
          "internalType": "address",
          "name": "user",
          "type": "address"
        }
      ],
      "name": "getUserShare",
      "outputs": [
        {
          "internalType": "uint256",
          "name": "hbarShare",
          "type": "uint256"
        },
        {
          "internalType": "uint256",
          "name": "lpBalance",
          "type": "uint256"
        }
      ],
      "stateMutability": "view",
      "type": "function"
    },
    {
      "inputs": [
        {
          "internalType": "address",
          "name": "user",
          "type": "address"
        }
      ],
      "name": "getUserValue",
      "outputs": [
        {
          "internalType": "uint256",
          "name": "userValue",
          "type": "uint256"
        }
      ],
      "stateMutability": "view",
      "type": "function"
    },
    {
      "inputs": [],
      "name": "getValuePerLPToken",
      "outputs": [
        {
          "internalType": "uint256",
          "name": "valuePerToken",
          "type": "uint256"
        }
      ],
      "stateMutability": "view",
      "type": "function"
    },
    {
      "inputs": [],
      "name": "initializePool",
      "outputs": [],
      "stateMutability": "payable",
      "type": "function"
    },
    {
      "inputs": [],
      "name": "isInitialized",
      "outputs": [
        {
          "internalType": "bool",
          "name": "initialized",
          "type": "bool"
        }
      ],
      "stateMutability": "view",
      "type": "function"
    },
    {
      "inputs": [],
      "name": "lpToken",
      "outputs": [
        {
          "internalType": "address",
          "name": "",
          "type": "address"
        }
      ],
      "stateMutability": "view",
      "type": "function"
    },
    {
      "inputs": [],
      "name": "owner",
      "outputs": [
        {
          "internalType": "address",
          "name": "",
          "type": "address"
        }
      ],
      "stateMutability": "view",
      "type": "function"
    },
    {
      "inputs": [],
      "name": "pause",
      "outputs": [],
      "stateMutability": "nonpayable",
      "type": "function"
    },
    {
      "inputs": [],
      "name": "paused",
      "outputs": [
        {
          "internalType": "bool",
          "name": "",
          "type": "bool"
        }
      ],
      "stateMutability": "view",
      "type": "function"
    },
    {
      "inputs": [
        {
          "internalType": "address",
          "name": "token",
          "type": "address"
        },
        {
          "internalType": "bytes",
          "name": "encodedFunctionSelector",
          "type": "bytes"
        }
      ],
      "name": "redirectForToken",
      "outputs": [
        {
          "internalType": "int256",
          "name": "responseCode",
          "type": "int256"
        },
        {
          "internalType": "bytes",
          "name": "response",
          "type": "bytes"
        }
      ],
      "stateMutability": "nonpayable",
      "type": "function"
    },
    {
      "inputs": [
        {
          "internalType": "uint256",
          "name": "lpTokens",
          "type": "uint256"
        },
        {
          "internalType": "uint256",
          "name": "minHBAR",
          "type": "uint256"
        }
      ],
      "name": "removeLiquidity",
      "outputs": [],
      "stateMutability": "nonpayable",
      "type": "function"
    },
    {
      "inputs": [],
      "name": "renounceOwnership",
      "outputs": [],
      "stateMutability": "nonpayable",
      "type": "function"
    },
    {
      "inputs": [],
      "name": "totalHBAR",
      "outputs": [
        {
          "internalType": "uint256",
          "name": "",
          "type": "uint256"
        }
      ],
      "stateMutability": "view",
      "type": "function"
    },
    {
      "inputs": [],
      "name": "totalLPTokens",
      "outputs": [
        {
          "internalType": "uint256",
          "name": "",
          "type": "uint256"
        }
      ],
      "stateMutability": "view",
      "type": "function"
    },
    {
      "inputs": [],
      "name": "totalValue",
      "outputs": [
        {
          "internalType": "uint256",
          "name": "",
          "type": "uint256"
        }
      ],
      "stateMutability": "view",
      "type": "function"
    },
    {
      "inputs": [
        {
          "internalType": "address",
          "name": "token",
          "type": "address"
        },
        {
          "internalType": "address",
          "name": "from",
          "type": "address"
        },
        {
          "internalType": "address",
          "name": "to",
          "type": "address"
        },
        {
          "internalType": "uint256",
          "name": "amount",
          "type": "uint256"
        }
      ],
      "name": "transferFrom",
      "outputs": [
        {
          "internalType": "int64",
          "name": "responseCode",
          "type": "int64"
        }
      ],
      "stateMutability": "nonpayable",
      "type": "function"
    },
    {
      "inputs": [
        {
          "internalType": "address",
          "name": "token",
          "type": "address"
        },
        {
          "internalType": "address",
          "name": "from",
          "type": "address"
        },
        {
          "internalType": "address",
          "name": "to",
          "type": "address"
        },
        {
          "internalType": "uint256",
          "name": "serialNumber",
          "type": "uint256"
        }
      ],
      "name": "transferFromNFT",
      "outputs": [
        {
          "internalType": "int64",
          "name": "responseCode",
          "type": "int64"
        }
      ],
      "stateMutability": "nonpayable",
      "type": "function"
    },
    {
      "inputs": [
        {
          "internalType": "address",
          "name": "newOwner",
          "type": "address"
        }
      ],
      "name": "transferOwnership",
      "outputs": [],
      "stateMutability": "nonpayable",
      "type": "function"
    },
    {
      "inputs": [],
      "name": "unpause",
      "outputs": [],
      "stateMutability": "nonpayable",
      "type": "function"
    },
    {
      "stateMutability": "payable",
      "type": "receive"
    }
  ],
  "bytecode": "0x60a03461014d57601f6200179d38819003918201601f19168301916001600160401b0383118484101761015257808492604094855283398101031261014d57602061004982610168565b916001600160a01b0391829161005f9101610168565b1690811561013457600080546001600160a01b03198116841782556040519391908316907f8be0079c531659141344cd1fd0a4f28419497f9722a3daafe3b4186f6b6457e09080a3600180558216156100f2575060805260405161162090816200017d823960805181818161044e0152818161099901528181610a8801528181610e18015281816112b5015261137e0152f35b62461bcd60e51b815260206004820152601860248201527f496e76616c6964204c5020746f6b656e206164647265737300000000000000006044820152606490fd5b604051631e4fbdf760e01b815260006004820152602490fd5b600080fd5b634e487b7160e01b600052604160045260246000fd5b51906001600160a01b038216820361014d5756fe60806040818152600480361015610021575b505050361561001f57600080fd5b005b60009283803560e01c91826315dacbea14610fdb575050806321b77d6314610fbd578063250e6de014610dc55780632899943714610da65780632fb9125d14610d89578063392e53cd14610d6a5780633f4ba83a14610cd857806342c649de14610cb857806351c6590a146109ec5780635c975abb146109c85780635fcbd2851461098457806360246c8814610952578063618dc65e14610804578063715018a6146107aa5780638456cb59146107255780638da5cb5b146106fd5780639b23d3d91461064a5780639d7de6b3146103da578063a78c849b146103ad578063bbbaee4c1461037a578063bf333f2c1461035e578063c87965721461029c578063d4c3eea01461027d578063d73792a914610260578063db2e21bc146101fb578063ef6283d9146101de5763f2fde38b0361001157346101da5760203660031901126101da5761016e611033565b9061017761113f565b6001600160a01b039182169283156101c457505082546001600160a01b0319811683178455167f8be0079c531659141344cd1fd0a4f28419497f9722a3daafe3b4186f6b6457e08380a380f35b51631e4fbdf760e01b8152908101849052602490fd5b8280fd5b50346101da57826003193601126101da5760209250549051908152f35b50503461025c578160031936011261025c5761021561113f565b81478015908115610224578280f35b82809291819260018060a01b03835416908390610253575bf115610249578181808280f35b51903d90823e3d90fd5b506108fc61023c565b5080fd5b50503461025c578160031936011261025c57602090516127108152f35b50503461025c578160031936011261025c576020906005549051908152f35b50346101da57826003193601126101da576102b561113f565b60035490601e820291808304601e149015171561034b5750612710900490811580156102df578380f35b838080808660018060a01b039586835416908390610342575bf11561033857907f2e4fb6077d4acf86e12bb7411fb82b2b3eaa6a49787f4b1e17b423e7ea84116991845416928151908152426020820152a23880808380f35b81513d85823e3d90fd5b506108fc6102f8565b634e487b7160e01b845260119052602483fd5b50503461025c578160031936011261025c5760209051601e8152f35b8284346103aa5760203660031901126103aa575061039e610399611033565b611354565b82519182526020820152f35b80fd5b50503461025c57602036600319011261025c576020906103d36103ce611033565b61128b565b9051908152f35b50346101da57816003193601126101da578035916103f66111a9565b6103fe61118b565b821561063d57815480841161062f576104229061041d600554866111cc565b61116b565b9160243583106106215781516104378161108f565b8581528251636b48868360e11b60208083019182527f00000000000000000000000000000000000000000000000000000000000000006001600160a01b0316602484015267ffffffffffffffff8816600790810b604485015260606064850152845160848501819052919460a48501948b949390929187019185905b888383106106045750505050506104d481849503601f1981018352826110c1565b5190826101675af16104e4611413565b90156105fa5783818051810103126105f6578061050f856105088560169501611443565b9201611451565b505b60030b036105b657506105258482546111f5565b9055610533826003546111f5565b600355610542826005546111f5565b60055583808380156105ac575b8280929181923390f1156105a35751908152602081019190915242604082015233907f1dc8bb69df2b8e91fbdcbfcf93d951b3f0000f085a95fe3f7946d6161439245d9080606081015b0390a26001805580f35b513d84823e3d90fd5b6108fc915061054f565b606492519162461bcd60e51b8352820152601860248201527f48545320746f6b656e206275726e696e67206661696c656400000000000000006044820152fd5b8680fd5b5060166015610511565b8451820b8952978801978e975090930192600191909101906104b3565b9051638199f5f360e01b8152fd5b50516384b8f6a160e01b8152fd5b51636c2b7e2d60e11b8152fd5b50503461025c5781806106b36106a56106623661104e565b8851639b23d3d960e01b602082019081526001600160a01b03958616602483015293851660448201529390911660648401526084830152929091829060a4820190565b03601f1981018352826110c1565b5190826101675af1916106c4611413565b92156106f0576020838051810103126103aa57506106e56020809301611443565b905b519060030b8152f35b50602091506015906106e7565b50503461025c578160031936011261025c57905490516001600160a01b039091168152602090f35b50503461025c578160031936011261025c5761073f61113f565b61074761118b565b600160ff1960025416176002557f62e78cea01bee320cd4e420270b5ea74000d11b0c9f74754ebdbfc544b05a25860208251338152a1514281527fdeccd871bd16197ce3d021a73302372354d5cd2b5c3f57065638c772bf5a7c2860203392a280f35b83346103aa57806003193601126103aa576107c361113f565b80546001600160a01b03198116825581906001600160a01b03167f8be0079c531659141344cd1fd0a4f28419497f9722a3daafe3b4186f6b6457e08280a380f35b5082903461025c578260031936011261025c5761081f611033565b906024359067ffffffffffffffff821161094e573660238301121561094e5781013561084a816110e3565b91610857865193846110c1565b818352366024838301011161094a576108b78594929385602086829760246106a59701838601378301015287516330c6e32f60e11b602082019081526001600160a01b0390951660248201526044810189905292839160648301906110ff565b5190826101675af1906108c8611413565b917f4af4780e06fe8cb9df64b0794fa6f01399af979175bb988e35e0e57e594567bc8451821515815285602082015280610904878201876110ff565b0390a115610930575061092c6016915b835193849360030b84528060208501528301906110ff565b0390f35b8251915061093d8261108f565b815261092c601591610914565b8480fd5b8380fd5b5082346103aa57806003193601126103aa57506003549054600554925191825260208201526040810191909152606090f35b50503461025c578160031936011261025c57517f00000000000000000000000000000000000000000000000000000000000000006001600160a01b03168152602090f35b50503461025c578160031936011261025c5760209060ff6002541690519015158152f35b509060203660031901126101da57610a026111a9565b610a0a61118b565b81548015610c7e573415610c4857610a2290346111cc565b91610a30600554809461116b565b601e8102818104601e1482151715610c355790612710610a519204906111f5565b9281358410610c2657610a7490610a6a34600354611202565b6003553490611202565b60055567ffffffffffffffff831660070b907f000000000000000000000000000000000000000000000000000000000000000090610af660018060a01b038316928551858152847fb7555d949a897acb395f95e3f2df8b700519404826bb13cd6526b756f6a1c90760203393a384865191610aee8361108f565b89835261145f565b50919060168103610b965750610b757f64b83944e79c3ce8d4c297411de637c3e102d064677aac0c163976ebdcd6f50e9594939282610b57897fad91542866f4da9ebed5a2b1713258f4bf970f84e7b2a0b8aab2de28d11ffffd9554611202565b90558551600795860b8152940b602085015233939081906040820190565b0390a351348152602081019290925242604083015233918060608101610599565b8551600786900b815260039190910b6020820152610c2291908690339086907f03f5e21a75677e84382c9f010b9f5780b534bb2a966c378fa090d12ba52caa0890604090a35191829162461bcd60e51b8352820160609060208152601860208201527f48545320746f6b656e206d696e74696e67206661696c6564000000000000000060408201520190565b0390fd5b509051638199f5f360e01b8152fd5b634e487b7160e01b865260118352602486fd5b815162461bcd60e51b8152602081850152601060248201526f139bc812109054881c1c9bdd9a59195960821b6044820152606490fd5b815162461bcd60e51b81526020818501526014602482015273141bdbdb081b9bdd081a5b9a5d1a585b1a5e995960621b6044820152606490fd5b5091346103aa5760203660031901126103aa57506103d36020923561120f565b50346101da57826003193601126101da57610cf161113f565b6002549060ff821615610d5c575060ff19166002557f5db9ee0a495bf2e6ff9c91a7834c1ba4fdd244a5e8aa4e537bd38aeae4b073aa60208251338152a1514281527f7218b4a8a456456c2cf5dbcd9202a02880a891c6f9dfafd90e7be5531523a03160203392a280f35b8251638dfc202b60e01b8152fd5b50346101da57826003193601126101da57602092505415159051908152f35b50503461025c578160031936011261025c576020906103d361125a565b50503461025c578160031936011261025c576020906003549051908152f35b5090826003193601126101da57610dda61113f565b610de26111a9565b610dea61118b565b8154610f7a57620186a03410610f37573460035534600555606434049167ffffffffffffffff831660070b907f000000000000000000000000000000000000000000000000000000000000000090610e7e60018060a01b038316928551858152847fb7555d949a897acb395f95e3f2df8b700519404826bb13cd6526b756f6a1c90760203393a384865191610aee8361108f565b50919060168103610b9657508590558351600793840b8152920b60208301527f64b83944e79c3ce8d4c297411de637c3e102d064677aac0c163976ebdcd6f50e92913391907fad91542866f4da9ebed5a2b1713258f4bf970f84e7b2a0b8aab2de28d11ffffd90604090a380513481524260208201527f997f3e422a7446ccf056e7a989c8a281f20af906a7ac6ad0e6f9fea0edd6055c823392a251348152602081019290925242604083015233918060608101610599565b906020606492519162461bcd60e51b8352820152601e60248201527f496e73756666696369656e7420696e697469616c206c697175696469747900006044820152fd5b906020606492519162461bcd60e51b8352820152601860248201527f506f6f6c20616c726561647920696e697469616c697a656400000000000000006044820152fd5b50503461025c578160031936011261025c5760209051620186a08152f35b8185913461025c576106a5816106b38493610ff53661104e565b630aed65f560e11b602086019081526001600160a01b03948516602487015292841660448601529216606484015260848301919091529360a4820190565b600435906001600160a01b038216820361104957565b600080fd5b6080906003190112611049576001600160a01b0360043581811681036110495791602435828116810361104957916044359081168103611049579060643590565b6020810190811067ffffffffffffffff8211176110ab57604052565b634e487b7160e01b600052604160045260246000fd5b90601f8019910116810190811067ffffffffffffffff8211176110ab57604052565b67ffffffffffffffff81116110ab57601f01601f191660200190565b919082519283825260005b84811061112b575050826000602080949584010152601f8019910116010190565b60208183018101518483018201520161110a565b6000546001600160a01b0316330361115357565b60405163118cdaa760e01b8152336004820152602490fd5b8115611175570490565b634e487b7160e01b600052601260045260246000fd5b60ff6002541661119757565b60405163d93c066560e01b8152600490fd5b6002600154146111ba576002600155565b604051633ee5aeb560e01b8152600490fd5b818102929181159184041417156111df57565b634e487b7160e01b600052601160045260246000fd5b919082039182116111df57565b919082018092116111df57565b6004549081156112535761122f91611226916111cc565b6005549061116b565b601e810290808204601e14811517156111df576127106112509204906111f5565b90565b5050600090565b60045480156112855760055490620f4240918281029281840414901517156111df576112509161116b565b50600090565b6040516370a0823160e01b81526001600160a01b03918216600482015290602090829060249082907f0000000000000000000000000000000000000000000000000000000000000000165afa90811561134857600091611317575b508015801561130d575b6112855761130461125091600554906111cc565b6004549061116b565b50600454156112f0565b906020823d8211611340575b81611330602093836110c1565b810103126103aa575051386112e6565b3d9150611323565b6040513d6000823e3d90fd5b6040516370a0823160e01b81526001600160a01b03918216600482015290602090829060249082907f0000000000000000000000000000000000000000000000000000000000000000165afa908115611348576000916113e2575b50801580156113d8575b6113cf576113cc611304600554836111cc565b91565b50600090600090565b50600454156113b9565b906020823d821161140b575b816113fb602093836110c1565b810103126103aa575051386113af565b3d91506113ee565b3d1561143e573d90611424826110e3565b9161143260405193846110c1565b82523d6000602084013e565b606090565b51908160030b820361104957565b51908160070b820361104957565b906040928351906020938483019363707a02cd60e11b8552608484019160018060a01b0316602485015260070b604484015260606064840152815180915260a48301908560a48260051b8601019301916000905b878383106115c157505050505091816114d960009493859403601f1981018352826110c1565b5190826101675af1906114ea611413565b91600090156115a15750815182019060608382840193031261104957611511818401611443565b9161151d858501611451565b94606085015167ffffffffffffffff9586821161104957019082603f8301121561104957838201519586116110ab578560051b91815196611560868501896110c1565b875281858801938201019384116110495701905b82821061158a575050505091905b909160030b92565b83809161159684611451565b815201910190611574565b9291505051906115b08261108f565b808252368137601590600090611582565b806115dc6001939495969760a3198a820301865288516110ff565b9601920192019092916114b356fea2646970667358221220b27151d7af1a86f4c285c4757b74dc61a2be6355e4efa8ac3d3b744411ecb18d64736f6c63430008140033",
  "linkReferences": {},
  "deployedLinkReferences": {}
}