{
  "_format": "hh-sol-artifact-1",
  "contractName": "ClearSkyLiquidityPool",
  "sourceName": "contracts/ClearSkyLiquidityPool.sol",
  "abi": [
    {
      "inputs": [
        {
          "internalType": "address",
          "name": "_usdcToken",
          "type": "address"
        },
        {
          "internalType": "address",
          "name": "_lpToken",
          "type": "address"
        },
        {
          "internalType": "address",
          "name": "_owner",
          "type": "address"
        }
      ],
      "stateMutability": "nonpayable",
      "type": "constructor"
    },
    {
      "inputs": [],
      "name": "EnforcedPause",
      "type": "error"
    },
    {
      "inputs": [],
      "name": "ExpectedPause",
      "type": "error"
    },
    {
      "inputs": [],
      "name": "InsufficientAmount",
      "type": "error"
    },
    {
      "inputs": [],
      "name": "InsufficientLPBalance",
      "type": "error"
    },
    {
      "inputs": [],
      "name": "InsufficientLiquidity",
      "type": "error"
    },
    {
      "inputs": [],
      "name": "InvalidAmounts",
      "type": "error"
    },
    {
      "inputs": [
        {
          "internalType": "address",
          "name": "owner",
          "type": "address"
        }
      ],
      "name": "OwnableInvalidOwner",
      "type": "error"
    },
    {
      "inputs": [
        {
          "internalType": "address",
          "name": "account",
          "type": "address"
        }
      ],
      "name": "OwnableUnauthorizedAccount",
      "type": "error"
    },
    {
      "inputs": [],
      "name": "PoolNotActive",
      "type": "error"
    },
    {
      "inputs": [],
      "name": "ReentrancyGuardReentrantCall",
      "type": "error"
    },
    {
      "inputs": [],
      "name": "SlippageExceeded",
      "type": "error"
    },
    {
      "anonymous": false,
      "inputs": [
        {
          "indexed": true,
          "internalType": "address",
          "name": "collector",
          "type": "address"
        },
        {
          "indexed": false,
          "internalType": "uint256",
          "name": "usdcAmount",
          "type": "uint256"
        },
        {
          "indexed": false,
          "internalType": "uint256",
          "name": "hbarAmount",
          "type": "uint256"
        },
        {
          "indexed": false,
          "internalType": "uint256",
          "name": "timestamp",
          "type": "uint256"
        }
      ],
      "name": "FeesCollected",
      "type": "event"
    },
    {
      "anonymous": false,
      "inputs": [
        {
          "indexed": true,
          "internalType": "address",
          "name": "user",
          "type": "address"
        },
        {
          "indexed": false,
          "internalType": "uint256",
          "name": "usdcAmount",
          "type": "uint256"
        },
        {
          "indexed": false,
          "internalType": "uint256",
          "name": "hbarAmount",
          "type": "uint256"
        },
        {
          "indexed": false,
          "internalType": "uint256",
          "name": "lpTokensMinted",
          "type": "uint256"
        },
        {
          "indexed": false,
          "internalType": "uint256",
          "name": "timestamp",
          "type": "uint256"
        }
      ],
      "name": "LiquidityAdded",
      "type": "event"
    },
    {
      "anonymous": false,
      "inputs": [
        {
          "indexed": true,
          "internalType": "address",
          "name": "user",
          "type": "address"
        },
        {
          "indexed": false,
          "internalType": "uint256",
          "name": "usdcAmount",
          "type": "uint256"
        },
        {
          "indexed": false,
          "internalType": "uint256",
          "name": "hbarAmount",
          "type": "uint256"
        },
        {
          "indexed": false,
          "internalType": "uint256",
          "name": "lpTokensBurned",
          "type": "uint256"
        },
        {
          "indexed": false,
          "internalType": "uint256",
          "name": "timestamp",
          "type": "uint256"
        }
      ],
      "name": "LiquidityRemoved",
      "type": "event"
    },
    {
      "anonymous": false,
      "inputs": [
        {
          "indexed": true,
          "internalType": "address",
          "name": "previousOwner",
          "type": "address"
        },
        {
          "indexed": true,
          "internalType": "address",
          "name": "newOwner",
          "type": "address"
        }
      ],
      "name": "OwnershipTransferred",
      "type": "event"
    },
    {
      "anonymous": false,
      "inputs": [
        {
          "indexed": false,
          "internalType": "address",
          "name": "account",
          "type": "address"
        }
      ],
      "name": "Paused",
      "type": "event"
    },
    {
      "anonymous": false,
      "inputs": [
        {
          "indexed": true,
          "internalType": "address",
          "name": "pauser",
          "type": "address"
        },
        {
          "indexed": false,
          "internalType": "uint256",
          "name": "timestamp",
          "type": "uint256"
        }
      ],
      "name": "PoolPaused",
      "type": "event"
    },
    {
      "anonymous": false,
      "inputs": [
        {
          "indexed": true,
          "internalType": "address",
          "name": "unpauser",
          "type": "address"
        },
        {
          "indexed": false,
          "internalType": "uint256",
          "name": "timestamp",
          "type": "uint256"
        }
      ],
      "name": "PoolUnpaused",
      "type": "event"
    },
    {
      "anonymous": false,
      "inputs": [
        {
          "indexed": false,
          "internalType": "address",
          "name": "account",
          "type": "address"
        }
      ],
      "name": "Unpaused",
      "type": "event"
    },
    {
      "inputs": [],
      "name": "FEE_BPS",
      "outputs": [
        {
          "internalType": "uint256",
          "name": "",
          "type": "uint256"
        }
      ],
      "stateMutability": "view",
      "type": "function"
    },
    {
      "inputs": [],
      "name": "FEE_DENOMINATOR",
      "outputs": [
        {
          "internalType": "uint256",
          "name": "",
          "type": "uint256"
        }
      ],
      "stateMutability": "view",
      "type": "function"
    },
    {
      "inputs": [],
      "name": "MIN_LIQUIDITY",
      "outputs": [
        {
          "internalType": "uint256",
          "name": "",
          "type": "uint256"
        }
      ],
      "stateMutability": "view",
      "type": "function"
    },
    {
      "inputs": [
        {
          "internalType": "uint256",
          "name": "usdcAmount",
          "type": "uint256"
        },
        {
          "internalType": "uint256",
          "name": "minLPTokens",
          "type": "uint256"
        }
      ],
      "name": "addLiquidity",
      "outputs": [],
      "stateMutability": "payable",
      "type": "function"
    },
    {
      "inputs": [
        {
          "internalType": "uint256",
          "name": "usdcAmount",
          "type": "uint256"
        },
        {
          "internalType": "uint256",
          "name": "hbarAmount",
          "type": "uint256"
        }
      ],
      "name": "calculateLPTokens",
      "outputs": [
        {
          "internalType": "uint256",
          "name": "lpTokens",
          "type": "uint256"
        }
      ],
      "stateMutability": "view",
      "type": "function"
    },
    {
      "inputs": [],
      "name": "collectFees",
      "outputs": [],
      "stateMutability": "nonpayable",
      "type": "function"
    },
    {
      "inputs": [],
      "name": "emergencyWithdraw",
      "outputs": [],
      "stateMutability": "nonpayable",
      "type": "function"
    },
    {
      "inputs": [],
      "name": "getPoolRatio",
      "outputs": [
        {
          "internalType": "uint256",
          "name": "usdcRatio",
          "type": "uint256"
        },
        {
          "internalType": "uint256",
          "name": "hbarRatio",
          "type": "uint256"
        }
      ],
      "stateMutability": "view",
      "type": "function"
    },
    {
      "inputs": [
        {
          "internalType": "address",
          "name": "user",
          "type": "address"
        }
      ],
      "name": "getUserShare",
      "outputs": [
        {
          "internalType": "uint256",
          "name": "usdcShare",
          "type": "uint256"
        },
        {
          "internalType": "uint256",
          "name": "hbarShare",
          "type": "uint256"
        },
        {
          "internalType": "uint256",
          "name": "lpBalance",
          "type": "uint256"
        }
      ],
      "stateMutability": "view",
      "type": "function"
    },
    {
      "inputs": [],
      "name": "lpToken",
      "outputs": [
        {
          "internalType": "address",
          "name": "",
          "type": "address"
        }
      ],
      "stateMutability": "view",
      "type": "function"
    },
    {
      "inputs": [],
      "name": "owner",
      "outputs": [
        {
          "internalType": "address",
          "name": "",
          "type": "address"
        }
      ],
      "stateMutability": "view",
      "type": "function"
    },
    {
      "inputs": [],
      "name": "pause",
      "outputs": [],
      "stateMutability": "nonpayable",
      "type": "function"
    },
    {
      "inputs": [],
      "name": "paused",
      "outputs": [
        {
          "internalType": "bool",
          "name": "",
          "type": "bool"
        }
      ],
      "stateMutability": "view",
      "type": "function"
    },
    {
      "inputs": [
        {
          "internalType": "uint256",
          "name": "lpTokens",
          "type": "uint256"
        },
        {
          "internalType": "uint256",
          "name": "minUSDC",
          "type": "uint256"
        },
        {
          "internalType": "uint256",
          "name": "minHBAR",
          "type": "uint256"
        }
      ],
      "name": "removeLiquidity",
      "outputs": [],
      "stateMutability": "nonpayable",
      "type": "function"
    },
    {
      "inputs": [],
      "name": "renounceOwnership",
      "outputs": [],
      "stateMutability": "nonpayable",
      "type": "function"
    },
    {
      "inputs": [],
      "name": "totalHBAR",
      "outputs": [
        {
          "internalType": "uint256",
          "name": "",
          "type": "uint256"
        }
      ],
      "stateMutability": "view",
      "type": "function"
    },
    {
      "inputs": [],
      "name": "totalLPTokens",
      "outputs": [
        {
          "internalType": "uint256",
          "name": "",
          "type": "uint256"
        }
      ],
      "stateMutability": "view",
      "type": "function"
    },
    {
      "inputs": [],
      "name": "totalUSDC",
      "outputs": [
        {
          "internalType": "uint256",
          "name": "",
          "type": "uint256"
        }
      ],
      "stateMutability": "view",
      "type": "function"
    },
    {
      "inputs": [
        {
          "internalType": "address",
          "name": "newOwner",
          "type": "address"
        }
      ],
      "name": "transferOwnership",
      "outputs": [],
      "stateMutability": "nonpayable",
      "type": "function"
    },
    {
      "inputs": [],
      "name": "unpause",
      "outputs": [],
      "stateMutability": "nonpayable",
      "type": "function"
    },
    {
      "inputs": [],
      "name": "usdcToken",
      "outputs": [
        {
          "internalType": "address",
          "name": "",
          "type": "address"
        }
      ],
      "stateMutability": "view",
      "type": "function"
    },
    {
      "stateMutability": "payable",
      "type": "receive"
    }
  ],
  "bytecode": "0x60c0346101bc57601f61124c38819003918201601f191683019291906001600160401b038411838510176101c15781606092849260409687528339810103126101bc5761004b816101d7565b82610058602084016101d7565b926001600160a01b0391829161006e91016101d7565b1680156101a457600080546001600160a01b031981168317825586519291908416907f8be0079c531659141344cd1fd0a4f28419497f9722a3daafe3b4186f6b6457e09080a36001805581831615610162575082161561011e5760805260a0525161106090816101ec823960805181818161020c01528181610498015281816105e3015281816108dc0152610c9e015260a0518181816106270152818161081601528181610b000152610f6b0152f35b825162461bcd60e51b815260206004820152601860248201527f496e76616c6964204c5020746f6b656e206164647265737300000000000000006044820152606490fd5b62461bcd60e51b815260206004820152601460248201527f496e76616c6964205553444320616464726573730000000000000000000000006044820152606490fd5b8451631e4fbdf760e01b815260006004820152602490fd5b600080fd5b634e487b7160e01b600052604160045260246000fd5b51906001600160a01b03821682036101bc5756fe6080604081815260049081361015610022575b505050361561002057600080fd5b005b600092833560e01c90816311eac85514610c8a575080631dec151514610c6b57806321b77d6314610c4e5780632899943714610c3057806328f09b7114610c095780632ac564f514610be65780633f4ba83a14610b535780635c975abb14610b2f5780635fcbd28514610aeb578063715018a614610a915780638456cb5914610a0c578063857620e1146107a05780638da5cb5b146107785780639cd441da1461058b578063bbbaee4c14610536578063bf333f2c1461051a578063c879657214610373578063d73792a91461035657838163db2e21bc146101d157508063ef6283d9146101ae5763f2fde38b0361001257346101aa5760203660031901126101aa576001600160a01b038235818116939192908490036101a657610145610ce3565b8315610190575050600054826bffffffffffffffffffffffff60a01b821617600055167f8be0079c531659141344cd1fd0a4f28419497f9722a3daafe3b4186f6b6457e0600080a380f35b51631e4fbdf760e01b8152908101849052602490fd5b8480fd5b8280fd5b8382346101cd57816003193601126101cd576020906005549051908152f35b5080fd5b828185346101cd57816003193601126101cd576101ec610ce3565b82516370a0823160e01b81523081830152906001600160a01b03906020907f00000000000000000000000000000000000000000000000000000000000000008316908285602481855afa94851561034c578695610315575b50479480610290575b50505050811590811561025e578380f35b839283928392835416908390610287575bf11561027d57818180808380f35b51903d90823e3d90fd5b506108fc61026f565b8654885163a9059cbb60e01b81529086166001600160a01b0316928101928352602083019190915291839183919082908990829060400103925af1801561030b576102dd575b808061024d565b816102fc92903d10610304575b6102f48183610d39565b810190610d5b565b5085806102d6565b503d6102ea565b86513d87823e3d90fd5b955093508185813d8111610345575b61032e8183610d39565b81010312610340578694519388610244565b600080fd5b503d610324565b87513d88823e3d90fd5b8382346101cd57816003193601126101cd57602090516127108152f35b5090346101aa57826003193601126101aa5761038d610ce3565b600354601e810290808204601e149015171561050757612710809104908254601e810290808204601e14901517156104f457049181908161045e575b50508382158015610421575b50508354925190815260208101919091524260408201526001600160a01b03909116907facf5781f729863816d01e6d77635b13f2998b176b9a3550306ac6363f601bc2b90606090a280f35b815482918291829187916001600160a01b0316908390610455575bf1156104495783386103d5565b505051903d90823e3d90fd5b506108fc61043c565b8554855163a9059cbb60e01b81526001600160a01b03918216928101928352602083810194909452929183919082908990829060400103927f0000000000000000000000000000000000000000000000000000000000000000165af180156104ea576104cc575b81906103c9565b6104e39060203d8111610304576102f48183610d39565b50386104c5565b84513d87823e3d90fd5b634e487b7160e01b865260118452602486fd5b634e487b7160e01b845260118252602484fd5b8382346101cd57816003193601126101cd5760209051601e8152f35b5090346101aa5760203660031901126101aa5735916001600160a01b0383168303610588575061056861058492610f40565b9251918252602082015260408101919091529081906060820190565b0390f35b80fd5b5061059536610ccd565b9261059e610db4565b6105a6610d96565b81158015610770575b6107625782516323b872dd60e01b81523382820152306024820152604481018390526001600160a01b03906020816064818a7f000000000000000000000000000000000000000000000000000000000000000087165af180156107585761073a575b5061061c3484610e17565b94851061072b5785907f000000000000000000000000000000000000000000000000000000000000000016803b156101cd5784516340c10f1960e01b815233848201908152602081018890529091839183919082908490829060400103925af1801561072157610709575b5050907f08d7621a09a86934f387f650007fa17f2413759ca5f2ae0681161b371583a5f5926106ff926106bc83600354610d73565b6003556106ca348254610d73565b90556106d885600554610d73565b60055551908152346020820152604081019390935242606084015233929081906080820190565b0390a26001805580f35b61071590939293610d0f565b6101a657908438610687565b85513d84823e3d90fd5b508251638199f5f360e01b8152fd5b6107519060203d8111610304576102f48183610d39565b5038610611565b85513d89823e3d90fd5b8251636c2b7e2d60e11b8152fd5b5034156105af565b8382346101cd57816003193601126101cd57905490516001600160a01b039091168152602090f35b5090346101aa5760603660031901126101aa5780356107bd610db4565b6107c5610d96565b80156109fd57600554908181116109ed576107fa6107ee836107e960035485610dd7565b610dea565b926107e9855484610dd7565b92602435831080156109e2575b6109d4576001600160a01b03907f00000000000000000000000000000000000000000000000000000000000000008216803b156109d057865163079cc67960e41b815233838201908152602081018690529091899183919082908490829060400103925af180156109c6576109aa575b50836108d89260209261088c86600554610e0a565b60055561089b83600354610e0a565b6003556108a9888254610e0a565b8155885163a9059cbb60e01b81523391810191825260208201939093529193849283918b918391604090910190565b03927f0000000000000000000000000000000000000000000000000000000000000000165af180156109a057610982575b508480848015610978575b8280929181923390f11561096b5792519081526020810191909152604081019190915242606082015233907f8598e6b147330d38243f9c4cd33d61e208b9015719e977086fa42a0f73b1462b9080608081016106ff565b50505051903d90823e3d90fd5b6108fc9150610914565b6109999060203d8111610304576102f48183610d39565b5038610909565b85513d88823e3d90fd5b6108d892602092986109bc8793610d0f565b9892509250610877565b87513d8a823e3d90fd5b8780fd5b8451638199f5f360e01b8152fd5b506044358410610807565b83516384b8f6a160e01b81528390fd5b509051636c2b7e2d60e11b8152fd5b8382346101cd57816003193601126101cd57610a26610ce3565b610a2e610d96565b600160ff1960025416176002557f62e78cea01bee320cd4e420270b5ea74000d11b0c9f74754ebdbfc544b05a25860208251338152a1514281527fdeccd871bd16197ce3d021a73302372354d5cd2b5c3f57065638c772bf5a7c2860203392a280f35b8334610588578060031936011261058857610aaa610ce3565b80546001600160a01b03198116825581906001600160a01b03167f8be0079c531659141344cd1fd0a4f28419497f9722a3daafe3b4186f6b6457e08280a380f35b8382346101cd57816003193601126101cd57517f00000000000000000000000000000000000000000000000000000000000000006001600160a01b03168152602090f35b8382346101cd57816003193601126101cd5760209060ff6002541690519015158152f35b5090346101aa57826003193601126101aa57610b6d610ce3565b6002549060ff821615610bd8575060ff19166002557f5db9ee0a495bf2e6ff9c91a7834c1ba4fdd244a5e8aa4e537bd38aeae4b073aa60208251338152a1514281527f7218b4a8a456456c2cf5dbcd9202a02880a891c6f9dfafd90e7be5531523a03160203392a280f35b8251638dfc202b60e01b8152fd5b8382346101cd57602090610c02610bfc36610ccd565b90610e17565b9051908152f35b50823461058857806003193601126105885750610c24610ee0565b82519182526020820152f35b5090346101aa57826003193601126101aa5760209250549051908152f35b8382346101cd57816003193601126101cd57602090516103e88152f35b8382346101cd57816003193601126101cd576020906003549051908152f35b8490346101cd57816003193601126101cd577f00000000000000000000000000000000000000000000000000000000000000006001600160a01b03168152602090f35b6040906003190112610340576004359060243590565b6000546001600160a01b03163303610cf757565b60405163118cdaa760e01b8152336004820152602490fd5b67ffffffffffffffff8111610d2357604052565b634e487b7160e01b600052604160045260246000fd5b90601f8019910116810190811067ffffffffffffffff821117610d2357604052565b90816020910312610340575180151581036103405790565b91908201809211610d8057565b634e487b7160e01b600052601160045260246000fd5b60ff60025416610da257565b60405163d93c066560e01b8152600490fd5b600260015414610dc5576002600155565b604051633ee5aeb560e01b8152600490fd5b81810292918115918404141715610d8057565b8115610df4570490565b634e487b7160e01b600052601260045260246000fd5b91908203918211610d8057565b60055480610e9f575090610e2a91610dd7565b60006003821115610e9157508060019080821c828101809111610d805791905b838310610e71575050505b6126f290818102918183041490151715610d8057612710900490565b90919250610e8883610e838184610dea565b610d73565b821c9190610e4a565b9015610e5557506001610e55565b80610ebc610eb3610ec293610ecb95610dd7565b60035490610dea565b93610dd7565b60045490610dea565b80821015610ed95750610e55565b9050610e55565b6003549060045491610ef28382610d73565b8015610f34576127109182810290808204841490151715610d805781610f1791610dea565b93828102928184041490151715610d8057610f3191610dea565b90565b50509050600090600090565b6040516370a0823160e01b81526001600160a01b0391821660048201529190602090839060249082907f0000000000000000000000000000000000000000000000000000000000000000165afa91821561101e57600092610feb575b5081158015610fe1575b610fd757610fb660035483610dd7565b91610fd4610fc76005548095610dea565b936107e960045484610dd7565b91565b6000915081908190565b5060055415610fa6565b90916020823d8211611016575b8161100560209383610d39565b810103126105885750519038610f9c565b3d9150610ff8565b6040513d6000823e3d90fdfea26469706673582212207779d0c351a1c851bb0686ea6153dd2cb813a5080cd46dc9af5e3e75d4eb301264736f6c63430008140033",
  "linkReferences": {},
  "deployedLinkReferences": {}
}