{
  "_format": "hh-sol-artifact-1",
  "contractName": "HederaCarbonRetirer",
  "sourceName": "contracts/CDR/HederaCarbonRetirer.sol",
  "abi": [
    {
      "inputs": [
        {
          "internalType": "address",
          "name": "_dexRouter",
          "type": "address"
        },
        {
          "internalType": "address",
          "name": "_usdcHedera",
          "type": "address"
        },
        {
          "internalType": "address",
          "name": "_hbarWrapped",
          "type": "address"
        },
        {
          "internalType": "address",
          "name": "_relayer",
          "type": "address"
        }
      ],
      "stateMutability": "nonpayable",
      "type": "constructor"
    },
    {
      "anonymous": false,
      "inputs": [
        {
          "indexed": true,
          "internalType": "uint256",
          "name": "requestId",
          "type": "uint256"
        },
        {
          "indexed": false,
          "internalType": "string",
          "name": "polygonTxHash",
          "type": "string"
        },
        {
          "indexed": false,
          "internalType": "uint256",
          "name": "retiredTons",
          "type": "uint256"
        },
        {
          "indexed": false,
          "internalType": "string",
          "name": "detailsURI",
          "type": "string"
        }
      ],
      "name": "RetirementConfirmed",
      "type": "event"
    },
    {
      "anonymous": false,
      "inputs": [
        {
          "indexed": true,
          "internalType": "uint256",
          "name": "requestId",
          "type": "uint256"
        },
        {
          "indexed": true,
          "internalType": "address",
          "name": "hederaUser",
          "type": "address"
        },
        {
          "indexed": true,
          "internalType": "address",
          "name": "polygonReceiver",
          "type": "address"
        },
        {
          "indexed": false,
          "internalType": "uint256",
          "name": "hbarPaid",
          "type": "uint256"
        },
        {
          "indexed": false,
          "internalType": "uint256",
          "name": "usdcAmount",
          "type": "uint256"
        },
        {
          "indexed": false,
          "internalType": "uint256",
          "name": "minTons",
          "type": "uint256"
        },
        {
          "indexed": false,
          "internalType": "string",
          "name": "beneficiary",
          "type": "string"
        },
        {
          "indexed": false,
          "internalType": "string",
          "name": "message",
          "type": "string"
        }
      ],
      "name": "RetirementRequested",
      "type": "event"
    },
    {
      "inputs": [
        {
          "internalType": "uint256",
          "name": "requestId",
          "type": "uint256"
        },
        {
          "internalType": "string",
          "name": "polygonTxHash",
          "type": "string"
        },
        {
          "internalType": "uint256",
          "name": "retiredTons",
          "type": "uint256"
        },
        {
          "internalType": "string",
          "name": "detailsURI",
          "type": "string"
        }
      ],
      "name": "confirmRetirement",
      "outputs": [],
      "stateMutability": "nonpayable",
      "type": "function"
    },
    {
      "inputs": [],
      "name": "dexRouter",
      "outputs": [
        {
          "internalType": "contract IDexRouter",
          "name": "",
          "type": "address"
        }
      ],
      "stateMutability": "view",
      "type": "function"
    },
    {
      "inputs": [],
      "name": "hbarWrapped",
      "outputs": [
        {
          "internalType": "address",
          "name": "",
          "type": "address"
        }
      ],
      "stateMutability": "view",
      "type": "function"
    },
    {
      "inputs": [],
      "name": "nextRequestId",
      "outputs": [
        {
          "internalType": "uint256",
          "name": "",
          "type": "uint256"
        }
      ],
      "stateMutability": "view",
      "type": "function"
    },
    {
      "inputs": [],
      "name": "owner",
      "outputs": [
        {
          "internalType": "address",
          "name": "",
          "type": "address"
        }
      ],
      "stateMutability": "view",
      "type": "function"
    },
    {
      "inputs": [],
      "name": "relayer",
      "outputs": [
        {
          "internalType": "address",
          "name": "",
          "type": "address"
        }
      ],
      "stateMutability": "view",
      "type": "function"
    },
    {
      "inputs": [
        {
          "internalType": "uint256",
          "name": "",
          "type": "uint256"
        }
      ],
      "name": "requests",
      "outputs": [
        {
          "internalType": "address",
          "name": "hederaUser",
          "type": "address"
        },
        {
          "internalType": "address",
          "name": "polygonReceiver",
          "type": "address"
        },
        {
          "internalType": "uint256",
          "name": "hbarPaid",
          "type": "uint256"
        },
        {
          "internalType": "uint256",
          "name": "usdcAmount",
          "type": "uint256"
        },
        {
          "internalType": "uint256",
          "name": "minTons",
          "type": "uint256"
        },
        {
          "internalType": "string",
          "name": "beneficiary",
          "type": "string"
        },
        {
          "internalType": "string",
          "name": "message",
          "type": "string"
        },
        {
          "internalType": "bool",
          "name": "processed",
          "type": "bool"
        }
      ],
      "stateMutability": "view",
      "type": "function"
    },
    {
      "inputs": [
        {
          "internalType": "address payable",
          "name": "to",
          "type": "address"
        },
        {
          "internalType": "uint256",
          "name": "amount",
          "type": "uint256"
        }
      ],
      "name": "rescueHBAR",
      "outputs": [],
      "stateMutability": "nonpayable",
      "type": "function"
    },
    {
      "inputs": [
        {
          "internalType": "address",
          "name": "token",
          "type": "address"
        },
        {
          "internalType": "address",
          "name": "to",
          "type": "address"
        },
        {
          "internalType": "uint256",
          "name": "amount",
          "type": "uint256"
        }
      ],
      "name": "rescueToken",
      "outputs": [],
      "stateMutability": "nonpayable",
      "type": "function"
    },
    {
      "inputs": [
        {
          "internalType": "uint256",
          "name": "minTons",
          "type": "uint256"
        },
        {
          "internalType": "string",
          "name": "beneficiary",
          "type": "string"
        },
        {
          "internalType": "string",
          "name": "message",
          "type": "string"
        },
        {
          "internalType": "address",
          "name": "polygonReceiver",
          "type": "address"
        }
      ],
      "name": "retireWithHBAR",
      "outputs": [],
      "stateMutability": "payable",
      "type": "function"
    },
    {
      "inputs": [
        {
          "internalType": "address",
          "name": "_dexRouter",
          "type": "address"
        }
      ],
      "name": "setDexRouter",
      "outputs": [],
      "stateMutability": "nonpayable",
      "type": "function"
    },
    {
      "inputs": [
        {
          "internalType": "address",
          "name": "_relayer",
          "type": "address"
        }
      ],
      "name": "setRelayer",
      "outputs": [],
      "stateMutability": "nonpayable",
      "type": "function"
    },
    {
      "inputs": [
        {
          "internalType": "address",
          "name": "_usdcHedera",
          "type": "address"
        }
      ],
      "name": "setUsdcHedera",
      "outputs": [],
      "stateMutability": "nonpayable",
      "type": "function"
    },
    {
      "inputs": [],
      "name": "usdcHedera",
      "outputs": [
        {
          "internalType": "address",
          "name": "",
          "type": "address"
        }
      ],
      "stateMutability": "view",
      "type": "function"
    }
  ],
  "bytecode": "0x60806040523480156200001157600080fd5b506040516200155e3803806200155e8339810160408190526200003491620000b2565b60008054336001600160a01b0319918216179091556002805482166001600160a01b0396871617905560048054821694861694909417909355600380548416928516929092179091556001805490921692169190911781556005556200010f565b80516001600160a01b0381168114620000ad57600080fd5b919050565b60008060008060808587031215620000c957600080fd5b620000d48562000095565b9350620000e46020860162000095565b9250620000f46040860162000095565b9150620001046060860162000095565b905092959194509250565b61143f806200011f6000396000f3fe6080604052600436106100dd5760003560e01c80639bbea1001161007f578063c24fb37d11610059578063c24fb37d1461024c578063e5711e8b1461026c578063f0cc08311461028c578063f72f863b146102ac57600080fd5b80639bbea100146101ec578063b01446021461020c578063bf0fadaa1461022c57600080fd5b806381d12c58116100bb57806381d12c58146101655780638406c079146101995780638aa9d855146101b95780638da5cb5b146101cc57600080fd5b80630758d924146100e25780636548e9bc1461011f5780636a84a98514610141575b600080fd5b3480156100ee57600080fd5b50600254610102906001600160a01b031681565b6040516001600160a01b0390911681526020015b60405180910390f35b34801561012b57600080fd5b5061013f61013a366004610d61565b6102cc565b005b34801561014d57600080fd5b5061015760055481565b604051908152602001610116565b34801561017157600080fd5b50610185610180366004610d85565b610321565b604051610116989796959493929190610de4565b3480156101a557600080fd5b50600154610102906001600160a01b031681565b61013f6101c7366004610e9b565b610485565b3480156101d857600080fd5b50600054610102906001600160a01b031681565b3480156101f857600080fd5b5061013f610207366004610f27565b6106f3565b34801561021857600080fd5b5061013f610227366004610d61565b610835565b34801561023857600080fd5b5061013f610247366004610faa565b610881565b34801561025857600080fd5b50600354610102906001600160a01b031681565b34801561027857600080fd5b5061013f610287366004610fd6565b6108e6565b34801561029857600080fd5b50600454610102906001600160a01b031681565b3480156102b857600080fd5b5061013f6102c7366004610d61565b6109c1565b6000546001600160a01b031633146102ff5760405162461bcd60e51b81526004016102f690611017565b60405180910390fd5b600180546001600160a01b0319166001600160a01b0392909216919091179055565b6006602052600090815260409020805460018201546002830154600384015460048501546005860180546001600160a01b0396871697969095169593949293919261036b9061103a565b80601f01602080910402602001604051908101604052809291908181526020018280546103979061103a565b80156103e45780601f106103b9576101008083540402835291602001916103e4565b820191906000526020600020905b8154815290600101906020018083116103c757829003601f168201915b5050505050908060060180546103f99061103a565b80601f01602080910402602001604051908101604052809291908181526020018280546104259061103a565b80156104725780601f1061044757610100808354040283529160200191610472565b820191906000526020600020905b81548152906001019060200180831161045557829003601f168201915b5050506007909301549192505060ff1688565b600034116104c45760405162461bcd60e51b815260206004820152600c60248201526b139bc812109054881cd95b9d60a21b60448201526064016102f6565b6001600160a01b03811661051a5760405162461bcd60e51b815260206004820152601760248201527f496e76616c696420706f6c79676f6e526563656976657200000000000000000060448201526064016102f6565b600061052534610a0d565b60058054919250600091908261053a8361108a565b919050559050604051806101000160405280336001600160a01b03168152602001846001600160a01b0316815260200134815260200183815260200189815260200188888080601f016020809104026020016040519081016040528093929190818152602001838380828437600092019190915250505090825250604080516020601f8901819004810282018101909252878152918101919088908890819084018382808284376000920182905250938552505050602091820181905283815260068252604090819020835181546001600160a01b03199081166001600160a01b03928316178355938501516001830180549095169116179092558201516002820155606082015160038201556080820151600482015560a082015160058201906106659082611107565b5060c0820151600682019061067a9082611107565b5060e091909101516007909101805460ff19169115159190911790556040516001600160a01b03841690339083907f3187577643507ab341d9e5f8718d972c645e2880553c486bb1ce5f17ebca5e81906106e190349088908f908f908f908f908f906111f0565b60405180910390a45050505050505050565b6001546001600160a01b0316331461073b5760405162461bcd60e51b815260206004820152600b60248201526a2737ba103932b630bcb2b960a91b60448201526064016102f6565b600086815260066020526040902080546001600160a01b03166107925760405162461bcd60e51b815260206004820152600f60248201526e155b9adb9bdddb881c995c5d595cdd608a1b60448201526064016102f6565b600781015460ff16156107db5760405162461bcd60e51b8152602060048201526011602482015270105b1c9958591e481c1c9bd8d95cdcd959607a1b60448201526064016102f6565b60078101805460ff1916600117905560405187907f22ae3f47a34862e64b413c0030f5cf9342cb304643f3c8587551956a104de60b906108249089908990899089908990611237565b60405180910390a250505050505050565b6000546001600160a01b0316331461085f5760405162461bcd60e51b81526004016102f690611017565b600480546001600160a01b0319166001600160a01b0392909216919091179055565b6000546001600160a01b031633146108ab5760405162461bcd60e51b81526004016102f690611017565b6040516001600160a01b0383169082156108fc029083906000818181858888f193505050501580156108e1573d6000803e3d6000fd5b505050565b6000546001600160a01b031633146109105760405162461bcd60e51b81526004016102f690611017565b60405163a9059cbb60e01b81526001600160a01b0383811660048301526024820183905284169063a9059cbb906044016020604051808303816000875af115801561095f573d6000803e3d6000fd5b505050506040513d601f19601f820116820180604052508101906109839190611270565b6108e15760405162461bcd60e51b815260206004820152600f60248201526e1d1c985b9cd9995c8819985a5b1959608a1b60448201526064016102f6565b6000546001600160a01b031633146109eb5760405162461bcd60e51b81526004016102f690611017565b600280546001600160a01b0319166001600160a01b0392909216919091179055565b6002546000906001600160a01b0316610a5d5760405162461bcd60e51b8152602060048201526012602482015271111156081c9bdd5d195c881b9bdd081cd95d60721b60448201526064016102f6565b6004546001600160a01b0316610aa45760405162461bcd60e51b815260206004820152600c60248201526b1554d110c81b9bdd081cd95d60a21b60448201526064016102f6565b6040805160028082526060820183526000926020830190803683375050600354919250506001600160a01b0316610b0f57600081600081518110610aea57610aea611292565b60200260200101906001600160a01b031690816001600160a01b031681525050610b52565b60035481516001600160a01b03909116908290600090610b3157610b31611292565b60200260200101906001600160a01b031690816001600160a01b0316815250505b60045481516001600160a01b039091169082906001908110610b7657610b76611292565b6001600160a01b039283166020918202929092010152600480546040516370a0823160e01b8152309281019290925260009216906370a0823190602401602060405180830381865afa158015610bd0573d6000803e3d6000fd5b505050506040513d601f19601f82011682018060405250810190610bf491906112a8565b6002549091506001600160a01b0316637ff36ab58560008530610c19426103846112c1565b6040518663ffffffff1660e01b8152600401610c3894939291906112da565b60006040518083038185885af1158015610c56573d6000803e3d6000fd5b50505050506040513d6000823e601f3d908101601f19168201604052610c7f9190810190611344565b50600480546040516370a0823160e01b815230928101929092526000916001600160a01b03909116906370a0823190602401602060405180830381865afa158015610cce573d6000803e3d6000fd5b505050506040513d601f19601f82011682018060405250810190610cf291906112a8565b9050818111610d365760405162461bcd60e51b815260206004820152601060248201526f139bc81554d110c81c9958d95a5d995960821b60448201526064016102f6565b610d4082826113f6565b95945050505050565b6001600160a01b0381168114610d5e57600080fd5b50565b600060208284031215610d7357600080fd5b8135610d7e81610d49565b9392505050565b600060208284031215610d9757600080fd5b5035919050565b6000815180845260005b81811015610dc457602081850181015186830182015201610da8565b506000602082860101526020601f19601f83011685010191505092915050565b6001600160a01b0389811682528816602082015260408101879052606081018690526080810185905261010060a08201819052600090610e2683820187610d9e565b905082810360c0840152610e3a8186610d9e565b91505082151560e08301529998505050505050505050565b60008083601f840112610e6457600080fd5b50813567ffffffffffffffff811115610e7c57600080fd5b602083019150836020828501011115610e9457600080fd5b9250929050565b60008060008060008060808789031215610eb457600080fd5b86359550602087013567ffffffffffffffff80821115610ed357600080fd5b610edf8a838b01610e52565b90975095506040890135915080821115610ef857600080fd5b50610f0589828a01610e52565b9094509250506060870135610f1981610d49565b809150509295509295509295565b60008060008060008060808789031215610f4057600080fd5b86359550602087013567ffffffffffffffff80821115610f5f57600080fd5b610f6b8a838b01610e52565b9097509550604089013594506060890135915080821115610f8b57600080fd5b50610f9889828a01610e52565b979a9699509497509295939492505050565b60008060408385031215610fbd57600080fd5b8235610fc881610d49565b946020939093013593505050565b600080600060608486031215610feb57600080fd5b8335610ff681610d49565b9250602084013561100681610d49565b929592945050506040919091013590565b6020808252600990820152682737ba1037bbb732b960b91b604082015260600190565b600181811c9082168061104e57607f821691505b60208210810361106e57634e487b7160e01b600052602260045260246000fd5b50919050565b634e487b7160e01b600052601160045260246000fd5b60006001820161109c5761109c611074565b5060010190565b634e487b7160e01b600052604160045260246000fd5b601f8211156108e157600081815260208120601f850160051c810160208610156110e05750805b601f850160051c820191505b818110156110ff578281556001016110ec565b505050505050565b815167ffffffffffffffff811115611121576111216110a3565b6111358161112f845461103a565b846110b9565b602080601f83116001811461116a57600084156111525750858301515b600019600386901b1c1916600185901b1785556110ff565b600085815260208120601f198616915b828110156111995788860151825594840194600190910190840161117a565b50858210156111b75787850151600019600388901b60f8161c191681555b5050505050600190811b01905550565b81835281816020850137506000828201602090810191909152601f909101601f19169091010190565b87815286602082015285604082015260a06060820152600061121660a0830186886111c7565b82810360808401526112298185876111c7565b9a9950505050505050505050565b60608152600061124b6060830187896111c7565b85602084015282810360408401526112648185876111c7565b98975050505050505050565b60006020828403121561128257600080fd5b81518015158114610d7e57600080fd5b634e487b7160e01b600052603260045260246000fd5b6000602082840312156112ba57600080fd5b5051919050565b808201808211156112d4576112d4611074565b92915050565b600060808201868352602060808185015281875180845260a086019150828901935060005b818110156113245784516001600160a01b0316835293830193918301916001016112ff565b50506001600160a01b039690961660408501525050506060015292915050565b6000602080838503121561135757600080fd5b825167ffffffffffffffff8082111561136f57600080fd5b818501915085601f83011261138357600080fd5b815181811115611395576113956110a3565b8060051b604051601f19603f830116810181811085821117156113ba576113ba6110a3565b6040529182528482019250838101850191888311156113d857600080fd5b938501935b82851015611264578451845293850193928501926113dd565b818103818111156112d4576112d461107456fea264697066735822122030a4166715403f6cd16edfee21b45a7bf7001c7ec8c13514b3d42b9bd01e548264736f6c63430008140033",
  "linkReferences": {},
  "deployedLinkReferences": {}
}