{"contracts/CDR/PolygonCDRExecutor.sol":{"PolygonCDRExecutor":{"abi":[{"inputs":[{"internalType":"address","name":"_usdc","type":"address"},{"internalType":"address","name":"_bct","type":"address"},{"internalType":"address","name":"_nct","type":"address"},{"internalType":"address","name":"_klimaAgg","type":"address"},{"internalType":"address","name":"_relayer","type":"address"}],"stateMutability":"nonpayable","type":"constructor"},{"anonymous":false,"inputs":[{"indexed":true,"internalType":"uint256","name":"hederaRequestId","type":"uint256"},{"indexed":true,"internalType":"address","name":"polygonReceiver","type":"address"},{"indexed":false,"internalType":"enum PolygonCDRExecutor.PoolType","name":"pool","type":"uint8"},{"indexed":false,"internalType":"uint256","name":"usdcSpent","type":"uint256"},{"indexed":false,"internalType":"uint256","name":"tonsRetired","type":"uint256"},{"indexed":false,"internalType":"string","name":"beneficiary","type":"string"},{"indexed":false,"internalType":"string","name":"message","type":"string"}],"name":"PolygonRetirementExecuted","type":"event"},{"inputs":[],"name":"bctToken","outputs":[{"internalType":"address","name":"","type":"address"}],"stateMutability":"view","type":"function"},{"inputs":[{"internalType":"uint256","name":"hederaRequestId","type":"uint256"},{"internalType":"address","name":"polygonReceiver","type":"address"},{"internalType":"enum PolygonCDRExecutor.PoolType","name":"pool","type":"uint8"},{"internalType":"uint256","name":"usdcAmount","type":"uint256"},{"internalType":"string","name":"beneficiary","type":"string"},{"internalType":"string","name":"message","type":"string"}],"name":"executeRetirement","outputs":[],"stateMutability":"nonpayable","type":"function"},{"inputs":[],"name":"klimaAgg","outputs":[{"internalType":"contract IKlimaRetirementAggregator","name":"","type":"address"}],"stateMutability":"view","type":"function"},{"inputs":[],"name":"nctToken","outputs":[{"internalType":"address","name":"","type":"address"}],"stateMutability":"view","type":"function"},{"inputs":[],"name":"owner","outputs":[{"internalType":"address","name":"","type":"address"}],"stateMutability":"view","type":"function"},{"inputs":[],"name":"relayer","outputs":[{"internalType":"address","name":"","type":"address"}],"stateMutability":"view","type":"function"},{"inputs":[{"internalType":"address","name":"_klimaAgg","type":"address"}],"name":"setKlimaAggregator","outputs":[],"stateMutability":"nonpayable","type":"function"},{"inputs":[{"internalType":"address","name":"_relayer","type":"address"}],"name":"setRelayer","outputs":[],"stateMutability":"nonpayable","type":"function"},{"inputs":[],"name":"usdc","outputs":[{"internalType":"contract IERC20","name":"","type":"address"}],"stateMutability":"view","type":"function"}],"evm":{"bytecode":{"linkReferences":{},"object":"608060405234801561001057600080fd5b5060405161099c38038061099c83398101604081905261002f916100b7565b60008054336001600160a01b0319918216179091556002805482166001600160a01b03978816179055600380548216958716959095179094556004805485169386169390931790925560058054841691851691909117905560018054909216921691909117905561011c565b80516001600160a01b03811681146100b257600080fd5b919050565b600080600080600060a086880312156100cf57600080fd5b6100d88661009b565b94506100e66020870161009b565b93506100f46040870161009b565b92506101026060870161009b565b91506101106080870161009b565b90509295509295909350565b6108718061012b6000396000f3fe608060405234801561001057600080fd5b50600436106100935760003560e01c80638da5cb5b116100665780638da5cb5b14610102578063b5974aa414610115578063e2ea068d14610128578063f5dc2e421461013b578063fc5e126e1461014e57600080fd5b8063105036ae146100985780633e413bee146100c75780636548e9bc146100da5780638406c079146100ef575b600080fd5b6004546100ab906001600160a01b031681565b6040516001600160a01b03909116815260200160405180910390f35b6002546100ab906001600160a01b031681565b6100ed6100e83660046105e9565b610161565b005b6001546100ab906001600160a01b031681565b6000546100ab906001600160a01b031681565b6100ed6101233660046105e9565b6101ce565b6100ed610136366004610654565b610236565b6003546100ab906001600160a01b031681565b6005546100ab906001600160a01b031681565b6000546001600160a01b031633146101ac5760405162461bcd60e51b81526020600482015260096024820152682737ba1037bbb732b960b91b60448201526064015b60405180910390fd5b600180546001600160a01b0319166001600160a01b0392909216919091179055565b6000546001600160a01b031633146102145760405162461bcd60e51b81526020600482015260096024820152682737ba1037bbb732b960b91b60448201526064016101a3565b600580546001600160a01b0319166001600160a01b0392909216919091179055565b6001546001600160a01b0316331461027e5760405162461bcd60e51b815260206004820152600b60248201526a2737ba103932b630bcb2b960a91b60448201526064016101a3565b600085116102bf5760405162461bcd60e51b815260206004820152600e60248201526d139bc81554d110c8185b5bdd5b9d60921b60448201526064016101a3565b6001600160a01b0387166103045760405162461bcd60e51b815260206004820152600c60248201526b2130b2103932b1b2b4bb32b960a11b60448201526064016101a3565b6002546040516323b872dd60e01b8152336004820152306024820152604481018790526000916001600160a01b0316906323b872dd906064016020604051808303816000875af115801561035c573d6000803e3d6000fd5b505050506040513d601f19601f8201168201806040525081019061038091906106fe565b9050806103cf5760405162461bcd60e51b815260206004820152601860248201527f55534443207472616e7366657246726f6d206661696c6564000000000000000060448201526064016101a3565b60025460055460405163095ea7b360e01b81526001600160a01b0391821660048201526024810189905291169063095ea7b3906044016020604051808303816000875af1158015610424573d6000803e3d6000fd5b505050506040513d601f19601f8201168201806040525081019061044891906106fe565b90508061048d5760405162461bcd60e51b81526020600482015260136024820152721554d110c8185c1c1c9bdd994819985a5b1959606a1b60448201526064016101a3565b6000808860018111156104a2576104a2610720565b146104b8576004546001600160a01b03166104c5565b6003546001600160a01b03165b90506000600560009054906101000a90046001600160a01b03166001600160a01b031663d6acfe18600260009054906101000a90046001600160a01b03168a858e8c8c8c8c6040518963ffffffff1660e01b815260040161052d98979695949392919061075f565b6020604051808303816000875af115801561054c573d6000803e3d6000fd5b505050506040513d601f19601f8201168201806040525081019061057091906107bd565b9050896001600160a01b03168b7f5702fd37bb7ef33e42a5aaa722d4cff38aac6f60e0a536b6ca0e10595ad987658b8b858c8c8c8c6040516105b897969594939291906107d6565b60405180910390a35050505050505050505050565b80356001600160a01b03811681146105e457600080fd5b919050565b6000602082840312156105fb57600080fd5b610604826105cd565b9392505050565b60008083601f84011261061d57600080fd5b50813567ffffffffffffffff81111561063557600080fd5b60208301915083602082850101111561064d57600080fd5b9250929050565b60008060008060008060008060c0898b03121561067057600080fd5b8835975061068060208a016105cd565b965060408901356002811061069457600080fd5b955060608901359450608089013567ffffffffffffffff808211156106b857600080fd5b6106c48c838d0161060b565b909650945060a08b01359150808211156106dd57600080fd5b506106ea8b828c0161060b565b999c989b5096995094979396929594505050565b60006020828403121561071057600080fd5b8151801515811461060457600080fd5b634e487b7160e01b600052602160045260246000fd5b81835281816020850137506000828201602090810191909152601f909101601f19169091010190565b6001600160a01b0389811682526020820189905287811660408301528616606082015260c06080820181905260009061079b9083018688610736565b82810360a08401526107ae818587610736565b9b9a5050505050505050505050565b6000602082840312156107cf57600080fd5b5051919050565b6000600289106107f657634e487b7160e01b600052602160045260246000fd5b88825287602083015286604083015260a0606083015261081a60a083018688610736565b828103608084015261082d818587610736565b9a995050505050505050505056fea2646970667358221220b5ef5de2b9b1285ae2efabe182a671483c38a841868c4f72598491eed1ee642c64736f6c63430008140033","opcodes":"PUSH1 0x80 PUSH1 0x40 MSTORE CALLVALUE DUP1 ISZERO PUSH2 0x10 JUMPI PUSH1 0x0 DUP1 REVERT JUMPDEST POP PUSH1 0x40 MLOAD PUSH2 0x99C CODESIZE SUB DUP1 PUSH2 0x99C DUP4 CODECOPY DUP2 ADD PUSH1 0x40 DUP2 SWAP1 MSTORE PUSH2 0x2F SWAP2 PUSH2 0xB7 JUMP JUMPDEST PUSH1 0x0 DUP1 SLOAD CALLER PUSH1 0x1 PUSH1 0x1 PUSH1 0xA0 SHL SUB NOT SWAP2 DUP3 AND OR SWAP1 SWAP2 SSTORE PUSH1 0x2 DUP1 SLOAD DUP3 AND PUSH1 0x1 PUSH1 0x1 PUSH1 0xA0 SHL SUB SWAP8 DUP9 AND OR SWAP1 SSTORE PUSH1 0x3 DUP1 SLOAD DUP3 AND SWAP6 DUP8 AND SWAP6 SWAP1 SWAP6 OR SWAP1 SWAP5 SSTORE PUSH1 0x4 DUP1 SLOAD DUP6 AND SWAP4 DUP7 AND SWAP4 SWAP1 SWAP4 OR SWAP1 SWAP3 SSTORE PUSH1 0x5 DUP1 SLOAD DUP5 AND SWAP2 DUP6 AND SWAP2 SWAP1 SWAP2 OR SWAP1 SSTORE PUSH1 0x1 DUP1 SLOAD SWAP1 SWAP3 AND SWAP3 AND SWAP2 SWAP1 SWAP2 OR SWAP1 SSTORE PUSH2 0x11C JUMP JUMPDEST DUP1 MLOAD PUSH1 0x1 PUSH1 0x1 PUSH1 0xA0 SHL SUB DUP2 AND DUP2 EQ PUSH2 0xB2 JUMPI PUSH1 0x0 DUP1 REVERT JUMPDEST SWAP2 SWAP1 POP JUMP JUMPDEST PUSH1 0x0 DUP1 PUSH1 0x0 DUP1 PUSH1 0x0 PUSH1 0xA0 DUP7 DUP9 SUB SLT ISZERO PUSH2 0xCF JUMPI PUSH1 0x0 DUP1 REVERT JUMPDEST PUSH2 0xD8 DUP7 PUSH2 0x9B JUMP JUMPDEST SWAP5 POP PUSH2 0xE6 PUSH1 0x20 DUP8 ADD PUSH2 0x9B JUMP JUMPDEST SWAP4 POP PUSH2 0xF4 PUSH1 0x40 DUP8 ADD PUSH2 0x9B JUMP JUMPDEST SWAP3 POP PUSH2 0x102 PUSH1 0x60 DUP8 ADD PUSH2 0x9B JUMP JUMPDEST SWAP2 POP PUSH2 0x110 PUSH1 0x80 DUP8 ADD PUSH2 0x9B JUMP JUMPDEST SWAP1 POP SWAP3 SWAP6 POP SWAP3 SWAP6 SWAP1 SWAP4 POP JUMP JUMPDEST PUSH2 0x871 DUP1 PUSH2 0x12B PUSH1 0x0 CODECOPY PUSH1 0x0 RETURN INVALID PUSH1 0x80 PUSH1 0x40 MSTORE CALLVALUE DUP1 ISZERO PUSH2 0x10 JUMPI PUSH1 0x0 DUP1 REVERT JUMPDEST POP PUSH1 0x4 CALLDATASIZE LT PUSH2 0x93 JUMPI PUSH1 0x0 CALLDATALOAD PUSH1 0xE0 SHR DUP1 PUSH4 0x8DA5CB5B GT PUSH2 0x66 JUMPI DUP1 PUSH4 0x8DA5CB5B EQ PUSH2 0x102 JUMPI DUP1 PUSH4 0xB5974AA4 EQ PUSH2 0x115 JUMPI DUP1 PUSH4 0xE2EA068D EQ PUSH2 0x128 JUMPI DUP1 PUSH4 0xF5DC2E42 EQ PUSH2 0x13B JUMPI DUP1 PUSH4 0xFC5E126E EQ PUSH2 0x14E JUMPI PUSH1 0x0 DUP1 REVERT JUMPDEST DUP1 PUSH4 0x105036AE EQ PUSH2 0x98 JUMPI DUP1 PUSH4 0x3E413BEE EQ PUSH2 0xC7 JUMPI DUP1 PUSH4 0x6548E9BC EQ PUSH2 0xDA JUMPI DUP1 PUSH4 0x8406C079 EQ PUSH2 0xEF JUMPI JUMPDEST PUSH1 0x0 DUP1 REVERT JUMPDEST PUSH1 0x4 SLOAD PUSH2 0xAB SWAP1 PUSH1 0x1 PUSH1 0x1 PUSH1 0xA0 SHL SUB AND DUP2 JUMP JUMPDEST PUSH1 0x40 MLOAD PUSH1 0x1 PUSH1 0x1 PUSH1 0xA0 SHL SUB SWAP1 SWAP2 AND DUP2 MSTORE PUSH1 0x20 ADD PUSH1 0x40 MLOAD DUP1 SWAP2 SUB SWAP1 RETURN JUMPDEST PUSH1 0x2 SLOAD PUSH2 0xAB SWAP1 PUSH1 0x1 PUSH1 0x1 PUSH1 0xA0 SHL SUB AND DUP2 JUMP JUMPDEST PUSH2 0xED PUSH2 0xE8 CALLDATASIZE PUSH1 0x4 PUSH2 0x5E9 JUMP JUMPDEST PUSH2 0x161 JUMP JUMPDEST STOP JUMPDEST PUSH1 0x1 SLOAD PUSH2 0xAB SWAP1 PUSH1 0x1 PUSH1 0x1 PUSH1 0xA0 SHL SUB AND DUP2 JUMP JUMPDEST PUSH1 0x0 SLOAD PUSH2 0xAB SWAP1 PUSH1 0x1 PUSH1 0x1 PUSH1 0xA0 SHL SUB AND DUP2 JUMP JUMPDEST PUSH2 0xED PUSH2 0x123 CALLDATASIZE PUSH1 0x4 PUSH2 0x5E9 JUMP JUMPDEST PUSH2 0x1CE JUMP JUMPDEST PUSH2 0xED PUSH2 0x136 CALLDATASIZE PUSH1 0x4 PUSH2 0x654 JUMP JUMPDEST PUSH2 0x236 JUMP JUMPDEST PUSH1 0x3 SLOAD PUSH2 0xAB SWAP1 PUSH1 0x1 PUSH1 0x1 PUSH1 0xA0 SHL SUB AND DUP2 JUMP JUMPDEST PUSH1 0x5 SLOAD PUSH2 0xAB SWAP1 PUSH1 0x1 PUSH1 0x1 PUSH1 0xA0 SHL SUB AND DUP2 JUMP JUMPDEST PUSH1 0x0 SLOAD PUSH1 0x1 PUSH1 0x1 PUSH1 0xA0 SHL SUB AND CALLER EQ PUSH2 0x1AC JUMPI PUSH1 0x40 MLOAD PUSH3 0x461BCD PUSH1 0xE5 SHL DUP2 MSTORE PUSH1 0x20 PUSH1 0x4 DUP3 ADD MSTORE PUSH1 0x9 PUSH1 0x24 DUP3 ADD MSTORE PUSH9 0x2737BA1037BBB732B9 PUSH1 0xB9 SHL PUSH1 0x44 DUP3 ADD MSTORE PUSH1 0x64 ADD JUMPDEST PUSH1 0x40 MLOAD DUP1 SWAP2 SUB SWAP1 REVERT JUMPDEST PUSH1 0x1 DUP1 SLOAD PUSH1 0x1 PUSH1 0x1 PUSH1 0xA0 SHL SUB NOT AND PUSH1 0x1 PUSH1 0x1 PUSH1 0xA0 SHL SUB SWAP3 SWAP1 SWAP3 AND SWAP2 SWAP1 SWAP2 OR SWAP1 SSTORE JUMP JUMPDEST PUSH1 0x0 SLOAD PUSH1 0x1 PUSH1 0x1 PUSH1 0xA0 SHL SUB AND CALLER EQ PUSH2 0x214 JUMPI PUSH1 0x40 MLOAD PUSH3 0x461BCD PUSH1 0xE5 SHL DUP2 MSTORE PUSH1 0x20 PUSH1 0x4 DUP3 ADD MSTORE PUSH1 0x9 PUSH1 0x24 DUP3 ADD MSTORE PUSH9 0x2737BA1037BBB732B9 PUSH1 0xB9 SHL PUSH1 0x44 DUP3 ADD MSTORE PUSH1 0x64 ADD PUSH2 0x1A3 JUMP JUMPDEST PUSH1 0x5 DUP1 SLOAD PUSH1 0x1 PUSH1 0x1 PUSH1 0xA0 SHL SUB NOT AND PUSH1 0x1 PUSH1 0x1 PUSH1 0xA0 SHL SUB SWAP3 SWAP1 SWAP3 AND SWAP2 SWAP1 SWAP2 OR SWAP1 SSTORE JUMP JUMPDEST PUSH1 0x1 SLOAD PUSH1 0x1 PUSH1 0x1 PUSH1 0xA0 SHL SUB AND CALLER EQ PUSH2 0x27E JUMPI PUSH1 0x40 MLOAD PUSH3 0x461BCD PUSH1 0xE5 SHL DUP2 MSTORE PUSH1 0x20 PUSH1 0x4 DUP3 ADD MSTORE PUSH1 0xB PUSH1 0x24 DUP3 ADD MSTORE PUSH11 0x2737BA103932B630BCB2B9 PUSH1 0xA9 SHL PUSH1 0x44 DUP3 ADD MSTORE PUSH1 0x64 ADD PUSH2 0x1A3 JUMP JUMPDEST PUSH1 0x0 DUP6 GT PUSH2 0x2BF JUMPI PUSH1 0x40 MLOAD PUSH3 0x461BCD PUSH1 0xE5 SHL DUP2 MSTORE PUSH1 0x20 PUSH1 0x4 DUP3 ADD MSTORE PUSH1 0xE PUSH1 0x24 DUP3 ADD MSTORE PUSH14 0x139BC81554D110C8185B5BDD5B9D PUSH1 0x92 SHL PUSH1 0x44 DUP3 ADD MSTORE PUSH1 0x64 ADD PUSH2 0x1A3 JUMP JUMPDEST PUSH1 0x1 PUSH1 0x1 PUSH1 0xA0 SHL SUB DUP8 AND PUSH2 0x304 JUMPI PUSH1 0x40 MLOAD PUSH3 0x461BCD PUSH1 0xE5 SHL DUP2 MSTORE PUSH1 0x20 PUSH1 0x4 DUP3 ADD MSTORE PUSH1 0xC PUSH1 0x24 DUP3 ADD MSTORE PUSH12 0x2130B2103932B1B2B4BB32B9 PUSH1 0xA1 SHL PUSH1 0x44 DUP3 ADD MSTORE PUSH1 0x64 ADD PUSH2 0x1A3 JUMP JUMPDEST PUSH1 0x2 SLOAD PUSH1 0x40 MLOAD PUSH4 0x23B872DD PUSH1 0xE0 SHL DUP2 MSTORE CALLER PUSH1 0x4 DUP3 ADD MSTORE ADDRESS PUSH1 0x24 DUP3 ADD MSTORE PUSH1 0x44 DUP2 ADD DUP8 SWAP1 MSTORE PUSH1 0x0 SWAP2 PUSH1 0x1 PUSH1 0x1 PUSH1 0xA0 SHL SUB AND SWAP1 PUSH4 0x23B872DD SWAP1 PUSH1 0x64 ADD PUSH1 0x20 PUSH1 0x40 MLOAD DUP1 DUP4 SUB DUP2 PUSH1 0x0 DUP8 GAS CALL ISZERO DUP1 ISZERO PUSH2 0x35C JUMPI RETURNDATASIZE PUSH1 0x0 DUP1 RETURNDATACOPY RETURNDATASIZE PUSH1 0x0 REVERT JUMPDEST POP POP POP POP PUSH1 0x40 MLOAD RETURNDATASIZE PUSH1 0x1F NOT PUSH1 0x1F DUP3 ADD AND DUP3 ADD DUP1 PUSH1 0x40 MSTORE POP DUP2 ADD SWAP1 PUSH2 0x380 SWAP2 SWAP1 PUSH2 0x6FE JUMP JUMPDEST SWAP1 POP DUP1 PUSH2 0x3CF JUMPI PUSH1 0x40 MLOAD PUSH3 0x461BCD PUSH1 0xE5 SHL DUP2 MSTORE PUSH1 0x20 PUSH1 0x4 DUP3 ADD MSTORE PUSH1 0x18 PUSH1 0x24 DUP3 ADD MSTORE PUSH32 0x55534443207472616E7366657246726F6D206661696C65640000000000000000 PUSH1 0x44 DUP3 ADD MSTORE PUSH1 0x64 ADD PUSH2 0x1A3 JUMP JUMPDEST PUSH1 0x2 SLOAD PUSH1 0x5 SLOAD PUSH1 0x40 MLOAD PUSH4 0x95EA7B3 PUSH1 0xE0 SHL DUP2 MSTORE PUSH1 0x1 PUSH1 0x1 PUSH1 0xA0 SHL SUB SWAP2 DUP3 AND PUSH1 0x4 DUP3 ADD MSTORE PUSH1 0x24 DUP2 ADD DUP10 SWAP1 MSTORE SWAP2 AND SWAP1 PUSH4 0x95EA7B3 SWAP1 PUSH1 0x44 ADD PUSH1 0x20 PUSH1 0x40 MLOAD DUP1 DUP4 SUB DUP2 PUSH1 0x0 DUP8 GAS CALL ISZERO DUP1 ISZERO PUSH2 0x424 JUMPI RETURNDATASIZE PUSH1 0x0 DUP1 RETURNDATACOPY RETURNDATASIZE PUSH1 0x0 REVERT JUMPDEST POP POP POP POP PUSH1 0x40 MLOAD RETURNDATASIZE PUSH1 0x1F NOT PUSH1 0x1F DUP3 ADD AND DUP3 ADD DUP1 PUSH1 0x40 MSTORE POP DUP2 ADD SWAP1 PUSH2 0x448 SWAP2 SWAP1 PUSH2 0x6FE JUMP JUMPDEST SWAP1 POP DUP1 PUSH2 0x48D JUMPI PUSH1 0x40 MLOAD PUSH3 0x461BCD PUSH1 0xE5 SHL DUP2 MSTORE PUSH1 0x20 PUSH1 0x4 DUP3 ADD MSTORE PUSH1 0x13 PUSH1 0x24 DUP3 ADD MSTORE PUSH19 0x1554D110C8185C1C1C9BDD994819985A5B1959 PUSH1 0x6A SHL PUSH1 0x44 DUP3 ADD MSTORE PUSH1 0x64 ADD PUSH2 0x1A3 JUMP JUMPDEST PUSH1 0x0 DUP1 DUP9 PUSH1 0x1 DUP2 GT ISZERO PUSH2 0x4A2 JUMPI PUSH2 0x4A2 PUSH2 0x720 JUMP JUMPDEST EQ PUSH2 0x4B8 JUMPI PUSH1 0x4 SLOAD PUSH1 0x1 PUSH1 0x1 PUSH1 0xA0 SHL SUB AND PUSH2 0x4C5 JUMP JUMPDEST PUSH1 0x3 SLOAD PUSH1 0x1 PUSH1 0x1 PUSH1 0xA0 SHL SUB AND JUMPDEST SWAP1 POP PUSH1 0x0 PUSH1 0x5 PUSH1 0x0 SWAP1 SLOAD SWAP1 PUSH2 0x100 EXP SWAP1 DIV PUSH1 0x1 PUSH1 0x1 PUSH1 0xA0 SHL SUB AND PUSH1 0x1 PUSH1 0x1 PUSH1 0xA0 SHL SUB AND PUSH4 0xD6ACFE18 PUSH1 0x2 PUSH1 0x0 SWAP1 SLOAD SWAP1 PUSH2 0x100 EXP SWAP1 DIV PUSH1 0x1 PUSH1 0x1 PUSH1 0xA0 SHL SUB AND DUP11 DUP6 DUP15 DUP13 DUP13 DUP13 DUP13 PUSH1 0x40 MLOAD DUP10 PUSH4 0xFFFFFFFF AND PUSH1 0xE0 SHL DUP2 MSTORE PUSH1 0x4 ADD PUSH2 0x52D SWAP9 SWAP8 SWAP7 SWAP6 SWAP5 SWAP4 SWAP3 SWAP2 SWAP1 PUSH2 0x75F JUMP JUMPDEST PUSH1 0x20 PUSH1 0x40 MLOAD DUP1 DUP4 SUB DUP2 PUSH1 0x0 DUP8 GAS CALL ISZERO DUP1 ISZERO PUSH2 0x54C JUMPI RETURNDATASIZE PUSH1 0x0 DUP1 RETURNDATACOPY RETURNDATASIZE PUSH1 0x0 REVERT JUMPDEST POP POP POP POP PUSH1 0x40 MLOAD RETURNDATASIZE PUSH1 0x1F NOT PUSH1 0x1F DUP3 ADD AND DUP3 ADD DUP1 PUSH1 0x40 MSTORE POP DUP2 ADD SWAP1 PUSH2 0x570 SWAP2 SWAP1 PUSH2 0x7BD JUMP JUMPDEST SWAP1 POP DUP10 PUSH1 0x1 PUSH1 0x1 PUSH1 0xA0 SHL SUB AND DUP12 PUSH32 0x5702FD37BB7EF33E42A5AAA722D4CFF38AAC6F60E0A536B6CA0E10595AD98765 DUP12 DUP12 DUP6 DUP13 DUP13 DUP13 DUP13 PUSH1 0x40 MLOAD PUSH2 0x5B8 SWAP8 SWAP7 SWAP6 SWAP5 SWAP4 SWAP3 SWAP2 SWAP1 PUSH2 0x7D6 JUMP JUMPDEST PUSH1 0x40 MLOAD DUP1 SWAP2 SUB SWAP1 LOG3 POP POP POP POP POP POP POP POP POP POP POP JUMP JUMPDEST DUP1 CALLDATALOAD PUSH1 0x1 PUSH1 0x1 PUSH1 0xA0 SHL SUB DUP2 AND DUP2 EQ PUSH2 0x5E4 JUMPI PUSH1 0x0 DUP1 REVERT JUMPDEST SWAP2 SWAP1 POP JUMP JUMPDEST PUSH1 0x0 PUSH1 0x20 DUP3 DUP5 SUB SLT ISZERO PUSH2 0x5FB JUMPI PUSH1 0x0 DUP1 REVERT JUMPDEST PUSH2 0x604 DUP3 PUSH2 0x5CD JUMP JUMPDEST SWAP4 SWAP3 POP POP POP JUMP JUMPDEST PUSH1 0x0 DUP1 DUP4 PUSH1 0x1F DUP5 ADD SLT PUSH2 0x61D JUMPI PUSH1 0x0 DUP1 REVERT JUMPDEST POP DUP2 CALLDATALOAD PUSH8 0xFFFFFFFFFFFFFFFF DUP2 GT ISZERO PUSH2 0x635 JUMPI PUSH1 0x0 DUP1 REVERT JUMPDEST PUSH1 0x20 DUP4 ADD SWAP2 POP DUP4 PUSH1 0x20 DUP3 DUP6 ADD ADD GT ISZERO PUSH2 0x64D JUMPI PUSH1 0x0 DUP1 REVERT JUMPDEST SWAP3 POP SWAP3 SWAP1 POP JUMP JUMPDEST PUSH1 0x0 DUP1 PUSH1 0x0 DUP1 PUSH1 0x0 DUP1 PUSH1 0x0 DUP1 PUSH1 0xC0 DUP10 DUP12 SUB SLT ISZERO PUSH2 0x670 JUMPI PUSH1 0x0 DUP1 REVERT JUMPDEST DUP9 CALLDATALOAD SWAP8 POP PUSH2 0x680 PUSH1 0x20 DUP11 ADD PUSH2 0x5CD JUMP JUMPDEST SWAP7 POP PUSH1 0x40 DUP10 ADD CALLDATALOAD PUSH1 0x2 DUP2 LT PUSH2 0x694 JUMPI PUSH1 0x0 DUP1 REVERT JUMPDEST SWAP6 POP PUSH1 0x60 DUP10 ADD CALLDATALOAD SWAP5 POP PUSH1 0x80 DUP10 ADD CALLDATALOAD PUSH8 0xFFFFFFFFFFFFFFFF DUP1 DUP3 GT ISZERO PUSH2 0x6B8 JUMPI PUSH1 0x0 DUP1 REVERT JUMPDEST PUSH2 0x6C4 DUP13 DUP4 DUP14 ADD PUSH2 0x60B JUMP JUMPDEST SWAP1 SWAP7 POP SWAP5 POP PUSH1 0xA0 DUP12 ADD CALLDATALOAD SWAP2 POP DUP1 DUP3 GT ISZERO PUSH2 0x6DD JUMPI PUSH1 0x0 DUP1 REVERT JUMPDEST POP PUSH2 0x6EA DUP12 DUP3 DUP13 ADD PUSH2 0x60B JUMP JUMPDEST SWAP10 SWAP13 SWAP9 SWAP12 POP SWAP7 SWAP10 POP SWAP5 SWAP8 SWAP4 SWAP7 SWAP3 SWAP6 SWAP5 POP POP POP JUMP JUMPDEST PUSH1 0x0 PUSH1 0x20 DUP3 DUP5 SUB SLT ISZERO PUSH2 0x710 JUMPI PUSH1 0x0 DUP1 REVERT JUMPDEST DUP2 MLOAD DUP1 ISZERO ISZERO DUP2 EQ PUSH2 0x604 JUMPI PUSH1 0x0 DUP1 REVERT JUMPDEST PUSH4 0x4E487B71 PUSH1 0xE0 SHL PUSH1 0x0 MSTORE PUSH1 0x21 PUSH1 0x4 MSTORE PUSH1 0x24 PUSH1 0x0 REVERT JUMPDEST DUP2 DUP4 MSTORE DUP2 DUP2 PUSH1 0x20 DUP6 ADD CALLDATACOPY POP PUSH1 0x0 DUP3 DUP3 ADD PUSH1 0x20 SWAP1 DUP2 ADD SWAP2 SWAP1 SWAP2 MSTORE PUSH1 0x1F SWAP1 SWAP2 ADD PUSH1 0x1F NOT AND SWAP1 SWAP2 ADD ADD SWAP1 JUMP JUMPDEST PUSH1 0x1 PUSH1 0x1 PUSH1 0xA0 SHL SUB DUP10 DUP2 AND DUP3 MSTORE PUSH1 0x20 DUP3 ADD DUP10 SWAP1 MSTORE DUP8 DUP2 AND PUSH1 0x40 DUP4 ADD MSTORE DUP7 AND PUSH1 0x60 DUP3 ADD MSTORE PUSH1 0xC0 PUSH1 0x80 DUP3 ADD DUP2 SWAP1 MSTORE PUSH1 0x0 SWAP1 PUSH2 0x79B SWAP1 DUP4 ADD DUP7 DUP9 PUSH2 0x736 JUMP JUMPDEST DUP3 DUP2 SUB PUSH1 0xA0 DUP5 ADD MSTORE PUSH2 0x7AE DUP2 DUP6 DUP8 PUSH2 0x736 JUMP JUMPDEST SWAP12 SWAP11 POP POP POP POP POP POP POP POP POP POP POP JUMP JUMPDEST PUSH1 0x0 PUSH1 0x20 DUP3 DUP5 SUB SLT ISZERO PUSH2 0x7CF JUMPI PUSH1 0x0 DUP1 REVERT JUMPDEST POP MLOAD SWAP2 SWAP1 POP JUMP JUMPDEST PUSH1 0x0 PUSH1 0x2 DUP10 LT PUSH2 0x7F6 JUMPI PUSH4 0x4E487B71 PUSH1 0xE0 SHL PUSH1 0x0 MSTORE PUSH1 0x21 PUSH1 0x4 MSTORE PUSH1 0x24 PUSH1 0x0 REVERT JUMPDEST DUP9 DUP3 MSTORE DUP8 PUSH1 0x20 DUP4 ADD MSTORE DUP7 PUSH1 0x40 DUP4 ADD MSTORE PUSH1 0xA0 PUSH1 0x60 DUP4 ADD MSTORE PUSH2 0x81A PUSH1 0xA0 DUP4 ADD DUP7 DUP9 PUSH2 0x736 JUMP JUMPDEST DUP3 DUP2 SUB PUSH1 0x80 DUP5 ADD MSTORE PUSH2 0x82D DUP2 DUP6 DUP8 PUSH2 0x736 JUMP JUMPDEST SWAP11 SWAP10 POP POP POP POP POP POP POP POP POP POP JUMP INVALID LOG2 PUSH5 0x6970667358 0x22 SLT KECCAK256 0xB5 0xEF 0x5D 0xE2 0xB9 0xB1 0x28 GAS 0xE2 0xEF 0xAB 0xE1 DUP3 0xA6 PUSH18 0x483C38A841868C4F72598491EED1EE642C64 PUSH20 0x6F6C634300081400330000000000000000000000 "},"methodIdentifiers":{"bctToken()":"f5dc2e42","executeRetirement(uint256,address,uint8,uint256,string,string)":"e2ea068d","klimaAgg()":"fc5e126e","nctToken()":"105036ae","owner()":"8da5cb5b","relayer()":"8406c079","setKlimaAggregator(address)":"b5974aa4","setRelayer(address)":"6548e9bc","usdc()":"3e413bee"}}}}}