{"contracts/ClearSkyLiquidityPoolV3.sol":{"ClearSkyLiquidityPoolV3":{"abi":[{"inputs":[{"internalType":"address","name":"_factory","type":"address"},{"internalType":"address","name":"_poolUser","type":"address"},{"internalType":"address","name":"_cslpToken","type":"address"},{"internalType":"address","name":"_fcdrToken","type":"address"},{"internalType":"address","name":"_owner","type":"address"}],"stateMutability":"nonpayable","type":"constructor"},{"inputs":[],"name":"EnforcedPause","type":"error"},{"inputs":[],"name":"ExpectedPause","type":"error"},{"inputs":[],"name":"InsufficientHBAR","type":"error"},{"inputs":[],"name":"InsufficientInitialLiquidity","type":"error"},{"inputs":[],"name":"InsufficientLPBalance","type":"error"},{"inputs":[],"name":"InvalidAmounts","type":"error"},{"inputs":[],"name":"NoLiquidityProvided","type":"error"},{"inputs":[{"internalType":"address","name":"owner","type":"address"}],"name":"OwnableInvalidOwner","type":"error"},{"inputs":[{"internalType":"address","name":"account","type":"address"}],"name":"OwnableUnauthorizedAccount","type":"error"},{"inputs":[],"name":"PoolAlreadyInitialized","type":"error"},{"inputs":[],"name":"PoolNotActive","type":"error"},{"inputs":[],"name":"ReentrancyGuardReentrantCall","type":"error"},{"inputs":[],"name":"SlippageExceeded","type":"error"},{"anonymous":false,"inputs":[{"indexed":false,"internalType":"bool","name":"","type":"bool"},{"indexed":false,"internalType":"bytes","name":"","type":"bytes"}],"name":"CallResponseEvent","type":"event"},{"anonymous":false,"inputs":[{"indexed":true,"internalType":"address","name":"owner","type":"address"},{"indexed":false,"internalType":"uint256","name":"fcdrId","type":"uint256"},{"indexed":false,"internalType":"uint256","name":"hbarAmount","type":"uint256"},{"indexed":false,"internalType":"uint256","name":"timestamp","type":"uint256"}],"name":"FCDRMinted","type":"event"},{"anonymous":false,"inputs":[{"indexed":true,"internalType":"address","name":"tokenAddress","type":"address"},{"indexed":false,"internalType":"string","name":"name","type":"string"},{"indexed":false,"internalType":"string","name":"symbol","type":"string"},{"indexed":false,"internalType":"uint8","name":"decimals","type":"uint8"},{"indexed":false,"internalType":"address","name":"treasury","type":"address"}],"name":"FCDRTokenCreated","type":"event"},{"anonymous":false,"inputs":[{"indexed":true,"internalType":"address","name":"collector","type":"address"},{"indexed":false,"internalType":"uint256","name":"hbarAmount","type":"uint256"},{"indexed":false,"internalType":"uint256","name":"timestamp","type":"uint256"}],"name":"FeesCollected","type":"event"},{"anonymous":false,"inputs":[{"indexed":true,"internalType":"address","name":"token","type":"address"},{"indexed":true,"internalType":"address","name":"account","type":"address"}],"name":"HTSAssociateAttempt","type":"event"},{"anonymous":false,"inputs":[{"indexed":true,"internalType":"address","name":"token","type":"address"},{"indexed":true,"internalType":"address","name":"account","type":"address"},{"indexed":false,"internalType":"string","name":"reason","type":"string"}],"name":"HTSAssociateSkipped","type":"event"},{"anonymous":false,"inputs":[{"indexed":true,"internalType":"address","name":"token","type":"address"},{"indexed":true,"internalType":"address","name":"account","type":"address"}],"name":"HTSAssociateSuccess","type":"event"},{"anonymous":false,"inputs":[{"indexed":true,"internalType":"address","name":"token","type":"address"},{"indexed":false,"internalType":"int64","name":"amount","type":"int64"},{"indexed":false,"internalType":"int64[]","name":"serialNumbers","type":"int64[]"}],"name":"HTSBurnAttempt","type":"event"},{"anonymous":false,"inputs":[{"indexed":true,"internalType":"address","name":"token","type":"address"},{"indexed":false,"internalType":"int64","name":"amount","type":"int64"},{"indexed":false,"internalType":"int32","name":"responseCode","type":"int32"}],"name":"HTSBurnFailed","type":"event"},{"anonymous":false,"inputs":[{"indexed":true,"internalType":"address","name":"token","type":"address"},{"indexed":false,"internalType":"int64","name":"amount","type":"int64"},{"indexed":false,"internalType":"int64","name":"newTotalSupply","type":"int64"}],"name":"HTSBurnSuccess","type":"event"},{"anonymous":false,"inputs":[{"indexed":true,"internalType":"address","name":"token","type":"address"},{"indexed":true,"internalType":"address","name":"to","type":"address"},{"indexed":false,"internalType":"int64","name":"amount","type":"int64"}],"name":"HTSMintAttempt","type":"event"},{"anonymous":false,"inputs":[{"indexed":true,"internalType":"address","name":"token","type":"address"},{"indexed":true,"internalType":"address","name":"to","type":"address"},{"indexed":false,"internalType":"int64","name":"amount","type":"int64"},{"indexed":false,"internalType":"int32","name":"responseCode","type":"int32"}],"name":"HTSMintFailed","type":"event"},{"anonymous":false,"inputs":[{"indexed":true,"internalType":"address","name":"token","type":"address"},{"indexed":true,"internalType":"address","name":"to","type":"address"},{"indexed":false,"internalType":"int64","name":"amount","type":"int64"},{"indexed":false,"internalType":"int64","name":"newTotalSupply","type":"int64"}],"name":"HTSMintSuccess","type":"event"},{"anonymous":false,"inputs":[{"indexed":true,"internalType":"address","name":"token","type":"address"},{"indexed":true,"internalType":"address","name":"from","type":"address"},{"indexed":true,"internalType":"address","name":"to","type":"address"},{"indexed":false,"internalType":"int64","name":"amount","type":"int64"}],"name":"HTSTransferAttempt","type":"event"},{"anonymous":false,"inputs":[{"indexed":true,"internalType":"address","name":"token","type":"address"},{"indexed":true,"internalType":"address","name":"from","type":"address"},{"indexed":true,"internalType":"address","name":"to","type":"address"},{"indexed":false,"internalType":"int64","name":"amount","type":"int64"},{"indexed":false,"internalType":"int32","name":"responseCode","type":"int32"}],"name":"HTSTransferFailed","type":"event"},{"anonymous":false,"inputs":[{"indexed":true,"internalType":"address","name":"token","type":"address"},{"indexed":true,"internalType":"address","name":"from","type":"address"},{"indexed":true,"internalType":"address","name":"to","type":"address"},{"indexed":false,"internalType":"int64","name":"amount","type":"int64"}],"name":"HTSTransferSuccess","type":"event"},{"anonymous":false,"inputs":[{"indexed":true,"internalType":"address","name":"user","type":"address"},{"indexed":false,"internalType":"uint256","name":"hbarAmount","type":"uint256"},{"indexed":false,"internalType":"uint256","name":"lpTokensMinted","type":"uint256"},{"indexed":false,"internalType":"uint256","name":"timestamp","type":"uint256"}],"name":"LiquidityAdded","type":"event"},{"anonymous":false,"inputs":[{"indexed":true,"internalType":"address","name":"user","type":"address"},{"indexed":false,"internalType":"uint256","name":"hbarAmount","type":"uint256"},{"indexed":false,"internalType":"uint256","name":"lpTokensBurned","type":"uint256"},{"indexed":false,"internalType":"uint256","name":"timestamp","type":"uint256"}],"name":"LiquidityRemoved","type":"event"},{"anonymous":false,"inputs":[{"indexed":true,"internalType":"address","name":"previousOwner","type":"address"},{"indexed":true,"internalType":"address","name":"newOwner","type":"address"}],"name":"OwnershipTransferred","type":"event"},{"anonymous":false,"inputs":[{"indexed":false,"internalType":"address","name":"account","type":"address"}],"name":"Paused","type":"event"},{"anonymous":false,"inputs":[{"indexed":true,"internalType":"address","name":"cslpToken","type":"address"},{"indexed":true,"internalType":"address","name":"fcdrToken","type":"address"}],"name":"TokensAssociated","type":"event"},{"anonymous":false,"inputs":[{"indexed":false,"internalType":"address","name":"account","type":"address"}],"name":"Unpaused","type":"event"},{"stateMutability":"payable","type":"fallback"},{"inputs":[],"name":"FEE_BPS","outputs":[{"internalType":"uint256","name":"","type":"uint256"}],"stateMutability":"view","type":"function"},{"inputs":[],"name":"FEE_DENOMINATOR","outputs":[{"internalType":"uint256","name":"","type":"uint256"}],"stateMutability":"view","type":"function"},{"inputs":[],"name":"HBAR_withdrawal","outputs":[],"stateMutability":"nonpayable","type":"function"},{"inputs":[],"name":"MIN_LIQUIDITY","outputs":[{"internalType":"uint256","name":"","type":"uint256"}],"stateMutability":"view","type":"function"},{"inputs":[{"internalType":"uint256","name":"minLPTokens","type":"uint256"},{"internalType":"uint256","name":"usdAmount","type":"uint256"},{"internalType":"uint256","name":"maturationAmount","type":"uint256"},{"internalType":"uint256","name":"cslpTokensToMint","type":"uint256"}],"name":"addLiquidity","outputs":[],"stateMutability":"payable","type":"function"},{"inputs":[{"internalType":"uint256","name":"usdAmount","type":"uint256"},{"internalType":"uint256","name":"maturationAmount","type":"uint256"},{"internalType":"uint256","name":"minLPTokens","type":"uint256"}],"name":"addLiquidityWithUSD","outputs":[],"stateMutability":"payable","type":"function"},{"inputs":[],"name":"associateTokens","outputs":[],"stateMutability":"nonpayable","type":"function"},{"inputs":[{"internalType":"uint256","name":"fcdrId","type":"uint256"}],"name":"burnFCDR","outputs":[],"stateMutability":"nonpayable","type":"function"},{"inputs":[{"internalType":"uint256","name":"usdAmount","type":"uint256"},{"internalType":"uint256","name":"maturationAmount","type":"uint256"}],"name":"calculateCSLPFromUSD","outputs":[{"internalType":"uint256","name":"cslpTokens","type":"uint256"}],"stateMutability":"pure","type":"function"},{"inputs":[{"internalType":"uint256","name":"lpTokenAmount","type":"uint256"}],"name":"calculateHBAR","outputs":[{"internalType":"uint256","name":"hbarAmount","type":"uint256"}],"stateMutability":"view","type":"function"},{"inputs":[{"internalType":"uint256","name":"hbarAmount","type":"uint256"}],"name":"calculateLPTokens","outputs":[{"internalType":"uint256","name":"lpTokens","type":"uint256"}],"stateMutability":"view","type":"function"},{"inputs":[],"name":"cslpToken","outputs":[{"internalType":"address","name":"","type":"address"}],"stateMutability":"view","type":"function"},{"inputs":[],"name":"emergencyWithdraw","outputs":[],"stateMutability":"nonpayable","type":"function"},{"inputs":[],"name":"factory","outputs":[{"internalType":"address","name":"","type":"address"}],"stateMutability":"view","type":"function"},{"inputs":[{"internalType":"uint256","name":"","type":"uint256"}],"name":"fcdrMetadata","outputs":[{"internalType":"uint256","name":"hbarAmount","type":"uint256"},{"internalType":"uint256","name":"timestamp","type":"uint256"},{"internalType":"address","name":"ownerAddress","type":"address"},{"internalType":"address","name":"poolAddress","type":"address"},{"internalType":"uint256","name":"fcdrId","type":"uint256"}],"stateMutability":"view","type":"function"},{"inputs":[],"name":"fcdrToken","outputs":[{"internalType":"address","name":"","type":"address"}],"stateMutability":"view","type":"function"},{"inputs":[{"internalType":"int32","name":"responseCode","type":"int32"}],"name":"getErrorMessage","outputs":[{"internalType":"string","name":"errorMessage","type":"string"}],"stateMutability":"pure","type":"function"},{"inputs":[{"internalType":"uint256","name":"fcdrId","type":"uint256"}],"name":"getFCDRMetadata","outputs":[{"components":[{"internalType":"uint256","name":"hbarAmount","type":"uint256"},{"internalType":"uint256","name":"timestamp","type":"uint256"},{"internalType":"address","name":"ownerAddress","type":"address"},{"internalType":"address","name":"poolAddress","type":"address"},{"internalType":"uint256","name":"fcdrId","type":"uint256"}],"internalType":"struct ClearSkyLiquidityPoolV3.FCDRMetadata","name":"","type":"tuple"}],"stateMutability":"view","type":"function"},{"inputs":[{"internalType":"address","name":"owner","type":"address"}],"name":"getOwnerFCDRs","outputs":[{"internalType":"uint256[]","name":"","type":"uint256[]"}],"stateMutability":"view","type":"function"},{"inputs":[],"name":"getPoolInfo","outputs":[{"internalType":"uint256","name":"_totalHBAR","type":"uint256"},{"internalType":"uint256","name":"_totalLPTokens","type":"uint256"},{"internalType":"uint256","name":"_totalValue","type":"uint256"}],"stateMutability":"view","type":"function"},{"inputs":[{"internalType":"uint256","name":"purchaseId","type":"uint256"}],"name":"getPurchaseMetadata","outputs":[{"components":[{"internalType":"uint256","name":"hbarAmount","type":"uint256"},{"internalType":"uint256","name":"timestamp","type":"uint256"},{"internalType":"uint256","name":"numUsed","type":"uint256"},{"internalType":"uint256","name":"cslpTokensMinted","type":"uint256"},{"internalType":"address","name":"purchaser","type":"address"},{"internalType":"address","name":"lpAddress","type":"address"}],"internalType":"struct ClearSkyLiquidityPoolV3.PurchaseMetadata","name":"","type":"tuple"}],"stateMutability":"view","type":"function"},{"inputs":[],"name":"getTotalFCDRs","outputs":[{"internalType":"uint256","name":"","type":"uint256"}],"stateMutability":"view","type":"function"},{"inputs":[],"name":"getTotalPurchases","outputs":[{"internalType":"uint256","name":"","type":"uint256"}],"stateMutability":"view","type":"function"},{"inputs":[{"internalType":"address","name":"user","type":"address"}],"name":"getUserPurchases","outputs":[{"internalType":"uint256[]","name":"","type":"uint256[]"}],"stateMutability":"view","type":"function"},{"inputs":[{"internalType":"address","name":"user","type":"address"}],"name":"getUserShare","outputs":[{"internalType":"uint256","name":"userLPBalance","type":"uint256"},{"internalType":"uint256","name":"userHBARValue","type":"uint256"},{"internalType":"uint256","name":"sharePercentage","type":"uint256"}],"stateMutability":"view","type":"function"},{"inputs":[{"internalType":"address","name":"user","type":"address"}],"name":"getUserValue","outputs":[{"internalType":"uint256","name":"userValue","type":"uint256"}],"stateMutability":"view","type":"function"},{"inputs":[],"name":"getValuePerLPToken","outputs":[{"internalType":"uint256","name":"valuePerToken","type":"uint256"}],"stateMutability":"view","type":"function"},{"inputs":[{"internalType":"address","name":"","type":"address"}],"name":"hasReceivedCSLPFromThisPool","outputs":[{"internalType":"bool","name":"","type":"bool"}],"stateMutability":"view","type":"function"},{"inputs":[],"name":"initializePool","outputs":[],"stateMutability":"payable","type":"function"},{"inputs":[],"name":"owner","outputs":[{"internalType":"address","name":"","type":"address"}],"stateMutability":"view","type":"function"},{"inputs":[{"internalType":"address","name":"","type":"address"},{"internalType":"uint256","name":"","type":"uint256"}],"name":"ownerFCDRs","outputs":[{"internalType":"uint256","name":"","type":"uint256"}],"stateMutability":"view","type":"function"},{"inputs":[],"name":"pause","outputs":[],"stateMutability":"nonpayable","type":"function"},{"inputs":[],"name":"paused","outputs":[{"internalType":"bool","name":"","type":"bool"}],"stateMutability":"view","type":"function"},{"inputs":[],"name":"poolUser","outputs":[{"internalType":"address","name":"","type":"address"}],"stateMutability":"view","type":"function"},{"inputs":[{"internalType":"uint256","name":"","type":"uint256"}],"name":"purchaseMetadata","outputs":[{"internalType":"uint256","name":"hbarAmount","type":"uint256"},{"internalType":"uint256","name":"timestamp","type":"uint256"},{"internalType":"uint256","name":"numUsed","type":"uint256"},{"internalType":"uint256","name":"cslpTokensMinted","type":"uint256"},{"internalType":"address","name":"purchaser","type":"address"},{"internalType":"address","name":"lpAddress","type":"address"}],"stateMutability":"view","type":"function"},{"inputs":[{"internalType":"address","name":"token","type":"address"},{"internalType":"bytes","name":"encodedFunctionSelector","type":"bytes"}],"name":"redirectForToken","outputs":[{"internalType":"int256","name":"responseCode","type":"int256"},{"internalType":"bytes","name":"response","type":"bytes"}],"stateMutability":"nonpayable","type":"function"},{"inputs":[{"internalType":"uint256","name":"lpTokenAmount","type":"uint256"},{"internalType":"uint256","name":"minHBAR","type":"uint256"}],"name":"removeLiquidity","outputs":[],"stateMutability":"nonpayable","type":"function"},{"inputs":[],"name":"renounceOwnership","outputs":[],"stateMutability":"nonpayable","type":"function"},{"inputs":[],"name":"totalFCDRs","outputs":[{"internalType":"uint256","name":"","type":"uint256"}],"stateMutability":"view","type":"function"},{"inputs":[],"name":"totalHBAR","outputs":[{"internalType":"uint256","name":"","type":"uint256"}],"stateMutability":"view","type":"function"},{"inputs":[],"name":"totalLPTokens","outputs":[{"internalType":"uint256","name":"","type":"uint256"}],"stateMutability":"view","type":"function"},{"inputs":[],"name":"totalPurchases","outputs":[{"internalType":"uint256","name":"","type":"uint256"}],"stateMutability":"view","type":"function"},{"inputs":[],"name":"totalValue","outputs":[{"internalType":"uint256","name":"","type":"uint256"}],"stateMutability":"view","type":"function"},{"inputs":[{"internalType":"address","name":"token","type":"address"},{"internalType":"address","name":"from","type":"address"},{"internalType":"address","name":"to","type":"address"},{"internalType":"uint256","name":"amount","type":"uint256"}],"name":"transferFrom","outputs":[{"internalType":"int64","name":"responseCode","type":"int64"}],"stateMutability":"nonpayable","type":"function"},{"inputs":[{"internalType":"address","name":"token","type":"address"},{"internalType":"address","name":"from","type":"address"},{"internalType":"address","name":"to","type":"address"},{"internalType":"uint256","name":"serialNumber","type":"uint256"}],"name":"transferFromNFT","outputs":[{"internalType":"int64","name":"responseCode","type":"int64"}],"stateMutability":"nonpayable","type":"function"},{"inputs":[{"internalType":"address","name":"newOwner","type":"address"}],"name":"transferOwnership","outputs":[],"stateMutability":"nonpayable","type":"function"},{"inputs":[],"name":"unpause","outputs":[],"stateMutability":"nonpayable","type":"function"},{"inputs":[{"internalType":"address","name":"","type":"address"},{"internalType":"uint256","name":"","type":"uint256"}],"name":"userPurchases","outputs":[{"internalType":"uint256","name":"","type":"uint256"}],"stateMutability":"view","type":"function"},{"stateMutability":"payable","type":"receive"}],"evm":{"bytecode":{"linkReferences":{},"object":"610100346200032957601f6200378f38819003918201601f191683019291906001600160401b038411838510176200032e578160a092849260409687528339810103126200032957620000528162000344565b6020906200006282840162000344565b9060806200007286860162000344565b93620000816060870162000344565b956001600160a01b0392839162000099910162000344565b169182156200031157600080546001600160a01b031981168517825590939082167f8be0079c531659141344cd1fd0a4f28419497f9722a3daafe3b4186f6b6457e08580a360018055610100600160a81b031960025416600255828052600382526001888420556001835260028884205560028352878060049485828220556003815260088282205585815260108282205560058152848282205560068152205580841615620002ce57808516156200028b578086161562000248578616156200020657505060805260a05260c05260e0525161343590816200035a82396080518181816103790152818161077701528181610a4f015281816112c50152818161171b015281816121f3015261233c015260a05181611527015260c05181818161094c01528181610d280152818161120c015281816116a601528181611a5c0152818161205401528181612570015261260d015260e051818181610eb801528181611a910152611bc50152f35b865162461bcd60e51b815291820152601a60248201527f496e76616c6964204643445220746f6b656e2061646472657373000000000000604482015260649150fd5b875162461bcd60e51b8152808401839052601a60248201527f496e76616c69642043534c5020746f6b656e20616464726573730000000000006044820152606490fd5b875162461bcd60e51b8152808401839052601960248201527f496e76616c696420706f6f6c20757365722061646472657373000000000000006044820152606490fd5b875162461bcd60e51b8152808401839052601760248201527f496e76616c696420666163746f727920616464726573730000000000000000006044820152606490fd5b8751631e4fbdf760e01b815260006004820152602490fd5b600080fd5b634e487b7160e01b600052604160045260246000fd5b51906001600160a01b0382168203620003295756fe608060409080825260049081361015610053575b503615610051576020606492519162461bcd60e51b83528201526012602482015271119d5b98dd1a5bdb881b9bdd08199bdd5b9960721b6044820152fd5b005b600090813560e01c9081630a5579d114611bb15750806310ca0bce14611a4057806315dacbea146119e35780631cf2e6981461196f57806321b77d6314611951578063240f1b6214611883578063250e6de01461167757806328999437146116585780632fb9125d1461163b57806332acf78b1461090057806334111bbf1461161a5780633474d1f9146115b257806338b37d1c146115565780633e7e516a146115125780633f4ba83a146114ba57806342c649de146114995780634ddd1c54146113d8578063545466a5146111de5780635962a9411461031f5780635c975abb146111ba57806360246c881461118a578063618dc65e1461104a578063715018a614610ff0578063734c79b614610e225780637d56be3c14610dda5780638456cb5914610d7f5780638da5cb5b14610d575780639827d47314610d135780639b23d3d914610c6b5780639d7de6b31461091f578063a7112efe14610900578063a78c849b146108d9578063aebf3e41146108a7578063b79c41a214610884578063bbbaee4c14610840578063be59112914610800578063bf333f2c146107e4578063c279a2bc146107a6578063c45a015514610762578063c6e5d8f6146106e0578063cf2c033414610687578063d4c3eea014610668578063d73792a91461064b578063db2e21bc14610581578063e78340291461033e578063ea04f1551461031f578063ef6283d9146102fc5763f2fde38b03610013579190346102f85760203660031901126102f857610287611bf4565b90610290611e1e565b6001600160a01b039182169283156102e2575050600054826001600160601b0360a01b821617600055167f8be0079c531659141344cd1fd0a4f28419497f9722a3daafe3b4186f6b6457e0600080a380f35b51631e4fbdf760e01b8152908101849052602490fd5b8280fd5b50823461031b578160031936011261031b576020906005549051908152f35b5080fd5b50823461031b578160031936011261031b576020906009549051908152f35b5091346102f857826003193601126102f857610358611e1e565b610360613276565b479161036d831515613295565b6001600160a01b0390847f00000000000000000000000000000000000000000000000000000000000000008316803b1561031b57818091602487518094819363272b261360e21b835230898401525af180156105775761055f575b508290541681600c548551926103dd84611ccf565b8784526020840190428252878501908152606085019130835260808601938085528b52600a602052888b20955186555160018601558660028601915116906001600160601b0360a01b918282541617905586600386019251169082541617905551910155818554168552600b60205261045b838620600c5490611fde565b610466600c54612018565b80600c558286541690600019810190811161054c578680878482957fb5d1185f9eb3bc9f64976a0642fa385671626df86e9aecd91bcda7206b0456666104c685978c51918291874291846040919493926060820195825260208201520152565b0390a25af16104d36124c9565b50156105105750907f2e4fb6077d4acf86e12bb7411fb82b2b3eaa6a49787f4b1e17b423e7ea84116991845416928151908152426020820152a280f35b606490602084519162461bcd60e51b8352820152601660248201527512109054881dda5d1a191c985dd85b0819985a5b195960521b6044820152fd5b634e487b7160e01b875260118352602487fd5b61056890611cbc565b6105735784386103c8565b8480fd5b85513d84823e3d90fd5b5091346102f857826003193601126102f85761059b611e1e565b6105a3613276565b47916105b0831515613295565b60018060a01b03908480808087868254165af16105cb6124c9565b50156106085750907f2e4fb6077d4acf86e12bb7411fb82b2b3eaa6a49787f4b1e17b423e7ea84116991845416928151908152426020820152a280f35b606490602084519162461bcd60e51b8352820152601b60248201527f456d657267656e6379207769746864726177616c206661696c656400000000006044820152fd5b50823461031b578160031936011261031b57602090516127108152f35b50823461031b578160031936011261031b576020906006549051908152f35b50823461031b578060031936011261031b576106a1611bf4565b6001600160a01b031682526008602052808220805460243593908410156106dd57506020926106cf91611dda565b91905490519160031b1c8152f35b80fd5b50823461031b57602090816003193601126102f8576001600160a01b03610705611bf4565b168352600882528083209281518093808654928381520195835280832092905b82821061074b57610747868661073d828b0383611d56565b5191829182611c50565b0390f35b835487529586019560019384019390910190610725565b50823461031b578160031936011261031b57517f00000000000000000000000000000000000000000000000000000000000000006001600160a01b03168152602090f35b50823461031b57602036600319011261031b5760209160ff9082906001600160a01b036107d1611bf4565b168152600d855220541690519015158152f35b50823461031b578160031936011261031b5760209051601e8152f35b509190346102f85760203660031901126102f85735918260030b83036106dd575061082d61074792612669565b9051918291602083526020830190611db5565b50823461031b57602036600319011261031b576107479061085f611bf4565b5061086861256e565b9251918252602082015260408101919091529081906060820190565b50823461031b576020906108a061089a36611e08565b90612523565b9051908152f35b5060803660031901126106dd576108bc611ec9565b6108c4611eab565b6108d260443560243561204a565b6001805580f35b50823461031b57602036600319011261031b576020906108f7611bf4565b506108a061260b565b50823461031b578160031936011261031b57602090600c549051908152f35b5091346102f85761092f36611e08565b91909261093a611ec9565b610942611eab565b6001600160a01b037f00000000000000000000000000000000000000000000000000000000000000008116610978811515611e4a565b8515610c2f576005548015610bf55783546109a861099f8361099a848c6124a9565b611e8b565b97881015612469565b478711610bb2576109c5916109be888a936124bc565b86556124bc565b6005556109d4856006546124bc565b600655600791876001600160401b038816840b918387516109f481611cea565b838152885190898201978683526020988b8a8501528251809152896060850193019187905b8b838310610b8b57505050505090807fb310aaac57f9a89f4e3661e38cb8df5ea9428b82d1bb2b8ab6a77c3f52818f02920390a27f000000000000000000000000000000000000000000000000000000000000000016803b1561031b5781809160248b8a519485938492631fe4ff2960e01b84528c8401525af18015610b815790879291610b66575b50507f7b2f31b2ffda9d7a1ac640400c8f7eb1c8d0071689111f45797448a14697587c9181519081528985820152a28580808087335af1610ae16124c9565b5015610b2f57505051908152602081019190915242604082015233907f1dc8bb69df2b8e91fbdcbfcf93d951b3f0000f085a95fe3f7946d6161439245d9080606081015b0390a26001805580f35b606492519162461bcd60e51b8352820152601460248201527312109054881d1c985b9cd9995c8819985a5b195960621b6044820152fd5b610b71919250611cbc565b610b7d57848838610aa2565b8780fd5b87513d84823e3d90fd5b91946001939698995084839295985051850b81520195019201928e96959389959392610a19565b855162461bcd60e51b8152602081870152601960248201527f496e73756666696369656e74204842415220696e20706f6f6c000000000000006044820152606490fd5b845162461bcd60e51b81526020818601526014602482015273139bc81b1a5c5d5a591a5d1e481a5b881c1bdbdb60621b6044820152606490fd5b835162461bcd60e51b81526020818501526016602482015275139bc81314081d1bdad95b9cc81cdc1958da599a595960521b6044820152606490fd5b50823461031b578180602093610cd6610cc8610c8636611c0f565b8951639b23d3d960e01b8c82019081526001600160a01b03958616602483015293851660448201529390911660648401526084830152929091829060a4820190565b03601f198101835282611d56565b5190826101675af1610ce66124c9565b915015610d0a57808380610cff93518301019101613315565b905b519060030b8152f35b50601590610d01565b50823461031b578160031936011261031b57517f00000000000000000000000000000000000000000000000000000000000000006001600160a01b03168152602090f35b50823461031b578160031936011261031b57905490516001600160a01b039091168152602090f35b50823461031b578160031936011261031b5760207f62e78cea01bee320cd4e420270b5ea74000d11b0c9f74754ebdbfc544b05a25891610dbd611e1e565b610dc5611eab565b600160ff19600254161760025551338152a180f35b50823461031b578060031936011261031b57610df4611bf4565b6001600160a01b03168252600b602052808220805460243593908410156106dd57506020926106cf91611dda565b509190346102f85760209182600319360112610fec578135610e42611e1e565b610e4f600c5482106132d7565b8452600a8352808420815190610e6482611ccf565b8054825260018101548583015260018060a01b03916080858460028501541693848785015285600382015416606085015201549101528186541603610faa5784809183518681019163efef57f960e01b83527f00000000000000000000000000000000000000000000000000000000000000001660248201523060448201526001606482015260648152610ef781611ccf565b5190826101675af1610f076124c9565b9015610fa257808480610f1f93518301019101613315565b60030b60168103610f2e578480f35b90610f3b610f9e92612669565b90610f846035825180947402321a22910313ab93734b733903330b4b632b21d1605d1b89830152610f74815180928b8686019101611d92565b8101036015810185520183611d56565b5193849362461bcd60e51b85528401526024830190611db5565b0390fd5b506015610f1f565b5091606492519162461bcd60e51b8352820152601a60248201527f4e6f7420746865206f776e6572206f66207468697320464344520000000000006044820152fd5b8380fd5b50346106dd57806003193601126106dd57611009611e1e565b600080546001600160a01b0319811682556001600160a01b03167f8be0079c531659141344cd1fd0a4f28419497f9722a3daafe3b4186f6b6457e08280a380f35b50903461031b578260031936011261031b57611064611bf4565b90602435906001600160401b038211610fec5736602383011215610fec5781013561108e81611d77565b9161109b86519384611d56565b8183523660248383010111610573576110fb859492938560208682976024610cc89701838601378301015287516330c6e32f60e11b602082019081526001600160a01b039095166024820152604481018990529283916064830190611db5565b5190826101675af19061110c6124c9565b917f4af4780e06fe8cb9df64b0794fa6f01399af979175bb988e35e0e57e594567bc845182151581528560208201528061114887820187611db5565b0390a11561117057506107476016915b835193849360030b8452806020850152830190611db5565b8251915061117d82611cea565b8152610747601591611158565b50346106dd57806003193601126106dd575054600554600654925191825260208201526040810191909152606090f35b50823461031b578160031936011261031b5760209060ff6002541690519015158152f35b509160603660031901126102f8578135906024356111fa611ec9565b611202611eab565b6001600160a01b037f000000000000000000000000000000000000000000000000000000000000000081169390919061123c851515611e4a565b6005541561139e57869161127091611255341515611eec565b611260811515611f2b565b61126b821515611f81565b612523565b9461127f604435871015612469565b61128a34825461203d565b81556112983460065461203d565b6006556001600160401b03861660070b928451848152866000805160206133a083398151915260203393a37f000000000000000000000000000000000000000000000000000000000000000016803b156102f857845163bb81c87560e01b81523392810192835260208301889052918391839182908490829060400103925af1801561139457611380575b50506000805160206133e0833981519152926113418560055461203d565b60055582519182528560208301526000805160206133c0833981519152833393a351348152602081019290925242604083015233918060608101610b25565b61138990611cbc565b610573578438611323565b84513d84823e3d90fd5b835162461bcd60e51b81526020818801526014602482015273141bdbdb081b9bdd081a5b9a5d1a585b1a5e995960621b6044820152606490fd5b509190346102f85760203660031901126102f8578160a0938235816080845161140081611ccf565b82815282602082015282868201528260608201520152611423600c5482106132d7565b8152600a602052209082519161143883611ccf565b805493848452600182015460208501908152600180881b0393849160808360028701541692858901938452846003880154169660608a0197885201549701968752835197885251602088015251169085015251166060830152516080820152f35b508290346106dd5760203660031901126106dd57506108a0602092356124f9565b50823461031b578160031936011261031b5760207f5db9ee0a495bf2e6ff9c91a7834c1ba4fdd244a5e8aa4e537bd38aeae4b073aa916114f8611e1e565b611500613276565b60ff196002541660025551338152a180f35b50823461031b578160031936011261031b57517f00000000000000000000000000000000000000000000000000000000000000006001600160a01b03168152602090f35b5091346102f85760203660031901126102f8578060a09383358152600a60205220805492600182015492600180871b03918260028501541692600385015416930154938151958652602086015284015260608301526080820152f35b5091346102f85760203660031901126102f8578060c09383358152600760205220805492600182015492600283015490600384015492600560018060a01b038092870154169501541694815196875260208701528501526060840152608083015260a0820152f35b508290346106dd5760203660031901126106dd57506108a060209235612555565b50823461031b578160031936011261031b576020906108a06125ed565b509190346102f857826003193601126102f85760209250549051908152f35b50908160031936011261031b5761168c611e1e565b611694611ec9565b61169c611eab565b6001600160a01b037f0000000000000000000000000000000000000000000000000000000000000000811693906116d4851515611e4a565b60055461184057620186a034106117fd573483553460065560643404926001600160401b03841660070b918351838152876000805160206133a083398151915260203393a37f00000000000000000000000000000000000000000000000000000000000000001690813b156117f957835163bb81c87560e01b8152339181019182526020820186905291869183919082908490829060400103925af180156117ef576117ce575b508293946000805160206133e08339815191529360055582519182528560208301526000805160206133c0833981519152833393a351348152602081019290925242604083015233918060608101610b25565b936117e86000805160206133e08339815191529495611cbc565b939261177b565b83513d87823e3d90fd5b8580fd5b815162461bcd60e51b8152602081850152601e60248201527f496e73756666696369656e7420696e697469616c206c697175696469747900006044820152606490fd5b815162461bcd60e51b8152602081850152601860248201527f506f6f6c20616c726561647920696e697469616c697a656400000000000000006044820152606490fd5b509190346102f85760203660031901126102f857600590828460c09560a083516118ac81611c8b565b8281528260208201528285820152826060820152826080820152015282358152600760205220908351916118df83611c8b565b8054948584526001820154906020850191825260028301548186019081526003840154926060870193845260a0600180821b038099818099890154169760808b0198895201541697019687528251988952516020890152519087015251606086015251166080840152511660a0820152f35b50823461031b578160031936011261031b5760209051620186a08152f35b50823461031b57602090816003193601126102f8576001600160a01b03611994611bf4565b168352600b82528083209281518093808654928381520195835280832092905b8282106119cc57610747868661073d828b0383611d56565b8354875295860195600193840193909101906119b4565b50823461031b578180602093610cd6610cc86119fe36611c0f565b8951630aed65f560e11b8c82019081526001600160a01b03958616602483015293851660448201529390911660648401526084830152929091829060a4820190565b5091346102f857826003193601126102f857611a5a611e1e565b7f000000000000000000000000000000000000000000000000000000000000000091611a86833061332e565b60168103611b5e57507f000000000000000000000000000000000000000000000000000000000000000091611abb833061332e565b60168103611afa575050506001600160a01b0390811691167f650590083355aaffaa2fa0c2195838842f2b6d5ea01c067f5e128066ea40f15c8380a380f35b60209291611b0d610f9e9260030b612669565b90610f84603f825180947f4643445220746f6b656e206173736f63696174696f6e206661696c65643a200089830152611b4e815180928b8686019101611d92565b810103601f810185520183611d56565b602092611b70610f9e9260030b612669565b90610f84603f825180947f43534c5020746f6b656e206173736f63696174696f6e206661696c65643a200089830152611b4e815180928b8686019101611d92565b90503461031b578160031936011261031b577f00000000000000000000000000000000000000000000000000000000000000006001600160a01b03168152602090f35b600435906001600160a01b0382168203611c0a57565b600080fd5b6080906003190112611c0a576001600160a01b036004358181168103611c0a57916024358281168103611c0a57916044359081168103611c0a579060643590565b6020908160408183019282815285518094520193019160005b828110611c77575050505090565b835185529381019392810192600101611c69565b60c081019081106001600160401b03821117611ca657604052565b634e487b7160e01b600052604160045260246000fd5b6001600160401b038111611ca657604052565b60a081019081106001600160401b03821117611ca657604052565b602081019081106001600160401b03821117611ca657604052565b604081019081106001600160401b03821117611ca657604052565b606081019081106001600160401b03821117611ca657604052565b608081019081106001600160401b03821117611ca657604052565b90601f801991011681019081106001600160401b03821117611ca657604052565b6001600160401b038111611ca657601f01601f191660200190565b60005b838110611da55750506000910152565b8181015183820152602001611d95565b90602091611dce81518092818552858086019101611d92565b601f01601f1916010190565b8054821015611df25760005260206000200190600090565b634e487b7160e01b600052603260045260246000fd5b6040906003190112611c0a576004359060243590565b6000546001600160a01b03163303611e3257565b60405163118cdaa760e01b8152336004820152602490fd5b15611e5157565b60405162461bcd60e51b815260206004820152601260248201527110d4d314081d1bdad95b881b9bdd081cd95d60721b6044820152606490fd5b8115611e95570490565b634e487b7160e01b600052601260045260246000fd5b60ff60025416611eb757565b60405163d93c066560e01b8152600490fd5b600260015414611eda576002600155565b604051633ee5aeb560e01b8152600490fd5b15611ef357565b60405162461bcd60e51b815260206004820152601060248201526f139bc812109054881c1c9bdd9a59195960821b6044820152606490fd5b15611f3257565b60405162461bcd60e51b815260206004820152602160248201527f55534420616d6f756e74206d7573742062652067726561746572207468616e206044820152600360fc1b6064820152608490fd5b15611f8857565b60405162461bcd60e51b815260206004820152602860248201527f4d617475726174696f6e20616d6f756e74206d75737420626520677265617465604482015267072207468616e20360c41b6064820152608490fd5b805468010000000000000000811015611ca65761200091600182018155611dda565b819291549060031b91821b91600019901b1916179055565b60001981146120275760010190565b634e487b7160e01b600052601160045260246000fd5b9190820180921161202757565b6001600160a01b037f00000000000000000000000000000000000000000000000000000000000000008116929091600091612086851515611e4a565b612091341515611eec565b61209c821515611f2b565b6120a7811515611f81565b6005918254156122e657906120bb91612523565b906120c83460045461203d565b6004556120d73460065461203d565b600655338352602091600d835260409460ff86862054166000146122d95762ffffff855b1696876121d2575b506121aa938695929386946008936000805160206133e083398151915299519261212c84611c8b565b34845284840193428552888101938452606081018d8152608082019433865260a08301963088526009548b52600789528b8b20935184555160018401555160028301555160038201558260048201945116936001600160601b0360a01b94858254161790550192511690825416179055338352522060095490611fde565b6121b5600954612018565b6009555134815260208101929092524260408301523391606090a2565b8760070b908751828152816000805160206133a0833981519152883393a3827f000000000000000000000000000000000000000000000000000000000000000016803b15610b7d57885163bb81c87560e01b8152336004820152602481018b90529088908290604490829084905af180156122cf576122b7575b50938796936008936121aa97936000805160206133e08339815191529a97338852600d8652888820600160ff1982541617905561228a8d865461203d565b8555885191825287868301526000805160206133c0833981519152893393a3935093965093965093612103565b6122c18891611cbc565b6122cb573861224c565b8680fd5b89513d8a823e3d90fd5b62ffffff620f42406120fb565b939190913460045534600655338452602092600d845260409560ff878720541660001461245c5762ffffff865b16978815612433578860070b908851828152816000805160206133a0833981519152893393a3847f000000000000000000000000000000000000000000000000000000000000000016803b1561242f57895163bb81c87560e01b8152336004820152602481018c90529089908290604490829084905af1801561242557938a999591938c97936000805160206133e08339815191529c99956121aa9b97612407575b50906123fa93929160089899338b52600d89528b8b20600160ff1982541617905587558a5191825289888301526000805160206133c08339815191528b3393a3612523565b9086519261212c84611c8b565b9060089861241a6123fa96959493611cbc565b9850909192936123b5565b8a513d8b823e3d90fd5b8880fd5b5093838796936123fa6008946121aa9860016000805160206133e08339815191529c9955612523565b62ffffff620f4240612313565b1561247057565b60405162461bcd60e51b815260206004820152601160248201527014db1a5c1c1859d948195e18d959591959607a1b6044820152606490fd5b8181029291811591840414171561202757565b9190820391821161202757565b3d156124f4573d906124da82611d77565b916124e86040519384611d56565b82523d6000602084013e565b606090565b60055490811561251c5761251991612510916124a9565b60045490611e8b565b90565b5050600090565b9081156125308115611f2b565b61253b821515611f81565b620f42408084029384041417156120275761251991611e8b565b600554801561251c5761099a61251992600454906124a9565b7f00000000000000000000000000000000000000000000000000000000000000006001600160a01b0316156125e25760055460009181156125d7576125b98261099a600454866124a9565b91612710908185029185830414851517156120275761251991611e8b565b600092508291508190565b600090600090600090565b60055480156126055761251990606460065404611e8b565b50600090565b7f00000000000000000000000000000000000000000000000000000000000000006001600160a01b031615801561265f575b61265a5760065415600117156120275760055415611e9557600090565b600090565b506005541561263d565b8060030b9060168214613171576009821461311c57600a82146130bb576007821461306357600f82146130025760108214612fa157601e8214612f535760228214612ef257606f8214612ea35760aa8214612e425760ab8214612df05760ae8214612d9c5760af8214612d3b5760be8214612ceb5760bf8214612c925760a88214612c315760a98214612bd05760bd8214612b8257609b8214612b3657601a8214612aec57601b8214612aa25760268214612a49576040918281146129f2576041811461298657610117811461292e5761014581146128cf57610146811461287057610147811461280757610148146127b357603361277063ffffffff6125199316613196565b9251809372554e4b4e4f574e5f4552524f525f434f44455f60681b60208301526127a38151809260208686019101611d92565b8101036013810184520182611d56565b5072206d616e79206368696c64207265636f72647360681b8151916127d783611d20565b603383527f4d41585f4348494c445f5245434f5244535f4558434545444544202d20546f6f602084015282015290565b50507f6666696369656e742062616c616e636520666f722073746f726167652072656e81519161283683611d3b565b604183527f494e53554646494349454e545f53544f524147455f52454e54202d20496e73756020840152820152601d60fa1b606082015290565b50507f6e76616c6964207369676e617475726520666f7220707265636f6d70696c650081519161289f83611d20565b603f83527f494e56414c49445f505245434f4d50494c455f5349474e4154555245202d2049602084015282015290565b50507f6e74697469657320696e20707269636520726567696d652072656163686564008151916128fe83611d20565b603f83527f4d41585f454e5449544945535f43524541544544202d204d6178696d756d2065602084015282015290565b5050751cdd5cc81b9bd9194819d85cc8195e1a185d5cdd195960521b81519161295683611d20565b603683527f434f4e53454e5355535f4741535f455848415553544544202d20436f6e73656e602084015282015290565b50507f616e73616374696f6e2068617320746f6f206d616e79206e6573746564206c618151916129b583611d3b565b604483527f5452414e53414354494f4e5f544f4f5f4d414e595f4c4159455253202d2054726020840152820152637965727360e01b606082015290565b5050741bdb88195e18d959591cc81cda5e99481b1a5b5a5d605a1b815191612a1983611d20565b603583527f5452414e53414354494f4e5f4f56455253495a45202d205472616e7361637469602084015282015290565b5050604051612a5781611d20565b603581527f494e56414c49445f4b45595f454e434f44494e47202d204b657920656e636f646020820152741a5b99c8199bdc9b585d081a5cc81a5b9d985b1a59605a1b604082015290565b5050604051612ab081611d20565b602681527f4241445f454e434f44494e47202d204b657920656e636f64696e6720697320696020820152651b9d985b1a5960d21b604082015290565b5050604051612afa81611d20565b602681527f4b45595f5245515549524544202d205265717569726564206b6579206973206d602082015265697373696e6760d01b604082015290565b5050604051612b4481611d20565b602881527f494e56414c49445f41444d494e5f4b4559202d2041646d696e206b6579206973602082015267081a5b9d985b1a5960c21b604082015290565b5050604051612b9081611d20565b602a81527f494e56414c49445f535550504c595f4b4559202d20537570706c79206b6579206020820152691a5cc81a5b9d985b1a5960b21b604082015290565b5050604051612bde81611d20565b603e81527f494e56414c49445f544f4b454e5f494e495449414c5f535550504c59202d204960208201527f6e697469616c20737570706c792076616c756520697320696e76616c69640000604082015290565b5050604051612c3f81611d20565b603881527f494e56414c49445f544f4b454e5f444543494d414c53202d20546f6b656e206460208201527f6563696d616c732076616c756520697320696e76616c69640000000000000000604082015290565b5050604051612ca081611d20565b603581527f544f4b454e5f4e414d455f544f4f5f4c4f4e47202d20546f6b656e206e616d6560208201527408195e18d959591cc81b195b99dd1a081b1a5b5a5d605a1b604082015290565b5050604051612cf981611d20565b602c81527f4d495353494e475f544f4b454e5f4e414d45202d20546f6b656e206e616d652060208201526b1b9bdd081c1c9bdd9a59195960a21b604082015290565b5050604051612d4981611d20565b603981527f544f4b454e5f53594d424f4c5f544f4f5f4c4f4e47202d20546f6b656e20737960208201527f6d626f6c2065786365656473206c656e677468206c696d697400000000000000604082015290565b5050604051612daa81611d20565b603081527f4d495353494e475f544f4b454e5f53594d424f4c202d20546f6b656e2073796d60208201526f189bdb081b9bdd081c1c9bdd9a59195960821b604082015290565b5050604051612dfe81611d20565b602e81527f494e56414c49445f544f4b454e5f53594d424f4c202d20546f6b656e2073796d60208201526d189bdb081a5cc81a5b9d985b1a5960921b604082015290565b5050604051612e5081611d20565b603d81527f494e56414c49445f54524541535552595f4143434f554e545f464f525f544f4b60208201527f454e202d205472656173757279206163636f756e7420696e76616c6964000000604082015290565b5050604051612eb181611d20565b602b81527f4d41585f4741535f4c494d49545f4558434545444544202d20476173206c696d60208201526a1a5d08195e18d95959195960aa1b604082015290565b5050604051612f0081611d20565b603881527f434f4e54524143545f455845435554494f4e5f455843455054494f4e202d204360208201527f6f6e747261637420657865637574696f6e206661696c65640000000000000000604082015290565b5050604051612f6181611d20565b602a81527f494e53554646494349454e545f474153202d204e6f7420656e6f7567682067616020820152691cc81cdd5c1c1b1a595960b21b604082015290565b5050604051612faf81611d20565b603e81527f494e56414c49445f434f4e54524143545f4944202d20436f6e7472616374204960208201527f4420697320696e76616c6964206f7220646f6573206e6f742065786973740000604082015290565b505060405161301081611d20565b603c81527f494e56414c49445f4143434f554e545f4944202d204163636f756e742049442060208201527f697320696e76616c6964206f7220646f6573206e6f7420657869737400000000604082015290565b505060405161307181611d20565b603481527f494e56414c49445f5349474e4154555245202d205472616e73616374696f6e206020820152731cda59db985d1d5c99481a5cc81a5b9d985b1a5960621b604082015290565b50506040516130c981611d20565b604081527f494e53554646494349454e545f50415945525f42414c414e4345202d2050617960208201527f6572206163636f756e742068617320696e73756666696369656e742048424152604082015290565b505060405161312a81611d20565b603181527f494e53554646494349454e545f54585f464545202d204e6f7420656e6f7567686020820152700819d85ccbd99959481c1c9bdd9a591959607a1b604082015290565b505060405161317f81611d05565b60078152665355434345535360c81b602082015290565b80156132585780816000925b61324457506131b082611d77565b916131be6040519384611d56565b80835281601f196131ce83611d77565b01916020923684870137925b6131e45750505090565b60001983019283116120275782600a808304928184029184830414841517156120275761321460ff9283926124bc565b16603001908111612027578551821015611df25760f81b6001600160f81b03191660001a908501830153806131da565b91613250600a91612018565b9204806131a2565b5060405161326581611d05565b60018152600360fc1b602082015290565b60ff600254161561328357565b604051638dfc202b60e01b8152600490fd5b1561329c57565b60405162461bcd60e51b81526020600482015260136024820152724e6f204842415220746f20776974686472617760681b6044820152606490fd5b156132de57565b60405162461bcd60e51b815260206004820152600f60248201526e125b9d985b1a59081190d114881251608a1b6044820152606490fd5b90816020910312611c0a57518060030b8103611c0a5790565b600091829160405190602082019263248a35ef60e11b845260018060a01b0380921660248401521660448201526044815261336881611d3b565b5190826101675af16133786124c9565b9015613397578060208061339193518301019101613315565b60030b90565b50601561339156feb7555d949a897acb395f95e3f2df8b700519404826bb13cd6526b756f6a1c907ad91542866f4da9ebed5a2b1713258f4bf970f84e7b2a0b8aab2de28d11ffffd64b83944e79c3ce8d4c297411de637c3e102d064677aac0c163976ebdcd6f50ea26469706673582212209e9067a04092be509cb78a72f2d70427c1f012fa003b9ea2f71994159ac7013164736f6c63430008140033","opcodes":"PUSH2 0x100 CALLVALUE PUSH3 0x329 JUMPI PUSH1 0x1F PUSH3 0x378F CODESIZE DUP2 SWAP1 SUB SWAP2 DUP3 ADD PUSH1 0x1F NOT AND DUP4 ADD SWAP3 SWAP2 SWAP1 PUSH1 0x1 PUSH1 0x1 PUSH1 0x40 SHL SUB DUP5 GT DUP4 DUP6 LT OR PUSH3 0x32E JUMPI DUP2 PUSH1 0xA0 SWAP3 DUP5 SWAP3 PUSH1 0x40 SWAP7 DUP8 MSTORE DUP4 CODECOPY DUP2 ADD SUB SLT PUSH3 0x329 JUMPI PUSH3 0x52 DUP2 PUSH3 0x344 JUMP JUMPDEST PUSH1 0x20 SWAP1 PUSH3 0x62 DUP3 DUP5 ADD PUSH3 0x344 JUMP JUMPDEST SWAP1 PUSH1 0x80 PUSH3 0x72 DUP7 DUP7 ADD PUSH3 0x344 JUMP JUMPDEST SWAP4 PUSH3 0x81 PUSH1 0x60 DUP8 ADD PUSH3 0x344 JUMP JUMPDEST SWAP6 PUSH1 0x1 PUSH1 0x1 PUSH1 0xA0 SHL SUB SWAP3 DUP4 SWAP2 PUSH3 0x99 SWAP2 ADD PUSH3 0x344 JUMP JUMPDEST AND SWAP2 DUP3 ISZERO PUSH3 0x311 JUMPI PUSH1 0x0 DUP1 SLOAD PUSH1 0x1 PUSH1 0x1 PUSH1 0xA0 SHL SUB NOT DUP2 AND DUP6 OR DUP3 SSTORE SWAP1 SWAP4 SWAP1 DUP3 AND PUSH32 0x8BE0079C531659141344CD1FD0A4F28419497F9722A3DAAFE3B4186F6B6457E0 DUP6 DUP1 LOG3 PUSH1 0x1 DUP1 SSTORE PUSH2 0x100 PUSH1 0x1 PUSH1 0xA8 SHL SUB NOT PUSH1 0x2 SLOAD AND PUSH1 0x2 SSTORE DUP3 DUP1 MSTORE PUSH1 0x3 DUP3 MSTORE PUSH1 0x1 DUP9 DUP5 KECCAK256 SSTORE PUSH1 0x1 DUP4 MSTORE PUSH1 0x2 DUP9 DUP5 KECCAK256 SSTORE PUSH1 0x2 DUP4 MSTORE DUP8 DUP1 PUSH1 0x4 SWAP5 DUP6 DUP3 DUP3 KECCAK256 SSTORE PUSH1 0x3 DUP2 MSTORE PUSH1 0x8 DUP3 DUP3 KECCAK256 SSTORE DUP6 DUP2 MSTORE PUSH1 0x10 DUP3 DUP3 KECCAK256 SSTORE PUSH1 0x5 DUP2 MSTORE DUP5 DUP3 DUP3 KECCAK256 SSTORE PUSH1 0x6 DUP2 MSTORE KECCAK256 SSTORE DUP1 DUP5 AND ISZERO PUSH3 0x2CE JUMPI DUP1 DUP6 AND ISZERO PUSH3 0x28B JUMPI DUP1 DUP7 AND ISZERO PUSH3 0x248 JUMPI DUP7 AND ISZERO PUSH3 0x206 JUMPI POP POP PUSH1 0x80 MSTORE PUSH1 0xA0 MSTORE PUSH1 0xC0 MSTORE PUSH1 0xE0 MSTORE MLOAD PUSH2 0x3435 SWAP1 DUP2 PUSH3 0x35A DUP3 CODECOPY PUSH1 0x80 MLOAD DUP2 DUP2 DUP2 PUSH2 0x379 ADD MSTORE DUP2 DUP2 PUSH2 0x777 ADD MSTORE DUP2 DUP2 PUSH2 0xA4F ADD MSTORE DUP2 DUP2 PUSH2 0x12C5 ADD MSTORE DUP2 DUP2 PUSH2 0x171B ADD MSTORE DUP2 DUP2 PUSH2 0x21F3 ADD MSTORE PUSH2 0x233C ADD MSTORE PUSH1 0xA0 MLOAD DUP2 PUSH2 0x1527 ADD MSTORE PUSH1 0xC0 MLOAD DUP2 DUP2 DUP2 PUSH2 0x94C ADD MSTORE DUP2 DUP2 PUSH2 0xD28 ADD MSTORE DUP2 DUP2 PUSH2 0x120C ADD MSTORE DUP2 DUP2 PUSH2 0x16A6 ADD MSTORE DUP2 DUP2 PUSH2 0x1A5C ADD MSTORE DUP2 DUP2 PUSH2 0x2054 ADD MSTORE DUP2 DUP2 PUSH2 0x2570 ADD MSTORE PUSH2 0x260D ADD MSTORE PUSH1 0xE0 MLOAD DUP2 DUP2 DUP2 PUSH2 0xEB8 ADD MSTORE DUP2 DUP2 PUSH2 0x1A91 ADD MSTORE PUSH2 0x1BC5 ADD MSTORE RETURN JUMPDEST DUP7 MLOAD PUSH3 0x461BCD PUSH1 0xE5 SHL DUP2 MSTORE SWAP2 DUP3 ADD MSTORE PUSH1 0x1A PUSH1 0x24 DUP3 ADD MSTORE PUSH32 0x496E76616C6964204643445220746F6B656E2061646472657373000000000000 PUSH1 0x44 DUP3 ADD MSTORE PUSH1 0x64 SWAP2 POP REVERT JUMPDEST DUP8 MLOAD PUSH3 0x461BCD PUSH1 0xE5 SHL DUP2 MSTORE DUP1 DUP5 ADD DUP4 SWAP1 MSTORE PUSH1 0x1A PUSH1 0x24 DUP3 ADD MSTORE PUSH32 0x496E76616C69642043534C5020746F6B656E2061646472657373000000000000 PUSH1 0x44 DUP3 ADD MSTORE PUSH1 0x64 SWAP1 REVERT JUMPDEST DUP8 MLOAD PUSH3 0x461BCD PUSH1 0xE5 SHL DUP2 MSTORE DUP1 DUP5 ADD DUP4 SWAP1 MSTORE PUSH1 0x19 PUSH1 0x24 DUP3 ADD MSTORE PUSH32 0x496E76616C696420706F6F6C2075736572206164647265737300000000000000 PUSH1 0x44 DUP3 ADD MSTORE PUSH1 0x64 SWAP1 REVERT JUMPDEST DUP8 MLOAD PUSH3 0x461BCD PUSH1 0xE5 SHL DUP2 MSTORE DUP1 DUP5 ADD DUP4 SWAP1 MSTORE PUSH1 0x17 PUSH1 0x24 DUP3 ADD MSTORE PUSH32 0x496E76616C696420666163746F72792061646472657373000000000000000000 PUSH1 0x44 DUP3 ADD MSTORE PUSH1 0x64 SWAP1 REVERT JUMPDEST DUP8 MLOAD PUSH4 0x1E4FBDF7 PUSH1 0xE0 SHL DUP2 MSTORE PUSH1 0x0 PUSH1 0x4 DUP3 ADD MSTORE PUSH1 0x24 SWAP1 REVERT JUMPDEST PUSH1 0x0 DUP1 REVERT JUMPDEST PUSH4 0x4E487B71 PUSH1 0xE0 SHL PUSH1 0x0 MSTORE PUSH1 0x41 PUSH1 0x4 MSTORE PUSH1 0x24 PUSH1 0x0 REVERT JUMPDEST MLOAD SWAP1 PUSH1 0x1 PUSH1 0x1 PUSH1 0xA0 SHL SUB DUP3 AND DUP3 SUB PUSH3 0x329 JUMPI JUMP INVALID PUSH1 0x80 PUSH1 0x40 SWAP1 DUP1 DUP3 MSTORE PUSH1 0x4 SWAP1 DUP2 CALLDATASIZE LT ISZERO PUSH2 0x53 JUMPI JUMPDEST POP CALLDATASIZE ISZERO PUSH2 0x51 JUMPI PUSH1 0x20 PUSH1 0x64 SWAP3 MLOAD SWAP2 PUSH3 0x461BCD PUSH1 0xE5 SHL DUP4 MSTORE DUP3 ADD MSTORE PUSH1 0x12 PUSH1 0x24 DUP3 ADD MSTORE PUSH18 0x119D5B98DD1A5BDB881B9BDD08199BDD5B99 PUSH1 0x72 SHL PUSH1 0x44 DUP3 ADD MSTORE REVERT JUMPDEST STOP JUMPDEST PUSH1 0x0 SWAP1 DUP2 CALLDATALOAD PUSH1 0xE0 SHR SWAP1 DUP2 PUSH4 0xA5579D1 EQ PUSH2 0x1BB1 JUMPI POP DUP1 PUSH4 0x10CA0BCE EQ PUSH2 0x1A40 JUMPI DUP1 PUSH4 0x15DACBEA EQ PUSH2 0x19E3 JUMPI DUP1 PUSH4 0x1CF2E698 EQ PUSH2 0x196F JUMPI DUP1 PUSH4 0x21B77D63 EQ PUSH2 0x1951 JUMPI DUP1 PUSH4 0x240F1B62 EQ PUSH2 0x1883 JUMPI DUP1 PUSH4 0x250E6DE0 EQ PUSH2 0x1677 JUMPI DUP1 PUSH4 0x28999437 EQ PUSH2 0x1658 JUMPI DUP1 PUSH4 0x2FB9125D EQ PUSH2 0x163B JUMPI DUP1 PUSH4 0x32ACF78B EQ PUSH2 0x900 JUMPI DUP1 PUSH4 0x34111BBF EQ PUSH2 0x161A JUMPI DUP1 PUSH4 0x3474D1F9 EQ PUSH2 0x15B2 JUMPI DUP1 PUSH4 0x38B37D1C EQ PUSH2 0x1556 JUMPI DUP1 PUSH4 0x3E7E516A EQ PUSH2 0x1512 JUMPI DUP1 PUSH4 0x3F4BA83A EQ PUSH2 0x14BA JUMPI DUP1 PUSH4 0x42C649DE EQ PUSH2 0x1499 JUMPI DUP1 PUSH4 0x4DDD1C54 EQ PUSH2 0x13D8 JUMPI DUP1 PUSH4 0x545466A5 EQ PUSH2 0x11DE JUMPI DUP1 PUSH4 0x5962A941 EQ PUSH2 0x31F JUMPI DUP1 PUSH4 0x5C975ABB EQ PUSH2 0x11BA JUMPI DUP1 PUSH4 0x60246C88 EQ PUSH2 0x118A JUMPI DUP1 PUSH4 0x618DC65E EQ PUSH2 0x104A JUMPI DUP1 PUSH4 0x715018A6 EQ PUSH2 0xFF0 JUMPI DUP1 PUSH4 0x734C79B6 EQ PUSH2 0xE22 JUMPI DUP1 PUSH4 0x7D56BE3C EQ PUSH2 0xDDA JUMPI DUP1 PUSH4 0x8456CB59 EQ PUSH2 0xD7F JUMPI DUP1 PUSH4 0x8DA5CB5B EQ PUSH2 0xD57 JUMPI DUP1 PUSH4 0x9827D473 EQ PUSH2 0xD13 JUMPI DUP1 PUSH4 0x9B23D3D9 EQ PUSH2 0xC6B JUMPI DUP1 PUSH4 0x9D7DE6B3 EQ PUSH2 0x91F JUMPI DUP1 PUSH4 0xA7112EFE EQ PUSH2 0x900 JUMPI DUP1 PUSH4 0xA78C849B EQ PUSH2 0x8D9 JUMPI DUP1 PUSH4 0xAEBF3E41 EQ PUSH2 0x8A7 JUMPI DUP1 PUSH4 0xB79C41A2 EQ PUSH2 0x884 JUMPI DUP1 PUSH4 0xBBBAEE4C EQ PUSH2 0x840 JUMPI DUP1 PUSH4 0xBE591129 EQ PUSH2 0x800 JUMPI DUP1 PUSH4 0xBF333F2C EQ PUSH2 0x7E4 JUMPI DUP1 PUSH4 0xC279A2BC EQ PUSH2 0x7A6 JUMPI DUP1 PUSH4 0xC45A0155 EQ PUSH2 0x762 JUMPI DUP1 PUSH4 0xC6E5D8F6 EQ PUSH2 0x6E0 JUMPI DUP1 PUSH4 0xCF2C0334 EQ PUSH2 0x687 JUMPI DUP1 PUSH4 0xD4C3EEA0 EQ PUSH2 0x668 JUMPI DUP1 PUSH4 0xD73792A9 EQ PUSH2 0x64B JUMPI DUP1 PUSH4 0xDB2E21BC EQ PUSH2 0x581 JUMPI DUP1 PUSH4 0xE7834029 EQ PUSH2 0x33E JUMPI DUP1 PUSH4 0xEA04F155 EQ PUSH2 0x31F JUMPI DUP1 PUSH4 0xEF6283D9 EQ PUSH2 0x2FC JUMPI PUSH4 0xF2FDE38B SUB PUSH2 0x13 JUMPI SWAP2 SWAP1 CALLVALUE PUSH2 0x2F8 JUMPI PUSH1 0x20 CALLDATASIZE PUSH1 0x3 NOT ADD SLT PUSH2 0x2F8 JUMPI PUSH2 0x287 PUSH2 0x1BF4 JUMP JUMPDEST SWAP1 PUSH2 0x290 PUSH2 0x1E1E JUMP JUMPDEST PUSH1 0x1 PUSH1 0x1 PUSH1 0xA0 SHL SUB SWAP2 DUP3 AND SWAP3 DUP4 ISZERO PUSH2 0x2E2 JUMPI POP POP PUSH1 0x0 SLOAD DUP3 PUSH1 0x1 PUSH1 0x1 PUSH1 0x60 SHL SUB PUSH1 0xA0 SHL DUP3 AND OR PUSH1 0x0 SSTORE AND PUSH32 0x8BE0079C531659141344CD1FD0A4F28419497F9722A3DAAFE3B4186F6B6457E0 PUSH1 0x0 DUP1 LOG3 DUP1 RETURN JUMPDEST MLOAD PUSH4 0x1E4FBDF7 PUSH1 0xE0 SHL DUP2 MSTORE SWAP1 DUP2 ADD DUP5 SWAP1 MSTORE PUSH1 0x24 SWAP1 REVERT JUMPDEST DUP3 DUP1 REVERT JUMPDEST POP DUP3 CALLVALUE PUSH2 0x31B JUMPI DUP2 PUSH1 0x3 NOT CALLDATASIZE ADD SLT PUSH2 0x31B JUMPI PUSH1 0x20 SWAP1 PUSH1 0x5 SLOAD SWAP1 MLOAD SWAP1 DUP2 MSTORE RETURN JUMPDEST POP DUP1 REVERT JUMPDEST POP DUP3 CALLVALUE PUSH2 0x31B JUMPI DUP2 PUSH1 0x3 NOT CALLDATASIZE ADD SLT PUSH2 0x31B JUMPI PUSH1 0x20 SWAP1 PUSH1 0x9 SLOAD SWAP1 MLOAD SWAP1 DUP2 MSTORE RETURN JUMPDEST POP SWAP2 CALLVALUE PUSH2 0x2F8 JUMPI DUP3 PUSH1 0x3 NOT CALLDATASIZE ADD SLT PUSH2 0x2F8 JUMPI PUSH2 0x358 PUSH2 0x1E1E JUMP JUMPDEST PUSH2 0x360 PUSH2 0x3276 JUMP JUMPDEST SELFBALANCE SWAP2 PUSH2 0x36D DUP4 ISZERO ISZERO PUSH2 0x3295 JUMP JUMPDEST PUSH1 0x1 PUSH1 0x1 PUSH1 0xA0 SHL SUB SWAP1 DUP5 PUSH32 0x0 DUP4 AND DUP1 EXTCODESIZE ISZERO PUSH2 0x31B JUMPI DUP2 DUP1 SWAP2 PUSH1 0x24 DUP8 MLOAD DUP1 SWAP5 DUP2 SWAP4 PUSH4 0x272B2613 PUSH1 0xE2 SHL DUP4 MSTORE ADDRESS DUP10 DUP5 ADD MSTORE GAS CALL DUP1 ISZERO PUSH2 0x577 JUMPI PUSH2 0x55F JUMPI JUMPDEST POP DUP3 SWAP1 SLOAD AND DUP2 PUSH1 0xC SLOAD DUP6 MLOAD SWAP3 PUSH2 0x3DD DUP5 PUSH2 0x1CCF JUMP JUMPDEST DUP8 DUP5 MSTORE PUSH1 0x20 DUP5 ADD SWAP1 TIMESTAMP DUP3 MSTORE DUP8 DUP6 ADD SWAP1 DUP2 MSTORE PUSH1 0x60 DUP6 ADD SWAP2 ADDRESS DUP4 MSTORE PUSH1 0x80 DUP7 ADD SWAP4 DUP1 DUP6 MSTORE DUP12 MSTORE PUSH1 0xA PUSH1 0x20 MSTORE DUP9 DUP12 KECCAK256 SWAP6 MLOAD DUP7 SSTORE MLOAD PUSH1 0x1 DUP7 ADD SSTORE DUP7 PUSH1 0x2 DUP7 ADD SWAP2 MLOAD AND SWAP1 PUSH1 0x1 PUSH1 0x1 PUSH1 0x60 SHL SUB PUSH1 0xA0 SHL SWAP2 DUP3 DUP3 SLOAD AND OR SWAP1 SSTORE DUP7 PUSH1 0x3 DUP7 ADD SWAP3 MLOAD AND SWAP1 DUP3 SLOAD AND OR SWAP1 SSTORE MLOAD SWAP2 ADD SSTORE DUP2 DUP6 SLOAD AND DUP6 MSTORE PUSH1 0xB PUSH1 0x20 MSTORE PUSH2 0x45B DUP4 DUP7 KECCAK256 PUSH1 0xC SLOAD SWAP1 PUSH2 0x1FDE JUMP JUMPDEST PUSH2 0x466 PUSH1 0xC SLOAD PUSH2 0x2018 JUMP JUMPDEST DUP1 PUSH1 0xC SSTORE DUP3 DUP7 SLOAD AND SWAP1 PUSH1 0x0 NOT DUP2 ADD SWAP1 DUP2 GT PUSH2 0x54C JUMPI DUP7 DUP1 DUP8 DUP5 DUP3 SWAP6 PUSH32 0xB5D1185F9EB3BC9F64976A0642FA385671626DF86E9AECD91BCDA7206B045666 PUSH2 0x4C6 DUP6 SWAP8 DUP13 MLOAD SWAP2 DUP3 SWAP2 DUP8 TIMESTAMP SWAP2 DUP5 PUSH1 0x40 SWAP2 SWAP5 SWAP4 SWAP3 PUSH1 0x60 DUP3 ADD SWAP6 DUP3 MSTORE PUSH1 0x20 DUP3 ADD MSTORE ADD MSTORE JUMP JUMPDEST SUB SWAP1 LOG2 GAS CALL PUSH2 0x4D3 PUSH2 0x24C9 JUMP JUMPDEST POP ISZERO PUSH2 0x510 JUMPI POP SWAP1 PUSH32 0x2E4FB6077D4ACF86E12BB7411FB82B2B3EAA6A49787F4B1E17B423E7EA841169 SWAP2 DUP5 SLOAD AND SWAP3 DUP2 MLOAD SWAP1 DUP2 MSTORE TIMESTAMP PUSH1 0x20 DUP3 ADD MSTORE LOG2 DUP1 RETURN JUMPDEST PUSH1 0x64 SWAP1 PUSH1 0x20 DUP5 MLOAD SWAP2 PUSH3 0x461BCD PUSH1 0xE5 SHL DUP4 MSTORE DUP3 ADD MSTORE PUSH1 0x16 PUSH1 0x24 DUP3 ADD MSTORE PUSH22 0x12109054881DDA5D1A191C985DD85B0819985A5B1959 PUSH1 0x52 SHL PUSH1 0x44 DUP3 ADD MSTORE REVERT JUMPDEST PUSH4 0x4E487B71 PUSH1 0xE0 SHL DUP8 MSTORE PUSH1 0x11 DUP4 MSTORE PUSH1 0x24 DUP8 REVERT JUMPDEST PUSH2 0x568 SWAP1 PUSH2 0x1CBC JUMP JUMPDEST PUSH2 0x573 JUMPI DUP5 CODESIZE PUSH2 0x3C8 JUMP JUMPDEST DUP5 DUP1 REVERT JUMPDEST DUP6 MLOAD RETURNDATASIZE DUP5 DUP3 RETURNDATACOPY RETURNDATASIZE SWAP1 REVERT JUMPDEST POP SWAP2 CALLVALUE PUSH2 0x2F8 JUMPI DUP3 PUSH1 0x3 NOT CALLDATASIZE ADD SLT PUSH2 0x2F8 JUMPI PUSH2 0x59B PUSH2 0x1E1E JUMP JUMPDEST PUSH2 0x5A3 PUSH2 0x3276 JUMP JUMPDEST SELFBALANCE SWAP2 PUSH2 0x5B0 DUP4 ISZERO ISZERO PUSH2 0x3295 JUMP JUMPDEST PUSH1 0x1 DUP1 PUSH1 0xA0 SHL SUB SWAP1 DUP5 DUP1 DUP1 DUP1 DUP8 DUP7 DUP3 SLOAD AND GAS CALL PUSH2 0x5CB PUSH2 0x24C9 JUMP JUMPDEST POP ISZERO PUSH2 0x608 JUMPI POP SWAP1 PUSH32 0x2E4FB6077D4ACF86E12BB7411FB82B2B3EAA6A49787F4B1E17B423E7EA841169 SWAP2 DUP5 SLOAD AND SWAP3 DUP2 MLOAD SWAP1 DUP2 MSTORE TIMESTAMP PUSH1 0x20 DUP3 ADD MSTORE LOG2 DUP1 RETURN JUMPDEST PUSH1 0x64 SWAP1 PUSH1 0x20 DUP5 MLOAD SWAP2 PUSH3 0x461BCD PUSH1 0xE5 SHL DUP4 MSTORE DUP3 ADD MSTORE PUSH1 0x1B PUSH1 0x24 DUP3 ADD MSTORE PUSH32 0x456D657267656E6379207769746864726177616C206661696C65640000000000 PUSH1 0x44 DUP3 ADD MSTORE REVERT JUMPDEST POP DUP3 CALLVALUE PUSH2 0x31B JUMPI DUP2 PUSH1 0x3 NOT CALLDATASIZE ADD SLT PUSH2 0x31B JUMPI PUSH1 0x20 SWAP1 MLOAD PUSH2 0x2710 DUP2 MSTORE RETURN JUMPDEST POP DUP3 CALLVALUE PUSH2 0x31B JUMPI DUP2 PUSH1 0x3 NOT CALLDATASIZE ADD SLT PUSH2 0x31B JUMPI PUSH1 0x20 SWAP1 PUSH1 0x6 SLOAD SWAP1 MLOAD SWAP1 DUP2 MSTORE RETURN JUMPDEST POP DUP3 CALLVALUE PUSH2 0x31B JUMPI DUP1 PUSH1 0x3 NOT CALLDATASIZE ADD SLT PUSH2 0x31B JUMPI PUSH2 0x6A1 PUSH2 0x1BF4 JUMP JUMPDEST PUSH1 0x1 PUSH1 0x1 PUSH1 0xA0 SHL SUB AND DUP3 MSTORE PUSH1 0x8 PUSH1 0x20 MSTORE DUP1 DUP3 KECCAK256 DUP1 SLOAD PUSH1 0x24 CALLDATALOAD SWAP4 SWAP1 DUP5 LT ISZERO PUSH2 0x6DD JUMPI POP PUSH1 0x20 SWAP3 PUSH2 0x6CF SWAP2 PUSH2 0x1DDA JUMP JUMPDEST SWAP2 SWAP1 SLOAD SWAP1 MLOAD SWAP2 PUSH1 0x3 SHL SHR DUP2 MSTORE RETURN JUMPDEST DUP1 REVERT JUMPDEST POP DUP3 CALLVALUE PUSH2 0x31B JUMPI PUSH1 0x20 SWAP1 DUP2 PUSH1 0x3 NOT CALLDATASIZE ADD SLT PUSH2 0x2F8 JUMPI PUSH1 0x1 PUSH1 0x1 PUSH1 0xA0 SHL SUB PUSH2 0x705 PUSH2 0x1BF4 JUMP JUMPDEST AND DUP4 MSTORE PUSH1 0x8 DUP3 MSTORE DUP1 DUP4 KECCAK256 SWAP3 DUP2 MLOAD DUP1 SWAP4 DUP1 DUP7 SLOAD SWAP3 DUP4 DUP2 MSTORE ADD SWAP6 DUP4 MSTORE DUP1 DUP4 KECCAK256 SWAP3 SWAP1 JUMPDEST DUP3 DUP3 LT PUSH2 0x74B JUMPI PUSH2 0x747 DUP7 DUP7 PUSH2 0x73D DUP3 DUP12 SUB DUP4 PUSH2 0x1D56 JUMP JUMPDEST MLOAD SWAP2 DUP3 SWAP2 DUP3 PUSH2 0x1C50 JUMP JUMPDEST SUB SWAP1 RETURN JUMPDEST DUP4 SLOAD DUP8 MSTORE SWAP6 DUP7 ADD SWAP6 PUSH1 0x1 SWAP4 DUP5 ADD SWAP4 SWAP1 SWAP2 ADD SWAP1 PUSH2 0x725 JUMP JUMPDEST POP DUP3 CALLVALUE PUSH2 0x31B JUMPI DUP2 PUSH1 0x3 NOT CALLDATASIZE ADD SLT PUSH2 0x31B JUMPI MLOAD PUSH32 0x0 PUSH1 0x1 PUSH1 0x1 PUSH1 0xA0 SHL SUB AND DUP2 MSTORE PUSH1 0x20 SWAP1 RETURN JUMPDEST POP DUP3 CALLVALUE PUSH2 0x31B JUMPI PUSH1 0x20 CALLDATASIZE PUSH1 0x3 NOT ADD SLT PUSH2 0x31B JUMPI PUSH1 0x20 SWAP2 PUSH1 0xFF SWAP1 DUP3 SWAP1 PUSH1 0x1 PUSH1 0x1 PUSH1 0xA0 SHL SUB PUSH2 0x7D1 PUSH2 0x1BF4 JUMP JUMPDEST AND DUP2 MSTORE PUSH1 0xD DUP6 MSTORE KECCAK256 SLOAD AND SWAP1 MLOAD SWAP1 ISZERO ISZERO DUP2 MSTORE RETURN JUMPDEST POP DUP3 CALLVALUE PUSH2 0x31B JUMPI DUP2 PUSH1 0x3 NOT CALLDATASIZE ADD SLT PUSH2 0x31B JUMPI PUSH1 0x20 SWAP1 MLOAD PUSH1 0x1E DUP2 MSTORE RETURN JUMPDEST POP SWAP2 SWAP1 CALLVALUE PUSH2 0x2F8 JUMPI PUSH1 0x20 CALLDATASIZE PUSH1 0x3 NOT ADD SLT PUSH2 0x2F8 JUMPI CALLDATALOAD SWAP2 DUP3 PUSH1 0x3 SIGNEXTEND DUP4 SUB PUSH2 0x6DD JUMPI POP PUSH2 0x82D PUSH2 0x747 SWAP3 PUSH2 0x2669 JUMP JUMPDEST SWAP1 MLOAD SWAP2 DUP3 SWAP2 PUSH1 0x20 DUP4 MSTORE PUSH1 0x20 DUP4 ADD SWAP1 PUSH2 0x1DB5 JUMP JUMPDEST POP DUP3 CALLVALUE PUSH2 0x31B JUMPI PUSH1 0x20 CALLDATASIZE PUSH1 0x3 NOT ADD SLT PUSH2 0x31B JUMPI PUSH2 0x747 SWAP1 PUSH2 0x85F PUSH2 0x1BF4 JUMP JUMPDEST POP PUSH2 0x868 PUSH2 0x256E JUMP JUMPDEST SWAP3 MLOAD SWAP2 DUP3 MSTORE PUSH1 0x20 DUP3 ADD MSTORE PUSH1 0x40 DUP2 ADD SWAP2 SWAP1 SWAP2 MSTORE SWAP1 DUP2 SWAP1 PUSH1 0x60 DUP3 ADD SWAP1 JUMP JUMPDEST POP DUP3 CALLVALUE PUSH2 0x31B JUMPI PUSH1 0x20 SWAP1 PUSH2 0x8A0 PUSH2 0x89A CALLDATASIZE PUSH2 0x1E08 JUMP JUMPDEST SWAP1 PUSH2 0x2523 JUMP JUMPDEST SWAP1 MLOAD SWAP1 DUP2 MSTORE RETURN JUMPDEST POP PUSH1 0x80 CALLDATASIZE PUSH1 0x3 NOT ADD SLT PUSH2 0x6DD JUMPI PUSH2 0x8BC PUSH2 0x1EC9 JUMP JUMPDEST PUSH2 0x8C4 PUSH2 0x1EAB JUMP JUMPDEST PUSH2 0x8D2 PUSH1 0x44 CALLDATALOAD PUSH1 0x24 CALLDATALOAD PUSH2 0x204A JUMP JUMPDEST PUSH1 0x1 DUP1 SSTORE DUP1 RETURN JUMPDEST POP DUP3 CALLVALUE PUSH2 0x31B JUMPI PUSH1 0x20 CALLDATASIZE PUSH1 0x3 NOT ADD SLT PUSH2 0x31B JUMPI PUSH1 0x20 SWAP1 PUSH2 0x8F7 PUSH2 0x1BF4 JUMP JUMPDEST POP PUSH2 0x8A0 PUSH2 0x260B JUMP JUMPDEST POP DUP3 CALLVALUE PUSH2 0x31B JUMPI DUP2 PUSH1 0x3 NOT CALLDATASIZE ADD SLT PUSH2 0x31B JUMPI PUSH1 0x20 SWAP1 PUSH1 0xC SLOAD SWAP1 MLOAD SWAP1 DUP2 MSTORE RETURN JUMPDEST POP SWAP2 CALLVALUE PUSH2 0x2F8 JUMPI PUSH2 0x92F CALLDATASIZE PUSH2 0x1E08 JUMP JUMPDEST SWAP2 SWAP1 SWAP3 PUSH2 0x93A PUSH2 0x1EC9 JUMP JUMPDEST PUSH2 0x942 PUSH2 0x1EAB JUMP JUMPDEST PUSH1 0x1 PUSH1 0x1 PUSH1 0xA0 SHL SUB PUSH32 0x0 DUP2 AND PUSH2 0x978 DUP2 ISZERO ISZERO PUSH2 0x1E4A JUMP JUMPDEST DUP6 ISZERO PUSH2 0xC2F JUMPI PUSH1 0x5 SLOAD DUP1 ISZERO PUSH2 0xBF5 JUMPI DUP4 SLOAD PUSH2 0x9A8 PUSH2 0x99F DUP4 PUSH2 0x99A DUP5 DUP13 PUSH2 0x24A9 JUMP JUMPDEST PUSH2 0x1E8B JUMP JUMPDEST SWAP8 DUP9 LT ISZERO PUSH2 0x2469 JUMP JUMPDEST SELFBALANCE DUP8 GT PUSH2 0xBB2 JUMPI PUSH2 0x9C5 SWAP2 PUSH2 0x9BE DUP9 DUP11 SWAP4 PUSH2 0x24BC JUMP JUMPDEST DUP7 SSTORE PUSH2 0x24BC JUMP JUMPDEST PUSH1 0x5 SSTORE PUSH2 0x9D4 DUP6 PUSH1 0x6 SLOAD PUSH2 0x24BC JUMP JUMPDEST PUSH1 0x6 SSTORE PUSH1 0x7 SWAP2 DUP8 PUSH1 0x1 PUSH1 0x1 PUSH1 0x40 SHL SUB DUP9 AND DUP5 SIGNEXTEND SWAP2 DUP4 DUP8 MLOAD PUSH2 0x9F4 DUP2 PUSH2 0x1CEA JUMP JUMPDEST DUP4 DUP2 MSTORE DUP9 MLOAD SWAP1 DUP10 DUP3 ADD SWAP8 DUP7 DUP4 MSTORE PUSH1 0x20 SWAP9 DUP12 DUP11 DUP6 ADD MSTORE DUP3 MLOAD DUP1 SWAP2 MSTORE DUP10 PUSH1 0x60 DUP6 ADD SWAP4 ADD SWAP2 DUP8 SWAP1 JUMPDEST DUP12 DUP4 DUP4 LT PUSH2 0xB8B JUMPI POP POP POP POP POP SWAP1 DUP1 PUSH32 0xB310AAAC57F9A89F4E3661E38CB8DF5EA9428B82D1BB2B8AB6A77C3F52818F02 SWAP3 SUB SWAP1 LOG2 PUSH32 0x0 AND DUP1 EXTCODESIZE ISZERO PUSH2 0x31B JUMPI DUP2 DUP1 SWAP2 PUSH1 0x24 DUP12 DUP11 MLOAD SWAP5 DUP6 SWAP4 DUP5 SWAP3 PUSH4 0x1FE4FF29 PUSH1 0xE0 SHL DUP5 MSTORE DUP13 DUP5 ADD MSTORE GAS CALL DUP1 ISZERO PUSH2 0xB81 JUMPI SWAP1 DUP8 SWAP3 SWAP2 PUSH2 0xB66 JUMPI JUMPDEST POP POP PUSH32 0x7B2F31B2FFDA9D7A1AC640400C8F7EB1C8D0071689111F45797448A14697587C SWAP2 DUP2 MLOAD SWAP1 DUP2 MSTORE DUP10 DUP6 DUP3 ADD MSTORE LOG2 DUP6 DUP1 DUP1 DUP1 DUP8 CALLER GAS CALL PUSH2 0xAE1 PUSH2 0x24C9 JUMP JUMPDEST POP ISZERO PUSH2 0xB2F JUMPI POP POP MLOAD SWAP1 DUP2 MSTORE PUSH1 0x20 DUP2 ADD SWAP2 SWAP1 SWAP2 MSTORE TIMESTAMP PUSH1 0x40 DUP3 ADD MSTORE CALLER SWAP1 PUSH32 0x1DC8BB69DF2B8E91FBDCBFCF93D951B3F0000F085A95FE3F7946D6161439245D SWAP1 DUP1 PUSH1 0x60 DUP2 ADD JUMPDEST SUB SWAP1 LOG2 PUSH1 0x1 DUP1 SSTORE DUP1 RETURN JUMPDEST PUSH1 0x64 SWAP3 MLOAD SWAP2 PUSH3 0x461BCD PUSH1 0xE5 SHL DUP4 MSTORE DUP3 ADD MSTORE PUSH1 0x14 PUSH1 0x24 DUP3 ADD MSTORE PUSH20 0x12109054881D1C985B9CD9995C8819985A5B1959 PUSH1 0x62 SHL PUSH1 0x44 DUP3 ADD MSTORE REVERT JUMPDEST PUSH2 0xB71 SWAP2 SWAP3 POP PUSH2 0x1CBC JUMP JUMPDEST PUSH2 0xB7D JUMPI DUP5 DUP9 CODESIZE PUSH2 0xAA2 JUMP JUMPDEST DUP8 DUP1 REVERT JUMPDEST DUP8 MLOAD RETURNDATASIZE DUP5 DUP3 RETURNDATACOPY RETURNDATASIZE SWAP1 REVERT JUMPDEST SWAP2 SWAP5 PUSH1 0x1 SWAP4 SWAP7 SWAP9 SWAP10 POP DUP5 DUP4 SWAP3 SWAP6 SWAP9 POP MLOAD DUP6 SIGNEXTEND DUP2 MSTORE ADD SWAP6 ADD SWAP3 ADD SWAP3 DUP15 SWAP7 SWAP6 SWAP4 DUP10 SWAP6 SWAP4 SWAP3 PUSH2 0xA19 JUMP JUMPDEST DUP6 MLOAD PUSH3 0x461BCD PUSH1 0xE5 SHL DUP2 MSTORE PUSH1 0x20 DUP2 DUP8 ADD MSTORE PUSH1 0x19 PUSH1 0x24 DUP3 ADD MSTORE PUSH32 0x496E73756666696369656E74204842415220696E20706F6F6C00000000000000 PUSH1 0x44 DUP3 ADD MSTORE PUSH1 0x64 SWAP1 REVERT JUMPDEST DUP5 MLOAD PUSH3 0x461BCD PUSH1 0xE5 SHL DUP2 MSTORE PUSH1 0x20 DUP2 DUP7 ADD MSTORE PUSH1 0x14 PUSH1 0x24 DUP3 ADD MSTORE PUSH20 0x139BC81B1A5C5D5A591A5D1E481A5B881C1BDBDB PUSH1 0x62 SHL PUSH1 0x44 DUP3 ADD MSTORE PUSH1 0x64 SWAP1 REVERT JUMPDEST DUP4 MLOAD PUSH3 0x461BCD PUSH1 0xE5 SHL DUP2 MSTORE PUSH1 0x20 DUP2 DUP6 ADD MSTORE PUSH1 0x16 PUSH1 0x24 DUP3 ADD MSTORE PUSH22 0x139BC81314081D1BDAD95B9CC81CDC1958DA599A5959 PUSH1 0x52 SHL PUSH1 0x44 DUP3 ADD MSTORE PUSH1 0x64 SWAP1 REVERT JUMPDEST POP DUP3 CALLVALUE PUSH2 0x31B JUMPI DUP2 DUP1 PUSH1 0x20 SWAP4 PUSH2 0xCD6 PUSH2 0xCC8 PUSH2 0xC86 CALLDATASIZE PUSH2 0x1C0F JUMP JUMPDEST DUP10 MLOAD PUSH4 0x9B23D3D9 PUSH1 0xE0 SHL DUP13 DUP3 ADD SWAP1 DUP2 MSTORE PUSH1 0x1 PUSH1 0x1 PUSH1 0xA0 SHL SUB SWAP6 DUP7 AND PUSH1 0x24 DUP4 ADD MSTORE SWAP4 DUP6 AND PUSH1 0x44 DUP3 ADD MSTORE SWAP4 SWAP1 SWAP2 AND PUSH1 0x64 DUP5 ADD MSTORE PUSH1 0x84 DUP4 ADD MSTORE SWAP3 SWAP1 SWAP2 DUP3 SWAP1 PUSH1 0xA4 DUP3 ADD SWAP1 JUMP JUMPDEST SUB PUSH1 0x1F NOT DUP2 ADD DUP4 MSTORE DUP3 PUSH2 0x1D56 JUMP JUMPDEST MLOAD SWAP1 DUP3 PUSH2 0x167 GAS CALL PUSH2 0xCE6 PUSH2 0x24C9 JUMP JUMPDEST SWAP2 POP ISZERO PUSH2 0xD0A JUMPI DUP1 DUP4 DUP1 PUSH2 0xCFF SWAP4 MLOAD DUP4 ADD ADD SWAP2 ADD PUSH2 0x3315 JUMP JUMPDEST SWAP1 JUMPDEST MLOAD SWAP1 PUSH1 0x3 SIGNEXTEND DUP2 MSTORE RETURN JUMPDEST POP PUSH1 0x15 SWAP1 PUSH2 0xD01 JUMP JUMPDEST POP DUP3 CALLVALUE PUSH2 0x31B JUMPI DUP2 PUSH1 0x3 NOT CALLDATASIZE ADD SLT PUSH2 0x31B JUMPI MLOAD PUSH32 0x0 PUSH1 0x1 PUSH1 0x1 PUSH1 0xA0 SHL SUB AND DUP2 MSTORE PUSH1 0x20 SWAP1 RETURN JUMPDEST POP DUP3 CALLVALUE PUSH2 0x31B JUMPI DUP2 PUSH1 0x3 NOT CALLDATASIZE ADD SLT PUSH2 0x31B JUMPI SWAP1 SLOAD SWAP1 MLOAD PUSH1 0x1 PUSH1 0x1 PUSH1 0xA0 SHL SUB SWAP1 SWAP2 AND DUP2 MSTORE PUSH1 0x20 SWAP1 RETURN JUMPDEST POP DUP3 CALLVALUE PUSH2 0x31B JUMPI DUP2 PUSH1 0x3 NOT CALLDATASIZE ADD SLT PUSH2 0x31B JUMPI PUSH1 0x20 PUSH32 0x62E78CEA01BEE320CD4E420270B5EA74000D11B0C9F74754EBDBFC544B05A258 SWAP2 PUSH2 0xDBD PUSH2 0x1E1E JUMP JUMPDEST PUSH2 0xDC5 PUSH2 0x1EAB JUMP JUMPDEST PUSH1 0x1 PUSH1 0xFF NOT PUSH1 0x2 SLOAD AND OR PUSH1 0x2 SSTORE MLOAD CALLER DUP2 MSTORE LOG1 DUP1 RETURN JUMPDEST POP DUP3 CALLVALUE PUSH2 0x31B JUMPI DUP1 PUSH1 0x3 NOT CALLDATASIZE ADD SLT PUSH2 0x31B JUMPI PUSH2 0xDF4 PUSH2 0x1BF4 JUMP JUMPDEST PUSH1 0x1 PUSH1 0x1 PUSH1 0xA0 SHL SUB AND DUP3 MSTORE PUSH1 0xB PUSH1 0x20 MSTORE DUP1 DUP3 KECCAK256 DUP1 SLOAD PUSH1 0x24 CALLDATALOAD SWAP4 SWAP1 DUP5 LT ISZERO PUSH2 0x6DD JUMPI POP PUSH1 0x20 SWAP3 PUSH2 0x6CF SWAP2 PUSH2 0x1DDA JUMP JUMPDEST POP SWAP2 SWAP1 CALLVALUE PUSH2 0x2F8 JUMPI PUSH1 0x20 SWAP2 DUP3 PUSH1 0x3 NOT CALLDATASIZE ADD SLT PUSH2 0xFEC JUMPI DUP2 CALLDATALOAD PUSH2 0xE42 PUSH2 0x1E1E JUMP JUMPDEST PUSH2 0xE4F PUSH1 0xC SLOAD DUP3 LT PUSH2 0x32D7 JUMP JUMPDEST DUP5 MSTORE PUSH1 0xA DUP4 MSTORE DUP1 DUP5 KECCAK256 DUP2 MLOAD SWAP1 PUSH2 0xE64 DUP3 PUSH2 0x1CCF JUMP JUMPDEST DUP1 SLOAD DUP3 MSTORE PUSH1 0x1 DUP2 ADD SLOAD DUP6 DUP4 ADD MSTORE PUSH1 0x1 DUP1 PUSH1 0xA0 SHL SUB SWAP2 PUSH1 0x80 DUP6 DUP5 PUSH1 0x2 DUP6 ADD SLOAD AND SWAP4 DUP5 DUP8 DUP6 ADD MSTORE DUP6 PUSH1 0x3 DUP3 ADD SLOAD AND PUSH1 0x60 DUP6 ADD MSTORE ADD SLOAD SWAP2 ADD MSTORE DUP2 DUP7 SLOAD AND SUB PUSH2 0xFAA JUMPI DUP5 DUP1 SWAP2 DUP4 MLOAD DUP7 DUP2 ADD SWAP2 PUSH4 0xEFEF57F9 PUSH1 0xE0 SHL DUP4 MSTORE PUSH32 0x0 AND PUSH1 0x24 DUP3 ADD MSTORE ADDRESS PUSH1 0x44 DUP3 ADD MSTORE PUSH1 0x1 PUSH1 0x64 DUP3 ADD MSTORE PUSH1 0x64 DUP2 MSTORE PUSH2 0xEF7 DUP2 PUSH2 0x1CCF JUMP JUMPDEST MLOAD SWAP1 DUP3 PUSH2 0x167 GAS CALL PUSH2 0xF07 PUSH2 0x24C9 JUMP JUMPDEST SWAP1 ISZERO PUSH2 0xFA2 JUMPI DUP1 DUP5 DUP1 PUSH2 0xF1F SWAP4 MLOAD DUP4 ADD ADD SWAP2 ADD PUSH2 0x3315 JUMP JUMPDEST PUSH1 0x3 SIGNEXTEND PUSH1 0x16 DUP2 SUB PUSH2 0xF2E JUMPI DUP5 DUP1 RETURN JUMPDEST SWAP1 PUSH2 0xF3B PUSH2 0xF9E SWAP3 PUSH2 0x2669 JUMP JUMPDEST SWAP1 PUSH2 0xF84 PUSH1 0x35 DUP3 MLOAD DUP1 SWAP5 PUSH21 0x2321A22910313AB93734B733903330B4B632B21D1 PUSH1 0x5D SHL DUP10 DUP4 ADD MSTORE PUSH2 0xF74 DUP2 MLOAD DUP1 SWAP3 DUP12 DUP7 DUP7 ADD SWAP2 ADD PUSH2 0x1D92 JUMP JUMPDEST DUP2 ADD SUB PUSH1 0x15 DUP2 ADD DUP6 MSTORE ADD DUP4 PUSH2 0x1D56 JUMP JUMPDEST MLOAD SWAP4 DUP5 SWAP4 PUSH3 0x461BCD PUSH1 0xE5 SHL DUP6 MSTORE DUP5 ADD MSTORE PUSH1 0x24 DUP4 ADD SWAP1 PUSH2 0x1DB5 JUMP JUMPDEST SUB SWAP1 REVERT JUMPDEST POP PUSH1 0x15 PUSH2 0xF1F JUMP JUMPDEST POP SWAP2 PUSH1 0x64 SWAP3 MLOAD SWAP2 PUSH3 0x461BCD PUSH1 0xE5 SHL DUP4 MSTORE DUP3 ADD MSTORE PUSH1 0x1A PUSH1 0x24 DUP3 ADD MSTORE PUSH32 0x4E6F7420746865206F776E6572206F6620746869732046434452000000000000 PUSH1 0x44 DUP3 ADD MSTORE REVERT JUMPDEST DUP4 DUP1 REVERT JUMPDEST POP CALLVALUE PUSH2 0x6DD JUMPI DUP1 PUSH1 0x3 NOT CALLDATASIZE ADD SLT PUSH2 0x6DD JUMPI PUSH2 0x1009 PUSH2 0x1E1E JUMP JUMPDEST PUSH1 0x0 DUP1 SLOAD PUSH1 0x1 PUSH1 0x1 PUSH1 0xA0 SHL SUB NOT DUP2 AND DUP3 SSTORE PUSH1 0x1 PUSH1 0x1 PUSH1 0xA0 SHL SUB AND PUSH32 0x8BE0079C531659141344CD1FD0A4F28419497F9722A3DAAFE3B4186F6B6457E0 DUP3 DUP1 LOG3 DUP1 RETURN JUMPDEST POP SWAP1 CALLVALUE PUSH2 0x31B JUMPI DUP3 PUSH1 0x3 NOT CALLDATASIZE ADD SLT PUSH2 0x31B JUMPI PUSH2 0x1064 PUSH2 0x1BF4 JUMP JUMPDEST SWAP1 PUSH1 0x24 CALLDATALOAD SWAP1 PUSH1 0x1 PUSH1 0x1 PUSH1 0x40 SHL SUB DUP3 GT PUSH2 0xFEC JUMPI CALLDATASIZE PUSH1 0x23 DUP4 ADD SLT ISZERO PUSH2 0xFEC JUMPI DUP2 ADD CALLDATALOAD PUSH2 0x108E DUP2 PUSH2 0x1D77 JUMP JUMPDEST SWAP2 PUSH2 0x109B DUP7 MLOAD SWAP4 DUP5 PUSH2 0x1D56 JUMP JUMPDEST DUP2 DUP4 MSTORE CALLDATASIZE PUSH1 0x24 DUP4 DUP4 ADD ADD GT PUSH2 0x573 JUMPI PUSH2 0x10FB DUP6 SWAP5 SWAP3 SWAP4 DUP6 PUSH1 0x20 DUP7 DUP3 SWAP8 PUSH1 0x24 PUSH2 0xCC8 SWAP8 ADD DUP4 DUP7 ADD CALLDATACOPY DUP4 ADD ADD MSTORE DUP8 MLOAD PUSH4 0x30C6E32F PUSH1 0xE1 SHL PUSH1 0x20 DUP3 ADD SWAP1 DUP2 MSTORE PUSH1 0x1 PUSH1 0x1 PUSH1 0xA0 SHL SUB SWAP1 SWAP6 AND PUSH1 0x24 DUP3 ADD MSTORE PUSH1 0x44 DUP2 ADD DUP10 SWAP1 MSTORE SWAP3 DUP4 SWAP2 PUSH1 0x64 DUP4 ADD SWAP1 PUSH2 0x1DB5 JUMP JUMPDEST MLOAD SWAP1 DUP3 PUSH2 0x167 GAS CALL SWAP1 PUSH2 0x110C PUSH2 0x24C9 JUMP JUMPDEST SWAP2 PUSH32 0x4AF4780E06FE8CB9DF64B0794FA6F01399AF979175BB988E35E0E57E594567BC DUP5 MLOAD DUP3 ISZERO ISZERO DUP2 MSTORE DUP6 PUSH1 0x20 DUP3 ADD MSTORE DUP1 PUSH2 0x1148 DUP8 DUP3 ADD DUP8 PUSH2 0x1DB5 JUMP JUMPDEST SUB SWAP1 LOG1 ISZERO PUSH2 0x1170 JUMPI POP PUSH2 0x747 PUSH1 0x16 SWAP2 JUMPDEST DUP4 MLOAD SWAP4 DUP5 SWAP4 PUSH1 0x3 SIGNEXTEND DUP5 MSTORE DUP1 PUSH1 0x20 DUP6 ADD MSTORE DUP4 ADD SWAP1 PUSH2 0x1DB5 JUMP JUMPDEST DUP3 MLOAD SWAP2 POP PUSH2 0x117D DUP3 PUSH2 0x1CEA JUMP JUMPDEST DUP2 MSTORE PUSH2 0x747 PUSH1 0x15 SWAP2 PUSH2 0x1158 JUMP JUMPDEST POP CALLVALUE PUSH2 0x6DD JUMPI DUP1 PUSH1 0x3 NOT CALLDATASIZE ADD SLT PUSH2 0x6DD JUMPI POP SLOAD PUSH1 0x5 SLOAD PUSH1 0x6 SLOAD SWAP3 MLOAD SWAP2 DUP3 MSTORE PUSH1 0x20 DUP3 ADD MSTORE PUSH1 0x40 DUP2 ADD SWAP2 SWAP1 SWAP2 MSTORE PUSH1 0x60 SWAP1 RETURN JUMPDEST POP DUP3 CALLVALUE PUSH2 0x31B JUMPI DUP2 PUSH1 0x3 NOT CALLDATASIZE ADD SLT PUSH2 0x31B JUMPI PUSH1 0x20 SWAP1 PUSH1 0xFF PUSH1 0x2 SLOAD AND SWAP1 MLOAD SWAP1 ISZERO ISZERO DUP2 MSTORE RETURN JUMPDEST POP SWAP2 PUSH1 0x60 CALLDATASIZE PUSH1 0x3 NOT ADD SLT PUSH2 0x2F8 JUMPI DUP2 CALLDATALOAD SWAP1 PUSH1 0x24 CALLDATALOAD PUSH2 0x11FA PUSH2 0x1EC9 JUMP JUMPDEST PUSH2 0x1202 PUSH2 0x1EAB JUMP JUMPDEST PUSH1 0x1 PUSH1 0x1 PUSH1 0xA0 SHL SUB PUSH32 0x0 DUP2 AND SWAP4 SWAP1 SWAP2 SWAP1 PUSH2 0x123C DUP6 ISZERO ISZERO PUSH2 0x1E4A JUMP JUMPDEST PUSH1 0x5 SLOAD ISZERO PUSH2 0x139E JUMPI DUP7 SWAP2 PUSH2 0x1270 SWAP2 PUSH2 0x1255 CALLVALUE ISZERO ISZERO PUSH2 0x1EEC JUMP JUMPDEST PUSH2 0x1260 DUP2 ISZERO ISZERO PUSH2 0x1F2B JUMP JUMPDEST PUSH2 0x126B DUP3 ISZERO ISZERO PUSH2 0x1F81 JUMP JUMPDEST PUSH2 0x2523 JUMP JUMPDEST SWAP5 PUSH2 0x127F PUSH1 0x44 CALLDATALOAD DUP8 LT ISZERO PUSH2 0x2469 JUMP JUMPDEST PUSH2 0x128A CALLVALUE DUP3 SLOAD PUSH2 0x203D JUMP JUMPDEST DUP2 SSTORE PUSH2 0x1298 CALLVALUE PUSH1 0x6 SLOAD PUSH2 0x203D JUMP JUMPDEST PUSH1 0x6 SSTORE PUSH1 0x1 PUSH1 0x1 PUSH1 0x40 SHL SUB DUP7 AND PUSH1 0x7 SIGNEXTEND SWAP3 DUP5 MLOAD DUP5 DUP2 MSTORE DUP7 PUSH1 0x0 DUP1 MLOAD PUSH1 0x20 PUSH2 0x33A0 DUP4 CODECOPY DUP2 MLOAD SWAP2 MSTORE PUSH1 0x20 CALLER SWAP4 LOG3 PUSH32 0x0 AND DUP1 EXTCODESIZE ISZERO PUSH2 0x2F8 JUMPI DUP5 MLOAD PUSH4 0xBB81C875 PUSH1 0xE0 SHL DUP2 MSTORE CALLER SWAP3 DUP2 ADD SWAP3 DUP4 MSTORE PUSH1 0x20 DUP4 ADD DUP9 SWAP1 MSTORE SWAP2 DUP4 SWAP2 DUP4 SWAP2 DUP3 SWAP1 DUP5 SWAP1 DUP3 SWAP1 PUSH1 0x40 ADD SUB SWAP3 GAS CALL DUP1 ISZERO PUSH2 0x1394 JUMPI PUSH2 0x1380 JUMPI JUMPDEST POP POP PUSH1 0x0 DUP1 MLOAD PUSH1 0x20 PUSH2 0x33E0 DUP4 CODECOPY DUP2 MLOAD SWAP2 MSTORE SWAP3 PUSH2 0x1341 DUP6 PUSH1 0x5 SLOAD PUSH2 0x203D JUMP JUMPDEST PUSH1 0x5 SSTORE DUP3 MLOAD SWAP2 DUP3 MSTORE DUP6 PUSH1 0x20 DUP4 ADD MSTORE PUSH1 0x0 DUP1 MLOAD PUSH1 0x20 PUSH2 0x33C0 DUP4 CODECOPY DUP2 MLOAD SWAP2 MSTORE DUP4 CALLER SWAP4 LOG3 MLOAD CALLVALUE DUP2 MSTORE PUSH1 0x20 DUP2 ADD SWAP3 SWAP1 SWAP3 MSTORE TIMESTAMP PUSH1 0x40 DUP4 ADD MSTORE CALLER SWAP2 DUP1 PUSH1 0x60 DUP2 ADD PUSH2 0xB25 JUMP JUMPDEST PUSH2 0x1389 SWAP1 PUSH2 0x1CBC JUMP JUMPDEST PUSH2 0x573 JUMPI DUP5 CODESIZE PUSH2 0x1323 JUMP JUMPDEST DUP5 MLOAD RETURNDATASIZE DUP5 DUP3 RETURNDATACOPY RETURNDATASIZE SWAP1 REVERT JUMPDEST DUP4 MLOAD PUSH3 0x461BCD PUSH1 0xE5 SHL DUP2 MSTORE PUSH1 0x20 DUP2 DUP9 ADD MSTORE PUSH1 0x14 PUSH1 0x24 DUP3 ADD MSTORE PUSH20 0x141BDBDB081B9BDD081A5B9A5D1A585B1A5E9959 PUSH1 0x62 SHL PUSH1 0x44 DUP3 ADD MSTORE PUSH1 0x64 SWAP1 REVERT JUMPDEST POP SWAP2 SWAP1 CALLVALUE PUSH2 0x2F8 JUMPI PUSH1 0x20 CALLDATASIZE PUSH1 0x3 NOT ADD SLT PUSH2 0x2F8 JUMPI DUP2 PUSH1 0xA0 SWAP4 DUP3 CALLDATALOAD DUP2 PUSH1 0x80 DUP5 MLOAD PUSH2 0x1400 DUP2 PUSH2 0x1CCF JUMP JUMPDEST DUP3 DUP2 MSTORE DUP3 PUSH1 0x20 DUP3 ADD MSTORE DUP3 DUP7 DUP3 ADD MSTORE DUP3 PUSH1 0x60 DUP3 ADD MSTORE ADD MSTORE PUSH2 0x1423 PUSH1 0xC SLOAD DUP3 LT PUSH2 0x32D7 JUMP JUMPDEST DUP2 MSTORE PUSH1 0xA PUSH1 0x20 MSTORE KECCAK256 SWAP1 DUP3 MLOAD SWAP2 PUSH2 0x1438 DUP4 PUSH2 0x1CCF JUMP JUMPDEST DUP1 SLOAD SWAP4 DUP5 DUP5 MSTORE PUSH1 0x1 DUP3 ADD SLOAD PUSH1 0x20 DUP6 ADD SWAP1 DUP2 MSTORE PUSH1 0x1 DUP1 DUP9 SHL SUB SWAP4 DUP5 SWAP2 PUSH1 0x80 DUP4 PUSH1 0x2 DUP8 ADD SLOAD AND SWAP3 DUP6 DUP10 ADD SWAP4 DUP5 MSTORE DUP5 PUSH1 0x3 DUP9 ADD SLOAD AND SWAP7 PUSH1 0x60 DUP11 ADD SWAP8 DUP9 MSTORE ADD SLOAD SWAP8 ADD SWAP7 DUP8 MSTORE DUP4 MLOAD SWAP8 DUP9 MSTORE MLOAD PUSH1 0x20 DUP9 ADD MSTORE MLOAD AND SWAP1 DUP6 ADD MSTORE MLOAD AND PUSH1 0x60 DUP4 ADD MSTORE MLOAD PUSH1 0x80 DUP3 ADD MSTORE RETURN JUMPDEST POP DUP3 SWAP1 CALLVALUE PUSH2 0x6DD JUMPI PUSH1 0x20 CALLDATASIZE PUSH1 0x3 NOT ADD SLT PUSH2 0x6DD JUMPI POP PUSH2 0x8A0 PUSH1 0x20 SWAP3 CALLDATALOAD PUSH2 0x24F9 JUMP JUMPDEST POP DUP3 CALLVALUE PUSH2 0x31B JUMPI DUP2 PUSH1 0x3 NOT CALLDATASIZE ADD SLT PUSH2 0x31B JUMPI PUSH1 0x20 PUSH32 0x5DB9EE0A495BF2E6FF9C91A7834C1BA4FDD244A5E8AA4E537BD38AEAE4B073AA SWAP2 PUSH2 0x14F8 PUSH2 0x1E1E JUMP JUMPDEST PUSH2 0x1500 PUSH2 0x3276 JUMP JUMPDEST PUSH1 0xFF NOT PUSH1 0x2 SLOAD AND PUSH1 0x2 SSTORE MLOAD CALLER DUP2 MSTORE LOG1 DUP1 RETURN JUMPDEST POP DUP3 CALLVALUE PUSH2 0x31B JUMPI DUP2 PUSH1 0x3 NOT CALLDATASIZE ADD SLT PUSH2 0x31B JUMPI MLOAD PUSH32 0x0 PUSH1 0x1 PUSH1 0x1 PUSH1 0xA0 SHL SUB AND DUP2 MSTORE PUSH1 0x20 SWAP1 RETURN JUMPDEST POP SWAP2 CALLVALUE PUSH2 0x2F8 JUMPI PUSH1 0x20 CALLDATASIZE PUSH1 0x3 NOT ADD SLT PUSH2 0x2F8 JUMPI DUP1 PUSH1 0xA0 SWAP4 DUP4 CALLDATALOAD DUP2 MSTORE PUSH1 0xA PUSH1 0x20 MSTORE KECCAK256 DUP1 SLOAD SWAP3 PUSH1 0x1 DUP3 ADD SLOAD SWAP3 PUSH1 0x1 DUP1 DUP8 SHL SUB SWAP2 DUP3 PUSH1 0x2 DUP6 ADD SLOAD AND SWAP3 PUSH1 0x3 DUP6 ADD SLOAD AND SWAP4 ADD SLOAD SWAP4 DUP2 MLOAD SWAP6 DUP7 MSTORE PUSH1 0x20 DUP7 ADD MSTORE DUP5 ADD MSTORE PUSH1 0x60 DUP4 ADD MSTORE PUSH1 0x80 DUP3 ADD MSTORE RETURN JUMPDEST POP SWAP2 CALLVALUE PUSH2 0x2F8 JUMPI PUSH1 0x20 CALLDATASIZE PUSH1 0x3 NOT ADD SLT PUSH2 0x2F8 JUMPI DUP1 PUSH1 0xC0 SWAP4 DUP4 CALLDATALOAD DUP2 MSTORE PUSH1 0x7 PUSH1 0x20 MSTORE KECCAK256 DUP1 SLOAD SWAP3 PUSH1 0x1 DUP3 ADD SLOAD SWAP3 PUSH1 0x2 DUP4 ADD SLOAD SWAP1 PUSH1 0x3 DUP5 ADD SLOAD SWAP3 PUSH1 0x5 PUSH1 0x1 DUP1 PUSH1 0xA0 SHL SUB DUP1 SWAP3 DUP8 ADD SLOAD AND SWAP6 ADD SLOAD AND SWAP5 DUP2 MLOAD SWAP7 DUP8 MSTORE PUSH1 0x20 DUP8 ADD MSTORE DUP6 ADD MSTORE PUSH1 0x60 DUP5 ADD MSTORE PUSH1 0x80 DUP4 ADD MSTORE PUSH1 0xA0 DUP3 ADD MSTORE RETURN JUMPDEST POP DUP3 SWAP1 CALLVALUE PUSH2 0x6DD JUMPI PUSH1 0x20 CALLDATASIZE PUSH1 0x3 NOT ADD SLT PUSH2 0x6DD JUMPI POP PUSH2 0x8A0 PUSH1 0x20 SWAP3 CALLDATALOAD PUSH2 0x2555 JUMP JUMPDEST POP DUP3 CALLVALUE PUSH2 0x31B JUMPI DUP2 PUSH1 0x3 NOT CALLDATASIZE ADD SLT PUSH2 0x31B JUMPI PUSH1 0x20 SWAP1 PUSH2 0x8A0 PUSH2 0x25ED JUMP JUMPDEST POP SWAP2 SWAP1 CALLVALUE PUSH2 0x2F8 JUMPI DUP3 PUSH1 0x3 NOT CALLDATASIZE ADD SLT PUSH2 0x2F8 JUMPI PUSH1 0x20 SWAP3 POP SLOAD SWAP1 MLOAD SWAP1 DUP2 MSTORE RETURN JUMPDEST POP SWAP1 DUP2 PUSH1 0x3 NOT CALLDATASIZE ADD SLT PUSH2 0x31B JUMPI PUSH2 0x168C PUSH2 0x1E1E JUMP JUMPDEST PUSH2 0x1694 PUSH2 0x1EC9 JUMP JUMPDEST PUSH2 0x169C PUSH2 0x1EAB JUMP JUMPDEST PUSH1 0x1 PUSH1 0x1 PUSH1 0xA0 SHL SUB PUSH32 0x0 DUP2 AND SWAP4 SWAP1 PUSH2 0x16D4 DUP6 ISZERO ISZERO PUSH2 0x1E4A JUMP JUMPDEST PUSH1 0x5 SLOAD PUSH2 0x1840 JUMPI PUSH3 0x186A0 CALLVALUE LT PUSH2 0x17FD JUMPI CALLVALUE DUP4 SSTORE CALLVALUE PUSH1 0x6 SSTORE PUSH1 0x64 CALLVALUE DIV SWAP3 PUSH1 0x1 PUSH1 0x1 PUSH1 0x40 SHL SUB DUP5 AND PUSH1 0x7 SIGNEXTEND SWAP2 DUP4 MLOAD DUP4 DUP2 MSTORE DUP8 PUSH1 0x0 DUP1 MLOAD PUSH1 0x20 PUSH2 0x33A0 DUP4 CODECOPY DUP2 MLOAD SWAP2 MSTORE PUSH1 0x20 CALLER SWAP4 LOG3 PUSH32 0x0 AND SWAP1 DUP2 EXTCODESIZE ISZERO PUSH2 0x17F9 JUMPI DUP4 MLOAD PUSH4 0xBB81C875 PUSH1 0xE0 SHL DUP2 MSTORE CALLER SWAP2 DUP2 ADD SWAP2 DUP3 MSTORE PUSH1 0x20 DUP3 ADD DUP7 SWAP1 MSTORE SWAP2 DUP7 SWAP2 DUP4 SWAP2 SWAP1 DUP3 SWAP1 DUP5 SWAP1 DUP3 SWAP1 PUSH1 0x40 ADD SUB SWAP3 GAS CALL DUP1 ISZERO PUSH2 0x17EF JUMPI PUSH2 0x17CE JUMPI JUMPDEST POP DUP3 SWAP4 SWAP5 PUSH1 0x0 DUP1 MLOAD PUSH1 0x20 PUSH2 0x33E0 DUP4 CODECOPY DUP2 MLOAD SWAP2 MSTORE SWAP4 PUSH1 0x5 SSTORE DUP3 MLOAD SWAP2 DUP3 MSTORE DUP6 PUSH1 0x20 DUP4 ADD MSTORE PUSH1 0x0 DUP1 MLOAD PUSH1 0x20 PUSH2 0x33C0 DUP4 CODECOPY DUP2 MLOAD SWAP2 MSTORE DUP4 CALLER SWAP4 LOG3 MLOAD CALLVALUE DUP2 MSTORE PUSH1 0x20 DUP2 ADD SWAP3 SWAP1 SWAP3 MSTORE TIMESTAMP PUSH1 0x40 DUP4 ADD MSTORE CALLER SWAP2 DUP1 PUSH1 0x60 DUP2 ADD PUSH2 0xB25 JUMP JUMPDEST SWAP4 PUSH2 0x17E8 PUSH1 0x0 DUP1 MLOAD PUSH1 0x20 PUSH2 0x33E0 DUP4 CODECOPY DUP2 MLOAD SWAP2 MSTORE SWAP5 SWAP6 PUSH2 0x1CBC JUMP JUMPDEST SWAP4 SWAP3 PUSH2 0x177B JUMP JUMPDEST DUP4 MLOAD RETURNDATASIZE DUP8 DUP3 RETURNDATACOPY RETURNDATASIZE SWAP1 REVERT JUMPDEST DUP6 DUP1 REVERT JUMPDEST DUP2 MLOAD PUSH3 0x461BCD PUSH1 0xE5 SHL DUP2 MSTORE PUSH1 0x20 DUP2 DUP6 ADD MSTORE PUSH1 0x1E PUSH1 0x24 DUP3 ADD MSTORE PUSH32 0x496E73756666696369656E7420696E697469616C206C69717569646974790000 PUSH1 0x44 DUP3 ADD MSTORE PUSH1 0x64 SWAP1 REVERT JUMPDEST DUP2 MLOAD PUSH3 0x461BCD PUSH1 0xE5 SHL DUP2 MSTORE PUSH1 0x20 DUP2 DUP6 ADD MSTORE PUSH1 0x18 PUSH1 0x24 DUP3 ADD MSTORE PUSH32 0x506F6F6C20616C726561647920696E697469616C697A65640000000000000000 PUSH1 0x44 DUP3 ADD MSTORE PUSH1 0x64 SWAP1 REVERT JUMPDEST POP SWAP2 SWAP1 CALLVALUE PUSH2 0x2F8 JUMPI PUSH1 0x20 CALLDATASIZE PUSH1 0x3 NOT ADD SLT PUSH2 0x2F8 JUMPI PUSH1 0x5 SWAP1 DUP3 DUP5 PUSH1 0xC0 SWAP6 PUSH1 0xA0 DUP4 MLOAD PUSH2 0x18AC DUP2 PUSH2 0x1C8B JUMP JUMPDEST DUP3 DUP2 MSTORE DUP3 PUSH1 0x20 DUP3 ADD MSTORE DUP3 DUP6 DUP3 ADD MSTORE DUP3 PUSH1 0x60 DUP3 ADD MSTORE DUP3 PUSH1 0x80 DUP3 ADD MSTORE ADD MSTORE DUP3 CALLDATALOAD DUP2 MSTORE PUSH1 0x7 PUSH1 0x20 MSTORE KECCAK256 SWAP1 DUP4 MLOAD SWAP2 PUSH2 0x18DF DUP4 PUSH2 0x1C8B JUMP JUMPDEST DUP1 SLOAD SWAP5 DUP6 DUP5 MSTORE PUSH1 0x1 DUP3 ADD SLOAD SWAP1 PUSH1 0x20 DUP6 ADD SWAP2 DUP3 MSTORE PUSH1 0x2 DUP4 ADD SLOAD DUP2 DUP7 ADD SWAP1 DUP2 MSTORE PUSH1 0x3 DUP5 ADD SLOAD SWAP3 PUSH1 0x60 DUP8 ADD SWAP4 DUP5 MSTORE PUSH1 0xA0 PUSH1 0x1 DUP1 DUP3 SHL SUB DUP1 SWAP10 DUP2 DUP1 SWAP10 DUP10 ADD SLOAD AND SWAP8 PUSH1 0x80 DUP12 ADD SWAP9 DUP10 MSTORE ADD SLOAD AND SWAP8 ADD SWAP7 DUP8 MSTORE DUP3 MLOAD SWAP9 DUP10 MSTORE MLOAD PUSH1 0x20 DUP10 ADD MSTORE MLOAD SWAP1 DUP8 ADD MSTORE MLOAD PUSH1 0x60 DUP7 ADD MSTORE MLOAD AND PUSH1 0x80 DUP5 ADD MSTORE MLOAD AND PUSH1 0xA0 DUP3 ADD MSTORE RETURN JUMPDEST POP DUP3 CALLVALUE PUSH2 0x31B JUMPI DUP2 PUSH1 0x3 NOT CALLDATASIZE ADD SLT PUSH2 0x31B JUMPI PUSH1 0x20 SWAP1 MLOAD PUSH3 0x186A0 DUP2 MSTORE RETURN JUMPDEST POP DUP3 CALLVALUE PUSH2 0x31B JUMPI PUSH1 0x20 SWAP1 DUP2 PUSH1 0x3 NOT CALLDATASIZE ADD SLT PUSH2 0x2F8 JUMPI PUSH1 0x1 PUSH1 0x1 PUSH1 0xA0 SHL SUB PUSH2 0x1994 PUSH2 0x1BF4 JUMP JUMPDEST AND DUP4 MSTORE PUSH1 0xB DUP3 MSTORE DUP1 DUP4 KECCAK256 SWAP3 DUP2 MLOAD DUP1 SWAP4 DUP1 DUP7 SLOAD SWAP3 DUP4 DUP2 MSTORE ADD SWAP6 DUP4 MSTORE DUP1 DUP4 KECCAK256 SWAP3 SWAP1 JUMPDEST DUP3 DUP3 LT PUSH2 0x19CC JUMPI PUSH2 0x747 DUP7 DUP7 PUSH2 0x73D DUP3 DUP12 SUB DUP4 PUSH2 0x1D56 JUMP JUMPDEST DUP4 SLOAD DUP8 MSTORE SWAP6 DUP7 ADD SWAP6 PUSH1 0x1 SWAP4 DUP5 ADD SWAP4 SWAP1 SWAP2 ADD SWAP1 PUSH2 0x19B4 JUMP JUMPDEST POP DUP3 CALLVALUE PUSH2 0x31B JUMPI DUP2 DUP1 PUSH1 0x20 SWAP4 PUSH2 0xCD6 PUSH2 0xCC8 PUSH2 0x19FE CALLDATASIZE PUSH2 0x1C0F JUMP JUMPDEST DUP10 MLOAD PUSH4 0xAED65F5 PUSH1 0xE1 SHL DUP13 DUP3 ADD SWAP1 DUP2 MSTORE PUSH1 0x1 PUSH1 0x1 PUSH1 0xA0 SHL SUB SWAP6 DUP7 AND PUSH1 0x24 DUP4 ADD MSTORE SWAP4 DUP6 AND PUSH1 0x44 DUP3 ADD MSTORE SWAP4 SWAP1 SWAP2 AND PUSH1 0x64 DUP5 ADD MSTORE PUSH1 0x84 DUP4 ADD MSTORE SWAP3 SWAP1 SWAP2 DUP3 SWAP1 PUSH1 0xA4 DUP3 ADD SWAP1 JUMP JUMPDEST POP SWAP2 CALLVALUE PUSH2 0x2F8 JUMPI DUP3 PUSH1 0x3 NOT CALLDATASIZE ADD SLT PUSH2 0x2F8 JUMPI PUSH2 0x1A5A PUSH2 0x1E1E JUMP JUMPDEST PUSH32 0x0 SWAP2 PUSH2 0x1A86 DUP4 ADDRESS PUSH2 0x332E JUMP JUMPDEST PUSH1 0x16 DUP2 SUB PUSH2 0x1B5E JUMPI POP PUSH32 0x0 SWAP2 PUSH2 0x1ABB DUP4 ADDRESS PUSH2 0x332E JUMP JUMPDEST PUSH1 0x16 DUP2 SUB PUSH2 0x1AFA JUMPI POP POP POP PUSH1 0x1 PUSH1 0x1 PUSH1 0xA0 SHL SUB SWAP1 DUP2 AND SWAP2 AND PUSH32 0x650590083355AAFFAA2FA0C2195838842F2B6D5EA01C067F5E128066EA40F15C DUP4 DUP1 LOG3 DUP1 RETURN JUMPDEST PUSH1 0x20 SWAP3 SWAP2 PUSH2 0x1B0D PUSH2 0xF9E SWAP3 PUSH1 0x3 SIGNEXTEND PUSH2 0x2669 JUMP JUMPDEST SWAP1 PUSH2 0xF84 PUSH1 0x3F DUP3 MLOAD DUP1 SWAP5 PUSH32 0x4643445220746F6B656E206173736F63696174696F6E206661696C65643A2000 DUP10 DUP4 ADD MSTORE PUSH2 0x1B4E DUP2 MLOAD DUP1 SWAP3 DUP12 DUP7 DUP7 ADD SWAP2 ADD PUSH2 0x1D92 JUMP JUMPDEST DUP2 ADD SUB PUSH1 0x1F DUP2 ADD DUP6 MSTORE ADD DUP4 PUSH2 0x1D56 JUMP JUMPDEST PUSH1 0x20 SWAP3 PUSH2 0x1B70 PUSH2 0xF9E SWAP3 PUSH1 0x3 SIGNEXTEND PUSH2 0x2669 JUMP JUMPDEST SWAP1 PUSH2 0xF84 PUSH1 0x3F DUP3 MLOAD DUP1 SWAP5 PUSH32 0x43534C5020746F6B656E206173736F63696174696F6E206661696C65643A2000 DUP10 DUP4 ADD MSTORE PUSH2 0x1B4E DUP2 MLOAD DUP1 SWAP3 DUP12 DUP7 DUP7 ADD SWAP2 ADD PUSH2 0x1D92 JUMP JUMPDEST SWAP1 POP CALLVALUE PUSH2 0x31B JUMPI DUP2 PUSH1 0x3 NOT CALLDATASIZE ADD SLT PUSH2 0x31B JUMPI PUSH32 0x0 PUSH1 0x1 PUSH1 0x1 PUSH1 0xA0 SHL SUB AND DUP2 MSTORE PUSH1 0x20 SWAP1 RETURN JUMPDEST PUSH1 0x4 CALLDATALOAD SWAP1 PUSH1 0x1 PUSH1 0x1 PUSH1 0xA0 SHL SUB DUP3 AND DUP3 SUB PUSH2 0x1C0A JUMPI JUMP JUMPDEST PUSH1 0x0 DUP1 REVERT JUMPDEST PUSH1 0x80 SWAP1 PUSH1 0x3 NOT ADD SLT PUSH2 0x1C0A JUMPI PUSH1 0x1 PUSH1 0x1 PUSH1 0xA0 SHL SUB PUSH1 0x4 CALLDATALOAD DUP2 DUP2 AND DUP2 SUB PUSH2 0x1C0A JUMPI SWAP2 PUSH1 0x24 CALLDATALOAD DUP3 DUP2 AND DUP2 SUB PUSH2 0x1C0A JUMPI SWAP2 PUSH1 0x44 CALLDATALOAD SWAP1 DUP2 AND DUP2 SUB PUSH2 0x1C0A JUMPI SWAP1 PUSH1 0x64 CALLDATALOAD SWAP1 JUMP JUMPDEST PUSH1 0x20 SWAP1 DUP2 PUSH1 0x40 DUP2 DUP4 ADD SWAP3 DUP3 DUP2 MSTORE DUP6 MLOAD DUP1 SWAP5 MSTORE ADD SWAP4 ADD SWAP2 PUSH1 0x0 JUMPDEST DUP3 DUP2 LT PUSH2 0x1C77 JUMPI POP POP POP POP SWAP1 JUMP JUMPDEST DUP4 MLOAD DUP6 MSTORE SWAP4 DUP2 ADD SWAP4 SWAP3 DUP2 ADD SWAP3 PUSH1 0x1 ADD PUSH2 0x1C69 JUMP JUMPDEST PUSH1 0xC0 DUP2 ADD SWAP1 DUP2 LT PUSH1 0x1 PUSH1 0x1 PUSH1 0x40 SHL SUB DUP3 GT OR PUSH2 0x1CA6 JUMPI PUSH1 0x40 MSTORE JUMP JUMPDEST PUSH4 0x4E487B71 PUSH1 0xE0 SHL PUSH1 0x0 MSTORE PUSH1 0x41 PUSH1 0x4 MSTORE PUSH1 0x24 PUSH1 0x0 REVERT JUMPDEST PUSH1 0x1 PUSH1 0x1 PUSH1 0x40 SHL SUB DUP2 GT PUSH2 0x1CA6 JUMPI PUSH1 0x40 MSTORE JUMP JUMPDEST PUSH1 0xA0 DUP2 ADD SWAP1 DUP2 LT PUSH1 0x1 PUSH1 0x1 PUSH1 0x40 SHL SUB DUP3 GT OR PUSH2 0x1CA6 JUMPI PUSH1 0x40 MSTORE JUMP JUMPDEST PUSH1 0x20 DUP2 ADD SWAP1 DUP2 LT PUSH1 0x1 PUSH1 0x1 PUSH1 0x40 SHL SUB DUP3 GT OR PUSH2 0x1CA6 JUMPI PUSH1 0x40 MSTORE JUMP JUMPDEST PUSH1 0x40 DUP2 ADD SWAP1 DUP2 LT PUSH1 0x1 PUSH1 0x1 PUSH1 0x40 SHL SUB DUP3 GT OR PUSH2 0x1CA6 JUMPI PUSH1 0x40 MSTORE JUMP JUMPDEST PUSH1 0x60 DUP2 ADD SWAP1 DUP2 LT PUSH1 0x1 PUSH1 0x1 PUSH1 0x40 SHL SUB DUP3 GT OR PUSH2 0x1CA6 JUMPI PUSH1 0x40 MSTORE JUMP JUMPDEST PUSH1 0x80 DUP2 ADD SWAP1 DUP2 LT PUSH1 0x1 PUSH1 0x1 PUSH1 0x40 SHL SUB DUP3 GT OR PUSH2 0x1CA6 JUMPI PUSH1 0x40 MSTORE JUMP JUMPDEST SWAP1 PUSH1 0x1F DUP1 NOT SWAP2 ADD AND DUP2 ADD SWAP1 DUP2 LT PUSH1 0x1 PUSH1 0x1 PUSH1 0x40 SHL SUB DUP3 GT OR PUSH2 0x1CA6 JUMPI PUSH1 0x40 MSTORE JUMP JUMPDEST PUSH1 0x1 PUSH1 0x1 PUSH1 0x40 SHL SUB DUP2 GT PUSH2 0x1CA6 JUMPI PUSH1 0x1F ADD PUSH1 0x1F NOT AND PUSH1 0x20 ADD SWAP1 JUMP JUMPDEST PUSH1 0x0 JUMPDEST DUP4 DUP2 LT PUSH2 0x1DA5 JUMPI POP POP PUSH1 0x0 SWAP2 ADD MSTORE JUMP JUMPDEST DUP2 DUP2 ADD MLOAD DUP4 DUP3 ADD MSTORE PUSH1 0x20 ADD PUSH2 0x1D95 JUMP JUMPDEST SWAP1 PUSH1 0x20 SWAP2 PUSH2 0x1DCE DUP2 MLOAD DUP1 SWAP3 DUP2 DUP6 MSTORE DUP6 DUP1 DUP7 ADD SWAP2 ADD PUSH2 0x1D92 JUMP JUMPDEST PUSH1 0x1F ADD PUSH1 0x1F NOT AND ADD ADD SWAP1 JUMP JUMPDEST DUP1 SLOAD DUP3 LT ISZERO PUSH2 0x1DF2 JUMPI PUSH1 0x0 MSTORE PUSH1 0x20 PUSH1 0x0 KECCAK256 ADD SWAP1 PUSH1 0x0 SWAP1 JUMP JUMPDEST PUSH4 0x4E487B71 PUSH1 0xE0 SHL PUSH1 0x0 MSTORE PUSH1 0x32 PUSH1 0x4 MSTORE PUSH1 0x24 PUSH1 0x0 REVERT JUMPDEST PUSH1 0x40 SWAP1 PUSH1 0x3 NOT ADD SLT PUSH2 0x1C0A JUMPI PUSH1 0x4 CALLDATALOAD SWAP1 PUSH1 0x24 CALLDATALOAD SWAP1 JUMP JUMPDEST PUSH1 0x0 SLOAD PUSH1 0x1 PUSH1 0x1 PUSH1 0xA0 SHL SUB AND CALLER SUB PUSH2 0x1E32 JUMPI JUMP JUMPDEST PUSH1 0x40 MLOAD PUSH4 0x118CDAA7 PUSH1 0xE0 SHL DUP2 MSTORE CALLER PUSH1 0x4 DUP3 ADD MSTORE PUSH1 0x24 SWAP1 REVERT JUMPDEST ISZERO PUSH2 0x1E51 JUMPI JUMP JUMPDEST PUSH1 0x40 MLOAD PUSH3 0x461BCD PUSH1 0xE5 SHL DUP2 MSTORE PUSH1 0x20 PUSH1 0x4 DUP3 ADD MSTORE PUSH1 0x12 PUSH1 0x24 DUP3 ADD MSTORE PUSH18 0x10D4D314081D1BDAD95B881B9BDD081CD95D PUSH1 0x72 SHL PUSH1 0x44 DUP3 ADD MSTORE PUSH1 0x64 SWAP1 REVERT JUMPDEST DUP2 ISZERO PUSH2 0x1E95 JUMPI DIV SWAP1 JUMP JUMPDEST PUSH4 0x4E487B71 PUSH1 0xE0 SHL PUSH1 0x0 MSTORE PUSH1 0x12 PUSH1 0x4 MSTORE PUSH1 0x24 PUSH1 0x0 REVERT JUMPDEST PUSH1 0xFF PUSH1 0x2 SLOAD AND PUSH2 0x1EB7 JUMPI JUMP JUMPDEST PUSH1 0x40 MLOAD PUSH4 0xD93C0665 PUSH1 0xE0 SHL DUP2 MSTORE PUSH1 0x4 SWAP1 REVERT JUMPDEST PUSH1 0x2 PUSH1 0x1 SLOAD EQ PUSH2 0x1EDA JUMPI PUSH1 0x2 PUSH1 0x1 SSTORE JUMP JUMPDEST PUSH1 0x40 MLOAD PUSH4 0x3EE5AEB5 PUSH1 0xE0 SHL DUP2 MSTORE PUSH1 0x4 SWAP1 REVERT JUMPDEST ISZERO PUSH2 0x1EF3 JUMPI JUMP JUMPDEST PUSH1 0x40 MLOAD PUSH3 0x461BCD PUSH1 0xE5 SHL DUP2 MSTORE PUSH1 0x20 PUSH1 0x4 DUP3 ADD MSTORE PUSH1 0x10 PUSH1 0x24 DUP3 ADD MSTORE PUSH16 0x139BC812109054881C1C9BDD9A591959 PUSH1 0x82 SHL PUSH1 0x44 DUP3 ADD MSTORE PUSH1 0x64 SWAP1 REVERT JUMPDEST ISZERO PUSH2 0x1F32 JUMPI JUMP JUMPDEST PUSH1 0x40 MLOAD PUSH3 0x461BCD PUSH1 0xE5 SHL DUP2 MSTORE PUSH1 0x20 PUSH1 0x4 DUP3 ADD MSTORE PUSH1 0x21 PUSH1 0x24 DUP3 ADD MSTORE PUSH32 0x55534420616D6F756E74206D7573742062652067726561746572207468616E20 PUSH1 0x44 DUP3 ADD MSTORE PUSH1 0x3 PUSH1 0xFC SHL PUSH1 0x64 DUP3 ADD MSTORE PUSH1 0x84 SWAP1 REVERT JUMPDEST ISZERO PUSH2 0x1F88 JUMPI JUMP JUMPDEST PUSH1 0x40 MLOAD PUSH3 0x461BCD PUSH1 0xE5 SHL DUP2 MSTORE PUSH1 0x20 PUSH1 0x4 DUP3 ADD MSTORE PUSH1 0x28 PUSH1 0x24 DUP3 ADD MSTORE PUSH32 0x4D617475726174696F6E20616D6F756E74206D75737420626520677265617465 PUSH1 0x44 DUP3 ADD MSTORE PUSH8 0x72207468616E203 PUSH1 0xC4 SHL PUSH1 0x64 DUP3 ADD MSTORE PUSH1 0x84 SWAP1 REVERT JUMPDEST DUP1 SLOAD PUSH9 0x10000000000000000 DUP2 LT ISZERO PUSH2 0x1CA6 JUMPI PUSH2 0x2000 SWAP2 PUSH1 0x1 DUP3 ADD DUP2 SSTORE PUSH2 0x1DDA JUMP JUMPDEST DUP2 SWAP3 SWAP2 SLOAD SWAP1 PUSH1 0x3 SHL SWAP2 DUP3 SHL SWAP2 PUSH1 0x0 NOT SWAP1 SHL NOT AND OR SWAP1 SSTORE JUMP JUMPDEST PUSH1 0x0 NOT DUP2 EQ PUSH2 0x2027 JUMPI PUSH1 0x1 ADD SWAP1 JUMP JUMPDEST PUSH4 0x4E487B71 PUSH1 0xE0 SHL PUSH1 0x0 MSTORE PUSH1 0x11 PUSH1 0x4 MSTORE PUSH1 0x24 PUSH1 0x0 REVERT JUMPDEST SWAP2 SWAP1 DUP3 ADD DUP1 SWAP3 GT PUSH2 0x2027 JUMPI JUMP JUMPDEST PUSH1 0x1 PUSH1 0x1 PUSH1 0xA0 SHL SUB PUSH32 0x0 DUP2 AND SWAP3 SWAP1 SWAP2 PUSH1 0x0 SWAP2 PUSH2 0x2086 DUP6 ISZERO ISZERO PUSH2 0x1E4A JUMP JUMPDEST PUSH2 0x2091 CALLVALUE ISZERO ISZERO PUSH2 0x1EEC JUMP JUMPDEST PUSH2 0x209C DUP3 ISZERO ISZERO PUSH2 0x1F2B JUMP JUMPDEST PUSH2 0x20A7 DUP2 ISZERO ISZERO PUSH2 0x1F81 JUMP JUMPDEST PUSH1 0x5 SWAP2 DUP3 SLOAD ISZERO PUSH2 0x22E6 JUMPI SWAP1 PUSH2 0x20BB SWAP2 PUSH2 0x2523 JUMP JUMPDEST SWAP1 PUSH2 0x20C8 CALLVALUE PUSH1 0x4 SLOAD PUSH2 0x203D JUMP JUMPDEST PUSH1 0x4 SSTORE PUSH2 0x20D7 CALLVALUE PUSH1 0x6 SLOAD PUSH2 0x203D JUMP JUMPDEST PUSH1 0x6 SSTORE CALLER DUP4 MSTORE PUSH1 0x20 SWAP2 PUSH1 0xD DUP4 MSTORE PUSH1 0x40 SWAP5 PUSH1 0xFF DUP7 DUP7 KECCAK256 SLOAD AND PUSH1 0x0 EQ PUSH2 0x22D9 JUMPI PUSH3 0xFFFFFF DUP6 JUMPDEST AND SWAP7 DUP8 PUSH2 0x21D2 JUMPI JUMPDEST POP PUSH2 0x21AA SWAP4 DUP7 SWAP6 SWAP3 SWAP4 DUP7 SWAP5 PUSH1 0x8 SWAP4 PUSH1 0x0 DUP1 MLOAD PUSH1 0x20 PUSH2 0x33E0 DUP4 CODECOPY DUP2 MLOAD SWAP2 MSTORE SWAP10 MLOAD SWAP3 PUSH2 0x212C DUP5 PUSH2 0x1C8B JUMP JUMPDEST CALLVALUE DUP5 MSTORE DUP5 DUP5 ADD SWAP4 TIMESTAMP DUP6 MSTORE DUP9 DUP2 ADD SWAP4 DUP5 MSTORE PUSH1 0x60 DUP2 ADD DUP14 DUP2 MSTORE PUSH1 0x80 DUP3 ADD SWAP5 CALLER DUP7 MSTORE PUSH1 0xA0 DUP4 ADD SWAP7 ADDRESS DUP9 MSTORE PUSH1 0x9 SLOAD DUP12 MSTORE PUSH1 0x7 DUP10 MSTORE DUP12 DUP12 KECCAK256 SWAP4 MLOAD DUP5 SSTORE MLOAD PUSH1 0x1 DUP5 ADD SSTORE MLOAD PUSH1 0x2 DUP4 ADD SSTORE MLOAD PUSH1 0x3 DUP3 ADD SSTORE DUP3 PUSH1 0x4 DUP3 ADD SWAP5 MLOAD AND SWAP4 PUSH1 0x1 PUSH1 0x1 PUSH1 0x60 SHL SUB PUSH1 0xA0 SHL SWAP5 DUP6 DUP3 SLOAD AND OR SWAP1 SSTORE ADD SWAP3 MLOAD AND SWAP1 DUP3 SLOAD AND OR SWAP1 SSTORE CALLER DUP4 MSTORE MSTORE KECCAK256 PUSH1 0x9 SLOAD SWAP1 PUSH2 0x1FDE JUMP JUMPDEST PUSH2 0x21B5 PUSH1 0x9 SLOAD PUSH2 0x2018 JUMP JUMPDEST PUSH1 0x9 SSTORE MLOAD CALLVALUE DUP2 MSTORE PUSH1 0x20 DUP2 ADD SWAP3 SWAP1 SWAP3 MSTORE TIMESTAMP PUSH1 0x40 DUP4 ADD MSTORE CALLER SWAP2 PUSH1 0x60 SWAP1 LOG2 JUMP JUMPDEST DUP8 PUSH1 0x7 SIGNEXTEND SWAP1 DUP8 MLOAD DUP3 DUP2 MSTORE DUP2 PUSH1 0x0 DUP1 MLOAD PUSH1 0x20 PUSH2 0x33A0 DUP4 CODECOPY DUP2 MLOAD SWAP2 MSTORE DUP9 CALLER SWAP4 LOG3 DUP3 PUSH32 0x0 AND DUP1 EXTCODESIZE ISZERO PUSH2 0xB7D JUMPI DUP9 MLOAD PUSH4 0xBB81C875 PUSH1 0xE0 SHL DUP2 MSTORE CALLER PUSH1 0x4 DUP3 ADD MSTORE PUSH1 0x24 DUP2 ADD DUP12 SWAP1 MSTORE SWAP1 DUP9 SWAP1 DUP3 SWAP1 PUSH1 0x44 SWAP1 DUP3 SWAP1 DUP5 SWAP1 GAS CALL DUP1 ISZERO PUSH2 0x22CF JUMPI PUSH2 0x22B7 JUMPI JUMPDEST POP SWAP4 DUP8 SWAP7 SWAP4 PUSH1 0x8 SWAP4 PUSH2 0x21AA SWAP8 SWAP4 PUSH1 0x0 DUP1 MLOAD PUSH1 0x20 PUSH2 0x33E0 DUP4 CODECOPY DUP2 MLOAD SWAP2 MSTORE SWAP11 SWAP8 CALLER DUP9 MSTORE PUSH1 0xD DUP7 MSTORE DUP9 DUP9 KECCAK256 PUSH1 0x1 PUSH1 0xFF NOT DUP3 SLOAD AND OR SWAP1 SSTORE PUSH2 0x228A DUP14 DUP7 SLOAD PUSH2 0x203D JUMP JUMPDEST DUP6 SSTORE DUP9 MLOAD SWAP2 DUP3 MSTORE DUP8 DUP7 DUP4 ADD MSTORE PUSH1 0x0 DUP1 MLOAD PUSH1 0x20 PUSH2 0x33C0 DUP4 CODECOPY DUP2 MLOAD SWAP2 MSTORE DUP10 CALLER SWAP4 LOG3 SWAP4 POP SWAP4 SWAP7 POP SWAP4 SWAP7 POP SWAP4 PUSH2 0x2103 JUMP JUMPDEST PUSH2 0x22C1 DUP9 SWAP2 PUSH2 0x1CBC JUMP JUMPDEST PUSH2 0x22CB JUMPI CODESIZE PUSH2 0x224C JUMP JUMPDEST DUP7 DUP1 REVERT JUMPDEST DUP10 MLOAD RETURNDATASIZE DUP11 DUP3 RETURNDATACOPY RETURNDATASIZE SWAP1 REVERT JUMPDEST PUSH3 0xFFFFFF PUSH3 0xF4240 PUSH2 0x20FB JUMP JUMPDEST SWAP4 SWAP2 SWAP1 SWAP2 CALLVALUE PUSH1 0x4 SSTORE CALLVALUE PUSH1 0x6 SSTORE CALLER DUP5 MSTORE PUSH1 0x20 SWAP3 PUSH1 0xD DUP5 MSTORE PUSH1 0x40 SWAP6 PUSH1 0xFF DUP8 DUP8 KECCAK256 SLOAD AND PUSH1 0x0 EQ PUSH2 0x245C JUMPI PUSH3 0xFFFFFF DUP7 JUMPDEST AND SWAP8 DUP9 ISZERO PUSH2 0x2433 JUMPI DUP9 PUSH1 0x7 SIGNEXTEND SWAP1 DUP9 MLOAD DUP3 DUP2 MSTORE DUP2 PUSH1 0x0 DUP1 MLOAD PUSH1 0x20 PUSH2 0x33A0 DUP4 CODECOPY DUP2 MLOAD SWAP2 MSTORE DUP10 CALLER SWAP4 LOG3 DUP5 PUSH32 0x0 AND DUP1 EXTCODESIZE ISZERO PUSH2 0x242F JUMPI DUP10 MLOAD PUSH4 0xBB81C875 PUSH1 0xE0 SHL DUP2 MSTORE CALLER PUSH1 0x4 DUP3 ADD MSTORE PUSH1 0x24 DUP2 ADD DUP13 SWAP1 MSTORE SWAP1 DUP10 SWAP1 DUP3 SWAP1 PUSH1 0x44 SWAP1 DUP3 SWAP1 DUP5 SWAP1 GAS CALL DUP1 ISZERO PUSH2 0x2425 JUMPI SWAP4 DUP11 SWAP10 SWAP6 SWAP2 SWAP4 DUP13 SWAP8 SWAP4 PUSH1 0x0 DUP1 MLOAD PUSH1 0x20 PUSH2 0x33E0 DUP4 CODECOPY DUP2 MLOAD SWAP2 MSTORE SWAP13 SWAP10 SWAP6 PUSH2 0x21AA SWAP12 SWAP8 PUSH2 0x2407 JUMPI JUMPDEST POP SWAP1 PUSH2 0x23FA SWAP4 SWAP3 SWAP2 PUSH1 0x8 SWAP9 SWAP10 CALLER DUP12 MSTORE PUSH1 0xD DUP10 MSTORE DUP12 DUP12 KECCAK256 PUSH1 0x1 PUSH1 0xFF NOT DUP3 SLOAD AND OR SWAP1 SSTORE DUP8 SSTORE DUP11 MLOAD SWAP2 DUP3 MSTORE DUP10 DUP9 DUP4 ADD MSTORE PUSH1 0x0 DUP1 MLOAD PUSH1 0x20 PUSH2 0x33C0 DUP4 CODECOPY DUP2 MLOAD SWAP2 MSTORE DUP12 CALLER SWAP4 LOG3 PUSH2 0x2523 JUMP JUMPDEST SWAP1 DUP7 MLOAD SWAP3 PUSH2 0x212C DUP5 PUSH2 0x1C8B JUMP JUMPDEST SWAP1 PUSH1 0x8 SWAP9 PUSH2 0x241A PUSH2 0x23FA SWAP7 SWAP6 SWAP5 SWAP4 PUSH2 0x1CBC JUMP JUMPDEST SWAP9 POP SWAP1 SWAP2 SWAP3 SWAP4 PUSH2 0x23B5 JUMP JUMPDEST DUP11 MLOAD RETURNDATASIZE DUP12 DUP3 RETURNDATACOPY RETURNDATASIZE SWAP1 REVERT JUMPDEST DUP9 DUP1 REVERT JUMPDEST POP SWAP4 DUP4 DUP8 SWAP7 SWAP4 PUSH2 0x23FA PUSH1 0x8 SWAP5 PUSH2 0x21AA SWAP9 PUSH1 0x1 PUSH1 0x0 DUP1 MLOAD PUSH1 0x20 PUSH2 0x33E0 DUP4 CODECOPY DUP2 MLOAD SWAP2 MSTORE SWAP13 SWAP10 SSTORE PUSH2 0x2523 JUMP JUMPDEST PUSH3 0xFFFFFF PUSH3 0xF4240 PUSH2 0x2313 JUMP JUMPDEST ISZERO PUSH2 0x2470 JUMPI JUMP JUMPDEST PUSH1 0x40 MLOAD PUSH3 0x461BCD PUSH1 0xE5 SHL DUP2 MSTORE PUSH1 0x20 PUSH1 0x4 DUP3 ADD MSTORE PUSH1 0x11 PUSH1 0x24 DUP3 ADD MSTORE PUSH17 0x14DB1A5C1C1859D948195E18D959591959 PUSH1 0x7A SHL PUSH1 0x44 DUP3 ADD MSTORE PUSH1 0x64 SWAP1 REVERT JUMPDEST DUP2 DUP2 MUL SWAP3 SWAP2 DUP2 ISZERO SWAP2 DUP5 DIV EQ OR ISZERO PUSH2 0x2027 JUMPI JUMP JUMPDEST SWAP2 SWAP1 DUP3 SUB SWAP2 DUP3 GT PUSH2 0x2027 JUMPI JUMP JUMPDEST RETURNDATASIZE ISZERO PUSH2 0x24F4 JUMPI RETURNDATASIZE SWAP1 PUSH2 0x24DA DUP3 PUSH2 0x1D77 JUMP JUMPDEST SWAP2 PUSH2 0x24E8 PUSH1 0x40 MLOAD SWAP4 DUP5 PUSH2 0x1D56 JUMP JUMPDEST DUP3 MSTORE RETURNDATASIZE PUSH1 0x0 PUSH1 0x20 DUP5 ADD RETURNDATACOPY JUMP JUMPDEST PUSH1 0x60 SWAP1 JUMP JUMPDEST PUSH1 0x5 SLOAD SWAP1 DUP2 ISZERO PUSH2 0x251C JUMPI PUSH2 0x2519 SWAP2 PUSH2 0x2510 SWAP2 PUSH2 0x24A9 JUMP JUMPDEST PUSH1 0x4 SLOAD SWAP1 PUSH2 0x1E8B JUMP JUMPDEST SWAP1 JUMP JUMPDEST POP POP PUSH1 0x0 SWAP1 JUMP JUMPDEST SWAP1 DUP2 ISZERO PUSH2 0x2530 DUP2 ISZERO PUSH2 0x1F2B JUMP JUMPDEST PUSH2 0x253B DUP3 ISZERO ISZERO PUSH2 0x1F81 JUMP JUMPDEST PUSH3 0xF4240 DUP1 DUP5 MUL SWAP4 DUP5 DIV EQ OR ISZERO PUSH2 0x2027 JUMPI PUSH2 0x2519 SWAP2 PUSH2 0x1E8B JUMP JUMPDEST PUSH1 0x5 SLOAD DUP1 ISZERO PUSH2 0x251C JUMPI PUSH2 0x99A PUSH2 0x2519 SWAP3 PUSH1 0x4 SLOAD SWAP1 PUSH2 0x24A9 JUMP JUMPDEST PUSH32 0x0 PUSH1 0x1 PUSH1 0x1 PUSH1 0xA0 SHL SUB AND ISZERO PUSH2 0x25E2 JUMPI PUSH1 0x5 SLOAD PUSH1 0x0 SWAP2 DUP2 ISZERO PUSH2 0x25D7 JUMPI PUSH2 0x25B9 DUP3 PUSH2 0x99A PUSH1 0x4 SLOAD DUP7 PUSH2 0x24A9 JUMP JUMPDEST SWAP2 PUSH2 0x2710 SWAP1 DUP2 DUP6 MUL SWAP2 DUP6 DUP4 DIV EQ DUP6 ISZERO OR ISZERO PUSH2 0x2027 JUMPI PUSH2 0x2519 SWAP2 PUSH2 0x1E8B JUMP JUMPDEST PUSH1 0x0 SWAP3 POP DUP3 SWAP2 POP DUP2 SWAP1 JUMP JUMPDEST PUSH1 0x0 SWAP1 PUSH1 0x0 SWAP1 PUSH1 0x0 SWAP1 JUMP JUMPDEST PUSH1 0x5 SLOAD DUP1 ISZERO PUSH2 0x2605 JUMPI PUSH2 0x2519 SWAP1 PUSH1 0x64 PUSH1 0x6 SLOAD DIV PUSH2 0x1E8B JUMP JUMPDEST POP PUSH1 0x0 SWAP1 JUMP JUMPDEST PUSH32 0x0 PUSH1 0x1 PUSH1 0x1 PUSH1 0xA0 SHL SUB AND ISZERO DUP1 ISZERO PUSH2 0x265F JUMPI JUMPDEST PUSH2 0x265A JUMPI PUSH1 0x6 SLOAD ISZERO PUSH1 0x1 OR ISZERO PUSH2 0x2027 JUMPI PUSH1 0x5 SLOAD ISZERO PUSH2 0x1E95 JUMPI PUSH1 0x0 SWAP1 JUMP JUMPDEST PUSH1 0x0 SWAP1 JUMP JUMPDEST POP PUSH1 0x5 SLOAD ISZERO PUSH2 0x263D JUMP JUMPDEST DUP1 PUSH1 0x3 SIGNEXTEND SWAP1 PUSH1 0x16 DUP3 EQ PUSH2 0x3171 JUMPI PUSH1 0x9 DUP3 EQ PUSH2 0x311C JUMPI PUSH1 0xA DUP3 EQ PUSH2 0x30BB JUMPI PUSH1 0x7 DUP3 EQ PUSH2 0x3063 JUMPI PUSH1 0xF DUP3 EQ PUSH2 0x3002 JUMPI PUSH1 0x10 DUP3 EQ PUSH2 0x2FA1 JUMPI PUSH1 0x1E DUP3 EQ PUSH2 0x2F53 JUMPI PUSH1 0x22 DUP3 EQ PUSH2 0x2EF2 JUMPI PUSH1 0x6F DUP3 EQ PUSH2 0x2EA3 JUMPI PUSH1 0xAA DUP3 EQ PUSH2 0x2E42 JUMPI PUSH1 0xAB DUP3 EQ PUSH2 0x2DF0 JUMPI PUSH1 0xAE DUP3 EQ PUSH2 0x2D9C JUMPI PUSH1 0xAF DUP3 EQ PUSH2 0x2D3B JUMPI PUSH1 0xBE DUP3 EQ PUSH2 0x2CEB JUMPI PUSH1 0xBF DUP3 EQ PUSH2 0x2C92 JUMPI PUSH1 0xA8 DUP3 EQ PUSH2 0x2C31 JUMPI PUSH1 0xA9 DUP3 EQ PUSH2 0x2BD0 JUMPI PUSH1 0xBD DUP3 EQ PUSH2 0x2B82 JUMPI PUSH1 0x9B DUP3 EQ PUSH2 0x2B36 JUMPI PUSH1 0x1A DUP3 EQ PUSH2 0x2AEC JUMPI PUSH1 0x1B DUP3 EQ PUSH2 0x2AA2 JUMPI PUSH1 0x26 DUP3 EQ PUSH2 0x2A49 JUMPI PUSH1 0x40 SWAP2 DUP3 DUP2 EQ PUSH2 0x29F2 JUMPI PUSH1 0x41 DUP2 EQ PUSH2 0x2986 JUMPI PUSH2 0x117 DUP2 EQ PUSH2 0x292E JUMPI PUSH2 0x145 DUP2 EQ PUSH2 0x28CF JUMPI PUSH2 0x146 DUP2 EQ PUSH2 0x2870 JUMPI PUSH2 0x147 DUP2 EQ PUSH2 0x2807 JUMPI PUSH2 0x148 EQ PUSH2 0x27B3 JUMPI PUSH1 0x33 PUSH2 0x2770 PUSH4 0xFFFFFFFF PUSH2 0x2519 SWAP4 AND PUSH2 0x3196 JUMP JUMPDEST SWAP3 MLOAD DUP1 SWAP4 PUSH19 0x554E4B4E4F574E5F4552524F525F434F44455F PUSH1 0x68 SHL PUSH1 0x20 DUP4 ADD MSTORE PUSH2 0x27A3 DUP2 MLOAD DUP1 SWAP3 PUSH1 0x20 DUP7 DUP7 ADD SWAP2 ADD PUSH2 0x1D92 JUMP JUMPDEST DUP2 ADD SUB PUSH1 0x13 DUP2 ADD DUP5 MSTORE ADD DUP3 PUSH2 0x1D56 JUMP JUMPDEST POP PUSH19 0x206D616E79206368696C64207265636F726473 PUSH1 0x68 SHL DUP2 MLOAD SWAP2 PUSH2 0x27D7 DUP4 PUSH2 0x1D20 JUMP JUMPDEST PUSH1 0x33 DUP4 MSTORE PUSH32 0x4D41585F4348494C445F5245434F5244535F4558434545444544202D20546F6F PUSH1 0x20 DUP5 ADD MSTORE DUP3 ADD MSTORE SWAP1 JUMP JUMPDEST POP POP PUSH32 0x6666696369656E742062616C616E636520666F722073746F726167652072656E DUP2 MLOAD SWAP2 PUSH2 0x2836 DUP4 PUSH2 0x1D3B JUMP JUMPDEST PUSH1 0x41 DUP4 MSTORE PUSH32 0x494E53554646494349454E545F53544F524147455F52454E54202D20496E7375 PUSH1 0x20 DUP5 ADD MSTORE DUP3 ADD MSTORE PUSH1 0x1D PUSH1 0xFA SHL PUSH1 0x60 DUP3 ADD MSTORE SWAP1 JUMP JUMPDEST POP POP PUSH32 0x6E76616C6964207369676E617475726520666F7220707265636F6D70696C6500 DUP2 MLOAD SWAP2 PUSH2 0x289F DUP4 PUSH2 0x1D20 JUMP JUMPDEST PUSH1 0x3F DUP4 MSTORE PUSH32 0x494E56414C49445F505245434F4D50494C455F5349474E4154555245202D2049 PUSH1 0x20 DUP5 ADD MSTORE DUP3 ADD MSTORE SWAP1 JUMP JUMPDEST POP POP PUSH32 0x6E74697469657320696E20707269636520726567696D65207265616368656400 DUP2 MLOAD SWAP2 PUSH2 0x28FE DUP4 PUSH2 0x1D20 JUMP JUMPDEST PUSH1 0x3F DUP4 MSTORE PUSH32 0x4D41585F454E5449544945535F43524541544544202D204D6178696D756D2065 PUSH1 0x20 DUP5 ADD MSTORE DUP3 ADD MSTORE SWAP1 JUMP JUMPDEST POP POP PUSH22 0x1CDD5CC81B9BD9194819D85CC8195E1A185D5CDD1959 PUSH1 0x52 SHL DUP2 MLOAD SWAP2 PUSH2 0x2956 DUP4 PUSH2 0x1D20 JUMP JUMPDEST PUSH1 0x36 DUP4 MSTORE PUSH32 0x434F4E53454E5355535F4741535F455848415553544544202D20436F6E73656E PUSH1 0x20 DUP5 ADD MSTORE DUP3 ADD MSTORE SWAP1 JUMP JUMPDEST POP POP PUSH32 0x616E73616374696F6E2068617320746F6F206D616E79206E6573746564206C61 DUP2 MLOAD SWAP2 PUSH2 0x29B5 DUP4 PUSH2 0x1D3B JUMP JUMPDEST PUSH1 0x44 DUP4 MSTORE PUSH32 0x5452414E53414354494F4E5F544F4F5F4D414E595F4C4159455253202D205472 PUSH1 0x20 DUP5 ADD MSTORE DUP3 ADD MSTORE PUSH4 0x79657273 PUSH1 0xE0 SHL PUSH1 0x60 DUP3 ADD MSTORE SWAP1 JUMP JUMPDEST POP POP PUSH21 0x1BDB88195E18D959591CC81CDA5E99481B1A5B5A5D PUSH1 0x5A SHL DUP2 MLOAD SWAP2 PUSH2 0x2A19 DUP4 PUSH2 0x1D20 JUMP JUMPDEST PUSH1 0x35 DUP4 MSTORE PUSH32 0x5452414E53414354494F4E5F4F56455253495A45202D205472616E7361637469 PUSH1 0x20 DUP5 ADD MSTORE DUP3 ADD MSTORE SWAP1 JUMP JUMPDEST POP POP PUSH1 0x40 MLOAD PUSH2 0x2A57 DUP2 PUSH2 0x1D20 JUMP JUMPDEST PUSH1 0x35 DUP2 MSTORE PUSH32 0x494E56414C49445F4B45595F454E434F44494E47202D204B657920656E636F64 PUSH1 0x20 DUP3 ADD MSTORE PUSH21 0x1A5B99C8199BDC9B585D081A5CC81A5B9D985B1A59 PUSH1 0x5A SHL PUSH1 0x40 DUP3 ADD MSTORE SWAP1 JUMP JUMPDEST POP POP PUSH1 0x40 MLOAD PUSH2 0x2AB0 DUP2 PUSH2 0x1D20 JUMP JUMPDEST PUSH1 0x26 DUP2 MSTORE PUSH32 0x4241445F454E434F44494E47202D204B657920656E636F64696E672069732069 PUSH1 0x20 DUP3 ADD MSTORE PUSH6 0x1B9D985B1A59 PUSH1 0xD2 SHL PUSH1 0x40 DUP3 ADD MSTORE SWAP1 JUMP JUMPDEST POP POP PUSH1 0x40 MLOAD PUSH2 0x2AFA DUP2 PUSH2 0x1D20 JUMP JUMPDEST PUSH1 0x26 DUP2 MSTORE PUSH32 0x4B45595F5245515549524544202D205265717569726564206B6579206973206D PUSH1 0x20 DUP3 ADD MSTORE PUSH6 0x697373696E67 PUSH1 0xD0 SHL PUSH1 0x40 DUP3 ADD MSTORE SWAP1 JUMP JUMPDEST POP POP PUSH1 0x40 MLOAD PUSH2 0x2B44 DUP2 PUSH2 0x1D20 JUMP JUMPDEST PUSH1 0x28 DUP2 MSTORE PUSH32 0x494E56414C49445F41444D494E5F4B4559202D2041646D696E206B6579206973 PUSH1 0x20 DUP3 ADD MSTORE PUSH8 0x81A5B9D985B1A59 PUSH1 0xC2 SHL PUSH1 0x40 DUP3 ADD MSTORE SWAP1 JUMP JUMPDEST POP POP PUSH1 0x40 MLOAD PUSH2 0x2B90 DUP2 PUSH2 0x1D20 JUMP JUMPDEST PUSH1 0x2A DUP2 MSTORE PUSH32 0x494E56414C49445F535550504C595F4B4559202D20537570706C79206B657920 PUSH1 0x20 DUP3 ADD MSTORE PUSH10 0x1A5CC81A5B9D985B1A59 PUSH1 0xB2 SHL PUSH1 0x40 DUP3 ADD MSTORE SWAP1 JUMP JUMPDEST POP POP PUSH1 0x40 MLOAD PUSH2 0x2BDE DUP2 PUSH2 0x1D20 JUMP JUMPDEST PUSH1 0x3E DUP2 MSTORE PUSH32 0x494E56414C49445F544F4B454E5F494E495449414C5F535550504C59202D2049 PUSH1 0x20 DUP3 ADD MSTORE PUSH32 0x6E697469616C20737570706C792076616C756520697320696E76616C69640000 PUSH1 0x40 DUP3 ADD MSTORE SWAP1 JUMP JUMPDEST POP POP PUSH1 0x40 MLOAD PUSH2 0x2C3F DUP2 PUSH2 0x1D20 JUMP JUMPDEST PUSH1 0x38 DUP2 MSTORE PUSH32 0x494E56414C49445F544F4B454E5F444543494D414C53202D20546F6B656E2064 PUSH1 0x20 DUP3 ADD MSTORE PUSH32 0x6563696D616C732076616C756520697320696E76616C69640000000000000000 PUSH1 0x40 DUP3 ADD MSTORE SWAP1 JUMP JUMPDEST POP POP PUSH1 0x40 MLOAD PUSH2 0x2CA0 DUP2 PUSH2 0x1D20 JUMP JUMPDEST PUSH1 0x35 DUP2 MSTORE PUSH32 0x544F4B454E5F4E414D455F544F4F5F4C4F4E47202D20546F6B656E206E616D65 PUSH1 0x20 DUP3 ADD MSTORE PUSH21 0x8195E18D959591CC81B195B99DD1A081B1A5B5A5D PUSH1 0x5A SHL PUSH1 0x40 DUP3 ADD MSTORE SWAP1 JUMP JUMPDEST POP POP PUSH1 0x40 MLOAD PUSH2 0x2CF9 DUP2 PUSH2 0x1D20 JUMP JUMPDEST PUSH1 0x2C DUP2 MSTORE PUSH32 0x4D495353494E475F544F4B454E5F4E414D45202D20546F6B656E206E616D6520 PUSH1 0x20 DUP3 ADD MSTORE PUSH12 0x1B9BDD081C1C9BDD9A591959 PUSH1 0xA2 SHL PUSH1 0x40 DUP3 ADD MSTORE SWAP1 JUMP JUMPDEST POP POP PUSH1 0x40 MLOAD PUSH2 0x2D49 DUP2 PUSH2 0x1D20 JUMP JUMPDEST PUSH1 0x39 DUP2 MSTORE PUSH32 0x544F4B454E5F53594D424F4C5F544F4F5F4C4F4E47202D20546F6B656E207379 PUSH1 0x20 DUP3 ADD MSTORE PUSH32 0x6D626F6C2065786365656473206C656E677468206C696D697400000000000000 PUSH1 0x40 DUP3 ADD MSTORE SWAP1 JUMP JUMPDEST POP POP PUSH1 0x40 MLOAD PUSH2 0x2DAA DUP2 PUSH2 0x1D20 JUMP JUMPDEST PUSH1 0x30 DUP2 MSTORE PUSH32 0x4D495353494E475F544F4B454E5F53594D424F4C202D20546F6B656E2073796D PUSH1 0x20 DUP3 ADD MSTORE PUSH16 0x189BDB081B9BDD081C1C9BDD9A591959 PUSH1 0x82 SHL PUSH1 0x40 DUP3 ADD MSTORE SWAP1 JUMP JUMPDEST POP POP PUSH1 0x40 MLOAD PUSH2 0x2DFE DUP2 PUSH2 0x1D20 JUMP JUMPDEST PUSH1 0x2E DUP2 MSTORE PUSH32 0x494E56414C49445F544F4B454E5F53594D424F4C202D20546F6B656E2073796D PUSH1 0x20 DUP3 ADD MSTORE PUSH14 0x189BDB081A5CC81A5B9D985B1A59 PUSH1 0x92 SHL PUSH1 0x40 DUP3 ADD MSTORE SWAP1 JUMP JUMPDEST POP POP PUSH1 0x40 MLOAD PUSH2 0x2E50 DUP2 PUSH2 0x1D20 JUMP JUMPDEST PUSH1 0x3D DUP2 MSTORE PUSH32 0x494E56414C49445F54524541535552595F4143434F554E545F464F525F544F4B PUSH1 0x20 DUP3 ADD MSTORE PUSH32 0x454E202D205472656173757279206163636F756E7420696E76616C6964000000 PUSH1 0x40 DUP3 ADD MSTORE SWAP1 JUMP JUMPDEST POP POP PUSH1 0x40 MLOAD PUSH2 0x2EB1 DUP2 PUSH2 0x1D20 JUMP JUMPDEST PUSH1 0x2B DUP2 MSTORE PUSH32 0x4D41585F4741535F4C494D49545F4558434545444544202D20476173206C696D PUSH1 0x20 DUP3 ADD MSTORE PUSH11 0x1A5D08195E18D959591959 PUSH1 0xAA SHL PUSH1 0x40 DUP3 ADD MSTORE SWAP1 JUMP JUMPDEST POP POP PUSH1 0x40 MLOAD PUSH2 0x2F00 DUP2 PUSH2 0x1D20 JUMP JUMPDEST PUSH1 0x38 DUP2 MSTORE PUSH32 0x434F4E54524143545F455845435554494F4E5F455843455054494F4E202D2043 PUSH1 0x20 DUP3 ADD MSTORE PUSH32 0x6F6E747261637420657865637574696F6E206661696C65640000000000000000 PUSH1 0x40 DUP3 ADD MSTORE SWAP1 JUMP JUMPDEST POP POP PUSH1 0x40 MLOAD PUSH2 0x2F61 DUP2 PUSH2 0x1D20 JUMP JUMPDEST PUSH1 0x2A DUP2 MSTORE PUSH32 0x494E53554646494349454E545F474153202D204E6F7420656E6F756768206761 PUSH1 0x20 DUP3 ADD MSTORE PUSH10 0x1CC81CDD5C1C1B1A5959 PUSH1 0xB2 SHL PUSH1 0x40 DUP3 ADD MSTORE SWAP1 JUMP JUMPDEST POP POP PUSH1 0x40 MLOAD PUSH2 0x2FAF DUP2 PUSH2 0x1D20 JUMP JUMPDEST PUSH1 0x3E DUP2 MSTORE PUSH32 0x494E56414C49445F434F4E54524143545F4944202D20436F6E74726163742049 PUSH1 0x20 DUP3 ADD MSTORE PUSH32 0x4420697320696E76616C6964206F7220646F6573206E6F742065786973740000 PUSH1 0x40 DUP3 ADD MSTORE SWAP1 JUMP JUMPDEST POP POP PUSH1 0x40 MLOAD PUSH2 0x3010 DUP2 PUSH2 0x1D20 JUMP JUMPDEST PUSH1 0x3C DUP2 MSTORE PUSH32 0x494E56414C49445F4143434F554E545F4944202D204163636F756E7420494420 PUSH1 0x20 DUP3 ADD MSTORE PUSH32 0x697320696E76616C6964206F7220646F6573206E6F7420657869737400000000 PUSH1 0x40 DUP3 ADD MSTORE SWAP1 JUMP JUMPDEST POP POP PUSH1 0x40 MLOAD PUSH2 0x3071 DUP2 PUSH2 0x1D20 JUMP JUMPDEST PUSH1 0x34 DUP2 MSTORE PUSH32 0x494E56414C49445F5349474E4154555245202D205472616E73616374696F6E20 PUSH1 0x20 DUP3 ADD MSTORE PUSH20 0x1CDA59DB985D1D5C99481A5CC81A5B9D985B1A59 PUSH1 0x62 SHL PUSH1 0x40 DUP3 ADD MSTORE SWAP1 JUMP JUMPDEST POP POP PUSH1 0x40 MLOAD PUSH2 0x30C9 DUP2 PUSH2 0x1D20 JUMP JUMPDEST PUSH1 0x40 DUP2 MSTORE PUSH32 0x494E53554646494349454E545F50415945525F42414C414E4345202D20506179 PUSH1 0x20 DUP3 ADD MSTORE PUSH32 0x6572206163636F756E742068617320696E73756666696369656E742048424152 PUSH1 0x40 DUP3 ADD MSTORE SWAP1 JUMP JUMPDEST POP POP PUSH1 0x40 MLOAD PUSH2 0x312A DUP2 PUSH2 0x1D20 JUMP JUMPDEST PUSH1 0x31 DUP2 MSTORE PUSH32 0x494E53554646494349454E545F54585F464545202D204E6F7420656E6F756768 PUSH1 0x20 DUP3 ADD MSTORE PUSH17 0x819D85CCBD99959481C1C9BDD9A591959 PUSH1 0x7A SHL PUSH1 0x40 DUP3 ADD MSTORE SWAP1 JUMP JUMPDEST POP POP PUSH1 0x40 MLOAD PUSH2 0x317F DUP2 PUSH2 0x1D05 JUMP JUMPDEST PUSH1 0x7 DUP2 MSTORE PUSH7 0x53554343455353 PUSH1 0xC8 SHL PUSH1 0x20 DUP3 ADD MSTORE SWAP1 JUMP JUMPDEST DUP1 ISZERO PUSH2 0x3258 JUMPI DUP1 DUP2 PUSH1 0x0 SWAP3 JUMPDEST PUSH2 0x3244 JUMPI POP PUSH2 0x31B0 DUP3 PUSH2 0x1D77 JUMP JUMPDEST SWAP2 PUSH2 0x31BE PUSH1 0x40 MLOAD SWAP4 DUP5 PUSH2 0x1D56 JUMP JUMPDEST DUP1 DUP4 MSTORE DUP2 PUSH1 0x1F NOT PUSH2 0x31CE DUP4 PUSH2 0x1D77 JUMP JUMPDEST ADD SWAP2 PUSH1 0x20 SWAP3 CALLDATASIZE DUP5 DUP8 ADD CALLDATACOPY SWAP3 JUMPDEST PUSH2 0x31E4 JUMPI POP POP POP SWAP1 JUMP JUMPDEST PUSH1 0x0 NOT DUP4 ADD SWAP3 DUP4 GT PUSH2 0x2027 JUMPI DUP3 PUSH1 0xA DUP1 DUP4 DIV SWAP3 DUP2 DUP5 MUL SWAP2 DUP5 DUP4 DIV EQ DUP5 ISZERO OR ISZERO PUSH2 0x2027 JUMPI PUSH2 0x3214 PUSH1 0xFF SWAP3 DUP4 SWAP3 PUSH2 0x24BC JUMP JUMPDEST AND PUSH1 0x30 ADD SWAP1 DUP2 GT PUSH2 0x2027 JUMPI DUP6 MLOAD DUP3 LT ISZERO PUSH2 0x1DF2 JUMPI PUSH1 0xF8 SHL PUSH1 0x1 PUSH1 0x1 PUSH1 0xF8 SHL SUB NOT AND PUSH1 0x0 BYTE SWAP1 DUP6 ADD DUP4 ADD MSTORE8 DUP1 PUSH2 0x31DA JUMP JUMPDEST SWAP2 PUSH2 0x3250 PUSH1 0xA SWAP2 PUSH2 0x2018 JUMP JUMPDEST SWAP3 DIV DUP1 PUSH2 0x31A2 JUMP JUMPDEST POP PUSH1 0x40 MLOAD PUSH2 0x3265 DUP2 PUSH2 0x1D05 JUMP JUMPDEST PUSH1 0x1 DUP2 MSTORE PUSH1 0x3 PUSH1 0xFC SHL PUSH1 0x20 DUP3 ADD MSTORE SWAP1 JUMP JUMPDEST PUSH1 0xFF PUSH1 0x2 SLOAD AND ISZERO PUSH2 0x3283 JUMPI JUMP JUMPDEST PUSH1 0x40 MLOAD PUSH4 0x8DFC202B PUSH1 0xE0 SHL DUP2 MSTORE PUSH1 0x4 SWAP1 REVERT JUMPDEST ISZERO PUSH2 0x329C JUMPI JUMP JUMPDEST PUSH1 0x40 MLOAD PUSH3 0x461BCD PUSH1 0xE5 SHL DUP2 MSTORE PUSH1 0x20 PUSH1 0x4 DUP3 ADD MSTORE PUSH1 0x13 PUSH1 0x24 DUP3 ADD MSTORE PUSH19 0x4E6F204842415220746F207769746864726177 PUSH1 0x68 SHL PUSH1 0x44 DUP3 ADD MSTORE PUSH1 0x64 SWAP1 REVERT JUMPDEST ISZERO PUSH2 0x32DE JUMPI JUMP JUMPDEST PUSH1 0x40 MLOAD PUSH3 0x461BCD PUSH1 0xE5 SHL DUP2 MSTORE PUSH1 0x20 PUSH1 0x4 DUP3 ADD MSTORE PUSH1 0xF PUSH1 0x24 DUP3 ADD MSTORE PUSH15 0x125B9D985B1A59081190D114881251 PUSH1 0x8A SHL PUSH1 0x44 DUP3 ADD MSTORE PUSH1 0x64 SWAP1 REVERT JUMPDEST SWAP1 DUP2 PUSH1 0x20 SWAP2 SUB SLT PUSH2 0x1C0A JUMPI MLOAD DUP1 PUSH1 0x3 SIGNEXTEND DUP2 SUB PUSH2 0x1C0A JUMPI SWAP1 JUMP JUMPDEST PUSH1 0x0 SWAP2 DUP3 SWAP2 PUSH1 0x40 MLOAD SWAP1 PUSH1 0x20 DUP3 ADD SWAP3 PUSH4 0x248A35EF PUSH1 0xE1 SHL DUP5 MSTORE PUSH1 0x1 DUP1 PUSH1 0xA0 SHL SUB DUP1 SWAP3 AND PUSH1 0x24 DUP5 ADD MSTORE AND PUSH1 0x44 DUP3 ADD MSTORE PUSH1 0x44 DUP2 MSTORE PUSH2 0x3368 DUP2 PUSH2 0x1D3B JUMP JUMPDEST MLOAD SWAP1 DUP3 PUSH2 0x167 GAS CALL PUSH2 0x3378 PUSH2 0x24C9 JUMP JUMPDEST SWAP1 ISZERO PUSH2 0x3397 JUMPI DUP1 PUSH1 0x20 DUP1 PUSH2 0x3391 SWAP4 MLOAD DUP4 ADD ADD SWAP2 ADD PUSH2 0x3315 JUMP JUMPDEST PUSH1 0x3 SIGNEXTEND SWAP1 JUMP JUMPDEST POP PUSH1 0x15 PUSH2 0x3391 JUMP INVALID 0xB7 SSTORE 0x5D SWAP5 SWAP11 DUP10 PUSH27 0xCB395F95E3F2DF8B700519404826BB13CD6526B756F6A1C907AD91 SLOAD 0x28 PUSH7 0xF4DA9EBED5A2B1 PUSH18 0x3258F4BF970F84E7B2A0B8AAB2DE28D11FFF REVERT PUSH5 0xB83944E79C EXTCODECOPY 0xE8 0xD4 0xC2 SWAP8 COINBASE SAR 0xE6 CALLDATACOPY 0xC3 0xE1 MUL 0xD0 PUSH5 0x677AAC0C16 CODECOPY PUSH23 0xEBDCD6F50EA26469706673582212209E9067A04092BE50 SWAP13 0xB7 DUP11 PUSH19 0xF2D70427C1F012FA003B9EA2F71994159AC701 BALANCE PUSH5 0x736F6C6343 STOP ADDMOD EQ STOP CALLER "},"methodIdentifiers":{"FEE_BPS()":"bf333f2c","FEE_DENOMINATOR()":"d73792a9","HBAR_withdrawal()":"e7834029","MIN_LIQUIDITY()":"21b77d63","addLiquidity(uint256,uint256,uint256,uint256)":"aebf3e41","addLiquidityWithUSD(uint256,uint256,uint256)":"545466a5","associateTokens()":"10ca0bce","burnFCDR(uint256)":"734c79b6","calculateCSLPFromUSD(uint256,uint256)":"b79c41a2","calculateHBAR(uint256)":"34111bbf","calculateLPTokens(uint256)":"42c649de","cslpToken()":"9827d473","emergencyWithdraw()":"db2e21bc","factory()":"c45a0155","fcdrMetadata(uint256)":"38b37d1c","fcdrToken()":"0a5579d1","getErrorMessage(int32)":"be591129","getFCDRMetadata(uint256)":"4ddd1c54","getOwnerFCDRs(address)":"1cf2e698","getPoolInfo()":"60246c88","getPurchaseMetadata(uint256)":"240f1b62","getTotalFCDRs()":"32acf78b","getTotalPurchases()":"ea04f155","getUserPurchases(address)":"c6e5d8f6","getUserShare(address)":"bbbaee4c","getUserValue(address)":"a78c849b","getValuePerLPToken()":"2fb9125d","hasReceivedCSLPFromThisPool(address)":"c279a2bc","initializePool()":"250e6de0","owner()":"8da5cb5b","ownerFCDRs(address,uint256)":"7d56be3c","pause()":"8456cb59","paused()":"5c975abb","poolUser()":"3e7e516a","purchaseMetadata(uint256)":"3474d1f9","redirectForToken(address,bytes)":"618dc65e","removeLiquidity(uint256,uint256)":"9d7de6b3","renounceOwnership()":"715018a6","totalFCDRs()":"a7112efe","totalHBAR()":"28999437","totalLPTokens()":"ef6283d9","totalPurchases()":"5962a941","totalValue()":"d4c3eea0","transferFrom(address,address,address,uint256)":"15dacbea","transferFromNFT(address,address,address,uint256)":"9b23d3d9","transferOwnership(address)":"f2fde38b","unpause()":"3f4ba83a","userPurchases(address,uint256)":"cf2c0334"}}}}}