{"contracts/ClearSkyLiquidityPoolV3.sol":{"ClearSkyLiquidityPoolV3":{"abi":[{"inputs":[{"internalType":"address","name":"_owner","type":"address"}],"stateMutability":"nonpayable","type":"constructor"},{"inputs":[],"name":"EnforcedPause","type":"error"},{"inputs":[],"name":"ExpectedPause","type":"error"},{"inputs":[],"name":"InsufficientHBAR","type":"error"},{"inputs":[],"name":"InsufficientInitialLiquidity","type":"error"},{"inputs":[],"name":"InsufficientLPBalance","type":"error"},{"inputs":[],"name":"InvalidAmounts","type":"error"},{"inputs":[],"name":"NoLiquidityProvided","type":"error"},{"inputs":[{"internalType":"address","name":"owner","type":"address"}],"name":"OwnableInvalidOwner","type":"error"},{"inputs":[{"internalType":"address","name":"account","type":"address"}],"name":"OwnableUnauthorizedAccount","type":"error"},{"inputs":[],"name":"PoolAlreadyInitialized","type":"error"},{"inputs":[],"name":"PoolNotActive","type":"error"},{"inputs":[],"name":"ReentrancyGuardReentrantCall","type":"error"},{"inputs":[],"name":"SlippageExceeded","type":"error"},{"inputs":[],"name":"TokenAlreadyCreated","type":"error"},{"inputs":[{"internalType":"int32","name":"responseCode","type":"int32"}],"name":"TokenCreationFailed","type":"error"},{"inputs":[],"name":"TokenNotCreated","type":"error"},{"anonymous":false,"inputs":[{"indexed":false,"internalType":"bool","name":"","type":"bool"},{"indexed":false,"internalType":"bytes","name":"","type":"bytes"}],"name":"CallResponseEvent","type":"event"},{"anonymous":false,"inputs":[{"indexed":true,"internalType":"address","name":"collector","type":"address"},{"indexed":false,"internalType":"uint256","name":"hbarAmount","type":"uint256"},{"indexed":false,"internalType":"uint256","name":"timestamp","type":"uint256"}],"name":"FeesCollected","type":"event"},{"anonymous":false,"inputs":[{"indexed":true,"internalType":"address","name":"token","type":"address"},{"indexed":true,"internalType":"address","name":"account","type":"address"}],"name":"HTSAssociateAttempt","type":"event"},{"anonymous":false,"inputs":[{"indexed":true,"internalType":"address","name":"token","type":"address"},{"indexed":true,"internalType":"address","name":"account","type":"address"},{"indexed":false,"internalType":"string","name":"reason","type":"string"}],"name":"HTSAssociateSkipped","type":"event"},{"anonymous":false,"inputs":[{"indexed":true,"internalType":"address","name":"token","type":"address"},{"indexed":true,"internalType":"address","name":"account","type":"address"}],"name":"HTSAssociateSuccess","type":"event"},{"anonymous":false,"inputs":[{"indexed":true,"internalType":"address","name":"token","type":"address"},{"indexed":false,"internalType":"int64","name":"amount","type":"int64"},{"indexed":false,"internalType":"int64[]","name":"serialNumbers","type":"int64[]"}],"name":"HTSBurnAttempt","type":"event"},{"anonymous":false,"inputs":[{"indexed":true,"internalType":"address","name":"token","type":"address"},{"indexed":false,"internalType":"int64","name":"amount","type":"int64"},{"indexed":false,"internalType":"int32","name":"responseCode","type":"int32"}],"name":"HTSBurnFailed","type":"event"},{"anonymous":false,"inputs":[{"indexed":true,"internalType":"address","name":"token","type":"address"},{"indexed":false,"internalType":"int64","name":"amount","type":"int64"},{"indexed":false,"internalType":"int64","name":"newTotalSupply","type":"int64"}],"name":"HTSBurnSuccess","type":"event"},{"anonymous":false,"inputs":[{"indexed":true,"internalType":"address","name":"token","type":"address"},{"indexed":true,"internalType":"address","name":"to","type":"address"},{"indexed":false,"internalType":"int64","name":"amount","type":"int64"}],"name":"HTSMintAttempt","type":"event"},{"anonymous":false,"inputs":[{"indexed":true,"internalType":"address","name":"token","type":"address"},{"indexed":true,"internalType":"address","name":"to","type":"address"},{"indexed":false,"internalType":"int64","name":"amount","type":"int64"},{"indexed":false,"internalType":"int32","name":"responseCode","type":"int32"}],"name":"HTSMintFailed","type":"event"},{"anonymous":false,"inputs":[{"indexed":true,"internalType":"address","name":"token","type":"address"},{"indexed":true,"internalType":"address","name":"to","type":"address"},{"indexed":false,"internalType":"int64","name":"amount","type":"int64"},{"indexed":false,"internalType":"int64","name":"newTotalSupply","type":"int64"}],"name":"HTSMintSuccess","type":"event"},{"anonymous":false,"inputs":[{"indexed":true,"internalType":"address","name":"token","type":"address"},{"indexed":true,"internalType":"address","name":"from","type":"address"},{"indexed":true,"internalType":"address","name":"to","type":"address"},{"indexed":false,"internalType":"int64","name":"amount","type":"int64"}],"name":"HTSTransferAttempt","type":"event"},{"anonymous":false,"inputs":[{"indexed":true,"internalType":"address","name":"token","type":"address"},{"indexed":true,"internalType":"address","name":"from","type":"address"},{"indexed":true,"internalType":"address","name":"to","type":"address"},{"indexed":false,"internalType":"int64","name":"amount","type":"int64"},{"indexed":false,"internalType":"int32","name":"responseCode","type":"int32"}],"name":"HTSTransferFailed","type":"event"},{"anonymous":false,"inputs":[{"indexed":true,"internalType":"address","name":"token","type":"address"},{"indexed":true,"internalType":"address","name":"from","type":"address"},{"indexed":true,"internalType":"address","name":"to","type":"address"},{"indexed":false,"internalType":"int64","name":"amount","type":"int64"}],"name":"HTSTransferSuccess","type":"event"},{"anonymous":false,"inputs":[{"indexed":true,"internalType":"address","name":"user","type":"address"},{"indexed":false,"internalType":"uint256","name":"hbarAmount","type":"uint256"},{"indexed":false,"internalType":"uint256","name":"lpTokensMinted","type":"uint256"},{"indexed":false,"internalType":"uint256","name":"timestamp","type":"uint256"}],"name":"LiquidityAdded","type":"event"},{"anonymous":false,"inputs":[{"indexed":true,"internalType":"address","name":"user","type":"address"},{"indexed":false,"internalType":"uint256","name":"hbarAmount","type":"uint256"},{"indexed":false,"internalType":"uint256","name":"lpTokensBurned","type":"uint256"},{"indexed":false,"internalType":"uint256","name":"timestamp","type":"uint256"}],"name":"LiquidityRemoved","type":"event"},{"anonymous":false,"inputs":[{"indexed":true,"internalType":"address","name":"previousOwner","type":"address"},{"indexed":true,"internalType":"address","name":"newOwner","type":"address"}],"name":"OwnershipTransferred","type":"event"},{"anonymous":false,"inputs":[{"indexed":false,"internalType":"address","name":"account","type":"address"}],"name":"Paused","type":"event"},{"anonymous":false,"inputs":[{"indexed":true,"internalType":"address","name":"tokenAddress","type":"address"},{"indexed":false,"internalType":"string","name":"name","type":"string"},{"indexed":false,"internalType":"string","name":"symbol","type":"string"},{"indexed":false,"internalType":"uint8","name":"decimals","type":"uint8"},{"indexed":false,"internalType":"address","name":"treasury","type":"address"}],"name":"TokenCreated","type":"event"},{"anonymous":false,"inputs":[{"indexed":false,"internalType":"int32","name":"responseCode","type":"int32"},{"indexed":false,"internalType":"string","name":"errorMessage","type":"string"}],"name":"TokenCreationFailedEvent","type":"event"},{"anonymous":false,"inputs":[{"indexed":false,"internalType":"address","name":"account","type":"address"}],"name":"Unpaused","type":"event"},{"stateMutability":"payable","type":"fallback"},{"inputs":[],"name":"FEE_BPS","outputs":[{"internalType":"uint256","name":"","type":"uint256"}],"stateMutability":"view","type":"function"},{"inputs":[],"name":"FEE_DENOMINATOR","outputs":[{"internalType":"uint256","name":"","type":"uint256"}],"stateMutability":"view","type":"function"},{"inputs":[],"name":"MIN_LIQUIDITY","outputs":[{"internalType":"uint256","name":"","type":"uint256"}],"stateMutability":"view","type":"function"},{"inputs":[{"internalType":"uint256","name":"minLPTokens","type":"uint256"},{"internalType":"uint256","name":"usdAmount","type":"uint256"},{"internalType":"uint256","name":"maturationAmount","type":"uint256"}],"name":"addLiquidity","outputs":[],"stateMutability":"payable","type":"function"},{"inputs":[{"internalType":"uint256","name":"usdAmount","type":"uint256"},{"internalType":"uint256","name":"maturationAmount","type":"uint256"},{"internalType":"uint256","name":"minLPTokens","type":"uint256"}],"name":"addLiquidityWithUSD","outputs":[],"stateMutability":"payable","type":"function"},{"inputs":[{"internalType":"uint256","name":"usdAmount","type":"uint256"},{"internalType":"uint256","name":"maturationAmount","type":"uint256"}],"name":"calculateCSLPFromUSD","outputs":[{"internalType":"uint256","name":"cslpTokens","type":"uint256"}],"stateMutability":"pure","type":"function"},{"inputs":[{"internalType":"uint256","name":"lpTokenAmount","type":"uint256"}],"name":"calculateHBAR","outputs":[{"internalType":"uint256","name":"hbarAmount","type":"uint256"}],"stateMutability":"view","type":"function"},{"inputs":[{"internalType":"uint256","name":"hbarAmount","type":"uint256"}],"name":"calculateLPTokens","outputs":[{"internalType":"uint256","name":"lpTokens","type":"uint256"}],"stateMutability":"view","type":"function"},{"inputs":[{"internalType":"string","name":"_tokenName","type":"string"},{"internalType":"string","name":"_tokenSymbol","type":"string"}],"name":"createLPToken","outputs":[],"stateMutability":"payable","type":"function"},{"inputs":[],"name":"emergencyWithdraw","outputs":[],"stateMutability":"nonpayable","type":"function"},{"inputs":[{"internalType":"int32","name":"responseCode","type":"int32"}],"name":"getErrorMessage","outputs":[{"internalType":"string","name":"errorMessage","type":"string"}],"stateMutability":"pure","type":"function"},{"inputs":[],"name":"getPoolInfo","outputs":[{"internalType":"uint256","name":"_totalHBAR","type":"uint256"},{"internalType":"uint256","name":"_totalLPTokens","type":"uint256"},{"internalType":"uint256","name":"_totalValue","type":"uint256"}],"stateMutability":"view","type":"function"},{"inputs":[{"internalType":"uint256","name":"purchaseId","type":"uint256"}],"name":"getPurchaseMetadata","outputs":[{"components":[{"internalType":"uint256","name":"hbarAmount","type":"uint256"},{"internalType":"uint256","name":"timestamp","type":"uint256"},{"internalType":"uint256","name":"numUsed","type":"uint256"},{"internalType":"address","name":"purchaser","type":"address"},{"internalType":"uint256","name":"purchaseId","type":"uint256"}],"internalType":"struct ClearSkyLiquidityPoolV3.PurchaseMetadata","name":"","type":"tuple"}],"stateMutability":"view","type":"function"},{"inputs":[],"name":"getTokenInfo","outputs":[{"components":[{"internalType":"string","name":"name","type":"string"},{"internalType":"string","name":"symbol","type":"string"},{"internalType":"uint8","name":"decimals","type":"uint8"},{"internalType":"address","name":"tokenAddress","type":"address"},{"internalType":"bool","name":"created","type":"bool"}],"internalType":"struct ClearSkyLiquidityPoolV3.TokenInfo","name":"","type":"tuple"}],"stateMutability":"view","type":"function"},{"inputs":[],"name":"getTotalPurchases","outputs":[{"internalType":"uint256","name":"","type":"uint256"}],"stateMutability":"view","type":"function"},{"inputs":[{"internalType":"address","name":"user","type":"address"}],"name":"getUserPurchases","outputs":[{"internalType":"uint256[]","name":"","type":"uint256[]"}],"stateMutability":"view","type":"function"},{"inputs":[{"internalType":"address","name":"user","type":"address"}],"name":"getUserShare","outputs":[{"internalType":"uint256","name":"userLPBalance","type":"uint256"},{"internalType":"uint256","name":"userHBARValue","type":"uint256"},{"internalType":"uint256","name":"sharePercentage","type":"uint256"}],"stateMutability":"view","type":"function"},{"inputs":[{"internalType":"address","name":"user","type":"address"}],"name":"getUserValue","outputs":[{"internalType":"uint256","name":"userValue","type":"uint256"}],"stateMutability":"view","type":"function"},{"inputs":[],"name":"getValuePerLPToken","outputs":[{"internalType":"uint256","name":"valuePerToken","type":"uint256"}],"stateMutability":"view","type":"function"},{"inputs":[],"name":"initializePool","outputs":[],"stateMutability":"payable","type":"function"},{"inputs":[],"name":"isTokenCreated","outputs":[{"internalType":"bool","name":"created","type":"bool"}],"stateMutability":"view","type":"function"},{"inputs":[],"name":"lpToken","outputs":[{"internalType":"address","name":"","type":"address"}],"stateMutability":"view","type":"function"},{"inputs":[],"name":"owner","outputs":[{"internalType":"address","name":"","type":"address"}],"stateMutability":"view","type":"function"},{"inputs":[],"name":"pause","outputs":[],"stateMutability":"nonpayable","type":"function"},{"inputs":[],"name":"paused","outputs":[{"internalType":"bool","name":"","type":"bool"}],"stateMutability":"view","type":"function"},{"inputs":[{"internalType":"uint256","name":"","type":"uint256"}],"name":"purchaseMetadata","outputs":[{"internalType":"uint256","name":"hbarAmount","type":"uint256"},{"internalType":"uint256","name":"timestamp","type":"uint256"},{"internalType":"uint256","name":"numUsed","type":"uint256"},{"internalType":"address","name":"purchaser","type":"address"},{"internalType":"uint256","name":"purchaseId","type":"uint256"}],"stateMutability":"view","type":"function"},{"inputs":[{"internalType":"address","name":"token","type":"address"},{"internalType":"bytes","name":"encodedFunctionSelector","type":"bytes"}],"name":"redirectForToken","outputs":[{"internalType":"int256","name":"responseCode","type":"int256"},{"internalType":"bytes","name":"response","type":"bytes"}],"stateMutability":"nonpayable","type":"function"},{"inputs":[{"internalType":"uint256","name":"lpTokenAmount","type":"uint256"},{"internalType":"uint256","name":"minHBAR","type":"uint256"}],"name":"removeLiquidity","outputs":[],"stateMutability":"nonpayable","type":"function"},{"inputs":[],"name":"renounceOwnership","outputs":[],"stateMutability":"nonpayable","type":"function"},{"inputs":[],"name":"tokenInfo","outputs":[{"internalType":"string","name":"name","type":"string"},{"internalType":"string","name":"symbol","type":"string"},{"internalType":"uint8","name":"decimals","type":"uint8"},{"internalType":"address","name":"tokenAddress","type":"address"},{"internalType":"bool","name":"created","type":"bool"}],"stateMutability":"view","type":"function"},{"inputs":[],"name":"totalHBAR","outputs":[{"internalType":"uint256","name":"","type":"uint256"}],"stateMutability":"view","type":"function"},{"inputs":[],"name":"totalLPTokens","outputs":[{"internalType":"uint256","name":"","type":"uint256"}],"stateMutability":"view","type":"function"},{"inputs":[],"name":"totalPurchases","outputs":[{"internalType":"uint256","name":"","type":"uint256"}],"stateMutability":"view","type":"function"},{"inputs":[],"name":"totalValue","outputs":[{"internalType":"uint256","name":"","type":"uint256"}],"stateMutability":"view","type":"function"},{"inputs":[{"internalType":"address","name":"token","type":"address"},{"internalType":"address","name":"from","type":"address"},{"internalType":"address","name":"to","type":"address"},{"internalType":"uint256","name":"amount","type":"uint256"}],"name":"transferFrom","outputs":[{"internalType":"int64","name":"responseCode","type":"int64"}],"stateMutability":"nonpayable","type":"function"},{"inputs":[{"internalType":"address","name":"token","type":"address"},{"internalType":"address","name":"from","type":"address"},{"internalType":"address","name":"to","type":"address"},{"internalType":"uint256","name":"serialNumber","type":"uint256"}],"name":"transferFromNFT","outputs":[{"internalType":"int64","name":"responseCode","type":"int64"}],"stateMutability":"nonpayable","type":"function"},{"inputs":[{"internalType":"address","name":"newOwner","type":"address"}],"name":"transferOwnership","outputs":[],"stateMutability":"nonpayable","type":"function"},{"inputs":[],"name":"unpause","outputs":[],"stateMutability":"nonpayable","type":"function"},{"inputs":[{"internalType":"address","name":"","type":"address"},{"internalType":"uint256","name":"","type":"uint256"}],"name":"userPurchases","outputs":[{"internalType":"uint256","name":"","type":"uint256"}],"stateMutability":"view","type":"function"},{"stateMutability":"payable","type":"receive"}],"evm":{"bytecode":{"linkReferences":{},"object":"6080346200054d57601f62003fc238819003918201601f19168301916001600160401b0383118484101762000436578084926020946040528339810103126200054d57516001600160a01b03808216918290036200054d57811562000534576000548260018060a01b0319821617600055167f8be0079c531659141344cd1fd0a4f28419497f9722a3daafe3b4186f6b6457e0600080a3600180805560028054610100600160a81b0319168155600360209081527f3617319a054d772f909f7c479a2cebe5066e836a939412e32403c99029b92eff929092557fa15bc60c955c405d20d9149c709e2460f1c2d9a497496a7f46004d1772c3054c5560047fc3a24b0501bd2c13a7e57f2db4369ec4c223447539fc0724a9d55ac4a06ebd4d5560087fcbc4e5fb02c3d1de23a9f1e014b4d2ee5aeaea9505df5e855c9210bf472495af5560107f83ec6a1f0257b830b5e016457c9cf1435391bf56cc98f369a58a54fe93772465557f405aad32e1adbac89bb7f176e338b8fc6e994ca210c9bb7bdca249b46594225055600660005260407fc69056f16cbaa3c616b828e333ab7d3a32310765507f8f58359e99ebb7a885f38190555160a081016001600160401b038111828210176200043657604052620001d862000552565b600081528152620001e862000552565b600081526020820152600060408201526000606082015260006080820152805190815160018060401b0381116200043657600854600181811c9116801562000529575b60208210146200041557601f8111620004c3575b50602092601f82116001146200045857928192936000926200044c575b50508160011b916000199060031b1c1916176008555b602081015180519091906001600160401b0381116200043657600954600181811c911680156200042b575b60208210146200041557601f8111620003ab575b50602092601f821160011462000340579281929360009262000334575b50508160011b916000199060031b1c1916176009555b60ff60408201511690600a5491610100600160a81b03606083015160081b1691608060ff60a81b910151151560a81b169260018060b01b031916171717600a55604051613a4f9081620005738239f35b015190503880620002ce565b601f19821693600960005260206000209160005b86811062000392575083600195961062000378575b505050811b01600955620002e4565b015160001960f88460031b161c1916905538808062000369565b9192602060018192868501518155019401920162000354565b60096000527f6e1540171b6c0c960b71a7020d9f60077f6af931a8bbf590da0223dacf75c7af601f830160051c810191602084106200040a575b601f0160051c01905b818110620003fd5750620002b1565b60008155600101620003ee565b9091508190620003e5565b634e487b7160e01b600052602260045260246000fd5b90607f16906200029d565b634e487b7160e01b600052604160045260246000fd5b0151905038806200025c565b601f19821693600860005260206000209160005b868110620004aa575083600195961062000490575b505050811b0160085562000272565b015160001960f88460031b161c1916905538808062000481565b919260206001819286850151815501940192016200046c565b60086000527ff3f7a9fe364faab93b216da50a3214154f22a0a2b415b23a84c8169e8b636ee3601f830160051c81016020841062000521575b601f830160051c82018110620005145750506200023f565b60008155600101620004fc565b5080620004fc565b90607f16906200022b565b604051631e4fbdf760e01b815260006004820152602490fd5b600080fd5b60405190602082016001600160401b03811183821017620004365760405256fe6080806040526004361015610052575b5036156100505760405162461bcd60e51b8152602060048201526012602482015271119d5b98dd1a5bdb881b9bdd08199bdd5b9960721b6044820152606490fd5b005b60003560e01c90816315dacbea1461239557508063185c112a1461236f57806321b77d6314612351578063240f1b621461229a578063250e6de0146120d457806328999437146120b65780632fb9125d1461209b57806334111bbf1461207d5780633474d1f91461201e5780633f4ba83a14611fc7578063422f104314611af157806342c649de14611ad35780634edec1ff146111fd578063545466a514610e695780635962a941146102bd5780635c975abb14610e465780635fcbd28514610e1d57806360246c8814610deb578063618dc65e14610ccf5780636addb66314610c53578063715018a614610bfa5780638456cb5914610ba05780638da5cb5b14610b775780639b23d3d914610ad75780639d7de6b3146106e8578063a78c849b146106c4578063abb1dc44146105e3578063b79c41a2146105c2578063bbbaee4c14610580578063be5911291461053e578063bf333f2c14610522578063c6e5d8f61461046e578063cf2c033414610416578063d4c3eea0146103f8578063d73792a9146103db578063db2e21bc146102db578063ea04f155146102bd578063ef6283d91461029f5763f2fde38b1461020c573861000f565b3461029a57602036600319011261029a576102256123ec565b61022d612789565b6001600160a01b0390811690811561028157600054826bffffffffffffffffffffffff60a01b821617600055167f8be0079c531659141344cd1fd0a4f28419497f9722a3daafe3b4186f6b6457e0600080a3005b604051631e4fbdf760e01b815260006004820152602490fd5b600080fd5b3461029a57600036600319011261029a576020600654604051908152f35b3461029a57600036600319011261029a576020600d54604051908152f35b3461029a57600036600319011261029a576102f4612789565b6102fc613815565b4780156103a05760018060a01b03600080808085858254165af161031e612aaf565b501561035b5760407f2e4fb6077d4acf86e12bb7411fb82b2b3eaa6a49787f4b1e17b423e7ea8411699160005416928151908152426020820152a2005b60405162461bcd60e51b815260206004820152601b60248201527f456d657267656e6379207769746864726177616c206661696c656400000000006044820152606490fd5b60405162461bcd60e51b81526020600482015260136024820152724e6f204842415220746f20776974686472617760681b6044820152606490fd5b3461029a57600036600319011261029a5760206040516127108152f35b3461029a57600036600319011261029a576020600754604051908152f35b3461029a57604036600319011261029a5761042f6123ec565b6001600160a01b03166000908152600c602052604090208054602435919082101561029a576020916104609161275b565b90546040519160031b1c8152f35b3461029a5760208060031936011261029a576001600160a01b036104906123ec565b16600052600c8152604060002060405190818382549182815201908192600052846000209060005b8682821061050e5786866104ce828803836124ff565b604051928392818401908285525180915260408401929160005b8281106104f757505050500390f35b8351855286955093810193928101926001016104e8565b8354855290930192600192830192016104b8565b3461029a57600036600319011261029a576020604051601e8152f35b3461029a57602036600319011261029a576004358060030b810361029a5761056861057c91612c0a565b6040519182916020835260208301906125b3565b0390f35b3461029a57602036600319011261029a576105996123ec565b5061057c6105a5612b51565b604080519384526020840192909252908201529081906060820190565b3461029a5760206105db6105d536612745565b90612b06565b604051908152f35b3461029a57600036600319011261029a57600060806040516106048161245d565b6060815260606020820152826040820152826060820152015261069660405161062c8161245d565b610634612612565b815261063e6126be565b60208201908152600a54604083019160ff821683526060840160ff6106a960018060a01b0393848660081c16845282608089019660a81c161515865260405198899860208a525160a060208b015260c08a01906125b3565b9051888203601f190160408a01526125b3565b94511660608601525116608084015251151560a08301520390f35b3461029a57602036600319011261029a576106dd6123ec565b5060206105db612bcd565b3461029a576106f636612745565b6106fe6128a4565b610706612886565b61071760ff600a5460a81c16612826565b8115610a99576006548015610a5d5760055461074861073f8361073a8488612a58565b612866565b938410156129fc565b478311610a18576107669161075e848693612a6b565b600555612a6b565b60065561077581600754612a6b565b6007556001600160401b03821660070b60405161079181612493565b6000815260008060018060a01b039261081d61082b856004541692837fb310aaac57f9a89f4e3661e38cb8df5ea9428b82d1bb2b8ab6a77c3f52818f026040518a815260406020820152806107e96040820186612a78565b0390a26040519283916020830195636b48868360e11b87526024840152896044840152606060648401526084830190612a78565b03601f1981018352826124ff565b5190826101675af19061083c612aaf565b9115610a0d5760408280518101031261029a57610867604061086060208501613834565b9301613842565b915b60030b60168103610953575060045460408051600795860b81529390940b602084015216917f7b2f31b2ffda9d7a1ac640400c8f7eb1c8d0071689111f45797448a14697587c91a2600080808084335af16108c2612aaf565b50156109175761090e7f1dc8bb69df2b8e91fbdcbfcf93d951b3f0000f085a95fe3f7946d6161439245d9160405191829133954291846040919493926060820195825260208201520152565b0390a260018055005b60405162461bcd60e51b815260206004820152601460248201527312109054881d1c985b9cd9995c8819985a5b195960621b6044820152606490fd5b915061099d846109948761098b7fcccb9ca916a4b1199913d752d315547b23a41451ab4c699f6bae82cecf211b1e9798600554612a3c565b50600654612a3c565b50600754612a3c565b5060045416926109c560405192839283909291602090604083019460070b835260030b910152565b0390a260405162461bcd60e51b815260206004820152601860248201527f48545320746f6b656e206275726e696e67206661696c656400000000000000006044820152606490fd5b600091506015610869565b60405162461bcd60e51b815260206004820152601960248201527f496e73756666696369656e74204842415220696e20706f6f6c000000000000006044820152606490fd5b60405162461bcd60e51b8152602060048201526014602482015273139bc81b1a5c5d5a591a5d1e481a5b881c1bdbdb60621b6044820152606490fd5b60405162461bcd60e51b8152602060048201526016602482015275139bc81314081d1bdad95b9cc81cdc1958da599a595960521b6044820152606490fd5b3461029a57600080610b3261081d610aee36612402565b604051639b23d3d960e01b602082019081526001600160a01b03958616602483015293851660448201529390911660648401526084830152929091829060a4820190565b5190826101675af1610b42612aaf565b9015610b6d5760208180518101031261029a57610b626020809201613834565b6040519060030b8152f35b5060206015610b62565b3461029a57600036600319011261029a576000546040516001600160a01b039091168152602090f35b3461029a57600036600319011261029a57610bb9612789565b610bc1612886565b600160ff1960025416176002557f62e78cea01bee320cd4e420270b5ea74000d11b0c9f74754ebdbfc544b05a2586020604051338152a1005b3461029a57600036600319011261029a57610c13612789565b600080546001600160a01b0319811682556001600160a01b03167f8be0079c531659141344cd1fd0a4f28419497f9722a3daafe3b4186f6b6457e08280a3005b3461029a57600036600319011261029a57610c94610c6f612612565b610c776126be565b60ff610ca2600a549260405195869560a0875260a08701906125b3565b9085820360208701526125b3565b8183166040850152600883901c6001600160a01b0316606085015260a89290921c16151560808301520390f35b3461029a57604036600319011261029a57610ce86123ec565b6024356001600160401b03811161029a573660238201121561029a5760009161081d610d5a610d228594369060248160040135910161253b565b604080516330c6e32f60e11b602082019081526001600160a01b039096166024820152604481019190915292839160648301906125b3565b5190826101675af1610d6a612aaf565b907f4af4780e06fe8cb9df64b0794fa6f01399af979175bb988e35e0e57e594567bc60405182151581526040602082015280610da960408201866125b3565b0390a115610dd35760165b61057c60405192839260030b83526040602084015260408301906125b3565b50604051610de081612493565b600081526015610db4565b3461029a57600036600319011261029a5760055460065460075460408051938452602084019290925290820152606090f35b3461029a57600036600319011261029a576004546040516001600160a01b039091168152602090f35b3461029a57600036600319011261029a57602060ff600254166040519015158152f35b610ece610ed7610e7836612443565b9391610e826128a4565b610e8a612886565b610e9b60ff600a5460a81c16612826565b610ea860065415156128c7565b610eb334151561290a565b610ebe811515612949565b610ec982151561299f565b612b06565b918210156129fc565b610ee334600554612a3c565b600555610ef234600754612a3c565b6007556001600160401b03811660070b60018060a01b0390816004541691610f5a60405193838552602094817fb7555d949a897acb395f95e3f2df8b700519404826bb13cd6526b756f6a1c907873393a38360405191610f5183612493565b60008352613850565b5091906016810361116f575060008082600454166040518681523390827fd9cd850143c0756b15b46ebdc8b4ed7701b66aaed30858ee17a225eb005cca2e8a3093a46040518781019163eca3691760e01b8352602482015230604482015233606482015286608482015260848152610fd1816124ae565b5190826101675af1610fe1612aaf565b901561116757848180518101031261029a5784610ffe9101613834565b60030b601681036110d4575061101685600654612a3c565b6006556004541690817fad91542866f4da9ebed5a2b1713258f4bf970f84e7b2a0b8aab2de28d11ffffd6040518061106333958883909291602090604083019460070b835260070b910152565b0390a36040519182527f67325b2f3de1d8273fc1aeeaf3b161488fc28427430d9f6b341831dedfc2d63333933093a4604080513481526020810192909252429082015233907f64b83944e79c3ce8d4c297411de637c3e102d064677aac0c163976ebdcd6f50e90806060810161090e565b8382600454167fcc975f63304dfdaa80a8ecbfbfc654fd86ea8a7cdb68086a0d883f26ad08e4c16040518061111f3396309683909291602090604083019460070b835260030b910152565b0390a460405162461bcd60e51b815260206004820152601960248201527f48545320746f6b656e207472616e73666572206661696c6564000000000000006044820152606490fd5b506015610ffe565b60045460408051600787900b815260039390930b60208401523392918416917f03f5e21a75677e84382c9f010b9f5780b534bb2a966c378fa090d12ba52caa0891819081015b0390a360405162461bcd60e51b815260206004820152601860248201527f48545320746f6b656e206d696e74696e67206661696c656400000000000000006044820152606490fd5b604036600319011261029a576004356001600160401b03811161029a57611228903690600401612572565b6024356001600160401b03811161029a57611247903690600401612572565b61124f612789565b60ff600a5460a81c16611a9657815115611a5b57805115611a1e576040519161012083018381106001600160401b038211176117f15760405260608352606060208401526000604084015260608084015260006080840152600060a0840152600060c0840152606060e08401526040518060608101106001600160401b036060830111176117f1576060810160405260008152600060208201526000604082015261010084015280835281602084015230604084015260405161131181612478565b6001815260005b60208110611a07575060e084015261132e6127f8565b50600460005260036020527f83ec6a1f0257b830b5e016457c9cf1435391bf56cc98f369a58a54fe9377246554611396906113676127cc565b3060208201526040519161137a83612478565b8252602082015260e08501519061139082612819565b52612819565b50610100830151805160070b15806119f8575b6119e9575b50604051630fb65bf360e01b6020820152606060248201526114236113fa6113e4865161016060848601526101e48501906125b3565b60208701518482036083190160a48601526125b3565b60408601516001600160a01b031660c484015260608601518382036083190160e48501526125b3565b936080810151151561010483015260a081015160070b61012483015260c0810151151561014483015260e08101519060831983870301610164840152815180875260208701906020808260051b8a01019401916000905b82821061195b5788886000808a6114d8818c60406101008e0151805160070b61018485015260018060a01b036020820151166101a4850152015160070b6101c48301528460448301526006606483015203601f1981018352826124ff565b602081519101346101675af1916114ed612aaf565b92156119505760408380518101031261029a57604061150e60208501613834565b9301516001600160a01b038116939084900361029a5760030b5b60030b601681036118ee5750600480546001600160a01b0319166001600160a01b03851617905560405161155b8161245d565b82815260208101829052600660408201526001600160a01b03841660608201526001608082015282516001600160401b0381116117f15761159d6008546125d8565b601f8111611885575b50806020601f821160011461181257600091611807575b508160011b916000199060031b1c1916176008555b60208101518051906001600160401b0382116117f1576115f36009546125d8565b601f8111611788575b50602090601f83116001146116e85792826116bf936116b196937f8fb1ffd0ab3f6379154037519ff749b01e1fa060a331f5394175f393c3db596b98966000926116dd575b50508160011b916000199060031b1c1916176009555b60ff60408201511690600a5491610100600160a81b03606083015160081b1691608060ff60a81b910151151560a81b169269ffffffffffffffffffff60b01b16171717600a556040519384936080855260808501906125b3565b9083820360208501526125b3565b600660408301523060608301526001600160a01b03909416930390a2005b015190508980611641565b9060096000526000805160206139fa8339815191529160005b601f19851681106117705750836116b196937f8fb1ffd0ab3f6379154037519ff749b01e1fa060a331f5394175f393c3db596b9896936001936116bf97601f19811610611757575b505050811b01600955611657565b015160001960f88460031b161c19169055898080611749565b91926020600181928685015181550194019201611701565b6009600052601f830160051c6000805160206139fa83398151915201602084106117dc575b601f820160051c6000805160206139fa8339815191520181106117d057506115fc565b600081556001016117ad565b506000805160206139fa8339815191526117ad565b634e487b7160e01b600052604160045260246000fd5b9050840151866115bd565b915060086000526000805160206139da8339815191526000925b601f198316841061186d576001935082601f19811610611854575b5050811b016008556115d2565b86015160001960f88460031b161c191690558680611847565b8681015182556020938401936001909201910161182c565b6008600052601f820160051c6000805160206139da83398151915201602083106118d9575b601f820160051c6000805160206139da8339815191520181106118cd57506115a6565b600081556001016118aa565b506000805160206139da8339815191526118aa565b807f8e087745dd680d08f64711bfdd63e4496157eaa1c1774fddd382c76431dc105461193861191e602494612c0a565b6040519182918583526040602084015260408301906125b3565b0390a160405190631dd454b160e01b82526004820152fd5b600092506015611528565b90919294602080600192601f198d820301855281895180518352015190604083820152815115156040820152848060a01b038383015116606082015260c06119cb6119b5604085015160a0608086015260e08501906125b3565b6060850151848203603f190160a08601526125b3565b926080878060a01b039101511691015297019201920190929161147a565b60406276a700910152836113ae565b50604081015160070b156113a9565b602090611a126127f8565b82828501015201611318565b60405162461bcd60e51b8152602060048201526015602482015274151bdad95b881cde5b589bdb081c995c5d5a5c9959605a1b6044820152606490fd5b60405162461bcd60e51b8152602060048201526013602482015272151bdad95b881b985b59481c995c5d5a5c9959606a1b6044820152606490fd5b60405162461bcd60e51b8152602060048201526015602482015274151bdad95b88185b1c9958591e4818dc99585d1959605a1b6044820152606490fd5b3461029a57602036600319011261029a5760206105db600435612adf565b611b09611afd36612443565b90610e829392936128a4565b90611b1a620f4240918210156129fc565b611b2634600554612a3c565b600555611b3534600754612a3c565b60075560018060a01b03806004541660405193838552602094827fb7555d949a897acb395f95e3f2df8b700519404826bb13cd6526b756f6a1c907873393a3604051611b8081612493565b60008152604051908682019363707a02cd60e11b85526084830190602484015286604484015260606064840152815180915260a48301908860a48260051b8601019301916000905b8a838310611f9e57505050505081611bec600093849303601f1981018352826124ff565b516101679482865af191611bfe612aaf565b9215611f83578251830160608488830192031261029a57611c20878501613834565b90611c2d60408601613842565b946060810151906001600160401b03821161029a570181603f8201121561029a578881015160408a611c5e836127b5565b611c6a835191826124ff565b838152019160051b83010192831161029a5760408a9201905b838210611f6c57505050505b60030b60168103611f2457506000809185600454166040518881523390827fd9cd850143c0756b15b46ebdc8b4ed7701b66aaed30858ee17a225eb005cca2e8c3093a4826040518a81019263eca3691760e01b8452602482015230604482015233606482015289608482015260848152611d08816124ae565b51925af1611d14612aaf565b9015611f1c57858180518101031261029a5785611d319101613834565b60030b60168103611ed0575060065491848301809311611eba5760049260065583835416906040519086825260070b87820152817fad91542866f4da9ebed5a2b1713258f4bf970f84e7b2a0b8aab2de28d11ffffd60403393a360405185815233917f67325b2f3de1d8273fc1aeeaf3b161488fc28427430d9f6b341831dedfc2d633883093a4600d549060405193611dc98561245d565b348552868501914283526040860190815260608601923384526080870194808652600052600b8952604060002096518755516001870155516002860155600385019151166bffffffffffffffffffffffff60a01b8254161790555191015533600052600c82526040600020600d54908054680100000000000000008110156117f157611e5a9160018201815561275b565b819291549060031b91821b91600019901b1916179055611e7b600d54612a49565b600d55604051913483528201524260408201527f64b83944e79c3ce8d4c297411de637c3e102d064677aac0c163976ebdcd6f50e60603392a260018055005b634e487b7160e01b600052601160045260246000fd5b836004541690604051917fcc975f63304dfdaa80a8ecbfbfc654fd86ea8a7cdb68086a0d883f26ad08e4c133938061111f30958291909160206040820193620f4240835260030b910152565b506015611d31565b84600454167f03f5e21a75677e84382c9f010b9f5780b534bb2a966c378fa090d12ba52caa08604051806111b533958291909160206040820193620f4240835260030b910152565b828091611f7884613842565b815201910190611c83565b91506000604051611f9381612493565b526000916015611c8f565b80611fb96001939495969760a3198a820301865288516125b3565b960192019201909291611bc8565b3461029a57600036600319011261029a57611fe0612789565b611fe8613815565b60ff19600254166002557f5db9ee0a495bf2e6ff9c91a7834c1ba4fdd244a5e8aa4e537bd38aeae4b073aa6020604051338152a1005b3461029a57602036600319011261029a57600435600052600b60205260a0604060002080549060018101549060028101546004600180871b03600384015416920154926040519485526020850152604084015260608301526080820152f35b3461029a57602036600319011261029a5760206105db600435612b38565b3461029a57600036600319011261029a5760206105db612baf565b3461029a57600036600319011261029a576020600554604051908152f35b600036600319011261029a576120e8612789565b6120f06128a4565b6120f8612886565b61210960ff600a5460a81c16612826565b60065461225557620186a03410612210573460055534600755606434046001600160401b03811660070b60018060a01b0361217d8160045416604051848152817fb7555d949a897acb395f95e3f2df8b700519404826bb13cd6526b756f6a1c90760203393a38360405191610f5183612493565b5091906016810361116f5750600684905560045460408051600795860b81529390940b602084015233939116917fad91542866f4da9ebed5a2b1713258f4bf970f84e7b2a0b8aab2de28d11ffffd9190a3604080513481526020810192909252429082015233907f64b83944e79c3ce8d4c297411de637c3e102d064677aac0c163976ebdcd6f50e90806060810161090e565b60405162461bcd60e51b815260206004820152601e60248201527f496e73756666696369656e7420696e697469616c206c697175696469747900006044820152606490fd5b60405162461bcd60e51b815260206004820152601860248201527f506f6f6c20616c726561647920696e697469616c697a656400000000000000006044820152606490fd5b3461029a57602036600319011261029a57600060806040516122bb8161245d565b8281528260208201528260408201528260608201520152600435600052600b60205260a060406000206040516122f08161245d565b81549182825260018101549060208301918252600281015460408401908152600180871b0392608060048560038601541694606088019586520154950194855260405195865251602086015251604085015251166060830152516080820152f35b3461029a57600036600319011261029a576020604051620186a08152f35b3461029a57600036600319011261029a57602060ff600a5460a81c166040519015158152f35b3461029a57600061081d82610b3283946123ae36612402565b630aed65f560e11b602086019081526001600160a01b03948516602487015292841660448601529216606484015260848301919091529360a4820190565b600435906001600160a01b038216820361029a57565b608090600319011261029a576001600160a01b03600435818116810361029a5791602435828116810361029a5791604435908116810361029a579060643590565b606090600319011261029a57600435906024359060443590565b60a081019081106001600160401b038211176117f157604052565b604081019081106001600160401b038211176117f157604052565b602081019081106001600160401b038211176117f157604052565b60c081019081106001600160401b038211176117f157604052565b606081019081106001600160401b038211176117f157604052565b608081019081106001600160401b038211176117f157604052565b90601f801991011681019081106001600160401b038211176117f157604052565b6001600160401b0381116117f157601f01601f191660200190565b92919261254782612520565b9161255560405193846124ff565b82948184528183011161029a578281602093846000960137010152565b9080601f8301121561029a5781602061258d9335910161253b565b90565b60005b8381106125a35750506000910152565b8181015183820152602001612593565b906020916125cc81518092818552858086019101612590565b601f01601f1916010190565b90600182811c92168015612608575b60208310146125f257565b634e487b7160e01b600052602260045260246000fd5b91607f16916125e7565b6040519060008260085491612626836125d8565b8083529260019081811690811561269c575060011461264f575b5061264d925003836124ff565b565b6008600090815291506000805160206139da8339815191525b848310612681575061264d935050810160200138612640565b81935090816020925483858a01015201910190918592612668565b90506020925061264d94915060ff191682840152151560051b82010138612640565b60405190600082600954916126d2836125d8565b8083529260019081811690811561269c57506001146126f8575061264d925003836124ff565b6009600090815291506000805160206139fa8339815191525b84831061272a575061264d935050810160200138612640565b81935090816020925483858a01015201910190918592612711565b604090600319011261029a576004359060243590565b80548210156127735760005260206000200190600090565b634e487b7160e01b600052603260045260246000fd5b6000546001600160a01b0316330361279d57565b60405163118cdaa760e01b8152336004820152602490fd5b6001600160401b0381116117f15760051b60200190565b604051906127d98261245d565b6000608083828152826020820152606060408201526060808201520152565b6040519061280582612478565b816000815260206128146127cc565b910152565b8051156127735760200190565b1561282d57565b60405162461bcd60e51b8152602060048201526011602482015270151bdad95b881b9bdd0818dc99585d1959607a1b6044820152606490fd5b8115612870570490565b634e487b7160e01b600052601260045260246000fd5b60ff6002541661289257565b60405163d93c066560e01b8152600490fd5b6002600154146128b5576002600155565b604051633ee5aeb560e01b8152600490fd5b156128ce57565b60405162461bcd60e51b8152602060048201526014602482015273141bdbdb081b9bdd081a5b9a5d1a585b1a5e995960621b6044820152606490fd5b1561291157565b60405162461bcd60e51b815260206004820152601060248201526f139bc812109054881c1c9bdd9a59195960821b6044820152606490fd5b1561295057565b60405162461bcd60e51b815260206004820152602160248201527f55534420616d6f756e74206d7573742062652067726561746572207468616e206044820152600360fc1b6064820152608490fd5b156129a657565b60405162461bcd60e51b815260206004820152602860248201527f4d617475726174696f6e20616d6f756e74206d75737420626520677265617465604482015267072207468616e20360c41b6064820152608490fd5b15612a0357565b60405162461bcd60e51b815260206004820152601160248201527014db1a5c1c1859d948195e18d959591959607a1b6044820152606490fd5b91908201809211611eba57565b6000198114611eba5760010190565b81810292918115918404141715611eba57565b91908203918211611eba57565b90815180825260208080930193019160005b828110612a98575050505090565b835160070b85529381019392810192600101612a8a565b3d15612ada573d90612ac082612520565b91612ace60405193846124ff565b82523d6000602084013e565b606090565b600654908115612aff5761258d91612af691612a58565b60055490612866565b5050600090565b908115612b138115612949565b612b1e82151561299f565b620f4240808402938404141715611eba5761258d91612866565b6006548015612aff5761073a61258d9260055490612a58565b60ff600a5460a81c1615612ba4576006546000918115612b9957612b7b8261073a60055486612a58565b9161271090818502918583041485151715611eba5761258d91612866565b600092508291508190565b600090600090600090565b6006548015612bc75761258d90606460075404612866565b50600090565b60ff600a5460a81c16158015612c00575b612bfb576007541560011715611eba576006541561287057600090565b600090565b5060065415612bde565b8060030b906016821461371257600982146136bd57600a821461365c576007821461360457600f82146135a3576010821461354257601e82146134f4576022821461349357606f82146134445760aa82146133e35760ab82146133915760ae821461333d5760af82146132dc5760be821461328c5760bf82146132335760a882146131d25760a982146131715760bd821461312357609b82146130d757601a821461308d57601b82146130435760268214612fea57604091828114612f935760418114612f27576101178114612ecf576101458114612e70576101468114612e11576101478114612da85761014814612d54576033612d1163ffffffff61258d9316613737565b9251809372554e4b4e4f574e5f4552524f525f434f44455f60681b6020830152612d448151809260208686019101612590565b81010360138101845201826124ff565b5072206d616e79206368696c64207265636f72647360681b815191612d78836124c9565b603383527f4d41585f4348494c445f5245434f5244535f4558434545444544202d20546f6f602084015282015290565b50507f6666696369656e742062616c616e636520666f722073746f726167652072656e815191612dd7836124e4565b604183527f494e53554646494349454e545f53544f524147455f52454e54202d20496e73756020840152820152601d60fa1b606082015290565b50507f6e76616c6964207369676e617475726520666f7220707265636f6d70696c6500815191612e40836124c9565b603f83527f494e56414c49445f505245434f4d50494c455f5349474e4154555245202d2049602084015282015290565b50507f6e74697469657320696e20707269636520726567696d65207265616368656400815191612e9f836124c9565b603f83527f4d41585f454e5449544945535f43524541544544202d204d6178696d756d2065602084015282015290565b5050751cdd5cc81b9bd9194819d85cc8195e1a185d5cdd195960521b815191612ef7836124c9565b603683527f434f4e53454e5355535f4741535f455848415553544544202d20436f6e73656e602084015282015290565b50507f616e73616374696f6e2068617320746f6f206d616e79206e6573746564206c61815191612f56836124e4565b604483527f5452414e53414354494f4e5f544f4f5f4d414e595f4c4159455253202d2054726020840152820152637965727360e01b606082015290565b5050741bdb88195e18d959591cc81cda5e99481b1a5b5a5d605a1b815191612fba836124c9565b603583527f5452414e53414354494f4e5f4f56455253495a45202d205472616e7361637469602084015282015290565b5050604051612ff8816124c9565b603581527f494e56414c49445f4b45595f454e434f44494e47202d204b657920656e636f646020820152741a5b99c8199bdc9b585d081a5cc81a5b9d985b1a59605a1b604082015290565b5050604051613051816124c9565b602681527f4241445f454e434f44494e47202d204b657920656e636f64696e6720697320696020820152651b9d985b1a5960d21b604082015290565b505060405161309b816124c9565b602681527f4b45595f5245515549524544202d205265717569726564206b6579206973206d602082015265697373696e6760d01b604082015290565b50506040516130e5816124c9565b602881527f494e56414c49445f41444d494e5f4b4559202d2041646d696e206b6579206973602082015267081a5b9d985b1a5960c21b604082015290565b5050604051613131816124c9565b602a81527f494e56414c49445f535550504c595f4b4559202d20537570706c79206b6579206020820152691a5cc81a5b9d985b1a5960b21b604082015290565b505060405161317f816124c9565b603e81527f494e56414c49445f544f4b454e5f494e495449414c5f535550504c59202d204960208201527f6e697469616c20737570706c792076616c756520697320696e76616c69640000604082015290565b50506040516131e0816124c9565b603881527f494e56414c49445f544f4b454e5f444543494d414c53202d20546f6b656e206460208201527f6563696d616c732076616c756520697320696e76616c69640000000000000000604082015290565b5050604051613241816124c9565b603581527f544f4b454e5f4e414d455f544f4f5f4c4f4e47202d20546f6b656e206e616d6560208201527408195e18d959591cc81b195b99dd1a081b1a5b5a5d605a1b604082015290565b505060405161329a816124c9565b602c81527f4d495353494e475f544f4b454e5f4e414d45202d20546f6b656e206e616d652060208201526b1b9bdd081c1c9bdd9a59195960a21b604082015290565b50506040516132ea816124c9565b603981527f544f4b454e5f53594d424f4c5f544f4f5f4c4f4e47202d20546f6b656e20737960208201527f6d626f6c2065786365656473206c656e677468206c696d697400000000000000604082015290565b505060405161334b816124c9565b603081527f4d495353494e475f544f4b454e5f53594d424f4c202d20546f6b656e2073796d60208201526f189bdb081b9bdd081c1c9bdd9a59195960821b604082015290565b505060405161339f816124c9565b602e81527f494e56414c49445f544f4b454e5f53594d424f4c202d20546f6b656e2073796d60208201526d189bdb081a5cc81a5b9d985b1a5960921b604082015290565b50506040516133f1816124c9565b603d81527f494e56414c49445f54524541535552595f4143434f554e545f464f525f544f4b60208201527f454e202d205472656173757279206163636f756e7420696e76616c6964000000604082015290565b5050604051613452816124c9565b602b81527f4d41585f4741535f4c494d49545f4558434545444544202d20476173206c696d60208201526a1a5d08195e18d95959195960aa1b604082015290565b50506040516134a1816124c9565b603881527f434f4e54524143545f455845435554494f4e5f455843455054494f4e202d204360208201527f6f6e747261637420657865637574696f6e206661696c65640000000000000000604082015290565b5050604051613502816124c9565b602a81527f494e53554646494349454e545f474153202d204e6f7420656e6f7567682067616020820152691cc81cdd5c1c1b1a595960b21b604082015290565b5050604051613550816124c9565b603e81527f494e56414c49445f434f4e54524143545f4944202d20436f6e7472616374204960208201527f4420697320696e76616c6964206f7220646f6573206e6f742065786973740000604082015290565b50506040516135b1816124c9565b603c81527f494e56414c49445f4143434f554e545f4944202d204163636f756e742049442060208201527f697320696e76616c6964206f7220646f6573206e6f7420657869737400000000604082015290565b5050604051613612816124c9565b603481527f494e56414c49445f5349474e4154555245202d205472616e73616374696f6e206020820152731cda59db985d1d5c99481a5cc81a5b9d985b1a5960621b604082015290565b505060405161366a816124c9565b604081527f494e53554646494349454e545f50415945525f42414c414e4345202d2050617960208201527f6572206163636f756e742068617320696e73756666696369656e742048424152604082015290565b50506040516136cb816124c9565b603181527f494e53554646494349454e545f54585f464545202d204e6f7420656e6f7567686020820152700819d85ccbd99959481c1c9bdd9a591959607a1b604082015290565b505060405161372081612478565b60078152665355434345535360c81b602082015290565b80156137f75780816000925b6137e357508061375283612520565b9261376060405194856124ff565b808452601f1961376f82612520565b01366020860137915b61378157505090565b600019820191808311611eba5782600a9081840493828502928584041485151715611eba576137b360ff938492612a6b565b16603001918211611eba57855111156127735760f81b6001600160f81b03191660001a908401601f015380613778565b916137ef600a91612a49565b920480613743565b5060405161380481612478565b60018152600360fc1b602082015290565b60ff600254161561382257565b604051638dfc202b60e01b8152600490fd5b51908160030b820361029a57565b51908160070b820361029a57565b91906040918251906020948583019363707a02cd60e11b8552608484019160018060a01b0316602485015260070b604484015260606064840152815180915260a48301908660a48260051b8601019301916000905b888383106139b057505050505091816138cb60009493859403601f1981018352826124ff565b5190826101675af1916138dc612aaf565b92600090156139915750825183019060608482840193031261029a57613903818501613834565b9161390f848601613842565b946060810151906001600160401b03821161029a57019381603f8601121561029a57828501519061393f826127b5565b9561394c825197886124ff565b828752818588019360051b82010193841161029a5701905b82821061397a575050505091905b909160030b92565b83809161398684613842565b815201910190613964565b925050519061399f82612493565b808252368137601590600090613972565b806139cb6001939495969760a3198a820301865288516125b3565b9601920192019092916138a556fef3f7a9fe364faab93b216da50a3214154f22a0a2b415b23a84c8169e8b636ee36e1540171b6c0c960b71a7020d9f60077f6af931a8bbf590da0223dacf75c7afa26469706673582212207342578eb52188513c4b99d8a9230bd82a1b69a605529b95e8a9aa840d5a509f64736f6c63430008140033","opcodes":"PUSH1 0x80 CALLVALUE PUSH3 0x54D JUMPI PUSH1 0x1F PUSH3 0x3FC2 CODESIZE DUP2 SWAP1 SUB SWAP2 DUP3 ADD PUSH1 0x1F NOT AND DUP4 ADD SWAP2 PUSH1 0x1 PUSH1 0x1 PUSH1 0x40 SHL SUB DUP4 GT DUP5 DUP5 LT OR PUSH3 0x436 JUMPI DUP1 DUP5 SWAP3 PUSH1 0x20 SWAP5 PUSH1 0x40 MSTORE DUP4 CODECOPY DUP2 ADD SUB SLT PUSH3 0x54D JUMPI MLOAD PUSH1 0x1 PUSH1 0x1 PUSH1 0xA0 SHL SUB DUP1 DUP3 AND SWAP2 DUP3 SWAP1 SUB PUSH3 0x54D JUMPI DUP2 ISZERO PUSH3 0x534 JUMPI PUSH1 0x0 SLOAD DUP3 PUSH1 0x1 DUP1 PUSH1 0xA0 SHL SUB NOT DUP3 AND OR PUSH1 0x0 SSTORE AND PUSH32 0x8BE0079C531659141344CD1FD0A4F28419497F9722A3DAAFE3B4186F6B6457E0 PUSH1 0x0 DUP1 LOG3 PUSH1 0x1 DUP1 DUP1 SSTORE PUSH1 0x2 DUP1 SLOAD PUSH2 0x100 PUSH1 0x1 PUSH1 0xA8 SHL SUB NOT AND DUP2 SSTORE PUSH1 0x3 PUSH1 0x20 SWAP1 DUP2 MSTORE PUSH32 0x3617319A054D772F909F7C479A2CEBE5066E836A939412E32403C99029B92EFF SWAP3 SWAP1 SWAP3 SSTORE PUSH32 0xA15BC60C955C405D20D9149C709E2460F1C2D9A497496A7F46004D1772C3054C SSTORE PUSH1 0x4 PUSH32 0xC3A24B0501BD2C13A7E57F2DB4369EC4C223447539FC0724A9D55AC4A06EBD4D SSTORE PUSH1 0x8 PUSH32 0xCBC4E5FB02C3D1DE23A9F1E014B4D2EE5AEAEA9505DF5E855C9210BF472495AF SSTORE PUSH1 0x10 PUSH32 0x83EC6A1F0257B830B5E016457C9CF1435391BF56CC98F369A58A54FE93772465 SSTORE PUSH32 0x405AAD32E1ADBAC89BB7F176E338B8FC6E994CA210C9BB7BDCA249B465942250 SSTORE PUSH1 0x6 PUSH1 0x0 MSTORE PUSH1 0x40 PUSH32 0xC69056F16CBAA3C616B828E333AB7D3A32310765507F8F58359E99EBB7A885F3 DUP2 SWAP1 SSTORE MLOAD PUSH1 0xA0 DUP2 ADD PUSH1 0x1 PUSH1 0x1 PUSH1 0x40 SHL SUB DUP2 GT DUP3 DUP3 LT OR PUSH3 0x436 JUMPI PUSH1 0x40 MSTORE PUSH3 0x1D8 PUSH3 0x552 JUMP JUMPDEST PUSH1 0x0 DUP2 MSTORE DUP2 MSTORE PUSH3 0x1E8 PUSH3 0x552 JUMP JUMPDEST PUSH1 0x0 DUP2 MSTORE PUSH1 0x20 DUP3 ADD MSTORE PUSH1 0x0 PUSH1 0x40 DUP3 ADD MSTORE PUSH1 0x0 PUSH1 0x60 DUP3 ADD MSTORE PUSH1 0x0 PUSH1 0x80 DUP3 ADD MSTORE DUP1 MLOAD SWAP1 DUP2 MLOAD PUSH1 0x1 DUP1 PUSH1 0x40 SHL SUB DUP2 GT PUSH3 0x436 JUMPI PUSH1 0x8 SLOAD PUSH1 0x1 DUP2 DUP2 SHR SWAP2 AND DUP1 ISZERO PUSH3 0x529 JUMPI JUMPDEST PUSH1 0x20 DUP3 LT EQ PUSH3 0x415 JUMPI PUSH1 0x1F DUP2 GT PUSH3 0x4C3 JUMPI JUMPDEST POP PUSH1 0x20 SWAP3 PUSH1 0x1F DUP3 GT PUSH1 0x1 EQ PUSH3 0x458 JUMPI SWAP3 DUP2 SWAP3 SWAP4 PUSH1 0x0 SWAP3 PUSH3 0x44C JUMPI JUMPDEST POP POP DUP2 PUSH1 0x1 SHL SWAP2 PUSH1 0x0 NOT SWAP1 PUSH1 0x3 SHL SHR NOT AND OR PUSH1 0x8 SSTORE JUMPDEST PUSH1 0x20 DUP2 ADD MLOAD DUP1 MLOAD SWAP1 SWAP2 SWAP1 PUSH1 0x1 PUSH1 0x1 PUSH1 0x40 SHL SUB DUP2 GT PUSH3 0x436 JUMPI PUSH1 0x9 SLOAD PUSH1 0x1 DUP2 DUP2 SHR SWAP2 AND DUP1 ISZERO PUSH3 0x42B JUMPI JUMPDEST PUSH1 0x20 DUP3 LT EQ PUSH3 0x415 JUMPI PUSH1 0x1F DUP2 GT PUSH3 0x3AB JUMPI JUMPDEST POP PUSH1 0x20 SWAP3 PUSH1 0x1F DUP3 GT PUSH1 0x1 EQ PUSH3 0x340 JUMPI SWAP3 DUP2 SWAP3 SWAP4 PUSH1 0x0 SWAP3 PUSH3 0x334 JUMPI JUMPDEST POP POP DUP2 PUSH1 0x1 SHL SWAP2 PUSH1 0x0 NOT SWAP1 PUSH1 0x3 SHL SHR NOT AND OR PUSH1 0x9 SSTORE JUMPDEST PUSH1 0xFF PUSH1 0x40 DUP3 ADD MLOAD AND SWAP1 PUSH1 0xA SLOAD SWAP2 PUSH2 0x100 PUSH1 0x1 PUSH1 0xA8 SHL SUB PUSH1 0x60 DUP4 ADD MLOAD PUSH1 0x8 SHL AND SWAP2 PUSH1 0x80 PUSH1 0xFF PUSH1 0xA8 SHL SWAP2 ADD MLOAD ISZERO ISZERO PUSH1 0xA8 SHL AND SWAP3 PUSH1 0x1 DUP1 PUSH1 0xB0 SHL SUB NOT AND OR OR OR PUSH1 0xA SSTORE PUSH1 0x40 MLOAD PUSH2 0x3A4F SWAP1 DUP2 PUSH3 0x573 DUP3 CODECOPY RETURN JUMPDEST ADD MLOAD SWAP1 POP CODESIZE DUP1 PUSH3 0x2CE JUMP JUMPDEST PUSH1 0x1F NOT DUP3 AND SWAP4 PUSH1 0x9 PUSH1 0x0 MSTORE PUSH1 0x20 PUSH1 0x0 KECCAK256 SWAP2 PUSH1 0x0 JUMPDEST DUP7 DUP2 LT PUSH3 0x392 JUMPI POP DUP4 PUSH1 0x1 SWAP6 SWAP7 LT PUSH3 0x378 JUMPI JUMPDEST POP POP POP DUP2 SHL ADD PUSH1 0x9 SSTORE PUSH3 0x2E4 JUMP JUMPDEST ADD MLOAD PUSH1 0x0 NOT PUSH1 0xF8 DUP5 PUSH1 0x3 SHL AND SHR NOT AND SWAP1 SSTORE CODESIZE DUP1 DUP1 PUSH3 0x369 JUMP JUMPDEST SWAP2 SWAP3 PUSH1 0x20 PUSH1 0x1 DUP2 SWAP3 DUP7 DUP6 ADD MLOAD DUP2 SSTORE ADD SWAP5 ADD SWAP3 ADD PUSH3 0x354 JUMP JUMPDEST PUSH1 0x9 PUSH1 0x0 MSTORE PUSH32 0x6E1540171B6C0C960B71A7020D9F60077F6AF931A8BBF590DA0223DACF75C7AF PUSH1 0x1F DUP4 ADD PUSH1 0x5 SHR DUP2 ADD SWAP2 PUSH1 0x20 DUP5 LT PUSH3 0x40A JUMPI JUMPDEST PUSH1 0x1F ADD PUSH1 0x5 SHR ADD SWAP1 JUMPDEST DUP2 DUP2 LT PUSH3 0x3FD JUMPI POP PUSH3 0x2B1 JUMP JUMPDEST PUSH1 0x0 DUP2 SSTORE PUSH1 0x1 ADD PUSH3 0x3EE JUMP JUMPDEST SWAP1 SWAP2 POP DUP2 SWAP1 PUSH3 0x3E5 JUMP JUMPDEST PUSH4 0x4E487B71 PUSH1 0xE0 SHL PUSH1 0x0 MSTORE PUSH1 0x22 PUSH1 0x4 MSTORE PUSH1 0x24 PUSH1 0x0 REVERT JUMPDEST SWAP1 PUSH1 0x7F AND SWAP1 PUSH3 0x29D JUMP JUMPDEST PUSH4 0x4E487B71 PUSH1 0xE0 SHL PUSH1 0x0 MSTORE PUSH1 0x41 PUSH1 0x4 MSTORE PUSH1 0x24 PUSH1 0x0 REVERT JUMPDEST ADD MLOAD SWAP1 POP CODESIZE DUP1 PUSH3 0x25C JUMP JUMPDEST PUSH1 0x1F NOT DUP3 AND SWAP4 PUSH1 0x8 PUSH1 0x0 MSTORE PUSH1 0x20 PUSH1 0x0 KECCAK256 SWAP2 PUSH1 0x0 JUMPDEST DUP7 DUP2 LT PUSH3 0x4AA JUMPI POP DUP4 PUSH1 0x1 SWAP6 SWAP7 LT PUSH3 0x490 JUMPI JUMPDEST POP POP POP DUP2 SHL ADD PUSH1 0x8 SSTORE PUSH3 0x272 JUMP JUMPDEST ADD MLOAD PUSH1 0x0 NOT PUSH1 0xF8 DUP5 PUSH1 0x3 SHL AND SHR NOT AND SWAP1 SSTORE CODESIZE DUP1 DUP1 PUSH3 0x481 JUMP JUMPDEST SWAP2 SWAP3 PUSH1 0x20 PUSH1 0x1 DUP2 SWAP3 DUP7 DUP6 ADD MLOAD DUP2 SSTORE ADD SWAP5 ADD SWAP3 ADD PUSH3 0x46C JUMP JUMPDEST PUSH1 0x8 PUSH1 0x0 MSTORE PUSH32 0xF3F7A9FE364FAAB93B216DA50A3214154F22A0A2B415B23A84C8169E8B636EE3 PUSH1 0x1F DUP4 ADD PUSH1 0x5 SHR DUP2 ADD PUSH1 0x20 DUP5 LT PUSH3 0x521 JUMPI JUMPDEST PUSH1 0x1F DUP4 ADD PUSH1 0x5 SHR DUP3 ADD DUP2 LT PUSH3 0x514 JUMPI POP POP PUSH3 0x23F JUMP JUMPDEST PUSH1 0x0 DUP2 SSTORE PUSH1 0x1 ADD PUSH3 0x4FC JUMP JUMPDEST POP DUP1 PUSH3 0x4FC JUMP JUMPDEST SWAP1 PUSH1 0x7F AND SWAP1 PUSH3 0x22B JUMP JUMPDEST PUSH1 0x40 MLOAD PUSH4 0x1E4FBDF7 PUSH1 0xE0 SHL DUP2 MSTORE PUSH1 0x0 PUSH1 0x4 DUP3 ADD MSTORE PUSH1 0x24 SWAP1 REVERT JUMPDEST PUSH1 0x0 DUP1 REVERT JUMPDEST PUSH1 0x40 MLOAD SWAP1 PUSH1 0x20 DUP3 ADD PUSH1 0x1 PUSH1 0x1 PUSH1 0x40 SHL SUB DUP2 GT DUP4 DUP3 LT OR PUSH3 0x436 JUMPI PUSH1 0x40 MSTORE JUMP INVALID PUSH1 0x80 DUP1 PUSH1 0x40 MSTORE PUSH1 0x4 CALLDATASIZE LT ISZERO PUSH2 0x52 JUMPI JUMPDEST POP CALLDATASIZE ISZERO PUSH2 0x50 JUMPI PUSH1 0x40 MLOAD PUSH3 0x461BCD PUSH1 0xE5 SHL DUP2 MSTORE PUSH1 0x20 PUSH1 0x4 DUP3 ADD MSTORE PUSH1 0x12 PUSH1 0x24 DUP3 ADD MSTORE PUSH18 0x119D5B98DD1A5BDB881B9BDD08199BDD5B99 PUSH1 0x72 SHL PUSH1 0x44 DUP3 ADD MSTORE PUSH1 0x64 SWAP1 REVERT JUMPDEST STOP JUMPDEST PUSH1 0x0 CALLDATALOAD PUSH1 0xE0 SHR SWAP1 DUP2 PUSH4 0x15DACBEA EQ PUSH2 0x2395 JUMPI POP DUP1 PUSH4 0x185C112A EQ PUSH2 0x236F JUMPI DUP1 PUSH4 0x21B77D63 EQ PUSH2 0x2351 JUMPI DUP1 PUSH4 0x240F1B62 EQ PUSH2 0x229A JUMPI DUP1 PUSH4 0x250E6DE0 EQ PUSH2 0x20D4 JUMPI DUP1 PUSH4 0x28999437 EQ PUSH2 0x20B6 JUMPI DUP1 PUSH4 0x2FB9125D EQ PUSH2 0x209B JUMPI DUP1 PUSH4 0x34111BBF EQ PUSH2 0x207D JUMPI DUP1 PUSH4 0x3474D1F9 EQ PUSH2 0x201E JUMPI DUP1 PUSH4 0x3F4BA83A EQ PUSH2 0x1FC7 JUMPI DUP1 PUSH4 0x422F1043 EQ PUSH2 0x1AF1 JUMPI DUP1 PUSH4 0x42C649DE EQ PUSH2 0x1AD3 JUMPI DUP1 PUSH4 0x4EDEC1FF EQ PUSH2 0x11FD JUMPI DUP1 PUSH4 0x545466A5 EQ PUSH2 0xE69 JUMPI DUP1 PUSH4 0x5962A941 EQ PUSH2 0x2BD JUMPI DUP1 PUSH4 0x5C975ABB EQ PUSH2 0xE46 JUMPI DUP1 PUSH4 0x5FCBD285 EQ PUSH2 0xE1D JUMPI DUP1 PUSH4 0x60246C88 EQ PUSH2 0xDEB JUMPI DUP1 PUSH4 0x618DC65E EQ PUSH2 0xCCF JUMPI DUP1 PUSH4 0x6ADDB663 EQ PUSH2 0xC53 JUMPI DUP1 PUSH4 0x715018A6 EQ PUSH2 0xBFA JUMPI DUP1 PUSH4 0x8456CB59 EQ PUSH2 0xBA0 JUMPI DUP1 PUSH4 0x8DA5CB5B EQ PUSH2 0xB77 JUMPI DUP1 PUSH4 0x9B23D3D9 EQ PUSH2 0xAD7 JUMPI DUP1 PUSH4 0x9D7DE6B3 EQ PUSH2 0x6E8 JUMPI DUP1 PUSH4 0xA78C849B EQ PUSH2 0x6C4 JUMPI DUP1 PUSH4 0xABB1DC44 EQ PUSH2 0x5E3 JUMPI DUP1 PUSH4 0xB79C41A2 EQ PUSH2 0x5C2 JUMPI DUP1 PUSH4 0xBBBAEE4C EQ PUSH2 0x580 JUMPI DUP1 PUSH4 0xBE591129 EQ PUSH2 0x53E JUMPI DUP1 PUSH4 0xBF333F2C EQ PUSH2 0x522 JUMPI DUP1 PUSH4 0xC6E5D8F6 EQ PUSH2 0x46E JUMPI DUP1 PUSH4 0xCF2C0334 EQ PUSH2 0x416 JUMPI DUP1 PUSH4 0xD4C3EEA0 EQ PUSH2 0x3F8 JUMPI DUP1 PUSH4 0xD73792A9 EQ PUSH2 0x3DB JUMPI DUP1 PUSH4 0xDB2E21BC EQ PUSH2 0x2DB JUMPI DUP1 PUSH4 0xEA04F155 EQ PUSH2 0x2BD JUMPI DUP1 PUSH4 0xEF6283D9 EQ PUSH2 0x29F JUMPI PUSH4 0xF2FDE38B EQ PUSH2 0x20C JUMPI CODESIZE PUSH2 0xF JUMP JUMPDEST CALLVALUE PUSH2 0x29A JUMPI PUSH1 0x20 CALLDATASIZE PUSH1 0x3 NOT ADD SLT PUSH2 0x29A JUMPI PUSH2 0x225 PUSH2 0x23EC JUMP JUMPDEST PUSH2 0x22D PUSH2 0x2789 JUMP JUMPDEST PUSH1 0x1 PUSH1 0x1 PUSH1 0xA0 SHL SUB SWAP1 DUP2 AND SWAP1 DUP2 ISZERO PUSH2 0x281 JUMPI PUSH1 0x0 SLOAD DUP3 PUSH12 0xFFFFFFFFFFFFFFFFFFFFFFFF PUSH1 0xA0 SHL DUP3 AND OR PUSH1 0x0 SSTORE AND PUSH32 0x8BE0079C531659141344CD1FD0A4F28419497F9722A3DAAFE3B4186F6B6457E0 PUSH1 0x0 DUP1 LOG3 STOP JUMPDEST PUSH1 0x40 MLOAD PUSH4 0x1E4FBDF7 PUSH1 0xE0 SHL DUP2 MSTORE PUSH1 0x0 PUSH1 0x4 DUP3 ADD MSTORE PUSH1 0x24 SWAP1 REVERT JUMPDEST PUSH1 0x0 DUP1 REVERT JUMPDEST CALLVALUE PUSH2 0x29A JUMPI PUSH1 0x0 CALLDATASIZE PUSH1 0x3 NOT ADD SLT PUSH2 0x29A JUMPI PUSH1 0x20 PUSH1 0x6 SLOAD PUSH1 0x40 MLOAD SWAP1 DUP2 MSTORE RETURN JUMPDEST CALLVALUE PUSH2 0x29A JUMPI PUSH1 0x0 CALLDATASIZE PUSH1 0x3 NOT ADD SLT PUSH2 0x29A JUMPI PUSH1 0x20 PUSH1 0xD SLOAD PUSH1 0x40 MLOAD SWAP1 DUP2 MSTORE RETURN JUMPDEST CALLVALUE PUSH2 0x29A JUMPI PUSH1 0x0 CALLDATASIZE PUSH1 0x3 NOT ADD SLT PUSH2 0x29A JUMPI PUSH2 0x2F4 PUSH2 0x2789 JUMP JUMPDEST PUSH2 0x2FC PUSH2 0x3815 JUMP JUMPDEST SELFBALANCE DUP1 ISZERO PUSH2 0x3A0 JUMPI PUSH1 0x1 DUP1 PUSH1 0xA0 SHL SUB PUSH1 0x0 DUP1 DUP1 DUP1 DUP6 DUP6 DUP3 SLOAD AND GAS CALL PUSH2 0x31E PUSH2 0x2AAF JUMP JUMPDEST POP ISZERO PUSH2 0x35B JUMPI PUSH1 0x40 PUSH32 0x2E4FB6077D4ACF86E12BB7411FB82B2B3EAA6A49787F4B1E17B423E7EA841169 SWAP2 PUSH1 0x0 SLOAD AND SWAP3 DUP2 MLOAD SWAP1 DUP2 MSTORE TIMESTAMP PUSH1 0x20 DUP3 ADD MSTORE LOG2 STOP JUMPDEST PUSH1 0x40 MLOAD PUSH3 0x461BCD PUSH1 0xE5 SHL DUP2 MSTORE PUSH1 0x20 PUSH1 0x4 DUP3 ADD MSTORE PUSH1 0x1B PUSH1 0x24 DUP3 ADD MSTORE PUSH32 0x456D657267656E6379207769746864726177616C206661696C65640000000000 PUSH1 0x44 DUP3 ADD MSTORE PUSH1 0x64 SWAP1 REVERT JUMPDEST PUSH1 0x40 MLOAD PUSH3 0x461BCD PUSH1 0xE5 SHL DUP2 MSTORE PUSH1 0x20 PUSH1 0x4 DUP3 ADD MSTORE PUSH1 0x13 PUSH1 0x24 DUP3 ADD MSTORE PUSH19 0x4E6F204842415220746F207769746864726177 PUSH1 0x68 SHL PUSH1 0x44 DUP3 ADD MSTORE PUSH1 0x64 SWAP1 REVERT JUMPDEST CALLVALUE PUSH2 0x29A JUMPI PUSH1 0x0 CALLDATASIZE PUSH1 0x3 NOT ADD SLT PUSH2 0x29A JUMPI PUSH1 0x20 PUSH1 0x40 MLOAD PUSH2 0x2710 DUP2 MSTORE RETURN JUMPDEST CALLVALUE PUSH2 0x29A JUMPI PUSH1 0x0 CALLDATASIZE PUSH1 0x3 NOT ADD SLT PUSH2 0x29A JUMPI PUSH1 0x20 PUSH1 0x7 SLOAD PUSH1 0x40 MLOAD SWAP1 DUP2 MSTORE RETURN JUMPDEST CALLVALUE PUSH2 0x29A JUMPI PUSH1 0x40 CALLDATASIZE PUSH1 0x3 NOT ADD SLT PUSH2 0x29A JUMPI PUSH2 0x42F PUSH2 0x23EC JUMP JUMPDEST PUSH1 0x1 PUSH1 0x1 PUSH1 0xA0 SHL SUB AND PUSH1 0x0 SWAP1 DUP2 MSTORE PUSH1 0xC PUSH1 0x20 MSTORE PUSH1 0x40 SWAP1 KECCAK256 DUP1 SLOAD PUSH1 0x24 CALLDATALOAD SWAP2 SWAP1 DUP3 LT ISZERO PUSH2 0x29A JUMPI PUSH1 0x20 SWAP2 PUSH2 0x460 SWAP2 PUSH2 0x275B JUMP JUMPDEST SWAP1 SLOAD PUSH1 0x40 MLOAD SWAP2 PUSH1 0x3 SHL SHR DUP2 MSTORE RETURN JUMPDEST CALLVALUE PUSH2 0x29A JUMPI PUSH1 0x20 DUP1 PUSH1 0x3 NOT CALLDATASIZE ADD SLT PUSH2 0x29A JUMPI PUSH1 0x1 PUSH1 0x1 PUSH1 0xA0 SHL SUB PUSH2 0x490 PUSH2 0x23EC JUMP JUMPDEST AND PUSH1 0x0 MSTORE PUSH1 0xC DUP2 MSTORE PUSH1 0x40 PUSH1 0x0 KECCAK256 PUSH1 0x40 MLOAD SWAP1 DUP2 DUP4 DUP3 SLOAD SWAP2 DUP3 DUP2 MSTORE ADD SWAP1 DUP2 SWAP3 PUSH1 0x0 MSTORE DUP5 PUSH1 0x0 KECCAK256 SWAP1 PUSH1 0x0 JUMPDEST DUP7 DUP3 DUP3 LT PUSH2 0x50E JUMPI DUP7 DUP7 PUSH2 0x4CE DUP3 DUP9 SUB DUP4 PUSH2 0x24FF JUMP JUMPDEST PUSH1 0x40 MLOAD SWAP3 DUP4 SWAP3 DUP2 DUP5 ADD SWAP1 DUP3 DUP6 MSTORE MLOAD DUP1 SWAP2 MSTORE PUSH1 0x40 DUP5 ADD SWAP3 SWAP2 PUSH1 0x0 JUMPDEST DUP3 DUP2 LT PUSH2 0x4F7 JUMPI POP POP POP POP SUB SWAP1 RETURN JUMPDEST DUP4 MLOAD DUP6 MSTORE DUP7 SWAP6 POP SWAP4 DUP2 ADD SWAP4 SWAP3 DUP2 ADD SWAP3 PUSH1 0x1 ADD PUSH2 0x4E8 JUMP JUMPDEST DUP4 SLOAD DUP6 MSTORE SWAP1 SWAP4 ADD SWAP3 PUSH1 0x1 SWAP3 DUP4 ADD SWAP3 ADD PUSH2 0x4B8 JUMP JUMPDEST CALLVALUE PUSH2 0x29A JUMPI PUSH1 0x0 CALLDATASIZE PUSH1 0x3 NOT ADD SLT PUSH2 0x29A JUMPI PUSH1 0x20 PUSH1 0x40 MLOAD PUSH1 0x1E DUP2 MSTORE RETURN JUMPDEST CALLVALUE PUSH2 0x29A JUMPI PUSH1 0x20 CALLDATASIZE PUSH1 0x3 NOT ADD SLT PUSH2 0x29A JUMPI PUSH1 0x4 CALLDATALOAD DUP1 PUSH1 0x3 SIGNEXTEND DUP2 SUB PUSH2 0x29A JUMPI PUSH2 0x568 PUSH2 0x57C SWAP2 PUSH2 0x2C0A JUMP JUMPDEST PUSH1 0x40 MLOAD SWAP2 DUP3 SWAP2 PUSH1 0x20 DUP4 MSTORE PUSH1 0x20 DUP4 ADD SWAP1 PUSH2 0x25B3 JUMP JUMPDEST SUB SWAP1 RETURN JUMPDEST CALLVALUE PUSH2 0x29A JUMPI PUSH1 0x20 CALLDATASIZE PUSH1 0x3 NOT ADD SLT PUSH2 0x29A JUMPI PUSH2 0x599 PUSH2 0x23EC JUMP JUMPDEST POP PUSH2 0x57C PUSH2 0x5A5 PUSH2 0x2B51 JUMP JUMPDEST PUSH1 0x40 DUP1 MLOAD SWAP4 DUP5 MSTORE PUSH1 0x20 DUP5 ADD SWAP3 SWAP1 SWAP3 MSTORE SWAP1 DUP3 ADD MSTORE SWAP1 DUP2 SWAP1 PUSH1 0x60 DUP3 ADD SWAP1 JUMP JUMPDEST CALLVALUE PUSH2 0x29A JUMPI PUSH1 0x20 PUSH2 0x5DB PUSH2 0x5D5 CALLDATASIZE PUSH2 0x2745 JUMP JUMPDEST SWAP1 PUSH2 0x2B06 JUMP JUMPDEST PUSH1 0x40 MLOAD SWAP1 DUP2 MSTORE RETURN JUMPDEST CALLVALUE PUSH2 0x29A JUMPI PUSH1 0x0 CALLDATASIZE PUSH1 0x3 NOT ADD SLT PUSH2 0x29A JUMPI PUSH1 0x0 PUSH1 0x80 PUSH1 0x40 MLOAD PUSH2 0x604 DUP2 PUSH2 0x245D JUMP JUMPDEST PUSH1 0x60 DUP2 MSTORE PUSH1 0x60 PUSH1 0x20 DUP3 ADD MSTORE DUP3 PUSH1 0x40 DUP3 ADD MSTORE DUP3 PUSH1 0x60 DUP3 ADD MSTORE ADD MSTORE PUSH2 0x696 PUSH1 0x40 MLOAD PUSH2 0x62C DUP2 PUSH2 0x245D JUMP JUMPDEST PUSH2 0x634 PUSH2 0x2612 JUMP JUMPDEST DUP2 MSTORE PUSH2 0x63E PUSH2 0x26BE JUMP JUMPDEST PUSH1 0x20 DUP3 ADD SWAP1 DUP2 MSTORE PUSH1 0xA SLOAD PUSH1 0x40 DUP4 ADD SWAP2 PUSH1 0xFF DUP3 AND DUP4 MSTORE PUSH1 0x60 DUP5 ADD PUSH1 0xFF PUSH2 0x6A9 PUSH1 0x1 DUP1 PUSH1 0xA0 SHL SUB SWAP4 DUP5 DUP7 PUSH1 0x8 SHR AND DUP5 MSTORE DUP3 PUSH1 0x80 DUP10 ADD SWAP7 PUSH1 0xA8 SHR AND ISZERO ISZERO DUP7 MSTORE PUSH1 0x40 MLOAD SWAP9 DUP10 SWAP9 PUSH1 0x20 DUP11 MSTORE MLOAD PUSH1 0xA0 PUSH1 0x20 DUP12 ADD MSTORE PUSH1 0xC0 DUP11 ADD SWAP1 PUSH2 0x25B3 JUMP JUMPDEST SWAP1 MLOAD DUP9 DUP3 SUB PUSH1 0x1F NOT ADD PUSH1 0x40 DUP11 ADD MSTORE PUSH2 0x25B3 JUMP JUMPDEST SWAP5 MLOAD AND PUSH1 0x60 DUP7 ADD MSTORE MLOAD AND PUSH1 0x80 DUP5 ADD MSTORE MLOAD ISZERO ISZERO PUSH1 0xA0 DUP4 ADD MSTORE SUB SWAP1 RETURN JUMPDEST CALLVALUE PUSH2 0x29A JUMPI PUSH1 0x20 CALLDATASIZE PUSH1 0x3 NOT ADD SLT PUSH2 0x29A JUMPI PUSH2 0x6DD PUSH2 0x23EC JUMP JUMPDEST POP PUSH1 0x20 PUSH2 0x5DB PUSH2 0x2BCD JUMP JUMPDEST CALLVALUE PUSH2 0x29A JUMPI PUSH2 0x6F6 CALLDATASIZE PUSH2 0x2745 JUMP JUMPDEST PUSH2 0x6FE PUSH2 0x28A4 JUMP JUMPDEST PUSH2 0x706 PUSH2 0x2886 JUMP JUMPDEST PUSH2 0x717 PUSH1 0xFF PUSH1 0xA SLOAD PUSH1 0xA8 SHR AND PUSH2 0x2826 JUMP JUMPDEST DUP2 ISZERO PUSH2 0xA99 JUMPI PUSH1 0x6 SLOAD DUP1 ISZERO PUSH2 0xA5D JUMPI PUSH1 0x5 SLOAD PUSH2 0x748 PUSH2 0x73F DUP4 PUSH2 0x73A DUP5 DUP9 PUSH2 0x2A58 JUMP JUMPDEST PUSH2 0x2866 JUMP JUMPDEST SWAP4 DUP5 LT ISZERO PUSH2 0x29FC JUMP JUMPDEST SELFBALANCE DUP4 GT PUSH2 0xA18 JUMPI PUSH2 0x766 SWAP2 PUSH2 0x75E DUP5 DUP7 SWAP4 PUSH2 0x2A6B JUMP JUMPDEST PUSH1 0x5 SSTORE PUSH2 0x2A6B JUMP JUMPDEST PUSH1 0x6 SSTORE PUSH2 0x775 DUP2 PUSH1 0x7 SLOAD PUSH2 0x2A6B JUMP JUMPDEST PUSH1 0x7 SSTORE PUSH1 0x1 PUSH1 0x1 PUSH1 0x40 SHL SUB DUP3 AND PUSH1 0x7 SIGNEXTEND PUSH1 0x40 MLOAD PUSH2 0x791 DUP2 PUSH2 0x2493 JUMP JUMPDEST PUSH1 0x0 DUP2 MSTORE PUSH1 0x0 DUP1 PUSH1 0x1 DUP1 PUSH1 0xA0 SHL SUB SWAP3 PUSH2 0x81D PUSH2 0x82B DUP6 PUSH1 0x4 SLOAD AND SWAP3 DUP4 PUSH32 0xB310AAAC57F9A89F4E3661E38CB8DF5EA9428B82D1BB2B8AB6A77C3F52818F02 PUSH1 0x40 MLOAD DUP11 DUP2 MSTORE PUSH1 0x40 PUSH1 0x20 DUP3 ADD MSTORE DUP1 PUSH2 0x7E9 PUSH1 0x40 DUP3 ADD DUP7 PUSH2 0x2A78 JUMP JUMPDEST SUB SWAP1 LOG2 PUSH1 0x40 MLOAD SWAP3 DUP4 SWAP2 PUSH1 0x20 DUP4 ADD SWAP6 PUSH4 0x6B488683 PUSH1 0xE1 SHL DUP8 MSTORE PUSH1 0x24 DUP5 ADD MSTORE DUP10 PUSH1 0x44 DUP5 ADD MSTORE PUSH1 0x60 PUSH1 0x64 DUP5 ADD MSTORE PUSH1 0x84 DUP4 ADD SWAP1 PUSH2 0x2A78 JUMP JUMPDEST SUB PUSH1 0x1F NOT DUP2 ADD DUP4 MSTORE DUP3 PUSH2 0x24FF JUMP JUMPDEST MLOAD SWAP1 DUP3 PUSH2 0x167 GAS CALL SWAP1 PUSH2 0x83C PUSH2 0x2AAF JUMP JUMPDEST SWAP2 ISZERO PUSH2 0xA0D JUMPI PUSH1 0x40 DUP3 DUP1 MLOAD DUP2 ADD SUB SLT PUSH2 0x29A JUMPI PUSH2 0x867 PUSH1 0x40 PUSH2 0x860 PUSH1 0x20 DUP6 ADD PUSH2 0x3834 JUMP JUMPDEST SWAP4 ADD PUSH2 0x3842 JUMP JUMPDEST SWAP2 JUMPDEST PUSH1 0x3 SIGNEXTEND PUSH1 0x16 DUP2 SUB PUSH2 0x953 JUMPI POP PUSH1 0x4 SLOAD PUSH1 0x40 DUP1 MLOAD PUSH1 0x7 SWAP6 DUP7 SIGNEXTEND DUP2 MSTORE SWAP4 SWAP1 SWAP5 SIGNEXTEND PUSH1 0x20 DUP5 ADD MSTORE AND SWAP2 PUSH32 0x7B2F31B2FFDA9D7A1AC640400C8F7EB1C8D0071689111F45797448A14697587C SWAP2 LOG2 PUSH1 0x0 DUP1 DUP1 DUP1 DUP5 CALLER GAS CALL PUSH2 0x8C2 PUSH2 0x2AAF JUMP JUMPDEST POP ISZERO PUSH2 0x917 JUMPI PUSH2 0x90E PUSH32 0x1DC8BB69DF2B8E91FBDCBFCF93D951B3F0000F085A95FE3F7946D6161439245D SWAP2 PUSH1 0x40 MLOAD SWAP2 DUP3 SWAP2 CALLER SWAP6 TIMESTAMP SWAP2 DUP5 PUSH1 0x40 SWAP2 SWAP5 SWAP4 SWAP3 PUSH1 0x60 DUP3 ADD SWAP6 DUP3 MSTORE PUSH1 0x20 DUP3 ADD MSTORE ADD MSTORE JUMP JUMPDEST SUB SWAP1 LOG2 PUSH1 0x1 DUP1 SSTORE STOP JUMPDEST PUSH1 0x40 MLOAD PUSH3 0x461BCD PUSH1 0xE5 SHL DUP2 MSTORE PUSH1 0x20 PUSH1 0x4 DUP3 ADD MSTORE PUSH1 0x14 PUSH1 0x24 DUP3 ADD MSTORE PUSH20 0x12109054881D1C985B9CD9995C8819985A5B1959 PUSH1 0x62 SHL PUSH1 0x44 DUP3 ADD MSTORE PUSH1 0x64 SWAP1 REVERT JUMPDEST SWAP2 POP PUSH2 0x99D DUP5 PUSH2 0x994 DUP8 PUSH2 0x98B PUSH32 0xCCCB9CA916A4B1199913D752D315547B23A41451AB4C699F6BAE82CECF211B1E SWAP8 SWAP9 PUSH1 0x5 SLOAD PUSH2 0x2A3C JUMP JUMPDEST POP PUSH1 0x6 SLOAD PUSH2 0x2A3C JUMP JUMPDEST POP PUSH1 0x7 SLOAD PUSH2 0x2A3C JUMP JUMPDEST POP PUSH1 0x4 SLOAD AND SWAP3 PUSH2 0x9C5 PUSH1 0x40 MLOAD SWAP3 DUP4 SWAP3 DUP4 SWAP1 SWAP3 SWAP2 PUSH1 0x20 SWAP1 PUSH1 0x40 DUP4 ADD SWAP5 PUSH1 0x7 SIGNEXTEND DUP4 MSTORE PUSH1 0x3 SIGNEXTEND SWAP2 ADD MSTORE JUMP JUMPDEST SUB SWAP1 LOG2 PUSH1 0x40 MLOAD PUSH3 0x461BCD PUSH1 0xE5 SHL DUP2 MSTORE PUSH1 0x20 PUSH1 0x4 DUP3 ADD MSTORE PUSH1 0x18 PUSH1 0x24 DUP3 ADD MSTORE PUSH32 0x48545320746F6B656E206275726E696E67206661696C65640000000000000000 PUSH1 0x44 DUP3 ADD MSTORE PUSH1 0x64 SWAP1 REVERT JUMPDEST PUSH1 0x0 SWAP2 POP PUSH1 0x15 PUSH2 0x869 JUMP JUMPDEST PUSH1 0x40 MLOAD PUSH3 0x461BCD PUSH1 0xE5 SHL DUP2 MSTORE PUSH1 0x20 PUSH1 0x4 DUP3 ADD MSTORE PUSH1 0x19 PUSH1 0x24 DUP3 ADD MSTORE PUSH32 0x496E73756666696369656E74204842415220696E20706F6F6C00000000000000 PUSH1 0x44 DUP3 ADD MSTORE PUSH1 0x64 SWAP1 REVERT JUMPDEST PUSH1 0x40 MLOAD PUSH3 0x461BCD PUSH1 0xE5 SHL DUP2 MSTORE PUSH1 0x20 PUSH1 0x4 DUP3 ADD MSTORE PUSH1 0x14 PUSH1 0x24 DUP3 ADD MSTORE PUSH20 0x139BC81B1A5C5D5A591A5D1E481A5B881C1BDBDB PUSH1 0x62 SHL PUSH1 0x44 DUP3 ADD MSTORE PUSH1 0x64 SWAP1 REVERT JUMPDEST PUSH1 0x40 MLOAD PUSH3 0x461BCD PUSH1 0xE5 SHL DUP2 MSTORE PUSH1 0x20 PUSH1 0x4 DUP3 ADD MSTORE PUSH1 0x16 PUSH1 0x24 DUP3 ADD MSTORE PUSH22 0x139BC81314081D1BDAD95B9CC81CDC1958DA599A5959 PUSH1 0x52 SHL PUSH1 0x44 DUP3 ADD MSTORE PUSH1 0x64 SWAP1 REVERT JUMPDEST CALLVALUE PUSH2 0x29A JUMPI PUSH1 0x0 DUP1 PUSH2 0xB32 PUSH2 0x81D PUSH2 0xAEE CALLDATASIZE PUSH2 0x2402 JUMP JUMPDEST PUSH1 0x40 MLOAD PUSH4 0x9B23D3D9 PUSH1 0xE0 SHL PUSH1 0x20 DUP3 ADD SWAP1 DUP2 MSTORE PUSH1 0x1 PUSH1 0x1 PUSH1 0xA0 SHL SUB SWAP6 DUP7 AND PUSH1 0x24 DUP4 ADD MSTORE SWAP4 DUP6 AND PUSH1 0x44 DUP3 ADD MSTORE SWAP4 SWAP1 SWAP2 AND PUSH1 0x64 DUP5 ADD MSTORE PUSH1 0x84 DUP4 ADD MSTORE SWAP3 SWAP1 SWAP2 DUP3 SWAP1 PUSH1 0xA4 DUP3 ADD SWAP1 JUMP JUMPDEST MLOAD SWAP1 DUP3 PUSH2 0x167 GAS CALL PUSH2 0xB42 PUSH2 0x2AAF JUMP JUMPDEST SWAP1 ISZERO PUSH2 0xB6D JUMPI PUSH1 0x20 DUP2 DUP1 MLOAD DUP2 ADD SUB SLT PUSH2 0x29A JUMPI PUSH2 0xB62 PUSH1 0x20 DUP1 SWAP3 ADD PUSH2 0x3834 JUMP JUMPDEST PUSH1 0x40 MLOAD SWAP1 PUSH1 0x3 SIGNEXTEND DUP2 MSTORE RETURN JUMPDEST POP PUSH1 0x20 PUSH1 0x15 PUSH2 0xB62 JUMP JUMPDEST CALLVALUE PUSH2 0x29A JUMPI PUSH1 0x0 CALLDATASIZE PUSH1 0x3 NOT ADD SLT PUSH2 0x29A JUMPI PUSH1 0x0 SLOAD PUSH1 0x40 MLOAD PUSH1 0x1 PUSH1 0x1 PUSH1 0xA0 SHL SUB SWAP1 SWAP2 AND DUP2 MSTORE PUSH1 0x20 SWAP1 RETURN JUMPDEST CALLVALUE PUSH2 0x29A JUMPI PUSH1 0x0 CALLDATASIZE PUSH1 0x3 NOT ADD SLT PUSH2 0x29A JUMPI PUSH2 0xBB9 PUSH2 0x2789 JUMP JUMPDEST PUSH2 0xBC1 PUSH2 0x2886 JUMP JUMPDEST PUSH1 0x1 PUSH1 0xFF NOT PUSH1 0x2 SLOAD AND OR PUSH1 0x2 SSTORE PUSH32 0x62E78CEA01BEE320CD4E420270B5EA74000D11B0C9F74754EBDBFC544B05A258 PUSH1 0x20 PUSH1 0x40 MLOAD CALLER DUP2 MSTORE LOG1 STOP JUMPDEST CALLVALUE PUSH2 0x29A JUMPI PUSH1 0x0 CALLDATASIZE PUSH1 0x3 NOT ADD SLT PUSH2 0x29A JUMPI PUSH2 0xC13 PUSH2 0x2789 JUMP JUMPDEST PUSH1 0x0 DUP1 SLOAD PUSH1 0x1 PUSH1 0x1 PUSH1 0xA0 SHL SUB NOT DUP2 AND DUP3 SSTORE PUSH1 0x1 PUSH1 0x1 PUSH1 0xA0 SHL SUB AND PUSH32 0x8BE0079C531659141344CD1FD0A4F28419497F9722A3DAAFE3B4186F6B6457E0 DUP3 DUP1 LOG3 STOP JUMPDEST CALLVALUE PUSH2 0x29A JUMPI PUSH1 0x0 CALLDATASIZE PUSH1 0x3 NOT ADD SLT PUSH2 0x29A JUMPI PUSH2 0xC94 PUSH2 0xC6F PUSH2 0x2612 JUMP JUMPDEST PUSH2 0xC77 PUSH2 0x26BE JUMP JUMPDEST PUSH1 0xFF PUSH2 0xCA2 PUSH1 0xA SLOAD SWAP3 PUSH1 0x40 MLOAD SWAP6 DUP7 SWAP6 PUSH1 0xA0 DUP8 MSTORE PUSH1 0xA0 DUP8 ADD SWAP1 PUSH2 0x25B3 JUMP JUMPDEST SWAP1 DUP6 DUP3 SUB PUSH1 0x20 DUP8 ADD MSTORE PUSH2 0x25B3 JUMP JUMPDEST DUP2 DUP4 AND PUSH1 0x40 DUP6 ADD MSTORE PUSH1 0x8 DUP4 SWAP1 SHR PUSH1 0x1 PUSH1 0x1 PUSH1 0xA0 SHL SUB AND PUSH1 0x60 DUP6 ADD MSTORE PUSH1 0xA8 SWAP3 SWAP1 SWAP3 SHR AND ISZERO ISZERO PUSH1 0x80 DUP4 ADD MSTORE SUB SWAP1 RETURN JUMPDEST CALLVALUE PUSH2 0x29A JUMPI PUSH1 0x40 CALLDATASIZE PUSH1 0x3 NOT ADD SLT PUSH2 0x29A JUMPI PUSH2 0xCE8 PUSH2 0x23EC JUMP JUMPDEST PUSH1 0x24 CALLDATALOAD PUSH1 0x1 PUSH1 0x1 PUSH1 0x40 SHL SUB DUP2 GT PUSH2 0x29A JUMPI CALLDATASIZE PUSH1 0x23 DUP3 ADD SLT ISZERO PUSH2 0x29A JUMPI PUSH1 0x0 SWAP2 PUSH2 0x81D PUSH2 0xD5A PUSH2 0xD22 DUP6 SWAP5 CALLDATASIZE SWAP1 PUSH1 0x24 DUP2 PUSH1 0x4 ADD CALLDATALOAD SWAP2 ADD PUSH2 0x253B JUMP JUMPDEST PUSH1 0x40 DUP1 MLOAD PUSH4 0x30C6E32F PUSH1 0xE1 SHL PUSH1 0x20 DUP3 ADD SWAP1 DUP2 MSTORE PUSH1 0x1 PUSH1 0x1 PUSH1 0xA0 SHL SUB SWAP1 SWAP7 AND PUSH1 0x24 DUP3 ADD MSTORE PUSH1 0x44 DUP2 ADD SWAP2 SWAP1 SWAP2 MSTORE SWAP3 DUP4 SWAP2 PUSH1 0x64 DUP4 ADD SWAP1 PUSH2 0x25B3 JUMP JUMPDEST MLOAD SWAP1 DUP3 PUSH2 0x167 GAS CALL PUSH2 0xD6A PUSH2 0x2AAF JUMP JUMPDEST SWAP1 PUSH32 0x4AF4780E06FE8CB9DF64B0794FA6F01399AF979175BB988E35E0E57E594567BC PUSH1 0x40 MLOAD DUP3 ISZERO ISZERO DUP2 MSTORE PUSH1 0x40 PUSH1 0x20 DUP3 ADD MSTORE DUP1 PUSH2 0xDA9 PUSH1 0x40 DUP3 ADD DUP7 PUSH2 0x25B3 JUMP JUMPDEST SUB SWAP1 LOG1 ISZERO PUSH2 0xDD3 JUMPI PUSH1 0x16 JUMPDEST PUSH2 0x57C PUSH1 0x40 MLOAD SWAP3 DUP4 SWAP3 PUSH1 0x3 SIGNEXTEND DUP4 MSTORE PUSH1 0x40 PUSH1 0x20 DUP5 ADD MSTORE PUSH1 0x40 DUP4 ADD SWAP1 PUSH2 0x25B3 JUMP JUMPDEST POP PUSH1 0x40 MLOAD PUSH2 0xDE0 DUP2 PUSH2 0x2493 JUMP JUMPDEST PUSH1 0x0 DUP2 MSTORE PUSH1 0x15 PUSH2 0xDB4 JUMP JUMPDEST CALLVALUE PUSH2 0x29A JUMPI PUSH1 0x0 CALLDATASIZE PUSH1 0x3 NOT ADD SLT PUSH2 0x29A JUMPI PUSH1 0x5 SLOAD PUSH1 0x6 SLOAD PUSH1 0x7 SLOAD PUSH1 0x40 DUP1 MLOAD SWAP4 DUP5 MSTORE PUSH1 0x20 DUP5 ADD SWAP3 SWAP1 SWAP3 MSTORE SWAP1 DUP3 ADD MSTORE PUSH1 0x60 SWAP1 RETURN JUMPDEST CALLVALUE PUSH2 0x29A JUMPI PUSH1 0x0 CALLDATASIZE PUSH1 0x3 NOT ADD SLT PUSH2 0x29A JUMPI PUSH1 0x4 SLOAD PUSH1 0x40 MLOAD PUSH1 0x1 PUSH1 0x1 PUSH1 0xA0 SHL SUB SWAP1 SWAP2 AND DUP2 MSTORE PUSH1 0x20 SWAP1 RETURN JUMPDEST CALLVALUE PUSH2 0x29A JUMPI PUSH1 0x0 CALLDATASIZE PUSH1 0x3 NOT ADD SLT PUSH2 0x29A JUMPI PUSH1 0x20 PUSH1 0xFF PUSH1 0x2 SLOAD AND PUSH1 0x40 MLOAD SWAP1 ISZERO ISZERO DUP2 MSTORE RETURN JUMPDEST PUSH2 0xECE PUSH2 0xED7 PUSH2 0xE78 CALLDATASIZE PUSH2 0x2443 JUMP JUMPDEST SWAP4 SWAP2 PUSH2 0xE82 PUSH2 0x28A4 JUMP JUMPDEST PUSH2 0xE8A PUSH2 0x2886 JUMP JUMPDEST PUSH2 0xE9B PUSH1 0xFF PUSH1 0xA SLOAD PUSH1 0xA8 SHR AND PUSH2 0x2826 JUMP JUMPDEST PUSH2 0xEA8 PUSH1 0x6 SLOAD ISZERO ISZERO PUSH2 0x28C7 JUMP JUMPDEST PUSH2 0xEB3 CALLVALUE ISZERO ISZERO PUSH2 0x290A JUMP JUMPDEST PUSH2 0xEBE DUP2 ISZERO ISZERO PUSH2 0x2949 JUMP JUMPDEST PUSH2 0xEC9 DUP3 ISZERO ISZERO PUSH2 0x299F JUMP JUMPDEST PUSH2 0x2B06 JUMP JUMPDEST SWAP2 DUP3 LT ISZERO PUSH2 0x29FC JUMP JUMPDEST PUSH2 0xEE3 CALLVALUE PUSH1 0x5 SLOAD PUSH2 0x2A3C JUMP JUMPDEST PUSH1 0x5 SSTORE PUSH2 0xEF2 CALLVALUE PUSH1 0x7 SLOAD PUSH2 0x2A3C JUMP JUMPDEST PUSH1 0x7 SSTORE PUSH1 0x1 PUSH1 0x1 PUSH1 0x40 SHL SUB DUP2 AND PUSH1 0x7 SIGNEXTEND PUSH1 0x1 DUP1 PUSH1 0xA0 SHL SUB SWAP1 DUP2 PUSH1 0x4 SLOAD AND SWAP2 PUSH2 0xF5A PUSH1 0x40 MLOAD SWAP4 DUP4 DUP6 MSTORE PUSH1 0x20 SWAP5 DUP2 PUSH32 0xB7555D949A897ACB395F95E3F2DF8B700519404826BB13CD6526B756F6A1C907 DUP8 CALLER SWAP4 LOG3 DUP4 PUSH1 0x40 MLOAD SWAP2 PUSH2 0xF51 DUP4 PUSH2 0x2493 JUMP JUMPDEST PUSH1 0x0 DUP4 MSTORE PUSH2 0x3850 JUMP JUMPDEST POP SWAP2 SWAP1 PUSH1 0x16 DUP2 SUB PUSH2 0x116F JUMPI POP PUSH1 0x0 DUP1 DUP3 PUSH1 0x4 SLOAD AND PUSH1 0x40 MLOAD DUP7 DUP2 MSTORE CALLER SWAP1 DUP3 PUSH32 0xD9CD850143C0756B15B46EBDC8B4ED7701B66AAED30858EE17A225EB005CCA2E DUP11 ADDRESS SWAP4 LOG4 PUSH1 0x40 MLOAD DUP8 DUP2 ADD SWAP2 PUSH4 0xECA36917 PUSH1 0xE0 SHL DUP4 MSTORE PUSH1 0x24 DUP3 ADD MSTORE ADDRESS PUSH1 0x44 DUP3 ADD MSTORE CALLER PUSH1 0x64 DUP3 ADD MSTORE DUP7 PUSH1 0x84 DUP3 ADD MSTORE PUSH1 0x84 DUP2 MSTORE PUSH2 0xFD1 DUP2 PUSH2 0x24AE JUMP JUMPDEST MLOAD SWAP1 DUP3 PUSH2 0x167 GAS CALL PUSH2 0xFE1 PUSH2 0x2AAF JUMP JUMPDEST SWAP1 ISZERO PUSH2 0x1167 JUMPI DUP5 DUP2 DUP1 MLOAD DUP2 ADD SUB SLT PUSH2 0x29A JUMPI DUP5 PUSH2 0xFFE SWAP2 ADD PUSH2 0x3834 JUMP JUMPDEST PUSH1 0x3 SIGNEXTEND PUSH1 0x16 DUP2 SUB PUSH2 0x10D4 JUMPI POP PUSH2 0x1016 DUP6 PUSH1 0x6 SLOAD PUSH2 0x2A3C JUMP JUMPDEST PUSH1 0x6 SSTORE PUSH1 0x4 SLOAD AND SWAP1 DUP2 PUSH32 0xAD91542866F4DA9EBED5A2B1713258F4BF970F84E7B2A0B8AAB2DE28D11FFFFD PUSH1 0x40 MLOAD DUP1 PUSH2 0x1063 CALLER SWAP6 DUP9 DUP4 SWAP1 SWAP3 SWAP2 PUSH1 0x20 SWAP1 PUSH1 0x40 DUP4 ADD SWAP5 PUSH1 0x7 SIGNEXTEND DUP4 MSTORE PUSH1 0x7 SIGNEXTEND SWAP2 ADD MSTORE JUMP JUMPDEST SUB SWAP1 LOG3 PUSH1 0x40 MLOAD SWAP2 DUP3 MSTORE PUSH32 0x67325B2F3DE1D8273FC1AEEAF3B161488FC28427430D9F6B341831DEDFC2D633 CALLER SWAP4 ADDRESS SWAP4 LOG4 PUSH1 0x40 DUP1 MLOAD CALLVALUE DUP2 MSTORE PUSH1 0x20 DUP2 ADD SWAP3 SWAP1 SWAP3 MSTORE TIMESTAMP SWAP1 DUP3 ADD MSTORE CALLER SWAP1 PUSH32 0x64B83944E79C3CE8D4C297411DE637C3E102D064677AAC0C163976EBDCD6F50E SWAP1 DUP1 PUSH1 0x60 DUP2 ADD PUSH2 0x90E JUMP JUMPDEST DUP4 DUP3 PUSH1 0x4 SLOAD AND PUSH32 0xCC975F63304DFDAA80A8ECBFBFC654FD86EA8A7CDB68086A0D883F26AD08E4C1 PUSH1 0x40 MLOAD DUP1 PUSH2 0x111F CALLER SWAP7 ADDRESS SWAP7 DUP4 SWAP1 SWAP3 SWAP2 PUSH1 0x20 SWAP1 PUSH1 0x40 DUP4 ADD SWAP5 PUSH1 0x7 SIGNEXTEND DUP4 MSTORE PUSH1 0x3 SIGNEXTEND SWAP2 ADD MSTORE JUMP JUMPDEST SUB SWAP1 LOG4 PUSH1 0x40 MLOAD PUSH3 0x461BCD PUSH1 0xE5 SHL DUP2 MSTORE PUSH1 0x20 PUSH1 0x4 DUP3 ADD MSTORE PUSH1 0x19 PUSH1 0x24 DUP3 ADD MSTORE PUSH32 0x48545320746F6B656E207472616E73666572206661696C656400000000000000 PUSH1 0x44 DUP3 ADD MSTORE PUSH1 0x64 SWAP1 REVERT JUMPDEST POP PUSH1 0x15 PUSH2 0xFFE JUMP JUMPDEST PUSH1 0x4 SLOAD PUSH1 0x40 DUP1 MLOAD PUSH1 0x7 DUP8 SWAP1 SIGNEXTEND DUP2 MSTORE PUSH1 0x3 SWAP4 SWAP1 SWAP4 SIGNEXTEND PUSH1 0x20 DUP5 ADD MSTORE CALLER SWAP3 SWAP2 DUP5 AND SWAP2 PUSH32 0x3F5E21A75677E84382C9F010B9F5780B534BB2A966C378FA090D12BA52CAA08 SWAP2 DUP2 SWAP1 DUP2 ADD JUMPDEST SUB SWAP1 LOG3 PUSH1 0x40 MLOAD PUSH3 0x461BCD PUSH1 0xE5 SHL DUP2 MSTORE PUSH1 0x20 PUSH1 0x4 DUP3 ADD MSTORE PUSH1 0x18 PUSH1 0x24 DUP3 ADD MSTORE PUSH32 0x48545320746F6B656E206D696E74696E67206661696C65640000000000000000 PUSH1 0x44 DUP3 ADD MSTORE PUSH1 0x64 SWAP1 REVERT JUMPDEST PUSH1 0x40 CALLDATASIZE PUSH1 0x3 NOT ADD SLT PUSH2 0x29A JUMPI PUSH1 0x4 CALLDATALOAD PUSH1 0x1 PUSH1 0x1 PUSH1 0x40 SHL SUB DUP2 GT PUSH2 0x29A JUMPI PUSH2 0x1228 SWAP1 CALLDATASIZE SWAP1 PUSH1 0x4 ADD PUSH2 0x2572 JUMP JUMPDEST PUSH1 0x24 CALLDATALOAD PUSH1 0x1 PUSH1 0x1 PUSH1 0x40 SHL SUB DUP2 GT PUSH2 0x29A JUMPI PUSH2 0x1247 SWAP1 CALLDATASIZE SWAP1 PUSH1 0x4 ADD PUSH2 0x2572 JUMP JUMPDEST PUSH2 0x124F PUSH2 0x2789 JUMP JUMPDEST PUSH1 0xFF PUSH1 0xA SLOAD PUSH1 0xA8 SHR AND PUSH2 0x1A96 JUMPI DUP2 MLOAD ISZERO PUSH2 0x1A5B JUMPI DUP1 MLOAD ISZERO PUSH2 0x1A1E JUMPI PUSH1 0x40 MLOAD SWAP2 PUSH2 0x120 DUP4 ADD DUP4 DUP2 LT PUSH1 0x1 PUSH1 0x1 PUSH1 0x40 SHL SUB DUP3 GT OR PUSH2 0x17F1 JUMPI PUSH1 0x40 MSTORE PUSH1 0x60 DUP4 MSTORE PUSH1 0x60 PUSH1 0x20 DUP5 ADD MSTORE PUSH1 0x0 PUSH1 0x40 DUP5 ADD MSTORE PUSH1 0x60 DUP1 DUP5 ADD MSTORE PUSH1 0x0 PUSH1 0x80 DUP5 ADD MSTORE PUSH1 0x0 PUSH1 0xA0 DUP5 ADD MSTORE PUSH1 0x0 PUSH1 0xC0 DUP5 ADD MSTORE PUSH1 0x60 PUSH1 0xE0 DUP5 ADD MSTORE PUSH1 0x40 MLOAD DUP1 PUSH1 0x60 DUP2 ADD LT PUSH1 0x1 PUSH1 0x1 PUSH1 0x40 SHL SUB PUSH1 0x60 DUP4 ADD GT OR PUSH2 0x17F1 JUMPI PUSH1 0x60 DUP2 ADD PUSH1 0x40 MSTORE PUSH1 0x0 DUP2 MSTORE PUSH1 0x0 PUSH1 0x20 DUP3 ADD MSTORE PUSH1 0x0 PUSH1 0x40 DUP3 ADD MSTORE PUSH2 0x100 DUP5 ADD MSTORE DUP1 DUP4 MSTORE DUP2 PUSH1 0x20 DUP5 ADD MSTORE ADDRESS PUSH1 0x40 DUP5 ADD MSTORE PUSH1 0x40 MLOAD PUSH2 0x1311 DUP2 PUSH2 0x2478 JUMP JUMPDEST PUSH1 0x1 DUP2 MSTORE PUSH1 0x0 JUMPDEST PUSH1 0x20 DUP2 LT PUSH2 0x1A07 JUMPI POP PUSH1 0xE0 DUP5 ADD MSTORE PUSH2 0x132E PUSH2 0x27F8 JUMP JUMPDEST POP PUSH1 0x4 PUSH1 0x0 MSTORE PUSH1 0x3 PUSH1 0x20 MSTORE PUSH32 0x83EC6A1F0257B830B5E016457C9CF1435391BF56CC98F369A58A54FE93772465 SLOAD PUSH2 0x1396 SWAP1 PUSH2 0x1367 PUSH2 0x27CC JUMP JUMPDEST ADDRESS PUSH1 0x20 DUP3 ADD MSTORE PUSH1 0x40 MLOAD SWAP2 PUSH2 0x137A DUP4 PUSH2 0x2478 JUMP JUMPDEST DUP3 MSTORE PUSH1 0x20 DUP3 ADD MSTORE PUSH1 0xE0 DUP6 ADD MLOAD SWAP1 PUSH2 0x1390 DUP3 PUSH2 0x2819 JUMP JUMPDEST MSTORE PUSH2 0x2819 JUMP JUMPDEST POP PUSH2 0x100 DUP4 ADD MLOAD DUP1 MLOAD PUSH1 0x7 SIGNEXTEND ISZERO DUP1 PUSH2 0x19F8 JUMPI JUMPDEST PUSH2 0x19E9 JUMPI JUMPDEST POP PUSH1 0x40 MLOAD PUSH4 0xFB65BF3 PUSH1 0xE0 SHL PUSH1 0x20 DUP3 ADD MSTORE PUSH1 0x60 PUSH1 0x24 DUP3 ADD MSTORE PUSH2 0x1423 PUSH2 0x13FA PUSH2 0x13E4 DUP7 MLOAD PUSH2 0x160 PUSH1 0x84 DUP7 ADD MSTORE PUSH2 0x1E4 DUP6 ADD SWAP1 PUSH2 0x25B3 JUMP JUMPDEST PUSH1 0x20 DUP8 ADD MLOAD DUP5 DUP3 SUB PUSH1 0x83 NOT ADD PUSH1 0xA4 DUP7 ADD MSTORE PUSH2 0x25B3 JUMP JUMPDEST PUSH1 0x40 DUP7 ADD MLOAD PUSH1 0x1 PUSH1 0x1 PUSH1 0xA0 SHL SUB AND PUSH1 0xC4 DUP5 ADD MSTORE PUSH1 0x60 DUP7 ADD MLOAD DUP4 DUP3 SUB PUSH1 0x83 NOT ADD PUSH1 0xE4 DUP6 ADD MSTORE PUSH2 0x25B3 JUMP JUMPDEST SWAP4 PUSH1 0x80 DUP2 ADD MLOAD ISZERO ISZERO PUSH2 0x104 DUP4 ADD MSTORE PUSH1 0xA0 DUP2 ADD MLOAD PUSH1 0x7 SIGNEXTEND PUSH2 0x124 DUP4 ADD MSTORE PUSH1 0xC0 DUP2 ADD MLOAD ISZERO ISZERO PUSH2 0x144 DUP4 ADD MSTORE PUSH1 0xE0 DUP2 ADD MLOAD SWAP1 PUSH1 0x83 NOT DUP4 DUP8 SUB ADD PUSH2 0x164 DUP5 ADD MSTORE DUP2 MLOAD DUP1 DUP8 MSTORE PUSH1 0x20 DUP8 ADD SWAP1 PUSH1 0x20 DUP1 DUP3 PUSH1 0x5 SHL DUP11 ADD ADD SWAP5 ADD SWAP2 PUSH1 0x0 SWAP1 JUMPDEST DUP3 DUP3 LT PUSH2 0x195B JUMPI DUP9 DUP9 PUSH1 0x0 DUP1 DUP11 PUSH2 0x14D8 DUP2 DUP13 PUSH1 0x40 PUSH2 0x100 DUP15 ADD MLOAD DUP1 MLOAD PUSH1 0x7 SIGNEXTEND PUSH2 0x184 DUP6 ADD MSTORE PUSH1 0x1 DUP1 PUSH1 0xA0 SHL SUB PUSH1 0x20 DUP3 ADD MLOAD AND PUSH2 0x1A4 DUP6 ADD MSTORE ADD MLOAD PUSH1 0x7 SIGNEXTEND PUSH2 0x1C4 DUP4 ADD MSTORE DUP5 PUSH1 0x44 DUP4 ADD MSTORE PUSH1 0x6 PUSH1 0x64 DUP4 ADD MSTORE SUB PUSH1 0x1F NOT DUP2 ADD DUP4 MSTORE DUP3 PUSH2 0x24FF JUMP JUMPDEST PUSH1 0x20 DUP2 MLOAD SWAP2 ADD CALLVALUE PUSH2 0x167 GAS CALL SWAP2 PUSH2 0x14ED PUSH2 0x2AAF JUMP JUMPDEST SWAP3 ISZERO PUSH2 0x1950 JUMPI PUSH1 0x40 DUP4 DUP1 MLOAD DUP2 ADD SUB SLT PUSH2 0x29A JUMPI PUSH1 0x40 PUSH2 0x150E PUSH1 0x20 DUP6 ADD PUSH2 0x3834 JUMP JUMPDEST SWAP4 ADD MLOAD PUSH1 0x1 PUSH1 0x1 PUSH1 0xA0 SHL SUB DUP2 AND SWAP4 SWAP1 DUP5 SWAP1 SUB PUSH2 0x29A JUMPI PUSH1 0x3 SIGNEXTEND JUMPDEST PUSH1 0x3 SIGNEXTEND PUSH1 0x16 DUP2 SUB PUSH2 0x18EE JUMPI POP PUSH1 0x4 DUP1 SLOAD PUSH1 0x1 PUSH1 0x1 PUSH1 0xA0 SHL SUB NOT AND PUSH1 0x1 PUSH1 0x1 PUSH1 0xA0 SHL SUB DUP6 AND OR SWAP1 SSTORE PUSH1 0x40 MLOAD PUSH2 0x155B DUP2 PUSH2 0x245D JUMP JUMPDEST DUP3 DUP2 MSTORE PUSH1 0x20 DUP2 ADD DUP3 SWAP1 MSTORE PUSH1 0x6 PUSH1 0x40 DUP3 ADD MSTORE PUSH1 0x1 PUSH1 0x1 PUSH1 0xA0 SHL SUB DUP5 AND PUSH1 0x60 DUP3 ADD MSTORE PUSH1 0x1 PUSH1 0x80 DUP3 ADD MSTORE DUP3 MLOAD PUSH1 0x1 PUSH1 0x1 PUSH1 0x40 SHL SUB DUP2 GT PUSH2 0x17F1 JUMPI PUSH2 0x159D PUSH1 0x8 SLOAD PUSH2 0x25D8 JUMP JUMPDEST PUSH1 0x1F DUP2 GT PUSH2 0x1885 JUMPI JUMPDEST POP DUP1 PUSH1 0x20 PUSH1 0x1F DUP3 GT PUSH1 0x1 EQ PUSH2 0x1812 JUMPI PUSH1 0x0 SWAP2 PUSH2 0x1807 JUMPI JUMPDEST POP DUP2 PUSH1 0x1 SHL SWAP2 PUSH1 0x0 NOT SWAP1 PUSH1 0x3 SHL SHR NOT AND OR PUSH1 0x8 SSTORE JUMPDEST PUSH1 0x20 DUP2 ADD MLOAD DUP1 MLOAD SWAP1 PUSH1 0x1 PUSH1 0x1 PUSH1 0x40 SHL SUB DUP3 GT PUSH2 0x17F1 JUMPI PUSH2 0x15F3 PUSH1 0x9 SLOAD PUSH2 0x25D8 JUMP JUMPDEST PUSH1 0x1F DUP2 GT PUSH2 0x1788 JUMPI JUMPDEST POP PUSH1 0x20 SWAP1 PUSH1 0x1F DUP4 GT PUSH1 0x1 EQ PUSH2 0x16E8 JUMPI SWAP3 DUP3 PUSH2 0x16BF SWAP4 PUSH2 0x16B1 SWAP7 SWAP4 PUSH32 0x8FB1FFD0AB3F6379154037519FF749B01E1FA060A331F5394175F393C3DB596B SWAP9 SWAP7 PUSH1 0x0 SWAP3 PUSH2 0x16DD JUMPI JUMPDEST POP POP DUP2 PUSH1 0x1 SHL SWAP2 PUSH1 0x0 NOT SWAP1 PUSH1 0x3 SHL SHR NOT AND OR PUSH1 0x9 SSTORE JUMPDEST PUSH1 0xFF PUSH1 0x40 DUP3 ADD MLOAD AND SWAP1 PUSH1 0xA SLOAD SWAP2 PUSH2 0x100 PUSH1 0x1 PUSH1 0xA8 SHL SUB PUSH1 0x60 DUP4 ADD MLOAD PUSH1 0x8 SHL AND SWAP2 PUSH1 0x80 PUSH1 0xFF PUSH1 0xA8 SHL SWAP2 ADD MLOAD ISZERO ISZERO PUSH1 0xA8 SHL AND SWAP3 PUSH10 0xFFFFFFFFFFFFFFFFFFFF PUSH1 0xB0 SHL AND OR OR OR PUSH1 0xA SSTORE PUSH1 0x40 MLOAD SWAP4 DUP5 SWAP4 PUSH1 0x80 DUP6 MSTORE PUSH1 0x80 DUP6 ADD SWAP1 PUSH2 0x25B3 JUMP JUMPDEST SWAP1 DUP4 DUP3 SUB PUSH1 0x20 DUP6 ADD MSTORE PUSH2 0x25B3 JUMP JUMPDEST PUSH1 0x6 PUSH1 0x40 DUP4 ADD MSTORE ADDRESS PUSH1 0x60 DUP4 ADD MSTORE PUSH1 0x1 PUSH1 0x1 PUSH1 0xA0 SHL SUB SWAP1 SWAP5 AND SWAP4 SUB SWAP1 LOG2 STOP JUMPDEST ADD MLOAD SWAP1 POP DUP10 DUP1 PUSH2 0x1641 JUMP JUMPDEST SWAP1 PUSH1 0x9 PUSH1 0x0 MSTORE PUSH1 0x0 DUP1 MLOAD PUSH1 0x20 PUSH2 0x39FA DUP4 CODECOPY DUP2 MLOAD SWAP2 MSTORE SWAP2 PUSH1 0x0 JUMPDEST PUSH1 0x1F NOT DUP6 AND DUP2 LT PUSH2 0x1770 JUMPI POP DUP4 PUSH2 0x16B1 SWAP7 SWAP4 PUSH32 0x8FB1FFD0AB3F6379154037519FF749B01E1FA060A331F5394175F393C3DB596B SWAP9 SWAP7 SWAP4 PUSH1 0x1 SWAP4 PUSH2 0x16BF SWAP8 PUSH1 0x1F NOT DUP2 AND LT PUSH2 0x1757 JUMPI JUMPDEST POP POP POP DUP2 SHL ADD PUSH1 0x9 SSTORE PUSH2 0x1657 JUMP JUMPDEST ADD MLOAD PUSH1 0x0 NOT PUSH1 0xF8 DUP5 PUSH1 0x3 SHL AND SHR NOT AND SWAP1 SSTORE DUP10 DUP1 DUP1 PUSH2 0x1749 JUMP JUMPDEST SWAP2 SWAP3 PUSH1 0x20 PUSH1 0x1 DUP2 SWAP3 DUP7 DUP6 ADD MLOAD DUP2 SSTORE ADD SWAP5 ADD SWAP3 ADD PUSH2 0x1701 JUMP JUMPDEST PUSH1 0x9 PUSH1 0x0 MSTORE PUSH1 0x1F DUP4 ADD PUSH1 0x5 SHR PUSH1 0x0 DUP1 MLOAD PUSH1 0x20 PUSH2 0x39FA DUP4 CODECOPY DUP2 MLOAD SWAP2 MSTORE ADD PUSH1 0x20 DUP5 LT PUSH2 0x17DC JUMPI JUMPDEST PUSH1 0x1F DUP3 ADD PUSH1 0x5 SHR PUSH1 0x0 DUP1 MLOAD PUSH1 0x20 PUSH2 0x39FA DUP4 CODECOPY DUP2 MLOAD SWAP2 MSTORE ADD DUP2 LT PUSH2 0x17D0 JUMPI POP PUSH2 0x15FC JUMP JUMPDEST PUSH1 0x0 DUP2 SSTORE PUSH1 0x1 ADD PUSH2 0x17AD JUMP JUMPDEST POP PUSH1 0x0 DUP1 MLOAD PUSH1 0x20 PUSH2 0x39FA DUP4 CODECOPY DUP2 MLOAD SWAP2 MSTORE PUSH2 0x17AD JUMP JUMPDEST PUSH4 0x4E487B71 PUSH1 0xE0 SHL PUSH1 0x0 MSTORE PUSH1 0x41 PUSH1 0x4 MSTORE PUSH1 0x24 PUSH1 0x0 REVERT JUMPDEST SWAP1 POP DUP5 ADD MLOAD DUP7 PUSH2 0x15BD JUMP JUMPDEST SWAP2 POP PUSH1 0x8 PUSH1 0x0 MSTORE PUSH1 0x0 DUP1 MLOAD PUSH1 0x20 PUSH2 0x39DA DUP4 CODECOPY DUP2 MLOAD SWAP2 MSTORE PUSH1 0x0 SWAP3 JUMPDEST PUSH1 0x1F NOT DUP4 AND DUP5 LT PUSH2 0x186D JUMPI PUSH1 0x1 SWAP4 POP DUP3 PUSH1 0x1F NOT DUP2 AND LT PUSH2 0x1854 JUMPI JUMPDEST POP POP DUP2 SHL ADD PUSH1 0x8 SSTORE PUSH2 0x15D2 JUMP JUMPDEST DUP7 ADD MLOAD PUSH1 0x0 NOT PUSH1 0xF8 DUP5 PUSH1 0x3 SHL AND SHR NOT AND SWAP1 SSTORE DUP7 DUP1 PUSH2 0x1847 JUMP JUMPDEST DUP7 DUP2 ADD MLOAD DUP3 SSTORE PUSH1 0x20 SWAP4 DUP5 ADD SWAP4 PUSH1 0x1 SWAP1 SWAP3 ADD SWAP2 ADD PUSH2 0x182C JUMP JUMPDEST PUSH1 0x8 PUSH1 0x0 MSTORE PUSH1 0x1F DUP3 ADD PUSH1 0x5 SHR PUSH1 0x0 DUP1 MLOAD PUSH1 0x20 PUSH2 0x39DA DUP4 CODECOPY DUP2 MLOAD SWAP2 MSTORE ADD PUSH1 0x20 DUP4 LT PUSH2 0x18D9 JUMPI JUMPDEST PUSH1 0x1F DUP3 ADD PUSH1 0x5 SHR PUSH1 0x0 DUP1 MLOAD PUSH1 0x20 PUSH2 0x39DA DUP4 CODECOPY DUP2 MLOAD SWAP2 MSTORE ADD DUP2 LT PUSH2 0x18CD JUMPI POP PUSH2 0x15A6 JUMP JUMPDEST PUSH1 0x0 DUP2 SSTORE PUSH1 0x1 ADD PUSH2 0x18AA JUMP JUMPDEST POP PUSH1 0x0 DUP1 MLOAD PUSH1 0x20 PUSH2 0x39DA DUP4 CODECOPY DUP2 MLOAD SWAP2 MSTORE PUSH2 0x18AA JUMP JUMPDEST DUP1 PUSH32 0x8E087745DD680D08F64711BFDD63E4496157EAA1C1774FDDD382C76431DC1054 PUSH2 0x1938 PUSH2 0x191E PUSH1 0x24 SWAP5 PUSH2 0x2C0A JUMP JUMPDEST PUSH1 0x40 MLOAD SWAP2 DUP3 SWAP2 DUP6 DUP4 MSTORE PUSH1 0x40 PUSH1 0x20 DUP5 ADD MSTORE PUSH1 0x40 DUP4 ADD SWAP1 PUSH2 0x25B3 JUMP JUMPDEST SUB SWAP1 LOG1 PUSH1 0x40 MLOAD SWAP1 PUSH4 0x1DD454B1 PUSH1 0xE0 SHL DUP3 MSTORE PUSH1 0x4 DUP3 ADD MSTORE REVERT JUMPDEST PUSH1 0x0 SWAP3 POP PUSH1 0x15 PUSH2 0x1528 JUMP JUMPDEST SWAP1 SWAP2 SWAP3 SWAP5 PUSH1 0x20 DUP1 PUSH1 0x1 SWAP3 PUSH1 0x1F NOT DUP14 DUP3 SUB ADD DUP6 MSTORE DUP2 DUP10 MLOAD DUP1 MLOAD DUP4 MSTORE ADD MLOAD SWAP1 PUSH1 0x40 DUP4 DUP3 ADD MSTORE DUP2 MLOAD ISZERO ISZERO PUSH1 0x40 DUP3 ADD MSTORE DUP5 DUP1 PUSH1 0xA0 SHL SUB DUP4 DUP4 ADD MLOAD AND PUSH1 0x60 DUP3 ADD MSTORE PUSH1 0xC0 PUSH2 0x19CB PUSH2 0x19B5 PUSH1 0x40 DUP6 ADD MLOAD PUSH1 0xA0 PUSH1 0x80 DUP7 ADD MSTORE PUSH1 0xE0 DUP6 ADD SWAP1 PUSH2 0x25B3 JUMP JUMPDEST PUSH1 0x60 DUP6 ADD MLOAD DUP5 DUP3 SUB PUSH1 0x3F NOT ADD PUSH1 0xA0 DUP7 ADD MSTORE PUSH2 0x25B3 JUMP JUMPDEST SWAP3 PUSH1 0x80 DUP8 DUP1 PUSH1 0xA0 SHL SUB SWAP2 ADD MLOAD AND SWAP2 ADD MSTORE SWAP8 ADD SWAP3 ADD SWAP3 ADD SWAP1 SWAP3 SWAP2 PUSH2 0x147A JUMP JUMPDEST PUSH1 0x40 PUSH3 0x76A700 SWAP2 ADD MSTORE DUP4 PUSH2 0x13AE JUMP JUMPDEST POP PUSH1 0x40 DUP2 ADD MLOAD PUSH1 0x7 SIGNEXTEND ISZERO PUSH2 0x13A9 JUMP JUMPDEST PUSH1 0x20 SWAP1 PUSH2 0x1A12 PUSH2 0x27F8 JUMP JUMPDEST DUP3 DUP3 DUP6 ADD ADD MSTORE ADD PUSH2 0x1318 JUMP JUMPDEST PUSH1 0x40 MLOAD PUSH3 0x461BCD PUSH1 0xE5 SHL DUP2 MSTORE PUSH1 0x20 PUSH1 0x4 DUP3 ADD MSTORE PUSH1 0x15 PUSH1 0x24 DUP3 ADD MSTORE PUSH21 0x151BDAD95B881CDE5B589BDB081C995C5D5A5C9959 PUSH1 0x5A SHL PUSH1 0x44 DUP3 ADD MSTORE PUSH1 0x64 SWAP1 REVERT JUMPDEST PUSH1 0x40 MLOAD PUSH3 0x461BCD PUSH1 0xE5 SHL DUP2 MSTORE PUSH1 0x20 PUSH1 0x4 DUP3 ADD MSTORE PUSH1 0x13 PUSH1 0x24 DUP3 ADD MSTORE PUSH19 0x151BDAD95B881B985B59481C995C5D5A5C9959 PUSH1 0x6A SHL PUSH1 0x44 DUP3 ADD MSTORE PUSH1 0x64 SWAP1 REVERT JUMPDEST PUSH1 0x40 MLOAD PUSH3 0x461BCD PUSH1 0xE5 SHL DUP2 MSTORE PUSH1 0x20 PUSH1 0x4 DUP3 ADD MSTORE PUSH1 0x15 PUSH1 0x24 DUP3 ADD MSTORE PUSH21 0x151BDAD95B88185B1C9958591E4818DC99585D1959 PUSH1 0x5A SHL PUSH1 0x44 DUP3 ADD MSTORE PUSH1 0x64 SWAP1 REVERT JUMPDEST CALLVALUE PUSH2 0x29A JUMPI PUSH1 0x20 CALLDATASIZE PUSH1 0x3 NOT ADD SLT PUSH2 0x29A JUMPI PUSH1 0x20 PUSH2 0x5DB PUSH1 0x4 CALLDATALOAD PUSH2 0x2ADF JUMP JUMPDEST PUSH2 0x1B09 PUSH2 0x1AFD CALLDATASIZE PUSH2 0x2443 JUMP JUMPDEST SWAP1 PUSH2 0xE82 SWAP4 SWAP3 SWAP4 PUSH2 0x28A4 JUMP JUMPDEST SWAP1 PUSH2 0x1B1A PUSH3 0xF4240 SWAP2 DUP3 LT ISZERO PUSH2 0x29FC JUMP JUMPDEST PUSH2 0x1B26 CALLVALUE PUSH1 0x5 SLOAD PUSH2 0x2A3C JUMP JUMPDEST PUSH1 0x5 SSTORE PUSH2 0x1B35 CALLVALUE PUSH1 0x7 SLOAD PUSH2 0x2A3C JUMP JUMPDEST PUSH1 0x7 SSTORE PUSH1 0x1 DUP1 PUSH1 0xA0 SHL SUB DUP1 PUSH1 0x4 SLOAD AND PUSH1 0x40 MLOAD SWAP4 DUP4 DUP6 MSTORE PUSH1 0x20 SWAP5 DUP3 PUSH32 0xB7555D949A897ACB395F95E3F2DF8B700519404826BB13CD6526B756F6A1C907 DUP8 CALLER SWAP4 LOG3 PUSH1 0x40 MLOAD PUSH2 0x1B80 DUP2 PUSH2 0x2493 JUMP JUMPDEST PUSH1 0x0 DUP2 MSTORE PUSH1 0x40 MLOAD SWAP1 DUP7 DUP3 ADD SWAP4 PUSH4 0x707A02CD PUSH1 0xE1 SHL DUP6 MSTORE PUSH1 0x84 DUP4 ADD SWAP1 PUSH1 0x24 DUP5 ADD MSTORE DUP7 PUSH1 0x44 DUP5 ADD MSTORE PUSH1 0x60 PUSH1 0x64 DUP5 ADD MSTORE DUP2 MLOAD DUP1 SWAP2 MSTORE PUSH1 0xA4 DUP4 ADD SWAP1 DUP9 PUSH1 0xA4 DUP3 PUSH1 0x5 SHL DUP7 ADD ADD SWAP4 ADD SWAP2 PUSH1 0x0 SWAP1 JUMPDEST DUP11 DUP4 DUP4 LT PUSH2 0x1F9E JUMPI POP POP POP POP POP DUP2 PUSH2 0x1BEC PUSH1 0x0 SWAP4 DUP5 SWAP4 SUB PUSH1 0x1F NOT DUP2 ADD DUP4 MSTORE DUP3 PUSH2 0x24FF JUMP JUMPDEST MLOAD PUSH2 0x167 SWAP5 DUP3 DUP7 GAS CALL SWAP2 PUSH2 0x1BFE PUSH2 0x2AAF JUMP JUMPDEST SWAP3 ISZERO PUSH2 0x1F83 JUMPI DUP3 MLOAD DUP4 ADD PUSH1 0x60 DUP5 DUP9 DUP4 ADD SWAP3 SUB SLT PUSH2 0x29A JUMPI PUSH2 0x1C20 DUP8 DUP6 ADD PUSH2 0x3834 JUMP JUMPDEST SWAP1 PUSH2 0x1C2D PUSH1 0x40 DUP7 ADD PUSH2 0x3842 JUMP JUMPDEST SWAP5 PUSH1 0x60 DUP2 ADD MLOAD SWAP1 PUSH1 0x1 PUSH1 0x1 PUSH1 0x40 SHL SUB DUP3 GT PUSH2 0x29A JUMPI ADD DUP2 PUSH1 0x3F DUP3 ADD SLT ISZERO PUSH2 0x29A JUMPI DUP9 DUP2 ADD MLOAD PUSH1 0x40 DUP11 PUSH2 0x1C5E DUP4 PUSH2 0x27B5 JUMP JUMPDEST PUSH2 0x1C6A DUP4 MLOAD SWAP2 DUP3 PUSH2 0x24FF JUMP JUMPDEST DUP4 DUP2 MSTORE ADD SWAP2 PUSH1 0x5 SHL DUP4 ADD ADD SWAP3 DUP4 GT PUSH2 0x29A JUMPI PUSH1 0x40 DUP11 SWAP3 ADD SWAP1 JUMPDEST DUP4 DUP3 LT PUSH2 0x1F6C JUMPI POP POP POP POP JUMPDEST PUSH1 0x3 SIGNEXTEND PUSH1 0x16 DUP2 SUB PUSH2 0x1F24 JUMPI POP PUSH1 0x0 DUP1 SWAP2 DUP6 PUSH1 0x4 SLOAD AND PUSH1 0x40 MLOAD DUP9 DUP2 MSTORE CALLER SWAP1 DUP3 PUSH32 0xD9CD850143C0756B15B46EBDC8B4ED7701B66AAED30858EE17A225EB005CCA2E DUP13 ADDRESS SWAP4 LOG4 DUP3 PUSH1 0x40 MLOAD DUP11 DUP2 ADD SWAP3 PUSH4 0xECA36917 PUSH1 0xE0 SHL DUP5 MSTORE PUSH1 0x24 DUP3 ADD MSTORE ADDRESS PUSH1 0x44 DUP3 ADD MSTORE CALLER PUSH1 0x64 DUP3 ADD MSTORE DUP10 PUSH1 0x84 DUP3 ADD MSTORE PUSH1 0x84 DUP2 MSTORE PUSH2 0x1D08 DUP2 PUSH2 0x24AE JUMP JUMPDEST MLOAD SWAP3 GAS CALL PUSH2 0x1D14 PUSH2 0x2AAF JUMP JUMPDEST SWAP1 ISZERO PUSH2 0x1F1C JUMPI DUP6 DUP2 DUP1 MLOAD DUP2 ADD SUB SLT PUSH2 0x29A JUMPI DUP6 PUSH2 0x1D31 SWAP2 ADD PUSH2 0x3834 JUMP JUMPDEST PUSH1 0x3 SIGNEXTEND PUSH1 0x16 DUP2 SUB PUSH2 0x1ED0 JUMPI POP PUSH1 0x6 SLOAD SWAP2 DUP5 DUP4 ADD DUP1 SWAP4 GT PUSH2 0x1EBA JUMPI PUSH1 0x4 SWAP3 PUSH1 0x6 SSTORE DUP4 DUP4 SLOAD AND SWAP1 PUSH1 0x40 MLOAD SWAP1 DUP7 DUP3 MSTORE PUSH1 0x7 SIGNEXTEND DUP8 DUP3 ADD MSTORE DUP2 PUSH32 0xAD91542866F4DA9EBED5A2B1713258F4BF970F84E7B2A0B8AAB2DE28D11FFFFD PUSH1 0x40 CALLER SWAP4 LOG3 PUSH1 0x40 MLOAD DUP6 DUP2 MSTORE CALLER SWAP2 PUSH32 0x67325B2F3DE1D8273FC1AEEAF3B161488FC28427430D9F6B341831DEDFC2D633 DUP9 ADDRESS SWAP4 LOG4 PUSH1 0xD SLOAD SWAP1 PUSH1 0x40 MLOAD SWAP4 PUSH2 0x1DC9 DUP6 PUSH2 0x245D JUMP JUMPDEST CALLVALUE DUP6 MSTORE DUP7 DUP6 ADD SWAP2 TIMESTAMP DUP4 MSTORE PUSH1 0x40 DUP7 ADD SWAP1 DUP2 MSTORE PUSH1 0x60 DUP7 ADD SWAP3 CALLER DUP5 MSTORE PUSH1 0x80 DUP8 ADD SWAP5 DUP1 DUP7 MSTORE PUSH1 0x0 MSTORE PUSH1 0xB DUP10 MSTORE PUSH1 0x40 PUSH1 0x0 KECCAK256 SWAP7 MLOAD DUP8 SSTORE MLOAD PUSH1 0x1 DUP8 ADD SSTORE MLOAD PUSH1 0x2 DUP7 ADD SSTORE PUSH1 0x3 DUP6 ADD SWAP2 MLOAD AND PUSH12 0xFFFFFFFFFFFFFFFFFFFFFFFF PUSH1 0xA0 SHL DUP3 SLOAD AND OR SWAP1 SSTORE MLOAD SWAP2 ADD SSTORE CALLER PUSH1 0x0 MSTORE PUSH1 0xC DUP3 MSTORE PUSH1 0x40 PUSH1 0x0 KECCAK256 PUSH1 0xD SLOAD SWAP1 DUP1 SLOAD PUSH9 0x10000000000000000 DUP2 LT ISZERO PUSH2 0x17F1 JUMPI PUSH2 0x1E5A SWAP2 PUSH1 0x1 DUP3 ADD DUP2 SSTORE PUSH2 0x275B JUMP JUMPDEST DUP2 SWAP3 SWAP2 SLOAD SWAP1 PUSH1 0x3 SHL SWAP2 DUP3 SHL SWAP2 PUSH1 0x0 NOT SWAP1 SHL NOT AND OR SWAP1 SSTORE PUSH2 0x1E7B PUSH1 0xD SLOAD PUSH2 0x2A49 JUMP JUMPDEST PUSH1 0xD SSTORE PUSH1 0x40 MLOAD SWAP2 CALLVALUE DUP4 MSTORE DUP3 ADD MSTORE TIMESTAMP PUSH1 0x40 DUP3 ADD MSTORE PUSH32 0x64B83944E79C3CE8D4C297411DE637C3E102D064677AAC0C163976EBDCD6F50E PUSH1 0x60 CALLER SWAP3 LOG2 PUSH1 0x1 DUP1 SSTORE STOP JUMPDEST PUSH4 0x4E487B71 PUSH1 0xE0 SHL PUSH1 0x0 MSTORE PUSH1 0x11 PUSH1 0x4 MSTORE PUSH1 0x24 PUSH1 0x0 REVERT JUMPDEST DUP4 PUSH1 0x4 SLOAD AND SWAP1 PUSH1 0x40 MLOAD SWAP2 PUSH32 0xCC975F63304DFDAA80A8ECBFBFC654FD86EA8A7CDB68086A0D883F26AD08E4C1 CALLER SWAP4 DUP1 PUSH2 0x111F ADDRESS SWAP6 DUP3 SWAP2 SWAP1 SWAP2 PUSH1 0x20 PUSH1 0x40 DUP3 ADD SWAP4 PUSH3 0xF4240 DUP4 MSTORE PUSH1 0x3 SIGNEXTEND SWAP2 ADD MSTORE JUMP JUMPDEST POP PUSH1 0x15 PUSH2 0x1D31 JUMP JUMPDEST DUP5 PUSH1 0x4 SLOAD AND PUSH32 0x3F5E21A75677E84382C9F010B9F5780B534BB2A966C378FA090D12BA52CAA08 PUSH1 0x40 MLOAD DUP1 PUSH2 0x11B5 CALLER SWAP6 DUP3 SWAP2 SWAP1 SWAP2 PUSH1 0x20 PUSH1 0x40 DUP3 ADD SWAP4 PUSH3 0xF4240 DUP4 MSTORE PUSH1 0x3 SIGNEXTEND SWAP2 ADD MSTORE JUMP JUMPDEST DUP3 DUP1 SWAP2 PUSH2 0x1F78 DUP5 PUSH2 0x3842 JUMP JUMPDEST DUP2 MSTORE ADD SWAP2 ADD SWAP1 PUSH2 0x1C83 JUMP JUMPDEST SWAP2 POP PUSH1 0x0 PUSH1 0x40 MLOAD PUSH2 0x1F93 DUP2 PUSH2 0x2493 JUMP JUMPDEST MSTORE PUSH1 0x0 SWAP2 PUSH1 0x15 PUSH2 0x1C8F JUMP JUMPDEST DUP1 PUSH2 0x1FB9 PUSH1 0x1 SWAP4 SWAP5 SWAP6 SWAP7 SWAP8 PUSH1 0xA3 NOT DUP11 DUP3 SUB ADD DUP7 MSTORE DUP9 MLOAD PUSH2 0x25B3 JUMP JUMPDEST SWAP7 ADD SWAP3 ADD SWAP3 ADD SWAP1 SWAP3 SWAP2 PUSH2 0x1BC8 JUMP JUMPDEST CALLVALUE PUSH2 0x29A JUMPI PUSH1 0x0 CALLDATASIZE PUSH1 0x3 NOT ADD SLT PUSH2 0x29A JUMPI PUSH2 0x1FE0 PUSH2 0x2789 JUMP JUMPDEST PUSH2 0x1FE8 PUSH2 0x3815 JUMP JUMPDEST PUSH1 0xFF NOT PUSH1 0x2 SLOAD AND PUSH1 0x2 SSTORE PUSH32 0x5DB9EE0A495BF2E6FF9C91A7834C1BA4FDD244A5E8AA4E537BD38AEAE4B073AA PUSH1 0x20 PUSH1 0x40 MLOAD CALLER DUP2 MSTORE LOG1 STOP JUMPDEST CALLVALUE PUSH2 0x29A JUMPI PUSH1 0x20 CALLDATASIZE PUSH1 0x3 NOT ADD SLT PUSH2 0x29A JUMPI PUSH1 0x4 CALLDATALOAD PUSH1 0x0 MSTORE PUSH1 0xB PUSH1 0x20 MSTORE PUSH1 0xA0 PUSH1 0x40 PUSH1 0x0 KECCAK256 DUP1 SLOAD SWAP1 PUSH1 0x1 DUP2 ADD SLOAD SWAP1 PUSH1 0x2 DUP2 ADD SLOAD PUSH1 0x4 PUSH1 0x1 DUP1 DUP8 SHL SUB PUSH1 0x3 DUP5 ADD SLOAD AND SWAP3 ADD SLOAD SWAP3 PUSH1 0x40 MLOAD SWAP5 DUP6 MSTORE PUSH1 0x20 DUP6 ADD MSTORE PUSH1 0x40 DUP5 ADD MSTORE PUSH1 0x60 DUP4 ADD MSTORE PUSH1 0x80 DUP3 ADD MSTORE RETURN JUMPDEST CALLVALUE PUSH2 0x29A JUMPI PUSH1 0x20 CALLDATASIZE PUSH1 0x3 NOT ADD SLT PUSH2 0x29A JUMPI PUSH1 0x20 PUSH2 0x5DB PUSH1 0x4 CALLDATALOAD PUSH2 0x2B38 JUMP JUMPDEST CALLVALUE PUSH2 0x29A JUMPI PUSH1 0x0 CALLDATASIZE PUSH1 0x3 NOT ADD SLT PUSH2 0x29A JUMPI PUSH1 0x20 PUSH2 0x5DB PUSH2 0x2BAF JUMP JUMPDEST CALLVALUE PUSH2 0x29A JUMPI PUSH1 0x0 CALLDATASIZE PUSH1 0x3 NOT ADD SLT PUSH2 0x29A JUMPI PUSH1 0x20 PUSH1 0x5 SLOAD PUSH1 0x40 MLOAD SWAP1 DUP2 MSTORE RETURN JUMPDEST PUSH1 0x0 CALLDATASIZE PUSH1 0x3 NOT ADD SLT PUSH2 0x29A JUMPI PUSH2 0x20E8 PUSH2 0x2789 JUMP JUMPDEST PUSH2 0x20F0 PUSH2 0x28A4 JUMP JUMPDEST PUSH2 0x20F8 PUSH2 0x2886 JUMP JUMPDEST PUSH2 0x2109 PUSH1 0xFF PUSH1 0xA SLOAD PUSH1 0xA8 SHR AND PUSH2 0x2826 JUMP JUMPDEST PUSH1 0x6 SLOAD PUSH2 0x2255 JUMPI PUSH3 0x186A0 CALLVALUE LT PUSH2 0x2210 JUMPI CALLVALUE PUSH1 0x5 SSTORE CALLVALUE PUSH1 0x7 SSTORE PUSH1 0x64 CALLVALUE DIV PUSH1 0x1 PUSH1 0x1 PUSH1 0x40 SHL SUB DUP2 AND PUSH1 0x7 SIGNEXTEND PUSH1 0x1 DUP1 PUSH1 0xA0 SHL SUB PUSH2 0x217D DUP2 PUSH1 0x4 SLOAD AND PUSH1 0x40 MLOAD DUP5 DUP2 MSTORE DUP2 PUSH32 0xB7555D949A897ACB395F95E3F2DF8B700519404826BB13CD6526B756F6A1C907 PUSH1 0x20 CALLER SWAP4 LOG3 DUP4 PUSH1 0x40 MLOAD SWAP2 PUSH2 0xF51 DUP4 PUSH2 0x2493 JUMP JUMPDEST POP SWAP2 SWAP1 PUSH1 0x16 DUP2 SUB PUSH2 0x116F JUMPI POP PUSH1 0x6 DUP5 SWAP1 SSTORE PUSH1 0x4 SLOAD PUSH1 0x40 DUP1 MLOAD PUSH1 0x7 SWAP6 DUP7 SIGNEXTEND DUP2 MSTORE SWAP4 SWAP1 SWAP5 SIGNEXTEND PUSH1 0x20 DUP5 ADD MSTORE CALLER SWAP4 SWAP2 AND SWAP2 PUSH32 0xAD91542866F4DA9EBED5A2B1713258F4BF970F84E7B2A0B8AAB2DE28D11FFFFD SWAP2 SWAP1 LOG3 PUSH1 0x40 DUP1 MLOAD CALLVALUE DUP2 MSTORE PUSH1 0x20 DUP2 ADD SWAP3 SWAP1 SWAP3 MSTORE TIMESTAMP SWAP1 DUP3 ADD MSTORE CALLER SWAP1 PUSH32 0x64B83944E79C3CE8D4C297411DE637C3E102D064677AAC0C163976EBDCD6F50E SWAP1 DUP1 PUSH1 0x60 DUP2 ADD PUSH2 0x90E JUMP JUMPDEST PUSH1 0x40 MLOAD PUSH3 0x461BCD PUSH1 0xE5 SHL DUP2 MSTORE PUSH1 0x20 PUSH1 0x4 DUP3 ADD MSTORE PUSH1 0x1E PUSH1 0x24 DUP3 ADD MSTORE PUSH32 0x496E73756666696369656E7420696E697469616C206C69717569646974790000 PUSH1 0x44 DUP3 ADD MSTORE PUSH1 0x64 SWAP1 REVERT JUMPDEST PUSH1 0x40 MLOAD PUSH3 0x461BCD PUSH1 0xE5 SHL DUP2 MSTORE PUSH1 0x20 PUSH1 0x4 DUP3 ADD MSTORE PUSH1 0x18 PUSH1 0x24 DUP3 ADD MSTORE PUSH32 0x506F6F6C20616C726561647920696E697469616C697A65640000000000000000 PUSH1 0x44 DUP3 ADD MSTORE PUSH1 0x64 SWAP1 REVERT JUMPDEST CALLVALUE PUSH2 0x29A JUMPI PUSH1 0x20 CALLDATASIZE PUSH1 0x3 NOT ADD SLT PUSH2 0x29A JUMPI PUSH1 0x0 PUSH1 0x80 PUSH1 0x40 MLOAD PUSH2 0x22BB DUP2 PUSH2 0x245D JUMP JUMPDEST DUP3 DUP2 MSTORE DUP3 PUSH1 0x20 DUP3 ADD MSTORE DUP3 PUSH1 0x40 DUP3 ADD MSTORE DUP3 PUSH1 0x60 DUP3 ADD MSTORE ADD MSTORE PUSH1 0x4 CALLDATALOAD PUSH1 0x0 MSTORE PUSH1 0xB PUSH1 0x20 MSTORE PUSH1 0xA0 PUSH1 0x40 PUSH1 0x0 KECCAK256 PUSH1 0x40 MLOAD PUSH2 0x22F0 DUP2 PUSH2 0x245D JUMP JUMPDEST DUP2 SLOAD SWAP2 DUP3 DUP3 MSTORE PUSH1 0x1 DUP2 ADD SLOAD SWAP1 PUSH1 0x20 DUP4 ADD SWAP2 DUP3 MSTORE PUSH1 0x2 DUP2 ADD SLOAD PUSH1 0x40 DUP5 ADD SWAP1 DUP2 MSTORE PUSH1 0x1 DUP1 DUP8 SHL SUB SWAP3 PUSH1 0x80 PUSH1 0x4 DUP6 PUSH1 0x3 DUP7 ADD SLOAD AND SWAP5 PUSH1 0x60 DUP9 ADD SWAP6 DUP7 MSTORE ADD SLOAD SWAP6 ADD SWAP5 DUP6 MSTORE PUSH1 0x40 MLOAD SWAP6 DUP7 MSTORE MLOAD PUSH1 0x20 DUP7 ADD MSTORE MLOAD PUSH1 0x40 DUP6 ADD MSTORE MLOAD AND PUSH1 0x60 DUP4 ADD MSTORE MLOAD PUSH1 0x80 DUP3 ADD MSTORE RETURN JUMPDEST CALLVALUE PUSH2 0x29A JUMPI PUSH1 0x0 CALLDATASIZE PUSH1 0x3 NOT ADD SLT PUSH2 0x29A JUMPI PUSH1 0x20 PUSH1 0x40 MLOAD PUSH3 0x186A0 DUP2 MSTORE RETURN JUMPDEST CALLVALUE PUSH2 0x29A JUMPI PUSH1 0x0 CALLDATASIZE PUSH1 0x3 NOT ADD SLT PUSH2 0x29A JUMPI PUSH1 0x20 PUSH1 0xFF PUSH1 0xA SLOAD PUSH1 0xA8 SHR AND PUSH1 0x40 MLOAD SWAP1 ISZERO ISZERO DUP2 MSTORE RETURN JUMPDEST CALLVALUE PUSH2 0x29A JUMPI PUSH1 0x0 PUSH2 0x81D DUP3 PUSH2 0xB32 DUP4 SWAP5 PUSH2 0x23AE CALLDATASIZE PUSH2 0x2402 JUMP JUMPDEST PUSH4 0xAED65F5 PUSH1 0xE1 SHL PUSH1 0x20 DUP7 ADD SWAP1 DUP2 MSTORE PUSH1 0x1 PUSH1 0x1 PUSH1 0xA0 SHL SUB SWAP5 DUP6 AND PUSH1 0x24 DUP8 ADD MSTORE SWAP3 DUP5 AND PUSH1 0x44 DUP7 ADD MSTORE SWAP3 AND PUSH1 0x64 DUP5 ADD MSTORE PUSH1 0x84 DUP4 ADD SWAP2 SWAP1 SWAP2 MSTORE SWAP4 PUSH1 0xA4 DUP3 ADD SWAP1 JUMP JUMPDEST PUSH1 0x4 CALLDATALOAD SWAP1 PUSH1 0x1 PUSH1 0x1 PUSH1 0xA0 SHL SUB DUP3 AND DUP3 SUB PUSH2 0x29A JUMPI JUMP JUMPDEST PUSH1 0x80 SWAP1 PUSH1 0x3 NOT ADD SLT PUSH2 0x29A JUMPI PUSH1 0x1 PUSH1 0x1 PUSH1 0xA0 SHL SUB PUSH1 0x4 CALLDATALOAD DUP2 DUP2 AND DUP2 SUB PUSH2 0x29A JUMPI SWAP2 PUSH1 0x24 CALLDATALOAD DUP3 DUP2 AND DUP2 SUB PUSH2 0x29A JUMPI SWAP2 PUSH1 0x44 CALLDATALOAD SWAP1 DUP2 AND DUP2 SUB PUSH2 0x29A JUMPI SWAP1 PUSH1 0x64 CALLDATALOAD SWAP1 JUMP JUMPDEST PUSH1 0x60 SWAP1 PUSH1 0x3 NOT ADD SLT PUSH2 0x29A JUMPI PUSH1 0x4 CALLDATALOAD SWAP1 PUSH1 0x24 CALLDATALOAD SWAP1 PUSH1 0x44 CALLDATALOAD SWAP1 JUMP JUMPDEST PUSH1 0xA0 DUP2 ADD SWAP1 DUP2 LT PUSH1 0x1 PUSH1 0x1 PUSH1 0x40 SHL SUB DUP3 GT OR PUSH2 0x17F1 JUMPI PUSH1 0x40 MSTORE JUMP JUMPDEST PUSH1 0x40 DUP2 ADD SWAP1 DUP2 LT PUSH1 0x1 PUSH1 0x1 PUSH1 0x40 SHL SUB DUP3 GT OR PUSH2 0x17F1 JUMPI PUSH1 0x40 MSTORE JUMP JUMPDEST PUSH1 0x20 DUP2 ADD SWAP1 DUP2 LT PUSH1 0x1 PUSH1 0x1 PUSH1 0x40 SHL SUB DUP3 GT OR PUSH2 0x17F1 JUMPI PUSH1 0x40 MSTORE JUMP JUMPDEST PUSH1 0xC0 DUP2 ADD SWAP1 DUP2 LT PUSH1 0x1 PUSH1 0x1 PUSH1 0x40 SHL SUB DUP3 GT OR PUSH2 0x17F1 JUMPI PUSH1 0x40 MSTORE JUMP JUMPDEST PUSH1 0x60 DUP2 ADD SWAP1 DUP2 LT PUSH1 0x1 PUSH1 0x1 PUSH1 0x40 SHL SUB DUP3 GT OR PUSH2 0x17F1 JUMPI PUSH1 0x40 MSTORE JUMP JUMPDEST PUSH1 0x80 DUP2 ADD SWAP1 DUP2 LT PUSH1 0x1 PUSH1 0x1 PUSH1 0x40 SHL SUB DUP3 GT OR PUSH2 0x17F1 JUMPI PUSH1 0x40 MSTORE JUMP JUMPDEST SWAP1 PUSH1 0x1F DUP1 NOT SWAP2 ADD AND DUP2 ADD SWAP1 DUP2 LT PUSH1 0x1 PUSH1 0x1 PUSH1 0x40 SHL SUB DUP3 GT OR PUSH2 0x17F1 JUMPI PUSH1 0x40 MSTORE JUMP JUMPDEST PUSH1 0x1 PUSH1 0x1 PUSH1 0x40 SHL SUB DUP2 GT PUSH2 0x17F1 JUMPI PUSH1 0x1F ADD PUSH1 0x1F NOT AND PUSH1 0x20 ADD SWAP1 JUMP JUMPDEST SWAP3 SWAP2 SWAP3 PUSH2 0x2547 DUP3 PUSH2 0x2520 JUMP JUMPDEST SWAP2 PUSH2 0x2555 PUSH1 0x40 MLOAD SWAP4 DUP5 PUSH2 0x24FF JUMP JUMPDEST DUP3 SWAP5 DUP2 DUP5 MSTORE DUP2 DUP4 ADD GT PUSH2 0x29A JUMPI DUP3 DUP2 PUSH1 0x20 SWAP4 DUP5 PUSH1 0x0 SWAP7 ADD CALLDATACOPY ADD ADD MSTORE JUMP JUMPDEST SWAP1 DUP1 PUSH1 0x1F DUP4 ADD SLT ISZERO PUSH2 0x29A JUMPI DUP2 PUSH1 0x20 PUSH2 0x258D SWAP4 CALLDATALOAD SWAP2 ADD PUSH2 0x253B JUMP JUMPDEST SWAP1 JUMP JUMPDEST PUSH1 0x0 JUMPDEST DUP4 DUP2 LT PUSH2 0x25A3 JUMPI POP POP PUSH1 0x0 SWAP2 ADD MSTORE JUMP JUMPDEST DUP2 DUP2 ADD MLOAD DUP4 DUP3 ADD MSTORE PUSH1 0x20 ADD PUSH2 0x2593 JUMP JUMPDEST SWAP1 PUSH1 0x20 SWAP2 PUSH2 0x25CC DUP2 MLOAD DUP1 SWAP3 DUP2 DUP6 MSTORE DUP6 DUP1 DUP7 ADD SWAP2 ADD PUSH2 0x2590 JUMP JUMPDEST PUSH1 0x1F ADD PUSH1 0x1F NOT AND ADD ADD SWAP1 JUMP JUMPDEST SWAP1 PUSH1 0x1 DUP3 DUP2 SHR SWAP3 AND DUP1 ISZERO PUSH2 0x2608 JUMPI JUMPDEST PUSH1 0x20 DUP4 LT EQ PUSH2 0x25F2 JUMPI JUMP JUMPDEST PUSH4 0x4E487B71 PUSH1 0xE0 SHL PUSH1 0x0 MSTORE PUSH1 0x22 PUSH1 0x4 MSTORE PUSH1 0x24 PUSH1 0x0 REVERT JUMPDEST SWAP2 PUSH1 0x7F AND SWAP2 PUSH2 0x25E7 JUMP JUMPDEST PUSH1 0x40 MLOAD SWAP1 PUSH1 0x0 DUP3 PUSH1 0x8 SLOAD SWAP2 PUSH2 0x2626 DUP4 PUSH2 0x25D8 JUMP JUMPDEST DUP1 DUP4 MSTORE SWAP3 PUSH1 0x1 SWAP1 DUP2 DUP2 AND SWAP1 DUP2 ISZERO PUSH2 0x269C JUMPI POP PUSH1 0x1 EQ PUSH2 0x264F JUMPI JUMPDEST POP PUSH2 0x264D SWAP3 POP SUB DUP4 PUSH2 0x24FF JUMP JUMPDEST JUMP JUMPDEST PUSH1 0x8 PUSH1 0x0 SWAP1 DUP2 MSTORE SWAP2 POP PUSH1 0x0 DUP1 MLOAD PUSH1 0x20 PUSH2 0x39DA DUP4 CODECOPY DUP2 MLOAD SWAP2 MSTORE JUMPDEST DUP5 DUP4 LT PUSH2 0x2681 JUMPI POP PUSH2 0x264D SWAP4 POP POP DUP2 ADD PUSH1 0x20 ADD CODESIZE PUSH2 0x2640 JUMP JUMPDEST DUP2 SWAP4 POP SWAP1 DUP2 PUSH1 0x20 SWAP3 SLOAD DUP4 DUP6 DUP11 ADD ADD MSTORE ADD SWAP2 ADD SWAP1 SWAP2 DUP6 SWAP3 PUSH2 0x2668 JUMP JUMPDEST SWAP1 POP PUSH1 0x20 SWAP3 POP PUSH2 0x264D SWAP5 SWAP2 POP PUSH1 0xFF NOT AND DUP3 DUP5 ADD MSTORE ISZERO ISZERO PUSH1 0x5 SHL DUP3 ADD ADD CODESIZE PUSH2 0x2640 JUMP JUMPDEST PUSH1 0x40 MLOAD SWAP1 PUSH1 0x0 DUP3 PUSH1 0x9 SLOAD SWAP2 PUSH2 0x26D2 DUP4 PUSH2 0x25D8 JUMP JUMPDEST DUP1 DUP4 MSTORE SWAP3 PUSH1 0x1 SWAP1 DUP2 DUP2 AND SWAP1 DUP2 ISZERO PUSH2 0x269C JUMPI POP PUSH1 0x1 EQ PUSH2 0x26F8 JUMPI POP PUSH2 0x264D SWAP3 POP SUB DUP4 PUSH2 0x24FF JUMP JUMPDEST PUSH1 0x9 PUSH1 0x0 SWAP1 DUP2 MSTORE SWAP2 POP PUSH1 0x0 DUP1 MLOAD PUSH1 0x20 PUSH2 0x39FA DUP4 CODECOPY DUP2 MLOAD SWAP2 MSTORE JUMPDEST DUP5 DUP4 LT PUSH2 0x272A JUMPI POP PUSH2 0x264D SWAP4 POP POP DUP2 ADD PUSH1 0x20 ADD CODESIZE PUSH2 0x2640 JUMP JUMPDEST DUP2 SWAP4 POP SWAP1 DUP2 PUSH1 0x20 SWAP3 SLOAD DUP4 DUP6 DUP11 ADD ADD MSTORE ADD SWAP2 ADD SWAP1 SWAP2 DUP6 SWAP3 PUSH2 0x2711 JUMP JUMPDEST PUSH1 0x40 SWAP1 PUSH1 0x3 NOT ADD SLT PUSH2 0x29A JUMPI PUSH1 0x4 CALLDATALOAD SWAP1 PUSH1 0x24 CALLDATALOAD SWAP1 JUMP JUMPDEST DUP1 SLOAD DUP3 LT ISZERO PUSH2 0x2773 JUMPI PUSH1 0x0 MSTORE PUSH1 0x20 PUSH1 0x0 KECCAK256 ADD SWAP1 PUSH1 0x0 SWAP1 JUMP JUMPDEST PUSH4 0x4E487B71 PUSH1 0xE0 SHL PUSH1 0x0 MSTORE PUSH1 0x32 PUSH1 0x4 MSTORE PUSH1 0x24 PUSH1 0x0 REVERT JUMPDEST PUSH1 0x0 SLOAD PUSH1 0x1 PUSH1 0x1 PUSH1 0xA0 SHL SUB AND CALLER SUB PUSH2 0x279D JUMPI JUMP JUMPDEST PUSH1 0x40 MLOAD PUSH4 0x118CDAA7 PUSH1 0xE0 SHL DUP2 MSTORE CALLER PUSH1 0x4 DUP3 ADD MSTORE PUSH1 0x24 SWAP1 REVERT JUMPDEST PUSH1 0x1 PUSH1 0x1 PUSH1 0x40 SHL SUB DUP2 GT PUSH2 0x17F1 JUMPI PUSH1 0x5 SHL PUSH1 0x20 ADD SWAP1 JUMP JUMPDEST PUSH1 0x40 MLOAD SWAP1 PUSH2 0x27D9 DUP3 PUSH2 0x245D JUMP JUMPDEST PUSH1 0x0 PUSH1 0x80 DUP4 DUP3 DUP2 MSTORE DUP3 PUSH1 0x20 DUP3 ADD MSTORE PUSH1 0x60 PUSH1 0x40 DUP3 ADD MSTORE PUSH1 0x60 DUP1 DUP3 ADD MSTORE ADD MSTORE JUMP JUMPDEST PUSH1 0x40 MLOAD SWAP1 PUSH2 0x2805 DUP3 PUSH2 0x2478 JUMP JUMPDEST DUP2 PUSH1 0x0 DUP2 MSTORE PUSH1 0x20 PUSH2 0x2814 PUSH2 0x27CC JUMP JUMPDEST SWAP2 ADD MSTORE JUMP JUMPDEST DUP1 MLOAD ISZERO PUSH2 0x2773 JUMPI PUSH1 0x20 ADD SWAP1 JUMP JUMPDEST ISZERO PUSH2 0x282D JUMPI JUMP JUMPDEST PUSH1 0x40 MLOAD PUSH3 0x461BCD PUSH1 0xE5 SHL DUP2 MSTORE PUSH1 0x20 PUSH1 0x4 DUP3 ADD MSTORE PUSH1 0x11 PUSH1 0x24 DUP3 ADD MSTORE PUSH17 0x151BDAD95B881B9BDD0818DC99585D1959 PUSH1 0x7A SHL PUSH1 0x44 DUP3 ADD MSTORE PUSH1 0x64 SWAP1 REVERT JUMPDEST DUP2 ISZERO PUSH2 0x2870 JUMPI DIV SWAP1 JUMP JUMPDEST PUSH4 0x4E487B71 PUSH1 0xE0 SHL PUSH1 0x0 MSTORE PUSH1 0x12 PUSH1 0x4 MSTORE PUSH1 0x24 PUSH1 0x0 REVERT JUMPDEST PUSH1 0xFF PUSH1 0x2 SLOAD AND PUSH2 0x2892 JUMPI JUMP JUMPDEST PUSH1 0x40 MLOAD PUSH4 0xD93C0665 PUSH1 0xE0 SHL DUP2 MSTORE PUSH1 0x4 SWAP1 REVERT JUMPDEST PUSH1 0x2 PUSH1 0x1 SLOAD EQ PUSH2 0x28B5 JUMPI PUSH1 0x2 PUSH1 0x1 SSTORE JUMP JUMPDEST PUSH1 0x40 MLOAD PUSH4 0x3EE5AEB5 PUSH1 0xE0 SHL DUP2 MSTORE PUSH1 0x4 SWAP1 REVERT JUMPDEST ISZERO PUSH2 0x28CE JUMPI JUMP JUMPDEST PUSH1 0x40 MLOAD PUSH3 0x461BCD PUSH1 0xE5 SHL DUP2 MSTORE PUSH1 0x20 PUSH1 0x4 DUP3 ADD MSTORE PUSH1 0x14 PUSH1 0x24 DUP3 ADD MSTORE PUSH20 0x141BDBDB081B9BDD081A5B9A5D1A585B1A5E9959 PUSH1 0x62 SHL PUSH1 0x44 DUP3 ADD MSTORE PUSH1 0x64 SWAP1 REVERT JUMPDEST ISZERO PUSH2 0x2911 JUMPI JUMP JUMPDEST PUSH1 0x40 MLOAD PUSH3 0x461BCD PUSH1 0xE5 SHL DUP2 MSTORE PUSH1 0x20 PUSH1 0x4 DUP3 ADD MSTORE PUSH1 0x10 PUSH1 0x24 DUP3 ADD MSTORE PUSH16 0x139BC812109054881C1C9BDD9A591959 PUSH1 0x82 SHL PUSH1 0x44 DUP3 ADD MSTORE PUSH1 0x64 SWAP1 REVERT JUMPDEST ISZERO PUSH2 0x2950 JUMPI JUMP JUMPDEST PUSH1 0x40 MLOAD PUSH3 0x461BCD PUSH1 0xE5 SHL DUP2 MSTORE PUSH1 0x20 PUSH1 0x4 DUP3 ADD MSTORE PUSH1 0x21 PUSH1 0x24 DUP3 ADD MSTORE PUSH32 0x55534420616D6F756E74206D7573742062652067726561746572207468616E20 PUSH1 0x44 DUP3 ADD MSTORE PUSH1 0x3 PUSH1 0xFC SHL PUSH1 0x64 DUP3 ADD MSTORE PUSH1 0x84 SWAP1 REVERT JUMPDEST ISZERO PUSH2 0x29A6 JUMPI JUMP JUMPDEST PUSH1 0x40 MLOAD PUSH3 0x461BCD PUSH1 0xE5 SHL DUP2 MSTORE PUSH1 0x20 PUSH1 0x4 DUP3 ADD MSTORE PUSH1 0x28 PUSH1 0x24 DUP3 ADD MSTORE PUSH32 0x4D617475726174696F6E20616D6F756E74206D75737420626520677265617465 PUSH1 0x44 DUP3 ADD MSTORE PUSH8 0x72207468616E203 PUSH1 0xC4 SHL PUSH1 0x64 DUP3 ADD MSTORE PUSH1 0x84 SWAP1 REVERT JUMPDEST ISZERO PUSH2 0x2A03 JUMPI JUMP JUMPDEST PUSH1 0x40 MLOAD PUSH3 0x461BCD PUSH1 0xE5 SHL DUP2 MSTORE PUSH1 0x20 PUSH1 0x4 DUP3 ADD MSTORE PUSH1 0x11 PUSH1 0x24 DUP3 ADD MSTORE PUSH17 0x14DB1A5C1C1859D948195E18D959591959 PUSH1 0x7A SHL PUSH1 0x44 DUP3 ADD MSTORE PUSH1 0x64 SWAP1 REVERT JUMPDEST SWAP2 SWAP1 DUP3 ADD DUP1 SWAP3 GT PUSH2 0x1EBA JUMPI JUMP JUMPDEST PUSH1 0x0 NOT DUP2 EQ PUSH2 0x1EBA JUMPI PUSH1 0x1 ADD SWAP1 JUMP JUMPDEST DUP2 DUP2 MUL SWAP3 SWAP2 DUP2 ISZERO SWAP2 DUP5 DIV EQ OR ISZERO PUSH2 0x1EBA JUMPI JUMP JUMPDEST SWAP2 SWAP1 DUP3 SUB SWAP2 DUP3 GT PUSH2 0x1EBA JUMPI JUMP JUMPDEST SWAP1 DUP2 MLOAD DUP1 DUP3 MSTORE PUSH1 0x20 DUP1 DUP1 SWAP4 ADD SWAP4 ADD SWAP2 PUSH1 0x0 JUMPDEST DUP3 DUP2 LT PUSH2 0x2A98 JUMPI POP POP POP POP SWAP1 JUMP JUMPDEST DUP4 MLOAD PUSH1 0x7 SIGNEXTEND DUP6 MSTORE SWAP4 DUP2 ADD SWAP4 SWAP3 DUP2 ADD SWAP3 PUSH1 0x1 ADD PUSH2 0x2A8A JUMP JUMPDEST RETURNDATASIZE ISZERO PUSH2 0x2ADA JUMPI RETURNDATASIZE SWAP1 PUSH2 0x2AC0 DUP3 PUSH2 0x2520 JUMP JUMPDEST SWAP2 PUSH2 0x2ACE PUSH1 0x40 MLOAD SWAP4 DUP5 PUSH2 0x24FF JUMP JUMPDEST DUP3 MSTORE RETURNDATASIZE PUSH1 0x0 PUSH1 0x20 DUP5 ADD RETURNDATACOPY JUMP JUMPDEST PUSH1 0x60 SWAP1 JUMP JUMPDEST PUSH1 0x6 SLOAD SWAP1 DUP2 ISZERO PUSH2 0x2AFF JUMPI PUSH2 0x258D SWAP2 PUSH2 0x2AF6 SWAP2 PUSH2 0x2A58 JUMP JUMPDEST PUSH1 0x5 SLOAD SWAP1 PUSH2 0x2866 JUMP JUMPDEST POP POP PUSH1 0x0 SWAP1 JUMP JUMPDEST SWAP1 DUP2 ISZERO PUSH2 0x2B13 DUP2 ISZERO PUSH2 0x2949 JUMP JUMPDEST PUSH2 0x2B1E DUP3 ISZERO ISZERO PUSH2 0x299F JUMP JUMPDEST PUSH3 0xF4240 DUP1 DUP5 MUL SWAP4 DUP5 DIV EQ OR ISZERO PUSH2 0x1EBA JUMPI PUSH2 0x258D SWAP2 PUSH2 0x2866 JUMP JUMPDEST PUSH1 0x6 SLOAD DUP1 ISZERO PUSH2 0x2AFF JUMPI PUSH2 0x73A PUSH2 0x258D SWAP3 PUSH1 0x5 SLOAD SWAP1 PUSH2 0x2A58 JUMP JUMPDEST PUSH1 0xFF PUSH1 0xA SLOAD PUSH1 0xA8 SHR AND ISZERO PUSH2 0x2BA4 JUMPI PUSH1 0x6 SLOAD PUSH1 0x0 SWAP2 DUP2 ISZERO PUSH2 0x2B99 JUMPI PUSH2 0x2B7B DUP3 PUSH2 0x73A PUSH1 0x5 SLOAD DUP7 PUSH2 0x2A58 JUMP JUMPDEST SWAP2 PUSH2 0x2710 SWAP1 DUP2 DUP6 MUL SWAP2 DUP6 DUP4 DIV EQ DUP6 ISZERO OR ISZERO PUSH2 0x1EBA JUMPI PUSH2 0x258D SWAP2 PUSH2 0x2866 JUMP JUMPDEST PUSH1 0x0 SWAP3 POP DUP3 SWAP2 POP DUP2 SWAP1 JUMP JUMPDEST PUSH1 0x0 SWAP1 PUSH1 0x0 SWAP1 PUSH1 0x0 SWAP1 JUMP JUMPDEST PUSH1 0x6 SLOAD DUP1 ISZERO PUSH2 0x2BC7 JUMPI PUSH2 0x258D SWAP1 PUSH1 0x64 PUSH1 0x7 SLOAD DIV PUSH2 0x2866 JUMP JUMPDEST POP PUSH1 0x0 SWAP1 JUMP JUMPDEST PUSH1 0xFF PUSH1 0xA SLOAD PUSH1 0xA8 SHR AND ISZERO DUP1 ISZERO PUSH2 0x2C00 JUMPI JUMPDEST PUSH2 0x2BFB JUMPI PUSH1 0x7 SLOAD ISZERO PUSH1 0x1 OR ISZERO PUSH2 0x1EBA JUMPI PUSH1 0x6 SLOAD ISZERO PUSH2 0x2870 JUMPI PUSH1 0x0 SWAP1 JUMP JUMPDEST PUSH1 0x0 SWAP1 JUMP JUMPDEST POP PUSH1 0x6 SLOAD ISZERO PUSH2 0x2BDE JUMP JUMPDEST DUP1 PUSH1 0x3 SIGNEXTEND SWAP1 PUSH1 0x16 DUP3 EQ PUSH2 0x3712 JUMPI PUSH1 0x9 DUP3 EQ PUSH2 0x36BD JUMPI PUSH1 0xA DUP3 EQ PUSH2 0x365C JUMPI PUSH1 0x7 DUP3 EQ PUSH2 0x3604 JUMPI PUSH1 0xF DUP3 EQ PUSH2 0x35A3 JUMPI PUSH1 0x10 DUP3 EQ PUSH2 0x3542 JUMPI PUSH1 0x1E DUP3 EQ PUSH2 0x34F4 JUMPI PUSH1 0x22 DUP3 EQ PUSH2 0x3493 JUMPI PUSH1 0x6F DUP3 EQ PUSH2 0x3444 JUMPI PUSH1 0xAA DUP3 EQ PUSH2 0x33E3 JUMPI PUSH1 0xAB DUP3 EQ PUSH2 0x3391 JUMPI PUSH1 0xAE DUP3 EQ PUSH2 0x333D JUMPI PUSH1 0xAF DUP3 EQ PUSH2 0x32DC JUMPI PUSH1 0xBE DUP3 EQ PUSH2 0x328C JUMPI PUSH1 0xBF DUP3 EQ PUSH2 0x3233 JUMPI PUSH1 0xA8 DUP3 EQ PUSH2 0x31D2 JUMPI PUSH1 0xA9 DUP3 EQ PUSH2 0x3171 JUMPI PUSH1 0xBD DUP3 EQ PUSH2 0x3123 JUMPI PUSH1 0x9B DUP3 EQ PUSH2 0x30D7 JUMPI PUSH1 0x1A DUP3 EQ PUSH2 0x308D JUMPI PUSH1 0x1B DUP3 EQ PUSH2 0x3043 JUMPI PUSH1 0x26 DUP3 EQ PUSH2 0x2FEA JUMPI PUSH1 0x40 SWAP2 DUP3 DUP2 EQ PUSH2 0x2F93 JUMPI PUSH1 0x41 DUP2 EQ PUSH2 0x2F27 JUMPI PUSH2 0x117 DUP2 EQ PUSH2 0x2ECF JUMPI PUSH2 0x145 DUP2 EQ PUSH2 0x2E70 JUMPI PUSH2 0x146 DUP2 EQ PUSH2 0x2E11 JUMPI PUSH2 0x147 DUP2 EQ PUSH2 0x2DA8 JUMPI PUSH2 0x148 EQ PUSH2 0x2D54 JUMPI PUSH1 0x33 PUSH2 0x2D11 PUSH4 0xFFFFFFFF PUSH2 0x258D SWAP4 AND PUSH2 0x3737 JUMP JUMPDEST SWAP3 MLOAD DUP1 SWAP4 PUSH19 0x554E4B4E4F574E5F4552524F525F434F44455F PUSH1 0x68 SHL PUSH1 0x20 DUP4 ADD MSTORE PUSH2 0x2D44 DUP2 MLOAD DUP1 SWAP3 PUSH1 0x20 DUP7 DUP7 ADD SWAP2 ADD PUSH2 0x2590 JUMP JUMPDEST DUP2 ADD SUB PUSH1 0x13 DUP2 ADD DUP5 MSTORE ADD DUP3 PUSH2 0x24FF JUMP JUMPDEST POP PUSH19 0x206D616E79206368696C64207265636F726473 PUSH1 0x68 SHL DUP2 MLOAD SWAP2 PUSH2 0x2D78 DUP4 PUSH2 0x24C9 JUMP JUMPDEST PUSH1 0x33 DUP4 MSTORE PUSH32 0x4D41585F4348494C445F5245434F5244535F4558434545444544202D20546F6F PUSH1 0x20 DUP5 ADD MSTORE DUP3 ADD MSTORE SWAP1 JUMP JUMPDEST POP POP PUSH32 0x6666696369656E742062616C616E636520666F722073746F726167652072656E DUP2 MLOAD SWAP2 PUSH2 0x2DD7 DUP4 PUSH2 0x24E4 JUMP JUMPDEST PUSH1 0x41 DUP4 MSTORE PUSH32 0x494E53554646494349454E545F53544F524147455F52454E54202D20496E7375 PUSH1 0x20 DUP5 ADD MSTORE DUP3 ADD MSTORE PUSH1 0x1D PUSH1 0xFA SHL PUSH1 0x60 DUP3 ADD MSTORE SWAP1 JUMP JUMPDEST POP POP PUSH32 0x6E76616C6964207369676E617475726520666F7220707265636F6D70696C6500 DUP2 MLOAD SWAP2 PUSH2 0x2E40 DUP4 PUSH2 0x24C9 JUMP JUMPDEST PUSH1 0x3F DUP4 MSTORE PUSH32 0x494E56414C49445F505245434F4D50494C455F5349474E4154555245202D2049 PUSH1 0x20 DUP5 ADD MSTORE DUP3 ADD MSTORE SWAP1 JUMP JUMPDEST POP POP PUSH32 0x6E74697469657320696E20707269636520726567696D65207265616368656400 DUP2 MLOAD SWAP2 PUSH2 0x2E9F DUP4 PUSH2 0x24C9 JUMP JUMPDEST PUSH1 0x3F DUP4 MSTORE PUSH32 0x4D41585F454E5449544945535F43524541544544202D204D6178696D756D2065 PUSH1 0x20 DUP5 ADD MSTORE DUP3 ADD MSTORE SWAP1 JUMP JUMPDEST POP POP PUSH22 0x1CDD5CC81B9BD9194819D85CC8195E1A185D5CDD1959 PUSH1 0x52 SHL DUP2 MLOAD SWAP2 PUSH2 0x2EF7 DUP4 PUSH2 0x24C9 JUMP JUMPDEST PUSH1 0x36 DUP4 MSTORE PUSH32 0x434F4E53454E5355535F4741535F455848415553544544202D20436F6E73656E PUSH1 0x20 DUP5 ADD MSTORE DUP3 ADD MSTORE SWAP1 JUMP JUMPDEST POP POP PUSH32 0x616E73616374696F6E2068617320746F6F206D616E79206E6573746564206C61 DUP2 MLOAD SWAP2 PUSH2 0x2F56 DUP4 PUSH2 0x24E4 JUMP JUMPDEST PUSH1 0x44 DUP4 MSTORE PUSH32 0x5452414E53414354494F4E5F544F4F5F4D414E595F4C4159455253202D205472 PUSH1 0x20 DUP5 ADD MSTORE DUP3 ADD MSTORE PUSH4 0x79657273 PUSH1 0xE0 SHL PUSH1 0x60 DUP3 ADD MSTORE SWAP1 JUMP JUMPDEST POP POP PUSH21 0x1BDB88195E18D959591CC81CDA5E99481B1A5B5A5D PUSH1 0x5A SHL DUP2 MLOAD SWAP2 PUSH2 0x2FBA DUP4 PUSH2 0x24C9 JUMP JUMPDEST PUSH1 0x35 DUP4 MSTORE PUSH32 0x5452414E53414354494F4E5F4F56455253495A45202D205472616E7361637469 PUSH1 0x20 DUP5 ADD MSTORE DUP3 ADD MSTORE SWAP1 JUMP JUMPDEST POP POP PUSH1 0x40 MLOAD PUSH2 0x2FF8 DUP2 PUSH2 0x24C9 JUMP JUMPDEST PUSH1 0x35 DUP2 MSTORE PUSH32 0x494E56414C49445F4B45595F454E434F44494E47202D204B657920656E636F64 PUSH1 0x20 DUP3 ADD MSTORE PUSH21 0x1A5B99C8199BDC9B585D081A5CC81A5B9D985B1A59 PUSH1 0x5A SHL PUSH1 0x40 DUP3 ADD MSTORE SWAP1 JUMP JUMPDEST POP POP PUSH1 0x40 MLOAD PUSH2 0x3051 DUP2 PUSH2 0x24C9 JUMP JUMPDEST PUSH1 0x26 DUP2 MSTORE PUSH32 0x4241445F454E434F44494E47202D204B657920656E636F64696E672069732069 PUSH1 0x20 DUP3 ADD MSTORE PUSH6 0x1B9D985B1A59 PUSH1 0xD2 SHL PUSH1 0x40 DUP3 ADD MSTORE SWAP1 JUMP JUMPDEST POP POP PUSH1 0x40 MLOAD PUSH2 0x309B DUP2 PUSH2 0x24C9 JUMP JUMPDEST PUSH1 0x26 DUP2 MSTORE PUSH32 0x4B45595F5245515549524544202D205265717569726564206B6579206973206D PUSH1 0x20 DUP3 ADD MSTORE PUSH6 0x697373696E67 PUSH1 0xD0 SHL PUSH1 0x40 DUP3 ADD MSTORE SWAP1 JUMP JUMPDEST POP POP PUSH1 0x40 MLOAD PUSH2 0x30E5 DUP2 PUSH2 0x24C9 JUMP JUMPDEST PUSH1 0x28 DUP2 MSTORE PUSH32 0x494E56414C49445F41444D494E5F4B4559202D2041646D696E206B6579206973 PUSH1 0x20 DUP3 ADD MSTORE PUSH8 0x81A5B9D985B1A59 PUSH1 0xC2 SHL PUSH1 0x40 DUP3 ADD MSTORE SWAP1 JUMP JUMPDEST POP POP PUSH1 0x40 MLOAD PUSH2 0x3131 DUP2 PUSH2 0x24C9 JUMP JUMPDEST PUSH1 0x2A DUP2 MSTORE PUSH32 0x494E56414C49445F535550504C595F4B4559202D20537570706C79206B657920 PUSH1 0x20 DUP3 ADD MSTORE PUSH10 0x1A5CC81A5B9D985B1A59 PUSH1 0xB2 SHL PUSH1 0x40 DUP3 ADD MSTORE SWAP1 JUMP JUMPDEST POP POP PUSH1 0x40 MLOAD PUSH2 0x317F DUP2 PUSH2 0x24C9 JUMP JUMPDEST PUSH1 0x3E DUP2 MSTORE PUSH32 0x494E56414C49445F544F4B454E5F494E495449414C5F535550504C59202D2049 PUSH1 0x20 DUP3 ADD MSTORE PUSH32 0x6E697469616C20737570706C792076616C756520697320696E76616C69640000 PUSH1 0x40 DUP3 ADD MSTORE SWAP1 JUMP JUMPDEST POP POP PUSH1 0x40 MLOAD PUSH2 0x31E0 DUP2 PUSH2 0x24C9 JUMP JUMPDEST PUSH1 0x38 DUP2 MSTORE PUSH32 0x494E56414C49445F544F4B454E5F444543494D414C53202D20546F6B656E2064 PUSH1 0x20 DUP3 ADD MSTORE PUSH32 0x6563696D616C732076616C756520697320696E76616C69640000000000000000 PUSH1 0x40 DUP3 ADD MSTORE SWAP1 JUMP JUMPDEST POP POP PUSH1 0x40 MLOAD PUSH2 0x3241 DUP2 PUSH2 0x24C9 JUMP JUMPDEST PUSH1 0x35 DUP2 MSTORE PUSH32 0x544F4B454E5F4E414D455F544F4F5F4C4F4E47202D20546F6B656E206E616D65 PUSH1 0x20 DUP3 ADD MSTORE PUSH21 0x8195E18D959591CC81B195B99DD1A081B1A5B5A5D PUSH1 0x5A SHL PUSH1 0x40 DUP3 ADD MSTORE SWAP1 JUMP JUMPDEST POP POP PUSH1 0x40 MLOAD PUSH2 0x329A DUP2 PUSH2 0x24C9 JUMP JUMPDEST PUSH1 0x2C DUP2 MSTORE PUSH32 0x4D495353494E475F544F4B454E5F4E414D45202D20546F6B656E206E616D6520 PUSH1 0x20 DUP3 ADD MSTORE PUSH12 0x1B9BDD081C1C9BDD9A591959 PUSH1 0xA2 SHL PUSH1 0x40 DUP3 ADD MSTORE SWAP1 JUMP JUMPDEST POP POP PUSH1 0x40 MLOAD PUSH2 0x32EA DUP2 PUSH2 0x24C9 JUMP JUMPDEST PUSH1 0x39 DUP2 MSTORE PUSH32 0x544F4B454E5F53594D424F4C5F544F4F5F4C4F4E47202D20546F6B656E207379 PUSH1 0x20 DUP3 ADD MSTORE PUSH32 0x6D626F6C2065786365656473206C656E677468206C696D697400000000000000 PUSH1 0x40 DUP3 ADD MSTORE SWAP1 JUMP JUMPDEST POP POP PUSH1 0x40 MLOAD PUSH2 0x334B DUP2 PUSH2 0x24C9 JUMP JUMPDEST PUSH1 0x30 DUP2 MSTORE PUSH32 0x4D495353494E475F544F4B454E5F53594D424F4C202D20546F6B656E2073796D PUSH1 0x20 DUP3 ADD MSTORE PUSH16 0x189BDB081B9BDD081C1C9BDD9A591959 PUSH1 0x82 SHL PUSH1 0x40 DUP3 ADD MSTORE SWAP1 JUMP JUMPDEST POP POP PUSH1 0x40 MLOAD PUSH2 0x339F DUP2 PUSH2 0x24C9 JUMP JUMPDEST PUSH1 0x2E DUP2 MSTORE PUSH32 0x494E56414C49445F544F4B454E5F53594D424F4C202D20546F6B656E2073796D PUSH1 0x20 DUP3 ADD MSTORE PUSH14 0x189BDB081A5CC81A5B9D985B1A59 PUSH1 0x92 SHL PUSH1 0x40 DUP3 ADD MSTORE SWAP1 JUMP JUMPDEST POP POP PUSH1 0x40 MLOAD PUSH2 0x33F1 DUP2 PUSH2 0x24C9 JUMP JUMPDEST PUSH1 0x3D DUP2 MSTORE PUSH32 0x494E56414C49445F54524541535552595F4143434F554E545F464F525F544F4B PUSH1 0x20 DUP3 ADD MSTORE PUSH32 0x454E202D205472656173757279206163636F756E7420696E76616C6964000000 PUSH1 0x40 DUP3 ADD MSTORE SWAP1 JUMP JUMPDEST POP POP PUSH1 0x40 MLOAD PUSH2 0x3452 DUP2 PUSH2 0x24C9 JUMP JUMPDEST PUSH1 0x2B DUP2 MSTORE PUSH32 0x4D41585F4741535F4C494D49545F4558434545444544202D20476173206C696D PUSH1 0x20 DUP3 ADD MSTORE PUSH11 0x1A5D08195E18D959591959 PUSH1 0xAA SHL PUSH1 0x40 DUP3 ADD MSTORE SWAP1 JUMP JUMPDEST POP POP PUSH1 0x40 MLOAD PUSH2 0x34A1 DUP2 PUSH2 0x24C9 JUMP JUMPDEST PUSH1 0x38 DUP2 MSTORE PUSH32 0x434F4E54524143545F455845435554494F4E5F455843455054494F4E202D2043 PUSH1 0x20 DUP3 ADD MSTORE PUSH32 0x6F6E747261637420657865637574696F6E206661696C65640000000000000000 PUSH1 0x40 DUP3 ADD MSTORE SWAP1 JUMP JUMPDEST POP POP PUSH1 0x40 MLOAD PUSH2 0x3502 DUP2 PUSH2 0x24C9 JUMP JUMPDEST PUSH1 0x2A DUP2 MSTORE PUSH32 0x494E53554646494349454E545F474153202D204E6F7420656E6F756768206761 PUSH1 0x20 DUP3 ADD MSTORE PUSH10 0x1CC81CDD5C1C1B1A5959 PUSH1 0xB2 SHL PUSH1 0x40 DUP3 ADD MSTORE SWAP1 JUMP JUMPDEST POP POP PUSH1 0x40 MLOAD PUSH2 0x3550 DUP2 PUSH2 0x24C9 JUMP JUMPDEST PUSH1 0x3E DUP2 MSTORE PUSH32 0x494E56414C49445F434F4E54524143545F4944202D20436F6E74726163742049 PUSH1 0x20 DUP3 ADD MSTORE PUSH32 0x4420697320696E76616C6964206F7220646F6573206E6F742065786973740000 PUSH1 0x40 DUP3 ADD MSTORE SWAP1 JUMP JUMPDEST POP POP PUSH1 0x40 MLOAD PUSH2 0x35B1 DUP2 PUSH2 0x24C9 JUMP JUMPDEST PUSH1 0x3C DUP2 MSTORE PUSH32 0x494E56414C49445F4143434F554E545F4944202D204163636F756E7420494420 PUSH1 0x20 DUP3 ADD MSTORE PUSH32 0x697320696E76616C6964206F7220646F6573206E6F7420657869737400000000 PUSH1 0x40 DUP3 ADD MSTORE SWAP1 JUMP JUMPDEST POP POP PUSH1 0x40 MLOAD PUSH2 0x3612 DUP2 PUSH2 0x24C9 JUMP JUMPDEST PUSH1 0x34 DUP2 MSTORE PUSH32 0x494E56414C49445F5349474E4154555245202D205472616E73616374696F6E20 PUSH1 0x20 DUP3 ADD MSTORE PUSH20 0x1CDA59DB985D1D5C99481A5CC81A5B9D985B1A59 PUSH1 0x62 SHL PUSH1 0x40 DUP3 ADD MSTORE SWAP1 JUMP JUMPDEST POP POP PUSH1 0x40 MLOAD PUSH2 0x366A DUP2 PUSH2 0x24C9 JUMP JUMPDEST PUSH1 0x40 DUP2 MSTORE PUSH32 0x494E53554646494349454E545F50415945525F42414C414E4345202D20506179 PUSH1 0x20 DUP3 ADD MSTORE PUSH32 0x6572206163636F756E742068617320696E73756666696369656E742048424152 PUSH1 0x40 DUP3 ADD MSTORE SWAP1 JUMP JUMPDEST POP POP PUSH1 0x40 MLOAD PUSH2 0x36CB DUP2 PUSH2 0x24C9 JUMP JUMPDEST PUSH1 0x31 DUP2 MSTORE PUSH32 0x494E53554646494349454E545F54585F464545202D204E6F7420656E6F756768 PUSH1 0x20 DUP3 ADD MSTORE PUSH17 0x819D85CCBD99959481C1C9BDD9A591959 PUSH1 0x7A SHL PUSH1 0x40 DUP3 ADD MSTORE SWAP1 JUMP JUMPDEST POP POP PUSH1 0x40 MLOAD PUSH2 0x3720 DUP2 PUSH2 0x2478 JUMP JUMPDEST PUSH1 0x7 DUP2 MSTORE PUSH7 0x53554343455353 PUSH1 0xC8 SHL PUSH1 0x20 DUP3 ADD MSTORE SWAP1 JUMP JUMPDEST DUP1 ISZERO PUSH2 0x37F7 JUMPI DUP1 DUP2 PUSH1 0x0 SWAP3 JUMPDEST PUSH2 0x37E3 JUMPI POP DUP1 PUSH2 0x3752 DUP4 PUSH2 0x2520 JUMP JUMPDEST SWAP3 PUSH2 0x3760 PUSH1 0x40 MLOAD SWAP5 DUP6 PUSH2 0x24FF JUMP JUMPDEST DUP1 DUP5 MSTORE PUSH1 0x1F NOT PUSH2 0x376F DUP3 PUSH2 0x2520 JUMP JUMPDEST ADD CALLDATASIZE PUSH1 0x20 DUP7 ADD CALLDATACOPY SWAP2 JUMPDEST PUSH2 0x3781 JUMPI POP POP SWAP1 JUMP JUMPDEST PUSH1 0x0 NOT DUP3 ADD SWAP2 DUP1 DUP4 GT PUSH2 0x1EBA JUMPI DUP3 PUSH1 0xA SWAP1 DUP2 DUP5 DIV SWAP4 DUP3 DUP6 MUL SWAP3 DUP6 DUP5 DIV EQ DUP6 ISZERO OR ISZERO PUSH2 0x1EBA JUMPI PUSH2 0x37B3 PUSH1 0xFF SWAP4 DUP5 SWAP3 PUSH2 0x2A6B JUMP JUMPDEST AND PUSH1 0x30 ADD SWAP2 DUP3 GT PUSH2 0x1EBA JUMPI DUP6 MLOAD GT ISZERO PUSH2 0x2773 JUMPI PUSH1 0xF8 SHL PUSH1 0x1 PUSH1 0x1 PUSH1 0xF8 SHL SUB NOT AND PUSH1 0x0 BYTE SWAP1 DUP5 ADD PUSH1 0x1F ADD MSTORE8 DUP1 PUSH2 0x3778 JUMP JUMPDEST SWAP2 PUSH2 0x37EF PUSH1 0xA SWAP2 PUSH2 0x2A49 JUMP JUMPDEST SWAP3 DIV DUP1 PUSH2 0x3743 JUMP JUMPDEST POP PUSH1 0x40 MLOAD PUSH2 0x3804 DUP2 PUSH2 0x2478 JUMP JUMPDEST PUSH1 0x1 DUP2 MSTORE PUSH1 0x3 PUSH1 0xFC SHL PUSH1 0x20 DUP3 ADD MSTORE SWAP1 JUMP JUMPDEST PUSH1 0xFF PUSH1 0x2 SLOAD AND ISZERO PUSH2 0x3822 JUMPI JUMP JUMPDEST PUSH1 0x40 MLOAD PUSH4 0x8DFC202B PUSH1 0xE0 SHL DUP2 MSTORE PUSH1 0x4 SWAP1 REVERT JUMPDEST MLOAD SWAP1 DUP2 PUSH1 0x3 SIGNEXTEND DUP3 SUB PUSH2 0x29A JUMPI JUMP JUMPDEST MLOAD SWAP1 DUP2 PUSH1 0x7 SIGNEXTEND DUP3 SUB PUSH2 0x29A JUMPI JUMP JUMPDEST SWAP2 SWAP1 PUSH1 0x40 SWAP2 DUP3 MLOAD SWAP1 PUSH1 0x20 SWAP5 DUP6 DUP4 ADD SWAP4 PUSH4 0x707A02CD PUSH1 0xE1 SHL DUP6 MSTORE PUSH1 0x84 DUP5 ADD SWAP2 PUSH1 0x1 DUP1 PUSH1 0xA0 SHL SUB AND PUSH1 0x24 DUP6 ADD MSTORE PUSH1 0x7 SIGNEXTEND PUSH1 0x44 DUP5 ADD MSTORE PUSH1 0x60 PUSH1 0x64 DUP5 ADD MSTORE DUP2 MLOAD DUP1 SWAP2 MSTORE PUSH1 0xA4 DUP4 ADD SWAP1 DUP7 PUSH1 0xA4 DUP3 PUSH1 0x5 SHL DUP7 ADD ADD SWAP4 ADD SWAP2 PUSH1 0x0 SWAP1 JUMPDEST DUP9 DUP4 DUP4 LT PUSH2 0x39B0 JUMPI POP POP POP POP POP SWAP2 DUP2 PUSH2 0x38CB PUSH1 0x0 SWAP5 SWAP4 DUP6 SWAP5 SUB PUSH1 0x1F NOT DUP2 ADD DUP4 MSTORE DUP3 PUSH2 0x24FF JUMP JUMPDEST MLOAD SWAP1 DUP3 PUSH2 0x167 GAS CALL SWAP2 PUSH2 0x38DC PUSH2 0x2AAF JUMP JUMPDEST SWAP3 PUSH1 0x0 SWAP1 ISZERO PUSH2 0x3991 JUMPI POP DUP3 MLOAD DUP4 ADD SWAP1 PUSH1 0x60 DUP5 DUP3 DUP5 ADD SWAP4 SUB SLT PUSH2 0x29A JUMPI PUSH2 0x3903 DUP2 DUP6 ADD PUSH2 0x3834 JUMP JUMPDEST SWAP2 PUSH2 0x390F DUP5 DUP7 ADD PUSH2 0x3842 JUMP JUMPDEST SWAP5 PUSH1 0x60 DUP2 ADD MLOAD SWAP1 PUSH1 0x1 PUSH1 0x1 PUSH1 0x40 SHL SUB DUP3 GT PUSH2 0x29A JUMPI ADD SWAP4 DUP2 PUSH1 0x3F DUP7 ADD SLT ISZERO PUSH2 0x29A JUMPI DUP3 DUP6 ADD MLOAD SWAP1 PUSH2 0x393F DUP3 PUSH2 0x27B5 JUMP JUMPDEST SWAP6 PUSH2 0x394C DUP3 MLOAD SWAP8 DUP9 PUSH2 0x24FF JUMP JUMPDEST DUP3 DUP8 MSTORE DUP2 DUP6 DUP9 ADD SWAP4 PUSH1 0x5 SHL DUP3 ADD ADD SWAP4 DUP5 GT PUSH2 0x29A JUMPI ADD SWAP1 JUMPDEST DUP3 DUP3 LT PUSH2 0x397A JUMPI POP POP POP POP SWAP2 SWAP1 JUMPDEST SWAP1 SWAP2 PUSH1 0x3 SIGNEXTEND SWAP3 JUMP JUMPDEST DUP4 DUP1 SWAP2 PUSH2 0x3986 DUP5 PUSH2 0x3842 JUMP JUMPDEST DUP2 MSTORE ADD SWAP2 ADD SWAP1 PUSH2 0x3964 JUMP JUMPDEST SWAP3 POP POP MLOAD SWAP1 PUSH2 0x399F DUP3 PUSH2 0x2493 JUMP JUMPDEST DUP1 DUP3 MSTORE CALLDATASIZE DUP2 CALLDATACOPY PUSH1 0x15 SWAP1 PUSH1 0x0 SWAP1 PUSH2 0x3972 JUMP JUMPDEST DUP1 PUSH2 0x39CB PUSH1 0x1 SWAP4 SWAP5 SWAP6 SWAP7 SWAP8 PUSH1 0xA3 NOT DUP11 DUP3 SUB ADD DUP7 MSTORE DUP9 MLOAD PUSH2 0x25B3 JUMP JUMPDEST SWAP7 ADD SWAP3 ADD SWAP3 ADD SWAP1 SWAP3 SWAP2 PUSH2 0x38A5 JUMP INVALID RETURN 0xF7 0xA9 INVALID CALLDATASIZE 0x4F 0xAA 0xB9 EXTCODESIZE 0x21 PUSH14 0xA50A3214154F22A0A2B415B23A84 0xC8 AND SWAP15 DUP12 PUSH4 0x6EE36E15 BLOCKHASH OR SHL PUSH13 0xC960B71A7020D9F60077F6AF9 BALANCE 0xA8 0xBB CREATE2 SWAP1 0xDA MUL 0x23 0xDA 0xCF PUSH22 0xC7AFA26469706673582212207342578EB52188513C4B SWAP10 0xD8 0xA9 0x23 SIGNEXTEND 0xD8 0x2A SHL PUSH10 0xA605529B95E8A9AA840D GAS POP SWAP16 PUSH5 0x736F6C6343 STOP ADDMOD EQ STOP CALLER "},"methodIdentifiers":{"FEE_BPS()":"bf333f2c","FEE_DENOMINATOR()":"d73792a9","MIN_LIQUIDITY()":"21b77d63","addLiquidity(uint256,uint256,uint256)":"422f1043","addLiquidityWithUSD(uint256,uint256,uint256)":"545466a5","calculateCSLPFromUSD(uint256,uint256)":"b79c41a2","calculateHBAR(uint256)":"34111bbf","calculateLPTokens(uint256)":"42c649de","createLPToken(string,string)":"4edec1ff","emergencyWithdraw()":"db2e21bc","getErrorMessage(int32)":"be591129","getPoolInfo()":"60246c88","getPurchaseMetadata(uint256)":"240f1b62","getTokenInfo()":"abb1dc44","getTotalPurchases()":"ea04f155","getUserPurchases(address)":"c6e5d8f6","getUserShare(address)":"bbbaee4c","getUserValue(address)":"a78c849b","getValuePerLPToken()":"2fb9125d","initializePool()":"250e6de0","isTokenCreated()":"185c112a","lpToken()":"5fcbd285","owner()":"8da5cb5b","pause()":"8456cb59","paused()":"5c975abb","purchaseMetadata(uint256)":"3474d1f9","redirectForToken(address,bytes)":"618dc65e","removeLiquidity(uint256,uint256)":"9d7de6b3","renounceOwnership()":"715018a6","tokenInfo()":"6addb663","totalHBAR()":"28999437","totalLPTokens()":"ef6283d9","totalPurchases()":"5962a941","totalValue()":"d4c3eea0","transferFrom(address,address,address,uint256)":"15dacbea","transferFromNFT(address,address,address,uint256)":"9b23d3d9","transferOwnership(address)":"f2fde38b","unpause()":"3f4ba83a","userPurchases(address,uint256)":"cf2c0334"}}}}}