{"contracts/ClearSkyLiquidityPool.sol":{"ClearSkyLiquidityPool":{"abi":[{"inputs":[{"internalType":"address","name":"_lpToken","type":"address"},{"internalType":"address","name":"_owner","type":"address"}],"stateMutability":"nonpayable","type":"constructor"},{"inputs":[],"name":"EnforcedPause","type":"error"},{"inputs":[],"name":"ExpectedPause","type":"error"},{"inputs":[],"name":"InsufficientAmount","type":"error"},{"inputs":[],"name":"InsufficientInitialLiquidity","type":"error"},{"inputs":[],"name":"InsufficientLPBalance","type":"error"},{"inputs":[],"name":"InsufficientLiquidity","type":"error"},{"inputs":[],"name":"InvalidAmounts","type":"error"},{"inputs":[],"name":"NoLiquidityProvided","type":"error"},{"inputs":[{"internalType":"address","name":"owner","type":"address"}],"name":"OwnableInvalidOwner","type":"error"},{"inputs":[{"internalType":"address","name":"account","type":"address"}],"name":"OwnableUnauthorizedAccount","type":"error"},{"inputs":[],"name":"PoolAlreadyInitialized","type":"error"},{"inputs":[],"name":"PoolNotActive","type":"error"},{"inputs":[],"name":"ReentrancyGuardReentrantCall","type":"error"},{"inputs":[],"name":"SlippageExceeded","type":"error"},{"anonymous":false,"inputs":[{"indexed":false,"internalType":"bool","name":"","type":"bool"},{"indexed":false,"internalType":"bytes","name":"","type":"bytes"}],"name":"CallResponseEvent","type":"event"},{"anonymous":false,"inputs":[{"indexed":true,"internalType":"address","name":"collector","type":"address"},{"indexed":false,"internalType":"uint256","name":"hbarAmount","type":"uint256"},{"indexed":false,"internalType":"uint256","name":"timestamp","type":"uint256"}],"name":"FeesCollected","type":"event"},{"anonymous":false,"inputs":[{"indexed":true,"internalType":"address","name":"token","type":"address"},{"indexed":true,"internalType":"address","name":"to","type":"address"},{"indexed":false,"internalType":"int64","name":"amount","type":"int64"}],"name":"HTSMintAttempt","type":"event"},{"anonymous":false,"inputs":[{"indexed":true,"internalType":"address","name":"token","type":"address"},{"indexed":true,"internalType":"address","name":"to","type":"address"},{"indexed":false,"internalType":"int64","name":"amount","type":"int64"},{"indexed":false,"internalType":"int32","name":"responseCode","type":"int32"}],"name":"HTSMintFailed","type":"event"},{"anonymous":false,"inputs":[{"indexed":true,"internalType":"address","name":"token","type":"address"},{"indexed":true,"internalType":"address","name":"to","type":"address"},{"indexed":false,"internalType":"int64","name":"amount","type":"int64"},{"indexed":false,"internalType":"int64","name":"newTotalSupply","type":"int64"}],"name":"HTSMintSuccess","type":"event"},{"anonymous":false,"inputs":[{"indexed":true,"internalType":"address","name":"user","type":"address"},{"indexed":false,"internalType":"uint256","name":"hbarAmount","type":"uint256"},{"indexed":false,"internalType":"uint256","name":"lpTokensMinted","type":"uint256"},{"indexed":false,"internalType":"uint256","name":"timestamp","type":"uint256"}],"name":"LiquidityAdded","type":"event"},{"anonymous":false,"inputs":[{"indexed":true,"internalType":"address","name":"user","type":"address"},{"indexed":false,"internalType":"uint256","name":"hbarAmount","type":"uint256"},{"indexed":false,"internalType":"uint256","name":"lpTokensBurned","type":"uint256"},{"indexed":false,"internalType":"uint256","name":"timestamp","type":"uint256"}],"name":"LiquidityRemoved","type":"event"},{"anonymous":false,"inputs":[{"indexed":true,"internalType":"address","name":"previousOwner","type":"address"},{"indexed":true,"internalType":"address","name":"newOwner","type":"address"}],"name":"OwnershipTransferred","type":"event"},{"anonymous":false,"inputs":[{"indexed":false,"internalType":"address","name":"account","type":"address"}],"name":"Paused","type":"event"},{"anonymous":false,"inputs":[{"indexed":true,"internalType":"address","name":"initializer","type":"address"},{"indexed":false,"internalType":"uint256","name":"hbarAmount","type":"uint256"},{"indexed":false,"internalType":"uint256","name":"timestamp","type":"uint256"}],"name":"PoolInitialized","type":"event"},{"anonymous":false,"inputs":[{"indexed":true,"internalType":"address","name":"pauser","type":"address"},{"indexed":false,"internalType":"uint256","name":"timestamp","type":"uint256"}],"name":"PoolPaused","type":"event"},{"anonymous":false,"inputs":[{"indexed":true,"internalType":"address","name":"unpauser","type":"address"},{"indexed":false,"internalType":"uint256","name":"timestamp","type":"uint256"}],"name":"PoolUnpaused","type":"event"},{"anonymous":false,"inputs":[{"indexed":false,"internalType":"address","name":"account","type":"address"}],"name":"Unpaused","type":"event"},{"inputs":[],"name":"FEE_BPS","outputs":[{"internalType":"uint256","name":"","type":"uint256"}],"stateMutability":"view","type":"function"},{"inputs":[],"name":"FEE_DENOMINATOR","outputs":[{"internalType":"uint256","name":"","type":"uint256"}],"stateMutability":"view","type":"function"},{"inputs":[],"name":"MIN_LIQUIDITY","outputs":[{"internalType":"uint256","name":"","type":"uint256"}],"stateMutability":"view","type":"function"},{"inputs":[{"internalType":"uint256","name":"minLPTokens","type":"uint256"}],"name":"addLiquidity","outputs":[],"stateMutability":"payable","type":"function"},{"inputs":[{"internalType":"uint256","name":"hbarAmount","type":"uint256"}],"name":"calculateLPTokens","outputs":[{"internalType":"uint256","name":"lpTokens","type":"uint256"}],"stateMutability":"view","type":"function"},{"inputs":[],"name":"collectFees","outputs":[],"stateMutability":"nonpayable","type":"function"},{"inputs":[],"name":"emergencyWithdraw","outputs":[],"stateMutability":"nonpayable","type":"function"},{"inputs":[],"name":"getPoolInfo","outputs":[{"internalType":"uint256","name":"hbarBalance","type":"uint256"},{"internalType":"uint256","name":"lpTokenSupply","type":"uint256"},{"internalType":"uint256","name":"totalPoolValue","type":"uint256"}],"stateMutability":"view","type":"function"},{"inputs":[{"internalType":"address","name":"user","type":"address"}],"name":"getUserShare","outputs":[{"internalType":"uint256","name":"hbarShare","type":"uint256"},{"internalType":"uint256","name":"lpBalance","type":"uint256"}],"stateMutability":"view","type":"function"},{"inputs":[{"internalType":"address","name":"user","type":"address"}],"name":"getUserValue","outputs":[{"internalType":"uint256","name":"userValue","type":"uint256"}],"stateMutability":"view","type":"function"},{"inputs":[],"name":"getValuePerLPToken","outputs":[{"internalType":"uint256","name":"valuePerToken","type":"uint256"}],"stateMutability":"view","type":"function"},{"inputs":[],"name":"initializePool","outputs":[],"stateMutability":"payable","type":"function"},{"inputs":[],"name":"isInitialized","outputs":[{"internalType":"bool","name":"initialized","type":"bool"}],"stateMutability":"view","type":"function"},{"inputs":[],"name":"lpToken","outputs":[{"internalType":"address","name":"","type":"address"}],"stateMutability":"view","type":"function"},{"inputs":[],"name":"owner","outputs":[{"internalType":"address","name":"","type":"address"}],"stateMutability":"view","type":"function"},{"inputs":[],"name":"pause","outputs":[],"stateMutability":"nonpayable","type":"function"},{"inputs":[],"name":"paused","outputs":[{"internalType":"bool","name":"","type":"bool"}],"stateMutability":"view","type":"function"},{"inputs":[{"internalType":"address","name":"token","type":"address"},{"internalType":"bytes","name":"encodedFunctionSelector","type":"bytes"}],"name":"redirectForToken","outputs":[{"internalType":"int256","name":"responseCode","type":"int256"},{"internalType":"bytes","name":"response","type":"bytes"}],"stateMutability":"nonpayable","type":"function"},{"inputs":[{"internalType":"uint256","name":"lpTokens","type":"uint256"},{"internalType":"uint256","name":"minHBAR","type":"uint256"}],"name":"removeLiquidity","outputs":[],"stateMutability":"nonpayable","type":"function"},{"inputs":[],"name":"renounceOwnership","outputs":[],"stateMutability":"nonpayable","type":"function"},{"inputs":[],"name":"totalHBAR","outputs":[{"internalType":"uint256","name":"","type":"uint256"}],"stateMutability":"view","type":"function"},{"inputs":[],"name":"totalLPTokens","outputs":[{"internalType":"uint256","name":"","type":"uint256"}],"stateMutability":"view","type":"function"},{"inputs":[],"name":"totalValue","outputs":[{"internalType":"uint256","name":"","type":"uint256"}],"stateMutability":"view","type":"function"},{"inputs":[{"internalType":"address","name":"token","type":"address"},{"internalType":"address","name":"from","type":"address"},{"internalType":"address","name":"to","type":"address"},{"internalType":"uint256","name":"amount","type":"uint256"}],"name":"transferFrom","outputs":[{"internalType":"int64","name":"responseCode","type":"int64"}],"stateMutability":"nonpayable","type":"function"},{"inputs":[{"internalType":"address","name":"token","type":"address"},{"internalType":"address","name":"from","type":"address"},{"internalType":"address","name":"to","type":"address"},{"internalType":"uint256","name":"serialNumber","type":"uint256"}],"name":"transferFromNFT","outputs":[{"internalType":"int64","name":"responseCode","type":"int64"}],"stateMutability":"nonpayable","type":"function"},{"inputs":[{"internalType":"address","name":"newOwner","type":"address"}],"name":"transferOwnership","outputs":[],"stateMutability":"nonpayable","type":"function"},{"inputs":[],"name":"unpause","outputs":[],"stateMutability":"nonpayable","type":"function"},{"stateMutability":"payable","type":"receive"}],"evm":{"bytecode":{"linkReferences":{},"object":"60a03461014d57601f6200179d38819003918201601f19168301916001600160401b0383118484101761015257808492604094855283398101031261014d57602061004982610168565b916001600160a01b0391829161005f9101610168565b1690811561013457600080546001600160a01b03198116841782556040519391908316907f8be0079c531659141344cd1fd0a4f28419497f9722a3daafe3b4186f6b6457e09080a3600180558216156100f2575060805260405161162090816200017d823960805181818161044e0152818161099901528181610a8801528181610e18015281816112b5015261137e0152f35b62461bcd60e51b815260206004820152601860248201527f496e76616c6964204c5020746f6b656e206164647265737300000000000000006044820152606490fd5b604051631e4fbdf760e01b815260006004820152602490fd5b600080fd5b634e487b7160e01b600052604160045260246000fd5b51906001600160a01b038216820361014d5756fe60806040818152600480361015610021575b505050361561001f57600080fd5b005b60009283803560e01c91826315dacbea14610fdb575050806321b77d6314610fbd578063250e6de014610dc55780632899943714610da65780632fb9125d14610d89578063392e53cd14610d6a5780633f4ba83a14610cd857806342c649de14610cb857806351c6590a146109ec5780635c975abb146109c85780635fcbd2851461098457806360246c8814610952578063618dc65e14610804578063715018a6146107aa5780638456cb59146107255780638da5cb5b146106fd5780639b23d3d91461064a5780639d7de6b3146103da578063a78c849b146103ad578063bbbaee4c1461037a578063bf333f2c1461035e578063c87965721461029c578063d4c3eea01461027d578063d73792a914610260578063db2e21bc146101fb578063ef6283d9146101de5763f2fde38b0361001157346101da5760203660031901126101da5761016e611033565b9061017761113f565b6001600160a01b039182169283156101c457505082546001600160a01b0319811683178455167f8be0079c531659141344cd1fd0a4f28419497f9722a3daafe3b4186f6b6457e08380a380f35b51631e4fbdf760e01b8152908101849052602490fd5b8280fd5b50346101da57826003193601126101da5760209250549051908152f35b50503461025c578160031936011261025c5761021561113f565b81478015908115610224578280f35b82809291819260018060a01b03835416908390610253575bf115610249578181808280f35b51903d90823e3d90fd5b506108fc61023c565b5080fd5b50503461025c578160031936011261025c57602090516127108152f35b50503461025c578160031936011261025c576020906005549051908152f35b50346101da57826003193601126101da576102b561113f565b60035490601e820291808304601e149015171561034b5750612710900490811580156102df578380f35b838080808660018060a01b039586835416908390610342575bf11561033857907f2e4fb6077d4acf86e12bb7411fb82b2b3eaa6a49787f4b1e17b423e7ea84116991845416928151908152426020820152a23880808380f35b81513d85823e3d90fd5b506108fc6102f8565b634e487b7160e01b845260119052602483fd5b50503461025c578160031936011261025c5760209051601e8152f35b8284346103aa5760203660031901126103aa575061039e610399611033565b611354565b82519182526020820152f35b80fd5b50503461025c57602036600319011261025c576020906103d36103ce611033565b61128b565b9051908152f35b50346101da57816003193601126101da578035916103f66111a9565b6103fe61118b565b821561063d57815480841161062f576104229061041d600554866111cc565b61116b565b9160243583106106215781516104378161108f565b8581528251636b48868360e11b60208083019182527f00000000000000000000000000000000000000000000000000000000000000006001600160a01b0316602484015267ffffffffffffffff8816600790810b604485015260606064850152845160848501819052919460a48501948b949390929187019185905b888383106106045750505050506104d481849503601f1981018352826110c1565b5190826101675af16104e4611413565b90156105fa5783818051810103126105f6578061050f856105088560169501611443565b9201611451565b505b60030b036105b657506105258482546111f5565b9055610533826003546111f5565b600355610542826005546111f5565b60055583808380156105ac575b8280929181923390f1156105a35751908152602081019190915242604082015233907f1dc8bb69df2b8e91fbdcbfcf93d951b3f0000f085a95fe3f7946d6161439245d9080606081015b0390a26001805580f35b513d84823e3d90fd5b6108fc915061054f565b606492519162461bcd60e51b8352820152601860248201527f48545320746f6b656e206275726e696e67206661696c656400000000000000006044820152fd5b8680fd5b5060166015610511565b8451820b8952978801978e975090930192600191909101906104b3565b9051638199f5f360e01b8152fd5b50516384b8f6a160e01b8152fd5b51636c2b7e2d60e11b8152fd5b50503461025c5781806106b36106a56106623661104e565b8851639b23d3d960e01b602082019081526001600160a01b03958616602483015293851660448201529390911660648401526084830152929091829060a4820190565b03601f1981018352826110c1565b5190826101675af1916106c4611413565b92156106f0576020838051810103126103aa57506106e56020809301611443565b905b519060030b8152f35b50602091506015906106e7565b50503461025c578160031936011261025c57905490516001600160a01b039091168152602090f35b50503461025c578160031936011261025c5761073f61113f565b61074761118b565b600160ff1960025416176002557f62e78cea01bee320cd4e420270b5ea74000d11b0c9f74754ebdbfc544b05a25860208251338152a1514281527fdeccd871bd16197ce3d021a73302372354d5cd2b5c3f57065638c772bf5a7c2860203392a280f35b83346103aa57806003193601126103aa576107c361113f565b80546001600160a01b03198116825581906001600160a01b03167f8be0079c531659141344cd1fd0a4f28419497f9722a3daafe3b4186f6b6457e08280a380f35b5082903461025c578260031936011261025c5761081f611033565b906024359067ffffffffffffffff821161094e573660238301121561094e5781013561084a816110e3565b91610857865193846110c1565b818352366024838301011161094a576108b78594929385602086829760246106a59701838601378301015287516330c6e32f60e11b602082019081526001600160a01b0390951660248201526044810189905292839160648301906110ff565b5190826101675af1906108c8611413565b917f4af4780e06fe8cb9df64b0794fa6f01399af979175bb988e35e0e57e594567bc8451821515815285602082015280610904878201876110ff565b0390a115610930575061092c6016915b835193849360030b84528060208501528301906110ff565b0390f35b8251915061093d8261108f565b815261092c601591610914565b8480fd5b8380fd5b5082346103aa57806003193601126103aa57506003549054600554925191825260208201526040810191909152606090f35b50503461025c578160031936011261025c57517f00000000000000000000000000000000000000000000000000000000000000006001600160a01b03168152602090f35b50503461025c578160031936011261025c5760209060ff6002541690519015158152f35b509060203660031901126101da57610a026111a9565b610a0a61118b565b81548015610c7e573415610c4857610a2290346111cc565b91610a30600554809461116b565b601e8102818104601e1482151715610c355790612710610a519204906111f5565b9281358410610c2657610a7490610a6a34600354611202565b6003553490611202565b60055567ffffffffffffffff831660070b907f000000000000000000000000000000000000000000000000000000000000000090610af660018060a01b038316928551858152847fb7555d949a897acb395f95e3f2df8b700519404826bb13cd6526b756f6a1c90760203393a384865191610aee8361108f565b89835261145f565b50919060168103610b965750610b757f64b83944e79c3ce8d4c297411de637c3e102d064677aac0c163976ebdcd6f50e9594939282610b57897fad91542866f4da9ebed5a2b1713258f4bf970f84e7b2a0b8aab2de28d11ffffd9554611202565b90558551600795860b8152940b602085015233939081906040820190565b0390a351348152602081019290925242604083015233918060608101610599565b8551600786900b815260039190910b6020820152610c2291908690339086907f03f5e21a75677e84382c9f010b9f5780b534bb2a966c378fa090d12ba52caa0890604090a35191829162461bcd60e51b8352820160609060208152601860208201527f48545320746f6b656e206d696e74696e67206661696c6564000000000000000060408201520190565b0390fd5b509051638199f5f360e01b8152fd5b634e487b7160e01b865260118352602486fd5b815162461bcd60e51b8152602081850152601060248201526f139bc812109054881c1c9bdd9a59195960821b6044820152606490fd5b815162461bcd60e51b81526020818501526014602482015273141bdbdb081b9bdd081a5b9a5d1a585b1a5e995960621b6044820152606490fd5b5091346103aa5760203660031901126103aa57506103d36020923561120f565b50346101da57826003193601126101da57610cf161113f565b6002549060ff821615610d5c575060ff19166002557f5db9ee0a495bf2e6ff9c91a7834c1ba4fdd244a5e8aa4e537bd38aeae4b073aa60208251338152a1514281527f7218b4a8a456456c2cf5dbcd9202a02880a891c6f9dfafd90e7be5531523a03160203392a280f35b8251638dfc202b60e01b8152fd5b50346101da57826003193601126101da57602092505415159051908152f35b50503461025c578160031936011261025c576020906103d361125a565b50503461025c578160031936011261025c576020906003549051908152f35b5090826003193601126101da57610dda61113f565b610de26111a9565b610dea61118b565b8154610f7a57620186a03410610f37573460035534600555606434049167ffffffffffffffff831660070b907f000000000000000000000000000000000000000000000000000000000000000090610e7e60018060a01b038316928551858152847fb7555d949a897acb395f95e3f2df8b700519404826bb13cd6526b756f6a1c90760203393a384865191610aee8361108f565b50919060168103610b9657508590558351600793840b8152920b60208301527f64b83944e79c3ce8d4c297411de637c3e102d064677aac0c163976ebdcd6f50e92913391907fad91542866f4da9ebed5a2b1713258f4bf970f84e7b2a0b8aab2de28d11ffffd90604090a380513481524260208201527f997f3e422a7446ccf056e7a989c8a281f20af906a7ac6ad0e6f9fea0edd6055c823392a251348152602081019290925242604083015233918060608101610599565b906020606492519162461bcd60e51b8352820152601e60248201527f496e73756666696369656e7420696e697469616c206c697175696469747900006044820152fd5b906020606492519162461bcd60e51b8352820152601860248201527f506f6f6c20616c726561647920696e697469616c697a656400000000000000006044820152fd5b50503461025c578160031936011261025c5760209051620186a08152f35b8185913461025c576106a5816106b38493610ff53661104e565b630aed65f560e11b602086019081526001600160a01b03948516602487015292841660448601529216606484015260848301919091529360a4820190565b600435906001600160a01b038216820361104957565b600080fd5b6080906003190112611049576001600160a01b0360043581811681036110495791602435828116810361104957916044359081168103611049579060643590565b6020810190811067ffffffffffffffff8211176110ab57604052565b634e487b7160e01b600052604160045260246000fd5b90601f8019910116810190811067ffffffffffffffff8211176110ab57604052565b67ffffffffffffffff81116110ab57601f01601f191660200190565b919082519283825260005b84811061112b575050826000602080949584010152601f8019910116010190565b60208183018101518483018201520161110a565b6000546001600160a01b0316330361115357565b60405163118cdaa760e01b8152336004820152602490fd5b8115611175570490565b634e487b7160e01b600052601260045260246000fd5b60ff6002541661119757565b60405163d93c066560e01b8152600490fd5b6002600154146111ba576002600155565b604051633ee5aeb560e01b8152600490fd5b818102929181159184041417156111df57565b634e487b7160e01b600052601160045260246000fd5b919082039182116111df57565b919082018092116111df57565b6004549081156112535761122f91611226916111cc565b6005549061116b565b601e810290808204601e14811517156111df576127106112509204906111f5565b90565b5050600090565b60045480156112855760055490620f4240918281029281840414901517156111df576112509161116b565b50600090565b6040516370a0823160e01b81526001600160a01b03918216600482015290602090829060249082907f0000000000000000000000000000000000000000000000000000000000000000165afa90811561134857600091611317575b508015801561130d575b6112855761130461125091600554906111cc565b6004549061116b565b50600454156112f0565b906020823d8211611340575b81611330602093836110c1565b810103126103aa575051386112e6565b3d9150611323565b6040513d6000823e3d90fd5b6040516370a0823160e01b81526001600160a01b03918216600482015290602090829060249082907f0000000000000000000000000000000000000000000000000000000000000000165afa908115611348576000916113e2575b50801580156113d8575b6113cf576113cc611304600554836111cc565b91565b50600090600090565b50600454156113b9565b906020823d821161140b575b816113fb602093836110c1565b810103126103aa575051386113af565b3d91506113ee565b3d1561143e573d90611424826110e3565b9161143260405193846110c1565b82523d6000602084013e565b606090565b51908160030b820361104957565b51908160070b820361104957565b906040928351906020938483019363707a02cd60e11b8552608484019160018060a01b0316602485015260070b604484015260606064840152815180915260a48301908560a48260051b8601019301916000905b878383106115c157505050505091816114d960009493859403601f1981018352826110c1565b5190826101675af1906114ea611413565b91600090156115a15750815182019060608382840193031261104957611511818401611443565b9161151d858501611451565b94606085015167ffffffffffffffff9586821161104957019082603f8301121561104957838201519586116110ab578560051b91815196611560868501896110c1565b875281858801938201019384116110495701905b82821061158a575050505091905b909160030b92565b83809161159684611451565b815201910190611574565b9291505051906115b08261108f565b808252368137601590600090611582565b806115dc6001939495969760a3198a820301865288516110ff565b9601920192019092916114b356fea2646970667358221220b27151d7af1a86f4c285c4757b74dc61a2be6355e4efa8ac3d3b744411ecb18d64736f6c63430008140033","opcodes":"PUSH1 0xA0 CALLVALUE PUSH2 0x14D JUMPI PUSH1 0x1F PUSH3 0x179D CODESIZE DUP2 SWAP1 SUB SWAP2 DUP3 ADD PUSH1 0x1F NOT AND DUP4 ADD SWAP2 PUSH1 0x1 PUSH1 0x1 PUSH1 0x40 SHL SUB DUP4 GT DUP5 DUP5 LT OR PUSH2 0x152 JUMPI DUP1 DUP5 SWAP3 PUSH1 0x40 SWAP5 DUP6 MSTORE DUP4 CODECOPY DUP2 ADD SUB SLT PUSH2 0x14D JUMPI PUSH1 0x20 PUSH2 0x49 DUP3 PUSH2 0x168 JUMP JUMPDEST SWAP2 PUSH1 0x1 PUSH1 0x1 PUSH1 0xA0 SHL SUB SWAP2 DUP3 SWAP2 PUSH2 0x5F SWAP2 ADD PUSH2 0x168 JUMP JUMPDEST AND SWAP1 DUP2 ISZERO PUSH2 0x134 JUMPI PUSH1 0x0 DUP1 SLOAD PUSH1 0x1 PUSH1 0x1 PUSH1 0xA0 SHL SUB NOT DUP2 AND DUP5 OR DUP3 SSTORE PUSH1 0x40 MLOAD SWAP4 SWAP2 SWAP1 DUP4 AND SWAP1 PUSH32 0x8BE0079C531659141344CD1FD0A4F28419497F9722A3DAAFE3B4186F6B6457E0 SWAP1 DUP1 LOG3 PUSH1 0x1 DUP1 SSTORE DUP3 AND ISZERO PUSH2 0xF2 JUMPI POP PUSH1 0x80 MSTORE PUSH1 0x40 MLOAD PUSH2 0x1620 SWAP1 DUP2 PUSH3 0x17D DUP3 CODECOPY PUSH1 0x80 MLOAD DUP2 DUP2 DUP2 PUSH2 0x44E ADD MSTORE DUP2 DUP2 PUSH2 0x999 ADD MSTORE DUP2 DUP2 PUSH2 0xA88 ADD MSTORE DUP2 DUP2 PUSH2 0xE18 ADD MSTORE DUP2 DUP2 PUSH2 0x12B5 ADD MSTORE PUSH2 0x137E ADD MSTORE RETURN JUMPDEST PUSH3 0x461BCD PUSH1 0xE5 SHL DUP2 MSTORE PUSH1 0x20 PUSH1 0x4 DUP3 ADD MSTORE PUSH1 0x18 PUSH1 0x24 DUP3 ADD MSTORE PUSH32 0x496E76616C6964204C5020746F6B656E20616464726573730000000000000000 PUSH1 0x44 DUP3 ADD MSTORE PUSH1 0x64 SWAP1 REVERT JUMPDEST PUSH1 0x40 MLOAD PUSH4 0x1E4FBDF7 PUSH1 0xE0 SHL DUP2 MSTORE PUSH1 0x0 PUSH1 0x4 DUP3 ADD MSTORE PUSH1 0x24 SWAP1 REVERT JUMPDEST PUSH1 0x0 DUP1 REVERT JUMPDEST PUSH4 0x4E487B71 PUSH1 0xE0 SHL PUSH1 0x0 MSTORE PUSH1 0x41 PUSH1 0x4 MSTORE PUSH1 0x24 PUSH1 0x0 REVERT JUMPDEST MLOAD SWAP1 PUSH1 0x1 PUSH1 0x1 PUSH1 0xA0 SHL SUB DUP3 AND DUP3 SUB PUSH2 0x14D JUMPI JUMP INVALID PUSH1 0x80 PUSH1 0x40 DUP2 DUP2 MSTORE PUSH1 0x4 DUP1 CALLDATASIZE LT ISZERO PUSH2 0x21 JUMPI JUMPDEST POP POP POP CALLDATASIZE ISZERO PUSH2 0x1F JUMPI PUSH1 0x0 DUP1 REVERT JUMPDEST STOP JUMPDEST PUSH1 0x0 SWAP3 DUP4 DUP1 CALLDATALOAD PUSH1 0xE0 SHR SWAP2 DUP3 PUSH4 0x15DACBEA EQ PUSH2 0xFDB JUMPI POP POP DUP1 PUSH4 0x21B77D63 EQ PUSH2 0xFBD JUMPI DUP1 PUSH4 0x250E6DE0 EQ PUSH2 0xDC5 JUMPI DUP1 PUSH4 0x28999437 EQ PUSH2 0xDA6 JUMPI DUP1 PUSH4 0x2FB9125D EQ PUSH2 0xD89 JUMPI DUP1 PUSH4 0x392E53CD EQ PUSH2 0xD6A JUMPI DUP1 PUSH4 0x3F4BA83A EQ PUSH2 0xCD8 JUMPI DUP1 PUSH4 0x42C649DE EQ PUSH2 0xCB8 JUMPI DUP1 PUSH4 0x51C6590A EQ PUSH2 0x9EC JUMPI DUP1 PUSH4 0x5C975ABB EQ PUSH2 0x9C8 JUMPI DUP1 PUSH4 0x5FCBD285 EQ PUSH2 0x984 JUMPI DUP1 PUSH4 0x60246C88 EQ PUSH2 0x952 JUMPI DUP1 PUSH4 0x618DC65E EQ PUSH2 0x804 JUMPI DUP1 PUSH4 0x715018A6 EQ PUSH2 0x7AA JUMPI DUP1 PUSH4 0x8456CB59 EQ PUSH2 0x725 JUMPI DUP1 PUSH4 0x8DA5CB5B EQ PUSH2 0x6FD JUMPI DUP1 PUSH4 0x9B23D3D9 EQ PUSH2 0x64A JUMPI DUP1 PUSH4 0x9D7DE6B3 EQ PUSH2 0x3DA JUMPI DUP1 PUSH4 0xA78C849B EQ PUSH2 0x3AD JUMPI DUP1 PUSH4 0xBBBAEE4C EQ PUSH2 0x37A JUMPI DUP1 PUSH4 0xBF333F2C EQ PUSH2 0x35E JUMPI DUP1 PUSH4 0xC8796572 EQ PUSH2 0x29C JUMPI DUP1 PUSH4 0xD4C3EEA0 EQ PUSH2 0x27D JUMPI DUP1 PUSH4 0xD73792A9 EQ PUSH2 0x260 JUMPI DUP1 PUSH4 0xDB2E21BC EQ PUSH2 0x1FB JUMPI DUP1 PUSH4 0xEF6283D9 EQ PUSH2 0x1DE JUMPI PUSH4 0xF2FDE38B SUB PUSH2 0x11 JUMPI CALLVALUE PUSH2 0x1DA JUMPI PUSH1 0x20 CALLDATASIZE PUSH1 0x3 NOT ADD SLT PUSH2 0x1DA JUMPI PUSH2 0x16E PUSH2 0x1033 JUMP JUMPDEST SWAP1 PUSH2 0x177 PUSH2 0x113F JUMP JUMPDEST PUSH1 0x1 PUSH1 0x1 PUSH1 0xA0 SHL SUB SWAP2 DUP3 AND SWAP3 DUP4 ISZERO PUSH2 0x1C4 JUMPI POP POP DUP3 SLOAD PUSH1 0x1 PUSH1 0x1 PUSH1 0xA0 SHL SUB NOT DUP2 AND DUP4 OR DUP5 SSTORE AND PUSH32 0x8BE0079C531659141344CD1FD0A4F28419497F9722A3DAAFE3B4186F6B6457E0 DUP4 DUP1 LOG3 DUP1 RETURN JUMPDEST MLOAD PUSH4 0x1E4FBDF7 PUSH1 0xE0 SHL DUP2 MSTORE SWAP1 DUP2 ADD DUP5 SWAP1 MSTORE PUSH1 0x24 SWAP1 REVERT JUMPDEST DUP3 DUP1 REVERT JUMPDEST POP CALLVALUE PUSH2 0x1DA JUMPI DUP3 PUSH1 0x3 NOT CALLDATASIZE ADD SLT PUSH2 0x1DA JUMPI PUSH1 0x20 SWAP3 POP SLOAD SWAP1 MLOAD SWAP1 DUP2 MSTORE RETURN JUMPDEST POP POP CALLVALUE PUSH2 0x25C JUMPI DUP2 PUSH1 0x3 NOT CALLDATASIZE ADD SLT PUSH2 0x25C JUMPI PUSH2 0x215 PUSH2 0x113F JUMP JUMPDEST DUP2 SELFBALANCE DUP1 ISZERO SWAP1 DUP2 ISZERO PUSH2 0x224 JUMPI DUP3 DUP1 RETURN JUMPDEST DUP3 DUP1 SWAP3 SWAP2 DUP2 SWAP3 PUSH1 0x1 DUP1 PUSH1 0xA0 SHL SUB DUP4 SLOAD AND SWAP1 DUP4 SWAP1 PUSH2 0x253 JUMPI JUMPDEST CALL ISZERO PUSH2 0x249 JUMPI DUP2 DUP2 DUP1 DUP3 DUP1 RETURN JUMPDEST MLOAD SWAP1 RETURNDATASIZE SWAP1 DUP3 RETURNDATACOPY RETURNDATASIZE SWAP1 REVERT JUMPDEST POP PUSH2 0x8FC PUSH2 0x23C JUMP JUMPDEST POP DUP1 REVERT JUMPDEST POP POP CALLVALUE PUSH2 0x25C JUMPI DUP2 PUSH1 0x3 NOT CALLDATASIZE ADD SLT PUSH2 0x25C JUMPI PUSH1 0x20 SWAP1 MLOAD PUSH2 0x2710 DUP2 MSTORE RETURN JUMPDEST POP POP CALLVALUE PUSH2 0x25C JUMPI DUP2 PUSH1 0x3 NOT CALLDATASIZE ADD SLT PUSH2 0x25C JUMPI PUSH1 0x20 SWAP1 PUSH1 0x5 SLOAD SWAP1 MLOAD SWAP1 DUP2 MSTORE RETURN JUMPDEST POP CALLVALUE PUSH2 0x1DA JUMPI DUP3 PUSH1 0x3 NOT CALLDATASIZE ADD SLT PUSH2 0x1DA JUMPI PUSH2 0x2B5 PUSH2 0x113F JUMP JUMPDEST PUSH1 0x3 SLOAD SWAP1 PUSH1 0x1E DUP3 MUL SWAP2 DUP1 DUP4 DIV PUSH1 0x1E EQ SWAP1 ISZERO OR ISZERO PUSH2 0x34B JUMPI POP PUSH2 0x2710 SWAP1 DIV SWAP1 DUP2 ISZERO DUP1 ISZERO PUSH2 0x2DF JUMPI DUP4 DUP1 RETURN JUMPDEST DUP4 DUP1 DUP1 DUP1 DUP7 PUSH1 0x1 DUP1 PUSH1 0xA0 SHL SUB SWAP6 DUP7 DUP4 SLOAD AND SWAP1 DUP4 SWAP1 PUSH2 0x342 JUMPI JUMPDEST CALL ISZERO PUSH2 0x338 JUMPI SWAP1 PUSH32 0x2E4FB6077D4ACF86E12BB7411FB82B2B3EAA6A49787F4B1E17B423E7EA841169 SWAP2 DUP5 SLOAD AND SWAP3 DUP2 MLOAD SWAP1 DUP2 MSTORE TIMESTAMP PUSH1 0x20 DUP3 ADD MSTORE LOG2 CODESIZE DUP1 DUP1 DUP4 DUP1 RETURN JUMPDEST DUP2 MLOAD RETURNDATASIZE DUP6 DUP3 RETURNDATACOPY RETURNDATASIZE SWAP1 REVERT JUMPDEST POP PUSH2 0x8FC PUSH2 0x2F8 JUMP JUMPDEST PUSH4 0x4E487B71 PUSH1 0xE0 SHL DUP5 MSTORE PUSH1 0x11 SWAP1 MSTORE PUSH1 0x24 DUP4 REVERT JUMPDEST POP POP CALLVALUE PUSH2 0x25C JUMPI DUP2 PUSH1 0x3 NOT CALLDATASIZE ADD SLT PUSH2 0x25C JUMPI PUSH1 0x20 SWAP1 MLOAD PUSH1 0x1E DUP2 MSTORE RETURN JUMPDEST DUP3 DUP5 CALLVALUE PUSH2 0x3AA JUMPI PUSH1 0x20 CALLDATASIZE PUSH1 0x3 NOT ADD SLT PUSH2 0x3AA JUMPI POP PUSH2 0x39E PUSH2 0x399 PUSH2 0x1033 JUMP JUMPDEST PUSH2 0x1354 JUMP JUMPDEST DUP3 MLOAD SWAP2 DUP3 MSTORE PUSH1 0x20 DUP3 ADD MSTORE RETURN JUMPDEST DUP1 REVERT JUMPDEST POP POP CALLVALUE PUSH2 0x25C JUMPI PUSH1 0x20 CALLDATASIZE PUSH1 0x3 NOT ADD SLT PUSH2 0x25C JUMPI PUSH1 0x20 SWAP1 PUSH2 0x3D3 PUSH2 0x3CE PUSH2 0x1033 JUMP JUMPDEST PUSH2 0x128B JUMP JUMPDEST SWAP1 MLOAD SWAP1 DUP2 MSTORE RETURN JUMPDEST POP CALLVALUE PUSH2 0x1DA JUMPI DUP2 PUSH1 0x3 NOT CALLDATASIZE ADD SLT PUSH2 0x1DA JUMPI DUP1 CALLDATALOAD SWAP2 PUSH2 0x3F6 PUSH2 0x11A9 JUMP JUMPDEST PUSH2 0x3FE PUSH2 0x118B JUMP JUMPDEST DUP3 ISZERO PUSH2 0x63D JUMPI DUP2 SLOAD DUP1 DUP5 GT PUSH2 0x62F JUMPI PUSH2 0x422 SWAP1 PUSH2 0x41D PUSH1 0x5 SLOAD DUP7 PUSH2 0x11CC JUMP JUMPDEST PUSH2 0x116B JUMP JUMPDEST SWAP2 PUSH1 0x24 CALLDATALOAD DUP4 LT PUSH2 0x621 JUMPI DUP2 MLOAD PUSH2 0x437 DUP2 PUSH2 0x108F JUMP JUMPDEST DUP6 DUP2 MSTORE DUP3 MLOAD PUSH4 0x6B488683 PUSH1 0xE1 SHL PUSH1 0x20 DUP1 DUP4 ADD SWAP2 DUP3 MSTORE PUSH32 0x0 PUSH1 0x1 PUSH1 0x1 PUSH1 0xA0 SHL SUB AND PUSH1 0x24 DUP5 ADD MSTORE PUSH8 0xFFFFFFFFFFFFFFFF DUP9 AND PUSH1 0x7 SWAP1 DUP2 SIGNEXTEND PUSH1 0x44 DUP6 ADD MSTORE PUSH1 0x60 PUSH1 0x64 DUP6 ADD MSTORE DUP5 MLOAD PUSH1 0x84 DUP6 ADD DUP2 SWAP1 MSTORE SWAP2 SWAP5 PUSH1 0xA4 DUP6 ADD SWAP5 DUP12 SWAP5 SWAP4 SWAP1 SWAP3 SWAP2 DUP8 ADD SWAP2 DUP6 SWAP1 JUMPDEST DUP9 DUP4 DUP4 LT PUSH2 0x604 JUMPI POP POP POP POP POP PUSH2 0x4D4 DUP2 DUP5 SWAP6 SUB PUSH1 0x1F NOT DUP2 ADD DUP4 MSTORE DUP3 PUSH2 0x10C1 JUMP JUMPDEST MLOAD SWAP1 DUP3 PUSH2 0x167 GAS CALL PUSH2 0x4E4 PUSH2 0x1413 JUMP JUMPDEST SWAP1 ISZERO PUSH2 0x5FA JUMPI DUP4 DUP2 DUP1 MLOAD DUP2 ADD SUB SLT PUSH2 0x5F6 JUMPI DUP1 PUSH2 0x50F DUP6 PUSH2 0x508 DUP6 PUSH1 0x16 SWAP6 ADD PUSH2 0x1443 JUMP JUMPDEST SWAP3 ADD PUSH2 0x1451 JUMP JUMPDEST POP JUMPDEST PUSH1 0x3 SIGNEXTEND SUB PUSH2 0x5B6 JUMPI POP PUSH2 0x525 DUP5 DUP3 SLOAD PUSH2 0x11F5 JUMP JUMPDEST SWAP1 SSTORE PUSH2 0x533 DUP3 PUSH1 0x3 SLOAD PUSH2 0x11F5 JUMP JUMPDEST PUSH1 0x3 SSTORE PUSH2 0x542 DUP3 PUSH1 0x5 SLOAD PUSH2 0x11F5 JUMP JUMPDEST PUSH1 0x5 SSTORE DUP4 DUP1 DUP4 DUP1 ISZERO PUSH2 0x5AC JUMPI JUMPDEST DUP3 DUP1 SWAP3 SWAP2 DUP2 SWAP3 CALLER SWAP1 CALL ISZERO PUSH2 0x5A3 JUMPI MLOAD SWAP1 DUP2 MSTORE PUSH1 0x20 DUP2 ADD SWAP2 SWAP1 SWAP2 MSTORE TIMESTAMP PUSH1 0x40 DUP3 ADD MSTORE CALLER SWAP1 PUSH32 0x1DC8BB69DF2B8E91FBDCBFCF93D951B3F0000F085A95FE3F7946D6161439245D SWAP1 DUP1 PUSH1 0x60 DUP2 ADD JUMPDEST SUB SWAP1 LOG2 PUSH1 0x1 DUP1 SSTORE DUP1 RETURN JUMPDEST MLOAD RETURNDATASIZE DUP5 DUP3 RETURNDATACOPY RETURNDATASIZE SWAP1 REVERT JUMPDEST PUSH2 0x8FC SWAP2 POP PUSH2 0x54F JUMP JUMPDEST PUSH1 0x64 SWAP3 MLOAD SWAP2 PUSH3 0x461BCD PUSH1 0xE5 SHL DUP4 MSTORE DUP3 ADD MSTORE PUSH1 0x18 PUSH1 0x24 DUP3 ADD MSTORE PUSH32 0x48545320746F6B656E206275726E696E67206661696C65640000000000000000 PUSH1 0x44 DUP3 ADD MSTORE REVERT JUMPDEST DUP7 DUP1 REVERT JUMPDEST POP PUSH1 0x16 PUSH1 0x15 PUSH2 0x511 JUMP JUMPDEST DUP5 MLOAD DUP3 SIGNEXTEND DUP10 MSTORE SWAP8 DUP9 ADD SWAP8 DUP15 SWAP8 POP SWAP1 SWAP4 ADD SWAP3 PUSH1 0x1 SWAP2 SWAP1 SWAP2 ADD SWAP1 PUSH2 0x4B3 JUMP JUMPDEST SWAP1 MLOAD PUSH4 0x8199F5F3 PUSH1 0xE0 SHL DUP2 MSTORE REVERT JUMPDEST POP MLOAD PUSH4 0x84B8F6A1 PUSH1 0xE0 SHL DUP2 MSTORE REVERT JUMPDEST MLOAD PUSH4 0x6C2B7E2D PUSH1 0xE1 SHL DUP2 MSTORE REVERT JUMPDEST POP POP CALLVALUE PUSH2 0x25C JUMPI DUP2 DUP1 PUSH2 0x6B3 PUSH2 0x6A5 PUSH2 0x662 CALLDATASIZE PUSH2 0x104E JUMP JUMPDEST DUP9 MLOAD PUSH4 0x9B23D3D9 PUSH1 0xE0 SHL PUSH1 0x20 DUP3 ADD SWAP1 DUP2 MSTORE PUSH1 0x1 PUSH1 0x1 PUSH1 0xA0 SHL SUB SWAP6 DUP7 AND PUSH1 0x24 DUP4 ADD MSTORE SWAP4 DUP6 AND PUSH1 0x44 DUP3 ADD MSTORE SWAP4 SWAP1 SWAP2 AND PUSH1 0x64 DUP5 ADD MSTORE PUSH1 0x84 DUP4 ADD MSTORE SWAP3 SWAP1 SWAP2 DUP3 SWAP1 PUSH1 0xA4 DUP3 ADD SWAP1 JUMP JUMPDEST SUB PUSH1 0x1F NOT DUP2 ADD DUP4 MSTORE DUP3 PUSH2 0x10C1 JUMP JUMPDEST MLOAD SWAP1 DUP3 PUSH2 0x167 GAS CALL SWAP2 PUSH2 0x6C4 PUSH2 0x1413 JUMP JUMPDEST SWAP3 ISZERO PUSH2 0x6F0 JUMPI PUSH1 0x20 DUP4 DUP1 MLOAD DUP2 ADD SUB SLT PUSH2 0x3AA JUMPI POP PUSH2 0x6E5 PUSH1 0x20 DUP1 SWAP4 ADD PUSH2 0x1443 JUMP JUMPDEST SWAP1 JUMPDEST MLOAD SWAP1 PUSH1 0x3 SIGNEXTEND DUP2 MSTORE RETURN JUMPDEST POP PUSH1 0x20 SWAP2 POP PUSH1 0x15 SWAP1 PUSH2 0x6E7 JUMP JUMPDEST POP POP CALLVALUE PUSH2 0x25C JUMPI DUP2 PUSH1 0x3 NOT CALLDATASIZE ADD SLT PUSH2 0x25C JUMPI SWAP1 SLOAD SWAP1 MLOAD PUSH1 0x1 PUSH1 0x1 PUSH1 0xA0 SHL SUB SWAP1 SWAP2 AND DUP2 MSTORE PUSH1 0x20 SWAP1 RETURN JUMPDEST POP POP CALLVALUE PUSH2 0x25C JUMPI DUP2 PUSH1 0x3 NOT CALLDATASIZE ADD SLT PUSH2 0x25C JUMPI PUSH2 0x73F PUSH2 0x113F JUMP JUMPDEST PUSH2 0x747 PUSH2 0x118B JUMP JUMPDEST PUSH1 0x1 PUSH1 0xFF NOT PUSH1 0x2 SLOAD AND OR PUSH1 0x2 SSTORE PUSH32 0x62E78CEA01BEE320CD4E420270B5EA74000D11B0C9F74754EBDBFC544B05A258 PUSH1 0x20 DUP3 MLOAD CALLER DUP2 MSTORE LOG1 MLOAD TIMESTAMP DUP2 MSTORE PUSH32 0xDECCD871BD16197CE3D021A73302372354D5CD2B5C3F57065638C772BF5A7C28 PUSH1 0x20 CALLER SWAP3 LOG2 DUP1 RETURN JUMPDEST DUP4 CALLVALUE PUSH2 0x3AA JUMPI DUP1 PUSH1 0x3 NOT CALLDATASIZE ADD SLT PUSH2 0x3AA JUMPI PUSH2 0x7C3 PUSH2 0x113F JUMP JUMPDEST DUP1 SLOAD PUSH1 0x1 PUSH1 0x1 PUSH1 0xA0 SHL SUB NOT DUP2 AND DUP3 SSTORE DUP2 SWAP1 PUSH1 0x1 PUSH1 0x1 PUSH1 0xA0 SHL SUB AND PUSH32 0x8BE0079C531659141344CD1FD0A4F28419497F9722A3DAAFE3B4186F6B6457E0 DUP3 DUP1 LOG3 DUP1 RETURN JUMPDEST POP DUP3 SWAP1 CALLVALUE PUSH2 0x25C JUMPI DUP3 PUSH1 0x3 NOT CALLDATASIZE ADD SLT PUSH2 0x25C JUMPI PUSH2 0x81F PUSH2 0x1033 JUMP JUMPDEST SWAP1 PUSH1 0x24 CALLDATALOAD SWAP1 PUSH8 0xFFFFFFFFFFFFFFFF DUP3 GT PUSH2 0x94E JUMPI CALLDATASIZE PUSH1 0x23 DUP4 ADD SLT ISZERO PUSH2 0x94E JUMPI DUP2 ADD CALLDATALOAD PUSH2 0x84A DUP2 PUSH2 0x10E3 JUMP JUMPDEST SWAP2 PUSH2 0x857 DUP7 MLOAD SWAP4 DUP5 PUSH2 0x10C1 JUMP JUMPDEST DUP2 DUP4 MSTORE CALLDATASIZE PUSH1 0x24 DUP4 DUP4 ADD ADD GT PUSH2 0x94A JUMPI PUSH2 0x8B7 DUP6 SWAP5 SWAP3 SWAP4 DUP6 PUSH1 0x20 DUP7 DUP3 SWAP8 PUSH1 0x24 PUSH2 0x6A5 SWAP8 ADD DUP4 DUP7 ADD CALLDATACOPY DUP4 ADD ADD MSTORE DUP8 MLOAD PUSH4 0x30C6E32F PUSH1 0xE1 SHL PUSH1 0x20 DUP3 ADD SWAP1 DUP2 MSTORE PUSH1 0x1 PUSH1 0x1 PUSH1 0xA0 SHL SUB SWAP1 SWAP6 AND PUSH1 0x24 DUP3 ADD MSTORE PUSH1 0x44 DUP2 ADD DUP10 SWAP1 MSTORE SWAP3 DUP4 SWAP2 PUSH1 0x64 DUP4 ADD SWAP1 PUSH2 0x10FF JUMP JUMPDEST MLOAD SWAP1 DUP3 PUSH2 0x167 GAS CALL SWAP1 PUSH2 0x8C8 PUSH2 0x1413 JUMP JUMPDEST SWAP2 PUSH32 0x4AF4780E06FE8CB9DF64B0794FA6F01399AF979175BB988E35E0E57E594567BC DUP5 MLOAD DUP3 ISZERO ISZERO DUP2 MSTORE DUP6 PUSH1 0x20 DUP3 ADD MSTORE DUP1 PUSH2 0x904 DUP8 DUP3 ADD DUP8 PUSH2 0x10FF JUMP JUMPDEST SUB SWAP1 LOG1 ISZERO PUSH2 0x930 JUMPI POP PUSH2 0x92C PUSH1 0x16 SWAP2 JUMPDEST DUP4 MLOAD SWAP4 DUP5 SWAP4 PUSH1 0x3 SIGNEXTEND DUP5 MSTORE DUP1 PUSH1 0x20 DUP6 ADD MSTORE DUP4 ADD SWAP1 PUSH2 0x10FF JUMP JUMPDEST SUB SWAP1 RETURN JUMPDEST DUP3 MLOAD SWAP2 POP PUSH2 0x93D DUP3 PUSH2 0x108F JUMP JUMPDEST DUP2 MSTORE PUSH2 0x92C PUSH1 0x15 SWAP2 PUSH2 0x914 JUMP JUMPDEST DUP5 DUP1 REVERT JUMPDEST DUP4 DUP1 REVERT JUMPDEST POP DUP3 CALLVALUE PUSH2 0x3AA JUMPI DUP1 PUSH1 0x3 NOT CALLDATASIZE ADD SLT PUSH2 0x3AA JUMPI POP PUSH1 0x3 SLOAD SWAP1 SLOAD PUSH1 0x5 SLOAD SWAP3 MLOAD SWAP2 DUP3 MSTORE PUSH1 0x20 DUP3 ADD MSTORE PUSH1 0x40 DUP2 ADD SWAP2 SWAP1 SWAP2 MSTORE PUSH1 0x60 SWAP1 RETURN JUMPDEST POP POP CALLVALUE PUSH2 0x25C JUMPI DUP2 PUSH1 0x3 NOT CALLDATASIZE ADD SLT PUSH2 0x25C JUMPI MLOAD PUSH32 0x0 PUSH1 0x1 PUSH1 0x1 PUSH1 0xA0 SHL SUB AND DUP2 MSTORE PUSH1 0x20 SWAP1 RETURN JUMPDEST POP POP CALLVALUE PUSH2 0x25C JUMPI DUP2 PUSH1 0x3 NOT CALLDATASIZE ADD SLT PUSH2 0x25C JUMPI PUSH1 0x20 SWAP1 PUSH1 0xFF PUSH1 0x2 SLOAD AND SWAP1 MLOAD SWAP1 ISZERO ISZERO DUP2 MSTORE RETURN JUMPDEST POP SWAP1 PUSH1 0x20 CALLDATASIZE PUSH1 0x3 NOT ADD SLT PUSH2 0x1DA JUMPI PUSH2 0xA02 PUSH2 0x11A9 JUMP JUMPDEST PUSH2 0xA0A PUSH2 0x118B JUMP JUMPDEST DUP2 SLOAD DUP1 ISZERO PUSH2 0xC7E JUMPI CALLVALUE ISZERO PUSH2 0xC48 JUMPI PUSH2 0xA22 SWAP1 CALLVALUE PUSH2 0x11CC JUMP JUMPDEST SWAP2 PUSH2 0xA30 PUSH1 0x5 SLOAD DUP1 SWAP5 PUSH2 0x116B JUMP JUMPDEST PUSH1 0x1E DUP2 MUL DUP2 DUP2 DIV PUSH1 0x1E EQ DUP3 ISZERO OR ISZERO PUSH2 0xC35 JUMPI SWAP1 PUSH2 0x2710 PUSH2 0xA51 SWAP3 DIV SWAP1 PUSH2 0x11F5 JUMP JUMPDEST SWAP3 DUP2 CALLDATALOAD DUP5 LT PUSH2 0xC26 JUMPI PUSH2 0xA74 SWAP1 PUSH2 0xA6A CALLVALUE PUSH1 0x3 SLOAD PUSH2 0x1202 JUMP JUMPDEST PUSH1 0x3 SSTORE CALLVALUE SWAP1 PUSH2 0x1202 JUMP JUMPDEST PUSH1 0x5 SSTORE PUSH8 0xFFFFFFFFFFFFFFFF DUP4 AND PUSH1 0x7 SIGNEXTEND SWAP1 PUSH32 0x0 SWAP1 PUSH2 0xAF6 PUSH1 0x1 DUP1 PUSH1 0xA0 SHL SUB DUP4 AND SWAP3 DUP6 MLOAD DUP6 DUP2 MSTORE DUP5 PUSH32 0xB7555D949A897ACB395F95E3F2DF8B700519404826BB13CD6526B756F6A1C907 PUSH1 0x20 CALLER SWAP4 LOG3 DUP5 DUP7 MLOAD SWAP2 PUSH2 0xAEE DUP4 PUSH2 0x108F JUMP JUMPDEST DUP10 DUP4 MSTORE PUSH2 0x145F JUMP JUMPDEST POP SWAP2 SWAP1 PUSH1 0x16 DUP2 SUB PUSH2 0xB96 JUMPI POP PUSH2 0xB75 PUSH32 0x64B83944E79C3CE8D4C297411DE637C3E102D064677AAC0C163976EBDCD6F50E SWAP6 SWAP5 SWAP4 SWAP3 DUP3 PUSH2 0xB57 DUP10 PUSH32 0xAD91542866F4DA9EBED5A2B1713258F4BF970F84E7B2A0B8AAB2DE28D11FFFFD SWAP6 SLOAD PUSH2 0x1202 JUMP JUMPDEST SWAP1 SSTORE DUP6 MLOAD PUSH1 0x7 SWAP6 DUP7 SIGNEXTEND DUP2 MSTORE SWAP5 SIGNEXTEND PUSH1 0x20 DUP6 ADD MSTORE CALLER SWAP4 SWAP1 DUP2 SWAP1 PUSH1 0x40 DUP3 ADD SWAP1 JUMP JUMPDEST SUB SWAP1 LOG3 MLOAD CALLVALUE DUP2 MSTORE PUSH1 0x20 DUP2 ADD SWAP3 SWAP1 SWAP3 MSTORE TIMESTAMP PUSH1 0x40 DUP4 ADD MSTORE CALLER SWAP2 DUP1 PUSH1 0x60 DUP2 ADD PUSH2 0x599 JUMP JUMPDEST DUP6 MLOAD PUSH1 0x7 DUP7 SWAP1 SIGNEXTEND DUP2 MSTORE PUSH1 0x3 SWAP2 SWAP1 SWAP2 SIGNEXTEND PUSH1 0x20 DUP3 ADD MSTORE PUSH2 0xC22 SWAP2 SWAP1 DUP7 SWAP1 CALLER SWAP1 DUP7 SWAP1 PUSH32 0x3F5E21A75677E84382C9F010B9F5780B534BB2A966C378FA090D12BA52CAA08 SWAP1 PUSH1 0x40 SWAP1 LOG3 MLOAD SWAP2 DUP3 SWAP2 PUSH3 0x461BCD PUSH1 0xE5 SHL DUP4 MSTORE DUP3 ADD PUSH1 0x60 SWAP1 PUSH1 0x20 DUP2 MSTORE PUSH1 0x18 PUSH1 0x20 DUP3 ADD MSTORE PUSH32 0x48545320746F6B656E206D696E74696E67206661696C65640000000000000000 PUSH1 0x40 DUP3 ADD MSTORE ADD SWAP1 JUMP JUMPDEST SUB SWAP1 REVERT JUMPDEST POP SWAP1 MLOAD PUSH4 0x8199F5F3 PUSH1 0xE0 SHL DUP2 MSTORE REVERT JUMPDEST PUSH4 0x4E487B71 PUSH1 0xE0 SHL DUP7 MSTORE PUSH1 0x11 DUP4 MSTORE PUSH1 0x24 DUP7 REVERT JUMPDEST DUP2 MLOAD PUSH3 0x461BCD PUSH1 0xE5 SHL DUP2 MSTORE PUSH1 0x20 DUP2 DUP6 ADD MSTORE PUSH1 0x10 PUSH1 0x24 DUP3 ADD MSTORE PUSH16 0x139BC812109054881C1C9BDD9A591959 PUSH1 0x82 SHL PUSH1 0x44 DUP3 ADD MSTORE PUSH1 0x64 SWAP1 REVERT JUMPDEST DUP2 MLOAD PUSH3 0x461BCD PUSH1 0xE5 SHL DUP2 MSTORE PUSH1 0x20 DUP2 DUP6 ADD MSTORE PUSH1 0x14 PUSH1 0x24 DUP3 ADD MSTORE PUSH20 0x141BDBDB081B9BDD081A5B9A5D1A585B1A5E9959 PUSH1 0x62 SHL PUSH1 0x44 DUP3 ADD MSTORE PUSH1 0x64 SWAP1 REVERT JUMPDEST POP SWAP2 CALLVALUE PUSH2 0x3AA JUMPI PUSH1 0x20 CALLDATASIZE PUSH1 0x3 NOT ADD SLT PUSH2 0x3AA JUMPI POP PUSH2 0x3D3 PUSH1 0x20 SWAP3 CALLDATALOAD PUSH2 0x120F JUMP JUMPDEST POP CALLVALUE PUSH2 0x1DA JUMPI DUP3 PUSH1 0x3 NOT CALLDATASIZE ADD SLT PUSH2 0x1DA JUMPI PUSH2 0xCF1 PUSH2 0x113F JUMP JUMPDEST PUSH1 0x2 SLOAD SWAP1 PUSH1 0xFF DUP3 AND ISZERO PUSH2 0xD5C JUMPI POP PUSH1 0xFF NOT AND PUSH1 0x2 SSTORE PUSH32 0x5DB9EE0A495BF2E6FF9C91A7834C1BA4FDD244A5E8AA4E537BD38AEAE4B073AA PUSH1 0x20 DUP3 MLOAD CALLER DUP2 MSTORE LOG1 MLOAD TIMESTAMP DUP2 MSTORE PUSH32 0x7218B4A8A456456C2CF5DBCD9202A02880A891C6F9DFAFD90E7BE5531523A031 PUSH1 0x20 CALLER SWAP3 LOG2 DUP1 RETURN JUMPDEST DUP3 MLOAD PUSH4 0x8DFC202B PUSH1 0xE0 SHL DUP2 MSTORE REVERT JUMPDEST POP CALLVALUE PUSH2 0x1DA JUMPI DUP3 PUSH1 0x3 NOT CALLDATASIZE ADD SLT PUSH2 0x1DA JUMPI PUSH1 0x20 SWAP3 POP SLOAD ISZERO ISZERO SWAP1 MLOAD SWAP1 DUP2 MSTORE RETURN JUMPDEST POP POP CALLVALUE PUSH2 0x25C JUMPI DUP2 PUSH1 0x3 NOT CALLDATASIZE ADD SLT PUSH2 0x25C JUMPI PUSH1 0x20 SWAP1 PUSH2 0x3D3 PUSH2 0x125A JUMP JUMPDEST POP POP CALLVALUE PUSH2 0x25C JUMPI DUP2 PUSH1 0x3 NOT CALLDATASIZE ADD SLT PUSH2 0x25C JUMPI PUSH1 0x20 SWAP1 PUSH1 0x3 SLOAD SWAP1 MLOAD SWAP1 DUP2 MSTORE RETURN JUMPDEST POP SWAP1 DUP3 PUSH1 0x3 NOT CALLDATASIZE ADD SLT PUSH2 0x1DA JUMPI PUSH2 0xDDA PUSH2 0x113F JUMP JUMPDEST PUSH2 0xDE2 PUSH2 0x11A9 JUMP JUMPDEST PUSH2 0xDEA PUSH2 0x118B JUMP JUMPDEST DUP2 SLOAD PUSH2 0xF7A JUMPI PUSH3 0x186A0 CALLVALUE LT PUSH2 0xF37 JUMPI CALLVALUE PUSH1 0x3 SSTORE CALLVALUE PUSH1 0x5 SSTORE PUSH1 0x64 CALLVALUE DIV SWAP2 PUSH8 0xFFFFFFFFFFFFFFFF DUP4 AND PUSH1 0x7 SIGNEXTEND SWAP1 PUSH32 0x0 SWAP1 PUSH2 0xE7E PUSH1 0x1 DUP1 PUSH1 0xA0 SHL SUB DUP4 AND SWAP3 DUP6 MLOAD DUP6 DUP2 MSTORE DUP5 PUSH32 0xB7555D949A897ACB395F95E3F2DF8B700519404826BB13CD6526B756F6A1C907 PUSH1 0x20 CALLER SWAP4 LOG3 DUP5 DUP7 MLOAD SWAP2 PUSH2 0xAEE DUP4 PUSH2 0x108F JUMP JUMPDEST POP SWAP2 SWAP1 PUSH1 0x16 DUP2 SUB PUSH2 0xB96 JUMPI POP DUP6 SWAP1 SSTORE DUP4 MLOAD PUSH1 0x7 SWAP4 DUP5 SIGNEXTEND DUP2 MSTORE SWAP3 SIGNEXTEND PUSH1 0x20 DUP4 ADD MSTORE PUSH32 0x64B83944E79C3CE8D4C297411DE637C3E102D064677AAC0C163976EBDCD6F50E SWAP3 SWAP2 CALLER SWAP2 SWAP1 PUSH32 0xAD91542866F4DA9EBED5A2B1713258F4BF970F84E7B2A0B8AAB2DE28D11FFFFD SWAP1 PUSH1 0x40 SWAP1 LOG3 DUP1 MLOAD CALLVALUE DUP2 MSTORE TIMESTAMP PUSH1 0x20 DUP3 ADD MSTORE PUSH32 0x997F3E422A7446CCF056E7A989C8A281F20AF906A7AC6AD0E6F9FEA0EDD6055C DUP3 CALLER SWAP3 LOG2 MLOAD CALLVALUE DUP2 MSTORE PUSH1 0x20 DUP2 ADD SWAP3 SWAP1 SWAP3 MSTORE TIMESTAMP PUSH1 0x40 DUP4 ADD MSTORE CALLER SWAP2 DUP1 PUSH1 0x60 DUP2 ADD PUSH2 0x599 JUMP JUMPDEST SWAP1 PUSH1 0x20 PUSH1 0x64 SWAP3 MLOAD SWAP2 PUSH3 0x461BCD PUSH1 0xE5 SHL DUP4 MSTORE DUP3 ADD MSTORE PUSH1 0x1E PUSH1 0x24 DUP3 ADD MSTORE PUSH32 0x496E73756666696369656E7420696E697469616C206C69717569646974790000 PUSH1 0x44 DUP3 ADD MSTORE REVERT JUMPDEST SWAP1 PUSH1 0x20 PUSH1 0x64 SWAP3 MLOAD SWAP2 PUSH3 0x461BCD PUSH1 0xE5 SHL DUP4 MSTORE DUP3 ADD MSTORE PUSH1 0x18 PUSH1 0x24 DUP3 ADD MSTORE PUSH32 0x506F6F6C20616C726561647920696E697469616C697A65640000000000000000 PUSH1 0x44 DUP3 ADD MSTORE REVERT JUMPDEST POP POP CALLVALUE PUSH2 0x25C JUMPI DUP2 PUSH1 0x3 NOT CALLDATASIZE ADD SLT PUSH2 0x25C JUMPI PUSH1 0x20 SWAP1 MLOAD PUSH3 0x186A0 DUP2 MSTORE RETURN JUMPDEST DUP2 DUP6 SWAP2 CALLVALUE PUSH2 0x25C JUMPI PUSH2 0x6A5 DUP2 PUSH2 0x6B3 DUP5 SWAP4 PUSH2 0xFF5 CALLDATASIZE PUSH2 0x104E JUMP JUMPDEST PUSH4 0xAED65F5 PUSH1 0xE1 SHL PUSH1 0x20 DUP7 ADD SWAP1 DUP2 MSTORE PUSH1 0x1 PUSH1 0x1 PUSH1 0xA0 SHL SUB SWAP5 DUP6 AND PUSH1 0x24 DUP8 ADD MSTORE SWAP3 DUP5 AND PUSH1 0x44 DUP7 ADD MSTORE SWAP3 AND PUSH1 0x64 DUP5 ADD MSTORE PUSH1 0x84 DUP4 ADD SWAP2 SWAP1 SWAP2 MSTORE SWAP4 PUSH1 0xA4 DUP3 ADD SWAP1 JUMP JUMPDEST PUSH1 0x4 CALLDATALOAD SWAP1 PUSH1 0x1 PUSH1 0x1 PUSH1 0xA0 SHL SUB DUP3 AND DUP3 SUB PUSH2 0x1049 JUMPI JUMP JUMPDEST PUSH1 0x0 DUP1 REVERT JUMPDEST PUSH1 0x80 SWAP1 PUSH1 0x3 NOT ADD SLT PUSH2 0x1049 JUMPI PUSH1 0x1 PUSH1 0x1 PUSH1 0xA0 SHL SUB PUSH1 0x4 CALLDATALOAD DUP2 DUP2 AND DUP2 SUB PUSH2 0x1049 JUMPI SWAP2 PUSH1 0x24 CALLDATALOAD DUP3 DUP2 AND DUP2 SUB PUSH2 0x1049 JUMPI SWAP2 PUSH1 0x44 CALLDATALOAD SWAP1 DUP2 AND DUP2 SUB PUSH2 0x1049 JUMPI SWAP1 PUSH1 0x64 CALLDATALOAD SWAP1 JUMP JUMPDEST PUSH1 0x20 DUP2 ADD SWAP1 DUP2 LT PUSH8 0xFFFFFFFFFFFFFFFF DUP3 GT OR PUSH2 0x10AB JUMPI PUSH1 0x40 MSTORE JUMP JUMPDEST PUSH4 0x4E487B71 PUSH1 0xE0 SHL PUSH1 0x0 MSTORE PUSH1 0x41 PUSH1 0x4 MSTORE PUSH1 0x24 PUSH1 0x0 REVERT JUMPDEST SWAP1 PUSH1 0x1F DUP1 NOT SWAP2 ADD AND DUP2 ADD SWAP1 DUP2 LT PUSH8 0xFFFFFFFFFFFFFFFF DUP3 GT OR PUSH2 0x10AB JUMPI PUSH1 0x40 MSTORE JUMP JUMPDEST PUSH8 0xFFFFFFFFFFFFFFFF DUP2 GT PUSH2 0x10AB JUMPI PUSH1 0x1F ADD PUSH1 0x1F NOT AND PUSH1 0x20 ADD SWAP1 JUMP JUMPDEST SWAP2 SWAP1 DUP3 MLOAD SWAP3 DUP4 DUP3 MSTORE PUSH1 0x0 JUMPDEST DUP5 DUP2 LT PUSH2 0x112B JUMPI POP POP DUP3 PUSH1 0x0 PUSH1 0x20 DUP1 SWAP5 SWAP6 DUP5 ADD ADD MSTORE PUSH1 0x1F DUP1 NOT SWAP2 ADD AND ADD ADD SWAP1 JUMP JUMPDEST PUSH1 0x20 DUP2 DUP4 ADD DUP2 ADD MLOAD DUP5 DUP4 ADD DUP3 ADD MSTORE ADD PUSH2 0x110A JUMP JUMPDEST PUSH1 0x0 SLOAD PUSH1 0x1 PUSH1 0x1 PUSH1 0xA0 SHL SUB AND CALLER SUB PUSH2 0x1153 JUMPI JUMP JUMPDEST PUSH1 0x40 MLOAD PUSH4 0x118CDAA7 PUSH1 0xE0 SHL DUP2 MSTORE CALLER PUSH1 0x4 DUP3 ADD MSTORE PUSH1 0x24 SWAP1 REVERT JUMPDEST DUP2 ISZERO PUSH2 0x1175 JUMPI DIV SWAP1 JUMP JUMPDEST PUSH4 0x4E487B71 PUSH1 0xE0 SHL PUSH1 0x0 MSTORE PUSH1 0x12 PUSH1 0x4 MSTORE PUSH1 0x24 PUSH1 0x0 REVERT JUMPDEST PUSH1 0xFF PUSH1 0x2 SLOAD AND PUSH2 0x1197 JUMPI JUMP JUMPDEST PUSH1 0x40 MLOAD PUSH4 0xD93C0665 PUSH1 0xE0 SHL DUP2 MSTORE PUSH1 0x4 SWAP1 REVERT JUMPDEST PUSH1 0x2 PUSH1 0x1 SLOAD EQ PUSH2 0x11BA JUMPI PUSH1 0x2 PUSH1 0x1 SSTORE JUMP JUMPDEST PUSH1 0x40 MLOAD PUSH4 0x3EE5AEB5 PUSH1 0xE0 SHL DUP2 MSTORE PUSH1 0x4 SWAP1 REVERT JUMPDEST DUP2 DUP2 MUL SWAP3 SWAP2 DUP2 ISZERO SWAP2 DUP5 DIV EQ OR ISZERO PUSH2 0x11DF JUMPI JUMP JUMPDEST PUSH4 0x4E487B71 PUSH1 0xE0 SHL PUSH1 0x0 MSTORE PUSH1 0x11 PUSH1 0x4 MSTORE PUSH1 0x24 PUSH1 0x0 REVERT JUMPDEST SWAP2 SWAP1 DUP3 SUB SWAP2 DUP3 GT PUSH2 0x11DF JUMPI JUMP JUMPDEST SWAP2 SWAP1 DUP3 ADD DUP1 SWAP3 GT PUSH2 0x11DF JUMPI JUMP JUMPDEST PUSH1 0x4 SLOAD SWAP1 DUP2 ISZERO PUSH2 0x1253 JUMPI PUSH2 0x122F SWAP2 PUSH2 0x1226 SWAP2 PUSH2 0x11CC JUMP JUMPDEST PUSH1 0x5 SLOAD SWAP1 PUSH2 0x116B JUMP JUMPDEST PUSH1 0x1E DUP2 MUL SWAP1 DUP1 DUP3 DIV PUSH1 0x1E EQ DUP2 ISZERO OR ISZERO PUSH2 0x11DF JUMPI PUSH2 0x2710 PUSH2 0x1250 SWAP3 DIV SWAP1 PUSH2 0x11F5 JUMP JUMPDEST SWAP1 JUMP JUMPDEST POP POP PUSH1 0x0 SWAP1 JUMP JUMPDEST PUSH1 0x4 SLOAD DUP1 ISZERO PUSH2 0x1285 JUMPI PUSH1 0x5 SLOAD SWAP1 PUSH3 0xF4240 SWAP2 DUP3 DUP2 MUL SWAP3 DUP2 DUP5 DIV EQ SWAP1 ISZERO OR ISZERO PUSH2 0x11DF JUMPI PUSH2 0x1250 SWAP2 PUSH2 0x116B JUMP JUMPDEST POP PUSH1 0x0 SWAP1 JUMP JUMPDEST PUSH1 0x40 MLOAD PUSH4 0x70A08231 PUSH1 0xE0 SHL DUP2 MSTORE PUSH1 0x1 PUSH1 0x1 PUSH1 0xA0 SHL SUB SWAP2 DUP3 AND PUSH1 0x4 DUP3 ADD MSTORE SWAP1 PUSH1 0x20 SWAP1 DUP3 SWAP1 PUSH1 0x24 SWAP1 DUP3 SWAP1 PUSH32 0x0 AND GAS STATICCALL SWAP1 DUP2 ISZERO PUSH2 0x1348 JUMPI PUSH1 0x0 SWAP2 PUSH2 0x1317 JUMPI JUMPDEST POP DUP1 ISZERO DUP1 ISZERO PUSH2 0x130D JUMPI JUMPDEST PUSH2 0x1285 JUMPI PUSH2 0x1304 PUSH2 0x1250 SWAP2 PUSH1 0x5 SLOAD SWAP1 PUSH2 0x11CC JUMP JUMPDEST PUSH1 0x4 SLOAD SWAP1 PUSH2 0x116B JUMP JUMPDEST POP PUSH1 0x4 SLOAD ISZERO PUSH2 0x12F0 JUMP JUMPDEST SWAP1 PUSH1 0x20 DUP3 RETURNDATASIZE DUP3 GT PUSH2 0x1340 JUMPI JUMPDEST DUP2 PUSH2 0x1330 PUSH1 0x20 SWAP4 DUP4 PUSH2 0x10C1 JUMP JUMPDEST DUP2 ADD SUB SLT PUSH2 0x3AA JUMPI POP MLOAD CODESIZE PUSH2 0x12E6 JUMP JUMPDEST RETURNDATASIZE SWAP2 POP PUSH2 0x1323 JUMP JUMPDEST PUSH1 0x40 MLOAD RETURNDATASIZE PUSH1 0x0 DUP3 RETURNDATACOPY RETURNDATASIZE SWAP1 REVERT JUMPDEST PUSH1 0x40 MLOAD PUSH4 0x70A08231 PUSH1 0xE0 SHL DUP2 MSTORE PUSH1 0x1 PUSH1 0x1 PUSH1 0xA0 SHL SUB SWAP2 DUP3 AND PUSH1 0x4 DUP3 ADD MSTORE SWAP1 PUSH1 0x20 SWAP1 DUP3 SWAP1 PUSH1 0x24 SWAP1 DUP3 SWAP1 PUSH32 0x0 AND GAS STATICCALL SWAP1 DUP2 ISZERO PUSH2 0x1348 JUMPI PUSH1 0x0 SWAP2 PUSH2 0x13E2 JUMPI JUMPDEST POP DUP1 ISZERO DUP1 ISZERO PUSH2 0x13D8 JUMPI JUMPDEST PUSH2 0x13CF JUMPI PUSH2 0x13CC PUSH2 0x1304 PUSH1 0x5 SLOAD DUP4 PUSH2 0x11CC JUMP JUMPDEST SWAP2 JUMP JUMPDEST POP PUSH1 0x0 SWAP1 PUSH1 0x0 SWAP1 JUMP JUMPDEST POP PUSH1 0x4 SLOAD ISZERO PUSH2 0x13B9 JUMP JUMPDEST SWAP1 PUSH1 0x20 DUP3 RETURNDATASIZE DUP3 GT PUSH2 0x140B JUMPI JUMPDEST DUP2 PUSH2 0x13FB PUSH1 0x20 SWAP4 DUP4 PUSH2 0x10C1 JUMP JUMPDEST DUP2 ADD SUB SLT PUSH2 0x3AA JUMPI POP MLOAD CODESIZE PUSH2 0x13AF JUMP JUMPDEST RETURNDATASIZE SWAP2 POP PUSH2 0x13EE JUMP JUMPDEST RETURNDATASIZE ISZERO PUSH2 0x143E JUMPI RETURNDATASIZE SWAP1 PUSH2 0x1424 DUP3 PUSH2 0x10E3 JUMP JUMPDEST SWAP2 PUSH2 0x1432 PUSH1 0x40 MLOAD SWAP4 DUP5 PUSH2 0x10C1 JUMP JUMPDEST DUP3 MSTORE RETURNDATASIZE PUSH1 0x0 PUSH1 0x20 DUP5 ADD RETURNDATACOPY JUMP JUMPDEST PUSH1 0x60 SWAP1 JUMP JUMPDEST MLOAD SWAP1 DUP2 PUSH1 0x3 SIGNEXTEND DUP3 SUB PUSH2 0x1049 JUMPI JUMP JUMPDEST MLOAD SWAP1 DUP2 PUSH1 0x7 SIGNEXTEND DUP3 SUB PUSH2 0x1049 JUMPI JUMP JUMPDEST SWAP1 PUSH1 0x40 SWAP3 DUP4 MLOAD SWAP1 PUSH1 0x20 SWAP4 DUP5 DUP4 ADD SWAP4 PUSH4 0x707A02CD PUSH1 0xE1 SHL DUP6 MSTORE PUSH1 0x84 DUP5 ADD SWAP2 PUSH1 0x1 DUP1 PUSH1 0xA0 SHL SUB AND PUSH1 0x24 DUP6 ADD MSTORE PUSH1 0x7 SIGNEXTEND PUSH1 0x44 DUP5 ADD MSTORE PUSH1 0x60 PUSH1 0x64 DUP5 ADD MSTORE DUP2 MLOAD DUP1 SWAP2 MSTORE PUSH1 0xA4 DUP4 ADD SWAP1 DUP6 PUSH1 0xA4 DUP3 PUSH1 0x5 SHL DUP7 ADD ADD SWAP4 ADD SWAP2 PUSH1 0x0 SWAP1 JUMPDEST DUP8 DUP4 DUP4 LT PUSH2 0x15C1 JUMPI POP POP POP POP POP SWAP2 DUP2 PUSH2 0x14D9 PUSH1 0x0 SWAP5 SWAP4 DUP6 SWAP5 SUB PUSH1 0x1F NOT DUP2 ADD DUP4 MSTORE DUP3 PUSH2 0x10C1 JUMP JUMPDEST MLOAD SWAP1 DUP3 PUSH2 0x167 GAS CALL SWAP1 PUSH2 0x14EA PUSH2 0x1413 JUMP JUMPDEST SWAP2 PUSH1 0x0 SWAP1 ISZERO PUSH2 0x15A1 JUMPI POP DUP2 MLOAD DUP3 ADD SWAP1 PUSH1 0x60 DUP4 DUP3 DUP5 ADD SWAP4 SUB SLT PUSH2 0x1049 JUMPI PUSH2 0x1511 DUP2 DUP5 ADD PUSH2 0x1443 JUMP JUMPDEST SWAP2 PUSH2 0x151D DUP6 DUP6 ADD PUSH2 0x1451 JUMP JUMPDEST SWAP5 PUSH1 0x60 DUP6 ADD MLOAD PUSH8 0xFFFFFFFFFFFFFFFF SWAP6 DUP7 DUP3 GT PUSH2 0x1049 JUMPI ADD SWAP1 DUP3 PUSH1 0x3F DUP4 ADD SLT ISZERO PUSH2 0x1049 JUMPI DUP4 DUP3 ADD MLOAD SWAP6 DUP7 GT PUSH2 0x10AB JUMPI DUP6 PUSH1 0x5 SHL SWAP2 DUP2 MLOAD SWAP7 PUSH2 0x1560 DUP7 DUP6 ADD DUP10 PUSH2 0x10C1 JUMP JUMPDEST DUP8 MSTORE DUP2 DUP6 DUP9 ADD SWAP4 DUP3 ADD ADD SWAP4 DUP5 GT PUSH2 0x1049 JUMPI ADD SWAP1 JUMPDEST DUP3 DUP3 LT PUSH2 0x158A JUMPI POP POP POP POP SWAP2 SWAP1 JUMPDEST SWAP1 SWAP2 PUSH1 0x3 SIGNEXTEND SWAP3 JUMP JUMPDEST DUP4 DUP1 SWAP2 PUSH2 0x1596 DUP5 PUSH2 0x1451 JUMP JUMPDEST DUP2 MSTORE ADD SWAP2 ADD SWAP1 PUSH2 0x1574 JUMP JUMPDEST SWAP3 SWAP2 POP POP MLOAD SWAP1 PUSH2 0x15B0 DUP3 PUSH2 0x108F JUMP JUMPDEST DUP1 DUP3 MSTORE CALLDATASIZE DUP2 CALLDATACOPY PUSH1 0x15 SWAP1 PUSH1 0x0 SWAP1 PUSH2 0x1582 JUMP JUMPDEST DUP1 PUSH2 0x15DC PUSH1 0x1 SWAP4 SWAP5 SWAP6 SWAP7 SWAP8 PUSH1 0xA3 NOT DUP11 DUP3 SUB ADD DUP7 MSTORE DUP9 MLOAD PUSH2 0x10FF JUMP JUMPDEST SWAP7 ADD SWAP3 ADD SWAP3 ADD SWAP1 SWAP3 SWAP2 PUSH2 0x14B3 JUMP INVALID LOG2 PUSH5 0x6970667358 0x22 SLT KECCAK256 0xB2 PUSH18 0x51D7AF1A86F4C285C4757B74DC61A2BE6355 0xE4 0xEF 0xA8 0xAC RETURNDATASIZE EXTCODESIZE PUSH21 0x4411ECB18D64736F6C634300081400330000000000 "},"methodIdentifiers":{"FEE_BPS()":"bf333f2c","FEE_DENOMINATOR()":"d73792a9","MIN_LIQUIDITY()":"21b77d63","addLiquidity(uint256)":"51c6590a","calculateLPTokens(uint256)":"42c649de","collectFees()":"c8796572","emergencyWithdraw()":"db2e21bc","getPoolInfo()":"60246c88","getUserShare(address)":"bbbaee4c","getUserValue(address)":"a78c849b","getValuePerLPToken()":"2fb9125d","initializePool()":"250e6de0","isInitialized()":"392e53cd","lpToken()":"5fcbd285","owner()":"8da5cb5b","pause()":"8456cb59","paused()":"5c975abb","redirectForToken(address,bytes)":"618dc65e","removeLiquidity(uint256,uint256)":"9d7de6b3","renounceOwnership()":"715018a6","totalHBAR()":"28999437","totalLPTokens()":"ef6283d9","totalValue()":"d4c3eea0","transferFrom(address,address,address,uint256)":"15dacbea","transferFromNFT(address,address,address,uint256)":"9b23d3d9","transferOwnership(address)":"f2fde38b","unpause()":"3f4ba83a"}}}}}