{"contracts/ClearSkyLiquidityPoolV3.sol":{"ClearSkyLiquidityPoolV3":{"abi":[{"inputs":[{"internalType":"address","name":"_owner","type":"address"}],"stateMutability":"nonpayable","type":"constructor"},{"inputs":[],"name":"EnforcedPause","type":"error"},{"inputs":[],"name":"ExpectedPause","type":"error"},{"inputs":[],"name":"InsufficientHBAR","type":"error"},{"inputs":[],"name":"InsufficientInitialLiquidity","type":"error"},{"inputs":[],"name":"InsufficientLPBalance","type":"error"},{"inputs":[],"name":"InvalidAmounts","type":"error"},{"inputs":[],"name":"NoLiquidityProvided","type":"error"},{"inputs":[{"internalType":"address","name":"owner","type":"address"}],"name":"OwnableInvalidOwner","type":"error"},{"inputs":[{"internalType":"address","name":"account","type":"address"}],"name":"OwnableUnauthorizedAccount","type":"error"},{"inputs":[],"name":"PoolAlreadyInitialized","type":"error"},{"inputs":[],"name":"PoolNotActive","type":"error"},{"inputs":[],"name":"ReentrancyGuardReentrantCall","type":"error"},{"inputs":[],"name":"SlippageExceeded","type":"error"},{"inputs":[],"name":"TokenAlreadyCreated","type":"error"},{"inputs":[{"internalType":"int32","name":"responseCode","type":"int32"}],"name":"TokenCreationFailed","type":"error"},{"inputs":[],"name":"TokenNotCreated","type":"error"},{"anonymous":false,"inputs":[{"indexed":false,"internalType":"bool","name":"","type":"bool"},{"indexed":false,"internalType":"bytes","name":"","type":"bytes"}],"name":"CallResponseEvent","type":"event"},{"anonymous":false,"inputs":[{"indexed":true,"internalType":"address","name":"collector","type":"address"},{"indexed":false,"internalType":"uint256","name":"hbarAmount","type":"uint256"},{"indexed":false,"internalType":"uint256","name":"timestamp","type":"uint256"}],"name":"FeesCollected","type":"event"},{"anonymous":false,"inputs":[{"indexed":true,"internalType":"address","name":"token","type":"address"},{"indexed":true,"internalType":"address","name":"account","type":"address"}],"name":"HTSAssociateAttempt","type":"event"},{"anonymous":false,"inputs":[{"indexed":true,"internalType":"address","name":"token","type":"address"},{"indexed":true,"internalType":"address","name":"account","type":"address"},{"indexed":false,"internalType":"string","name":"reason","type":"string"}],"name":"HTSAssociateSkipped","type":"event"},{"anonymous":false,"inputs":[{"indexed":true,"internalType":"address","name":"token","type":"address"},{"indexed":true,"internalType":"address","name":"account","type":"address"}],"name":"HTSAssociateSuccess","type":"event"},{"anonymous":false,"inputs":[{"indexed":true,"internalType":"address","name":"token","type":"address"},{"indexed":false,"internalType":"int64","name":"amount","type":"int64"},{"indexed":false,"internalType":"int64[]","name":"serialNumbers","type":"int64[]"}],"name":"HTSBurnAttempt","type":"event"},{"anonymous":false,"inputs":[{"indexed":true,"internalType":"address","name":"token","type":"address"},{"indexed":false,"internalType":"int64","name":"amount","type":"int64"},{"indexed":false,"internalType":"int32","name":"responseCode","type":"int32"}],"name":"HTSBurnFailed","type":"event"},{"anonymous":false,"inputs":[{"indexed":true,"internalType":"address","name":"token","type":"address"},{"indexed":false,"internalType":"int64","name":"amount","type":"int64"},{"indexed":false,"internalType":"int64","name":"newTotalSupply","type":"int64"}],"name":"HTSBurnSuccess","type":"event"},{"anonymous":false,"inputs":[{"indexed":true,"internalType":"address","name":"token","type":"address"},{"indexed":true,"internalType":"address","name":"to","type":"address"},{"indexed":false,"internalType":"int64","name":"amount","type":"int64"}],"name":"HTSMintAttempt","type":"event"},{"anonymous":false,"inputs":[{"indexed":true,"internalType":"address","name":"token","type":"address"},{"indexed":true,"internalType":"address","name":"to","type":"address"},{"indexed":false,"internalType":"int64","name":"amount","type":"int64"},{"indexed":false,"internalType":"int32","name":"responseCode","type":"int32"}],"name":"HTSMintFailed","type":"event"},{"anonymous":false,"inputs":[{"indexed":true,"internalType":"address","name":"token","type":"address"},{"indexed":true,"internalType":"address","name":"to","type":"address"},{"indexed":false,"internalType":"int64","name":"amount","type":"int64"},{"indexed":false,"internalType":"int64","name":"newTotalSupply","type":"int64"}],"name":"HTSMintSuccess","type":"event"},{"anonymous":false,"inputs":[{"indexed":true,"internalType":"address","name":"token","type":"address"},{"indexed":true,"internalType":"address","name":"from","type":"address"},{"indexed":true,"internalType":"address","name":"to","type":"address"},{"indexed":false,"internalType":"int64","name":"amount","type":"int64"}],"name":"HTSTransferAttempt","type":"event"},{"anonymous":false,"inputs":[{"indexed":true,"internalType":"address","name":"token","type":"address"},{"indexed":true,"internalType":"address","name":"from","type":"address"},{"indexed":true,"internalType":"address","name":"to","type":"address"},{"indexed":false,"internalType":"int64","name":"amount","type":"int64"},{"indexed":false,"internalType":"int32","name":"responseCode","type":"int32"}],"name":"HTSTransferFailed","type":"event"},{"anonymous":false,"inputs":[{"indexed":true,"internalType":"address","name":"token","type":"address"},{"indexed":true,"internalType":"address","name":"from","type":"address"},{"indexed":true,"internalType":"address","name":"to","type":"address"},{"indexed":false,"internalType":"int64","name":"amount","type":"int64"}],"name":"HTSTransferSuccess","type":"event"},{"anonymous":false,"inputs":[{"indexed":true,"internalType":"address","name":"user","type":"address"},{"indexed":false,"internalType":"uint256","name":"hbarAmount","type":"uint256"},{"indexed":false,"internalType":"uint256","name":"lpTokensMinted","type":"uint256"},{"indexed":false,"internalType":"uint256","name":"timestamp","type":"uint256"}],"name":"LiquidityAdded","type":"event"},{"anonymous":false,"inputs":[{"indexed":true,"internalType":"address","name":"user","type":"address"},{"indexed":false,"internalType":"uint256","name":"hbarAmount","type":"uint256"},{"indexed":false,"internalType":"uint256","name":"lpTokensBurned","type":"uint256"},{"indexed":false,"internalType":"uint256","name":"timestamp","type":"uint256"}],"name":"LiquidityRemoved","type":"event"},{"anonymous":false,"inputs":[{"indexed":true,"internalType":"address","name":"previousOwner","type":"address"},{"indexed":true,"internalType":"address","name":"newOwner","type":"address"}],"name":"OwnershipTransferred","type":"event"},{"anonymous":false,"inputs":[{"indexed":false,"internalType":"address","name":"account","type":"address"}],"name":"Paused","type":"event"},{"anonymous":false,"inputs":[{"indexed":true,"internalType":"address","name":"tokenAddress","type":"address"},{"indexed":false,"internalType":"string","name":"name","type":"string"},{"indexed":false,"internalType":"string","name":"symbol","type":"string"},{"indexed":false,"internalType":"uint8","name":"decimals","type":"uint8"},{"indexed":false,"internalType":"address","name":"treasury","type":"address"}],"name":"TokenCreated","type":"event"},{"anonymous":false,"inputs":[{"indexed":false,"internalType":"int32","name":"responseCode","type":"int32"},{"indexed":false,"internalType":"string","name":"errorMessage","type":"string"}],"name":"TokenCreationFailedEvent","type":"event"},{"anonymous":false,"inputs":[{"indexed":false,"internalType":"address","name":"account","type":"address"}],"name":"Unpaused","type":"event"},{"stateMutability":"payable","type":"fallback"},{"inputs":[],"name":"FEE_BPS","outputs":[{"internalType":"uint256","name":"","type":"uint256"}],"stateMutability":"view","type":"function"},{"inputs":[],"name":"FEE_DENOMINATOR","outputs":[{"internalType":"uint256","name":"","type":"uint256"}],"stateMutability":"view","type":"function"},{"inputs":[],"name":"MIN_LIQUIDITY","outputs":[{"internalType":"uint256","name":"","type":"uint256"}],"stateMutability":"view","type":"function"},{"inputs":[{"internalType":"uint256","name":"minLPTokens","type":"uint256"}],"name":"addLiquidity","outputs":[],"stateMutability":"payable","type":"function"},{"inputs":[{"internalType":"uint256","name":"usdAmount","type":"uint256"},{"internalType":"uint256","name":"maturationAmount","type":"uint256"},{"internalType":"uint256","name":"minLPTokens","type":"uint256"}],"name":"addLiquidityWithUSD","outputs":[],"stateMutability":"payable","type":"function"},{"inputs":[{"internalType":"uint256","name":"usdAmount","type":"uint256"},{"internalType":"uint256","name":"maturationAmount","type":"uint256"}],"name":"calculateCSLPFromUSD","outputs":[{"internalType":"uint256","name":"cslpTokens","type":"uint256"}],"stateMutability":"pure","type":"function"},{"inputs":[{"internalType":"uint256","name":"lpTokenAmount","type":"uint256"}],"name":"calculateHBAR","outputs":[{"internalType":"uint256","name":"hbarAmount","type":"uint256"}],"stateMutability":"view","type":"function"},{"inputs":[{"internalType":"uint256","name":"hbarAmount","type":"uint256"}],"name":"calculateLPTokens","outputs":[{"internalType":"uint256","name":"lpTokens","type":"uint256"}],"stateMutability":"view","type":"function"},{"inputs":[{"internalType":"string","name":"_tokenName","type":"string"},{"internalType":"string","name":"_tokenSymbol","type":"string"}],"name":"createLPToken","outputs":[],"stateMutability":"payable","type":"function"},{"inputs":[],"name":"emergencyWithdraw","outputs":[],"stateMutability":"nonpayable","type":"function"},{"inputs":[{"internalType":"int32","name":"responseCode","type":"int32"}],"name":"getErrorMessage","outputs":[{"internalType":"string","name":"errorMessage","type":"string"}],"stateMutability":"pure","type":"function"},{"inputs":[],"name":"getPoolInfo","outputs":[{"internalType":"uint256","name":"_totalHBAR","type":"uint256"},{"internalType":"uint256","name":"_totalLPTokens","type":"uint256"},{"internalType":"uint256","name":"_totalValue","type":"uint256"}],"stateMutability":"view","type":"function"},{"inputs":[],"name":"getTokenInfo","outputs":[{"components":[{"internalType":"string","name":"name","type":"string"},{"internalType":"string","name":"symbol","type":"string"},{"internalType":"uint8","name":"decimals","type":"uint8"},{"internalType":"address","name":"tokenAddress","type":"address"},{"internalType":"bool","name":"created","type":"bool"}],"internalType":"struct ClearSkyLiquidityPoolV3.TokenInfo","name":"","type":"tuple"}],"stateMutability":"view","type":"function"},{"inputs":[{"internalType":"address","name":"user","type":"address"}],"name":"getUserShare","outputs":[{"internalType":"uint256","name":"userLPBalance","type":"uint256"},{"internalType":"uint256","name":"userHBARValue","type":"uint256"},{"internalType":"uint256","name":"sharePercentage","type":"uint256"}],"stateMutability":"view","type":"function"},{"inputs":[{"internalType":"address","name":"user","type":"address"}],"name":"getUserValue","outputs":[{"internalType":"uint256","name":"userValue","type":"uint256"}],"stateMutability":"view","type":"function"},{"inputs":[],"name":"getValuePerLPToken","outputs":[{"internalType":"uint256","name":"valuePerToken","type":"uint256"}],"stateMutability":"view","type":"function"},{"inputs":[],"name":"initializePool","outputs":[],"stateMutability":"payable","type":"function"},{"inputs":[],"name":"isTokenCreated","outputs":[{"internalType":"bool","name":"created","type":"bool"}],"stateMutability":"view","type":"function"},{"inputs":[],"name":"lpToken","outputs":[{"internalType":"address","name":"","type":"address"}],"stateMutability":"view","type":"function"},{"inputs":[],"name":"owner","outputs":[{"internalType":"address","name":"","type":"address"}],"stateMutability":"view","type":"function"},{"inputs":[],"name":"pause","outputs":[],"stateMutability":"nonpayable","type":"function"},{"inputs":[],"name":"paused","outputs":[{"internalType":"bool","name":"","type":"bool"}],"stateMutability":"view","type":"function"},{"inputs":[{"internalType":"address","name":"token","type":"address"},{"internalType":"bytes","name":"encodedFunctionSelector","type":"bytes"}],"name":"redirectForToken","outputs":[{"internalType":"int256","name":"responseCode","type":"int256"},{"internalType":"bytes","name":"response","type":"bytes"}],"stateMutability":"nonpayable","type":"function"},{"inputs":[{"internalType":"uint256","name":"lpTokenAmount","type":"uint256"},{"internalType":"uint256","name":"minHBAR","type":"uint256"}],"name":"removeLiquidity","outputs":[],"stateMutability":"nonpayable","type":"function"},{"inputs":[],"name":"renounceOwnership","outputs":[],"stateMutability":"nonpayable","type":"function"},{"inputs":[],"name":"tokenInfo","outputs":[{"internalType":"string","name":"name","type":"string"},{"internalType":"string","name":"symbol","type":"string"},{"internalType":"uint8","name":"decimals","type":"uint8"},{"internalType":"address","name":"tokenAddress","type":"address"},{"internalType":"bool","name":"created","type":"bool"}],"stateMutability":"view","type":"function"},{"inputs":[],"name":"totalHBAR","outputs":[{"internalType":"uint256","name":"","type":"uint256"}],"stateMutability":"view","type":"function"},{"inputs":[],"name":"totalLPTokens","outputs":[{"internalType":"uint256","name":"","type":"uint256"}],"stateMutability":"view","type":"function"},{"inputs":[],"name":"totalValue","outputs":[{"internalType":"uint256","name":"","type":"uint256"}],"stateMutability":"view","type":"function"},{"inputs":[{"internalType":"address","name":"token","type":"address"},{"internalType":"address","name":"from","type":"address"},{"internalType":"address","name":"to","type":"address"},{"internalType":"uint256","name":"amount","type":"uint256"}],"name":"transferFrom","outputs":[{"internalType":"int64","name":"responseCode","type":"int64"}],"stateMutability":"nonpayable","type":"function"},{"inputs":[{"internalType":"address","name":"token","type":"address"},{"internalType":"address","name":"from","type":"address"},{"internalType":"address","name":"to","type":"address"},{"internalType":"uint256","name":"serialNumber","type":"uint256"}],"name":"transferFromNFT","outputs":[{"internalType":"int64","name":"responseCode","type":"int64"}],"stateMutability":"nonpayable","type":"function"},{"inputs":[{"internalType":"address","name":"newOwner","type":"address"}],"name":"transferOwnership","outputs":[],"stateMutability":"nonpayable","type":"function"},{"inputs":[],"name":"unpause","outputs":[],"stateMutability":"nonpayable","type":"function"},{"stateMutability":"payable","type":"receive"}],"evm":{"bytecode":{"linkReferences":{},"object":"6080346200054d57601f6200390438819003918201601f19168301916001600160401b0383118484101762000436578084926020946040528339810103126200054d57516001600160a01b03808216918290036200054d57811562000534576000548260018060a01b0319821617600055167f8be0079c531659141344cd1fd0a4f28419497f9722a3daafe3b4186f6b6457e0600080a3600180805560028054610100600160a81b0319168155600360209081527f3617319a054d772f909f7c479a2cebe5066e836a939412e32403c99029b92eff929092557fa15bc60c955c405d20d9149c709e2460f1c2d9a497496a7f46004d1772c3054c5560047fc3a24b0501bd2c13a7e57f2db4369ec4c223447539fc0724a9d55ac4a06ebd4d5560087fcbc4e5fb02c3d1de23a9f1e014b4d2ee5aeaea9505df5e855c9210bf472495af5560107f83ec6a1f0257b830b5e016457c9cf1435391bf56cc98f369a58a54fe93772465557f405aad32e1adbac89bb7f176e338b8fc6e994ca210c9bb7bdca249b46594225055600660005260407fc69056f16cbaa3c616b828e333ab7d3a32310765507f8f58359e99ebb7a885f38190555160a081016001600160401b038111828210176200043657604052620001d862000552565b600081528152620001e862000552565b600081526020820152600060408201526000606082015260006080820152805190815160018060401b0381116200043657600854600181811c9116801562000529575b60208210146200041557601f8111620004c3575b50602092601f82116001146200045857928192936000926200044c575b50508160011b916000199060031b1c1916176008555b602081015180519091906001600160401b0381116200043657600954600181811c911680156200042b575b60208210146200041557601f8111620003ab575b50602092601f821160011462000340579281929360009262000334575b50508160011b916000199060031b1c1916176009555b60ff60408201511690600a5491610100600160a81b03606083015160081b1691608060ff60a81b910151151560a81b169260018060b01b031916171717600a556040516133919081620005738239f35b015190503880620002ce565b601f19821693600960005260206000209160005b86811062000392575083600195961062000378575b505050811b01600955620002e4565b015160001960f88460031b161c1916905538808062000369565b9192602060018192868501518155019401920162000354565b60096000527f6e1540171b6c0c960b71a7020d9f60077f6af931a8bbf590da0223dacf75c7af601f830160051c810191602084106200040a575b601f0160051c01905b818110620003fd5750620002b1565b60008155600101620003ee565b9091508190620003e5565b634e487b7160e01b600052602260045260246000fd5b90607f16906200029d565b634e487b7160e01b600052604160045260246000fd5b0151905038806200025c565b601f19821693600860005260206000209160005b868110620004aa575083600195961062000490575b505050811b0160085562000272565b015160001960f88460031b161c1916905538808062000481565b919260206001819286850151815501940192016200046c565b60086000527ff3f7a9fe364faab93b216da50a3214154f22a0a2b415b23a84c8169e8b636ee3601f830160051c81016020841062000521575b601f830160051c82018110620005145750506200023f565b60008155600101620004fc565b5080620004fc565b90607f16906200022b565b604051631e4fbdf760e01b815260006004820152602490fd5b600080fd5b60405190602082016001600160401b03811183821017620004365760405256fe6080806040526004361015610052575b5036156100505760405162461bcd60e51b8152602060048201526012602482015271119d5b98dd1a5bdb881b9bdd08199bdd5b9960721b6044820152606490fd5b005b60003560e01c90816315dacbea14611c8b57508063185c112a14611c6557806321b77d6314611c47578063250e6de014611a375780632899943714611a195780632fb9125d146119fe57806334111bbf146119e05780633f4ba83a1461198957806342c649de1461196b5780634edec1ff1461109557806351c6590a14611039578063545466a514610cfd5780635c975abb14610cda5780635fcbd28514610cb157806360246c8814610c7f578063618dc65e14610b635780636addb66314610ae7578063715018a614610a8e5780638456cb5914610a345780638da5cb5b14610a0b5780639b23d3d91461096b5780639d7de6b31461057c578063a78c849b14610558578063abb1dc4414610477578063b79c41a214610456578063bbbaee4c14610414578063be591129146103d2578063bf333f2c146103b6578063d4c3eea014610398578063d73792a91461037b578063db2e21bc1461027b578063ef6283d91461025d5763f2fde38b146101ca573861000f565b34610258576020366003190112610258576101e3611ce2565b6101eb61201c565b6001600160a01b0390811690811561023f57600054826bffffffffffffffffffffffff60a01b821617600055167f8be0079c531659141344cd1fd0a4f28419497f9722a3daafe3b4186f6b6457e0600080a3005b604051631e4fbdf760e01b815260006004820152602490fd5b600080fd5b34610258576000366003190112610258576020600654604051908152f35b346102585760003660031901126102585761029461201c565b61029c6130b2565b4780156103405760018060a01b03600080808085858254165af16102be612348565b50156102fb5760407f2e4fb6077d4acf86e12bb7411fb82b2b3eaa6a49787f4b1e17b423e7ea8411699160005416928151908152426020820152a2005b60405162461bcd60e51b815260206004820152601b60248201527f456d657267656e6379207769746864726177616c206661696c656400000000006044820152606490fd5b60405162461bcd60e51b81526020600482015260136024820152724e6f204842415220746f20776974686472617760681b6044820152606490fd5b346102585760003660031901126102585760206040516127108152f35b34610258576000366003190112610258576020600754604051908152f35b34610258576000366003190112610258576020604051601e8152f35b34610258576020366003190112610258576004358060030b8103610258576103fc610410916124a3565b604051918291602083526020830190611e74565b0390f35b346102585760203660031901126102585761042d611ce2565b506104106104396123ea565b604080519384526020840192909252908201529081906060820190565b3461025857602061046f61046936612006565b9061239f565b604051908152f35b34610258576000366003190112610258576000608060405161049881611d54565b6060815260606020820152826040820152826060820152015261052a6040516104c081611d54565b6104c8611ed3565b81526104d2611f7f565b60208201908152600a54604083019160ff821683526060840160ff61053d60018060a01b0393848660081c16845282608089019660a81c161515865260405198899860208a525160a060208b015260c08a0190611e74565b9051888203601f190160408a0152611e74565b94511660608601525116608084015251151560a08301520390f35b3461025857602036600319011261025857610571611ce2565b50602061046f612466565b346102585761058a36612006565b610592612136565b61059a612118565b6105ab60ff600a5460a81c166120b8565b811561092d5760065480156108f1576005546105dc6105d3836105ce84886122f1565b6120f8565b938410156121db565b4783116108ac576105fa916105f2848693612304565b600555612304565b60065561060981600754612304565b6007556001600160401b03821660070b60405161062581611d6f565b6000815260008060018060a01b03926106b16106bf856004541692837fb310aaac57f9a89f4e3661e38cb8df5ea9428b82d1bb2b8ab6a77c3f52818f026040518a8152604060208201528061067d6040820186612311565b0390a26040519283916020830195636b48868360e11b87526024840152896044840152606060648401526084830190612311565b03601f198101835282611dc0565b5190826101675af1906106d0612348565b91156108a157604082805181010312610258576106fb60406106f4602085016130d1565b93016130df565b915b60030b601681036107e7575060045460408051600795860b81529390940b602084015216917f7b2f31b2ffda9d7a1ac640400c8f7eb1c8d0071689111f45797448a14697587c91a2600080808084335af1610756612348565b50156107ab576107a27f1dc8bb69df2b8e91fbdcbfcf93d951b3f0000f085a95fe3f7946d6161439245d9160405191829133954291846040919493926060820195825260208201520152565b0390a260018055005b60405162461bcd60e51b815260206004820152601460248201527312109054881d1c985b9cd9995c8819985a5b195960621b6044820152606490fd5b9150610831846108288761081f7fcccb9ca916a4b1199913d752d315547b23a41451ab4c699f6bae82cecf211b1e979860055461221b565b5060065461221b565b5060075461221b565b50600454169261085960405192839283909291602090604083019460070b835260030b910152565b0390a260405162461bcd60e51b815260206004820152601860248201527f48545320746f6b656e206275726e696e67206661696c656400000000000000006044820152606490fd5b6000915060156106fd565b60405162461bcd60e51b815260206004820152601960248201527f496e73756666696369656e74204842415220696e20706f6f6c000000000000006044820152606490fd5b60405162461bcd60e51b8152602060048201526014602482015273139bc81b1a5c5d5a591a5d1e481a5b881c1bdbdb60621b6044820152606490fd5b60405162461bcd60e51b8152602060048201526016602482015275139bc81314081d1bdad95b9cc81cdc1958da599a595960521b6044820152606490fd5b34610258576000806109c66106b161098236611cf8565b604051639b23d3d960e01b602082019081526001600160a01b03958616602483015293851660448201529390911660648401526084830152929091829060a4820190565b5190826101675af16109d6612348565b9015610a0157602081805181010312610258576109f660208092016130d1565b6040519060030b8152f35b50602060156109f6565b34610258576000366003190112610258576000546040516001600160a01b039091168152602090f35b3461025857600036600319011261025857610a4d61201c565b610a55612118565b600160ff1960025416176002557f62e78cea01bee320cd4e420270b5ea74000d11b0c9f74754ebdbfc544b05a2586020604051338152a1005b3461025857600036600319011261025857610aa761201c565b600080546001600160a01b0319811682556001600160a01b03167f8be0079c531659141344cd1fd0a4f28419497f9722a3daafe3b4186f6b6457e08280a3005b3461025857600036600319011261025857610b28610b03611ed3565b610b0b611f7f565b60ff610b36600a549260405195869560a0875260a0870190611e74565b908582036020870152611e74565b8183166040850152600883901c6001600160a01b0316606085015260a89290921c16151560808301520390f35b3461025857604036600319011261025857610b7c611ce2565b6024356001600160401b0381116102585736602382011215610258576000916106b1610bee610bb685943690602481600401359101611dfc565b604080516330c6e32f60e11b602082019081526001600160a01b03909616602482015260448101919091529283916064830190611e74565b5190826101675af1610bfe612348565b907f4af4780e06fe8cb9df64b0794fa6f01399af979175bb988e35e0e57e594567bc60405182151581526040602082015280610c3d6040820186611e74565b0390a115610c675760165b61041060405192839260030b8352604060208401526040830190611e74565b50604051610c7481611d6f565b600081526015610c48565b346102585760003660031901126102585760055460065460075460408051938452602084019290925290820152606090f35b34610258576000366003190112610258576004546040516001600160a01b039091168152602090f35b3461025857600036600319011261025857602060ff600254166040519015158152f35b606036600319011261025857610d66602435600435610d1a612136565b610d22612118565b610d3360ff600a5460a81c166120b8565b610d406006541515612159565b610d4b34151561219c565b610d5681151561223e565b610d61821515612294565b61239f565b610d746044358210156121db565b610d803460055461221b565b600555610d8f3460075461221b565b6007556001600160401b03811660070b60018060a01b0390610df38260045416604051838152817fb7555d949a897acb395f95e3f2df8b700519404826bb13cd6526b756f6a1c90760203393a38260405191610dea83611d6f565b600083526130ed565b50929060168103610fab5750610e408282600454166040518281523390827fd9cd850143c0756b15b46ebdc8b4ed7701b66aaed30858ee17a225eb005cca2e60203093a433903090613277565b60168103610f155750610e558460065461221b565b6006556004541691827fad91542866f4da9ebed5a2b1713258f4bf970f84e7b2a0b8aab2de28d11ffffd60405180610ea233958783909291602090604083019460070b835260070b910152565b0390a360405190815233917f67325b2f3de1d8273fc1aeeaf3b161488fc28427430d9f6b341831dedfc2d63360203093a4604080513481526020810192909252429082015233907f64b83944e79c3ce8d4c297411de637c3e102d064677aac0c163976ebdcd6f50e9080606081016107a2565b90600454167fcc975f63304dfdaa80a8ecbfbfc654fd86ea8a7cdb68086a0d883f26ad08e4c160405180610f633396309660030b9083909291602090604083019460070b835260030b910152565b0390a460405162461bcd60e51b815260206004820152601960248201527f48545320746f6b656e207472616e73666572206661696c6564000000000000006044820152606490fd5b60045460408051600786900b815260039390930b60208401523392918416917f03f5e21a75677e84382c9f010b9f5780b534bb2a966c378fa090d12ba52caa0891819081015b0390a360405162461bcd60e51b815260206004820152601860248201527f48545320746f6b656e206d696e74696e67206661696c656400000000000000006044820152606490fd5b60203660031901126102585761104d612136565b611055612118565b61106660ff600a5460a81c166120b8565b6110736006541515612159565b61107e34151561219c565b61108734612378565b610d746004358210156121db565b6040366003190112610258576004356001600160401b038111610258576110c0903690600401611e33565b6024356001600160401b038111610258576110df903690600401611e33565b6110e761201c565b60ff600a5460a81c1661192e578151156118f3578051156118b6576040519161012083018381106001600160401b038211176116895760405260608352606060208401526000604084015260608084015260006080840152600060a0840152600060c0840152606060e08401526040518060608101106001600160401b0360608301111761168957606081016040526000815260006020820152600060408201526101008401528083528160208401523060408401526040516111a981611d39565b6001815260005b6020811061189f575060e08401526111c6612074565b50600460005260036020527f83ec6a1f0257b830b5e016457c9cf1435391bf56cc98f369a58a54fe937724655461122e906111ff612048565b3060208201526040519161121283611d39565b8252602082015260e08501519061122882612095565b52612095565b50610100830151805160070b1580611890575b611881575b50604051630fb65bf360e01b6020820152606060248201526112bb61129261127c865161016060848601526101e4850190611e74565b60208701518482036083190160a4860152611e74565b60408601516001600160a01b031660c484015260608601518382036083190160e4850152611e74565b936080810151151561010483015260a081015160070b61012483015260c0810151151561014483015260e08101519060831983870301610164840152815180875260208701906020808260051b8a01019401916000905b8282106117f35788886000808a611370818c60406101008e0151805160070b61018485015260018060a01b036020820151166101a4850152015160070b6101c48301528460448301526006606483015203601f198101835282611dc0565b602081519101346101675af191611385612348565b92156117e8576040838051810103126102585760406113a6602085016130d1565b9301516001600160a01b03811693908490036102585760030b5b60030b601681036117865750600480546001600160a01b0319166001600160a01b0385161790556040516113f381611d54565b82815260208101829052600660408201526001600160a01b03841660608201526001608082015282516001600160401b03811161168957611435600854611e99565b601f811161171d575b50806020601f82116001146116aa5760009161169f575b508160011b916000199060031b1c1916176008555b60208101518051906001600160401b0382116116895761148b600954611e99565b601f8111611620575b50602090601f83116001146115805792826115579361154996937f8fb1ffd0ab3f6379154037519ff749b01e1fa060a331f5394175f393c3db596b9896600092611575575b50508160011b916000199060031b1c1916176009555b60ff60408201511690600a5491610100600160a81b03606083015160081b1691608060ff60a81b910151151560a81b169269ffffffffffffffffffff60b01b16171717600a55604051938493608085526080850190611e74565b908382036020850152611e74565b600660408301523060608301526001600160a01b03909416930390a2005b0151905089806114d9565b90600960005260008051602061333c8339815191529160005b601f198516811061160857508361154996937f8fb1ffd0ab3f6379154037519ff749b01e1fa060a331f5394175f393c3db596b98969360019361155797601f198116106115ef575b505050811b016009556114ef565b015160001960f88460031b161c191690558980806115e1565b91926020600181928685015181550194019201611599565b6009600052601f830160051c60008051602061333c8339815191520160208410611674575b601f820160051c60008051602061333c8339815191520181106116685750611494565b60008155600101611645565b5060008051602061333c833981519152611645565b634e487b7160e01b600052604160045260246000fd5b905084015186611455565b9150600860005260008051602061331c8339815191526000925b601f1983168410611705576001935082601f198116106116ec575b5050811b0160085561146a565b86015160001960f88460031b161c1916905586806116df565b868101518255602093840193600190920191016116c4565b6008600052601f820160051c60008051602061331c8339815191520160208310611771575b601f820160051c60008051602061331c833981519152018110611765575061143e565b60008155600101611742565b5060008051602061331c833981519152611742565b807f8e087745dd680d08f64711bfdd63e4496157eaa1c1774fddd382c76431dc10546117d06117b66024946124a3565b604051918291858352604060208401526040830190611e74565b0390a160405190631dd454b160e01b82526004820152fd5b6000925060156113c0565b90919294602080600192601f198d820301855281895180518352015190604083820152815115156040820152848060a01b038383015116606082015260c061186361184d604085015160a0608086015260e0850190611e74565b6060850151848203603f190160a0860152611e74565b926080878060a01b0391015116910152970192019201909291611312565b60406276a70091015283611246565b50604081015160070b15611241565b6020906118aa612074565b828285010152016111b0565b60405162461bcd60e51b8152602060048201526015602482015274151bdad95b881cde5b589bdb081c995c5d5a5c9959605a1b6044820152606490fd5b60405162461bcd60e51b8152602060048201526013602482015272151bdad95b881b985b59481c995c5d5a5c9959606a1b6044820152606490fd5b60405162461bcd60e51b8152602060048201526015602482015274151bdad95b88185b1c9958591e4818dc99585d1959605a1b6044820152606490fd5b3461025857602036600319011261025857602061046f600435612378565b34610258576000366003190112610258576119a261201c565b6119aa6130b2565b60ff19600254166002557f5db9ee0a495bf2e6ff9c91a7834c1ba4fdd244a5e8aa4e537bd38aeae4b073aa6020604051338152a1005b3461025857602036600319011261025857602061046f6004356123d1565b3461025857600036600319011261025857602061046f612448565b34610258576000366003190112610258576020600554604051908152f35b600036600319011261025857611a4b61201c565b611a53612136565b611a5b612118565b611a6c60ff600a5460a81c166120b8565b600654611c0257620186a03410611bbd573460055534600755606434046001600160401b03811660070b60018060a01b03611ae08160045416604051848152817fb7555d949a897acb395f95e3f2df8b700519404826bb13cd6526b756f6a1c90760203393a38360405191610dea83611d6f565b50919060168103611b735750600684905560045460408051600795860b81529390940b602084015233939116917fad91542866f4da9ebed5a2b1713258f4bf970f84e7b2a0b8aab2de28d11ffffd9190a3604080513481526020810192909252429082015233907f64b83944e79c3ce8d4c297411de637c3e102d064677aac0c163976ebdcd6f50e9080606081016107a2565b60045460408051600787900b815260039390930b60208401523392918416917f03f5e21a75677e84382c9f010b9f5780b534bb2a966c378fa090d12ba52caa089181908101610ff1565b60405162461bcd60e51b815260206004820152601e60248201527f496e73756666696369656e7420696e697469616c206c697175696469747900006044820152606490fd5b60405162461bcd60e51b815260206004820152601860248201527f506f6f6c20616c726561647920696e697469616c697a656400000000000000006044820152606490fd5b34610258576000366003190112610258576020604051620186a08152f35b3461025857600036600319011261025857602060ff600a5460a81c166040519015158152f35b346102585760006106b1826109c68394611ca436611cf8565b630aed65f560e11b602086019081526001600160a01b03948516602487015292841660448601529216606484015260848301919091529360a4820190565b600435906001600160a01b038216820361025857565b6080906003190112610258576001600160a01b0360043581811681036102585791602435828116810361025857916044359081168103610258579060643590565b604081019081106001600160401b0382111761168957604052565b60a081019081106001600160401b0382111761168957604052565b602081019081106001600160401b0382111761168957604052565b606081019081106001600160401b0382111761168957604052565b608081019081106001600160401b0382111761168957604052565b90601f801991011681019081106001600160401b0382111761168957604052565b6001600160401b03811161168957601f01601f191660200190565b929192611e0882611de1565b91611e166040519384611dc0565b829481845281830111610258578281602093846000960137010152565b9080601f8301121561025857816020611e4e93359101611dfc565b90565b60005b838110611e645750506000910152565b8181015183820152602001611e54565b90602091611e8d81518092818552858086019101611e51565b601f01601f1916010190565b90600182811c92168015611ec9575b6020831014611eb357565b634e487b7160e01b600052602260045260246000fd5b91607f1691611ea8565b6040519060008260085491611ee783611e99565b80835292600190818116908115611f5d5750600114611f10575b50611f0e92500383611dc0565b565b60086000908152915060008051602061331c8339815191525b848310611f425750611f0e935050810160200138611f01565b81935090816020925483858a01015201910190918592611f29565b905060209250611f0e94915060ff191682840152151560051b82010138611f01565b6040519060008260095491611f9383611e99565b80835292600190818116908115611f5d5750600114611fb95750611f0e92500383611dc0565b60096000908152915060008051602061333c8339815191525b848310611feb5750611f0e935050810160200138611f01565b81935090816020925483858a01015201910190918592611fd2565b6040906003190112610258576004359060243590565b6000546001600160a01b0316330361203057565b60405163118cdaa760e01b8152336004820152602490fd5b6040519061205582611d54565b6000608083828152826020820152606060408201526060808201520152565b6040519061208182611d39565b81600081526020612090612048565b910152565b8051156120a25760200190565b634e487b7160e01b600052603260045260246000fd5b156120bf57565b60405162461bcd60e51b8152602060048201526011602482015270151bdad95b881b9bdd0818dc99585d1959607a1b6044820152606490fd5b8115612102570490565b634e487b7160e01b600052601260045260246000fd5b60ff6002541661212457565b60405163d93c066560e01b8152600490fd5b600260015414612147576002600155565b604051633ee5aeb560e01b8152600490fd5b1561216057565b60405162461bcd60e51b8152602060048201526014602482015273141bdbdb081b9bdd081a5b9a5d1a585b1a5e995960621b6044820152606490fd5b156121a357565b60405162461bcd60e51b815260206004820152601060248201526f139bc812109054881c1c9bdd9a59195960821b6044820152606490fd5b156121e257565b60405162461bcd60e51b815260206004820152601160248201527014db1a5c1c1859d948195e18d959591959607a1b6044820152606490fd5b9190820180921161222857565b634e487b7160e01b600052601160045260246000fd5b1561224557565b60405162461bcd60e51b815260206004820152602160248201527f55534420616d6f756e74206d7573742062652067726561746572207468616e206044820152600360fc1b6064820152608490fd5b1561229b57565b60405162461bcd60e51b815260206004820152602860248201527f4d617475726174696f6e20616d6f756e74206d75737420626520677265617465604482015267072207468616e20360c41b6064820152608490fd5b8181029291811591840414171561222857565b9190820391821161222857565b90815180825260208080930193019160005b828110612331575050505090565b835160070b85529381019392810192600101612323565b3d15612373573d9061235982611de1565b916123676040519384611dc0565b82523d6000602084013e565b606090565b60065490811561239857611e4e9161238f916122f1565b600554906120f8565b5050600090565b9081156123ac811561223e565b6123b7821515612294565b620f424080840293840414171561222857611e4e916120f8565b6006548015612398576105ce611e4e92600554906122f1565b60ff600a5460a81c161561243d57600654600091811561243257612414826105ce600554866122f1565b916127109081850291858304148515171561222857611e4e916120f8565b600092508291508190565b600090600090600090565b600654801561246057611e4e906064600754046120f8565b50600090565b60ff600a5460a81c16158015612499575b612494576007541560011715612228576006541561210257600090565b600090565b5060065415612477565b8060030b9060168214612fab5760098214612f5657600a8214612ef55760078214612e9d57600f8214612e3c5760108214612ddb57601e8214612d8d5760228214612d2c57606f8214612cdd5760aa8214612c7c5760ab8214612c2a5760ae8214612bd65760af8214612b755760be8214612b255760bf8214612acc5760a88214612a6b5760a98214612a0a5760bd82146129bc57609b821461297057601a821461292657601b82146128dc57602682146128835760409182811461282c57604181146127c05761011781146127685761014581146127095761014681146126aa57610147811461264157610148146125ed5760336125aa63ffffffff611e4e9316612fd0565b9251809372554e4b4e4f574e5f4552524f525f434f44455f60681b60208301526125dd8151809260208686019101611e51565b8101036013810184520182611dc0565b5072206d616e79206368696c64207265636f72647360681b81519161261183611d8a565b603383527f4d41585f4348494c445f5245434f5244535f4558434545444544202d20546f6f602084015282015290565b50507f6666696369656e742062616c616e636520666f722073746f726167652072656e81519161267083611da5565b604183527f494e53554646494349454e545f53544f524147455f52454e54202d20496e73756020840152820152601d60fa1b606082015290565b50507f6e76616c6964207369676e617475726520666f7220707265636f6d70696c65008151916126d983611d8a565b603f83527f494e56414c49445f505245434f4d50494c455f5349474e4154555245202d2049602084015282015290565b50507f6e74697469657320696e20707269636520726567696d6520726561636865640081519161273883611d8a565b603f83527f4d41585f454e5449544945535f43524541544544202d204d6178696d756d2065602084015282015290565b5050751cdd5cc81b9bd9194819d85cc8195e1a185d5cdd195960521b81519161279083611d8a565b603683527f434f4e53454e5355535f4741535f455848415553544544202d20436f6e73656e602084015282015290565b50507f616e73616374696f6e2068617320746f6f206d616e79206e6573746564206c618151916127ef83611da5565b604483527f5452414e53414354494f4e5f544f4f5f4d414e595f4c4159455253202d2054726020840152820152637965727360e01b606082015290565b5050741bdb88195e18d959591cc81cda5e99481b1a5b5a5d605a1b81519161285383611d8a565b603583527f5452414e53414354494f4e5f4f56455253495a45202d205472616e7361637469602084015282015290565b505060405161289181611d8a565b603581527f494e56414c49445f4b45595f454e434f44494e47202d204b657920656e636f646020820152741a5b99c8199bdc9b585d081a5cc81a5b9d985b1a59605a1b604082015290565b50506040516128ea81611d8a565b602681527f4241445f454e434f44494e47202d204b657920656e636f64696e6720697320696020820152651b9d985b1a5960d21b604082015290565b505060405161293481611d8a565b602681527f4b45595f5245515549524544202d205265717569726564206b6579206973206d602082015265697373696e6760d01b604082015290565b505060405161297e81611d8a565b602881527f494e56414c49445f41444d494e5f4b4559202d2041646d696e206b6579206973602082015267081a5b9d985b1a5960c21b604082015290565b50506040516129ca81611d8a565b602a81527f494e56414c49445f535550504c595f4b4559202d20537570706c79206b6579206020820152691a5cc81a5b9d985b1a5960b21b604082015290565b5050604051612a1881611d8a565b603e81527f494e56414c49445f544f4b454e5f494e495449414c5f535550504c59202d204960208201527f6e697469616c20737570706c792076616c756520697320696e76616c69640000604082015290565b5050604051612a7981611d8a565b603881527f494e56414c49445f544f4b454e5f444543494d414c53202d20546f6b656e206460208201527f6563696d616c732076616c756520697320696e76616c69640000000000000000604082015290565b5050604051612ada81611d8a565b603581527f544f4b454e5f4e414d455f544f4f5f4c4f4e47202d20546f6b656e206e616d6560208201527408195e18d959591cc81b195b99dd1a081b1a5b5a5d605a1b604082015290565b5050604051612b3381611d8a565b602c81527f4d495353494e475f544f4b454e5f4e414d45202d20546f6b656e206e616d652060208201526b1b9bdd081c1c9bdd9a59195960a21b604082015290565b5050604051612b8381611d8a565b603981527f544f4b454e5f53594d424f4c5f544f4f5f4c4f4e47202d20546f6b656e20737960208201527f6d626f6c2065786365656473206c656e677468206c696d697400000000000000604082015290565b5050604051612be481611d8a565b603081527f4d495353494e475f544f4b454e5f53594d424f4c202d20546f6b656e2073796d60208201526f189bdb081b9bdd081c1c9bdd9a59195960821b604082015290565b5050604051612c3881611d8a565b602e81527f494e56414c49445f544f4b454e5f53594d424f4c202d20546f6b656e2073796d60208201526d189bdb081a5cc81a5b9d985b1a5960921b604082015290565b5050604051612c8a81611d8a565b603d81527f494e56414c49445f54524541535552595f4143434f554e545f464f525f544f4b60208201527f454e202d205472656173757279206163636f756e7420696e76616c6964000000604082015290565b5050604051612ceb81611d8a565b602b81527f4d41585f4741535f4c494d49545f4558434545444544202d20476173206c696d60208201526a1a5d08195e18d95959195960aa1b604082015290565b5050604051612d3a81611d8a565b603881527f434f4e54524143545f455845435554494f4e5f455843455054494f4e202d204360208201527f6f6e747261637420657865637574696f6e206661696c65640000000000000000604082015290565b5050604051612d9b81611d8a565b602a81527f494e53554646494349454e545f474153202d204e6f7420656e6f7567682067616020820152691cc81cdd5c1c1b1a595960b21b604082015290565b5050604051612de981611d8a565b603e81527f494e56414c49445f434f4e54524143545f4944202d20436f6e7472616374204960208201527f4420697320696e76616c6964206f7220646f6573206e6f742065786973740000604082015290565b5050604051612e4a81611d8a565b603c81527f494e56414c49445f4143434f554e545f4944202d204163636f756e742049442060208201527f697320696e76616c6964206f7220646f6573206e6f7420657869737400000000604082015290565b5050604051612eab81611d8a565b603481527f494e56414c49445f5349474e4154555245202d205472616e73616374696f6e206020820152731cda59db985d1d5c99481a5cc81a5b9d985b1a5960621b604082015290565b5050604051612f0381611d8a565b604081527f494e53554646494349454e545f50415945525f42414c414e4345202d2050617960208201527f6572206163636f756e742068617320696e73756666696369656e742048424152604082015290565b5050604051612f6481611d8a565b603181527f494e53554646494349454e545f54585f464545202d204e6f7420656e6f7567686020820152700819d85ccbd99959481c1c9bdd9a591959607a1b604082015290565b5050604051612fb981611d39565b60078152665355434345535360c81b602082015290565b80156130945780816000925b61307c575080612feb83611de1565b92612ff96040519485611dc0565b808452601f1961300882611de1565b01366020860137915b61301a57505090565b6000198201918083116122285782600a90818404938285029285840414851517156122285761304c60ff938492612304565b1660300191821161222857855111156120a25760f81b6001600160f81b03191660001a908401601f015380613011565b916000198114612228576001600a9101920480612fdc565b506040516130a181611d39565b60018152600360fc1b602082015290565b60ff60025416156130bf57565b604051638dfc202b60e01b8152600490fd5b51908160030b820361025857565b51908160070b820361025857565b906040928351906020938483019363707a02cd60e11b8552608484019160018060a01b0316602485015260070b604484015260606064840152815180915260a48301908560a48260051b8601019301916000905b8783831061324e575050505050918161316760009493859403601f198101835282611dc0565b5190826101675af190613178612348565b916000901561322e575081518201906060838284019303126102585761319f8184016130d1565b916131ab8585016130df565b9460608501516001600160401b039586821161025857019082603f830112156102585783820151958611611689578560051b918151966131ed86850189611dc0565b875281858801938201019384116102585701905b828210613217575050505091905b909160030b92565b838091613223846130df565b815201910190613201565b92915050519061323d82611d6f565b80825236813760159060009061320f565b806132696001939495969760a3198a82030186528851611e74565b960192019201909291613141565b60405163eca3691760e01b602082019081526001600160a01b03928316602483015292821660448201529216606483015260079290920b608480830191909152815260c081016001600160401b03811182821017611689576040526000809281925190826101675af1906132e9612348565b91156133125760208280518101031261330f5750602061330991016130d1565b60030b90565b80fd5b5050601561330956fef3f7a9fe364faab93b216da50a3214154f22a0a2b415b23a84c8169e8b636ee36e1540171b6c0c960b71a7020d9f60077f6af931a8bbf590da0223dacf75c7afa264697066735822122064820e260025386ced0a3c6ef3cf16db4b1a11b1466c1123c87862d87090b4e064736f6c63430008140033","opcodes":"PUSH1 0x80 CALLVALUE PUSH3 0x54D JUMPI PUSH1 0x1F PUSH3 0x3904 CODESIZE DUP2 SWAP1 SUB SWAP2 DUP3 ADD PUSH1 0x1F NOT AND DUP4 ADD SWAP2 PUSH1 0x1 PUSH1 0x1 PUSH1 0x40 SHL SUB DUP4 GT DUP5 DUP5 LT OR PUSH3 0x436 JUMPI DUP1 DUP5 SWAP3 PUSH1 0x20 SWAP5 PUSH1 0x40 MSTORE DUP4 CODECOPY DUP2 ADD SUB SLT PUSH3 0x54D JUMPI MLOAD PUSH1 0x1 PUSH1 0x1 PUSH1 0xA0 SHL SUB DUP1 DUP3 AND SWAP2 DUP3 SWAP1 SUB PUSH3 0x54D JUMPI DUP2 ISZERO PUSH3 0x534 JUMPI PUSH1 0x0 SLOAD DUP3 PUSH1 0x1 DUP1 PUSH1 0xA0 SHL SUB NOT DUP3 AND OR PUSH1 0x0 SSTORE AND PUSH32 0x8BE0079C531659141344CD1FD0A4F28419497F9722A3DAAFE3B4186F6B6457E0 PUSH1 0x0 DUP1 LOG3 PUSH1 0x1 DUP1 DUP1 SSTORE PUSH1 0x2 DUP1 SLOAD PUSH2 0x100 PUSH1 0x1 PUSH1 0xA8 SHL SUB NOT AND DUP2 SSTORE PUSH1 0x3 PUSH1 0x20 SWAP1 DUP2 MSTORE PUSH32 0x3617319A054D772F909F7C479A2CEBE5066E836A939412E32403C99029B92EFF SWAP3 SWAP1 SWAP3 SSTORE PUSH32 0xA15BC60C955C405D20D9149C709E2460F1C2D9A497496A7F46004D1772C3054C SSTORE PUSH1 0x4 PUSH32 0xC3A24B0501BD2C13A7E57F2DB4369EC4C223447539FC0724A9D55AC4A06EBD4D SSTORE PUSH1 0x8 PUSH32 0xCBC4E5FB02C3D1DE23A9F1E014B4D2EE5AEAEA9505DF5E855C9210BF472495AF SSTORE PUSH1 0x10 PUSH32 0x83EC6A1F0257B830B5E016457C9CF1435391BF56CC98F369A58A54FE93772465 SSTORE PUSH32 0x405AAD32E1ADBAC89BB7F176E338B8FC6E994CA210C9BB7BDCA249B465942250 SSTORE PUSH1 0x6 PUSH1 0x0 MSTORE PUSH1 0x40 PUSH32 0xC69056F16CBAA3C616B828E333AB7D3A32310765507F8F58359E99EBB7A885F3 DUP2 SWAP1 SSTORE MLOAD PUSH1 0xA0 DUP2 ADD PUSH1 0x1 PUSH1 0x1 PUSH1 0x40 SHL SUB DUP2 GT DUP3 DUP3 LT OR PUSH3 0x436 JUMPI PUSH1 0x40 MSTORE PUSH3 0x1D8 PUSH3 0x552 JUMP JUMPDEST PUSH1 0x0 DUP2 MSTORE DUP2 MSTORE PUSH3 0x1E8 PUSH3 0x552 JUMP JUMPDEST PUSH1 0x0 DUP2 MSTORE PUSH1 0x20 DUP3 ADD MSTORE PUSH1 0x0 PUSH1 0x40 DUP3 ADD MSTORE PUSH1 0x0 PUSH1 0x60 DUP3 ADD MSTORE PUSH1 0x0 PUSH1 0x80 DUP3 ADD MSTORE DUP1 MLOAD SWAP1 DUP2 MLOAD PUSH1 0x1 DUP1 PUSH1 0x40 SHL SUB DUP2 GT PUSH3 0x436 JUMPI PUSH1 0x8 SLOAD PUSH1 0x1 DUP2 DUP2 SHR SWAP2 AND DUP1 ISZERO PUSH3 0x529 JUMPI JUMPDEST PUSH1 0x20 DUP3 LT EQ PUSH3 0x415 JUMPI PUSH1 0x1F DUP2 GT PUSH3 0x4C3 JUMPI JUMPDEST POP PUSH1 0x20 SWAP3 PUSH1 0x1F DUP3 GT PUSH1 0x1 EQ PUSH3 0x458 JUMPI SWAP3 DUP2 SWAP3 SWAP4 PUSH1 0x0 SWAP3 PUSH3 0x44C JUMPI JUMPDEST POP POP DUP2 PUSH1 0x1 SHL SWAP2 PUSH1 0x0 NOT SWAP1 PUSH1 0x3 SHL SHR NOT AND OR PUSH1 0x8 SSTORE JUMPDEST PUSH1 0x20 DUP2 ADD MLOAD DUP1 MLOAD SWAP1 SWAP2 SWAP1 PUSH1 0x1 PUSH1 0x1 PUSH1 0x40 SHL SUB DUP2 GT PUSH3 0x436 JUMPI PUSH1 0x9 SLOAD PUSH1 0x1 DUP2 DUP2 SHR SWAP2 AND DUP1 ISZERO PUSH3 0x42B JUMPI JUMPDEST PUSH1 0x20 DUP3 LT EQ PUSH3 0x415 JUMPI PUSH1 0x1F DUP2 GT PUSH3 0x3AB JUMPI JUMPDEST POP PUSH1 0x20 SWAP3 PUSH1 0x1F DUP3 GT PUSH1 0x1 EQ PUSH3 0x340 JUMPI SWAP3 DUP2 SWAP3 SWAP4 PUSH1 0x0 SWAP3 PUSH3 0x334 JUMPI JUMPDEST POP POP DUP2 PUSH1 0x1 SHL SWAP2 PUSH1 0x0 NOT SWAP1 PUSH1 0x3 SHL SHR NOT AND OR PUSH1 0x9 SSTORE JUMPDEST PUSH1 0xFF PUSH1 0x40 DUP3 ADD MLOAD AND SWAP1 PUSH1 0xA SLOAD SWAP2 PUSH2 0x100 PUSH1 0x1 PUSH1 0xA8 SHL SUB PUSH1 0x60 DUP4 ADD MLOAD PUSH1 0x8 SHL AND SWAP2 PUSH1 0x80 PUSH1 0xFF PUSH1 0xA8 SHL SWAP2 ADD MLOAD ISZERO ISZERO PUSH1 0xA8 SHL AND SWAP3 PUSH1 0x1 DUP1 PUSH1 0xB0 SHL SUB NOT AND OR OR OR PUSH1 0xA SSTORE PUSH1 0x40 MLOAD PUSH2 0x3391 SWAP1 DUP2 PUSH3 0x573 DUP3 CODECOPY RETURN JUMPDEST ADD MLOAD SWAP1 POP CODESIZE DUP1 PUSH3 0x2CE JUMP JUMPDEST PUSH1 0x1F NOT DUP3 AND SWAP4 PUSH1 0x9 PUSH1 0x0 MSTORE PUSH1 0x20 PUSH1 0x0 KECCAK256 SWAP2 PUSH1 0x0 JUMPDEST DUP7 DUP2 LT PUSH3 0x392 JUMPI POP DUP4 PUSH1 0x1 SWAP6 SWAP7 LT PUSH3 0x378 JUMPI JUMPDEST POP POP POP DUP2 SHL ADD PUSH1 0x9 SSTORE PUSH3 0x2E4 JUMP JUMPDEST ADD MLOAD PUSH1 0x0 NOT PUSH1 0xF8 DUP5 PUSH1 0x3 SHL AND SHR NOT AND SWAP1 SSTORE CODESIZE DUP1 DUP1 PUSH3 0x369 JUMP JUMPDEST SWAP2 SWAP3 PUSH1 0x20 PUSH1 0x1 DUP2 SWAP3 DUP7 DUP6 ADD MLOAD DUP2 SSTORE ADD SWAP5 ADD SWAP3 ADD PUSH3 0x354 JUMP JUMPDEST PUSH1 0x9 PUSH1 0x0 MSTORE PUSH32 0x6E1540171B6C0C960B71A7020D9F60077F6AF931A8BBF590DA0223DACF75C7AF PUSH1 0x1F DUP4 ADD PUSH1 0x5 SHR DUP2 ADD SWAP2 PUSH1 0x20 DUP5 LT PUSH3 0x40A JUMPI JUMPDEST PUSH1 0x1F ADD PUSH1 0x5 SHR ADD SWAP1 JUMPDEST DUP2 DUP2 LT PUSH3 0x3FD JUMPI POP PUSH3 0x2B1 JUMP JUMPDEST PUSH1 0x0 DUP2 SSTORE PUSH1 0x1 ADD PUSH3 0x3EE JUMP JUMPDEST SWAP1 SWAP2 POP DUP2 SWAP1 PUSH3 0x3E5 JUMP JUMPDEST PUSH4 0x4E487B71 PUSH1 0xE0 SHL PUSH1 0x0 MSTORE PUSH1 0x22 PUSH1 0x4 MSTORE PUSH1 0x24 PUSH1 0x0 REVERT JUMPDEST SWAP1 PUSH1 0x7F AND SWAP1 PUSH3 0x29D JUMP JUMPDEST PUSH4 0x4E487B71 PUSH1 0xE0 SHL PUSH1 0x0 MSTORE PUSH1 0x41 PUSH1 0x4 MSTORE PUSH1 0x24 PUSH1 0x0 REVERT JUMPDEST ADD MLOAD SWAP1 POP CODESIZE DUP1 PUSH3 0x25C JUMP JUMPDEST PUSH1 0x1F NOT DUP3 AND SWAP4 PUSH1 0x8 PUSH1 0x0 MSTORE PUSH1 0x20 PUSH1 0x0 KECCAK256 SWAP2 PUSH1 0x0 JUMPDEST DUP7 DUP2 LT PUSH3 0x4AA JUMPI POP DUP4 PUSH1 0x1 SWAP6 SWAP7 LT PUSH3 0x490 JUMPI JUMPDEST POP POP POP DUP2 SHL ADD PUSH1 0x8 SSTORE PUSH3 0x272 JUMP JUMPDEST ADD MLOAD PUSH1 0x0 NOT PUSH1 0xF8 DUP5 PUSH1 0x3 SHL AND SHR NOT AND SWAP1 SSTORE CODESIZE DUP1 DUP1 PUSH3 0x481 JUMP JUMPDEST SWAP2 SWAP3 PUSH1 0x20 PUSH1 0x1 DUP2 SWAP3 DUP7 DUP6 ADD MLOAD DUP2 SSTORE ADD SWAP5 ADD SWAP3 ADD PUSH3 0x46C JUMP JUMPDEST PUSH1 0x8 PUSH1 0x0 MSTORE PUSH32 0xF3F7A9FE364FAAB93B216DA50A3214154F22A0A2B415B23A84C8169E8B636EE3 PUSH1 0x1F DUP4 ADD PUSH1 0x5 SHR DUP2 ADD PUSH1 0x20 DUP5 LT PUSH3 0x521 JUMPI JUMPDEST PUSH1 0x1F DUP4 ADD PUSH1 0x5 SHR DUP3 ADD DUP2 LT PUSH3 0x514 JUMPI POP POP PUSH3 0x23F JUMP JUMPDEST PUSH1 0x0 DUP2 SSTORE PUSH1 0x1 ADD PUSH3 0x4FC JUMP JUMPDEST POP DUP1 PUSH3 0x4FC JUMP JUMPDEST SWAP1 PUSH1 0x7F AND SWAP1 PUSH3 0x22B JUMP JUMPDEST PUSH1 0x40 MLOAD PUSH4 0x1E4FBDF7 PUSH1 0xE0 SHL DUP2 MSTORE PUSH1 0x0 PUSH1 0x4 DUP3 ADD MSTORE PUSH1 0x24 SWAP1 REVERT JUMPDEST PUSH1 0x0 DUP1 REVERT JUMPDEST PUSH1 0x40 MLOAD SWAP1 PUSH1 0x20 DUP3 ADD PUSH1 0x1 PUSH1 0x1 PUSH1 0x40 SHL SUB DUP2 GT DUP4 DUP3 LT OR PUSH3 0x436 JUMPI PUSH1 0x40 MSTORE JUMP INVALID PUSH1 0x80 DUP1 PUSH1 0x40 MSTORE PUSH1 0x4 CALLDATASIZE LT ISZERO PUSH2 0x52 JUMPI JUMPDEST POP CALLDATASIZE ISZERO PUSH2 0x50 JUMPI PUSH1 0x40 MLOAD PUSH3 0x461BCD PUSH1 0xE5 SHL DUP2 MSTORE PUSH1 0x20 PUSH1 0x4 DUP3 ADD MSTORE PUSH1 0x12 PUSH1 0x24 DUP3 ADD MSTORE PUSH18 0x119D5B98DD1A5BDB881B9BDD08199BDD5B99 PUSH1 0x72 SHL PUSH1 0x44 DUP3 ADD MSTORE PUSH1 0x64 SWAP1 REVERT JUMPDEST STOP JUMPDEST PUSH1 0x0 CALLDATALOAD PUSH1 0xE0 SHR SWAP1 DUP2 PUSH4 0x15DACBEA EQ PUSH2 0x1C8B JUMPI POP DUP1 PUSH4 0x185C112A EQ PUSH2 0x1C65 JUMPI DUP1 PUSH4 0x21B77D63 EQ PUSH2 0x1C47 JUMPI DUP1 PUSH4 0x250E6DE0 EQ PUSH2 0x1A37 JUMPI DUP1 PUSH4 0x28999437 EQ PUSH2 0x1A19 JUMPI DUP1 PUSH4 0x2FB9125D EQ PUSH2 0x19FE JUMPI DUP1 PUSH4 0x34111BBF EQ PUSH2 0x19E0 JUMPI DUP1 PUSH4 0x3F4BA83A EQ PUSH2 0x1989 JUMPI DUP1 PUSH4 0x42C649DE EQ PUSH2 0x196B JUMPI DUP1 PUSH4 0x4EDEC1FF EQ PUSH2 0x1095 JUMPI DUP1 PUSH4 0x51C6590A EQ PUSH2 0x1039 JUMPI DUP1 PUSH4 0x545466A5 EQ PUSH2 0xCFD JUMPI DUP1 PUSH4 0x5C975ABB EQ PUSH2 0xCDA JUMPI DUP1 PUSH4 0x5FCBD285 EQ PUSH2 0xCB1 JUMPI DUP1 PUSH4 0x60246C88 EQ PUSH2 0xC7F JUMPI DUP1 PUSH4 0x618DC65E EQ PUSH2 0xB63 JUMPI DUP1 PUSH4 0x6ADDB663 EQ PUSH2 0xAE7 JUMPI DUP1 PUSH4 0x715018A6 EQ PUSH2 0xA8E JUMPI DUP1 PUSH4 0x8456CB59 EQ PUSH2 0xA34 JUMPI DUP1 PUSH4 0x8DA5CB5B EQ PUSH2 0xA0B JUMPI DUP1 PUSH4 0x9B23D3D9 EQ PUSH2 0x96B JUMPI DUP1 PUSH4 0x9D7DE6B3 EQ PUSH2 0x57C JUMPI DUP1 PUSH4 0xA78C849B EQ PUSH2 0x558 JUMPI DUP1 PUSH4 0xABB1DC44 EQ PUSH2 0x477 JUMPI DUP1 PUSH4 0xB79C41A2 EQ PUSH2 0x456 JUMPI DUP1 PUSH4 0xBBBAEE4C EQ PUSH2 0x414 JUMPI DUP1 PUSH4 0xBE591129 EQ PUSH2 0x3D2 JUMPI DUP1 PUSH4 0xBF333F2C EQ PUSH2 0x3B6 JUMPI DUP1 PUSH4 0xD4C3EEA0 EQ PUSH2 0x398 JUMPI DUP1 PUSH4 0xD73792A9 EQ PUSH2 0x37B JUMPI DUP1 PUSH4 0xDB2E21BC EQ PUSH2 0x27B JUMPI DUP1 PUSH4 0xEF6283D9 EQ PUSH2 0x25D JUMPI PUSH4 0xF2FDE38B EQ PUSH2 0x1CA JUMPI CODESIZE PUSH2 0xF JUMP JUMPDEST CALLVALUE PUSH2 0x258 JUMPI PUSH1 0x20 CALLDATASIZE PUSH1 0x3 NOT ADD SLT PUSH2 0x258 JUMPI PUSH2 0x1E3 PUSH2 0x1CE2 JUMP JUMPDEST PUSH2 0x1EB PUSH2 0x201C JUMP JUMPDEST PUSH1 0x1 PUSH1 0x1 PUSH1 0xA0 SHL SUB SWAP1 DUP2 AND SWAP1 DUP2 ISZERO PUSH2 0x23F JUMPI PUSH1 0x0 SLOAD DUP3 PUSH12 0xFFFFFFFFFFFFFFFFFFFFFFFF PUSH1 0xA0 SHL DUP3 AND OR PUSH1 0x0 SSTORE AND PUSH32 0x8BE0079C531659141344CD1FD0A4F28419497F9722A3DAAFE3B4186F6B6457E0 PUSH1 0x0 DUP1 LOG3 STOP JUMPDEST PUSH1 0x40 MLOAD PUSH4 0x1E4FBDF7 PUSH1 0xE0 SHL DUP2 MSTORE PUSH1 0x0 PUSH1 0x4 DUP3 ADD MSTORE PUSH1 0x24 SWAP1 REVERT JUMPDEST PUSH1 0x0 DUP1 REVERT JUMPDEST CALLVALUE PUSH2 0x258 JUMPI PUSH1 0x0 CALLDATASIZE PUSH1 0x3 NOT ADD SLT PUSH2 0x258 JUMPI PUSH1 0x20 PUSH1 0x6 SLOAD PUSH1 0x40 MLOAD SWAP1 DUP2 MSTORE RETURN JUMPDEST CALLVALUE PUSH2 0x258 JUMPI PUSH1 0x0 CALLDATASIZE PUSH1 0x3 NOT ADD SLT PUSH2 0x258 JUMPI PUSH2 0x294 PUSH2 0x201C JUMP JUMPDEST PUSH2 0x29C PUSH2 0x30B2 JUMP JUMPDEST SELFBALANCE DUP1 ISZERO PUSH2 0x340 JUMPI PUSH1 0x1 DUP1 PUSH1 0xA0 SHL SUB PUSH1 0x0 DUP1 DUP1 DUP1 DUP6 DUP6 DUP3 SLOAD AND GAS CALL PUSH2 0x2BE PUSH2 0x2348 JUMP JUMPDEST POP ISZERO PUSH2 0x2FB JUMPI PUSH1 0x40 PUSH32 0x2E4FB6077D4ACF86E12BB7411FB82B2B3EAA6A49787F4B1E17B423E7EA841169 SWAP2 PUSH1 0x0 SLOAD AND SWAP3 DUP2 MLOAD SWAP1 DUP2 MSTORE TIMESTAMP PUSH1 0x20 DUP3 ADD MSTORE LOG2 STOP JUMPDEST PUSH1 0x40 MLOAD PUSH3 0x461BCD PUSH1 0xE5 SHL DUP2 MSTORE PUSH1 0x20 PUSH1 0x4 DUP3 ADD MSTORE PUSH1 0x1B PUSH1 0x24 DUP3 ADD MSTORE PUSH32 0x456D657267656E6379207769746864726177616C206661696C65640000000000 PUSH1 0x44 DUP3 ADD MSTORE PUSH1 0x64 SWAP1 REVERT JUMPDEST PUSH1 0x40 MLOAD PUSH3 0x461BCD PUSH1 0xE5 SHL DUP2 MSTORE PUSH1 0x20 PUSH1 0x4 DUP3 ADD MSTORE PUSH1 0x13 PUSH1 0x24 DUP3 ADD MSTORE PUSH19 0x4E6F204842415220746F207769746864726177 PUSH1 0x68 SHL PUSH1 0x44 DUP3 ADD MSTORE PUSH1 0x64 SWAP1 REVERT JUMPDEST CALLVALUE PUSH2 0x258 JUMPI PUSH1 0x0 CALLDATASIZE PUSH1 0x3 NOT ADD SLT PUSH2 0x258 JUMPI PUSH1 0x20 PUSH1 0x40 MLOAD PUSH2 0x2710 DUP2 MSTORE RETURN JUMPDEST CALLVALUE PUSH2 0x258 JUMPI PUSH1 0x0 CALLDATASIZE PUSH1 0x3 NOT ADD SLT PUSH2 0x258 JUMPI PUSH1 0x20 PUSH1 0x7 SLOAD PUSH1 0x40 MLOAD SWAP1 DUP2 MSTORE RETURN JUMPDEST CALLVALUE PUSH2 0x258 JUMPI PUSH1 0x0 CALLDATASIZE PUSH1 0x3 NOT ADD SLT PUSH2 0x258 JUMPI PUSH1 0x20 PUSH1 0x40 MLOAD PUSH1 0x1E DUP2 MSTORE RETURN JUMPDEST CALLVALUE PUSH2 0x258 JUMPI PUSH1 0x20 CALLDATASIZE PUSH1 0x3 NOT ADD SLT PUSH2 0x258 JUMPI PUSH1 0x4 CALLDATALOAD DUP1 PUSH1 0x3 SIGNEXTEND DUP2 SUB PUSH2 0x258 JUMPI PUSH2 0x3FC PUSH2 0x410 SWAP2 PUSH2 0x24A3 JUMP JUMPDEST PUSH1 0x40 MLOAD SWAP2 DUP3 SWAP2 PUSH1 0x20 DUP4 MSTORE PUSH1 0x20 DUP4 ADD SWAP1 PUSH2 0x1E74 JUMP JUMPDEST SUB SWAP1 RETURN JUMPDEST CALLVALUE PUSH2 0x258 JUMPI PUSH1 0x20 CALLDATASIZE PUSH1 0x3 NOT ADD SLT PUSH2 0x258 JUMPI PUSH2 0x42D PUSH2 0x1CE2 JUMP JUMPDEST POP PUSH2 0x410 PUSH2 0x439 PUSH2 0x23EA JUMP JUMPDEST PUSH1 0x40 DUP1 MLOAD SWAP4 DUP5 MSTORE PUSH1 0x20 DUP5 ADD SWAP3 SWAP1 SWAP3 MSTORE SWAP1 DUP3 ADD MSTORE SWAP1 DUP2 SWAP1 PUSH1 0x60 DUP3 ADD SWAP1 JUMP JUMPDEST CALLVALUE PUSH2 0x258 JUMPI PUSH1 0x20 PUSH2 0x46F PUSH2 0x469 CALLDATASIZE PUSH2 0x2006 JUMP JUMPDEST SWAP1 PUSH2 0x239F JUMP JUMPDEST PUSH1 0x40 MLOAD SWAP1 DUP2 MSTORE RETURN JUMPDEST CALLVALUE PUSH2 0x258 JUMPI PUSH1 0x0 CALLDATASIZE PUSH1 0x3 NOT ADD SLT PUSH2 0x258 JUMPI PUSH1 0x0 PUSH1 0x80 PUSH1 0x40 MLOAD PUSH2 0x498 DUP2 PUSH2 0x1D54 JUMP JUMPDEST PUSH1 0x60 DUP2 MSTORE PUSH1 0x60 PUSH1 0x20 DUP3 ADD MSTORE DUP3 PUSH1 0x40 DUP3 ADD MSTORE DUP3 PUSH1 0x60 DUP3 ADD MSTORE ADD MSTORE PUSH2 0x52A PUSH1 0x40 MLOAD PUSH2 0x4C0 DUP2 PUSH2 0x1D54 JUMP JUMPDEST PUSH2 0x4C8 PUSH2 0x1ED3 JUMP JUMPDEST DUP2 MSTORE PUSH2 0x4D2 PUSH2 0x1F7F JUMP JUMPDEST PUSH1 0x20 DUP3 ADD SWAP1 DUP2 MSTORE PUSH1 0xA SLOAD PUSH1 0x40 DUP4 ADD SWAP2 PUSH1 0xFF DUP3 AND DUP4 MSTORE PUSH1 0x60 DUP5 ADD PUSH1 0xFF PUSH2 0x53D PUSH1 0x1 DUP1 PUSH1 0xA0 SHL SUB SWAP4 DUP5 DUP7 PUSH1 0x8 SHR AND DUP5 MSTORE DUP3 PUSH1 0x80 DUP10 ADD SWAP7 PUSH1 0xA8 SHR AND ISZERO ISZERO DUP7 MSTORE PUSH1 0x40 MLOAD SWAP9 DUP10 SWAP9 PUSH1 0x20 DUP11 MSTORE MLOAD PUSH1 0xA0 PUSH1 0x20 DUP12 ADD MSTORE PUSH1 0xC0 DUP11 ADD SWAP1 PUSH2 0x1E74 JUMP JUMPDEST SWAP1 MLOAD DUP9 DUP3 SUB PUSH1 0x1F NOT ADD PUSH1 0x40 DUP11 ADD MSTORE PUSH2 0x1E74 JUMP JUMPDEST SWAP5 MLOAD AND PUSH1 0x60 DUP7 ADD MSTORE MLOAD AND PUSH1 0x80 DUP5 ADD MSTORE MLOAD ISZERO ISZERO PUSH1 0xA0 DUP4 ADD MSTORE SUB SWAP1 RETURN JUMPDEST CALLVALUE PUSH2 0x258 JUMPI PUSH1 0x20 CALLDATASIZE PUSH1 0x3 NOT ADD SLT PUSH2 0x258 JUMPI PUSH2 0x571 PUSH2 0x1CE2 JUMP JUMPDEST POP PUSH1 0x20 PUSH2 0x46F PUSH2 0x2466 JUMP JUMPDEST CALLVALUE PUSH2 0x258 JUMPI PUSH2 0x58A CALLDATASIZE PUSH2 0x2006 JUMP JUMPDEST PUSH2 0x592 PUSH2 0x2136 JUMP JUMPDEST PUSH2 0x59A PUSH2 0x2118 JUMP JUMPDEST PUSH2 0x5AB PUSH1 0xFF PUSH1 0xA SLOAD PUSH1 0xA8 SHR AND PUSH2 0x20B8 JUMP JUMPDEST DUP2 ISZERO PUSH2 0x92D JUMPI PUSH1 0x6 SLOAD DUP1 ISZERO PUSH2 0x8F1 JUMPI PUSH1 0x5 SLOAD PUSH2 0x5DC PUSH2 0x5D3 DUP4 PUSH2 0x5CE DUP5 DUP9 PUSH2 0x22F1 JUMP JUMPDEST PUSH2 0x20F8 JUMP JUMPDEST SWAP4 DUP5 LT ISZERO PUSH2 0x21DB JUMP JUMPDEST SELFBALANCE DUP4 GT PUSH2 0x8AC JUMPI PUSH2 0x5FA SWAP2 PUSH2 0x5F2 DUP5 DUP7 SWAP4 PUSH2 0x2304 JUMP JUMPDEST PUSH1 0x5 SSTORE PUSH2 0x2304 JUMP JUMPDEST PUSH1 0x6 SSTORE PUSH2 0x609 DUP2 PUSH1 0x7 SLOAD PUSH2 0x2304 JUMP JUMPDEST PUSH1 0x7 SSTORE PUSH1 0x1 PUSH1 0x1 PUSH1 0x40 SHL SUB DUP3 AND PUSH1 0x7 SIGNEXTEND PUSH1 0x40 MLOAD PUSH2 0x625 DUP2 PUSH2 0x1D6F JUMP JUMPDEST PUSH1 0x0 DUP2 MSTORE PUSH1 0x0 DUP1 PUSH1 0x1 DUP1 PUSH1 0xA0 SHL SUB SWAP3 PUSH2 0x6B1 PUSH2 0x6BF DUP6 PUSH1 0x4 SLOAD AND SWAP3 DUP4 PUSH32 0xB310AAAC57F9A89F4E3661E38CB8DF5EA9428B82D1BB2B8AB6A77C3F52818F02 PUSH1 0x40 MLOAD DUP11 DUP2 MSTORE PUSH1 0x40 PUSH1 0x20 DUP3 ADD MSTORE DUP1 PUSH2 0x67D PUSH1 0x40 DUP3 ADD DUP7 PUSH2 0x2311 JUMP JUMPDEST SUB SWAP1 LOG2 PUSH1 0x40 MLOAD SWAP3 DUP4 SWAP2 PUSH1 0x20 DUP4 ADD SWAP6 PUSH4 0x6B488683 PUSH1 0xE1 SHL DUP8 MSTORE PUSH1 0x24 DUP5 ADD MSTORE DUP10 PUSH1 0x44 DUP5 ADD MSTORE PUSH1 0x60 PUSH1 0x64 DUP5 ADD MSTORE PUSH1 0x84 DUP4 ADD SWAP1 PUSH2 0x2311 JUMP JUMPDEST SUB PUSH1 0x1F NOT DUP2 ADD DUP4 MSTORE DUP3 PUSH2 0x1DC0 JUMP JUMPDEST MLOAD SWAP1 DUP3 PUSH2 0x167 GAS CALL SWAP1 PUSH2 0x6D0 PUSH2 0x2348 JUMP JUMPDEST SWAP2 ISZERO PUSH2 0x8A1 JUMPI PUSH1 0x40 DUP3 DUP1 MLOAD DUP2 ADD SUB SLT PUSH2 0x258 JUMPI PUSH2 0x6FB PUSH1 0x40 PUSH2 0x6F4 PUSH1 0x20 DUP6 ADD PUSH2 0x30D1 JUMP JUMPDEST SWAP4 ADD PUSH2 0x30DF JUMP JUMPDEST SWAP2 JUMPDEST PUSH1 0x3 SIGNEXTEND PUSH1 0x16 DUP2 SUB PUSH2 0x7E7 JUMPI POP PUSH1 0x4 SLOAD PUSH1 0x40 DUP1 MLOAD PUSH1 0x7 SWAP6 DUP7 SIGNEXTEND DUP2 MSTORE SWAP4 SWAP1 SWAP5 SIGNEXTEND PUSH1 0x20 DUP5 ADD MSTORE AND SWAP2 PUSH32 0x7B2F31B2FFDA9D7A1AC640400C8F7EB1C8D0071689111F45797448A14697587C SWAP2 LOG2 PUSH1 0x0 DUP1 DUP1 DUP1 DUP5 CALLER GAS CALL PUSH2 0x756 PUSH2 0x2348 JUMP JUMPDEST POP ISZERO PUSH2 0x7AB JUMPI PUSH2 0x7A2 PUSH32 0x1DC8BB69DF2B8E91FBDCBFCF93D951B3F0000F085A95FE3F7946D6161439245D SWAP2 PUSH1 0x40 MLOAD SWAP2 DUP3 SWAP2 CALLER SWAP6 TIMESTAMP SWAP2 DUP5 PUSH1 0x40 SWAP2 SWAP5 SWAP4 SWAP3 PUSH1 0x60 DUP3 ADD SWAP6 DUP3 MSTORE PUSH1 0x20 DUP3 ADD MSTORE ADD MSTORE JUMP JUMPDEST SUB SWAP1 LOG2 PUSH1 0x1 DUP1 SSTORE STOP JUMPDEST PUSH1 0x40 MLOAD PUSH3 0x461BCD PUSH1 0xE5 SHL DUP2 MSTORE PUSH1 0x20 PUSH1 0x4 DUP3 ADD MSTORE PUSH1 0x14 PUSH1 0x24 DUP3 ADD MSTORE PUSH20 0x12109054881D1C985B9CD9995C8819985A5B1959 PUSH1 0x62 SHL PUSH1 0x44 DUP3 ADD MSTORE PUSH1 0x64 SWAP1 REVERT JUMPDEST SWAP2 POP PUSH2 0x831 DUP5 PUSH2 0x828 DUP8 PUSH2 0x81F PUSH32 0xCCCB9CA916A4B1199913D752D315547B23A41451AB4C699F6BAE82CECF211B1E SWAP8 SWAP9 PUSH1 0x5 SLOAD PUSH2 0x221B JUMP JUMPDEST POP PUSH1 0x6 SLOAD PUSH2 0x221B JUMP JUMPDEST POP PUSH1 0x7 SLOAD PUSH2 0x221B JUMP JUMPDEST POP PUSH1 0x4 SLOAD AND SWAP3 PUSH2 0x859 PUSH1 0x40 MLOAD SWAP3 DUP4 SWAP3 DUP4 SWAP1 SWAP3 SWAP2 PUSH1 0x20 SWAP1 PUSH1 0x40 DUP4 ADD SWAP5 PUSH1 0x7 SIGNEXTEND DUP4 MSTORE PUSH1 0x3 SIGNEXTEND SWAP2 ADD MSTORE JUMP JUMPDEST SUB SWAP1 LOG2 PUSH1 0x40 MLOAD PUSH3 0x461BCD PUSH1 0xE5 SHL DUP2 MSTORE PUSH1 0x20 PUSH1 0x4 DUP3 ADD MSTORE PUSH1 0x18 PUSH1 0x24 DUP3 ADD MSTORE PUSH32 0x48545320746F6B656E206275726E696E67206661696C65640000000000000000 PUSH1 0x44 DUP3 ADD MSTORE PUSH1 0x64 SWAP1 REVERT JUMPDEST PUSH1 0x0 SWAP2 POP PUSH1 0x15 PUSH2 0x6FD JUMP JUMPDEST PUSH1 0x40 MLOAD PUSH3 0x461BCD PUSH1 0xE5 SHL DUP2 MSTORE PUSH1 0x20 PUSH1 0x4 DUP3 ADD MSTORE PUSH1 0x19 PUSH1 0x24 DUP3 ADD MSTORE PUSH32 0x496E73756666696369656E74204842415220696E20706F6F6C00000000000000 PUSH1 0x44 DUP3 ADD MSTORE PUSH1 0x64 SWAP1 REVERT JUMPDEST PUSH1 0x40 MLOAD PUSH3 0x461BCD PUSH1 0xE5 SHL DUP2 MSTORE PUSH1 0x20 PUSH1 0x4 DUP3 ADD MSTORE PUSH1 0x14 PUSH1 0x24 DUP3 ADD MSTORE PUSH20 0x139BC81B1A5C5D5A591A5D1E481A5B881C1BDBDB PUSH1 0x62 SHL PUSH1 0x44 DUP3 ADD MSTORE PUSH1 0x64 SWAP1 REVERT JUMPDEST PUSH1 0x40 MLOAD PUSH3 0x461BCD PUSH1 0xE5 SHL DUP2 MSTORE PUSH1 0x20 PUSH1 0x4 DUP3 ADD MSTORE PUSH1 0x16 PUSH1 0x24 DUP3 ADD MSTORE PUSH22 0x139BC81314081D1BDAD95B9CC81CDC1958DA599A5959 PUSH1 0x52 SHL PUSH1 0x44 DUP3 ADD MSTORE PUSH1 0x64 SWAP1 REVERT JUMPDEST CALLVALUE PUSH2 0x258 JUMPI PUSH1 0x0 DUP1 PUSH2 0x9C6 PUSH2 0x6B1 PUSH2 0x982 CALLDATASIZE PUSH2 0x1CF8 JUMP JUMPDEST PUSH1 0x40 MLOAD PUSH4 0x9B23D3D9 PUSH1 0xE0 SHL PUSH1 0x20 DUP3 ADD SWAP1 DUP2 MSTORE PUSH1 0x1 PUSH1 0x1 PUSH1 0xA0 SHL SUB SWAP6 DUP7 AND PUSH1 0x24 DUP4 ADD MSTORE SWAP4 DUP6 AND PUSH1 0x44 DUP3 ADD MSTORE SWAP4 SWAP1 SWAP2 AND PUSH1 0x64 DUP5 ADD MSTORE PUSH1 0x84 DUP4 ADD MSTORE SWAP3 SWAP1 SWAP2 DUP3 SWAP1 PUSH1 0xA4 DUP3 ADD SWAP1 JUMP JUMPDEST MLOAD SWAP1 DUP3 PUSH2 0x167 GAS CALL PUSH2 0x9D6 PUSH2 0x2348 JUMP JUMPDEST SWAP1 ISZERO PUSH2 0xA01 JUMPI PUSH1 0x20 DUP2 DUP1 MLOAD DUP2 ADD SUB SLT PUSH2 0x258 JUMPI PUSH2 0x9F6 PUSH1 0x20 DUP1 SWAP3 ADD PUSH2 0x30D1 JUMP JUMPDEST PUSH1 0x40 MLOAD SWAP1 PUSH1 0x3 SIGNEXTEND DUP2 MSTORE RETURN JUMPDEST POP PUSH1 0x20 PUSH1 0x15 PUSH2 0x9F6 JUMP JUMPDEST CALLVALUE PUSH2 0x258 JUMPI PUSH1 0x0 CALLDATASIZE PUSH1 0x3 NOT ADD SLT PUSH2 0x258 JUMPI PUSH1 0x0 SLOAD PUSH1 0x40 MLOAD PUSH1 0x1 PUSH1 0x1 PUSH1 0xA0 SHL SUB SWAP1 SWAP2 AND DUP2 MSTORE PUSH1 0x20 SWAP1 RETURN JUMPDEST CALLVALUE PUSH2 0x258 JUMPI PUSH1 0x0 CALLDATASIZE PUSH1 0x3 NOT ADD SLT PUSH2 0x258 JUMPI PUSH2 0xA4D PUSH2 0x201C JUMP JUMPDEST PUSH2 0xA55 PUSH2 0x2118 JUMP JUMPDEST PUSH1 0x1 PUSH1 0xFF NOT PUSH1 0x2 SLOAD AND OR PUSH1 0x2 SSTORE PUSH32 0x62E78CEA01BEE320CD4E420270B5EA74000D11B0C9F74754EBDBFC544B05A258 PUSH1 0x20 PUSH1 0x40 MLOAD CALLER DUP2 MSTORE LOG1 STOP JUMPDEST CALLVALUE PUSH2 0x258 JUMPI PUSH1 0x0 CALLDATASIZE PUSH1 0x3 NOT ADD SLT PUSH2 0x258 JUMPI PUSH2 0xAA7 PUSH2 0x201C JUMP JUMPDEST PUSH1 0x0 DUP1 SLOAD PUSH1 0x1 PUSH1 0x1 PUSH1 0xA0 SHL SUB NOT DUP2 AND DUP3 SSTORE PUSH1 0x1 PUSH1 0x1 PUSH1 0xA0 SHL SUB AND PUSH32 0x8BE0079C531659141344CD1FD0A4F28419497F9722A3DAAFE3B4186F6B6457E0 DUP3 DUP1 LOG3 STOP JUMPDEST CALLVALUE PUSH2 0x258 JUMPI PUSH1 0x0 CALLDATASIZE PUSH1 0x3 NOT ADD SLT PUSH2 0x258 JUMPI PUSH2 0xB28 PUSH2 0xB03 PUSH2 0x1ED3 JUMP JUMPDEST PUSH2 0xB0B PUSH2 0x1F7F JUMP JUMPDEST PUSH1 0xFF PUSH2 0xB36 PUSH1 0xA SLOAD SWAP3 PUSH1 0x40 MLOAD SWAP6 DUP7 SWAP6 PUSH1 0xA0 DUP8 MSTORE PUSH1 0xA0 DUP8 ADD SWAP1 PUSH2 0x1E74 JUMP JUMPDEST SWAP1 DUP6 DUP3 SUB PUSH1 0x20 DUP8 ADD MSTORE PUSH2 0x1E74 JUMP JUMPDEST DUP2 DUP4 AND PUSH1 0x40 DUP6 ADD MSTORE PUSH1 0x8 DUP4 SWAP1 SHR PUSH1 0x1 PUSH1 0x1 PUSH1 0xA0 SHL SUB AND PUSH1 0x60 DUP6 ADD MSTORE PUSH1 0xA8 SWAP3 SWAP1 SWAP3 SHR AND ISZERO ISZERO PUSH1 0x80 DUP4 ADD MSTORE SUB SWAP1 RETURN JUMPDEST CALLVALUE PUSH2 0x258 JUMPI PUSH1 0x40 CALLDATASIZE PUSH1 0x3 NOT ADD SLT PUSH2 0x258 JUMPI PUSH2 0xB7C PUSH2 0x1CE2 JUMP JUMPDEST PUSH1 0x24 CALLDATALOAD PUSH1 0x1 PUSH1 0x1 PUSH1 0x40 SHL SUB DUP2 GT PUSH2 0x258 JUMPI CALLDATASIZE PUSH1 0x23 DUP3 ADD SLT ISZERO PUSH2 0x258 JUMPI PUSH1 0x0 SWAP2 PUSH2 0x6B1 PUSH2 0xBEE PUSH2 0xBB6 DUP6 SWAP5 CALLDATASIZE SWAP1 PUSH1 0x24 DUP2 PUSH1 0x4 ADD CALLDATALOAD SWAP2 ADD PUSH2 0x1DFC JUMP JUMPDEST PUSH1 0x40 DUP1 MLOAD PUSH4 0x30C6E32F PUSH1 0xE1 SHL PUSH1 0x20 DUP3 ADD SWAP1 DUP2 MSTORE PUSH1 0x1 PUSH1 0x1 PUSH1 0xA0 SHL SUB SWAP1 SWAP7 AND PUSH1 0x24 DUP3 ADD MSTORE PUSH1 0x44 DUP2 ADD SWAP2 SWAP1 SWAP2 MSTORE SWAP3 DUP4 SWAP2 PUSH1 0x64 DUP4 ADD SWAP1 PUSH2 0x1E74 JUMP JUMPDEST MLOAD SWAP1 DUP3 PUSH2 0x167 GAS CALL PUSH2 0xBFE PUSH2 0x2348 JUMP JUMPDEST SWAP1 PUSH32 0x4AF4780E06FE8CB9DF64B0794FA6F01399AF979175BB988E35E0E57E594567BC PUSH1 0x40 MLOAD DUP3 ISZERO ISZERO DUP2 MSTORE PUSH1 0x40 PUSH1 0x20 DUP3 ADD MSTORE DUP1 PUSH2 0xC3D PUSH1 0x40 DUP3 ADD DUP7 PUSH2 0x1E74 JUMP JUMPDEST SUB SWAP1 LOG1 ISZERO PUSH2 0xC67 JUMPI PUSH1 0x16 JUMPDEST PUSH2 0x410 PUSH1 0x40 MLOAD SWAP3 DUP4 SWAP3 PUSH1 0x3 SIGNEXTEND DUP4 MSTORE PUSH1 0x40 PUSH1 0x20 DUP5 ADD MSTORE PUSH1 0x40 DUP4 ADD SWAP1 PUSH2 0x1E74 JUMP JUMPDEST POP PUSH1 0x40 MLOAD PUSH2 0xC74 DUP2 PUSH2 0x1D6F JUMP JUMPDEST PUSH1 0x0 DUP2 MSTORE PUSH1 0x15 PUSH2 0xC48 JUMP JUMPDEST CALLVALUE PUSH2 0x258 JUMPI PUSH1 0x0 CALLDATASIZE PUSH1 0x3 NOT ADD SLT PUSH2 0x258 JUMPI PUSH1 0x5 SLOAD PUSH1 0x6 SLOAD PUSH1 0x7 SLOAD PUSH1 0x40 DUP1 MLOAD SWAP4 DUP5 MSTORE PUSH1 0x20 DUP5 ADD SWAP3 SWAP1 SWAP3 MSTORE SWAP1 DUP3 ADD MSTORE PUSH1 0x60 SWAP1 RETURN JUMPDEST CALLVALUE PUSH2 0x258 JUMPI PUSH1 0x0 CALLDATASIZE PUSH1 0x3 NOT ADD SLT PUSH2 0x258 JUMPI PUSH1 0x4 SLOAD PUSH1 0x40 MLOAD PUSH1 0x1 PUSH1 0x1 PUSH1 0xA0 SHL SUB SWAP1 SWAP2 AND DUP2 MSTORE PUSH1 0x20 SWAP1 RETURN JUMPDEST CALLVALUE PUSH2 0x258 JUMPI PUSH1 0x0 CALLDATASIZE PUSH1 0x3 NOT ADD SLT PUSH2 0x258 JUMPI PUSH1 0x20 PUSH1 0xFF PUSH1 0x2 SLOAD AND PUSH1 0x40 MLOAD SWAP1 ISZERO ISZERO DUP2 MSTORE RETURN JUMPDEST PUSH1 0x60 CALLDATASIZE PUSH1 0x3 NOT ADD SLT PUSH2 0x258 JUMPI PUSH2 0xD66 PUSH1 0x24 CALLDATALOAD PUSH1 0x4 CALLDATALOAD PUSH2 0xD1A PUSH2 0x2136 JUMP JUMPDEST PUSH2 0xD22 PUSH2 0x2118 JUMP JUMPDEST PUSH2 0xD33 PUSH1 0xFF PUSH1 0xA SLOAD PUSH1 0xA8 SHR AND PUSH2 0x20B8 JUMP JUMPDEST PUSH2 0xD40 PUSH1 0x6 SLOAD ISZERO ISZERO PUSH2 0x2159 JUMP JUMPDEST PUSH2 0xD4B CALLVALUE ISZERO ISZERO PUSH2 0x219C JUMP JUMPDEST PUSH2 0xD56 DUP2 ISZERO ISZERO PUSH2 0x223E JUMP JUMPDEST PUSH2 0xD61 DUP3 ISZERO ISZERO PUSH2 0x2294 JUMP JUMPDEST PUSH2 0x239F JUMP JUMPDEST PUSH2 0xD74 PUSH1 0x44 CALLDATALOAD DUP3 LT ISZERO PUSH2 0x21DB JUMP JUMPDEST PUSH2 0xD80 CALLVALUE PUSH1 0x5 SLOAD PUSH2 0x221B JUMP JUMPDEST PUSH1 0x5 SSTORE PUSH2 0xD8F CALLVALUE PUSH1 0x7 SLOAD PUSH2 0x221B JUMP JUMPDEST PUSH1 0x7 SSTORE PUSH1 0x1 PUSH1 0x1 PUSH1 0x40 SHL SUB DUP2 AND PUSH1 0x7 SIGNEXTEND PUSH1 0x1 DUP1 PUSH1 0xA0 SHL SUB SWAP1 PUSH2 0xDF3 DUP3 PUSH1 0x4 SLOAD AND PUSH1 0x40 MLOAD DUP4 DUP2 MSTORE DUP2 PUSH32 0xB7555D949A897ACB395F95E3F2DF8B700519404826BB13CD6526B756F6A1C907 PUSH1 0x20 CALLER SWAP4 LOG3 DUP3 PUSH1 0x40 MLOAD SWAP2 PUSH2 0xDEA DUP4 PUSH2 0x1D6F JUMP JUMPDEST PUSH1 0x0 DUP4 MSTORE PUSH2 0x30ED JUMP JUMPDEST POP SWAP3 SWAP1 PUSH1 0x16 DUP2 SUB PUSH2 0xFAB JUMPI POP PUSH2 0xE40 DUP3 DUP3 PUSH1 0x4 SLOAD AND PUSH1 0x40 MLOAD DUP3 DUP2 MSTORE CALLER SWAP1 DUP3 PUSH32 0xD9CD850143C0756B15B46EBDC8B4ED7701B66AAED30858EE17A225EB005CCA2E PUSH1 0x20 ADDRESS SWAP4 LOG4 CALLER SWAP1 ADDRESS SWAP1 PUSH2 0x3277 JUMP JUMPDEST PUSH1 0x16 DUP2 SUB PUSH2 0xF15 JUMPI POP PUSH2 0xE55 DUP5 PUSH1 0x6 SLOAD PUSH2 0x221B JUMP JUMPDEST PUSH1 0x6 SSTORE PUSH1 0x4 SLOAD AND SWAP2 DUP3 PUSH32 0xAD91542866F4DA9EBED5A2B1713258F4BF970F84E7B2A0B8AAB2DE28D11FFFFD PUSH1 0x40 MLOAD DUP1 PUSH2 0xEA2 CALLER SWAP6 DUP8 DUP4 SWAP1 SWAP3 SWAP2 PUSH1 0x20 SWAP1 PUSH1 0x40 DUP4 ADD SWAP5 PUSH1 0x7 SIGNEXTEND DUP4 MSTORE PUSH1 0x7 SIGNEXTEND SWAP2 ADD MSTORE JUMP JUMPDEST SUB SWAP1 LOG3 PUSH1 0x40 MLOAD SWAP1 DUP2 MSTORE CALLER SWAP2 PUSH32 0x67325B2F3DE1D8273FC1AEEAF3B161488FC28427430D9F6B341831DEDFC2D633 PUSH1 0x20 ADDRESS SWAP4 LOG4 PUSH1 0x40 DUP1 MLOAD CALLVALUE DUP2 MSTORE PUSH1 0x20 DUP2 ADD SWAP3 SWAP1 SWAP3 MSTORE TIMESTAMP SWAP1 DUP3 ADD MSTORE CALLER SWAP1 PUSH32 0x64B83944E79C3CE8D4C297411DE637C3E102D064677AAC0C163976EBDCD6F50E SWAP1 DUP1 PUSH1 0x60 DUP2 ADD PUSH2 0x7A2 JUMP JUMPDEST SWAP1 PUSH1 0x4 SLOAD AND PUSH32 0xCC975F63304DFDAA80A8ECBFBFC654FD86EA8A7CDB68086A0D883F26AD08E4C1 PUSH1 0x40 MLOAD DUP1 PUSH2 0xF63 CALLER SWAP7 ADDRESS SWAP7 PUSH1 0x3 SIGNEXTEND SWAP1 DUP4 SWAP1 SWAP3 SWAP2 PUSH1 0x20 SWAP1 PUSH1 0x40 DUP4 ADD SWAP5 PUSH1 0x7 SIGNEXTEND DUP4 MSTORE PUSH1 0x3 SIGNEXTEND SWAP2 ADD MSTORE JUMP JUMPDEST SUB SWAP1 LOG4 PUSH1 0x40 MLOAD PUSH3 0x461BCD PUSH1 0xE5 SHL DUP2 MSTORE PUSH1 0x20 PUSH1 0x4 DUP3 ADD MSTORE PUSH1 0x19 PUSH1 0x24 DUP3 ADD MSTORE PUSH32 0x48545320746F6B656E207472616E73666572206661696C656400000000000000 PUSH1 0x44 DUP3 ADD MSTORE PUSH1 0x64 SWAP1 REVERT JUMPDEST PUSH1 0x4 SLOAD PUSH1 0x40 DUP1 MLOAD PUSH1 0x7 DUP7 SWAP1 SIGNEXTEND DUP2 MSTORE PUSH1 0x3 SWAP4 SWAP1 SWAP4 SIGNEXTEND PUSH1 0x20 DUP5 ADD MSTORE CALLER SWAP3 SWAP2 DUP5 AND SWAP2 PUSH32 0x3F5E21A75677E84382C9F010B9F5780B534BB2A966C378FA090D12BA52CAA08 SWAP2 DUP2 SWAP1 DUP2 ADD JUMPDEST SUB SWAP1 LOG3 PUSH1 0x40 MLOAD PUSH3 0x461BCD PUSH1 0xE5 SHL DUP2 MSTORE PUSH1 0x20 PUSH1 0x4 DUP3 ADD MSTORE PUSH1 0x18 PUSH1 0x24 DUP3 ADD MSTORE PUSH32 0x48545320746F6B656E206D696E74696E67206661696C65640000000000000000 PUSH1 0x44 DUP3 ADD MSTORE PUSH1 0x64 SWAP1 REVERT JUMPDEST PUSH1 0x20 CALLDATASIZE PUSH1 0x3 NOT ADD SLT PUSH2 0x258 JUMPI PUSH2 0x104D PUSH2 0x2136 JUMP JUMPDEST PUSH2 0x1055 PUSH2 0x2118 JUMP JUMPDEST PUSH2 0x1066 PUSH1 0xFF PUSH1 0xA SLOAD PUSH1 0xA8 SHR AND PUSH2 0x20B8 JUMP JUMPDEST PUSH2 0x1073 PUSH1 0x6 SLOAD ISZERO ISZERO PUSH2 0x2159 JUMP JUMPDEST PUSH2 0x107E CALLVALUE ISZERO ISZERO PUSH2 0x219C JUMP JUMPDEST PUSH2 0x1087 CALLVALUE PUSH2 0x2378 JUMP JUMPDEST PUSH2 0xD74 PUSH1 0x4 CALLDATALOAD DUP3 LT ISZERO PUSH2 0x21DB JUMP JUMPDEST PUSH1 0x40 CALLDATASIZE PUSH1 0x3 NOT ADD SLT PUSH2 0x258 JUMPI PUSH1 0x4 CALLDATALOAD PUSH1 0x1 PUSH1 0x1 PUSH1 0x40 SHL SUB DUP2 GT PUSH2 0x258 JUMPI PUSH2 0x10C0 SWAP1 CALLDATASIZE SWAP1 PUSH1 0x4 ADD PUSH2 0x1E33 JUMP JUMPDEST PUSH1 0x24 CALLDATALOAD PUSH1 0x1 PUSH1 0x1 PUSH1 0x40 SHL SUB DUP2 GT PUSH2 0x258 JUMPI PUSH2 0x10DF SWAP1 CALLDATASIZE SWAP1 PUSH1 0x4 ADD PUSH2 0x1E33 JUMP JUMPDEST PUSH2 0x10E7 PUSH2 0x201C JUMP JUMPDEST PUSH1 0xFF PUSH1 0xA SLOAD PUSH1 0xA8 SHR AND PUSH2 0x192E JUMPI DUP2 MLOAD ISZERO PUSH2 0x18F3 JUMPI DUP1 MLOAD ISZERO PUSH2 0x18B6 JUMPI PUSH1 0x40 MLOAD SWAP2 PUSH2 0x120 DUP4 ADD DUP4 DUP2 LT PUSH1 0x1 PUSH1 0x1 PUSH1 0x40 SHL SUB DUP3 GT OR PUSH2 0x1689 JUMPI PUSH1 0x40 MSTORE PUSH1 0x60 DUP4 MSTORE PUSH1 0x60 PUSH1 0x20 DUP5 ADD MSTORE PUSH1 0x0 PUSH1 0x40 DUP5 ADD MSTORE PUSH1 0x60 DUP1 DUP5 ADD MSTORE PUSH1 0x0 PUSH1 0x80 DUP5 ADD MSTORE PUSH1 0x0 PUSH1 0xA0 DUP5 ADD MSTORE PUSH1 0x0 PUSH1 0xC0 DUP5 ADD MSTORE PUSH1 0x60 PUSH1 0xE0 DUP5 ADD MSTORE PUSH1 0x40 MLOAD DUP1 PUSH1 0x60 DUP2 ADD LT PUSH1 0x1 PUSH1 0x1 PUSH1 0x40 SHL SUB PUSH1 0x60 DUP4 ADD GT OR PUSH2 0x1689 JUMPI PUSH1 0x60 DUP2 ADD PUSH1 0x40 MSTORE PUSH1 0x0 DUP2 MSTORE PUSH1 0x0 PUSH1 0x20 DUP3 ADD MSTORE PUSH1 0x0 PUSH1 0x40 DUP3 ADD MSTORE PUSH2 0x100 DUP5 ADD MSTORE DUP1 DUP4 MSTORE DUP2 PUSH1 0x20 DUP5 ADD MSTORE ADDRESS PUSH1 0x40 DUP5 ADD MSTORE PUSH1 0x40 MLOAD PUSH2 0x11A9 DUP2 PUSH2 0x1D39 JUMP JUMPDEST PUSH1 0x1 DUP2 MSTORE PUSH1 0x0 JUMPDEST PUSH1 0x20 DUP2 LT PUSH2 0x189F JUMPI POP PUSH1 0xE0 DUP5 ADD MSTORE PUSH2 0x11C6 PUSH2 0x2074 JUMP JUMPDEST POP PUSH1 0x4 PUSH1 0x0 MSTORE PUSH1 0x3 PUSH1 0x20 MSTORE PUSH32 0x83EC6A1F0257B830B5E016457C9CF1435391BF56CC98F369A58A54FE93772465 SLOAD PUSH2 0x122E SWAP1 PUSH2 0x11FF PUSH2 0x2048 JUMP JUMPDEST ADDRESS PUSH1 0x20 DUP3 ADD MSTORE PUSH1 0x40 MLOAD SWAP2 PUSH2 0x1212 DUP4 PUSH2 0x1D39 JUMP JUMPDEST DUP3 MSTORE PUSH1 0x20 DUP3 ADD MSTORE PUSH1 0xE0 DUP6 ADD MLOAD SWAP1 PUSH2 0x1228 DUP3 PUSH2 0x2095 JUMP JUMPDEST MSTORE PUSH2 0x2095 JUMP JUMPDEST POP PUSH2 0x100 DUP4 ADD MLOAD DUP1 MLOAD PUSH1 0x7 SIGNEXTEND ISZERO DUP1 PUSH2 0x1890 JUMPI JUMPDEST PUSH2 0x1881 JUMPI JUMPDEST POP PUSH1 0x40 MLOAD PUSH4 0xFB65BF3 PUSH1 0xE0 SHL PUSH1 0x20 DUP3 ADD MSTORE PUSH1 0x60 PUSH1 0x24 DUP3 ADD MSTORE PUSH2 0x12BB PUSH2 0x1292 PUSH2 0x127C DUP7 MLOAD PUSH2 0x160 PUSH1 0x84 DUP7 ADD MSTORE PUSH2 0x1E4 DUP6 ADD SWAP1 PUSH2 0x1E74 JUMP JUMPDEST PUSH1 0x20 DUP8 ADD MLOAD DUP5 DUP3 SUB PUSH1 0x83 NOT ADD PUSH1 0xA4 DUP7 ADD MSTORE PUSH2 0x1E74 JUMP JUMPDEST PUSH1 0x40 DUP7 ADD MLOAD PUSH1 0x1 PUSH1 0x1 PUSH1 0xA0 SHL SUB AND PUSH1 0xC4 DUP5 ADD MSTORE PUSH1 0x60 DUP7 ADD MLOAD DUP4 DUP3 SUB PUSH1 0x83 NOT ADD PUSH1 0xE4 DUP6 ADD MSTORE PUSH2 0x1E74 JUMP JUMPDEST SWAP4 PUSH1 0x80 DUP2 ADD MLOAD ISZERO ISZERO PUSH2 0x104 DUP4 ADD MSTORE PUSH1 0xA0 DUP2 ADD MLOAD PUSH1 0x7 SIGNEXTEND PUSH2 0x124 DUP4 ADD MSTORE PUSH1 0xC0 DUP2 ADD MLOAD ISZERO ISZERO PUSH2 0x144 DUP4 ADD MSTORE PUSH1 0xE0 DUP2 ADD MLOAD SWAP1 PUSH1 0x83 NOT DUP4 DUP8 SUB ADD PUSH2 0x164 DUP5 ADD MSTORE DUP2 MLOAD DUP1 DUP8 MSTORE PUSH1 0x20 DUP8 ADD SWAP1 PUSH1 0x20 DUP1 DUP3 PUSH1 0x5 SHL DUP11 ADD ADD SWAP5 ADD SWAP2 PUSH1 0x0 SWAP1 JUMPDEST DUP3 DUP3 LT PUSH2 0x17F3 JUMPI DUP9 DUP9 PUSH1 0x0 DUP1 DUP11 PUSH2 0x1370 DUP2 DUP13 PUSH1 0x40 PUSH2 0x100 DUP15 ADD MLOAD DUP1 MLOAD PUSH1 0x7 SIGNEXTEND PUSH2 0x184 DUP6 ADD MSTORE PUSH1 0x1 DUP1 PUSH1 0xA0 SHL SUB PUSH1 0x20 DUP3 ADD MLOAD AND PUSH2 0x1A4 DUP6 ADD MSTORE ADD MLOAD PUSH1 0x7 SIGNEXTEND PUSH2 0x1C4 DUP4 ADD MSTORE DUP5 PUSH1 0x44 DUP4 ADD MSTORE PUSH1 0x6 PUSH1 0x64 DUP4 ADD MSTORE SUB PUSH1 0x1F NOT DUP2 ADD DUP4 MSTORE DUP3 PUSH2 0x1DC0 JUMP JUMPDEST PUSH1 0x20 DUP2 MLOAD SWAP2 ADD CALLVALUE PUSH2 0x167 GAS CALL SWAP2 PUSH2 0x1385 PUSH2 0x2348 JUMP JUMPDEST SWAP3 ISZERO PUSH2 0x17E8 JUMPI PUSH1 0x40 DUP4 DUP1 MLOAD DUP2 ADD SUB SLT PUSH2 0x258 JUMPI PUSH1 0x40 PUSH2 0x13A6 PUSH1 0x20 DUP6 ADD PUSH2 0x30D1 JUMP JUMPDEST SWAP4 ADD MLOAD PUSH1 0x1 PUSH1 0x1 PUSH1 0xA0 SHL SUB DUP2 AND SWAP4 SWAP1 DUP5 SWAP1 SUB PUSH2 0x258 JUMPI PUSH1 0x3 SIGNEXTEND JUMPDEST PUSH1 0x3 SIGNEXTEND PUSH1 0x16 DUP2 SUB PUSH2 0x1786 JUMPI POP PUSH1 0x4 DUP1 SLOAD PUSH1 0x1 PUSH1 0x1 PUSH1 0xA0 SHL SUB NOT AND PUSH1 0x1 PUSH1 0x1 PUSH1 0xA0 SHL SUB DUP6 AND OR SWAP1 SSTORE PUSH1 0x40 MLOAD PUSH2 0x13F3 DUP2 PUSH2 0x1D54 JUMP JUMPDEST DUP3 DUP2 MSTORE PUSH1 0x20 DUP2 ADD DUP3 SWAP1 MSTORE PUSH1 0x6 PUSH1 0x40 DUP3 ADD MSTORE PUSH1 0x1 PUSH1 0x1 PUSH1 0xA0 SHL SUB DUP5 AND PUSH1 0x60 DUP3 ADD MSTORE PUSH1 0x1 PUSH1 0x80 DUP3 ADD MSTORE DUP3 MLOAD PUSH1 0x1 PUSH1 0x1 PUSH1 0x40 SHL SUB DUP2 GT PUSH2 0x1689 JUMPI PUSH2 0x1435 PUSH1 0x8 SLOAD PUSH2 0x1E99 JUMP JUMPDEST PUSH1 0x1F DUP2 GT PUSH2 0x171D JUMPI JUMPDEST POP DUP1 PUSH1 0x20 PUSH1 0x1F DUP3 GT PUSH1 0x1 EQ PUSH2 0x16AA JUMPI PUSH1 0x0 SWAP2 PUSH2 0x169F JUMPI JUMPDEST POP DUP2 PUSH1 0x1 SHL SWAP2 PUSH1 0x0 NOT SWAP1 PUSH1 0x3 SHL SHR NOT AND OR PUSH1 0x8 SSTORE JUMPDEST PUSH1 0x20 DUP2 ADD MLOAD DUP1 MLOAD SWAP1 PUSH1 0x1 PUSH1 0x1 PUSH1 0x40 SHL SUB DUP3 GT PUSH2 0x1689 JUMPI PUSH2 0x148B PUSH1 0x9 SLOAD PUSH2 0x1E99 JUMP JUMPDEST PUSH1 0x1F DUP2 GT PUSH2 0x1620 JUMPI JUMPDEST POP PUSH1 0x20 SWAP1 PUSH1 0x1F DUP4 GT PUSH1 0x1 EQ PUSH2 0x1580 JUMPI SWAP3 DUP3 PUSH2 0x1557 SWAP4 PUSH2 0x1549 SWAP7 SWAP4 PUSH32 0x8FB1FFD0AB3F6379154037519FF749B01E1FA060A331F5394175F393C3DB596B SWAP9 SWAP7 PUSH1 0x0 SWAP3 PUSH2 0x1575 JUMPI JUMPDEST POP POP DUP2 PUSH1 0x1 SHL SWAP2 PUSH1 0x0 NOT SWAP1 PUSH1 0x3 SHL SHR NOT AND OR PUSH1 0x9 SSTORE JUMPDEST PUSH1 0xFF PUSH1 0x40 DUP3 ADD MLOAD AND SWAP1 PUSH1 0xA SLOAD SWAP2 PUSH2 0x100 PUSH1 0x1 PUSH1 0xA8 SHL SUB PUSH1 0x60 DUP4 ADD MLOAD PUSH1 0x8 SHL AND SWAP2 PUSH1 0x80 PUSH1 0xFF PUSH1 0xA8 SHL SWAP2 ADD MLOAD ISZERO ISZERO PUSH1 0xA8 SHL AND SWAP3 PUSH10 0xFFFFFFFFFFFFFFFFFFFF PUSH1 0xB0 SHL AND OR OR OR PUSH1 0xA SSTORE PUSH1 0x40 MLOAD SWAP4 DUP5 SWAP4 PUSH1 0x80 DUP6 MSTORE PUSH1 0x80 DUP6 ADD SWAP1 PUSH2 0x1E74 JUMP JUMPDEST SWAP1 DUP4 DUP3 SUB PUSH1 0x20 DUP6 ADD MSTORE PUSH2 0x1E74 JUMP JUMPDEST PUSH1 0x6 PUSH1 0x40 DUP4 ADD MSTORE ADDRESS PUSH1 0x60 DUP4 ADD MSTORE PUSH1 0x1 PUSH1 0x1 PUSH1 0xA0 SHL SUB SWAP1 SWAP5 AND SWAP4 SUB SWAP1 LOG2 STOP JUMPDEST ADD MLOAD SWAP1 POP DUP10 DUP1 PUSH2 0x14D9 JUMP JUMPDEST SWAP1 PUSH1 0x9 PUSH1 0x0 MSTORE PUSH1 0x0 DUP1 MLOAD PUSH1 0x20 PUSH2 0x333C DUP4 CODECOPY DUP2 MLOAD SWAP2 MSTORE SWAP2 PUSH1 0x0 JUMPDEST PUSH1 0x1F NOT DUP6 AND DUP2 LT PUSH2 0x1608 JUMPI POP DUP4 PUSH2 0x1549 SWAP7 SWAP4 PUSH32 0x8FB1FFD0AB3F6379154037519FF749B01E1FA060A331F5394175F393C3DB596B SWAP9 SWAP7 SWAP4 PUSH1 0x1 SWAP4 PUSH2 0x1557 SWAP8 PUSH1 0x1F NOT DUP2 AND LT PUSH2 0x15EF JUMPI JUMPDEST POP POP POP DUP2 SHL ADD PUSH1 0x9 SSTORE PUSH2 0x14EF JUMP JUMPDEST ADD MLOAD PUSH1 0x0 NOT PUSH1 0xF8 DUP5 PUSH1 0x3 SHL AND SHR NOT AND SWAP1 SSTORE DUP10 DUP1 DUP1 PUSH2 0x15E1 JUMP JUMPDEST SWAP2 SWAP3 PUSH1 0x20 PUSH1 0x1 DUP2 SWAP3 DUP7 DUP6 ADD MLOAD DUP2 SSTORE ADD SWAP5 ADD SWAP3 ADD PUSH2 0x1599 JUMP JUMPDEST PUSH1 0x9 PUSH1 0x0 MSTORE PUSH1 0x1F DUP4 ADD PUSH1 0x5 SHR PUSH1 0x0 DUP1 MLOAD PUSH1 0x20 PUSH2 0x333C DUP4 CODECOPY DUP2 MLOAD SWAP2 MSTORE ADD PUSH1 0x20 DUP5 LT PUSH2 0x1674 JUMPI JUMPDEST PUSH1 0x1F DUP3 ADD PUSH1 0x5 SHR PUSH1 0x0 DUP1 MLOAD PUSH1 0x20 PUSH2 0x333C DUP4 CODECOPY DUP2 MLOAD SWAP2 MSTORE ADD DUP2 LT PUSH2 0x1668 JUMPI POP PUSH2 0x1494 JUMP JUMPDEST PUSH1 0x0 DUP2 SSTORE PUSH1 0x1 ADD PUSH2 0x1645 JUMP JUMPDEST POP PUSH1 0x0 DUP1 MLOAD PUSH1 0x20 PUSH2 0x333C DUP4 CODECOPY DUP2 MLOAD SWAP2 MSTORE PUSH2 0x1645 JUMP JUMPDEST PUSH4 0x4E487B71 PUSH1 0xE0 SHL PUSH1 0x0 MSTORE PUSH1 0x41 PUSH1 0x4 MSTORE PUSH1 0x24 PUSH1 0x0 REVERT JUMPDEST SWAP1 POP DUP5 ADD MLOAD DUP7 PUSH2 0x1455 JUMP JUMPDEST SWAP2 POP PUSH1 0x8 PUSH1 0x0 MSTORE PUSH1 0x0 DUP1 MLOAD PUSH1 0x20 PUSH2 0x331C DUP4 CODECOPY DUP2 MLOAD SWAP2 MSTORE PUSH1 0x0 SWAP3 JUMPDEST PUSH1 0x1F NOT DUP4 AND DUP5 LT PUSH2 0x1705 JUMPI PUSH1 0x1 SWAP4 POP DUP3 PUSH1 0x1F NOT DUP2 AND LT PUSH2 0x16EC JUMPI JUMPDEST POP POP DUP2 SHL ADD PUSH1 0x8 SSTORE PUSH2 0x146A JUMP JUMPDEST DUP7 ADD MLOAD PUSH1 0x0 NOT PUSH1 0xF8 DUP5 PUSH1 0x3 SHL AND SHR NOT AND SWAP1 SSTORE DUP7 DUP1 PUSH2 0x16DF JUMP JUMPDEST DUP7 DUP2 ADD MLOAD DUP3 SSTORE PUSH1 0x20 SWAP4 DUP5 ADD SWAP4 PUSH1 0x1 SWAP1 SWAP3 ADD SWAP2 ADD PUSH2 0x16C4 JUMP JUMPDEST PUSH1 0x8 PUSH1 0x0 MSTORE PUSH1 0x1F DUP3 ADD PUSH1 0x5 SHR PUSH1 0x0 DUP1 MLOAD PUSH1 0x20 PUSH2 0x331C DUP4 CODECOPY DUP2 MLOAD SWAP2 MSTORE ADD PUSH1 0x20 DUP4 LT PUSH2 0x1771 JUMPI JUMPDEST PUSH1 0x1F DUP3 ADD PUSH1 0x5 SHR PUSH1 0x0 DUP1 MLOAD PUSH1 0x20 PUSH2 0x331C DUP4 CODECOPY DUP2 MLOAD SWAP2 MSTORE ADD DUP2 LT PUSH2 0x1765 JUMPI POP PUSH2 0x143E JUMP JUMPDEST PUSH1 0x0 DUP2 SSTORE PUSH1 0x1 ADD PUSH2 0x1742 JUMP JUMPDEST POP PUSH1 0x0 DUP1 MLOAD PUSH1 0x20 PUSH2 0x331C DUP4 CODECOPY DUP2 MLOAD SWAP2 MSTORE PUSH2 0x1742 JUMP JUMPDEST DUP1 PUSH32 0x8E087745DD680D08F64711BFDD63E4496157EAA1C1774FDDD382C76431DC1054 PUSH2 0x17D0 PUSH2 0x17B6 PUSH1 0x24 SWAP5 PUSH2 0x24A3 JUMP JUMPDEST PUSH1 0x40 MLOAD SWAP2 DUP3 SWAP2 DUP6 DUP4 MSTORE PUSH1 0x40 PUSH1 0x20 DUP5 ADD MSTORE PUSH1 0x40 DUP4 ADD SWAP1 PUSH2 0x1E74 JUMP JUMPDEST SUB SWAP1 LOG1 PUSH1 0x40 MLOAD SWAP1 PUSH4 0x1DD454B1 PUSH1 0xE0 SHL DUP3 MSTORE PUSH1 0x4 DUP3 ADD MSTORE REVERT JUMPDEST PUSH1 0x0 SWAP3 POP PUSH1 0x15 PUSH2 0x13C0 JUMP JUMPDEST SWAP1 SWAP2 SWAP3 SWAP5 PUSH1 0x20 DUP1 PUSH1 0x1 SWAP3 PUSH1 0x1F NOT DUP14 DUP3 SUB ADD DUP6 MSTORE DUP2 DUP10 MLOAD DUP1 MLOAD DUP4 MSTORE ADD MLOAD SWAP1 PUSH1 0x40 DUP4 DUP3 ADD MSTORE DUP2 MLOAD ISZERO ISZERO PUSH1 0x40 DUP3 ADD MSTORE DUP5 DUP1 PUSH1 0xA0 SHL SUB DUP4 DUP4 ADD MLOAD AND PUSH1 0x60 DUP3 ADD MSTORE PUSH1 0xC0 PUSH2 0x1863 PUSH2 0x184D PUSH1 0x40 DUP6 ADD MLOAD PUSH1 0xA0 PUSH1 0x80 DUP7 ADD MSTORE PUSH1 0xE0 DUP6 ADD SWAP1 PUSH2 0x1E74 JUMP JUMPDEST PUSH1 0x60 DUP6 ADD MLOAD DUP5 DUP3 SUB PUSH1 0x3F NOT ADD PUSH1 0xA0 DUP7 ADD MSTORE PUSH2 0x1E74 JUMP JUMPDEST SWAP3 PUSH1 0x80 DUP8 DUP1 PUSH1 0xA0 SHL SUB SWAP2 ADD MLOAD AND SWAP2 ADD MSTORE SWAP8 ADD SWAP3 ADD SWAP3 ADD SWAP1 SWAP3 SWAP2 PUSH2 0x1312 JUMP JUMPDEST PUSH1 0x40 PUSH3 0x76A700 SWAP2 ADD MSTORE DUP4 PUSH2 0x1246 JUMP JUMPDEST POP PUSH1 0x40 DUP2 ADD MLOAD PUSH1 0x7 SIGNEXTEND ISZERO PUSH2 0x1241 JUMP JUMPDEST PUSH1 0x20 SWAP1 PUSH2 0x18AA PUSH2 0x2074 JUMP JUMPDEST DUP3 DUP3 DUP6 ADD ADD MSTORE ADD PUSH2 0x11B0 JUMP JUMPDEST PUSH1 0x40 MLOAD PUSH3 0x461BCD PUSH1 0xE5 SHL DUP2 MSTORE PUSH1 0x20 PUSH1 0x4 DUP3 ADD MSTORE PUSH1 0x15 PUSH1 0x24 DUP3 ADD MSTORE PUSH21 0x151BDAD95B881CDE5B589BDB081C995C5D5A5C9959 PUSH1 0x5A SHL PUSH1 0x44 DUP3 ADD MSTORE PUSH1 0x64 SWAP1 REVERT JUMPDEST PUSH1 0x40 MLOAD PUSH3 0x461BCD PUSH1 0xE5 SHL DUP2 MSTORE PUSH1 0x20 PUSH1 0x4 DUP3 ADD MSTORE PUSH1 0x13 PUSH1 0x24 DUP3 ADD MSTORE PUSH19 0x151BDAD95B881B985B59481C995C5D5A5C9959 PUSH1 0x6A SHL PUSH1 0x44 DUP3 ADD MSTORE PUSH1 0x64 SWAP1 REVERT JUMPDEST PUSH1 0x40 MLOAD PUSH3 0x461BCD PUSH1 0xE5 SHL DUP2 MSTORE PUSH1 0x20 PUSH1 0x4 DUP3 ADD MSTORE PUSH1 0x15 PUSH1 0x24 DUP3 ADD MSTORE PUSH21 0x151BDAD95B88185B1C9958591E4818DC99585D1959 PUSH1 0x5A SHL PUSH1 0x44 DUP3 ADD MSTORE PUSH1 0x64 SWAP1 REVERT JUMPDEST CALLVALUE PUSH2 0x258 JUMPI PUSH1 0x20 CALLDATASIZE PUSH1 0x3 NOT ADD SLT PUSH2 0x258 JUMPI PUSH1 0x20 PUSH2 0x46F PUSH1 0x4 CALLDATALOAD PUSH2 0x2378 JUMP JUMPDEST CALLVALUE PUSH2 0x258 JUMPI PUSH1 0x0 CALLDATASIZE PUSH1 0x3 NOT ADD SLT PUSH2 0x258 JUMPI PUSH2 0x19A2 PUSH2 0x201C JUMP JUMPDEST PUSH2 0x19AA PUSH2 0x30B2 JUMP JUMPDEST PUSH1 0xFF NOT PUSH1 0x2 SLOAD AND PUSH1 0x2 SSTORE PUSH32 0x5DB9EE0A495BF2E6FF9C91A7834C1BA4FDD244A5E8AA4E537BD38AEAE4B073AA PUSH1 0x20 PUSH1 0x40 MLOAD CALLER DUP2 MSTORE LOG1 STOP JUMPDEST CALLVALUE PUSH2 0x258 JUMPI PUSH1 0x20 CALLDATASIZE PUSH1 0x3 NOT ADD SLT PUSH2 0x258 JUMPI PUSH1 0x20 PUSH2 0x46F PUSH1 0x4 CALLDATALOAD PUSH2 0x23D1 JUMP JUMPDEST CALLVALUE PUSH2 0x258 JUMPI PUSH1 0x0 CALLDATASIZE PUSH1 0x3 NOT ADD SLT PUSH2 0x258 JUMPI PUSH1 0x20 PUSH2 0x46F PUSH2 0x2448 JUMP JUMPDEST CALLVALUE PUSH2 0x258 JUMPI PUSH1 0x0 CALLDATASIZE PUSH1 0x3 NOT ADD SLT PUSH2 0x258 JUMPI PUSH1 0x20 PUSH1 0x5 SLOAD PUSH1 0x40 MLOAD SWAP1 DUP2 MSTORE RETURN JUMPDEST PUSH1 0x0 CALLDATASIZE PUSH1 0x3 NOT ADD SLT PUSH2 0x258 JUMPI PUSH2 0x1A4B PUSH2 0x201C JUMP JUMPDEST PUSH2 0x1A53 PUSH2 0x2136 JUMP JUMPDEST PUSH2 0x1A5B PUSH2 0x2118 JUMP JUMPDEST PUSH2 0x1A6C PUSH1 0xFF PUSH1 0xA SLOAD PUSH1 0xA8 SHR AND PUSH2 0x20B8 JUMP JUMPDEST PUSH1 0x6 SLOAD PUSH2 0x1C02 JUMPI PUSH3 0x186A0 CALLVALUE LT PUSH2 0x1BBD JUMPI CALLVALUE PUSH1 0x5 SSTORE CALLVALUE PUSH1 0x7 SSTORE PUSH1 0x64 CALLVALUE DIV PUSH1 0x1 PUSH1 0x1 PUSH1 0x40 SHL SUB DUP2 AND PUSH1 0x7 SIGNEXTEND PUSH1 0x1 DUP1 PUSH1 0xA0 SHL SUB PUSH2 0x1AE0 DUP2 PUSH1 0x4 SLOAD AND PUSH1 0x40 MLOAD DUP5 DUP2 MSTORE DUP2 PUSH32 0xB7555D949A897ACB395F95E3F2DF8B700519404826BB13CD6526B756F6A1C907 PUSH1 0x20 CALLER SWAP4 LOG3 DUP4 PUSH1 0x40 MLOAD SWAP2 PUSH2 0xDEA DUP4 PUSH2 0x1D6F JUMP JUMPDEST POP SWAP2 SWAP1 PUSH1 0x16 DUP2 SUB PUSH2 0x1B73 JUMPI POP PUSH1 0x6 DUP5 SWAP1 SSTORE PUSH1 0x4 SLOAD PUSH1 0x40 DUP1 MLOAD PUSH1 0x7 SWAP6 DUP7 SIGNEXTEND DUP2 MSTORE SWAP4 SWAP1 SWAP5 SIGNEXTEND PUSH1 0x20 DUP5 ADD MSTORE CALLER SWAP4 SWAP2 AND SWAP2 PUSH32 0xAD91542866F4DA9EBED5A2B1713258F4BF970F84E7B2A0B8AAB2DE28D11FFFFD SWAP2 SWAP1 LOG3 PUSH1 0x40 DUP1 MLOAD CALLVALUE DUP2 MSTORE PUSH1 0x20 DUP2 ADD SWAP3 SWAP1 SWAP3 MSTORE TIMESTAMP SWAP1 DUP3 ADD MSTORE CALLER SWAP1 PUSH32 0x64B83944E79C3CE8D4C297411DE637C3E102D064677AAC0C163976EBDCD6F50E SWAP1 DUP1 PUSH1 0x60 DUP2 ADD PUSH2 0x7A2 JUMP JUMPDEST PUSH1 0x4 SLOAD PUSH1 0x40 DUP1 MLOAD PUSH1 0x7 DUP8 SWAP1 SIGNEXTEND DUP2 MSTORE PUSH1 0x3 SWAP4 SWAP1 SWAP4 SIGNEXTEND PUSH1 0x20 DUP5 ADD MSTORE CALLER SWAP3 SWAP2 DUP5 AND SWAP2 PUSH32 0x3F5E21A75677E84382C9F010B9F5780B534BB2A966C378FA090D12BA52CAA08 SWAP2 DUP2 SWAP1 DUP2 ADD PUSH2 0xFF1 JUMP JUMPDEST PUSH1 0x40 MLOAD PUSH3 0x461BCD PUSH1 0xE5 SHL DUP2 MSTORE PUSH1 0x20 PUSH1 0x4 DUP3 ADD MSTORE PUSH1 0x1E PUSH1 0x24 DUP3 ADD MSTORE PUSH32 0x496E73756666696369656E7420696E697469616C206C69717569646974790000 PUSH1 0x44 DUP3 ADD MSTORE PUSH1 0x64 SWAP1 REVERT JUMPDEST PUSH1 0x40 MLOAD PUSH3 0x461BCD PUSH1 0xE5 SHL DUP2 MSTORE PUSH1 0x20 PUSH1 0x4 DUP3 ADD MSTORE PUSH1 0x18 PUSH1 0x24 DUP3 ADD MSTORE PUSH32 0x506F6F6C20616C726561647920696E697469616C697A65640000000000000000 PUSH1 0x44 DUP3 ADD MSTORE PUSH1 0x64 SWAP1 REVERT JUMPDEST CALLVALUE PUSH2 0x258 JUMPI PUSH1 0x0 CALLDATASIZE PUSH1 0x3 NOT ADD SLT PUSH2 0x258 JUMPI PUSH1 0x20 PUSH1 0x40 MLOAD PUSH3 0x186A0 DUP2 MSTORE RETURN JUMPDEST CALLVALUE PUSH2 0x258 JUMPI PUSH1 0x0 CALLDATASIZE PUSH1 0x3 NOT ADD SLT PUSH2 0x258 JUMPI PUSH1 0x20 PUSH1 0xFF PUSH1 0xA SLOAD PUSH1 0xA8 SHR AND PUSH1 0x40 MLOAD SWAP1 ISZERO ISZERO DUP2 MSTORE RETURN JUMPDEST CALLVALUE PUSH2 0x258 JUMPI PUSH1 0x0 PUSH2 0x6B1 DUP3 PUSH2 0x9C6 DUP4 SWAP5 PUSH2 0x1CA4 CALLDATASIZE PUSH2 0x1CF8 JUMP JUMPDEST PUSH4 0xAED65F5 PUSH1 0xE1 SHL PUSH1 0x20 DUP7 ADD SWAP1 DUP2 MSTORE PUSH1 0x1 PUSH1 0x1 PUSH1 0xA0 SHL SUB SWAP5 DUP6 AND PUSH1 0x24 DUP8 ADD MSTORE SWAP3 DUP5 AND PUSH1 0x44 DUP7 ADD MSTORE SWAP3 AND PUSH1 0x64 DUP5 ADD MSTORE PUSH1 0x84 DUP4 ADD SWAP2 SWAP1 SWAP2 MSTORE SWAP4 PUSH1 0xA4 DUP3 ADD SWAP1 JUMP JUMPDEST PUSH1 0x4 CALLDATALOAD SWAP1 PUSH1 0x1 PUSH1 0x1 PUSH1 0xA0 SHL SUB DUP3 AND DUP3 SUB PUSH2 0x258 JUMPI JUMP JUMPDEST PUSH1 0x80 SWAP1 PUSH1 0x3 NOT ADD SLT PUSH2 0x258 JUMPI PUSH1 0x1 PUSH1 0x1 PUSH1 0xA0 SHL SUB PUSH1 0x4 CALLDATALOAD DUP2 DUP2 AND DUP2 SUB PUSH2 0x258 JUMPI SWAP2 PUSH1 0x24 CALLDATALOAD DUP3 DUP2 AND DUP2 SUB PUSH2 0x258 JUMPI SWAP2 PUSH1 0x44 CALLDATALOAD SWAP1 DUP2 AND DUP2 SUB PUSH2 0x258 JUMPI SWAP1 PUSH1 0x64 CALLDATALOAD SWAP1 JUMP JUMPDEST PUSH1 0x40 DUP2 ADD SWAP1 DUP2 LT PUSH1 0x1 PUSH1 0x1 PUSH1 0x40 SHL SUB DUP3 GT OR PUSH2 0x1689 JUMPI PUSH1 0x40 MSTORE JUMP JUMPDEST PUSH1 0xA0 DUP2 ADD SWAP1 DUP2 LT PUSH1 0x1 PUSH1 0x1 PUSH1 0x40 SHL SUB DUP3 GT OR PUSH2 0x1689 JUMPI PUSH1 0x40 MSTORE JUMP JUMPDEST PUSH1 0x20 DUP2 ADD SWAP1 DUP2 LT PUSH1 0x1 PUSH1 0x1 PUSH1 0x40 SHL SUB DUP3 GT OR PUSH2 0x1689 JUMPI PUSH1 0x40 MSTORE JUMP JUMPDEST PUSH1 0x60 DUP2 ADD SWAP1 DUP2 LT PUSH1 0x1 PUSH1 0x1 PUSH1 0x40 SHL SUB DUP3 GT OR PUSH2 0x1689 JUMPI PUSH1 0x40 MSTORE JUMP JUMPDEST PUSH1 0x80 DUP2 ADD SWAP1 DUP2 LT PUSH1 0x1 PUSH1 0x1 PUSH1 0x40 SHL SUB DUP3 GT OR PUSH2 0x1689 JUMPI PUSH1 0x40 MSTORE JUMP JUMPDEST SWAP1 PUSH1 0x1F DUP1 NOT SWAP2 ADD AND DUP2 ADD SWAP1 DUP2 LT PUSH1 0x1 PUSH1 0x1 PUSH1 0x40 SHL SUB DUP3 GT OR PUSH2 0x1689 JUMPI PUSH1 0x40 MSTORE JUMP JUMPDEST PUSH1 0x1 PUSH1 0x1 PUSH1 0x40 SHL SUB DUP2 GT PUSH2 0x1689 JUMPI PUSH1 0x1F ADD PUSH1 0x1F NOT AND PUSH1 0x20 ADD SWAP1 JUMP JUMPDEST SWAP3 SWAP2 SWAP3 PUSH2 0x1E08 DUP3 PUSH2 0x1DE1 JUMP JUMPDEST SWAP2 PUSH2 0x1E16 PUSH1 0x40 MLOAD SWAP4 DUP5 PUSH2 0x1DC0 JUMP JUMPDEST DUP3 SWAP5 DUP2 DUP5 MSTORE DUP2 DUP4 ADD GT PUSH2 0x258 JUMPI DUP3 DUP2 PUSH1 0x20 SWAP4 DUP5 PUSH1 0x0 SWAP7 ADD CALLDATACOPY ADD ADD MSTORE JUMP JUMPDEST SWAP1 DUP1 PUSH1 0x1F DUP4 ADD SLT ISZERO PUSH2 0x258 JUMPI DUP2 PUSH1 0x20 PUSH2 0x1E4E SWAP4 CALLDATALOAD SWAP2 ADD PUSH2 0x1DFC JUMP JUMPDEST SWAP1 JUMP JUMPDEST PUSH1 0x0 JUMPDEST DUP4 DUP2 LT PUSH2 0x1E64 JUMPI POP POP PUSH1 0x0 SWAP2 ADD MSTORE JUMP JUMPDEST DUP2 DUP2 ADD MLOAD DUP4 DUP3 ADD MSTORE PUSH1 0x20 ADD PUSH2 0x1E54 JUMP JUMPDEST SWAP1 PUSH1 0x20 SWAP2 PUSH2 0x1E8D DUP2 MLOAD DUP1 SWAP3 DUP2 DUP6 MSTORE DUP6 DUP1 DUP7 ADD SWAP2 ADD PUSH2 0x1E51 JUMP JUMPDEST PUSH1 0x1F ADD PUSH1 0x1F NOT AND ADD ADD SWAP1 JUMP JUMPDEST SWAP1 PUSH1 0x1 DUP3 DUP2 SHR SWAP3 AND DUP1 ISZERO PUSH2 0x1EC9 JUMPI JUMPDEST PUSH1 0x20 DUP4 LT EQ PUSH2 0x1EB3 JUMPI JUMP JUMPDEST PUSH4 0x4E487B71 PUSH1 0xE0 SHL PUSH1 0x0 MSTORE PUSH1 0x22 PUSH1 0x4 MSTORE PUSH1 0x24 PUSH1 0x0 REVERT JUMPDEST SWAP2 PUSH1 0x7F AND SWAP2 PUSH2 0x1EA8 JUMP JUMPDEST PUSH1 0x40 MLOAD SWAP1 PUSH1 0x0 DUP3 PUSH1 0x8 SLOAD SWAP2 PUSH2 0x1EE7 DUP4 PUSH2 0x1E99 JUMP JUMPDEST DUP1 DUP4 MSTORE SWAP3 PUSH1 0x1 SWAP1 DUP2 DUP2 AND SWAP1 DUP2 ISZERO PUSH2 0x1F5D JUMPI POP PUSH1 0x1 EQ PUSH2 0x1F10 JUMPI JUMPDEST POP PUSH2 0x1F0E SWAP3 POP SUB DUP4 PUSH2 0x1DC0 JUMP JUMPDEST JUMP JUMPDEST PUSH1 0x8 PUSH1 0x0 SWAP1 DUP2 MSTORE SWAP2 POP PUSH1 0x0 DUP1 MLOAD PUSH1 0x20 PUSH2 0x331C DUP4 CODECOPY DUP2 MLOAD SWAP2 MSTORE JUMPDEST DUP5 DUP4 LT PUSH2 0x1F42 JUMPI POP PUSH2 0x1F0E SWAP4 POP POP DUP2 ADD PUSH1 0x20 ADD CODESIZE PUSH2 0x1F01 JUMP JUMPDEST DUP2 SWAP4 POP SWAP1 DUP2 PUSH1 0x20 SWAP3 SLOAD DUP4 DUP6 DUP11 ADD ADD MSTORE ADD SWAP2 ADD SWAP1 SWAP2 DUP6 SWAP3 PUSH2 0x1F29 JUMP JUMPDEST SWAP1 POP PUSH1 0x20 SWAP3 POP PUSH2 0x1F0E SWAP5 SWAP2 POP PUSH1 0xFF NOT AND DUP3 DUP5 ADD MSTORE ISZERO ISZERO PUSH1 0x5 SHL DUP3 ADD ADD CODESIZE PUSH2 0x1F01 JUMP JUMPDEST PUSH1 0x40 MLOAD SWAP1 PUSH1 0x0 DUP3 PUSH1 0x9 SLOAD SWAP2 PUSH2 0x1F93 DUP4 PUSH2 0x1E99 JUMP JUMPDEST DUP1 DUP4 MSTORE SWAP3 PUSH1 0x1 SWAP1 DUP2 DUP2 AND SWAP1 DUP2 ISZERO PUSH2 0x1F5D JUMPI POP PUSH1 0x1 EQ PUSH2 0x1FB9 JUMPI POP PUSH2 0x1F0E SWAP3 POP SUB DUP4 PUSH2 0x1DC0 JUMP JUMPDEST PUSH1 0x9 PUSH1 0x0 SWAP1 DUP2 MSTORE SWAP2 POP PUSH1 0x0 DUP1 MLOAD PUSH1 0x20 PUSH2 0x333C DUP4 CODECOPY DUP2 MLOAD SWAP2 MSTORE JUMPDEST DUP5 DUP4 LT PUSH2 0x1FEB JUMPI POP PUSH2 0x1F0E SWAP4 POP POP DUP2 ADD PUSH1 0x20 ADD CODESIZE PUSH2 0x1F01 JUMP JUMPDEST DUP2 SWAP4 POP SWAP1 DUP2 PUSH1 0x20 SWAP3 SLOAD DUP4 DUP6 DUP11 ADD ADD MSTORE ADD SWAP2 ADD SWAP1 SWAP2 DUP6 SWAP3 PUSH2 0x1FD2 JUMP JUMPDEST PUSH1 0x40 SWAP1 PUSH1 0x3 NOT ADD SLT PUSH2 0x258 JUMPI PUSH1 0x4 CALLDATALOAD SWAP1 PUSH1 0x24 CALLDATALOAD SWAP1 JUMP JUMPDEST PUSH1 0x0 SLOAD PUSH1 0x1 PUSH1 0x1 PUSH1 0xA0 SHL SUB AND CALLER SUB PUSH2 0x2030 JUMPI JUMP JUMPDEST PUSH1 0x40 MLOAD PUSH4 0x118CDAA7 PUSH1 0xE0 SHL DUP2 MSTORE CALLER PUSH1 0x4 DUP3 ADD MSTORE PUSH1 0x24 SWAP1 REVERT JUMPDEST PUSH1 0x40 MLOAD SWAP1 PUSH2 0x2055 DUP3 PUSH2 0x1D54 JUMP JUMPDEST PUSH1 0x0 PUSH1 0x80 DUP4 DUP3 DUP2 MSTORE DUP3 PUSH1 0x20 DUP3 ADD MSTORE PUSH1 0x60 PUSH1 0x40 DUP3 ADD MSTORE PUSH1 0x60 DUP1 DUP3 ADD MSTORE ADD MSTORE JUMP JUMPDEST PUSH1 0x40 MLOAD SWAP1 PUSH2 0x2081 DUP3 PUSH2 0x1D39 JUMP JUMPDEST DUP2 PUSH1 0x0 DUP2 MSTORE PUSH1 0x20 PUSH2 0x2090 PUSH2 0x2048 JUMP JUMPDEST SWAP2 ADD MSTORE JUMP JUMPDEST DUP1 MLOAD ISZERO PUSH2 0x20A2 JUMPI PUSH1 0x20 ADD SWAP1 JUMP JUMPDEST PUSH4 0x4E487B71 PUSH1 0xE0 SHL PUSH1 0x0 MSTORE PUSH1 0x32 PUSH1 0x4 MSTORE PUSH1 0x24 PUSH1 0x0 REVERT JUMPDEST ISZERO PUSH2 0x20BF JUMPI JUMP JUMPDEST PUSH1 0x40 MLOAD PUSH3 0x461BCD PUSH1 0xE5 SHL DUP2 MSTORE PUSH1 0x20 PUSH1 0x4 DUP3 ADD MSTORE PUSH1 0x11 PUSH1 0x24 DUP3 ADD MSTORE PUSH17 0x151BDAD95B881B9BDD0818DC99585D1959 PUSH1 0x7A SHL PUSH1 0x44 DUP3 ADD MSTORE PUSH1 0x64 SWAP1 REVERT JUMPDEST DUP2 ISZERO PUSH2 0x2102 JUMPI DIV SWAP1 JUMP JUMPDEST PUSH4 0x4E487B71 PUSH1 0xE0 SHL PUSH1 0x0 MSTORE PUSH1 0x12 PUSH1 0x4 MSTORE PUSH1 0x24 PUSH1 0x0 REVERT JUMPDEST PUSH1 0xFF PUSH1 0x2 SLOAD AND PUSH2 0x2124 JUMPI JUMP JUMPDEST PUSH1 0x40 MLOAD PUSH4 0xD93C0665 PUSH1 0xE0 SHL DUP2 MSTORE PUSH1 0x4 SWAP1 REVERT JUMPDEST PUSH1 0x2 PUSH1 0x1 SLOAD EQ PUSH2 0x2147 JUMPI PUSH1 0x2 PUSH1 0x1 SSTORE JUMP JUMPDEST PUSH1 0x40 MLOAD PUSH4 0x3EE5AEB5 PUSH1 0xE0 SHL DUP2 MSTORE PUSH1 0x4 SWAP1 REVERT JUMPDEST ISZERO PUSH2 0x2160 JUMPI JUMP JUMPDEST PUSH1 0x40 MLOAD PUSH3 0x461BCD PUSH1 0xE5 SHL DUP2 MSTORE PUSH1 0x20 PUSH1 0x4 DUP3 ADD MSTORE PUSH1 0x14 PUSH1 0x24 DUP3 ADD MSTORE PUSH20 0x141BDBDB081B9BDD081A5B9A5D1A585B1A5E9959 PUSH1 0x62 SHL PUSH1 0x44 DUP3 ADD MSTORE PUSH1 0x64 SWAP1 REVERT JUMPDEST ISZERO PUSH2 0x21A3 JUMPI JUMP JUMPDEST PUSH1 0x40 MLOAD PUSH3 0x461BCD PUSH1 0xE5 SHL DUP2 MSTORE PUSH1 0x20 PUSH1 0x4 DUP3 ADD MSTORE PUSH1 0x10 PUSH1 0x24 DUP3 ADD MSTORE PUSH16 0x139BC812109054881C1C9BDD9A591959 PUSH1 0x82 SHL PUSH1 0x44 DUP3 ADD MSTORE PUSH1 0x64 SWAP1 REVERT JUMPDEST ISZERO PUSH2 0x21E2 JUMPI JUMP JUMPDEST PUSH1 0x40 MLOAD PUSH3 0x461BCD PUSH1 0xE5 SHL DUP2 MSTORE PUSH1 0x20 PUSH1 0x4 DUP3 ADD MSTORE PUSH1 0x11 PUSH1 0x24 DUP3 ADD MSTORE PUSH17 0x14DB1A5C1C1859D948195E18D959591959 PUSH1 0x7A SHL PUSH1 0x44 DUP3 ADD MSTORE PUSH1 0x64 SWAP1 REVERT JUMPDEST SWAP2 SWAP1 DUP3 ADD DUP1 SWAP3 GT PUSH2 0x2228 JUMPI JUMP JUMPDEST PUSH4 0x4E487B71 PUSH1 0xE0 SHL PUSH1 0x0 MSTORE PUSH1 0x11 PUSH1 0x4 MSTORE PUSH1 0x24 PUSH1 0x0 REVERT JUMPDEST ISZERO PUSH2 0x2245 JUMPI JUMP JUMPDEST PUSH1 0x40 MLOAD PUSH3 0x461BCD PUSH1 0xE5 SHL DUP2 MSTORE PUSH1 0x20 PUSH1 0x4 DUP3 ADD MSTORE PUSH1 0x21 PUSH1 0x24 DUP3 ADD MSTORE PUSH32 0x55534420616D6F756E74206D7573742062652067726561746572207468616E20 PUSH1 0x44 DUP3 ADD MSTORE PUSH1 0x3 PUSH1 0xFC SHL PUSH1 0x64 DUP3 ADD MSTORE PUSH1 0x84 SWAP1 REVERT JUMPDEST ISZERO PUSH2 0x229B JUMPI JUMP JUMPDEST PUSH1 0x40 MLOAD PUSH3 0x461BCD PUSH1 0xE5 SHL DUP2 MSTORE PUSH1 0x20 PUSH1 0x4 DUP3 ADD MSTORE PUSH1 0x28 PUSH1 0x24 DUP3 ADD MSTORE PUSH32 0x4D617475726174696F6E20616D6F756E74206D75737420626520677265617465 PUSH1 0x44 DUP3 ADD MSTORE PUSH8 0x72207468616E203 PUSH1 0xC4 SHL PUSH1 0x64 DUP3 ADD MSTORE PUSH1 0x84 SWAP1 REVERT JUMPDEST DUP2 DUP2 MUL SWAP3 SWAP2 DUP2 ISZERO SWAP2 DUP5 DIV EQ OR ISZERO PUSH2 0x2228 JUMPI JUMP JUMPDEST SWAP2 SWAP1 DUP3 SUB SWAP2 DUP3 GT PUSH2 0x2228 JUMPI JUMP JUMPDEST SWAP1 DUP2 MLOAD DUP1 DUP3 MSTORE PUSH1 0x20 DUP1 DUP1 SWAP4 ADD SWAP4 ADD SWAP2 PUSH1 0x0 JUMPDEST DUP3 DUP2 LT PUSH2 0x2331 JUMPI POP POP POP POP SWAP1 JUMP JUMPDEST DUP4 MLOAD PUSH1 0x7 SIGNEXTEND DUP6 MSTORE SWAP4 DUP2 ADD SWAP4 SWAP3 DUP2 ADD SWAP3 PUSH1 0x1 ADD PUSH2 0x2323 JUMP JUMPDEST RETURNDATASIZE ISZERO PUSH2 0x2373 JUMPI RETURNDATASIZE SWAP1 PUSH2 0x2359 DUP3 PUSH2 0x1DE1 JUMP JUMPDEST SWAP2 PUSH2 0x2367 PUSH1 0x40 MLOAD SWAP4 DUP5 PUSH2 0x1DC0 JUMP JUMPDEST DUP3 MSTORE RETURNDATASIZE PUSH1 0x0 PUSH1 0x20 DUP5 ADD RETURNDATACOPY JUMP JUMPDEST PUSH1 0x60 SWAP1 JUMP JUMPDEST PUSH1 0x6 SLOAD SWAP1 DUP2 ISZERO PUSH2 0x2398 JUMPI PUSH2 0x1E4E SWAP2 PUSH2 0x238F SWAP2 PUSH2 0x22F1 JUMP JUMPDEST PUSH1 0x5 SLOAD SWAP1 PUSH2 0x20F8 JUMP JUMPDEST POP POP PUSH1 0x0 SWAP1 JUMP JUMPDEST SWAP1 DUP2 ISZERO PUSH2 0x23AC DUP2 ISZERO PUSH2 0x223E JUMP JUMPDEST PUSH2 0x23B7 DUP3 ISZERO ISZERO PUSH2 0x2294 JUMP JUMPDEST PUSH3 0xF4240 DUP1 DUP5 MUL SWAP4 DUP5 DIV EQ OR ISZERO PUSH2 0x2228 JUMPI PUSH2 0x1E4E SWAP2 PUSH2 0x20F8 JUMP JUMPDEST PUSH1 0x6 SLOAD DUP1 ISZERO PUSH2 0x2398 JUMPI PUSH2 0x5CE PUSH2 0x1E4E SWAP3 PUSH1 0x5 SLOAD SWAP1 PUSH2 0x22F1 JUMP JUMPDEST PUSH1 0xFF PUSH1 0xA SLOAD PUSH1 0xA8 SHR AND ISZERO PUSH2 0x243D JUMPI PUSH1 0x6 SLOAD PUSH1 0x0 SWAP2 DUP2 ISZERO PUSH2 0x2432 JUMPI PUSH2 0x2414 DUP3 PUSH2 0x5CE PUSH1 0x5 SLOAD DUP7 PUSH2 0x22F1 JUMP JUMPDEST SWAP2 PUSH2 0x2710 SWAP1 DUP2 DUP6 MUL SWAP2 DUP6 DUP4 DIV EQ DUP6 ISZERO OR ISZERO PUSH2 0x2228 JUMPI PUSH2 0x1E4E SWAP2 PUSH2 0x20F8 JUMP JUMPDEST PUSH1 0x0 SWAP3 POP DUP3 SWAP2 POP DUP2 SWAP1 JUMP JUMPDEST PUSH1 0x0 SWAP1 PUSH1 0x0 SWAP1 PUSH1 0x0 SWAP1 JUMP JUMPDEST PUSH1 0x6 SLOAD DUP1 ISZERO PUSH2 0x2460 JUMPI PUSH2 0x1E4E SWAP1 PUSH1 0x64 PUSH1 0x7 SLOAD DIV PUSH2 0x20F8 JUMP JUMPDEST POP PUSH1 0x0 SWAP1 JUMP JUMPDEST PUSH1 0xFF PUSH1 0xA SLOAD PUSH1 0xA8 SHR AND ISZERO DUP1 ISZERO PUSH2 0x2499 JUMPI JUMPDEST PUSH2 0x2494 JUMPI PUSH1 0x7 SLOAD ISZERO PUSH1 0x1 OR ISZERO PUSH2 0x2228 JUMPI PUSH1 0x6 SLOAD ISZERO PUSH2 0x2102 JUMPI PUSH1 0x0 SWAP1 JUMP JUMPDEST PUSH1 0x0 SWAP1 JUMP JUMPDEST POP PUSH1 0x6 SLOAD ISZERO PUSH2 0x2477 JUMP JUMPDEST DUP1 PUSH1 0x3 SIGNEXTEND SWAP1 PUSH1 0x16 DUP3 EQ PUSH2 0x2FAB JUMPI PUSH1 0x9 DUP3 EQ PUSH2 0x2F56 JUMPI PUSH1 0xA DUP3 EQ PUSH2 0x2EF5 JUMPI PUSH1 0x7 DUP3 EQ PUSH2 0x2E9D JUMPI PUSH1 0xF DUP3 EQ PUSH2 0x2E3C JUMPI PUSH1 0x10 DUP3 EQ PUSH2 0x2DDB JUMPI PUSH1 0x1E DUP3 EQ PUSH2 0x2D8D JUMPI PUSH1 0x22 DUP3 EQ PUSH2 0x2D2C JUMPI PUSH1 0x6F DUP3 EQ PUSH2 0x2CDD JUMPI PUSH1 0xAA DUP3 EQ PUSH2 0x2C7C JUMPI PUSH1 0xAB DUP3 EQ PUSH2 0x2C2A JUMPI PUSH1 0xAE DUP3 EQ PUSH2 0x2BD6 JUMPI PUSH1 0xAF DUP3 EQ PUSH2 0x2B75 JUMPI PUSH1 0xBE DUP3 EQ PUSH2 0x2B25 JUMPI PUSH1 0xBF DUP3 EQ PUSH2 0x2ACC JUMPI PUSH1 0xA8 DUP3 EQ PUSH2 0x2A6B JUMPI PUSH1 0xA9 DUP3 EQ PUSH2 0x2A0A JUMPI PUSH1 0xBD DUP3 EQ PUSH2 0x29BC JUMPI PUSH1 0x9B DUP3 EQ PUSH2 0x2970 JUMPI PUSH1 0x1A DUP3 EQ PUSH2 0x2926 JUMPI PUSH1 0x1B DUP3 EQ PUSH2 0x28DC JUMPI PUSH1 0x26 DUP3 EQ PUSH2 0x2883 JUMPI PUSH1 0x40 SWAP2 DUP3 DUP2 EQ PUSH2 0x282C JUMPI PUSH1 0x41 DUP2 EQ PUSH2 0x27C0 JUMPI PUSH2 0x117 DUP2 EQ PUSH2 0x2768 JUMPI PUSH2 0x145 DUP2 EQ PUSH2 0x2709 JUMPI PUSH2 0x146 DUP2 EQ PUSH2 0x26AA JUMPI PUSH2 0x147 DUP2 EQ PUSH2 0x2641 JUMPI PUSH2 0x148 EQ PUSH2 0x25ED JUMPI PUSH1 0x33 PUSH2 0x25AA PUSH4 0xFFFFFFFF PUSH2 0x1E4E SWAP4 AND PUSH2 0x2FD0 JUMP JUMPDEST SWAP3 MLOAD DUP1 SWAP4 PUSH19 0x554E4B4E4F574E5F4552524F525F434F44455F PUSH1 0x68 SHL PUSH1 0x20 DUP4 ADD MSTORE PUSH2 0x25DD DUP2 MLOAD DUP1 SWAP3 PUSH1 0x20 DUP7 DUP7 ADD SWAP2 ADD PUSH2 0x1E51 JUMP JUMPDEST DUP2 ADD SUB PUSH1 0x13 DUP2 ADD DUP5 MSTORE ADD DUP3 PUSH2 0x1DC0 JUMP JUMPDEST POP PUSH19 0x206D616E79206368696C64207265636F726473 PUSH1 0x68 SHL DUP2 MLOAD SWAP2 PUSH2 0x2611 DUP4 PUSH2 0x1D8A JUMP JUMPDEST PUSH1 0x33 DUP4 MSTORE PUSH32 0x4D41585F4348494C445F5245434F5244535F4558434545444544202D20546F6F PUSH1 0x20 DUP5 ADD MSTORE DUP3 ADD MSTORE SWAP1 JUMP JUMPDEST POP POP PUSH32 0x6666696369656E742062616C616E636520666F722073746F726167652072656E DUP2 MLOAD SWAP2 PUSH2 0x2670 DUP4 PUSH2 0x1DA5 JUMP JUMPDEST PUSH1 0x41 DUP4 MSTORE PUSH32 0x494E53554646494349454E545F53544F524147455F52454E54202D20496E7375 PUSH1 0x20 DUP5 ADD MSTORE DUP3 ADD MSTORE PUSH1 0x1D PUSH1 0xFA SHL PUSH1 0x60 DUP3 ADD MSTORE SWAP1 JUMP JUMPDEST POP POP PUSH32 0x6E76616C6964207369676E617475726520666F7220707265636F6D70696C6500 DUP2 MLOAD SWAP2 PUSH2 0x26D9 DUP4 PUSH2 0x1D8A JUMP JUMPDEST PUSH1 0x3F DUP4 MSTORE PUSH32 0x494E56414C49445F505245434F4D50494C455F5349474E4154555245202D2049 PUSH1 0x20 DUP5 ADD MSTORE DUP3 ADD MSTORE SWAP1 JUMP JUMPDEST POP POP PUSH32 0x6E74697469657320696E20707269636520726567696D65207265616368656400 DUP2 MLOAD SWAP2 PUSH2 0x2738 DUP4 PUSH2 0x1D8A JUMP JUMPDEST PUSH1 0x3F DUP4 MSTORE PUSH32 0x4D41585F454E5449544945535F43524541544544202D204D6178696D756D2065 PUSH1 0x20 DUP5 ADD MSTORE DUP3 ADD MSTORE SWAP1 JUMP JUMPDEST POP POP PUSH22 0x1CDD5CC81B9BD9194819D85CC8195E1A185D5CDD1959 PUSH1 0x52 SHL DUP2 MLOAD SWAP2 PUSH2 0x2790 DUP4 PUSH2 0x1D8A JUMP JUMPDEST PUSH1 0x36 DUP4 MSTORE PUSH32 0x434F4E53454E5355535F4741535F455848415553544544202D20436F6E73656E PUSH1 0x20 DUP5 ADD MSTORE DUP3 ADD MSTORE SWAP1 JUMP JUMPDEST POP POP PUSH32 0x616E73616374696F6E2068617320746F6F206D616E79206E6573746564206C61 DUP2 MLOAD SWAP2 PUSH2 0x27EF DUP4 PUSH2 0x1DA5 JUMP JUMPDEST PUSH1 0x44 DUP4 MSTORE PUSH32 0x5452414E53414354494F4E5F544F4F5F4D414E595F4C4159455253202D205472 PUSH1 0x20 DUP5 ADD MSTORE DUP3 ADD MSTORE PUSH4 0x79657273 PUSH1 0xE0 SHL PUSH1 0x60 DUP3 ADD MSTORE SWAP1 JUMP JUMPDEST POP POP PUSH21 0x1BDB88195E18D959591CC81CDA5E99481B1A5B5A5D PUSH1 0x5A SHL DUP2 MLOAD SWAP2 PUSH2 0x2853 DUP4 PUSH2 0x1D8A JUMP JUMPDEST PUSH1 0x35 DUP4 MSTORE PUSH32 0x5452414E53414354494F4E5F4F56455253495A45202D205472616E7361637469 PUSH1 0x20 DUP5 ADD MSTORE DUP3 ADD MSTORE SWAP1 JUMP JUMPDEST POP POP PUSH1 0x40 MLOAD PUSH2 0x2891 DUP2 PUSH2 0x1D8A JUMP JUMPDEST PUSH1 0x35 DUP2 MSTORE PUSH32 0x494E56414C49445F4B45595F454E434F44494E47202D204B657920656E636F64 PUSH1 0x20 DUP3 ADD MSTORE PUSH21 0x1A5B99C8199BDC9B585D081A5CC81A5B9D985B1A59 PUSH1 0x5A SHL PUSH1 0x40 DUP3 ADD MSTORE SWAP1 JUMP JUMPDEST POP POP PUSH1 0x40 MLOAD PUSH2 0x28EA DUP2 PUSH2 0x1D8A JUMP JUMPDEST PUSH1 0x26 DUP2 MSTORE PUSH32 0x4241445F454E434F44494E47202D204B657920656E636F64696E672069732069 PUSH1 0x20 DUP3 ADD MSTORE PUSH6 0x1B9D985B1A59 PUSH1 0xD2 SHL PUSH1 0x40 DUP3 ADD MSTORE SWAP1 JUMP JUMPDEST POP POP PUSH1 0x40 MLOAD PUSH2 0x2934 DUP2 PUSH2 0x1D8A JUMP JUMPDEST PUSH1 0x26 DUP2 MSTORE PUSH32 0x4B45595F5245515549524544202D205265717569726564206B6579206973206D PUSH1 0x20 DUP3 ADD MSTORE PUSH6 0x697373696E67 PUSH1 0xD0 SHL PUSH1 0x40 DUP3 ADD MSTORE SWAP1 JUMP JUMPDEST POP POP PUSH1 0x40 MLOAD PUSH2 0x297E DUP2 PUSH2 0x1D8A JUMP JUMPDEST PUSH1 0x28 DUP2 MSTORE PUSH32 0x494E56414C49445F41444D494E5F4B4559202D2041646D696E206B6579206973 PUSH1 0x20 DUP3 ADD MSTORE PUSH8 0x81A5B9D985B1A59 PUSH1 0xC2 SHL PUSH1 0x40 DUP3 ADD MSTORE SWAP1 JUMP JUMPDEST POP POP PUSH1 0x40 MLOAD PUSH2 0x29CA DUP2 PUSH2 0x1D8A JUMP JUMPDEST PUSH1 0x2A DUP2 MSTORE PUSH32 0x494E56414C49445F535550504C595F4B4559202D20537570706C79206B657920 PUSH1 0x20 DUP3 ADD MSTORE PUSH10 0x1A5CC81A5B9D985B1A59 PUSH1 0xB2 SHL PUSH1 0x40 DUP3 ADD MSTORE SWAP1 JUMP JUMPDEST POP POP PUSH1 0x40 MLOAD PUSH2 0x2A18 DUP2 PUSH2 0x1D8A JUMP JUMPDEST PUSH1 0x3E DUP2 MSTORE PUSH32 0x494E56414C49445F544F4B454E5F494E495449414C5F535550504C59202D2049 PUSH1 0x20 DUP3 ADD MSTORE PUSH32 0x6E697469616C20737570706C792076616C756520697320696E76616C69640000 PUSH1 0x40 DUP3 ADD MSTORE SWAP1 JUMP JUMPDEST POP POP PUSH1 0x40 MLOAD PUSH2 0x2A79 DUP2 PUSH2 0x1D8A JUMP JUMPDEST PUSH1 0x38 DUP2 MSTORE PUSH32 0x494E56414C49445F544F4B454E5F444543494D414C53202D20546F6B656E2064 PUSH1 0x20 DUP3 ADD MSTORE PUSH32 0x6563696D616C732076616C756520697320696E76616C69640000000000000000 PUSH1 0x40 DUP3 ADD MSTORE SWAP1 JUMP JUMPDEST POP POP PUSH1 0x40 MLOAD PUSH2 0x2ADA DUP2 PUSH2 0x1D8A JUMP JUMPDEST PUSH1 0x35 DUP2 MSTORE PUSH32 0x544F4B454E5F4E414D455F544F4F5F4C4F4E47202D20546F6B656E206E616D65 PUSH1 0x20 DUP3 ADD MSTORE PUSH21 0x8195E18D959591CC81B195B99DD1A081B1A5B5A5D PUSH1 0x5A SHL PUSH1 0x40 DUP3 ADD MSTORE SWAP1 JUMP JUMPDEST POP POP PUSH1 0x40 MLOAD PUSH2 0x2B33 DUP2 PUSH2 0x1D8A JUMP JUMPDEST PUSH1 0x2C DUP2 MSTORE PUSH32 0x4D495353494E475F544F4B454E5F4E414D45202D20546F6B656E206E616D6520 PUSH1 0x20 DUP3 ADD MSTORE PUSH12 0x1B9BDD081C1C9BDD9A591959 PUSH1 0xA2 SHL PUSH1 0x40 DUP3 ADD MSTORE SWAP1 JUMP JUMPDEST POP POP PUSH1 0x40 MLOAD PUSH2 0x2B83 DUP2 PUSH2 0x1D8A JUMP JUMPDEST PUSH1 0x39 DUP2 MSTORE PUSH32 0x544F4B454E5F53594D424F4C5F544F4F5F4C4F4E47202D20546F6B656E207379 PUSH1 0x20 DUP3 ADD MSTORE PUSH32 0x6D626F6C2065786365656473206C656E677468206C696D697400000000000000 PUSH1 0x40 DUP3 ADD MSTORE SWAP1 JUMP JUMPDEST POP POP PUSH1 0x40 MLOAD PUSH2 0x2BE4 DUP2 PUSH2 0x1D8A JUMP JUMPDEST PUSH1 0x30 DUP2 MSTORE PUSH32 0x4D495353494E475F544F4B454E5F53594D424F4C202D20546F6B656E2073796D PUSH1 0x20 DUP3 ADD MSTORE PUSH16 0x189BDB081B9BDD081C1C9BDD9A591959 PUSH1 0x82 SHL PUSH1 0x40 DUP3 ADD MSTORE SWAP1 JUMP JUMPDEST POP POP PUSH1 0x40 MLOAD PUSH2 0x2C38 DUP2 PUSH2 0x1D8A JUMP JUMPDEST PUSH1 0x2E DUP2 MSTORE PUSH32 0x494E56414C49445F544F4B454E5F53594D424F4C202D20546F6B656E2073796D PUSH1 0x20 DUP3 ADD MSTORE PUSH14 0x189BDB081A5CC81A5B9D985B1A59 PUSH1 0x92 SHL PUSH1 0x40 DUP3 ADD MSTORE SWAP1 JUMP JUMPDEST POP POP PUSH1 0x40 MLOAD PUSH2 0x2C8A DUP2 PUSH2 0x1D8A JUMP JUMPDEST PUSH1 0x3D DUP2 MSTORE PUSH32 0x494E56414C49445F54524541535552595F4143434F554E545F464F525F544F4B PUSH1 0x20 DUP3 ADD MSTORE PUSH32 0x454E202D205472656173757279206163636F756E7420696E76616C6964000000 PUSH1 0x40 DUP3 ADD MSTORE SWAP1 JUMP JUMPDEST POP POP PUSH1 0x40 MLOAD PUSH2 0x2CEB DUP2 PUSH2 0x1D8A JUMP JUMPDEST PUSH1 0x2B DUP2 MSTORE PUSH32 0x4D41585F4741535F4C494D49545F4558434545444544202D20476173206C696D PUSH1 0x20 DUP3 ADD MSTORE PUSH11 0x1A5D08195E18D959591959 PUSH1 0xAA SHL PUSH1 0x40 DUP3 ADD MSTORE SWAP1 JUMP JUMPDEST POP POP PUSH1 0x40 MLOAD PUSH2 0x2D3A DUP2 PUSH2 0x1D8A JUMP JUMPDEST PUSH1 0x38 DUP2 MSTORE PUSH32 0x434F4E54524143545F455845435554494F4E5F455843455054494F4E202D2043 PUSH1 0x20 DUP3 ADD MSTORE PUSH32 0x6F6E747261637420657865637574696F6E206661696C65640000000000000000 PUSH1 0x40 DUP3 ADD MSTORE SWAP1 JUMP JUMPDEST POP POP PUSH1 0x40 MLOAD PUSH2 0x2D9B DUP2 PUSH2 0x1D8A JUMP JUMPDEST PUSH1 0x2A DUP2 MSTORE PUSH32 0x494E53554646494349454E545F474153202D204E6F7420656E6F756768206761 PUSH1 0x20 DUP3 ADD MSTORE PUSH10 0x1CC81CDD5C1C1B1A5959 PUSH1 0xB2 SHL PUSH1 0x40 DUP3 ADD MSTORE SWAP1 JUMP JUMPDEST POP POP PUSH1 0x40 MLOAD PUSH2 0x2DE9 DUP2 PUSH2 0x1D8A JUMP JUMPDEST PUSH1 0x3E DUP2 MSTORE PUSH32 0x494E56414C49445F434F4E54524143545F4944202D20436F6E74726163742049 PUSH1 0x20 DUP3 ADD MSTORE PUSH32 0x4420697320696E76616C6964206F7220646F6573206E6F742065786973740000 PUSH1 0x40 DUP3 ADD MSTORE SWAP1 JUMP JUMPDEST POP POP PUSH1 0x40 MLOAD PUSH2 0x2E4A DUP2 PUSH2 0x1D8A JUMP JUMPDEST PUSH1 0x3C DUP2 MSTORE PUSH32 0x494E56414C49445F4143434F554E545F4944202D204163636F756E7420494420 PUSH1 0x20 DUP3 ADD MSTORE PUSH32 0x697320696E76616C6964206F7220646F6573206E6F7420657869737400000000 PUSH1 0x40 DUP3 ADD MSTORE SWAP1 JUMP JUMPDEST POP POP PUSH1 0x40 MLOAD PUSH2 0x2EAB DUP2 PUSH2 0x1D8A JUMP JUMPDEST PUSH1 0x34 DUP2 MSTORE PUSH32 0x494E56414C49445F5349474E4154555245202D205472616E73616374696F6E20 PUSH1 0x20 DUP3 ADD MSTORE PUSH20 0x1CDA59DB985D1D5C99481A5CC81A5B9D985B1A59 PUSH1 0x62 SHL PUSH1 0x40 DUP3 ADD MSTORE SWAP1 JUMP JUMPDEST POP POP PUSH1 0x40 MLOAD PUSH2 0x2F03 DUP2 PUSH2 0x1D8A JUMP JUMPDEST PUSH1 0x40 DUP2 MSTORE PUSH32 0x494E53554646494349454E545F50415945525F42414C414E4345202D20506179 PUSH1 0x20 DUP3 ADD MSTORE PUSH32 0x6572206163636F756E742068617320696E73756666696369656E742048424152 PUSH1 0x40 DUP3 ADD MSTORE SWAP1 JUMP JUMPDEST POP POP PUSH1 0x40 MLOAD PUSH2 0x2F64 DUP2 PUSH2 0x1D8A JUMP JUMPDEST PUSH1 0x31 DUP2 MSTORE PUSH32 0x494E53554646494349454E545F54585F464545202D204E6F7420656E6F756768 PUSH1 0x20 DUP3 ADD MSTORE PUSH17 0x819D85CCBD99959481C1C9BDD9A591959 PUSH1 0x7A SHL PUSH1 0x40 DUP3 ADD MSTORE SWAP1 JUMP JUMPDEST POP POP PUSH1 0x40 MLOAD PUSH2 0x2FB9 DUP2 PUSH2 0x1D39 JUMP JUMPDEST PUSH1 0x7 DUP2 MSTORE PUSH7 0x53554343455353 PUSH1 0xC8 SHL PUSH1 0x20 DUP3 ADD MSTORE SWAP1 JUMP JUMPDEST DUP1 ISZERO PUSH2 0x3094 JUMPI DUP1 DUP2 PUSH1 0x0 SWAP3 JUMPDEST PUSH2 0x307C JUMPI POP DUP1 PUSH2 0x2FEB DUP4 PUSH2 0x1DE1 JUMP JUMPDEST SWAP3 PUSH2 0x2FF9 PUSH1 0x40 MLOAD SWAP5 DUP6 PUSH2 0x1DC0 JUMP JUMPDEST DUP1 DUP5 MSTORE PUSH1 0x1F NOT PUSH2 0x3008 DUP3 PUSH2 0x1DE1 JUMP JUMPDEST ADD CALLDATASIZE PUSH1 0x20 DUP7 ADD CALLDATACOPY SWAP2 JUMPDEST PUSH2 0x301A JUMPI POP POP SWAP1 JUMP JUMPDEST PUSH1 0x0 NOT DUP3 ADD SWAP2 DUP1 DUP4 GT PUSH2 0x2228 JUMPI DUP3 PUSH1 0xA SWAP1 DUP2 DUP5 DIV SWAP4 DUP3 DUP6 MUL SWAP3 DUP6 DUP5 DIV EQ DUP6 ISZERO OR ISZERO PUSH2 0x2228 JUMPI PUSH2 0x304C PUSH1 0xFF SWAP4 DUP5 SWAP3 PUSH2 0x2304 JUMP JUMPDEST AND PUSH1 0x30 ADD SWAP2 DUP3 GT PUSH2 0x2228 JUMPI DUP6 MLOAD GT ISZERO PUSH2 0x20A2 JUMPI PUSH1 0xF8 SHL PUSH1 0x1 PUSH1 0x1 PUSH1 0xF8 SHL SUB NOT AND PUSH1 0x0 BYTE SWAP1 DUP5 ADD PUSH1 0x1F ADD MSTORE8 DUP1 PUSH2 0x3011 JUMP JUMPDEST SWAP2 PUSH1 0x0 NOT DUP2 EQ PUSH2 0x2228 JUMPI PUSH1 0x1 PUSH1 0xA SWAP2 ADD SWAP3 DIV DUP1 PUSH2 0x2FDC JUMP JUMPDEST POP PUSH1 0x40 MLOAD PUSH2 0x30A1 DUP2 PUSH2 0x1D39 JUMP JUMPDEST PUSH1 0x1 DUP2 MSTORE PUSH1 0x3 PUSH1 0xFC SHL PUSH1 0x20 DUP3 ADD MSTORE SWAP1 JUMP JUMPDEST PUSH1 0xFF PUSH1 0x2 SLOAD AND ISZERO PUSH2 0x30BF JUMPI JUMP JUMPDEST PUSH1 0x40 MLOAD PUSH4 0x8DFC202B PUSH1 0xE0 SHL DUP2 MSTORE PUSH1 0x4 SWAP1 REVERT JUMPDEST MLOAD SWAP1 DUP2 PUSH1 0x3 SIGNEXTEND DUP3 SUB PUSH2 0x258 JUMPI JUMP JUMPDEST MLOAD SWAP1 DUP2 PUSH1 0x7 SIGNEXTEND DUP3 SUB PUSH2 0x258 JUMPI JUMP JUMPDEST SWAP1 PUSH1 0x40 SWAP3 DUP4 MLOAD SWAP1 PUSH1 0x20 SWAP4 DUP5 DUP4 ADD SWAP4 PUSH4 0x707A02CD PUSH1 0xE1 SHL DUP6 MSTORE PUSH1 0x84 DUP5 ADD SWAP2 PUSH1 0x1 DUP1 PUSH1 0xA0 SHL SUB AND PUSH1 0x24 DUP6 ADD MSTORE PUSH1 0x7 SIGNEXTEND PUSH1 0x44 DUP5 ADD MSTORE PUSH1 0x60 PUSH1 0x64 DUP5 ADD MSTORE DUP2 MLOAD DUP1 SWAP2 MSTORE PUSH1 0xA4 DUP4 ADD SWAP1 DUP6 PUSH1 0xA4 DUP3 PUSH1 0x5 SHL DUP7 ADD ADD SWAP4 ADD SWAP2 PUSH1 0x0 SWAP1 JUMPDEST DUP8 DUP4 DUP4 LT PUSH2 0x324E JUMPI POP POP POP POP POP SWAP2 DUP2 PUSH2 0x3167 PUSH1 0x0 SWAP5 SWAP4 DUP6 SWAP5 SUB PUSH1 0x1F NOT DUP2 ADD DUP4 MSTORE DUP3 PUSH2 0x1DC0 JUMP JUMPDEST MLOAD SWAP1 DUP3 PUSH2 0x167 GAS CALL SWAP1 PUSH2 0x3178 PUSH2 0x2348 JUMP JUMPDEST SWAP2 PUSH1 0x0 SWAP1 ISZERO PUSH2 0x322E JUMPI POP DUP2 MLOAD DUP3 ADD SWAP1 PUSH1 0x60 DUP4 DUP3 DUP5 ADD SWAP4 SUB SLT PUSH2 0x258 JUMPI PUSH2 0x319F DUP2 DUP5 ADD PUSH2 0x30D1 JUMP JUMPDEST SWAP2 PUSH2 0x31AB DUP6 DUP6 ADD PUSH2 0x30DF JUMP JUMPDEST SWAP5 PUSH1 0x60 DUP6 ADD MLOAD PUSH1 0x1 PUSH1 0x1 PUSH1 0x40 SHL SUB SWAP6 DUP7 DUP3 GT PUSH2 0x258 JUMPI ADD SWAP1 DUP3 PUSH1 0x3F DUP4 ADD SLT ISZERO PUSH2 0x258 JUMPI DUP4 DUP3 ADD MLOAD SWAP6 DUP7 GT PUSH2 0x1689 JUMPI DUP6 PUSH1 0x5 SHL SWAP2 DUP2 MLOAD SWAP7 PUSH2 0x31ED DUP7 DUP6 ADD DUP10 PUSH2 0x1DC0 JUMP JUMPDEST DUP8 MSTORE DUP2 DUP6 DUP9 ADD SWAP4 DUP3 ADD ADD SWAP4 DUP5 GT PUSH2 0x258 JUMPI ADD SWAP1 JUMPDEST DUP3 DUP3 LT PUSH2 0x3217 JUMPI POP POP POP POP SWAP2 SWAP1 JUMPDEST SWAP1 SWAP2 PUSH1 0x3 SIGNEXTEND SWAP3 JUMP JUMPDEST DUP4 DUP1 SWAP2 PUSH2 0x3223 DUP5 PUSH2 0x30DF JUMP JUMPDEST DUP2 MSTORE ADD SWAP2 ADD SWAP1 PUSH2 0x3201 JUMP JUMPDEST SWAP3 SWAP2 POP POP MLOAD SWAP1 PUSH2 0x323D DUP3 PUSH2 0x1D6F JUMP JUMPDEST DUP1 DUP3 MSTORE CALLDATASIZE DUP2 CALLDATACOPY PUSH1 0x15 SWAP1 PUSH1 0x0 SWAP1 PUSH2 0x320F JUMP JUMPDEST DUP1 PUSH2 0x3269 PUSH1 0x1 SWAP4 SWAP5 SWAP6 SWAP7 SWAP8 PUSH1 0xA3 NOT DUP11 DUP3 SUB ADD DUP7 MSTORE DUP9 MLOAD PUSH2 0x1E74 JUMP JUMPDEST SWAP7 ADD SWAP3 ADD SWAP3 ADD SWAP1 SWAP3 SWAP2 PUSH2 0x3141 JUMP JUMPDEST PUSH1 0x40 MLOAD PUSH4 0xECA36917 PUSH1 0xE0 SHL PUSH1 0x20 DUP3 ADD SWAP1 DUP2 MSTORE PUSH1 0x1 PUSH1 0x1 PUSH1 0xA0 SHL SUB SWAP3 DUP4 AND PUSH1 0x24 DUP4 ADD MSTORE SWAP3 DUP3 AND PUSH1 0x44 DUP3 ADD MSTORE SWAP3 AND PUSH1 0x64 DUP4 ADD MSTORE PUSH1 0x7 SWAP3 SWAP1 SWAP3 SIGNEXTEND PUSH1 0x84 DUP1 DUP4 ADD SWAP2 SWAP1 SWAP2 MSTORE DUP2 MSTORE PUSH1 0xC0 DUP2 ADD PUSH1 0x1 PUSH1 0x1 PUSH1 0x40 SHL SUB DUP2 GT DUP3 DUP3 LT OR PUSH2 0x1689 JUMPI PUSH1 0x40 MSTORE PUSH1 0x0 DUP1 SWAP3 DUP2 SWAP3 MLOAD SWAP1 DUP3 PUSH2 0x167 GAS CALL SWAP1 PUSH2 0x32E9 PUSH2 0x2348 JUMP JUMPDEST SWAP2 ISZERO PUSH2 0x3312 JUMPI PUSH1 0x20 DUP3 DUP1 MLOAD DUP2 ADD SUB SLT PUSH2 0x330F JUMPI POP PUSH1 0x20 PUSH2 0x3309 SWAP2 ADD PUSH2 0x30D1 JUMP JUMPDEST PUSH1 0x3 SIGNEXTEND SWAP1 JUMP JUMPDEST DUP1 REVERT JUMPDEST POP POP PUSH1 0x15 PUSH2 0x3309 JUMP INVALID RETURN 0xF7 0xA9 INVALID CALLDATASIZE 0x4F 0xAA 0xB9 EXTCODESIZE 0x21 PUSH14 0xA50A3214154F22A0A2B415B23A84 0xC8 AND SWAP15 DUP12 PUSH4 0x6EE36E15 BLOCKHASH OR SHL PUSH13 0xC960B71A7020D9F60077F6AF9 BALANCE 0xA8 0xBB CREATE2 SWAP1 0xDA MUL 0x23 0xDA 0xCF PUSH22 0xC7AFA264697066735822122064820E260025386CED0A EXTCODECOPY PUSH15 0xF3CF16DB4B1A11B1466C1123C87862 0xD8 PUSH17 0x90B4E064736F6C63430008140033000000 "},"methodIdentifiers":{"FEE_BPS()":"bf333f2c","FEE_DENOMINATOR()":"d73792a9","MIN_LIQUIDITY()":"21b77d63","addLiquidity(uint256)":"51c6590a","addLiquidityWithUSD(uint256,uint256,uint256)":"545466a5","calculateCSLPFromUSD(uint256,uint256)":"b79c41a2","calculateHBAR(uint256)":"34111bbf","calculateLPTokens(uint256)":"42c649de","createLPToken(string,string)":"4edec1ff","emergencyWithdraw()":"db2e21bc","getErrorMessage(int32)":"be591129","getPoolInfo()":"60246c88","getTokenInfo()":"abb1dc44","getUserShare(address)":"bbbaee4c","getUserValue(address)":"a78c849b","getValuePerLPToken()":"2fb9125d","initializePool()":"250e6de0","isTokenCreated()":"185c112a","lpToken()":"5fcbd285","owner()":"8da5cb5b","pause()":"8456cb59","paused()":"5c975abb","redirectForToken(address,bytes)":"618dc65e","removeLiquidity(uint256,uint256)":"9d7de6b3","renounceOwnership()":"715018a6","tokenInfo()":"6addb663","totalHBAR()":"28999437","totalLPTokens()":"ef6283d9","totalValue()":"d4c3eea0","transferFrom(address,address,address,uint256)":"15dacbea","transferFromNFT(address,address,address,uint256)":"9b23d3d9","transferOwnership(address)":"f2fde38b","unpause()":"3f4ba83a"}}}}}