{"contracts/ClearSkyLiquidityPoolV3.sol":{"ClearSkyLiquidityPoolV3":{"abi":[{"inputs":[{"internalType":"address","name":"_owner","type":"address"}],"stateMutability":"nonpayable","type":"constructor"},{"inputs":[],"name":"EnforcedPause","type":"error"},{"inputs":[],"name":"ExpectedPause","type":"error"},{"inputs":[],"name":"InsufficientHBAR","type":"error"},{"inputs":[],"name":"InsufficientInitialLiquidity","type":"error"},{"inputs":[],"name":"InsufficientLPBalance","type":"error"},{"inputs":[],"name":"InvalidAmounts","type":"error"},{"inputs":[],"name":"NoLiquidityProvided","type":"error"},{"inputs":[{"internalType":"address","name":"owner","type":"address"}],"name":"OwnableInvalidOwner","type":"error"},{"inputs":[{"internalType":"address","name":"account","type":"address"}],"name":"OwnableUnauthorizedAccount","type":"error"},{"inputs":[],"name":"PoolAlreadyInitialized","type":"error"},{"inputs":[],"name":"PoolNotActive","type":"error"},{"inputs":[],"name":"ReentrancyGuardReentrantCall","type":"error"},{"inputs":[],"name":"SlippageExceeded","type":"error"},{"inputs":[],"name":"TokenAlreadyCreated","type":"error"},{"inputs":[{"internalType":"int32","name":"responseCode","type":"int32"}],"name":"TokenCreationFailed","type":"error"},{"inputs":[],"name":"TokenNotCreated","type":"error"},{"anonymous":false,"inputs":[{"indexed":false,"internalType":"bool","name":"","type":"bool"},{"indexed":false,"internalType":"bytes","name":"","type":"bytes"}],"name":"CallResponseEvent","type":"event"},{"anonymous":false,"inputs":[{"indexed":true,"internalType":"address","name":"owner","type":"address"},{"indexed":false,"internalType":"uint256","name":"fcdrId","type":"uint256"},{"indexed":false,"internalType":"uint256","name":"hbarAmount","type":"uint256"},{"indexed":false,"internalType":"uint256","name":"timestamp","type":"uint256"}],"name":"FCDRMinted","type":"event"},{"anonymous":false,"inputs":[{"indexed":true,"internalType":"address","name":"tokenAddress","type":"address"},{"indexed":false,"internalType":"string","name":"name","type":"string"},{"indexed":false,"internalType":"string","name":"symbol","type":"string"},{"indexed":false,"internalType":"uint8","name":"decimals","type":"uint8"},{"indexed":false,"internalType":"address","name":"treasury","type":"address"}],"name":"FCDRTokenCreated","type":"event"},{"anonymous":false,"inputs":[{"indexed":true,"internalType":"address","name":"collector","type":"address"},{"indexed":false,"internalType":"uint256","name":"hbarAmount","type":"uint256"},{"indexed":false,"internalType":"uint256","name":"timestamp","type":"uint256"}],"name":"FeesCollected","type":"event"},{"anonymous":false,"inputs":[{"indexed":true,"internalType":"address","name":"token","type":"address"},{"indexed":true,"internalType":"address","name":"account","type":"address"}],"name":"HTSAssociateAttempt","type":"event"},{"anonymous":false,"inputs":[{"indexed":true,"internalType":"address","name":"token","type":"address"},{"indexed":true,"internalType":"address","name":"account","type":"address"},{"indexed":false,"internalType":"string","name":"reason","type":"string"}],"name":"HTSAssociateSkipped","type":"event"},{"anonymous":false,"inputs":[{"indexed":true,"internalType":"address","name":"token","type":"address"},{"indexed":true,"internalType":"address","name":"account","type":"address"}],"name":"HTSAssociateSuccess","type":"event"},{"anonymous":false,"inputs":[{"indexed":true,"internalType":"address","name":"token","type":"address"},{"indexed":false,"internalType":"int64","name":"amount","type":"int64"},{"indexed":false,"internalType":"int64[]","name":"serialNumbers","type":"int64[]"}],"name":"HTSBurnAttempt","type":"event"},{"anonymous":false,"inputs":[{"indexed":true,"internalType":"address","name":"token","type":"address"},{"indexed":false,"internalType":"int64","name":"amount","type":"int64"},{"indexed":false,"internalType":"int32","name":"responseCode","type":"int32"}],"name":"HTSBurnFailed","type":"event"},{"anonymous":false,"inputs":[{"indexed":true,"internalType":"address","name":"token","type":"address"},{"indexed":false,"internalType":"int64","name":"amount","type":"int64"},{"indexed":false,"internalType":"int64","name":"newTotalSupply","type":"int64"}],"name":"HTSBurnSuccess","type":"event"},{"anonymous":false,"inputs":[{"indexed":true,"internalType":"address","name":"token","type":"address"},{"indexed":true,"internalType":"address","name":"to","type":"address"},{"indexed":false,"internalType":"int64","name":"amount","type":"int64"}],"name":"HTSMintAttempt","type":"event"},{"anonymous":false,"inputs":[{"indexed":true,"internalType":"address","name":"token","type":"address"},{"indexed":true,"internalType":"address","name":"to","type":"address"},{"indexed":false,"internalType":"int64","name":"amount","type":"int64"},{"indexed":false,"internalType":"int32","name":"responseCode","type":"int32"}],"name":"HTSMintFailed","type":"event"},{"anonymous":false,"inputs":[{"indexed":true,"internalType":"address","name":"token","type":"address"},{"indexed":true,"internalType":"address","name":"to","type":"address"},{"indexed":false,"internalType":"int64","name":"amount","type":"int64"},{"indexed":false,"internalType":"int64","name":"newTotalSupply","type":"int64"}],"name":"HTSMintSuccess","type":"event"},{"anonymous":false,"inputs":[{"indexed":true,"internalType":"address","name":"token","type":"address"},{"indexed":true,"internalType":"address","name":"from","type":"address"},{"indexed":true,"internalType":"address","name":"to","type":"address"},{"indexed":false,"internalType":"int64","name":"amount","type":"int64"}],"name":"HTSTransferAttempt","type":"event"},{"anonymous":false,"inputs":[{"indexed":true,"internalType":"address","name":"token","type":"address"},{"indexed":true,"internalType":"address","name":"from","type":"address"},{"indexed":true,"internalType":"address","name":"to","type":"address"},{"indexed":false,"internalType":"int64","name":"amount","type":"int64"},{"indexed":false,"internalType":"int32","name":"responseCode","type":"int32"}],"name":"HTSTransferFailed","type":"event"},{"anonymous":false,"inputs":[{"indexed":true,"internalType":"address","name":"token","type":"address"},{"indexed":true,"internalType":"address","name":"from","type":"address"},{"indexed":true,"internalType":"address","name":"to","type":"address"},{"indexed":false,"internalType":"int64","name":"amount","type":"int64"}],"name":"HTSTransferSuccess","type":"event"},{"anonymous":false,"inputs":[{"indexed":true,"internalType":"address","name":"user","type":"address"},{"indexed":false,"internalType":"uint256","name":"hbarAmount","type":"uint256"},{"indexed":false,"internalType":"uint256","name":"lpTokensMinted","type":"uint256"},{"indexed":false,"internalType":"uint256","name":"timestamp","type":"uint256"}],"name":"LiquidityAdded","type":"event"},{"anonymous":false,"inputs":[{"indexed":true,"internalType":"address","name":"user","type":"address"},{"indexed":false,"internalType":"uint256","name":"hbarAmount","type":"uint256"},{"indexed":false,"internalType":"uint256","name":"lpTokensBurned","type":"uint256"},{"indexed":false,"internalType":"uint256","name":"timestamp","type":"uint256"}],"name":"LiquidityRemoved","type":"event"},{"anonymous":false,"inputs":[{"indexed":true,"internalType":"address","name":"previousOwner","type":"address"},{"indexed":true,"internalType":"address","name":"newOwner","type":"address"}],"name":"OwnershipTransferred","type":"event"},{"anonymous":false,"inputs":[{"indexed":false,"internalType":"address","name":"account","type":"address"}],"name":"Paused","type":"event"},{"anonymous":false,"inputs":[{"indexed":true,"internalType":"address","name":"tokenAddress","type":"address"},{"indexed":false,"internalType":"string","name":"name","type":"string"},{"indexed":false,"internalType":"string","name":"symbol","type":"string"},{"indexed":false,"internalType":"uint8","name":"decimals","type":"uint8"},{"indexed":false,"internalType":"address","name":"treasury","type":"address"}],"name":"TokenCreated","type":"event"},{"anonymous":false,"inputs":[{"indexed":false,"internalType":"int32","name":"responseCode","type":"int32"},{"indexed":false,"internalType":"string","name":"errorMessage","type":"string"}],"name":"TokenCreationFailedEvent","type":"event"},{"anonymous":false,"inputs":[{"indexed":false,"internalType":"address","name":"account","type":"address"}],"name":"Unpaused","type":"event"},{"stateMutability":"payable","type":"fallback"},{"inputs":[],"name":"FEE_BPS","outputs":[{"internalType":"uint256","name":"","type":"uint256"}],"stateMutability":"view","type":"function"},{"inputs":[],"name":"FEE_DENOMINATOR","outputs":[{"internalType":"uint256","name":"","type":"uint256"}],"stateMutability":"view","type":"function"},{"inputs":[],"name":"HBAR_withdrawal","outputs":[],"stateMutability":"nonpayable","type":"function"},{"inputs":[],"name":"MIN_LIQUIDITY","outputs":[{"internalType":"uint256","name":"","type":"uint256"}],"stateMutability":"view","type":"function"},{"inputs":[{"internalType":"uint256","name":"minLPTokens","type":"uint256"},{"internalType":"uint256","name":"usdAmount","type":"uint256"},{"internalType":"uint256","name":"maturationAmount","type":"uint256"},{"internalType":"uint256","name":"cslpTokensToMint","type":"uint256"}],"name":"addLiquidity","outputs":[],"stateMutability":"payable","type":"function"},{"inputs":[{"internalType":"uint256","name":"usdAmount","type":"uint256"},{"internalType":"uint256","name":"maturationAmount","type":"uint256"},{"internalType":"uint256","name":"minLPTokens","type":"uint256"}],"name":"addLiquidityWithUSD","outputs":[],"stateMutability":"payable","type":"function"},{"inputs":[{"internalType":"uint256","name":"fcdrId","type":"uint256"}],"name":"burnFCDR","outputs":[],"stateMutability":"nonpayable","type":"function"},{"inputs":[{"internalType":"uint256","name":"usdAmount","type":"uint256"},{"internalType":"uint256","name":"maturationAmount","type":"uint256"}],"name":"calculateCSLPFromUSD","outputs":[{"internalType":"uint256","name":"cslpTokens","type":"uint256"}],"stateMutability":"pure","type":"function"},{"inputs":[{"internalType":"uint256","name":"lpTokenAmount","type":"uint256"}],"name":"calculateHBAR","outputs":[{"internalType":"uint256","name":"hbarAmount","type":"uint256"}],"stateMutability":"view","type":"function"},{"inputs":[{"internalType":"uint256","name":"hbarAmount","type":"uint256"}],"name":"calculateLPTokens","outputs":[{"internalType":"uint256","name":"lpTokens","type":"uint256"}],"stateMutability":"view","type":"function"},{"inputs":[],"name":"createFCDRToken","outputs":[],"stateMutability":"payable","type":"function"},{"inputs":[{"internalType":"string","name":"_tokenName","type":"string"},{"internalType":"string","name":"_tokenSymbol","type":"string"}],"name":"createLPToken","outputs":[],"stateMutability":"payable","type":"function"},{"inputs":[],"name":"emergencyWithdraw","outputs":[],"stateMutability":"nonpayable","type":"function"},{"inputs":[{"internalType":"uint256","name":"","type":"uint256"}],"name":"fcdrMetadata","outputs":[{"internalType":"uint256","name":"hbarAmount","type":"uint256"},{"internalType":"uint256","name":"timestamp","type":"uint256"},{"internalType":"address","name":"ownerAddress","type":"address"},{"internalType":"address","name":"poolAddress","type":"address"},{"internalType":"uint256","name":"fcdrId","type":"uint256"}],"stateMutability":"view","type":"function"},{"inputs":[],"name":"fcdrToken","outputs":[{"internalType":"address","name":"","type":"address"}],"stateMutability":"view","type":"function"},{"inputs":[{"internalType":"int32","name":"responseCode","type":"int32"}],"name":"getErrorMessage","outputs":[{"internalType":"string","name":"errorMessage","type":"string"}],"stateMutability":"pure","type":"function"},{"inputs":[{"internalType":"uint256","name":"fcdrId","type":"uint256"}],"name":"getFCDRMetadata","outputs":[{"components":[{"internalType":"uint256","name":"hbarAmount","type":"uint256"},{"internalType":"uint256","name":"timestamp","type":"uint256"},{"internalType":"address","name":"ownerAddress","type":"address"},{"internalType":"address","name":"poolAddress","type":"address"},{"internalType":"uint256","name":"fcdrId","type":"uint256"}],"internalType":"struct ClearSkyLiquidityPoolV3.FCDRMetadata","name":"","type":"tuple"}],"stateMutability":"view","type":"function"},{"inputs":[{"internalType":"address","name":"owner","type":"address"}],"name":"getOwnerFCDRs","outputs":[{"internalType":"uint256[]","name":"","type":"uint256[]"}],"stateMutability":"view","type":"function"},{"inputs":[],"name":"getPoolInfo","outputs":[{"internalType":"uint256","name":"_totalHBAR","type":"uint256"},{"internalType":"uint256","name":"_totalLPTokens","type":"uint256"},{"internalType":"uint256","name":"_totalValue","type":"uint256"}],"stateMutability":"view","type":"function"},{"inputs":[{"internalType":"uint256","name":"purchaseId","type":"uint256"}],"name":"getPurchaseMetadata","outputs":[{"components":[{"internalType":"uint256","name":"hbarAmount","type":"uint256"},{"internalType":"uint256","name":"timestamp","type":"uint256"},{"internalType":"uint256","name":"numUsed","type":"uint256"},{"internalType":"uint256","name":"cslpTokensMinted","type":"uint256"},{"internalType":"address","name":"purchaser","type":"address"},{"internalType":"address","name":"lpAddress","type":"address"}],"internalType":"struct ClearSkyLiquidityPoolV3.PurchaseMetadata","name":"","type":"tuple"}],"stateMutability":"view","type":"function"},{"inputs":[],"name":"getTokenInfo","outputs":[{"components":[{"internalType":"string","name":"name","type":"string"},{"internalType":"string","name":"symbol","type":"string"},{"internalType":"uint8","name":"decimals","type":"uint8"},{"internalType":"address","name":"tokenAddress","type":"address"},{"internalType":"bool","name":"created","type":"bool"}],"internalType":"struct ClearSkyLiquidityPoolV3.TokenInfo","name":"","type":"tuple"}],"stateMutability":"view","type":"function"},{"inputs":[],"name":"getTotalFCDRs","outputs":[{"internalType":"uint256","name":"","type":"uint256"}],"stateMutability":"view","type":"function"},{"inputs":[],"name":"getTotalPurchases","outputs":[{"internalType":"uint256","name":"","type":"uint256"}],"stateMutability":"view","type":"function"},{"inputs":[{"internalType":"address","name":"user","type":"address"}],"name":"getUserPurchases","outputs":[{"internalType":"uint256[]","name":"","type":"uint256[]"}],"stateMutability":"view","type":"function"},{"inputs":[{"internalType":"address","name":"user","type":"address"}],"name":"getUserShare","outputs":[{"internalType":"uint256","name":"userLPBalance","type":"uint256"},{"internalType":"uint256","name":"userHBARValue","type":"uint256"},{"internalType":"uint256","name":"sharePercentage","type":"uint256"}],"stateMutability":"view","type":"function"},{"inputs":[{"internalType":"address","name":"user","type":"address"}],"name":"getUserValue","outputs":[{"internalType":"uint256","name":"userValue","type":"uint256"}],"stateMutability":"view","type":"function"},{"inputs":[],"name":"getValuePerLPToken","outputs":[{"internalType":"uint256","name":"valuePerToken","type":"uint256"}],"stateMutability":"view","type":"function"},{"inputs":[],"name":"initializePool","outputs":[],"stateMutability":"payable","type":"function"},{"inputs":[],"name":"isTokenCreated","outputs":[{"internalType":"bool","name":"created","type":"bool"}],"stateMutability":"view","type":"function"},{"inputs":[],"name":"lpToken","outputs":[{"internalType":"address","name":"","type":"address"}],"stateMutability":"view","type":"function"},{"inputs":[],"name":"owner","outputs":[{"internalType":"address","name":"","type":"address"}],"stateMutability":"view","type":"function"},{"inputs":[{"internalType":"address","name":"","type":"address"},{"internalType":"uint256","name":"","type":"uint256"}],"name":"ownerFCDRs","outputs":[{"internalType":"uint256","name":"","type":"uint256"}],"stateMutability":"view","type":"function"},{"inputs":[],"name":"pause","outputs":[],"stateMutability":"nonpayable","type":"function"},{"inputs":[],"name":"paused","outputs":[{"internalType":"bool","name":"","type":"bool"}],"stateMutability":"view","type":"function"},{"inputs":[{"internalType":"uint256","name":"","type":"uint256"}],"name":"purchaseMetadata","outputs":[{"internalType":"uint256","name":"hbarAmount","type":"uint256"},{"internalType":"uint256","name":"timestamp","type":"uint256"},{"internalType":"uint256","name":"numUsed","type":"uint256"},{"internalType":"uint256","name":"cslpTokensMinted","type":"uint256"},{"internalType":"address","name":"purchaser","type":"address"},{"internalType":"address","name":"lpAddress","type":"address"}],"stateMutability":"view","type":"function"},{"inputs":[{"internalType":"address","name":"token","type":"address"},{"internalType":"bytes","name":"encodedFunctionSelector","type":"bytes"}],"name":"redirectForToken","outputs":[{"internalType":"int256","name":"responseCode","type":"int256"},{"internalType":"bytes","name":"response","type":"bytes"}],"stateMutability":"nonpayable","type":"function"},{"inputs":[{"internalType":"uint256","name":"lpTokenAmount","type":"uint256"},{"internalType":"uint256","name":"minHBAR","type":"uint256"}],"name":"removeLiquidity","outputs":[],"stateMutability":"nonpayable","type":"function"},{"inputs":[],"name":"renounceOwnership","outputs":[],"stateMutability":"nonpayable","type":"function"},{"inputs":[],"name":"tokenInfo","outputs":[{"internalType":"string","name":"name","type":"string"},{"internalType":"string","name":"symbol","type":"string"},{"internalType":"uint8","name":"decimals","type":"uint8"},{"internalType":"address","name":"tokenAddress","type":"address"},{"internalType":"bool","name":"created","type":"bool"}],"stateMutability":"view","type":"function"},{"inputs":[],"name":"totalFCDRs","outputs":[{"internalType":"uint256","name":"","type":"uint256"}],"stateMutability":"view","type":"function"},{"inputs":[],"name":"totalHBAR","outputs":[{"internalType":"uint256","name":"","type":"uint256"}],"stateMutability":"view","type":"function"},{"inputs":[],"name":"totalLPTokens","outputs":[{"internalType":"uint256","name":"","type":"uint256"}],"stateMutability":"view","type":"function"},{"inputs":[],"name":"totalPurchases","outputs":[{"internalType":"uint256","name":"","type":"uint256"}],"stateMutability":"view","type":"function"},{"inputs":[],"name":"totalValue","outputs":[{"internalType":"uint256","name":"","type":"uint256"}],"stateMutability":"view","type":"function"},{"inputs":[{"internalType":"address","name":"token","type":"address"},{"internalType":"address","name":"from","type":"address"},{"internalType":"address","name":"to","type":"address"},{"internalType":"uint256","name":"amount","type":"uint256"}],"name":"transferFrom","outputs":[{"internalType":"int64","name":"responseCode","type":"int64"}],"stateMutability":"nonpayable","type":"function"},{"inputs":[{"internalType":"address","name":"token","type":"address"},{"internalType":"address","name":"from","type":"address"},{"internalType":"address","name":"to","type":"address"},{"internalType":"uint256","name":"serialNumber","type":"uint256"}],"name":"transferFromNFT","outputs":[{"internalType":"int64","name":"responseCode","type":"int64"}],"stateMutability":"nonpayable","type":"function"},{"inputs":[{"internalType":"address","name":"newOwner","type":"address"}],"name":"transferOwnership","outputs":[],"stateMutability":"nonpayable","type":"function"},{"inputs":[],"name":"unpause","outputs":[],"stateMutability":"nonpayable","type":"function"},{"inputs":[{"internalType":"address","name":"","type":"address"},{"internalType":"uint256","name":"","type":"uint256"}],"name":"userPurchases","outputs":[{"internalType":"uint256","name":"","type":"uint256"}],"stateMutability":"view","type":"function"},{"stateMutability":"payable","type":"receive"}],"evm":{"bytecode":{"linkReferences":{},"object":"6080346200054d57601f62004bd238819003918201601f19168301916001600160401b0383118484101762000436578084926020946040528339810103126200054d57516001600160a01b03808216918290036200054d57811562000534576000548260018060a01b0319821617600055167f8be0079c531659141344cd1fd0a4f28419497f9722a3daafe3b4186f6b6457e0600080a3600180805560028054610100600160a81b0319168155600360209081527f3617319a054d772f909f7c479a2cebe5066e836a939412e32403c99029b92eff929092557fa15bc60c955c405d20d9149c709e2460f1c2d9a497496a7f46004d1772c3054c5560047fc3a24b0501bd2c13a7e57f2db4369ec4c223447539fc0724a9d55ac4a06ebd4d5560087fcbc4e5fb02c3d1de23a9f1e014b4d2ee5aeaea9505df5e855c9210bf472495af5560107f83ec6a1f0257b830b5e016457c9cf1435391bf56cc98f369a58a54fe93772465557f405aad32e1adbac89bb7f176e338b8fc6e994ca210c9bb7bdca249b46594225055600660005260407fc69056f16cbaa3c616b828e333ab7d3a32310765507f8f58359e99ebb7a885f38190555160a081016001600160401b038111828210176200043657604052620001d862000552565b600081528152620001e862000552565b600081526020820152600060408201526000606082015260006080820152805190815160018060401b0381116200043657600854600181811c9116801562000529575b60208210146200041557601f8111620004c3575b50602092601f82116001146200045857928192936000926200044c575b50508160011b916000199060031b1c1916176008555b602081015180519091906001600160401b0381116200043657600954600181811c911680156200042b575b60208210146200041557601f8111620003ab575b50602092601f821160011462000340579281929360009262000334575b50508160011b916000199060031b1c1916176009555b60ff60408201511690600a5491610100600160a81b03606083015160081b1691608060ff60a81b910151151560a81b169260018060b01b031916171717600a5560405161465f9081620005738239f35b015190503880620002ce565b601f19821693600960005260206000209160005b86811062000392575083600195961062000378575b505050811b01600955620002e4565b015160001960f88460031b161c1916905538808062000369565b9192602060018192868501518155019401920162000354565b60096000527f6e1540171b6c0c960b71a7020d9f60077f6af931a8bbf590da0223dacf75c7af601f830160051c810191602084106200040a575b601f0160051c01905b818110620003fd5750620002b1565b60008155600101620003ee565b9091508190620003e5565b634e487b7160e01b600052602260045260246000fd5b90607f16906200029d565b634e487b7160e01b600052604160045260246000fd5b0151905038806200025c565b601f19821693600860005260206000209160005b868110620004aa575083600195961062000490575b505050811b0160085562000272565b015160001960f88460031b161c1916905538808062000481565b919260206001819286850151815501940192016200046c565b60086000527ff3f7a9fe364faab93b216da50a3214154f22a0a2b415b23a84c8169e8b636ee3601f830160051c81016020841062000521575b601f830160051c82018110620005145750506200023f565b60008155600101620004fc565b5080620004fc565b90607f16906200022b565b604051631e4fbdf760e01b815260006004820152602490fd5b600080fd5b60405190602082016001600160401b03811183821017620004365760405256fe6080806040526004361015610052575b5036156100505760405162461bcd60e51b8152602060048201526012602482015271119d5b98dd1a5bdb881b9bdd08199bdd5b9960721b6044820152606490fd5b005b60003560e01c9081630a5579d114612d065750806315dacbea14612cab578063185c112a14612c855780631cf2e69814612c0d57806321b77d6314612bef578063240f1b6214612b19578063250e6de01461290957806328999437146128eb5780632fb9125d146128d057806332acf78b146113ea57806334111bbf146128b25780633474d1f91461284557806338b37d1c146127e35780633f4ba83a1461278c57806342c649de1461276e5780634ddd1c54146126a55780634edec1ff14611f21578063545466a514611d5e5780635962a941146103265780635c975abb14611d3b5780635fcbd28514611d1257806360246c8814611ce0578063618dc65e14611bc45780636addb66314611b48578063715018a614611aef578063734c79b61461195b5780637d56be3c146119115780638456cb59146118b75780638da5cb5b1461188e5780639b23d3d9146117ee5780639d7de6b314611408578063a7112efe146113ea578063a78c849b146113c6578063abb1dc44146112e5578063aebf3e4114610ee1578063b79c41a214610ec0578063bbbaee4c14610e7e578063bc031c521461096a578063be5911291461092c578063bf333f2c14610910578063c6e5d8f614610888578063cf2c033414610830578063d4c3eea014610812578063d73792a9146107f5578063db2e21bc1461072b578063e783402914610344578063ea04f15514610326578063ef6283d9146103085763f2fde38b1461027a573861000f565b3461030357602036600319011261030357610293612d2a565b61029b6130e8565b6001600160a01b039081169081156102ea57600054826001600160601b0360a01b821617600055167f8be0079c531659141344cd1fd0a4f28419497f9722a3daafe3b4186f6b6457e0600080a3005b604051631e4fbdf760e01b815260006004820152602490fd5b600080fd5b34610303576000366003190112610303576020600654604051908152f35b34610303576000366003190112610303576020600d54604051908152f35b346103035760003660031901126103035761035d6130e8565b610365614267565b47610371811515614286565b600e546001600160a01b039081169190610395831515610390816142c8565b6142c8565b604051926103a284612e0d565b60008452604051936020948581019163707a02cd60e11b83526084820193602483015260019384604484015260606064840152815180915260a48301908860a48260051b8601019301916000905b878b848410610703578b8b836000808d8d610414818f03601f198101835282612e5e565b5190826101675af1610424613501565b90156106ec57805181016060828783019203126103035761044686830161434b565b9161045360408201614359565b506060810151906001600160401b038211610303570181603f820112156103035786810151604088610484836131a3565b61049083519182612e5e565b838152019160051b830101928311610303576040889201905b8382106106d557505050505b60030b6016810361065c57506000546011546040519260049285166104d985612dd7565b868552878501914283526040860191825260608601923084526080870194808652600052600f8a5260406000209651875551908601558560028601915116906001600160601b0360a01b91828254161790558560038601925116908254161790555191015580600054166000526010835261055b604060002060115490613461565b61056660115461349b565b80601155816000541660001982019182116106465760408051928352602083018590524290830152600091829182918291879181907fb5d1185f9eb3bc9f64976a0642fa385671626df86e9aecd91bcda7206b04566690606090a25af16105cb613501565b5015610608577f2e4fb6077d4acf86e12bb7411fb82b2b3eaa6a49787f4b1e17b423e7ea84116991604091600054169382519182524290820152a2005b60405162461bcd60e51b815260048101849052601660248201527512109054881dda5d1a191c985dd85b0819985a5b195960521b6044820152606490fd5b634e487b7160e01b600052601160045260246000fd5b610666859161365c565b906106b0603560405180947402321a2291036b4b73a34b733903330b4b632b21d1605d1b858301526106a081518092878686019101612eef565b8101036015810185520183612e5e565b6106d160405192839262461bcd60e51b845260048401526024830190612f12565b0390fd5b8280916106e184614359565b8152019101906104a9565b5060006040516106fb81612e0d565b5260156104b5565b61071d8192939495969760a3198a82030186528851612f12565b9601920192019092916103f0565b34610303576000366003190112610303576107446130e8565b61074c614267565b47610758811515614286565b60018060a01b03600080808085858254165af1610773613501565b50156107b05760407f2e4fb6077d4acf86e12bb7411fb82b2b3eaa6a49787f4b1e17b423e7ea8411699160005416928151908152426020820152a2005b60405162461bcd60e51b815260206004820152601b60248201527f456d657267656e6379207769746864726177616c206661696c656400000000006044820152606490fd5b346103035760003660031901126103035760206040516127108152f35b34610303576000366003190112610303576020600754604051908152f35b3461030357604036600319011261030357610849612d2a565b6001600160a01b03166000908152600c60205260409020805460243591908210156103035760209161087a916130a4565b90546040519160031b1c8152f35b3461030357602080600319360112610303576001600160a01b036108aa612d2a565b16600052600c8152604060002090604051908181845491828152019360005281600020916000905b8282106108f9576108f5856108e981890382612e5e565b60405191829182612d81565b0390f35b8354865294850194600193840193909101906108d2565b34610303576000366003190112610303576020604051601e8152f35b34610303576020366003190112610303576004358060030b8103610303576109566108f59161365c565b604051918291602083526020830190612f12565b60003660031901126103035761097e6130e8565b600e546001600160a01b0316610e3957610996613114565b6040516109a281612df2565b600a815269233aba3ab9329021a22960b11b602082015281526040516109c781612df2565b60048152632321a22960e11b602082015260208201523060408201526040516109ef81612e28565b604c81527f4e6f6e2d7472616461626c6520746f6b656e20726570726573656e74696e672060208201527f656d657267656e63792048424152207769746864726177616c2066726f6d204360408201526b1b19585c94dade481c1bdbdb60a21b60608201526060820152604051610a6581612e43565b6002815260005b60408110610e22575060e0820152610a9b610a8630614584565b60e083015190610a9582613207565b52613207565b50610aa46131e6565b5060036000526003602052610aef604060002054610ac06131ba565b30602082015260405191610ad383612df2565b8252602082015260e083015190610ae982613214565b52613214565b50610100810151805160070b1580610e13575b610e04575b50604051630fb65bf360e01b602082015260606024820152610b7c610b53610b3d845161016060848601526101e4850190612f12565b60208501518482036083190160a4860152612f12565b60408401516001600160a01b031660c484015260608401518382036083190160e4850152612f12565b916080810151151561010483015260a081015160070b61012483015260c0810151151561014483015260e08101519260831983820301610164840152835180825260208201916020808360051b8301019601926000915b838310610d745760008088610c2e818c60406101008d0151805160070b61018485015260018060a01b036020820151166101a4850152015160070b6101c483015284604483015284606483015203601f198101835282612e5e565b602081519101346101675af1610c42613501565b9015610d6a57604081805181010312610303576040610c636020830161434b565b9101516001600160a01b03811691908290036103035760030b5b60030b60168103610d15575060018060a01b0316806001600160601b0360a01b600e541617600e557fcd448de8793f622663eef5d50c680ab37b5a19871f9bbc24fa81e2a715a43e4f61010060405160808152600a608082015269233aba3ab9329021a22960b11b60a082015260c06020820152600460c0820152632321a22960e11b60e082015260006040820152306060820152a2005b807f8e087745dd680d08f64711bfdd63e4496157eaa1c1774fddd382c76431dc1054610d52610d4560249461365c565b6040519182918583613224565b0390a160405190631dd454b160e01b82526004820152fd5b5060006015610c7d565b9091929396602080600192601f19858203018652818b5180518352015190604083820152815115156040820152848060a01b038383015116606082015260c0610de5610dcf604085015160a0608086015260e0850190612f12565b6060850151848203603f190160a0860152612f12565b926080878060a01b039101511691015299019301930191939290610bd3565b60406276a70091015281610b07565b50604081015160070b15610b02565b602090610e2d6131e6565b82828501015201610a6c565b60405162461bcd60e51b815260206004820152601a60248201527f4643445220746f6b656e20616c726561647920637265617465640000000000006044820152606490fd5b3461030357602036600319011261030357610e97612d2a565b506108f5610ea36135a3565b604080519384526020840192909252908201529081906060820190565b34610303576020610ed9610ed3366130d2565b90613558565b604051908152f35b608036600319011261030357606435610f4d604435602435610f016132bc565b610f0961329e565b610f1a60ff600a5460a81c1661323e565b610f2760065415156132df565b610f32341515613322565b610f3d811515613361565b610f488215156133b7565b613558565b610f5934600554613414565b600555610f6834600754613414565b60075581156112e057610f7f600435831015613421565b6001600160401b03821660070b60018060a01b0390610fe08260045416604051838152817fb7555d949a897acb395f95e3f2df8b700519404826bb13cd6526b756f6a1c90760203393a38260405191610fd783612e0d565b60008352614367565b50929060168103611252575061102d8282600454166040518281523390827fd9cd850143c0756b15b46ebdc8b4ed7701b66aaed30858ee17a225eb005cca2e60203093a4339030906144f0565b601681036111bc575061104285600654613414565b6006556004541691827fad91542866f4da9ebed5a2b1713258f4bf970f84e7b2a0b8aab2de28d11ffffd6040518061108f33958783909291602090604083019460070b835260070b910152565b0390a360405190815233917f67325b2f3de1d8273fc1aeeaf3b161488fc28427430d9f6b341831dedfc2d63360203093a45b6040516110cd81612dbc565b34815260208101914283526040820190815260608201848152608083019133835260a0840194308652600d54600052600b6020526040600020945185555160018501555160028401555160038301556005600483019260018060a01b0380935116936001600160601b0360a01b9485825416179055019251169082541617905533600052600c6020526111676040600020600d5490613461565b611172600d5461349b565b600d55604080513481526020810192909252429082015233907f64b83944e79c3ce8d4c297411de637c3e102d064677aac0c163976ebdcd6f50e9080606081015b0390a260018055005b90600454167fcc975f63304dfdaa80a8ecbfbfc654fd86ea8a7cdb68086a0d883f26ad08e4c16040518061120a3396309660030b9083909291602090604083019460070b835260030b910152565b0390a460405162461bcd60e51b815260206004820152601960248201527f48545320746f6b656e207472616e73666572206661696c6564000000000000006044820152606490fd5b60045460408051600786900b815260039390930b60208401523392918416917f03f5e21a75677e84382c9f010b9f5780b534bb2a966c378fa090d12ba52caa0891819081015b0390a360405162461bcd60e51b815260206004820152601860248201527f48545320746f6b656e206d696e74696e67206661696c656400000000000000006044820152606490fd5b6110c1565b34610303576000366003190112610303576000608060405161130681612dd7565b6060815260606020820152826040820152826060820152015261139860405161132e81612dd7565b611336612f71565b815261134061301d565b60208201908152600a54604083019160ff821683526060840160ff6113ab60018060a01b0393848660081c16845282608089019660a81c161515865260405198899860208a525160a060208b015260c08a0190612f12565b9051888203601f190160408a0152612f12565b94511660608601525116608084015251151560a08301520390f35b34610303576020366003190112610303576113df612d2a565b506020610ed961361f565b34610303576000366003190112610303576020601154604051908152f35b3461030357611416366130d2565b61141e6132bc565b61142661329e565b61143760ff600a5460a81c1661323e565b81156117b05760065480156117745760055461146861145f8361145a84886134aa565b61327e565b93841015613421565b47831161172f576114869161147e8486936134bd565b6005556134bd565b600655611495816007546134bd565b6007556001600160401b03821660070b6040516114b181612e0d565b6000815260008060018060a01b039261153d61154b856004541692837fb310aaac57f9a89f4e3661e38cb8df5ea9428b82d1bb2b8ab6a77c3f52818f026040518a8152604060208201528061150960408201866134ca565b0390a26040519283916020830195636b48868360e11b875260248401528960448401526060606484015260848301906134ca565b03601f198101835282612e5e565b5190826101675af19061155c613501565b9115611724576040828051810103126103035761158760406115806020850161434b565b9301614359565b915b60030b6016810361166a575060045460408051600795860b81529390940b602084015216917f7b2f31b2ffda9d7a1ac640400c8f7eb1c8d0071689111f45797448a14697587c91a2600080808084335af16115e2613501565b501561162e576111b37f1dc8bb69df2b8e91fbdcbfcf93d951b3f0000f085a95fe3f7946d6161439245d9160405191829133954291846040919493926060820195825260208201520152565b60405162461bcd60e51b815260206004820152601460248201527312109054881d1c985b9cd9995c8819985a5b195960621b6044820152606490fd5b91506116b4846116ab876116a27fcccb9ca916a4b1199913d752d315547b23a41451ab4c699f6bae82cecf211b1e9798600554613414565b50600654613414565b50600754613414565b5060045416926116dc60405192839283909291602090604083019460070b835260030b910152565b0390a260405162461bcd60e51b815260206004820152601860248201527f48545320746f6b656e206275726e696e67206661696c656400000000000000006044820152606490fd5b600091506015611589565b60405162461bcd60e51b815260206004820152601960248201527f496e73756666696369656e74204842415220696e20706f6f6c000000000000006044820152606490fd5b60405162461bcd60e51b8152602060048201526014602482015273139bc81b1a5c5d5a591a5d1e481a5b881c1bdbdb60621b6044820152606490fd5b60405162461bcd60e51b8152602060048201526016602482015275139bc81314081d1bdad95b9cc81cdc1958da599a595960521b6044820152606490fd5b346103035760008061184961153d61180536612d40565b604051639b23d3d960e01b602082019081526001600160a01b03958616602483015293851660448201529390911660648401526084830152929091829060a4820190565b5190826101675af1611859613501565b90156118845760208180518101031261030357611879602080920161434b565b6040519060030b8152f35b5060206015611879565b34610303576000366003190112610303576000546040516001600160a01b039091168152602090f35b34610303576000366003190112610303576118d06130e8565b6118d861329e565b600160ff1960025416176002557f62e78cea01bee320cd4e420270b5ea74000d11b0c9f74754ebdbfc544b05a2586020604051338152a1005b346103035760403660031901126103035761192a612d2a565b6001600160a01b03166000908152601060205260409020805460243591908210156103035760209161087a916130a4565b3461030357602080600319360112610303576004356119786130e8565b600e546001600160a01b03908116916119928315156142c8565b61199f601154821061430d565b600052600f83526040600020906040516119b881612dd7565b8254815260018301548582015260806004836002860154169485604085015284600382015416606085015201549101526000541603611aaa57600080916040518481019163efef57f960e01b835260248201523060448201526001606482015260648152611a2581612dd7565b5190826101675af1611a35613501565b9015611aa25781818051810103126103035781611a52910161434b565b60030b60168103611a5f57005b611a689061365c565b906106b0603560405180947402321a22910313ab93734b733903330b4b632b21d1605d1b858301526106a081518092878686019101612eef565b506015611a52565b60405162461bcd60e51b815260048101839052601a60248201527f4e6f7420746865206f776e6572206f66207468697320464344520000000000006044820152606490fd5b3461030357600036600319011261030357611b086130e8565b600080546001600160a01b0319811682556001600160a01b03167f8be0079c531659141344cd1fd0a4f28419497f9722a3daafe3b4186f6b6457e08280a3005b3461030357600036600319011261030357611b89611b64612f71565b611b6c61301d565b60ff611b97600a549260405195869560a0875260a0870190612f12565b908582036020870152612f12565b8183166040850152600883901c6001600160a01b0316606085015260a89290921c16151560808301520390f35b3461030357604036600319011261030357611bdd612d2a565b6024356001600160401b03811161030357366023820112156103035760009161153d611c4f611c1785943690602481600401359101612e9a565b604080516330c6e32f60e11b602082019081526001600160a01b03909616602482015260448101919091529283916064830190612f12565b5190826101675af1611c5f613501565b907f4af4780e06fe8cb9df64b0794fa6f01399af979175bb988e35e0e57e594567bc60405182151581526040602082015280611c9e6040820186612f12565b0390a115611cc85760165b6108f560405192839260030b8352604060208401526040830190612f12565b50604051611cd581612e0d565b600081526015611ca9565b346103035760003660031901126103035760055460065460075460408051938452602084019290925290820152606090f35b34610303576000366003190112610303576004546040516001600160a01b039091168152602090f35b3461030357600036600319011261030357602060ff600254166040519015158152f35b606036600319011261030357611d7b602435600435610f016132bc565b611d89604435821015613421565b611d9534600554613414565b600555611da434600754613414565b6007556001600160401b03811660070b60018060a01b0390611dff8260045416604051838152817fb7555d949a897acb395f95e3f2df8b700519404826bb13cd6526b756f6a1c90760203393a38260405191610fd783612e0d565b509290601681036112525750611e4c8282600454166040518281523390827fd9cd850143c0756b15b46ebdc8b4ed7701b66aaed30858ee17a225eb005cca2e60203093a4339030906144f0565b601681036111bc5750611e6184600654613414565b6006556004541691827fad91542866f4da9ebed5a2b1713258f4bf970f84e7b2a0b8aab2de28d11ffffd60405180611eae33958783909291602090604083019460070b835260070b910152565b0390a360405190815233917f67325b2f3de1d8273fc1aeeaf3b161488fc28427430d9f6b341831dedfc2d63360203093a4604080513481526020810192909252429082015233907f64b83944e79c3ce8d4c297411de637c3e102d064677aac0c163976ebdcd6f50e9080606081016111b3565b6040366003190112610303576004356001600160401b03811161030357611f4c903690600401612ed1565b6024356001600160401b03811161030357611f6b903690600401612ed1565b611f736130e8565b60ff600a5460a81c166126685781511561262d578051156125f057611f96613114565b91808352816020840152306040840152604051611fb281612df2565b6001815260005b602081106125d9575060e0840152611fe2611fd330614584565b60e085015190610a9582613207565b50610100830151805160070b15806125ca575b6125bb575b50604051630fb65bf360e01b60208201526060602482015261206f612046612030865161016060848601526101e4850190612f12565b60208701518482036083190160a4860152612f12565b60408601516001600160a01b031660c484015260608601518382036083190160e4850152612f12565b936080810151151561010483015260a081015160070b61012483015260c0810151151561014483015260e08101519060831983870301610164840152815180875260208701906020808260051b8a01019401916000905b8282106125435788886000808a612124818c60406101008e0151805160070b61018485015260018060a01b036020820151166101a4850152015160070b6101c48301528460448301526006606483015203601f198101835282612e5e565b602081519101346101675af191612139613501565b92156125385760408380518101031261030357604061215a6020850161434b565b9301516001600160a01b03811693908490036103035760030b5b60030b60168103610d155750600480546001600160a01b0319166001600160a01b0385161790556040516121a781612dd7565b82815260208101829052600660408201526001600160a01b03841660608201526001608082015282516001600160401b03811161243b576121e9600854612f37565b601f81116124cf575b50806020601f821160011461245c57600091612451575b508160011b916000199060031b1c1916176008555b60208101518051906001600160401b03821161243b5761223f600954612f37565b601f81116123d2575b50602090601f831160011461233457928261230b936122fd96937f8fb1ffd0ab3f6379154037519ff749b01e1fa060a331f5394175f393c3db596b9896600092612329575b50508160011b916000199060031b1c1916176009555b60ff60408201511690600a5491610100600160a81b03606083015160081b1691608060ff60a81b910151151560a81b169269ffffffffffffffffffff60b01b16171717600a55604051938493608085526080850190612f12565b908382036020850152612f12565b600660408301523060608301526001600160a01b03909416930390a2005b01519050898061228d565b90601f19831691600960005260008051602061460a8339815191529260005b8181106123ba5750936122fd96937f8fb1ffd0ab3f6379154037519ff749b01e1fa060a331f5394175f393c3db596b9896936001938361230b98106123a1575b505050811b016009556122a3565b015160001960f88460031b161c19169055898080612393565b92936020600181928786015181550195019301612353565b6009600052601f830160051c60008051602061460a8339815191520160208410612426575b601f820160051c60008051602061460a83398151915201811061241a5750612248565b600081556001016123f7565b5060008051602061460a8339815191526123f7565b634e487b7160e01b600052604160045260246000fd5b905084015186612209565b915060086000526000805160206145ea8339815191526000925b601f19831684106124b7576001935082601f1981161061249e575b5050811b0160085561221e565b86015160001960f88460031b161c191690558680612491565b86810151825560209384019360019092019101612476565b6008600052601f820160051c6000805160206145ea8339815191520160208310612523575b601f820160051c6000805160206145ea83398151915201811061251757506121f2565b600081556001016124f4565b506000805160206145ea8339815191526124f4565b600092506015612174565b90919294602080600192601f198d820301855281895180518352015190604083820152815115156040820152848060a01b038383015116606082015260c061259d610dcf604085015160a0608086015260e0850190612f12565b926080878060a01b03910151169101529701920192019092916120c6565b60406276a70091015283611ffa565b50604081015160070b15611ff5565b6020906125e46131e6565b82828501015201611fb9565b60405162461bcd60e51b8152602060048201526015602482015274151bdad95b881cde5b589bdb081c995c5d5a5c9959605a1b6044820152606490fd5b60405162461bcd60e51b8152602060048201526013602482015272151bdad95b881b985b59481c995c5d5a5c9959606a1b6044820152606490fd5b60405162461bcd60e51b8152602060048201526015602482015274151bdad95b88185b1c9958591e4818dc99585d1959605a1b6044820152606490fd5b3461030357602036600319011261030357600435600060806040516126c981612dd7565b82815282602082015282604082015282606082015201526126ed601154821061430d565b600052600f60205260a0604060002060405161270881612dd7565b81549182825260018101549060208301918252600180861b03809281600284015416906040860191825260806004846003870154169560608901968752015496019586526040519687525160208701525116604085015251166060830152516080820152f35b34610303576020366003190112610303576020610ed9600435613531565b34610303576000366003190112610303576127a56130e8565b6127ad614267565b60ff19600254166002557f5db9ee0a495bf2e6ff9c91a7834c1ba4fdd244a5e8aa4e537bd38aeae4b073aa6020604051338152a1005b3461030357602036600319011261030357600435600052600f60205260a06040600020805490600181015490600180851b0360048160028401541691600384015416920154926040519485526020850152604084015260608301526080820152f35b3461030357602036600319011261030357600435600052600b60205260c06040600020805490600181015490600281015460038201549060018060a01b036005816004860154169401541693604051958652602086015260408501526060840152608083015260a0820152f35b34610303576020366003190112610303576020610ed960043561358a565b34610303576000366003190112610303576020610ed9613601565b34610303576000366003190112610303576020600554604051908152f35b60003660031901126103035761291d6130e8565b6129256132bc565b61292d61329e565b61293e60ff600a5460a81c1661323e565b600654612ad457620186a03410612a8f573460055534600755606434046001600160401b03811660070b60018060a01b036129b28160045416604051848152817fb7555d949a897acb395f95e3f2df8b700519404826bb13cd6526b756f6a1c90760203393a38360405191610fd783612e0d565b50919060168103612a455750600684905560045460408051600795860b81529390940b602084015233939116917fad91542866f4da9ebed5a2b1713258f4bf970f84e7b2a0b8aab2de28d11ffffd9190a3604080513481526020810192909252429082015233907f64b83944e79c3ce8d4c297411de637c3e102d064677aac0c163976ebdcd6f50e9080606081016111b3565b60045460408051600787900b815260039390930b60208401523392918416917f03f5e21a75677e84382c9f010b9f5780b534bb2a966c378fa090d12ba52caa089181908101611298565b60405162461bcd60e51b815260206004820152601e60248201527f496e73756666696369656e7420696e697469616c206c697175696469747900006044820152606490fd5b60405162461bcd60e51b815260206004820152601860248201527f506f6f6c20616c726561647920696e697469616c697a656400000000000000006044820152606490fd5b3461030357602036600319011261030357600060a0604051612b3a81612dbc565b8281528260208201528260408201528260608201528260808201520152600435600052600b60205260c0604060002060405190612b7682612dbc565b8054918281526001820154602082019081526002830154926040830193845260038101546060840190815260018060a01b0394859360a0856005816004880154169660808a01978852015416960195865260405197885251602088015251604087015251606086015251166080840152511660a0820152f35b34610303576000366003190112610303576020604051620186a08152f35b3461030357602080600319360112610303576001600160a01b03612c2f612d2a565b1660005260108152604060002090604051908181845491828152019360005281600020916000905b828210612c6e576108f5856108e981890382612e5e565b835486529485019460019384019390910190612c57565b3461030357600036600319011261030357602060ff600a5460a81c166040519015158152f35b346103035760008061184961153d612cc236612d40565b604051630aed65f560e11b602082019081526001600160a01b03958616602483015293851660448201529390911660648401526084830152929091829060a4820190565b3461030357600036600319011261030357600e546001600160a01b03168152602090f35b600435906001600160a01b038216820361030357565b6080906003190112610303576001600160a01b0360043581811681036103035791602435828116810361030357916044359081168103610303579060643590565b6020908160408183019282815285518094520193019160005b828110612da8575050505090565b835185529381019392810192600101612d9a565b60c081019081106001600160401b0382111761243b57604052565b60a081019081106001600160401b0382111761243b57604052565b604081019081106001600160401b0382111761243b57604052565b602081019081106001600160401b0382111761243b57604052565b608081019081106001600160401b0382111761243b57604052565b606081019081106001600160401b0382111761243b57604052565b90601f801991011681019081106001600160401b0382111761243b57604052565b6001600160401b03811161243b57601f01601f191660200190565b929192612ea682612e7f565b91612eb46040519384612e5e565b829481845281830111610303578281602093846000960137010152565b9080601f8301121561030357816020612eec93359101612e9a565b90565b60005b838110612f025750506000910152565b8181015183820152602001612ef2565b90602091612f2b81518092818552858086019101612eef565b601f01601f1916010190565b90600182811c92168015612f67575b6020831014612f5157565b634e487b7160e01b600052602260045260246000fd5b91607f1691612f46565b6040519060008260085491612f8583612f37565b80835292600190818116908115612ffb5750600114612fae575b50612fac92500383612e5e565b565b6008600090815291506000805160206145ea8339815191525b848310612fe05750612fac935050810160200138612f9f565b81935090816020925483858a01015201910190918592612fc7565b905060209250612fac94915060ff191682840152151560051b82010138612f9f565b604051906000826009549161303183612f37565b80835292600190818116908115612ffb57506001146130575750612fac92500383612e5e565b60096000908152915060008051602061460a8339815191525b8483106130895750612fac935050810160200138612f9f565b81935090816020925483858a01015201910190918592613070565b80548210156130bc5760005260206000200190600090565b634e487b7160e01b600052603260045260246000fd5b6040906003190112610303576004359060243590565b6000546001600160a01b031633036130fc57565b60405163118cdaa760e01b8152336004820152602490fd5b604080516001600160401b0392919061012081018481118282101761243b5782528093606092838352836020840152600091828285015284808501528260808501528260a08501528260c08501528460e08501528151948501908582109082111761318f578152818452602084018290528301526101000152565b634e487b7160e01b83526041600452602483fd5b6001600160401b03811161243b5760051b60200190565b604051906131c782612dd7565b6000608083828152826020820152606060408201526060808201520152565b604051906131f382612df2565b816000815260206132026131ba565b910152565b8051156130bc5760200190565b8051600110156130bc5760400190565b604090612eec939260030b81528160208201520190612f12565b1561324557565b60405162461bcd60e51b8152602060048201526011602482015270151bdad95b881b9bdd0818dc99585d1959607a1b6044820152606490fd5b8115613288570490565b634e487b7160e01b600052601260045260246000fd5b60ff600254166132aa57565b60405163d93c066560e01b8152600490fd5b6002600154146132cd576002600155565b604051633ee5aeb560e01b8152600490fd5b156132e657565b60405162461bcd60e51b8152602060048201526014602482015273141bdbdb081b9bdd081a5b9a5d1a585b1a5e995960621b6044820152606490fd5b1561332957565b60405162461bcd60e51b815260206004820152601060248201526f139bc812109054881c1c9bdd9a59195960821b6044820152606490fd5b1561336857565b60405162461bcd60e51b815260206004820152602160248201527f55534420616d6f756e74206d7573742062652067726561746572207468616e206044820152600360fc1b6064820152608490fd5b156133be57565b60405162461bcd60e51b815260206004820152602860248201527f4d617475726174696f6e20616d6f756e74206d75737420626520677265617465604482015267072207468616e20360c41b6064820152608490fd5b9190820180921161064657565b1561342857565b60405162461bcd60e51b815260206004820152601160248201527014db1a5c1c1859d948195e18d959591959607a1b6044820152606490fd5b80546801000000000000000081101561243b57613483916001820181556130a4565b819291549060031b91821b91600019901b1916179055565b60001981146106465760010190565b8181029291811591840414171561064657565b9190820391821161064657565b90815180825260208080930193019160005b8281106134ea575050505090565b835160070b855293810193928101926001016134dc565b3d1561352c573d9061351282612e7f565b916135206040519384612e5e565b82523d6000602084013e565b606090565b60065490811561355157612eec91613548916134aa565b6005549061327e565b5050600090565b9081156135658115613361565b6135708215156133b7565b620f424080840293840414171561064657612eec9161327e565b60065480156135515761145a612eec92600554906134aa565b60ff600a5460a81c16156135f65760065460009181156135eb576135cd8261145a600554866134aa565b916127109081850291858304148515171561064657612eec9161327e565b600092508291508190565b600090600090600090565b600654801561361957612eec9060646007540461327e565b50600090565b60ff600a5460a81c16158015613652575b61364d576007541560011715610646576006541561328857600090565b600090565b5060065415613630565b8060030b9060168214614164576009821461410f57600a82146140ae576007821461405657600f8214613ff55760108214613f9457601e8214613f465760228214613ee557606f8214613e965760aa8214613e355760ab8214613de35760ae8214613d8f5760af8214613d2e5760be8214613cde5760bf8214613c855760a88214613c245760a98214613bc35760bd8214613b7557609b8214613b2957601a8214613adf57601b8214613a955760268214613a3c576040918281146139e557604181146139795761011781146139215761014581146138c25761014681146138635761014781146137fa57610148146137a657603361376363ffffffff612eec9316614189565b9251809372554e4b4e4f574e5f4552524f525f434f44455f60681b60208301526137968151809260208686019101612eef565b8101036013810184520182612e5e565b5072206d616e79206368696c64207265636f72647360681b8151916137ca83612e43565b603383527f4d41585f4348494c445f5245434f5244535f4558434545444544202d20546f6f602084015282015290565b50507f6666696369656e742062616c616e636520666f722073746f726167652072656e81519161382983612e28565b604183527f494e53554646494349454e545f53544f524147455f52454e54202d20496e73756020840152820152601d60fa1b606082015290565b50507f6e76616c6964207369676e617475726520666f7220707265636f6d70696c650081519161389283612e43565b603f83527f494e56414c49445f505245434f4d50494c455f5349474e4154555245202d2049602084015282015290565b50507f6e74697469657320696e20707269636520726567696d652072656163686564008151916138f183612e43565b603f83527f4d41585f454e5449544945535f43524541544544202d204d6178696d756d2065602084015282015290565b5050751cdd5cc81b9bd9194819d85cc8195e1a185d5cdd195960521b81519161394983612e43565b603683527f434f4e53454e5355535f4741535f455848415553544544202d20436f6e73656e602084015282015290565b50507f616e73616374696f6e2068617320746f6f206d616e79206e6573746564206c618151916139a883612e28565b604483527f5452414e53414354494f4e5f544f4f5f4d414e595f4c4159455253202d2054726020840152820152637965727360e01b606082015290565b5050741bdb88195e18d959591cc81cda5e99481b1a5b5a5d605a1b815191613a0c83612e43565b603583527f5452414e53414354494f4e5f4f56455253495a45202d205472616e7361637469602084015282015290565b5050604051613a4a81612e43565b603581527f494e56414c49445f4b45595f454e434f44494e47202d204b657920656e636f646020820152741a5b99c8199bdc9b585d081a5cc81a5b9d985b1a59605a1b604082015290565b5050604051613aa381612e43565b602681527f4241445f454e434f44494e47202d204b657920656e636f64696e6720697320696020820152651b9d985b1a5960d21b604082015290565b5050604051613aed81612e43565b602681527f4b45595f5245515549524544202d205265717569726564206b6579206973206d602082015265697373696e6760d01b604082015290565b5050604051613b3781612e43565b602881527f494e56414c49445f41444d494e5f4b4559202d2041646d696e206b6579206973602082015267081a5b9d985b1a5960c21b604082015290565b5050604051613b8381612e43565b602a81527f494e56414c49445f535550504c595f4b4559202d20537570706c79206b6579206020820152691a5cc81a5b9d985b1a5960b21b604082015290565b5050604051613bd181612e43565b603e81527f494e56414c49445f544f4b454e5f494e495449414c5f535550504c59202d204960208201527f6e697469616c20737570706c792076616c756520697320696e76616c69640000604082015290565b5050604051613c3281612e43565b603881527f494e56414c49445f544f4b454e5f444543494d414c53202d20546f6b656e206460208201527f6563696d616c732076616c756520697320696e76616c69640000000000000000604082015290565b5050604051613c9381612e43565b603581527f544f4b454e5f4e414d455f544f4f5f4c4f4e47202d20546f6b656e206e616d6560208201527408195e18d959591cc81b195b99dd1a081b1a5b5a5d605a1b604082015290565b5050604051613cec81612e43565b602c81527f4d495353494e475f544f4b454e5f4e414d45202d20546f6b656e206e616d652060208201526b1b9bdd081c1c9bdd9a59195960a21b604082015290565b5050604051613d3c81612e43565b603981527f544f4b454e5f53594d424f4c5f544f4f5f4c4f4e47202d20546f6b656e20737960208201527f6d626f6c2065786365656473206c656e677468206c696d697400000000000000604082015290565b5050604051613d9d81612e43565b603081527f4d495353494e475f544f4b454e5f53594d424f4c202d20546f6b656e2073796d60208201526f189bdb081b9bdd081c1c9bdd9a59195960821b604082015290565b5050604051613df181612e43565b602e81527f494e56414c49445f544f4b454e5f53594d424f4c202d20546f6b656e2073796d60208201526d189bdb081a5cc81a5b9d985b1a5960921b604082015290565b5050604051613e4381612e43565b603d81527f494e56414c49445f54524541535552595f4143434f554e545f464f525f544f4b60208201527f454e202d205472656173757279206163636f756e7420696e76616c6964000000604082015290565b5050604051613ea481612e43565b602b81527f4d41585f4741535f4c494d49545f4558434545444544202d20476173206c696d60208201526a1a5d08195e18d95959195960aa1b604082015290565b5050604051613ef381612e43565b603881527f434f4e54524143545f455845435554494f4e5f455843455054494f4e202d204360208201527f6f6e747261637420657865637574696f6e206661696c65640000000000000000604082015290565b5050604051613f5481612e43565b602a81527f494e53554646494349454e545f474153202d204e6f7420656e6f7567682067616020820152691cc81cdd5c1c1b1a595960b21b604082015290565b5050604051613fa281612e43565b603e81527f494e56414c49445f434f4e54524143545f4944202d20436f6e7472616374204960208201527f4420697320696e76616c6964206f7220646f6573206e6f742065786973740000604082015290565b505060405161400381612e43565b603c81527f494e56414c49445f4143434f554e545f4944202d204163636f756e742049442060208201527f697320696e76616c6964206f7220646f6573206e6f7420657869737400000000604082015290565b505060405161406481612e43565b603481527f494e56414c49445f5349474e4154555245202d205472616e73616374696f6e206020820152731cda59db985d1d5c99481a5cc81a5b9d985b1a5960621b604082015290565b50506040516140bc81612e43565b604081527f494e53554646494349454e545f50415945525f42414c414e4345202d2050617960208201527f6572206163636f756e742068617320696e73756666696369656e742048424152604082015290565b505060405161411d81612e43565b603181527f494e53554646494349454e545f54585f464545202d204e6f7420656e6f7567686020820152700819d85ccbd99959481c1c9bdd9a591959607a1b604082015290565b505060405161417281612df2565b60078152665355434345535360c81b602082015290565b80156142495780816000925b6142355750806141a483612e7f565b926141b26040519485612e5e565b808452601f196141c182612e7f565b01366020860137915b6141d357505090565b6000198201918083116106465782600a90818404938285029285840414851517156106465761420560ff9384926134bd565b1660300191821161064657855111156130bc5760f81b6001600160f81b03191660001a908401601f0153806141ca565b91614241600a9161349b565b920480614195565b5060405161425681612df2565b60018152600360fc1b602082015290565b60ff600254161561427457565b604051638dfc202b60e01b8152600490fd5b1561428d57565b60405162461bcd60e51b81526020600482015260136024820152724e6f204842415220746f20776974686472617760681b6044820152606490fd5b156142cf57565b60405162461bcd60e51b81526020600482015260166024820152751190d114881d1bdad95b881b9bdd0818dc99585d195960521b6044820152606490fd5b1561431457565b60405162461bcd60e51b815260206004820152600f60248201526e125b9d985b1a59081190d114881251608a1b6044820152606490fd5b51908160030b820361030357565b51908160070b820361030357565b91906040918251906020948583019363707a02cd60e11b8552608484019160018060a01b0316602485015260070b604484015260606064840152815180915260a48301908660a48260051b8601019301916000905b888383106144c757505050505091816143e260009493859403601f198101835282612e5e565b5190826101675af1916143f3613501565b92600090156144a8575082518301906060848284019303126103035761441a81850161434b565b91614426848601614359565b946060810151906001600160401b03821161030357019381603f86011215610303578285015190614456826131a3565b9561446382519788612e5e565b828752818588019360051b8201019384116103035701905b828210614491575050505091905b909160030b92565b83809161449d84614359565b81520191019061447b565b92505051906144b682612e0d565b808252368137601590600090614489565b806144e26001939495969760a3198a82030186528851612f12565b9601920192019092916143bc565b60405163eca3691760e01b602082019081526001600160a01b03928316602483015292821660448201529216606483015260079290920b608480830191909152815261453b81612dbc565b6000809281925190826101675af190614552613501565b911561457b5760208280518101031261457857506020614572910161434b565b60030b90565b80fd5b50506015614572565b61458c6131e6565b50600460005260036020527f83ec6a1f0257b830b5e016457c9cf1435391bf56cc98f369a58a54fe9377246554906145c26131ba565b6001600160a01b039091166020820152604051916145df83612df2565b825260208201529056fef3f7a9fe364faab93b216da50a3214154f22a0a2b415b23a84c8169e8b636ee36e1540171b6c0c960b71a7020d9f60077f6af931a8bbf590da0223dacf75c7afa26469706673582212200d7350160d6e7312b6e55554610a13685565ef58ab257e7d27409103be36571364736f6c63430008140033","opcodes":"PUSH1 0x80 CALLVALUE PUSH3 0x54D JUMPI PUSH1 0x1F PUSH3 0x4BD2 CODESIZE DUP2 SWAP1 SUB SWAP2 DUP3 ADD PUSH1 0x1F NOT AND DUP4 ADD SWAP2 PUSH1 0x1 PUSH1 0x1 PUSH1 0x40 SHL SUB DUP4 GT DUP5 DUP5 LT OR PUSH3 0x436 JUMPI DUP1 DUP5 SWAP3 PUSH1 0x20 SWAP5 PUSH1 0x40 MSTORE DUP4 CODECOPY DUP2 ADD SUB SLT PUSH3 0x54D JUMPI MLOAD PUSH1 0x1 PUSH1 0x1 PUSH1 0xA0 SHL SUB DUP1 DUP3 AND SWAP2 DUP3 SWAP1 SUB PUSH3 0x54D JUMPI DUP2 ISZERO PUSH3 0x534 JUMPI PUSH1 0x0 SLOAD DUP3 PUSH1 0x1 DUP1 PUSH1 0xA0 SHL SUB NOT DUP3 AND OR PUSH1 0x0 SSTORE AND PUSH32 0x8BE0079C531659141344CD1FD0A4F28419497F9722A3DAAFE3B4186F6B6457E0 PUSH1 0x0 DUP1 LOG3 PUSH1 0x1 DUP1 DUP1 SSTORE PUSH1 0x2 DUP1 SLOAD PUSH2 0x100 PUSH1 0x1 PUSH1 0xA8 SHL SUB NOT AND DUP2 SSTORE PUSH1 0x3 PUSH1 0x20 SWAP1 DUP2 MSTORE PUSH32 0x3617319A054D772F909F7C479A2CEBE5066E836A939412E32403C99029B92EFF SWAP3 SWAP1 SWAP3 SSTORE PUSH32 0xA15BC60C955C405D20D9149C709E2460F1C2D9A497496A7F46004D1772C3054C SSTORE PUSH1 0x4 PUSH32 0xC3A24B0501BD2C13A7E57F2DB4369EC4C223447539FC0724A9D55AC4A06EBD4D SSTORE PUSH1 0x8 PUSH32 0xCBC4E5FB02C3D1DE23A9F1E014B4D2EE5AEAEA9505DF5E855C9210BF472495AF SSTORE PUSH1 0x10 PUSH32 0x83EC6A1F0257B830B5E016457C9CF1435391BF56CC98F369A58A54FE93772465 SSTORE PUSH32 0x405AAD32E1ADBAC89BB7F176E338B8FC6E994CA210C9BB7BDCA249B465942250 SSTORE PUSH1 0x6 PUSH1 0x0 MSTORE PUSH1 0x40 PUSH32 0xC69056F16CBAA3C616B828E333AB7D3A32310765507F8F58359E99EBB7A885F3 DUP2 SWAP1 SSTORE MLOAD PUSH1 0xA0 DUP2 ADD PUSH1 0x1 PUSH1 0x1 PUSH1 0x40 SHL SUB DUP2 GT DUP3 DUP3 LT OR PUSH3 0x436 JUMPI PUSH1 0x40 MSTORE PUSH3 0x1D8 PUSH3 0x552 JUMP JUMPDEST PUSH1 0x0 DUP2 MSTORE DUP2 MSTORE PUSH3 0x1E8 PUSH3 0x552 JUMP JUMPDEST PUSH1 0x0 DUP2 MSTORE PUSH1 0x20 DUP3 ADD MSTORE PUSH1 0x0 PUSH1 0x40 DUP3 ADD MSTORE PUSH1 0x0 PUSH1 0x60 DUP3 ADD MSTORE PUSH1 0x0 PUSH1 0x80 DUP3 ADD MSTORE DUP1 MLOAD SWAP1 DUP2 MLOAD PUSH1 0x1 DUP1 PUSH1 0x40 SHL SUB DUP2 GT PUSH3 0x436 JUMPI PUSH1 0x8 SLOAD PUSH1 0x1 DUP2 DUP2 SHR SWAP2 AND DUP1 ISZERO PUSH3 0x529 JUMPI JUMPDEST PUSH1 0x20 DUP3 LT EQ PUSH3 0x415 JUMPI PUSH1 0x1F DUP2 GT PUSH3 0x4C3 JUMPI JUMPDEST POP PUSH1 0x20 SWAP3 PUSH1 0x1F DUP3 GT PUSH1 0x1 EQ PUSH3 0x458 JUMPI SWAP3 DUP2 SWAP3 SWAP4 PUSH1 0x0 SWAP3 PUSH3 0x44C JUMPI JUMPDEST POP POP DUP2 PUSH1 0x1 SHL SWAP2 PUSH1 0x0 NOT SWAP1 PUSH1 0x3 SHL SHR NOT AND OR PUSH1 0x8 SSTORE JUMPDEST PUSH1 0x20 DUP2 ADD MLOAD DUP1 MLOAD SWAP1 SWAP2 SWAP1 PUSH1 0x1 PUSH1 0x1 PUSH1 0x40 SHL SUB DUP2 GT PUSH3 0x436 JUMPI PUSH1 0x9 SLOAD PUSH1 0x1 DUP2 DUP2 SHR SWAP2 AND DUP1 ISZERO PUSH3 0x42B JUMPI JUMPDEST PUSH1 0x20 DUP3 LT EQ PUSH3 0x415 JUMPI PUSH1 0x1F DUP2 GT PUSH3 0x3AB JUMPI JUMPDEST POP PUSH1 0x20 SWAP3 PUSH1 0x1F DUP3 GT PUSH1 0x1 EQ PUSH3 0x340 JUMPI SWAP3 DUP2 SWAP3 SWAP4 PUSH1 0x0 SWAP3 PUSH3 0x334 JUMPI JUMPDEST POP POP DUP2 PUSH1 0x1 SHL SWAP2 PUSH1 0x0 NOT SWAP1 PUSH1 0x3 SHL SHR NOT AND OR PUSH1 0x9 SSTORE JUMPDEST PUSH1 0xFF PUSH1 0x40 DUP3 ADD MLOAD AND SWAP1 PUSH1 0xA SLOAD SWAP2 PUSH2 0x100 PUSH1 0x1 PUSH1 0xA8 SHL SUB PUSH1 0x60 DUP4 ADD MLOAD PUSH1 0x8 SHL AND SWAP2 PUSH1 0x80 PUSH1 0xFF PUSH1 0xA8 SHL SWAP2 ADD MLOAD ISZERO ISZERO PUSH1 0xA8 SHL AND SWAP3 PUSH1 0x1 DUP1 PUSH1 0xB0 SHL SUB NOT AND OR OR OR PUSH1 0xA SSTORE PUSH1 0x40 MLOAD PUSH2 0x465F SWAP1 DUP2 PUSH3 0x573 DUP3 CODECOPY RETURN JUMPDEST ADD MLOAD SWAP1 POP CODESIZE DUP1 PUSH3 0x2CE JUMP JUMPDEST PUSH1 0x1F NOT DUP3 AND SWAP4 PUSH1 0x9 PUSH1 0x0 MSTORE PUSH1 0x20 PUSH1 0x0 KECCAK256 SWAP2 PUSH1 0x0 JUMPDEST DUP7 DUP2 LT PUSH3 0x392 JUMPI POP DUP4 PUSH1 0x1 SWAP6 SWAP7 LT PUSH3 0x378 JUMPI JUMPDEST POP POP POP DUP2 SHL ADD PUSH1 0x9 SSTORE PUSH3 0x2E4 JUMP JUMPDEST ADD MLOAD PUSH1 0x0 NOT PUSH1 0xF8 DUP5 PUSH1 0x3 SHL AND SHR NOT AND SWAP1 SSTORE CODESIZE DUP1 DUP1 PUSH3 0x369 JUMP JUMPDEST SWAP2 SWAP3 PUSH1 0x20 PUSH1 0x1 DUP2 SWAP3 DUP7 DUP6 ADD MLOAD DUP2 SSTORE ADD SWAP5 ADD SWAP3 ADD PUSH3 0x354 JUMP JUMPDEST PUSH1 0x9 PUSH1 0x0 MSTORE PUSH32 0x6E1540171B6C0C960B71A7020D9F60077F6AF931A8BBF590DA0223DACF75C7AF PUSH1 0x1F DUP4 ADD PUSH1 0x5 SHR DUP2 ADD SWAP2 PUSH1 0x20 DUP5 LT PUSH3 0x40A JUMPI JUMPDEST PUSH1 0x1F ADD PUSH1 0x5 SHR ADD SWAP1 JUMPDEST DUP2 DUP2 LT PUSH3 0x3FD JUMPI POP PUSH3 0x2B1 JUMP JUMPDEST PUSH1 0x0 DUP2 SSTORE PUSH1 0x1 ADD PUSH3 0x3EE JUMP JUMPDEST SWAP1 SWAP2 POP DUP2 SWAP1 PUSH3 0x3E5 JUMP JUMPDEST PUSH4 0x4E487B71 PUSH1 0xE0 SHL PUSH1 0x0 MSTORE PUSH1 0x22 PUSH1 0x4 MSTORE PUSH1 0x24 PUSH1 0x0 REVERT JUMPDEST SWAP1 PUSH1 0x7F AND SWAP1 PUSH3 0x29D JUMP JUMPDEST PUSH4 0x4E487B71 PUSH1 0xE0 SHL PUSH1 0x0 MSTORE PUSH1 0x41 PUSH1 0x4 MSTORE PUSH1 0x24 PUSH1 0x0 REVERT JUMPDEST ADD MLOAD SWAP1 POP CODESIZE DUP1 PUSH3 0x25C JUMP JUMPDEST PUSH1 0x1F NOT DUP3 AND SWAP4 PUSH1 0x8 PUSH1 0x0 MSTORE PUSH1 0x20 PUSH1 0x0 KECCAK256 SWAP2 PUSH1 0x0 JUMPDEST DUP7 DUP2 LT PUSH3 0x4AA JUMPI POP DUP4 PUSH1 0x1 SWAP6 SWAP7 LT PUSH3 0x490 JUMPI JUMPDEST POP POP POP DUP2 SHL ADD PUSH1 0x8 SSTORE PUSH3 0x272 JUMP JUMPDEST ADD MLOAD PUSH1 0x0 NOT PUSH1 0xF8 DUP5 PUSH1 0x3 SHL AND SHR NOT AND SWAP1 SSTORE CODESIZE DUP1 DUP1 PUSH3 0x481 JUMP JUMPDEST SWAP2 SWAP3 PUSH1 0x20 PUSH1 0x1 DUP2 SWAP3 DUP7 DUP6 ADD MLOAD DUP2 SSTORE ADD SWAP5 ADD SWAP3 ADD PUSH3 0x46C JUMP JUMPDEST PUSH1 0x8 PUSH1 0x0 MSTORE PUSH32 0xF3F7A9FE364FAAB93B216DA50A3214154F22A0A2B415B23A84C8169E8B636EE3 PUSH1 0x1F DUP4 ADD PUSH1 0x5 SHR DUP2 ADD PUSH1 0x20 DUP5 LT PUSH3 0x521 JUMPI JUMPDEST PUSH1 0x1F DUP4 ADD PUSH1 0x5 SHR DUP3 ADD DUP2 LT PUSH3 0x514 JUMPI POP POP PUSH3 0x23F JUMP JUMPDEST PUSH1 0x0 DUP2 SSTORE PUSH1 0x1 ADD PUSH3 0x4FC JUMP JUMPDEST POP DUP1 PUSH3 0x4FC JUMP JUMPDEST SWAP1 PUSH1 0x7F AND SWAP1 PUSH3 0x22B JUMP JUMPDEST PUSH1 0x40 MLOAD PUSH4 0x1E4FBDF7 PUSH1 0xE0 SHL DUP2 MSTORE PUSH1 0x0 PUSH1 0x4 DUP3 ADD MSTORE PUSH1 0x24 SWAP1 REVERT JUMPDEST PUSH1 0x0 DUP1 REVERT JUMPDEST PUSH1 0x40 MLOAD SWAP1 PUSH1 0x20 DUP3 ADD PUSH1 0x1 PUSH1 0x1 PUSH1 0x40 SHL SUB DUP2 GT DUP4 DUP3 LT OR PUSH3 0x436 JUMPI PUSH1 0x40 MSTORE JUMP INVALID PUSH1 0x80 DUP1 PUSH1 0x40 MSTORE PUSH1 0x4 CALLDATASIZE LT ISZERO PUSH2 0x52 JUMPI JUMPDEST POP CALLDATASIZE ISZERO PUSH2 0x50 JUMPI PUSH1 0x40 MLOAD PUSH3 0x461BCD PUSH1 0xE5 SHL DUP2 MSTORE PUSH1 0x20 PUSH1 0x4 DUP3 ADD MSTORE PUSH1 0x12 PUSH1 0x24 DUP3 ADD MSTORE PUSH18 0x119D5B98DD1A5BDB881B9BDD08199BDD5B99 PUSH1 0x72 SHL PUSH1 0x44 DUP3 ADD MSTORE PUSH1 0x64 SWAP1 REVERT JUMPDEST STOP JUMPDEST PUSH1 0x0 CALLDATALOAD PUSH1 0xE0 SHR SWAP1 DUP2 PUSH4 0xA5579D1 EQ PUSH2 0x2D06 JUMPI POP DUP1 PUSH4 0x15DACBEA EQ PUSH2 0x2CAB JUMPI DUP1 PUSH4 0x185C112A EQ PUSH2 0x2C85 JUMPI DUP1 PUSH4 0x1CF2E698 EQ PUSH2 0x2C0D JUMPI DUP1 PUSH4 0x21B77D63 EQ PUSH2 0x2BEF JUMPI DUP1 PUSH4 0x240F1B62 EQ PUSH2 0x2B19 JUMPI DUP1 PUSH4 0x250E6DE0 EQ PUSH2 0x2909 JUMPI DUP1 PUSH4 0x28999437 EQ PUSH2 0x28EB JUMPI DUP1 PUSH4 0x2FB9125D EQ PUSH2 0x28D0 JUMPI DUP1 PUSH4 0x32ACF78B EQ PUSH2 0x13EA JUMPI DUP1 PUSH4 0x34111BBF EQ PUSH2 0x28B2 JUMPI DUP1 PUSH4 0x3474D1F9 EQ PUSH2 0x2845 JUMPI DUP1 PUSH4 0x38B37D1C EQ PUSH2 0x27E3 JUMPI DUP1 PUSH4 0x3F4BA83A EQ PUSH2 0x278C JUMPI DUP1 PUSH4 0x42C649DE EQ PUSH2 0x276E JUMPI DUP1 PUSH4 0x4DDD1C54 EQ PUSH2 0x26A5 JUMPI DUP1 PUSH4 0x4EDEC1FF EQ PUSH2 0x1F21 JUMPI DUP1 PUSH4 0x545466A5 EQ PUSH2 0x1D5E JUMPI DUP1 PUSH4 0x5962A941 EQ PUSH2 0x326 JUMPI DUP1 PUSH4 0x5C975ABB EQ PUSH2 0x1D3B JUMPI DUP1 PUSH4 0x5FCBD285 EQ PUSH2 0x1D12 JUMPI DUP1 PUSH4 0x60246C88 EQ PUSH2 0x1CE0 JUMPI DUP1 PUSH4 0x618DC65E EQ PUSH2 0x1BC4 JUMPI DUP1 PUSH4 0x6ADDB663 EQ PUSH2 0x1B48 JUMPI DUP1 PUSH4 0x715018A6 EQ PUSH2 0x1AEF JUMPI DUP1 PUSH4 0x734C79B6 EQ PUSH2 0x195B JUMPI DUP1 PUSH4 0x7D56BE3C EQ PUSH2 0x1911 JUMPI DUP1 PUSH4 0x8456CB59 EQ PUSH2 0x18B7 JUMPI DUP1 PUSH4 0x8DA5CB5B EQ PUSH2 0x188E JUMPI DUP1 PUSH4 0x9B23D3D9 EQ PUSH2 0x17EE JUMPI DUP1 PUSH4 0x9D7DE6B3 EQ PUSH2 0x1408 JUMPI DUP1 PUSH4 0xA7112EFE EQ PUSH2 0x13EA JUMPI DUP1 PUSH4 0xA78C849B EQ PUSH2 0x13C6 JUMPI DUP1 PUSH4 0xABB1DC44 EQ PUSH2 0x12E5 JUMPI DUP1 PUSH4 0xAEBF3E41 EQ PUSH2 0xEE1 JUMPI DUP1 PUSH4 0xB79C41A2 EQ PUSH2 0xEC0 JUMPI DUP1 PUSH4 0xBBBAEE4C EQ PUSH2 0xE7E JUMPI DUP1 PUSH4 0xBC031C52 EQ PUSH2 0x96A JUMPI DUP1 PUSH4 0xBE591129 EQ PUSH2 0x92C JUMPI DUP1 PUSH4 0xBF333F2C EQ PUSH2 0x910 JUMPI DUP1 PUSH4 0xC6E5D8F6 EQ PUSH2 0x888 JUMPI DUP1 PUSH4 0xCF2C0334 EQ PUSH2 0x830 JUMPI DUP1 PUSH4 0xD4C3EEA0 EQ PUSH2 0x812 JUMPI DUP1 PUSH4 0xD73792A9 EQ PUSH2 0x7F5 JUMPI DUP1 PUSH4 0xDB2E21BC EQ PUSH2 0x72B JUMPI DUP1 PUSH4 0xE7834029 EQ PUSH2 0x344 JUMPI DUP1 PUSH4 0xEA04F155 EQ PUSH2 0x326 JUMPI DUP1 PUSH4 0xEF6283D9 EQ PUSH2 0x308 JUMPI PUSH4 0xF2FDE38B EQ PUSH2 0x27A JUMPI CODESIZE PUSH2 0xF JUMP JUMPDEST CALLVALUE PUSH2 0x303 JUMPI PUSH1 0x20 CALLDATASIZE PUSH1 0x3 NOT ADD SLT PUSH2 0x303 JUMPI PUSH2 0x293 PUSH2 0x2D2A JUMP JUMPDEST PUSH2 0x29B PUSH2 0x30E8 JUMP JUMPDEST PUSH1 0x1 PUSH1 0x1 PUSH1 0xA0 SHL SUB SWAP1 DUP2 AND SWAP1 DUP2 ISZERO PUSH2 0x2EA JUMPI PUSH1 0x0 SLOAD DUP3 PUSH1 0x1 PUSH1 0x1 PUSH1 0x60 SHL SUB PUSH1 0xA0 SHL DUP3 AND OR PUSH1 0x0 SSTORE AND PUSH32 0x8BE0079C531659141344CD1FD0A4F28419497F9722A3DAAFE3B4186F6B6457E0 PUSH1 0x0 DUP1 LOG3 STOP JUMPDEST PUSH1 0x40 MLOAD PUSH4 0x1E4FBDF7 PUSH1 0xE0 SHL DUP2 MSTORE PUSH1 0x0 PUSH1 0x4 DUP3 ADD MSTORE PUSH1 0x24 SWAP1 REVERT JUMPDEST PUSH1 0x0 DUP1 REVERT JUMPDEST CALLVALUE PUSH2 0x303 JUMPI PUSH1 0x0 CALLDATASIZE PUSH1 0x3 NOT ADD SLT PUSH2 0x303 JUMPI PUSH1 0x20 PUSH1 0x6 SLOAD PUSH1 0x40 MLOAD SWAP1 DUP2 MSTORE RETURN JUMPDEST CALLVALUE PUSH2 0x303 JUMPI PUSH1 0x0 CALLDATASIZE PUSH1 0x3 NOT ADD SLT PUSH2 0x303 JUMPI PUSH1 0x20 PUSH1 0xD SLOAD PUSH1 0x40 MLOAD SWAP1 DUP2 MSTORE RETURN JUMPDEST CALLVALUE PUSH2 0x303 JUMPI PUSH1 0x0 CALLDATASIZE PUSH1 0x3 NOT ADD SLT PUSH2 0x303 JUMPI PUSH2 0x35D PUSH2 0x30E8 JUMP JUMPDEST PUSH2 0x365 PUSH2 0x4267 JUMP JUMPDEST SELFBALANCE PUSH2 0x371 DUP2 ISZERO ISZERO PUSH2 0x4286 JUMP JUMPDEST PUSH1 0xE SLOAD PUSH1 0x1 PUSH1 0x1 PUSH1 0xA0 SHL SUB SWAP1 DUP2 AND SWAP2 SWAP1 PUSH2 0x395 DUP4 ISZERO ISZERO PUSH2 0x390 DUP2 PUSH2 0x42C8 JUMP JUMPDEST PUSH2 0x42C8 JUMP JUMPDEST PUSH1 0x40 MLOAD SWAP3 PUSH2 0x3A2 DUP5 PUSH2 0x2E0D JUMP JUMPDEST PUSH1 0x0 DUP5 MSTORE PUSH1 0x40 MLOAD SWAP4 PUSH1 0x20 SWAP5 DUP6 DUP2 ADD SWAP2 PUSH4 0x707A02CD PUSH1 0xE1 SHL DUP4 MSTORE PUSH1 0x84 DUP3 ADD SWAP4 PUSH1 0x24 DUP4 ADD MSTORE PUSH1 0x1 SWAP4 DUP5 PUSH1 0x44 DUP5 ADD MSTORE PUSH1 0x60 PUSH1 0x64 DUP5 ADD MSTORE DUP2 MLOAD DUP1 SWAP2 MSTORE PUSH1 0xA4 DUP4 ADD SWAP1 DUP9 PUSH1 0xA4 DUP3 PUSH1 0x5 SHL DUP7 ADD ADD SWAP4 ADD SWAP2 PUSH1 0x0 SWAP1 JUMPDEST DUP8 DUP12 DUP5 DUP5 LT PUSH2 0x703 JUMPI DUP12 DUP12 DUP4 PUSH1 0x0 DUP1 DUP14 DUP14 PUSH2 0x414 DUP2 DUP16 SUB PUSH1 0x1F NOT DUP2 ADD DUP4 MSTORE DUP3 PUSH2 0x2E5E JUMP JUMPDEST MLOAD SWAP1 DUP3 PUSH2 0x167 GAS CALL PUSH2 0x424 PUSH2 0x3501 JUMP JUMPDEST SWAP1 ISZERO PUSH2 0x6EC JUMPI DUP1 MLOAD DUP2 ADD PUSH1 0x60 DUP3 DUP8 DUP4 ADD SWAP3 SUB SLT PUSH2 0x303 JUMPI PUSH2 0x446 DUP7 DUP4 ADD PUSH2 0x434B JUMP JUMPDEST SWAP2 PUSH2 0x453 PUSH1 0x40 DUP3 ADD PUSH2 0x4359 JUMP JUMPDEST POP PUSH1 0x60 DUP2 ADD MLOAD SWAP1 PUSH1 0x1 PUSH1 0x1 PUSH1 0x40 SHL SUB DUP3 GT PUSH2 0x303 JUMPI ADD DUP2 PUSH1 0x3F DUP3 ADD SLT ISZERO PUSH2 0x303 JUMPI DUP7 DUP2 ADD MLOAD PUSH1 0x40 DUP9 PUSH2 0x484 DUP4 PUSH2 0x31A3 JUMP JUMPDEST PUSH2 0x490 DUP4 MLOAD SWAP2 DUP3 PUSH2 0x2E5E JUMP JUMPDEST DUP4 DUP2 MSTORE ADD SWAP2 PUSH1 0x5 SHL DUP4 ADD ADD SWAP3 DUP4 GT PUSH2 0x303 JUMPI PUSH1 0x40 DUP9 SWAP3 ADD SWAP1 JUMPDEST DUP4 DUP3 LT PUSH2 0x6D5 JUMPI POP POP POP POP JUMPDEST PUSH1 0x3 SIGNEXTEND PUSH1 0x16 DUP2 SUB PUSH2 0x65C JUMPI POP PUSH1 0x0 SLOAD PUSH1 0x11 SLOAD PUSH1 0x40 MLOAD SWAP3 PUSH1 0x4 SWAP3 DUP6 AND PUSH2 0x4D9 DUP6 PUSH2 0x2DD7 JUMP JUMPDEST DUP7 DUP6 MSTORE DUP8 DUP6 ADD SWAP2 TIMESTAMP DUP4 MSTORE PUSH1 0x40 DUP7 ADD SWAP2 DUP3 MSTORE PUSH1 0x60 DUP7 ADD SWAP3 ADDRESS DUP5 MSTORE PUSH1 0x80 DUP8 ADD SWAP5 DUP1 DUP7 MSTORE PUSH1 0x0 MSTORE PUSH1 0xF DUP11 MSTORE PUSH1 0x40 PUSH1 0x0 KECCAK256 SWAP7 MLOAD DUP8 SSTORE MLOAD SWAP1 DUP7 ADD SSTORE DUP6 PUSH1 0x2 DUP7 ADD SWAP2 MLOAD AND SWAP1 PUSH1 0x1 PUSH1 0x1 PUSH1 0x60 SHL SUB PUSH1 0xA0 SHL SWAP2 DUP3 DUP3 SLOAD AND OR SWAP1 SSTORE DUP6 PUSH1 0x3 DUP7 ADD SWAP3 MLOAD AND SWAP1 DUP3 SLOAD AND OR SWAP1 SSTORE MLOAD SWAP2 ADD SSTORE DUP1 PUSH1 0x0 SLOAD AND PUSH1 0x0 MSTORE PUSH1 0x10 DUP4 MSTORE PUSH2 0x55B PUSH1 0x40 PUSH1 0x0 KECCAK256 PUSH1 0x11 SLOAD SWAP1 PUSH2 0x3461 JUMP JUMPDEST PUSH2 0x566 PUSH1 0x11 SLOAD PUSH2 0x349B JUMP JUMPDEST DUP1 PUSH1 0x11 SSTORE DUP2 PUSH1 0x0 SLOAD AND PUSH1 0x0 NOT DUP3 ADD SWAP2 DUP3 GT PUSH2 0x646 JUMPI PUSH1 0x40 DUP1 MLOAD SWAP3 DUP4 MSTORE PUSH1 0x20 DUP4 ADD DUP6 SWAP1 MSTORE TIMESTAMP SWAP1 DUP4 ADD MSTORE PUSH1 0x0 SWAP2 DUP3 SWAP2 DUP3 SWAP2 DUP3 SWAP2 DUP8 SWAP2 DUP2 SWAP1 PUSH32 0xB5D1185F9EB3BC9F64976A0642FA385671626DF86E9AECD91BCDA7206B045666 SWAP1 PUSH1 0x60 SWAP1 LOG2 GAS CALL PUSH2 0x5CB PUSH2 0x3501 JUMP JUMPDEST POP ISZERO PUSH2 0x608 JUMPI PUSH32 0x2E4FB6077D4ACF86E12BB7411FB82B2B3EAA6A49787F4B1E17B423E7EA841169 SWAP2 PUSH1 0x40 SWAP2 PUSH1 0x0 SLOAD AND SWAP4 DUP3 MLOAD SWAP2 DUP3 MSTORE TIMESTAMP SWAP1 DUP3 ADD MSTORE LOG2 STOP JUMPDEST PUSH1 0x40 MLOAD PUSH3 0x461BCD PUSH1 0xE5 SHL DUP2 MSTORE PUSH1 0x4 DUP2 ADD DUP5 SWAP1 MSTORE PUSH1 0x16 PUSH1 0x24 DUP3 ADD MSTORE PUSH22 0x12109054881DDA5D1A191C985DD85B0819985A5B1959 PUSH1 0x52 SHL PUSH1 0x44 DUP3 ADD MSTORE PUSH1 0x64 SWAP1 REVERT JUMPDEST PUSH4 0x4E487B71 PUSH1 0xE0 SHL PUSH1 0x0 MSTORE PUSH1 0x11 PUSH1 0x4 MSTORE PUSH1 0x24 PUSH1 0x0 REVERT JUMPDEST PUSH2 0x666 DUP6 SWAP2 PUSH2 0x365C JUMP JUMPDEST SWAP1 PUSH2 0x6B0 PUSH1 0x35 PUSH1 0x40 MLOAD DUP1 SWAP5 PUSH21 0x2321A2291036B4B73A34B733903330B4B632B21D1 PUSH1 0x5D SHL DUP6 DUP4 ADD MSTORE PUSH2 0x6A0 DUP2 MLOAD DUP1 SWAP3 DUP8 DUP7 DUP7 ADD SWAP2 ADD PUSH2 0x2EEF JUMP JUMPDEST DUP2 ADD SUB PUSH1 0x15 DUP2 ADD DUP6 MSTORE ADD DUP4 PUSH2 0x2E5E JUMP JUMPDEST PUSH2 0x6D1 PUSH1 0x40 MLOAD SWAP3 DUP4 SWAP3 PUSH3 0x461BCD PUSH1 0xE5 SHL DUP5 MSTORE PUSH1 0x4 DUP5 ADD MSTORE PUSH1 0x24 DUP4 ADD SWAP1 PUSH2 0x2F12 JUMP JUMPDEST SUB SWAP1 REVERT JUMPDEST DUP3 DUP1 SWAP2 PUSH2 0x6E1 DUP5 PUSH2 0x4359 JUMP JUMPDEST DUP2 MSTORE ADD SWAP2 ADD SWAP1 PUSH2 0x4A9 JUMP JUMPDEST POP PUSH1 0x0 PUSH1 0x40 MLOAD PUSH2 0x6FB DUP2 PUSH2 0x2E0D JUMP JUMPDEST MSTORE PUSH1 0x15 PUSH2 0x4B5 JUMP JUMPDEST PUSH2 0x71D DUP2 SWAP3 SWAP4 SWAP5 SWAP6 SWAP7 SWAP8 PUSH1 0xA3 NOT DUP11 DUP3 SUB ADD DUP7 MSTORE DUP9 MLOAD PUSH2 0x2F12 JUMP JUMPDEST SWAP7 ADD SWAP3 ADD SWAP3 ADD SWAP1 SWAP3 SWAP2 PUSH2 0x3F0 JUMP JUMPDEST CALLVALUE PUSH2 0x303 JUMPI PUSH1 0x0 CALLDATASIZE PUSH1 0x3 NOT ADD SLT PUSH2 0x303 JUMPI PUSH2 0x744 PUSH2 0x30E8 JUMP JUMPDEST PUSH2 0x74C PUSH2 0x4267 JUMP JUMPDEST SELFBALANCE PUSH2 0x758 DUP2 ISZERO ISZERO PUSH2 0x4286 JUMP JUMPDEST PUSH1 0x1 DUP1 PUSH1 0xA0 SHL SUB PUSH1 0x0 DUP1 DUP1 DUP1 DUP6 DUP6 DUP3 SLOAD AND GAS CALL PUSH2 0x773 PUSH2 0x3501 JUMP JUMPDEST POP ISZERO PUSH2 0x7B0 JUMPI PUSH1 0x40 PUSH32 0x2E4FB6077D4ACF86E12BB7411FB82B2B3EAA6A49787F4B1E17B423E7EA841169 SWAP2 PUSH1 0x0 SLOAD AND SWAP3 DUP2 MLOAD SWAP1 DUP2 MSTORE TIMESTAMP PUSH1 0x20 DUP3 ADD MSTORE LOG2 STOP JUMPDEST PUSH1 0x40 MLOAD PUSH3 0x461BCD PUSH1 0xE5 SHL DUP2 MSTORE PUSH1 0x20 PUSH1 0x4 DUP3 ADD MSTORE PUSH1 0x1B PUSH1 0x24 DUP3 ADD MSTORE PUSH32 0x456D657267656E6379207769746864726177616C206661696C65640000000000 PUSH1 0x44 DUP3 ADD MSTORE PUSH1 0x64 SWAP1 REVERT JUMPDEST CALLVALUE PUSH2 0x303 JUMPI PUSH1 0x0 CALLDATASIZE PUSH1 0x3 NOT ADD SLT PUSH2 0x303 JUMPI PUSH1 0x20 PUSH1 0x40 MLOAD PUSH2 0x2710 DUP2 MSTORE RETURN JUMPDEST CALLVALUE PUSH2 0x303 JUMPI PUSH1 0x0 CALLDATASIZE PUSH1 0x3 NOT ADD SLT PUSH2 0x303 JUMPI PUSH1 0x20 PUSH1 0x7 SLOAD PUSH1 0x40 MLOAD SWAP1 DUP2 MSTORE RETURN JUMPDEST CALLVALUE PUSH2 0x303 JUMPI PUSH1 0x40 CALLDATASIZE PUSH1 0x3 NOT ADD SLT PUSH2 0x303 JUMPI PUSH2 0x849 PUSH2 0x2D2A JUMP JUMPDEST PUSH1 0x1 PUSH1 0x1 PUSH1 0xA0 SHL SUB AND PUSH1 0x0 SWAP1 DUP2 MSTORE PUSH1 0xC PUSH1 0x20 MSTORE PUSH1 0x40 SWAP1 KECCAK256 DUP1 SLOAD PUSH1 0x24 CALLDATALOAD SWAP2 SWAP1 DUP3 LT ISZERO PUSH2 0x303 JUMPI PUSH1 0x20 SWAP2 PUSH2 0x87A SWAP2 PUSH2 0x30A4 JUMP JUMPDEST SWAP1 SLOAD PUSH1 0x40 MLOAD SWAP2 PUSH1 0x3 SHL SHR DUP2 MSTORE RETURN JUMPDEST CALLVALUE PUSH2 0x303 JUMPI PUSH1 0x20 DUP1 PUSH1 0x3 NOT CALLDATASIZE ADD SLT PUSH2 0x303 JUMPI PUSH1 0x1 PUSH1 0x1 PUSH1 0xA0 SHL SUB PUSH2 0x8AA PUSH2 0x2D2A JUMP JUMPDEST AND PUSH1 0x0 MSTORE PUSH1 0xC DUP2 MSTORE PUSH1 0x40 PUSH1 0x0 KECCAK256 SWAP1 PUSH1 0x40 MLOAD SWAP1 DUP2 DUP2 DUP5 SLOAD SWAP2 DUP3 DUP2 MSTORE ADD SWAP4 PUSH1 0x0 MSTORE DUP2 PUSH1 0x0 KECCAK256 SWAP2 PUSH1 0x0 SWAP1 JUMPDEST DUP3 DUP3 LT PUSH2 0x8F9 JUMPI PUSH2 0x8F5 DUP6 PUSH2 0x8E9 DUP2 DUP10 SUB DUP3 PUSH2 0x2E5E JUMP JUMPDEST PUSH1 0x40 MLOAD SWAP2 DUP3 SWAP2 DUP3 PUSH2 0x2D81 JUMP JUMPDEST SUB SWAP1 RETURN JUMPDEST DUP4 SLOAD DUP7 MSTORE SWAP5 DUP6 ADD SWAP5 PUSH1 0x1 SWAP4 DUP5 ADD SWAP4 SWAP1 SWAP2 ADD SWAP1 PUSH2 0x8D2 JUMP JUMPDEST CALLVALUE PUSH2 0x303 JUMPI PUSH1 0x0 CALLDATASIZE PUSH1 0x3 NOT ADD SLT PUSH2 0x303 JUMPI PUSH1 0x20 PUSH1 0x40 MLOAD PUSH1 0x1E DUP2 MSTORE RETURN JUMPDEST CALLVALUE PUSH2 0x303 JUMPI PUSH1 0x20 CALLDATASIZE PUSH1 0x3 NOT ADD SLT PUSH2 0x303 JUMPI PUSH1 0x4 CALLDATALOAD DUP1 PUSH1 0x3 SIGNEXTEND DUP2 SUB PUSH2 0x303 JUMPI PUSH2 0x956 PUSH2 0x8F5 SWAP2 PUSH2 0x365C JUMP JUMPDEST PUSH1 0x40 MLOAD SWAP2 DUP3 SWAP2 PUSH1 0x20 DUP4 MSTORE PUSH1 0x20 DUP4 ADD SWAP1 PUSH2 0x2F12 JUMP JUMPDEST PUSH1 0x0 CALLDATASIZE PUSH1 0x3 NOT ADD SLT PUSH2 0x303 JUMPI PUSH2 0x97E PUSH2 0x30E8 JUMP JUMPDEST PUSH1 0xE SLOAD PUSH1 0x1 PUSH1 0x1 PUSH1 0xA0 SHL SUB AND PUSH2 0xE39 JUMPI PUSH2 0x996 PUSH2 0x3114 JUMP JUMPDEST PUSH1 0x40 MLOAD PUSH2 0x9A2 DUP2 PUSH2 0x2DF2 JUMP JUMPDEST PUSH1 0xA DUP2 MSTORE PUSH10 0x233ABA3AB9329021A229 PUSH1 0xB1 SHL PUSH1 0x20 DUP3 ADD MSTORE DUP2 MSTORE PUSH1 0x40 MLOAD PUSH2 0x9C7 DUP2 PUSH2 0x2DF2 JUMP JUMPDEST PUSH1 0x4 DUP2 MSTORE PUSH4 0x2321A229 PUSH1 0xE1 SHL PUSH1 0x20 DUP3 ADD MSTORE PUSH1 0x20 DUP3 ADD MSTORE ADDRESS PUSH1 0x40 DUP3 ADD MSTORE PUSH1 0x40 MLOAD PUSH2 0x9EF DUP2 PUSH2 0x2E28 JUMP JUMPDEST PUSH1 0x4C DUP2 MSTORE PUSH32 0x4E6F6E2D7472616461626C6520746F6B656E20726570726573656E74696E6720 PUSH1 0x20 DUP3 ADD MSTORE PUSH32 0x656D657267656E63792048424152207769746864726177616C2066726F6D2043 PUSH1 0x40 DUP3 ADD MSTORE PUSH12 0x1B19585C94DADE481C1BDBDB PUSH1 0xA2 SHL PUSH1 0x60 DUP3 ADD MSTORE PUSH1 0x60 DUP3 ADD MSTORE PUSH1 0x40 MLOAD PUSH2 0xA65 DUP2 PUSH2 0x2E43 JUMP JUMPDEST PUSH1 0x2 DUP2 MSTORE PUSH1 0x0 JUMPDEST PUSH1 0x40 DUP2 LT PUSH2 0xE22 JUMPI POP PUSH1 0xE0 DUP3 ADD MSTORE PUSH2 0xA9B PUSH2 0xA86 ADDRESS PUSH2 0x4584 JUMP JUMPDEST PUSH1 0xE0 DUP4 ADD MLOAD SWAP1 PUSH2 0xA95 DUP3 PUSH2 0x3207 JUMP JUMPDEST MSTORE PUSH2 0x3207 JUMP JUMPDEST POP PUSH2 0xAA4 PUSH2 0x31E6 JUMP JUMPDEST POP PUSH1 0x3 PUSH1 0x0 MSTORE PUSH1 0x3 PUSH1 0x20 MSTORE PUSH2 0xAEF PUSH1 0x40 PUSH1 0x0 KECCAK256 SLOAD PUSH2 0xAC0 PUSH2 0x31BA JUMP JUMPDEST ADDRESS PUSH1 0x20 DUP3 ADD MSTORE PUSH1 0x40 MLOAD SWAP2 PUSH2 0xAD3 DUP4 PUSH2 0x2DF2 JUMP JUMPDEST DUP3 MSTORE PUSH1 0x20 DUP3 ADD MSTORE PUSH1 0xE0 DUP4 ADD MLOAD SWAP1 PUSH2 0xAE9 DUP3 PUSH2 0x3214 JUMP JUMPDEST MSTORE PUSH2 0x3214 JUMP JUMPDEST POP PUSH2 0x100 DUP2 ADD MLOAD DUP1 MLOAD PUSH1 0x7 SIGNEXTEND ISZERO DUP1 PUSH2 0xE13 JUMPI JUMPDEST PUSH2 0xE04 JUMPI JUMPDEST POP PUSH1 0x40 MLOAD PUSH4 0xFB65BF3 PUSH1 0xE0 SHL PUSH1 0x20 DUP3 ADD MSTORE PUSH1 0x60 PUSH1 0x24 DUP3 ADD MSTORE PUSH2 0xB7C PUSH2 0xB53 PUSH2 0xB3D DUP5 MLOAD PUSH2 0x160 PUSH1 0x84 DUP7 ADD MSTORE PUSH2 0x1E4 DUP6 ADD SWAP1 PUSH2 0x2F12 JUMP JUMPDEST PUSH1 0x20 DUP6 ADD MLOAD DUP5 DUP3 SUB PUSH1 0x83 NOT ADD PUSH1 0xA4 DUP7 ADD MSTORE PUSH2 0x2F12 JUMP JUMPDEST PUSH1 0x40 DUP5 ADD MLOAD PUSH1 0x1 PUSH1 0x1 PUSH1 0xA0 SHL SUB AND PUSH1 0xC4 DUP5 ADD MSTORE PUSH1 0x60 DUP5 ADD MLOAD DUP4 DUP3 SUB PUSH1 0x83 NOT ADD PUSH1 0xE4 DUP6 ADD MSTORE PUSH2 0x2F12 JUMP JUMPDEST SWAP2 PUSH1 0x80 DUP2 ADD MLOAD ISZERO ISZERO PUSH2 0x104 DUP4 ADD MSTORE PUSH1 0xA0 DUP2 ADD MLOAD PUSH1 0x7 SIGNEXTEND PUSH2 0x124 DUP4 ADD MSTORE PUSH1 0xC0 DUP2 ADD MLOAD ISZERO ISZERO PUSH2 0x144 DUP4 ADD MSTORE PUSH1 0xE0 DUP2 ADD MLOAD SWAP3 PUSH1 0x83 NOT DUP4 DUP3 SUB ADD PUSH2 0x164 DUP5 ADD MSTORE DUP4 MLOAD DUP1 DUP3 MSTORE PUSH1 0x20 DUP3 ADD SWAP2 PUSH1 0x20 DUP1 DUP4 PUSH1 0x5 SHL DUP4 ADD ADD SWAP7 ADD SWAP3 PUSH1 0x0 SWAP2 JUMPDEST DUP4 DUP4 LT PUSH2 0xD74 JUMPI PUSH1 0x0 DUP1 DUP9 PUSH2 0xC2E DUP2 DUP13 PUSH1 0x40 PUSH2 0x100 DUP14 ADD MLOAD DUP1 MLOAD PUSH1 0x7 SIGNEXTEND PUSH2 0x184 DUP6 ADD MSTORE PUSH1 0x1 DUP1 PUSH1 0xA0 SHL SUB PUSH1 0x20 DUP3 ADD MLOAD AND PUSH2 0x1A4 DUP6 ADD MSTORE ADD MLOAD PUSH1 0x7 SIGNEXTEND PUSH2 0x1C4 DUP4 ADD MSTORE DUP5 PUSH1 0x44 DUP4 ADD MSTORE DUP5 PUSH1 0x64 DUP4 ADD MSTORE SUB PUSH1 0x1F NOT DUP2 ADD DUP4 MSTORE DUP3 PUSH2 0x2E5E JUMP JUMPDEST PUSH1 0x20 DUP2 MLOAD SWAP2 ADD CALLVALUE PUSH2 0x167 GAS CALL PUSH2 0xC42 PUSH2 0x3501 JUMP JUMPDEST SWAP1 ISZERO PUSH2 0xD6A JUMPI PUSH1 0x40 DUP2 DUP1 MLOAD DUP2 ADD SUB SLT PUSH2 0x303 JUMPI PUSH1 0x40 PUSH2 0xC63 PUSH1 0x20 DUP4 ADD PUSH2 0x434B JUMP JUMPDEST SWAP2 ADD MLOAD PUSH1 0x1 PUSH1 0x1 PUSH1 0xA0 SHL SUB DUP2 AND SWAP2 SWAP1 DUP3 SWAP1 SUB PUSH2 0x303 JUMPI PUSH1 0x3 SIGNEXTEND JUMPDEST PUSH1 0x3 SIGNEXTEND PUSH1 0x16 DUP2 SUB PUSH2 0xD15 JUMPI POP PUSH1 0x1 DUP1 PUSH1 0xA0 SHL SUB AND DUP1 PUSH1 0x1 PUSH1 0x1 PUSH1 0x60 SHL SUB PUSH1 0xA0 SHL PUSH1 0xE SLOAD AND OR PUSH1 0xE SSTORE PUSH32 0xCD448DE8793F622663EEF5D50C680AB37B5A19871F9BBC24FA81E2A715A43E4F PUSH2 0x100 PUSH1 0x40 MLOAD PUSH1 0x80 DUP2 MSTORE PUSH1 0xA PUSH1 0x80 DUP3 ADD MSTORE PUSH10 0x233ABA3AB9329021A229 PUSH1 0xB1 SHL PUSH1 0xA0 DUP3 ADD MSTORE PUSH1 0xC0 PUSH1 0x20 DUP3 ADD MSTORE PUSH1 0x4 PUSH1 0xC0 DUP3 ADD MSTORE PUSH4 0x2321A229 PUSH1 0xE1 SHL PUSH1 0xE0 DUP3 ADD MSTORE PUSH1 0x0 PUSH1 0x40 DUP3 ADD MSTORE ADDRESS PUSH1 0x60 DUP3 ADD MSTORE LOG2 STOP JUMPDEST DUP1 PUSH32 0x8E087745DD680D08F64711BFDD63E4496157EAA1C1774FDDD382C76431DC1054 PUSH2 0xD52 PUSH2 0xD45 PUSH1 0x24 SWAP5 PUSH2 0x365C JUMP JUMPDEST PUSH1 0x40 MLOAD SWAP2 DUP3 SWAP2 DUP6 DUP4 PUSH2 0x3224 JUMP JUMPDEST SUB SWAP1 LOG1 PUSH1 0x40 MLOAD SWAP1 PUSH4 0x1DD454B1 PUSH1 0xE0 SHL DUP3 MSTORE PUSH1 0x4 DUP3 ADD MSTORE REVERT JUMPDEST POP PUSH1 0x0 PUSH1 0x15 PUSH2 0xC7D JUMP JUMPDEST SWAP1 SWAP2 SWAP3 SWAP4 SWAP7 PUSH1 0x20 DUP1 PUSH1 0x1 SWAP3 PUSH1 0x1F NOT DUP6 DUP3 SUB ADD DUP7 MSTORE DUP2 DUP12 MLOAD DUP1 MLOAD DUP4 MSTORE ADD MLOAD SWAP1 PUSH1 0x40 DUP4 DUP3 ADD MSTORE DUP2 MLOAD ISZERO ISZERO PUSH1 0x40 DUP3 ADD MSTORE DUP5 DUP1 PUSH1 0xA0 SHL SUB DUP4 DUP4 ADD MLOAD AND PUSH1 0x60 DUP3 ADD MSTORE PUSH1 0xC0 PUSH2 0xDE5 PUSH2 0xDCF PUSH1 0x40 DUP6 ADD MLOAD PUSH1 0xA0 PUSH1 0x80 DUP7 ADD MSTORE PUSH1 0xE0 DUP6 ADD SWAP1 PUSH2 0x2F12 JUMP JUMPDEST PUSH1 0x60 DUP6 ADD MLOAD DUP5 DUP3 SUB PUSH1 0x3F NOT ADD PUSH1 0xA0 DUP7 ADD MSTORE PUSH2 0x2F12 JUMP JUMPDEST SWAP3 PUSH1 0x80 DUP8 DUP1 PUSH1 0xA0 SHL SUB SWAP2 ADD MLOAD AND SWAP2 ADD MSTORE SWAP10 ADD SWAP4 ADD SWAP4 ADD SWAP2 SWAP4 SWAP3 SWAP1 PUSH2 0xBD3 JUMP JUMPDEST PUSH1 0x40 PUSH3 0x76A700 SWAP2 ADD MSTORE DUP2 PUSH2 0xB07 JUMP JUMPDEST POP PUSH1 0x40 DUP2 ADD MLOAD PUSH1 0x7 SIGNEXTEND ISZERO PUSH2 0xB02 JUMP JUMPDEST PUSH1 0x20 SWAP1 PUSH2 0xE2D PUSH2 0x31E6 JUMP JUMPDEST DUP3 DUP3 DUP6 ADD ADD MSTORE ADD PUSH2 0xA6C JUMP JUMPDEST PUSH1 0x40 MLOAD PUSH3 0x461BCD PUSH1 0xE5 SHL DUP2 MSTORE PUSH1 0x20 PUSH1 0x4 DUP3 ADD MSTORE PUSH1 0x1A PUSH1 0x24 DUP3 ADD MSTORE PUSH32 0x4643445220746F6B656E20616C72656164792063726561746564000000000000 PUSH1 0x44 DUP3 ADD MSTORE PUSH1 0x64 SWAP1 REVERT JUMPDEST CALLVALUE PUSH2 0x303 JUMPI PUSH1 0x20 CALLDATASIZE PUSH1 0x3 NOT ADD SLT PUSH2 0x303 JUMPI PUSH2 0xE97 PUSH2 0x2D2A JUMP JUMPDEST POP PUSH2 0x8F5 PUSH2 0xEA3 PUSH2 0x35A3 JUMP JUMPDEST PUSH1 0x40 DUP1 MLOAD SWAP4 DUP5 MSTORE PUSH1 0x20 DUP5 ADD SWAP3 SWAP1 SWAP3 MSTORE SWAP1 DUP3 ADD MSTORE SWAP1 DUP2 SWAP1 PUSH1 0x60 DUP3 ADD SWAP1 JUMP JUMPDEST CALLVALUE PUSH2 0x303 JUMPI PUSH1 0x20 PUSH2 0xED9 PUSH2 0xED3 CALLDATASIZE PUSH2 0x30D2 JUMP JUMPDEST SWAP1 PUSH2 0x3558 JUMP JUMPDEST PUSH1 0x40 MLOAD SWAP1 DUP2 MSTORE RETURN JUMPDEST PUSH1 0x80 CALLDATASIZE PUSH1 0x3 NOT ADD SLT PUSH2 0x303 JUMPI PUSH1 0x64 CALLDATALOAD PUSH2 0xF4D PUSH1 0x44 CALLDATALOAD PUSH1 0x24 CALLDATALOAD PUSH2 0xF01 PUSH2 0x32BC JUMP JUMPDEST PUSH2 0xF09 PUSH2 0x329E JUMP JUMPDEST PUSH2 0xF1A PUSH1 0xFF PUSH1 0xA SLOAD PUSH1 0xA8 SHR AND PUSH2 0x323E JUMP JUMPDEST PUSH2 0xF27 PUSH1 0x6 SLOAD ISZERO ISZERO PUSH2 0x32DF JUMP JUMPDEST PUSH2 0xF32 CALLVALUE ISZERO ISZERO PUSH2 0x3322 JUMP JUMPDEST PUSH2 0xF3D DUP2 ISZERO ISZERO PUSH2 0x3361 JUMP JUMPDEST PUSH2 0xF48 DUP3 ISZERO ISZERO PUSH2 0x33B7 JUMP JUMPDEST PUSH2 0x3558 JUMP JUMPDEST PUSH2 0xF59 CALLVALUE PUSH1 0x5 SLOAD PUSH2 0x3414 JUMP JUMPDEST PUSH1 0x5 SSTORE PUSH2 0xF68 CALLVALUE PUSH1 0x7 SLOAD PUSH2 0x3414 JUMP JUMPDEST PUSH1 0x7 SSTORE DUP2 ISZERO PUSH2 0x12E0 JUMPI PUSH2 0xF7F PUSH1 0x4 CALLDATALOAD DUP4 LT ISZERO PUSH2 0x3421 JUMP JUMPDEST PUSH1 0x1 PUSH1 0x1 PUSH1 0x40 SHL SUB DUP3 AND PUSH1 0x7 SIGNEXTEND PUSH1 0x1 DUP1 PUSH1 0xA0 SHL SUB SWAP1 PUSH2 0xFE0 DUP3 PUSH1 0x4 SLOAD AND PUSH1 0x40 MLOAD DUP4 DUP2 MSTORE DUP2 PUSH32 0xB7555D949A897ACB395F95E3F2DF8B700519404826BB13CD6526B756F6A1C907 PUSH1 0x20 CALLER SWAP4 LOG3 DUP3 PUSH1 0x40 MLOAD SWAP2 PUSH2 0xFD7 DUP4 PUSH2 0x2E0D JUMP JUMPDEST PUSH1 0x0 DUP4 MSTORE PUSH2 0x4367 JUMP JUMPDEST POP SWAP3 SWAP1 PUSH1 0x16 DUP2 SUB PUSH2 0x1252 JUMPI POP PUSH2 0x102D DUP3 DUP3 PUSH1 0x4 SLOAD AND PUSH1 0x40 MLOAD DUP3 DUP2 MSTORE CALLER SWAP1 DUP3 PUSH32 0xD9CD850143C0756B15B46EBDC8B4ED7701B66AAED30858EE17A225EB005CCA2E PUSH1 0x20 ADDRESS SWAP4 LOG4 CALLER SWAP1 ADDRESS SWAP1 PUSH2 0x44F0 JUMP JUMPDEST PUSH1 0x16 DUP2 SUB PUSH2 0x11BC JUMPI POP PUSH2 0x1042 DUP6 PUSH1 0x6 SLOAD PUSH2 0x3414 JUMP JUMPDEST PUSH1 0x6 SSTORE PUSH1 0x4 SLOAD AND SWAP2 DUP3 PUSH32 0xAD91542866F4DA9EBED5A2B1713258F4BF970F84E7B2A0B8AAB2DE28D11FFFFD PUSH1 0x40 MLOAD DUP1 PUSH2 0x108F CALLER SWAP6 DUP8 DUP4 SWAP1 SWAP3 SWAP2 PUSH1 0x20 SWAP1 PUSH1 0x40 DUP4 ADD SWAP5 PUSH1 0x7 SIGNEXTEND DUP4 MSTORE PUSH1 0x7 SIGNEXTEND SWAP2 ADD MSTORE JUMP JUMPDEST SUB SWAP1 LOG3 PUSH1 0x40 MLOAD SWAP1 DUP2 MSTORE CALLER SWAP2 PUSH32 0x67325B2F3DE1D8273FC1AEEAF3B161488FC28427430D9F6B341831DEDFC2D633 PUSH1 0x20 ADDRESS SWAP4 LOG4 JUMPDEST PUSH1 0x40 MLOAD PUSH2 0x10CD DUP2 PUSH2 0x2DBC JUMP JUMPDEST CALLVALUE DUP2 MSTORE PUSH1 0x20 DUP2 ADD SWAP2 TIMESTAMP DUP4 MSTORE PUSH1 0x40 DUP3 ADD SWAP1 DUP2 MSTORE PUSH1 0x60 DUP3 ADD DUP5 DUP2 MSTORE PUSH1 0x80 DUP4 ADD SWAP2 CALLER DUP4 MSTORE PUSH1 0xA0 DUP5 ADD SWAP5 ADDRESS DUP7 MSTORE PUSH1 0xD SLOAD PUSH1 0x0 MSTORE PUSH1 0xB PUSH1 0x20 MSTORE PUSH1 0x40 PUSH1 0x0 KECCAK256 SWAP5 MLOAD DUP6 SSTORE MLOAD PUSH1 0x1 DUP6 ADD SSTORE MLOAD PUSH1 0x2 DUP5 ADD SSTORE MLOAD PUSH1 0x3 DUP4 ADD SSTORE PUSH1 0x5 PUSH1 0x4 DUP4 ADD SWAP3 PUSH1 0x1 DUP1 PUSH1 0xA0 SHL SUB DUP1 SWAP4 MLOAD AND SWAP4 PUSH1 0x1 PUSH1 0x1 PUSH1 0x60 SHL SUB PUSH1 0xA0 SHL SWAP5 DUP6 DUP3 SLOAD AND OR SWAP1 SSTORE ADD SWAP3 MLOAD AND SWAP1 DUP3 SLOAD AND OR SWAP1 SSTORE CALLER PUSH1 0x0 MSTORE PUSH1 0xC PUSH1 0x20 MSTORE PUSH2 0x1167 PUSH1 0x40 PUSH1 0x0 KECCAK256 PUSH1 0xD SLOAD SWAP1 PUSH2 0x3461 JUMP JUMPDEST PUSH2 0x1172 PUSH1 0xD SLOAD PUSH2 0x349B JUMP JUMPDEST PUSH1 0xD SSTORE PUSH1 0x40 DUP1 MLOAD CALLVALUE DUP2 MSTORE PUSH1 0x20 DUP2 ADD SWAP3 SWAP1 SWAP3 MSTORE TIMESTAMP SWAP1 DUP3 ADD MSTORE CALLER SWAP1 PUSH32 0x64B83944E79C3CE8D4C297411DE637C3E102D064677AAC0C163976EBDCD6F50E SWAP1 DUP1 PUSH1 0x60 DUP2 ADD JUMPDEST SUB SWAP1 LOG2 PUSH1 0x1 DUP1 SSTORE STOP JUMPDEST SWAP1 PUSH1 0x4 SLOAD AND PUSH32 0xCC975F63304DFDAA80A8ECBFBFC654FD86EA8A7CDB68086A0D883F26AD08E4C1 PUSH1 0x40 MLOAD DUP1 PUSH2 0x120A CALLER SWAP7 ADDRESS SWAP7 PUSH1 0x3 SIGNEXTEND SWAP1 DUP4 SWAP1 SWAP3 SWAP2 PUSH1 0x20 SWAP1 PUSH1 0x40 DUP4 ADD SWAP5 PUSH1 0x7 SIGNEXTEND DUP4 MSTORE PUSH1 0x3 SIGNEXTEND SWAP2 ADD MSTORE JUMP JUMPDEST SUB SWAP1 LOG4 PUSH1 0x40 MLOAD PUSH3 0x461BCD PUSH1 0xE5 SHL DUP2 MSTORE PUSH1 0x20 PUSH1 0x4 DUP3 ADD MSTORE PUSH1 0x19 PUSH1 0x24 DUP3 ADD MSTORE PUSH32 0x48545320746F6B656E207472616E73666572206661696C656400000000000000 PUSH1 0x44 DUP3 ADD MSTORE PUSH1 0x64 SWAP1 REVERT JUMPDEST PUSH1 0x4 SLOAD PUSH1 0x40 DUP1 MLOAD PUSH1 0x7 DUP7 SWAP1 SIGNEXTEND DUP2 MSTORE PUSH1 0x3 SWAP4 SWAP1 SWAP4 SIGNEXTEND PUSH1 0x20 DUP5 ADD MSTORE CALLER SWAP3 SWAP2 DUP5 AND SWAP2 PUSH32 0x3F5E21A75677E84382C9F010B9F5780B534BB2A966C378FA090D12BA52CAA08 SWAP2 DUP2 SWAP1 DUP2 ADD JUMPDEST SUB SWAP1 LOG3 PUSH1 0x40 MLOAD PUSH3 0x461BCD PUSH1 0xE5 SHL DUP2 MSTORE PUSH1 0x20 PUSH1 0x4 DUP3 ADD MSTORE PUSH1 0x18 PUSH1 0x24 DUP3 ADD MSTORE PUSH32 0x48545320746F6B656E206D696E74696E67206661696C65640000000000000000 PUSH1 0x44 DUP3 ADD MSTORE PUSH1 0x64 SWAP1 REVERT JUMPDEST PUSH2 0x10C1 JUMP JUMPDEST CALLVALUE PUSH2 0x303 JUMPI PUSH1 0x0 CALLDATASIZE PUSH1 0x3 NOT ADD SLT PUSH2 0x303 JUMPI PUSH1 0x0 PUSH1 0x80 PUSH1 0x40 MLOAD PUSH2 0x1306 DUP2 PUSH2 0x2DD7 JUMP JUMPDEST PUSH1 0x60 DUP2 MSTORE PUSH1 0x60 PUSH1 0x20 DUP3 ADD MSTORE DUP3 PUSH1 0x40 DUP3 ADD MSTORE DUP3 PUSH1 0x60 DUP3 ADD MSTORE ADD MSTORE PUSH2 0x1398 PUSH1 0x40 MLOAD PUSH2 0x132E DUP2 PUSH2 0x2DD7 JUMP JUMPDEST PUSH2 0x1336 PUSH2 0x2F71 JUMP JUMPDEST DUP2 MSTORE PUSH2 0x1340 PUSH2 0x301D JUMP JUMPDEST PUSH1 0x20 DUP3 ADD SWAP1 DUP2 MSTORE PUSH1 0xA SLOAD PUSH1 0x40 DUP4 ADD SWAP2 PUSH1 0xFF DUP3 AND DUP4 MSTORE PUSH1 0x60 DUP5 ADD PUSH1 0xFF PUSH2 0x13AB PUSH1 0x1 DUP1 PUSH1 0xA0 SHL SUB SWAP4 DUP5 DUP7 PUSH1 0x8 SHR AND DUP5 MSTORE DUP3 PUSH1 0x80 DUP10 ADD SWAP7 PUSH1 0xA8 SHR AND ISZERO ISZERO DUP7 MSTORE PUSH1 0x40 MLOAD SWAP9 DUP10 SWAP9 PUSH1 0x20 DUP11 MSTORE MLOAD PUSH1 0xA0 PUSH1 0x20 DUP12 ADD MSTORE PUSH1 0xC0 DUP11 ADD SWAP1 PUSH2 0x2F12 JUMP JUMPDEST SWAP1 MLOAD DUP9 DUP3 SUB PUSH1 0x1F NOT ADD PUSH1 0x40 DUP11 ADD MSTORE PUSH2 0x2F12 JUMP JUMPDEST SWAP5 MLOAD AND PUSH1 0x60 DUP7 ADD MSTORE MLOAD AND PUSH1 0x80 DUP5 ADD MSTORE MLOAD ISZERO ISZERO PUSH1 0xA0 DUP4 ADD MSTORE SUB SWAP1 RETURN JUMPDEST CALLVALUE PUSH2 0x303 JUMPI PUSH1 0x20 CALLDATASIZE PUSH1 0x3 NOT ADD SLT PUSH2 0x303 JUMPI PUSH2 0x13DF PUSH2 0x2D2A JUMP JUMPDEST POP PUSH1 0x20 PUSH2 0xED9 PUSH2 0x361F JUMP JUMPDEST CALLVALUE PUSH2 0x303 JUMPI PUSH1 0x0 CALLDATASIZE PUSH1 0x3 NOT ADD SLT PUSH2 0x303 JUMPI PUSH1 0x20 PUSH1 0x11 SLOAD PUSH1 0x40 MLOAD SWAP1 DUP2 MSTORE RETURN JUMPDEST CALLVALUE PUSH2 0x303 JUMPI PUSH2 0x1416 CALLDATASIZE PUSH2 0x30D2 JUMP JUMPDEST PUSH2 0x141E PUSH2 0x32BC JUMP JUMPDEST PUSH2 0x1426 PUSH2 0x329E JUMP JUMPDEST PUSH2 0x1437 PUSH1 0xFF PUSH1 0xA SLOAD PUSH1 0xA8 SHR AND PUSH2 0x323E JUMP JUMPDEST DUP2 ISZERO PUSH2 0x17B0 JUMPI PUSH1 0x6 SLOAD DUP1 ISZERO PUSH2 0x1774 JUMPI PUSH1 0x5 SLOAD PUSH2 0x1468 PUSH2 0x145F DUP4 PUSH2 0x145A DUP5 DUP9 PUSH2 0x34AA JUMP JUMPDEST PUSH2 0x327E JUMP JUMPDEST SWAP4 DUP5 LT ISZERO PUSH2 0x3421 JUMP JUMPDEST SELFBALANCE DUP4 GT PUSH2 0x172F JUMPI PUSH2 0x1486 SWAP2 PUSH2 0x147E DUP5 DUP7 SWAP4 PUSH2 0x34BD JUMP JUMPDEST PUSH1 0x5 SSTORE PUSH2 0x34BD JUMP JUMPDEST PUSH1 0x6 SSTORE PUSH2 0x1495 DUP2 PUSH1 0x7 SLOAD PUSH2 0x34BD JUMP JUMPDEST PUSH1 0x7 SSTORE PUSH1 0x1 PUSH1 0x1 PUSH1 0x40 SHL SUB DUP3 AND PUSH1 0x7 SIGNEXTEND PUSH1 0x40 MLOAD PUSH2 0x14B1 DUP2 PUSH2 0x2E0D JUMP JUMPDEST PUSH1 0x0 DUP2 MSTORE PUSH1 0x0 DUP1 PUSH1 0x1 DUP1 PUSH1 0xA0 SHL SUB SWAP3 PUSH2 0x153D PUSH2 0x154B DUP6 PUSH1 0x4 SLOAD AND SWAP3 DUP4 PUSH32 0xB310AAAC57F9A89F4E3661E38CB8DF5EA9428B82D1BB2B8AB6A77C3F52818F02 PUSH1 0x40 MLOAD DUP11 DUP2 MSTORE PUSH1 0x40 PUSH1 0x20 DUP3 ADD MSTORE DUP1 PUSH2 0x1509 PUSH1 0x40 DUP3 ADD DUP7 PUSH2 0x34CA JUMP JUMPDEST SUB SWAP1 LOG2 PUSH1 0x40 MLOAD SWAP3 DUP4 SWAP2 PUSH1 0x20 DUP4 ADD SWAP6 PUSH4 0x6B488683 PUSH1 0xE1 SHL DUP8 MSTORE PUSH1 0x24 DUP5 ADD MSTORE DUP10 PUSH1 0x44 DUP5 ADD MSTORE PUSH1 0x60 PUSH1 0x64 DUP5 ADD MSTORE PUSH1 0x84 DUP4 ADD SWAP1 PUSH2 0x34CA JUMP JUMPDEST SUB PUSH1 0x1F NOT DUP2 ADD DUP4 MSTORE DUP3 PUSH2 0x2E5E JUMP JUMPDEST MLOAD SWAP1 DUP3 PUSH2 0x167 GAS CALL SWAP1 PUSH2 0x155C PUSH2 0x3501 JUMP JUMPDEST SWAP2 ISZERO PUSH2 0x1724 JUMPI PUSH1 0x40 DUP3 DUP1 MLOAD DUP2 ADD SUB SLT PUSH2 0x303 JUMPI PUSH2 0x1587 PUSH1 0x40 PUSH2 0x1580 PUSH1 0x20 DUP6 ADD PUSH2 0x434B JUMP JUMPDEST SWAP4 ADD PUSH2 0x4359 JUMP JUMPDEST SWAP2 JUMPDEST PUSH1 0x3 SIGNEXTEND PUSH1 0x16 DUP2 SUB PUSH2 0x166A JUMPI POP PUSH1 0x4 SLOAD PUSH1 0x40 DUP1 MLOAD PUSH1 0x7 SWAP6 DUP7 SIGNEXTEND DUP2 MSTORE SWAP4 SWAP1 SWAP5 SIGNEXTEND PUSH1 0x20 DUP5 ADD MSTORE AND SWAP2 PUSH32 0x7B2F31B2FFDA9D7A1AC640400C8F7EB1C8D0071689111F45797448A14697587C SWAP2 LOG2 PUSH1 0x0 DUP1 DUP1 DUP1 DUP5 CALLER GAS CALL PUSH2 0x15E2 PUSH2 0x3501 JUMP JUMPDEST POP ISZERO PUSH2 0x162E JUMPI PUSH2 0x11B3 PUSH32 0x1DC8BB69DF2B8E91FBDCBFCF93D951B3F0000F085A95FE3F7946D6161439245D SWAP2 PUSH1 0x40 MLOAD SWAP2 DUP3 SWAP2 CALLER SWAP6 TIMESTAMP SWAP2 DUP5 PUSH1 0x40 SWAP2 SWAP5 SWAP4 SWAP3 PUSH1 0x60 DUP3 ADD SWAP6 DUP3 MSTORE PUSH1 0x20 DUP3 ADD MSTORE ADD MSTORE JUMP JUMPDEST PUSH1 0x40 MLOAD PUSH3 0x461BCD PUSH1 0xE5 SHL DUP2 MSTORE PUSH1 0x20 PUSH1 0x4 DUP3 ADD MSTORE PUSH1 0x14 PUSH1 0x24 DUP3 ADD MSTORE PUSH20 0x12109054881D1C985B9CD9995C8819985A5B1959 PUSH1 0x62 SHL PUSH1 0x44 DUP3 ADD MSTORE PUSH1 0x64 SWAP1 REVERT JUMPDEST SWAP2 POP PUSH2 0x16B4 DUP5 PUSH2 0x16AB DUP8 PUSH2 0x16A2 PUSH32 0xCCCB9CA916A4B1199913D752D315547B23A41451AB4C699F6BAE82CECF211B1E SWAP8 SWAP9 PUSH1 0x5 SLOAD PUSH2 0x3414 JUMP JUMPDEST POP PUSH1 0x6 SLOAD PUSH2 0x3414 JUMP JUMPDEST POP PUSH1 0x7 SLOAD PUSH2 0x3414 JUMP JUMPDEST POP PUSH1 0x4 SLOAD AND SWAP3 PUSH2 0x16DC PUSH1 0x40 MLOAD SWAP3 DUP4 SWAP3 DUP4 SWAP1 SWAP3 SWAP2 PUSH1 0x20 SWAP1 PUSH1 0x40 DUP4 ADD SWAP5 PUSH1 0x7 SIGNEXTEND DUP4 MSTORE PUSH1 0x3 SIGNEXTEND SWAP2 ADD MSTORE JUMP JUMPDEST SUB SWAP1 LOG2 PUSH1 0x40 MLOAD PUSH3 0x461BCD PUSH1 0xE5 SHL DUP2 MSTORE PUSH1 0x20 PUSH1 0x4 DUP3 ADD MSTORE PUSH1 0x18 PUSH1 0x24 DUP3 ADD MSTORE PUSH32 0x48545320746F6B656E206275726E696E67206661696C65640000000000000000 PUSH1 0x44 DUP3 ADD MSTORE PUSH1 0x64 SWAP1 REVERT JUMPDEST PUSH1 0x0 SWAP2 POP PUSH1 0x15 PUSH2 0x1589 JUMP JUMPDEST PUSH1 0x40 MLOAD PUSH3 0x461BCD PUSH1 0xE5 SHL DUP2 MSTORE PUSH1 0x20 PUSH1 0x4 DUP3 ADD MSTORE PUSH1 0x19 PUSH1 0x24 DUP3 ADD MSTORE PUSH32 0x496E73756666696369656E74204842415220696E20706F6F6C00000000000000 PUSH1 0x44 DUP3 ADD MSTORE PUSH1 0x64 SWAP1 REVERT JUMPDEST PUSH1 0x40 MLOAD PUSH3 0x461BCD PUSH1 0xE5 SHL DUP2 MSTORE PUSH1 0x20 PUSH1 0x4 DUP3 ADD MSTORE PUSH1 0x14 PUSH1 0x24 DUP3 ADD MSTORE PUSH20 0x139BC81B1A5C5D5A591A5D1E481A5B881C1BDBDB PUSH1 0x62 SHL PUSH1 0x44 DUP3 ADD MSTORE PUSH1 0x64 SWAP1 REVERT JUMPDEST PUSH1 0x40 MLOAD PUSH3 0x461BCD PUSH1 0xE5 SHL DUP2 MSTORE PUSH1 0x20 PUSH1 0x4 DUP3 ADD MSTORE PUSH1 0x16 PUSH1 0x24 DUP3 ADD MSTORE PUSH22 0x139BC81314081D1BDAD95B9CC81CDC1958DA599A5959 PUSH1 0x52 SHL PUSH1 0x44 DUP3 ADD MSTORE PUSH1 0x64 SWAP1 REVERT JUMPDEST CALLVALUE PUSH2 0x303 JUMPI PUSH1 0x0 DUP1 PUSH2 0x1849 PUSH2 0x153D PUSH2 0x1805 CALLDATASIZE PUSH2 0x2D40 JUMP JUMPDEST PUSH1 0x40 MLOAD PUSH4 0x9B23D3D9 PUSH1 0xE0 SHL PUSH1 0x20 DUP3 ADD SWAP1 DUP2 MSTORE PUSH1 0x1 PUSH1 0x1 PUSH1 0xA0 SHL SUB SWAP6 DUP7 AND PUSH1 0x24 DUP4 ADD MSTORE SWAP4 DUP6 AND PUSH1 0x44 DUP3 ADD MSTORE SWAP4 SWAP1 SWAP2 AND PUSH1 0x64 DUP5 ADD MSTORE PUSH1 0x84 DUP4 ADD MSTORE SWAP3 SWAP1 SWAP2 DUP3 SWAP1 PUSH1 0xA4 DUP3 ADD SWAP1 JUMP JUMPDEST MLOAD SWAP1 DUP3 PUSH2 0x167 GAS CALL PUSH2 0x1859 PUSH2 0x3501 JUMP JUMPDEST SWAP1 ISZERO PUSH2 0x1884 JUMPI PUSH1 0x20 DUP2 DUP1 MLOAD DUP2 ADD SUB SLT PUSH2 0x303 JUMPI PUSH2 0x1879 PUSH1 0x20 DUP1 SWAP3 ADD PUSH2 0x434B JUMP JUMPDEST PUSH1 0x40 MLOAD SWAP1 PUSH1 0x3 SIGNEXTEND DUP2 MSTORE RETURN JUMPDEST POP PUSH1 0x20 PUSH1 0x15 PUSH2 0x1879 JUMP JUMPDEST CALLVALUE PUSH2 0x303 JUMPI PUSH1 0x0 CALLDATASIZE PUSH1 0x3 NOT ADD SLT PUSH2 0x303 JUMPI PUSH1 0x0 SLOAD PUSH1 0x40 MLOAD PUSH1 0x1 PUSH1 0x1 PUSH1 0xA0 SHL SUB SWAP1 SWAP2 AND DUP2 MSTORE PUSH1 0x20 SWAP1 RETURN JUMPDEST CALLVALUE PUSH2 0x303 JUMPI PUSH1 0x0 CALLDATASIZE PUSH1 0x3 NOT ADD SLT PUSH2 0x303 JUMPI PUSH2 0x18D0 PUSH2 0x30E8 JUMP JUMPDEST PUSH2 0x18D8 PUSH2 0x329E JUMP JUMPDEST PUSH1 0x1 PUSH1 0xFF NOT PUSH1 0x2 SLOAD AND OR PUSH1 0x2 SSTORE PUSH32 0x62E78CEA01BEE320CD4E420270B5EA74000D11B0C9F74754EBDBFC544B05A258 PUSH1 0x20 PUSH1 0x40 MLOAD CALLER DUP2 MSTORE LOG1 STOP JUMPDEST CALLVALUE PUSH2 0x303 JUMPI PUSH1 0x40 CALLDATASIZE PUSH1 0x3 NOT ADD SLT PUSH2 0x303 JUMPI PUSH2 0x192A PUSH2 0x2D2A JUMP JUMPDEST PUSH1 0x1 PUSH1 0x1 PUSH1 0xA0 SHL SUB AND PUSH1 0x0 SWAP1 DUP2 MSTORE PUSH1 0x10 PUSH1 0x20 MSTORE PUSH1 0x40 SWAP1 KECCAK256 DUP1 SLOAD PUSH1 0x24 CALLDATALOAD SWAP2 SWAP1 DUP3 LT ISZERO PUSH2 0x303 JUMPI PUSH1 0x20 SWAP2 PUSH2 0x87A SWAP2 PUSH2 0x30A4 JUMP JUMPDEST CALLVALUE PUSH2 0x303 JUMPI PUSH1 0x20 DUP1 PUSH1 0x3 NOT CALLDATASIZE ADD SLT PUSH2 0x303 JUMPI PUSH1 0x4 CALLDATALOAD PUSH2 0x1978 PUSH2 0x30E8 JUMP JUMPDEST PUSH1 0xE SLOAD PUSH1 0x1 PUSH1 0x1 PUSH1 0xA0 SHL SUB SWAP1 DUP2 AND SWAP2 PUSH2 0x1992 DUP4 ISZERO ISZERO PUSH2 0x42C8 JUMP JUMPDEST PUSH2 0x199F PUSH1 0x11 SLOAD DUP3 LT PUSH2 0x430D JUMP JUMPDEST PUSH1 0x0 MSTORE PUSH1 0xF DUP4 MSTORE PUSH1 0x40 PUSH1 0x0 KECCAK256 SWAP1 PUSH1 0x40 MLOAD PUSH2 0x19B8 DUP2 PUSH2 0x2DD7 JUMP JUMPDEST DUP3 SLOAD DUP2 MSTORE PUSH1 0x1 DUP4 ADD SLOAD DUP6 DUP3 ADD MSTORE PUSH1 0x80 PUSH1 0x4 DUP4 PUSH1 0x2 DUP7 ADD SLOAD AND SWAP5 DUP6 PUSH1 0x40 DUP6 ADD MSTORE DUP5 PUSH1 0x3 DUP3 ADD SLOAD AND PUSH1 0x60 DUP6 ADD MSTORE ADD SLOAD SWAP2 ADD MSTORE PUSH1 0x0 SLOAD AND SUB PUSH2 0x1AAA JUMPI PUSH1 0x0 DUP1 SWAP2 PUSH1 0x40 MLOAD DUP5 DUP2 ADD SWAP2 PUSH4 0xEFEF57F9 PUSH1 0xE0 SHL DUP4 MSTORE PUSH1 0x24 DUP3 ADD MSTORE ADDRESS PUSH1 0x44 DUP3 ADD MSTORE PUSH1 0x1 PUSH1 0x64 DUP3 ADD MSTORE PUSH1 0x64 DUP2 MSTORE PUSH2 0x1A25 DUP2 PUSH2 0x2DD7 JUMP JUMPDEST MLOAD SWAP1 DUP3 PUSH2 0x167 GAS CALL PUSH2 0x1A35 PUSH2 0x3501 JUMP JUMPDEST SWAP1 ISZERO PUSH2 0x1AA2 JUMPI DUP2 DUP2 DUP1 MLOAD DUP2 ADD SUB SLT PUSH2 0x303 JUMPI DUP2 PUSH2 0x1A52 SWAP2 ADD PUSH2 0x434B JUMP JUMPDEST PUSH1 0x3 SIGNEXTEND PUSH1 0x16 DUP2 SUB PUSH2 0x1A5F JUMPI STOP JUMPDEST PUSH2 0x1A68 SWAP1 PUSH2 0x365C JUMP JUMPDEST SWAP1 PUSH2 0x6B0 PUSH1 0x35 PUSH1 0x40 MLOAD DUP1 SWAP5 PUSH21 0x2321A22910313AB93734B733903330B4B632B21D1 PUSH1 0x5D SHL DUP6 DUP4 ADD MSTORE PUSH2 0x6A0 DUP2 MLOAD DUP1 SWAP3 DUP8 DUP7 DUP7 ADD SWAP2 ADD PUSH2 0x2EEF JUMP JUMPDEST POP PUSH1 0x15 PUSH2 0x1A52 JUMP JUMPDEST PUSH1 0x40 MLOAD PUSH3 0x461BCD PUSH1 0xE5 SHL DUP2 MSTORE PUSH1 0x4 DUP2 ADD DUP4 SWAP1 MSTORE PUSH1 0x1A PUSH1 0x24 DUP3 ADD MSTORE PUSH32 0x4E6F7420746865206F776E6572206F6620746869732046434452000000000000 PUSH1 0x44 DUP3 ADD MSTORE PUSH1 0x64 SWAP1 REVERT JUMPDEST CALLVALUE PUSH2 0x303 JUMPI PUSH1 0x0 CALLDATASIZE PUSH1 0x3 NOT ADD SLT PUSH2 0x303 JUMPI PUSH2 0x1B08 PUSH2 0x30E8 JUMP JUMPDEST PUSH1 0x0 DUP1 SLOAD PUSH1 0x1 PUSH1 0x1 PUSH1 0xA0 SHL SUB NOT DUP2 AND DUP3 SSTORE PUSH1 0x1 PUSH1 0x1 PUSH1 0xA0 SHL SUB AND PUSH32 0x8BE0079C531659141344CD1FD0A4F28419497F9722A3DAAFE3B4186F6B6457E0 DUP3 DUP1 LOG3 STOP JUMPDEST CALLVALUE PUSH2 0x303 JUMPI PUSH1 0x0 CALLDATASIZE PUSH1 0x3 NOT ADD SLT PUSH2 0x303 JUMPI PUSH2 0x1B89 PUSH2 0x1B64 PUSH2 0x2F71 JUMP JUMPDEST PUSH2 0x1B6C PUSH2 0x301D JUMP JUMPDEST PUSH1 0xFF PUSH2 0x1B97 PUSH1 0xA SLOAD SWAP3 PUSH1 0x40 MLOAD SWAP6 DUP7 SWAP6 PUSH1 0xA0 DUP8 MSTORE PUSH1 0xA0 DUP8 ADD SWAP1 PUSH2 0x2F12 JUMP JUMPDEST SWAP1 DUP6 DUP3 SUB PUSH1 0x20 DUP8 ADD MSTORE PUSH2 0x2F12 JUMP JUMPDEST DUP2 DUP4 AND PUSH1 0x40 DUP6 ADD MSTORE PUSH1 0x8 DUP4 SWAP1 SHR PUSH1 0x1 PUSH1 0x1 PUSH1 0xA0 SHL SUB AND PUSH1 0x60 DUP6 ADD MSTORE PUSH1 0xA8 SWAP3 SWAP1 SWAP3 SHR AND ISZERO ISZERO PUSH1 0x80 DUP4 ADD MSTORE SUB SWAP1 RETURN JUMPDEST CALLVALUE PUSH2 0x303 JUMPI PUSH1 0x40 CALLDATASIZE PUSH1 0x3 NOT ADD SLT PUSH2 0x303 JUMPI PUSH2 0x1BDD PUSH2 0x2D2A JUMP JUMPDEST PUSH1 0x24 CALLDATALOAD PUSH1 0x1 PUSH1 0x1 PUSH1 0x40 SHL SUB DUP2 GT PUSH2 0x303 JUMPI CALLDATASIZE PUSH1 0x23 DUP3 ADD SLT ISZERO PUSH2 0x303 JUMPI PUSH1 0x0 SWAP2 PUSH2 0x153D PUSH2 0x1C4F PUSH2 0x1C17 DUP6 SWAP5 CALLDATASIZE SWAP1 PUSH1 0x24 DUP2 PUSH1 0x4 ADD CALLDATALOAD SWAP2 ADD PUSH2 0x2E9A JUMP JUMPDEST PUSH1 0x40 DUP1 MLOAD PUSH4 0x30C6E32F PUSH1 0xE1 SHL PUSH1 0x20 DUP3 ADD SWAP1 DUP2 MSTORE PUSH1 0x1 PUSH1 0x1 PUSH1 0xA0 SHL SUB SWAP1 SWAP7 AND PUSH1 0x24 DUP3 ADD MSTORE PUSH1 0x44 DUP2 ADD SWAP2 SWAP1 SWAP2 MSTORE SWAP3 DUP4 SWAP2 PUSH1 0x64 DUP4 ADD SWAP1 PUSH2 0x2F12 JUMP JUMPDEST MLOAD SWAP1 DUP3 PUSH2 0x167 GAS CALL PUSH2 0x1C5F PUSH2 0x3501 JUMP JUMPDEST SWAP1 PUSH32 0x4AF4780E06FE8CB9DF64B0794FA6F01399AF979175BB988E35E0E57E594567BC PUSH1 0x40 MLOAD DUP3 ISZERO ISZERO DUP2 MSTORE PUSH1 0x40 PUSH1 0x20 DUP3 ADD MSTORE DUP1 PUSH2 0x1C9E PUSH1 0x40 DUP3 ADD DUP7 PUSH2 0x2F12 JUMP JUMPDEST SUB SWAP1 LOG1 ISZERO PUSH2 0x1CC8 JUMPI PUSH1 0x16 JUMPDEST PUSH2 0x8F5 PUSH1 0x40 MLOAD SWAP3 DUP4 SWAP3 PUSH1 0x3 SIGNEXTEND DUP4 MSTORE PUSH1 0x40 PUSH1 0x20 DUP5 ADD MSTORE PUSH1 0x40 DUP4 ADD SWAP1 PUSH2 0x2F12 JUMP JUMPDEST POP PUSH1 0x40 MLOAD PUSH2 0x1CD5 DUP2 PUSH2 0x2E0D JUMP JUMPDEST PUSH1 0x0 DUP2 MSTORE PUSH1 0x15 PUSH2 0x1CA9 JUMP JUMPDEST CALLVALUE PUSH2 0x303 JUMPI PUSH1 0x0 CALLDATASIZE PUSH1 0x3 NOT ADD SLT PUSH2 0x303 JUMPI PUSH1 0x5 SLOAD PUSH1 0x6 SLOAD PUSH1 0x7 SLOAD PUSH1 0x40 DUP1 MLOAD SWAP4 DUP5 MSTORE PUSH1 0x20 DUP5 ADD SWAP3 SWAP1 SWAP3 MSTORE SWAP1 DUP3 ADD MSTORE PUSH1 0x60 SWAP1 RETURN JUMPDEST CALLVALUE PUSH2 0x303 JUMPI PUSH1 0x0 CALLDATASIZE PUSH1 0x3 NOT ADD SLT PUSH2 0x303 JUMPI PUSH1 0x4 SLOAD PUSH1 0x40 MLOAD PUSH1 0x1 PUSH1 0x1 PUSH1 0xA0 SHL SUB SWAP1 SWAP2 AND DUP2 MSTORE PUSH1 0x20 SWAP1 RETURN JUMPDEST CALLVALUE PUSH2 0x303 JUMPI PUSH1 0x0 CALLDATASIZE PUSH1 0x3 NOT ADD SLT PUSH2 0x303 JUMPI PUSH1 0x20 PUSH1 0xFF PUSH1 0x2 SLOAD AND PUSH1 0x40 MLOAD SWAP1 ISZERO ISZERO DUP2 MSTORE RETURN JUMPDEST PUSH1 0x60 CALLDATASIZE PUSH1 0x3 NOT ADD SLT PUSH2 0x303 JUMPI PUSH2 0x1D7B PUSH1 0x24 CALLDATALOAD PUSH1 0x4 CALLDATALOAD PUSH2 0xF01 PUSH2 0x32BC JUMP JUMPDEST PUSH2 0x1D89 PUSH1 0x44 CALLDATALOAD DUP3 LT ISZERO PUSH2 0x3421 JUMP JUMPDEST PUSH2 0x1D95 CALLVALUE PUSH1 0x5 SLOAD PUSH2 0x3414 JUMP JUMPDEST PUSH1 0x5 SSTORE PUSH2 0x1DA4 CALLVALUE PUSH1 0x7 SLOAD PUSH2 0x3414 JUMP JUMPDEST PUSH1 0x7 SSTORE PUSH1 0x1 PUSH1 0x1 PUSH1 0x40 SHL SUB DUP2 AND PUSH1 0x7 SIGNEXTEND PUSH1 0x1 DUP1 PUSH1 0xA0 SHL SUB SWAP1 PUSH2 0x1DFF DUP3 PUSH1 0x4 SLOAD AND PUSH1 0x40 MLOAD DUP4 DUP2 MSTORE DUP2 PUSH32 0xB7555D949A897ACB395F95E3F2DF8B700519404826BB13CD6526B756F6A1C907 PUSH1 0x20 CALLER SWAP4 LOG3 DUP3 PUSH1 0x40 MLOAD SWAP2 PUSH2 0xFD7 DUP4 PUSH2 0x2E0D JUMP JUMPDEST POP SWAP3 SWAP1 PUSH1 0x16 DUP2 SUB PUSH2 0x1252 JUMPI POP PUSH2 0x1E4C DUP3 DUP3 PUSH1 0x4 SLOAD AND PUSH1 0x40 MLOAD DUP3 DUP2 MSTORE CALLER SWAP1 DUP3 PUSH32 0xD9CD850143C0756B15B46EBDC8B4ED7701B66AAED30858EE17A225EB005CCA2E PUSH1 0x20 ADDRESS SWAP4 LOG4 CALLER SWAP1 ADDRESS SWAP1 PUSH2 0x44F0 JUMP JUMPDEST PUSH1 0x16 DUP2 SUB PUSH2 0x11BC JUMPI POP PUSH2 0x1E61 DUP5 PUSH1 0x6 SLOAD PUSH2 0x3414 JUMP JUMPDEST PUSH1 0x6 SSTORE PUSH1 0x4 SLOAD AND SWAP2 DUP3 PUSH32 0xAD91542866F4DA9EBED5A2B1713258F4BF970F84E7B2A0B8AAB2DE28D11FFFFD PUSH1 0x40 MLOAD DUP1 PUSH2 0x1EAE CALLER SWAP6 DUP8 DUP4 SWAP1 SWAP3 SWAP2 PUSH1 0x20 SWAP1 PUSH1 0x40 DUP4 ADD SWAP5 PUSH1 0x7 SIGNEXTEND DUP4 MSTORE PUSH1 0x7 SIGNEXTEND SWAP2 ADD MSTORE JUMP JUMPDEST SUB SWAP1 LOG3 PUSH1 0x40 MLOAD SWAP1 DUP2 MSTORE CALLER SWAP2 PUSH32 0x67325B2F3DE1D8273FC1AEEAF3B161488FC28427430D9F6B341831DEDFC2D633 PUSH1 0x20 ADDRESS SWAP4 LOG4 PUSH1 0x40 DUP1 MLOAD CALLVALUE DUP2 MSTORE PUSH1 0x20 DUP2 ADD SWAP3 SWAP1 SWAP3 MSTORE TIMESTAMP SWAP1 DUP3 ADD MSTORE CALLER SWAP1 PUSH32 0x64B83944E79C3CE8D4C297411DE637C3E102D064677AAC0C163976EBDCD6F50E SWAP1 DUP1 PUSH1 0x60 DUP2 ADD PUSH2 0x11B3 JUMP JUMPDEST PUSH1 0x40 CALLDATASIZE PUSH1 0x3 NOT ADD SLT PUSH2 0x303 JUMPI PUSH1 0x4 CALLDATALOAD PUSH1 0x1 PUSH1 0x1 PUSH1 0x40 SHL SUB DUP2 GT PUSH2 0x303 JUMPI PUSH2 0x1F4C SWAP1 CALLDATASIZE SWAP1 PUSH1 0x4 ADD PUSH2 0x2ED1 JUMP JUMPDEST PUSH1 0x24 CALLDATALOAD PUSH1 0x1 PUSH1 0x1 PUSH1 0x40 SHL SUB DUP2 GT PUSH2 0x303 JUMPI PUSH2 0x1F6B SWAP1 CALLDATASIZE SWAP1 PUSH1 0x4 ADD PUSH2 0x2ED1 JUMP JUMPDEST PUSH2 0x1F73 PUSH2 0x30E8 JUMP JUMPDEST PUSH1 0xFF PUSH1 0xA SLOAD PUSH1 0xA8 SHR AND PUSH2 0x2668 JUMPI DUP2 MLOAD ISZERO PUSH2 0x262D JUMPI DUP1 MLOAD ISZERO PUSH2 0x25F0 JUMPI PUSH2 0x1F96 PUSH2 0x3114 JUMP JUMPDEST SWAP2 DUP1 DUP4 MSTORE DUP2 PUSH1 0x20 DUP5 ADD MSTORE ADDRESS PUSH1 0x40 DUP5 ADD MSTORE PUSH1 0x40 MLOAD PUSH2 0x1FB2 DUP2 PUSH2 0x2DF2 JUMP JUMPDEST PUSH1 0x1 DUP2 MSTORE PUSH1 0x0 JUMPDEST PUSH1 0x20 DUP2 LT PUSH2 0x25D9 JUMPI POP PUSH1 0xE0 DUP5 ADD MSTORE PUSH2 0x1FE2 PUSH2 0x1FD3 ADDRESS PUSH2 0x4584 JUMP JUMPDEST PUSH1 0xE0 DUP6 ADD MLOAD SWAP1 PUSH2 0xA95 DUP3 PUSH2 0x3207 JUMP JUMPDEST POP PUSH2 0x100 DUP4 ADD MLOAD DUP1 MLOAD PUSH1 0x7 SIGNEXTEND ISZERO DUP1 PUSH2 0x25CA JUMPI JUMPDEST PUSH2 0x25BB JUMPI JUMPDEST POP PUSH1 0x40 MLOAD PUSH4 0xFB65BF3 PUSH1 0xE0 SHL PUSH1 0x20 DUP3 ADD MSTORE PUSH1 0x60 PUSH1 0x24 DUP3 ADD MSTORE PUSH2 0x206F PUSH2 0x2046 PUSH2 0x2030 DUP7 MLOAD PUSH2 0x160 PUSH1 0x84 DUP7 ADD MSTORE PUSH2 0x1E4 DUP6 ADD SWAP1 PUSH2 0x2F12 JUMP JUMPDEST PUSH1 0x20 DUP8 ADD MLOAD DUP5 DUP3 SUB PUSH1 0x83 NOT ADD PUSH1 0xA4 DUP7 ADD MSTORE PUSH2 0x2F12 JUMP JUMPDEST PUSH1 0x40 DUP7 ADD MLOAD PUSH1 0x1 PUSH1 0x1 PUSH1 0xA0 SHL SUB AND PUSH1 0xC4 DUP5 ADD MSTORE PUSH1 0x60 DUP7 ADD MLOAD DUP4 DUP3 SUB PUSH1 0x83 NOT ADD PUSH1 0xE4 DUP6 ADD MSTORE PUSH2 0x2F12 JUMP JUMPDEST SWAP4 PUSH1 0x80 DUP2 ADD MLOAD ISZERO ISZERO PUSH2 0x104 DUP4 ADD MSTORE PUSH1 0xA0 DUP2 ADD MLOAD PUSH1 0x7 SIGNEXTEND PUSH2 0x124 DUP4 ADD MSTORE PUSH1 0xC0 DUP2 ADD MLOAD ISZERO ISZERO PUSH2 0x144 DUP4 ADD MSTORE PUSH1 0xE0 DUP2 ADD MLOAD SWAP1 PUSH1 0x83 NOT DUP4 DUP8 SUB ADD PUSH2 0x164 DUP5 ADD MSTORE DUP2 MLOAD DUP1 DUP8 MSTORE PUSH1 0x20 DUP8 ADD SWAP1 PUSH1 0x20 DUP1 DUP3 PUSH1 0x5 SHL DUP11 ADD ADD SWAP5 ADD SWAP2 PUSH1 0x0 SWAP1 JUMPDEST DUP3 DUP3 LT PUSH2 0x2543 JUMPI DUP9 DUP9 PUSH1 0x0 DUP1 DUP11 PUSH2 0x2124 DUP2 DUP13 PUSH1 0x40 PUSH2 0x100 DUP15 ADD MLOAD DUP1 MLOAD PUSH1 0x7 SIGNEXTEND PUSH2 0x184 DUP6 ADD MSTORE PUSH1 0x1 DUP1 PUSH1 0xA0 SHL SUB PUSH1 0x20 DUP3 ADD MLOAD AND PUSH2 0x1A4 DUP6 ADD MSTORE ADD MLOAD PUSH1 0x7 SIGNEXTEND PUSH2 0x1C4 DUP4 ADD MSTORE DUP5 PUSH1 0x44 DUP4 ADD MSTORE PUSH1 0x6 PUSH1 0x64 DUP4 ADD MSTORE SUB PUSH1 0x1F NOT DUP2 ADD DUP4 MSTORE DUP3 PUSH2 0x2E5E JUMP JUMPDEST PUSH1 0x20 DUP2 MLOAD SWAP2 ADD CALLVALUE PUSH2 0x167 GAS CALL SWAP2 PUSH2 0x2139 PUSH2 0x3501 JUMP JUMPDEST SWAP3 ISZERO PUSH2 0x2538 JUMPI PUSH1 0x40 DUP4 DUP1 MLOAD DUP2 ADD SUB SLT PUSH2 0x303 JUMPI PUSH1 0x40 PUSH2 0x215A PUSH1 0x20 DUP6 ADD PUSH2 0x434B JUMP JUMPDEST SWAP4 ADD MLOAD PUSH1 0x1 PUSH1 0x1 PUSH1 0xA0 SHL SUB DUP2 AND SWAP4 SWAP1 DUP5 SWAP1 SUB PUSH2 0x303 JUMPI PUSH1 0x3 SIGNEXTEND JUMPDEST PUSH1 0x3 SIGNEXTEND PUSH1 0x16 DUP2 SUB PUSH2 0xD15 JUMPI POP PUSH1 0x4 DUP1 SLOAD PUSH1 0x1 PUSH1 0x1 PUSH1 0xA0 SHL SUB NOT AND PUSH1 0x1 PUSH1 0x1 PUSH1 0xA0 SHL SUB DUP6 AND OR SWAP1 SSTORE PUSH1 0x40 MLOAD PUSH2 0x21A7 DUP2 PUSH2 0x2DD7 JUMP JUMPDEST DUP3 DUP2 MSTORE PUSH1 0x20 DUP2 ADD DUP3 SWAP1 MSTORE PUSH1 0x6 PUSH1 0x40 DUP3 ADD MSTORE PUSH1 0x1 PUSH1 0x1 PUSH1 0xA0 SHL SUB DUP5 AND PUSH1 0x60 DUP3 ADD MSTORE PUSH1 0x1 PUSH1 0x80 DUP3 ADD MSTORE DUP3 MLOAD PUSH1 0x1 PUSH1 0x1 PUSH1 0x40 SHL SUB DUP2 GT PUSH2 0x243B JUMPI PUSH2 0x21E9 PUSH1 0x8 SLOAD PUSH2 0x2F37 JUMP JUMPDEST PUSH1 0x1F DUP2 GT PUSH2 0x24CF JUMPI JUMPDEST POP DUP1 PUSH1 0x20 PUSH1 0x1F DUP3 GT PUSH1 0x1 EQ PUSH2 0x245C JUMPI PUSH1 0x0 SWAP2 PUSH2 0x2451 JUMPI JUMPDEST POP DUP2 PUSH1 0x1 SHL SWAP2 PUSH1 0x0 NOT SWAP1 PUSH1 0x3 SHL SHR NOT AND OR PUSH1 0x8 SSTORE JUMPDEST PUSH1 0x20 DUP2 ADD MLOAD DUP1 MLOAD SWAP1 PUSH1 0x1 PUSH1 0x1 PUSH1 0x40 SHL SUB DUP3 GT PUSH2 0x243B JUMPI PUSH2 0x223F PUSH1 0x9 SLOAD PUSH2 0x2F37 JUMP JUMPDEST PUSH1 0x1F DUP2 GT PUSH2 0x23D2 JUMPI JUMPDEST POP PUSH1 0x20 SWAP1 PUSH1 0x1F DUP4 GT PUSH1 0x1 EQ PUSH2 0x2334 JUMPI SWAP3 DUP3 PUSH2 0x230B SWAP4 PUSH2 0x22FD SWAP7 SWAP4 PUSH32 0x8FB1FFD0AB3F6379154037519FF749B01E1FA060A331F5394175F393C3DB596B SWAP9 SWAP7 PUSH1 0x0 SWAP3 PUSH2 0x2329 JUMPI JUMPDEST POP POP DUP2 PUSH1 0x1 SHL SWAP2 PUSH1 0x0 NOT SWAP1 PUSH1 0x3 SHL SHR NOT AND OR PUSH1 0x9 SSTORE JUMPDEST PUSH1 0xFF PUSH1 0x40 DUP3 ADD MLOAD AND SWAP1 PUSH1 0xA SLOAD SWAP2 PUSH2 0x100 PUSH1 0x1 PUSH1 0xA8 SHL SUB PUSH1 0x60 DUP4 ADD MLOAD PUSH1 0x8 SHL AND SWAP2 PUSH1 0x80 PUSH1 0xFF PUSH1 0xA8 SHL SWAP2 ADD MLOAD ISZERO ISZERO PUSH1 0xA8 SHL AND SWAP3 PUSH10 0xFFFFFFFFFFFFFFFFFFFF PUSH1 0xB0 SHL AND OR OR OR PUSH1 0xA SSTORE PUSH1 0x40 MLOAD SWAP4 DUP5 SWAP4 PUSH1 0x80 DUP6 MSTORE PUSH1 0x80 DUP6 ADD SWAP1 PUSH2 0x2F12 JUMP JUMPDEST SWAP1 DUP4 DUP3 SUB PUSH1 0x20 DUP6 ADD MSTORE PUSH2 0x2F12 JUMP JUMPDEST PUSH1 0x6 PUSH1 0x40 DUP4 ADD MSTORE ADDRESS PUSH1 0x60 DUP4 ADD MSTORE PUSH1 0x1 PUSH1 0x1 PUSH1 0xA0 SHL SUB SWAP1 SWAP5 AND SWAP4 SUB SWAP1 LOG2 STOP JUMPDEST ADD MLOAD SWAP1 POP DUP10 DUP1 PUSH2 0x228D JUMP JUMPDEST SWAP1 PUSH1 0x1F NOT DUP4 AND SWAP2 PUSH1 0x9 PUSH1 0x0 MSTORE PUSH1 0x0 DUP1 MLOAD PUSH1 0x20 PUSH2 0x460A DUP4 CODECOPY DUP2 MLOAD SWAP2 MSTORE SWAP3 PUSH1 0x0 JUMPDEST DUP2 DUP2 LT PUSH2 0x23BA JUMPI POP SWAP4 PUSH2 0x22FD SWAP7 SWAP4 PUSH32 0x8FB1FFD0AB3F6379154037519FF749B01E1FA060A331F5394175F393C3DB596B SWAP9 SWAP7 SWAP4 PUSH1 0x1 SWAP4 DUP4 PUSH2 0x230B SWAP9 LT PUSH2 0x23A1 JUMPI JUMPDEST POP POP POP DUP2 SHL ADD PUSH1 0x9 SSTORE PUSH2 0x22A3 JUMP JUMPDEST ADD MLOAD PUSH1 0x0 NOT PUSH1 0xF8 DUP5 PUSH1 0x3 SHL AND SHR NOT AND SWAP1 SSTORE DUP10 DUP1 DUP1 PUSH2 0x2393 JUMP JUMPDEST SWAP3 SWAP4 PUSH1 0x20 PUSH1 0x1 DUP2 SWAP3 DUP8 DUP7 ADD MLOAD DUP2 SSTORE ADD SWAP6 ADD SWAP4 ADD PUSH2 0x2353 JUMP JUMPDEST PUSH1 0x9 PUSH1 0x0 MSTORE PUSH1 0x1F DUP4 ADD PUSH1 0x5 SHR PUSH1 0x0 DUP1 MLOAD PUSH1 0x20 PUSH2 0x460A DUP4 CODECOPY DUP2 MLOAD SWAP2 MSTORE ADD PUSH1 0x20 DUP5 LT PUSH2 0x2426 JUMPI JUMPDEST PUSH1 0x1F DUP3 ADD PUSH1 0x5 SHR PUSH1 0x0 DUP1 MLOAD PUSH1 0x20 PUSH2 0x460A DUP4 CODECOPY DUP2 MLOAD SWAP2 MSTORE ADD DUP2 LT PUSH2 0x241A JUMPI POP PUSH2 0x2248 JUMP JUMPDEST PUSH1 0x0 DUP2 SSTORE PUSH1 0x1 ADD PUSH2 0x23F7 JUMP JUMPDEST POP PUSH1 0x0 DUP1 MLOAD PUSH1 0x20 PUSH2 0x460A DUP4 CODECOPY DUP2 MLOAD SWAP2 MSTORE PUSH2 0x23F7 JUMP JUMPDEST PUSH4 0x4E487B71 PUSH1 0xE0 SHL PUSH1 0x0 MSTORE PUSH1 0x41 PUSH1 0x4 MSTORE PUSH1 0x24 PUSH1 0x0 REVERT JUMPDEST SWAP1 POP DUP5 ADD MLOAD DUP7 PUSH2 0x2209 JUMP JUMPDEST SWAP2 POP PUSH1 0x8 PUSH1 0x0 MSTORE PUSH1 0x0 DUP1 MLOAD PUSH1 0x20 PUSH2 0x45EA DUP4 CODECOPY DUP2 MLOAD SWAP2 MSTORE PUSH1 0x0 SWAP3 JUMPDEST PUSH1 0x1F NOT DUP4 AND DUP5 LT PUSH2 0x24B7 JUMPI PUSH1 0x1 SWAP4 POP DUP3 PUSH1 0x1F NOT DUP2 AND LT PUSH2 0x249E JUMPI JUMPDEST POP POP DUP2 SHL ADD PUSH1 0x8 SSTORE PUSH2 0x221E JUMP JUMPDEST DUP7 ADD MLOAD PUSH1 0x0 NOT PUSH1 0xF8 DUP5 PUSH1 0x3 SHL AND SHR NOT AND SWAP1 SSTORE DUP7 DUP1 PUSH2 0x2491 JUMP JUMPDEST DUP7 DUP2 ADD MLOAD DUP3 SSTORE PUSH1 0x20 SWAP4 DUP5 ADD SWAP4 PUSH1 0x1 SWAP1 SWAP3 ADD SWAP2 ADD PUSH2 0x2476 JUMP JUMPDEST PUSH1 0x8 PUSH1 0x0 MSTORE PUSH1 0x1F DUP3 ADD PUSH1 0x5 SHR PUSH1 0x0 DUP1 MLOAD PUSH1 0x20 PUSH2 0x45EA DUP4 CODECOPY DUP2 MLOAD SWAP2 MSTORE ADD PUSH1 0x20 DUP4 LT PUSH2 0x2523 JUMPI JUMPDEST PUSH1 0x1F DUP3 ADD PUSH1 0x5 SHR PUSH1 0x0 DUP1 MLOAD PUSH1 0x20 PUSH2 0x45EA DUP4 CODECOPY DUP2 MLOAD SWAP2 MSTORE ADD DUP2 LT PUSH2 0x2517 JUMPI POP PUSH2 0x21F2 JUMP JUMPDEST PUSH1 0x0 DUP2 SSTORE PUSH1 0x1 ADD PUSH2 0x24F4 JUMP JUMPDEST POP PUSH1 0x0 DUP1 MLOAD PUSH1 0x20 PUSH2 0x45EA DUP4 CODECOPY DUP2 MLOAD SWAP2 MSTORE PUSH2 0x24F4 JUMP JUMPDEST PUSH1 0x0 SWAP3 POP PUSH1 0x15 PUSH2 0x2174 JUMP JUMPDEST SWAP1 SWAP2 SWAP3 SWAP5 PUSH1 0x20 DUP1 PUSH1 0x1 SWAP3 PUSH1 0x1F NOT DUP14 DUP3 SUB ADD DUP6 MSTORE DUP2 DUP10 MLOAD DUP1 MLOAD DUP4 MSTORE ADD MLOAD SWAP1 PUSH1 0x40 DUP4 DUP3 ADD MSTORE DUP2 MLOAD ISZERO ISZERO PUSH1 0x40 DUP3 ADD MSTORE DUP5 DUP1 PUSH1 0xA0 SHL SUB DUP4 DUP4 ADD MLOAD AND PUSH1 0x60 DUP3 ADD MSTORE PUSH1 0xC0 PUSH2 0x259D PUSH2 0xDCF PUSH1 0x40 DUP6 ADD MLOAD PUSH1 0xA0 PUSH1 0x80 DUP7 ADD MSTORE PUSH1 0xE0 DUP6 ADD SWAP1 PUSH2 0x2F12 JUMP JUMPDEST SWAP3 PUSH1 0x80 DUP8 DUP1 PUSH1 0xA0 SHL SUB SWAP2 ADD MLOAD AND SWAP2 ADD MSTORE SWAP8 ADD SWAP3 ADD SWAP3 ADD SWAP1 SWAP3 SWAP2 PUSH2 0x20C6 JUMP JUMPDEST PUSH1 0x40 PUSH3 0x76A700 SWAP2 ADD MSTORE DUP4 PUSH2 0x1FFA JUMP JUMPDEST POP PUSH1 0x40 DUP2 ADD MLOAD PUSH1 0x7 SIGNEXTEND ISZERO PUSH2 0x1FF5 JUMP JUMPDEST PUSH1 0x20 SWAP1 PUSH2 0x25E4 PUSH2 0x31E6 JUMP JUMPDEST DUP3 DUP3 DUP6 ADD ADD MSTORE ADD PUSH2 0x1FB9 JUMP JUMPDEST PUSH1 0x40 MLOAD PUSH3 0x461BCD PUSH1 0xE5 SHL DUP2 MSTORE PUSH1 0x20 PUSH1 0x4 DUP3 ADD MSTORE PUSH1 0x15 PUSH1 0x24 DUP3 ADD MSTORE PUSH21 0x151BDAD95B881CDE5B589BDB081C995C5D5A5C9959 PUSH1 0x5A SHL PUSH1 0x44 DUP3 ADD MSTORE PUSH1 0x64 SWAP1 REVERT JUMPDEST PUSH1 0x40 MLOAD PUSH3 0x461BCD PUSH1 0xE5 SHL DUP2 MSTORE PUSH1 0x20 PUSH1 0x4 DUP3 ADD MSTORE PUSH1 0x13 PUSH1 0x24 DUP3 ADD MSTORE PUSH19 0x151BDAD95B881B985B59481C995C5D5A5C9959 PUSH1 0x6A SHL PUSH1 0x44 DUP3 ADD MSTORE PUSH1 0x64 SWAP1 REVERT JUMPDEST PUSH1 0x40 MLOAD PUSH3 0x461BCD PUSH1 0xE5 SHL DUP2 MSTORE PUSH1 0x20 PUSH1 0x4 DUP3 ADD MSTORE PUSH1 0x15 PUSH1 0x24 DUP3 ADD MSTORE PUSH21 0x151BDAD95B88185B1C9958591E4818DC99585D1959 PUSH1 0x5A SHL PUSH1 0x44 DUP3 ADD MSTORE PUSH1 0x64 SWAP1 REVERT JUMPDEST CALLVALUE PUSH2 0x303 JUMPI PUSH1 0x20 CALLDATASIZE PUSH1 0x3 NOT ADD SLT PUSH2 0x303 JUMPI PUSH1 0x4 CALLDATALOAD PUSH1 0x0 PUSH1 0x80 PUSH1 0x40 MLOAD PUSH2 0x26C9 DUP2 PUSH2 0x2DD7 JUMP JUMPDEST DUP3 DUP2 MSTORE DUP3 PUSH1 0x20 DUP3 ADD MSTORE DUP3 PUSH1 0x40 DUP3 ADD MSTORE DUP3 PUSH1 0x60 DUP3 ADD MSTORE ADD MSTORE PUSH2 0x26ED PUSH1 0x11 SLOAD DUP3 LT PUSH2 0x430D JUMP JUMPDEST PUSH1 0x0 MSTORE PUSH1 0xF PUSH1 0x20 MSTORE PUSH1 0xA0 PUSH1 0x40 PUSH1 0x0 KECCAK256 PUSH1 0x40 MLOAD PUSH2 0x2708 DUP2 PUSH2 0x2DD7 JUMP JUMPDEST DUP2 SLOAD SWAP2 DUP3 DUP3 MSTORE PUSH1 0x1 DUP2 ADD SLOAD SWAP1 PUSH1 0x20 DUP4 ADD SWAP2 DUP3 MSTORE PUSH1 0x1 DUP1 DUP7 SHL SUB DUP1 SWAP3 DUP2 PUSH1 0x2 DUP5 ADD SLOAD AND SWAP1 PUSH1 0x40 DUP7 ADD SWAP2 DUP3 MSTORE PUSH1 0x80 PUSH1 0x4 DUP5 PUSH1 0x3 DUP8 ADD SLOAD AND SWAP6 PUSH1 0x60 DUP10 ADD SWAP7 DUP8 MSTORE ADD SLOAD SWAP7 ADD SWAP6 DUP7 MSTORE PUSH1 0x40 MLOAD SWAP7 DUP8 MSTORE MLOAD PUSH1 0x20 DUP8 ADD MSTORE MLOAD AND PUSH1 0x40 DUP6 ADD MSTORE MLOAD AND PUSH1 0x60 DUP4 ADD MSTORE MLOAD PUSH1 0x80 DUP3 ADD MSTORE RETURN JUMPDEST CALLVALUE PUSH2 0x303 JUMPI PUSH1 0x20 CALLDATASIZE PUSH1 0x3 NOT ADD SLT PUSH2 0x303 JUMPI PUSH1 0x20 PUSH2 0xED9 PUSH1 0x4 CALLDATALOAD PUSH2 0x3531 JUMP JUMPDEST CALLVALUE PUSH2 0x303 JUMPI PUSH1 0x0 CALLDATASIZE PUSH1 0x3 NOT ADD SLT PUSH2 0x303 JUMPI PUSH2 0x27A5 PUSH2 0x30E8 JUMP JUMPDEST PUSH2 0x27AD PUSH2 0x4267 JUMP JUMPDEST PUSH1 0xFF NOT PUSH1 0x2 SLOAD AND PUSH1 0x2 SSTORE PUSH32 0x5DB9EE0A495BF2E6FF9C91A7834C1BA4FDD244A5E8AA4E537BD38AEAE4B073AA PUSH1 0x20 PUSH1 0x40 MLOAD CALLER DUP2 MSTORE LOG1 STOP JUMPDEST CALLVALUE PUSH2 0x303 JUMPI PUSH1 0x20 CALLDATASIZE PUSH1 0x3 NOT ADD SLT PUSH2 0x303 JUMPI PUSH1 0x4 CALLDATALOAD PUSH1 0x0 MSTORE PUSH1 0xF PUSH1 0x20 MSTORE PUSH1 0xA0 PUSH1 0x40 PUSH1 0x0 KECCAK256 DUP1 SLOAD SWAP1 PUSH1 0x1 DUP2 ADD SLOAD SWAP1 PUSH1 0x1 DUP1 DUP6 SHL SUB PUSH1 0x4 DUP2 PUSH1 0x2 DUP5 ADD SLOAD AND SWAP2 PUSH1 0x3 DUP5 ADD SLOAD AND SWAP3 ADD SLOAD SWAP3 PUSH1 0x40 MLOAD SWAP5 DUP6 MSTORE PUSH1 0x20 DUP6 ADD MSTORE PUSH1 0x40 DUP5 ADD MSTORE PUSH1 0x60 DUP4 ADD MSTORE PUSH1 0x80 DUP3 ADD MSTORE RETURN JUMPDEST CALLVALUE PUSH2 0x303 JUMPI PUSH1 0x20 CALLDATASIZE PUSH1 0x3 NOT ADD SLT PUSH2 0x303 JUMPI PUSH1 0x4 CALLDATALOAD PUSH1 0x0 MSTORE PUSH1 0xB PUSH1 0x20 MSTORE PUSH1 0xC0 PUSH1 0x40 PUSH1 0x0 KECCAK256 DUP1 SLOAD SWAP1 PUSH1 0x1 DUP2 ADD SLOAD SWAP1 PUSH1 0x2 DUP2 ADD SLOAD PUSH1 0x3 DUP3 ADD SLOAD SWAP1 PUSH1 0x1 DUP1 PUSH1 0xA0 SHL SUB PUSH1 0x5 DUP2 PUSH1 0x4 DUP7 ADD SLOAD AND SWAP5 ADD SLOAD AND SWAP4 PUSH1 0x40 MLOAD SWAP6 DUP7 MSTORE PUSH1 0x20 DUP7 ADD MSTORE PUSH1 0x40 DUP6 ADD MSTORE PUSH1 0x60 DUP5 ADD MSTORE PUSH1 0x80 DUP4 ADD MSTORE PUSH1 0xA0 DUP3 ADD MSTORE RETURN JUMPDEST CALLVALUE PUSH2 0x303 JUMPI PUSH1 0x20 CALLDATASIZE PUSH1 0x3 NOT ADD SLT PUSH2 0x303 JUMPI PUSH1 0x20 PUSH2 0xED9 PUSH1 0x4 CALLDATALOAD PUSH2 0x358A JUMP JUMPDEST CALLVALUE PUSH2 0x303 JUMPI PUSH1 0x0 CALLDATASIZE PUSH1 0x3 NOT ADD SLT PUSH2 0x303 JUMPI PUSH1 0x20 PUSH2 0xED9 PUSH2 0x3601 JUMP JUMPDEST CALLVALUE PUSH2 0x303 JUMPI PUSH1 0x0 CALLDATASIZE PUSH1 0x3 NOT ADD SLT PUSH2 0x303 JUMPI PUSH1 0x20 PUSH1 0x5 SLOAD PUSH1 0x40 MLOAD SWAP1 DUP2 MSTORE RETURN JUMPDEST PUSH1 0x0 CALLDATASIZE PUSH1 0x3 NOT ADD SLT PUSH2 0x303 JUMPI PUSH2 0x291D PUSH2 0x30E8 JUMP JUMPDEST PUSH2 0x2925 PUSH2 0x32BC JUMP JUMPDEST PUSH2 0x292D PUSH2 0x329E JUMP JUMPDEST PUSH2 0x293E PUSH1 0xFF PUSH1 0xA SLOAD PUSH1 0xA8 SHR AND PUSH2 0x323E JUMP JUMPDEST PUSH1 0x6 SLOAD PUSH2 0x2AD4 JUMPI PUSH3 0x186A0 CALLVALUE LT PUSH2 0x2A8F JUMPI CALLVALUE PUSH1 0x5 SSTORE CALLVALUE PUSH1 0x7 SSTORE PUSH1 0x64 CALLVALUE DIV PUSH1 0x1 PUSH1 0x1 PUSH1 0x40 SHL SUB DUP2 AND PUSH1 0x7 SIGNEXTEND PUSH1 0x1 DUP1 PUSH1 0xA0 SHL SUB PUSH2 0x29B2 DUP2 PUSH1 0x4 SLOAD AND PUSH1 0x40 MLOAD DUP5 DUP2 MSTORE DUP2 PUSH32 0xB7555D949A897ACB395F95E3F2DF8B700519404826BB13CD6526B756F6A1C907 PUSH1 0x20 CALLER SWAP4 LOG3 DUP4 PUSH1 0x40 MLOAD SWAP2 PUSH2 0xFD7 DUP4 PUSH2 0x2E0D JUMP JUMPDEST POP SWAP2 SWAP1 PUSH1 0x16 DUP2 SUB PUSH2 0x2A45 JUMPI POP PUSH1 0x6 DUP5 SWAP1 SSTORE PUSH1 0x4 SLOAD PUSH1 0x40 DUP1 MLOAD PUSH1 0x7 SWAP6 DUP7 SIGNEXTEND DUP2 MSTORE SWAP4 SWAP1 SWAP5 SIGNEXTEND PUSH1 0x20 DUP5 ADD MSTORE CALLER SWAP4 SWAP2 AND SWAP2 PUSH32 0xAD91542866F4DA9EBED5A2B1713258F4BF970F84E7B2A0B8AAB2DE28D11FFFFD SWAP2 SWAP1 LOG3 PUSH1 0x40 DUP1 MLOAD CALLVALUE DUP2 MSTORE PUSH1 0x20 DUP2 ADD SWAP3 SWAP1 SWAP3 MSTORE TIMESTAMP SWAP1 DUP3 ADD MSTORE CALLER SWAP1 PUSH32 0x64B83944E79C3CE8D4C297411DE637C3E102D064677AAC0C163976EBDCD6F50E SWAP1 DUP1 PUSH1 0x60 DUP2 ADD PUSH2 0x11B3 JUMP JUMPDEST PUSH1 0x4 SLOAD PUSH1 0x40 DUP1 MLOAD PUSH1 0x7 DUP8 SWAP1 SIGNEXTEND DUP2 MSTORE PUSH1 0x3 SWAP4 SWAP1 SWAP4 SIGNEXTEND PUSH1 0x20 DUP5 ADD MSTORE CALLER SWAP3 SWAP2 DUP5 AND SWAP2 PUSH32 0x3F5E21A75677E84382C9F010B9F5780B534BB2A966C378FA090D12BA52CAA08 SWAP2 DUP2 SWAP1 DUP2 ADD PUSH2 0x1298 JUMP JUMPDEST PUSH1 0x40 MLOAD PUSH3 0x461BCD PUSH1 0xE5 SHL DUP2 MSTORE PUSH1 0x20 PUSH1 0x4 DUP3 ADD MSTORE PUSH1 0x1E PUSH1 0x24 DUP3 ADD MSTORE PUSH32 0x496E73756666696369656E7420696E697469616C206C69717569646974790000 PUSH1 0x44 DUP3 ADD MSTORE PUSH1 0x64 SWAP1 REVERT JUMPDEST PUSH1 0x40 MLOAD PUSH3 0x461BCD PUSH1 0xE5 SHL DUP2 MSTORE PUSH1 0x20 PUSH1 0x4 DUP3 ADD MSTORE PUSH1 0x18 PUSH1 0x24 DUP3 ADD MSTORE PUSH32 0x506F6F6C20616C726561647920696E697469616C697A65640000000000000000 PUSH1 0x44 DUP3 ADD MSTORE PUSH1 0x64 SWAP1 REVERT JUMPDEST CALLVALUE PUSH2 0x303 JUMPI PUSH1 0x20 CALLDATASIZE PUSH1 0x3 NOT ADD SLT PUSH2 0x303 JUMPI PUSH1 0x0 PUSH1 0xA0 PUSH1 0x40 MLOAD PUSH2 0x2B3A DUP2 PUSH2 0x2DBC JUMP JUMPDEST DUP3 DUP2 MSTORE DUP3 PUSH1 0x20 DUP3 ADD MSTORE DUP3 PUSH1 0x40 DUP3 ADD MSTORE DUP3 PUSH1 0x60 DUP3 ADD MSTORE DUP3 PUSH1 0x80 DUP3 ADD MSTORE ADD MSTORE PUSH1 0x4 CALLDATALOAD PUSH1 0x0 MSTORE PUSH1 0xB PUSH1 0x20 MSTORE PUSH1 0xC0 PUSH1 0x40 PUSH1 0x0 KECCAK256 PUSH1 0x40 MLOAD SWAP1 PUSH2 0x2B76 DUP3 PUSH2 0x2DBC JUMP JUMPDEST DUP1 SLOAD SWAP2 DUP3 DUP2 MSTORE PUSH1 0x1 DUP3 ADD SLOAD PUSH1 0x20 DUP3 ADD SWAP1 DUP2 MSTORE PUSH1 0x2 DUP4 ADD SLOAD SWAP3 PUSH1 0x40 DUP4 ADD SWAP4 DUP5 MSTORE PUSH1 0x3 DUP2 ADD SLOAD PUSH1 0x60 DUP5 ADD SWAP1 DUP2 MSTORE PUSH1 0x1 DUP1 PUSH1 0xA0 SHL SUB SWAP5 DUP6 SWAP4 PUSH1 0xA0 DUP6 PUSH1 0x5 DUP2 PUSH1 0x4 DUP9 ADD SLOAD AND SWAP7 PUSH1 0x80 DUP11 ADD SWAP8 DUP9 MSTORE ADD SLOAD AND SWAP7 ADD SWAP6 DUP7 MSTORE PUSH1 0x40 MLOAD SWAP8 DUP9 MSTORE MLOAD PUSH1 0x20 DUP9 ADD MSTORE MLOAD PUSH1 0x40 DUP8 ADD MSTORE MLOAD PUSH1 0x60 DUP7 ADD MSTORE MLOAD AND PUSH1 0x80 DUP5 ADD MSTORE MLOAD AND PUSH1 0xA0 DUP3 ADD MSTORE RETURN JUMPDEST CALLVALUE PUSH2 0x303 JUMPI PUSH1 0x0 CALLDATASIZE PUSH1 0x3 NOT ADD SLT PUSH2 0x303 JUMPI PUSH1 0x20 PUSH1 0x40 MLOAD PUSH3 0x186A0 DUP2 MSTORE RETURN JUMPDEST CALLVALUE PUSH2 0x303 JUMPI PUSH1 0x20 DUP1 PUSH1 0x3 NOT CALLDATASIZE ADD SLT PUSH2 0x303 JUMPI PUSH1 0x1 PUSH1 0x1 PUSH1 0xA0 SHL SUB PUSH2 0x2C2F PUSH2 0x2D2A JUMP JUMPDEST AND PUSH1 0x0 MSTORE PUSH1 0x10 DUP2 MSTORE PUSH1 0x40 PUSH1 0x0 KECCAK256 SWAP1 PUSH1 0x40 MLOAD SWAP1 DUP2 DUP2 DUP5 SLOAD SWAP2 DUP3 DUP2 MSTORE ADD SWAP4 PUSH1 0x0 MSTORE DUP2 PUSH1 0x0 KECCAK256 SWAP2 PUSH1 0x0 SWAP1 JUMPDEST DUP3 DUP3 LT PUSH2 0x2C6E JUMPI PUSH2 0x8F5 DUP6 PUSH2 0x8E9 DUP2 DUP10 SUB DUP3 PUSH2 0x2E5E JUMP JUMPDEST DUP4 SLOAD DUP7 MSTORE SWAP5 DUP6 ADD SWAP5 PUSH1 0x1 SWAP4 DUP5 ADD SWAP4 SWAP1 SWAP2 ADD SWAP1 PUSH2 0x2C57 JUMP JUMPDEST CALLVALUE PUSH2 0x303 JUMPI PUSH1 0x0 CALLDATASIZE PUSH1 0x3 NOT ADD SLT PUSH2 0x303 JUMPI PUSH1 0x20 PUSH1 0xFF PUSH1 0xA SLOAD PUSH1 0xA8 SHR AND PUSH1 0x40 MLOAD SWAP1 ISZERO ISZERO DUP2 MSTORE RETURN JUMPDEST CALLVALUE PUSH2 0x303 JUMPI PUSH1 0x0 DUP1 PUSH2 0x1849 PUSH2 0x153D PUSH2 0x2CC2 CALLDATASIZE PUSH2 0x2D40 JUMP JUMPDEST PUSH1 0x40 MLOAD PUSH4 0xAED65F5 PUSH1 0xE1 SHL PUSH1 0x20 DUP3 ADD SWAP1 DUP2 MSTORE PUSH1 0x1 PUSH1 0x1 PUSH1 0xA0 SHL SUB SWAP6 DUP7 AND PUSH1 0x24 DUP4 ADD MSTORE SWAP4 DUP6 AND PUSH1 0x44 DUP3 ADD MSTORE SWAP4 SWAP1 SWAP2 AND PUSH1 0x64 DUP5 ADD MSTORE PUSH1 0x84 DUP4 ADD MSTORE SWAP3 SWAP1 SWAP2 DUP3 SWAP1 PUSH1 0xA4 DUP3 ADD SWAP1 JUMP JUMPDEST CALLVALUE PUSH2 0x303 JUMPI PUSH1 0x0 CALLDATASIZE PUSH1 0x3 NOT ADD SLT PUSH2 0x303 JUMPI PUSH1 0xE SLOAD PUSH1 0x1 PUSH1 0x1 PUSH1 0xA0 SHL SUB AND DUP2 MSTORE PUSH1 0x20 SWAP1 RETURN JUMPDEST PUSH1 0x4 CALLDATALOAD SWAP1 PUSH1 0x1 PUSH1 0x1 PUSH1 0xA0 SHL SUB DUP3 AND DUP3 SUB PUSH2 0x303 JUMPI JUMP JUMPDEST PUSH1 0x80 SWAP1 PUSH1 0x3 NOT ADD SLT PUSH2 0x303 JUMPI PUSH1 0x1 PUSH1 0x1 PUSH1 0xA0 SHL SUB PUSH1 0x4 CALLDATALOAD DUP2 DUP2 AND DUP2 SUB PUSH2 0x303 JUMPI SWAP2 PUSH1 0x24 CALLDATALOAD DUP3 DUP2 AND DUP2 SUB PUSH2 0x303 JUMPI SWAP2 PUSH1 0x44 CALLDATALOAD SWAP1 DUP2 AND DUP2 SUB PUSH2 0x303 JUMPI SWAP1 PUSH1 0x64 CALLDATALOAD SWAP1 JUMP JUMPDEST PUSH1 0x20 SWAP1 DUP2 PUSH1 0x40 DUP2 DUP4 ADD SWAP3 DUP3 DUP2 MSTORE DUP6 MLOAD DUP1 SWAP5 MSTORE ADD SWAP4 ADD SWAP2 PUSH1 0x0 JUMPDEST DUP3 DUP2 LT PUSH2 0x2DA8 JUMPI POP POP POP POP SWAP1 JUMP JUMPDEST DUP4 MLOAD DUP6 MSTORE SWAP4 DUP2 ADD SWAP4 SWAP3 DUP2 ADD SWAP3 PUSH1 0x1 ADD PUSH2 0x2D9A JUMP JUMPDEST PUSH1 0xC0 DUP2 ADD SWAP1 DUP2 LT PUSH1 0x1 PUSH1 0x1 PUSH1 0x40 SHL SUB DUP3 GT OR PUSH2 0x243B JUMPI PUSH1 0x40 MSTORE JUMP JUMPDEST PUSH1 0xA0 DUP2 ADD SWAP1 DUP2 LT PUSH1 0x1 PUSH1 0x1 PUSH1 0x40 SHL SUB DUP3 GT OR PUSH2 0x243B JUMPI PUSH1 0x40 MSTORE JUMP JUMPDEST PUSH1 0x40 DUP2 ADD SWAP1 DUP2 LT PUSH1 0x1 PUSH1 0x1 PUSH1 0x40 SHL SUB DUP3 GT OR PUSH2 0x243B JUMPI PUSH1 0x40 MSTORE JUMP JUMPDEST PUSH1 0x20 DUP2 ADD SWAP1 DUP2 LT PUSH1 0x1 PUSH1 0x1 PUSH1 0x40 SHL SUB DUP3 GT OR PUSH2 0x243B JUMPI PUSH1 0x40 MSTORE JUMP JUMPDEST PUSH1 0x80 DUP2 ADD SWAP1 DUP2 LT PUSH1 0x1 PUSH1 0x1 PUSH1 0x40 SHL SUB DUP3 GT OR PUSH2 0x243B JUMPI PUSH1 0x40 MSTORE JUMP JUMPDEST PUSH1 0x60 DUP2 ADD SWAP1 DUP2 LT PUSH1 0x1 PUSH1 0x1 PUSH1 0x40 SHL SUB DUP3 GT OR PUSH2 0x243B JUMPI PUSH1 0x40 MSTORE JUMP JUMPDEST SWAP1 PUSH1 0x1F DUP1 NOT SWAP2 ADD AND DUP2 ADD SWAP1 DUP2 LT PUSH1 0x1 PUSH1 0x1 PUSH1 0x40 SHL SUB DUP3 GT OR PUSH2 0x243B JUMPI PUSH1 0x40 MSTORE JUMP JUMPDEST PUSH1 0x1 PUSH1 0x1 PUSH1 0x40 SHL SUB DUP2 GT PUSH2 0x243B JUMPI PUSH1 0x1F ADD PUSH1 0x1F NOT AND PUSH1 0x20 ADD SWAP1 JUMP JUMPDEST SWAP3 SWAP2 SWAP3 PUSH2 0x2EA6 DUP3 PUSH2 0x2E7F JUMP JUMPDEST SWAP2 PUSH2 0x2EB4 PUSH1 0x40 MLOAD SWAP4 DUP5 PUSH2 0x2E5E JUMP JUMPDEST DUP3 SWAP5 DUP2 DUP5 MSTORE DUP2 DUP4 ADD GT PUSH2 0x303 JUMPI DUP3 DUP2 PUSH1 0x20 SWAP4 DUP5 PUSH1 0x0 SWAP7 ADD CALLDATACOPY ADD ADD MSTORE JUMP JUMPDEST SWAP1 DUP1 PUSH1 0x1F DUP4 ADD SLT ISZERO PUSH2 0x303 JUMPI DUP2 PUSH1 0x20 PUSH2 0x2EEC SWAP4 CALLDATALOAD SWAP2 ADD PUSH2 0x2E9A JUMP JUMPDEST SWAP1 JUMP JUMPDEST PUSH1 0x0 JUMPDEST DUP4 DUP2 LT PUSH2 0x2F02 JUMPI POP POP PUSH1 0x0 SWAP2 ADD MSTORE JUMP JUMPDEST DUP2 DUP2 ADD MLOAD DUP4 DUP3 ADD MSTORE PUSH1 0x20 ADD PUSH2 0x2EF2 JUMP JUMPDEST SWAP1 PUSH1 0x20 SWAP2 PUSH2 0x2F2B DUP2 MLOAD DUP1 SWAP3 DUP2 DUP6 MSTORE DUP6 DUP1 DUP7 ADD SWAP2 ADD PUSH2 0x2EEF JUMP JUMPDEST PUSH1 0x1F ADD PUSH1 0x1F NOT AND ADD ADD SWAP1 JUMP JUMPDEST SWAP1 PUSH1 0x1 DUP3 DUP2 SHR SWAP3 AND DUP1 ISZERO PUSH2 0x2F67 JUMPI JUMPDEST PUSH1 0x20 DUP4 LT EQ PUSH2 0x2F51 JUMPI JUMP JUMPDEST PUSH4 0x4E487B71 PUSH1 0xE0 SHL PUSH1 0x0 MSTORE PUSH1 0x22 PUSH1 0x4 MSTORE PUSH1 0x24 PUSH1 0x0 REVERT JUMPDEST SWAP2 PUSH1 0x7F AND SWAP2 PUSH2 0x2F46 JUMP JUMPDEST PUSH1 0x40 MLOAD SWAP1 PUSH1 0x0 DUP3 PUSH1 0x8 SLOAD SWAP2 PUSH2 0x2F85 DUP4 PUSH2 0x2F37 JUMP JUMPDEST DUP1 DUP4 MSTORE SWAP3 PUSH1 0x1 SWAP1 DUP2 DUP2 AND SWAP1 DUP2 ISZERO PUSH2 0x2FFB JUMPI POP PUSH1 0x1 EQ PUSH2 0x2FAE JUMPI JUMPDEST POP PUSH2 0x2FAC SWAP3 POP SUB DUP4 PUSH2 0x2E5E JUMP JUMPDEST JUMP JUMPDEST PUSH1 0x8 PUSH1 0x0 SWAP1 DUP2 MSTORE SWAP2 POP PUSH1 0x0 DUP1 MLOAD PUSH1 0x20 PUSH2 0x45EA DUP4 CODECOPY DUP2 MLOAD SWAP2 MSTORE JUMPDEST DUP5 DUP4 LT PUSH2 0x2FE0 JUMPI POP PUSH2 0x2FAC SWAP4 POP POP DUP2 ADD PUSH1 0x20 ADD CODESIZE PUSH2 0x2F9F JUMP JUMPDEST DUP2 SWAP4 POP SWAP1 DUP2 PUSH1 0x20 SWAP3 SLOAD DUP4 DUP6 DUP11 ADD ADD MSTORE ADD SWAP2 ADD SWAP1 SWAP2 DUP6 SWAP3 PUSH2 0x2FC7 JUMP JUMPDEST SWAP1 POP PUSH1 0x20 SWAP3 POP PUSH2 0x2FAC SWAP5 SWAP2 POP PUSH1 0xFF NOT AND DUP3 DUP5 ADD MSTORE ISZERO ISZERO PUSH1 0x5 SHL DUP3 ADD ADD CODESIZE PUSH2 0x2F9F JUMP JUMPDEST PUSH1 0x40 MLOAD SWAP1 PUSH1 0x0 DUP3 PUSH1 0x9 SLOAD SWAP2 PUSH2 0x3031 DUP4 PUSH2 0x2F37 JUMP JUMPDEST DUP1 DUP4 MSTORE SWAP3 PUSH1 0x1 SWAP1 DUP2 DUP2 AND SWAP1 DUP2 ISZERO PUSH2 0x2FFB JUMPI POP PUSH1 0x1 EQ PUSH2 0x3057 JUMPI POP PUSH2 0x2FAC SWAP3 POP SUB DUP4 PUSH2 0x2E5E JUMP JUMPDEST PUSH1 0x9 PUSH1 0x0 SWAP1 DUP2 MSTORE SWAP2 POP PUSH1 0x0 DUP1 MLOAD PUSH1 0x20 PUSH2 0x460A DUP4 CODECOPY DUP2 MLOAD SWAP2 MSTORE JUMPDEST DUP5 DUP4 LT PUSH2 0x3089 JUMPI POP PUSH2 0x2FAC SWAP4 POP POP DUP2 ADD PUSH1 0x20 ADD CODESIZE PUSH2 0x2F9F JUMP JUMPDEST DUP2 SWAP4 POP SWAP1 DUP2 PUSH1 0x20 SWAP3 SLOAD DUP4 DUP6 DUP11 ADD ADD MSTORE ADD SWAP2 ADD SWAP1 SWAP2 DUP6 SWAP3 PUSH2 0x3070 JUMP JUMPDEST DUP1 SLOAD DUP3 LT ISZERO PUSH2 0x30BC JUMPI PUSH1 0x0 MSTORE PUSH1 0x20 PUSH1 0x0 KECCAK256 ADD SWAP1 PUSH1 0x0 SWAP1 JUMP JUMPDEST PUSH4 0x4E487B71 PUSH1 0xE0 SHL PUSH1 0x0 MSTORE PUSH1 0x32 PUSH1 0x4 MSTORE PUSH1 0x24 PUSH1 0x0 REVERT JUMPDEST PUSH1 0x40 SWAP1 PUSH1 0x3 NOT ADD SLT PUSH2 0x303 JUMPI PUSH1 0x4 CALLDATALOAD SWAP1 PUSH1 0x24 CALLDATALOAD SWAP1 JUMP JUMPDEST PUSH1 0x0 SLOAD PUSH1 0x1 PUSH1 0x1 PUSH1 0xA0 SHL SUB AND CALLER SUB PUSH2 0x30FC JUMPI JUMP JUMPDEST PUSH1 0x40 MLOAD PUSH4 0x118CDAA7 PUSH1 0xE0 SHL DUP2 MSTORE CALLER PUSH1 0x4 DUP3 ADD MSTORE PUSH1 0x24 SWAP1 REVERT JUMPDEST PUSH1 0x40 DUP1 MLOAD PUSH1 0x1 PUSH1 0x1 PUSH1 0x40 SHL SUB SWAP3 SWAP2 SWAP1 PUSH2 0x120 DUP2 ADD DUP5 DUP2 GT DUP3 DUP3 LT OR PUSH2 0x243B JUMPI DUP3 MSTORE DUP1 SWAP4 PUSH1 0x60 SWAP3 DUP4 DUP4 MSTORE DUP4 PUSH1 0x20 DUP5 ADD MSTORE PUSH1 0x0 SWAP2 DUP3 DUP3 DUP6 ADD MSTORE DUP5 DUP1 DUP6 ADD MSTORE DUP3 PUSH1 0x80 DUP6 ADD MSTORE DUP3 PUSH1 0xA0 DUP6 ADD MSTORE DUP3 PUSH1 0xC0 DUP6 ADD MSTORE DUP5 PUSH1 0xE0 DUP6 ADD MSTORE DUP2 MLOAD SWAP5 DUP6 ADD SWAP1 DUP6 DUP3 LT SWAP1 DUP3 GT OR PUSH2 0x318F JUMPI DUP2 MSTORE DUP2 DUP5 MSTORE PUSH1 0x20 DUP5 ADD DUP3 SWAP1 MSTORE DUP4 ADD MSTORE PUSH2 0x100 ADD MSTORE JUMP JUMPDEST PUSH4 0x4E487B71 PUSH1 0xE0 SHL DUP4 MSTORE PUSH1 0x41 PUSH1 0x4 MSTORE PUSH1 0x24 DUP4 REVERT JUMPDEST PUSH1 0x1 PUSH1 0x1 PUSH1 0x40 SHL SUB DUP2 GT PUSH2 0x243B JUMPI PUSH1 0x5 SHL PUSH1 0x20 ADD SWAP1 JUMP JUMPDEST PUSH1 0x40 MLOAD SWAP1 PUSH2 0x31C7 DUP3 PUSH2 0x2DD7 JUMP JUMPDEST PUSH1 0x0 PUSH1 0x80 DUP4 DUP3 DUP2 MSTORE DUP3 PUSH1 0x20 DUP3 ADD MSTORE PUSH1 0x60 PUSH1 0x40 DUP3 ADD MSTORE PUSH1 0x60 DUP1 DUP3 ADD MSTORE ADD MSTORE JUMP JUMPDEST PUSH1 0x40 MLOAD SWAP1 PUSH2 0x31F3 DUP3 PUSH2 0x2DF2 JUMP JUMPDEST DUP2 PUSH1 0x0 DUP2 MSTORE PUSH1 0x20 PUSH2 0x3202 PUSH2 0x31BA JUMP JUMPDEST SWAP2 ADD MSTORE JUMP JUMPDEST DUP1 MLOAD ISZERO PUSH2 0x30BC JUMPI PUSH1 0x20 ADD SWAP1 JUMP JUMPDEST DUP1 MLOAD PUSH1 0x1 LT ISZERO PUSH2 0x30BC JUMPI PUSH1 0x40 ADD SWAP1 JUMP JUMPDEST PUSH1 0x40 SWAP1 PUSH2 0x2EEC SWAP4 SWAP3 PUSH1 0x3 SIGNEXTEND DUP2 MSTORE DUP2 PUSH1 0x20 DUP3 ADD MSTORE ADD SWAP1 PUSH2 0x2F12 JUMP JUMPDEST ISZERO PUSH2 0x3245 JUMPI JUMP JUMPDEST PUSH1 0x40 MLOAD PUSH3 0x461BCD PUSH1 0xE5 SHL DUP2 MSTORE PUSH1 0x20 PUSH1 0x4 DUP3 ADD MSTORE PUSH1 0x11 PUSH1 0x24 DUP3 ADD MSTORE PUSH17 0x151BDAD95B881B9BDD0818DC99585D1959 PUSH1 0x7A SHL PUSH1 0x44 DUP3 ADD MSTORE PUSH1 0x64 SWAP1 REVERT JUMPDEST DUP2 ISZERO PUSH2 0x3288 JUMPI DIV SWAP1 JUMP JUMPDEST PUSH4 0x4E487B71 PUSH1 0xE0 SHL PUSH1 0x0 MSTORE PUSH1 0x12 PUSH1 0x4 MSTORE PUSH1 0x24 PUSH1 0x0 REVERT JUMPDEST PUSH1 0xFF PUSH1 0x2 SLOAD AND PUSH2 0x32AA JUMPI JUMP JUMPDEST PUSH1 0x40 MLOAD PUSH4 0xD93C0665 PUSH1 0xE0 SHL DUP2 MSTORE PUSH1 0x4 SWAP1 REVERT JUMPDEST PUSH1 0x2 PUSH1 0x1 SLOAD EQ PUSH2 0x32CD JUMPI PUSH1 0x2 PUSH1 0x1 SSTORE JUMP JUMPDEST PUSH1 0x40 MLOAD PUSH4 0x3EE5AEB5 PUSH1 0xE0 SHL DUP2 MSTORE PUSH1 0x4 SWAP1 REVERT JUMPDEST ISZERO PUSH2 0x32E6 JUMPI JUMP JUMPDEST PUSH1 0x40 MLOAD PUSH3 0x461BCD PUSH1 0xE5 SHL DUP2 MSTORE PUSH1 0x20 PUSH1 0x4 DUP3 ADD MSTORE PUSH1 0x14 PUSH1 0x24 DUP3 ADD MSTORE PUSH20 0x141BDBDB081B9BDD081A5B9A5D1A585B1A5E9959 PUSH1 0x62 SHL PUSH1 0x44 DUP3 ADD MSTORE PUSH1 0x64 SWAP1 REVERT JUMPDEST ISZERO PUSH2 0x3329 JUMPI JUMP JUMPDEST PUSH1 0x40 MLOAD PUSH3 0x461BCD PUSH1 0xE5 SHL DUP2 MSTORE PUSH1 0x20 PUSH1 0x4 DUP3 ADD MSTORE PUSH1 0x10 PUSH1 0x24 DUP3 ADD MSTORE PUSH16 0x139BC812109054881C1C9BDD9A591959 PUSH1 0x82 SHL PUSH1 0x44 DUP3 ADD MSTORE PUSH1 0x64 SWAP1 REVERT JUMPDEST ISZERO PUSH2 0x3368 JUMPI JUMP JUMPDEST PUSH1 0x40 MLOAD PUSH3 0x461BCD PUSH1 0xE5 SHL DUP2 MSTORE PUSH1 0x20 PUSH1 0x4 DUP3 ADD MSTORE PUSH1 0x21 PUSH1 0x24 DUP3 ADD MSTORE PUSH32 0x55534420616D6F756E74206D7573742062652067726561746572207468616E20 PUSH1 0x44 DUP3 ADD MSTORE PUSH1 0x3 PUSH1 0xFC SHL PUSH1 0x64 DUP3 ADD MSTORE PUSH1 0x84 SWAP1 REVERT JUMPDEST ISZERO PUSH2 0x33BE JUMPI JUMP JUMPDEST PUSH1 0x40 MLOAD PUSH3 0x461BCD PUSH1 0xE5 SHL DUP2 MSTORE PUSH1 0x20 PUSH1 0x4 DUP3 ADD MSTORE PUSH1 0x28 PUSH1 0x24 DUP3 ADD MSTORE PUSH32 0x4D617475726174696F6E20616D6F756E74206D75737420626520677265617465 PUSH1 0x44 DUP3 ADD MSTORE PUSH8 0x72207468616E203 PUSH1 0xC4 SHL PUSH1 0x64 DUP3 ADD MSTORE PUSH1 0x84 SWAP1 REVERT JUMPDEST SWAP2 SWAP1 DUP3 ADD DUP1 SWAP3 GT PUSH2 0x646 JUMPI JUMP JUMPDEST ISZERO PUSH2 0x3428 JUMPI JUMP JUMPDEST PUSH1 0x40 MLOAD PUSH3 0x461BCD PUSH1 0xE5 SHL DUP2 MSTORE PUSH1 0x20 PUSH1 0x4 DUP3 ADD MSTORE PUSH1 0x11 PUSH1 0x24 DUP3 ADD MSTORE PUSH17 0x14DB1A5C1C1859D948195E18D959591959 PUSH1 0x7A SHL PUSH1 0x44 DUP3 ADD MSTORE PUSH1 0x64 SWAP1 REVERT JUMPDEST DUP1 SLOAD PUSH9 0x10000000000000000 DUP2 LT ISZERO PUSH2 0x243B JUMPI PUSH2 0x3483 SWAP2 PUSH1 0x1 DUP3 ADD DUP2 SSTORE PUSH2 0x30A4 JUMP JUMPDEST DUP2 SWAP3 SWAP2 SLOAD SWAP1 PUSH1 0x3 SHL SWAP2 DUP3 SHL SWAP2 PUSH1 0x0 NOT SWAP1 SHL NOT AND OR SWAP1 SSTORE JUMP JUMPDEST PUSH1 0x0 NOT DUP2 EQ PUSH2 0x646 JUMPI PUSH1 0x1 ADD SWAP1 JUMP JUMPDEST DUP2 DUP2 MUL SWAP3 SWAP2 DUP2 ISZERO SWAP2 DUP5 DIV EQ OR ISZERO PUSH2 0x646 JUMPI JUMP JUMPDEST SWAP2 SWAP1 DUP3 SUB SWAP2 DUP3 GT PUSH2 0x646 JUMPI JUMP JUMPDEST SWAP1 DUP2 MLOAD DUP1 DUP3 MSTORE PUSH1 0x20 DUP1 DUP1 SWAP4 ADD SWAP4 ADD SWAP2 PUSH1 0x0 JUMPDEST DUP3 DUP2 LT PUSH2 0x34EA JUMPI POP POP POP POP SWAP1 JUMP JUMPDEST DUP4 MLOAD PUSH1 0x7 SIGNEXTEND DUP6 MSTORE SWAP4 DUP2 ADD SWAP4 SWAP3 DUP2 ADD SWAP3 PUSH1 0x1 ADD PUSH2 0x34DC JUMP JUMPDEST RETURNDATASIZE ISZERO PUSH2 0x352C JUMPI RETURNDATASIZE SWAP1 PUSH2 0x3512 DUP3 PUSH2 0x2E7F JUMP JUMPDEST SWAP2 PUSH2 0x3520 PUSH1 0x40 MLOAD SWAP4 DUP5 PUSH2 0x2E5E JUMP JUMPDEST DUP3 MSTORE RETURNDATASIZE PUSH1 0x0 PUSH1 0x20 DUP5 ADD RETURNDATACOPY JUMP JUMPDEST PUSH1 0x60 SWAP1 JUMP JUMPDEST PUSH1 0x6 SLOAD SWAP1 DUP2 ISZERO PUSH2 0x3551 JUMPI PUSH2 0x2EEC SWAP2 PUSH2 0x3548 SWAP2 PUSH2 0x34AA JUMP JUMPDEST PUSH1 0x5 SLOAD SWAP1 PUSH2 0x327E JUMP JUMPDEST POP POP PUSH1 0x0 SWAP1 JUMP JUMPDEST SWAP1 DUP2 ISZERO PUSH2 0x3565 DUP2 ISZERO PUSH2 0x3361 JUMP JUMPDEST PUSH2 0x3570 DUP3 ISZERO ISZERO PUSH2 0x33B7 JUMP JUMPDEST PUSH3 0xF4240 DUP1 DUP5 MUL SWAP4 DUP5 DIV EQ OR ISZERO PUSH2 0x646 JUMPI PUSH2 0x2EEC SWAP2 PUSH2 0x327E JUMP JUMPDEST PUSH1 0x6 SLOAD DUP1 ISZERO PUSH2 0x3551 JUMPI PUSH2 0x145A PUSH2 0x2EEC SWAP3 PUSH1 0x5 SLOAD SWAP1 PUSH2 0x34AA JUMP JUMPDEST PUSH1 0xFF PUSH1 0xA SLOAD PUSH1 0xA8 SHR AND ISZERO PUSH2 0x35F6 JUMPI PUSH1 0x6 SLOAD PUSH1 0x0 SWAP2 DUP2 ISZERO PUSH2 0x35EB JUMPI PUSH2 0x35CD DUP3 PUSH2 0x145A PUSH1 0x5 SLOAD DUP7 PUSH2 0x34AA JUMP JUMPDEST SWAP2 PUSH2 0x2710 SWAP1 DUP2 DUP6 MUL SWAP2 DUP6 DUP4 DIV EQ DUP6 ISZERO OR ISZERO PUSH2 0x646 JUMPI PUSH2 0x2EEC SWAP2 PUSH2 0x327E JUMP JUMPDEST PUSH1 0x0 SWAP3 POP DUP3 SWAP2 POP DUP2 SWAP1 JUMP JUMPDEST PUSH1 0x0 SWAP1 PUSH1 0x0 SWAP1 PUSH1 0x0 SWAP1 JUMP JUMPDEST PUSH1 0x6 SLOAD DUP1 ISZERO PUSH2 0x3619 JUMPI PUSH2 0x2EEC SWAP1 PUSH1 0x64 PUSH1 0x7 SLOAD DIV PUSH2 0x327E JUMP JUMPDEST POP PUSH1 0x0 SWAP1 JUMP JUMPDEST PUSH1 0xFF PUSH1 0xA SLOAD PUSH1 0xA8 SHR AND ISZERO DUP1 ISZERO PUSH2 0x3652 JUMPI JUMPDEST PUSH2 0x364D JUMPI PUSH1 0x7 SLOAD ISZERO PUSH1 0x1 OR ISZERO PUSH2 0x646 JUMPI PUSH1 0x6 SLOAD ISZERO PUSH2 0x3288 JUMPI PUSH1 0x0 SWAP1 JUMP JUMPDEST PUSH1 0x0 SWAP1 JUMP JUMPDEST POP PUSH1 0x6 SLOAD ISZERO PUSH2 0x3630 JUMP JUMPDEST DUP1 PUSH1 0x3 SIGNEXTEND SWAP1 PUSH1 0x16 DUP3 EQ PUSH2 0x4164 JUMPI PUSH1 0x9 DUP3 EQ PUSH2 0x410F JUMPI PUSH1 0xA DUP3 EQ PUSH2 0x40AE JUMPI PUSH1 0x7 DUP3 EQ PUSH2 0x4056 JUMPI PUSH1 0xF DUP3 EQ PUSH2 0x3FF5 JUMPI PUSH1 0x10 DUP3 EQ PUSH2 0x3F94 JUMPI PUSH1 0x1E DUP3 EQ PUSH2 0x3F46 JUMPI PUSH1 0x22 DUP3 EQ PUSH2 0x3EE5 JUMPI PUSH1 0x6F DUP3 EQ PUSH2 0x3E96 JUMPI PUSH1 0xAA DUP3 EQ PUSH2 0x3E35 JUMPI PUSH1 0xAB DUP3 EQ PUSH2 0x3DE3 JUMPI PUSH1 0xAE DUP3 EQ PUSH2 0x3D8F JUMPI PUSH1 0xAF DUP3 EQ PUSH2 0x3D2E JUMPI PUSH1 0xBE DUP3 EQ PUSH2 0x3CDE JUMPI PUSH1 0xBF DUP3 EQ PUSH2 0x3C85 JUMPI PUSH1 0xA8 DUP3 EQ PUSH2 0x3C24 JUMPI PUSH1 0xA9 DUP3 EQ PUSH2 0x3BC3 JUMPI PUSH1 0xBD DUP3 EQ PUSH2 0x3B75 JUMPI PUSH1 0x9B DUP3 EQ PUSH2 0x3B29 JUMPI PUSH1 0x1A DUP3 EQ PUSH2 0x3ADF JUMPI PUSH1 0x1B DUP3 EQ PUSH2 0x3A95 JUMPI PUSH1 0x26 DUP3 EQ PUSH2 0x3A3C JUMPI PUSH1 0x40 SWAP2 DUP3 DUP2 EQ PUSH2 0x39E5 JUMPI PUSH1 0x41 DUP2 EQ PUSH2 0x3979 JUMPI PUSH2 0x117 DUP2 EQ PUSH2 0x3921 JUMPI PUSH2 0x145 DUP2 EQ PUSH2 0x38C2 JUMPI PUSH2 0x146 DUP2 EQ PUSH2 0x3863 JUMPI PUSH2 0x147 DUP2 EQ PUSH2 0x37FA JUMPI PUSH2 0x148 EQ PUSH2 0x37A6 JUMPI PUSH1 0x33 PUSH2 0x3763 PUSH4 0xFFFFFFFF PUSH2 0x2EEC SWAP4 AND PUSH2 0x4189 JUMP JUMPDEST SWAP3 MLOAD DUP1 SWAP4 PUSH19 0x554E4B4E4F574E5F4552524F525F434F44455F PUSH1 0x68 SHL PUSH1 0x20 DUP4 ADD MSTORE PUSH2 0x3796 DUP2 MLOAD DUP1 SWAP3 PUSH1 0x20 DUP7 DUP7 ADD SWAP2 ADD PUSH2 0x2EEF JUMP JUMPDEST DUP2 ADD SUB PUSH1 0x13 DUP2 ADD DUP5 MSTORE ADD DUP3 PUSH2 0x2E5E JUMP JUMPDEST POP PUSH19 0x206D616E79206368696C64207265636F726473 PUSH1 0x68 SHL DUP2 MLOAD SWAP2 PUSH2 0x37CA DUP4 PUSH2 0x2E43 JUMP JUMPDEST PUSH1 0x33 DUP4 MSTORE PUSH32 0x4D41585F4348494C445F5245434F5244535F4558434545444544202D20546F6F PUSH1 0x20 DUP5 ADD MSTORE DUP3 ADD MSTORE SWAP1 JUMP JUMPDEST POP POP PUSH32 0x6666696369656E742062616C616E636520666F722073746F726167652072656E DUP2 MLOAD SWAP2 PUSH2 0x3829 DUP4 PUSH2 0x2E28 JUMP JUMPDEST PUSH1 0x41 DUP4 MSTORE PUSH32 0x494E53554646494349454E545F53544F524147455F52454E54202D20496E7375 PUSH1 0x20 DUP5 ADD MSTORE DUP3 ADD MSTORE PUSH1 0x1D PUSH1 0xFA SHL PUSH1 0x60 DUP3 ADD MSTORE SWAP1 JUMP JUMPDEST POP POP PUSH32 0x6E76616C6964207369676E617475726520666F7220707265636F6D70696C6500 DUP2 MLOAD SWAP2 PUSH2 0x3892 DUP4 PUSH2 0x2E43 JUMP JUMPDEST PUSH1 0x3F DUP4 MSTORE PUSH32 0x494E56414C49445F505245434F4D50494C455F5349474E4154555245202D2049 PUSH1 0x20 DUP5 ADD MSTORE DUP3 ADD MSTORE SWAP1 JUMP JUMPDEST POP POP PUSH32 0x6E74697469657320696E20707269636520726567696D65207265616368656400 DUP2 MLOAD SWAP2 PUSH2 0x38F1 DUP4 PUSH2 0x2E43 JUMP JUMPDEST PUSH1 0x3F DUP4 MSTORE PUSH32 0x4D41585F454E5449544945535F43524541544544202D204D6178696D756D2065 PUSH1 0x20 DUP5 ADD MSTORE DUP3 ADD MSTORE SWAP1 JUMP JUMPDEST POP POP PUSH22 0x1CDD5CC81B9BD9194819D85CC8195E1A185D5CDD1959 PUSH1 0x52 SHL DUP2 MLOAD SWAP2 PUSH2 0x3949 DUP4 PUSH2 0x2E43 JUMP JUMPDEST PUSH1 0x36 DUP4 MSTORE PUSH32 0x434F4E53454E5355535F4741535F455848415553544544202D20436F6E73656E PUSH1 0x20 DUP5 ADD MSTORE DUP3 ADD MSTORE SWAP1 JUMP JUMPDEST POP POP PUSH32 0x616E73616374696F6E2068617320746F6F206D616E79206E6573746564206C61 DUP2 MLOAD SWAP2 PUSH2 0x39A8 DUP4 PUSH2 0x2E28 JUMP JUMPDEST PUSH1 0x44 DUP4 MSTORE PUSH32 0x5452414E53414354494F4E5F544F4F5F4D414E595F4C4159455253202D205472 PUSH1 0x20 DUP5 ADD MSTORE DUP3 ADD MSTORE PUSH4 0x79657273 PUSH1 0xE0 SHL PUSH1 0x60 DUP3 ADD MSTORE SWAP1 JUMP JUMPDEST POP POP PUSH21 0x1BDB88195E18D959591CC81CDA5E99481B1A5B5A5D PUSH1 0x5A SHL DUP2 MLOAD SWAP2 PUSH2 0x3A0C DUP4 PUSH2 0x2E43 JUMP JUMPDEST PUSH1 0x35 DUP4 MSTORE PUSH32 0x5452414E53414354494F4E5F4F56455253495A45202D205472616E7361637469 PUSH1 0x20 DUP5 ADD MSTORE DUP3 ADD MSTORE SWAP1 JUMP JUMPDEST POP POP PUSH1 0x40 MLOAD PUSH2 0x3A4A DUP2 PUSH2 0x2E43 JUMP JUMPDEST PUSH1 0x35 DUP2 MSTORE PUSH32 0x494E56414C49445F4B45595F454E434F44494E47202D204B657920656E636F64 PUSH1 0x20 DUP3 ADD MSTORE PUSH21 0x1A5B99C8199BDC9B585D081A5CC81A5B9D985B1A59 PUSH1 0x5A SHL PUSH1 0x40 DUP3 ADD MSTORE SWAP1 JUMP JUMPDEST POP POP PUSH1 0x40 MLOAD PUSH2 0x3AA3 DUP2 PUSH2 0x2E43 JUMP JUMPDEST PUSH1 0x26 DUP2 MSTORE PUSH32 0x4241445F454E434F44494E47202D204B657920656E636F64696E672069732069 PUSH1 0x20 DUP3 ADD MSTORE PUSH6 0x1B9D985B1A59 PUSH1 0xD2 SHL PUSH1 0x40 DUP3 ADD MSTORE SWAP1 JUMP JUMPDEST POP POP PUSH1 0x40 MLOAD PUSH2 0x3AED DUP2 PUSH2 0x2E43 JUMP JUMPDEST PUSH1 0x26 DUP2 MSTORE PUSH32 0x4B45595F5245515549524544202D205265717569726564206B6579206973206D PUSH1 0x20 DUP3 ADD MSTORE PUSH6 0x697373696E67 PUSH1 0xD0 SHL PUSH1 0x40 DUP3 ADD MSTORE SWAP1 JUMP JUMPDEST POP POP PUSH1 0x40 MLOAD PUSH2 0x3B37 DUP2 PUSH2 0x2E43 JUMP JUMPDEST PUSH1 0x28 DUP2 MSTORE PUSH32 0x494E56414C49445F41444D494E5F4B4559202D2041646D696E206B6579206973 PUSH1 0x20 DUP3 ADD MSTORE PUSH8 0x81A5B9D985B1A59 PUSH1 0xC2 SHL PUSH1 0x40 DUP3 ADD MSTORE SWAP1 JUMP JUMPDEST POP POP PUSH1 0x40 MLOAD PUSH2 0x3B83 DUP2 PUSH2 0x2E43 JUMP JUMPDEST PUSH1 0x2A DUP2 MSTORE PUSH32 0x494E56414C49445F535550504C595F4B4559202D20537570706C79206B657920 PUSH1 0x20 DUP3 ADD MSTORE PUSH10 0x1A5CC81A5B9D985B1A59 PUSH1 0xB2 SHL PUSH1 0x40 DUP3 ADD MSTORE SWAP1 JUMP JUMPDEST POP POP PUSH1 0x40 MLOAD PUSH2 0x3BD1 DUP2 PUSH2 0x2E43 JUMP JUMPDEST PUSH1 0x3E DUP2 MSTORE PUSH32 0x494E56414C49445F544F4B454E5F494E495449414C5F535550504C59202D2049 PUSH1 0x20 DUP3 ADD MSTORE PUSH32 0x6E697469616C20737570706C792076616C756520697320696E76616C69640000 PUSH1 0x40 DUP3 ADD MSTORE SWAP1 JUMP JUMPDEST POP POP PUSH1 0x40 MLOAD PUSH2 0x3C32 DUP2 PUSH2 0x2E43 JUMP JUMPDEST PUSH1 0x38 DUP2 MSTORE PUSH32 0x494E56414C49445F544F4B454E5F444543494D414C53202D20546F6B656E2064 PUSH1 0x20 DUP3 ADD MSTORE PUSH32 0x6563696D616C732076616C756520697320696E76616C69640000000000000000 PUSH1 0x40 DUP3 ADD MSTORE SWAP1 JUMP JUMPDEST POP POP PUSH1 0x40 MLOAD PUSH2 0x3C93 DUP2 PUSH2 0x2E43 JUMP JUMPDEST PUSH1 0x35 DUP2 MSTORE PUSH32 0x544F4B454E5F4E414D455F544F4F5F4C4F4E47202D20546F6B656E206E616D65 PUSH1 0x20 DUP3 ADD MSTORE PUSH21 0x8195E18D959591CC81B195B99DD1A081B1A5B5A5D PUSH1 0x5A SHL PUSH1 0x40 DUP3 ADD MSTORE SWAP1 JUMP JUMPDEST POP POP PUSH1 0x40 MLOAD PUSH2 0x3CEC DUP2 PUSH2 0x2E43 JUMP JUMPDEST PUSH1 0x2C DUP2 MSTORE PUSH32 0x4D495353494E475F544F4B454E5F4E414D45202D20546F6B656E206E616D6520 PUSH1 0x20 DUP3 ADD MSTORE PUSH12 0x1B9BDD081C1C9BDD9A591959 PUSH1 0xA2 SHL PUSH1 0x40 DUP3 ADD MSTORE SWAP1 JUMP JUMPDEST POP POP PUSH1 0x40 MLOAD PUSH2 0x3D3C DUP2 PUSH2 0x2E43 JUMP JUMPDEST PUSH1 0x39 DUP2 MSTORE PUSH32 0x544F4B454E5F53594D424F4C5F544F4F5F4C4F4E47202D20546F6B656E207379 PUSH1 0x20 DUP3 ADD MSTORE PUSH32 0x6D626F6C2065786365656473206C656E677468206C696D697400000000000000 PUSH1 0x40 DUP3 ADD MSTORE SWAP1 JUMP JUMPDEST POP POP PUSH1 0x40 MLOAD PUSH2 0x3D9D DUP2 PUSH2 0x2E43 JUMP JUMPDEST PUSH1 0x30 DUP2 MSTORE PUSH32 0x4D495353494E475F544F4B454E5F53594D424F4C202D20546F6B656E2073796D PUSH1 0x20 DUP3 ADD MSTORE PUSH16 0x189BDB081B9BDD081C1C9BDD9A591959 PUSH1 0x82 SHL PUSH1 0x40 DUP3 ADD MSTORE SWAP1 JUMP JUMPDEST POP POP PUSH1 0x40 MLOAD PUSH2 0x3DF1 DUP2 PUSH2 0x2E43 JUMP JUMPDEST PUSH1 0x2E DUP2 MSTORE PUSH32 0x494E56414C49445F544F4B454E5F53594D424F4C202D20546F6B656E2073796D PUSH1 0x20 DUP3 ADD MSTORE PUSH14 0x189BDB081A5CC81A5B9D985B1A59 PUSH1 0x92 SHL PUSH1 0x40 DUP3 ADD MSTORE SWAP1 JUMP JUMPDEST POP POP PUSH1 0x40 MLOAD PUSH2 0x3E43 DUP2 PUSH2 0x2E43 JUMP JUMPDEST PUSH1 0x3D DUP2 MSTORE PUSH32 0x494E56414C49445F54524541535552595F4143434F554E545F464F525F544F4B PUSH1 0x20 DUP3 ADD MSTORE PUSH32 0x454E202D205472656173757279206163636F756E7420696E76616C6964000000 PUSH1 0x40 DUP3 ADD MSTORE SWAP1 JUMP JUMPDEST POP POP PUSH1 0x40 MLOAD PUSH2 0x3EA4 DUP2 PUSH2 0x2E43 JUMP JUMPDEST PUSH1 0x2B DUP2 MSTORE PUSH32 0x4D41585F4741535F4C494D49545F4558434545444544202D20476173206C696D PUSH1 0x20 DUP3 ADD MSTORE PUSH11 0x1A5D08195E18D959591959 PUSH1 0xAA SHL PUSH1 0x40 DUP3 ADD MSTORE SWAP1 JUMP JUMPDEST POP POP PUSH1 0x40 MLOAD PUSH2 0x3EF3 DUP2 PUSH2 0x2E43 JUMP JUMPDEST PUSH1 0x38 DUP2 MSTORE PUSH32 0x434F4E54524143545F455845435554494F4E5F455843455054494F4E202D2043 PUSH1 0x20 DUP3 ADD MSTORE PUSH32 0x6F6E747261637420657865637574696F6E206661696C65640000000000000000 PUSH1 0x40 DUP3 ADD MSTORE SWAP1 JUMP JUMPDEST POP POP PUSH1 0x40 MLOAD PUSH2 0x3F54 DUP2 PUSH2 0x2E43 JUMP JUMPDEST PUSH1 0x2A DUP2 MSTORE PUSH32 0x494E53554646494349454E545F474153202D204E6F7420656E6F756768206761 PUSH1 0x20 DUP3 ADD MSTORE PUSH10 0x1CC81CDD5C1C1B1A5959 PUSH1 0xB2 SHL PUSH1 0x40 DUP3 ADD MSTORE SWAP1 JUMP JUMPDEST POP POP PUSH1 0x40 MLOAD PUSH2 0x3FA2 DUP2 PUSH2 0x2E43 JUMP JUMPDEST PUSH1 0x3E DUP2 MSTORE PUSH32 0x494E56414C49445F434F4E54524143545F4944202D20436F6E74726163742049 PUSH1 0x20 DUP3 ADD MSTORE PUSH32 0x4420697320696E76616C6964206F7220646F6573206E6F742065786973740000 PUSH1 0x40 DUP3 ADD MSTORE SWAP1 JUMP JUMPDEST POP POP PUSH1 0x40 MLOAD PUSH2 0x4003 DUP2 PUSH2 0x2E43 JUMP JUMPDEST PUSH1 0x3C DUP2 MSTORE PUSH32 0x494E56414C49445F4143434F554E545F4944202D204163636F756E7420494420 PUSH1 0x20 DUP3 ADD MSTORE PUSH32 0x697320696E76616C6964206F7220646F6573206E6F7420657869737400000000 PUSH1 0x40 DUP3 ADD MSTORE SWAP1 JUMP JUMPDEST POP POP PUSH1 0x40 MLOAD PUSH2 0x4064 DUP2 PUSH2 0x2E43 JUMP JUMPDEST PUSH1 0x34 DUP2 MSTORE PUSH32 0x494E56414C49445F5349474E4154555245202D205472616E73616374696F6E20 PUSH1 0x20 DUP3 ADD MSTORE PUSH20 0x1CDA59DB985D1D5C99481A5CC81A5B9D985B1A59 PUSH1 0x62 SHL PUSH1 0x40 DUP3 ADD MSTORE SWAP1 JUMP JUMPDEST POP POP PUSH1 0x40 MLOAD PUSH2 0x40BC DUP2 PUSH2 0x2E43 JUMP JUMPDEST PUSH1 0x40 DUP2 MSTORE PUSH32 0x494E53554646494349454E545F50415945525F42414C414E4345202D20506179 PUSH1 0x20 DUP3 ADD MSTORE PUSH32 0x6572206163636F756E742068617320696E73756666696369656E742048424152 PUSH1 0x40 DUP3 ADD MSTORE SWAP1 JUMP JUMPDEST POP POP PUSH1 0x40 MLOAD PUSH2 0x411D DUP2 PUSH2 0x2E43 JUMP JUMPDEST PUSH1 0x31 DUP2 MSTORE PUSH32 0x494E53554646494349454E545F54585F464545202D204E6F7420656E6F756768 PUSH1 0x20 DUP3 ADD MSTORE PUSH17 0x819D85CCBD99959481C1C9BDD9A591959 PUSH1 0x7A SHL PUSH1 0x40 DUP3 ADD MSTORE SWAP1 JUMP JUMPDEST POP POP PUSH1 0x40 MLOAD PUSH2 0x4172 DUP2 PUSH2 0x2DF2 JUMP JUMPDEST PUSH1 0x7 DUP2 MSTORE PUSH7 0x53554343455353 PUSH1 0xC8 SHL PUSH1 0x20 DUP3 ADD MSTORE SWAP1 JUMP JUMPDEST DUP1 ISZERO PUSH2 0x4249 JUMPI DUP1 DUP2 PUSH1 0x0 SWAP3 JUMPDEST PUSH2 0x4235 JUMPI POP DUP1 PUSH2 0x41A4 DUP4 PUSH2 0x2E7F JUMP JUMPDEST SWAP3 PUSH2 0x41B2 PUSH1 0x40 MLOAD SWAP5 DUP6 PUSH2 0x2E5E JUMP JUMPDEST DUP1 DUP5 MSTORE PUSH1 0x1F NOT PUSH2 0x41C1 DUP3 PUSH2 0x2E7F JUMP JUMPDEST ADD CALLDATASIZE PUSH1 0x20 DUP7 ADD CALLDATACOPY SWAP2 JUMPDEST PUSH2 0x41D3 JUMPI POP POP SWAP1 JUMP JUMPDEST PUSH1 0x0 NOT DUP3 ADD SWAP2 DUP1 DUP4 GT PUSH2 0x646 JUMPI DUP3 PUSH1 0xA SWAP1 DUP2 DUP5 DIV SWAP4 DUP3 DUP6 MUL SWAP3 DUP6 DUP5 DIV EQ DUP6 ISZERO OR ISZERO PUSH2 0x646 JUMPI PUSH2 0x4205 PUSH1 0xFF SWAP4 DUP5 SWAP3 PUSH2 0x34BD JUMP JUMPDEST AND PUSH1 0x30 ADD SWAP2 DUP3 GT PUSH2 0x646 JUMPI DUP6 MLOAD GT ISZERO PUSH2 0x30BC JUMPI PUSH1 0xF8 SHL PUSH1 0x1 PUSH1 0x1 PUSH1 0xF8 SHL SUB NOT AND PUSH1 0x0 BYTE SWAP1 DUP5 ADD PUSH1 0x1F ADD MSTORE8 DUP1 PUSH2 0x41CA JUMP JUMPDEST SWAP2 PUSH2 0x4241 PUSH1 0xA SWAP2 PUSH2 0x349B JUMP JUMPDEST SWAP3 DIV DUP1 PUSH2 0x4195 JUMP JUMPDEST POP PUSH1 0x40 MLOAD PUSH2 0x4256 DUP2 PUSH2 0x2DF2 JUMP JUMPDEST PUSH1 0x1 DUP2 MSTORE PUSH1 0x3 PUSH1 0xFC SHL PUSH1 0x20 DUP3 ADD MSTORE SWAP1 JUMP JUMPDEST PUSH1 0xFF PUSH1 0x2 SLOAD AND ISZERO PUSH2 0x4274 JUMPI JUMP JUMPDEST PUSH1 0x40 MLOAD PUSH4 0x8DFC202B PUSH1 0xE0 SHL DUP2 MSTORE PUSH1 0x4 SWAP1 REVERT JUMPDEST ISZERO PUSH2 0x428D JUMPI JUMP JUMPDEST PUSH1 0x40 MLOAD PUSH3 0x461BCD PUSH1 0xE5 SHL DUP2 MSTORE PUSH1 0x20 PUSH1 0x4 DUP3 ADD MSTORE PUSH1 0x13 PUSH1 0x24 DUP3 ADD MSTORE PUSH19 0x4E6F204842415220746F207769746864726177 PUSH1 0x68 SHL PUSH1 0x44 DUP3 ADD MSTORE PUSH1 0x64 SWAP1 REVERT JUMPDEST ISZERO PUSH2 0x42CF JUMPI JUMP JUMPDEST PUSH1 0x40 MLOAD PUSH3 0x461BCD PUSH1 0xE5 SHL DUP2 MSTORE PUSH1 0x20 PUSH1 0x4 DUP3 ADD MSTORE PUSH1 0x16 PUSH1 0x24 DUP3 ADD MSTORE PUSH22 0x1190D114881D1BDAD95B881B9BDD0818DC99585D1959 PUSH1 0x52 SHL PUSH1 0x44 DUP3 ADD MSTORE PUSH1 0x64 SWAP1 REVERT JUMPDEST ISZERO PUSH2 0x4314 JUMPI JUMP JUMPDEST PUSH1 0x40 MLOAD PUSH3 0x461BCD PUSH1 0xE5 SHL DUP2 MSTORE PUSH1 0x20 PUSH1 0x4 DUP3 ADD MSTORE PUSH1 0xF PUSH1 0x24 DUP3 ADD MSTORE PUSH15 0x125B9D985B1A59081190D114881251 PUSH1 0x8A SHL PUSH1 0x44 DUP3 ADD MSTORE PUSH1 0x64 SWAP1 REVERT JUMPDEST MLOAD SWAP1 DUP2 PUSH1 0x3 SIGNEXTEND DUP3 SUB PUSH2 0x303 JUMPI JUMP JUMPDEST MLOAD SWAP1 DUP2 PUSH1 0x7 SIGNEXTEND DUP3 SUB PUSH2 0x303 JUMPI JUMP JUMPDEST SWAP2 SWAP1 PUSH1 0x40 SWAP2 DUP3 MLOAD SWAP1 PUSH1 0x20 SWAP5 DUP6 DUP4 ADD SWAP4 PUSH4 0x707A02CD PUSH1 0xE1 SHL DUP6 MSTORE PUSH1 0x84 DUP5 ADD SWAP2 PUSH1 0x1 DUP1 PUSH1 0xA0 SHL SUB AND PUSH1 0x24 DUP6 ADD MSTORE PUSH1 0x7 SIGNEXTEND PUSH1 0x44 DUP5 ADD MSTORE PUSH1 0x60 PUSH1 0x64 DUP5 ADD MSTORE DUP2 MLOAD DUP1 SWAP2 MSTORE PUSH1 0xA4 DUP4 ADD SWAP1 DUP7 PUSH1 0xA4 DUP3 PUSH1 0x5 SHL DUP7 ADD ADD SWAP4 ADD SWAP2 PUSH1 0x0 SWAP1 JUMPDEST DUP9 DUP4 DUP4 LT PUSH2 0x44C7 JUMPI POP POP POP POP POP SWAP2 DUP2 PUSH2 0x43E2 PUSH1 0x0 SWAP5 SWAP4 DUP6 SWAP5 SUB PUSH1 0x1F NOT DUP2 ADD DUP4 MSTORE DUP3 PUSH2 0x2E5E JUMP JUMPDEST MLOAD SWAP1 DUP3 PUSH2 0x167 GAS CALL SWAP2 PUSH2 0x43F3 PUSH2 0x3501 JUMP JUMPDEST SWAP3 PUSH1 0x0 SWAP1 ISZERO PUSH2 0x44A8 JUMPI POP DUP3 MLOAD DUP4 ADD SWAP1 PUSH1 0x60 DUP5 DUP3 DUP5 ADD SWAP4 SUB SLT PUSH2 0x303 JUMPI PUSH2 0x441A DUP2 DUP6 ADD PUSH2 0x434B JUMP JUMPDEST SWAP2 PUSH2 0x4426 DUP5 DUP7 ADD PUSH2 0x4359 JUMP JUMPDEST SWAP5 PUSH1 0x60 DUP2 ADD MLOAD SWAP1 PUSH1 0x1 PUSH1 0x1 PUSH1 0x40 SHL SUB DUP3 GT PUSH2 0x303 JUMPI ADD SWAP4 DUP2 PUSH1 0x3F DUP7 ADD SLT ISZERO PUSH2 0x303 JUMPI DUP3 DUP6 ADD MLOAD SWAP1 PUSH2 0x4456 DUP3 PUSH2 0x31A3 JUMP JUMPDEST SWAP6 PUSH2 0x4463 DUP3 MLOAD SWAP8 DUP9 PUSH2 0x2E5E JUMP JUMPDEST DUP3 DUP8 MSTORE DUP2 DUP6 DUP9 ADD SWAP4 PUSH1 0x5 SHL DUP3 ADD ADD SWAP4 DUP5 GT PUSH2 0x303 JUMPI ADD SWAP1 JUMPDEST DUP3 DUP3 LT PUSH2 0x4491 JUMPI POP POP POP POP SWAP2 SWAP1 JUMPDEST SWAP1 SWAP2 PUSH1 0x3 SIGNEXTEND SWAP3 JUMP JUMPDEST DUP4 DUP1 SWAP2 PUSH2 0x449D DUP5 PUSH2 0x4359 JUMP JUMPDEST DUP2 MSTORE ADD SWAP2 ADD SWAP1 PUSH2 0x447B JUMP JUMPDEST SWAP3 POP POP MLOAD SWAP1 PUSH2 0x44B6 DUP3 PUSH2 0x2E0D JUMP JUMPDEST DUP1 DUP3 MSTORE CALLDATASIZE DUP2 CALLDATACOPY PUSH1 0x15 SWAP1 PUSH1 0x0 SWAP1 PUSH2 0x4489 JUMP JUMPDEST DUP1 PUSH2 0x44E2 PUSH1 0x1 SWAP4 SWAP5 SWAP6 SWAP7 SWAP8 PUSH1 0xA3 NOT DUP11 DUP3 SUB ADD DUP7 MSTORE DUP9 MLOAD PUSH2 0x2F12 JUMP JUMPDEST SWAP7 ADD SWAP3 ADD SWAP3 ADD SWAP1 SWAP3 SWAP2 PUSH2 0x43BC JUMP JUMPDEST PUSH1 0x40 MLOAD PUSH4 0xECA36917 PUSH1 0xE0 SHL PUSH1 0x20 DUP3 ADD SWAP1 DUP2 MSTORE PUSH1 0x1 PUSH1 0x1 PUSH1 0xA0 SHL SUB SWAP3 DUP4 AND PUSH1 0x24 DUP4 ADD MSTORE SWAP3 DUP3 AND PUSH1 0x44 DUP3 ADD MSTORE SWAP3 AND PUSH1 0x64 DUP4 ADD MSTORE PUSH1 0x7 SWAP3 SWAP1 SWAP3 SIGNEXTEND PUSH1 0x84 DUP1 DUP4 ADD SWAP2 SWAP1 SWAP2 MSTORE DUP2 MSTORE PUSH2 0x453B DUP2 PUSH2 0x2DBC JUMP JUMPDEST PUSH1 0x0 DUP1 SWAP3 DUP2 SWAP3 MLOAD SWAP1 DUP3 PUSH2 0x167 GAS CALL SWAP1 PUSH2 0x4552 PUSH2 0x3501 JUMP JUMPDEST SWAP2 ISZERO PUSH2 0x457B JUMPI PUSH1 0x20 DUP3 DUP1 MLOAD DUP2 ADD SUB SLT PUSH2 0x4578 JUMPI POP PUSH1 0x20 PUSH2 0x4572 SWAP2 ADD PUSH2 0x434B JUMP JUMPDEST PUSH1 0x3 SIGNEXTEND SWAP1 JUMP JUMPDEST DUP1 REVERT JUMPDEST POP POP PUSH1 0x15 PUSH2 0x4572 JUMP JUMPDEST PUSH2 0x458C PUSH2 0x31E6 JUMP JUMPDEST POP PUSH1 0x4 PUSH1 0x0 MSTORE PUSH1 0x3 PUSH1 0x20 MSTORE PUSH32 0x83EC6A1F0257B830B5E016457C9CF1435391BF56CC98F369A58A54FE93772465 SLOAD SWAP1 PUSH2 0x45C2 PUSH2 0x31BA JUMP JUMPDEST PUSH1 0x1 PUSH1 0x1 PUSH1 0xA0 SHL SUB SWAP1 SWAP2 AND PUSH1 0x20 DUP3 ADD MSTORE PUSH1 0x40 MLOAD SWAP2 PUSH2 0x45DF DUP4 PUSH2 0x2DF2 JUMP JUMPDEST DUP3 MSTORE PUSH1 0x20 DUP3 ADD MSTORE SWAP1 JUMP INVALID RETURN 0xF7 0xA9 INVALID CALLDATASIZE 0x4F 0xAA 0xB9 EXTCODESIZE 0x21 PUSH14 0xA50A3214154F22A0A2B415B23A84 0xC8 AND SWAP15 DUP12 PUSH4 0x6EE36E15 BLOCKHASH OR SHL PUSH13 0xC960B71A7020D9F60077F6AF9 BALANCE 0xA8 0xBB CREATE2 SWAP1 0xDA MUL 0x23 0xDA 0xCF PUSH22 0xC7AFA26469706673582212200D7350160D6E7312B6E5 SSTORE SLOAD PUSH2 0xA13 PUSH9 0x5565EF58AB257E7D27 BLOCKHASH SWAP2 SUB 0xBE CALLDATASIZE JUMPI SGT PUSH5 0x736F6C6343 STOP ADDMOD EQ STOP CALLER "},"methodIdentifiers":{"FEE_BPS()":"bf333f2c","FEE_DENOMINATOR()":"d73792a9","HBAR_withdrawal()":"e7834029","MIN_LIQUIDITY()":"21b77d63","addLiquidity(uint256,uint256,uint256,uint256)":"aebf3e41","addLiquidityWithUSD(uint256,uint256,uint256)":"545466a5","burnFCDR(uint256)":"734c79b6","calculateCSLPFromUSD(uint256,uint256)":"b79c41a2","calculateHBAR(uint256)":"34111bbf","calculateLPTokens(uint256)":"42c649de","createFCDRToken()":"bc031c52","createLPToken(string,string)":"4edec1ff","emergencyWithdraw()":"db2e21bc","fcdrMetadata(uint256)":"38b37d1c","fcdrToken()":"0a5579d1","getErrorMessage(int32)":"be591129","getFCDRMetadata(uint256)":"4ddd1c54","getOwnerFCDRs(address)":"1cf2e698","getPoolInfo()":"60246c88","getPurchaseMetadata(uint256)":"240f1b62","getTokenInfo()":"abb1dc44","getTotalFCDRs()":"32acf78b","getTotalPurchases()":"ea04f155","getUserPurchases(address)":"c6e5d8f6","getUserShare(address)":"bbbaee4c","getUserValue(address)":"a78c849b","getValuePerLPToken()":"2fb9125d","initializePool()":"250e6de0","isTokenCreated()":"185c112a","lpToken()":"5fcbd285","owner()":"8da5cb5b","ownerFCDRs(address,uint256)":"7d56be3c","pause()":"8456cb59","paused()":"5c975abb","purchaseMetadata(uint256)":"3474d1f9","redirectForToken(address,bytes)":"618dc65e","removeLiquidity(uint256,uint256)":"9d7de6b3","renounceOwnership()":"715018a6","tokenInfo()":"6addb663","totalFCDRs()":"a7112efe","totalHBAR()":"28999437","totalLPTokens()":"ef6283d9","totalPurchases()":"5962a941","totalValue()":"d4c3eea0","transferFrom(address,address,address,uint256)":"15dacbea","transferFromNFT(address,address,address,uint256)":"9b23d3d9","transferOwnership(address)":"f2fde38b","unpause()":"3f4ba83a","userPurchases(address,uint256)":"cf2c0334"}}}}}