{"contracts/ClearSkyLiquidityPool.sol":{"ClearSkyLiquidityPool":{"abi":[{"inputs":[{"internalType":"address","name":"_usdcToken","type":"address"},{"internalType":"address","name":"_lpToken","type":"address"},{"internalType":"address","name":"_owner","type":"address"}],"stateMutability":"nonpayable","type":"constructor"},{"inputs":[],"name":"EnforcedPause","type":"error"},{"inputs":[],"name":"ExpectedPause","type":"error"},{"inputs":[],"name":"InsufficientAmount","type":"error"},{"inputs":[],"name":"InsufficientLPBalance","type":"error"},{"inputs":[],"name":"InsufficientLiquidity","type":"error"},{"inputs":[],"name":"InvalidAmounts","type":"error"},{"inputs":[{"internalType":"address","name":"owner","type":"address"}],"name":"OwnableInvalidOwner","type":"error"},{"inputs":[{"internalType":"address","name":"account","type":"address"}],"name":"OwnableUnauthorizedAccount","type":"error"},{"inputs":[],"name":"PoolNotActive","type":"error"},{"inputs":[],"name":"ReentrancyGuardReentrantCall","type":"error"},{"inputs":[],"name":"SlippageExceeded","type":"error"},{"anonymous":false,"inputs":[{"indexed":true,"internalType":"address","name":"collector","type":"address"},{"indexed":false,"internalType":"uint256","name":"usdcAmount","type":"uint256"},{"indexed":false,"internalType":"uint256","name":"hbarAmount","type":"uint256"},{"indexed":false,"internalType":"uint256","name":"timestamp","type":"uint256"}],"name":"FeesCollected","type":"event"},{"anonymous":false,"inputs":[{"indexed":true,"internalType":"address","name":"user","type":"address"},{"indexed":false,"internalType":"uint256","name":"usdcAmount","type":"uint256"},{"indexed":false,"internalType":"uint256","name":"hbarAmount","type":"uint256"},{"indexed":false,"internalType":"uint256","name":"lpTokensMinted","type":"uint256"},{"indexed":false,"internalType":"uint256","name":"timestamp","type":"uint256"}],"name":"LiquidityAdded","type":"event"},{"anonymous":false,"inputs":[{"indexed":true,"internalType":"address","name":"user","type":"address"},{"indexed":false,"internalType":"uint256","name":"usdcAmount","type":"uint256"},{"indexed":false,"internalType":"uint256","name":"hbarAmount","type":"uint256"},{"indexed":false,"internalType":"uint256","name":"lpTokensBurned","type":"uint256"},{"indexed":false,"internalType":"uint256","name":"timestamp","type":"uint256"}],"name":"LiquidityRemoved","type":"event"},{"anonymous":false,"inputs":[{"indexed":true,"internalType":"address","name":"previousOwner","type":"address"},{"indexed":true,"internalType":"address","name":"newOwner","type":"address"}],"name":"OwnershipTransferred","type":"event"},{"anonymous":false,"inputs":[{"indexed":false,"internalType":"address","name":"account","type":"address"}],"name":"Paused","type":"event"},{"anonymous":false,"inputs":[{"indexed":true,"internalType":"address","name":"pauser","type":"address"},{"indexed":false,"internalType":"uint256","name":"timestamp","type":"uint256"}],"name":"PoolPaused","type":"event"},{"anonymous":false,"inputs":[{"indexed":true,"internalType":"address","name":"unpauser","type":"address"},{"indexed":false,"internalType":"uint256","name":"timestamp","type":"uint256"}],"name":"PoolUnpaused","type":"event"},{"anonymous":false,"inputs":[{"indexed":false,"internalType":"address","name":"account","type":"address"}],"name":"Unpaused","type":"event"},{"inputs":[],"name":"FEE_BPS","outputs":[{"internalType":"uint256","name":"","type":"uint256"}],"stateMutability":"view","type":"function"},{"inputs":[],"name":"FEE_DENOMINATOR","outputs":[{"internalType":"uint256","name":"","type":"uint256"}],"stateMutability":"view","type":"function"},{"inputs":[],"name":"MIN_LIQUIDITY","outputs":[{"internalType":"uint256","name":"","type":"uint256"}],"stateMutability":"view","type":"function"},{"inputs":[{"internalType":"uint256","name":"usdcAmount","type":"uint256"},{"internalType":"uint256","name":"minLPTokens","type":"uint256"}],"name":"addLiquidity","outputs":[],"stateMutability":"payable","type":"function"},{"inputs":[{"internalType":"uint256","name":"usdcAmount","type":"uint256"},{"internalType":"uint256","name":"hbarAmount","type":"uint256"}],"name":"calculateLPTokens","outputs":[{"internalType":"uint256","name":"lpTokens","type":"uint256"}],"stateMutability":"view","type":"function"},{"inputs":[],"name":"collectFees","outputs":[],"stateMutability":"nonpayable","type":"function"},{"inputs":[],"name":"emergencyWithdraw","outputs":[],"stateMutability":"nonpayable","type":"function"},{"inputs":[],"name":"getPoolRatio","outputs":[{"internalType":"uint256","name":"usdcRatio","type":"uint256"},{"internalType":"uint256","name":"hbarRatio","type":"uint256"}],"stateMutability":"view","type":"function"},{"inputs":[{"internalType":"address","name":"user","type":"address"}],"name":"getUserShare","outputs":[{"internalType":"uint256","name":"usdcShare","type":"uint256"},{"internalType":"uint256","name":"hbarShare","type":"uint256"},{"internalType":"uint256","name":"lpBalance","type":"uint256"}],"stateMutability":"view","type":"function"},{"inputs":[],"name":"lpToken","outputs":[{"internalType":"address","name":"","type":"address"}],"stateMutability":"view","type":"function"},{"inputs":[],"name":"owner","outputs":[{"internalType":"address","name":"","type":"address"}],"stateMutability":"view","type":"function"},{"inputs":[],"name":"pause","outputs":[],"stateMutability":"nonpayable","type":"function"},{"inputs":[],"name":"paused","outputs":[{"internalType":"bool","name":"","type":"bool"}],"stateMutability":"view","type":"function"},{"inputs":[{"internalType":"uint256","name":"lpTokens","type":"uint256"},{"internalType":"uint256","name":"minUSDC","type":"uint256"},{"internalType":"uint256","name":"minHBAR","type":"uint256"}],"name":"removeLiquidity","outputs":[],"stateMutability":"nonpayable","type":"function"},{"inputs":[],"name":"renounceOwnership","outputs":[],"stateMutability":"nonpayable","type":"function"},{"inputs":[],"name":"totalHBAR","outputs":[{"internalType":"uint256","name":"","type":"uint256"}],"stateMutability":"view","type":"function"},{"inputs":[],"name":"totalLPTokens","outputs":[{"internalType":"uint256","name":"","type":"uint256"}],"stateMutability":"view","type":"function"},{"inputs":[],"name":"totalUSDC","outputs":[{"internalType":"uint256","name":"","type":"uint256"}],"stateMutability":"view","type":"function"},{"inputs":[{"internalType":"address","name":"newOwner","type":"address"}],"name":"transferOwnership","outputs":[],"stateMutability":"nonpayable","type":"function"},{"inputs":[],"name":"unpause","outputs":[],"stateMutability":"nonpayable","type":"function"},{"inputs":[],"name":"usdcToken","outputs":[{"internalType":"address","name":"","type":"address"}],"stateMutability":"view","type":"function"},{"stateMutability":"payable","type":"receive"}],"evm":{"bytecode":{"linkReferences":{},"object":"60c0346101bc57601f61124c38819003918201601f191683019291906001600160401b038411838510176101c15781606092849260409687528339810103126101bc5761004b816101d7565b82610058602084016101d7565b926001600160a01b0391829161006e91016101d7565b1680156101a457600080546001600160a01b031981168317825586519291908416907f8be0079c531659141344cd1fd0a4f28419497f9722a3daafe3b4186f6b6457e09080a36001805581831615610162575082161561011e5760805260a0525161106090816101ec823960805181818161020c01528181610498015281816105e3015281816108dc0152610c9e015260a0518181816106270152818161081601528181610b000152610f6b0152f35b825162461bcd60e51b815260206004820152601860248201527f496e76616c6964204c5020746f6b656e206164647265737300000000000000006044820152606490fd5b62461bcd60e51b815260206004820152601460248201527f496e76616c6964205553444320616464726573730000000000000000000000006044820152606490fd5b8451631e4fbdf760e01b815260006004820152602490fd5b600080fd5b634e487b7160e01b600052604160045260246000fd5b51906001600160a01b03821682036101bc5756fe6080604081815260049081361015610022575b505050361561002057600080fd5b005b600092833560e01c90816311eac85514610c8a575080631dec151514610c6b57806321b77d6314610c4e5780632899943714610c3057806328f09b7114610c095780632ac564f514610be65780633f4ba83a14610b535780635c975abb14610b2f5780635fcbd28514610aeb578063715018a614610a915780638456cb5914610a0c578063857620e1146107a05780638da5cb5b146107785780639cd441da1461058b578063bbbaee4c14610536578063bf333f2c1461051a578063c879657214610373578063d73792a91461035657838163db2e21bc146101d157508063ef6283d9146101ae5763f2fde38b0361001257346101aa5760203660031901126101aa576001600160a01b038235818116939192908490036101a657610145610ce3565b8315610190575050600054826bffffffffffffffffffffffff60a01b821617600055167f8be0079c531659141344cd1fd0a4f28419497f9722a3daafe3b4186f6b6457e0600080a380f35b51631e4fbdf760e01b8152908101849052602490fd5b8480fd5b8280fd5b8382346101cd57816003193601126101cd576020906005549051908152f35b5080fd5b828185346101cd57816003193601126101cd576101ec610ce3565b82516370a0823160e01b81523081830152906001600160a01b03906020907f00000000000000000000000000000000000000000000000000000000000000008316908285602481855afa94851561034c578695610315575b50479480610290575b50505050811590811561025e578380f35b839283928392835416908390610287575bf11561027d57818180808380f35b51903d90823e3d90fd5b506108fc61026f565b8654885163a9059cbb60e01b81529086166001600160a01b0316928101928352602083019190915291839183919082908990829060400103925af1801561030b576102dd575b808061024d565b816102fc92903d10610304575b6102f48183610d39565b810190610d5b565b5085806102d6565b503d6102ea565b86513d87823e3d90fd5b955093508185813d8111610345575b61032e8183610d39565b81010312610340578694519388610244565b600080fd5b503d610324565b87513d88823e3d90fd5b8382346101cd57816003193601126101cd57602090516127108152f35b5090346101aa57826003193601126101aa5761038d610ce3565b600354601e810290808204601e149015171561050757612710809104908254601e810290808204601e14901517156104f457049181908161045e575b50508382158015610421575b50508354925190815260208101919091524260408201526001600160a01b03909116907facf5781f729863816d01e6d77635b13f2998b176b9a3550306ac6363f601bc2b90606090a280f35b815482918291829187916001600160a01b0316908390610455575bf1156104495783386103d5565b505051903d90823e3d90fd5b506108fc61043c565b8554855163a9059cbb60e01b81526001600160a01b03918216928101928352602083810194909452929183919082908990829060400103927f0000000000000000000000000000000000000000000000000000000000000000165af180156104ea576104cc575b81906103c9565b6104e39060203d8111610304576102f48183610d39565b50386104c5565b84513d87823e3d90fd5b634e487b7160e01b865260118452602486fd5b634e487b7160e01b845260118252602484fd5b8382346101cd57816003193601126101cd5760209051601e8152f35b5090346101aa5760203660031901126101aa5735916001600160a01b0383168303610588575061056861058492610f40565b9251918252602082015260408101919091529081906060820190565b0390f35b80fd5b5061059536610ccd565b9261059e610db4565b6105a6610d96565b81158015610770575b6107625782516323b872dd60e01b81523382820152306024820152604481018390526001600160a01b03906020816064818a7f000000000000000000000000000000000000000000000000000000000000000087165af180156107585761073a575b5061061c3484610e17565b94851061072b5785907f000000000000000000000000000000000000000000000000000000000000000016803b156101cd5784516340c10f1960e01b815233848201908152602081018890529091839183919082908490829060400103925af1801561072157610709575b5050907f08d7621a09a86934f387f650007fa17f2413759ca5f2ae0681161b371583a5f5926106ff926106bc83600354610d73565b6003556106ca348254610d73565b90556106d885600554610d73565b60055551908152346020820152604081019390935242606084015233929081906080820190565b0390a26001805580f35b61071590939293610d0f565b6101a657908438610687565b85513d84823e3d90fd5b508251638199f5f360e01b8152fd5b6107519060203d8111610304576102f48183610d39565b5038610611565b85513d89823e3d90fd5b8251636c2b7e2d60e11b8152fd5b5034156105af565b8382346101cd57816003193601126101cd57905490516001600160a01b039091168152602090f35b5090346101aa5760603660031901126101aa5780356107bd610db4565b6107c5610d96565b80156109fd57600554908181116109ed576107fa6107ee836107e960035485610dd7565b610dea565b926107e9855484610dd7565b92602435831080156109e2575b6109d4576001600160a01b03907f00000000000000000000000000000000000000000000000000000000000000008216803b156109d057865163079cc67960e41b815233838201908152602081018690529091899183919082908490829060400103925af180156109c6576109aa575b50836108d89260209261088c86600554610e0a565b60055561089b83600354610e0a565b6003556108a9888254610e0a565b8155885163a9059cbb60e01b81523391810191825260208201939093529193849283918b918391604090910190565b03927f0000000000000000000000000000000000000000000000000000000000000000165af180156109a057610982575b508480848015610978575b8280929181923390f11561096b5792519081526020810191909152604081019190915242606082015233907f8598e6b147330d38243f9c4cd33d61e208b9015719e977086fa42a0f73b1462b9080608081016106ff565b50505051903d90823e3d90fd5b6108fc9150610914565b6109999060203d8111610304576102f48183610d39565b5038610909565b85513d88823e3d90fd5b6108d892602092986109bc8793610d0f565b9892509250610877565b87513d8a823e3d90fd5b8780fd5b8451638199f5f360e01b8152fd5b506044358410610807565b83516384b8f6a160e01b81528390fd5b509051636c2b7e2d60e11b8152fd5b8382346101cd57816003193601126101cd57610a26610ce3565b610a2e610d96565b600160ff1960025416176002557f62e78cea01bee320cd4e420270b5ea74000d11b0c9f74754ebdbfc544b05a25860208251338152a1514281527fdeccd871bd16197ce3d021a73302372354d5cd2b5c3f57065638c772bf5a7c2860203392a280f35b8334610588578060031936011261058857610aaa610ce3565b80546001600160a01b03198116825581906001600160a01b03167f8be0079c531659141344cd1fd0a4f28419497f9722a3daafe3b4186f6b6457e08280a380f35b8382346101cd57816003193601126101cd57517f00000000000000000000000000000000000000000000000000000000000000006001600160a01b03168152602090f35b8382346101cd57816003193601126101cd5760209060ff6002541690519015158152f35b5090346101aa57826003193601126101aa57610b6d610ce3565b6002549060ff821615610bd8575060ff19166002557f5db9ee0a495bf2e6ff9c91a7834c1ba4fdd244a5e8aa4e537bd38aeae4b073aa60208251338152a1514281527f7218b4a8a456456c2cf5dbcd9202a02880a891c6f9dfafd90e7be5531523a03160203392a280f35b8251638dfc202b60e01b8152fd5b8382346101cd57602090610c02610bfc36610ccd565b90610e17565b9051908152f35b50823461058857806003193601126105885750610c24610ee0565b82519182526020820152f35b5090346101aa57826003193601126101aa5760209250549051908152f35b8382346101cd57816003193601126101cd57602090516103e88152f35b8382346101cd57816003193601126101cd576020906003549051908152f35b8490346101cd57816003193601126101cd577f00000000000000000000000000000000000000000000000000000000000000006001600160a01b03168152602090f35b6040906003190112610340576004359060243590565b6000546001600160a01b03163303610cf757565b60405163118cdaa760e01b8152336004820152602490fd5b67ffffffffffffffff8111610d2357604052565b634e487b7160e01b600052604160045260246000fd5b90601f8019910116810190811067ffffffffffffffff821117610d2357604052565b90816020910312610340575180151581036103405790565b91908201809211610d8057565b634e487b7160e01b600052601160045260246000fd5b60ff60025416610da257565b60405163d93c066560e01b8152600490fd5b600260015414610dc5576002600155565b604051633ee5aeb560e01b8152600490fd5b81810292918115918404141715610d8057565b8115610df4570490565b634e487b7160e01b600052601260045260246000fd5b91908203918211610d8057565b60055480610e9f575090610e2a91610dd7565b60006003821115610e9157508060019080821c828101809111610d805791905b838310610e71575050505b6126f290818102918183041490151715610d8057612710900490565b90919250610e8883610e838184610dea565b610d73565b821c9190610e4a565b9015610e5557506001610e55565b80610ebc610eb3610ec293610ecb95610dd7565b60035490610dea565b93610dd7565b60045490610dea565b80821015610ed95750610e55565b9050610e55565b6003549060045491610ef28382610d73565b8015610f34576127109182810290808204841490151715610d805781610f1791610dea565b93828102928184041490151715610d8057610f3191610dea565b90565b50509050600090600090565b6040516370a0823160e01b81526001600160a01b0391821660048201529190602090839060249082907f0000000000000000000000000000000000000000000000000000000000000000165afa91821561101e57600092610feb575b5081158015610fe1575b610fd757610fb660035483610dd7565b91610fd4610fc76005548095610dea565b936107e960045484610dd7565b91565b6000915081908190565b5060055415610fa6565b90916020823d8211611016575b8161100560209383610d39565b810103126105885750519038610f9c565b3d9150610ff8565b6040513d6000823e3d90fdfea26469706673582212207779d0c351a1c851bb0686ea6153dd2cb813a5080cd46dc9af5e3e75d4eb301264736f6c63430008140033","opcodes":"PUSH1 0xC0 CALLVALUE PUSH2 0x1BC JUMPI PUSH1 0x1F PUSH2 0x124C CODESIZE DUP2 SWAP1 SUB SWAP2 DUP3 ADD PUSH1 0x1F NOT AND DUP4 ADD SWAP3 SWAP2 SWAP1 PUSH1 0x1 PUSH1 0x1 PUSH1 0x40 SHL SUB DUP5 GT DUP4 DUP6 LT OR PUSH2 0x1C1 JUMPI DUP2 PUSH1 0x60 SWAP3 DUP5 SWAP3 PUSH1 0x40 SWAP7 DUP8 MSTORE DUP4 CODECOPY DUP2 ADD SUB SLT PUSH2 0x1BC JUMPI PUSH2 0x4B DUP2 PUSH2 0x1D7 JUMP JUMPDEST DUP3 PUSH2 0x58 PUSH1 0x20 DUP5 ADD PUSH2 0x1D7 JUMP JUMPDEST SWAP3 PUSH1 0x1 PUSH1 0x1 PUSH1 0xA0 SHL SUB SWAP2 DUP3 SWAP2 PUSH2 0x6E SWAP2 ADD PUSH2 0x1D7 JUMP JUMPDEST AND DUP1 ISZERO PUSH2 0x1A4 JUMPI PUSH1 0x0 DUP1 SLOAD PUSH1 0x1 PUSH1 0x1 PUSH1 0xA0 SHL SUB NOT DUP2 AND DUP4 OR DUP3 SSTORE DUP7 MLOAD SWAP3 SWAP2 SWAP1 DUP5 AND SWAP1 PUSH32 0x8BE0079C531659141344CD1FD0A4F28419497F9722A3DAAFE3B4186F6B6457E0 SWAP1 DUP1 LOG3 PUSH1 0x1 DUP1 SSTORE DUP2 DUP4 AND ISZERO PUSH2 0x162 JUMPI POP DUP3 AND ISZERO PUSH2 0x11E JUMPI PUSH1 0x80 MSTORE PUSH1 0xA0 MSTORE MLOAD PUSH2 0x1060 SWAP1 DUP2 PUSH2 0x1EC DUP3 CODECOPY PUSH1 0x80 MLOAD DUP2 DUP2 DUP2 PUSH2 0x20C ADD MSTORE DUP2 DUP2 PUSH2 0x498 ADD MSTORE DUP2 DUP2 PUSH2 0x5E3 ADD MSTORE DUP2 DUP2 PUSH2 0x8DC ADD MSTORE PUSH2 0xC9E ADD MSTORE PUSH1 0xA0 MLOAD DUP2 DUP2 DUP2 PUSH2 0x627 ADD MSTORE DUP2 DUP2 PUSH2 0x816 ADD MSTORE DUP2 DUP2 PUSH2 0xB00 ADD MSTORE PUSH2 0xF6B ADD MSTORE RETURN JUMPDEST DUP3 MLOAD PUSH3 0x461BCD PUSH1 0xE5 SHL DUP2 MSTORE PUSH1 0x20 PUSH1 0x4 DUP3 ADD MSTORE PUSH1 0x18 PUSH1 0x24 DUP3 ADD MSTORE PUSH32 0x496E76616C6964204C5020746F6B656E20616464726573730000000000000000 PUSH1 0x44 DUP3 ADD MSTORE PUSH1 0x64 SWAP1 REVERT JUMPDEST PUSH3 0x461BCD PUSH1 0xE5 SHL DUP2 MSTORE PUSH1 0x20 PUSH1 0x4 DUP3 ADD MSTORE PUSH1 0x14 PUSH1 0x24 DUP3 ADD MSTORE PUSH32 0x496E76616C696420555344432061646472657373000000000000000000000000 PUSH1 0x44 DUP3 ADD MSTORE PUSH1 0x64 SWAP1 REVERT JUMPDEST DUP5 MLOAD PUSH4 0x1E4FBDF7 PUSH1 0xE0 SHL DUP2 MSTORE PUSH1 0x0 PUSH1 0x4 DUP3 ADD MSTORE PUSH1 0x24 SWAP1 REVERT JUMPDEST PUSH1 0x0 DUP1 REVERT JUMPDEST PUSH4 0x4E487B71 PUSH1 0xE0 SHL PUSH1 0x0 MSTORE PUSH1 0x41 PUSH1 0x4 MSTORE PUSH1 0x24 PUSH1 0x0 REVERT JUMPDEST MLOAD SWAP1 PUSH1 0x1 PUSH1 0x1 PUSH1 0xA0 SHL SUB DUP3 AND DUP3 SUB PUSH2 0x1BC JUMPI JUMP INVALID PUSH1 0x80 PUSH1 0x40 DUP2 DUP2 MSTORE PUSH1 0x4 SWAP1 DUP2 CALLDATASIZE LT ISZERO PUSH2 0x22 JUMPI JUMPDEST POP POP POP CALLDATASIZE ISZERO PUSH2 0x20 JUMPI PUSH1 0x0 DUP1 REVERT JUMPDEST STOP JUMPDEST PUSH1 0x0 SWAP3 DUP4 CALLDATALOAD PUSH1 0xE0 SHR SWAP1 DUP2 PUSH4 0x11EAC855 EQ PUSH2 0xC8A JUMPI POP DUP1 PUSH4 0x1DEC1515 EQ PUSH2 0xC6B JUMPI DUP1 PUSH4 0x21B77D63 EQ PUSH2 0xC4E JUMPI DUP1 PUSH4 0x28999437 EQ PUSH2 0xC30 JUMPI DUP1 PUSH4 0x28F09B71 EQ PUSH2 0xC09 JUMPI DUP1 PUSH4 0x2AC564F5 EQ PUSH2 0xBE6 JUMPI DUP1 PUSH4 0x3F4BA83A EQ PUSH2 0xB53 JUMPI DUP1 PUSH4 0x5C975ABB EQ PUSH2 0xB2F JUMPI DUP1 PUSH4 0x5FCBD285 EQ PUSH2 0xAEB JUMPI DUP1 PUSH4 0x715018A6 EQ PUSH2 0xA91 JUMPI DUP1 PUSH4 0x8456CB59 EQ PUSH2 0xA0C JUMPI DUP1 PUSH4 0x857620E1 EQ PUSH2 0x7A0 JUMPI DUP1 PUSH4 0x8DA5CB5B EQ PUSH2 0x778 JUMPI DUP1 PUSH4 0x9CD441DA EQ PUSH2 0x58B JUMPI DUP1 PUSH4 0xBBBAEE4C EQ PUSH2 0x536 JUMPI DUP1 PUSH4 0xBF333F2C EQ PUSH2 0x51A JUMPI DUP1 PUSH4 0xC8796572 EQ PUSH2 0x373 JUMPI DUP1 PUSH4 0xD73792A9 EQ PUSH2 0x356 JUMPI DUP4 DUP2 PUSH4 0xDB2E21BC EQ PUSH2 0x1D1 JUMPI POP DUP1 PUSH4 0xEF6283D9 EQ PUSH2 0x1AE JUMPI PUSH4 0xF2FDE38B SUB PUSH2 0x12 JUMPI CALLVALUE PUSH2 0x1AA JUMPI PUSH1 0x20 CALLDATASIZE PUSH1 0x3 NOT ADD SLT PUSH2 0x1AA JUMPI PUSH1 0x1 PUSH1 0x1 PUSH1 0xA0 SHL SUB DUP3 CALLDATALOAD DUP2 DUP2 AND SWAP4 SWAP2 SWAP3 SWAP1 DUP5 SWAP1 SUB PUSH2 0x1A6 JUMPI PUSH2 0x145 PUSH2 0xCE3 JUMP JUMPDEST DUP4 ISZERO PUSH2 0x190 JUMPI POP POP PUSH1 0x0 SLOAD DUP3 PUSH12 0xFFFFFFFFFFFFFFFFFFFFFFFF PUSH1 0xA0 SHL DUP3 AND OR PUSH1 0x0 SSTORE AND PUSH32 0x8BE0079C531659141344CD1FD0A4F28419497F9722A3DAAFE3B4186F6B6457E0 PUSH1 0x0 DUP1 LOG3 DUP1 RETURN JUMPDEST MLOAD PUSH4 0x1E4FBDF7 PUSH1 0xE0 SHL DUP2 MSTORE SWAP1 DUP2 ADD DUP5 SWAP1 MSTORE PUSH1 0x24 SWAP1 REVERT JUMPDEST DUP5 DUP1 REVERT JUMPDEST DUP3 DUP1 REVERT JUMPDEST DUP4 DUP3 CALLVALUE PUSH2 0x1CD JUMPI DUP2 PUSH1 0x3 NOT CALLDATASIZE ADD SLT PUSH2 0x1CD JUMPI PUSH1 0x20 SWAP1 PUSH1 0x5 SLOAD SWAP1 MLOAD SWAP1 DUP2 MSTORE RETURN JUMPDEST POP DUP1 REVERT JUMPDEST DUP3 DUP2 DUP6 CALLVALUE PUSH2 0x1CD JUMPI DUP2 PUSH1 0x3 NOT CALLDATASIZE ADD SLT PUSH2 0x1CD JUMPI PUSH2 0x1EC PUSH2 0xCE3 JUMP JUMPDEST DUP3 MLOAD PUSH4 0x70A08231 PUSH1 0xE0 SHL DUP2 MSTORE ADDRESS DUP2 DUP4 ADD MSTORE SWAP1 PUSH1 0x1 PUSH1 0x1 PUSH1 0xA0 SHL SUB SWAP1 PUSH1 0x20 SWAP1 PUSH32 0x0 DUP4 AND SWAP1 DUP3 DUP6 PUSH1 0x24 DUP2 DUP6 GAS STATICCALL SWAP5 DUP6 ISZERO PUSH2 0x34C JUMPI DUP7 SWAP6 PUSH2 0x315 JUMPI JUMPDEST POP SELFBALANCE SWAP5 DUP1 PUSH2 0x290 JUMPI JUMPDEST POP POP POP POP DUP2 ISZERO SWAP1 DUP2 ISZERO PUSH2 0x25E JUMPI DUP4 DUP1 RETURN JUMPDEST DUP4 SWAP3 DUP4 SWAP3 DUP4 SWAP3 DUP4 SLOAD AND SWAP1 DUP4 SWAP1 PUSH2 0x287 JUMPI JUMPDEST CALL ISZERO PUSH2 0x27D JUMPI DUP2 DUP2 DUP1 DUP1 DUP4 DUP1 RETURN JUMPDEST MLOAD SWAP1 RETURNDATASIZE SWAP1 DUP3 RETURNDATACOPY RETURNDATASIZE SWAP1 REVERT JUMPDEST POP PUSH2 0x8FC PUSH2 0x26F JUMP JUMPDEST DUP7 SLOAD DUP9 MLOAD PUSH4 0xA9059CBB PUSH1 0xE0 SHL DUP2 MSTORE SWAP1 DUP7 AND PUSH1 0x1 PUSH1 0x1 PUSH1 0xA0 SHL SUB AND SWAP3 DUP2 ADD SWAP3 DUP4 MSTORE PUSH1 0x20 DUP4 ADD SWAP2 SWAP1 SWAP2 MSTORE SWAP2 DUP4 SWAP2 DUP4 SWAP2 SWAP1 DUP3 SWAP1 DUP10 SWAP1 DUP3 SWAP1 PUSH1 0x40 ADD SUB SWAP3 GAS CALL DUP1 ISZERO PUSH2 0x30B JUMPI PUSH2 0x2DD JUMPI JUMPDEST DUP1 DUP1 PUSH2 0x24D JUMP JUMPDEST DUP2 PUSH2 0x2FC SWAP3 SWAP1 RETURNDATASIZE LT PUSH2 0x304 JUMPI JUMPDEST PUSH2 0x2F4 DUP2 DUP4 PUSH2 0xD39 JUMP JUMPDEST DUP2 ADD SWAP1 PUSH2 0xD5B JUMP JUMPDEST POP DUP6 DUP1 PUSH2 0x2D6 JUMP JUMPDEST POP RETURNDATASIZE PUSH2 0x2EA JUMP JUMPDEST DUP7 MLOAD RETURNDATASIZE DUP8 DUP3 RETURNDATACOPY RETURNDATASIZE SWAP1 REVERT JUMPDEST SWAP6 POP SWAP4 POP DUP2 DUP6 DUP2 RETURNDATASIZE DUP2 GT PUSH2 0x345 JUMPI JUMPDEST PUSH2 0x32E DUP2 DUP4 PUSH2 0xD39 JUMP JUMPDEST DUP2 ADD SUB SLT PUSH2 0x340 JUMPI DUP7 SWAP5 MLOAD SWAP4 DUP9 PUSH2 0x244 JUMP JUMPDEST PUSH1 0x0 DUP1 REVERT JUMPDEST POP RETURNDATASIZE PUSH2 0x324 JUMP JUMPDEST DUP8 MLOAD RETURNDATASIZE DUP9 DUP3 RETURNDATACOPY RETURNDATASIZE SWAP1 REVERT JUMPDEST DUP4 DUP3 CALLVALUE PUSH2 0x1CD JUMPI DUP2 PUSH1 0x3 NOT CALLDATASIZE ADD SLT PUSH2 0x1CD JUMPI PUSH1 0x20 SWAP1 MLOAD PUSH2 0x2710 DUP2 MSTORE RETURN JUMPDEST POP SWAP1 CALLVALUE PUSH2 0x1AA JUMPI DUP3 PUSH1 0x3 NOT CALLDATASIZE ADD SLT PUSH2 0x1AA JUMPI PUSH2 0x38D PUSH2 0xCE3 JUMP JUMPDEST PUSH1 0x3 SLOAD PUSH1 0x1E DUP2 MUL SWAP1 DUP1 DUP3 DIV PUSH1 0x1E EQ SWAP1 ISZERO OR ISZERO PUSH2 0x507 JUMPI PUSH2 0x2710 DUP1 SWAP2 DIV SWAP1 DUP3 SLOAD PUSH1 0x1E DUP2 MUL SWAP1 DUP1 DUP3 DIV PUSH1 0x1E EQ SWAP1 ISZERO OR ISZERO PUSH2 0x4F4 JUMPI DIV SWAP2 DUP2 SWAP1 DUP2 PUSH2 0x45E JUMPI JUMPDEST POP POP DUP4 DUP3 ISZERO DUP1 ISZERO PUSH2 0x421 JUMPI JUMPDEST POP POP DUP4 SLOAD SWAP3 MLOAD SWAP1 DUP2 MSTORE PUSH1 0x20 DUP2 ADD SWAP2 SWAP1 SWAP2 MSTORE TIMESTAMP PUSH1 0x40 DUP3 ADD MSTORE PUSH1 0x1 PUSH1 0x1 PUSH1 0xA0 SHL SUB SWAP1 SWAP2 AND SWAP1 PUSH32 0xACF5781F729863816D01E6D77635B13F2998B176B9A3550306AC6363F601BC2B SWAP1 PUSH1 0x60 SWAP1 LOG2 DUP1 RETURN JUMPDEST DUP2 SLOAD DUP3 SWAP2 DUP3 SWAP2 DUP3 SWAP2 DUP8 SWAP2 PUSH1 0x1 PUSH1 0x1 PUSH1 0xA0 SHL SUB AND SWAP1 DUP4 SWAP1 PUSH2 0x455 JUMPI JUMPDEST CALL ISZERO PUSH2 0x449 JUMPI DUP4 CODESIZE PUSH2 0x3D5 JUMP JUMPDEST POP POP MLOAD SWAP1 RETURNDATASIZE SWAP1 DUP3 RETURNDATACOPY RETURNDATASIZE SWAP1 REVERT JUMPDEST POP PUSH2 0x8FC PUSH2 0x43C JUMP JUMPDEST DUP6 SLOAD DUP6 MLOAD PUSH4 0xA9059CBB PUSH1 0xE0 SHL DUP2 MSTORE PUSH1 0x1 PUSH1 0x1 PUSH1 0xA0 SHL SUB SWAP2 DUP3 AND SWAP3 DUP2 ADD SWAP3 DUP4 MSTORE PUSH1 0x20 DUP4 DUP2 ADD SWAP5 SWAP1 SWAP5 MSTORE SWAP3 SWAP2 DUP4 SWAP2 SWAP1 DUP3 SWAP1 DUP10 SWAP1 DUP3 SWAP1 PUSH1 0x40 ADD SUB SWAP3 PUSH32 0x0 AND GAS CALL DUP1 ISZERO PUSH2 0x4EA JUMPI PUSH2 0x4CC JUMPI JUMPDEST DUP2 SWAP1 PUSH2 0x3C9 JUMP JUMPDEST PUSH2 0x4E3 SWAP1 PUSH1 0x20 RETURNDATASIZE DUP2 GT PUSH2 0x304 JUMPI PUSH2 0x2F4 DUP2 DUP4 PUSH2 0xD39 JUMP JUMPDEST POP CODESIZE PUSH2 0x4C5 JUMP JUMPDEST DUP5 MLOAD RETURNDATASIZE DUP8 DUP3 RETURNDATACOPY RETURNDATASIZE SWAP1 REVERT JUMPDEST PUSH4 0x4E487B71 PUSH1 0xE0 SHL DUP7 MSTORE PUSH1 0x11 DUP5 MSTORE PUSH1 0x24 DUP7 REVERT JUMPDEST PUSH4 0x4E487B71 PUSH1 0xE0 SHL DUP5 MSTORE PUSH1 0x11 DUP3 MSTORE PUSH1 0x24 DUP5 REVERT JUMPDEST DUP4 DUP3 CALLVALUE PUSH2 0x1CD JUMPI DUP2 PUSH1 0x3 NOT CALLDATASIZE ADD SLT PUSH2 0x1CD JUMPI PUSH1 0x20 SWAP1 MLOAD PUSH1 0x1E DUP2 MSTORE RETURN JUMPDEST POP SWAP1 CALLVALUE PUSH2 0x1AA JUMPI PUSH1 0x20 CALLDATASIZE PUSH1 0x3 NOT ADD SLT PUSH2 0x1AA JUMPI CALLDATALOAD SWAP2 PUSH1 0x1 PUSH1 0x1 PUSH1 0xA0 SHL SUB DUP4 AND DUP4 SUB PUSH2 0x588 JUMPI POP PUSH2 0x568 PUSH2 0x584 SWAP3 PUSH2 0xF40 JUMP JUMPDEST SWAP3 MLOAD SWAP2 DUP3 MSTORE PUSH1 0x20 DUP3 ADD MSTORE PUSH1 0x40 DUP2 ADD SWAP2 SWAP1 SWAP2 MSTORE SWAP1 DUP2 SWAP1 PUSH1 0x60 DUP3 ADD SWAP1 JUMP JUMPDEST SUB SWAP1 RETURN JUMPDEST DUP1 REVERT JUMPDEST POP PUSH2 0x595 CALLDATASIZE PUSH2 0xCCD JUMP JUMPDEST SWAP3 PUSH2 0x59E PUSH2 0xDB4 JUMP JUMPDEST PUSH2 0x5A6 PUSH2 0xD96 JUMP JUMPDEST DUP2 ISZERO DUP1 ISZERO PUSH2 0x770 JUMPI JUMPDEST PUSH2 0x762 JUMPI DUP3 MLOAD PUSH4 0x23B872DD PUSH1 0xE0 SHL DUP2 MSTORE CALLER DUP3 DUP3 ADD MSTORE ADDRESS PUSH1 0x24 DUP3 ADD MSTORE PUSH1 0x44 DUP2 ADD DUP4 SWAP1 MSTORE PUSH1 0x1 PUSH1 0x1 PUSH1 0xA0 SHL SUB SWAP1 PUSH1 0x20 DUP2 PUSH1 0x64 DUP2 DUP11 PUSH32 0x0 DUP8 AND GAS CALL DUP1 ISZERO PUSH2 0x758 JUMPI PUSH2 0x73A JUMPI JUMPDEST POP PUSH2 0x61C CALLVALUE DUP5 PUSH2 0xE17 JUMP JUMPDEST SWAP5 DUP6 LT PUSH2 0x72B JUMPI DUP6 SWAP1 PUSH32 0x0 AND DUP1 EXTCODESIZE ISZERO PUSH2 0x1CD JUMPI DUP5 MLOAD PUSH4 0x40C10F19 PUSH1 0xE0 SHL DUP2 MSTORE CALLER DUP5 DUP3 ADD SWAP1 DUP2 MSTORE PUSH1 0x20 DUP2 ADD DUP9 SWAP1 MSTORE SWAP1 SWAP2 DUP4 SWAP2 DUP4 SWAP2 SWAP1 DUP3 SWAP1 DUP5 SWAP1 DUP3 SWAP1 PUSH1 0x40 ADD SUB SWAP3 GAS CALL DUP1 ISZERO PUSH2 0x721 JUMPI PUSH2 0x709 JUMPI JUMPDEST POP POP SWAP1 PUSH32 0x8D7621A09A86934F387F650007FA17F2413759CA5F2AE0681161B371583A5F5 SWAP3 PUSH2 0x6FF SWAP3 PUSH2 0x6BC DUP4 PUSH1 0x3 SLOAD PUSH2 0xD73 JUMP JUMPDEST PUSH1 0x3 SSTORE PUSH2 0x6CA CALLVALUE DUP3 SLOAD PUSH2 0xD73 JUMP JUMPDEST SWAP1 SSTORE PUSH2 0x6D8 DUP6 PUSH1 0x5 SLOAD PUSH2 0xD73 JUMP JUMPDEST PUSH1 0x5 SSTORE MLOAD SWAP1 DUP2 MSTORE CALLVALUE PUSH1 0x20 DUP3 ADD MSTORE PUSH1 0x40 DUP2 ADD SWAP4 SWAP1 SWAP4 MSTORE TIMESTAMP PUSH1 0x60 DUP5 ADD MSTORE CALLER SWAP3 SWAP1 DUP2 SWAP1 PUSH1 0x80 DUP3 ADD SWAP1 JUMP JUMPDEST SUB SWAP1 LOG2 PUSH1 0x1 DUP1 SSTORE DUP1 RETURN JUMPDEST PUSH2 0x715 SWAP1 SWAP4 SWAP3 SWAP4 PUSH2 0xD0F JUMP JUMPDEST PUSH2 0x1A6 JUMPI SWAP1 DUP5 CODESIZE PUSH2 0x687 JUMP JUMPDEST DUP6 MLOAD RETURNDATASIZE DUP5 DUP3 RETURNDATACOPY RETURNDATASIZE SWAP1 REVERT JUMPDEST POP DUP3 MLOAD PUSH4 0x8199F5F3 PUSH1 0xE0 SHL DUP2 MSTORE REVERT JUMPDEST PUSH2 0x751 SWAP1 PUSH1 0x20 RETURNDATASIZE DUP2 GT PUSH2 0x304 JUMPI PUSH2 0x2F4 DUP2 DUP4 PUSH2 0xD39 JUMP JUMPDEST POP CODESIZE PUSH2 0x611 JUMP JUMPDEST DUP6 MLOAD RETURNDATASIZE DUP10 DUP3 RETURNDATACOPY RETURNDATASIZE SWAP1 REVERT JUMPDEST DUP3 MLOAD PUSH4 0x6C2B7E2D PUSH1 0xE1 SHL DUP2 MSTORE REVERT JUMPDEST POP CALLVALUE ISZERO PUSH2 0x5AF JUMP JUMPDEST DUP4 DUP3 CALLVALUE PUSH2 0x1CD JUMPI DUP2 PUSH1 0x3 NOT CALLDATASIZE ADD SLT PUSH2 0x1CD JUMPI SWAP1 SLOAD SWAP1 MLOAD PUSH1 0x1 PUSH1 0x1 PUSH1 0xA0 SHL SUB SWAP1 SWAP2 AND DUP2 MSTORE PUSH1 0x20 SWAP1 RETURN JUMPDEST POP SWAP1 CALLVALUE PUSH2 0x1AA JUMPI PUSH1 0x60 CALLDATASIZE PUSH1 0x3 NOT ADD SLT PUSH2 0x1AA JUMPI DUP1 CALLDATALOAD PUSH2 0x7BD PUSH2 0xDB4 JUMP JUMPDEST PUSH2 0x7C5 PUSH2 0xD96 JUMP JUMPDEST DUP1 ISZERO PUSH2 0x9FD JUMPI PUSH1 0x5 SLOAD SWAP1 DUP2 DUP2 GT PUSH2 0x9ED JUMPI PUSH2 0x7FA PUSH2 0x7EE DUP4 PUSH2 0x7E9 PUSH1 0x3 SLOAD DUP6 PUSH2 0xDD7 JUMP JUMPDEST PUSH2 0xDEA JUMP JUMPDEST SWAP3 PUSH2 0x7E9 DUP6 SLOAD DUP5 PUSH2 0xDD7 JUMP JUMPDEST SWAP3 PUSH1 0x24 CALLDATALOAD DUP4 LT DUP1 ISZERO PUSH2 0x9E2 JUMPI JUMPDEST PUSH2 0x9D4 JUMPI PUSH1 0x1 PUSH1 0x1 PUSH1 0xA0 SHL SUB SWAP1 PUSH32 0x0 DUP3 AND DUP1 EXTCODESIZE ISZERO PUSH2 0x9D0 JUMPI DUP7 MLOAD PUSH4 0x79CC679 PUSH1 0xE4 SHL DUP2 MSTORE CALLER DUP4 DUP3 ADD SWAP1 DUP2 MSTORE PUSH1 0x20 DUP2 ADD DUP7 SWAP1 MSTORE SWAP1 SWAP2 DUP10 SWAP2 DUP4 SWAP2 SWAP1 DUP3 SWAP1 DUP5 SWAP1 DUP3 SWAP1 PUSH1 0x40 ADD SUB SWAP3 GAS CALL DUP1 ISZERO PUSH2 0x9C6 JUMPI PUSH2 0x9AA JUMPI JUMPDEST POP DUP4 PUSH2 0x8D8 SWAP3 PUSH1 0x20 SWAP3 PUSH2 0x88C DUP7 PUSH1 0x5 SLOAD PUSH2 0xE0A JUMP JUMPDEST PUSH1 0x5 SSTORE PUSH2 0x89B DUP4 PUSH1 0x3 SLOAD PUSH2 0xE0A JUMP JUMPDEST PUSH1 0x3 SSTORE PUSH2 0x8A9 DUP9 DUP3 SLOAD PUSH2 0xE0A JUMP JUMPDEST DUP2 SSTORE DUP9 MLOAD PUSH4 0xA9059CBB PUSH1 0xE0 SHL DUP2 MSTORE CALLER SWAP2 DUP2 ADD SWAP2 DUP3 MSTORE PUSH1 0x20 DUP3 ADD SWAP4 SWAP1 SWAP4 MSTORE SWAP2 SWAP4 DUP5 SWAP3 DUP4 SWAP2 DUP12 SWAP2 DUP4 SWAP2 PUSH1 0x40 SWAP1 SWAP2 ADD SWAP1 JUMP JUMPDEST SUB SWAP3 PUSH32 0x0 AND GAS CALL DUP1 ISZERO PUSH2 0x9A0 JUMPI PUSH2 0x982 JUMPI JUMPDEST POP DUP5 DUP1 DUP5 DUP1 ISZERO PUSH2 0x978 JUMPI JUMPDEST DUP3 DUP1 SWAP3 SWAP2 DUP2 SWAP3 CALLER SWAP1 CALL ISZERO PUSH2 0x96B JUMPI SWAP3 MLOAD SWAP1 DUP2 MSTORE PUSH1 0x20 DUP2 ADD SWAP2 SWAP1 SWAP2 MSTORE PUSH1 0x40 DUP2 ADD SWAP2 SWAP1 SWAP2 MSTORE TIMESTAMP PUSH1 0x60 DUP3 ADD MSTORE CALLER SWAP1 PUSH32 0x8598E6B147330D38243F9C4CD33D61E208B9015719E977086FA42A0F73B1462B SWAP1 DUP1 PUSH1 0x80 DUP2 ADD PUSH2 0x6FF JUMP JUMPDEST POP POP POP MLOAD SWAP1 RETURNDATASIZE SWAP1 DUP3 RETURNDATACOPY RETURNDATASIZE SWAP1 REVERT JUMPDEST PUSH2 0x8FC SWAP2 POP PUSH2 0x914 JUMP JUMPDEST PUSH2 0x999 SWAP1 PUSH1 0x20 RETURNDATASIZE DUP2 GT PUSH2 0x304 JUMPI PUSH2 0x2F4 DUP2 DUP4 PUSH2 0xD39 JUMP JUMPDEST POP CODESIZE PUSH2 0x909 JUMP JUMPDEST DUP6 MLOAD RETURNDATASIZE DUP9 DUP3 RETURNDATACOPY RETURNDATASIZE SWAP1 REVERT JUMPDEST PUSH2 0x8D8 SWAP3 PUSH1 0x20 SWAP3 SWAP9 PUSH2 0x9BC DUP8 SWAP4 PUSH2 0xD0F JUMP JUMPDEST SWAP9 SWAP3 POP SWAP3 POP PUSH2 0x877 JUMP JUMPDEST DUP8 MLOAD RETURNDATASIZE DUP11 DUP3 RETURNDATACOPY RETURNDATASIZE SWAP1 REVERT JUMPDEST DUP8 DUP1 REVERT JUMPDEST DUP5 MLOAD PUSH4 0x8199F5F3 PUSH1 0xE0 SHL DUP2 MSTORE REVERT JUMPDEST POP PUSH1 0x44 CALLDATALOAD DUP5 LT PUSH2 0x807 JUMP JUMPDEST DUP4 MLOAD PUSH4 0x84B8F6A1 PUSH1 0xE0 SHL DUP2 MSTORE DUP4 SWAP1 REVERT JUMPDEST POP SWAP1 MLOAD PUSH4 0x6C2B7E2D PUSH1 0xE1 SHL DUP2 MSTORE REVERT JUMPDEST DUP4 DUP3 CALLVALUE PUSH2 0x1CD JUMPI DUP2 PUSH1 0x3 NOT CALLDATASIZE ADD SLT PUSH2 0x1CD JUMPI PUSH2 0xA26 PUSH2 0xCE3 JUMP JUMPDEST PUSH2 0xA2E PUSH2 0xD96 JUMP JUMPDEST PUSH1 0x1 PUSH1 0xFF NOT PUSH1 0x2 SLOAD AND OR PUSH1 0x2 SSTORE PUSH32 0x62E78CEA01BEE320CD4E420270B5EA74000D11B0C9F74754EBDBFC544B05A258 PUSH1 0x20 DUP3 MLOAD CALLER DUP2 MSTORE LOG1 MLOAD TIMESTAMP DUP2 MSTORE PUSH32 0xDECCD871BD16197CE3D021A73302372354D5CD2B5C3F57065638C772BF5A7C28 PUSH1 0x20 CALLER SWAP3 LOG2 DUP1 RETURN JUMPDEST DUP4 CALLVALUE PUSH2 0x588 JUMPI DUP1 PUSH1 0x3 NOT CALLDATASIZE ADD SLT PUSH2 0x588 JUMPI PUSH2 0xAAA PUSH2 0xCE3 JUMP JUMPDEST DUP1 SLOAD PUSH1 0x1 PUSH1 0x1 PUSH1 0xA0 SHL SUB NOT DUP2 AND DUP3 SSTORE DUP2 SWAP1 PUSH1 0x1 PUSH1 0x1 PUSH1 0xA0 SHL SUB AND PUSH32 0x8BE0079C531659141344CD1FD0A4F28419497F9722A3DAAFE3B4186F6B6457E0 DUP3 DUP1 LOG3 DUP1 RETURN JUMPDEST DUP4 DUP3 CALLVALUE PUSH2 0x1CD JUMPI DUP2 PUSH1 0x3 NOT CALLDATASIZE ADD SLT PUSH2 0x1CD JUMPI MLOAD PUSH32 0x0 PUSH1 0x1 PUSH1 0x1 PUSH1 0xA0 SHL SUB AND DUP2 MSTORE PUSH1 0x20 SWAP1 RETURN JUMPDEST DUP4 DUP3 CALLVALUE PUSH2 0x1CD JUMPI DUP2 PUSH1 0x3 NOT CALLDATASIZE ADD SLT PUSH2 0x1CD JUMPI PUSH1 0x20 SWAP1 PUSH1 0xFF PUSH1 0x2 SLOAD AND SWAP1 MLOAD SWAP1 ISZERO ISZERO DUP2 MSTORE RETURN JUMPDEST POP SWAP1 CALLVALUE PUSH2 0x1AA JUMPI DUP3 PUSH1 0x3 NOT CALLDATASIZE ADD SLT PUSH2 0x1AA JUMPI PUSH2 0xB6D PUSH2 0xCE3 JUMP JUMPDEST PUSH1 0x2 SLOAD SWAP1 PUSH1 0xFF DUP3 AND ISZERO PUSH2 0xBD8 JUMPI POP PUSH1 0xFF NOT AND PUSH1 0x2 SSTORE PUSH32 0x5DB9EE0A495BF2E6FF9C91A7834C1BA4FDD244A5E8AA4E537BD38AEAE4B073AA PUSH1 0x20 DUP3 MLOAD CALLER DUP2 MSTORE LOG1 MLOAD TIMESTAMP DUP2 MSTORE PUSH32 0x7218B4A8A456456C2CF5DBCD9202A02880A891C6F9DFAFD90E7BE5531523A031 PUSH1 0x20 CALLER SWAP3 LOG2 DUP1 RETURN JUMPDEST DUP3 MLOAD PUSH4 0x8DFC202B PUSH1 0xE0 SHL DUP2 MSTORE REVERT JUMPDEST DUP4 DUP3 CALLVALUE PUSH2 0x1CD JUMPI PUSH1 0x20 SWAP1 PUSH2 0xC02 PUSH2 0xBFC CALLDATASIZE PUSH2 0xCCD JUMP JUMPDEST SWAP1 PUSH2 0xE17 JUMP JUMPDEST SWAP1 MLOAD SWAP1 DUP2 MSTORE RETURN JUMPDEST POP DUP3 CALLVALUE PUSH2 0x588 JUMPI DUP1 PUSH1 0x3 NOT CALLDATASIZE ADD SLT PUSH2 0x588 JUMPI POP PUSH2 0xC24 PUSH2 0xEE0 JUMP JUMPDEST DUP3 MLOAD SWAP2 DUP3 MSTORE PUSH1 0x20 DUP3 ADD MSTORE RETURN JUMPDEST POP SWAP1 CALLVALUE PUSH2 0x1AA JUMPI DUP3 PUSH1 0x3 NOT CALLDATASIZE ADD SLT PUSH2 0x1AA JUMPI PUSH1 0x20 SWAP3 POP SLOAD SWAP1 MLOAD SWAP1 DUP2 MSTORE RETURN JUMPDEST DUP4 DUP3 CALLVALUE PUSH2 0x1CD JUMPI DUP2 PUSH1 0x3 NOT CALLDATASIZE ADD SLT PUSH2 0x1CD JUMPI PUSH1 0x20 SWAP1 MLOAD PUSH2 0x3E8 DUP2 MSTORE RETURN JUMPDEST DUP4 DUP3 CALLVALUE PUSH2 0x1CD JUMPI DUP2 PUSH1 0x3 NOT CALLDATASIZE ADD SLT PUSH2 0x1CD JUMPI PUSH1 0x20 SWAP1 PUSH1 0x3 SLOAD SWAP1 MLOAD SWAP1 DUP2 MSTORE RETURN JUMPDEST DUP5 SWAP1 CALLVALUE PUSH2 0x1CD JUMPI DUP2 PUSH1 0x3 NOT CALLDATASIZE ADD SLT PUSH2 0x1CD JUMPI PUSH32 0x0 PUSH1 0x1 PUSH1 0x1 PUSH1 0xA0 SHL SUB AND DUP2 MSTORE PUSH1 0x20 SWAP1 RETURN JUMPDEST PUSH1 0x40 SWAP1 PUSH1 0x3 NOT ADD SLT PUSH2 0x340 JUMPI PUSH1 0x4 CALLDATALOAD SWAP1 PUSH1 0x24 CALLDATALOAD SWAP1 JUMP JUMPDEST PUSH1 0x0 SLOAD PUSH1 0x1 PUSH1 0x1 PUSH1 0xA0 SHL SUB AND CALLER SUB PUSH2 0xCF7 JUMPI JUMP JUMPDEST PUSH1 0x40 MLOAD PUSH4 0x118CDAA7 PUSH1 0xE0 SHL DUP2 MSTORE CALLER PUSH1 0x4 DUP3 ADD MSTORE PUSH1 0x24 SWAP1 REVERT JUMPDEST PUSH8 0xFFFFFFFFFFFFFFFF DUP2 GT PUSH2 0xD23 JUMPI PUSH1 0x40 MSTORE JUMP JUMPDEST PUSH4 0x4E487B71 PUSH1 0xE0 SHL PUSH1 0x0 MSTORE PUSH1 0x41 PUSH1 0x4 MSTORE PUSH1 0x24 PUSH1 0x0 REVERT JUMPDEST SWAP1 PUSH1 0x1F DUP1 NOT SWAP2 ADD AND DUP2 ADD SWAP1 DUP2 LT PUSH8 0xFFFFFFFFFFFFFFFF DUP3 GT OR PUSH2 0xD23 JUMPI PUSH1 0x40 MSTORE JUMP JUMPDEST SWAP1 DUP2 PUSH1 0x20 SWAP2 SUB SLT PUSH2 0x340 JUMPI MLOAD DUP1 ISZERO ISZERO DUP2 SUB PUSH2 0x340 JUMPI SWAP1 JUMP JUMPDEST SWAP2 SWAP1 DUP3 ADD DUP1 SWAP3 GT PUSH2 0xD80 JUMPI JUMP JUMPDEST PUSH4 0x4E487B71 PUSH1 0xE0 SHL PUSH1 0x0 MSTORE PUSH1 0x11 PUSH1 0x4 MSTORE PUSH1 0x24 PUSH1 0x0 REVERT JUMPDEST PUSH1 0xFF PUSH1 0x2 SLOAD AND PUSH2 0xDA2 JUMPI JUMP JUMPDEST PUSH1 0x40 MLOAD PUSH4 0xD93C0665 PUSH1 0xE0 SHL DUP2 MSTORE PUSH1 0x4 SWAP1 REVERT JUMPDEST PUSH1 0x2 PUSH1 0x1 SLOAD EQ PUSH2 0xDC5 JUMPI PUSH1 0x2 PUSH1 0x1 SSTORE JUMP JUMPDEST PUSH1 0x40 MLOAD PUSH4 0x3EE5AEB5 PUSH1 0xE0 SHL DUP2 MSTORE PUSH1 0x4 SWAP1 REVERT JUMPDEST DUP2 DUP2 MUL SWAP3 SWAP2 DUP2 ISZERO SWAP2 DUP5 DIV EQ OR ISZERO PUSH2 0xD80 JUMPI JUMP JUMPDEST DUP2 ISZERO PUSH2 0xDF4 JUMPI DIV SWAP1 JUMP JUMPDEST PUSH4 0x4E487B71 PUSH1 0xE0 SHL PUSH1 0x0 MSTORE PUSH1 0x12 PUSH1 0x4 MSTORE PUSH1 0x24 PUSH1 0x0 REVERT JUMPDEST SWAP2 SWAP1 DUP3 SUB SWAP2 DUP3 GT PUSH2 0xD80 JUMPI JUMP JUMPDEST PUSH1 0x5 SLOAD DUP1 PUSH2 0xE9F JUMPI POP SWAP1 PUSH2 0xE2A SWAP2 PUSH2 0xDD7 JUMP JUMPDEST PUSH1 0x0 PUSH1 0x3 DUP3 GT ISZERO PUSH2 0xE91 JUMPI POP DUP1 PUSH1 0x1 SWAP1 DUP1 DUP3 SHR DUP3 DUP2 ADD DUP1 SWAP2 GT PUSH2 0xD80 JUMPI SWAP2 SWAP1 JUMPDEST DUP4 DUP4 LT PUSH2 0xE71 JUMPI POP POP POP JUMPDEST PUSH2 0x26F2 SWAP1 DUP2 DUP2 MUL SWAP2 DUP2 DUP4 DIV EQ SWAP1 ISZERO OR ISZERO PUSH2 0xD80 JUMPI PUSH2 0x2710 SWAP1 DIV SWAP1 JUMP JUMPDEST SWAP1 SWAP2 SWAP3 POP PUSH2 0xE88 DUP4 PUSH2 0xE83 DUP2 DUP5 PUSH2 0xDEA JUMP JUMPDEST PUSH2 0xD73 JUMP JUMPDEST DUP3 SHR SWAP2 SWAP1 PUSH2 0xE4A JUMP JUMPDEST SWAP1 ISZERO PUSH2 0xE55 JUMPI POP PUSH1 0x1 PUSH2 0xE55 JUMP JUMPDEST DUP1 PUSH2 0xEBC PUSH2 0xEB3 PUSH2 0xEC2 SWAP4 PUSH2 0xECB SWAP6 PUSH2 0xDD7 JUMP JUMPDEST PUSH1 0x3 SLOAD SWAP1 PUSH2 0xDEA JUMP JUMPDEST SWAP4 PUSH2 0xDD7 JUMP JUMPDEST PUSH1 0x4 SLOAD SWAP1 PUSH2 0xDEA JUMP JUMPDEST DUP1 DUP3 LT ISZERO PUSH2 0xED9 JUMPI POP PUSH2 0xE55 JUMP JUMPDEST SWAP1 POP PUSH2 0xE55 JUMP JUMPDEST PUSH1 0x3 SLOAD SWAP1 PUSH1 0x4 SLOAD SWAP2 PUSH2 0xEF2 DUP4 DUP3 PUSH2 0xD73 JUMP JUMPDEST DUP1 ISZERO PUSH2 0xF34 JUMPI PUSH2 0x2710 SWAP2 DUP3 DUP2 MUL SWAP1 DUP1 DUP3 DIV DUP5 EQ SWAP1 ISZERO OR ISZERO PUSH2 0xD80 JUMPI DUP2 PUSH2 0xF17 SWAP2 PUSH2 0xDEA JUMP JUMPDEST SWAP4 DUP3 DUP2 MUL SWAP3 DUP2 DUP5 DIV EQ SWAP1 ISZERO OR ISZERO PUSH2 0xD80 JUMPI PUSH2 0xF31 SWAP2 PUSH2 0xDEA JUMP JUMPDEST SWAP1 JUMP JUMPDEST POP POP SWAP1 POP PUSH1 0x0 SWAP1 PUSH1 0x0 SWAP1 JUMP JUMPDEST PUSH1 0x40 MLOAD PUSH4 0x70A08231 PUSH1 0xE0 SHL DUP2 MSTORE PUSH1 0x1 PUSH1 0x1 PUSH1 0xA0 SHL SUB SWAP2 DUP3 AND PUSH1 0x4 DUP3 ADD MSTORE SWAP2 SWAP1 PUSH1 0x20 SWAP1 DUP4 SWAP1 PUSH1 0x24 SWAP1 DUP3 SWAP1 PUSH32 0x0 AND GAS STATICCALL SWAP2 DUP3 ISZERO PUSH2 0x101E JUMPI PUSH1 0x0 SWAP3 PUSH2 0xFEB JUMPI JUMPDEST POP DUP2 ISZERO DUP1 ISZERO PUSH2 0xFE1 JUMPI JUMPDEST PUSH2 0xFD7 JUMPI PUSH2 0xFB6 PUSH1 0x3 SLOAD DUP4 PUSH2 0xDD7 JUMP JUMPDEST SWAP2 PUSH2 0xFD4 PUSH2 0xFC7 PUSH1 0x5 SLOAD DUP1 SWAP6 PUSH2 0xDEA JUMP JUMPDEST SWAP4 PUSH2 0x7E9 PUSH1 0x4 SLOAD DUP5 PUSH2 0xDD7 JUMP JUMPDEST SWAP2 JUMP JUMPDEST PUSH1 0x0 SWAP2 POP DUP2 SWAP1 DUP2 SWAP1 JUMP JUMPDEST POP PUSH1 0x5 SLOAD ISZERO PUSH2 0xFA6 JUMP JUMPDEST SWAP1 SWAP2 PUSH1 0x20 DUP3 RETURNDATASIZE DUP3 GT PUSH2 0x1016 JUMPI JUMPDEST DUP2 PUSH2 0x1005 PUSH1 0x20 SWAP4 DUP4 PUSH2 0xD39 JUMP JUMPDEST DUP2 ADD SUB SLT PUSH2 0x588 JUMPI POP MLOAD SWAP1 CODESIZE PUSH2 0xF9C JUMP JUMPDEST RETURNDATASIZE SWAP2 POP PUSH2 0xFF8 JUMP JUMPDEST PUSH1 0x40 MLOAD RETURNDATASIZE PUSH1 0x0 DUP3 RETURNDATACOPY RETURNDATASIZE SWAP1 REVERT INVALID LOG2 PUSH5 0x6970667358 0x22 SLT KECCAK256 PUSH24 0x79D0C351A1C851BB0686EA6153DD2CB813A5080CD46DC9AF 0x5E RETURNDATACOPY PUSH22 0xD4EB301264736F6C6343000814003300000000000000 "},"methodIdentifiers":{"FEE_BPS()":"bf333f2c","FEE_DENOMINATOR()":"d73792a9","MIN_LIQUIDITY()":"21b77d63","addLiquidity(uint256,uint256)":"9cd441da","calculateLPTokens(uint256,uint256)":"2ac564f5","collectFees()":"c8796572","emergencyWithdraw()":"db2e21bc","getPoolRatio()":"28f09b71","getUserShare(address)":"bbbaee4c","lpToken()":"5fcbd285","owner()":"8da5cb5b","pause()":"8456cb59","paused()":"5c975abb","removeLiquidity(uint256,uint256,uint256)":"857620e1","renounceOwnership()":"715018a6","totalHBAR()":"28999437","totalLPTokens()":"ef6283d9","totalUSDC()":"1dec1515","transferOwnership(address)":"f2fde38b","unpause()":"3f4ba83a","usdcToken()":"11eac855"}}}}}