{"contracts/ClearSkyFactory.sol":{"ClearSkyFactory":{"abi":[{"inputs":[],"stateMutability":"nonpayable","type":"constructor"},{"anonymous":false,"inputs":[{"indexed":false,"internalType":"bool","name":"","type":"bool"},{"indexed":false,"internalType":"bytes","name":"","type":"bytes"}],"name":"CallResponseEvent","type":"event"},{"anonymous":false,"inputs":[{"indexed":true,"internalType":"address","name":"previousOwner","type":"address"},{"indexed":true,"internalType":"address","name":"newOwner","type":"address"}],"name":"OwnershipTransferred","type":"event"},{"anonymous":false,"inputs":[{"indexed":true,"internalType":"address","name":"user","type":"address"},{"indexed":true,"internalType":"address","name":"poolAddress","type":"address"},{"indexed":false,"internalType":"uint256","name":"poolIndex","type":"uint256"}],"name":"PoolCreated","type":"event"},{"inputs":[{"internalType":"uint256","name":"","type":"uint256"}],"name":"allPools","outputs":[{"internalType":"address","name":"","type":"address"}],"stateMutability":"view","type":"function"},{"inputs":[{"internalType":"uint256","name":"amount","type":"uint256"}],"name":"burnCSLP","outputs":[],"stateMutability":"nonpayable","type":"function"},{"inputs":[],"name":"createCSLPToken","outputs":[],"stateMutability":"payable","type":"function"},{"inputs":[],"name":"createFCDRToken","outputs":[],"stateMutability":"payable","type":"function"},{"inputs":[{"internalType":"address","name":"user","type":"address"}],"name":"createUserPool","outputs":[{"internalType":"address","name":"","type":"address"}],"stateMutability":"nonpayable","type":"function"},{"inputs":[],"name":"cslpToken","outputs":[{"internalType":"address","name":"","type":"address"}],"stateMutability":"view","type":"function"},{"inputs":[],"name":"fcdrToken","outputs":[{"internalType":"address","name":"","type":"address"}],"stateMutability":"view","type":"function"},{"inputs":[],"name":"getAllPools","outputs":[{"internalType":"address[]","name":"","type":"address[]"}],"stateMutability":"view","type":"function"},{"inputs":[{"internalType":"int32","name":"responseCode","type":"int32"}],"name":"getErrorMessage","outputs":[{"internalType":"string","name":"errorMessage","type":"string"}],"stateMutability":"pure","type":"function"},{"inputs":[],"name":"getPoolCount","outputs":[{"internalType":"uint256","name":"","type":"uint256"}],"stateMutability":"view","type":"function"},{"inputs":[{"internalType":"address","name":"user","type":"address"}],"name":"getUserPool","outputs":[{"internalType":"address","name":"","type":"address"}],"stateMutability":"view","type":"function"},{"inputs":[{"internalType":"address","name":"user","type":"address"}],"name":"hasPool","outputs":[{"internalType":"bool","name":"","type":"bool"}],"stateMutability":"view","type":"function"},{"inputs":[{"internalType":"address","name":"user","type":"address"},{"internalType":"uint256","name":"amount","type":"uint256"}],"name":"mintCSLP","outputs":[],"stateMutability":"nonpayable","type":"function"},{"inputs":[{"internalType":"address","name":"poolAddress","type":"address"}],"name":"mintFCDR","outputs":[],"stateMutability":"nonpayable","type":"function"},{"inputs":[],"name":"owner","outputs":[{"internalType":"address","name":"","type":"address"}],"stateMutability":"view","type":"function"},{"inputs":[{"internalType":"address","name":"token","type":"address"},{"internalType":"bytes","name":"encodedFunctionSelector","type":"bytes"}],"name":"redirectForToken","outputs":[{"internalType":"int256","name":"responseCode","type":"int256"},{"internalType":"bytes","name":"response","type":"bytes"}],"stateMutability":"nonpayable","type":"function"},{"inputs":[{"internalType":"address","name":"token","type":"address"},{"internalType":"address","name":"from","type":"address"},{"internalType":"address","name":"to","type":"address"},{"internalType":"uint256","name":"amount","type":"uint256"}],"name":"transferFrom","outputs":[{"internalType":"int64","name":"responseCode","type":"int64"}],"stateMutability":"nonpayable","type":"function"},{"inputs":[{"internalType":"address","name":"token","type":"address"},{"internalType":"address","name":"from","type":"address"},{"internalType":"address","name":"to","type":"address"},{"internalType":"uint256","name":"serialNumber","type":"uint256"}],"name":"transferFromNFT","outputs":[{"internalType":"int64","name":"responseCode","type":"int64"}],"stateMutability":"nonpayable","type":"function"},{"inputs":[{"internalType":"address","name":"newOwner","type":"address"}],"name":"transferOwnership","outputs":[],"stateMutability":"nonpayable","type":"function"},{"inputs":[{"internalType":"address","name":"","type":"address"}],"name":"userPools","outputs":[{"internalType":"address","name":"","type":"address"}],"stateMutability":"view","type":"function"}],"evm":{"bytecode":{"linkReferences":{},"object":"60806040818152346100af5760018060a01b03196000918183541683558280526001602052600181842055600183526002818420556002835260048184205560038352600881842055600483526010818420556005835260208184205560068352808320553381600654161760065580600454166004556005541660055533907f8be0079c531659141344cd1fd0a4f28419497f9722a3daafe3b4186f6b6457e08180a361600290816100b58239f35b600080fdfe60808060405260043610156200001457600080fd5b60003560e01c9081630a5579d1146200196b57508063107a480214620017225780631246dbf5146200192a57806315dacbea14620018ca5780631fe4ff29146200176157806333049e0e146200172257806341d1de9714620016db57806353b4fd0814620012db578063618dc65e146200117c578063772516c31462000f725780638da5cb5b1462000f475780638eec5d701462000f275780639827d4731462000efc5780639b23d3d91462000e415780639cac984c1462000b1d578063bb81c8751462000831578063bc031c5214620002eb578063be59112914620002a2578063d88ff1f414620001d25763f2fde38b146200011057600080fd5b34620001cd576020366003190112620001cd576200012d62001991565b6006546001600160a01b03808216926200014933851462001b51565b16918215620001895782907f8be0079c531659141344cd1fd0a4f28419497f9722a3daafe3b4186f6b6457e0600080a36001600160a01b03191617600655005b606460405162461bcd60e51b815260206004820152602060248201527f4e6577206f776e65722063616e6e6f74206265207a65726f20616464726573736044820152fd5b600080fd5b34620001cd576000366003190112620001cd57604051806003548083526020809301809160036000527fc2575a0e9e593c00f959f8c92f12db2869c3395a3b0502d05e2516446f71f85b9060005b8682821062000284578686620002398288038362001ac7565b604051928392818401908285525180915260408401929160005b8281106200026357505050500390f35b83516001600160a01b03168552869550938101939281019260010162000253565b83546001600160a01b03168552909301926001928301920162000220565b34620001cd576020366003190112620001cd576004358060030b8103620001cd57620002d2620002e79162001d03565b60405191829160208352602083019062001b2a565b0390f35b6000366003190112620001cd576200030f60018060a01b0360065416331462001b51565b6005546001600160a01b0316620007ec576200032a62001bf1565b604051620003388162001a3b565b600a815269233aba3ab9329021a22960b11b602082015281526040516200035f8162001a3b565b60048152632321a22960e11b60208201526020820152306040820152604051620003898162001a8f565b604c81527f4e6f6e2d7472616461626c6520746f6b656e20726570726573656e74696e672060208201527f656d657267656e63792048424152207769746864726177616c2066726f6d204360408201526b1b19585c94dade481c1bdbdb60a21b60608201526060820152604051620004018162001aab565b6002815260005b60408110620007d2575060e08201526200043e6200042630620029db565b60e083015190620004378262001ce4565b5262001ce4565b506200044962001cbf565b50600360005260016020527f7dfe757ecd65cbd7922a9c0161e935dd7fdbcc0e999689c7d31633896b1fc60b54620004b9906200048562001c82565b306020820152604051916200049a8362001a3b565b8252602082015260e083015190620004b28262001cf2565b5262001cf2565b50610100810151805160070b1580620007c2575b620007b2575b50604051630fb65bf360e01b6020820152606060248201528151610160608483015262000506906101e483019062001b2a565b91620005516200052960208301519460831995868683030160a487015262001b2a565b60408301516001600160a01b031660c48501526060830151848203860160e486015262001b2a565b6080820151151561010484015260a082015160070b61012484015260c0820151151561014484015260e08201519383820301610164840152835180825260208201916020808360051b8301019601926000915b8383106200071d576000808862000602818c60406101008d0151805160070b61018485015260018060a01b036020820151166101a4850152015160070b6101c483015284604483015284606483015203601f19810183528262001ac7565b602081519101346101675af16200061862002988565b90156200071257604081805181010312620001cd5760406200063d60208301620029bd565b9101516001600160a01b0381169190829003620001cd5760030b5b60030b60168103620006875750600580546001600160a01b0319166001600160a01b0392909216919091179055005b620006966200070e9162001d03565b620006ed603c60405180937f4643445220746f6b656e206372656174696f6e206661696c65643a20000000006020830152620006dc815180926020868601910162001b05565b810103601c81018452018262001ac7565b60405162461bcd60e51b815260206004820152918291602483019062001b2a565b0390fd5b506000601562000658565b9091929396602080600192601f19858203018652818b5180518352015190604083820152815115156040820152848060a01b038383015116606082015260c0620007926200077b604085015160a0608086015260e085019062001b2a565b6060850151848203603f190160a086015262001b2a565b926080878060a01b039101511691015299019301930191939290620005a4565b60406276a70091015281620004d3565b50604081015160070b15620004cd565b602090620007df62001cbf565b8282850101520162000408565b60405162461bcd60e51b815260206004820152601a60248201527f4643445220746f6b656e20616c726561647920637265617465640000000000006044820152606490fd5b34620001cd576040366003190112620001cd576200084e62001991565b6006546001600160a01b039062000869908216331462001b51565b8060045416906200087c82151562001b93565b6001600160401b0392836024351660070b604051946200089c8662001a57565b600086526040516020968782019663707a02cd60e11b88526084830190602484015284604484015260606064840152815180915260a48301908960a48260051b8601019301916000905b8b83831062000af1575050505050816200090d600093849303601f19810183528262001ac7565b516101679782895af1906200092162002988565b911562000ad4578151820190606083898401930312620001cd5762000948888401620029bd565b926200095760408201620029cc565b506060810151918211620001cd570181603f82011215620001cd5787810151604089620009848362001bd9565b620009928351918262001ac7565b838152019160051b830101928311620001cd576040899201905b83821062000aba57505050506016905b60030b0362000a87579160008094928194836004541693604051928984019563eca3691760e01b8752602485015230604485015216606483015260848201526084815262000a0a8162001a73565b51925af162000a1862002988565b901562000a7c578181805181010312620001cd5762000a3b8260169201620029bd565b60030b0362000a4657005b6064906040519062461bcd60e51b82526004820152600f60248201526e151c985b9cd9995c8819985a5b1959608a1b6044820152fd5b506016601562000a3b565b60405162461bcd60e51b815260048101869052600b60248201526a135a5b9d0819985a5b195960aa1b6044820152606490fd5b82809162000ac884620029cc565b815201910190620009ac565b5050600060405162000ae68162001a57565b5260166015620009bc565b8062000b0e6001939495969760a3198a8203018652885162001b2a565b960192019201909291620008e6565b34620001cd57602080600319360112620001cd5762000b3b62001991565b6006546001600160a01b039062000b56908216331462001b51565b806005541691821562000e03576040519262000b728462001a57565b600084526040518581019463707a02cd60e11b86526084820192602483015260019283604484015260606064840152815180915260a48301908860a48260051b8601019301916000905b868b84841062000dd8575050505050508162000be5600093849303601f19810183528262001ac7565b516101679682885af162000bf862002988565b901562000dbc5780518101606082888301920312620001cd5762000c1e878301620029bd565b9162000c2d60408201620029cc565b506060810151906001600160401b038211620001cd570181603f82011215620001cd578781015160408962000c628362001bd9565b62000c708351918262001ac7565b838152019160051b830101928311620001cd576040899201905b83821062000da257505050506016905b60030b0362000d6a579160008094928194836005541693604051928984019563eca3691760e01b8752602485015230604485015216606483015260848201526084815262000ce88162001a73565b51925af162000cf662002988565b901562000d5f578181805181010312620001cd5762000d198260169201620029bd565b60030b0362000d2457005b6064906040519062461bcd60e51b8252600482015260146024820152731190d114881d1c985b9cd9995c8819985a5b195960621b6044820152fd5b506016601562000d19565b60405162461bcd60e51b815260048101869052601060248201526f1190d114881b5a5b9d0819985a5b195960821b6044820152606490fd5b82809162000db084620029cc565b81520191019062000c8a565b50600060405162000dcd8162001a57565b526016601562000c9a565b62000df48192939495969760a3198a8203018652885162001b2a565b96019201920190929162000bbc565b60405162461bcd60e51b81526004810185905260166024820152751190d114881d1bdad95b881b9bdd0818dc99585d195960521b6044820152606490fd5b34620001cd5760008062000eb062000ea162000e5d36620019a8565b604051639b23d3d960e01b602082019081526001600160a01b03958616602483015293851660448201529390911660648401526084830152929091829060a4820190565b03601f19810183528262001ac7565b5190826101675af162000ec262002988565b901562000ef157602081805181010312620001cd5762000ee66020809201620029bd565b6040519060030b8152f35b506020601562000ee6565b34620001cd576000366003190112620001cd576004546040516001600160a01b039091168152602090f35b34620001cd576000366003190112620001cd576020600354604051908152f35b34620001cd576000366003190112620001cd576006546040516001600160a01b039091168152602090f35b34620001cd57602080600319360112620001cd5762000f9062001991565b6006546001600160a01b0391829162000fad908316331462001b51565b168015620011405780600052600283528160406000205416620010fb5781600454168260055416906040519161358690818401908482106001600160401b03831117620010d957608093859362002a4785393083528689840152604083015260608201520301906000f08015620010ef5782169181600052600284526040600020836bffffffffffffffffffffffff60a01b82541617905560035468010000000000000000811015620010d9578060016200106c9201600355620019ed565b819291549060031b9185831b921b1916179055600354906000198201918211620010c3577ff8a0462f666b427ea753848be7e91f9ce413975906f6f39950be296ca9a4d524848493604051908152a3604051908152f35b634e487b7160e01b600052601160045260246000fd5b634e487b7160e01b600052604160045260246000fd5b6040513d6000823e3d90fd5b60405162461bcd60e51b815260048101849052601c60248201527f506f6f6c20616c72656164792065786973747320666f722075736572000000006044820152606490fd5b60405162461bcd60e51b8152600481018490526014602482015273496e76616c69642075736572206164647265737360601b6044820152606490fd5b34620001cd576040366003190112620001cd576200119962001991565b602435906001600160401b038211620001cd5736602383011215620001cd57816004013590620011c98262001ae9565b91620011d9604051938462001ac7565b8083523660248286010111620001cd5762001240600094938560208462000ea19560248499018386013783010152604080516330c6e32f60e11b602082019081526001600160a01b0390961660248201526044810191909152928391606483019062001b2a565b5190826101675af16200125262002988565b907f4af4780e06fe8cb9df64b0794fa6f01399af979175bb988e35e0e57e594567bc6040518215158152604060208201528062001293604082018662001b2a565b0390a115620012c05760165b620002e760405192839260030b835260406020840152604083019062001b2a565b50604051620012cf8162001a57565b6000815260156200129f565b6000366003190112620001cd57620012ff60018060a01b0360065416331462001b51565b6004546001600160a01b031662001696576200131a62001bf1565b604051620013288162001a3b565b601181527021b632b0b929b5bc902628102a37b5b2b760791b6020820152815260208101906040516200135b8162001a3b565b6004815263043534c560e41b602082015282526040810190308252604051620013848162001a3b565b6001815260005b602081106200167c575060e08201908152620013b9620013ab30620029db565b825190620004378262001ce4565b50610100820151805160070b15806200166c575b6200165c575b506200144a60405193630fb65bf360e01b602086015260606024860152620014256200140e855161016060848901526101e488019062001b2a565b96519660831997888883030160a489015262001b2a565b90516001600160a01b031660c48601526060840151858203870160e487015262001b2a565b906080830151151561010485015260a083015160070b61012485015260c08301511515610144850152519383820301610164840152835180825260208201916020808360051b8301019601926000915b838310620015de5760008088620014f9818c60406101008d0151805160070b61018485015260018060a01b036020820151166101a4850152015160070b6101c48301528460448301526006606483015203601f19810183528262001ac7565b602081519101346101675af16200150f62002988565b9015620015d357604081805181010312620001cd5760406200153460208301620029bd565b9101516001600160a01b0381169190829003620001cd5760030b5b60030b601681036200157e5750600480546001600160a01b0319166001600160a01b0392909216919091179055005b6200158d6200070e9162001d03565b620006ed603c60405180937f43534c5020746f6b656e206372656174696f6e206661696c65643a20000000006020830152620006dc815180926020868601910162001b05565b50600060156200154f565b9091929396602080600192601f19858203018652818b5180518352015190604083820152815115156040820152848060a01b038383015116606082015260c06200163c6200077b604085015160a0608086015260e085019062001b2a565b926080878060a01b0391015116910152990193019301919392906200149a565b60406276a70091015284620013d3565b50604081015160070b15620013cd565b6020906200168962001cbf565b828285010152016200138b565b60405162461bcd60e51b815260206004820152601a60248201527f43534c5020746f6b656e20616c726561647920637265617465640000000000006044820152606490fd5b34620001cd576020366003190112620001cd57600435600354811015620001cd5762001709602091620019ed565b905460405160039290921b1c6001600160a01b03168152f35b34620001cd576020366003190112620001cd5760206001600160a01b03806200174a62001991565b166000526002825260406000205416604051908152f35b34620001cd57602080600319360112620001cd576006546001600160a01b039062001790908216331462001b51565b6004541690620017a282151562001b93565b604051620017b08162001a57565b6000815260405182810191636b48868360e11b8352608482019460248301526007946001600160401b0360043516860b60448401526060606484015281518091528460a4840192019060005b818110620018b3578660008088886200181f818a03601f19810183528262001ac7565b5190826101675af16200183162002988565b9015620018a857604081805181010312620001cd57806200186460406200185c8560169501620029bd565b9201620029cc565b505b60030b036200187157005b6064906040519062461bcd60e51b82526004820152601060248201526f10d4d31408189d5c9b8819985a5b195960821b6044820152fd5b506016601562001866565b8251880b84529286019291860191600101620017fc565b34620001cd5760008062000eb062000ea1620018e636620019a8565b604051630aed65f560e11b602082019081526001600160a01b03958616602483015293851660448201529390911660648401526084830152929091829060a4820190565b34620001cd576020366003190112620001cd5760206001600160a01b03806200195262001991565b1660005260028252604060002054161515604051908152f35b34620001cd576000366003190112620001cd576005546001600160a01b03168152602090f35b600435906001600160a01b0382168203620001cd57565b6080906003190112620001cd576001600160a01b036004358181168103620001cd57916024358281168103620001cd57916044359081168103620001cd579060643590565b60035481101562001a255760036000527fc2575a0e9e593c00f959f8c92f12db2869c3395a3b0502d05e2516446f71f85b0190600090565b634e487b7160e01b600052603260045260246000fd5b604081019081106001600160401b03821117620010d957604052565b602081019081106001600160401b03821117620010d957604052565b60c081019081106001600160401b03821117620010d957604052565b608081019081106001600160401b03821117620010d957604052565b606081019081106001600160401b03821117620010d957604052565b90601f801991011681019081106001600160401b03821117620010d957604052565b6001600160401b038111620010d957601f01601f191660200190565b60005b83811062001b195750506000910152565b818101518382015260200162001b08565b9060209162001b458151809281855285808601910162001b05565b601f01601f1916010190565b1562001b5957565b60405162461bcd60e51b815260206004820152601260248201527127b7363c903330b1ba37b93c9037bbb732b960711b6044820152606490fd5b1562001b9b57565b60405162461bcd60e51b815260206004820152601660248201527510d4d314081d1bdad95b881b9bdd0818dc99585d195960521b6044820152606490fd5b6001600160401b038111620010d95760051b60200190565b604080516001600160401b03929190610120810184811182821017620010d95782528093606092838352836020840152600091828285015284808501528260808501528260a08501528260c08501528460e08501528151948501908582109082111762001c6e578152818452602084018290528301526101000152565b634e487b7160e01b83526041600452602483fd5b6040519060a082018281106001600160401b03821117620010d9576040526000608083828152826020820152606060408201526060808201520152565b6040519062001cce8262001a3b565b8160008152602062001cdf62001c82565b910152565b80511562001a255760200190565b80516001101562001a255760400190565b8060030b90601682146200286957600982146200281257600a8214620027af57600782146200275557600f8214620026f257601082146200268f57601e82146200263f5760228214620025dc57606f82146200258b5760aa8214620025285760ab8214620024d45760ae82146200247e5760af82146200241b5760be8214620023c95760bf82146200236e5760a882146200230b5760a98214620022a85760bd82146200225857609b82146200220a57601a8214620021be57601b82146200217257602682146200211757604091828114620020be57604181146200205057610117811462001ff657610145811462001f9557610146811462001f3457610147811462001ec9576101481462001e7357603362001e2a63ffffffff62001e70931662002890565b9251809372554e4b4e4f574e5f4552524f525f434f44455f60681b602083015262001e5f815180926020868601910162001b05565b810103601381018452018262001ac7565b90565b5072206d616e79206368696c64207265636f72647360681b81519162001e998362001aab565b603383527f4d41585f4348494c445f5245434f5244535f4558434545444544202d20546f6f602084015282015290565b50507f6666696369656e742062616c616e636520666f722073746f726167652072656e81519162001efa8362001a8f565b604183527f494e53554646494349454e545f53544f524147455f52454e54202d20496e73756020840152820152601d60fa1b606082015290565b50507f6e76616c6964207369676e617475726520666f7220707265636f6d70696c650081519162001f658362001aab565b603f83527f494e56414c49445f505245434f4d50494c455f5349474e4154555245202d2049602084015282015290565b50507f6e74697469657320696e20707269636520726567696d6520726561636865640081519162001fc68362001aab565b603f83527f4d41585f454e5449544945535f43524541544544202d204d6178696d756d2065602084015282015290565b5050751cdd5cc81b9bd9194819d85cc8195e1a185d5cdd195960521b815191620020208362001aab565b603683527f434f4e53454e5355535f4741535f455848415553544544202d20436f6e73656e602084015282015290565b50507f616e73616374696f6e2068617320746f6f206d616e79206e6573746564206c61815191620020818362001a8f565b604483527f5452414e53414354494f4e5f544f4f5f4d414e595f4c4159455253202d2054726020840152820152637965727360e01b606082015290565b5050741bdb88195e18d959591cc81cda5e99481b1a5b5a5d605a1b815191620020e78362001aab565b603583527f5452414e53414354494f4e5f4f56455253495a45202d205472616e7361637469602084015282015290565b5050604051620021278162001aab565b603581527f494e56414c49445f4b45595f454e434f44494e47202d204b657920656e636f646020820152741a5b99c8199bdc9b585d081a5cc81a5b9d985b1a59605a1b604082015290565b5050604051620021828162001aab565b602681527f4241445f454e434f44494e47202d204b657920656e636f64696e6720697320696020820152651b9d985b1a5960d21b604082015290565b5050604051620021ce8162001aab565b602681527f4b45595f5245515549524544202d205265717569726564206b6579206973206d602082015265697373696e6760d01b604082015290565b50506040516200221a8162001aab565b602881527f494e56414c49445f41444d494e5f4b4559202d2041646d696e206b6579206973602082015267081a5b9d985b1a5960c21b604082015290565b5050604051620022688162001aab565b602a81527f494e56414c49445f535550504c595f4b4559202d20537570706c79206b6579206020820152691a5cc81a5b9d985b1a5960b21b604082015290565b5050604051620022b88162001aab565b603e81527f494e56414c49445f544f4b454e5f494e495449414c5f535550504c59202d204960208201527f6e697469616c20737570706c792076616c756520697320696e76616c69640000604082015290565b50506040516200231b8162001aab565b603881527f494e56414c49445f544f4b454e5f444543494d414c53202d20546f6b656e206460208201527f6563696d616c732076616c756520697320696e76616c69640000000000000000604082015290565b50506040516200237e8162001aab565b603581527f544f4b454e5f4e414d455f544f4f5f4c4f4e47202d20546f6b656e206e616d6560208201527408195e18d959591cc81b195b99dd1a081b1a5b5a5d605a1b604082015290565b5050604051620023d98162001aab565b602c81527f4d495353494e475f544f4b454e5f4e414d45202d20546f6b656e206e616d652060208201526b1b9bdd081c1c9bdd9a59195960a21b604082015290565b50506040516200242b8162001aab565b603981527f544f4b454e5f53594d424f4c5f544f4f5f4c4f4e47202d20546f6b656e20737960208201527f6d626f6c2065786365656473206c656e677468206c696d697400000000000000604082015290565b50506040516200248e8162001aab565b603081527f4d495353494e475f544f4b454e5f53594d424f4c202d20546f6b656e2073796d60208201526f189bdb081b9bdd081c1c9bdd9a59195960821b604082015290565b5050604051620024e48162001aab565b602e81527f494e56414c49445f544f4b454e5f53594d424f4c202d20546f6b656e2073796d60208201526d189bdb081a5cc81a5b9d985b1a5960921b604082015290565b5050604051620025388162001aab565b603d81527f494e56414c49445f54524541535552595f4143434f554e545f464f525f544f4b60208201527f454e202d205472656173757279206163636f756e7420696e76616c6964000000604082015290565b50506040516200259b8162001aab565b602b81527f4d41585f4741535f4c494d49545f4558434545444544202d20476173206c696d60208201526a1a5d08195e18d95959195960aa1b604082015290565b5050604051620025ec8162001aab565b603881527f434f4e54524143545f455845435554494f4e5f455843455054494f4e202d204360208201527f6f6e747261637420657865637574696f6e206661696c65640000000000000000604082015290565b50506040516200264f8162001aab565b602a81527f494e53554646494349454e545f474153202d204e6f7420656e6f7567682067616020820152691cc81cdd5c1c1b1a595960b21b604082015290565b50506040516200269f8162001aab565b603e81527f494e56414c49445f434f4e54524143545f4944202d20436f6e7472616374204960208201527f4420697320696e76616c6964206f7220646f6573206e6f742065786973740000604082015290565b5050604051620027028162001aab565b603c81527f494e56414c49445f4143434f554e545f4944202d204163636f756e742049442060208201527f697320696e76616c6964206f7220646f6573206e6f7420657869737400000000604082015290565b5050604051620027658162001aab565b603481527f494e56414c49445f5349474e4154555245202d205472616e73616374696f6e206020820152731cda59db985d1d5c99481a5cc81a5b9d985b1a5960621b604082015290565b5050604051620027bf8162001aab565b604081527f494e53554646494349454e545f50415945525f42414c414e4345202d2050617960208201527f6572206163636f756e742068617320696e73756666696369656e742048424152604082015290565b5050604051620028228162001aab565b603181527f494e53554646494349454e545f54585f464545202d204e6f7420656e6f7567686020820152700819d85ccbd99959481c1c9bdd9a591959607a1b604082015290565b5050604051620028798162001a3b565b60078152665355434345535360c81b602082015290565b8015620029685780816000925b6200294e5750620028ae8262001ae9565b91620028be604051938462001ac7565b80835281601f19620028d08362001ae9565b01916020923684870137925b620028e75750505090565b6000198301928311620010c35782600a9182810492808402908482041484151715620010c3578103908111620010c35760ff809116603001908111620010c357855182101562001a255760f81b6001600160f81b03191660001a90850183015380620028dc565b916000198114620010c3576001600a91019204806200289d565b50604051620029778162001a3b565b60018152600360fc1b602082015290565b3d15620029b8573d906200299c8262001ae9565b91620029ac604051938462001ac7565b82523d6000602084013e565b606090565b51908160030b8203620001cd57565b51908160070b8203620001cd57565b620029e562001cbf565b50600460005260016020527fedc95719e9a3b28dd8e80877cb5880a9be7de1a13fc8b05e7999683b6b567643549062002a1d62001c82565b6001600160a01b0390911660208201526040519162002a3c8362001a3b565b825260208201529056fe61010034620002c757601f6200358638819003918201601f191683019291906001600160401b03841183851017620002cc578160809284926040968752833981010312620002c7576200005281620002e2565b9060209162000063838301620002e2565b906200007f606062000077878601620002e2565b9401620002e2565b936001600160a01b038281168015620002af57600080546001600160a01b0319811683178255899283929185167f8be0079c531659141344cd1fd0a4f28419497f9722a3daafe3b4186f6b6457e08380a360018055610100600160a81b0319600254166002558080526003855260018282205560018152600282822055600281526004828220556003815260088282205560048152601082822055600581528482822055600681522055808416156200026b57808516156200022757851615620001e4575060805260a05260c05260e0525161328e9081620002f8823960805181818161036e0152818161076c01528181610a0f01528181611297015281816117110152612171015260a0518161150b015260c05181818161090c01528181610ce8015281816111cc0152818161168a01528181611a64015281816120a00152818161240901526124a6015260e051818181610e7801528181611a990152611bcd0152f35b60649086519062461bcd60e51b82526004820152601a60248201527f496e76616c6964204643445220746f6b656e20616464726573730000000000006044820152fd5b865162461bcd60e51b815260048101839052601a60248201527f496e76616c69642043534c5020746f6b656e20616464726573730000000000006044820152606490fd5b865162461bcd60e51b815260048101839052601960248201527f496e76616c696420706f6f6c20757365722061646472657373000000000000006044820152606490fd5b8751631e4fbdf760e01b815260006004820152602490fd5b600080fd5b634e487b7160e01b600052604160045260246000fd5b51906001600160a01b0382168203620002c75756fe608060409080825260049081361015610053575b503615610051576020606492519162461bcd60e51b83528201526012602482015271119d5b98dd1a5bdb881b9bdd08199bdd5b9960721b6044820152fd5b005b600090813560e01c9081630a5579d114611bb95750806310ca0bce14611a4857806315dacbea146119eb5780631cf2e6981461197757806321b77d6314611959578063240f1b621461188b578063250e6de01461165b578063289994371461163c5780632fb9125d1461161f57806332acf78b146108c057806334111bbf146115fe5780633474d1f91461159657806338b37d1c1461153a5780633e7e516a146114f65780633f4ba83a1461149e57806342c649de1461147d5780634ddd1c54146113bc578063545466a51461119e5780635962a941146103145780635c975abb1461117a57806360246c881461114a578063618dc65e1461100a578063715018a614610fb0578063734c79b614610de25780637d56be3c14610d9a5780638456cb5914610d3f5780638da5cb5b14610d175780639827d47314610cd35780639b23d3d914610c2b5780639d7de6b3146108df578063a7112efe146108c0578063a78c849b14610899578063aebf3e411461085e578063b79c41a21461083b578063bbbaee4c146107f7578063be591129146107b7578063bf333f2c1461079b578063c45a015514610757578063c6e5d8f6146106d5578063cf2c03341461067c578063d4c3eea01461065d578063d73792a914610640578063db2e21bc14610576578063e783402914610333578063ea04f15514610314578063ef6283d9146102f15763f2fde38b03610013579190346102ed5760203660031901126102ed5761027c611bfc565b90610285611e26565b6001600160a01b039182169283156102d7575050600054826001600160601b0360a01b821617600055167f8be0079c531659141344cd1fd0a4f28419497f9722a3daafe3b4186f6b6457e0600080a380f35b51631e4fbdf760e01b8152908101849052602490fd5b8280fd5b5082346103105781600319360112610310576020906005549051908152f35b5080fd5b5082346103105781600319360112610310576020906009549051908152f35b5091346102ed57826003193601126102ed5761034d611e26565b61035561310f565b479161036283151561312e565b6001600160a01b0390847f00000000000000000000000000000000000000000000000000000000000000008316803b1561031057818091602487518094819363272b261360e21b835230898401525af1801561056c57610554575b508290541681600c548551926103d284611cd7565b8784526020840190428252878501908152606085019130835260808601938085528b52600a602052888b20955186555160018601558660028601915116906001600160601b0360a01b918282541617905586600386019251169082541617905551910155818554168552600b602052610450838620600c5490611fe6565b61045b600c54612020565b80600c5582865416906000198101908111610541578680878482957fb5d1185f9eb3bc9f64976a0642fa385671626df86e9aecd91bcda7206b0456666104bb85978c51918291874291846040919493926060820195825260208201520152565b0390a25af16104c8612362565b50156105055750907f2e4fb6077d4acf86e12bb7411fb82b2b3eaa6a49787f4b1e17b423e7ea84116991845416928151908152426020820152a280f35b606490602084519162461bcd60e51b8352820152601660248201527512109054881dda5d1a191c985dd85b0819985a5b195960521b6044820152fd5b634e487b7160e01b875260118352602487fd5b61055d90611cc4565b6105685784386103bd565b8480fd5b85513d84823e3d90fd5b5091346102ed57826003193601126102ed57610590611e26565b61059861310f565b47916105a583151561312e565b60018060a01b03908480808087868254165af16105c0612362565b50156105fd5750907f2e4fb6077d4acf86e12bb7411fb82b2b3eaa6a49787f4b1e17b423e7ea84116991845416928151908152426020820152a280f35b606490602084519162461bcd60e51b8352820152601b60248201527f456d657267656e6379207769746864726177616c206661696c656400000000006044820152fd5b508234610310578160031936011261031057602090516127108152f35b5082346103105781600319360112610310576020906006549051908152f35b508234610310578060031936011261031057610696611bfc565b6001600160a01b031682526008602052808220805460243593908410156106d257506020926106c491611de2565b91905490519160031b1c8152f35b80fd5b50823461031057602090816003193601126102ed576001600160a01b036106fa611bfc565b168352600882528083209281518093808654928381520195835280832092905b8282106107405761073c8686610732828b0383611d5e565b5191829182611c58565b0390f35b83548752958601956001938401939091019061071a565b508234610310578160031936011261031057517f00000000000000000000000000000000000000000000000000000000000000006001600160a01b03168152602090f35b50823461031057816003193601126103105760209051601e8152f35b509190346102ed5760203660031901126102ed5735918260030b83036106d257506107e461073c92612502565b9051918291602083526020830190611dbd565b5082346103105760203660031901126103105761073c90610816611bfc565b5061081f612407565b9251918252602082015260408101919091529081906060820190565b5082346103105760209061085761085136611e10565b906123bc565b9051908152f35b509060803660031901126103105761089290610878611ed1565b610880611eb3565b60643590604435906024359035612092565b6001805580f35b508234610310576020366003190112610310576020906108b7611bfc565b506108576124a4565b508234610310578160031936011261031057602090600c549051908152f35b5091346102ed576108ef36611e10565b9190926108fa611ed1565b610902611eb3565b6001600160a01b037f00000000000000000000000000000000000000000000000000000000000000008116610938811515611e52565b8515610bef576005548015610bb557835461096861095f8361095a848c612342565b611e93565b97881015612052565b478711610b72576109859161097e888a93612355565b8655612355565b60055561099485600654612355565b600655600791876001600160401b038816840b918387516109b481611cf2565b838152885190898201978683526020988b8a8501528251809152896060850193019187905b8b838310610b4b57505050505090807fb310aaac57f9a89f4e3661e38cb8df5ea9428b82d1bb2b8ab6a77c3f52818f02920390a27f000000000000000000000000000000000000000000000000000000000000000016803b156103105781809160248b8a519485938492631fe4ff2960e01b84528c8401525af18015610b415790879291610b26575b50507f7b2f31b2ffda9d7a1ac640400c8f7eb1c8d0071689111f45797448a14697587c9181519081528985820152a28580808087335af1610aa1612362565b5015610aef57505051908152602081019190915242604082015233907f1dc8bb69df2b8e91fbdcbfcf93d951b3f0000f085a95fe3f7946d6161439245d9080606081015b0390a26001805580f35b606492519162461bcd60e51b8352820152601460248201527312109054881d1c985b9cd9995c8819985a5b195960621b6044820152fd5b610b31919250611cc4565b610b3d57848838610a62565b8780fd5b87513d84823e3d90fd5b91946001939698995084839295985051850b81520195019201928e969593899593926109d9565b855162461bcd60e51b8152602081870152601960248201527f496e73756666696369656e74204842415220696e20706f6f6c000000000000006044820152606490fd5b845162461bcd60e51b81526020818601526014602482015273139bc81b1a5c5d5a591a5d1e481a5b881c1bdbdb60621b6044820152606490fd5b835162461bcd60e51b81526020818501526016602482015275139bc81314081d1bdad95b9cc81cdc1958da599a595960521b6044820152606490fd5b508234610310578180602093610c96610c88610c4636611c17565b8951639b23d3d960e01b8c82019081526001600160a01b03958616602483015293851660448201529390911660648401526084830152929091829060a4820190565b03601f198101835282611d5e565b5190826101675af1610ca6612362565b915015610cca57808380610cbf935183010191016131ae565b905b519060030b8152f35b50601590610cc1565b508234610310578160031936011261031057517f00000000000000000000000000000000000000000000000000000000000000006001600160a01b03168152602090f35b508234610310578160031936011261031057905490516001600160a01b039091168152602090f35b50823461031057816003193601126103105760207f62e78cea01bee320cd4e420270b5ea74000d11b0c9f74754ebdbfc544b05a25891610d7d611e26565b610d85611eb3565b600160ff19600254161760025551338152a180f35b508234610310578060031936011261031057610db4611bfc565b6001600160a01b03168252600b602052808220805460243593908410156106d257506020926106c491611de2565b509190346102ed5760209182600319360112610fac578135610e02611e26565b610e0f600c548210613170565b8452600a8352808420815190610e2482611cd7565b8054825260018101548583015260018060a01b03916080858460028501541693848785015285600382015416606085015201549101528186541603610f6a5784809183518681019163efef57f960e01b83527f00000000000000000000000000000000000000000000000000000000000000001660248201523060448201526001606482015260648152610eb781611cd7565b5190826101675af1610ec7612362565b9015610f6257808480610edf935183010191016131ae565b60030b60168103610eee578480f35b90610efb610f5e92612502565b90610f446035825180947402321a22910313ab93734b733903330b4b632b21d1605d1b89830152610f34815180928b8686019101611d9a565b8101036015810185520183611d5e565b5193849362461bcd60e51b85528401526024830190611dbd565b0390fd5b506015610edf565b5091606492519162461bcd60e51b8352820152601a60248201527f4e6f7420746865206f776e6572206f66207468697320464344520000000000006044820152fd5b8380fd5b50346106d257806003193601126106d257610fc9611e26565b600080546001600160a01b0319811682556001600160a01b03167f8be0079c531659141344cd1fd0a4f28419497f9722a3daafe3b4186f6b6457e08280a380f35b509034610310578260031936011261031057611024611bfc565b90602435906001600160401b038211610fac5736602383011215610fac5781013561104e81611d7f565b9161105b86519384611d5e565b8183523660248383010111610568576110bb859492938560208682976024610c889701838601378301015287516330c6e32f60e11b602082019081526001600160a01b039095166024820152604481018990529283916064830190611dbd565b5190826101675af1906110cc612362565b917f4af4780e06fe8cb9df64b0794fa6f01399af979175bb988e35e0e57e594567bc845182151581528560208201528061110887820187611dbd565b0390a115611130575061073c6016915b835193849360030b8452806020850152830190611dbd565b8251915061113d82611cf2565b815261073c601591611118565b50346106d257806003193601126106d2575054600554600654925191825260208201526040810191909152606090f35b50823461031057816003193601126103105760209060ff6002541690519015158152f35b509160603660031901126102ed578135906024356111ba611ed1565b6111c2611eb3565b6001600160a01b037f00000000000000000000000000000000000000000000000000000000000000008116939091906111fc851515611e52565b6005541561138257869161123091611215341515611ef4565b611220811515611f33565b61122b821515611f89565b6123bc565b9461123f604435871015612052565b61124a348254612045565b815561125834600654612045565b6006556001600160401b03861660070b928451848152867fb7555d949a897acb395f95e3f2df8b700519404826bb13cd6526b756f6a1c90760203393a37f000000000000000000000000000000000000000000000000000000000000000016803b156102ed57845163bb81c87560e01b81523392810192835260208301889052918391839182908490829060400103925af1801561137857611364575b50506000805160206132398339815191529261131385600554612045565b60055582519182528560208301527fad91542866f4da9ebed5a2b1713258f4bf970f84e7b2a0b8aab2de28d11ffffd833393a351348152602081019290925242604083015233918060608101610ae5565b61136d90611cc4565b6105685784386112f5565b84513d84823e3d90fd5b835162461bcd60e51b81526020818801526014602482015273141bdbdb081b9bdd081a5b9a5d1a585b1a5e995960621b6044820152606490fd5b509190346102ed5760203660031901126102ed578160a093823581608084516113e481611cd7565b82815282602082015282868201528260608201520152611407600c548210613170565b8152600a602052209082519161141c83611cd7565b805493848452600182015460208501908152600180881b0393849160808360028701541692858901938452846003880154169660608a0197885201549701968752835197885251602088015251169085015251166060830152516080820152f35b508290346106d25760203660031901126106d2575061085760209235612392565b50823461031057816003193601126103105760207f5db9ee0a495bf2e6ff9c91a7834c1ba4fdd244a5e8aa4e537bd38aeae4b073aa916114dc611e26565b6114e461310f565b60ff196002541660025551338152a180f35b508234610310578160031936011261031057517f00000000000000000000000000000000000000000000000000000000000000006001600160a01b03168152602090f35b5091346102ed5760203660031901126102ed578060a09383358152600a60205220805492600182015492600180871b03918260028501541692600385015416930154938151958652602086015284015260608301526080820152f35b5091346102ed5760203660031901126102ed578060c09383358152600760205220805492600182015492600283015490600384015492600560018060a01b038092870154169501541694815196875260208701528501526060840152608083015260a0820152f35b508290346106d25760203660031901126106d25750610857602092356123ee565b508234610310578160031936011261031057602090610857612486565b509190346102ed57826003193601126102ed5760209250549051908152f35b50908160031936011261031057611670611e26565b611678611ed1565b611680611eb3565b6001600160a01b037f0000000000000000000000000000000000000000000000000000000000000000811693906116b8851515611e52565b60055461184857620186a03410611805573483553460065560643404926001600160401b03841660070b918351838152877fb7555d949a897acb395f95e3f2df8b700519404826bb13cd6526b756f6a1c90760203393a37f00000000000000000000000000000000000000000000000000000000000000001690813b1561180157835163bb81c87560e01b8152339181019182526020820186905291869183919082908490829060400103925af180156117f7576117d6575b508293946000805160206132398339815191529360055582519182528560208301527fad91542866f4da9ebed5a2b1713258f4bf970f84e7b2a0b8aab2de28d11ffffd833393a351348152602081019290925242604083015233918060608101610ae5565b936117f06000805160206132398339815191529495611cc4565b9392611771565b83513d87823e3d90fd5b8580fd5b815162461bcd60e51b8152602081850152601e60248201527f496e73756666696369656e7420696e697469616c206c697175696469747900006044820152606490fd5b815162461bcd60e51b8152602081850152601860248201527f506f6f6c20616c726561647920696e697469616c697a656400000000000000006044820152606490fd5b509190346102ed5760203660031901126102ed57600590828460c09560a083516118b481611c93565b8281528260208201528285820152826060820152826080820152015282358152600760205220908351916118e783611c93565b8054948584526001820154906020850191825260028301548186019081526003840154926060870193845260a0600180821b038099818099890154169760808b0198895201541697019687528251988952516020890152519087015251606086015251166080840152511660a0820152f35b50823461031057816003193601126103105760209051620186a08152f35b50823461031057602090816003193601126102ed576001600160a01b0361199c611bfc565b168352600b82528083209281518093808654928381520195835280832092905b8282106119d45761073c8686610732828b0383611d5e565b8354875295860195600193840193909101906119bc565b508234610310578180602093610c96610c88611a0636611c17565b8951630aed65f560e11b8c82019081526001600160a01b03958616602483015293851660448201529390911660648401526084830152929091829060a4820190565b5091346102ed57826003193601126102ed57611a62611e26565b7f000000000000000000000000000000000000000000000000000000000000000091611a8e83306131c7565b60168103611b6657507f000000000000000000000000000000000000000000000000000000000000000091611ac383306131c7565b60168103611b02575050506001600160a01b0390811691167f650590083355aaffaa2fa0c2195838842f2b6d5ea01c067f5e128066ea40f15c8380a380f35b60209291611b15610f5e9260030b612502565b90610f44603f825180947f4643445220746f6b656e206173736f63696174696f6e206661696c65643a200089830152611b56815180928b8686019101611d9a565b810103601f810185520183611d5e565b602092611b78610f5e9260030b612502565b90610f44603f825180947f43534c5020746f6b656e206173736f63696174696f6e206661696c65643a200089830152611b56815180928b8686019101611d9a565b9050346103105781600319360112610310577f00000000000000000000000000000000000000000000000000000000000000006001600160a01b03168152602090f35b600435906001600160a01b0382168203611c1257565b600080fd5b6080906003190112611c12576001600160a01b036004358181168103611c1257916024358281168103611c1257916044359081168103611c12579060643590565b6020908160408183019282815285518094520193019160005b828110611c7f575050505090565b835185529381019392810192600101611c71565b60c081019081106001600160401b03821117611cae57604052565b634e487b7160e01b600052604160045260246000fd5b6001600160401b038111611cae57604052565b60a081019081106001600160401b03821117611cae57604052565b602081019081106001600160401b03821117611cae57604052565b604081019081106001600160401b03821117611cae57604052565b606081019081106001600160401b03821117611cae57604052565b608081019081106001600160401b03821117611cae57604052565b90601f801991011681019081106001600160401b03821117611cae57604052565b6001600160401b038111611cae57601f01601f191660200190565b60005b838110611dad5750506000910152565b8181015183820152602001611d9d565b90602091611dd681518092818552858086019101611d9a565b601f01601f1916010190565b8054821015611dfa5760005260206000200190600090565b634e487b7160e01b600052603260045260246000fd5b6040906003190112611c12576004359060243590565b6000546001600160a01b03163303611e3a57565b60405163118cdaa760e01b8152336004820152602490fd5b15611e5957565b60405162461bcd60e51b815260206004820152601260248201527110d4d314081d1bdad95b881b9bdd081cd95d60721b6044820152606490fd5b8115611e9d570490565b634e487b7160e01b600052601260045260246000fd5b60ff60025416611ebf57565b60405163d93c066560e01b8152600490fd5b600260015414611ee2576002600155565b604051633ee5aeb560e01b8152600490fd5b15611efb57565b60405162461bcd60e51b815260206004820152601060248201526f139bc812109054881c1c9bdd9a59195960821b6044820152606490fd5b15611f3a57565b60405162461bcd60e51b815260206004820152602160248201527f55534420616d6f756e74206d7573742062652067726561746572207468616e206044820152600360fc1b6064820152608490fd5b15611f9057565b60405162461bcd60e51b815260206004820152602860248201527f4d617475726174696f6e20616d6f756e74206d75737420626520677265617465604482015267072207468616e20360c41b6064820152608490fd5b805468010000000000000000811015611cae5761200891600182018155611de2565b819291549060031b91821b91600019901b1916179055565b600019811461202f5760010190565b634e487b7160e01b600052601160045260246000fd5b9190820180921161202f57565b1561205957565b60405162461bcd60e51b815260206004820152601160248201527014db1a5c1c1859d948195e18d959591959607a1b6044820152606490fd5b6000926001600160a01b03907f00000000000000000000000000000000000000000000000000000000000000008216906120cd821515611e52565b6120d8341515611ef4565b6120e3851515611f33565b6120ee811515611f89565b6005948554156123135790612102916123bc565b9261210f34600454612045565b60045561211e34600654612045565b60065586156123035761213390871015612052565b6001600160401b03861660070b90604051828152817fb7555d949a897acb395f95e3f2df8b700519404826bb13cd6526b756f6a1c90760203393a3827f000000000000000000000000000000000000000000000000000000000000000016803b156122ff5760405163bb81c87560e01b8152336004820152602481018990529087908290604490829084905af180156122f457916122a79795939160409795936122e1575b506121e4898654612045565b855586519182528560208301527fad91542866f4da9ebed5a2b1713258f4bf970f84e7b2a0b8aab2de28d11ffffd873393a35b84519261222384611c93565b348452602084019342855286810193845260608101898152608082019433865260a083019630885260095489526007602052898920935184555160018401555160028301555160038201558260048201945116936001600160601b0360a01b9485825416179055019251169082541617905533815260086020522060095490611fe6565b6122b2600954612020565b6009556040805134815260208101929092524290820152339060008051602061323983398151915290606090a2565b6122ed90969196611cc4565b94386121d8565b6040513d89823e3d90fd5b8680fd5b5050916122a79391604093612217565b6122a796945060409593925090612335913460045534600655600185556123bc565b9084519261222384611c93565b8181029291811591840414171561202f57565b9190820391821161202f57565b3d1561238d573d9061237382611d7f565b916123816040519384611d5e565b82523d6000602084013e565b606090565b6005549081156123b5576123b2916123a991612342565b60045490611e93565b90565b5050600090565b9081156123c98115611f33565b6123d4821515611f89565b620f424080840293840414171561202f576123b291611e93565b60055480156123b55761095a6123b29260045490612342565b7f00000000000000000000000000000000000000000000000000000000000000006001600160a01b03161561247b576005546000918115612470576124528261095a60045486612342565b916127109081850291858304148515171561202f576123b291611e93565b600092508291508190565b600090600090600090565b600554801561249e576123b290606460065404611e93565b50600090565b7f00000000000000000000000000000000000000000000000000000000000000006001600160a01b03161580156124f8575b6124f357600654156001171561202f5760055415611e9d57600090565b600090565b50600554156124d6565b8060030b906016821461300a5760098214612fb557600a8214612f545760078214612efc57600f8214612e9b5760108214612e3a57601e8214612dec5760228214612d8b57606f8214612d3c5760aa8214612cdb5760ab8214612c895760ae8214612c355760af8214612bd45760be8214612b845760bf8214612b2b5760a88214612aca5760a98214612a695760bd8214612a1b57609b82146129cf57601a821461298557601b821461293b57602682146128e25760409182811461288b576041811461281f5761011781146127c75761014581146127685761014681146127095761014781146126a0576101481461264c57603361260963ffffffff6123b2931661302f565b9251809372554e4b4e4f574e5f4552524f525f434f44455f60681b602083015261263c8151809260208686019101611d9a565b8101036013810184520182611d5e565b5072206d616e79206368696c64207265636f72647360681b81519161267083611d28565b603383527f4d41585f4348494c445f5245434f5244535f4558434545444544202d20546f6f602084015282015290565b50507f6666696369656e742062616c616e636520666f722073746f726167652072656e8151916126cf83611d43565b604183527f494e53554646494349454e545f53544f524147455f52454e54202d20496e73756020840152820152601d60fa1b606082015290565b50507f6e76616c6964207369676e617475726520666f7220707265636f6d70696c650081519161273883611d28565b603f83527f494e56414c49445f505245434f4d50494c455f5349474e4154555245202d2049602084015282015290565b50507f6e74697469657320696e20707269636520726567696d6520726561636865640081519161279783611d28565b603f83527f4d41585f454e5449544945535f43524541544544202d204d6178696d756d2065602084015282015290565b5050751cdd5cc81b9bd9194819d85cc8195e1a185d5cdd195960521b8151916127ef83611d28565b603683527f434f4e53454e5355535f4741535f455848415553544544202d20436f6e73656e602084015282015290565b50507f616e73616374696f6e2068617320746f6f206d616e79206e6573746564206c6181519161284e83611d43565b604483527f5452414e53414354494f4e5f544f4f5f4d414e595f4c4159455253202d2054726020840152820152637965727360e01b606082015290565b5050741bdb88195e18d959591cc81cda5e99481b1a5b5a5d605a1b8151916128b283611d28565b603583527f5452414e53414354494f4e5f4f56455253495a45202d205472616e7361637469602084015282015290565b50506040516128f081611d28565b603581527f494e56414c49445f4b45595f454e434f44494e47202d204b657920656e636f646020820152741a5b99c8199bdc9b585d081a5cc81a5b9d985b1a59605a1b604082015290565b505060405161294981611d28565b602681527f4241445f454e434f44494e47202d204b657920656e636f64696e6720697320696020820152651b9d985b1a5960d21b604082015290565b505060405161299381611d28565b602681527f4b45595f5245515549524544202d205265717569726564206b6579206973206d602082015265697373696e6760d01b604082015290565b50506040516129dd81611d28565b602881527f494e56414c49445f41444d494e5f4b4559202d2041646d696e206b6579206973602082015267081a5b9d985b1a5960c21b604082015290565b5050604051612a2981611d28565b602a81527f494e56414c49445f535550504c595f4b4559202d20537570706c79206b6579206020820152691a5cc81a5b9d985b1a5960b21b604082015290565b5050604051612a7781611d28565b603e81527f494e56414c49445f544f4b454e5f494e495449414c5f535550504c59202d204960208201527f6e697469616c20737570706c792076616c756520697320696e76616c69640000604082015290565b5050604051612ad881611d28565b603881527f494e56414c49445f544f4b454e5f444543494d414c53202d20546f6b656e206460208201527f6563696d616c732076616c756520697320696e76616c69640000000000000000604082015290565b5050604051612b3981611d28565b603581527f544f4b454e5f4e414d455f544f4f5f4c4f4e47202d20546f6b656e206e616d6560208201527408195e18d959591cc81b195b99dd1a081b1a5b5a5d605a1b604082015290565b5050604051612b9281611d28565b602c81527f4d495353494e475f544f4b454e5f4e414d45202d20546f6b656e206e616d652060208201526b1b9bdd081c1c9bdd9a59195960a21b604082015290565b5050604051612be281611d28565b603981527f544f4b454e5f53594d424f4c5f544f4f5f4c4f4e47202d20546f6b656e20737960208201527f6d626f6c2065786365656473206c656e677468206c696d697400000000000000604082015290565b5050604051612c4381611d28565b603081527f4d495353494e475f544f4b454e5f53594d424f4c202d20546f6b656e2073796d60208201526f189bdb081b9bdd081c1c9bdd9a59195960821b604082015290565b5050604051612c9781611d28565b602e81527f494e56414c49445f544f4b454e5f53594d424f4c202d20546f6b656e2073796d60208201526d189bdb081a5cc81a5b9d985b1a5960921b604082015290565b5050604051612ce981611d28565b603d81527f494e56414c49445f54524541535552595f4143434f554e545f464f525f544f4b60208201527f454e202d205472656173757279206163636f756e7420696e76616c6964000000604082015290565b5050604051612d4a81611d28565b602b81527f4d41585f4741535f4c494d49545f4558434545444544202d20476173206c696d60208201526a1a5d08195e18d95959195960aa1b604082015290565b5050604051612d9981611d28565b603881527f434f4e54524143545f455845435554494f4e5f455843455054494f4e202d204360208201527f6f6e747261637420657865637574696f6e206661696c65640000000000000000604082015290565b5050604051612dfa81611d28565b602a81527f494e53554646494349454e545f474153202d204e6f7420656e6f7567682067616020820152691cc81cdd5c1c1b1a595960b21b604082015290565b5050604051612e4881611d28565b603e81527f494e56414c49445f434f4e54524143545f4944202d20436f6e7472616374204960208201527f4420697320696e76616c6964206f7220646f6573206e6f742065786973740000604082015290565b5050604051612ea981611d28565b603c81527f494e56414c49445f4143434f554e545f4944202d204163636f756e742049442060208201527f697320696e76616c6964206f7220646f6573206e6f7420657869737400000000604082015290565b5050604051612f0a81611d28565b603481527f494e56414c49445f5349474e4154555245202d205472616e73616374696f6e206020820152731cda59db985d1d5c99481a5cc81a5b9d985b1a5960621b604082015290565b5050604051612f6281611d28565b604081527f494e53554646494349454e545f50415945525f42414c414e4345202d2050617960208201527f6572206163636f756e742068617320696e73756666696369656e742048424152604082015290565b5050604051612fc381611d28565b603181527f494e53554646494349454e545f54585f464545202d204e6f7420656e6f7567686020820152700819d85ccbd99959481c1c9bdd9a591959607a1b604082015290565b505060405161301881611d0d565b60078152665355434345535360c81b602082015290565b80156130f15780816000925b6130dd575061304982611d7f565b916130576040519384611d5e565b80835281601f1961306783611d7f565b01916020923684870137925b61307d5750505090565b600019830192831161202f5782600a8083049281840291848304148415171561202f576130ad60ff928392612355565b1660300190811161202f578551821015611dfa5760f81b6001600160f81b03191660001a90850183015380613073565b916130e9600a91612020565b92048061303b565b506040516130fe81611d0d565b60018152600360fc1b602082015290565b60ff600254161561311c57565b604051638dfc202b60e01b8152600490fd5b1561313557565b60405162461bcd60e51b81526020600482015260136024820152724e6f204842415220746f20776974686472617760681b6044820152606490fd5b1561317757565b60405162461bcd60e51b815260206004820152600f60248201526e125b9d985b1a59081190d114881251608a1b6044820152606490fd5b90816020910312611c1257518060030b8103611c125790565b600091829160405190602082019263248a35ef60e11b845260018060a01b0380921660248401521660448201526044815261320181611d43565b5190826101675af1613211612362565b9015613230578060208061322a935183010191016131ae565b60030b90565b50601561322a56fe64b83944e79c3ce8d4c297411de637c3e102d064677aac0c163976ebdcd6f50ea2646970667358221220d9022a5abcfd73a1f934b4286c01790c3dc79f53525deb8b81508433472741d964736f6c63430008140033a26469706673582212208b7b197970f1717068e81be5090524f35bd08a5d5b1cec50808901ab11dd067f64736f6c63430008140033","opcodes":"PUSH1 0x80 PUSH1 0x40 DUP2 DUP2 MSTORE CALLVALUE PUSH2 0xAF JUMPI PUSH1 0x1 DUP1 PUSH1 0xA0 SHL SUB NOT PUSH1 0x0 SWAP2 DUP2 DUP4 SLOAD AND DUP4 SSTORE DUP3 DUP1 MSTORE PUSH1 0x1 PUSH1 0x20 MSTORE PUSH1 0x1 DUP2 DUP5 KECCAK256 SSTORE PUSH1 0x1 DUP4 MSTORE PUSH1 0x2 DUP2 DUP5 KECCAK256 SSTORE PUSH1 0x2 DUP4 MSTORE PUSH1 0x4 DUP2 DUP5 KECCAK256 SSTORE PUSH1 0x3 DUP4 MSTORE PUSH1 0x8 DUP2 DUP5 KECCAK256 SSTORE PUSH1 0x4 DUP4 MSTORE PUSH1 0x10 DUP2 DUP5 KECCAK256 SSTORE PUSH1 0x5 DUP4 MSTORE PUSH1 0x20 DUP2 DUP5 KECCAK256 SSTORE PUSH1 0x6 DUP4 MSTORE DUP1 DUP4 KECCAK256 SSTORE CALLER DUP2 PUSH1 0x6 SLOAD AND OR PUSH1 0x6 SSTORE DUP1 PUSH1 0x4 SLOAD AND PUSH1 0x4 SSTORE PUSH1 0x5 SLOAD AND PUSH1 0x5 SSTORE CALLER SWAP1 PUSH32 0x8BE0079C531659141344CD1FD0A4F28419497F9722A3DAAFE3B4186F6B6457E0 DUP2 DUP1 LOG3 PUSH2 0x6002 SWAP1 DUP2 PUSH2 0xB5 DUP3 CODECOPY RETURN JUMPDEST PUSH1 0x0 DUP1 REVERT INVALID PUSH1 0x80 DUP1 PUSH1 0x40 MSTORE PUSH1 0x4 CALLDATASIZE LT ISZERO PUSH3 0x14 JUMPI PUSH1 0x0 DUP1 REVERT JUMPDEST PUSH1 0x0 CALLDATALOAD PUSH1 0xE0 SHR SWAP1 DUP2 PUSH4 0xA5579D1 EQ PUSH3 0x196B JUMPI POP DUP1 PUSH4 0x107A4802 EQ PUSH3 0x1722 JUMPI DUP1 PUSH4 0x1246DBF5 EQ PUSH3 0x192A JUMPI DUP1 PUSH4 0x15DACBEA EQ PUSH3 0x18CA JUMPI DUP1 PUSH4 0x1FE4FF29 EQ PUSH3 0x1761 JUMPI DUP1 PUSH4 0x33049E0E EQ PUSH3 0x1722 JUMPI DUP1 PUSH4 0x41D1DE97 EQ PUSH3 0x16DB JUMPI DUP1 PUSH4 0x53B4FD08 EQ PUSH3 0x12DB JUMPI DUP1 PUSH4 0x618DC65E EQ PUSH3 0x117C JUMPI DUP1 PUSH4 0x772516C3 EQ PUSH3 0xF72 JUMPI DUP1 PUSH4 0x8DA5CB5B EQ PUSH3 0xF47 JUMPI DUP1 PUSH4 0x8EEC5D70 EQ PUSH3 0xF27 JUMPI DUP1 PUSH4 0x9827D473 EQ PUSH3 0xEFC JUMPI DUP1 PUSH4 0x9B23D3D9 EQ PUSH3 0xE41 JUMPI DUP1 PUSH4 0x9CAC984C EQ PUSH3 0xB1D JUMPI DUP1 PUSH4 0xBB81C875 EQ PUSH3 0x831 JUMPI DUP1 PUSH4 0xBC031C52 EQ PUSH3 0x2EB JUMPI DUP1 PUSH4 0xBE591129 EQ PUSH3 0x2A2 JUMPI DUP1 PUSH4 0xD88FF1F4 EQ PUSH3 0x1D2 JUMPI PUSH4 0xF2FDE38B EQ PUSH3 0x110 JUMPI PUSH1 0x0 DUP1 REVERT JUMPDEST CALLVALUE PUSH3 0x1CD JUMPI PUSH1 0x20 CALLDATASIZE PUSH1 0x3 NOT ADD SLT PUSH3 0x1CD JUMPI PUSH3 0x12D PUSH3 0x1991 JUMP JUMPDEST PUSH1 0x6 SLOAD PUSH1 0x1 PUSH1 0x1 PUSH1 0xA0 SHL SUB DUP1 DUP3 AND SWAP3 PUSH3 0x149 CALLER DUP6 EQ PUSH3 0x1B51 JUMP JUMPDEST AND SWAP2 DUP3 ISZERO PUSH3 0x189 JUMPI DUP3 SWAP1 PUSH32 0x8BE0079C531659141344CD1FD0A4F28419497F9722A3DAAFE3B4186F6B6457E0 PUSH1 0x0 DUP1 LOG3 PUSH1 0x1 PUSH1 0x1 PUSH1 0xA0 SHL SUB NOT AND OR PUSH1 0x6 SSTORE STOP JUMPDEST PUSH1 0x64 PUSH1 0x40 MLOAD PUSH3 0x461BCD PUSH1 0xE5 SHL DUP2 MSTORE PUSH1 0x20 PUSH1 0x4 DUP3 ADD MSTORE PUSH1 0x20 PUSH1 0x24 DUP3 ADD MSTORE PUSH32 0x4E6577206F776E65722063616E6E6F74206265207A65726F2061646472657373 PUSH1 0x44 DUP3 ADD MSTORE REVERT JUMPDEST PUSH1 0x0 DUP1 REVERT JUMPDEST CALLVALUE PUSH3 0x1CD JUMPI PUSH1 0x0 CALLDATASIZE PUSH1 0x3 NOT ADD SLT PUSH3 0x1CD JUMPI PUSH1 0x40 MLOAD DUP1 PUSH1 0x3 SLOAD DUP1 DUP4 MSTORE PUSH1 0x20 DUP1 SWAP4 ADD DUP1 SWAP2 PUSH1 0x3 PUSH1 0x0 MSTORE PUSH32 0xC2575A0E9E593C00F959F8C92F12DB2869C3395A3B0502D05E2516446F71F85B SWAP1 PUSH1 0x0 JUMPDEST DUP7 DUP3 DUP3 LT PUSH3 0x284 JUMPI DUP7 DUP7 PUSH3 0x239 DUP3 DUP9 SUB DUP4 PUSH3 0x1AC7 JUMP JUMPDEST PUSH1 0x40 MLOAD SWAP3 DUP4 SWAP3 DUP2 DUP5 ADD SWAP1 DUP3 DUP6 MSTORE MLOAD DUP1 SWAP2 MSTORE PUSH1 0x40 DUP5 ADD SWAP3 SWAP2 PUSH1 0x0 JUMPDEST DUP3 DUP2 LT PUSH3 0x263 JUMPI POP POP POP POP SUB SWAP1 RETURN JUMPDEST DUP4 MLOAD PUSH1 0x1 PUSH1 0x1 PUSH1 0xA0 SHL SUB AND DUP6 MSTORE DUP7 SWAP6 POP SWAP4 DUP2 ADD SWAP4 SWAP3 DUP2 ADD SWAP3 PUSH1 0x1 ADD PUSH3 0x253 JUMP JUMPDEST DUP4 SLOAD PUSH1 0x1 PUSH1 0x1 PUSH1 0xA0 SHL SUB AND DUP6 MSTORE SWAP1 SWAP4 ADD SWAP3 PUSH1 0x1 SWAP3 DUP4 ADD SWAP3 ADD PUSH3 0x220 JUMP JUMPDEST CALLVALUE PUSH3 0x1CD JUMPI PUSH1 0x20 CALLDATASIZE PUSH1 0x3 NOT ADD SLT PUSH3 0x1CD JUMPI PUSH1 0x4 CALLDATALOAD DUP1 PUSH1 0x3 SIGNEXTEND DUP2 SUB PUSH3 0x1CD JUMPI PUSH3 0x2D2 PUSH3 0x2E7 SWAP2 PUSH3 0x1D03 JUMP JUMPDEST PUSH1 0x40 MLOAD SWAP2 DUP3 SWAP2 PUSH1 0x20 DUP4 MSTORE PUSH1 0x20 DUP4 ADD SWAP1 PUSH3 0x1B2A JUMP JUMPDEST SUB SWAP1 RETURN JUMPDEST PUSH1 0x0 CALLDATASIZE PUSH1 0x3 NOT ADD SLT PUSH3 0x1CD JUMPI PUSH3 0x30F PUSH1 0x1 DUP1 PUSH1 0xA0 SHL SUB PUSH1 0x6 SLOAD AND CALLER EQ PUSH3 0x1B51 JUMP JUMPDEST PUSH1 0x5 SLOAD PUSH1 0x1 PUSH1 0x1 PUSH1 0xA0 SHL SUB AND PUSH3 0x7EC JUMPI PUSH3 0x32A PUSH3 0x1BF1 JUMP JUMPDEST PUSH1 0x40 MLOAD PUSH3 0x338 DUP2 PUSH3 0x1A3B JUMP JUMPDEST PUSH1 0xA DUP2 MSTORE PUSH10 0x233ABA3AB9329021A229 PUSH1 0xB1 SHL PUSH1 0x20 DUP3 ADD MSTORE DUP2 MSTORE PUSH1 0x40 MLOAD PUSH3 0x35F DUP2 PUSH3 0x1A3B JUMP JUMPDEST PUSH1 0x4 DUP2 MSTORE PUSH4 0x2321A229 PUSH1 0xE1 SHL PUSH1 0x20 DUP3 ADD MSTORE PUSH1 0x20 DUP3 ADD MSTORE ADDRESS PUSH1 0x40 DUP3 ADD MSTORE PUSH1 0x40 MLOAD PUSH3 0x389 DUP2 PUSH3 0x1A8F JUMP JUMPDEST PUSH1 0x4C DUP2 MSTORE PUSH32 0x4E6F6E2D7472616461626C6520746F6B656E20726570726573656E74696E6720 PUSH1 0x20 DUP3 ADD MSTORE PUSH32 0x656D657267656E63792048424152207769746864726177616C2066726F6D2043 PUSH1 0x40 DUP3 ADD MSTORE PUSH12 0x1B19585C94DADE481C1BDBDB PUSH1 0xA2 SHL PUSH1 0x60 DUP3 ADD MSTORE PUSH1 0x60 DUP3 ADD MSTORE PUSH1 0x40 MLOAD PUSH3 0x401 DUP2 PUSH3 0x1AAB JUMP JUMPDEST PUSH1 0x2 DUP2 MSTORE PUSH1 0x0 JUMPDEST PUSH1 0x40 DUP2 LT PUSH3 0x7D2 JUMPI POP PUSH1 0xE0 DUP3 ADD MSTORE PUSH3 0x43E PUSH3 0x426 ADDRESS PUSH3 0x29DB JUMP JUMPDEST PUSH1 0xE0 DUP4 ADD MLOAD SWAP1 PUSH3 0x437 DUP3 PUSH3 0x1CE4 JUMP JUMPDEST MSTORE PUSH3 0x1CE4 JUMP JUMPDEST POP PUSH3 0x449 PUSH3 0x1CBF JUMP JUMPDEST POP PUSH1 0x3 PUSH1 0x0 MSTORE PUSH1 0x1 PUSH1 0x20 MSTORE PUSH32 0x7DFE757ECD65CBD7922A9C0161E935DD7FDBCC0E999689C7D31633896B1FC60B SLOAD PUSH3 0x4B9 SWAP1 PUSH3 0x485 PUSH3 0x1C82 JUMP JUMPDEST ADDRESS PUSH1 0x20 DUP3 ADD MSTORE PUSH1 0x40 MLOAD SWAP2 PUSH3 0x49A DUP4 PUSH3 0x1A3B JUMP JUMPDEST DUP3 MSTORE PUSH1 0x20 DUP3 ADD MSTORE PUSH1 0xE0 DUP4 ADD MLOAD SWAP1 PUSH3 0x4B2 DUP3 PUSH3 0x1CF2 JUMP JUMPDEST MSTORE PUSH3 0x1CF2 JUMP JUMPDEST POP PUSH2 0x100 DUP2 ADD MLOAD DUP1 MLOAD PUSH1 0x7 SIGNEXTEND ISZERO DUP1 PUSH3 0x7C2 JUMPI JUMPDEST PUSH3 0x7B2 JUMPI JUMPDEST POP PUSH1 0x40 MLOAD PUSH4 0xFB65BF3 PUSH1 0xE0 SHL PUSH1 0x20 DUP3 ADD MSTORE PUSH1 0x60 PUSH1 0x24 DUP3 ADD MSTORE DUP2 MLOAD PUSH2 0x160 PUSH1 0x84 DUP4 ADD MSTORE PUSH3 0x506 SWAP1 PUSH2 0x1E4 DUP4 ADD SWAP1 PUSH3 0x1B2A JUMP JUMPDEST SWAP2 PUSH3 0x551 PUSH3 0x529 PUSH1 0x20 DUP4 ADD MLOAD SWAP5 PUSH1 0x83 NOT SWAP6 DUP7 DUP7 DUP4 SUB ADD PUSH1 0xA4 DUP8 ADD MSTORE PUSH3 0x1B2A JUMP JUMPDEST PUSH1 0x40 DUP4 ADD MLOAD PUSH1 0x1 PUSH1 0x1 PUSH1 0xA0 SHL SUB AND PUSH1 0xC4 DUP6 ADD MSTORE PUSH1 0x60 DUP4 ADD MLOAD DUP5 DUP3 SUB DUP7 ADD PUSH1 0xE4 DUP7 ADD MSTORE PUSH3 0x1B2A JUMP JUMPDEST PUSH1 0x80 DUP3 ADD MLOAD ISZERO ISZERO PUSH2 0x104 DUP5 ADD MSTORE PUSH1 0xA0 DUP3 ADD MLOAD PUSH1 0x7 SIGNEXTEND PUSH2 0x124 DUP5 ADD MSTORE PUSH1 0xC0 DUP3 ADD MLOAD ISZERO ISZERO PUSH2 0x144 DUP5 ADD MSTORE PUSH1 0xE0 DUP3 ADD MLOAD SWAP4 DUP4 DUP3 SUB ADD PUSH2 0x164 DUP5 ADD MSTORE DUP4 MLOAD DUP1 DUP3 MSTORE PUSH1 0x20 DUP3 ADD SWAP2 PUSH1 0x20 DUP1 DUP4 PUSH1 0x5 SHL DUP4 ADD ADD SWAP7 ADD SWAP3 PUSH1 0x0 SWAP2 JUMPDEST DUP4 DUP4 LT PUSH3 0x71D JUMPI PUSH1 0x0 DUP1 DUP9 PUSH3 0x602 DUP2 DUP13 PUSH1 0x40 PUSH2 0x100 DUP14 ADD MLOAD DUP1 MLOAD PUSH1 0x7 SIGNEXTEND PUSH2 0x184 DUP6 ADD MSTORE PUSH1 0x1 DUP1 PUSH1 0xA0 SHL SUB PUSH1 0x20 DUP3 ADD MLOAD AND PUSH2 0x1A4 DUP6 ADD MSTORE ADD MLOAD PUSH1 0x7 SIGNEXTEND PUSH2 0x1C4 DUP4 ADD MSTORE DUP5 PUSH1 0x44 DUP4 ADD MSTORE DUP5 PUSH1 0x64 DUP4 ADD MSTORE SUB PUSH1 0x1F NOT DUP2 ADD DUP4 MSTORE DUP3 PUSH3 0x1AC7 JUMP JUMPDEST PUSH1 0x20 DUP2 MLOAD SWAP2 ADD CALLVALUE PUSH2 0x167 GAS CALL PUSH3 0x618 PUSH3 0x2988 JUMP JUMPDEST SWAP1 ISZERO PUSH3 0x712 JUMPI PUSH1 0x40 DUP2 DUP1 MLOAD DUP2 ADD SUB SLT PUSH3 0x1CD JUMPI PUSH1 0x40 PUSH3 0x63D PUSH1 0x20 DUP4 ADD PUSH3 0x29BD JUMP JUMPDEST SWAP2 ADD MLOAD PUSH1 0x1 PUSH1 0x1 PUSH1 0xA0 SHL SUB DUP2 AND SWAP2 SWAP1 DUP3 SWAP1 SUB PUSH3 0x1CD JUMPI PUSH1 0x3 SIGNEXTEND JUMPDEST PUSH1 0x3 SIGNEXTEND PUSH1 0x16 DUP2 SUB PUSH3 0x687 JUMPI POP PUSH1 0x5 DUP1 SLOAD PUSH1 0x1 PUSH1 0x1 PUSH1 0xA0 SHL SUB NOT AND PUSH1 0x1 PUSH1 0x1 PUSH1 0xA0 SHL SUB SWAP3 SWAP1 SWAP3 AND SWAP2 SWAP1 SWAP2 OR SWAP1 SSTORE STOP JUMPDEST PUSH3 0x696 PUSH3 0x70E SWAP2 PUSH3 0x1D03 JUMP JUMPDEST PUSH3 0x6ED PUSH1 0x3C PUSH1 0x40 MLOAD DUP1 SWAP4 PUSH32 0x4643445220746F6B656E206372656174696F6E206661696C65643A2000000000 PUSH1 0x20 DUP4 ADD MSTORE PUSH3 0x6DC DUP2 MLOAD DUP1 SWAP3 PUSH1 0x20 DUP7 DUP7 ADD SWAP2 ADD PUSH3 0x1B05 JUMP JUMPDEST DUP2 ADD SUB PUSH1 0x1C DUP2 ADD DUP5 MSTORE ADD DUP3 PUSH3 0x1AC7 JUMP JUMPDEST PUSH1 0x40 MLOAD PUSH3 0x461BCD PUSH1 0xE5 SHL DUP2 MSTORE PUSH1 0x20 PUSH1 0x4 DUP3 ADD MSTORE SWAP2 DUP3 SWAP2 PUSH1 0x24 DUP4 ADD SWAP1 PUSH3 0x1B2A JUMP JUMPDEST SUB SWAP1 REVERT JUMPDEST POP PUSH1 0x0 PUSH1 0x15 PUSH3 0x658 JUMP JUMPDEST SWAP1 SWAP2 SWAP3 SWAP4 SWAP7 PUSH1 0x20 DUP1 PUSH1 0x1 SWAP3 PUSH1 0x1F NOT DUP6 DUP3 SUB ADD DUP7 MSTORE DUP2 DUP12 MLOAD DUP1 MLOAD DUP4 MSTORE ADD MLOAD SWAP1 PUSH1 0x40 DUP4 DUP3 ADD MSTORE DUP2 MLOAD ISZERO ISZERO PUSH1 0x40 DUP3 ADD MSTORE DUP5 DUP1 PUSH1 0xA0 SHL SUB DUP4 DUP4 ADD MLOAD AND PUSH1 0x60 DUP3 ADD MSTORE PUSH1 0xC0 PUSH3 0x792 PUSH3 0x77B PUSH1 0x40 DUP6 ADD MLOAD PUSH1 0xA0 PUSH1 0x80 DUP7 ADD MSTORE PUSH1 0xE0 DUP6 ADD SWAP1 PUSH3 0x1B2A JUMP JUMPDEST PUSH1 0x60 DUP6 ADD MLOAD DUP5 DUP3 SUB PUSH1 0x3F NOT ADD PUSH1 0xA0 DUP7 ADD MSTORE PUSH3 0x1B2A JUMP JUMPDEST SWAP3 PUSH1 0x80 DUP8 DUP1 PUSH1 0xA0 SHL SUB SWAP2 ADD MLOAD AND SWAP2 ADD MSTORE SWAP10 ADD SWAP4 ADD SWAP4 ADD SWAP2 SWAP4 SWAP3 SWAP1 PUSH3 0x5A4 JUMP JUMPDEST PUSH1 0x40 PUSH3 0x76A700 SWAP2 ADD MSTORE DUP2 PUSH3 0x4D3 JUMP JUMPDEST POP PUSH1 0x40 DUP2 ADD MLOAD PUSH1 0x7 SIGNEXTEND ISZERO PUSH3 0x4CD JUMP JUMPDEST PUSH1 0x20 SWAP1 PUSH3 0x7DF PUSH3 0x1CBF JUMP JUMPDEST DUP3 DUP3 DUP6 ADD ADD MSTORE ADD PUSH3 0x408 JUMP JUMPDEST PUSH1 0x40 MLOAD PUSH3 0x461BCD PUSH1 0xE5 SHL DUP2 MSTORE PUSH1 0x20 PUSH1 0x4 DUP3 ADD MSTORE PUSH1 0x1A PUSH1 0x24 DUP3 ADD MSTORE PUSH32 0x4643445220746F6B656E20616C72656164792063726561746564000000000000 PUSH1 0x44 DUP3 ADD MSTORE PUSH1 0x64 SWAP1 REVERT JUMPDEST CALLVALUE PUSH3 0x1CD JUMPI PUSH1 0x40 CALLDATASIZE PUSH1 0x3 NOT ADD SLT PUSH3 0x1CD JUMPI PUSH3 0x84E PUSH3 0x1991 JUMP JUMPDEST PUSH1 0x6 SLOAD PUSH1 0x1 PUSH1 0x1 PUSH1 0xA0 SHL SUB SWAP1 PUSH3 0x869 SWAP1 DUP3 AND CALLER EQ PUSH3 0x1B51 JUMP JUMPDEST DUP1 PUSH1 0x4 SLOAD AND SWAP1 PUSH3 0x87C DUP3 ISZERO ISZERO PUSH3 0x1B93 JUMP JUMPDEST PUSH1 0x1 PUSH1 0x1 PUSH1 0x40 SHL SUB SWAP3 DUP4 PUSH1 0x24 CALLDATALOAD AND PUSH1 0x7 SIGNEXTEND PUSH1 0x40 MLOAD SWAP5 PUSH3 0x89C DUP7 PUSH3 0x1A57 JUMP JUMPDEST PUSH1 0x0 DUP7 MSTORE PUSH1 0x40 MLOAD PUSH1 0x20 SWAP7 DUP8 DUP3 ADD SWAP7 PUSH4 0x707A02CD PUSH1 0xE1 SHL DUP9 MSTORE PUSH1 0x84 DUP4 ADD SWAP1 PUSH1 0x24 DUP5 ADD MSTORE DUP5 PUSH1 0x44 DUP5 ADD MSTORE PUSH1 0x60 PUSH1 0x64 DUP5 ADD MSTORE DUP2 MLOAD DUP1 SWAP2 MSTORE PUSH1 0xA4 DUP4 ADD SWAP1 DUP10 PUSH1 0xA4 DUP3 PUSH1 0x5 SHL DUP7 ADD ADD SWAP4 ADD SWAP2 PUSH1 0x0 SWAP1 JUMPDEST DUP12 DUP4 DUP4 LT PUSH3 0xAF1 JUMPI POP POP POP POP POP DUP2 PUSH3 0x90D PUSH1 0x0 SWAP4 DUP5 SWAP4 SUB PUSH1 0x1F NOT DUP2 ADD DUP4 MSTORE DUP3 PUSH3 0x1AC7 JUMP JUMPDEST MLOAD PUSH2 0x167 SWAP8 DUP3 DUP10 GAS CALL SWAP1 PUSH3 0x921 PUSH3 0x2988 JUMP JUMPDEST SWAP2 ISZERO PUSH3 0xAD4 JUMPI DUP2 MLOAD DUP3 ADD SWAP1 PUSH1 0x60 DUP4 DUP10 DUP5 ADD SWAP4 SUB SLT PUSH3 0x1CD JUMPI PUSH3 0x948 DUP9 DUP5 ADD PUSH3 0x29BD JUMP JUMPDEST SWAP3 PUSH3 0x957 PUSH1 0x40 DUP3 ADD PUSH3 0x29CC JUMP JUMPDEST POP PUSH1 0x60 DUP2 ADD MLOAD SWAP2 DUP3 GT PUSH3 0x1CD JUMPI ADD DUP2 PUSH1 0x3F DUP3 ADD SLT ISZERO PUSH3 0x1CD JUMPI DUP8 DUP2 ADD MLOAD PUSH1 0x40 DUP10 PUSH3 0x984 DUP4 PUSH3 0x1BD9 JUMP JUMPDEST PUSH3 0x992 DUP4 MLOAD SWAP2 DUP3 PUSH3 0x1AC7 JUMP JUMPDEST DUP4 DUP2 MSTORE ADD SWAP2 PUSH1 0x5 SHL DUP4 ADD ADD SWAP3 DUP4 GT PUSH3 0x1CD JUMPI PUSH1 0x40 DUP10 SWAP3 ADD SWAP1 JUMPDEST DUP4 DUP3 LT PUSH3 0xABA JUMPI POP POP POP POP PUSH1 0x16 SWAP1 JUMPDEST PUSH1 0x3 SIGNEXTEND SUB PUSH3 0xA87 JUMPI SWAP2 PUSH1 0x0 DUP1 SWAP5 SWAP3 DUP2 SWAP5 DUP4 PUSH1 0x4 SLOAD AND SWAP4 PUSH1 0x40 MLOAD SWAP3 DUP10 DUP5 ADD SWAP6 PUSH4 0xECA36917 PUSH1 0xE0 SHL DUP8 MSTORE PUSH1 0x24 DUP6 ADD MSTORE ADDRESS PUSH1 0x44 DUP6 ADD MSTORE AND PUSH1 0x64 DUP4 ADD MSTORE PUSH1 0x84 DUP3 ADD MSTORE PUSH1 0x84 DUP2 MSTORE PUSH3 0xA0A DUP2 PUSH3 0x1A73 JUMP JUMPDEST MLOAD SWAP3 GAS CALL PUSH3 0xA18 PUSH3 0x2988 JUMP JUMPDEST SWAP1 ISZERO PUSH3 0xA7C JUMPI DUP2 DUP2 DUP1 MLOAD DUP2 ADD SUB SLT PUSH3 0x1CD JUMPI PUSH3 0xA3B DUP3 PUSH1 0x16 SWAP3 ADD PUSH3 0x29BD JUMP JUMPDEST PUSH1 0x3 SIGNEXTEND SUB PUSH3 0xA46 JUMPI STOP JUMPDEST PUSH1 0x64 SWAP1 PUSH1 0x40 MLOAD SWAP1 PUSH3 0x461BCD PUSH1 0xE5 SHL DUP3 MSTORE PUSH1 0x4 DUP3 ADD MSTORE PUSH1 0xF PUSH1 0x24 DUP3 ADD MSTORE PUSH15 0x151C985B9CD9995C8819985A5B1959 PUSH1 0x8A SHL PUSH1 0x44 DUP3 ADD MSTORE REVERT JUMPDEST POP PUSH1 0x16 PUSH1 0x15 PUSH3 0xA3B JUMP JUMPDEST PUSH1 0x40 MLOAD PUSH3 0x461BCD PUSH1 0xE5 SHL DUP2 MSTORE PUSH1 0x4 DUP2 ADD DUP7 SWAP1 MSTORE PUSH1 0xB PUSH1 0x24 DUP3 ADD MSTORE PUSH11 0x135A5B9D0819985A5B1959 PUSH1 0xAA SHL PUSH1 0x44 DUP3 ADD MSTORE PUSH1 0x64 SWAP1 REVERT JUMPDEST DUP3 DUP1 SWAP2 PUSH3 0xAC8 DUP5 PUSH3 0x29CC JUMP JUMPDEST DUP2 MSTORE ADD SWAP2 ADD SWAP1 PUSH3 0x9AC JUMP JUMPDEST POP POP PUSH1 0x0 PUSH1 0x40 MLOAD PUSH3 0xAE6 DUP2 PUSH3 0x1A57 JUMP JUMPDEST MSTORE PUSH1 0x16 PUSH1 0x15 PUSH3 0x9BC JUMP JUMPDEST DUP1 PUSH3 0xB0E PUSH1 0x1 SWAP4 SWAP5 SWAP6 SWAP7 SWAP8 PUSH1 0xA3 NOT DUP11 DUP3 SUB ADD DUP7 MSTORE DUP9 MLOAD PUSH3 0x1B2A JUMP JUMPDEST SWAP7 ADD SWAP3 ADD SWAP3 ADD SWAP1 SWAP3 SWAP2 PUSH3 0x8E6 JUMP JUMPDEST CALLVALUE PUSH3 0x1CD JUMPI PUSH1 0x20 DUP1 PUSH1 0x3 NOT CALLDATASIZE ADD SLT PUSH3 0x1CD JUMPI PUSH3 0xB3B PUSH3 0x1991 JUMP JUMPDEST PUSH1 0x6 SLOAD PUSH1 0x1 PUSH1 0x1 PUSH1 0xA0 SHL SUB SWAP1 PUSH3 0xB56 SWAP1 DUP3 AND CALLER EQ PUSH3 0x1B51 JUMP JUMPDEST DUP1 PUSH1 0x5 SLOAD AND SWAP2 DUP3 ISZERO PUSH3 0xE03 JUMPI PUSH1 0x40 MLOAD SWAP3 PUSH3 0xB72 DUP5 PUSH3 0x1A57 JUMP JUMPDEST PUSH1 0x0 DUP5 MSTORE PUSH1 0x40 MLOAD DUP6 DUP2 ADD SWAP5 PUSH4 0x707A02CD PUSH1 0xE1 SHL DUP7 MSTORE PUSH1 0x84 DUP3 ADD SWAP3 PUSH1 0x24 DUP4 ADD MSTORE PUSH1 0x1 SWAP3 DUP4 PUSH1 0x44 DUP5 ADD MSTORE PUSH1 0x60 PUSH1 0x64 DUP5 ADD MSTORE DUP2 MLOAD DUP1 SWAP2 MSTORE PUSH1 0xA4 DUP4 ADD SWAP1 DUP9 PUSH1 0xA4 DUP3 PUSH1 0x5 SHL DUP7 ADD ADD SWAP4 ADD SWAP2 PUSH1 0x0 SWAP1 JUMPDEST DUP7 DUP12 DUP5 DUP5 LT PUSH3 0xDD8 JUMPI POP POP POP POP POP POP DUP2 PUSH3 0xBE5 PUSH1 0x0 SWAP4 DUP5 SWAP4 SUB PUSH1 0x1F NOT DUP2 ADD DUP4 MSTORE DUP3 PUSH3 0x1AC7 JUMP JUMPDEST MLOAD PUSH2 0x167 SWAP7 DUP3 DUP9 GAS CALL PUSH3 0xBF8 PUSH3 0x2988 JUMP JUMPDEST SWAP1 ISZERO PUSH3 0xDBC JUMPI DUP1 MLOAD DUP2 ADD PUSH1 0x60 DUP3 DUP9 DUP4 ADD SWAP3 SUB SLT PUSH3 0x1CD JUMPI PUSH3 0xC1E DUP8 DUP4 ADD PUSH3 0x29BD JUMP JUMPDEST SWAP2 PUSH3 0xC2D PUSH1 0x40 DUP3 ADD PUSH3 0x29CC JUMP JUMPDEST POP PUSH1 0x60 DUP2 ADD MLOAD SWAP1 PUSH1 0x1 PUSH1 0x1 PUSH1 0x40 SHL SUB DUP3 GT PUSH3 0x1CD JUMPI ADD DUP2 PUSH1 0x3F DUP3 ADD SLT ISZERO PUSH3 0x1CD JUMPI DUP8 DUP2 ADD MLOAD PUSH1 0x40 DUP10 PUSH3 0xC62 DUP4 PUSH3 0x1BD9 JUMP JUMPDEST PUSH3 0xC70 DUP4 MLOAD SWAP2 DUP3 PUSH3 0x1AC7 JUMP JUMPDEST DUP4 DUP2 MSTORE ADD SWAP2 PUSH1 0x5 SHL DUP4 ADD ADD SWAP3 DUP4 GT PUSH3 0x1CD JUMPI PUSH1 0x40 DUP10 SWAP3 ADD SWAP1 JUMPDEST DUP4 DUP3 LT PUSH3 0xDA2 JUMPI POP POP POP POP PUSH1 0x16 SWAP1 JUMPDEST PUSH1 0x3 SIGNEXTEND SUB PUSH3 0xD6A JUMPI SWAP2 PUSH1 0x0 DUP1 SWAP5 SWAP3 DUP2 SWAP5 DUP4 PUSH1 0x5 SLOAD AND SWAP4 PUSH1 0x40 MLOAD SWAP3 DUP10 DUP5 ADD SWAP6 PUSH4 0xECA36917 PUSH1 0xE0 SHL DUP8 MSTORE PUSH1 0x24 DUP6 ADD MSTORE ADDRESS PUSH1 0x44 DUP6 ADD MSTORE AND PUSH1 0x64 DUP4 ADD MSTORE PUSH1 0x84 DUP3 ADD MSTORE PUSH1 0x84 DUP2 MSTORE PUSH3 0xCE8 DUP2 PUSH3 0x1A73 JUMP JUMPDEST MLOAD SWAP3 GAS CALL PUSH3 0xCF6 PUSH3 0x2988 JUMP JUMPDEST SWAP1 ISZERO PUSH3 0xD5F JUMPI DUP2 DUP2 DUP1 MLOAD DUP2 ADD SUB SLT PUSH3 0x1CD JUMPI PUSH3 0xD19 DUP3 PUSH1 0x16 SWAP3 ADD PUSH3 0x29BD JUMP JUMPDEST PUSH1 0x3 SIGNEXTEND SUB PUSH3 0xD24 JUMPI STOP JUMPDEST PUSH1 0x64 SWAP1 PUSH1 0x40 MLOAD SWAP1 PUSH3 0x461BCD PUSH1 0xE5 SHL DUP3 MSTORE PUSH1 0x4 DUP3 ADD MSTORE PUSH1 0x14 PUSH1 0x24 DUP3 ADD MSTORE PUSH20 0x1190D114881D1C985B9CD9995C8819985A5B1959 PUSH1 0x62 SHL PUSH1 0x44 DUP3 ADD MSTORE REVERT JUMPDEST POP PUSH1 0x16 PUSH1 0x15 PUSH3 0xD19 JUMP JUMPDEST PUSH1 0x40 MLOAD PUSH3 0x461BCD PUSH1 0xE5 SHL DUP2 MSTORE PUSH1 0x4 DUP2 ADD DUP7 SWAP1 MSTORE PUSH1 0x10 PUSH1 0x24 DUP3 ADD MSTORE PUSH16 0x1190D114881B5A5B9D0819985A5B1959 PUSH1 0x82 SHL PUSH1 0x44 DUP3 ADD MSTORE PUSH1 0x64 SWAP1 REVERT JUMPDEST DUP3 DUP1 SWAP2 PUSH3 0xDB0 DUP5 PUSH3 0x29CC JUMP JUMPDEST DUP2 MSTORE ADD SWAP2 ADD SWAP1 PUSH3 0xC8A JUMP JUMPDEST POP PUSH1 0x0 PUSH1 0x40 MLOAD PUSH3 0xDCD DUP2 PUSH3 0x1A57 JUMP JUMPDEST MSTORE PUSH1 0x16 PUSH1 0x15 PUSH3 0xC9A JUMP JUMPDEST PUSH3 0xDF4 DUP2 SWAP3 SWAP4 SWAP5 SWAP6 SWAP7 SWAP8 PUSH1 0xA3 NOT DUP11 DUP3 SUB ADD DUP7 MSTORE DUP9 MLOAD PUSH3 0x1B2A JUMP JUMPDEST SWAP7 ADD SWAP3 ADD SWAP3 ADD SWAP1 SWAP3 SWAP2 PUSH3 0xBBC JUMP JUMPDEST PUSH1 0x40 MLOAD PUSH3 0x461BCD PUSH1 0xE5 SHL DUP2 MSTORE PUSH1 0x4 DUP2 ADD DUP6 SWAP1 MSTORE PUSH1 0x16 PUSH1 0x24 DUP3 ADD MSTORE PUSH22 0x1190D114881D1BDAD95B881B9BDD0818DC99585D1959 PUSH1 0x52 SHL PUSH1 0x44 DUP3 ADD MSTORE PUSH1 0x64 SWAP1 REVERT JUMPDEST CALLVALUE PUSH3 0x1CD JUMPI PUSH1 0x0 DUP1 PUSH3 0xEB0 PUSH3 0xEA1 PUSH3 0xE5D CALLDATASIZE PUSH3 0x19A8 JUMP JUMPDEST PUSH1 0x40 MLOAD PUSH4 0x9B23D3D9 PUSH1 0xE0 SHL PUSH1 0x20 DUP3 ADD SWAP1 DUP2 MSTORE PUSH1 0x1 PUSH1 0x1 PUSH1 0xA0 SHL SUB SWAP6 DUP7 AND PUSH1 0x24 DUP4 ADD MSTORE SWAP4 DUP6 AND PUSH1 0x44 DUP3 ADD MSTORE SWAP4 SWAP1 SWAP2 AND PUSH1 0x64 DUP5 ADD MSTORE PUSH1 0x84 DUP4 ADD MSTORE SWAP3 SWAP1 SWAP2 DUP3 SWAP1 PUSH1 0xA4 DUP3 ADD SWAP1 JUMP JUMPDEST SUB PUSH1 0x1F NOT DUP2 ADD DUP4 MSTORE DUP3 PUSH3 0x1AC7 JUMP JUMPDEST MLOAD SWAP1 DUP3 PUSH2 0x167 GAS CALL PUSH3 0xEC2 PUSH3 0x2988 JUMP JUMPDEST SWAP1 ISZERO PUSH3 0xEF1 JUMPI PUSH1 0x20 DUP2 DUP1 MLOAD DUP2 ADD SUB SLT PUSH3 0x1CD JUMPI PUSH3 0xEE6 PUSH1 0x20 DUP1 SWAP3 ADD PUSH3 0x29BD JUMP JUMPDEST PUSH1 0x40 MLOAD SWAP1 PUSH1 0x3 SIGNEXTEND DUP2 MSTORE RETURN JUMPDEST POP PUSH1 0x20 PUSH1 0x15 PUSH3 0xEE6 JUMP JUMPDEST CALLVALUE PUSH3 0x1CD JUMPI PUSH1 0x0 CALLDATASIZE PUSH1 0x3 NOT ADD SLT PUSH3 0x1CD JUMPI PUSH1 0x4 SLOAD PUSH1 0x40 MLOAD PUSH1 0x1 PUSH1 0x1 PUSH1 0xA0 SHL SUB SWAP1 SWAP2 AND DUP2 MSTORE PUSH1 0x20 SWAP1 RETURN JUMPDEST CALLVALUE PUSH3 0x1CD JUMPI PUSH1 0x0 CALLDATASIZE PUSH1 0x3 NOT ADD SLT PUSH3 0x1CD JUMPI PUSH1 0x20 PUSH1 0x3 SLOAD PUSH1 0x40 MLOAD SWAP1 DUP2 MSTORE RETURN JUMPDEST CALLVALUE PUSH3 0x1CD JUMPI PUSH1 0x0 CALLDATASIZE PUSH1 0x3 NOT ADD SLT PUSH3 0x1CD JUMPI PUSH1 0x6 SLOAD PUSH1 0x40 MLOAD PUSH1 0x1 PUSH1 0x1 PUSH1 0xA0 SHL SUB SWAP1 SWAP2 AND DUP2 MSTORE PUSH1 0x20 SWAP1 RETURN JUMPDEST CALLVALUE PUSH3 0x1CD JUMPI PUSH1 0x20 DUP1 PUSH1 0x3 NOT CALLDATASIZE ADD SLT PUSH3 0x1CD JUMPI PUSH3 0xF90 PUSH3 0x1991 JUMP JUMPDEST PUSH1 0x6 SLOAD PUSH1 0x1 PUSH1 0x1 PUSH1 0xA0 SHL SUB SWAP2 DUP3 SWAP2 PUSH3 0xFAD SWAP1 DUP4 AND CALLER EQ PUSH3 0x1B51 JUMP JUMPDEST AND DUP1 ISZERO PUSH3 0x1140 JUMPI DUP1 PUSH1 0x0 MSTORE PUSH1 0x2 DUP4 MSTORE DUP2 PUSH1 0x40 PUSH1 0x0 KECCAK256 SLOAD AND PUSH3 0x10FB JUMPI DUP2 PUSH1 0x4 SLOAD AND DUP3 PUSH1 0x5 SLOAD AND SWAP1 PUSH1 0x40 MLOAD SWAP2 PUSH2 0x3586 SWAP1 DUP2 DUP5 ADD SWAP1 DUP5 DUP3 LT PUSH1 0x1 PUSH1 0x1 PUSH1 0x40 SHL SUB DUP4 GT OR PUSH3 0x10D9 JUMPI PUSH1 0x80 SWAP4 DUP6 SWAP4 PUSH3 0x2A47 DUP6 CODECOPY ADDRESS DUP4 MSTORE DUP7 DUP10 DUP5 ADD MSTORE PUSH1 0x40 DUP4 ADD MSTORE PUSH1 0x60 DUP3 ADD MSTORE SUB ADD SWAP1 PUSH1 0x0 CREATE DUP1 ISZERO PUSH3 0x10EF JUMPI DUP3 AND SWAP2 DUP2 PUSH1 0x0 MSTORE PUSH1 0x2 DUP5 MSTORE PUSH1 0x40 PUSH1 0x0 KECCAK256 DUP4 PUSH12 0xFFFFFFFFFFFFFFFFFFFFFFFF PUSH1 0xA0 SHL DUP3 SLOAD AND OR SWAP1 SSTORE PUSH1 0x3 SLOAD PUSH9 0x10000000000000000 DUP2 LT ISZERO PUSH3 0x10D9 JUMPI DUP1 PUSH1 0x1 PUSH3 0x106C SWAP3 ADD PUSH1 0x3 SSTORE PUSH3 0x19ED JUMP JUMPDEST DUP2 SWAP3 SWAP2 SLOAD SWAP1 PUSH1 0x3 SHL SWAP2 DUP6 DUP4 SHL SWAP3 SHL NOT AND OR SWAP1 SSTORE PUSH1 0x3 SLOAD SWAP1 PUSH1 0x0 NOT DUP3 ADD SWAP2 DUP3 GT PUSH3 0x10C3 JUMPI PUSH32 0xF8A0462F666B427EA753848BE7E91F9CE413975906F6F39950BE296CA9A4D524 DUP5 DUP5 SWAP4 PUSH1 0x40 MLOAD SWAP1 DUP2 MSTORE LOG3 PUSH1 0x40 MLOAD SWAP1 DUP2 MSTORE RETURN JUMPDEST PUSH4 0x4E487B71 PUSH1 0xE0 SHL PUSH1 0x0 MSTORE PUSH1 0x11 PUSH1 0x4 MSTORE PUSH1 0x24 PUSH1 0x0 REVERT JUMPDEST PUSH4 0x4E487B71 PUSH1 0xE0 SHL PUSH1 0x0 MSTORE PUSH1 0x41 PUSH1 0x4 MSTORE PUSH1 0x24 PUSH1 0x0 REVERT JUMPDEST PUSH1 0x40 MLOAD RETURNDATASIZE PUSH1 0x0 DUP3 RETURNDATACOPY RETURNDATASIZE SWAP1 REVERT JUMPDEST PUSH1 0x40 MLOAD PUSH3 0x461BCD PUSH1 0xE5 SHL DUP2 MSTORE PUSH1 0x4 DUP2 ADD DUP5 SWAP1 MSTORE PUSH1 0x1C PUSH1 0x24 DUP3 ADD MSTORE PUSH32 0x506F6F6C20616C72656164792065786973747320666F72207573657200000000 PUSH1 0x44 DUP3 ADD MSTORE PUSH1 0x64 SWAP1 REVERT JUMPDEST PUSH1 0x40 MLOAD PUSH3 0x461BCD PUSH1 0xE5 SHL DUP2 MSTORE PUSH1 0x4 DUP2 ADD DUP5 SWAP1 MSTORE PUSH1 0x14 PUSH1 0x24 DUP3 ADD MSTORE PUSH20 0x496E76616C696420757365722061646472657373 PUSH1 0x60 SHL PUSH1 0x44 DUP3 ADD MSTORE PUSH1 0x64 SWAP1 REVERT JUMPDEST CALLVALUE PUSH3 0x1CD JUMPI PUSH1 0x40 CALLDATASIZE PUSH1 0x3 NOT ADD SLT PUSH3 0x1CD JUMPI PUSH3 0x1199 PUSH3 0x1991 JUMP JUMPDEST PUSH1 0x24 CALLDATALOAD SWAP1 PUSH1 0x1 PUSH1 0x1 PUSH1 0x40 SHL SUB DUP3 GT PUSH3 0x1CD JUMPI CALLDATASIZE PUSH1 0x23 DUP4 ADD SLT ISZERO PUSH3 0x1CD JUMPI DUP2 PUSH1 0x4 ADD CALLDATALOAD SWAP1 PUSH3 0x11C9 DUP3 PUSH3 0x1AE9 JUMP JUMPDEST SWAP2 PUSH3 0x11D9 PUSH1 0x40 MLOAD SWAP4 DUP5 PUSH3 0x1AC7 JUMP JUMPDEST DUP1 DUP4 MSTORE CALLDATASIZE PUSH1 0x24 DUP3 DUP7 ADD ADD GT PUSH3 0x1CD JUMPI PUSH3 0x1240 PUSH1 0x0 SWAP5 SWAP4 DUP6 PUSH1 0x20 DUP5 PUSH3 0xEA1 SWAP6 PUSH1 0x24 DUP5 SWAP10 ADD DUP4 DUP7 ADD CALLDATACOPY DUP4 ADD ADD MSTORE PUSH1 0x40 DUP1 MLOAD PUSH4 0x30C6E32F PUSH1 0xE1 SHL PUSH1 0x20 DUP3 ADD SWAP1 DUP2 MSTORE PUSH1 0x1 PUSH1 0x1 PUSH1 0xA0 SHL SUB SWAP1 SWAP7 AND PUSH1 0x24 DUP3 ADD MSTORE PUSH1 0x44 DUP2 ADD SWAP2 SWAP1 SWAP2 MSTORE SWAP3 DUP4 SWAP2 PUSH1 0x64 DUP4 ADD SWAP1 PUSH3 0x1B2A JUMP JUMPDEST MLOAD SWAP1 DUP3 PUSH2 0x167 GAS CALL PUSH3 0x1252 PUSH3 0x2988 JUMP JUMPDEST SWAP1 PUSH32 0x4AF4780E06FE8CB9DF64B0794FA6F01399AF979175BB988E35E0E57E594567BC PUSH1 0x40 MLOAD DUP3 ISZERO ISZERO DUP2 MSTORE PUSH1 0x40 PUSH1 0x20 DUP3 ADD MSTORE DUP1 PUSH3 0x1293 PUSH1 0x40 DUP3 ADD DUP7 PUSH3 0x1B2A JUMP JUMPDEST SUB SWAP1 LOG1 ISZERO PUSH3 0x12C0 JUMPI PUSH1 0x16 JUMPDEST PUSH3 0x2E7 PUSH1 0x40 MLOAD SWAP3 DUP4 SWAP3 PUSH1 0x3 SIGNEXTEND DUP4 MSTORE PUSH1 0x40 PUSH1 0x20 DUP5 ADD MSTORE PUSH1 0x40 DUP4 ADD SWAP1 PUSH3 0x1B2A JUMP JUMPDEST POP PUSH1 0x40 MLOAD PUSH3 0x12CF DUP2 PUSH3 0x1A57 JUMP JUMPDEST PUSH1 0x0 DUP2 MSTORE PUSH1 0x15 PUSH3 0x129F JUMP JUMPDEST PUSH1 0x0 CALLDATASIZE PUSH1 0x3 NOT ADD SLT PUSH3 0x1CD JUMPI PUSH3 0x12FF PUSH1 0x1 DUP1 PUSH1 0xA0 SHL SUB PUSH1 0x6 SLOAD AND CALLER EQ PUSH3 0x1B51 JUMP JUMPDEST PUSH1 0x4 SLOAD PUSH1 0x1 PUSH1 0x1 PUSH1 0xA0 SHL SUB AND PUSH3 0x1696 JUMPI PUSH3 0x131A PUSH3 0x1BF1 JUMP JUMPDEST PUSH1 0x40 MLOAD PUSH3 0x1328 DUP2 PUSH3 0x1A3B JUMP JUMPDEST PUSH1 0x11 DUP2 MSTORE PUSH17 0x21B632B0B929B5BC902628102A37B5B2B7 PUSH1 0x79 SHL PUSH1 0x20 DUP3 ADD MSTORE DUP2 MSTORE PUSH1 0x20 DUP2 ADD SWAP1 PUSH1 0x40 MLOAD PUSH3 0x135B DUP2 PUSH3 0x1A3B JUMP JUMPDEST PUSH1 0x4 DUP2 MSTORE PUSH4 0x43534C5 PUSH1 0xE4 SHL PUSH1 0x20 DUP3 ADD MSTORE DUP3 MSTORE PUSH1 0x40 DUP2 ADD SWAP1 ADDRESS DUP3 MSTORE PUSH1 0x40 MLOAD PUSH3 0x1384 DUP2 PUSH3 0x1A3B JUMP JUMPDEST PUSH1 0x1 DUP2 MSTORE PUSH1 0x0 JUMPDEST PUSH1 0x20 DUP2 LT PUSH3 0x167C JUMPI POP PUSH1 0xE0 DUP3 ADD SWAP1 DUP2 MSTORE PUSH3 0x13B9 PUSH3 0x13AB ADDRESS PUSH3 0x29DB JUMP JUMPDEST DUP3 MLOAD SWAP1 PUSH3 0x437 DUP3 PUSH3 0x1CE4 JUMP JUMPDEST POP PUSH2 0x100 DUP3 ADD MLOAD DUP1 MLOAD PUSH1 0x7 SIGNEXTEND ISZERO DUP1 PUSH3 0x166C JUMPI JUMPDEST PUSH3 0x165C JUMPI JUMPDEST POP PUSH3 0x144A PUSH1 0x40 MLOAD SWAP4 PUSH4 0xFB65BF3 PUSH1 0xE0 SHL PUSH1 0x20 DUP7 ADD MSTORE PUSH1 0x60 PUSH1 0x24 DUP7 ADD MSTORE PUSH3 0x1425 PUSH3 0x140E DUP6 MLOAD PUSH2 0x160 PUSH1 0x84 DUP10 ADD MSTORE PUSH2 0x1E4 DUP9 ADD SWAP1 PUSH3 0x1B2A JUMP JUMPDEST SWAP7 MLOAD SWAP7 PUSH1 0x83 NOT SWAP8 DUP9 DUP9 DUP4 SUB ADD PUSH1 0xA4 DUP10 ADD MSTORE PUSH3 0x1B2A JUMP JUMPDEST SWAP1 MLOAD PUSH1 0x1 PUSH1 0x1 PUSH1 0xA0 SHL SUB AND PUSH1 0xC4 DUP7 ADD MSTORE PUSH1 0x60 DUP5 ADD MLOAD DUP6 DUP3 SUB DUP8 ADD PUSH1 0xE4 DUP8 ADD MSTORE PUSH3 0x1B2A JUMP JUMPDEST SWAP1 PUSH1 0x80 DUP4 ADD MLOAD ISZERO ISZERO PUSH2 0x104 DUP6 ADD MSTORE PUSH1 0xA0 DUP4 ADD MLOAD PUSH1 0x7 SIGNEXTEND PUSH2 0x124 DUP6 ADD MSTORE PUSH1 0xC0 DUP4 ADD MLOAD ISZERO ISZERO PUSH2 0x144 DUP6 ADD MSTORE MLOAD SWAP4 DUP4 DUP3 SUB ADD PUSH2 0x164 DUP5 ADD MSTORE DUP4 MLOAD DUP1 DUP3 MSTORE PUSH1 0x20 DUP3 ADD SWAP2 PUSH1 0x20 DUP1 DUP4 PUSH1 0x5 SHL DUP4 ADD ADD SWAP7 ADD SWAP3 PUSH1 0x0 SWAP2 JUMPDEST DUP4 DUP4 LT PUSH3 0x15DE JUMPI PUSH1 0x0 DUP1 DUP9 PUSH3 0x14F9 DUP2 DUP13 PUSH1 0x40 PUSH2 0x100 DUP14 ADD MLOAD DUP1 MLOAD PUSH1 0x7 SIGNEXTEND PUSH2 0x184 DUP6 ADD MSTORE PUSH1 0x1 DUP1 PUSH1 0xA0 SHL SUB PUSH1 0x20 DUP3 ADD MLOAD AND PUSH2 0x1A4 DUP6 ADD MSTORE ADD MLOAD PUSH1 0x7 SIGNEXTEND PUSH2 0x1C4 DUP4 ADD MSTORE DUP5 PUSH1 0x44 DUP4 ADD MSTORE PUSH1 0x6 PUSH1 0x64 DUP4 ADD MSTORE SUB PUSH1 0x1F NOT DUP2 ADD DUP4 MSTORE DUP3 PUSH3 0x1AC7 JUMP JUMPDEST PUSH1 0x20 DUP2 MLOAD SWAP2 ADD CALLVALUE PUSH2 0x167 GAS CALL PUSH3 0x150F PUSH3 0x2988 JUMP JUMPDEST SWAP1 ISZERO PUSH3 0x15D3 JUMPI PUSH1 0x40 DUP2 DUP1 MLOAD DUP2 ADD SUB SLT PUSH3 0x1CD JUMPI PUSH1 0x40 PUSH3 0x1534 PUSH1 0x20 DUP4 ADD PUSH3 0x29BD JUMP JUMPDEST SWAP2 ADD MLOAD PUSH1 0x1 PUSH1 0x1 PUSH1 0xA0 SHL SUB DUP2 AND SWAP2 SWAP1 DUP3 SWAP1 SUB PUSH3 0x1CD JUMPI PUSH1 0x3 SIGNEXTEND JUMPDEST PUSH1 0x3 SIGNEXTEND PUSH1 0x16 DUP2 SUB PUSH3 0x157E JUMPI POP PUSH1 0x4 DUP1 SLOAD PUSH1 0x1 PUSH1 0x1 PUSH1 0xA0 SHL SUB NOT AND PUSH1 0x1 PUSH1 0x1 PUSH1 0xA0 SHL SUB SWAP3 SWAP1 SWAP3 AND SWAP2 SWAP1 SWAP2 OR SWAP1 SSTORE STOP JUMPDEST PUSH3 0x158D PUSH3 0x70E SWAP2 PUSH3 0x1D03 JUMP JUMPDEST PUSH3 0x6ED PUSH1 0x3C PUSH1 0x40 MLOAD DUP1 SWAP4 PUSH32 0x43534C5020746F6B656E206372656174696F6E206661696C65643A2000000000 PUSH1 0x20 DUP4 ADD MSTORE PUSH3 0x6DC DUP2 MLOAD DUP1 SWAP3 PUSH1 0x20 DUP7 DUP7 ADD SWAP2 ADD PUSH3 0x1B05 JUMP JUMPDEST POP PUSH1 0x0 PUSH1 0x15 PUSH3 0x154F JUMP JUMPDEST SWAP1 SWAP2 SWAP3 SWAP4 SWAP7 PUSH1 0x20 DUP1 PUSH1 0x1 SWAP3 PUSH1 0x1F NOT DUP6 DUP3 SUB ADD DUP7 MSTORE DUP2 DUP12 MLOAD DUP1 MLOAD DUP4 MSTORE ADD MLOAD SWAP1 PUSH1 0x40 DUP4 DUP3 ADD MSTORE DUP2 MLOAD ISZERO ISZERO PUSH1 0x40 DUP3 ADD MSTORE DUP5 DUP1 PUSH1 0xA0 SHL SUB DUP4 DUP4 ADD MLOAD AND PUSH1 0x60 DUP3 ADD MSTORE PUSH1 0xC0 PUSH3 0x163C PUSH3 0x77B PUSH1 0x40 DUP6 ADD MLOAD PUSH1 0xA0 PUSH1 0x80 DUP7 ADD MSTORE PUSH1 0xE0 DUP6 ADD SWAP1 PUSH3 0x1B2A JUMP JUMPDEST SWAP3 PUSH1 0x80 DUP8 DUP1 PUSH1 0xA0 SHL SUB SWAP2 ADD MLOAD AND SWAP2 ADD MSTORE SWAP10 ADD SWAP4 ADD SWAP4 ADD SWAP2 SWAP4 SWAP3 SWAP1 PUSH3 0x149A JUMP JUMPDEST PUSH1 0x40 PUSH3 0x76A700 SWAP2 ADD MSTORE DUP5 PUSH3 0x13D3 JUMP JUMPDEST POP PUSH1 0x40 DUP2 ADD MLOAD PUSH1 0x7 SIGNEXTEND ISZERO PUSH3 0x13CD JUMP JUMPDEST PUSH1 0x20 SWAP1 PUSH3 0x1689 PUSH3 0x1CBF JUMP JUMPDEST DUP3 DUP3 DUP6 ADD ADD MSTORE ADD PUSH3 0x138B JUMP JUMPDEST PUSH1 0x40 MLOAD PUSH3 0x461BCD PUSH1 0xE5 SHL DUP2 MSTORE PUSH1 0x20 PUSH1 0x4 DUP3 ADD MSTORE PUSH1 0x1A PUSH1 0x24 DUP3 ADD MSTORE PUSH32 0x43534C5020746F6B656E20616C72656164792063726561746564000000000000 PUSH1 0x44 DUP3 ADD MSTORE PUSH1 0x64 SWAP1 REVERT JUMPDEST CALLVALUE PUSH3 0x1CD JUMPI PUSH1 0x20 CALLDATASIZE PUSH1 0x3 NOT ADD SLT PUSH3 0x1CD JUMPI PUSH1 0x4 CALLDATALOAD PUSH1 0x3 SLOAD DUP2 LT ISZERO PUSH3 0x1CD JUMPI PUSH3 0x1709 PUSH1 0x20 SWAP2 PUSH3 0x19ED JUMP JUMPDEST SWAP1 SLOAD PUSH1 0x40 MLOAD PUSH1 0x3 SWAP3 SWAP1 SWAP3 SHL SHR PUSH1 0x1 PUSH1 0x1 PUSH1 0xA0 SHL SUB AND DUP2 MSTORE RETURN JUMPDEST CALLVALUE PUSH3 0x1CD JUMPI PUSH1 0x20 CALLDATASIZE PUSH1 0x3 NOT ADD SLT PUSH3 0x1CD JUMPI PUSH1 0x20 PUSH1 0x1 PUSH1 0x1 PUSH1 0xA0 SHL SUB DUP1 PUSH3 0x174A PUSH3 0x1991 JUMP JUMPDEST AND PUSH1 0x0 MSTORE PUSH1 0x2 DUP3 MSTORE PUSH1 0x40 PUSH1 0x0 KECCAK256 SLOAD AND PUSH1 0x40 MLOAD SWAP1 DUP2 MSTORE RETURN JUMPDEST CALLVALUE PUSH3 0x1CD JUMPI PUSH1 0x20 DUP1 PUSH1 0x3 NOT CALLDATASIZE ADD SLT PUSH3 0x1CD JUMPI PUSH1 0x6 SLOAD PUSH1 0x1 PUSH1 0x1 PUSH1 0xA0 SHL SUB SWAP1 PUSH3 0x1790 SWAP1 DUP3 AND CALLER EQ PUSH3 0x1B51 JUMP JUMPDEST PUSH1 0x4 SLOAD AND SWAP1 PUSH3 0x17A2 DUP3 ISZERO ISZERO PUSH3 0x1B93 JUMP JUMPDEST PUSH1 0x40 MLOAD PUSH3 0x17B0 DUP2 PUSH3 0x1A57 JUMP JUMPDEST PUSH1 0x0 DUP2 MSTORE PUSH1 0x40 MLOAD DUP3 DUP2 ADD SWAP2 PUSH4 0x6B488683 PUSH1 0xE1 SHL DUP4 MSTORE PUSH1 0x84 DUP3 ADD SWAP5 PUSH1 0x24 DUP4 ADD MSTORE PUSH1 0x7 SWAP5 PUSH1 0x1 PUSH1 0x1 PUSH1 0x40 SHL SUB PUSH1 0x4 CALLDATALOAD AND DUP7 SIGNEXTEND PUSH1 0x44 DUP5 ADD MSTORE PUSH1 0x60 PUSH1 0x64 DUP5 ADD MSTORE DUP2 MLOAD DUP1 SWAP2 MSTORE DUP5 PUSH1 0xA4 DUP5 ADD SWAP3 ADD SWAP1 PUSH1 0x0 JUMPDEST DUP2 DUP2 LT PUSH3 0x18B3 JUMPI DUP7 PUSH1 0x0 DUP1 DUP9 DUP9 PUSH3 0x181F DUP2 DUP11 SUB PUSH1 0x1F NOT DUP2 ADD DUP4 MSTORE DUP3 PUSH3 0x1AC7 JUMP JUMPDEST MLOAD SWAP1 DUP3 PUSH2 0x167 GAS CALL PUSH3 0x1831 PUSH3 0x2988 JUMP JUMPDEST SWAP1 ISZERO PUSH3 0x18A8 JUMPI PUSH1 0x40 DUP2 DUP1 MLOAD DUP2 ADD SUB SLT PUSH3 0x1CD JUMPI DUP1 PUSH3 0x1864 PUSH1 0x40 PUSH3 0x185C DUP6 PUSH1 0x16 SWAP6 ADD PUSH3 0x29BD JUMP JUMPDEST SWAP3 ADD PUSH3 0x29CC JUMP JUMPDEST POP JUMPDEST PUSH1 0x3 SIGNEXTEND SUB PUSH3 0x1871 JUMPI STOP JUMPDEST PUSH1 0x64 SWAP1 PUSH1 0x40 MLOAD SWAP1 PUSH3 0x461BCD PUSH1 0xE5 SHL DUP3 MSTORE PUSH1 0x4 DUP3 ADD MSTORE PUSH1 0x10 PUSH1 0x24 DUP3 ADD MSTORE PUSH16 0x10D4D31408189D5C9B8819985A5B1959 PUSH1 0x82 SHL PUSH1 0x44 DUP3 ADD MSTORE REVERT JUMPDEST POP PUSH1 0x16 PUSH1 0x15 PUSH3 0x1866 JUMP JUMPDEST DUP3 MLOAD DUP9 SIGNEXTEND DUP5 MSTORE SWAP3 DUP7 ADD SWAP3 SWAP2 DUP7 ADD SWAP2 PUSH1 0x1 ADD PUSH3 0x17FC JUMP JUMPDEST CALLVALUE PUSH3 0x1CD JUMPI PUSH1 0x0 DUP1 PUSH3 0xEB0 PUSH3 0xEA1 PUSH3 0x18E6 CALLDATASIZE PUSH3 0x19A8 JUMP JUMPDEST PUSH1 0x40 MLOAD PUSH4 0xAED65F5 PUSH1 0xE1 SHL PUSH1 0x20 DUP3 ADD SWAP1 DUP2 MSTORE PUSH1 0x1 PUSH1 0x1 PUSH1 0xA0 SHL SUB SWAP6 DUP7 AND PUSH1 0x24 DUP4 ADD MSTORE SWAP4 DUP6 AND PUSH1 0x44 DUP3 ADD MSTORE SWAP4 SWAP1 SWAP2 AND PUSH1 0x64 DUP5 ADD MSTORE PUSH1 0x84 DUP4 ADD MSTORE SWAP3 SWAP1 SWAP2 DUP3 SWAP1 PUSH1 0xA4 DUP3 ADD SWAP1 JUMP JUMPDEST CALLVALUE PUSH3 0x1CD JUMPI PUSH1 0x20 CALLDATASIZE PUSH1 0x3 NOT ADD SLT PUSH3 0x1CD JUMPI PUSH1 0x20 PUSH1 0x1 PUSH1 0x1 PUSH1 0xA0 SHL SUB DUP1 PUSH3 0x1952 PUSH3 0x1991 JUMP JUMPDEST AND PUSH1 0x0 MSTORE PUSH1 0x2 DUP3 MSTORE PUSH1 0x40 PUSH1 0x0 KECCAK256 SLOAD AND ISZERO ISZERO PUSH1 0x40 MLOAD SWAP1 DUP2 MSTORE RETURN JUMPDEST CALLVALUE PUSH3 0x1CD JUMPI PUSH1 0x0 CALLDATASIZE PUSH1 0x3 NOT ADD SLT PUSH3 0x1CD JUMPI PUSH1 0x5 SLOAD PUSH1 0x1 PUSH1 0x1 PUSH1 0xA0 SHL SUB AND DUP2 MSTORE PUSH1 0x20 SWAP1 RETURN JUMPDEST PUSH1 0x4 CALLDATALOAD SWAP1 PUSH1 0x1 PUSH1 0x1 PUSH1 0xA0 SHL SUB DUP3 AND DUP3 SUB PUSH3 0x1CD JUMPI JUMP JUMPDEST PUSH1 0x80 SWAP1 PUSH1 0x3 NOT ADD SLT PUSH3 0x1CD JUMPI PUSH1 0x1 PUSH1 0x1 PUSH1 0xA0 SHL SUB PUSH1 0x4 CALLDATALOAD DUP2 DUP2 AND DUP2 SUB PUSH3 0x1CD JUMPI SWAP2 PUSH1 0x24 CALLDATALOAD DUP3 DUP2 AND DUP2 SUB PUSH3 0x1CD JUMPI SWAP2 PUSH1 0x44 CALLDATALOAD SWAP1 DUP2 AND DUP2 SUB PUSH3 0x1CD JUMPI SWAP1 PUSH1 0x64 CALLDATALOAD SWAP1 JUMP JUMPDEST PUSH1 0x3 SLOAD DUP2 LT ISZERO PUSH3 0x1A25 JUMPI PUSH1 0x3 PUSH1 0x0 MSTORE PUSH32 0xC2575A0E9E593C00F959F8C92F12DB2869C3395A3B0502D05E2516446F71F85B ADD SWAP1 PUSH1 0x0 SWAP1 JUMP JUMPDEST PUSH4 0x4E487B71 PUSH1 0xE0 SHL PUSH1 0x0 MSTORE PUSH1 0x32 PUSH1 0x4 MSTORE PUSH1 0x24 PUSH1 0x0 REVERT JUMPDEST PUSH1 0x40 DUP2 ADD SWAP1 DUP2 LT PUSH1 0x1 PUSH1 0x1 PUSH1 0x40 SHL SUB DUP3 GT OR PUSH3 0x10D9 JUMPI PUSH1 0x40 MSTORE JUMP JUMPDEST PUSH1 0x20 DUP2 ADD SWAP1 DUP2 LT PUSH1 0x1 PUSH1 0x1 PUSH1 0x40 SHL SUB DUP3 GT OR PUSH3 0x10D9 JUMPI PUSH1 0x40 MSTORE JUMP JUMPDEST PUSH1 0xC0 DUP2 ADD SWAP1 DUP2 LT PUSH1 0x1 PUSH1 0x1 PUSH1 0x40 SHL SUB DUP3 GT OR PUSH3 0x10D9 JUMPI PUSH1 0x40 MSTORE JUMP JUMPDEST PUSH1 0x80 DUP2 ADD SWAP1 DUP2 LT PUSH1 0x1 PUSH1 0x1 PUSH1 0x40 SHL SUB DUP3 GT OR PUSH3 0x10D9 JUMPI PUSH1 0x40 MSTORE JUMP JUMPDEST PUSH1 0x60 DUP2 ADD SWAP1 DUP2 LT PUSH1 0x1 PUSH1 0x1 PUSH1 0x40 SHL SUB DUP3 GT OR PUSH3 0x10D9 JUMPI PUSH1 0x40 MSTORE JUMP JUMPDEST SWAP1 PUSH1 0x1F DUP1 NOT SWAP2 ADD AND DUP2 ADD SWAP1 DUP2 LT PUSH1 0x1 PUSH1 0x1 PUSH1 0x40 SHL SUB DUP3 GT OR PUSH3 0x10D9 JUMPI PUSH1 0x40 MSTORE JUMP JUMPDEST PUSH1 0x1 PUSH1 0x1 PUSH1 0x40 SHL SUB DUP2 GT PUSH3 0x10D9 JUMPI PUSH1 0x1F ADD PUSH1 0x1F NOT AND PUSH1 0x20 ADD SWAP1 JUMP JUMPDEST PUSH1 0x0 JUMPDEST DUP4 DUP2 LT PUSH3 0x1B19 JUMPI POP POP PUSH1 0x0 SWAP2 ADD MSTORE JUMP JUMPDEST DUP2 DUP2 ADD MLOAD DUP4 DUP3 ADD MSTORE PUSH1 0x20 ADD PUSH3 0x1B08 JUMP JUMPDEST SWAP1 PUSH1 0x20 SWAP2 PUSH3 0x1B45 DUP2 MLOAD DUP1 SWAP3 DUP2 DUP6 MSTORE DUP6 DUP1 DUP7 ADD SWAP2 ADD PUSH3 0x1B05 JUMP JUMPDEST PUSH1 0x1F ADD PUSH1 0x1F NOT AND ADD ADD SWAP1 JUMP JUMPDEST ISZERO PUSH3 0x1B59 JUMPI JUMP JUMPDEST PUSH1 0x40 MLOAD PUSH3 0x461BCD PUSH1 0xE5 SHL DUP2 MSTORE PUSH1 0x20 PUSH1 0x4 DUP3 ADD MSTORE PUSH1 0x12 PUSH1 0x24 DUP3 ADD MSTORE PUSH18 0x27B7363C903330B1BA37B93C9037BBB732B9 PUSH1 0x71 SHL PUSH1 0x44 DUP3 ADD MSTORE PUSH1 0x64 SWAP1 REVERT JUMPDEST ISZERO PUSH3 0x1B9B JUMPI JUMP JUMPDEST PUSH1 0x40 MLOAD PUSH3 0x461BCD PUSH1 0xE5 SHL DUP2 MSTORE PUSH1 0x20 PUSH1 0x4 DUP3 ADD MSTORE PUSH1 0x16 PUSH1 0x24 DUP3 ADD MSTORE PUSH22 0x10D4D314081D1BDAD95B881B9BDD0818DC99585D1959 PUSH1 0x52 SHL PUSH1 0x44 DUP3 ADD MSTORE PUSH1 0x64 SWAP1 REVERT JUMPDEST PUSH1 0x1 PUSH1 0x1 PUSH1 0x40 SHL SUB DUP2 GT PUSH3 0x10D9 JUMPI PUSH1 0x5 SHL PUSH1 0x20 ADD SWAP1 JUMP JUMPDEST PUSH1 0x40 DUP1 MLOAD PUSH1 0x1 PUSH1 0x1 PUSH1 0x40 SHL SUB SWAP3 SWAP2 SWAP1 PUSH2 0x120 DUP2 ADD DUP5 DUP2 GT DUP3 DUP3 LT OR PUSH3 0x10D9 JUMPI DUP3 MSTORE DUP1 SWAP4 PUSH1 0x60 SWAP3 DUP4 DUP4 MSTORE DUP4 PUSH1 0x20 DUP5 ADD MSTORE PUSH1 0x0 SWAP2 DUP3 DUP3 DUP6 ADD MSTORE DUP5 DUP1 DUP6 ADD MSTORE DUP3 PUSH1 0x80 DUP6 ADD MSTORE DUP3 PUSH1 0xA0 DUP6 ADD MSTORE DUP3 PUSH1 0xC0 DUP6 ADD MSTORE DUP5 PUSH1 0xE0 DUP6 ADD MSTORE DUP2 MLOAD SWAP5 DUP6 ADD SWAP1 DUP6 DUP3 LT SWAP1 DUP3 GT OR PUSH3 0x1C6E JUMPI DUP2 MSTORE DUP2 DUP5 MSTORE PUSH1 0x20 DUP5 ADD DUP3 SWAP1 MSTORE DUP4 ADD MSTORE PUSH2 0x100 ADD MSTORE JUMP JUMPDEST PUSH4 0x4E487B71 PUSH1 0xE0 SHL DUP4 MSTORE PUSH1 0x41 PUSH1 0x4 MSTORE PUSH1 0x24 DUP4 REVERT JUMPDEST PUSH1 0x40 MLOAD SWAP1 PUSH1 0xA0 DUP3 ADD DUP3 DUP2 LT PUSH1 0x1 PUSH1 0x1 PUSH1 0x40 SHL SUB DUP3 GT OR PUSH3 0x10D9 JUMPI PUSH1 0x40 MSTORE PUSH1 0x0 PUSH1 0x80 DUP4 DUP3 DUP2 MSTORE DUP3 PUSH1 0x20 DUP3 ADD MSTORE PUSH1 0x60 PUSH1 0x40 DUP3 ADD MSTORE PUSH1 0x60 DUP1 DUP3 ADD MSTORE ADD MSTORE JUMP JUMPDEST PUSH1 0x40 MLOAD SWAP1 PUSH3 0x1CCE DUP3 PUSH3 0x1A3B JUMP JUMPDEST DUP2 PUSH1 0x0 DUP2 MSTORE PUSH1 0x20 PUSH3 0x1CDF PUSH3 0x1C82 JUMP JUMPDEST SWAP2 ADD MSTORE JUMP JUMPDEST DUP1 MLOAD ISZERO PUSH3 0x1A25 JUMPI PUSH1 0x20 ADD SWAP1 JUMP JUMPDEST DUP1 MLOAD PUSH1 0x1 LT ISZERO PUSH3 0x1A25 JUMPI PUSH1 0x40 ADD SWAP1 JUMP JUMPDEST DUP1 PUSH1 0x3 SIGNEXTEND SWAP1 PUSH1 0x16 DUP3 EQ PUSH3 0x2869 JUMPI PUSH1 0x9 DUP3 EQ PUSH3 0x2812 JUMPI PUSH1 0xA DUP3 EQ PUSH3 0x27AF JUMPI PUSH1 0x7 DUP3 EQ PUSH3 0x2755 JUMPI PUSH1 0xF DUP3 EQ PUSH3 0x26F2 JUMPI PUSH1 0x10 DUP3 EQ PUSH3 0x268F JUMPI PUSH1 0x1E DUP3 EQ PUSH3 0x263F JUMPI PUSH1 0x22 DUP3 EQ PUSH3 0x25DC JUMPI PUSH1 0x6F DUP3 EQ PUSH3 0x258B JUMPI PUSH1 0xAA DUP3 EQ PUSH3 0x2528 JUMPI PUSH1 0xAB DUP3 EQ PUSH3 0x24D4 JUMPI PUSH1 0xAE DUP3 EQ PUSH3 0x247E JUMPI PUSH1 0xAF DUP3 EQ PUSH3 0x241B JUMPI PUSH1 0xBE DUP3 EQ PUSH3 0x23C9 JUMPI PUSH1 0xBF DUP3 EQ PUSH3 0x236E JUMPI PUSH1 0xA8 DUP3 EQ PUSH3 0x230B JUMPI PUSH1 0xA9 DUP3 EQ PUSH3 0x22A8 JUMPI PUSH1 0xBD DUP3 EQ PUSH3 0x2258 JUMPI PUSH1 0x9B DUP3 EQ PUSH3 0x220A JUMPI PUSH1 0x1A DUP3 EQ PUSH3 0x21BE JUMPI PUSH1 0x1B DUP3 EQ PUSH3 0x2172 JUMPI PUSH1 0x26 DUP3 EQ PUSH3 0x2117 JUMPI PUSH1 0x40 SWAP2 DUP3 DUP2 EQ PUSH3 0x20BE JUMPI PUSH1 0x41 DUP2 EQ PUSH3 0x2050 JUMPI PUSH2 0x117 DUP2 EQ PUSH3 0x1FF6 JUMPI PUSH2 0x145 DUP2 EQ PUSH3 0x1F95 JUMPI PUSH2 0x146 DUP2 EQ PUSH3 0x1F34 JUMPI PUSH2 0x147 DUP2 EQ PUSH3 0x1EC9 JUMPI PUSH2 0x148 EQ PUSH3 0x1E73 JUMPI PUSH1 0x33 PUSH3 0x1E2A PUSH4 0xFFFFFFFF PUSH3 0x1E70 SWAP4 AND PUSH3 0x2890 JUMP JUMPDEST SWAP3 MLOAD DUP1 SWAP4 PUSH19 0x554E4B4E4F574E5F4552524F525F434F44455F PUSH1 0x68 SHL PUSH1 0x20 DUP4 ADD MSTORE PUSH3 0x1E5F DUP2 MLOAD DUP1 SWAP3 PUSH1 0x20 DUP7 DUP7 ADD SWAP2 ADD PUSH3 0x1B05 JUMP JUMPDEST DUP2 ADD SUB PUSH1 0x13 DUP2 ADD DUP5 MSTORE ADD DUP3 PUSH3 0x1AC7 JUMP JUMPDEST SWAP1 JUMP JUMPDEST POP PUSH19 0x206D616E79206368696C64207265636F726473 PUSH1 0x68 SHL DUP2 MLOAD SWAP2 PUSH3 0x1E99 DUP4 PUSH3 0x1AAB JUMP JUMPDEST PUSH1 0x33 DUP4 MSTORE PUSH32 0x4D41585F4348494C445F5245434F5244535F4558434545444544202D20546F6F PUSH1 0x20 DUP5 ADD MSTORE DUP3 ADD MSTORE SWAP1 JUMP JUMPDEST POP POP PUSH32 0x6666696369656E742062616C616E636520666F722073746F726167652072656E DUP2 MLOAD SWAP2 PUSH3 0x1EFA DUP4 PUSH3 0x1A8F JUMP JUMPDEST PUSH1 0x41 DUP4 MSTORE PUSH32 0x494E53554646494349454E545F53544F524147455F52454E54202D20496E7375 PUSH1 0x20 DUP5 ADD MSTORE DUP3 ADD MSTORE PUSH1 0x1D PUSH1 0xFA SHL PUSH1 0x60 DUP3 ADD MSTORE SWAP1 JUMP JUMPDEST POP POP PUSH32 0x6E76616C6964207369676E617475726520666F7220707265636F6D70696C6500 DUP2 MLOAD SWAP2 PUSH3 0x1F65 DUP4 PUSH3 0x1AAB JUMP JUMPDEST PUSH1 0x3F DUP4 MSTORE PUSH32 0x494E56414C49445F505245434F4D50494C455F5349474E4154555245202D2049 PUSH1 0x20 DUP5 ADD MSTORE DUP3 ADD MSTORE SWAP1 JUMP JUMPDEST POP POP PUSH32 0x6E74697469657320696E20707269636520726567696D65207265616368656400 DUP2 MLOAD SWAP2 PUSH3 0x1FC6 DUP4 PUSH3 0x1AAB JUMP JUMPDEST PUSH1 0x3F DUP4 MSTORE PUSH32 0x4D41585F454E5449544945535F43524541544544202D204D6178696D756D2065 PUSH1 0x20 DUP5 ADD MSTORE DUP3 ADD MSTORE SWAP1 JUMP JUMPDEST POP POP PUSH22 0x1CDD5CC81B9BD9194819D85CC8195E1A185D5CDD1959 PUSH1 0x52 SHL DUP2 MLOAD SWAP2 PUSH3 0x2020 DUP4 PUSH3 0x1AAB JUMP JUMPDEST PUSH1 0x36 DUP4 MSTORE PUSH32 0x434F4E53454E5355535F4741535F455848415553544544202D20436F6E73656E PUSH1 0x20 DUP5 ADD MSTORE DUP3 ADD MSTORE SWAP1 JUMP JUMPDEST POP POP PUSH32 0x616E73616374696F6E2068617320746F6F206D616E79206E6573746564206C61 DUP2 MLOAD SWAP2 PUSH3 0x2081 DUP4 PUSH3 0x1A8F JUMP JUMPDEST PUSH1 0x44 DUP4 MSTORE PUSH32 0x5452414E53414354494F4E5F544F4F5F4D414E595F4C4159455253202D205472 PUSH1 0x20 DUP5 ADD MSTORE DUP3 ADD MSTORE PUSH4 0x79657273 PUSH1 0xE0 SHL PUSH1 0x60 DUP3 ADD MSTORE SWAP1 JUMP JUMPDEST POP POP PUSH21 0x1BDB88195E18D959591CC81CDA5E99481B1A5B5A5D PUSH1 0x5A SHL DUP2 MLOAD SWAP2 PUSH3 0x20E7 DUP4 PUSH3 0x1AAB JUMP JUMPDEST PUSH1 0x35 DUP4 MSTORE PUSH32 0x5452414E53414354494F4E5F4F56455253495A45202D205472616E7361637469 PUSH1 0x20 DUP5 ADD MSTORE DUP3 ADD MSTORE SWAP1 JUMP JUMPDEST POP POP PUSH1 0x40 MLOAD PUSH3 0x2127 DUP2 PUSH3 0x1AAB JUMP JUMPDEST PUSH1 0x35 DUP2 MSTORE PUSH32 0x494E56414C49445F4B45595F454E434F44494E47202D204B657920656E636F64 PUSH1 0x20 DUP3 ADD MSTORE PUSH21 0x1A5B99C8199BDC9B585D081A5CC81A5B9D985B1A59 PUSH1 0x5A SHL PUSH1 0x40 DUP3 ADD MSTORE SWAP1 JUMP JUMPDEST POP POP PUSH1 0x40 MLOAD PUSH3 0x2182 DUP2 PUSH3 0x1AAB JUMP JUMPDEST PUSH1 0x26 DUP2 MSTORE PUSH32 0x4241445F454E434F44494E47202D204B657920656E636F64696E672069732069 PUSH1 0x20 DUP3 ADD MSTORE PUSH6 0x1B9D985B1A59 PUSH1 0xD2 SHL PUSH1 0x40 DUP3 ADD MSTORE SWAP1 JUMP JUMPDEST POP POP PUSH1 0x40 MLOAD PUSH3 0x21CE DUP2 PUSH3 0x1AAB JUMP JUMPDEST PUSH1 0x26 DUP2 MSTORE PUSH32 0x4B45595F5245515549524544202D205265717569726564206B6579206973206D PUSH1 0x20 DUP3 ADD MSTORE PUSH6 0x697373696E67 PUSH1 0xD0 SHL PUSH1 0x40 DUP3 ADD MSTORE SWAP1 JUMP JUMPDEST POP POP PUSH1 0x40 MLOAD PUSH3 0x221A DUP2 PUSH3 0x1AAB JUMP JUMPDEST PUSH1 0x28 DUP2 MSTORE PUSH32 0x494E56414C49445F41444D494E5F4B4559202D2041646D696E206B6579206973 PUSH1 0x20 DUP3 ADD MSTORE PUSH8 0x81A5B9D985B1A59 PUSH1 0xC2 SHL PUSH1 0x40 DUP3 ADD MSTORE SWAP1 JUMP JUMPDEST POP POP PUSH1 0x40 MLOAD PUSH3 0x2268 DUP2 PUSH3 0x1AAB JUMP JUMPDEST PUSH1 0x2A DUP2 MSTORE PUSH32 0x494E56414C49445F535550504C595F4B4559202D20537570706C79206B657920 PUSH1 0x20 DUP3 ADD MSTORE PUSH10 0x1A5CC81A5B9D985B1A59 PUSH1 0xB2 SHL PUSH1 0x40 DUP3 ADD MSTORE SWAP1 JUMP JUMPDEST POP POP PUSH1 0x40 MLOAD PUSH3 0x22B8 DUP2 PUSH3 0x1AAB JUMP JUMPDEST PUSH1 0x3E DUP2 MSTORE PUSH32 0x494E56414C49445F544F4B454E5F494E495449414C5F535550504C59202D2049 PUSH1 0x20 DUP3 ADD MSTORE PUSH32 0x6E697469616C20737570706C792076616C756520697320696E76616C69640000 PUSH1 0x40 DUP3 ADD MSTORE SWAP1 JUMP JUMPDEST POP POP PUSH1 0x40 MLOAD PUSH3 0x231B DUP2 PUSH3 0x1AAB JUMP JUMPDEST PUSH1 0x38 DUP2 MSTORE PUSH32 0x494E56414C49445F544F4B454E5F444543494D414C53202D20546F6B656E2064 PUSH1 0x20 DUP3 ADD MSTORE PUSH32 0x6563696D616C732076616C756520697320696E76616C69640000000000000000 PUSH1 0x40 DUP3 ADD MSTORE SWAP1 JUMP JUMPDEST POP POP PUSH1 0x40 MLOAD PUSH3 0x237E DUP2 PUSH3 0x1AAB JUMP JUMPDEST PUSH1 0x35 DUP2 MSTORE PUSH32 0x544F4B454E5F4E414D455F544F4F5F4C4F4E47202D20546F6B656E206E616D65 PUSH1 0x20 DUP3 ADD MSTORE PUSH21 0x8195E18D959591CC81B195B99DD1A081B1A5B5A5D PUSH1 0x5A SHL PUSH1 0x40 DUP3 ADD MSTORE SWAP1 JUMP JUMPDEST POP POP PUSH1 0x40 MLOAD PUSH3 0x23D9 DUP2 PUSH3 0x1AAB JUMP JUMPDEST PUSH1 0x2C DUP2 MSTORE PUSH32 0x4D495353494E475F544F4B454E5F4E414D45202D20546F6B656E206E616D6520 PUSH1 0x20 DUP3 ADD MSTORE PUSH12 0x1B9BDD081C1C9BDD9A591959 PUSH1 0xA2 SHL PUSH1 0x40 DUP3 ADD MSTORE SWAP1 JUMP JUMPDEST POP POP PUSH1 0x40 MLOAD PUSH3 0x242B DUP2 PUSH3 0x1AAB JUMP JUMPDEST PUSH1 0x39 DUP2 MSTORE PUSH32 0x544F4B454E5F53594D424F4C5F544F4F5F4C4F4E47202D20546F6B656E207379 PUSH1 0x20 DUP3 ADD MSTORE PUSH32 0x6D626F6C2065786365656473206C656E677468206C696D697400000000000000 PUSH1 0x40 DUP3 ADD MSTORE SWAP1 JUMP JUMPDEST POP POP PUSH1 0x40 MLOAD PUSH3 0x248E DUP2 PUSH3 0x1AAB JUMP JUMPDEST PUSH1 0x30 DUP2 MSTORE PUSH32 0x4D495353494E475F544F4B454E5F53594D424F4C202D20546F6B656E2073796D PUSH1 0x20 DUP3 ADD MSTORE PUSH16 0x189BDB081B9BDD081C1C9BDD9A591959 PUSH1 0x82 SHL PUSH1 0x40 DUP3 ADD MSTORE SWAP1 JUMP JUMPDEST POP POP PUSH1 0x40 MLOAD PUSH3 0x24E4 DUP2 PUSH3 0x1AAB JUMP JUMPDEST PUSH1 0x2E DUP2 MSTORE PUSH32 0x494E56414C49445F544F4B454E5F53594D424F4C202D20546F6B656E2073796D PUSH1 0x20 DUP3 ADD MSTORE PUSH14 0x189BDB081A5CC81A5B9D985B1A59 PUSH1 0x92 SHL PUSH1 0x40 DUP3 ADD MSTORE SWAP1 JUMP JUMPDEST POP POP PUSH1 0x40 MLOAD PUSH3 0x2538 DUP2 PUSH3 0x1AAB JUMP JUMPDEST PUSH1 0x3D DUP2 MSTORE PUSH32 0x494E56414C49445F54524541535552595F4143434F554E545F464F525F544F4B PUSH1 0x20 DUP3 ADD MSTORE PUSH32 0x454E202D205472656173757279206163636F756E7420696E76616C6964000000 PUSH1 0x40 DUP3 ADD MSTORE SWAP1 JUMP JUMPDEST POP POP PUSH1 0x40 MLOAD PUSH3 0x259B DUP2 PUSH3 0x1AAB JUMP JUMPDEST PUSH1 0x2B DUP2 MSTORE PUSH32 0x4D41585F4741535F4C494D49545F4558434545444544202D20476173206C696D PUSH1 0x20 DUP3 ADD MSTORE PUSH11 0x1A5D08195E18D959591959 PUSH1 0xAA SHL PUSH1 0x40 DUP3 ADD MSTORE SWAP1 JUMP JUMPDEST POP POP PUSH1 0x40 MLOAD PUSH3 0x25EC DUP2 PUSH3 0x1AAB JUMP JUMPDEST PUSH1 0x38 DUP2 MSTORE PUSH32 0x434F4E54524143545F455845435554494F4E5F455843455054494F4E202D2043 PUSH1 0x20 DUP3 ADD MSTORE PUSH32 0x6F6E747261637420657865637574696F6E206661696C65640000000000000000 PUSH1 0x40 DUP3 ADD MSTORE SWAP1 JUMP JUMPDEST POP POP PUSH1 0x40 MLOAD PUSH3 0x264F DUP2 PUSH3 0x1AAB JUMP JUMPDEST PUSH1 0x2A DUP2 MSTORE PUSH32 0x494E53554646494349454E545F474153202D204E6F7420656E6F756768206761 PUSH1 0x20 DUP3 ADD MSTORE PUSH10 0x1CC81CDD5C1C1B1A5959 PUSH1 0xB2 SHL PUSH1 0x40 DUP3 ADD MSTORE SWAP1 JUMP JUMPDEST POP POP PUSH1 0x40 MLOAD PUSH3 0x269F DUP2 PUSH3 0x1AAB JUMP JUMPDEST PUSH1 0x3E DUP2 MSTORE PUSH32 0x494E56414C49445F434F4E54524143545F4944202D20436F6E74726163742049 PUSH1 0x20 DUP3 ADD MSTORE PUSH32 0x4420697320696E76616C6964206F7220646F6573206E6F742065786973740000 PUSH1 0x40 DUP3 ADD MSTORE SWAP1 JUMP JUMPDEST POP POP PUSH1 0x40 MLOAD PUSH3 0x2702 DUP2 PUSH3 0x1AAB JUMP JUMPDEST PUSH1 0x3C DUP2 MSTORE PUSH32 0x494E56414C49445F4143434F554E545F4944202D204163636F756E7420494420 PUSH1 0x20 DUP3 ADD MSTORE PUSH32 0x697320696E76616C6964206F7220646F6573206E6F7420657869737400000000 PUSH1 0x40 DUP3 ADD MSTORE SWAP1 JUMP JUMPDEST POP POP PUSH1 0x40 MLOAD PUSH3 0x2765 DUP2 PUSH3 0x1AAB JUMP JUMPDEST PUSH1 0x34 DUP2 MSTORE PUSH32 0x494E56414C49445F5349474E4154555245202D205472616E73616374696F6E20 PUSH1 0x20 DUP3 ADD MSTORE PUSH20 0x1CDA59DB985D1D5C99481A5CC81A5B9D985B1A59 PUSH1 0x62 SHL PUSH1 0x40 DUP3 ADD MSTORE SWAP1 JUMP JUMPDEST POP POP PUSH1 0x40 MLOAD PUSH3 0x27BF DUP2 PUSH3 0x1AAB JUMP JUMPDEST PUSH1 0x40 DUP2 MSTORE PUSH32 0x494E53554646494349454E545F50415945525F42414C414E4345202D20506179 PUSH1 0x20 DUP3 ADD MSTORE PUSH32 0x6572206163636F756E742068617320696E73756666696369656E742048424152 PUSH1 0x40 DUP3 ADD MSTORE SWAP1 JUMP JUMPDEST POP POP PUSH1 0x40 MLOAD PUSH3 0x2822 DUP2 PUSH3 0x1AAB JUMP JUMPDEST PUSH1 0x31 DUP2 MSTORE PUSH32 0x494E53554646494349454E545F54585F464545202D204E6F7420656E6F756768 PUSH1 0x20 DUP3 ADD MSTORE PUSH17 0x819D85CCBD99959481C1C9BDD9A591959 PUSH1 0x7A SHL PUSH1 0x40 DUP3 ADD MSTORE SWAP1 JUMP JUMPDEST POP POP PUSH1 0x40 MLOAD PUSH3 0x2879 DUP2 PUSH3 0x1A3B JUMP JUMPDEST PUSH1 0x7 DUP2 MSTORE PUSH7 0x53554343455353 PUSH1 0xC8 SHL PUSH1 0x20 DUP3 ADD MSTORE SWAP1 JUMP JUMPDEST DUP1 ISZERO PUSH3 0x2968 JUMPI DUP1 DUP2 PUSH1 0x0 SWAP3 JUMPDEST PUSH3 0x294E JUMPI POP PUSH3 0x28AE DUP3 PUSH3 0x1AE9 JUMP JUMPDEST SWAP2 PUSH3 0x28BE PUSH1 0x40 MLOAD SWAP4 DUP5 PUSH3 0x1AC7 JUMP JUMPDEST DUP1 DUP4 MSTORE DUP2 PUSH1 0x1F NOT PUSH3 0x28D0 DUP4 PUSH3 0x1AE9 JUMP JUMPDEST ADD SWAP2 PUSH1 0x20 SWAP3 CALLDATASIZE DUP5 DUP8 ADD CALLDATACOPY SWAP3 JUMPDEST PUSH3 0x28E7 JUMPI POP POP POP SWAP1 JUMP JUMPDEST PUSH1 0x0 NOT DUP4 ADD SWAP3 DUP4 GT PUSH3 0x10C3 JUMPI DUP3 PUSH1 0xA SWAP2 DUP3 DUP2 DIV SWAP3 DUP1 DUP5 MUL SWAP1 DUP5 DUP3 DIV EQ DUP5 ISZERO OR ISZERO PUSH3 0x10C3 JUMPI DUP2 SUB SWAP1 DUP2 GT PUSH3 0x10C3 JUMPI PUSH1 0xFF DUP1 SWAP2 AND PUSH1 0x30 ADD SWAP1 DUP2 GT PUSH3 0x10C3 JUMPI DUP6 MLOAD DUP3 LT ISZERO PUSH3 0x1A25 JUMPI PUSH1 0xF8 SHL PUSH1 0x1 PUSH1 0x1 PUSH1 0xF8 SHL SUB NOT AND PUSH1 0x0 BYTE SWAP1 DUP6 ADD DUP4 ADD MSTORE8 DUP1 PUSH3 0x28DC JUMP JUMPDEST SWAP2 PUSH1 0x0 NOT DUP2 EQ PUSH3 0x10C3 JUMPI PUSH1 0x1 PUSH1 0xA SWAP2 ADD SWAP3 DIV DUP1 PUSH3 0x289D JUMP JUMPDEST POP PUSH1 0x40 MLOAD PUSH3 0x2977 DUP2 PUSH3 0x1A3B JUMP JUMPDEST PUSH1 0x1 DUP2 MSTORE PUSH1 0x3 PUSH1 0xFC SHL PUSH1 0x20 DUP3 ADD MSTORE SWAP1 JUMP JUMPDEST RETURNDATASIZE ISZERO PUSH3 0x29B8 JUMPI RETURNDATASIZE SWAP1 PUSH3 0x299C DUP3 PUSH3 0x1AE9 JUMP JUMPDEST SWAP2 PUSH3 0x29AC PUSH1 0x40 MLOAD SWAP4 DUP5 PUSH3 0x1AC7 JUMP JUMPDEST DUP3 MSTORE RETURNDATASIZE PUSH1 0x0 PUSH1 0x20 DUP5 ADD RETURNDATACOPY JUMP JUMPDEST PUSH1 0x60 SWAP1 JUMP JUMPDEST MLOAD SWAP1 DUP2 PUSH1 0x3 SIGNEXTEND DUP3 SUB PUSH3 0x1CD JUMPI JUMP JUMPDEST MLOAD SWAP1 DUP2 PUSH1 0x7 SIGNEXTEND DUP3 SUB PUSH3 0x1CD JUMPI JUMP JUMPDEST PUSH3 0x29E5 PUSH3 0x1CBF JUMP JUMPDEST POP PUSH1 0x4 PUSH1 0x0 MSTORE PUSH1 0x1 PUSH1 0x20 MSTORE PUSH32 0xEDC95719E9A3B28DD8E80877CB5880A9BE7DE1A13FC8B05E7999683B6B567643 SLOAD SWAP1 PUSH3 0x2A1D PUSH3 0x1C82 JUMP JUMPDEST PUSH1 0x1 PUSH1 0x1 PUSH1 0xA0 SHL SUB SWAP1 SWAP2 AND PUSH1 0x20 DUP3 ADD MSTORE PUSH1 0x40 MLOAD SWAP2 PUSH3 0x2A3C DUP4 PUSH3 0x1A3B JUMP JUMPDEST DUP3 MSTORE PUSH1 0x20 DUP3 ADD MSTORE SWAP1 JUMP INVALID PUSH2 0x100 CALLVALUE PUSH3 0x2C7 JUMPI PUSH1 0x1F PUSH3 0x3586 CODESIZE DUP2 SWAP1 SUB SWAP2 DUP3 ADD PUSH1 0x1F NOT AND DUP4 ADD SWAP3 SWAP2 SWAP1 PUSH1 0x1 PUSH1 0x1 PUSH1 0x40 SHL SUB DUP5 GT DUP4 DUP6 LT OR PUSH3 0x2CC JUMPI DUP2 PUSH1 0x80 SWAP3 DUP5 SWAP3 PUSH1 0x40 SWAP7 DUP8 MSTORE DUP4 CODECOPY DUP2 ADD SUB SLT PUSH3 0x2C7 JUMPI PUSH3 0x52 DUP2 PUSH3 0x2E2 JUMP JUMPDEST SWAP1 PUSH1 0x20 SWAP2 PUSH3 0x63 DUP4 DUP4 ADD PUSH3 0x2E2 JUMP JUMPDEST SWAP1 PUSH3 0x7F PUSH1 0x60 PUSH3 0x77 DUP8 DUP7 ADD PUSH3 0x2E2 JUMP JUMPDEST SWAP5 ADD PUSH3 0x2E2 JUMP JUMPDEST SWAP4 PUSH1 0x1 PUSH1 0x1 PUSH1 0xA0 SHL SUB DUP3 DUP2 AND DUP1 ISZERO PUSH3 0x2AF JUMPI PUSH1 0x0 DUP1 SLOAD PUSH1 0x1 PUSH1 0x1 PUSH1 0xA0 SHL SUB NOT DUP2 AND DUP4 OR DUP3 SSTORE DUP10 SWAP3 DUP4 SWAP3 SWAP2 DUP6 AND PUSH32 0x8BE0079C531659141344CD1FD0A4F28419497F9722A3DAAFE3B4186F6B6457E0 DUP4 DUP1 LOG3 PUSH1 0x1 DUP1 SSTORE PUSH2 0x100 PUSH1 0x1 PUSH1 0xA8 SHL SUB NOT PUSH1 0x2 SLOAD AND PUSH1 0x2 SSTORE DUP1 DUP1 MSTORE PUSH1 0x3 DUP6 MSTORE PUSH1 0x1 DUP3 DUP3 KECCAK256 SSTORE PUSH1 0x1 DUP2 MSTORE PUSH1 0x2 DUP3 DUP3 KECCAK256 SSTORE PUSH1 0x2 DUP2 MSTORE PUSH1 0x4 DUP3 DUP3 KECCAK256 SSTORE PUSH1 0x3 DUP2 MSTORE PUSH1 0x8 DUP3 DUP3 KECCAK256 SSTORE PUSH1 0x4 DUP2 MSTORE PUSH1 0x10 DUP3 DUP3 KECCAK256 SSTORE PUSH1 0x5 DUP2 MSTORE DUP5 DUP3 DUP3 KECCAK256 SSTORE PUSH1 0x6 DUP2 MSTORE KECCAK256 SSTORE DUP1 DUP5 AND ISZERO PUSH3 0x26B JUMPI DUP1 DUP6 AND ISZERO PUSH3 0x227 JUMPI DUP6 AND ISZERO PUSH3 0x1E4 JUMPI POP PUSH1 0x80 MSTORE PUSH1 0xA0 MSTORE PUSH1 0xC0 MSTORE PUSH1 0xE0 MSTORE MLOAD PUSH2 0x328E SWAP1 DUP2 PUSH3 0x2F8 DUP3 CODECOPY PUSH1 0x80 MLOAD DUP2 DUP2 DUP2 PUSH2 0x36E ADD MSTORE DUP2 DUP2 PUSH2 0x76C ADD MSTORE DUP2 DUP2 PUSH2 0xA0F ADD MSTORE DUP2 DUP2 PUSH2 0x1297 ADD MSTORE DUP2 DUP2 PUSH2 0x1711 ADD MSTORE PUSH2 0x2171 ADD MSTORE PUSH1 0xA0 MLOAD DUP2 PUSH2 0x150B ADD MSTORE PUSH1 0xC0 MLOAD DUP2 DUP2 DUP2 PUSH2 0x90C ADD MSTORE DUP2 DUP2 PUSH2 0xCE8 ADD MSTORE DUP2 DUP2 PUSH2 0x11CC ADD MSTORE DUP2 DUP2 PUSH2 0x168A ADD MSTORE DUP2 DUP2 PUSH2 0x1A64 ADD MSTORE DUP2 DUP2 PUSH2 0x20A0 ADD MSTORE DUP2 DUP2 PUSH2 0x2409 ADD MSTORE PUSH2 0x24A6 ADD MSTORE PUSH1 0xE0 MLOAD DUP2 DUP2 DUP2 PUSH2 0xE78 ADD MSTORE DUP2 DUP2 PUSH2 0x1A99 ADD MSTORE PUSH2 0x1BCD ADD MSTORE RETURN JUMPDEST PUSH1 0x64 SWAP1 DUP7 MLOAD SWAP1 PUSH3 0x461BCD PUSH1 0xE5 SHL DUP3 MSTORE PUSH1 0x4 DUP3 ADD MSTORE PUSH1 0x1A PUSH1 0x24 DUP3 ADD MSTORE PUSH32 0x496E76616C6964204643445220746F6B656E2061646472657373000000000000 PUSH1 0x44 DUP3 ADD MSTORE REVERT JUMPDEST DUP7 MLOAD PUSH3 0x461BCD PUSH1 0xE5 SHL DUP2 MSTORE PUSH1 0x4 DUP2 ADD DUP4 SWAP1 MSTORE PUSH1 0x1A PUSH1 0x24 DUP3 ADD MSTORE PUSH32 0x496E76616C69642043534C5020746F6B656E2061646472657373000000000000 PUSH1 0x44 DUP3 ADD MSTORE PUSH1 0x64 SWAP1 REVERT JUMPDEST DUP7 MLOAD PUSH3 0x461BCD PUSH1 0xE5 SHL DUP2 MSTORE PUSH1 0x4 DUP2 ADD DUP4 SWAP1 MSTORE PUSH1 0x19 PUSH1 0x24 DUP3 ADD MSTORE PUSH32 0x496E76616C696420706F6F6C2075736572206164647265737300000000000000 PUSH1 0x44 DUP3 ADD MSTORE PUSH1 0x64 SWAP1 REVERT JUMPDEST DUP8 MLOAD PUSH4 0x1E4FBDF7 PUSH1 0xE0 SHL DUP2 MSTORE PUSH1 0x0 PUSH1 0x4 DUP3 ADD MSTORE PUSH1 0x24 SWAP1 REVERT JUMPDEST PUSH1 0x0 DUP1 REVERT JUMPDEST PUSH4 0x4E487B71 PUSH1 0xE0 SHL PUSH1 0x0 MSTORE PUSH1 0x41 PUSH1 0x4 MSTORE PUSH1 0x24 PUSH1 0x0 REVERT JUMPDEST MLOAD SWAP1 PUSH1 0x1 PUSH1 0x1 PUSH1 0xA0 SHL SUB DUP3 AND DUP3 SUB PUSH3 0x2C7 JUMPI JUMP INVALID PUSH1 0x80 PUSH1 0x40 SWAP1 DUP1 DUP3 MSTORE PUSH1 0x4 SWAP1 DUP2 CALLDATASIZE LT ISZERO PUSH2 0x53 JUMPI JUMPDEST POP CALLDATASIZE ISZERO PUSH2 0x51 JUMPI PUSH1 0x20 PUSH1 0x64 SWAP3 MLOAD SWAP2 PUSH3 0x461BCD PUSH1 0xE5 SHL DUP4 MSTORE DUP3 ADD MSTORE PUSH1 0x12 PUSH1 0x24 DUP3 ADD MSTORE PUSH18 0x119D5B98DD1A5BDB881B9BDD08199BDD5B99 PUSH1 0x72 SHL PUSH1 0x44 DUP3 ADD MSTORE REVERT JUMPDEST STOP JUMPDEST PUSH1 0x0 SWAP1 DUP2 CALLDATALOAD PUSH1 0xE0 SHR SWAP1 DUP2 PUSH4 0xA5579D1 EQ PUSH2 0x1BB9 JUMPI POP DUP1 PUSH4 0x10CA0BCE EQ PUSH2 0x1A48 JUMPI DUP1 PUSH4 0x15DACBEA EQ PUSH2 0x19EB JUMPI DUP1 PUSH4 0x1CF2E698 EQ PUSH2 0x1977 JUMPI DUP1 PUSH4 0x21B77D63 EQ PUSH2 0x1959 JUMPI DUP1 PUSH4 0x240F1B62 EQ PUSH2 0x188B JUMPI DUP1 PUSH4 0x250E6DE0 EQ PUSH2 0x165B JUMPI DUP1 PUSH4 0x28999437 EQ PUSH2 0x163C JUMPI DUP1 PUSH4 0x2FB9125D EQ PUSH2 0x161F JUMPI DUP1 PUSH4 0x32ACF78B EQ PUSH2 0x8C0 JUMPI DUP1 PUSH4 0x34111BBF EQ PUSH2 0x15FE JUMPI DUP1 PUSH4 0x3474D1F9 EQ PUSH2 0x1596 JUMPI DUP1 PUSH4 0x38B37D1C EQ PUSH2 0x153A JUMPI DUP1 PUSH4 0x3E7E516A EQ PUSH2 0x14F6 JUMPI DUP1 PUSH4 0x3F4BA83A EQ PUSH2 0x149E JUMPI DUP1 PUSH4 0x42C649DE EQ PUSH2 0x147D JUMPI DUP1 PUSH4 0x4DDD1C54 EQ PUSH2 0x13BC JUMPI DUP1 PUSH4 0x545466A5 EQ PUSH2 0x119E JUMPI DUP1 PUSH4 0x5962A941 EQ PUSH2 0x314 JUMPI DUP1 PUSH4 0x5C975ABB EQ PUSH2 0x117A JUMPI DUP1 PUSH4 0x60246C88 EQ PUSH2 0x114A JUMPI DUP1 PUSH4 0x618DC65E EQ PUSH2 0x100A JUMPI DUP1 PUSH4 0x715018A6 EQ PUSH2 0xFB0 JUMPI DUP1 PUSH4 0x734C79B6 EQ PUSH2 0xDE2 JUMPI DUP1 PUSH4 0x7D56BE3C EQ PUSH2 0xD9A JUMPI DUP1 PUSH4 0x8456CB59 EQ PUSH2 0xD3F JUMPI DUP1 PUSH4 0x8DA5CB5B EQ PUSH2 0xD17 JUMPI DUP1 PUSH4 0x9827D473 EQ PUSH2 0xCD3 JUMPI DUP1 PUSH4 0x9B23D3D9 EQ PUSH2 0xC2B JUMPI DUP1 PUSH4 0x9D7DE6B3 EQ PUSH2 0x8DF JUMPI DUP1 PUSH4 0xA7112EFE EQ PUSH2 0x8C0 JUMPI DUP1 PUSH4 0xA78C849B EQ PUSH2 0x899 JUMPI DUP1 PUSH4 0xAEBF3E41 EQ PUSH2 0x85E JUMPI DUP1 PUSH4 0xB79C41A2 EQ PUSH2 0x83B JUMPI DUP1 PUSH4 0xBBBAEE4C EQ PUSH2 0x7F7 JUMPI DUP1 PUSH4 0xBE591129 EQ PUSH2 0x7B7 JUMPI DUP1 PUSH4 0xBF333F2C EQ PUSH2 0x79B JUMPI DUP1 PUSH4 0xC45A0155 EQ PUSH2 0x757 JUMPI DUP1 PUSH4 0xC6E5D8F6 EQ PUSH2 0x6D5 JUMPI DUP1 PUSH4 0xCF2C0334 EQ PUSH2 0x67C JUMPI DUP1 PUSH4 0xD4C3EEA0 EQ PUSH2 0x65D JUMPI DUP1 PUSH4 0xD73792A9 EQ PUSH2 0x640 JUMPI DUP1 PUSH4 0xDB2E21BC EQ PUSH2 0x576 JUMPI DUP1 PUSH4 0xE7834029 EQ PUSH2 0x333 JUMPI DUP1 PUSH4 0xEA04F155 EQ PUSH2 0x314 JUMPI DUP1 PUSH4 0xEF6283D9 EQ PUSH2 0x2F1 JUMPI PUSH4 0xF2FDE38B SUB PUSH2 0x13 JUMPI SWAP2 SWAP1 CALLVALUE PUSH2 0x2ED JUMPI PUSH1 0x20 CALLDATASIZE PUSH1 0x3 NOT ADD SLT PUSH2 0x2ED JUMPI PUSH2 0x27C PUSH2 0x1BFC JUMP JUMPDEST SWAP1 PUSH2 0x285 PUSH2 0x1E26 JUMP JUMPDEST PUSH1 0x1 PUSH1 0x1 PUSH1 0xA0 SHL SUB SWAP2 DUP3 AND SWAP3 DUP4 ISZERO PUSH2 0x2D7 JUMPI POP POP PUSH1 0x0 SLOAD DUP3 PUSH1 0x1 PUSH1 0x1 PUSH1 0x60 SHL SUB PUSH1 0xA0 SHL DUP3 AND OR PUSH1 0x0 SSTORE AND PUSH32 0x8BE0079C531659141344CD1FD0A4F28419497F9722A3DAAFE3B4186F6B6457E0 PUSH1 0x0 DUP1 LOG3 DUP1 RETURN JUMPDEST MLOAD PUSH4 0x1E4FBDF7 PUSH1 0xE0 SHL DUP2 MSTORE SWAP1 DUP2 ADD DUP5 SWAP1 MSTORE PUSH1 0x24 SWAP1 REVERT JUMPDEST DUP3 DUP1 REVERT JUMPDEST POP DUP3 CALLVALUE PUSH2 0x310 JUMPI DUP2 PUSH1 0x3 NOT CALLDATASIZE ADD SLT PUSH2 0x310 JUMPI PUSH1 0x20 SWAP1 PUSH1 0x5 SLOAD SWAP1 MLOAD SWAP1 DUP2 MSTORE RETURN JUMPDEST POP DUP1 REVERT JUMPDEST POP DUP3 CALLVALUE PUSH2 0x310 JUMPI DUP2 PUSH1 0x3 NOT CALLDATASIZE ADD SLT PUSH2 0x310 JUMPI PUSH1 0x20 SWAP1 PUSH1 0x9 SLOAD SWAP1 MLOAD SWAP1 DUP2 MSTORE RETURN JUMPDEST POP SWAP2 CALLVALUE PUSH2 0x2ED JUMPI DUP3 PUSH1 0x3 NOT CALLDATASIZE ADD SLT PUSH2 0x2ED JUMPI PUSH2 0x34D PUSH2 0x1E26 JUMP JUMPDEST PUSH2 0x355 PUSH2 0x310F JUMP JUMPDEST SELFBALANCE SWAP2 PUSH2 0x362 DUP4 ISZERO ISZERO PUSH2 0x312E JUMP JUMPDEST PUSH1 0x1 PUSH1 0x1 PUSH1 0xA0 SHL SUB SWAP1 DUP5 PUSH32 0x0 DUP4 AND DUP1 EXTCODESIZE ISZERO PUSH2 0x310 JUMPI DUP2 DUP1 SWAP2 PUSH1 0x24 DUP8 MLOAD DUP1 SWAP5 DUP2 SWAP4 PUSH4 0x272B2613 PUSH1 0xE2 SHL DUP4 MSTORE ADDRESS DUP10 DUP5 ADD MSTORE GAS CALL DUP1 ISZERO PUSH2 0x56C JUMPI PUSH2 0x554 JUMPI JUMPDEST POP DUP3 SWAP1 SLOAD AND DUP2 PUSH1 0xC SLOAD DUP6 MLOAD SWAP3 PUSH2 0x3D2 DUP5 PUSH2 0x1CD7 JUMP JUMPDEST DUP8 DUP5 MSTORE PUSH1 0x20 DUP5 ADD SWAP1 TIMESTAMP DUP3 MSTORE DUP8 DUP6 ADD SWAP1 DUP2 MSTORE PUSH1 0x60 DUP6 ADD SWAP2 ADDRESS DUP4 MSTORE PUSH1 0x80 DUP7 ADD SWAP4 DUP1 DUP6 MSTORE DUP12 MSTORE PUSH1 0xA PUSH1 0x20 MSTORE DUP9 DUP12 KECCAK256 SWAP6 MLOAD DUP7 SSTORE MLOAD PUSH1 0x1 DUP7 ADD SSTORE DUP7 PUSH1 0x2 DUP7 ADD SWAP2 MLOAD AND SWAP1 PUSH1 0x1 PUSH1 0x1 PUSH1 0x60 SHL SUB PUSH1 0xA0 SHL SWAP2 DUP3 DUP3 SLOAD AND OR SWAP1 SSTORE DUP7 PUSH1 0x3 DUP7 ADD SWAP3 MLOAD AND SWAP1 DUP3 SLOAD AND OR SWAP1 SSTORE MLOAD SWAP2 ADD SSTORE DUP2 DUP6 SLOAD AND DUP6 MSTORE PUSH1 0xB PUSH1 0x20 MSTORE PUSH2 0x450 DUP4 DUP7 KECCAK256 PUSH1 0xC SLOAD SWAP1 PUSH2 0x1FE6 JUMP JUMPDEST PUSH2 0x45B PUSH1 0xC SLOAD PUSH2 0x2020 JUMP JUMPDEST DUP1 PUSH1 0xC SSTORE DUP3 DUP7 SLOAD AND SWAP1 PUSH1 0x0 NOT DUP2 ADD SWAP1 DUP2 GT PUSH2 0x541 JUMPI DUP7 DUP1 DUP8 DUP5 DUP3 SWAP6 PUSH32 0xB5D1185F9EB3BC9F64976A0642FA385671626DF86E9AECD91BCDA7206B045666 PUSH2 0x4BB DUP6 SWAP8 DUP13 MLOAD SWAP2 DUP3 SWAP2 DUP8 TIMESTAMP SWAP2 DUP5 PUSH1 0x40 SWAP2 SWAP5 SWAP4 SWAP3 PUSH1 0x60 DUP3 ADD SWAP6 DUP3 MSTORE PUSH1 0x20 DUP3 ADD MSTORE ADD MSTORE JUMP JUMPDEST SUB SWAP1 LOG2 GAS CALL PUSH2 0x4C8 PUSH2 0x2362 JUMP JUMPDEST POP ISZERO PUSH2 0x505 JUMPI POP SWAP1 PUSH32 0x2E4FB6077D4ACF86E12BB7411FB82B2B3EAA6A49787F4B1E17B423E7EA841169 SWAP2 DUP5 SLOAD AND SWAP3 DUP2 MLOAD SWAP1 DUP2 MSTORE TIMESTAMP PUSH1 0x20 DUP3 ADD MSTORE LOG2 DUP1 RETURN JUMPDEST PUSH1 0x64 SWAP1 PUSH1 0x20 DUP5 MLOAD SWAP2 PUSH3 0x461BCD PUSH1 0xE5 SHL DUP4 MSTORE DUP3 ADD MSTORE PUSH1 0x16 PUSH1 0x24 DUP3 ADD MSTORE PUSH22 0x12109054881DDA5D1A191C985DD85B0819985A5B1959 PUSH1 0x52 SHL PUSH1 0x44 DUP3 ADD MSTORE REVERT JUMPDEST PUSH4 0x4E487B71 PUSH1 0xE0 SHL DUP8 MSTORE PUSH1 0x11 DUP4 MSTORE PUSH1 0x24 DUP8 REVERT JUMPDEST PUSH2 0x55D SWAP1 PUSH2 0x1CC4 JUMP JUMPDEST PUSH2 0x568 JUMPI DUP5 CODESIZE PUSH2 0x3BD JUMP JUMPDEST DUP5 DUP1 REVERT JUMPDEST DUP6 MLOAD RETURNDATASIZE DUP5 DUP3 RETURNDATACOPY RETURNDATASIZE SWAP1 REVERT JUMPDEST POP SWAP2 CALLVALUE PUSH2 0x2ED JUMPI DUP3 PUSH1 0x3 NOT CALLDATASIZE ADD SLT PUSH2 0x2ED JUMPI PUSH2 0x590 PUSH2 0x1E26 JUMP JUMPDEST PUSH2 0x598 PUSH2 0x310F JUMP JUMPDEST SELFBALANCE SWAP2 PUSH2 0x5A5 DUP4 ISZERO ISZERO PUSH2 0x312E JUMP JUMPDEST PUSH1 0x1 DUP1 PUSH1 0xA0 SHL SUB SWAP1 DUP5 DUP1 DUP1 DUP1 DUP8 DUP7 DUP3 SLOAD AND GAS CALL PUSH2 0x5C0 PUSH2 0x2362 JUMP JUMPDEST POP ISZERO PUSH2 0x5FD JUMPI POP SWAP1 PUSH32 0x2E4FB6077D4ACF86E12BB7411FB82B2B3EAA6A49787F4B1E17B423E7EA841169 SWAP2 DUP5 SLOAD AND SWAP3 DUP2 MLOAD SWAP1 DUP2 MSTORE TIMESTAMP PUSH1 0x20 DUP3 ADD MSTORE LOG2 DUP1 RETURN JUMPDEST PUSH1 0x64 SWAP1 PUSH1 0x20 DUP5 MLOAD SWAP2 PUSH3 0x461BCD PUSH1 0xE5 SHL DUP4 MSTORE DUP3 ADD MSTORE PUSH1 0x1B PUSH1 0x24 DUP3 ADD MSTORE PUSH32 0x456D657267656E6379207769746864726177616C206661696C65640000000000 PUSH1 0x44 DUP3 ADD MSTORE REVERT JUMPDEST POP DUP3 CALLVALUE PUSH2 0x310 JUMPI DUP2 PUSH1 0x3 NOT CALLDATASIZE ADD SLT PUSH2 0x310 JUMPI PUSH1 0x20 SWAP1 MLOAD PUSH2 0x2710 DUP2 MSTORE RETURN JUMPDEST POP DUP3 CALLVALUE PUSH2 0x310 JUMPI DUP2 PUSH1 0x3 NOT CALLDATASIZE ADD SLT PUSH2 0x310 JUMPI PUSH1 0x20 SWAP1 PUSH1 0x6 SLOAD SWAP1 MLOAD SWAP1 DUP2 MSTORE RETURN JUMPDEST POP DUP3 CALLVALUE PUSH2 0x310 JUMPI DUP1 PUSH1 0x3 NOT CALLDATASIZE ADD SLT PUSH2 0x310 JUMPI PUSH2 0x696 PUSH2 0x1BFC JUMP JUMPDEST PUSH1 0x1 PUSH1 0x1 PUSH1 0xA0 SHL SUB AND DUP3 MSTORE PUSH1 0x8 PUSH1 0x20 MSTORE DUP1 DUP3 KECCAK256 DUP1 SLOAD PUSH1 0x24 CALLDATALOAD SWAP4 SWAP1 DUP5 LT ISZERO PUSH2 0x6D2 JUMPI POP PUSH1 0x20 SWAP3 PUSH2 0x6C4 SWAP2 PUSH2 0x1DE2 JUMP JUMPDEST SWAP2 SWAP1 SLOAD SWAP1 MLOAD SWAP2 PUSH1 0x3 SHL SHR DUP2 MSTORE RETURN JUMPDEST DUP1 REVERT JUMPDEST POP DUP3 CALLVALUE PUSH2 0x310 JUMPI PUSH1 0x20 SWAP1 DUP2 PUSH1 0x3 NOT CALLDATASIZE ADD SLT PUSH2 0x2ED JUMPI PUSH1 0x1 PUSH1 0x1 PUSH1 0xA0 SHL SUB PUSH2 0x6FA PUSH2 0x1BFC JUMP JUMPDEST AND DUP4 MSTORE PUSH1 0x8 DUP3 MSTORE DUP1 DUP4 KECCAK256 SWAP3 DUP2 MLOAD DUP1 SWAP4 DUP1 DUP7 SLOAD SWAP3 DUP4 DUP2 MSTORE ADD SWAP6 DUP4 MSTORE DUP1 DUP4 KECCAK256 SWAP3 SWAP1 JUMPDEST DUP3 DUP3 LT PUSH2 0x740 JUMPI PUSH2 0x73C DUP7 DUP7 PUSH2 0x732 DUP3 DUP12 SUB DUP4 PUSH2 0x1D5E JUMP JUMPDEST MLOAD SWAP2 DUP3 SWAP2 DUP3 PUSH2 0x1C58 JUMP JUMPDEST SUB SWAP1 RETURN JUMPDEST DUP4 SLOAD DUP8 MSTORE SWAP6 DUP7 ADD SWAP6 PUSH1 0x1 SWAP4 DUP5 ADD SWAP4 SWAP1 SWAP2 ADD SWAP1 PUSH2 0x71A JUMP JUMPDEST POP DUP3 CALLVALUE PUSH2 0x310 JUMPI DUP2 PUSH1 0x3 NOT CALLDATASIZE ADD SLT PUSH2 0x310 JUMPI MLOAD PUSH32 0x0 PUSH1 0x1 PUSH1 0x1 PUSH1 0xA0 SHL SUB AND DUP2 MSTORE PUSH1 0x20 SWAP1 RETURN JUMPDEST POP DUP3 CALLVALUE PUSH2 0x310 JUMPI DUP2 PUSH1 0x3 NOT CALLDATASIZE ADD SLT PUSH2 0x310 JUMPI PUSH1 0x20 SWAP1 MLOAD PUSH1 0x1E DUP2 MSTORE RETURN JUMPDEST POP SWAP2 SWAP1 CALLVALUE PUSH2 0x2ED JUMPI PUSH1 0x20 CALLDATASIZE PUSH1 0x3 NOT ADD SLT PUSH2 0x2ED JUMPI CALLDATALOAD SWAP2 DUP3 PUSH1 0x3 SIGNEXTEND DUP4 SUB PUSH2 0x6D2 JUMPI POP PUSH2 0x7E4 PUSH2 0x73C SWAP3 PUSH2 0x2502 JUMP JUMPDEST SWAP1 MLOAD SWAP2 DUP3 SWAP2 PUSH1 0x20 DUP4 MSTORE PUSH1 0x20 DUP4 ADD SWAP1 PUSH2 0x1DBD JUMP JUMPDEST POP DUP3 CALLVALUE PUSH2 0x310 JUMPI PUSH1 0x20 CALLDATASIZE PUSH1 0x3 NOT ADD SLT PUSH2 0x310 JUMPI PUSH2 0x73C SWAP1 PUSH2 0x816 PUSH2 0x1BFC JUMP JUMPDEST POP PUSH2 0x81F PUSH2 0x2407 JUMP JUMPDEST SWAP3 MLOAD SWAP2 DUP3 MSTORE PUSH1 0x20 DUP3 ADD MSTORE PUSH1 0x40 DUP2 ADD SWAP2 SWAP1 SWAP2 MSTORE SWAP1 DUP2 SWAP1 PUSH1 0x60 DUP3 ADD SWAP1 JUMP JUMPDEST POP DUP3 CALLVALUE PUSH2 0x310 JUMPI PUSH1 0x20 SWAP1 PUSH2 0x857 PUSH2 0x851 CALLDATASIZE PUSH2 0x1E10 JUMP JUMPDEST SWAP1 PUSH2 0x23BC JUMP JUMPDEST SWAP1 MLOAD SWAP1 DUP2 MSTORE RETURN JUMPDEST POP SWAP1 PUSH1 0x80 CALLDATASIZE PUSH1 0x3 NOT ADD SLT PUSH2 0x310 JUMPI PUSH2 0x892 SWAP1 PUSH2 0x878 PUSH2 0x1ED1 JUMP JUMPDEST PUSH2 0x880 PUSH2 0x1EB3 JUMP JUMPDEST PUSH1 0x64 CALLDATALOAD SWAP1 PUSH1 0x44 CALLDATALOAD SWAP1 PUSH1 0x24 CALLDATALOAD SWAP1 CALLDATALOAD PUSH2 0x2092 JUMP JUMPDEST PUSH1 0x1 DUP1 SSTORE DUP1 RETURN JUMPDEST POP DUP3 CALLVALUE PUSH2 0x310 JUMPI PUSH1 0x20 CALLDATASIZE PUSH1 0x3 NOT ADD SLT PUSH2 0x310 JUMPI PUSH1 0x20 SWAP1 PUSH2 0x8B7 PUSH2 0x1BFC JUMP JUMPDEST POP PUSH2 0x857 PUSH2 0x24A4 JUMP JUMPDEST POP DUP3 CALLVALUE PUSH2 0x310 JUMPI DUP2 PUSH1 0x3 NOT CALLDATASIZE ADD SLT PUSH2 0x310 JUMPI PUSH1 0x20 SWAP1 PUSH1 0xC SLOAD SWAP1 MLOAD SWAP1 DUP2 MSTORE RETURN JUMPDEST POP SWAP2 CALLVALUE PUSH2 0x2ED JUMPI PUSH2 0x8EF CALLDATASIZE PUSH2 0x1E10 JUMP JUMPDEST SWAP2 SWAP1 SWAP3 PUSH2 0x8FA PUSH2 0x1ED1 JUMP JUMPDEST PUSH2 0x902 PUSH2 0x1EB3 JUMP JUMPDEST PUSH1 0x1 PUSH1 0x1 PUSH1 0xA0 SHL SUB PUSH32 0x0 DUP2 AND PUSH2 0x938 DUP2 ISZERO ISZERO PUSH2 0x1E52 JUMP JUMPDEST DUP6 ISZERO PUSH2 0xBEF JUMPI PUSH1 0x5 SLOAD DUP1 ISZERO PUSH2 0xBB5 JUMPI DUP4 SLOAD PUSH2 0x968 PUSH2 0x95F DUP4 PUSH2 0x95A DUP5 DUP13 PUSH2 0x2342 JUMP JUMPDEST PUSH2 0x1E93 JUMP JUMPDEST SWAP8 DUP9 LT ISZERO PUSH2 0x2052 JUMP JUMPDEST SELFBALANCE DUP8 GT PUSH2 0xB72 JUMPI PUSH2 0x985 SWAP2 PUSH2 0x97E DUP9 DUP11 SWAP4 PUSH2 0x2355 JUMP JUMPDEST DUP7 SSTORE PUSH2 0x2355 JUMP JUMPDEST PUSH1 0x5 SSTORE PUSH2 0x994 DUP6 PUSH1 0x6 SLOAD PUSH2 0x2355 JUMP JUMPDEST PUSH1 0x6 SSTORE PUSH1 0x7 SWAP2 DUP8 PUSH1 0x1 PUSH1 0x1 PUSH1 0x40 SHL SUB DUP9 AND DUP5 SIGNEXTEND SWAP2 DUP4 DUP8 MLOAD PUSH2 0x9B4 DUP2 PUSH2 0x1CF2 JUMP JUMPDEST DUP4 DUP2 MSTORE DUP9 MLOAD SWAP1 DUP10 DUP3 ADD SWAP8 DUP7 DUP4 MSTORE PUSH1 0x20 SWAP9 DUP12 DUP11 DUP6 ADD MSTORE DUP3 MLOAD DUP1 SWAP2 MSTORE DUP10 PUSH1 0x60 DUP6 ADD SWAP4 ADD SWAP2 DUP8 SWAP1 JUMPDEST DUP12 DUP4 DUP4 LT PUSH2 0xB4B JUMPI POP POP POP POP POP SWAP1 DUP1 PUSH32 0xB310AAAC57F9A89F4E3661E38CB8DF5EA9428B82D1BB2B8AB6A77C3F52818F02 SWAP3 SUB SWAP1 LOG2 PUSH32 0x0 AND DUP1 EXTCODESIZE ISZERO PUSH2 0x310 JUMPI DUP2 DUP1 SWAP2 PUSH1 0x24 DUP12 DUP11 MLOAD SWAP5 DUP6 SWAP4 DUP5 SWAP3 PUSH4 0x1FE4FF29 PUSH1 0xE0 SHL DUP5 MSTORE DUP13 DUP5 ADD MSTORE GAS CALL DUP1 ISZERO PUSH2 0xB41 JUMPI SWAP1 DUP8 SWAP3 SWAP2 PUSH2 0xB26 JUMPI JUMPDEST POP POP PUSH32 0x7B2F31B2FFDA9D7A1AC640400C8F7EB1C8D0071689111F45797448A14697587C SWAP2 DUP2 MLOAD SWAP1 DUP2 MSTORE DUP10 DUP6 DUP3 ADD MSTORE LOG2 DUP6 DUP1 DUP1 DUP1 DUP8 CALLER GAS CALL PUSH2 0xAA1 PUSH2 0x2362 JUMP JUMPDEST POP ISZERO PUSH2 0xAEF JUMPI POP POP MLOAD SWAP1 DUP2 MSTORE PUSH1 0x20 DUP2 ADD SWAP2 SWAP1 SWAP2 MSTORE TIMESTAMP PUSH1 0x40 DUP3 ADD MSTORE CALLER SWAP1 PUSH32 0x1DC8BB69DF2B8E91FBDCBFCF93D951B3F0000F085A95FE3F7946D6161439245D SWAP1 DUP1 PUSH1 0x60 DUP2 ADD JUMPDEST SUB SWAP1 LOG2 PUSH1 0x1 DUP1 SSTORE DUP1 RETURN JUMPDEST PUSH1 0x64 SWAP3 MLOAD SWAP2 PUSH3 0x461BCD PUSH1 0xE5 SHL DUP4 MSTORE DUP3 ADD MSTORE PUSH1 0x14 PUSH1 0x24 DUP3 ADD MSTORE PUSH20 0x12109054881D1C985B9CD9995C8819985A5B1959 PUSH1 0x62 SHL PUSH1 0x44 DUP3 ADD MSTORE REVERT JUMPDEST PUSH2 0xB31 SWAP2 SWAP3 POP PUSH2 0x1CC4 JUMP JUMPDEST PUSH2 0xB3D JUMPI DUP5 DUP9 CODESIZE PUSH2 0xA62 JUMP JUMPDEST DUP8 DUP1 REVERT JUMPDEST DUP8 MLOAD RETURNDATASIZE DUP5 DUP3 RETURNDATACOPY RETURNDATASIZE SWAP1 REVERT JUMPDEST SWAP2 SWAP5 PUSH1 0x1 SWAP4 SWAP7 SWAP9 SWAP10 POP DUP5 DUP4 SWAP3 SWAP6 SWAP9 POP MLOAD DUP6 SIGNEXTEND DUP2 MSTORE ADD SWAP6 ADD SWAP3 ADD SWAP3 DUP15 SWAP7 SWAP6 SWAP4 DUP10 SWAP6 SWAP4 SWAP3 PUSH2 0x9D9 JUMP JUMPDEST DUP6 MLOAD PUSH3 0x461BCD PUSH1 0xE5 SHL DUP2 MSTORE PUSH1 0x20 DUP2 DUP8 ADD MSTORE PUSH1 0x19 PUSH1 0x24 DUP3 ADD MSTORE PUSH32 0x496E73756666696369656E74204842415220696E20706F6F6C00000000000000 PUSH1 0x44 DUP3 ADD MSTORE PUSH1 0x64 SWAP1 REVERT JUMPDEST DUP5 MLOAD PUSH3 0x461BCD PUSH1 0xE5 SHL DUP2 MSTORE PUSH1 0x20 DUP2 DUP7 ADD MSTORE PUSH1 0x14 PUSH1 0x24 DUP3 ADD MSTORE PUSH20 0x139BC81B1A5C5D5A591A5D1E481A5B881C1BDBDB PUSH1 0x62 SHL PUSH1 0x44 DUP3 ADD MSTORE PUSH1 0x64 SWAP1 REVERT JUMPDEST DUP4 MLOAD PUSH3 0x461BCD PUSH1 0xE5 SHL DUP2 MSTORE PUSH1 0x20 DUP2 DUP6 ADD MSTORE PUSH1 0x16 PUSH1 0x24 DUP3 ADD MSTORE PUSH22 0x139BC81314081D1BDAD95B9CC81CDC1958DA599A5959 PUSH1 0x52 SHL PUSH1 0x44 DUP3 ADD MSTORE PUSH1 0x64 SWAP1 REVERT JUMPDEST POP DUP3 CALLVALUE PUSH2 0x310 JUMPI DUP2 DUP1 PUSH1 0x20 SWAP4 PUSH2 0xC96 PUSH2 0xC88 PUSH2 0xC46 CALLDATASIZE PUSH2 0x1C17 JUMP JUMPDEST DUP10 MLOAD PUSH4 0x9B23D3D9 PUSH1 0xE0 SHL DUP13 DUP3 ADD SWAP1 DUP2 MSTORE PUSH1 0x1 PUSH1 0x1 PUSH1 0xA0 SHL SUB SWAP6 DUP7 AND PUSH1 0x24 DUP4 ADD MSTORE SWAP4 DUP6 AND PUSH1 0x44 DUP3 ADD MSTORE SWAP4 SWAP1 SWAP2 AND PUSH1 0x64 DUP5 ADD MSTORE PUSH1 0x84 DUP4 ADD MSTORE SWAP3 SWAP1 SWAP2 DUP3 SWAP1 PUSH1 0xA4 DUP3 ADD SWAP1 JUMP JUMPDEST SUB PUSH1 0x1F NOT DUP2 ADD DUP4 MSTORE DUP3 PUSH2 0x1D5E JUMP JUMPDEST MLOAD SWAP1 DUP3 PUSH2 0x167 GAS CALL PUSH2 0xCA6 PUSH2 0x2362 JUMP JUMPDEST SWAP2 POP ISZERO PUSH2 0xCCA JUMPI DUP1 DUP4 DUP1 PUSH2 0xCBF SWAP4 MLOAD DUP4 ADD ADD SWAP2 ADD PUSH2 0x31AE JUMP JUMPDEST SWAP1 JUMPDEST MLOAD SWAP1 PUSH1 0x3 SIGNEXTEND DUP2 MSTORE RETURN JUMPDEST POP PUSH1 0x15 SWAP1 PUSH2 0xCC1 JUMP JUMPDEST POP DUP3 CALLVALUE PUSH2 0x310 JUMPI DUP2 PUSH1 0x3 NOT CALLDATASIZE ADD SLT PUSH2 0x310 JUMPI MLOAD PUSH32 0x0 PUSH1 0x1 PUSH1 0x1 PUSH1 0xA0 SHL SUB AND DUP2 MSTORE PUSH1 0x20 SWAP1 RETURN JUMPDEST POP DUP3 CALLVALUE PUSH2 0x310 JUMPI DUP2 PUSH1 0x3 NOT CALLDATASIZE ADD SLT PUSH2 0x310 JUMPI SWAP1 SLOAD SWAP1 MLOAD PUSH1 0x1 PUSH1 0x1 PUSH1 0xA0 SHL SUB SWAP1 SWAP2 AND DUP2 MSTORE PUSH1 0x20 SWAP1 RETURN JUMPDEST POP DUP3 CALLVALUE PUSH2 0x310 JUMPI DUP2 PUSH1 0x3 NOT CALLDATASIZE ADD SLT PUSH2 0x310 JUMPI PUSH1 0x20 PUSH32 0x62E78CEA01BEE320CD4E420270B5EA74000D11B0C9F74754EBDBFC544B05A258 SWAP2 PUSH2 0xD7D PUSH2 0x1E26 JUMP JUMPDEST PUSH2 0xD85 PUSH2 0x1EB3 JUMP JUMPDEST PUSH1 0x1 PUSH1 0xFF NOT PUSH1 0x2 SLOAD AND OR PUSH1 0x2 SSTORE MLOAD CALLER DUP2 MSTORE LOG1 DUP1 RETURN JUMPDEST POP DUP3 CALLVALUE PUSH2 0x310 JUMPI DUP1 PUSH1 0x3 NOT CALLDATASIZE ADD SLT PUSH2 0x310 JUMPI PUSH2 0xDB4 PUSH2 0x1BFC JUMP JUMPDEST PUSH1 0x1 PUSH1 0x1 PUSH1 0xA0 SHL SUB AND DUP3 MSTORE PUSH1 0xB PUSH1 0x20 MSTORE DUP1 DUP3 KECCAK256 DUP1 SLOAD PUSH1 0x24 CALLDATALOAD SWAP4 SWAP1 DUP5 LT ISZERO PUSH2 0x6D2 JUMPI POP PUSH1 0x20 SWAP3 PUSH2 0x6C4 SWAP2 PUSH2 0x1DE2 JUMP JUMPDEST POP SWAP2 SWAP1 CALLVALUE PUSH2 0x2ED JUMPI PUSH1 0x20 SWAP2 DUP3 PUSH1 0x3 NOT CALLDATASIZE ADD SLT PUSH2 0xFAC JUMPI DUP2 CALLDATALOAD PUSH2 0xE02 PUSH2 0x1E26 JUMP JUMPDEST PUSH2 0xE0F PUSH1 0xC SLOAD DUP3 LT PUSH2 0x3170 JUMP JUMPDEST DUP5 MSTORE PUSH1 0xA DUP4 MSTORE DUP1 DUP5 KECCAK256 DUP2 MLOAD SWAP1 PUSH2 0xE24 DUP3 PUSH2 0x1CD7 JUMP JUMPDEST DUP1 SLOAD DUP3 MSTORE PUSH1 0x1 DUP2 ADD SLOAD DUP6 DUP4 ADD MSTORE PUSH1 0x1 DUP1 PUSH1 0xA0 SHL SUB SWAP2 PUSH1 0x80 DUP6 DUP5 PUSH1 0x2 DUP6 ADD SLOAD AND SWAP4 DUP5 DUP8 DUP6 ADD MSTORE DUP6 PUSH1 0x3 DUP3 ADD SLOAD AND PUSH1 0x60 DUP6 ADD MSTORE ADD SLOAD SWAP2 ADD MSTORE DUP2 DUP7 SLOAD AND SUB PUSH2 0xF6A JUMPI DUP5 DUP1 SWAP2 DUP4 MLOAD DUP7 DUP2 ADD SWAP2 PUSH4 0xEFEF57F9 PUSH1 0xE0 SHL DUP4 MSTORE PUSH32 0x0 AND PUSH1 0x24 DUP3 ADD MSTORE ADDRESS PUSH1 0x44 DUP3 ADD MSTORE PUSH1 0x1 PUSH1 0x64 DUP3 ADD MSTORE PUSH1 0x64 DUP2 MSTORE PUSH2 0xEB7 DUP2 PUSH2 0x1CD7 JUMP JUMPDEST MLOAD SWAP1 DUP3 PUSH2 0x167 GAS CALL PUSH2 0xEC7 PUSH2 0x2362 JUMP JUMPDEST SWAP1 ISZERO PUSH2 0xF62 JUMPI DUP1 DUP5 DUP1 PUSH2 0xEDF SWAP4 MLOAD DUP4 ADD ADD SWAP2 ADD PUSH2 0x31AE JUMP JUMPDEST PUSH1 0x3 SIGNEXTEND PUSH1 0x16 DUP2 SUB PUSH2 0xEEE JUMPI DUP5 DUP1 RETURN JUMPDEST SWAP1 PUSH2 0xEFB PUSH2 0xF5E SWAP3 PUSH2 0x2502 JUMP JUMPDEST SWAP1 PUSH2 0xF44 PUSH1 0x35 DUP3 MLOAD DUP1 SWAP5 PUSH21 0x2321A22910313AB93734B733903330B4B632B21D1 PUSH1 0x5D SHL DUP10 DUP4 ADD MSTORE PUSH2 0xF34 DUP2 MLOAD DUP1 SWAP3 DUP12 DUP7 DUP7 ADD SWAP2 ADD PUSH2 0x1D9A JUMP JUMPDEST DUP2 ADD SUB PUSH1 0x15 DUP2 ADD DUP6 MSTORE ADD DUP4 PUSH2 0x1D5E JUMP JUMPDEST MLOAD SWAP4 DUP5 SWAP4 PUSH3 0x461BCD PUSH1 0xE5 SHL DUP6 MSTORE DUP5 ADD MSTORE PUSH1 0x24 DUP4 ADD SWAP1 PUSH2 0x1DBD JUMP JUMPDEST SUB SWAP1 REVERT JUMPDEST POP PUSH1 0x15 PUSH2 0xEDF JUMP JUMPDEST POP SWAP2 PUSH1 0x64 SWAP3 MLOAD SWAP2 PUSH3 0x461BCD PUSH1 0xE5 SHL DUP4 MSTORE DUP3 ADD MSTORE PUSH1 0x1A PUSH1 0x24 DUP3 ADD MSTORE PUSH32 0x4E6F7420746865206F776E6572206F6620746869732046434452000000000000 PUSH1 0x44 DUP3 ADD MSTORE REVERT JUMPDEST DUP4 DUP1 REVERT JUMPDEST POP CALLVALUE PUSH2 0x6D2 JUMPI DUP1 PUSH1 0x3 NOT CALLDATASIZE ADD SLT PUSH2 0x6D2 JUMPI PUSH2 0xFC9 PUSH2 0x1E26 JUMP JUMPDEST PUSH1 0x0 DUP1 SLOAD PUSH1 0x1 PUSH1 0x1 PUSH1 0xA0 SHL SUB NOT DUP2 AND DUP3 SSTORE PUSH1 0x1 PUSH1 0x1 PUSH1 0xA0 SHL SUB AND PUSH32 0x8BE0079C531659141344CD1FD0A4F28419497F9722A3DAAFE3B4186F6B6457E0 DUP3 DUP1 LOG3 DUP1 RETURN JUMPDEST POP SWAP1 CALLVALUE PUSH2 0x310 JUMPI DUP3 PUSH1 0x3 NOT CALLDATASIZE ADD SLT PUSH2 0x310 JUMPI PUSH2 0x1024 PUSH2 0x1BFC JUMP JUMPDEST SWAP1 PUSH1 0x24 CALLDATALOAD SWAP1 PUSH1 0x1 PUSH1 0x1 PUSH1 0x40 SHL SUB DUP3 GT PUSH2 0xFAC JUMPI CALLDATASIZE PUSH1 0x23 DUP4 ADD SLT ISZERO PUSH2 0xFAC JUMPI DUP2 ADD CALLDATALOAD PUSH2 0x104E DUP2 PUSH2 0x1D7F JUMP JUMPDEST SWAP2 PUSH2 0x105B DUP7 MLOAD SWAP4 DUP5 PUSH2 0x1D5E JUMP JUMPDEST DUP2 DUP4 MSTORE CALLDATASIZE PUSH1 0x24 DUP4 DUP4 ADD ADD GT PUSH2 0x568 JUMPI PUSH2 0x10BB DUP6 SWAP5 SWAP3 SWAP4 DUP6 PUSH1 0x20 DUP7 DUP3 SWAP8 PUSH1 0x24 PUSH2 0xC88 SWAP8 ADD DUP4 DUP7 ADD CALLDATACOPY DUP4 ADD ADD MSTORE DUP8 MLOAD PUSH4 0x30C6E32F PUSH1 0xE1 SHL PUSH1 0x20 DUP3 ADD SWAP1 DUP2 MSTORE PUSH1 0x1 PUSH1 0x1 PUSH1 0xA0 SHL SUB SWAP1 SWAP6 AND PUSH1 0x24 DUP3 ADD MSTORE PUSH1 0x44 DUP2 ADD DUP10 SWAP1 MSTORE SWAP3 DUP4 SWAP2 PUSH1 0x64 DUP4 ADD SWAP1 PUSH2 0x1DBD JUMP JUMPDEST MLOAD SWAP1 DUP3 PUSH2 0x167 GAS CALL SWAP1 PUSH2 0x10CC PUSH2 0x2362 JUMP JUMPDEST SWAP2 PUSH32 0x4AF4780E06FE8CB9DF64B0794FA6F01399AF979175BB988E35E0E57E594567BC DUP5 MLOAD DUP3 ISZERO ISZERO DUP2 MSTORE DUP6 PUSH1 0x20 DUP3 ADD MSTORE DUP1 PUSH2 0x1108 DUP8 DUP3 ADD DUP8 PUSH2 0x1DBD JUMP JUMPDEST SUB SWAP1 LOG1 ISZERO PUSH2 0x1130 JUMPI POP PUSH2 0x73C PUSH1 0x16 SWAP2 JUMPDEST DUP4 MLOAD SWAP4 DUP5 SWAP4 PUSH1 0x3 SIGNEXTEND DUP5 MSTORE DUP1 PUSH1 0x20 DUP6 ADD MSTORE DUP4 ADD SWAP1 PUSH2 0x1DBD JUMP JUMPDEST DUP3 MLOAD SWAP2 POP PUSH2 0x113D DUP3 PUSH2 0x1CF2 JUMP JUMPDEST DUP2 MSTORE PUSH2 0x73C PUSH1 0x15 SWAP2 PUSH2 0x1118 JUMP JUMPDEST POP CALLVALUE PUSH2 0x6D2 JUMPI DUP1 PUSH1 0x3 NOT CALLDATASIZE ADD SLT PUSH2 0x6D2 JUMPI POP SLOAD PUSH1 0x5 SLOAD PUSH1 0x6 SLOAD SWAP3 MLOAD SWAP2 DUP3 MSTORE PUSH1 0x20 DUP3 ADD MSTORE PUSH1 0x40 DUP2 ADD SWAP2 SWAP1 SWAP2 MSTORE PUSH1 0x60 SWAP1 RETURN JUMPDEST POP DUP3 CALLVALUE PUSH2 0x310 JUMPI DUP2 PUSH1 0x3 NOT CALLDATASIZE ADD SLT PUSH2 0x310 JUMPI PUSH1 0x20 SWAP1 PUSH1 0xFF PUSH1 0x2 SLOAD AND SWAP1 MLOAD SWAP1 ISZERO ISZERO DUP2 MSTORE RETURN JUMPDEST POP SWAP2 PUSH1 0x60 CALLDATASIZE PUSH1 0x3 NOT ADD SLT PUSH2 0x2ED JUMPI DUP2 CALLDATALOAD SWAP1 PUSH1 0x24 CALLDATALOAD PUSH2 0x11BA PUSH2 0x1ED1 JUMP JUMPDEST PUSH2 0x11C2 PUSH2 0x1EB3 JUMP JUMPDEST PUSH1 0x1 PUSH1 0x1 PUSH1 0xA0 SHL SUB PUSH32 0x0 DUP2 AND SWAP4 SWAP1 SWAP2 SWAP1 PUSH2 0x11FC DUP6 ISZERO ISZERO PUSH2 0x1E52 JUMP JUMPDEST PUSH1 0x5 SLOAD ISZERO PUSH2 0x1382 JUMPI DUP7 SWAP2 PUSH2 0x1230 SWAP2 PUSH2 0x1215 CALLVALUE ISZERO ISZERO PUSH2 0x1EF4 JUMP JUMPDEST PUSH2 0x1220 DUP2 ISZERO ISZERO PUSH2 0x1F33 JUMP JUMPDEST PUSH2 0x122B DUP3 ISZERO ISZERO PUSH2 0x1F89 JUMP JUMPDEST PUSH2 0x23BC JUMP JUMPDEST SWAP5 PUSH2 0x123F PUSH1 0x44 CALLDATALOAD DUP8 LT ISZERO PUSH2 0x2052 JUMP JUMPDEST PUSH2 0x124A CALLVALUE DUP3 SLOAD PUSH2 0x2045 JUMP JUMPDEST DUP2 SSTORE PUSH2 0x1258 CALLVALUE PUSH1 0x6 SLOAD PUSH2 0x2045 JUMP JUMPDEST PUSH1 0x6 SSTORE PUSH1 0x1 PUSH1 0x1 PUSH1 0x40 SHL SUB DUP7 AND PUSH1 0x7 SIGNEXTEND SWAP3 DUP5 MLOAD DUP5 DUP2 MSTORE DUP7 PUSH32 0xB7555D949A897ACB395F95E3F2DF8B700519404826BB13CD6526B756F6A1C907 PUSH1 0x20 CALLER SWAP4 LOG3 PUSH32 0x0 AND DUP1 EXTCODESIZE ISZERO PUSH2 0x2ED JUMPI DUP5 MLOAD PUSH4 0xBB81C875 PUSH1 0xE0 SHL DUP2 MSTORE CALLER SWAP3 DUP2 ADD SWAP3 DUP4 MSTORE PUSH1 0x20 DUP4 ADD DUP9 SWAP1 MSTORE SWAP2 DUP4 SWAP2 DUP4 SWAP2 DUP3 SWAP1 DUP5 SWAP1 DUP3 SWAP1 PUSH1 0x40 ADD SUB SWAP3 GAS CALL DUP1 ISZERO PUSH2 0x1378 JUMPI PUSH2 0x1364 JUMPI JUMPDEST POP POP PUSH1 0x0 DUP1 MLOAD PUSH1 0x20 PUSH2 0x3239 DUP4 CODECOPY DUP2 MLOAD SWAP2 MSTORE SWAP3 PUSH2 0x1313 DUP6 PUSH1 0x5 SLOAD PUSH2 0x2045 JUMP JUMPDEST PUSH1 0x5 SSTORE DUP3 MLOAD SWAP2 DUP3 MSTORE DUP6 PUSH1 0x20 DUP4 ADD MSTORE PUSH32 0xAD91542866F4DA9EBED5A2B1713258F4BF970F84E7B2A0B8AAB2DE28D11FFFFD DUP4 CALLER SWAP4 LOG3 MLOAD CALLVALUE DUP2 MSTORE PUSH1 0x20 DUP2 ADD SWAP3 SWAP1 SWAP3 MSTORE TIMESTAMP PUSH1 0x40 DUP4 ADD MSTORE CALLER SWAP2 DUP1 PUSH1 0x60 DUP2 ADD PUSH2 0xAE5 JUMP JUMPDEST PUSH2 0x136D SWAP1 PUSH2 0x1CC4 JUMP JUMPDEST PUSH2 0x568 JUMPI DUP5 CODESIZE PUSH2 0x12F5 JUMP JUMPDEST DUP5 MLOAD RETURNDATASIZE DUP5 DUP3 RETURNDATACOPY RETURNDATASIZE SWAP1 REVERT JUMPDEST DUP4 MLOAD PUSH3 0x461BCD PUSH1 0xE5 SHL DUP2 MSTORE PUSH1 0x20 DUP2 DUP9 ADD MSTORE PUSH1 0x14 PUSH1 0x24 DUP3 ADD MSTORE PUSH20 0x141BDBDB081B9BDD081A5B9A5D1A585B1A5E9959 PUSH1 0x62 SHL PUSH1 0x44 DUP3 ADD MSTORE PUSH1 0x64 SWAP1 REVERT JUMPDEST POP SWAP2 SWAP1 CALLVALUE PUSH2 0x2ED JUMPI PUSH1 0x20 CALLDATASIZE PUSH1 0x3 NOT ADD SLT PUSH2 0x2ED JUMPI DUP2 PUSH1 0xA0 SWAP4 DUP3 CALLDATALOAD DUP2 PUSH1 0x80 DUP5 MLOAD PUSH2 0x13E4 DUP2 PUSH2 0x1CD7 JUMP JUMPDEST DUP3 DUP2 MSTORE DUP3 PUSH1 0x20 DUP3 ADD MSTORE DUP3 DUP7 DUP3 ADD MSTORE DUP3 PUSH1 0x60 DUP3 ADD MSTORE ADD MSTORE PUSH2 0x1407 PUSH1 0xC SLOAD DUP3 LT PUSH2 0x3170 JUMP JUMPDEST DUP2 MSTORE PUSH1 0xA PUSH1 0x20 MSTORE KECCAK256 SWAP1 DUP3 MLOAD SWAP2 PUSH2 0x141C DUP4 PUSH2 0x1CD7 JUMP JUMPDEST DUP1 SLOAD SWAP4 DUP5 DUP5 MSTORE PUSH1 0x1 DUP3 ADD SLOAD PUSH1 0x20 DUP6 ADD SWAP1 DUP2 MSTORE PUSH1 0x1 DUP1 DUP9 SHL SUB SWAP4 DUP5 SWAP2 PUSH1 0x80 DUP4 PUSH1 0x2 DUP8 ADD SLOAD AND SWAP3 DUP6 DUP10 ADD SWAP4 DUP5 MSTORE DUP5 PUSH1 0x3 DUP9 ADD SLOAD AND SWAP7 PUSH1 0x60 DUP11 ADD SWAP8 DUP9 MSTORE ADD SLOAD SWAP8 ADD SWAP7 DUP8 MSTORE DUP4 MLOAD SWAP8 DUP9 MSTORE MLOAD PUSH1 0x20 DUP9 ADD MSTORE MLOAD AND SWAP1 DUP6 ADD MSTORE MLOAD AND PUSH1 0x60 DUP4 ADD MSTORE MLOAD PUSH1 0x80 DUP3 ADD MSTORE RETURN JUMPDEST POP DUP3 SWAP1 CALLVALUE PUSH2 0x6D2 JUMPI PUSH1 0x20 CALLDATASIZE PUSH1 0x3 NOT ADD SLT PUSH2 0x6D2 JUMPI POP PUSH2 0x857 PUSH1 0x20 SWAP3 CALLDATALOAD PUSH2 0x2392 JUMP JUMPDEST POP DUP3 CALLVALUE PUSH2 0x310 JUMPI DUP2 PUSH1 0x3 NOT CALLDATASIZE ADD SLT PUSH2 0x310 JUMPI PUSH1 0x20 PUSH32 0x5DB9EE0A495BF2E6FF9C91A7834C1BA4FDD244A5E8AA4E537BD38AEAE4B073AA SWAP2 PUSH2 0x14DC PUSH2 0x1E26 JUMP JUMPDEST PUSH2 0x14E4 PUSH2 0x310F JUMP JUMPDEST PUSH1 0xFF NOT PUSH1 0x2 SLOAD AND PUSH1 0x2 SSTORE MLOAD CALLER DUP2 MSTORE LOG1 DUP1 RETURN JUMPDEST POP DUP3 CALLVALUE PUSH2 0x310 JUMPI DUP2 PUSH1 0x3 NOT CALLDATASIZE ADD SLT PUSH2 0x310 JUMPI MLOAD PUSH32 0x0 PUSH1 0x1 PUSH1 0x1 PUSH1 0xA0 SHL SUB AND DUP2 MSTORE PUSH1 0x20 SWAP1 RETURN JUMPDEST POP SWAP2 CALLVALUE PUSH2 0x2ED JUMPI PUSH1 0x20 CALLDATASIZE PUSH1 0x3 NOT ADD SLT PUSH2 0x2ED JUMPI DUP1 PUSH1 0xA0 SWAP4 DUP4 CALLDATALOAD DUP2 MSTORE PUSH1 0xA PUSH1 0x20 MSTORE KECCAK256 DUP1 SLOAD SWAP3 PUSH1 0x1 DUP3 ADD SLOAD SWAP3 PUSH1 0x1 DUP1 DUP8 SHL SUB SWAP2 DUP3 PUSH1 0x2 DUP6 ADD SLOAD AND SWAP3 PUSH1 0x3 DUP6 ADD SLOAD AND SWAP4 ADD SLOAD SWAP4 DUP2 MLOAD SWAP6 DUP7 MSTORE PUSH1 0x20 DUP7 ADD MSTORE DUP5 ADD MSTORE PUSH1 0x60 DUP4 ADD MSTORE PUSH1 0x80 DUP3 ADD MSTORE RETURN JUMPDEST POP SWAP2 CALLVALUE PUSH2 0x2ED JUMPI PUSH1 0x20 CALLDATASIZE PUSH1 0x3 NOT ADD SLT PUSH2 0x2ED JUMPI DUP1 PUSH1 0xC0 SWAP4 DUP4 CALLDATALOAD DUP2 MSTORE PUSH1 0x7 PUSH1 0x20 MSTORE KECCAK256 DUP1 SLOAD SWAP3 PUSH1 0x1 DUP3 ADD SLOAD SWAP3 PUSH1 0x2 DUP4 ADD SLOAD SWAP1 PUSH1 0x3 DUP5 ADD SLOAD SWAP3 PUSH1 0x5 PUSH1 0x1 DUP1 PUSH1 0xA0 SHL SUB DUP1 SWAP3 DUP8 ADD SLOAD AND SWAP6 ADD SLOAD AND SWAP5 DUP2 MLOAD SWAP7 DUP8 MSTORE PUSH1 0x20 DUP8 ADD MSTORE DUP6 ADD MSTORE PUSH1 0x60 DUP5 ADD MSTORE PUSH1 0x80 DUP4 ADD MSTORE PUSH1 0xA0 DUP3 ADD MSTORE RETURN JUMPDEST POP DUP3 SWAP1 CALLVALUE PUSH2 0x6D2 JUMPI PUSH1 0x20 CALLDATASIZE PUSH1 0x3 NOT ADD SLT PUSH2 0x6D2 JUMPI POP PUSH2 0x857 PUSH1 0x20 SWAP3 CALLDATALOAD PUSH2 0x23EE JUMP JUMPDEST POP DUP3 CALLVALUE PUSH2 0x310 JUMPI DUP2 PUSH1 0x3 NOT CALLDATASIZE ADD SLT PUSH2 0x310 JUMPI PUSH1 0x20 SWAP1 PUSH2 0x857 PUSH2 0x2486 JUMP JUMPDEST POP SWAP2 SWAP1 CALLVALUE PUSH2 0x2ED JUMPI DUP3 PUSH1 0x3 NOT CALLDATASIZE ADD SLT PUSH2 0x2ED JUMPI PUSH1 0x20 SWAP3 POP SLOAD SWAP1 MLOAD SWAP1 DUP2 MSTORE RETURN JUMPDEST POP SWAP1 DUP2 PUSH1 0x3 NOT CALLDATASIZE ADD SLT PUSH2 0x310 JUMPI PUSH2 0x1670 PUSH2 0x1E26 JUMP JUMPDEST PUSH2 0x1678 PUSH2 0x1ED1 JUMP JUMPDEST PUSH2 0x1680 PUSH2 0x1EB3 JUMP JUMPDEST PUSH1 0x1 PUSH1 0x1 PUSH1 0xA0 SHL SUB PUSH32 0x0 DUP2 AND SWAP4 SWAP1 PUSH2 0x16B8 DUP6 ISZERO ISZERO PUSH2 0x1E52 JUMP JUMPDEST PUSH1 0x5 SLOAD PUSH2 0x1848 JUMPI PUSH3 0x186A0 CALLVALUE LT PUSH2 0x1805 JUMPI CALLVALUE DUP4 SSTORE CALLVALUE PUSH1 0x6 SSTORE PUSH1 0x64 CALLVALUE DIV SWAP3 PUSH1 0x1 PUSH1 0x1 PUSH1 0x40 SHL SUB DUP5 AND PUSH1 0x7 SIGNEXTEND SWAP2 DUP4 MLOAD DUP4 DUP2 MSTORE DUP8 PUSH32 0xB7555D949A897ACB395F95E3F2DF8B700519404826BB13CD6526B756F6A1C907 PUSH1 0x20 CALLER SWAP4 LOG3 PUSH32 0x0 AND SWAP1 DUP2 EXTCODESIZE ISZERO PUSH2 0x1801 JUMPI DUP4 MLOAD PUSH4 0xBB81C875 PUSH1 0xE0 SHL DUP2 MSTORE CALLER SWAP2 DUP2 ADD SWAP2 DUP3 MSTORE PUSH1 0x20 DUP3 ADD DUP7 SWAP1 MSTORE SWAP2 DUP7 SWAP2 DUP4 SWAP2 SWAP1 DUP3 SWAP1 DUP5 SWAP1 DUP3 SWAP1 PUSH1 0x40 ADD SUB SWAP3 GAS CALL DUP1 ISZERO PUSH2 0x17F7 JUMPI PUSH2 0x17D6 JUMPI JUMPDEST POP DUP3 SWAP4 SWAP5 PUSH1 0x0 DUP1 MLOAD PUSH1 0x20 PUSH2 0x3239 DUP4 CODECOPY DUP2 MLOAD SWAP2 MSTORE SWAP4 PUSH1 0x5 SSTORE DUP3 MLOAD SWAP2 DUP3 MSTORE DUP6 PUSH1 0x20 DUP4 ADD MSTORE PUSH32 0xAD91542866F4DA9EBED5A2B1713258F4BF970F84E7B2A0B8AAB2DE28D11FFFFD DUP4 CALLER SWAP4 LOG3 MLOAD CALLVALUE DUP2 MSTORE PUSH1 0x20 DUP2 ADD SWAP3 SWAP1 SWAP3 MSTORE TIMESTAMP PUSH1 0x40 DUP4 ADD MSTORE CALLER SWAP2 DUP1 PUSH1 0x60 DUP2 ADD PUSH2 0xAE5 JUMP JUMPDEST SWAP4 PUSH2 0x17F0 PUSH1 0x0 DUP1 MLOAD PUSH1 0x20 PUSH2 0x3239 DUP4 CODECOPY DUP2 MLOAD SWAP2 MSTORE SWAP5 SWAP6 PUSH2 0x1CC4 JUMP JUMPDEST SWAP4 SWAP3 PUSH2 0x1771 JUMP JUMPDEST DUP4 MLOAD RETURNDATASIZE DUP8 DUP3 RETURNDATACOPY RETURNDATASIZE SWAP1 REVERT JUMPDEST DUP6 DUP1 REVERT JUMPDEST DUP2 MLOAD PUSH3 0x461BCD PUSH1 0xE5 SHL DUP2 MSTORE PUSH1 0x20 DUP2 DUP6 ADD MSTORE PUSH1 0x1E PUSH1 0x24 DUP3 ADD MSTORE PUSH32 0x496E73756666696369656E7420696E697469616C206C69717569646974790000 PUSH1 0x44 DUP3 ADD MSTORE PUSH1 0x64 SWAP1 REVERT JUMPDEST DUP2 MLOAD PUSH3 0x461BCD PUSH1 0xE5 SHL DUP2 MSTORE PUSH1 0x20 DUP2 DUP6 ADD MSTORE PUSH1 0x18 PUSH1 0x24 DUP3 ADD MSTORE PUSH32 0x506F6F6C20616C726561647920696E697469616C697A65640000000000000000 PUSH1 0x44 DUP3 ADD MSTORE PUSH1 0x64 SWAP1 REVERT JUMPDEST POP SWAP2 SWAP1 CALLVALUE PUSH2 0x2ED JUMPI PUSH1 0x20 CALLDATASIZE PUSH1 0x3 NOT ADD SLT PUSH2 0x2ED JUMPI PUSH1 0x5 SWAP1 DUP3 DUP5 PUSH1 0xC0 SWAP6 PUSH1 0xA0 DUP4 MLOAD PUSH2 0x18B4 DUP2 PUSH2 0x1C93 JUMP JUMPDEST DUP3 DUP2 MSTORE DUP3 PUSH1 0x20 DUP3 ADD MSTORE DUP3 DUP6 DUP3 ADD MSTORE DUP3 PUSH1 0x60 DUP3 ADD MSTORE DUP3 PUSH1 0x80 DUP3 ADD MSTORE ADD MSTORE DUP3 CALLDATALOAD DUP2 MSTORE PUSH1 0x7 PUSH1 0x20 MSTORE KECCAK256 SWAP1 DUP4 MLOAD SWAP2 PUSH2 0x18E7 DUP4 PUSH2 0x1C93 JUMP JUMPDEST DUP1 SLOAD SWAP5 DUP6 DUP5 MSTORE PUSH1 0x1 DUP3 ADD SLOAD SWAP1 PUSH1 0x20 DUP6 ADD SWAP2 DUP3 MSTORE PUSH1 0x2 DUP4 ADD SLOAD DUP2 DUP7 ADD SWAP1 DUP2 MSTORE PUSH1 0x3 DUP5 ADD SLOAD SWAP3 PUSH1 0x60 DUP8 ADD SWAP4 DUP5 MSTORE PUSH1 0xA0 PUSH1 0x1 DUP1 DUP3 SHL SUB DUP1 SWAP10 DUP2 DUP1 SWAP10 DUP10 ADD SLOAD AND SWAP8 PUSH1 0x80 DUP12 ADD SWAP9 DUP10 MSTORE ADD SLOAD AND SWAP8 ADD SWAP7 DUP8 MSTORE DUP3 MLOAD SWAP9 DUP10 MSTORE MLOAD PUSH1 0x20 DUP10 ADD MSTORE MLOAD SWAP1 DUP8 ADD MSTORE MLOAD PUSH1 0x60 DUP7 ADD MSTORE MLOAD AND PUSH1 0x80 DUP5 ADD MSTORE MLOAD AND PUSH1 0xA0 DUP3 ADD MSTORE RETURN JUMPDEST POP DUP3 CALLVALUE PUSH2 0x310 JUMPI DUP2 PUSH1 0x3 NOT CALLDATASIZE ADD SLT PUSH2 0x310 JUMPI PUSH1 0x20 SWAP1 MLOAD PUSH3 0x186A0 DUP2 MSTORE RETURN JUMPDEST POP DUP3 CALLVALUE PUSH2 0x310 JUMPI PUSH1 0x20 SWAP1 DUP2 PUSH1 0x3 NOT CALLDATASIZE ADD SLT PUSH2 0x2ED JUMPI PUSH1 0x1 PUSH1 0x1 PUSH1 0xA0 SHL SUB PUSH2 0x199C PUSH2 0x1BFC JUMP JUMPDEST AND DUP4 MSTORE PUSH1 0xB DUP3 MSTORE DUP1 DUP4 KECCAK256 SWAP3 DUP2 MLOAD DUP1 SWAP4 DUP1 DUP7 SLOAD SWAP3 DUP4 DUP2 MSTORE ADD SWAP6 DUP4 MSTORE DUP1 DUP4 KECCAK256 SWAP3 SWAP1 JUMPDEST DUP3 DUP3 LT PUSH2 0x19D4 JUMPI PUSH2 0x73C DUP7 DUP7 PUSH2 0x732 DUP3 DUP12 SUB DUP4 PUSH2 0x1D5E JUMP JUMPDEST DUP4 SLOAD DUP8 MSTORE SWAP6 DUP7 ADD SWAP6 PUSH1 0x1 SWAP4 DUP5 ADD SWAP4 SWAP1 SWAP2 ADD SWAP1 PUSH2 0x19BC JUMP JUMPDEST POP DUP3 CALLVALUE PUSH2 0x310 JUMPI DUP2 DUP1 PUSH1 0x20 SWAP4 PUSH2 0xC96 PUSH2 0xC88 PUSH2 0x1A06 CALLDATASIZE PUSH2 0x1C17 JUMP JUMPDEST DUP10 MLOAD PUSH4 0xAED65F5 PUSH1 0xE1 SHL DUP13 DUP3 ADD SWAP1 DUP2 MSTORE PUSH1 0x1 PUSH1 0x1 PUSH1 0xA0 SHL SUB SWAP6 DUP7 AND PUSH1 0x24 DUP4 ADD MSTORE SWAP4 DUP6 AND PUSH1 0x44 DUP3 ADD MSTORE SWAP4 SWAP1 SWAP2 AND PUSH1 0x64 DUP5 ADD MSTORE PUSH1 0x84 DUP4 ADD MSTORE SWAP3 SWAP1 SWAP2 DUP3 SWAP1 PUSH1 0xA4 DUP3 ADD SWAP1 JUMP JUMPDEST POP SWAP2 CALLVALUE PUSH2 0x2ED JUMPI DUP3 PUSH1 0x3 NOT CALLDATASIZE ADD SLT PUSH2 0x2ED JUMPI PUSH2 0x1A62 PUSH2 0x1E26 JUMP JUMPDEST PUSH32 0x0 SWAP2 PUSH2 0x1A8E DUP4 ADDRESS PUSH2 0x31C7 JUMP JUMPDEST PUSH1 0x16 DUP2 SUB PUSH2 0x1B66 JUMPI POP PUSH32 0x0 SWAP2 PUSH2 0x1AC3 DUP4 ADDRESS PUSH2 0x31C7 JUMP JUMPDEST PUSH1 0x16 DUP2 SUB PUSH2 0x1B02 JUMPI POP POP POP PUSH1 0x1 PUSH1 0x1 PUSH1 0xA0 SHL SUB SWAP1 DUP2 AND SWAP2 AND PUSH32 0x650590083355AAFFAA2FA0C2195838842F2B6D5EA01C067F5E128066EA40F15C DUP4 DUP1 LOG3 DUP1 RETURN JUMPDEST PUSH1 0x20 SWAP3 SWAP2 PUSH2 0x1B15 PUSH2 0xF5E SWAP3 PUSH1 0x3 SIGNEXTEND PUSH2 0x2502 JUMP JUMPDEST SWAP1 PUSH2 0xF44 PUSH1 0x3F DUP3 MLOAD DUP1 SWAP5 PUSH32 0x4643445220746F6B656E206173736F63696174696F6E206661696C65643A2000 DUP10 DUP4 ADD MSTORE PUSH2 0x1B56 DUP2 MLOAD DUP1 SWAP3 DUP12 DUP7 DUP7 ADD SWAP2 ADD PUSH2 0x1D9A JUMP JUMPDEST DUP2 ADD SUB PUSH1 0x1F DUP2 ADD DUP6 MSTORE ADD DUP4 PUSH2 0x1D5E JUMP JUMPDEST PUSH1 0x20 SWAP3 PUSH2 0x1B78 PUSH2 0xF5E SWAP3 PUSH1 0x3 SIGNEXTEND PUSH2 0x2502 JUMP JUMPDEST SWAP1 PUSH2 0xF44 PUSH1 0x3F DUP3 MLOAD DUP1 SWAP5 PUSH32 0x43534C5020746F6B656E206173736F63696174696F6E206661696C65643A2000 DUP10 DUP4 ADD MSTORE PUSH2 0x1B56 DUP2 MLOAD DUP1 SWAP3 DUP12 DUP7 DUP7 ADD SWAP2 ADD PUSH2 0x1D9A JUMP JUMPDEST SWAP1 POP CALLVALUE PUSH2 0x310 JUMPI DUP2 PUSH1 0x3 NOT CALLDATASIZE ADD SLT PUSH2 0x310 JUMPI PUSH32 0x0 PUSH1 0x1 PUSH1 0x1 PUSH1 0xA0 SHL SUB AND DUP2 MSTORE PUSH1 0x20 SWAP1 RETURN JUMPDEST PUSH1 0x4 CALLDATALOAD SWAP1 PUSH1 0x1 PUSH1 0x1 PUSH1 0xA0 SHL SUB DUP3 AND DUP3 SUB PUSH2 0x1C12 JUMPI JUMP JUMPDEST PUSH1 0x0 DUP1 REVERT JUMPDEST PUSH1 0x80 SWAP1 PUSH1 0x3 NOT ADD SLT PUSH2 0x1C12 JUMPI PUSH1 0x1 PUSH1 0x1 PUSH1 0xA0 SHL SUB PUSH1 0x4 CALLDATALOAD DUP2 DUP2 AND DUP2 SUB PUSH2 0x1C12 JUMPI SWAP2 PUSH1 0x24 CALLDATALOAD DUP3 DUP2 AND DUP2 SUB PUSH2 0x1C12 JUMPI SWAP2 PUSH1 0x44 CALLDATALOAD SWAP1 DUP2 AND DUP2 SUB PUSH2 0x1C12 JUMPI SWAP1 PUSH1 0x64 CALLDATALOAD SWAP1 JUMP JUMPDEST PUSH1 0x20 SWAP1 DUP2 PUSH1 0x40 DUP2 DUP4 ADD SWAP3 DUP3 DUP2 MSTORE DUP6 MLOAD DUP1 SWAP5 MSTORE ADD SWAP4 ADD SWAP2 PUSH1 0x0 JUMPDEST DUP3 DUP2 LT PUSH2 0x1C7F JUMPI POP POP POP POP SWAP1 JUMP JUMPDEST DUP4 MLOAD DUP6 MSTORE SWAP4 DUP2 ADD SWAP4 SWAP3 DUP2 ADD SWAP3 PUSH1 0x1 ADD PUSH2 0x1C71 JUMP JUMPDEST PUSH1 0xC0 DUP2 ADD SWAP1 DUP2 LT PUSH1 0x1 PUSH1 0x1 PUSH1 0x40 SHL SUB DUP3 GT OR PUSH2 0x1CAE JUMPI PUSH1 0x40 MSTORE JUMP JUMPDEST PUSH4 0x4E487B71 PUSH1 0xE0 SHL PUSH1 0x0 MSTORE PUSH1 0x41 PUSH1 0x4 MSTORE PUSH1 0x24 PUSH1 0x0 REVERT JUMPDEST PUSH1 0x1 PUSH1 0x1 PUSH1 0x40 SHL SUB DUP2 GT PUSH2 0x1CAE JUMPI PUSH1 0x40 MSTORE JUMP JUMPDEST PUSH1 0xA0 DUP2 ADD SWAP1 DUP2 LT PUSH1 0x1 PUSH1 0x1 PUSH1 0x40 SHL SUB DUP3 GT OR PUSH2 0x1CAE JUMPI PUSH1 0x40 MSTORE JUMP JUMPDEST PUSH1 0x20 DUP2 ADD SWAP1 DUP2 LT PUSH1 0x1 PUSH1 0x1 PUSH1 0x40 SHL SUB DUP3 GT OR PUSH2 0x1CAE JUMPI PUSH1 0x40 MSTORE JUMP JUMPDEST PUSH1 0x40 DUP2 ADD SWAP1 DUP2 LT PUSH1 0x1 PUSH1 0x1 PUSH1 0x40 SHL SUB DUP3 GT OR PUSH2 0x1CAE JUMPI PUSH1 0x40 MSTORE JUMP JUMPDEST PUSH1 0x60 DUP2 ADD SWAP1 DUP2 LT PUSH1 0x1 PUSH1 0x1 PUSH1 0x40 SHL SUB DUP3 GT OR PUSH2 0x1CAE JUMPI PUSH1 0x40 MSTORE JUMP JUMPDEST PUSH1 0x80 DUP2 ADD SWAP1 DUP2 LT PUSH1 0x1 PUSH1 0x1 PUSH1 0x40 SHL SUB DUP3 GT OR PUSH2 0x1CAE JUMPI PUSH1 0x40 MSTORE JUMP JUMPDEST SWAP1 PUSH1 0x1F DUP1 NOT SWAP2 ADD AND DUP2 ADD SWAP1 DUP2 LT PUSH1 0x1 PUSH1 0x1 PUSH1 0x40 SHL SUB DUP3 GT OR PUSH2 0x1CAE JUMPI PUSH1 0x40 MSTORE JUMP JUMPDEST PUSH1 0x1 PUSH1 0x1 PUSH1 0x40 SHL SUB DUP2 GT PUSH2 0x1CAE JUMPI PUSH1 0x1F ADD PUSH1 0x1F NOT AND PUSH1 0x20 ADD SWAP1 JUMP JUMPDEST PUSH1 0x0 JUMPDEST DUP4 DUP2 LT PUSH2 0x1DAD JUMPI POP POP PUSH1 0x0 SWAP2 ADD MSTORE JUMP JUMPDEST DUP2 DUP2 ADD MLOAD DUP4 DUP3 ADD MSTORE PUSH1 0x20 ADD PUSH2 0x1D9D JUMP JUMPDEST SWAP1 PUSH1 0x20 SWAP2 PUSH2 0x1DD6 DUP2 MLOAD DUP1 SWAP3 DUP2 DUP6 MSTORE DUP6 DUP1 DUP7 ADD SWAP2 ADD PUSH2 0x1D9A JUMP JUMPDEST PUSH1 0x1F ADD PUSH1 0x1F NOT AND ADD ADD SWAP1 JUMP JUMPDEST DUP1 SLOAD DUP3 LT ISZERO PUSH2 0x1DFA JUMPI PUSH1 0x0 MSTORE PUSH1 0x20 PUSH1 0x0 KECCAK256 ADD SWAP1 PUSH1 0x0 SWAP1 JUMP JUMPDEST PUSH4 0x4E487B71 PUSH1 0xE0 SHL PUSH1 0x0 MSTORE PUSH1 0x32 PUSH1 0x4 MSTORE PUSH1 0x24 PUSH1 0x0 REVERT JUMPDEST PUSH1 0x40 SWAP1 PUSH1 0x3 NOT ADD SLT PUSH2 0x1C12 JUMPI PUSH1 0x4 CALLDATALOAD SWAP1 PUSH1 0x24 CALLDATALOAD SWAP1 JUMP JUMPDEST PUSH1 0x0 SLOAD PUSH1 0x1 PUSH1 0x1 PUSH1 0xA0 SHL SUB AND CALLER SUB PUSH2 0x1E3A JUMPI JUMP JUMPDEST PUSH1 0x40 MLOAD PUSH4 0x118CDAA7 PUSH1 0xE0 SHL DUP2 MSTORE CALLER PUSH1 0x4 DUP3 ADD MSTORE PUSH1 0x24 SWAP1 REVERT JUMPDEST ISZERO PUSH2 0x1E59 JUMPI JUMP JUMPDEST PUSH1 0x40 MLOAD PUSH3 0x461BCD PUSH1 0xE5 SHL DUP2 MSTORE PUSH1 0x20 PUSH1 0x4 DUP3 ADD MSTORE PUSH1 0x12 PUSH1 0x24 DUP3 ADD MSTORE PUSH18 0x10D4D314081D1BDAD95B881B9BDD081CD95D PUSH1 0x72 SHL PUSH1 0x44 DUP3 ADD MSTORE PUSH1 0x64 SWAP1 REVERT JUMPDEST DUP2 ISZERO PUSH2 0x1E9D JUMPI DIV SWAP1 JUMP JUMPDEST PUSH4 0x4E487B71 PUSH1 0xE0 SHL PUSH1 0x0 MSTORE PUSH1 0x12 PUSH1 0x4 MSTORE PUSH1 0x24 PUSH1 0x0 REVERT JUMPDEST PUSH1 0xFF PUSH1 0x2 SLOAD AND PUSH2 0x1EBF JUMPI JUMP JUMPDEST PUSH1 0x40 MLOAD PUSH4 0xD93C0665 PUSH1 0xE0 SHL DUP2 MSTORE PUSH1 0x4 SWAP1 REVERT JUMPDEST PUSH1 0x2 PUSH1 0x1 SLOAD EQ PUSH2 0x1EE2 JUMPI PUSH1 0x2 PUSH1 0x1 SSTORE JUMP JUMPDEST PUSH1 0x40 MLOAD PUSH4 0x3EE5AEB5 PUSH1 0xE0 SHL DUP2 MSTORE PUSH1 0x4 SWAP1 REVERT JUMPDEST ISZERO PUSH2 0x1EFB JUMPI JUMP JUMPDEST PUSH1 0x40 MLOAD PUSH3 0x461BCD PUSH1 0xE5 SHL DUP2 MSTORE PUSH1 0x20 PUSH1 0x4 DUP3 ADD MSTORE PUSH1 0x10 PUSH1 0x24 DUP3 ADD MSTORE PUSH16 0x139BC812109054881C1C9BDD9A591959 PUSH1 0x82 SHL PUSH1 0x44 DUP3 ADD MSTORE PUSH1 0x64 SWAP1 REVERT JUMPDEST ISZERO PUSH2 0x1F3A JUMPI JUMP JUMPDEST PUSH1 0x40 MLOAD PUSH3 0x461BCD PUSH1 0xE5 SHL DUP2 MSTORE PUSH1 0x20 PUSH1 0x4 DUP3 ADD MSTORE PUSH1 0x21 PUSH1 0x24 DUP3 ADD MSTORE PUSH32 0x55534420616D6F756E74206D7573742062652067726561746572207468616E20 PUSH1 0x44 DUP3 ADD MSTORE PUSH1 0x3 PUSH1 0xFC SHL PUSH1 0x64 DUP3 ADD MSTORE PUSH1 0x84 SWAP1 REVERT JUMPDEST ISZERO PUSH2 0x1F90 JUMPI JUMP JUMPDEST PUSH1 0x40 MLOAD PUSH3 0x461BCD PUSH1 0xE5 SHL DUP2 MSTORE PUSH1 0x20 PUSH1 0x4 DUP3 ADD MSTORE PUSH1 0x28 PUSH1 0x24 DUP3 ADD MSTORE PUSH32 0x4D617475726174696F6E20616D6F756E74206D75737420626520677265617465 PUSH1 0x44 DUP3 ADD MSTORE PUSH8 0x72207468616E203 PUSH1 0xC4 SHL PUSH1 0x64 DUP3 ADD MSTORE PUSH1 0x84 SWAP1 REVERT JUMPDEST DUP1 SLOAD PUSH9 0x10000000000000000 DUP2 LT ISZERO PUSH2 0x1CAE JUMPI PUSH2 0x2008 SWAP2 PUSH1 0x1 DUP3 ADD DUP2 SSTORE PUSH2 0x1DE2 JUMP JUMPDEST DUP2 SWAP3 SWAP2 SLOAD SWAP1 PUSH1 0x3 SHL SWAP2 DUP3 SHL SWAP2 PUSH1 0x0 NOT SWAP1 SHL NOT AND OR SWAP1 SSTORE JUMP JUMPDEST PUSH1 0x0 NOT DUP2 EQ PUSH2 0x202F JUMPI PUSH1 0x1 ADD SWAP1 JUMP JUMPDEST PUSH4 0x4E487B71 PUSH1 0xE0 SHL PUSH1 0x0 MSTORE PUSH1 0x11 PUSH1 0x4 MSTORE PUSH1 0x24 PUSH1 0x0 REVERT JUMPDEST SWAP2 SWAP1 DUP3 ADD DUP1 SWAP3 GT PUSH2 0x202F JUMPI JUMP JUMPDEST ISZERO PUSH2 0x2059 JUMPI JUMP JUMPDEST PUSH1 0x40 MLOAD PUSH3 0x461BCD PUSH1 0xE5 SHL DUP2 MSTORE PUSH1 0x20 PUSH1 0x4 DUP3 ADD MSTORE PUSH1 0x11 PUSH1 0x24 DUP3 ADD MSTORE PUSH17 0x14DB1A5C1C1859D948195E18D959591959 PUSH1 0x7A SHL PUSH1 0x44 DUP3 ADD MSTORE PUSH1 0x64 SWAP1 REVERT JUMPDEST PUSH1 0x0 SWAP3 PUSH1 0x1 PUSH1 0x1 PUSH1 0xA0 SHL SUB SWAP1 PUSH32 0x0 DUP3 AND SWAP1 PUSH2 0x20CD DUP3 ISZERO ISZERO PUSH2 0x1E52 JUMP JUMPDEST PUSH2 0x20D8 CALLVALUE ISZERO ISZERO PUSH2 0x1EF4 JUMP JUMPDEST PUSH2 0x20E3 DUP6 ISZERO ISZERO PUSH2 0x1F33 JUMP JUMPDEST PUSH2 0x20EE DUP2 ISZERO ISZERO PUSH2 0x1F89 JUMP JUMPDEST PUSH1 0x5 SWAP5 DUP6 SLOAD ISZERO PUSH2 0x2313 JUMPI SWAP1 PUSH2 0x2102 SWAP2 PUSH2 0x23BC JUMP JUMPDEST SWAP3 PUSH2 0x210F CALLVALUE PUSH1 0x4 SLOAD PUSH2 0x2045 JUMP JUMPDEST PUSH1 0x4 SSTORE PUSH2 0x211E CALLVALUE PUSH1 0x6 SLOAD PUSH2 0x2045 JUMP JUMPDEST PUSH1 0x6 SSTORE DUP7 ISZERO PUSH2 0x2303 JUMPI PUSH2 0x2133 SWAP1 DUP8 LT ISZERO PUSH2 0x2052 JUMP JUMPDEST PUSH1 0x1 PUSH1 0x1 PUSH1 0x40 SHL SUB DUP7 AND PUSH1 0x7 SIGNEXTEND SWAP1 PUSH1 0x40 MLOAD DUP3 DUP2 MSTORE DUP2 PUSH32 0xB7555D949A897ACB395F95E3F2DF8B700519404826BB13CD6526B756F6A1C907 PUSH1 0x20 CALLER SWAP4 LOG3 DUP3 PUSH32 0x0 AND DUP1 EXTCODESIZE ISZERO PUSH2 0x22FF JUMPI PUSH1 0x40 MLOAD PUSH4 0xBB81C875 PUSH1 0xE0 SHL DUP2 MSTORE CALLER PUSH1 0x4 DUP3 ADD MSTORE PUSH1 0x24 DUP2 ADD DUP10 SWAP1 MSTORE SWAP1 DUP8 SWAP1 DUP3 SWAP1 PUSH1 0x44 SWAP1 DUP3 SWAP1 DUP5 SWAP1 GAS CALL DUP1 ISZERO PUSH2 0x22F4 JUMPI SWAP2 PUSH2 0x22A7 SWAP8 SWAP6 SWAP4 SWAP2 PUSH1 0x40 SWAP8 SWAP6 SWAP4 PUSH2 0x22E1 JUMPI JUMPDEST POP PUSH2 0x21E4 DUP10 DUP7 SLOAD PUSH2 0x2045 JUMP JUMPDEST DUP6 SSTORE DUP7 MLOAD SWAP2 DUP3 MSTORE DUP6 PUSH1 0x20 DUP4 ADD MSTORE PUSH32 0xAD91542866F4DA9EBED5A2B1713258F4BF970F84E7B2A0B8AAB2DE28D11FFFFD DUP8 CALLER SWAP4 LOG3 JUMPDEST DUP5 MLOAD SWAP3 PUSH2 0x2223 DUP5 PUSH2 0x1C93 JUMP JUMPDEST CALLVALUE DUP5 MSTORE PUSH1 0x20 DUP5 ADD SWAP4 TIMESTAMP DUP6 MSTORE DUP7 DUP2 ADD SWAP4 DUP5 MSTORE PUSH1 0x60 DUP2 ADD DUP10 DUP2 MSTORE PUSH1 0x80 DUP3 ADD SWAP5 CALLER DUP7 MSTORE PUSH1 0xA0 DUP4 ADD SWAP7 ADDRESS DUP9 MSTORE PUSH1 0x9 SLOAD DUP10 MSTORE PUSH1 0x7 PUSH1 0x20 MSTORE DUP10 DUP10 KECCAK256 SWAP4 MLOAD DUP5 SSTORE MLOAD PUSH1 0x1 DUP5 ADD SSTORE MLOAD PUSH1 0x2 DUP4 ADD SSTORE MLOAD PUSH1 0x3 DUP3 ADD SSTORE DUP3 PUSH1 0x4 DUP3 ADD SWAP5 MLOAD AND SWAP4 PUSH1 0x1 PUSH1 0x1 PUSH1 0x60 SHL SUB PUSH1 0xA0 SHL SWAP5 DUP6 DUP3 SLOAD AND OR SWAP1 SSTORE ADD SWAP3 MLOAD AND SWAP1 DUP3 SLOAD AND OR SWAP1 SSTORE CALLER DUP2 MSTORE PUSH1 0x8 PUSH1 0x20 MSTORE KECCAK256 PUSH1 0x9 SLOAD SWAP1 PUSH2 0x1FE6 JUMP JUMPDEST PUSH2 0x22B2 PUSH1 0x9 SLOAD PUSH2 0x2020 JUMP JUMPDEST PUSH1 0x9 SSTORE PUSH1 0x40 DUP1 MLOAD CALLVALUE DUP2 MSTORE PUSH1 0x20 DUP2 ADD SWAP3 SWAP1 SWAP3 MSTORE TIMESTAMP SWAP1 DUP3 ADD MSTORE CALLER SWAP1 PUSH1 0x0 DUP1 MLOAD PUSH1 0x20 PUSH2 0x3239 DUP4 CODECOPY DUP2 MLOAD SWAP2 MSTORE SWAP1 PUSH1 0x60 SWAP1 LOG2 JUMP JUMPDEST PUSH2 0x22ED SWAP1 SWAP7 SWAP2 SWAP7 PUSH2 0x1CC4 JUMP JUMPDEST SWAP5 CODESIZE PUSH2 0x21D8 JUMP JUMPDEST PUSH1 0x40 MLOAD RETURNDATASIZE DUP10 DUP3 RETURNDATACOPY RETURNDATASIZE SWAP1 REVERT JUMPDEST DUP7 DUP1 REVERT JUMPDEST POP POP SWAP2 PUSH2 0x22A7 SWAP4 SWAP2 PUSH1 0x40 SWAP4 PUSH2 0x2217 JUMP JUMPDEST PUSH2 0x22A7 SWAP7 SWAP5 POP PUSH1 0x40 SWAP6 SWAP4 SWAP3 POP SWAP1 PUSH2 0x2335 SWAP2 CALLVALUE PUSH1 0x4 SSTORE CALLVALUE PUSH1 0x6 SSTORE PUSH1 0x1 DUP6 SSTORE PUSH2 0x23BC JUMP JUMPDEST SWAP1 DUP5 MLOAD SWAP3 PUSH2 0x2223 DUP5 PUSH2 0x1C93 JUMP JUMPDEST DUP2 DUP2 MUL SWAP3 SWAP2 DUP2 ISZERO SWAP2 DUP5 DIV EQ OR ISZERO PUSH2 0x202F JUMPI JUMP JUMPDEST SWAP2 SWAP1 DUP3 SUB SWAP2 DUP3 GT PUSH2 0x202F JUMPI JUMP JUMPDEST RETURNDATASIZE ISZERO PUSH2 0x238D JUMPI RETURNDATASIZE SWAP1 PUSH2 0x2373 DUP3 PUSH2 0x1D7F JUMP JUMPDEST SWAP2 PUSH2 0x2381 PUSH1 0x40 MLOAD SWAP4 DUP5 PUSH2 0x1D5E JUMP JUMPDEST DUP3 MSTORE RETURNDATASIZE PUSH1 0x0 PUSH1 0x20 DUP5 ADD RETURNDATACOPY JUMP JUMPDEST PUSH1 0x60 SWAP1 JUMP JUMPDEST PUSH1 0x5 SLOAD SWAP1 DUP2 ISZERO PUSH2 0x23B5 JUMPI PUSH2 0x23B2 SWAP2 PUSH2 0x23A9 SWAP2 PUSH2 0x2342 JUMP JUMPDEST PUSH1 0x4 SLOAD SWAP1 PUSH2 0x1E93 JUMP JUMPDEST SWAP1 JUMP JUMPDEST POP POP PUSH1 0x0 SWAP1 JUMP JUMPDEST SWAP1 DUP2 ISZERO PUSH2 0x23C9 DUP2 ISZERO PUSH2 0x1F33 JUMP JUMPDEST PUSH2 0x23D4 DUP3 ISZERO ISZERO PUSH2 0x1F89 JUMP JUMPDEST PUSH3 0xF4240 DUP1 DUP5 MUL SWAP4 DUP5 DIV EQ OR ISZERO PUSH2 0x202F JUMPI PUSH2 0x23B2 SWAP2 PUSH2 0x1E93 JUMP JUMPDEST PUSH1 0x5 SLOAD DUP1 ISZERO PUSH2 0x23B5 JUMPI PUSH2 0x95A PUSH2 0x23B2 SWAP3 PUSH1 0x4 SLOAD SWAP1 PUSH2 0x2342 JUMP JUMPDEST PUSH32 0x0 PUSH1 0x1 PUSH1 0x1 PUSH1 0xA0 SHL SUB AND ISZERO PUSH2 0x247B JUMPI PUSH1 0x5 SLOAD PUSH1 0x0 SWAP2 DUP2 ISZERO PUSH2 0x2470 JUMPI PUSH2 0x2452 DUP3 PUSH2 0x95A PUSH1 0x4 SLOAD DUP7 PUSH2 0x2342 JUMP JUMPDEST SWAP2 PUSH2 0x2710 SWAP1 DUP2 DUP6 MUL SWAP2 DUP6 DUP4 DIV EQ DUP6 ISZERO OR ISZERO PUSH2 0x202F JUMPI PUSH2 0x23B2 SWAP2 PUSH2 0x1E93 JUMP JUMPDEST PUSH1 0x0 SWAP3 POP DUP3 SWAP2 POP DUP2 SWAP1 JUMP JUMPDEST PUSH1 0x0 SWAP1 PUSH1 0x0 SWAP1 PUSH1 0x0 SWAP1 JUMP JUMPDEST PUSH1 0x5 SLOAD DUP1 ISZERO PUSH2 0x249E JUMPI PUSH2 0x23B2 SWAP1 PUSH1 0x64 PUSH1 0x6 SLOAD DIV PUSH2 0x1E93 JUMP JUMPDEST POP PUSH1 0x0 SWAP1 JUMP JUMPDEST PUSH32 0x0 PUSH1 0x1 PUSH1 0x1 PUSH1 0xA0 SHL SUB AND ISZERO DUP1 ISZERO PUSH2 0x24F8 JUMPI JUMPDEST PUSH2 0x24F3 JUMPI PUSH1 0x6 SLOAD ISZERO PUSH1 0x1 OR ISZERO PUSH2 0x202F JUMPI PUSH1 0x5 SLOAD ISZERO PUSH2 0x1E9D JUMPI PUSH1 0x0 SWAP1 JUMP JUMPDEST PUSH1 0x0 SWAP1 JUMP JUMPDEST POP PUSH1 0x5 SLOAD ISZERO PUSH2 0x24D6 JUMP JUMPDEST DUP1 PUSH1 0x3 SIGNEXTEND SWAP1 PUSH1 0x16 DUP3 EQ PUSH2 0x300A JUMPI PUSH1 0x9 DUP3 EQ PUSH2 0x2FB5 JUMPI PUSH1 0xA DUP3 EQ PUSH2 0x2F54 JUMPI PUSH1 0x7 DUP3 EQ PUSH2 0x2EFC JUMPI PUSH1 0xF DUP3 EQ PUSH2 0x2E9B JUMPI PUSH1 0x10 DUP3 EQ PUSH2 0x2E3A JUMPI PUSH1 0x1E DUP3 EQ PUSH2 0x2DEC JUMPI PUSH1 0x22 DUP3 EQ PUSH2 0x2D8B JUMPI PUSH1 0x6F DUP3 EQ PUSH2 0x2D3C JUMPI PUSH1 0xAA DUP3 EQ PUSH2 0x2CDB JUMPI PUSH1 0xAB DUP3 EQ PUSH2 0x2C89 JUMPI PUSH1 0xAE DUP3 EQ PUSH2 0x2C35 JUMPI PUSH1 0xAF DUP3 EQ PUSH2 0x2BD4 JUMPI PUSH1 0xBE DUP3 EQ PUSH2 0x2B84 JUMPI PUSH1 0xBF DUP3 EQ PUSH2 0x2B2B JUMPI PUSH1 0xA8 DUP3 EQ PUSH2 0x2ACA JUMPI PUSH1 0xA9 DUP3 EQ PUSH2 0x2A69 JUMPI PUSH1 0xBD DUP3 EQ PUSH2 0x2A1B JUMPI PUSH1 0x9B DUP3 EQ PUSH2 0x29CF JUMPI PUSH1 0x1A DUP3 EQ PUSH2 0x2985 JUMPI PUSH1 0x1B DUP3 EQ PUSH2 0x293B JUMPI PUSH1 0x26 DUP3 EQ PUSH2 0x28E2 JUMPI PUSH1 0x40 SWAP2 DUP3 DUP2 EQ PUSH2 0x288B JUMPI PUSH1 0x41 DUP2 EQ PUSH2 0x281F JUMPI PUSH2 0x117 DUP2 EQ PUSH2 0x27C7 JUMPI PUSH2 0x145 DUP2 EQ PUSH2 0x2768 JUMPI PUSH2 0x146 DUP2 EQ PUSH2 0x2709 JUMPI PUSH2 0x147 DUP2 EQ PUSH2 0x26A0 JUMPI PUSH2 0x148 EQ PUSH2 0x264C JUMPI PUSH1 0x33 PUSH2 0x2609 PUSH4 0xFFFFFFFF PUSH2 0x23B2 SWAP4 AND PUSH2 0x302F JUMP JUMPDEST SWAP3 MLOAD DUP1 SWAP4 PUSH19 0x554E4B4E4F574E5F4552524F525F434F44455F PUSH1 0x68 SHL PUSH1 0x20 DUP4 ADD MSTORE PUSH2 0x263C DUP2 MLOAD DUP1 SWAP3 PUSH1 0x20 DUP7 DUP7 ADD SWAP2 ADD PUSH2 0x1D9A JUMP JUMPDEST DUP2 ADD SUB PUSH1 0x13 DUP2 ADD DUP5 MSTORE ADD DUP3 PUSH2 0x1D5E JUMP JUMPDEST POP PUSH19 0x206D616E79206368696C64207265636F726473 PUSH1 0x68 SHL DUP2 MLOAD SWAP2 PUSH2 0x2670 DUP4 PUSH2 0x1D28 JUMP JUMPDEST PUSH1 0x33 DUP4 MSTORE PUSH32 0x4D41585F4348494C445F5245434F5244535F4558434545444544202D20546F6F PUSH1 0x20 DUP5 ADD MSTORE DUP3 ADD MSTORE SWAP1 JUMP JUMPDEST POP POP PUSH32 0x6666696369656E742062616C616E636520666F722073746F726167652072656E DUP2 MLOAD SWAP2 PUSH2 0x26CF DUP4 PUSH2 0x1D43 JUMP JUMPDEST PUSH1 0x41 DUP4 MSTORE PUSH32 0x494E53554646494349454E545F53544F524147455F52454E54202D20496E7375 PUSH1 0x20 DUP5 ADD MSTORE DUP3 ADD MSTORE PUSH1 0x1D PUSH1 0xFA SHL PUSH1 0x60 DUP3 ADD MSTORE SWAP1 JUMP JUMPDEST POP POP PUSH32 0x6E76616C6964207369676E617475726520666F7220707265636F6D70696C6500 DUP2 MLOAD SWAP2 PUSH2 0x2738 DUP4 PUSH2 0x1D28 JUMP JUMPDEST PUSH1 0x3F DUP4 MSTORE PUSH32 0x494E56414C49445F505245434F4D50494C455F5349474E4154555245202D2049 PUSH1 0x20 DUP5 ADD MSTORE DUP3 ADD MSTORE SWAP1 JUMP JUMPDEST POP POP PUSH32 0x6E74697469657320696E20707269636520726567696D65207265616368656400 DUP2 MLOAD SWAP2 PUSH2 0x2797 DUP4 PUSH2 0x1D28 JUMP JUMPDEST PUSH1 0x3F DUP4 MSTORE PUSH32 0x4D41585F454E5449544945535F43524541544544202D204D6178696D756D2065 PUSH1 0x20 DUP5 ADD MSTORE DUP3 ADD MSTORE SWAP1 JUMP JUMPDEST POP POP PUSH22 0x1CDD5CC81B9BD9194819D85CC8195E1A185D5CDD1959 PUSH1 0x52 SHL DUP2 MLOAD SWAP2 PUSH2 0x27EF DUP4 PUSH2 0x1D28 JUMP JUMPDEST PUSH1 0x36 DUP4 MSTORE PUSH32 0x434F4E53454E5355535F4741535F455848415553544544202D20436F6E73656E PUSH1 0x20 DUP5 ADD MSTORE DUP3 ADD MSTORE SWAP1 JUMP JUMPDEST POP POP PUSH32 0x616E73616374696F6E2068617320746F6F206D616E79206E6573746564206C61 DUP2 MLOAD SWAP2 PUSH2 0x284E DUP4 PUSH2 0x1D43 JUMP JUMPDEST PUSH1 0x44 DUP4 MSTORE PUSH32 0x5452414E53414354494F4E5F544F4F5F4D414E595F4C4159455253202D205472 PUSH1 0x20 DUP5 ADD MSTORE DUP3 ADD MSTORE PUSH4 0x79657273 PUSH1 0xE0 SHL PUSH1 0x60 DUP3 ADD MSTORE SWAP1 JUMP JUMPDEST POP POP PUSH21 0x1BDB88195E18D959591CC81CDA5E99481B1A5B5A5D PUSH1 0x5A SHL DUP2 MLOAD SWAP2 PUSH2 0x28B2 DUP4 PUSH2 0x1D28 JUMP JUMPDEST PUSH1 0x35 DUP4 MSTORE PUSH32 0x5452414E53414354494F4E5F4F56455253495A45202D205472616E7361637469 PUSH1 0x20 DUP5 ADD MSTORE DUP3 ADD MSTORE SWAP1 JUMP JUMPDEST POP POP PUSH1 0x40 MLOAD PUSH2 0x28F0 DUP2 PUSH2 0x1D28 JUMP JUMPDEST PUSH1 0x35 DUP2 MSTORE PUSH32 0x494E56414C49445F4B45595F454E434F44494E47202D204B657920656E636F64 PUSH1 0x20 DUP3 ADD MSTORE PUSH21 0x1A5B99C8199BDC9B585D081A5CC81A5B9D985B1A59 PUSH1 0x5A SHL PUSH1 0x40 DUP3 ADD MSTORE SWAP1 JUMP JUMPDEST POP POP PUSH1 0x40 MLOAD PUSH2 0x2949 DUP2 PUSH2 0x1D28 JUMP JUMPDEST PUSH1 0x26 DUP2 MSTORE PUSH32 0x4241445F454E434F44494E47202D204B657920656E636F64696E672069732069 PUSH1 0x20 DUP3 ADD MSTORE PUSH6 0x1B9D985B1A59 PUSH1 0xD2 SHL PUSH1 0x40 DUP3 ADD MSTORE SWAP1 JUMP JUMPDEST POP POP PUSH1 0x40 MLOAD PUSH2 0x2993 DUP2 PUSH2 0x1D28 JUMP JUMPDEST PUSH1 0x26 DUP2 MSTORE PUSH32 0x4B45595F5245515549524544202D205265717569726564206B6579206973206D PUSH1 0x20 DUP3 ADD MSTORE PUSH6 0x697373696E67 PUSH1 0xD0 SHL PUSH1 0x40 DUP3 ADD MSTORE SWAP1 JUMP JUMPDEST POP POP PUSH1 0x40 MLOAD PUSH2 0x29DD DUP2 PUSH2 0x1D28 JUMP JUMPDEST PUSH1 0x28 DUP2 MSTORE PUSH32 0x494E56414C49445F41444D494E5F4B4559202D2041646D696E206B6579206973 PUSH1 0x20 DUP3 ADD MSTORE PUSH8 0x81A5B9D985B1A59 PUSH1 0xC2 SHL PUSH1 0x40 DUP3 ADD MSTORE SWAP1 JUMP JUMPDEST POP POP PUSH1 0x40 MLOAD PUSH2 0x2A29 DUP2 PUSH2 0x1D28 JUMP JUMPDEST PUSH1 0x2A DUP2 MSTORE PUSH32 0x494E56414C49445F535550504C595F4B4559202D20537570706C79206B657920 PUSH1 0x20 DUP3 ADD MSTORE PUSH10 0x1A5CC81A5B9D985B1A59 PUSH1 0xB2 SHL PUSH1 0x40 DUP3 ADD MSTORE SWAP1 JUMP JUMPDEST POP POP PUSH1 0x40 MLOAD PUSH2 0x2A77 DUP2 PUSH2 0x1D28 JUMP JUMPDEST PUSH1 0x3E DUP2 MSTORE PUSH32 0x494E56414C49445F544F4B454E5F494E495449414C5F535550504C59202D2049 PUSH1 0x20 DUP3 ADD MSTORE PUSH32 0x6E697469616C20737570706C792076616C756520697320696E76616C69640000 PUSH1 0x40 DUP3 ADD MSTORE SWAP1 JUMP JUMPDEST POP POP PUSH1 0x40 MLOAD PUSH2 0x2AD8 DUP2 PUSH2 0x1D28 JUMP JUMPDEST PUSH1 0x38 DUP2 MSTORE PUSH32 0x494E56414C49445F544F4B454E5F444543494D414C53202D20546F6B656E2064 PUSH1 0x20 DUP3 ADD MSTORE PUSH32 0x6563696D616C732076616C756520697320696E76616C69640000000000000000 PUSH1 0x40 DUP3 ADD MSTORE SWAP1 JUMP JUMPDEST POP POP PUSH1 0x40 MLOAD PUSH2 0x2B39 DUP2 PUSH2 0x1D28 JUMP JUMPDEST PUSH1 0x35 DUP2 MSTORE PUSH32 0x544F4B454E5F4E414D455F544F4F5F4C4F4E47202D20546F6B656E206E616D65 PUSH1 0x20 DUP3 ADD MSTORE PUSH21 0x8195E18D959591CC81B195B99DD1A081B1A5B5A5D PUSH1 0x5A SHL PUSH1 0x40 DUP3 ADD MSTORE SWAP1 JUMP JUMPDEST POP POP PUSH1 0x40 MLOAD PUSH2 0x2B92 DUP2 PUSH2 0x1D28 JUMP JUMPDEST PUSH1 0x2C DUP2 MSTORE PUSH32 0x4D495353494E475F544F4B454E5F4E414D45202D20546F6B656E206E616D6520 PUSH1 0x20 DUP3 ADD MSTORE PUSH12 0x1B9BDD081C1C9BDD9A591959 PUSH1 0xA2 SHL PUSH1 0x40 DUP3 ADD MSTORE SWAP1 JUMP JUMPDEST POP POP PUSH1 0x40 MLOAD PUSH2 0x2BE2 DUP2 PUSH2 0x1D28 JUMP JUMPDEST PUSH1 0x39 DUP2 MSTORE PUSH32 0x544F4B454E5F53594D424F4C5F544F4F5F4C4F4E47202D20546F6B656E207379 PUSH1 0x20 DUP3 ADD MSTORE PUSH32 0x6D626F6C2065786365656473206C656E677468206C696D697400000000000000 PUSH1 0x40 DUP3 ADD MSTORE SWAP1 JUMP JUMPDEST POP POP PUSH1 0x40 MLOAD PUSH2 0x2C43 DUP2 PUSH2 0x1D28 JUMP JUMPDEST PUSH1 0x30 DUP2 MSTORE PUSH32 0x4D495353494E475F544F4B454E5F53594D424F4C202D20546F6B656E2073796D PUSH1 0x20 DUP3 ADD MSTORE PUSH16 0x189BDB081B9BDD081C1C9BDD9A591959 PUSH1 0x82 SHL PUSH1 0x40 DUP3 ADD MSTORE SWAP1 JUMP JUMPDEST POP POP PUSH1 0x40 MLOAD PUSH2 0x2C97 DUP2 PUSH2 0x1D28 JUMP JUMPDEST PUSH1 0x2E DUP2 MSTORE PUSH32 0x494E56414C49445F544F4B454E5F53594D424F4C202D20546F6B656E2073796D PUSH1 0x20 DUP3 ADD MSTORE PUSH14 0x189BDB081A5CC81A5B9D985B1A59 PUSH1 0x92 SHL PUSH1 0x40 DUP3 ADD MSTORE SWAP1 JUMP JUMPDEST POP POP PUSH1 0x40 MLOAD PUSH2 0x2CE9 DUP2 PUSH2 0x1D28 JUMP JUMPDEST PUSH1 0x3D DUP2 MSTORE PUSH32 0x494E56414C49445F54524541535552595F4143434F554E545F464F525F544F4B PUSH1 0x20 DUP3 ADD MSTORE PUSH32 0x454E202D205472656173757279206163636F756E7420696E76616C6964000000 PUSH1 0x40 DUP3 ADD MSTORE SWAP1 JUMP JUMPDEST POP POP PUSH1 0x40 MLOAD PUSH2 0x2D4A DUP2 PUSH2 0x1D28 JUMP JUMPDEST PUSH1 0x2B DUP2 MSTORE PUSH32 0x4D41585F4741535F4C494D49545F4558434545444544202D20476173206C696D PUSH1 0x20 DUP3 ADD MSTORE PUSH11 0x1A5D08195E18D959591959 PUSH1 0xAA SHL PUSH1 0x40 DUP3 ADD MSTORE SWAP1 JUMP JUMPDEST POP POP PUSH1 0x40 MLOAD PUSH2 0x2D99 DUP2 PUSH2 0x1D28 JUMP JUMPDEST PUSH1 0x38 DUP2 MSTORE PUSH32 0x434F4E54524143545F455845435554494F4E5F455843455054494F4E202D2043 PUSH1 0x20 DUP3 ADD MSTORE PUSH32 0x6F6E747261637420657865637574696F6E206661696C65640000000000000000 PUSH1 0x40 DUP3 ADD MSTORE SWAP1 JUMP JUMPDEST POP POP PUSH1 0x40 MLOAD PUSH2 0x2DFA DUP2 PUSH2 0x1D28 JUMP JUMPDEST PUSH1 0x2A DUP2 MSTORE PUSH32 0x494E53554646494349454E545F474153202D204E6F7420656E6F756768206761 PUSH1 0x20 DUP3 ADD MSTORE PUSH10 0x1CC81CDD5C1C1B1A5959 PUSH1 0xB2 SHL PUSH1 0x40 DUP3 ADD MSTORE SWAP1 JUMP JUMPDEST POP POP PUSH1 0x40 MLOAD PUSH2 0x2E48 DUP2 PUSH2 0x1D28 JUMP JUMPDEST PUSH1 0x3E DUP2 MSTORE PUSH32 0x494E56414C49445F434F4E54524143545F4944202D20436F6E74726163742049 PUSH1 0x20 DUP3 ADD MSTORE PUSH32 0x4420697320696E76616C6964206F7220646F6573206E6F742065786973740000 PUSH1 0x40 DUP3 ADD MSTORE SWAP1 JUMP JUMPDEST POP POP PUSH1 0x40 MLOAD PUSH2 0x2EA9 DUP2 PUSH2 0x1D28 JUMP JUMPDEST PUSH1 0x3C DUP2 MSTORE PUSH32 0x494E56414C49445F4143434F554E545F4944202D204163636F756E7420494420 PUSH1 0x20 DUP3 ADD MSTORE PUSH32 0x697320696E76616C6964206F7220646F6573206E6F7420657869737400000000 PUSH1 0x40 DUP3 ADD MSTORE SWAP1 JUMP JUMPDEST POP POP PUSH1 0x40 MLOAD PUSH2 0x2F0A DUP2 PUSH2 0x1D28 JUMP JUMPDEST PUSH1 0x34 DUP2 MSTORE PUSH32 0x494E56414C49445F5349474E4154555245202D205472616E73616374696F6E20 PUSH1 0x20 DUP3 ADD MSTORE PUSH20 0x1CDA59DB985D1D5C99481A5CC81A5B9D985B1A59 PUSH1 0x62 SHL PUSH1 0x40 DUP3 ADD MSTORE SWAP1 JUMP JUMPDEST POP POP PUSH1 0x40 MLOAD PUSH2 0x2F62 DUP2 PUSH2 0x1D28 JUMP JUMPDEST PUSH1 0x40 DUP2 MSTORE PUSH32 0x494E53554646494349454E545F50415945525F42414C414E4345202D20506179 PUSH1 0x20 DUP3 ADD MSTORE PUSH32 0x6572206163636F756E742068617320696E73756666696369656E742048424152 PUSH1 0x40 DUP3 ADD MSTORE SWAP1 JUMP JUMPDEST POP POP PUSH1 0x40 MLOAD PUSH2 0x2FC3 DUP2 PUSH2 0x1D28 JUMP JUMPDEST PUSH1 0x31 DUP2 MSTORE PUSH32 0x494E53554646494349454E545F54585F464545202D204E6F7420656E6F756768 PUSH1 0x20 DUP3 ADD MSTORE PUSH17 0x819D85CCBD99959481C1C9BDD9A591959 PUSH1 0x7A SHL PUSH1 0x40 DUP3 ADD MSTORE SWAP1 JUMP JUMPDEST POP POP PUSH1 0x40 MLOAD PUSH2 0x3018 DUP2 PUSH2 0x1D0D JUMP JUMPDEST PUSH1 0x7 DUP2 MSTORE PUSH7 0x53554343455353 PUSH1 0xC8 SHL PUSH1 0x20 DUP3 ADD MSTORE SWAP1 JUMP JUMPDEST DUP1 ISZERO PUSH2 0x30F1 JUMPI DUP1 DUP2 PUSH1 0x0 SWAP3 JUMPDEST PUSH2 0x30DD JUMPI POP PUSH2 0x3049 DUP3 PUSH2 0x1D7F JUMP JUMPDEST SWAP2 PUSH2 0x3057 PUSH1 0x40 MLOAD SWAP4 DUP5 PUSH2 0x1D5E JUMP JUMPDEST DUP1 DUP4 MSTORE DUP2 PUSH1 0x1F NOT PUSH2 0x3067 DUP4 PUSH2 0x1D7F JUMP JUMPDEST ADD SWAP2 PUSH1 0x20 SWAP3 CALLDATASIZE DUP5 DUP8 ADD CALLDATACOPY SWAP3 JUMPDEST PUSH2 0x307D JUMPI POP POP POP SWAP1 JUMP JUMPDEST PUSH1 0x0 NOT DUP4 ADD SWAP3 DUP4 GT PUSH2 0x202F JUMPI DUP3 PUSH1 0xA DUP1 DUP4 DIV SWAP3 DUP2 DUP5 MUL SWAP2 DUP5 DUP4 DIV EQ DUP5 ISZERO OR ISZERO PUSH2 0x202F JUMPI PUSH2 0x30AD PUSH1 0xFF SWAP3 DUP4 SWAP3 PUSH2 0x2355 JUMP JUMPDEST AND PUSH1 0x30 ADD SWAP1 DUP2 GT PUSH2 0x202F JUMPI DUP6 MLOAD DUP3 LT ISZERO PUSH2 0x1DFA JUMPI PUSH1 0xF8 SHL PUSH1 0x1 PUSH1 0x1 PUSH1 0xF8 SHL SUB NOT AND PUSH1 0x0 BYTE SWAP1 DUP6 ADD DUP4 ADD MSTORE8 DUP1 PUSH2 0x3073 JUMP JUMPDEST SWAP2 PUSH2 0x30E9 PUSH1 0xA SWAP2 PUSH2 0x2020 JUMP JUMPDEST SWAP3 DIV DUP1 PUSH2 0x303B JUMP JUMPDEST POP PUSH1 0x40 MLOAD PUSH2 0x30FE DUP2 PUSH2 0x1D0D JUMP JUMPDEST PUSH1 0x1 DUP2 MSTORE PUSH1 0x3 PUSH1 0xFC SHL PUSH1 0x20 DUP3 ADD MSTORE SWAP1 JUMP JUMPDEST PUSH1 0xFF PUSH1 0x2 SLOAD AND ISZERO PUSH2 0x311C JUMPI JUMP JUMPDEST PUSH1 0x40 MLOAD PUSH4 0x8DFC202B PUSH1 0xE0 SHL DUP2 MSTORE PUSH1 0x4 SWAP1 REVERT JUMPDEST ISZERO PUSH2 0x3135 JUMPI JUMP JUMPDEST PUSH1 0x40 MLOAD PUSH3 0x461BCD PUSH1 0xE5 SHL DUP2 MSTORE PUSH1 0x20 PUSH1 0x4 DUP3 ADD MSTORE PUSH1 0x13 PUSH1 0x24 DUP3 ADD MSTORE PUSH19 0x4E6F204842415220746F207769746864726177 PUSH1 0x68 SHL PUSH1 0x44 DUP3 ADD MSTORE PUSH1 0x64 SWAP1 REVERT JUMPDEST ISZERO PUSH2 0x3177 JUMPI JUMP JUMPDEST PUSH1 0x40 MLOAD PUSH3 0x461BCD PUSH1 0xE5 SHL DUP2 MSTORE PUSH1 0x20 PUSH1 0x4 DUP3 ADD MSTORE PUSH1 0xF PUSH1 0x24 DUP3 ADD MSTORE PUSH15 0x125B9D985B1A59081190D114881251 PUSH1 0x8A SHL PUSH1 0x44 DUP3 ADD MSTORE PUSH1 0x64 SWAP1 REVERT JUMPDEST SWAP1 DUP2 PUSH1 0x20 SWAP2 SUB SLT PUSH2 0x1C12 JUMPI MLOAD DUP1 PUSH1 0x3 SIGNEXTEND DUP2 SUB PUSH2 0x1C12 JUMPI SWAP1 JUMP JUMPDEST PUSH1 0x0 SWAP2 DUP3 SWAP2 PUSH1 0x40 MLOAD SWAP1 PUSH1 0x20 DUP3 ADD SWAP3 PUSH4 0x248A35EF PUSH1 0xE1 SHL DUP5 MSTORE PUSH1 0x1 DUP1 PUSH1 0xA0 SHL SUB DUP1 SWAP3 AND PUSH1 0x24 DUP5 ADD MSTORE AND PUSH1 0x44 DUP3 ADD MSTORE PUSH1 0x44 DUP2 MSTORE PUSH2 0x3201 DUP2 PUSH2 0x1D43 JUMP JUMPDEST MLOAD SWAP1 DUP3 PUSH2 0x167 GAS CALL PUSH2 0x3211 PUSH2 0x2362 JUMP JUMPDEST SWAP1 ISZERO PUSH2 0x3230 JUMPI DUP1 PUSH1 0x20 DUP1 PUSH2 0x322A SWAP4 MLOAD DUP4 ADD ADD SWAP2 ADD PUSH2 0x31AE JUMP JUMPDEST PUSH1 0x3 SIGNEXTEND SWAP1 JUMP JUMPDEST POP PUSH1 0x15 PUSH2 0x322A JUMP INVALID PUSH5 0xB83944E79C EXTCODECOPY 0xE8 0xD4 0xC2 SWAP8 COINBASE SAR 0xE6 CALLDATACOPY 0xC3 0xE1 MUL 0xD0 PUSH5 0x677AAC0C16 CODECOPY PUSH23 0xEBDCD6F50EA2646970667358221220D9022A5ABCFD73A1 0xF9 CALLVALUE 0xB4 0x28 PUSH13 0x1790C3DC79F53525DEB8B8150 DUP5 CALLER SELFBALANCE 0x27 COINBASE 0xD9 PUSH5 0x736F6C6343 STOP ADDMOD EQ STOP CALLER LOG2 PUSH5 0x6970667358 0x22 SLT KECCAK256 DUP12 PUSH28 0x197970F1717068E81BE5090524F35BD08A5D5B1CEC50808901AB11DD MOD PUSH32 0x64736F6C63430008140033000000000000000000000000000000000000000000 "},"methodIdentifiers":{"allPools(uint256)":"41d1de97","burnCSLP(uint256)":"1fe4ff29","createCSLPToken()":"53b4fd08","createFCDRToken()":"bc031c52","createUserPool(address)":"772516c3","cslpToken()":"9827d473","fcdrToken()":"0a5579d1","getAllPools()":"d88ff1f4","getErrorMessage(int32)":"be591129","getPoolCount()":"8eec5d70","getUserPool(address)":"107a4802","hasPool(address)":"1246dbf5","mintCSLP(address,uint256)":"bb81c875","mintFCDR(address)":"9cac984c","owner()":"8da5cb5b","redirectForToken(address,bytes)":"618dc65e","transferFrom(address,address,address,uint256)":"15dacbea","transferFromNFT(address,address,address,uint256)":"9b23d3d9","transferOwnership(address)":"f2fde38b","userPools(address)":"33049e0e"}}}}}