{"contracts/ClearSkyLiquidityPoolV3.sol":{"ClearSkyLiquidityPoolV3":{"abi":[{"inputs":[{"internalType":"address","name":"_owner","type":"address"}],"stateMutability":"nonpayable","type":"constructor"},{"inputs":[],"name":"EnforcedPause","type":"error"},{"inputs":[],"name":"ExpectedPause","type":"error"},{"inputs":[],"name":"InsufficientHBAR","type":"error"},{"inputs":[],"name":"InsufficientInitialLiquidity","type":"error"},{"inputs":[],"name":"InsufficientLPBalance","type":"error"},{"inputs":[],"name":"InvalidAmounts","type":"error"},{"inputs":[],"name":"NoLiquidityProvided","type":"error"},{"inputs":[{"internalType":"address","name":"owner","type":"address"}],"name":"OwnableInvalidOwner","type":"error"},{"inputs":[{"internalType":"address","name":"account","type":"address"}],"name":"OwnableUnauthorizedAccount","type":"error"},{"inputs":[],"name":"PoolAlreadyInitialized","type":"error"},{"inputs":[],"name":"PoolNotActive","type":"error"},{"inputs":[],"name":"ReentrancyGuardReentrantCall","type":"error"},{"inputs":[],"name":"SlippageExceeded","type":"error"},{"inputs":[],"name":"TokenAlreadyCreated","type":"error"},{"inputs":[{"internalType":"int32","name":"responseCode","type":"int32"}],"name":"TokenCreationFailed","type":"error"},{"inputs":[],"name":"TokenNotCreated","type":"error"},{"anonymous":false,"inputs":[{"indexed":false,"internalType":"bool","name":"","type":"bool"},{"indexed":false,"internalType":"bytes","name":"","type":"bytes"}],"name":"CallResponseEvent","type":"event"},{"anonymous":false,"inputs":[{"indexed":true,"internalType":"address","name":"owner","type":"address"},{"indexed":false,"internalType":"uint256","name":"fcdrId","type":"uint256"},{"indexed":false,"internalType":"uint256","name":"hbarAmount","type":"uint256"},{"indexed":false,"internalType":"uint256","name":"timestamp","type":"uint256"}],"name":"FCDRMinted","type":"event"},{"anonymous":false,"inputs":[{"indexed":true,"internalType":"address","name":"tokenAddress","type":"address"},{"indexed":false,"internalType":"string","name":"name","type":"string"},{"indexed":false,"internalType":"string","name":"symbol","type":"string"},{"indexed":false,"internalType":"uint8","name":"decimals","type":"uint8"},{"indexed":false,"internalType":"address","name":"treasury","type":"address"}],"name":"FCDRTokenCreated","type":"event"},{"anonymous":false,"inputs":[{"indexed":true,"internalType":"address","name":"collector","type":"address"},{"indexed":false,"internalType":"uint256","name":"hbarAmount","type":"uint256"},{"indexed":false,"internalType":"uint256","name":"timestamp","type":"uint256"}],"name":"FeesCollected","type":"event"},{"anonymous":false,"inputs":[{"indexed":true,"internalType":"address","name":"token","type":"address"},{"indexed":true,"internalType":"address","name":"account","type":"address"}],"name":"HTSAssociateAttempt","type":"event"},{"anonymous":false,"inputs":[{"indexed":true,"internalType":"address","name":"token","type":"address"},{"indexed":true,"internalType":"address","name":"account","type":"address"},{"indexed":false,"internalType":"string","name":"reason","type":"string"}],"name":"HTSAssociateSkipped","type":"event"},{"anonymous":false,"inputs":[{"indexed":true,"internalType":"address","name":"token","type":"address"},{"indexed":true,"internalType":"address","name":"account","type":"address"}],"name":"HTSAssociateSuccess","type":"event"},{"anonymous":false,"inputs":[{"indexed":true,"internalType":"address","name":"token","type":"address"},{"indexed":false,"internalType":"int64","name":"amount","type":"int64"},{"indexed":false,"internalType":"int64[]","name":"serialNumbers","type":"int64[]"}],"name":"HTSBurnAttempt","type":"event"},{"anonymous":false,"inputs":[{"indexed":true,"internalType":"address","name":"token","type":"address"},{"indexed":false,"internalType":"int64","name":"amount","type":"int64"},{"indexed":false,"internalType":"int32","name":"responseCode","type":"int32"}],"name":"HTSBurnFailed","type":"event"},{"anonymous":false,"inputs":[{"indexed":true,"internalType":"address","name":"token","type":"address"},{"indexed":false,"internalType":"int64","name":"amount","type":"int64"},{"indexed":false,"internalType":"int64","name":"newTotalSupply","type":"int64"}],"name":"HTSBurnSuccess","type":"event"},{"anonymous":false,"inputs":[{"indexed":true,"internalType":"address","name":"token","type":"address"},{"indexed":true,"internalType":"address","name":"to","type":"address"},{"indexed":false,"internalType":"int64","name":"amount","type":"int64"}],"name":"HTSMintAttempt","type":"event"},{"anonymous":false,"inputs":[{"indexed":true,"internalType":"address","name":"token","type":"address"},{"indexed":true,"internalType":"address","name":"to","type":"address"},{"indexed":false,"internalType":"int64","name":"amount","type":"int64"},{"indexed":false,"internalType":"int32","name":"responseCode","type":"int32"}],"name":"HTSMintFailed","type":"event"},{"anonymous":false,"inputs":[{"indexed":true,"internalType":"address","name":"token","type":"address"},{"indexed":true,"internalType":"address","name":"to","type":"address"},{"indexed":false,"internalType":"int64","name":"amount","type":"int64"},{"indexed":false,"internalType":"int64","name":"newTotalSupply","type":"int64"}],"name":"HTSMintSuccess","type":"event"},{"anonymous":false,"inputs":[{"indexed":true,"internalType":"address","name":"token","type":"address"},{"indexed":true,"internalType":"address","name":"from","type":"address"},{"indexed":true,"internalType":"address","name":"to","type":"address"},{"indexed":false,"internalType":"int64","name":"amount","type":"int64"}],"name":"HTSTransferAttempt","type":"event"},{"anonymous":false,"inputs":[{"indexed":true,"internalType":"address","name":"token","type":"address"},{"indexed":true,"internalType":"address","name":"from","type":"address"},{"indexed":true,"internalType":"address","name":"to","type":"address"},{"indexed":false,"internalType":"int64","name":"amount","type":"int64"},{"indexed":false,"internalType":"int32","name":"responseCode","type":"int32"}],"name":"HTSTransferFailed","type":"event"},{"anonymous":false,"inputs":[{"indexed":true,"internalType":"address","name":"token","type":"address"},{"indexed":true,"internalType":"address","name":"from","type":"address"},{"indexed":true,"internalType":"address","name":"to","type":"address"},{"indexed":false,"internalType":"int64","name":"amount","type":"int64"}],"name":"HTSTransferSuccess","type":"event"},{"anonymous":false,"inputs":[{"indexed":true,"internalType":"address","name":"user","type":"address"},{"indexed":false,"internalType":"uint256","name":"hbarAmount","type":"uint256"},{"indexed":false,"internalType":"uint256","name":"lpTokensMinted","type":"uint256"},{"indexed":false,"internalType":"uint256","name":"timestamp","type":"uint256"}],"name":"LiquidityAdded","type":"event"},{"anonymous":false,"inputs":[{"indexed":true,"internalType":"address","name":"user","type":"address"},{"indexed":false,"internalType":"uint256","name":"hbarAmount","type":"uint256"},{"indexed":false,"internalType":"uint256","name":"lpTokensBurned","type":"uint256"},{"indexed":false,"internalType":"uint256","name":"timestamp","type":"uint256"}],"name":"LiquidityRemoved","type":"event"},{"anonymous":false,"inputs":[{"indexed":true,"internalType":"address","name":"previousOwner","type":"address"},{"indexed":true,"internalType":"address","name":"newOwner","type":"address"}],"name":"OwnershipTransferred","type":"event"},{"anonymous":false,"inputs":[{"indexed":false,"internalType":"address","name":"account","type":"address"}],"name":"Paused","type":"event"},{"anonymous":false,"inputs":[{"indexed":true,"internalType":"address","name":"tokenAddress","type":"address"},{"indexed":false,"internalType":"string","name":"name","type":"string"},{"indexed":false,"internalType":"string","name":"symbol","type":"string"},{"indexed":false,"internalType":"uint8","name":"decimals","type":"uint8"},{"indexed":false,"internalType":"address","name":"treasury","type":"address"}],"name":"TokenCreated","type":"event"},{"anonymous":false,"inputs":[{"indexed":false,"internalType":"int32","name":"responseCode","type":"int32"},{"indexed":false,"internalType":"string","name":"errorMessage","type":"string"}],"name":"TokenCreationFailedEvent","type":"event"},{"anonymous":false,"inputs":[{"indexed":false,"internalType":"address","name":"account","type":"address"}],"name":"Unpaused","type":"event"},{"stateMutability":"payable","type":"fallback"},{"inputs":[],"name":"FEE_BPS","outputs":[{"internalType":"uint256","name":"","type":"uint256"}],"stateMutability":"view","type":"function"},{"inputs":[],"name":"FEE_DENOMINATOR","outputs":[{"internalType":"uint256","name":"","type":"uint256"}],"stateMutability":"view","type":"function"},{"inputs":[],"name":"MIN_LIQUIDITY","outputs":[{"internalType":"uint256","name":"","type":"uint256"}],"stateMutability":"view","type":"function"},{"inputs":[{"internalType":"uint256","name":"minLPTokens","type":"uint256"},{"internalType":"uint256","name":"usdAmount","type":"uint256"},{"internalType":"uint256","name":"maturationAmount","type":"uint256"}],"name":"addLiquidity","outputs":[],"stateMutability":"payable","type":"function"},{"inputs":[{"internalType":"uint256","name":"usdAmount","type":"uint256"},{"internalType":"uint256","name":"maturationAmount","type":"uint256"},{"internalType":"uint256","name":"minLPTokens","type":"uint256"}],"name":"addLiquidityWithUSD","outputs":[],"stateMutability":"payable","type":"function"},{"inputs":[{"internalType":"uint256","name":"fcdrId","type":"uint256"}],"name":"burnFCDR","outputs":[],"stateMutability":"nonpayable","type":"function"},{"inputs":[{"internalType":"uint256","name":"usdAmount","type":"uint256"},{"internalType":"uint256","name":"maturationAmount","type":"uint256"}],"name":"calculateCSLPFromUSD","outputs":[{"internalType":"uint256","name":"cslpTokens","type":"uint256"}],"stateMutability":"pure","type":"function"},{"inputs":[{"internalType":"uint256","name":"lpTokenAmount","type":"uint256"}],"name":"calculateHBAR","outputs":[{"internalType":"uint256","name":"hbarAmount","type":"uint256"}],"stateMutability":"view","type":"function"},{"inputs":[{"internalType":"uint256","name":"hbarAmount","type":"uint256"}],"name":"calculateLPTokens","outputs":[{"internalType":"uint256","name":"lpTokens","type":"uint256"}],"stateMutability":"view","type":"function"},{"inputs":[],"name":"createFCDRToken","outputs":[],"stateMutability":"payable","type":"function"},{"inputs":[{"internalType":"string","name":"_tokenName","type":"string"},{"internalType":"string","name":"_tokenSymbol","type":"string"}],"name":"createLPToken","outputs":[],"stateMutability":"payable","type":"function"},{"inputs":[],"name":"emergencyWithdraw","outputs":[],"stateMutability":"nonpayable","type":"function"},{"inputs":[{"internalType":"uint256","name":"","type":"uint256"}],"name":"fcdrMetadata","outputs":[{"internalType":"uint256","name":"hbarAmount","type":"uint256"},{"internalType":"uint256","name":"timestamp","type":"uint256"},{"internalType":"address","name":"ownerAddress","type":"address"},{"internalType":"address","name":"poolAddress","type":"address"},{"internalType":"uint256","name":"fcdrId","type":"uint256"}],"stateMutability":"view","type":"function"},{"inputs":[],"name":"fcdrToken","outputs":[{"internalType":"address","name":"","type":"address"}],"stateMutability":"view","type":"function"},{"inputs":[{"internalType":"int32","name":"responseCode","type":"int32"}],"name":"getErrorMessage","outputs":[{"internalType":"string","name":"errorMessage","type":"string"}],"stateMutability":"pure","type":"function"},{"inputs":[{"internalType":"uint256","name":"fcdrId","type":"uint256"}],"name":"getFCDRMetadata","outputs":[{"components":[{"internalType":"uint256","name":"hbarAmount","type":"uint256"},{"internalType":"uint256","name":"timestamp","type":"uint256"},{"internalType":"address","name":"ownerAddress","type":"address"},{"internalType":"address","name":"poolAddress","type":"address"},{"internalType":"uint256","name":"fcdrId","type":"uint256"}],"internalType":"struct ClearSkyLiquidityPoolV3.FCDRMetadata","name":"","type":"tuple"}],"stateMutability":"view","type":"function"},{"inputs":[{"internalType":"address","name":"owner","type":"address"}],"name":"getOwnerFCDRs","outputs":[{"internalType":"uint256[]","name":"","type":"uint256[]"}],"stateMutability":"view","type":"function"},{"inputs":[],"name":"getPoolInfo","outputs":[{"internalType":"uint256","name":"_totalHBAR","type":"uint256"},{"internalType":"uint256","name":"_totalLPTokens","type":"uint256"},{"internalType":"uint256","name":"_totalValue","type":"uint256"}],"stateMutability":"view","type":"function"},{"inputs":[{"internalType":"uint256","name":"purchaseId","type":"uint256"}],"name":"getPurchaseMetadata","outputs":[{"components":[{"internalType":"uint256","name":"hbarAmount","type":"uint256"},{"internalType":"uint256","name":"timestamp","type":"uint256"},{"internalType":"uint256","name":"numUsed","type":"uint256"},{"internalType":"address","name":"purchaser","type":"address"},{"internalType":"uint256","name":"purchaseId","type":"uint256"}],"internalType":"struct ClearSkyLiquidityPoolV3.PurchaseMetadata","name":"","type":"tuple"}],"stateMutability":"view","type":"function"},{"inputs":[],"name":"getTokenInfo","outputs":[{"components":[{"internalType":"string","name":"name","type":"string"},{"internalType":"string","name":"symbol","type":"string"},{"internalType":"uint8","name":"decimals","type":"uint8"},{"internalType":"address","name":"tokenAddress","type":"address"},{"internalType":"bool","name":"created","type":"bool"}],"internalType":"struct ClearSkyLiquidityPoolV3.TokenInfo","name":"","type":"tuple"}],"stateMutability":"view","type":"function"},{"inputs":[],"name":"getTotalFCDRs","outputs":[{"internalType":"uint256","name":"","type":"uint256"}],"stateMutability":"view","type":"function"},{"inputs":[],"name":"getTotalPurchases","outputs":[{"internalType":"uint256","name":"","type":"uint256"}],"stateMutability":"view","type":"function"},{"inputs":[{"internalType":"address","name":"user","type":"address"}],"name":"getUserPurchases","outputs":[{"internalType":"uint256[]","name":"","type":"uint256[]"}],"stateMutability":"view","type":"function"},{"inputs":[{"internalType":"address","name":"user","type":"address"}],"name":"getUserShare","outputs":[{"internalType":"uint256","name":"userLPBalance","type":"uint256"},{"internalType":"uint256","name":"userHBARValue","type":"uint256"},{"internalType":"uint256","name":"sharePercentage","type":"uint256"}],"stateMutability":"view","type":"function"},{"inputs":[{"internalType":"address","name":"user","type":"address"}],"name":"getUserValue","outputs":[{"internalType":"uint256","name":"userValue","type":"uint256"}],"stateMutability":"view","type":"function"},{"inputs":[],"name":"getValuePerLPToken","outputs":[{"internalType":"uint256","name":"valuePerToken","type":"uint256"}],"stateMutability":"view","type":"function"},{"inputs":[],"name":"initializePool","outputs":[],"stateMutability":"payable","type":"function"},{"inputs":[],"name":"isTokenCreated","outputs":[{"internalType":"bool","name":"created","type":"bool"}],"stateMutability":"view","type":"function"},{"inputs":[],"name":"lpToken","outputs":[{"internalType":"address","name":"","type":"address"}],"stateMutability":"view","type":"function"},{"inputs":[],"name":"owner","outputs":[{"internalType":"address","name":"","type":"address"}],"stateMutability":"view","type":"function"},{"inputs":[{"internalType":"address","name":"","type":"address"},{"internalType":"uint256","name":"","type":"uint256"}],"name":"ownerFCDRs","outputs":[{"internalType":"uint256","name":"","type":"uint256"}],"stateMutability":"view","type":"function"},{"inputs":[],"name":"pause","outputs":[],"stateMutability":"nonpayable","type":"function"},{"inputs":[],"name":"paused","outputs":[{"internalType":"bool","name":"","type":"bool"}],"stateMutability":"view","type":"function"},{"inputs":[{"internalType":"uint256","name":"","type":"uint256"}],"name":"purchaseMetadata","outputs":[{"internalType":"uint256","name":"hbarAmount","type":"uint256"},{"internalType":"uint256","name":"timestamp","type":"uint256"},{"internalType":"uint256","name":"numUsed","type":"uint256"},{"internalType":"address","name":"purchaser","type":"address"},{"internalType":"uint256","name":"purchaseId","type":"uint256"}],"stateMutability":"view","type":"function"},{"inputs":[{"internalType":"address","name":"token","type":"address"},{"internalType":"bytes","name":"encodedFunctionSelector","type":"bytes"}],"name":"redirectForToken","outputs":[{"internalType":"int256","name":"responseCode","type":"int256"},{"internalType":"bytes","name":"response","type":"bytes"}],"stateMutability":"nonpayable","type":"function"},{"inputs":[{"internalType":"uint256","name":"lpTokenAmount","type":"uint256"},{"internalType":"uint256","name":"minHBAR","type":"uint256"}],"name":"removeLiquidity","outputs":[],"stateMutability":"nonpayable","type":"function"},{"inputs":[],"name":"renounceOwnership","outputs":[],"stateMutability":"nonpayable","type":"function"},{"inputs":[],"name":"tokenInfo","outputs":[{"internalType":"string","name":"name","type":"string"},{"internalType":"string","name":"symbol","type":"string"},{"internalType":"uint8","name":"decimals","type":"uint8"},{"internalType":"address","name":"tokenAddress","type":"address"},{"internalType":"bool","name":"created","type":"bool"}],"stateMutability":"view","type":"function"},{"inputs":[],"name":"totalFCDRs","outputs":[{"internalType":"uint256","name":"","type":"uint256"}],"stateMutability":"view","type":"function"},{"inputs":[],"name":"totalHBAR","outputs":[{"internalType":"uint256","name":"","type":"uint256"}],"stateMutability":"view","type":"function"},{"inputs":[],"name":"totalLPTokens","outputs":[{"internalType":"uint256","name":"","type":"uint256"}],"stateMutability":"view","type":"function"},{"inputs":[],"name":"totalPurchases","outputs":[{"internalType":"uint256","name":"","type":"uint256"}],"stateMutability":"view","type":"function"},{"inputs":[],"name":"totalValue","outputs":[{"internalType":"uint256","name":"","type":"uint256"}],"stateMutability":"view","type":"function"},{"inputs":[{"internalType":"address","name":"token","type":"address"},{"internalType":"address","name":"from","type":"address"},{"internalType":"address","name":"to","type":"address"},{"internalType":"uint256","name":"amount","type":"uint256"}],"name":"transferFrom","outputs":[{"internalType":"int64","name":"responseCode","type":"int64"}],"stateMutability":"nonpayable","type":"function"},{"inputs":[{"internalType":"address","name":"token","type":"address"},{"internalType":"address","name":"from","type":"address"},{"internalType":"address","name":"to","type":"address"},{"internalType":"uint256","name":"serialNumber","type":"uint256"}],"name":"transferFromNFT","outputs":[{"internalType":"int64","name":"responseCode","type":"int64"}],"stateMutability":"nonpayable","type":"function"},{"inputs":[{"internalType":"address","name":"newOwner","type":"address"}],"name":"transferOwnership","outputs":[],"stateMutability":"nonpayable","type":"function"},{"inputs":[],"name":"unpause","outputs":[],"stateMutability":"nonpayable","type":"function"},{"inputs":[{"internalType":"address","name":"","type":"address"},{"internalType":"uint256","name":"","type":"uint256"}],"name":"userPurchases","outputs":[{"internalType":"uint256","name":"","type":"uint256"}],"stateMutability":"view","type":"function"},{"stateMutability":"payable","type":"receive"}],"evm":{"bytecode":{"linkReferences":{},"object":"6080346200054d57601f62004c5738819003918201601f19168301916001600160401b0383118484101762000436578084926020946040528339810103126200054d57516001600160a01b03808216918290036200054d57811562000534576000548260018060a01b0319821617600055167f8be0079c531659141344cd1fd0a4f28419497f9722a3daafe3b4186f6b6457e0600080a3600180805560028054610100600160a81b0319168155600360209081527f3617319a054d772f909f7c479a2cebe5066e836a939412e32403c99029b92eff929092557fa15bc60c955c405d20d9149c709e2460f1c2d9a497496a7f46004d1772c3054c5560047fc3a24b0501bd2c13a7e57f2db4369ec4c223447539fc0724a9d55ac4a06ebd4d5560087fcbc4e5fb02c3d1de23a9f1e014b4d2ee5aeaea9505df5e855c9210bf472495af5560107f83ec6a1f0257b830b5e016457c9cf1435391bf56cc98f369a58a54fe93772465557f405aad32e1adbac89bb7f176e338b8fc6e994ca210c9bb7bdca249b46594225055600660005260407fc69056f16cbaa3c616b828e333ab7d3a32310765507f8f58359e99ebb7a885f38190555160a081016001600160401b038111828210176200043657604052620001d862000552565b600081528152620001e862000552565b600081526020820152600060408201526000606082015260006080820152805190815160018060401b0381116200043657600854600181811c9116801562000529575b60208210146200041557601f8111620004c3575b50602092601f82116001146200045857928192936000926200044c575b50508160011b916000199060031b1c1916176008555b602081015180519091906001600160401b0381116200043657600954600181811c911680156200042b575b60208210146200041557601f8111620003ab575b50602092601f821160011462000340579281929360009262000334575b50508160011b916000199060031b1c1916176009555b60ff60408201511690600a5491610100600160a81b03606083015160081b1691608060ff60a81b910151151560a81b169260018060b01b031916171717600a556040516146e49081620005738239f35b015190503880620002ce565b601f19821693600960005260206000209160005b86811062000392575083600195961062000378575b505050811b01600955620002e4565b015160001960f88460031b161c1916905538808062000369565b9192602060018192868501518155019401920162000354565b60096000527f6e1540171b6c0c960b71a7020d9f60077f6af931a8bbf590da0223dacf75c7af601f830160051c810191602084106200040a575b601f0160051c01905b818110620003fd5750620002b1565b60008155600101620003ee565b9091508190620003e5565b634e487b7160e01b600052602260045260246000fd5b90607f16906200029d565b634e487b7160e01b600052604160045260246000fd5b0151905038806200025c565b601f19821693600860005260206000209160005b868110620004aa575083600195961062000490575b505050811b0160085562000272565b015160001960f88460031b161c1916905538808062000481565b919260206001819286850151815501940192016200046c565b60086000527ff3f7a9fe364faab93b216da50a3214154f22a0a2b415b23a84c8169e8b636ee3601f830160051c81016020841062000521575b601f830160051c82018110620005145750506200023f565b60008155600101620004fc565b5080620004fc565b90607f16906200022b565b604051631e4fbdf760e01b815260006004820152602490fd5b600080fd5b60405190602082016001600160401b03811183821017620004365760405256fe6080806040526004361015610052575b5036156100505760405162461bcd60e51b8152602060048201526012602482015271119d5b98dd1a5bdb881b9bdd08199bdd5b9960721b6044820152606490fd5b005b60003560e01c9081630a5579d114612e1c5750806315dacbea14612dc1578063185c112a14612d9b5780631cf2e69814612d2357806321b77d6314612d05578063240f1b6214612c6c578063250e6de014612aa65780632899943714612a885780632fb9125d14612a6d57806332acf78b14610f4e57806334111bbf14612a4f5780633474d1f9146129f057806338b37d1c1461298e5780633f4ba83a14612937578063422f1043146124ac57806342c649de1461248e5780634ddd1c54146123e35780634edec1ff14611c5f578063545466a5146118cb5780635962a9411461031b5780635c975abb146118a85780635fcbd2851461187f57806360246c881461184d578063618dc65e146117315780636addb663146116b5578063715018a61461165c578063734c79b6146114c85780637d56be3c1461147e5780638456cb59146114245780638da5cb5b146113fb5780639b23d3d91461135b5780639d7de6b314610f6c578063a7112efe14610f4e578063a78c849b14610f2a578063abb1dc4414610e49578063b79c41a214610e28578063bbbaee4c14610de6578063bc031c52146108d2578063be59112914610894578063bf333f2c14610878578063c6e5d8f6146107f0578063cf2c033414610798578063d4c3eea01461077a578063d73792a91461075d578063db2e21bc14610339578063ea04f1551461031b578063ef6283d9146102fd5763f2fde38b1461026f573861000f565b346102f85760203660031901126102f857610288612e40565b610290613218565b6001600160a01b039081169081156102df57600054826001600160601b0360a01b821617600055167f8be0079c531659141344cd1fd0a4f28419497f9722a3daafe3b4186f6b6457e0600080a3005b604051631e4fbdf760e01b815260006004820152602490fd5b600080fd5b346102f85760003660031901126102f8576020600654604051908152f35b346102f85760003660031901126102f8576020600d54604051908152f35b346102f85760003660031901126102f857610352613218565b61035a6143c2565b47801561072257600e546001600160a01b039081169190610385831515610380816143e1565b6143e1565b6040519261039284612f22565b60008452604051936020948581019163707a02cd60e11b83526084820193602483015260019384604484015260606064840152815180915260a48301908860a48260051b8601019301916000905b878b8484106106fa578b8b836000808d8d610404818f03601f198101835282612f8e565b5190826101675af1610414613631565b90156106e357805181016060828783019203126102f857610436868301614464565b9161044360408201614472565b506060810151906001600160401b0382116102f8570181603f820112156102f85786810151604088610474836132d3565b61048083519182612f8e565b838152019160051b8301019283116102f8576040889201905b8382106106cc57505050505b60030b6016810361065357506000546011546040519260049285166104c985612eec565b868552878501914283526040860191825260608601923084526080870194808652600052600f8a5260406000209651875551908601558560028601915116906001600160601b0360a01b91828254161790558560038601925116908254161790555191015580600054166000526010835261054b604060002060115490613591565b6105566011546135cb565b806011558160005416600019820191821161063d5760408051928352602083018590524290830152600091829182918291879181907fb5d1185f9eb3bc9f64976a0642fa385671626df86e9aecd91bcda7206b04566690606090a25af16105bb613631565b50156105f8577f2e4fb6077d4acf86e12bb7411fb82b2b3eaa6a49787f4b1e17b423e7ea84116991604091600054169382519182524290820152a2005b60405162461bcd60e51b815260048101849052601b60248201527f456d657267656e6379207769746864726177616c206661696c656400000000006044820152606490fd5b634e487b7160e01b600052601160045260246000fd5b61065d85916137b7565b906106a7603560405180947402321a2291036b4b73a34b733903330b4b632b21d1605d1b858301526106978151809287868601910161301f565b8101036015810185520183612f8e565b6106c860405192839262461bcd60e51b845260048401526024830190613042565b0390fd5b8280916106d884614472565b815201910190610499565b5060006040516106f281612f22565b5260156104a5565b6107148192939495969760a3198a82030186528851613042565b9601920192019092916103e0565b60405162461bcd60e51b81526020600482015260136024820152724e6f204842415220746f20776974686472617760681b6044820152606490fd5b346102f85760003660031901126102f85760206040516127108152f35b346102f85760003660031901126102f8576020600754604051908152f35b346102f85760403660031901126102f8576107b1612e40565b6001600160a01b03166000908152600c60205260409020805460243591908210156102f8576020916107e2916131d4565b90546040519160031b1c8152f35b346102f8576020806003193601126102f8576001600160a01b03610812612e40565b16600052600c8152604060002090604051908181845491828152019360005281600020916000905b8282106108615761085d8561085181890382612f8e565b60405191829182612e97565b0390f35b83548652948501946001938401939091019061083a565b346102f85760003660031901126102f8576020604051601e8152f35b346102f85760203660031901126102f8576004358060030b81036102f8576108be61085d916137b7565b604051918291602083526020830190613042565b60003660031901126102f8576108e6613218565b600e546001600160a01b0316610da1576108fe613244565b60405161090a81612f07565b600a815269233aba3ab9329021a22960b11b6020820152815260405161092f81612f07565b60048152632321a22960e11b6020820152602082015230604082015260405161095781612f58565b604c81527f4e6f6e2d7472616461626c6520746f6b656e20726570726573656e74696e672060208201527f656d657267656e63792048424152207769746864726177616c2066726f6d204360408201526b1b19585c94dade481c1bdbdb60a21b606082015260608201526040516109cd81612f73565b6002815260005b60408110610d8a575060e0820152610a036109ee30614609565b60e0830151906109fd82613337565b52613337565b50610a0c613316565b5060036000526003602052610a57604060002054610a286132ea565b30602082015260405191610a3b83612f07565b8252602082015260e083015190610a5182613344565b52613344565b50610100810151805160070b1580610d7b575b610d6c575b50604051630fb65bf360e01b602082015260606024820152610ae4610abb610aa5845161016060848601526101e4850190613042565b60208501518482036083190160a4860152613042565b60408401516001600160a01b031660c484015260608401518382036083190160e4850152613042565b916080810151151561010483015260a081015160070b61012483015260c0810151151561014483015260e08101519260831983820301610164840152835180825260208201916020808360051b8301019601926000915b838310610cdc5760008088610b96818c60406101008d0151805160070b61018485015260018060a01b036020820151166101a4850152015160070b6101c483015284604483015284606483015203601f198101835282612f8e565b602081519101346101675af1610baa613631565b9015610cd2576040818051810103126102f8576040610bcb60208301614464565b9101516001600160a01b03811691908290036102f85760030b5b60030b60168103610c7d575060018060a01b0316806001600160601b0360a01b600e541617600e557fcd448de8793f622663eef5d50c680ab37b5a19871f9bbc24fa81e2a715a43e4f61010060405160808152600a608082015269233aba3ab9329021a22960b11b60a082015260c06020820152600460c0820152632321a22960e11b60e082015260006040820152306060820152a2005b807f8e087745dd680d08f64711bfdd63e4496157eaa1c1774fddd382c76431dc1054610cba610cad6024946137b7565b6040519182918583613354565b0390a160405190631dd454b160e01b82526004820152fd5b5060006015610be5565b9091929396602080600192601f19858203018652818b5180518352015190604083820152815115156040820152848060a01b038383015116606082015260c0610d4d610d37604085015160a0608086015260e0850190613042565b6060850151848203603f190160a0860152613042565b926080878060a01b039101511691015299019301930191939290610b3b565b60406276a70091015281610a6f565b50604081015160070b15610a6a565b602090610d95613316565b828285010152016109d4565b60405162461bcd60e51b815260206004820152601a60248201527f4643445220746f6b656e20616c726561647920637265617465640000000000006044820152606490fd5b346102f85760203660031901126102f857610dff612e40565b5061085d610e0b6136d3565b604080519384526020840192909252908201529081906060820190565b346102f8576020610e41610e3b36613202565b90613688565b604051908152f35b346102f85760003660031901126102f85760006080604051610e6a81612eec565b60608152606060208201528260408201528260608201520152610efc604051610e9281612eec565b610e9a6130a1565b8152610ea461314d565b60208201908152600a54604083019160ff821683526060840160ff610f0f60018060a01b0393848660081c16845282608089019660a81c161515865260405198899860208a525160a060208b015260c08a0190613042565b9051888203601f190160408a0152613042565b94511660608601525116608084015251151560a08301520390f35b346102f85760203660031901126102f857610f43612e40565b506020610e4161374f565b346102f85760003660031901126102f8576020601154604051908152f35b346102f857610f7a36613202565b610f826133ec565b610f8a6133ce565b610f9b60ff600a5460a81c1661336e565b811561131d5760065480156112e157600554610fcc610fc383610fbe84886135da565b6133ae565b93841015613544565b47831161129c57610fea91610fe28486936135ed565b6005556135ed565b600655610ff9816007546135ed565b6007556001600160401b03821660070b60405161101581612f22565b6000815260008060018060a01b03926110a16110af856004541692837fb310aaac57f9a89f4e3661e38cb8df5ea9428b82d1bb2b8ab6a77c3f52818f026040518a8152604060208201528061106d60408201866135fa565b0390a26040519283916020830195636b48868360e11b875260248401528960448401526060606484015260848301906135fa565b03601f198101835282612f8e565b5190826101675af1906110c0613631565b9115611291576040828051810103126102f8576110eb60406110e460208501614464565b9301614472565b915b60030b601681036111d7575060045460408051600795860b81529390940b602084015216917f7b2f31b2ffda9d7a1ac640400c8f7eb1c8d0071689111f45797448a14697587c91a2600080808084335af1611146613631565b501561119b576111927f1dc8bb69df2b8e91fbdcbfcf93d951b3f0000f085a95fe3f7946d6161439245d9160405191829133954291846040919493926060820195825260208201520152565b0390a260018055005b60405162461bcd60e51b815260206004820152601460248201527312109054881d1c985b9cd9995c8819985a5b195960621b6044820152606490fd5b9150611221846112188761120f7fcccb9ca916a4b1199913d752d315547b23a41451ab4c699f6bae82cecf211b1e9798600554613584565b50600654613584565b50600754613584565b50600454169261124960405192839283909291602090604083019460070b835260030b910152565b0390a260405162461bcd60e51b815260206004820152601860248201527f48545320746f6b656e206275726e696e67206661696c656400000000000000006044820152606490fd5b6000915060156110ed565b60405162461bcd60e51b815260206004820152601960248201527f496e73756666696369656e74204842415220696e20706f6f6c000000000000006044820152606490fd5b60405162461bcd60e51b8152602060048201526014602482015273139bc81b1a5c5d5a591a5d1e481a5b881c1bdbdb60621b6044820152606490fd5b60405162461bcd60e51b8152602060048201526016602482015275139bc81314081d1bdad95b9cc81cdc1958da599a595960521b6044820152606490fd5b346102f8576000806113b66110a161137236612e56565b604051639b23d3d960e01b602082019081526001600160a01b03958616602483015293851660448201529390911660648401526084830152929091829060a4820190565b5190826101675af16113c6613631565b90156113f1576020818051810103126102f8576113e66020809201614464565b6040519060030b8152f35b50602060156113e6565b346102f85760003660031901126102f8576000546040516001600160a01b039091168152602090f35b346102f85760003660031901126102f85761143d613218565b6114456133ce565b600160ff1960025416176002557f62e78cea01bee320cd4e420270b5ea74000d11b0c9f74754ebdbfc544b05a2586020604051338152a1005b346102f85760403660031901126102f857611497612e40565b6001600160a01b03166000908152601060205260409020805460243591908210156102f8576020916107e2916131d4565b346102f8576020806003193601126102f8576004356114e5613218565b600e546001600160a01b03908116916114ff8315156143e1565b61150c6011548210614426565b600052600f835260406000209060405161152581612eec565b825481526001830154858201526080600483600286015416948560408501528460038201541660608501520154910152600054160361161757600080916040518481019163efef57f960e01b83526024820152306044820152600160648201526064815261159281612eec565b5190826101675af16115a2613631565b901561160f5781818051810103126102f857816115bf9101614464565b60030b601681036115cc57005b6115d5906137b7565b906106a7603560405180947402321a22910313ab93734b733903330b4b632b21d1605d1b858301526106978151809287868601910161301f565b5060156115bf565b60405162461bcd60e51b815260048101839052601a60248201527f4e6f7420746865206f776e6572206f66207468697320464344520000000000006044820152606490fd5b346102f85760003660031901126102f857611675613218565b600080546001600160a01b0319811682556001600160a01b03167f8be0079c531659141344cd1fd0a4f28419497f9722a3daafe3b4186f6b6457e08280a3005b346102f85760003660031901126102f8576116f66116d16130a1565b6116d961314d565b60ff611704600a549260405195869560a0875260a0870190613042565b908582036020870152613042565b8183166040850152600883901c6001600160a01b0316606085015260a89290921c16151560808301520390f35b346102f85760403660031901126102f85761174a612e40565b6024356001600160401b0381116102f857366023820112156102f8576000916110a16117bc61178485943690602481600401359101612fca565b604080516330c6e32f60e11b602082019081526001600160a01b03909616602482015260448101919091529283916064830190613042565b5190826101675af16117cc613631565b907f4af4780e06fe8cb9df64b0794fa6f01399af979175bb988e35e0e57e594567bc6040518215158152604060208201528061180b6040820186613042565b0390a1156118355760165b61085d60405192839260030b8352604060208401526040830190613042565b5060405161184281612f22565b600081526015611816565b346102f85760003660031901126102f85760055460065460075460408051938452602084019290925290820152606090f35b346102f85760003660031901126102f8576004546040516001600160a01b039091168152602090f35b346102f85760003660031901126102f857602060ff600254166040519015158152f35b6119306119396118da36612ed2565b93916118e46133ec565b6118ec6133ce565b6118fd60ff600a5460a81c1661336e565b61190a600654151561340f565b611915341515613452565b611920811515613491565b61192b8215156134e7565b613688565b91821015613544565b61194534600554613584565b60055561195434600754613584565b6007556001600160401b03811660070b60018060a01b03908160045416916119bc60405193838552602094817fb7555d949a897acb395f95e3f2df8b700519404826bb13cd6526b756f6a1c907873393a383604051916119b383612f22565b60008352614480565b50919060168103611bd1575060008082600454166040518681523390827fd9cd850143c0756b15b46ebdc8b4ed7701b66aaed30858ee17a225eb005cca2e8a3093a46040518781019163eca3691760e01b8352602482015230604482015233606482015286608482015260848152611a3381612f3d565b5190826101675af1611a43613631565b9015611bc95784818051810103126102f85784611a609101614464565b60030b60168103611b365750611a7885600654613584565b6006556004541690817fad91542866f4da9ebed5a2b1713258f4bf970f84e7b2a0b8aab2de28d11ffffd60405180611ac533958883909291602090604083019460070b835260070b910152565b0390a36040519182527f67325b2f3de1d8273fc1aeeaf3b161488fc28427430d9f6b341831dedfc2d63333933093a4604080513481526020810192909252429082015233907f64b83944e79c3ce8d4c297411de637c3e102d064677aac0c163976ebdcd6f50e908060608101611192565b8382600454167fcc975f63304dfdaa80a8ecbfbfc654fd86ea8a7cdb68086a0d883f26ad08e4c160405180611b813396309683909291602090604083019460070b835260030b910152565b0390a460405162461bcd60e51b815260206004820152601960248201527f48545320746f6b656e207472616e73666572206661696c6564000000000000006044820152606490fd5b506015611a60565b60045460408051600787900b815260039390930b60208401523392918416917f03f5e21a75677e84382c9f010b9f5780b534bb2a966c378fa090d12ba52caa0891819081015b0390a360405162461bcd60e51b815260206004820152601860248201527f48545320746f6b656e206d696e74696e67206661696c656400000000000000006044820152606490fd5b60403660031901126102f8576004356001600160401b0381116102f857611c8a903690600401613001565b6024356001600160401b0381116102f857611ca9903690600401613001565b611cb1613218565b60ff600a5460a81c166123a65781511561236b5780511561232e57611cd4613244565b91808352816020840152306040840152604051611cf081612f07565b6001815260005b60208110612317575060e0840152611d20611d1130614609565b60e0850151906109fd82613337565b50610100830151805160070b1580612308575b6122f9575b50604051630fb65bf360e01b602082015260606024820152611dad611d84611d6e865161016060848601526101e4850190613042565b60208701518482036083190160a4860152613042565b60408601516001600160a01b031660c484015260608601518382036083190160e4850152613042565b936080810151151561010483015260a081015160070b61012483015260c0810151151561014483015260e08101519060831983870301610164840152815180875260208701906020808260051b8a01019401916000905b8282106122815788886000808a611e62818c60406101008e0151805160070b61018485015260018060a01b036020820151166101a4850152015160070b6101c48301528460448301526006606483015203601f198101835282612f8e565b602081519101346101675af191611e77613631565b9215612276576040838051810103126102f8576040611e9860208501614464565b9301516001600160a01b03811693908490036102f85760030b5b60030b60168103610c7d5750600480546001600160a01b0319166001600160a01b038516179055604051611ee581612eec565b82815260208101829052600660408201526001600160a01b03841660608201526001608082015282516001600160401b03811161217957611f27600854613067565b601f811161220d575b50806020601f821160011461219a5760009161218f575b508160011b916000199060031b1c1916176008555b60208101518051906001600160401b03821161217957611f7d600954613067565b601f8111612110575b50602090601f83116001146120725792826120499361203b96937f8fb1ffd0ab3f6379154037519ff749b01e1fa060a331f5394175f393c3db596b9896600092612067575b50508160011b916000199060031b1c1916176009555b60ff60408201511690600a5491610100600160a81b03606083015160081b1691608060ff60a81b910151151560a81b169269ffffffffffffffffffff60b01b16171717600a55604051938493608085526080850190613042565b908382036020850152613042565b600660408301523060608301526001600160a01b03909416930390a2005b015190508980611fcb565b90601f19831691600960005260008051602061468f8339815191529260005b8181106120f857509361203b96937f8fb1ffd0ab3f6379154037519ff749b01e1fa060a331f5394175f393c3db596b9896936001938361204998106120df575b505050811b01600955611fe1565b015160001960f88460031b161c191690558980806120d1565b92936020600181928786015181550195019301612091565b6009600052601f830160051c60008051602061468f8339815191520160208410612164575b601f820160051c60008051602061468f8339815191520181106121585750611f86565b60008155600101612135565b5060008051602061468f833981519152612135565b634e487b7160e01b600052604160045260246000fd5b905084015186611f47565b9150600860005260008051602061466f8339815191526000925b601f19831684106121f5576001935082601f198116106121dc575b5050811b01600855611f5c565b86015160001960f88460031b161c1916905586806121cf565b868101518255602093840193600190920191016121b4565b6008600052601f820160051c60008051602061466f8339815191520160208310612261575b601f820160051c60008051602061466f8339815191520181106122555750611f30565b60008155600101612232565b5060008051602061466f833981519152612232565b600092506015611eb2565b90919294602080600192601f198d820301855281895180518352015190604083820152815115156040820152848060a01b038383015116606082015260c06122db610d37604085015160a0608086015260e0850190613042565b926080878060a01b0391015116910152970192019201909291611e04565b60406276a70091015283611d38565b50604081015160070b15611d33565b602090612322613316565b82828501015201611cf7565b60405162461bcd60e51b8152602060048201526015602482015274151bdad95b881cde5b589bdb081c995c5d5a5c9959605a1b6044820152606490fd5b60405162461bcd60e51b8152602060048201526013602482015272151bdad95b881b985b59481c995c5d5a5c9959606a1b6044820152606490fd5b60405162461bcd60e51b8152602060048201526015602482015274151bdad95b88185b1c9958591e4818dc99585d1959605a1b6044820152606490fd5b346102f85760203660031901126102f8576004356123ff61378c565b5061240d6011548210614426565b600052600f60205260a0604060002060405161242881612eec565b81549182825260018101549060208301918252600180861b03809281600284015416906040860191825260806004846003870154169560608901968752015496019586526040519687525160208701525116604085015251166060830152516080820152f35b346102f85760203660031901126102f8576020610e41600435613661565b6124c46124b836612ed2565b906118e49392936133ec565b906124d5620f424091821015613544565b6124e134600554613584565b6005556124f034600754613584565b60075560018060a01b03806004541660405193838552602094827fb7555d949a897acb395f95e3f2df8b700519404826bb13cd6526b756f6a1c907873393a360405161253b81612f22565b60008152604051908682019363707a02cd60e11b85526084830190602484015286604484015260606064840152815180915260a48301908860a48260051b8601019301916000905b8a83831061290e575050505050816125a7600093849303601f198101835282612f8e565b516101679482865af1916125b9613631565b92156128f357825183016060848883019203126102f8576125db878501614464565b906125e860408601614472565b946060810151906001600160401b0382116102f8570181603f820112156102f8578881015160408a612619836132d3565b61262583519182612f8e565b838152019160051b8301019283116102f85760408a9201905b8382106128dc57505050505b60030b6016810361289457506000809185600454166040518881523390827fd9cd850143c0756b15b46ebdc8b4ed7701b66aaed30858ee17a225eb005cca2e8c3093a4826040518a81019263eca3691760e01b84526024820152306044820152336064820152896084820152608481526126c381612f3d565b51925af16126cf613631565b901561288c5785818051810103126102f857856126ec9101614464565b60030b6016810361284057506006549184830180931161063d5760049260065583835416906040519086825260070b87820152817fad91542866f4da9ebed5a2b1713258f4bf970f84e7b2a0b8aab2de28d11ffffd60403393a360405185815233917f67325b2f3de1d8273fc1aeeaf3b161488fc28427430d9f6b341831dedfc2d633883093a4600d54906040519361278485612eec565b348552868501914283526040860190815260608601923384526080870194808652600052600b8952604060002096518755516001870155516002860155600385019151166001600160601b0360a01b8254161790555191015533600052600c82526127f66040600020600d5490613591565b612801600d546135cb565b600d55604051913483528201524260408201527f64b83944e79c3ce8d4c297411de637c3e102d064677aac0c163976ebdcd6f50e60603392a260018055005b836004541690604051917fcc975f63304dfdaa80a8ecbfbfc654fd86ea8a7cdb68086a0d883f26ad08e4c1339380611b8130958291909160206040820193620f4240835260030b910152565b5060156126ec565b84600454167f03f5e21a75677e84382c9f010b9f5780b534bb2a966c378fa090d12ba52caa0860405180611c1733958291909160206040820193620f4240835260030b910152565b8280916128e884614472565b81520191019061263e565b9150600060405161290381612f22565b52600091601561264a565b806129296001939495969760a3198a82030186528851613042565b960192019201909291612583565b346102f85760003660031901126102f857612950613218565b6129586143c2565b60ff19600254166002557f5db9ee0a495bf2e6ff9c91a7834c1ba4fdd244a5e8aa4e537bd38aeae4b073aa6020604051338152a1005b346102f85760203660031901126102f857600435600052600f60205260a06040600020805490600181015490600180851b0360048160028401541691600384015416920154926040519485526020850152604084015260608301526080820152f35b346102f85760203660031901126102f857600435600052600b60205260a0604060002080549060018101549060028101546004600180871b03600384015416920154926040519485526020850152604084015260608301526080820152f35b346102f85760203660031901126102f8576020610e416004356136ba565b346102f85760003660031901126102f8576020610e41613731565b346102f85760003660031901126102f8576020600554604051908152f35b60003660031901126102f857612aba613218565b612ac26133ec565b612aca6133ce565b612adb60ff600a5460a81c1661336e565b600654612c2757620186a03410612be2573460055534600755606434046001600160401b03811660070b60018060a01b03612b4f8160045416604051848152817fb7555d949a897acb395f95e3f2df8b700519404826bb13cd6526b756f6a1c90760203393a383604051916119b383612f22565b50919060168103611bd15750600684905560045460408051600795860b81529390940b602084015233939116917fad91542866f4da9ebed5a2b1713258f4bf970f84e7b2a0b8aab2de28d11ffffd9190a3604080513481526020810192909252429082015233907f64b83944e79c3ce8d4c297411de637c3e102d064677aac0c163976ebdcd6f50e908060608101611192565b60405162461bcd60e51b815260206004820152601e60248201527f496e73756666696369656e7420696e697469616c206c697175696469747900006044820152606490fd5b60405162461bcd60e51b815260206004820152601860248201527f506f6f6c20616c726561647920696e697469616c697a656400000000000000006044820152606490fd5b346102f85760203660031901126102f857612c8561378c565b50600435600052600b60205260a06040600020604051612ca481612eec565b81549182825260018101549060208301918252600281015460408401908152600180871b0392608060048560038601541694606088019586520154950194855260405195865251602086015251604085015251166060830152516080820152f35b346102f85760003660031901126102f8576020604051620186a08152f35b346102f8576020806003193601126102f8576001600160a01b03612d45612e40565b1660005260108152604060002090604051908181845491828152019360005281600020916000905b828210612d845761085d8561085181890382612f8e565b835486529485019460019384019390910190612d6d565b346102f85760003660031901126102f857602060ff600a5460a81c166040519015158152f35b346102f8576000806113b66110a1612dd836612e56565b604051630aed65f560e11b602082019081526001600160a01b03958616602483015293851660448201529390911660648401526084830152929091829060a4820190565b346102f85760003660031901126102f857600e546001600160a01b03168152602090f35b600435906001600160a01b03821682036102f857565b60809060031901126102f8576001600160a01b0360043581811681036102f8579160243582811681036102f8579160443590811681036102f8579060643590565b6020908160408183019282815285518094520193019160005b828110612ebe575050505090565b835185529381019392810192600101612eb0565b60609060031901126102f857600435906024359060443590565b60a081019081106001600160401b0382111761217957604052565b604081019081106001600160401b0382111761217957604052565b602081019081106001600160401b0382111761217957604052565b60c081019081106001600160401b0382111761217957604052565b608081019081106001600160401b0382111761217957604052565b606081019081106001600160401b0382111761217957604052565b90601f801991011681019081106001600160401b0382111761217957604052565b6001600160401b03811161217957601f01601f191660200190565b929192612fd682612faf565b91612fe46040519384612f8e565b8294818452818301116102f8578281602093846000960137010152565b9080601f830112156102f85781602061301c93359101612fca565b90565b60005b8381106130325750506000910152565b8181015183820152602001613022565b9060209161305b8151809281855285808601910161301f565b601f01601f1916010190565b90600182811c92168015613097575b602083101461308157565b634e487b7160e01b600052602260045260246000fd5b91607f1691613076565b60405190600082600854916130b583613067565b8083529260019081811690811561312b57506001146130de575b506130dc92500383612f8e565b565b60086000908152915060008051602061466f8339815191525b84831061311057506130dc9350508101602001386130cf565b81935090816020925483858a010152019101909185926130f7565b9050602092506130dc94915060ff191682840152151560051b820101386130cf565b604051906000826009549161316183613067565b8083529260019081811690811561312b575060011461318757506130dc92500383612f8e565b60096000908152915060008051602061468f8339815191525b8483106131b957506130dc9350508101602001386130cf565b81935090816020925483858a010152019101909185926131a0565b80548210156131ec5760005260206000200190600090565b634e487b7160e01b600052603260045260246000fd5b60409060031901126102f8576004359060243590565b6000546001600160a01b0316330361322c57565b60405163118cdaa760e01b8152336004820152602490fd5b604080516001600160401b039291906101208101848111828210176121795782528093606092838352836020840152600091828285015284808501528260808501528260a08501528260c08501528460e0850152815194850190858210908211176132bf578152818452602084018290528301526101000152565b634e487b7160e01b83526041600452602483fd5b6001600160401b0381116121795760051b60200190565b604051906132f782612eec565b6000608083828152826020820152606060408201526060808201520152565b6040519061332382612f07565b816000815260206133326132ea565b910152565b8051156131ec5760200190565b8051600110156131ec5760400190565b60409061301c939260030b81528160208201520190613042565b1561337557565b60405162461bcd60e51b8152602060048201526011602482015270151bdad95b881b9bdd0818dc99585d1959607a1b6044820152606490fd5b81156133b8570490565b634e487b7160e01b600052601260045260246000fd5b60ff600254166133da57565b60405163d93c066560e01b8152600490fd5b6002600154146133fd576002600155565b604051633ee5aeb560e01b8152600490fd5b1561341657565b60405162461bcd60e51b8152602060048201526014602482015273141bdbdb081b9bdd081a5b9a5d1a585b1a5e995960621b6044820152606490fd5b1561345957565b60405162461bcd60e51b815260206004820152601060248201526f139bc812109054881c1c9bdd9a59195960821b6044820152606490fd5b1561349857565b60405162461bcd60e51b815260206004820152602160248201527f55534420616d6f756e74206d7573742062652067726561746572207468616e206044820152600360fc1b6064820152608490fd5b156134ee57565b60405162461bcd60e51b815260206004820152602860248201527f4d617475726174696f6e20616d6f756e74206d75737420626520677265617465604482015267072207468616e20360c41b6064820152608490fd5b1561354b57565b60405162461bcd60e51b815260206004820152601160248201527014db1a5c1c1859d948195e18d959591959607a1b6044820152606490fd5b9190820180921161063d57565b805468010000000000000000811015612179576135b3916001820181556131d4565b819291549060031b91821b91600019901b1916179055565b600019811461063d5760010190565b8181029291811591840414171561063d57565b9190820391821161063d57565b90815180825260208080930193019160005b82811061361a575050505090565b835160070b8552938101939281019260010161360c565b3d1561365c573d9061364282612faf565b916136506040519384612f8e565b82523d6000602084013e565b606090565b6006549081156136815761301c91613678916135da565b600554906133ae565b5050600090565b9081156136958115613491565b6136a08215156134e7565b620f424080840293840414171561063d5761301c916133ae565b600654801561368157610fbe61301c92600554906135da565b60ff600a5460a81c161561372657600654600091811561371b576136fd82610fbe600554866135da565b916127109081850291858304148515171561063d5761301c916133ae565b600092508291508190565b600090600090600090565b60065480156137495761301c906064600754046133ae565b50600090565b60ff600a5460a81c16158015613782575b61377d57600754156001171561063d57600654156133b857600090565b600090565b5060065415613760565b6040519061379982612eec565b60006080838281528260208201528260408201528260608201520152565b8060030b90601682146142bf576009821461426a57600a821461420957600782146141b157600f821461415057601082146140ef57601e82146140a1576022821461404057606f8214613ff15760aa8214613f905760ab8214613f3e5760ae8214613eea5760af8214613e895760be8214613e395760bf8214613de05760a88214613d7f5760a98214613d1e5760bd8214613cd057609b8214613c8457601a8214613c3a57601b8214613bf05760268214613b9757604091828114613b405760418114613ad4576101178114613a7c576101458114613a1d5761014681146139be57610147811461395557610148146139015760336138be63ffffffff61301c93166142e4565b9251809372554e4b4e4f574e5f4552524f525f434f44455f60681b60208301526138f1815180926020868601910161301f565b8101036013810184520182612f8e565b5072206d616e79206368696c64207265636f72647360681b81519161392583612f73565b603383527f4d41585f4348494c445f5245434f5244535f4558434545444544202d20546f6f602084015282015290565b50507f6666696369656e742062616c616e636520666f722073746f726167652072656e81519161398483612f58565b604183527f494e53554646494349454e545f53544f524147455f52454e54202d20496e73756020840152820152601d60fa1b606082015290565b50507f6e76616c6964207369676e617475726520666f7220707265636f6d70696c65008151916139ed83612f73565b603f83527f494e56414c49445f505245434f4d50494c455f5349474e4154555245202d2049602084015282015290565b50507f6e74697469657320696e20707269636520726567696d65207265616368656400815191613a4c83612f73565b603f83527f4d41585f454e5449544945535f43524541544544202d204d6178696d756d2065602084015282015290565b5050751cdd5cc81b9bd9194819d85cc8195e1a185d5cdd195960521b815191613aa483612f73565b603683527f434f4e53454e5355535f4741535f455848415553544544202d20436f6e73656e602084015282015290565b50507f616e73616374696f6e2068617320746f6f206d616e79206e6573746564206c61815191613b0383612f58565b604483527f5452414e53414354494f4e5f544f4f5f4d414e595f4c4159455253202d2054726020840152820152637965727360e01b606082015290565b5050741bdb88195e18d959591cc81cda5e99481b1a5b5a5d605a1b815191613b6783612f73565b603583527f5452414e53414354494f4e5f4f56455253495a45202d205472616e7361637469602084015282015290565b5050604051613ba581612f73565b603581527f494e56414c49445f4b45595f454e434f44494e47202d204b657920656e636f646020820152741a5b99c8199bdc9b585d081a5cc81a5b9d985b1a59605a1b604082015290565b5050604051613bfe81612f73565b602681527f4241445f454e434f44494e47202d204b657920656e636f64696e6720697320696020820152651b9d985b1a5960d21b604082015290565b5050604051613c4881612f73565b602681527f4b45595f5245515549524544202d205265717569726564206b6579206973206d602082015265697373696e6760d01b604082015290565b5050604051613c9281612f73565b602881527f494e56414c49445f41444d494e5f4b4559202d2041646d696e206b6579206973602082015267081a5b9d985b1a5960c21b604082015290565b5050604051613cde81612f73565b602a81527f494e56414c49445f535550504c595f4b4559202d20537570706c79206b6579206020820152691a5cc81a5b9d985b1a5960b21b604082015290565b5050604051613d2c81612f73565b603e81527f494e56414c49445f544f4b454e5f494e495449414c5f535550504c59202d204960208201527f6e697469616c20737570706c792076616c756520697320696e76616c69640000604082015290565b5050604051613d8d81612f73565b603881527f494e56414c49445f544f4b454e5f444543494d414c53202d20546f6b656e206460208201527f6563696d616c732076616c756520697320696e76616c69640000000000000000604082015290565b5050604051613dee81612f73565b603581527f544f4b454e5f4e414d455f544f4f5f4c4f4e47202d20546f6b656e206e616d6560208201527408195e18d959591cc81b195b99dd1a081b1a5b5a5d605a1b604082015290565b5050604051613e4781612f73565b602c81527f4d495353494e475f544f4b454e5f4e414d45202d20546f6b656e206e616d652060208201526b1b9bdd081c1c9bdd9a59195960a21b604082015290565b5050604051613e9781612f73565b603981527f544f4b454e5f53594d424f4c5f544f4f5f4c4f4e47202d20546f6b656e20737960208201527f6d626f6c2065786365656473206c656e677468206c696d697400000000000000604082015290565b5050604051613ef881612f73565b603081527f4d495353494e475f544f4b454e5f53594d424f4c202d20546f6b656e2073796d60208201526f189bdb081b9bdd081c1c9bdd9a59195960821b604082015290565b5050604051613f4c81612f73565b602e81527f494e56414c49445f544f4b454e5f53594d424f4c202d20546f6b656e2073796d60208201526d189bdb081a5cc81a5b9d985b1a5960921b604082015290565b5050604051613f9e81612f73565b603d81527f494e56414c49445f54524541535552595f4143434f554e545f464f525f544f4b60208201527f454e202d205472656173757279206163636f756e7420696e76616c6964000000604082015290565b5050604051613fff81612f73565b602b81527f4d41585f4741535f4c494d49545f4558434545444544202d20476173206c696d60208201526a1a5d08195e18d95959195960aa1b604082015290565b505060405161404e81612f73565b603881527f434f4e54524143545f455845435554494f4e5f455843455054494f4e202d204360208201527f6f6e747261637420657865637574696f6e206661696c65640000000000000000604082015290565b50506040516140af81612f73565b602a81527f494e53554646494349454e545f474153202d204e6f7420656e6f7567682067616020820152691cc81cdd5c1c1b1a595960b21b604082015290565b50506040516140fd81612f73565b603e81527f494e56414c49445f434f4e54524143545f4944202d20436f6e7472616374204960208201527f4420697320696e76616c6964206f7220646f6573206e6f742065786973740000604082015290565b505060405161415e81612f73565b603c81527f494e56414c49445f4143434f554e545f4944202d204163636f756e742049442060208201527f697320696e76616c6964206f7220646f6573206e6f7420657869737400000000604082015290565b50506040516141bf81612f73565b603481527f494e56414c49445f5349474e4154555245202d205472616e73616374696f6e206020820152731cda59db985d1d5c99481a5cc81a5b9d985b1a5960621b604082015290565b505060405161421781612f73565b604081527f494e53554646494349454e545f50415945525f42414c414e4345202d2050617960208201527f6572206163636f756e742068617320696e73756666696369656e742048424152604082015290565b505060405161427881612f73565b603181527f494e53554646494349454e545f54585f464545202d204e6f7420656e6f7567686020820152700819d85ccbd99959481c1c9bdd9a591959607a1b604082015290565b50506040516142cd81612f07565b60078152665355434345535360c81b602082015290565b80156143a45780816000925b6143905750806142ff83612faf565b9261430d6040519485612f8e565b808452601f1961431c82612faf565b01366020860137915b61432e57505090565b60001982019180831161063d5782600a908184049382850292858404148515171561063d5761436060ff9384926135ed565b1660300191821161063d57855111156131ec5760f81b6001600160f81b03191660001a908401601f015380614325565b9161439c600a916135cb565b9204806142f0565b506040516143b181612f07565b60018152600360fc1b602082015290565b60ff60025416156143cf57565b604051638dfc202b60e01b8152600490fd5b156143e857565b60405162461bcd60e51b81526020600482015260166024820152751190d114881d1bdad95b881b9bdd0818dc99585d195960521b6044820152606490fd5b1561442d57565b60405162461bcd60e51b815260206004820152600f60248201526e125b9d985b1a59081190d114881251608a1b6044820152606490fd5b51908160030b82036102f857565b51908160070b82036102f857565b91906040918251906020948583019363707a02cd60e11b8552608484019160018060a01b0316602485015260070b604484015260606064840152815180915260a48301908660a48260051b8601019301916000905b888383106145e057505050505091816144fb60009493859403601f198101835282612f8e565b5190826101675af19161450c613631565b92600090156145c1575082518301906060848284019303126102f857614533818501614464565b9161453f848601614472565b946060810151906001600160401b0382116102f857019381603f860112156102f857828501519061456f826132d3565b9561457c82519788612f8e565b828752818588019360051b8201019384116102f85701905b8282106145aa575050505091905b909160030b92565b8380916145b684614472565b815201910190614594565b92505051906145cf82612f22565b8082523681376015906000906145a2565b806145fb6001939495969760a3198a82030186528851613042565b9601920192019092916144d5565b614611613316565b50600460005260036020527f83ec6a1f0257b830b5e016457c9cf1435391bf56cc98f369a58a54fe9377246554906146476132ea565b6001600160a01b0390911660208201526040519161466483612f07565b825260208201529056fef3f7a9fe364faab93b216da50a3214154f22a0a2b415b23a84c8169e8b636ee36e1540171b6c0c960b71a7020d9f60077f6af931a8bbf590da0223dacf75c7afa2646970667358221220df4d41fccce97e64859a66c8d62f2167e94fa0d457ca419f2e265d043096562164736f6c63430008140033","opcodes":"PUSH1 0x80 CALLVALUE PUSH3 0x54D JUMPI PUSH1 0x1F PUSH3 0x4C57 CODESIZE DUP2 SWAP1 SUB SWAP2 DUP3 ADD PUSH1 0x1F NOT AND DUP4 ADD SWAP2 PUSH1 0x1 PUSH1 0x1 PUSH1 0x40 SHL SUB DUP4 GT DUP5 DUP5 LT OR PUSH3 0x436 JUMPI DUP1 DUP5 SWAP3 PUSH1 0x20 SWAP5 PUSH1 0x40 MSTORE DUP4 CODECOPY DUP2 ADD SUB SLT PUSH3 0x54D JUMPI MLOAD PUSH1 0x1 PUSH1 0x1 PUSH1 0xA0 SHL SUB DUP1 DUP3 AND SWAP2 DUP3 SWAP1 SUB PUSH3 0x54D JUMPI DUP2 ISZERO PUSH3 0x534 JUMPI PUSH1 0x0 SLOAD DUP3 PUSH1 0x1 DUP1 PUSH1 0xA0 SHL SUB NOT DUP3 AND OR PUSH1 0x0 SSTORE AND PUSH32 0x8BE0079C531659141344CD1FD0A4F28419497F9722A3DAAFE3B4186F6B6457E0 PUSH1 0x0 DUP1 LOG3 PUSH1 0x1 DUP1 DUP1 SSTORE PUSH1 0x2 DUP1 SLOAD PUSH2 0x100 PUSH1 0x1 PUSH1 0xA8 SHL SUB NOT AND DUP2 SSTORE PUSH1 0x3 PUSH1 0x20 SWAP1 DUP2 MSTORE PUSH32 0x3617319A054D772F909F7C479A2CEBE5066E836A939412E32403C99029B92EFF SWAP3 SWAP1 SWAP3 SSTORE PUSH32 0xA15BC60C955C405D20D9149C709E2460F1C2D9A497496A7F46004D1772C3054C SSTORE PUSH1 0x4 PUSH32 0xC3A24B0501BD2C13A7E57F2DB4369EC4C223447539FC0724A9D55AC4A06EBD4D SSTORE PUSH1 0x8 PUSH32 0xCBC4E5FB02C3D1DE23A9F1E014B4D2EE5AEAEA9505DF5E855C9210BF472495AF SSTORE PUSH1 0x10 PUSH32 0x83EC6A1F0257B830B5E016457C9CF1435391BF56CC98F369A58A54FE93772465 SSTORE PUSH32 0x405AAD32E1ADBAC89BB7F176E338B8FC6E994CA210C9BB7BDCA249B465942250 SSTORE PUSH1 0x6 PUSH1 0x0 MSTORE PUSH1 0x40 PUSH32 0xC69056F16CBAA3C616B828E333AB7D3A32310765507F8F58359E99EBB7A885F3 DUP2 SWAP1 SSTORE MLOAD PUSH1 0xA0 DUP2 ADD PUSH1 0x1 PUSH1 0x1 PUSH1 0x40 SHL SUB DUP2 GT DUP3 DUP3 LT OR PUSH3 0x436 JUMPI PUSH1 0x40 MSTORE PUSH3 0x1D8 PUSH3 0x552 JUMP JUMPDEST PUSH1 0x0 DUP2 MSTORE DUP2 MSTORE PUSH3 0x1E8 PUSH3 0x552 JUMP JUMPDEST PUSH1 0x0 DUP2 MSTORE PUSH1 0x20 DUP3 ADD MSTORE PUSH1 0x0 PUSH1 0x40 DUP3 ADD MSTORE PUSH1 0x0 PUSH1 0x60 DUP3 ADD MSTORE PUSH1 0x0 PUSH1 0x80 DUP3 ADD MSTORE DUP1 MLOAD SWAP1 DUP2 MLOAD PUSH1 0x1 DUP1 PUSH1 0x40 SHL SUB DUP2 GT PUSH3 0x436 JUMPI PUSH1 0x8 SLOAD PUSH1 0x1 DUP2 DUP2 SHR SWAP2 AND DUP1 ISZERO PUSH3 0x529 JUMPI JUMPDEST PUSH1 0x20 DUP3 LT EQ PUSH3 0x415 JUMPI PUSH1 0x1F DUP2 GT PUSH3 0x4C3 JUMPI JUMPDEST POP PUSH1 0x20 SWAP3 PUSH1 0x1F DUP3 GT PUSH1 0x1 EQ PUSH3 0x458 JUMPI SWAP3 DUP2 SWAP3 SWAP4 PUSH1 0x0 SWAP3 PUSH3 0x44C JUMPI JUMPDEST POP POP DUP2 PUSH1 0x1 SHL SWAP2 PUSH1 0x0 NOT SWAP1 PUSH1 0x3 SHL SHR NOT AND OR PUSH1 0x8 SSTORE JUMPDEST PUSH1 0x20 DUP2 ADD MLOAD DUP1 MLOAD SWAP1 SWAP2 SWAP1 PUSH1 0x1 PUSH1 0x1 PUSH1 0x40 SHL SUB DUP2 GT PUSH3 0x436 JUMPI PUSH1 0x9 SLOAD PUSH1 0x1 DUP2 DUP2 SHR SWAP2 AND DUP1 ISZERO PUSH3 0x42B JUMPI JUMPDEST PUSH1 0x20 DUP3 LT EQ PUSH3 0x415 JUMPI PUSH1 0x1F DUP2 GT PUSH3 0x3AB JUMPI JUMPDEST POP PUSH1 0x20 SWAP3 PUSH1 0x1F DUP3 GT PUSH1 0x1 EQ PUSH3 0x340 JUMPI SWAP3 DUP2 SWAP3 SWAP4 PUSH1 0x0 SWAP3 PUSH3 0x334 JUMPI JUMPDEST POP POP DUP2 PUSH1 0x1 SHL SWAP2 PUSH1 0x0 NOT SWAP1 PUSH1 0x3 SHL SHR NOT AND OR PUSH1 0x9 SSTORE JUMPDEST PUSH1 0xFF PUSH1 0x40 DUP3 ADD MLOAD AND SWAP1 PUSH1 0xA SLOAD SWAP2 PUSH2 0x100 PUSH1 0x1 PUSH1 0xA8 SHL SUB PUSH1 0x60 DUP4 ADD MLOAD PUSH1 0x8 SHL AND SWAP2 PUSH1 0x80 PUSH1 0xFF PUSH1 0xA8 SHL SWAP2 ADD MLOAD ISZERO ISZERO PUSH1 0xA8 SHL AND SWAP3 PUSH1 0x1 DUP1 PUSH1 0xB0 SHL SUB NOT AND OR OR OR PUSH1 0xA SSTORE PUSH1 0x40 MLOAD PUSH2 0x46E4 SWAP1 DUP2 PUSH3 0x573 DUP3 CODECOPY RETURN JUMPDEST ADD MLOAD SWAP1 POP CODESIZE DUP1 PUSH3 0x2CE JUMP JUMPDEST PUSH1 0x1F NOT DUP3 AND SWAP4 PUSH1 0x9 PUSH1 0x0 MSTORE PUSH1 0x20 PUSH1 0x0 KECCAK256 SWAP2 PUSH1 0x0 JUMPDEST DUP7 DUP2 LT PUSH3 0x392 JUMPI POP DUP4 PUSH1 0x1 SWAP6 SWAP7 LT PUSH3 0x378 JUMPI JUMPDEST POP POP POP DUP2 SHL ADD PUSH1 0x9 SSTORE PUSH3 0x2E4 JUMP JUMPDEST ADD MLOAD PUSH1 0x0 NOT PUSH1 0xF8 DUP5 PUSH1 0x3 SHL AND SHR NOT AND SWAP1 SSTORE CODESIZE DUP1 DUP1 PUSH3 0x369 JUMP JUMPDEST SWAP2 SWAP3 PUSH1 0x20 PUSH1 0x1 DUP2 SWAP3 DUP7 DUP6 ADD MLOAD DUP2 SSTORE ADD SWAP5 ADD SWAP3 ADD PUSH3 0x354 JUMP JUMPDEST PUSH1 0x9 PUSH1 0x0 MSTORE PUSH32 0x6E1540171B6C0C960B71A7020D9F60077F6AF931A8BBF590DA0223DACF75C7AF PUSH1 0x1F DUP4 ADD PUSH1 0x5 SHR DUP2 ADD SWAP2 PUSH1 0x20 DUP5 LT PUSH3 0x40A JUMPI JUMPDEST PUSH1 0x1F ADD PUSH1 0x5 SHR ADD SWAP1 JUMPDEST DUP2 DUP2 LT PUSH3 0x3FD JUMPI POP PUSH3 0x2B1 JUMP JUMPDEST PUSH1 0x0 DUP2 SSTORE PUSH1 0x1 ADD PUSH3 0x3EE JUMP JUMPDEST SWAP1 SWAP2 POP DUP2 SWAP1 PUSH3 0x3E5 JUMP JUMPDEST PUSH4 0x4E487B71 PUSH1 0xE0 SHL PUSH1 0x0 MSTORE PUSH1 0x22 PUSH1 0x4 MSTORE PUSH1 0x24 PUSH1 0x0 REVERT JUMPDEST SWAP1 PUSH1 0x7F AND SWAP1 PUSH3 0x29D JUMP JUMPDEST PUSH4 0x4E487B71 PUSH1 0xE0 SHL PUSH1 0x0 MSTORE PUSH1 0x41 PUSH1 0x4 MSTORE PUSH1 0x24 PUSH1 0x0 REVERT JUMPDEST ADD MLOAD SWAP1 POP CODESIZE DUP1 PUSH3 0x25C JUMP JUMPDEST PUSH1 0x1F NOT DUP3 AND SWAP4 PUSH1 0x8 PUSH1 0x0 MSTORE PUSH1 0x20 PUSH1 0x0 KECCAK256 SWAP2 PUSH1 0x0 JUMPDEST DUP7 DUP2 LT PUSH3 0x4AA JUMPI POP DUP4 PUSH1 0x1 SWAP6 SWAP7 LT PUSH3 0x490 JUMPI JUMPDEST POP POP POP DUP2 SHL ADD PUSH1 0x8 SSTORE PUSH3 0x272 JUMP JUMPDEST ADD MLOAD PUSH1 0x0 NOT PUSH1 0xF8 DUP5 PUSH1 0x3 SHL AND SHR NOT AND SWAP1 SSTORE CODESIZE DUP1 DUP1 PUSH3 0x481 JUMP JUMPDEST SWAP2 SWAP3 PUSH1 0x20 PUSH1 0x1 DUP2 SWAP3 DUP7 DUP6 ADD MLOAD DUP2 SSTORE ADD SWAP5 ADD SWAP3 ADD PUSH3 0x46C JUMP JUMPDEST PUSH1 0x8 PUSH1 0x0 MSTORE PUSH32 0xF3F7A9FE364FAAB93B216DA50A3214154F22A0A2B415B23A84C8169E8B636EE3 PUSH1 0x1F DUP4 ADD PUSH1 0x5 SHR DUP2 ADD PUSH1 0x20 DUP5 LT PUSH3 0x521 JUMPI JUMPDEST PUSH1 0x1F DUP4 ADD PUSH1 0x5 SHR DUP3 ADD DUP2 LT PUSH3 0x514 JUMPI POP POP PUSH3 0x23F JUMP JUMPDEST PUSH1 0x0 DUP2 SSTORE PUSH1 0x1 ADD PUSH3 0x4FC JUMP JUMPDEST POP DUP1 PUSH3 0x4FC JUMP JUMPDEST SWAP1 PUSH1 0x7F AND SWAP1 PUSH3 0x22B JUMP JUMPDEST PUSH1 0x40 MLOAD PUSH4 0x1E4FBDF7 PUSH1 0xE0 SHL DUP2 MSTORE PUSH1 0x0 PUSH1 0x4 DUP3 ADD MSTORE PUSH1 0x24 SWAP1 REVERT JUMPDEST PUSH1 0x0 DUP1 REVERT JUMPDEST PUSH1 0x40 MLOAD SWAP1 PUSH1 0x20 DUP3 ADD PUSH1 0x1 PUSH1 0x1 PUSH1 0x40 SHL SUB DUP2 GT DUP4 DUP3 LT OR PUSH3 0x436 JUMPI PUSH1 0x40 MSTORE JUMP INVALID PUSH1 0x80 DUP1 PUSH1 0x40 MSTORE PUSH1 0x4 CALLDATASIZE LT ISZERO PUSH2 0x52 JUMPI JUMPDEST POP CALLDATASIZE ISZERO PUSH2 0x50 JUMPI PUSH1 0x40 MLOAD PUSH3 0x461BCD PUSH1 0xE5 SHL DUP2 MSTORE PUSH1 0x20 PUSH1 0x4 DUP3 ADD MSTORE PUSH1 0x12 PUSH1 0x24 DUP3 ADD MSTORE PUSH18 0x119D5B98DD1A5BDB881B9BDD08199BDD5B99 PUSH1 0x72 SHL PUSH1 0x44 DUP3 ADD MSTORE PUSH1 0x64 SWAP1 REVERT JUMPDEST STOP JUMPDEST PUSH1 0x0 CALLDATALOAD PUSH1 0xE0 SHR SWAP1 DUP2 PUSH4 0xA5579D1 EQ PUSH2 0x2E1C JUMPI POP DUP1 PUSH4 0x15DACBEA EQ PUSH2 0x2DC1 JUMPI DUP1 PUSH4 0x185C112A EQ PUSH2 0x2D9B JUMPI DUP1 PUSH4 0x1CF2E698 EQ PUSH2 0x2D23 JUMPI DUP1 PUSH4 0x21B77D63 EQ PUSH2 0x2D05 JUMPI DUP1 PUSH4 0x240F1B62 EQ PUSH2 0x2C6C JUMPI DUP1 PUSH4 0x250E6DE0 EQ PUSH2 0x2AA6 JUMPI DUP1 PUSH4 0x28999437 EQ PUSH2 0x2A88 JUMPI DUP1 PUSH4 0x2FB9125D EQ PUSH2 0x2A6D JUMPI DUP1 PUSH4 0x32ACF78B EQ PUSH2 0xF4E JUMPI DUP1 PUSH4 0x34111BBF EQ PUSH2 0x2A4F JUMPI DUP1 PUSH4 0x3474D1F9 EQ PUSH2 0x29F0 JUMPI DUP1 PUSH4 0x38B37D1C EQ PUSH2 0x298E JUMPI DUP1 PUSH4 0x3F4BA83A EQ PUSH2 0x2937 JUMPI DUP1 PUSH4 0x422F1043 EQ PUSH2 0x24AC JUMPI DUP1 PUSH4 0x42C649DE EQ PUSH2 0x248E JUMPI DUP1 PUSH4 0x4DDD1C54 EQ PUSH2 0x23E3 JUMPI DUP1 PUSH4 0x4EDEC1FF EQ PUSH2 0x1C5F JUMPI DUP1 PUSH4 0x545466A5 EQ PUSH2 0x18CB JUMPI DUP1 PUSH4 0x5962A941 EQ PUSH2 0x31B JUMPI DUP1 PUSH4 0x5C975ABB EQ PUSH2 0x18A8 JUMPI DUP1 PUSH4 0x5FCBD285 EQ PUSH2 0x187F JUMPI DUP1 PUSH4 0x60246C88 EQ PUSH2 0x184D JUMPI DUP1 PUSH4 0x618DC65E EQ PUSH2 0x1731 JUMPI DUP1 PUSH4 0x6ADDB663 EQ PUSH2 0x16B5 JUMPI DUP1 PUSH4 0x715018A6 EQ PUSH2 0x165C JUMPI DUP1 PUSH4 0x734C79B6 EQ PUSH2 0x14C8 JUMPI DUP1 PUSH4 0x7D56BE3C EQ PUSH2 0x147E JUMPI DUP1 PUSH4 0x8456CB59 EQ PUSH2 0x1424 JUMPI DUP1 PUSH4 0x8DA5CB5B EQ PUSH2 0x13FB JUMPI DUP1 PUSH4 0x9B23D3D9 EQ PUSH2 0x135B JUMPI DUP1 PUSH4 0x9D7DE6B3 EQ PUSH2 0xF6C JUMPI DUP1 PUSH4 0xA7112EFE EQ PUSH2 0xF4E JUMPI DUP1 PUSH4 0xA78C849B EQ PUSH2 0xF2A JUMPI DUP1 PUSH4 0xABB1DC44 EQ PUSH2 0xE49 JUMPI DUP1 PUSH4 0xB79C41A2 EQ PUSH2 0xE28 JUMPI DUP1 PUSH4 0xBBBAEE4C EQ PUSH2 0xDE6 JUMPI DUP1 PUSH4 0xBC031C52 EQ PUSH2 0x8D2 JUMPI DUP1 PUSH4 0xBE591129 EQ PUSH2 0x894 JUMPI DUP1 PUSH4 0xBF333F2C EQ PUSH2 0x878 JUMPI DUP1 PUSH4 0xC6E5D8F6 EQ PUSH2 0x7F0 JUMPI DUP1 PUSH4 0xCF2C0334 EQ PUSH2 0x798 JUMPI DUP1 PUSH4 0xD4C3EEA0 EQ PUSH2 0x77A JUMPI DUP1 PUSH4 0xD73792A9 EQ PUSH2 0x75D JUMPI DUP1 PUSH4 0xDB2E21BC EQ PUSH2 0x339 JUMPI DUP1 PUSH4 0xEA04F155 EQ PUSH2 0x31B JUMPI DUP1 PUSH4 0xEF6283D9 EQ PUSH2 0x2FD JUMPI PUSH4 0xF2FDE38B EQ PUSH2 0x26F JUMPI CODESIZE PUSH2 0xF JUMP JUMPDEST CALLVALUE PUSH2 0x2F8 JUMPI PUSH1 0x20 CALLDATASIZE PUSH1 0x3 NOT ADD SLT PUSH2 0x2F8 JUMPI PUSH2 0x288 PUSH2 0x2E40 JUMP JUMPDEST PUSH2 0x290 PUSH2 0x3218 JUMP JUMPDEST PUSH1 0x1 PUSH1 0x1 PUSH1 0xA0 SHL SUB SWAP1 DUP2 AND SWAP1 DUP2 ISZERO PUSH2 0x2DF JUMPI PUSH1 0x0 SLOAD DUP3 PUSH1 0x1 PUSH1 0x1 PUSH1 0x60 SHL SUB PUSH1 0xA0 SHL DUP3 AND OR PUSH1 0x0 SSTORE AND PUSH32 0x8BE0079C531659141344CD1FD0A4F28419497F9722A3DAAFE3B4186F6B6457E0 PUSH1 0x0 DUP1 LOG3 STOP JUMPDEST PUSH1 0x40 MLOAD PUSH4 0x1E4FBDF7 PUSH1 0xE0 SHL DUP2 MSTORE PUSH1 0x0 PUSH1 0x4 DUP3 ADD MSTORE PUSH1 0x24 SWAP1 REVERT JUMPDEST PUSH1 0x0 DUP1 REVERT JUMPDEST CALLVALUE PUSH2 0x2F8 JUMPI PUSH1 0x0 CALLDATASIZE PUSH1 0x3 NOT ADD SLT PUSH2 0x2F8 JUMPI PUSH1 0x20 PUSH1 0x6 SLOAD PUSH1 0x40 MLOAD SWAP1 DUP2 MSTORE RETURN JUMPDEST CALLVALUE PUSH2 0x2F8 JUMPI PUSH1 0x0 CALLDATASIZE PUSH1 0x3 NOT ADD SLT PUSH2 0x2F8 JUMPI PUSH1 0x20 PUSH1 0xD SLOAD PUSH1 0x40 MLOAD SWAP1 DUP2 MSTORE RETURN JUMPDEST CALLVALUE PUSH2 0x2F8 JUMPI PUSH1 0x0 CALLDATASIZE PUSH1 0x3 NOT ADD SLT PUSH2 0x2F8 JUMPI PUSH2 0x352 PUSH2 0x3218 JUMP JUMPDEST PUSH2 0x35A PUSH2 0x43C2 JUMP JUMPDEST SELFBALANCE DUP1 ISZERO PUSH2 0x722 JUMPI PUSH1 0xE SLOAD PUSH1 0x1 PUSH1 0x1 PUSH1 0xA0 SHL SUB SWAP1 DUP2 AND SWAP2 SWAP1 PUSH2 0x385 DUP4 ISZERO ISZERO PUSH2 0x380 DUP2 PUSH2 0x43E1 JUMP JUMPDEST PUSH2 0x43E1 JUMP JUMPDEST PUSH1 0x40 MLOAD SWAP3 PUSH2 0x392 DUP5 PUSH2 0x2F22 JUMP JUMPDEST PUSH1 0x0 DUP5 MSTORE PUSH1 0x40 MLOAD SWAP4 PUSH1 0x20 SWAP5 DUP6 DUP2 ADD SWAP2 PUSH4 0x707A02CD PUSH1 0xE1 SHL DUP4 MSTORE PUSH1 0x84 DUP3 ADD SWAP4 PUSH1 0x24 DUP4 ADD MSTORE PUSH1 0x1 SWAP4 DUP5 PUSH1 0x44 DUP5 ADD MSTORE PUSH1 0x60 PUSH1 0x64 DUP5 ADD MSTORE DUP2 MLOAD DUP1 SWAP2 MSTORE PUSH1 0xA4 DUP4 ADD SWAP1 DUP9 PUSH1 0xA4 DUP3 PUSH1 0x5 SHL DUP7 ADD ADD SWAP4 ADD SWAP2 PUSH1 0x0 SWAP1 JUMPDEST DUP8 DUP12 DUP5 DUP5 LT PUSH2 0x6FA JUMPI DUP12 DUP12 DUP4 PUSH1 0x0 DUP1 DUP14 DUP14 PUSH2 0x404 DUP2 DUP16 SUB PUSH1 0x1F NOT DUP2 ADD DUP4 MSTORE DUP3 PUSH2 0x2F8E JUMP JUMPDEST MLOAD SWAP1 DUP3 PUSH2 0x167 GAS CALL PUSH2 0x414 PUSH2 0x3631 JUMP JUMPDEST SWAP1 ISZERO PUSH2 0x6E3 JUMPI DUP1 MLOAD DUP2 ADD PUSH1 0x60 DUP3 DUP8 DUP4 ADD SWAP3 SUB SLT PUSH2 0x2F8 JUMPI PUSH2 0x436 DUP7 DUP4 ADD PUSH2 0x4464 JUMP JUMPDEST SWAP2 PUSH2 0x443 PUSH1 0x40 DUP3 ADD PUSH2 0x4472 JUMP JUMPDEST POP PUSH1 0x60 DUP2 ADD MLOAD SWAP1 PUSH1 0x1 PUSH1 0x1 PUSH1 0x40 SHL SUB DUP3 GT PUSH2 0x2F8 JUMPI ADD DUP2 PUSH1 0x3F DUP3 ADD SLT ISZERO PUSH2 0x2F8 JUMPI DUP7 DUP2 ADD MLOAD PUSH1 0x40 DUP9 PUSH2 0x474 DUP4 PUSH2 0x32D3 JUMP JUMPDEST PUSH2 0x480 DUP4 MLOAD SWAP2 DUP3 PUSH2 0x2F8E JUMP JUMPDEST DUP4 DUP2 MSTORE ADD SWAP2 PUSH1 0x5 SHL DUP4 ADD ADD SWAP3 DUP4 GT PUSH2 0x2F8 JUMPI PUSH1 0x40 DUP9 SWAP3 ADD SWAP1 JUMPDEST DUP4 DUP3 LT PUSH2 0x6CC JUMPI POP POP POP POP JUMPDEST PUSH1 0x3 SIGNEXTEND PUSH1 0x16 DUP2 SUB PUSH2 0x653 JUMPI POP PUSH1 0x0 SLOAD PUSH1 0x11 SLOAD PUSH1 0x40 MLOAD SWAP3 PUSH1 0x4 SWAP3 DUP6 AND PUSH2 0x4C9 DUP6 PUSH2 0x2EEC JUMP JUMPDEST DUP7 DUP6 MSTORE DUP8 DUP6 ADD SWAP2 TIMESTAMP DUP4 MSTORE PUSH1 0x40 DUP7 ADD SWAP2 DUP3 MSTORE PUSH1 0x60 DUP7 ADD SWAP3 ADDRESS DUP5 MSTORE PUSH1 0x80 DUP8 ADD SWAP5 DUP1 DUP7 MSTORE PUSH1 0x0 MSTORE PUSH1 0xF DUP11 MSTORE PUSH1 0x40 PUSH1 0x0 KECCAK256 SWAP7 MLOAD DUP8 SSTORE MLOAD SWAP1 DUP7 ADD SSTORE DUP6 PUSH1 0x2 DUP7 ADD SWAP2 MLOAD AND SWAP1 PUSH1 0x1 PUSH1 0x1 PUSH1 0x60 SHL SUB PUSH1 0xA0 SHL SWAP2 DUP3 DUP3 SLOAD AND OR SWAP1 SSTORE DUP6 PUSH1 0x3 DUP7 ADD SWAP3 MLOAD AND SWAP1 DUP3 SLOAD AND OR SWAP1 SSTORE MLOAD SWAP2 ADD SSTORE DUP1 PUSH1 0x0 SLOAD AND PUSH1 0x0 MSTORE PUSH1 0x10 DUP4 MSTORE PUSH2 0x54B PUSH1 0x40 PUSH1 0x0 KECCAK256 PUSH1 0x11 SLOAD SWAP1 PUSH2 0x3591 JUMP JUMPDEST PUSH2 0x556 PUSH1 0x11 SLOAD PUSH2 0x35CB JUMP JUMPDEST DUP1 PUSH1 0x11 SSTORE DUP2 PUSH1 0x0 SLOAD AND PUSH1 0x0 NOT DUP3 ADD SWAP2 DUP3 GT PUSH2 0x63D JUMPI PUSH1 0x40 DUP1 MLOAD SWAP3 DUP4 MSTORE PUSH1 0x20 DUP4 ADD DUP6 SWAP1 MSTORE TIMESTAMP SWAP1 DUP4 ADD MSTORE PUSH1 0x0 SWAP2 DUP3 SWAP2 DUP3 SWAP2 DUP3 SWAP2 DUP8 SWAP2 DUP2 SWAP1 PUSH32 0xB5D1185F9EB3BC9F64976A0642FA385671626DF86E9AECD91BCDA7206B045666 SWAP1 PUSH1 0x60 SWAP1 LOG2 GAS CALL PUSH2 0x5BB PUSH2 0x3631 JUMP JUMPDEST POP ISZERO PUSH2 0x5F8 JUMPI PUSH32 0x2E4FB6077D4ACF86E12BB7411FB82B2B3EAA6A49787F4B1E17B423E7EA841169 SWAP2 PUSH1 0x40 SWAP2 PUSH1 0x0 SLOAD AND SWAP4 DUP3 MLOAD SWAP2 DUP3 MSTORE TIMESTAMP SWAP1 DUP3 ADD MSTORE LOG2 STOP JUMPDEST PUSH1 0x40 MLOAD PUSH3 0x461BCD PUSH1 0xE5 SHL DUP2 MSTORE PUSH1 0x4 DUP2 ADD DUP5 SWAP1 MSTORE PUSH1 0x1B PUSH1 0x24 DUP3 ADD MSTORE PUSH32 0x456D657267656E6379207769746864726177616C206661696C65640000000000 PUSH1 0x44 DUP3 ADD MSTORE PUSH1 0x64 SWAP1 REVERT JUMPDEST PUSH4 0x4E487B71 PUSH1 0xE0 SHL PUSH1 0x0 MSTORE PUSH1 0x11 PUSH1 0x4 MSTORE PUSH1 0x24 PUSH1 0x0 REVERT JUMPDEST PUSH2 0x65D DUP6 SWAP2 PUSH2 0x37B7 JUMP JUMPDEST SWAP1 PUSH2 0x6A7 PUSH1 0x35 PUSH1 0x40 MLOAD DUP1 SWAP5 PUSH21 0x2321A2291036B4B73A34B733903330B4B632B21D1 PUSH1 0x5D SHL DUP6 DUP4 ADD MSTORE PUSH2 0x697 DUP2 MLOAD DUP1 SWAP3 DUP8 DUP7 DUP7 ADD SWAP2 ADD PUSH2 0x301F JUMP JUMPDEST DUP2 ADD SUB PUSH1 0x15 DUP2 ADD DUP6 MSTORE ADD DUP4 PUSH2 0x2F8E JUMP JUMPDEST PUSH2 0x6C8 PUSH1 0x40 MLOAD SWAP3 DUP4 SWAP3 PUSH3 0x461BCD PUSH1 0xE5 SHL DUP5 MSTORE PUSH1 0x4 DUP5 ADD MSTORE PUSH1 0x24 DUP4 ADD SWAP1 PUSH2 0x3042 JUMP JUMPDEST SUB SWAP1 REVERT JUMPDEST DUP3 DUP1 SWAP2 PUSH2 0x6D8 DUP5 PUSH2 0x4472 JUMP JUMPDEST DUP2 MSTORE ADD SWAP2 ADD SWAP1 PUSH2 0x499 JUMP JUMPDEST POP PUSH1 0x0 PUSH1 0x40 MLOAD PUSH2 0x6F2 DUP2 PUSH2 0x2F22 JUMP JUMPDEST MSTORE PUSH1 0x15 PUSH2 0x4A5 JUMP JUMPDEST PUSH2 0x714 DUP2 SWAP3 SWAP4 SWAP5 SWAP6 SWAP7 SWAP8 PUSH1 0xA3 NOT DUP11 DUP3 SUB ADD DUP7 MSTORE DUP9 MLOAD PUSH2 0x3042 JUMP JUMPDEST SWAP7 ADD SWAP3 ADD SWAP3 ADD SWAP1 SWAP3 SWAP2 PUSH2 0x3E0 JUMP JUMPDEST PUSH1 0x40 MLOAD PUSH3 0x461BCD PUSH1 0xE5 SHL DUP2 MSTORE PUSH1 0x20 PUSH1 0x4 DUP3 ADD MSTORE PUSH1 0x13 PUSH1 0x24 DUP3 ADD MSTORE PUSH19 0x4E6F204842415220746F207769746864726177 PUSH1 0x68 SHL PUSH1 0x44 DUP3 ADD MSTORE PUSH1 0x64 SWAP1 REVERT JUMPDEST CALLVALUE PUSH2 0x2F8 JUMPI PUSH1 0x0 CALLDATASIZE PUSH1 0x3 NOT ADD SLT PUSH2 0x2F8 JUMPI PUSH1 0x20 PUSH1 0x40 MLOAD PUSH2 0x2710 DUP2 MSTORE RETURN JUMPDEST CALLVALUE PUSH2 0x2F8 JUMPI PUSH1 0x0 CALLDATASIZE PUSH1 0x3 NOT ADD SLT PUSH2 0x2F8 JUMPI PUSH1 0x20 PUSH1 0x7 SLOAD PUSH1 0x40 MLOAD SWAP1 DUP2 MSTORE RETURN JUMPDEST CALLVALUE PUSH2 0x2F8 JUMPI PUSH1 0x40 CALLDATASIZE PUSH1 0x3 NOT ADD SLT PUSH2 0x2F8 JUMPI PUSH2 0x7B1 PUSH2 0x2E40 JUMP JUMPDEST PUSH1 0x1 PUSH1 0x1 PUSH1 0xA0 SHL SUB AND PUSH1 0x0 SWAP1 DUP2 MSTORE PUSH1 0xC PUSH1 0x20 MSTORE PUSH1 0x40 SWAP1 KECCAK256 DUP1 SLOAD PUSH1 0x24 CALLDATALOAD SWAP2 SWAP1 DUP3 LT ISZERO PUSH2 0x2F8 JUMPI PUSH1 0x20 SWAP2 PUSH2 0x7E2 SWAP2 PUSH2 0x31D4 JUMP JUMPDEST SWAP1 SLOAD PUSH1 0x40 MLOAD SWAP2 PUSH1 0x3 SHL SHR DUP2 MSTORE RETURN JUMPDEST CALLVALUE PUSH2 0x2F8 JUMPI PUSH1 0x20 DUP1 PUSH1 0x3 NOT CALLDATASIZE ADD SLT PUSH2 0x2F8 JUMPI PUSH1 0x1 PUSH1 0x1 PUSH1 0xA0 SHL SUB PUSH2 0x812 PUSH2 0x2E40 JUMP JUMPDEST AND PUSH1 0x0 MSTORE PUSH1 0xC DUP2 MSTORE PUSH1 0x40 PUSH1 0x0 KECCAK256 SWAP1 PUSH1 0x40 MLOAD SWAP1 DUP2 DUP2 DUP5 SLOAD SWAP2 DUP3 DUP2 MSTORE ADD SWAP4 PUSH1 0x0 MSTORE DUP2 PUSH1 0x0 KECCAK256 SWAP2 PUSH1 0x0 SWAP1 JUMPDEST DUP3 DUP3 LT PUSH2 0x861 JUMPI PUSH2 0x85D DUP6 PUSH2 0x851 DUP2 DUP10 SUB DUP3 PUSH2 0x2F8E JUMP JUMPDEST PUSH1 0x40 MLOAD SWAP2 DUP3 SWAP2 DUP3 PUSH2 0x2E97 JUMP JUMPDEST SUB SWAP1 RETURN JUMPDEST DUP4 SLOAD DUP7 MSTORE SWAP5 DUP6 ADD SWAP5 PUSH1 0x1 SWAP4 DUP5 ADD SWAP4 SWAP1 SWAP2 ADD SWAP1 PUSH2 0x83A JUMP JUMPDEST CALLVALUE PUSH2 0x2F8 JUMPI PUSH1 0x0 CALLDATASIZE PUSH1 0x3 NOT ADD SLT PUSH2 0x2F8 JUMPI PUSH1 0x20 PUSH1 0x40 MLOAD PUSH1 0x1E DUP2 MSTORE RETURN JUMPDEST CALLVALUE PUSH2 0x2F8 JUMPI PUSH1 0x20 CALLDATASIZE PUSH1 0x3 NOT ADD SLT PUSH2 0x2F8 JUMPI PUSH1 0x4 CALLDATALOAD DUP1 PUSH1 0x3 SIGNEXTEND DUP2 SUB PUSH2 0x2F8 JUMPI PUSH2 0x8BE PUSH2 0x85D SWAP2 PUSH2 0x37B7 JUMP JUMPDEST PUSH1 0x40 MLOAD SWAP2 DUP3 SWAP2 PUSH1 0x20 DUP4 MSTORE PUSH1 0x20 DUP4 ADD SWAP1 PUSH2 0x3042 JUMP JUMPDEST PUSH1 0x0 CALLDATASIZE PUSH1 0x3 NOT ADD SLT PUSH2 0x2F8 JUMPI PUSH2 0x8E6 PUSH2 0x3218 JUMP JUMPDEST PUSH1 0xE SLOAD PUSH1 0x1 PUSH1 0x1 PUSH1 0xA0 SHL SUB AND PUSH2 0xDA1 JUMPI PUSH2 0x8FE PUSH2 0x3244 JUMP JUMPDEST PUSH1 0x40 MLOAD PUSH2 0x90A DUP2 PUSH2 0x2F07 JUMP JUMPDEST PUSH1 0xA DUP2 MSTORE PUSH10 0x233ABA3AB9329021A229 PUSH1 0xB1 SHL PUSH1 0x20 DUP3 ADD MSTORE DUP2 MSTORE PUSH1 0x40 MLOAD PUSH2 0x92F DUP2 PUSH2 0x2F07 JUMP JUMPDEST PUSH1 0x4 DUP2 MSTORE PUSH4 0x2321A229 PUSH1 0xE1 SHL PUSH1 0x20 DUP3 ADD MSTORE PUSH1 0x20 DUP3 ADD MSTORE ADDRESS PUSH1 0x40 DUP3 ADD MSTORE PUSH1 0x40 MLOAD PUSH2 0x957 DUP2 PUSH2 0x2F58 JUMP JUMPDEST PUSH1 0x4C DUP2 MSTORE PUSH32 0x4E6F6E2D7472616461626C6520746F6B656E20726570726573656E74696E6720 PUSH1 0x20 DUP3 ADD MSTORE PUSH32 0x656D657267656E63792048424152207769746864726177616C2066726F6D2043 PUSH1 0x40 DUP3 ADD MSTORE PUSH12 0x1B19585C94DADE481C1BDBDB PUSH1 0xA2 SHL PUSH1 0x60 DUP3 ADD MSTORE PUSH1 0x60 DUP3 ADD MSTORE PUSH1 0x40 MLOAD PUSH2 0x9CD DUP2 PUSH2 0x2F73 JUMP JUMPDEST PUSH1 0x2 DUP2 MSTORE PUSH1 0x0 JUMPDEST PUSH1 0x40 DUP2 LT PUSH2 0xD8A JUMPI POP PUSH1 0xE0 DUP3 ADD MSTORE PUSH2 0xA03 PUSH2 0x9EE ADDRESS PUSH2 0x4609 JUMP JUMPDEST PUSH1 0xE0 DUP4 ADD MLOAD SWAP1 PUSH2 0x9FD DUP3 PUSH2 0x3337 JUMP JUMPDEST MSTORE PUSH2 0x3337 JUMP JUMPDEST POP PUSH2 0xA0C PUSH2 0x3316 JUMP JUMPDEST POP PUSH1 0x3 PUSH1 0x0 MSTORE PUSH1 0x3 PUSH1 0x20 MSTORE PUSH2 0xA57 PUSH1 0x40 PUSH1 0x0 KECCAK256 SLOAD PUSH2 0xA28 PUSH2 0x32EA JUMP JUMPDEST ADDRESS PUSH1 0x20 DUP3 ADD MSTORE PUSH1 0x40 MLOAD SWAP2 PUSH2 0xA3B DUP4 PUSH2 0x2F07 JUMP JUMPDEST DUP3 MSTORE PUSH1 0x20 DUP3 ADD MSTORE PUSH1 0xE0 DUP4 ADD MLOAD SWAP1 PUSH2 0xA51 DUP3 PUSH2 0x3344 JUMP JUMPDEST MSTORE PUSH2 0x3344 JUMP JUMPDEST POP PUSH2 0x100 DUP2 ADD MLOAD DUP1 MLOAD PUSH1 0x7 SIGNEXTEND ISZERO DUP1 PUSH2 0xD7B JUMPI JUMPDEST PUSH2 0xD6C JUMPI JUMPDEST POP PUSH1 0x40 MLOAD PUSH4 0xFB65BF3 PUSH1 0xE0 SHL PUSH1 0x20 DUP3 ADD MSTORE PUSH1 0x60 PUSH1 0x24 DUP3 ADD MSTORE PUSH2 0xAE4 PUSH2 0xABB PUSH2 0xAA5 DUP5 MLOAD PUSH2 0x160 PUSH1 0x84 DUP7 ADD MSTORE PUSH2 0x1E4 DUP6 ADD SWAP1 PUSH2 0x3042 JUMP JUMPDEST PUSH1 0x20 DUP6 ADD MLOAD DUP5 DUP3 SUB PUSH1 0x83 NOT ADD PUSH1 0xA4 DUP7 ADD MSTORE PUSH2 0x3042 JUMP JUMPDEST PUSH1 0x40 DUP5 ADD MLOAD PUSH1 0x1 PUSH1 0x1 PUSH1 0xA0 SHL SUB AND PUSH1 0xC4 DUP5 ADD MSTORE PUSH1 0x60 DUP5 ADD MLOAD DUP4 DUP3 SUB PUSH1 0x83 NOT ADD PUSH1 0xE4 DUP6 ADD MSTORE PUSH2 0x3042 JUMP JUMPDEST SWAP2 PUSH1 0x80 DUP2 ADD MLOAD ISZERO ISZERO PUSH2 0x104 DUP4 ADD MSTORE PUSH1 0xA0 DUP2 ADD MLOAD PUSH1 0x7 SIGNEXTEND PUSH2 0x124 DUP4 ADD MSTORE PUSH1 0xC0 DUP2 ADD MLOAD ISZERO ISZERO PUSH2 0x144 DUP4 ADD MSTORE PUSH1 0xE0 DUP2 ADD MLOAD SWAP3 PUSH1 0x83 NOT DUP4 DUP3 SUB ADD PUSH2 0x164 DUP5 ADD MSTORE DUP4 MLOAD DUP1 DUP3 MSTORE PUSH1 0x20 DUP3 ADD SWAP2 PUSH1 0x20 DUP1 DUP4 PUSH1 0x5 SHL DUP4 ADD ADD SWAP7 ADD SWAP3 PUSH1 0x0 SWAP2 JUMPDEST DUP4 DUP4 LT PUSH2 0xCDC JUMPI PUSH1 0x0 DUP1 DUP9 PUSH2 0xB96 DUP2 DUP13 PUSH1 0x40 PUSH2 0x100 DUP14 ADD MLOAD DUP1 MLOAD PUSH1 0x7 SIGNEXTEND PUSH2 0x184 DUP6 ADD MSTORE PUSH1 0x1 DUP1 PUSH1 0xA0 SHL SUB PUSH1 0x20 DUP3 ADD MLOAD AND PUSH2 0x1A4 DUP6 ADD MSTORE ADD MLOAD PUSH1 0x7 SIGNEXTEND PUSH2 0x1C4 DUP4 ADD MSTORE DUP5 PUSH1 0x44 DUP4 ADD MSTORE DUP5 PUSH1 0x64 DUP4 ADD MSTORE SUB PUSH1 0x1F NOT DUP2 ADD DUP4 MSTORE DUP3 PUSH2 0x2F8E JUMP JUMPDEST PUSH1 0x20 DUP2 MLOAD SWAP2 ADD CALLVALUE PUSH2 0x167 GAS CALL PUSH2 0xBAA PUSH2 0x3631 JUMP JUMPDEST SWAP1 ISZERO PUSH2 0xCD2 JUMPI PUSH1 0x40 DUP2 DUP1 MLOAD DUP2 ADD SUB SLT PUSH2 0x2F8 JUMPI PUSH1 0x40 PUSH2 0xBCB PUSH1 0x20 DUP4 ADD PUSH2 0x4464 JUMP JUMPDEST SWAP2 ADD MLOAD PUSH1 0x1 PUSH1 0x1 PUSH1 0xA0 SHL SUB DUP2 AND SWAP2 SWAP1 DUP3 SWAP1 SUB PUSH2 0x2F8 JUMPI PUSH1 0x3 SIGNEXTEND JUMPDEST PUSH1 0x3 SIGNEXTEND PUSH1 0x16 DUP2 SUB PUSH2 0xC7D JUMPI POP PUSH1 0x1 DUP1 PUSH1 0xA0 SHL SUB AND DUP1 PUSH1 0x1 PUSH1 0x1 PUSH1 0x60 SHL SUB PUSH1 0xA0 SHL PUSH1 0xE SLOAD AND OR PUSH1 0xE SSTORE PUSH32 0xCD448DE8793F622663EEF5D50C680AB37B5A19871F9BBC24FA81E2A715A43E4F PUSH2 0x100 PUSH1 0x40 MLOAD PUSH1 0x80 DUP2 MSTORE PUSH1 0xA PUSH1 0x80 DUP3 ADD MSTORE PUSH10 0x233ABA3AB9329021A229 PUSH1 0xB1 SHL PUSH1 0xA0 DUP3 ADD MSTORE PUSH1 0xC0 PUSH1 0x20 DUP3 ADD MSTORE PUSH1 0x4 PUSH1 0xC0 DUP3 ADD MSTORE PUSH4 0x2321A229 PUSH1 0xE1 SHL PUSH1 0xE0 DUP3 ADD MSTORE PUSH1 0x0 PUSH1 0x40 DUP3 ADD MSTORE ADDRESS PUSH1 0x60 DUP3 ADD MSTORE LOG2 STOP JUMPDEST DUP1 PUSH32 0x8E087745DD680D08F64711BFDD63E4496157EAA1C1774FDDD382C76431DC1054 PUSH2 0xCBA PUSH2 0xCAD PUSH1 0x24 SWAP5 PUSH2 0x37B7 JUMP JUMPDEST PUSH1 0x40 MLOAD SWAP2 DUP3 SWAP2 DUP6 DUP4 PUSH2 0x3354 JUMP JUMPDEST SUB SWAP1 LOG1 PUSH1 0x40 MLOAD SWAP1 PUSH4 0x1DD454B1 PUSH1 0xE0 SHL DUP3 MSTORE PUSH1 0x4 DUP3 ADD MSTORE REVERT JUMPDEST POP PUSH1 0x0 PUSH1 0x15 PUSH2 0xBE5 JUMP JUMPDEST SWAP1 SWAP2 SWAP3 SWAP4 SWAP7 PUSH1 0x20 DUP1 PUSH1 0x1 SWAP3 PUSH1 0x1F NOT DUP6 DUP3 SUB ADD DUP7 MSTORE DUP2 DUP12 MLOAD DUP1 MLOAD DUP4 MSTORE ADD MLOAD SWAP1 PUSH1 0x40 DUP4 DUP3 ADD MSTORE DUP2 MLOAD ISZERO ISZERO PUSH1 0x40 DUP3 ADD MSTORE DUP5 DUP1 PUSH1 0xA0 SHL SUB DUP4 DUP4 ADD MLOAD AND PUSH1 0x60 DUP3 ADD MSTORE PUSH1 0xC0 PUSH2 0xD4D PUSH2 0xD37 PUSH1 0x40 DUP6 ADD MLOAD PUSH1 0xA0 PUSH1 0x80 DUP7 ADD MSTORE PUSH1 0xE0 DUP6 ADD SWAP1 PUSH2 0x3042 JUMP JUMPDEST PUSH1 0x60 DUP6 ADD MLOAD DUP5 DUP3 SUB PUSH1 0x3F NOT ADD PUSH1 0xA0 DUP7 ADD MSTORE PUSH2 0x3042 JUMP JUMPDEST SWAP3 PUSH1 0x80 DUP8 DUP1 PUSH1 0xA0 SHL SUB SWAP2 ADD MLOAD AND SWAP2 ADD MSTORE SWAP10 ADD SWAP4 ADD SWAP4 ADD SWAP2 SWAP4 SWAP3 SWAP1 PUSH2 0xB3B JUMP JUMPDEST PUSH1 0x40 PUSH3 0x76A700 SWAP2 ADD MSTORE DUP2 PUSH2 0xA6F JUMP JUMPDEST POP PUSH1 0x40 DUP2 ADD MLOAD PUSH1 0x7 SIGNEXTEND ISZERO PUSH2 0xA6A JUMP JUMPDEST PUSH1 0x20 SWAP1 PUSH2 0xD95 PUSH2 0x3316 JUMP JUMPDEST DUP3 DUP3 DUP6 ADD ADD MSTORE ADD PUSH2 0x9D4 JUMP JUMPDEST PUSH1 0x40 MLOAD PUSH3 0x461BCD PUSH1 0xE5 SHL DUP2 MSTORE PUSH1 0x20 PUSH1 0x4 DUP3 ADD MSTORE PUSH1 0x1A PUSH1 0x24 DUP3 ADD MSTORE PUSH32 0x4643445220746F6B656E20616C72656164792063726561746564000000000000 PUSH1 0x44 DUP3 ADD MSTORE PUSH1 0x64 SWAP1 REVERT JUMPDEST CALLVALUE PUSH2 0x2F8 JUMPI PUSH1 0x20 CALLDATASIZE PUSH1 0x3 NOT ADD SLT PUSH2 0x2F8 JUMPI PUSH2 0xDFF PUSH2 0x2E40 JUMP JUMPDEST POP PUSH2 0x85D PUSH2 0xE0B PUSH2 0x36D3 JUMP JUMPDEST PUSH1 0x40 DUP1 MLOAD SWAP4 DUP5 MSTORE PUSH1 0x20 DUP5 ADD SWAP3 SWAP1 SWAP3 MSTORE SWAP1 DUP3 ADD MSTORE SWAP1 DUP2 SWAP1 PUSH1 0x60 DUP3 ADD SWAP1 JUMP JUMPDEST CALLVALUE PUSH2 0x2F8 JUMPI PUSH1 0x20 PUSH2 0xE41 PUSH2 0xE3B CALLDATASIZE PUSH2 0x3202 JUMP JUMPDEST SWAP1 PUSH2 0x3688 JUMP JUMPDEST PUSH1 0x40 MLOAD SWAP1 DUP2 MSTORE RETURN JUMPDEST CALLVALUE PUSH2 0x2F8 JUMPI PUSH1 0x0 CALLDATASIZE PUSH1 0x3 NOT ADD SLT PUSH2 0x2F8 JUMPI PUSH1 0x0 PUSH1 0x80 PUSH1 0x40 MLOAD PUSH2 0xE6A DUP2 PUSH2 0x2EEC JUMP JUMPDEST PUSH1 0x60 DUP2 MSTORE PUSH1 0x60 PUSH1 0x20 DUP3 ADD MSTORE DUP3 PUSH1 0x40 DUP3 ADD MSTORE DUP3 PUSH1 0x60 DUP3 ADD MSTORE ADD MSTORE PUSH2 0xEFC PUSH1 0x40 MLOAD PUSH2 0xE92 DUP2 PUSH2 0x2EEC JUMP JUMPDEST PUSH2 0xE9A PUSH2 0x30A1 JUMP JUMPDEST DUP2 MSTORE PUSH2 0xEA4 PUSH2 0x314D JUMP JUMPDEST PUSH1 0x20 DUP3 ADD SWAP1 DUP2 MSTORE PUSH1 0xA SLOAD PUSH1 0x40 DUP4 ADD SWAP2 PUSH1 0xFF DUP3 AND DUP4 MSTORE PUSH1 0x60 DUP5 ADD PUSH1 0xFF PUSH2 0xF0F PUSH1 0x1 DUP1 PUSH1 0xA0 SHL SUB SWAP4 DUP5 DUP7 PUSH1 0x8 SHR AND DUP5 MSTORE DUP3 PUSH1 0x80 DUP10 ADD SWAP7 PUSH1 0xA8 SHR AND ISZERO ISZERO DUP7 MSTORE PUSH1 0x40 MLOAD SWAP9 DUP10 SWAP9 PUSH1 0x20 DUP11 MSTORE MLOAD PUSH1 0xA0 PUSH1 0x20 DUP12 ADD MSTORE PUSH1 0xC0 DUP11 ADD SWAP1 PUSH2 0x3042 JUMP JUMPDEST SWAP1 MLOAD DUP9 DUP3 SUB PUSH1 0x1F NOT ADD PUSH1 0x40 DUP11 ADD MSTORE PUSH2 0x3042 JUMP JUMPDEST SWAP5 MLOAD AND PUSH1 0x60 DUP7 ADD MSTORE MLOAD AND PUSH1 0x80 DUP5 ADD MSTORE MLOAD ISZERO ISZERO PUSH1 0xA0 DUP4 ADD MSTORE SUB SWAP1 RETURN JUMPDEST CALLVALUE PUSH2 0x2F8 JUMPI PUSH1 0x20 CALLDATASIZE PUSH1 0x3 NOT ADD SLT PUSH2 0x2F8 JUMPI PUSH2 0xF43 PUSH2 0x2E40 JUMP JUMPDEST POP PUSH1 0x20 PUSH2 0xE41 PUSH2 0x374F JUMP JUMPDEST CALLVALUE PUSH2 0x2F8 JUMPI PUSH1 0x0 CALLDATASIZE PUSH1 0x3 NOT ADD SLT PUSH2 0x2F8 JUMPI PUSH1 0x20 PUSH1 0x11 SLOAD PUSH1 0x40 MLOAD SWAP1 DUP2 MSTORE RETURN JUMPDEST CALLVALUE PUSH2 0x2F8 JUMPI PUSH2 0xF7A CALLDATASIZE PUSH2 0x3202 JUMP JUMPDEST PUSH2 0xF82 PUSH2 0x33EC JUMP JUMPDEST PUSH2 0xF8A PUSH2 0x33CE JUMP JUMPDEST PUSH2 0xF9B PUSH1 0xFF PUSH1 0xA SLOAD PUSH1 0xA8 SHR AND PUSH2 0x336E JUMP JUMPDEST DUP2 ISZERO PUSH2 0x131D JUMPI PUSH1 0x6 SLOAD DUP1 ISZERO PUSH2 0x12E1 JUMPI PUSH1 0x5 SLOAD PUSH2 0xFCC PUSH2 0xFC3 DUP4 PUSH2 0xFBE DUP5 DUP9 PUSH2 0x35DA JUMP JUMPDEST PUSH2 0x33AE JUMP JUMPDEST SWAP4 DUP5 LT ISZERO PUSH2 0x3544 JUMP JUMPDEST SELFBALANCE DUP4 GT PUSH2 0x129C JUMPI PUSH2 0xFEA SWAP2 PUSH2 0xFE2 DUP5 DUP7 SWAP4 PUSH2 0x35ED JUMP JUMPDEST PUSH1 0x5 SSTORE PUSH2 0x35ED JUMP JUMPDEST PUSH1 0x6 SSTORE PUSH2 0xFF9 DUP2 PUSH1 0x7 SLOAD PUSH2 0x35ED JUMP JUMPDEST PUSH1 0x7 SSTORE PUSH1 0x1 PUSH1 0x1 PUSH1 0x40 SHL SUB DUP3 AND PUSH1 0x7 SIGNEXTEND PUSH1 0x40 MLOAD PUSH2 0x1015 DUP2 PUSH2 0x2F22 JUMP JUMPDEST PUSH1 0x0 DUP2 MSTORE PUSH1 0x0 DUP1 PUSH1 0x1 DUP1 PUSH1 0xA0 SHL SUB SWAP3 PUSH2 0x10A1 PUSH2 0x10AF DUP6 PUSH1 0x4 SLOAD AND SWAP3 DUP4 PUSH32 0xB310AAAC57F9A89F4E3661E38CB8DF5EA9428B82D1BB2B8AB6A77C3F52818F02 PUSH1 0x40 MLOAD DUP11 DUP2 MSTORE PUSH1 0x40 PUSH1 0x20 DUP3 ADD MSTORE DUP1 PUSH2 0x106D PUSH1 0x40 DUP3 ADD DUP7 PUSH2 0x35FA JUMP JUMPDEST SUB SWAP1 LOG2 PUSH1 0x40 MLOAD SWAP3 DUP4 SWAP2 PUSH1 0x20 DUP4 ADD SWAP6 PUSH4 0x6B488683 PUSH1 0xE1 SHL DUP8 MSTORE PUSH1 0x24 DUP5 ADD MSTORE DUP10 PUSH1 0x44 DUP5 ADD MSTORE PUSH1 0x60 PUSH1 0x64 DUP5 ADD MSTORE PUSH1 0x84 DUP4 ADD SWAP1 PUSH2 0x35FA JUMP JUMPDEST SUB PUSH1 0x1F NOT DUP2 ADD DUP4 MSTORE DUP3 PUSH2 0x2F8E JUMP JUMPDEST MLOAD SWAP1 DUP3 PUSH2 0x167 GAS CALL SWAP1 PUSH2 0x10C0 PUSH2 0x3631 JUMP JUMPDEST SWAP2 ISZERO PUSH2 0x1291 JUMPI PUSH1 0x40 DUP3 DUP1 MLOAD DUP2 ADD SUB SLT PUSH2 0x2F8 JUMPI PUSH2 0x10EB PUSH1 0x40 PUSH2 0x10E4 PUSH1 0x20 DUP6 ADD PUSH2 0x4464 JUMP JUMPDEST SWAP4 ADD PUSH2 0x4472 JUMP JUMPDEST SWAP2 JUMPDEST PUSH1 0x3 SIGNEXTEND PUSH1 0x16 DUP2 SUB PUSH2 0x11D7 JUMPI POP PUSH1 0x4 SLOAD PUSH1 0x40 DUP1 MLOAD PUSH1 0x7 SWAP6 DUP7 SIGNEXTEND DUP2 MSTORE SWAP4 SWAP1 SWAP5 SIGNEXTEND PUSH1 0x20 DUP5 ADD MSTORE AND SWAP2 PUSH32 0x7B2F31B2FFDA9D7A1AC640400C8F7EB1C8D0071689111F45797448A14697587C SWAP2 LOG2 PUSH1 0x0 DUP1 DUP1 DUP1 DUP5 CALLER GAS CALL PUSH2 0x1146 PUSH2 0x3631 JUMP JUMPDEST POP ISZERO PUSH2 0x119B JUMPI PUSH2 0x1192 PUSH32 0x1DC8BB69DF2B8E91FBDCBFCF93D951B3F0000F085A95FE3F7946D6161439245D SWAP2 PUSH1 0x40 MLOAD SWAP2 DUP3 SWAP2 CALLER SWAP6 TIMESTAMP SWAP2 DUP5 PUSH1 0x40 SWAP2 SWAP5 SWAP4 SWAP3 PUSH1 0x60 DUP3 ADD SWAP6 DUP3 MSTORE PUSH1 0x20 DUP3 ADD MSTORE ADD MSTORE JUMP JUMPDEST SUB SWAP1 LOG2 PUSH1 0x1 DUP1 SSTORE STOP JUMPDEST PUSH1 0x40 MLOAD PUSH3 0x461BCD PUSH1 0xE5 SHL DUP2 MSTORE PUSH1 0x20 PUSH1 0x4 DUP3 ADD MSTORE PUSH1 0x14 PUSH1 0x24 DUP3 ADD MSTORE PUSH20 0x12109054881D1C985B9CD9995C8819985A5B1959 PUSH1 0x62 SHL PUSH1 0x44 DUP3 ADD MSTORE PUSH1 0x64 SWAP1 REVERT JUMPDEST SWAP2 POP PUSH2 0x1221 DUP5 PUSH2 0x1218 DUP8 PUSH2 0x120F PUSH32 0xCCCB9CA916A4B1199913D752D315547B23A41451AB4C699F6BAE82CECF211B1E SWAP8 SWAP9 PUSH1 0x5 SLOAD PUSH2 0x3584 JUMP JUMPDEST POP PUSH1 0x6 SLOAD PUSH2 0x3584 JUMP JUMPDEST POP PUSH1 0x7 SLOAD PUSH2 0x3584 JUMP JUMPDEST POP PUSH1 0x4 SLOAD AND SWAP3 PUSH2 0x1249 PUSH1 0x40 MLOAD SWAP3 DUP4 SWAP3 DUP4 SWAP1 SWAP3 SWAP2 PUSH1 0x20 SWAP1 PUSH1 0x40 DUP4 ADD SWAP5 PUSH1 0x7 SIGNEXTEND DUP4 MSTORE PUSH1 0x3 SIGNEXTEND SWAP2 ADD MSTORE JUMP JUMPDEST SUB SWAP1 LOG2 PUSH1 0x40 MLOAD PUSH3 0x461BCD PUSH1 0xE5 SHL DUP2 MSTORE PUSH1 0x20 PUSH1 0x4 DUP3 ADD MSTORE PUSH1 0x18 PUSH1 0x24 DUP3 ADD MSTORE PUSH32 0x48545320746F6B656E206275726E696E67206661696C65640000000000000000 PUSH1 0x44 DUP3 ADD MSTORE PUSH1 0x64 SWAP1 REVERT JUMPDEST PUSH1 0x0 SWAP2 POP PUSH1 0x15 PUSH2 0x10ED JUMP JUMPDEST PUSH1 0x40 MLOAD PUSH3 0x461BCD PUSH1 0xE5 SHL DUP2 MSTORE PUSH1 0x20 PUSH1 0x4 DUP3 ADD MSTORE PUSH1 0x19 PUSH1 0x24 DUP3 ADD MSTORE PUSH32 0x496E73756666696369656E74204842415220696E20706F6F6C00000000000000 PUSH1 0x44 DUP3 ADD MSTORE PUSH1 0x64 SWAP1 REVERT JUMPDEST PUSH1 0x40 MLOAD PUSH3 0x461BCD PUSH1 0xE5 SHL DUP2 MSTORE PUSH1 0x20 PUSH1 0x4 DUP3 ADD MSTORE PUSH1 0x14 PUSH1 0x24 DUP3 ADD MSTORE PUSH20 0x139BC81B1A5C5D5A591A5D1E481A5B881C1BDBDB PUSH1 0x62 SHL PUSH1 0x44 DUP3 ADD MSTORE PUSH1 0x64 SWAP1 REVERT JUMPDEST PUSH1 0x40 MLOAD PUSH3 0x461BCD PUSH1 0xE5 SHL DUP2 MSTORE PUSH1 0x20 PUSH1 0x4 DUP3 ADD MSTORE PUSH1 0x16 PUSH1 0x24 DUP3 ADD MSTORE PUSH22 0x139BC81314081D1BDAD95B9CC81CDC1958DA599A5959 PUSH1 0x52 SHL PUSH1 0x44 DUP3 ADD MSTORE PUSH1 0x64 SWAP1 REVERT JUMPDEST CALLVALUE PUSH2 0x2F8 JUMPI PUSH1 0x0 DUP1 PUSH2 0x13B6 PUSH2 0x10A1 PUSH2 0x1372 CALLDATASIZE PUSH2 0x2E56 JUMP JUMPDEST PUSH1 0x40 MLOAD PUSH4 0x9B23D3D9 PUSH1 0xE0 SHL PUSH1 0x20 DUP3 ADD SWAP1 DUP2 MSTORE PUSH1 0x1 PUSH1 0x1 PUSH1 0xA0 SHL SUB SWAP6 DUP7 AND PUSH1 0x24 DUP4 ADD MSTORE SWAP4 DUP6 AND PUSH1 0x44 DUP3 ADD MSTORE SWAP4 SWAP1 SWAP2 AND PUSH1 0x64 DUP5 ADD MSTORE PUSH1 0x84 DUP4 ADD MSTORE SWAP3 SWAP1 SWAP2 DUP3 SWAP1 PUSH1 0xA4 DUP3 ADD SWAP1 JUMP JUMPDEST MLOAD SWAP1 DUP3 PUSH2 0x167 GAS CALL PUSH2 0x13C6 PUSH2 0x3631 JUMP JUMPDEST SWAP1 ISZERO PUSH2 0x13F1 JUMPI PUSH1 0x20 DUP2 DUP1 MLOAD DUP2 ADD SUB SLT PUSH2 0x2F8 JUMPI PUSH2 0x13E6 PUSH1 0x20 DUP1 SWAP3 ADD PUSH2 0x4464 JUMP JUMPDEST PUSH1 0x40 MLOAD SWAP1 PUSH1 0x3 SIGNEXTEND DUP2 MSTORE RETURN JUMPDEST POP PUSH1 0x20 PUSH1 0x15 PUSH2 0x13E6 JUMP JUMPDEST CALLVALUE PUSH2 0x2F8 JUMPI PUSH1 0x0 CALLDATASIZE PUSH1 0x3 NOT ADD SLT PUSH2 0x2F8 JUMPI PUSH1 0x0 SLOAD PUSH1 0x40 MLOAD PUSH1 0x1 PUSH1 0x1 PUSH1 0xA0 SHL SUB SWAP1 SWAP2 AND DUP2 MSTORE PUSH1 0x20 SWAP1 RETURN JUMPDEST CALLVALUE PUSH2 0x2F8 JUMPI PUSH1 0x0 CALLDATASIZE PUSH1 0x3 NOT ADD SLT PUSH2 0x2F8 JUMPI PUSH2 0x143D PUSH2 0x3218 JUMP JUMPDEST PUSH2 0x1445 PUSH2 0x33CE JUMP JUMPDEST PUSH1 0x1 PUSH1 0xFF NOT PUSH1 0x2 SLOAD AND OR PUSH1 0x2 SSTORE PUSH32 0x62E78CEA01BEE320CD4E420270B5EA74000D11B0C9F74754EBDBFC544B05A258 PUSH1 0x20 PUSH1 0x40 MLOAD CALLER DUP2 MSTORE LOG1 STOP JUMPDEST CALLVALUE PUSH2 0x2F8 JUMPI PUSH1 0x40 CALLDATASIZE PUSH1 0x3 NOT ADD SLT PUSH2 0x2F8 JUMPI PUSH2 0x1497 PUSH2 0x2E40 JUMP JUMPDEST PUSH1 0x1 PUSH1 0x1 PUSH1 0xA0 SHL SUB AND PUSH1 0x0 SWAP1 DUP2 MSTORE PUSH1 0x10 PUSH1 0x20 MSTORE PUSH1 0x40 SWAP1 KECCAK256 DUP1 SLOAD PUSH1 0x24 CALLDATALOAD SWAP2 SWAP1 DUP3 LT ISZERO PUSH2 0x2F8 JUMPI PUSH1 0x20 SWAP2 PUSH2 0x7E2 SWAP2 PUSH2 0x31D4 JUMP JUMPDEST CALLVALUE PUSH2 0x2F8 JUMPI PUSH1 0x20 DUP1 PUSH1 0x3 NOT CALLDATASIZE ADD SLT PUSH2 0x2F8 JUMPI PUSH1 0x4 CALLDATALOAD PUSH2 0x14E5 PUSH2 0x3218 JUMP JUMPDEST PUSH1 0xE SLOAD PUSH1 0x1 PUSH1 0x1 PUSH1 0xA0 SHL SUB SWAP1 DUP2 AND SWAP2 PUSH2 0x14FF DUP4 ISZERO ISZERO PUSH2 0x43E1 JUMP JUMPDEST PUSH2 0x150C PUSH1 0x11 SLOAD DUP3 LT PUSH2 0x4426 JUMP JUMPDEST PUSH1 0x0 MSTORE PUSH1 0xF DUP4 MSTORE PUSH1 0x40 PUSH1 0x0 KECCAK256 SWAP1 PUSH1 0x40 MLOAD PUSH2 0x1525 DUP2 PUSH2 0x2EEC JUMP JUMPDEST DUP3 SLOAD DUP2 MSTORE PUSH1 0x1 DUP4 ADD SLOAD DUP6 DUP3 ADD MSTORE PUSH1 0x80 PUSH1 0x4 DUP4 PUSH1 0x2 DUP7 ADD SLOAD AND SWAP5 DUP6 PUSH1 0x40 DUP6 ADD MSTORE DUP5 PUSH1 0x3 DUP3 ADD SLOAD AND PUSH1 0x60 DUP6 ADD MSTORE ADD SLOAD SWAP2 ADD MSTORE PUSH1 0x0 SLOAD AND SUB PUSH2 0x1617 JUMPI PUSH1 0x0 DUP1 SWAP2 PUSH1 0x40 MLOAD DUP5 DUP2 ADD SWAP2 PUSH4 0xEFEF57F9 PUSH1 0xE0 SHL DUP4 MSTORE PUSH1 0x24 DUP3 ADD MSTORE ADDRESS PUSH1 0x44 DUP3 ADD MSTORE PUSH1 0x1 PUSH1 0x64 DUP3 ADD MSTORE PUSH1 0x64 DUP2 MSTORE PUSH2 0x1592 DUP2 PUSH2 0x2EEC JUMP JUMPDEST MLOAD SWAP1 DUP3 PUSH2 0x167 GAS CALL PUSH2 0x15A2 PUSH2 0x3631 JUMP JUMPDEST SWAP1 ISZERO PUSH2 0x160F JUMPI DUP2 DUP2 DUP1 MLOAD DUP2 ADD SUB SLT PUSH2 0x2F8 JUMPI DUP2 PUSH2 0x15BF SWAP2 ADD PUSH2 0x4464 JUMP JUMPDEST PUSH1 0x3 SIGNEXTEND PUSH1 0x16 DUP2 SUB PUSH2 0x15CC JUMPI STOP JUMPDEST PUSH2 0x15D5 SWAP1 PUSH2 0x37B7 JUMP JUMPDEST SWAP1 PUSH2 0x6A7 PUSH1 0x35 PUSH1 0x40 MLOAD DUP1 SWAP5 PUSH21 0x2321A22910313AB93734B733903330B4B632B21D1 PUSH1 0x5D SHL DUP6 DUP4 ADD MSTORE PUSH2 0x697 DUP2 MLOAD DUP1 SWAP3 DUP8 DUP7 DUP7 ADD SWAP2 ADD PUSH2 0x301F JUMP JUMPDEST POP PUSH1 0x15 PUSH2 0x15BF JUMP JUMPDEST PUSH1 0x40 MLOAD PUSH3 0x461BCD PUSH1 0xE5 SHL DUP2 MSTORE PUSH1 0x4 DUP2 ADD DUP4 SWAP1 MSTORE PUSH1 0x1A PUSH1 0x24 DUP3 ADD MSTORE PUSH32 0x4E6F7420746865206F776E6572206F6620746869732046434452000000000000 PUSH1 0x44 DUP3 ADD MSTORE PUSH1 0x64 SWAP1 REVERT JUMPDEST CALLVALUE PUSH2 0x2F8 JUMPI PUSH1 0x0 CALLDATASIZE PUSH1 0x3 NOT ADD SLT PUSH2 0x2F8 JUMPI PUSH2 0x1675 PUSH2 0x3218 JUMP JUMPDEST PUSH1 0x0 DUP1 SLOAD PUSH1 0x1 PUSH1 0x1 PUSH1 0xA0 SHL SUB NOT DUP2 AND DUP3 SSTORE PUSH1 0x1 PUSH1 0x1 PUSH1 0xA0 SHL SUB AND PUSH32 0x8BE0079C531659141344CD1FD0A4F28419497F9722A3DAAFE3B4186F6B6457E0 DUP3 DUP1 LOG3 STOP JUMPDEST CALLVALUE PUSH2 0x2F8 JUMPI PUSH1 0x0 CALLDATASIZE PUSH1 0x3 NOT ADD SLT PUSH2 0x2F8 JUMPI PUSH2 0x16F6 PUSH2 0x16D1 PUSH2 0x30A1 JUMP JUMPDEST PUSH2 0x16D9 PUSH2 0x314D JUMP JUMPDEST PUSH1 0xFF PUSH2 0x1704 PUSH1 0xA SLOAD SWAP3 PUSH1 0x40 MLOAD SWAP6 DUP7 SWAP6 PUSH1 0xA0 DUP8 MSTORE PUSH1 0xA0 DUP8 ADD SWAP1 PUSH2 0x3042 JUMP JUMPDEST SWAP1 DUP6 DUP3 SUB PUSH1 0x20 DUP8 ADD MSTORE PUSH2 0x3042 JUMP JUMPDEST DUP2 DUP4 AND PUSH1 0x40 DUP6 ADD MSTORE PUSH1 0x8 DUP4 SWAP1 SHR PUSH1 0x1 PUSH1 0x1 PUSH1 0xA0 SHL SUB AND PUSH1 0x60 DUP6 ADD MSTORE PUSH1 0xA8 SWAP3 SWAP1 SWAP3 SHR AND ISZERO ISZERO PUSH1 0x80 DUP4 ADD MSTORE SUB SWAP1 RETURN JUMPDEST CALLVALUE PUSH2 0x2F8 JUMPI PUSH1 0x40 CALLDATASIZE PUSH1 0x3 NOT ADD SLT PUSH2 0x2F8 JUMPI PUSH2 0x174A PUSH2 0x2E40 JUMP JUMPDEST PUSH1 0x24 CALLDATALOAD PUSH1 0x1 PUSH1 0x1 PUSH1 0x40 SHL SUB DUP2 GT PUSH2 0x2F8 JUMPI CALLDATASIZE PUSH1 0x23 DUP3 ADD SLT ISZERO PUSH2 0x2F8 JUMPI PUSH1 0x0 SWAP2 PUSH2 0x10A1 PUSH2 0x17BC PUSH2 0x1784 DUP6 SWAP5 CALLDATASIZE SWAP1 PUSH1 0x24 DUP2 PUSH1 0x4 ADD CALLDATALOAD SWAP2 ADD PUSH2 0x2FCA JUMP JUMPDEST PUSH1 0x40 DUP1 MLOAD PUSH4 0x30C6E32F PUSH1 0xE1 SHL PUSH1 0x20 DUP3 ADD SWAP1 DUP2 MSTORE PUSH1 0x1 PUSH1 0x1 PUSH1 0xA0 SHL SUB SWAP1 SWAP7 AND PUSH1 0x24 DUP3 ADD MSTORE PUSH1 0x44 DUP2 ADD SWAP2 SWAP1 SWAP2 MSTORE SWAP3 DUP4 SWAP2 PUSH1 0x64 DUP4 ADD SWAP1 PUSH2 0x3042 JUMP JUMPDEST MLOAD SWAP1 DUP3 PUSH2 0x167 GAS CALL PUSH2 0x17CC PUSH2 0x3631 JUMP JUMPDEST SWAP1 PUSH32 0x4AF4780E06FE8CB9DF64B0794FA6F01399AF979175BB988E35E0E57E594567BC PUSH1 0x40 MLOAD DUP3 ISZERO ISZERO DUP2 MSTORE PUSH1 0x40 PUSH1 0x20 DUP3 ADD MSTORE DUP1 PUSH2 0x180B PUSH1 0x40 DUP3 ADD DUP7 PUSH2 0x3042 JUMP JUMPDEST SUB SWAP1 LOG1 ISZERO PUSH2 0x1835 JUMPI PUSH1 0x16 JUMPDEST PUSH2 0x85D PUSH1 0x40 MLOAD SWAP3 DUP4 SWAP3 PUSH1 0x3 SIGNEXTEND DUP4 MSTORE PUSH1 0x40 PUSH1 0x20 DUP5 ADD MSTORE PUSH1 0x40 DUP4 ADD SWAP1 PUSH2 0x3042 JUMP JUMPDEST POP PUSH1 0x40 MLOAD PUSH2 0x1842 DUP2 PUSH2 0x2F22 JUMP JUMPDEST PUSH1 0x0 DUP2 MSTORE PUSH1 0x15 PUSH2 0x1816 JUMP JUMPDEST CALLVALUE PUSH2 0x2F8 JUMPI PUSH1 0x0 CALLDATASIZE PUSH1 0x3 NOT ADD SLT PUSH2 0x2F8 JUMPI PUSH1 0x5 SLOAD PUSH1 0x6 SLOAD PUSH1 0x7 SLOAD PUSH1 0x40 DUP1 MLOAD SWAP4 DUP5 MSTORE PUSH1 0x20 DUP5 ADD SWAP3 SWAP1 SWAP3 MSTORE SWAP1 DUP3 ADD MSTORE PUSH1 0x60 SWAP1 RETURN JUMPDEST CALLVALUE PUSH2 0x2F8 JUMPI PUSH1 0x0 CALLDATASIZE PUSH1 0x3 NOT ADD SLT PUSH2 0x2F8 JUMPI PUSH1 0x4 SLOAD PUSH1 0x40 MLOAD PUSH1 0x1 PUSH1 0x1 PUSH1 0xA0 SHL SUB SWAP1 SWAP2 AND DUP2 MSTORE PUSH1 0x20 SWAP1 RETURN JUMPDEST CALLVALUE PUSH2 0x2F8 JUMPI PUSH1 0x0 CALLDATASIZE PUSH1 0x3 NOT ADD SLT PUSH2 0x2F8 JUMPI PUSH1 0x20 PUSH1 0xFF PUSH1 0x2 SLOAD AND PUSH1 0x40 MLOAD SWAP1 ISZERO ISZERO DUP2 MSTORE RETURN JUMPDEST PUSH2 0x1930 PUSH2 0x1939 PUSH2 0x18DA CALLDATASIZE PUSH2 0x2ED2 JUMP JUMPDEST SWAP4 SWAP2 PUSH2 0x18E4 PUSH2 0x33EC JUMP JUMPDEST PUSH2 0x18EC PUSH2 0x33CE JUMP JUMPDEST PUSH2 0x18FD PUSH1 0xFF PUSH1 0xA SLOAD PUSH1 0xA8 SHR AND PUSH2 0x336E JUMP JUMPDEST PUSH2 0x190A PUSH1 0x6 SLOAD ISZERO ISZERO PUSH2 0x340F JUMP JUMPDEST PUSH2 0x1915 CALLVALUE ISZERO ISZERO PUSH2 0x3452 JUMP JUMPDEST PUSH2 0x1920 DUP2 ISZERO ISZERO PUSH2 0x3491 JUMP JUMPDEST PUSH2 0x192B DUP3 ISZERO ISZERO PUSH2 0x34E7 JUMP JUMPDEST PUSH2 0x3688 JUMP JUMPDEST SWAP2 DUP3 LT ISZERO PUSH2 0x3544 JUMP JUMPDEST PUSH2 0x1945 CALLVALUE PUSH1 0x5 SLOAD PUSH2 0x3584 JUMP JUMPDEST PUSH1 0x5 SSTORE PUSH2 0x1954 CALLVALUE PUSH1 0x7 SLOAD PUSH2 0x3584 JUMP JUMPDEST PUSH1 0x7 SSTORE PUSH1 0x1 PUSH1 0x1 PUSH1 0x40 SHL SUB DUP2 AND PUSH1 0x7 SIGNEXTEND PUSH1 0x1 DUP1 PUSH1 0xA0 SHL SUB SWAP1 DUP2 PUSH1 0x4 SLOAD AND SWAP2 PUSH2 0x19BC PUSH1 0x40 MLOAD SWAP4 DUP4 DUP6 MSTORE PUSH1 0x20 SWAP5 DUP2 PUSH32 0xB7555D949A897ACB395F95E3F2DF8B700519404826BB13CD6526B756F6A1C907 DUP8 CALLER SWAP4 LOG3 DUP4 PUSH1 0x40 MLOAD SWAP2 PUSH2 0x19B3 DUP4 PUSH2 0x2F22 JUMP JUMPDEST PUSH1 0x0 DUP4 MSTORE PUSH2 0x4480 JUMP JUMPDEST POP SWAP2 SWAP1 PUSH1 0x16 DUP2 SUB PUSH2 0x1BD1 JUMPI POP PUSH1 0x0 DUP1 DUP3 PUSH1 0x4 SLOAD AND PUSH1 0x40 MLOAD DUP7 DUP2 MSTORE CALLER SWAP1 DUP3 PUSH32 0xD9CD850143C0756B15B46EBDC8B4ED7701B66AAED30858EE17A225EB005CCA2E DUP11 ADDRESS SWAP4 LOG4 PUSH1 0x40 MLOAD DUP8 DUP2 ADD SWAP2 PUSH4 0xECA36917 PUSH1 0xE0 SHL DUP4 MSTORE PUSH1 0x24 DUP3 ADD MSTORE ADDRESS PUSH1 0x44 DUP3 ADD MSTORE CALLER PUSH1 0x64 DUP3 ADD MSTORE DUP7 PUSH1 0x84 DUP3 ADD MSTORE PUSH1 0x84 DUP2 MSTORE PUSH2 0x1A33 DUP2 PUSH2 0x2F3D JUMP JUMPDEST MLOAD SWAP1 DUP3 PUSH2 0x167 GAS CALL PUSH2 0x1A43 PUSH2 0x3631 JUMP JUMPDEST SWAP1 ISZERO PUSH2 0x1BC9 JUMPI DUP5 DUP2 DUP1 MLOAD DUP2 ADD SUB SLT PUSH2 0x2F8 JUMPI DUP5 PUSH2 0x1A60 SWAP2 ADD PUSH2 0x4464 JUMP JUMPDEST PUSH1 0x3 SIGNEXTEND PUSH1 0x16 DUP2 SUB PUSH2 0x1B36 JUMPI POP PUSH2 0x1A78 DUP6 PUSH1 0x6 SLOAD PUSH2 0x3584 JUMP JUMPDEST PUSH1 0x6 SSTORE PUSH1 0x4 SLOAD AND SWAP1 DUP2 PUSH32 0xAD91542866F4DA9EBED5A2B1713258F4BF970F84E7B2A0B8AAB2DE28D11FFFFD PUSH1 0x40 MLOAD DUP1 PUSH2 0x1AC5 CALLER SWAP6 DUP9 DUP4 SWAP1 SWAP3 SWAP2 PUSH1 0x20 SWAP1 PUSH1 0x40 DUP4 ADD SWAP5 PUSH1 0x7 SIGNEXTEND DUP4 MSTORE PUSH1 0x7 SIGNEXTEND SWAP2 ADD MSTORE JUMP JUMPDEST SUB SWAP1 LOG3 PUSH1 0x40 MLOAD SWAP2 DUP3 MSTORE PUSH32 0x67325B2F3DE1D8273FC1AEEAF3B161488FC28427430D9F6B341831DEDFC2D633 CALLER SWAP4 ADDRESS SWAP4 LOG4 PUSH1 0x40 DUP1 MLOAD CALLVALUE DUP2 MSTORE PUSH1 0x20 DUP2 ADD SWAP3 SWAP1 SWAP3 MSTORE TIMESTAMP SWAP1 DUP3 ADD MSTORE CALLER SWAP1 PUSH32 0x64B83944E79C3CE8D4C297411DE637C3E102D064677AAC0C163976EBDCD6F50E SWAP1 DUP1 PUSH1 0x60 DUP2 ADD PUSH2 0x1192 JUMP JUMPDEST DUP4 DUP3 PUSH1 0x4 SLOAD AND PUSH32 0xCC975F63304DFDAA80A8ECBFBFC654FD86EA8A7CDB68086A0D883F26AD08E4C1 PUSH1 0x40 MLOAD DUP1 PUSH2 0x1B81 CALLER SWAP7 ADDRESS SWAP7 DUP4 SWAP1 SWAP3 SWAP2 PUSH1 0x20 SWAP1 PUSH1 0x40 DUP4 ADD SWAP5 PUSH1 0x7 SIGNEXTEND DUP4 MSTORE PUSH1 0x3 SIGNEXTEND SWAP2 ADD MSTORE JUMP JUMPDEST SUB SWAP1 LOG4 PUSH1 0x40 MLOAD PUSH3 0x461BCD PUSH1 0xE5 SHL DUP2 MSTORE PUSH1 0x20 PUSH1 0x4 DUP3 ADD MSTORE PUSH1 0x19 PUSH1 0x24 DUP3 ADD MSTORE PUSH32 0x48545320746F6B656E207472616E73666572206661696C656400000000000000 PUSH1 0x44 DUP3 ADD MSTORE PUSH1 0x64 SWAP1 REVERT JUMPDEST POP PUSH1 0x15 PUSH2 0x1A60 JUMP JUMPDEST PUSH1 0x4 SLOAD PUSH1 0x40 DUP1 MLOAD PUSH1 0x7 DUP8 SWAP1 SIGNEXTEND DUP2 MSTORE PUSH1 0x3 SWAP4 SWAP1 SWAP4 SIGNEXTEND PUSH1 0x20 DUP5 ADD MSTORE CALLER SWAP3 SWAP2 DUP5 AND SWAP2 PUSH32 0x3F5E21A75677E84382C9F010B9F5780B534BB2A966C378FA090D12BA52CAA08 SWAP2 DUP2 SWAP1 DUP2 ADD JUMPDEST SUB SWAP1 LOG3 PUSH1 0x40 MLOAD PUSH3 0x461BCD PUSH1 0xE5 SHL DUP2 MSTORE PUSH1 0x20 PUSH1 0x4 DUP3 ADD MSTORE PUSH1 0x18 PUSH1 0x24 DUP3 ADD MSTORE PUSH32 0x48545320746F6B656E206D696E74696E67206661696C65640000000000000000 PUSH1 0x44 DUP3 ADD MSTORE PUSH1 0x64 SWAP1 REVERT JUMPDEST PUSH1 0x40 CALLDATASIZE PUSH1 0x3 NOT ADD SLT PUSH2 0x2F8 JUMPI PUSH1 0x4 CALLDATALOAD PUSH1 0x1 PUSH1 0x1 PUSH1 0x40 SHL SUB DUP2 GT PUSH2 0x2F8 JUMPI PUSH2 0x1C8A SWAP1 CALLDATASIZE SWAP1 PUSH1 0x4 ADD PUSH2 0x3001 JUMP JUMPDEST PUSH1 0x24 CALLDATALOAD PUSH1 0x1 PUSH1 0x1 PUSH1 0x40 SHL SUB DUP2 GT PUSH2 0x2F8 JUMPI PUSH2 0x1CA9 SWAP1 CALLDATASIZE SWAP1 PUSH1 0x4 ADD PUSH2 0x3001 JUMP JUMPDEST PUSH2 0x1CB1 PUSH2 0x3218 JUMP JUMPDEST PUSH1 0xFF PUSH1 0xA SLOAD PUSH1 0xA8 SHR AND PUSH2 0x23A6 JUMPI DUP2 MLOAD ISZERO PUSH2 0x236B JUMPI DUP1 MLOAD ISZERO PUSH2 0x232E JUMPI PUSH2 0x1CD4 PUSH2 0x3244 JUMP JUMPDEST SWAP2 DUP1 DUP4 MSTORE DUP2 PUSH1 0x20 DUP5 ADD MSTORE ADDRESS PUSH1 0x40 DUP5 ADD MSTORE PUSH1 0x40 MLOAD PUSH2 0x1CF0 DUP2 PUSH2 0x2F07 JUMP JUMPDEST PUSH1 0x1 DUP2 MSTORE PUSH1 0x0 JUMPDEST PUSH1 0x20 DUP2 LT PUSH2 0x2317 JUMPI POP PUSH1 0xE0 DUP5 ADD MSTORE PUSH2 0x1D20 PUSH2 0x1D11 ADDRESS PUSH2 0x4609 JUMP JUMPDEST PUSH1 0xE0 DUP6 ADD MLOAD SWAP1 PUSH2 0x9FD DUP3 PUSH2 0x3337 JUMP JUMPDEST POP PUSH2 0x100 DUP4 ADD MLOAD DUP1 MLOAD PUSH1 0x7 SIGNEXTEND ISZERO DUP1 PUSH2 0x2308 JUMPI JUMPDEST PUSH2 0x22F9 JUMPI JUMPDEST POP PUSH1 0x40 MLOAD PUSH4 0xFB65BF3 PUSH1 0xE0 SHL PUSH1 0x20 DUP3 ADD MSTORE PUSH1 0x60 PUSH1 0x24 DUP3 ADD MSTORE PUSH2 0x1DAD PUSH2 0x1D84 PUSH2 0x1D6E DUP7 MLOAD PUSH2 0x160 PUSH1 0x84 DUP7 ADD MSTORE PUSH2 0x1E4 DUP6 ADD SWAP1 PUSH2 0x3042 JUMP JUMPDEST PUSH1 0x20 DUP8 ADD MLOAD DUP5 DUP3 SUB PUSH1 0x83 NOT ADD PUSH1 0xA4 DUP7 ADD MSTORE PUSH2 0x3042 JUMP JUMPDEST PUSH1 0x40 DUP7 ADD MLOAD PUSH1 0x1 PUSH1 0x1 PUSH1 0xA0 SHL SUB AND PUSH1 0xC4 DUP5 ADD MSTORE PUSH1 0x60 DUP7 ADD MLOAD DUP4 DUP3 SUB PUSH1 0x83 NOT ADD PUSH1 0xE4 DUP6 ADD MSTORE PUSH2 0x3042 JUMP JUMPDEST SWAP4 PUSH1 0x80 DUP2 ADD MLOAD ISZERO ISZERO PUSH2 0x104 DUP4 ADD MSTORE PUSH1 0xA0 DUP2 ADD MLOAD PUSH1 0x7 SIGNEXTEND PUSH2 0x124 DUP4 ADD MSTORE PUSH1 0xC0 DUP2 ADD MLOAD ISZERO ISZERO PUSH2 0x144 DUP4 ADD MSTORE PUSH1 0xE0 DUP2 ADD MLOAD SWAP1 PUSH1 0x83 NOT DUP4 DUP8 SUB ADD PUSH2 0x164 DUP5 ADD MSTORE DUP2 MLOAD DUP1 DUP8 MSTORE PUSH1 0x20 DUP8 ADD SWAP1 PUSH1 0x20 DUP1 DUP3 PUSH1 0x5 SHL DUP11 ADD ADD SWAP5 ADD SWAP2 PUSH1 0x0 SWAP1 JUMPDEST DUP3 DUP3 LT PUSH2 0x2281 JUMPI DUP9 DUP9 PUSH1 0x0 DUP1 DUP11 PUSH2 0x1E62 DUP2 DUP13 PUSH1 0x40 PUSH2 0x100 DUP15 ADD MLOAD DUP1 MLOAD PUSH1 0x7 SIGNEXTEND PUSH2 0x184 DUP6 ADD MSTORE PUSH1 0x1 DUP1 PUSH1 0xA0 SHL SUB PUSH1 0x20 DUP3 ADD MLOAD AND PUSH2 0x1A4 DUP6 ADD MSTORE ADD MLOAD PUSH1 0x7 SIGNEXTEND PUSH2 0x1C4 DUP4 ADD MSTORE DUP5 PUSH1 0x44 DUP4 ADD MSTORE PUSH1 0x6 PUSH1 0x64 DUP4 ADD MSTORE SUB PUSH1 0x1F NOT DUP2 ADD DUP4 MSTORE DUP3 PUSH2 0x2F8E JUMP JUMPDEST PUSH1 0x20 DUP2 MLOAD SWAP2 ADD CALLVALUE PUSH2 0x167 GAS CALL SWAP2 PUSH2 0x1E77 PUSH2 0x3631 JUMP JUMPDEST SWAP3 ISZERO PUSH2 0x2276 JUMPI PUSH1 0x40 DUP4 DUP1 MLOAD DUP2 ADD SUB SLT PUSH2 0x2F8 JUMPI PUSH1 0x40 PUSH2 0x1E98 PUSH1 0x20 DUP6 ADD PUSH2 0x4464 JUMP JUMPDEST SWAP4 ADD MLOAD PUSH1 0x1 PUSH1 0x1 PUSH1 0xA0 SHL SUB DUP2 AND SWAP4 SWAP1 DUP5 SWAP1 SUB PUSH2 0x2F8 JUMPI PUSH1 0x3 SIGNEXTEND JUMPDEST PUSH1 0x3 SIGNEXTEND PUSH1 0x16 DUP2 SUB PUSH2 0xC7D JUMPI POP PUSH1 0x4 DUP1 SLOAD PUSH1 0x1 PUSH1 0x1 PUSH1 0xA0 SHL SUB NOT AND PUSH1 0x1 PUSH1 0x1 PUSH1 0xA0 SHL SUB DUP6 AND OR SWAP1 SSTORE PUSH1 0x40 MLOAD PUSH2 0x1EE5 DUP2 PUSH2 0x2EEC JUMP JUMPDEST DUP3 DUP2 MSTORE PUSH1 0x20 DUP2 ADD DUP3 SWAP1 MSTORE PUSH1 0x6 PUSH1 0x40 DUP3 ADD MSTORE PUSH1 0x1 PUSH1 0x1 PUSH1 0xA0 SHL SUB DUP5 AND PUSH1 0x60 DUP3 ADD MSTORE PUSH1 0x1 PUSH1 0x80 DUP3 ADD MSTORE DUP3 MLOAD PUSH1 0x1 PUSH1 0x1 PUSH1 0x40 SHL SUB DUP2 GT PUSH2 0x2179 JUMPI PUSH2 0x1F27 PUSH1 0x8 SLOAD PUSH2 0x3067 JUMP JUMPDEST PUSH1 0x1F DUP2 GT PUSH2 0x220D JUMPI JUMPDEST POP DUP1 PUSH1 0x20 PUSH1 0x1F DUP3 GT PUSH1 0x1 EQ PUSH2 0x219A JUMPI PUSH1 0x0 SWAP2 PUSH2 0x218F JUMPI JUMPDEST POP DUP2 PUSH1 0x1 SHL SWAP2 PUSH1 0x0 NOT SWAP1 PUSH1 0x3 SHL SHR NOT AND OR PUSH1 0x8 SSTORE JUMPDEST PUSH1 0x20 DUP2 ADD MLOAD DUP1 MLOAD SWAP1 PUSH1 0x1 PUSH1 0x1 PUSH1 0x40 SHL SUB DUP3 GT PUSH2 0x2179 JUMPI PUSH2 0x1F7D PUSH1 0x9 SLOAD PUSH2 0x3067 JUMP JUMPDEST PUSH1 0x1F DUP2 GT PUSH2 0x2110 JUMPI JUMPDEST POP PUSH1 0x20 SWAP1 PUSH1 0x1F DUP4 GT PUSH1 0x1 EQ PUSH2 0x2072 JUMPI SWAP3 DUP3 PUSH2 0x2049 SWAP4 PUSH2 0x203B SWAP7 SWAP4 PUSH32 0x8FB1FFD0AB3F6379154037519FF749B01E1FA060A331F5394175F393C3DB596B SWAP9 SWAP7 PUSH1 0x0 SWAP3 PUSH2 0x2067 JUMPI JUMPDEST POP POP DUP2 PUSH1 0x1 SHL SWAP2 PUSH1 0x0 NOT SWAP1 PUSH1 0x3 SHL SHR NOT AND OR PUSH1 0x9 SSTORE JUMPDEST PUSH1 0xFF PUSH1 0x40 DUP3 ADD MLOAD AND SWAP1 PUSH1 0xA SLOAD SWAP2 PUSH2 0x100 PUSH1 0x1 PUSH1 0xA8 SHL SUB PUSH1 0x60 DUP4 ADD MLOAD PUSH1 0x8 SHL AND SWAP2 PUSH1 0x80 PUSH1 0xFF PUSH1 0xA8 SHL SWAP2 ADD MLOAD ISZERO ISZERO PUSH1 0xA8 SHL AND SWAP3 PUSH10 0xFFFFFFFFFFFFFFFFFFFF PUSH1 0xB0 SHL AND OR OR OR PUSH1 0xA SSTORE PUSH1 0x40 MLOAD SWAP4 DUP5 SWAP4 PUSH1 0x80 DUP6 MSTORE PUSH1 0x80 DUP6 ADD SWAP1 PUSH2 0x3042 JUMP JUMPDEST SWAP1 DUP4 DUP3 SUB PUSH1 0x20 DUP6 ADD MSTORE PUSH2 0x3042 JUMP JUMPDEST PUSH1 0x6 PUSH1 0x40 DUP4 ADD MSTORE ADDRESS PUSH1 0x60 DUP4 ADD MSTORE PUSH1 0x1 PUSH1 0x1 PUSH1 0xA0 SHL SUB SWAP1 SWAP5 AND SWAP4 SUB SWAP1 LOG2 STOP JUMPDEST ADD MLOAD SWAP1 POP DUP10 DUP1 PUSH2 0x1FCB JUMP JUMPDEST SWAP1 PUSH1 0x1F NOT DUP4 AND SWAP2 PUSH1 0x9 PUSH1 0x0 MSTORE PUSH1 0x0 DUP1 MLOAD PUSH1 0x20 PUSH2 0x468F DUP4 CODECOPY DUP2 MLOAD SWAP2 MSTORE SWAP3 PUSH1 0x0 JUMPDEST DUP2 DUP2 LT PUSH2 0x20F8 JUMPI POP SWAP4 PUSH2 0x203B SWAP7 SWAP4 PUSH32 0x8FB1FFD0AB3F6379154037519FF749B01E1FA060A331F5394175F393C3DB596B SWAP9 SWAP7 SWAP4 PUSH1 0x1 SWAP4 DUP4 PUSH2 0x2049 SWAP9 LT PUSH2 0x20DF JUMPI JUMPDEST POP POP POP DUP2 SHL ADD PUSH1 0x9 SSTORE PUSH2 0x1FE1 JUMP JUMPDEST ADD MLOAD PUSH1 0x0 NOT PUSH1 0xF8 DUP5 PUSH1 0x3 SHL AND SHR NOT AND SWAP1 SSTORE DUP10 DUP1 DUP1 PUSH2 0x20D1 JUMP JUMPDEST SWAP3 SWAP4 PUSH1 0x20 PUSH1 0x1 DUP2 SWAP3 DUP8 DUP7 ADD MLOAD DUP2 SSTORE ADD SWAP6 ADD SWAP4 ADD PUSH2 0x2091 JUMP JUMPDEST PUSH1 0x9 PUSH1 0x0 MSTORE PUSH1 0x1F DUP4 ADD PUSH1 0x5 SHR PUSH1 0x0 DUP1 MLOAD PUSH1 0x20 PUSH2 0x468F DUP4 CODECOPY DUP2 MLOAD SWAP2 MSTORE ADD PUSH1 0x20 DUP5 LT PUSH2 0x2164 JUMPI JUMPDEST PUSH1 0x1F DUP3 ADD PUSH1 0x5 SHR PUSH1 0x0 DUP1 MLOAD PUSH1 0x20 PUSH2 0x468F DUP4 CODECOPY DUP2 MLOAD SWAP2 MSTORE ADD DUP2 LT PUSH2 0x2158 JUMPI POP PUSH2 0x1F86 JUMP JUMPDEST PUSH1 0x0 DUP2 SSTORE PUSH1 0x1 ADD PUSH2 0x2135 JUMP JUMPDEST POP PUSH1 0x0 DUP1 MLOAD PUSH1 0x20 PUSH2 0x468F DUP4 CODECOPY DUP2 MLOAD SWAP2 MSTORE PUSH2 0x2135 JUMP JUMPDEST PUSH4 0x4E487B71 PUSH1 0xE0 SHL PUSH1 0x0 MSTORE PUSH1 0x41 PUSH1 0x4 MSTORE PUSH1 0x24 PUSH1 0x0 REVERT JUMPDEST SWAP1 POP DUP5 ADD MLOAD DUP7 PUSH2 0x1F47 JUMP JUMPDEST SWAP2 POP PUSH1 0x8 PUSH1 0x0 MSTORE PUSH1 0x0 DUP1 MLOAD PUSH1 0x20 PUSH2 0x466F DUP4 CODECOPY DUP2 MLOAD SWAP2 MSTORE PUSH1 0x0 SWAP3 JUMPDEST PUSH1 0x1F NOT DUP4 AND DUP5 LT PUSH2 0x21F5 JUMPI PUSH1 0x1 SWAP4 POP DUP3 PUSH1 0x1F NOT DUP2 AND LT PUSH2 0x21DC JUMPI JUMPDEST POP POP DUP2 SHL ADD PUSH1 0x8 SSTORE PUSH2 0x1F5C JUMP JUMPDEST DUP7 ADD MLOAD PUSH1 0x0 NOT PUSH1 0xF8 DUP5 PUSH1 0x3 SHL AND SHR NOT AND SWAP1 SSTORE DUP7 DUP1 PUSH2 0x21CF JUMP JUMPDEST DUP7 DUP2 ADD MLOAD DUP3 SSTORE PUSH1 0x20 SWAP4 DUP5 ADD SWAP4 PUSH1 0x1 SWAP1 SWAP3 ADD SWAP2 ADD PUSH2 0x21B4 JUMP JUMPDEST PUSH1 0x8 PUSH1 0x0 MSTORE PUSH1 0x1F DUP3 ADD PUSH1 0x5 SHR PUSH1 0x0 DUP1 MLOAD PUSH1 0x20 PUSH2 0x466F DUP4 CODECOPY DUP2 MLOAD SWAP2 MSTORE ADD PUSH1 0x20 DUP4 LT PUSH2 0x2261 JUMPI JUMPDEST PUSH1 0x1F DUP3 ADD PUSH1 0x5 SHR PUSH1 0x0 DUP1 MLOAD PUSH1 0x20 PUSH2 0x466F DUP4 CODECOPY DUP2 MLOAD SWAP2 MSTORE ADD DUP2 LT PUSH2 0x2255 JUMPI POP PUSH2 0x1F30 JUMP JUMPDEST PUSH1 0x0 DUP2 SSTORE PUSH1 0x1 ADD PUSH2 0x2232 JUMP JUMPDEST POP PUSH1 0x0 DUP1 MLOAD PUSH1 0x20 PUSH2 0x466F DUP4 CODECOPY DUP2 MLOAD SWAP2 MSTORE PUSH2 0x2232 JUMP JUMPDEST PUSH1 0x0 SWAP3 POP PUSH1 0x15 PUSH2 0x1EB2 JUMP JUMPDEST SWAP1 SWAP2 SWAP3 SWAP5 PUSH1 0x20 DUP1 PUSH1 0x1 SWAP3 PUSH1 0x1F NOT DUP14 DUP3 SUB ADD DUP6 MSTORE DUP2 DUP10 MLOAD DUP1 MLOAD DUP4 MSTORE ADD MLOAD SWAP1 PUSH1 0x40 DUP4 DUP3 ADD MSTORE DUP2 MLOAD ISZERO ISZERO PUSH1 0x40 DUP3 ADD MSTORE DUP5 DUP1 PUSH1 0xA0 SHL SUB DUP4 DUP4 ADD MLOAD AND PUSH1 0x60 DUP3 ADD MSTORE PUSH1 0xC0 PUSH2 0x22DB PUSH2 0xD37 PUSH1 0x40 DUP6 ADD MLOAD PUSH1 0xA0 PUSH1 0x80 DUP7 ADD MSTORE PUSH1 0xE0 DUP6 ADD SWAP1 PUSH2 0x3042 JUMP JUMPDEST SWAP3 PUSH1 0x80 DUP8 DUP1 PUSH1 0xA0 SHL SUB SWAP2 ADD MLOAD AND SWAP2 ADD MSTORE SWAP8 ADD SWAP3 ADD SWAP3 ADD SWAP1 SWAP3 SWAP2 PUSH2 0x1E04 JUMP JUMPDEST PUSH1 0x40 PUSH3 0x76A700 SWAP2 ADD MSTORE DUP4 PUSH2 0x1D38 JUMP JUMPDEST POP PUSH1 0x40 DUP2 ADD MLOAD PUSH1 0x7 SIGNEXTEND ISZERO PUSH2 0x1D33 JUMP JUMPDEST PUSH1 0x20 SWAP1 PUSH2 0x2322 PUSH2 0x3316 JUMP JUMPDEST DUP3 DUP3 DUP6 ADD ADD MSTORE ADD PUSH2 0x1CF7 JUMP JUMPDEST PUSH1 0x40 MLOAD PUSH3 0x461BCD PUSH1 0xE5 SHL DUP2 MSTORE PUSH1 0x20 PUSH1 0x4 DUP3 ADD MSTORE PUSH1 0x15 PUSH1 0x24 DUP3 ADD MSTORE PUSH21 0x151BDAD95B881CDE5B589BDB081C995C5D5A5C9959 PUSH1 0x5A SHL PUSH1 0x44 DUP3 ADD MSTORE PUSH1 0x64 SWAP1 REVERT JUMPDEST PUSH1 0x40 MLOAD PUSH3 0x461BCD PUSH1 0xE5 SHL DUP2 MSTORE PUSH1 0x20 PUSH1 0x4 DUP3 ADD MSTORE PUSH1 0x13 PUSH1 0x24 DUP3 ADD MSTORE PUSH19 0x151BDAD95B881B985B59481C995C5D5A5C9959 PUSH1 0x6A SHL PUSH1 0x44 DUP3 ADD MSTORE PUSH1 0x64 SWAP1 REVERT JUMPDEST PUSH1 0x40 MLOAD PUSH3 0x461BCD PUSH1 0xE5 SHL DUP2 MSTORE PUSH1 0x20 PUSH1 0x4 DUP3 ADD MSTORE PUSH1 0x15 PUSH1 0x24 DUP3 ADD MSTORE PUSH21 0x151BDAD95B88185B1C9958591E4818DC99585D1959 PUSH1 0x5A SHL PUSH1 0x44 DUP3 ADD MSTORE PUSH1 0x64 SWAP1 REVERT JUMPDEST CALLVALUE PUSH2 0x2F8 JUMPI PUSH1 0x20 CALLDATASIZE PUSH1 0x3 NOT ADD SLT PUSH2 0x2F8 JUMPI PUSH1 0x4 CALLDATALOAD PUSH2 0x23FF PUSH2 0x378C JUMP JUMPDEST POP PUSH2 0x240D PUSH1 0x11 SLOAD DUP3 LT PUSH2 0x4426 JUMP JUMPDEST PUSH1 0x0 MSTORE PUSH1 0xF PUSH1 0x20 MSTORE PUSH1 0xA0 PUSH1 0x40 PUSH1 0x0 KECCAK256 PUSH1 0x40 MLOAD PUSH2 0x2428 DUP2 PUSH2 0x2EEC JUMP JUMPDEST DUP2 SLOAD SWAP2 DUP3 DUP3 MSTORE PUSH1 0x1 DUP2 ADD SLOAD SWAP1 PUSH1 0x20 DUP4 ADD SWAP2 DUP3 MSTORE PUSH1 0x1 DUP1 DUP7 SHL SUB DUP1 SWAP3 DUP2 PUSH1 0x2 DUP5 ADD SLOAD AND SWAP1 PUSH1 0x40 DUP7 ADD SWAP2 DUP3 MSTORE PUSH1 0x80 PUSH1 0x4 DUP5 PUSH1 0x3 DUP8 ADD SLOAD AND SWAP6 PUSH1 0x60 DUP10 ADD SWAP7 DUP8 MSTORE ADD SLOAD SWAP7 ADD SWAP6 DUP7 MSTORE PUSH1 0x40 MLOAD SWAP7 DUP8 MSTORE MLOAD PUSH1 0x20 DUP8 ADD MSTORE MLOAD AND PUSH1 0x40 DUP6 ADD MSTORE MLOAD AND PUSH1 0x60 DUP4 ADD MSTORE MLOAD PUSH1 0x80 DUP3 ADD MSTORE RETURN JUMPDEST CALLVALUE PUSH2 0x2F8 JUMPI PUSH1 0x20 CALLDATASIZE PUSH1 0x3 NOT ADD SLT PUSH2 0x2F8 JUMPI PUSH1 0x20 PUSH2 0xE41 PUSH1 0x4 CALLDATALOAD PUSH2 0x3661 JUMP JUMPDEST PUSH2 0x24C4 PUSH2 0x24B8 CALLDATASIZE PUSH2 0x2ED2 JUMP JUMPDEST SWAP1 PUSH2 0x18E4 SWAP4 SWAP3 SWAP4 PUSH2 0x33EC JUMP JUMPDEST SWAP1 PUSH2 0x24D5 PUSH3 0xF4240 SWAP2 DUP3 LT ISZERO PUSH2 0x3544 JUMP JUMPDEST PUSH2 0x24E1 CALLVALUE PUSH1 0x5 SLOAD PUSH2 0x3584 JUMP JUMPDEST PUSH1 0x5 SSTORE PUSH2 0x24F0 CALLVALUE PUSH1 0x7 SLOAD PUSH2 0x3584 JUMP JUMPDEST PUSH1 0x7 SSTORE PUSH1 0x1 DUP1 PUSH1 0xA0 SHL SUB DUP1 PUSH1 0x4 SLOAD AND PUSH1 0x40 MLOAD SWAP4 DUP4 DUP6 MSTORE PUSH1 0x20 SWAP5 DUP3 PUSH32 0xB7555D949A897ACB395F95E3F2DF8B700519404826BB13CD6526B756F6A1C907 DUP8 CALLER SWAP4 LOG3 PUSH1 0x40 MLOAD PUSH2 0x253B DUP2 PUSH2 0x2F22 JUMP JUMPDEST PUSH1 0x0 DUP2 MSTORE PUSH1 0x40 MLOAD SWAP1 DUP7 DUP3 ADD SWAP4 PUSH4 0x707A02CD PUSH1 0xE1 SHL DUP6 MSTORE PUSH1 0x84 DUP4 ADD SWAP1 PUSH1 0x24 DUP5 ADD MSTORE DUP7 PUSH1 0x44 DUP5 ADD MSTORE PUSH1 0x60 PUSH1 0x64 DUP5 ADD MSTORE DUP2 MLOAD DUP1 SWAP2 MSTORE PUSH1 0xA4 DUP4 ADD SWAP1 DUP9 PUSH1 0xA4 DUP3 PUSH1 0x5 SHL DUP7 ADD ADD SWAP4 ADD SWAP2 PUSH1 0x0 SWAP1 JUMPDEST DUP11 DUP4 DUP4 LT PUSH2 0x290E JUMPI POP POP POP POP POP DUP2 PUSH2 0x25A7 PUSH1 0x0 SWAP4 DUP5 SWAP4 SUB PUSH1 0x1F NOT DUP2 ADD DUP4 MSTORE DUP3 PUSH2 0x2F8E JUMP JUMPDEST MLOAD PUSH2 0x167 SWAP5 DUP3 DUP7 GAS CALL SWAP2 PUSH2 0x25B9 PUSH2 0x3631 JUMP JUMPDEST SWAP3 ISZERO PUSH2 0x28F3 JUMPI DUP3 MLOAD DUP4 ADD PUSH1 0x60 DUP5 DUP9 DUP4 ADD SWAP3 SUB SLT PUSH2 0x2F8 JUMPI PUSH2 0x25DB DUP8 DUP6 ADD PUSH2 0x4464 JUMP JUMPDEST SWAP1 PUSH2 0x25E8 PUSH1 0x40 DUP7 ADD PUSH2 0x4472 JUMP JUMPDEST SWAP5 PUSH1 0x60 DUP2 ADD MLOAD SWAP1 PUSH1 0x1 PUSH1 0x1 PUSH1 0x40 SHL SUB DUP3 GT PUSH2 0x2F8 JUMPI ADD DUP2 PUSH1 0x3F DUP3 ADD SLT ISZERO PUSH2 0x2F8 JUMPI DUP9 DUP2 ADD MLOAD PUSH1 0x40 DUP11 PUSH2 0x2619 DUP4 PUSH2 0x32D3 JUMP JUMPDEST PUSH2 0x2625 DUP4 MLOAD SWAP2 DUP3 PUSH2 0x2F8E JUMP JUMPDEST DUP4 DUP2 MSTORE ADD SWAP2 PUSH1 0x5 SHL DUP4 ADD ADD SWAP3 DUP4 GT PUSH2 0x2F8 JUMPI PUSH1 0x40 DUP11 SWAP3 ADD SWAP1 JUMPDEST DUP4 DUP3 LT PUSH2 0x28DC JUMPI POP POP POP POP JUMPDEST PUSH1 0x3 SIGNEXTEND PUSH1 0x16 DUP2 SUB PUSH2 0x2894 JUMPI POP PUSH1 0x0 DUP1 SWAP2 DUP6 PUSH1 0x4 SLOAD AND PUSH1 0x40 MLOAD DUP9 DUP2 MSTORE CALLER SWAP1 DUP3 PUSH32 0xD9CD850143C0756B15B46EBDC8B4ED7701B66AAED30858EE17A225EB005CCA2E DUP13 ADDRESS SWAP4 LOG4 DUP3 PUSH1 0x40 MLOAD DUP11 DUP2 ADD SWAP3 PUSH4 0xECA36917 PUSH1 0xE0 SHL DUP5 MSTORE PUSH1 0x24 DUP3 ADD MSTORE ADDRESS PUSH1 0x44 DUP3 ADD MSTORE CALLER PUSH1 0x64 DUP3 ADD MSTORE DUP10 PUSH1 0x84 DUP3 ADD MSTORE PUSH1 0x84 DUP2 MSTORE PUSH2 0x26C3 DUP2 PUSH2 0x2F3D JUMP JUMPDEST MLOAD SWAP3 GAS CALL PUSH2 0x26CF PUSH2 0x3631 JUMP JUMPDEST SWAP1 ISZERO PUSH2 0x288C JUMPI DUP6 DUP2 DUP1 MLOAD DUP2 ADD SUB SLT PUSH2 0x2F8 JUMPI DUP6 PUSH2 0x26EC SWAP2 ADD PUSH2 0x4464 JUMP JUMPDEST PUSH1 0x3 SIGNEXTEND PUSH1 0x16 DUP2 SUB PUSH2 0x2840 JUMPI POP PUSH1 0x6 SLOAD SWAP2 DUP5 DUP4 ADD DUP1 SWAP4 GT PUSH2 0x63D JUMPI PUSH1 0x4 SWAP3 PUSH1 0x6 SSTORE DUP4 DUP4 SLOAD AND SWAP1 PUSH1 0x40 MLOAD SWAP1 DUP7 DUP3 MSTORE PUSH1 0x7 SIGNEXTEND DUP8 DUP3 ADD MSTORE DUP2 PUSH32 0xAD91542866F4DA9EBED5A2B1713258F4BF970F84E7B2A0B8AAB2DE28D11FFFFD PUSH1 0x40 CALLER SWAP4 LOG3 PUSH1 0x40 MLOAD DUP6 DUP2 MSTORE CALLER SWAP2 PUSH32 0x67325B2F3DE1D8273FC1AEEAF3B161488FC28427430D9F6B341831DEDFC2D633 DUP9 ADDRESS SWAP4 LOG4 PUSH1 0xD SLOAD SWAP1 PUSH1 0x40 MLOAD SWAP4 PUSH2 0x2784 DUP6 PUSH2 0x2EEC JUMP JUMPDEST CALLVALUE DUP6 MSTORE DUP7 DUP6 ADD SWAP2 TIMESTAMP DUP4 MSTORE PUSH1 0x40 DUP7 ADD SWAP1 DUP2 MSTORE PUSH1 0x60 DUP7 ADD SWAP3 CALLER DUP5 MSTORE PUSH1 0x80 DUP8 ADD SWAP5 DUP1 DUP7 MSTORE PUSH1 0x0 MSTORE PUSH1 0xB DUP10 MSTORE PUSH1 0x40 PUSH1 0x0 KECCAK256 SWAP7 MLOAD DUP8 SSTORE MLOAD PUSH1 0x1 DUP8 ADD SSTORE MLOAD PUSH1 0x2 DUP7 ADD SSTORE PUSH1 0x3 DUP6 ADD SWAP2 MLOAD AND PUSH1 0x1 PUSH1 0x1 PUSH1 0x60 SHL SUB PUSH1 0xA0 SHL DUP3 SLOAD AND OR SWAP1 SSTORE MLOAD SWAP2 ADD SSTORE CALLER PUSH1 0x0 MSTORE PUSH1 0xC DUP3 MSTORE PUSH2 0x27F6 PUSH1 0x40 PUSH1 0x0 KECCAK256 PUSH1 0xD SLOAD SWAP1 PUSH2 0x3591 JUMP JUMPDEST PUSH2 0x2801 PUSH1 0xD SLOAD PUSH2 0x35CB JUMP JUMPDEST PUSH1 0xD SSTORE PUSH1 0x40 MLOAD SWAP2 CALLVALUE DUP4 MSTORE DUP3 ADD MSTORE TIMESTAMP PUSH1 0x40 DUP3 ADD MSTORE PUSH32 0x64B83944E79C3CE8D4C297411DE637C3E102D064677AAC0C163976EBDCD6F50E PUSH1 0x60 CALLER SWAP3 LOG2 PUSH1 0x1 DUP1 SSTORE STOP JUMPDEST DUP4 PUSH1 0x4 SLOAD AND SWAP1 PUSH1 0x40 MLOAD SWAP2 PUSH32 0xCC975F63304DFDAA80A8ECBFBFC654FD86EA8A7CDB68086A0D883F26AD08E4C1 CALLER SWAP4 DUP1 PUSH2 0x1B81 ADDRESS SWAP6 DUP3 SWAP2 SWAP1 SWAP2 PUSH1 0x20 PUSH1 0x40 DUP3 ADD SWAP4 PUSH3 0xF4240 DUP4 MSTORE PUSH1 0x3 SIGNEXTEND SWAP2 ADD MSTORE JUMP JUMPDEST POP PUSH1 0x15 PUSH2 0x26EC JUMP JUMPDEST DUP5 PUSH1 0x4 SLOAD AND PUSH32 0x3F5E21A75677E84382C9F010B9F5780B534BB2A966C378FA090D12BA52CAA08 PUSH1 0x40 MLOAD DUP1 PUSH2 0x1C17 CALLER SWAP6 DUP3 SWAP2 SWAP1 SWAP2 PUSH1 0x20 PUSH1 0x40 DUP3 ADD SWAP4 PUSH3 0xF4240 DUP4 MSTORE PUSH1 0x3 SIGNEXTEND SWAP2 ADD MSTORE JUMP JUMPDEST DUP3 DUP1 SWAP2 PUSH2 0x28E8 DUP5 PUSH2 0x4472 JUMP JUMPDEST DUP2 MSTORE ADD SWAP2 ADD SWAP1 PUSH2 0x263E JUMP JUMPDEST SWAP2 POP PUSH1 0x0 PUSH1 0x40 MLOAD PUSH2 0x2903 DUP2 PUSH2 0x2F22 JUMP JUMPDEST MSTORE PUSH1 0x0 SWAP2 PUSH1 0x15 PUSH2 0x264A JUMP JUMPDEST DUP1 PUSH2 0x2929 PUSH1 0x1 SWAP4 SWAP5 SWAP6 SWAP7 SWAP8 PUSH1 0xA3 NOT DUP11 DUP3 SUB ADD DUP7 MSTORE DUP9 MLOAD PUSH2 0x3042 JUMP JUMPDEST SWAP7 ADD SWAP3 ADD SWAP3 ADD SWAP1 SWAP3 SWAP2 PUSH2 0x2583 JUMP JUMPDEST CALLVALUE PUSH2 0x2F8 JUMPI PUSH1 0x0 CALLDATASIZE PUSH1 0x3 NOT ADD SLT PUSH2 0x2F8 JUMPI PUSH2 0x2950 PUSH2 0x3218 JUMP JUMPDEST PUSH2 0x2958 PUSH2 0x43C2 JUMP JUMPDEST PUSH1 0xFF NOT PUSH1 0x2 SLOAD AND PUSH1 0x2 SSTORE PUSH32 0x5DB9EE0A495BF2E6FF9C91A7834C1BA4FDD244A5E8AA4E537BD38AEAE4B073AA PUSH1 0x20 PUSH1 0x40 MLOAD CALLER DUP2 MSTORE LOG1 STOP JUMPDEST CALLVALUE PUSH2 0x2F8 JUMPI PUSH1 0x20 CALLDATASIZE PUSH1 0x3 NOT ADD SLT PUSH2 0x2F8 JUMPI PUSH1 0x4 CALLDATALOAD PUSH1 0x0 MSTORE PUSH1 0xF PUSH1 0x20 MSTORE PUSH1 0xA0 PUSH1 0x40 PUSH1 0x0 KECCAK256 DUP1 SLOAD SWAP1 PUSH1 0x1 DUP2 ADD SLOAD SWAP1 PUSH1 0x1 DUP1 DUP6 SHL SUB PUSH1 0x4 DUP2 PUSH1 0x2 DUP5 ADD SLOAD AND SWAP2 PUSH1 0x3 DUP5 ADD SLOAD AND SWAP3 ADD SLOAD SWAP3 PUSH1 0x40 MLOAD SWAP5 DUP6 MSTORE PUSH1 0x20 DUP6 ADD MSTORE PUSH1 0x40 DUP5 ADD MSTORE PUSH1 0x60 DUP4 ADD MSTORE PUSH1 0x80 DUP3 ADD MSTORE RETURN JUMPDEST CALLVALUE PUSH2 0x2F8 JUMPI PUSH1 0x20 CALLDATASIZE PUSH1 0x3 NOT ADD SLT PUSH2 0x2F8 JUMPI PUSH1 0x4 CALLDATALOAD PUSH1 0x0 MSTORE PUSH1 0xB PUSH1 0x20 MSTORE PUSH1 0xA0 PUSH1 0x40 PUSH1 0x0 KECCAK256 DUP1 SLOAD SWAP1 PUSH1 0x1 DUP2 ADD SLOAD SWAP1 PUSH1 0x2 DUP2 ADD SLOAD PUSH1 0x4 PUSH1 0x1 DUP1 DUP8 SHL SUB PUSH1 0x3 DUP5 ADD SLOAD AND SWAP3 ADD SLOAD SWAP3 PUSH1 0x40 MLOAD SWAP5 DUP6 MSTORE PUSH1 0x20 DUP6 ADD MSTORE PUSH1 0x40 DUP5 ADD MSTORE PUSH1 0x60 DUP4 ADD MSTORE PUSH1 0x80 DUP3 ADD MSTORE RETURN JUMPDEST CALLVALUE PUSH2 0x2F8 JUMPI PUSH1 0x20 CALLDATASIZE PUSH1 0x3 NOT ADD SLT PUSH2 0x2F8 JUMPI PUSH1 0x20 PUSH2 0xE41 PUSH1 0x4 CALLDATALOAD PUSH2 0x36BA JUMP JUMPDEST CALLVALUE PUSH2 0x2F8 JUMPI PUSH1 0x0 CALLDATASIZE PUSH1 0x3 NOT ADD SLT PUSH2 0x2F8 JUMPI PUSH1 0x20 PUSH2 0xE41 PUSH2 0x3731 JUMP JUMPDEST CALLVALUE PUSH2 0x2F8 JUMPI PUSH1 0x0 CALLDATASIZE PUSH1 0x3 NOT ADD SLT PUSH2 0x2F8 JUMPI PUSH1 0x20 PUSH1 0x5 SLOAD PUSH1 0x40 MLOAD SWAP1 DUP2 MSTORE RETURN JUMPDEST PUSH1 0x0 CALLDATASIZE PUSH1 0x3 NOT ADD SLT PUSH2 0x2F8 JUMPI PUSH2 0x2ABA PUSH2 0x3218 JUMP JUMPDEST PUSH2 0x2AC2 PUSH2 0x33EC JUMP JUMPDEST PUSH2 0x2ACA PUSH2 0x33CE JUMP JUMPDEST PUSH2 0x2ADB PUSH1 0xFF PUSH1 0xA SLOAD PUSH1 0xA8 SHR AND PUSH2 0x336E JUMP JUMPDEST PUSH1 0x6 SLOAD PUSH2 0x2C27 JUMPI PUSH3 0x186A0 CALLVALUE LT PUSH2 0x2BE2 JUMPI CALLVALUE PUSH1 0x5 SSTORE CALLVALUE PUSH1 0x7 SSTORE PUSH1 0x64 CALLVALUE DIV PUSH1 0x1 PUSH1 0x1 PUSH1 0x40 SHL SUB DUP2 AND PUSH1 0x7 SIGNEXTEND PUSH1 0x1 DUP1 PUSH1 0xA0 SHL SUB PUSH2 0x2B4F DUP2 PUSH1 0x4 SLOAD AND PUSH1 0x40 MLOAD DUP5 DUP2 MSTORE DUP2 PUSH32 0xB7555D949A897ACB395F95E3F2DF8B700519404826BB13CD6526B756F6A1C907 PUSH1 0x20 CALLER SWAP4 LOG3 DUP4 PUSH1 0x40 MLOAD SWAP2 PUSH2 0x19B3 DUP4 PUSH2 0x2F22 JUMP JUMPDEST POP SWAP2 SWAP1 PUSH1 0x16 DUP2 SUB PUSH2 0x1BD1 JUMPI POP PUSH1 0x6 DUP5 SWAP1 SSTORE PUSH1 0x4 SLOAD PUSH1 0x40 DUP1 MLOAD PUSH1 0x7 SWAP6 DUP7 SIGNEXTEND DUP2 MSTORE SWAP4 SWAP1 SWAP5 SIGNEXTEND PUSH1 0x20 DUP5 ADD MSTORE CALLER SWAP4 SWAP2 AND SWAP2 PUSH32 0xAD91542866F4DA9EBED5A2B1713258F4BF970F84E7B2A0B8AAB2DE28D11FFFFD SWAP2 SWAP1 LOG3 PUSH1 0x40 DUP1 MLOAD CALLVALUE DUP2 MSTORE PUSH1 0x20 DUP2 ADD SWAP3 SWAP1 SWAP3 MSTORE TIMESTAMP SWAP1 DUP3 ADD MSTORE CALLER SWAP1 PUSH32 0x64B83944E79C3CE8D4C297411DE637C3E102D064677AAC0C163976EBDCD6F50E SWAP1 DUP1 PUSH1 0x60 DUP2 ADD PUSH2 0x1192 JUMP JUMPDEST PUSH1 0x40 MLOAD PUSH3 0x461BCD PUSH1 0xE5 SHL DUP2 MSTORE PUSH1 0x20 PUSH1 0x4 DUP3 ADD MSTORE PUSH1 0x1E PUSH1 0x24 DUP3 ADD MSTORE PUSH32 0x496E73756666696369656E7420696E697469616C206C69717569646974790000 PUSH1 0x44 DUP3 ADD MSTORE PUSH1 0x64 SWAP1 REVERT JUMPDEST PUSH1 0x40 MLOAD PUSH3 0x461BCD PUSH1 0xE5 SHL DUP2 MSTORE PUSH1 0x20 PUSH1 0x4 DUP3 ADD MSTORE PUSH1 0x18 PUSH1 0x24 DUP3 ADD MSTORE PUSH32 0x506F6F6C20616C726561647920696E697469616C697A65640000000000000000 PUSH1 0x44 DUP3 ADD MSTORE PUSH1 0x64 SWAP1 REVERT JUMPDEST CALLVALUE PUSH2 0x2F8 JUMPI PUSH1 0x20 CALLDATASIZE PUSH1 0x3 NOT ADD SLT PUSH2 0x2F8 JUMPI PUSH2 0x2C85 PUSH2 0x378C JUMP JUMPDEST POP PUSH1 0x4 CALLDATALOAD PUSH1 0x0 MSTORE PUSH1 0xB PUSH1 0x20 MSTORE PUSH1 0xA0 PUSH1 0x40 PUSH1 0x0 KECCAK256 PUSH1 0x40 MLOAD PUSH2 0x2CA4 DUP2 PUSH2 0x2EEC JUMP JUMPDEST DUP2 SLOAD SWAP2 DUP3 DUP3 MSTORE PUSH1 0x1 DUP2 ADD SLOAD SWAP1 PUSH1 0x20 DUP4 ADD SWAP2 DUP3 MSTORE PUSH1 0x2 DUP2 ADD SLOAD PUSH1 0x40 DUP5 ADD SWAP1 DUP2 MSTORE PUSH1 0x1 DUP1 DUP8 SHL SUB SWAP3 PUSH1 0x80 PUSH1 0x4 DUP6 PUSH1 0x3 DUP7 ADD SLOAD AND SWAP5 PUSH1 0x60 DUP9 ADD SWAP6 DUP7 MSTORE ADD SLOAD SWAP6 ADD SWAP5 DUP6 MSTORE PUSH1 0x40 MLOAD SWAP6 DUP7 MSTORE MLOAD PUSH1 0x20 DUP7 ADD MSTORE MLOAD PUSH1 0x40 DUP6 ADD MSTORE MLOAD AND PUSH1 0x60 DUP4 ADD MSTORE MLOAD PUSH1 0x80 DUP3 ADD MSTORE RETURN JUMPDEST CALLVALUE PUSH2 0x2F8 JUMPI PUSH1 0x0 CALLDATASIZE PUSH1 0x3 NOT ADD SLT PUSH2 0x2F8 JUMPI PUSH1 0x20 PUSH1 0x40 MLOAD PUSH3 0x186A0 DUP2 MSTORE RETURN JUMPDEST CALLVALUE PUSH2 0x2F8 JUMPI PUSH1 0x20 DUP1 PUSH1 0x3 NOT CALLDATASIZE ADD SLT PUSH2 0x2F8 JUMPI PUSH1 0x1 PUSH1 0x1 PUSH1 0xA0 SHL SUB PUSH2 0x2D45 PUSH2 0x2E40 JUMP JUMPDEST AND PUSH1 0x0 MSTORE PUSH1 0x10 DUP2 MSTORE PUSH1 0x40 PUSH1 0x0 KECCAK256 SWAP1 PUSH1 0x40 MLOAD SWAP1 DUP2 DUP2 DUP5 SLOAD SWAP2 DUP3 DUP2 MSTORE ADD SWAP4 PUSH1 0x0 MSTORE DUP2 PUSH1 0x0 KECCAK256 SWAP2 PUSH1 0x0 SWAP1 JUMPDEST DUP3 DUP3 LT PUSH2 0x2D84 JUMPI PUSH2 0x85D DUP6 PUSH2 0x851 DUP2 DUP10 SUB DUP3 PUSH2 0x2F8E JUMP JUMPDEST DUP4 SLOAD DUP7 MSTORE SWAP5 DUP6 ADD SWAP5 PUSH1 0x1 SWAP4 DUP5 ADD SWAP4 SWAP1 SWAP2 ADD SWAP1 PUSH2 0x2D6D JUMP JUMPDEST CALLVALUE PUSH2 0x2F8 JUMPI PUSH1 0x0 CALLDATASIZE PUSH1 0x3 NOT ADD SLT PUSH2 0x2F8 JUMPI PUSH1 0x20 PUSH1 0xFF PUSH1 0xA SLOAD PUSH1 0xA8 SHR AND PUSH1 0x40 MLOAD SWAP1 ISZERO ISZERO DUP2 MSTORE RETURN JUMPDEST CALLVALUE PUSH2 0x2F8 JUMPI PUSH1 0x0 DUP1 PUSH2 0x13B6 PUSH2 0x10A1 PUSH2 0x2DD8 CALLDATASIZE PUSH2 0x2E56 JUMP JUMPDEST PUSH1 0x40 MLOAD PUSH4 0xAED65F5 PUSH1 0xE1 SHL PUSH1 0x20 DUP3 ADD SWAP1 DUP2 MSTORE PUSH1 0x1 PUSH1 0x1 PUSH1 0xA0 SHL SUB SWAP6 DUP7 AND PUSH1 0x24 DUP4 ADD MSTORE SWAP4 DUP6 AND PUSH1 0x44 DUP3 ADD MSTORE SWAP4 SWAP1 SWAP2 AND PUSH1 0x64 DUP5 ADD MSTORE PUSH1 0x84 DUP4 ADD MSTORE SWAP3 SWAP1 SWAP2 DUP3 SWAP1 PUSH1 0xA4 DUP3 ADD SWAP1 JUMP JUMPDEST CALLVALUE PUSH2 0x2F8 JUMPI PUSH1 0x0 CALLDATASIZE PUSH1 0x3 NOT ADD SLT PUSH2 0x2F8 JUMPI PUSH1 0xE SLOAD PUSH1 0x1 PUSH1 0x1 PUSH1 0xA0 SHL SUB AND DUP2 MSTORE PUSH1 0x20 SWAP1 RETURN JUMPDEST PUSH1 0x4 CALLDATALOAD SWAP1 PUSH1 0x1 PUSH1 0x1 PUSH1 0xA0 SHL SUB DUP3 AND DUP3 SUB PUSH2 0x2F8 JUMPI JUMP JUMPDEST PUSH1 0x80 SWAP1 PUSH1 0x3 NOT ADD SLT PUSH2 0x2F8 JUMPI PUSH1 0x1 PUSH1 0x1 PUSH1 0xA0 SHL SUB PUSH1 0x4 CALLDATALOAD DUP2 DUP2 AND DUP2 SUB PUSH2 0x2F8 JUMPI SWAP2 PUSH1 0x24 CALLDATALOAD DUP3 DUP2 AND DUP2 SUB PUSH2 0x2F8 JUMPI SWAP2 PUSH1 0x44 CALLDATALOAD SWAP1 DUP2 AND DUP2 SUB PUSH2 0x2F8 JUMPI SWAP1 PUSH1 0x64 CALLDATALOAD SWAP1 JUMP JUMPDEST PUSH1 0x20 SWAP1 DUP2 PUSH1 0x40 DUP2 DUP4 ADD SWAP3 DUP3 DUP2 MSTORE DUP6 MLOAD DUP1 SWAP5 MSTORE ADD SWAP4 ADD SWAP2 PUSH1 0x0 JUMPDEST DUP3 DUP2 LT PUSH2 0x2EBE JUMPI POP POP POP POP SWAP1 JUMP JUMPDEST DUP4 MLOAD DUP6 MSTORE SWAP4 DUP2 ADD SWAP4 SWAP3 DUP2 ADD SWAP3 PUSH1 0x1 ADD PUSH2 0x2EB0 JUMP JUMPDEST PUSH1 0x60 SWAP1 PUSH1 0x3 NOT ADD SLT PUSH2 0x2F8 JUMPI PUSH1 0x4 CALLDATALOAD SWAP1 PUSH1 0x24 CALLDATALOAD SWAP1 PUSH1 0x44 CALLDATALOAD SWAP1 JUMP JUMPDEST PUSH1 0xA0 DUP2 ADD SWAP1 DUP2 LT PUSH1 0x1 PUSH1 0x1 PUSH1 0x40 SHL SUB DUP3 GT OR PUSH2 0x2179 JUMPI PUSH1 0x40 MSTORE JUMP JUMPDEST PUSH1 0x40 DUP2 ADD SWAP1 DUP2 LT PUSH1 0x1 PUSH1 0x1 PUSH1 0x40 SHL SUB DUP3 GT OR PUSH2 0x2179 JUMPI PUSH1 0x40 MSTORE JUMP JUMPDEST PUSH1 0x20 DUP2 ADD SWAP1 DUP2 LT PUSH1 0x1 PUSH1 0x1 PUSH1 0x40 SHL SUB DUP3 GT OR PUSH2 0x2179 JUMPI PUSH1 0x40 MSTORE JUMP JUMPDEST PUSH1 0xC0 DUP2 ADD SWAP1 DUP2 LT PUSH1 0x1 PUSH1 0x1 PUSH1 0x40 SHL SUB DUP3 GT OR PUSH2 0x2179 JUMPI PUSH1 0x40 MSTORE JUMP JUMPDEST PUSH1 0x80 DUP2 ADD SWAP1 DUP2 LT PUSH1 0x1 PUSH1 0x1 PUSH1 0x40 SHL SUB DUP3 GT OR PUSH2 0x2179 JUMPI PUSH1 0x40 MSTORE JUMP JUMPDEST PUSH1 0x60 DUP2 ADD SWAP1 DUP2 LT PUSH1 0x1 PUSH1 0x1 PUSH1 0x40 SHL SUB DUP3 GT OR PUSH2 0x2179 JUMPI PUSH1 0x40 MSTORE JUMP JUMPDEST SWAP1 PUSH1 0x1F DUP1 NOT SWAP2 ADD AND DUP2 ADD SWAP1 DUP2 LT PUSH1 0x1 PUSH1 0x1 PUSH1 0x40 SHL SUB DUP3 GT OR PUSH2 0x2179 JUMPI PUSH1 0x40 MSTORE JUMP JUMPDEST PUSH1 0x1 PUSH1 0x1 PUSH1 0x40 SHL SUB DUP2 GT PUSH2 0x2179 JUMPI PUSH1 0x1F ADD PUSH1 0x1F NOT AND PUSH1 0x20 ADD SWAP1 JUMP JUMPDEST SWAP3 SWAP2 SWAP3 PUSH2 0x2FD6 DUP3 PUSH2 0x2FAF JUMP JUMPDEST SWAP2 PUSH2 0x2FE4 PUSH1 0x40 MLOAD SWAP4 DUP5 PUSH2 0x2F8E JUMP JUMPDEST DUP3 SWAP5 DUP2 DUP5 MSTORE DUP2 DUP4 ADD GT PUSH2 0x2F8 JUMPI DUP3 DUP2 PUSH1 0x20 SWAP4 DUP5 PUSH1 0x0 SWAP7 ADD CALLDATACOPY ADD ADD MSTORE JUMP JUMPDEST SWAP1 DUP1 PUSH1 0x1F DUP4 ADD SLT ISZERO PUSH2 0x2F8 JUMPI DUP2 PUSH1 0x20 PUSH2 0x301C SWAP4 CALLDATALOAD SWAP2 ADD PUSH2 0x2FCA JUMP JUMPDEST SWAP1 JUMP JUMPDEST PUSH1 0x0 JUMPDEST DUP4 DUP2 LT PUSH2 0x3032 JUMPI POP POP PUSH1 0x0 SWAP2 ADD MSTORE JUMP JUMPDEST DUP2 DUP2 ADD MLOAD DUP4 DUP3 ADD MSTORE PUSH1 0x20 ADD PUSH2 0x3022 JUMP JUMPDEST SWAP1 PUSH1 0x20 SWAP2 PUSH2 0x305B DUP2 MLOAD DUP1 SWAP3 DUP2 DUP6 MSTORE DUP6 DUP1 DUP7 ADD SWAP2 ADD PUSH2 0x301F JUMP JUMPDEST PUSH1 0x1F ADD PUSH1 0x1F NOT AND ADD ADD SWAP1 JUMP JUMPDEST SWAP1 PUSH1 0x1 DUP3 DUP2 SHR SWAP3 AND DUP1 ISZERO PUSH2 0x3097 JUMPI JUMPDEST PUSH1 0x20 DUP4 LT EQ PUSH2 0x3081 JUMPI JUMP JUMPDEST PUSH4 0x4E487B71 PUSH1 0xE0 SHL PUSH1 0x0 MSTORE PUSH1 0x22 PUSH1 0x4 MSTORE PUSH1 0x24 PUSH1 0x0 REVERT JUMPDEST SWAP2 PUSH1 0x7F AND SWAP2 PUSH2 0x3076 JUMP JUMPDEST PUSH1 0x40 MLOAD SWAP1 PUSH1 0x0 DUP3 PUSH1 0x8 SLOAD SWAP2 PUSH2 0x30B5 DUP4 PUSH2 0x3067 JUMP JUMPDEST DUP1 DUP4 MSTORE SWAP3 PUSH1 0x1 SWAP1 DUP2 DUP2 AND SWAP1 DUP2 ISZERO PUSH2 0x312B JUMPI POP PUSH1 0x1 EQ PUSH2 0x30DE JUMPI JUMPDEST POP PUSH2 0x30DC SWAP3 POP SUB DUP4 PUSH2 0x2F8E JUMP JUMPDEST JUMP JUMPDEST PUSH1 0x8 PUSH1 0x0 SWAP1 DUP2 MSTORE SWAP2 POP PUSH1 0x0 DUP1 MLOAD PUSH1 0x20 PUSH2 0x466F DUP4 CODECOPY DUP2 MLOAD SWAP2 MSTORE JUMPDEST DUP5 DUP4 LT PUSH2 0x3110 JUMPI POP PUSH2 0x30DC SWAP4 POP POP DUP2 ADD PUSH1 0x20 ADD CODESIZE PUSH2 0x30CF JUMP JUMPDEST DUP2 SWAP4 POP SWAP1 DUP2 PUSH1 0x20 SWAP3 SLOAD DUP4 DUP6 DUP11 ADD ADD MSTORE ADD SWAP2 ADD SWAP1 SWAP2 DUP6 SWAP3 PUSH2 0x30F7 JUMP JUMPDEST SWAP1 POP PUSH1 0x20 SWAP3 POP PUSH2 0x30DC SWAP5 SWAP2 POP PUSH1 0xFF NOT AND DUP3 DUP5 ADD MSTORE ISZERO ISZERO PUSH1 0x5 SHL DUP3 ADD ADD CODESIZE PUSH2 0x30CF JUMP JUMPDEST PUSH1 0x40 MLOAD SWAP1 PUSH1 0x0 DUP3 PUSH1 0x9 SLOAD SWAP2 PUSH2 0x3161 DUP4 PUSH2 0x3067 JUMP JUMPDEST DUP1 DUP4 MSTORE SWAP3 PUSH1 0x1 SWAP1 DUP2 DUP2 AND SWAP1 DUP2 ISZERO PUSH2 0x312B JUMPI POP PUSH1 0x1 EQ PUSH2 0x3187 JUMPI POP PUSH2 0x30DC SWAP3 POP SUB DUP4 PUSH2 0x2F8E JUMP JUMPDEST PUSH1 0x9 PUSH1 0x0 SWAP1 DUP2 MSTORE SWAP2 POP PUSH1 0x0 DUP1 MLOAD PUSH1 0x20 PUSH2 0x468F DUP4 CODECOPY DUP2 MLOAD SWAP2 MSTORE JUMPDEST DUP5 DUP4 LT PUSH2 0x31B9 JUMPI POP PUSH2 0x30DC SWAP4 POP POP DUP2 ADD PUSH1 0x20 ADD CODESIZE PUSH2 0x30CF JUMP JUMPDEST DUP2 SWAP4 POP SWAP1 DUP2 PUSH1 0x20 SWAP3 SLOAD DUP4 DUP6 DUP11 ADD ADD MSTORE ADD SWAP2 ADD SWAP1 SWAP2 DUP6 SWAP3 PUSH2 0x31A0 JUMP JUMPDEST DUP1 SLOAD DUP3 LT ISZERO PUSH2 0x31EC JUMPI PUSH1 0x0 MSTORE PUSH1 0x20 PUSH1 0x0 KECCAK256 ADD SWAP1 PUSH1 0x0 SWAP1 JUMP JUMPDEST PUSH4 0x4E487B71 PUSH1 0xE0 SHL PUSH1 0x0 MSTORE PUSH1 0x32 PUSH1 0x4 MSTORE PUSH1 0x24 PUSH1 0x0 REVERT JUMPDEST PUSH1 0x40 SWAP1 PUSH1 0x3 NOT ADD SLT PUSH2 0x2F8 JUMPI PUSH1 0x4 CALLDATALOAD SWAP1 PUSH1 0x24 CALLDATALOAD SWAP1 JUMP JUMPDEST PUSH1 0x0 SLOAD PUSH1 0x1 PUSH1 0x1 PUSH1 0xA0 SHL SUB AND CALLER SUB PUSH2 0x322C JUMPI JUMP JUMPDEST PUSH1 0x40 MLOAD PUSH4 0x118CDAA7 PUSH1 0xE0 SHL DUP2 MSTORE CALLER PUSH1 0x4 DUP3 ADD MSTORE PUSH1 0x24 SWAP1 REVERT JUMPDEST PUSH1 0x40 DUP1 MLOAD PUSH1 0x1 PUSH1 0x1 PUSH1 0x40 SHL SUB SWAP3 SWAP2 SWAP1 PUSH2 0x120 DUP2 ADD DUP5 DUP2 GT DUP3 DUP3 LT OR PUSH2 0x2179 JUMPI DUP3 MSTORE DUP1 SWAP4 PUSH1 0x60 SWAP3 DUP4 DUP4 MSTORE DUP4 PUSH1 0x20 DUP5 ADD MSTORE PUSH1 0x0 SWAP2 DUP3 DUP3 DUP6 ADD MSTORE DUP5 DUP1 DUP6 ADD MSTORE DUP3 PUSH1 0x80 DUP6 ADD MSTORE DUP3 PUSH1 0xA0 DUP6 ADD MSTORE DUP3 PUSH1 0xC0 DUP6 ADD MSTORE DUP5 PUSH1 0xE0 DUP6 ADD MSTORE DUP2 MLOAD SWAP5 DUP6 ADD SWAP1 DUP6 DUP3 LT SWAP1 DUP3 GT OR PUSH2 0x32BF JUMPI DUP2 MSTORE DUP2 DUP5 MSTORE PUSH1 0x20 DUP5 ADD DUP3 SWAP1 MSTORE DUP4 ADD MSTORE PUSH2 0x100 ADD MSTORE JUMP JUMPDEST PUSH4 0x4E487B71 PUSH1 0xE0 SHL DUP4 MSTORE PUSH1 0x41 PUSH1 0x4 MSTORE PUSH1 0x24 DUP4 REVERT JUMPDEST PUSH1 0x1 PUSH1 0x1 PUSH1 0x40 SHL SUB DUP2 GT PUSH2 0x2179 JUMPI PUSH1 0x5 SHL PUSH1 0x20 ADD SWAP1 JUMP JUMPDEST PUSH1 0x40 MLOAD SWAP1 PUSH2 0x32F7 DUP3 PUSH2 0x2EEC JUMP JUMPDEST PUSH1 0x0 PUSH1 0x80 DUP4 DUP3 DUP2 MSTORE DUP3 PUSH1 0x20 DUP3 ADD MSTORE PUSH1 0x60 PUSH1 0x40 DUP3 ADD MSTORE PUSH1 0x60 DUP1 DUP3 ADD MSTORE ADD MSTORE JUMP JUMPDEST PUSH1 0x40 MLOAD SWAP1 PUSH2 0x3323 DUP3 PUSH2 0x2F07 JUMP JUMPDEST DUP2 PUSH1 0x0 DUP2 MSTORE PUSH1 0x20 PUSH2 0x3332 PUSH2 0x32EA JUMP JUMPDEST SWAP2 ADD MSTORE JUMP JUMPDEST DUP1 MLOAD ISZERO PUSH2 0x31EC JUMPI PUSH1 0x20 ADD SWAP1 JUMP JUMPDEST DUP1 MLOAD PUSH1 0x1 LT ISZERO PUSH2 0x31EC JUMPI PUSH1 0x40 ADD SWAP1 JUMP JUMPDEST PUSH1 0x40 SWAP1 PUSH2 0x301C SWAP4 SWAP3 PUSH1 0x3 SIGNEXTEND DUP2 MSTORE DUP2 PUSH1 0x20 DUP3 ADD MSTORE ADD SWAP1 PUSH2 0x3042 JUMP JUMPDEST ISZERO PUSH2 0x3375 JUMPI JUMP JUMPDEST PUSH1 0x40 MLOAD PUSH3 0x461BCD PUSH1 0xE5 SHL DUP2 MSTORE PUSH1 0x20 PUSH1 0x4 DUP3 ADD MSTORE PUSH1 0x11 PUSH1 0x24 DUP3 ADD MSTORE PUSH17 0x151BDAD95B881B9BDD0818DC99585D1959 PUSH1 0x7A SHL PUSH1 0x44 DUP3 ADD MSTORE PUSH1 0x64 SWAP1 REVERT JUMPDEST DUP2 ISZERO PUSH2 0x33B8 JUMPI DIV SWAP1 JUMP JUMPDEST PUSH4 0x4E487B71 PUSH1 0xE0 SHL PUSH1 0x0 MSTORE PUSH1 0x12 PUSH1 0x4 MSTORE PUSH1 0x24 PUSH1 0x0 REVERT JUMPDEST PUSH1 0xFF PUSH1 0x2 SLOAD AND PUSH2 0x33DA JUMPI JUMP JUMPDEST PUSH1 0x40 MLOAD PUSH4 0xD93C0665 PUSH1 0xE0 SHL DUP2 MSTORE PUSH1 0x4 SWAP1 REVERT JUMPDEST PUSH1 0x2 PUSH1 0x1 SLOAD EQ PUSH2 0x33FD JUMPI PUSH1 0x2 PUSH1 0x1 SSTORE JUMP JUMPDEST PUSH1 0x40 MLOAD PUSH4 0x3EE5AEB5 PUSH1 0xE0 SHL DUP2 MSTORE PUSH1 0x4 SWAP1 REVERT JUMPDEST ISZERO PUSH2 0x3416 JUMPI JUMP JUMPDEST PUSH1 0x40 MLOAD PUSH3 0x461BCD PUSH1 0xE5 SHL DUP2 MSTORE PUSH1 0x20 PUSH1 0x4 DUP3 ADD MSTORE PUSH1 0x14 PUSH1 0x24 DUP3 ADD MSTORE PUSH20 0x141BDBDB081B9BDD081A5B9A5D1A585B1A5E9959 PUSH1 0x62 SHL PUSH1 0x44 DUP3 ADD MSTORE PUSH1 0x64 SWAP1 REVERT JUMPDEST ISZERO PUSH2 0x3459 JUMPI JUMP JUMPDEST PUSH1 0x40 MLOAD PUSH3 0x461BCD PUSH1 0xE5 SHL DUP2 MSTORE PUSH1 0x20 PUSH1 0x4 DUP3 ADD MSTORE PUSH1 0x10 PUSH1 0x24 DUP3 ADD MSTORE PUSH16 0x139BC812109054881C1C9BDD9A591959 PUSH1 0x82 SHL PUSH1 0x44 DUP3 ADD MSTORE PUSH1 0x64 SWAP1 REVERT JUMPDEST ISZERO PUSH2 0x3498 JUMPI JUMP JUMPDEST PUSH1 0x40 MLOAD PUSH3 0x461BCD PUSH1 0xE5 SHL DUP2 MSTORE PUSH1 0x20 PUSH1 0x4 DUP3 ADD MSTORE PUSH1 0x21 PUSH1 0x24 DUP3 ADD MSTORE PUSH32 0x55534420616D6F756E74206D7573742062652067726561746572207468616E20 PUSH1 0x44 DUP3 ADD MSTORE PUSH1 0x3 PUSH1 0xFC SHL PUSH1 0x64 DUP3 ADD MSTORE PUSH1 0x84 SWAP1 REVERT JUMPDEST ISZERO PUSH2 0x34EE JUMPI JUMP JUMPDEST PUSH1 0x40 MLOAD PUSH3 0x461BCD PUSH1 0xE5 SHL DUP2 MSTORE PUSH1 0x20 PUSH1 0x4 DUP3 ADD MSTORE PUSH1 0x28 PUSH1 0x24 DUP3 ADD MSTORE PUSH32 0x4D617475726174696F6E20616D6F756E74206D75737420626520677265617465 PUSH1 0x44 DUP3 ADD MSTORE PUSH8 0x72207468616E203 PUSH1 0xC4 SHL PUSH1 0x64 DUP3 ADD MSTORE PUSH1 0x84 SWAP1 REVERT JUMPDEST ISZERO PUSH2 0x354B JUMPI JUMP JUMPDEST PUSH1 0x40 MLOAD PUSH3 0x461BCD PUSH1 0xE5 SHL DUP2 MSTORE PUSH1 0x20 PUSH1 0x4 DUP3 ADD MSTORE PUSH1 0x11 PUSH1 0x24 DUP3 ADD MSTORE PUSH17 0x14DB1A5C1C1859D948195E18D959591959 PUSH1 0x7A SHL PUSH1 0x44 DUP3 ADD MSTORE PUSH1 0x64 SWAP1 REVERT JUMPDEST SWAP2 SWAP1 DUP3 ADD DUP1 SWAP3 GT PUSH2 0x63D JUMPI JUMP JUMPDEST DUP1 SLOAD PUSH9 0x10000000000000000 DUP2 LT ISZERO PUSH2 0x2179 JUMPI PUSH2 0x35B3 SWAP2 PUSH1 0x1 DUP3 ADD DUP2 SSTORE PUSH2 0x31D4 JUMP JUMPDEST DUP2 SWAP3 SWAP2 SLOAD SWAP1 PUSH1 0x3 SHL SWAP2 DUP3 SHL SWAP2 PUSH1 0x0 NOT SWAP1 SHL NOT AND OR SWAP1 SSTORE JUMP JUMPDEST PUSH1 0x0 NOT DUP2 EQ PUSH2 0x63D JUMPI PUSH1 0x1 ADD SWAP1 JUMP JUMPDEST DUP2 DUP2 MUL SWAP3 SWAP2 DUP2 ISZERO SWAP2 DUP5 DIV EQ OR ISZERO PUSH2 0x63D JUMPI JUMP JUMPDEST SWAP2 SWAP1 DUP3 SUB SWAP2 DUP3 GT PUSH2 0x63D JUMPI JUMP JUMPDEST SWAP1 DUP2 MLOAD DUP1 DUP3 MSTORE PUSH1 0x20 DUP1 DUP1 SWAP4 ADD SWAP4 ADD SWAP2 PUSH1 0x0 JUMPDEST DUP3 DUP2 LT PUSH2 0x361A JUMPI POP POP POP POP SWAP1 JUMP JUMPDEST DUP4 MLOAD PUSH1 0x7 SIGNEXTEND DUP6 MSTORE SWAP4 DUP2 ADD SWAP4 SWAP3 DUP2 ADD SWAP3 PUSH1 0x1 ADD PUSH2 0x360C JUMP JUMPDEST RETURNDATASIZE ISZERO PUSH2 0x365C JUMPI RETURNDATASIZE SWAP1 PUSH2 0x3642 DUP3 PUSH2 0x2FAF JUMP JUMPDEST SWAP2 PUSH2 0x3650 PUSH1 0x40 MLOAD SWAP4 DUP5 PUSH2 0x2F8E JUMP JUMPDEST DUP3 MSTORE RETURNDATASIZE PUSH1 0x0 PUSH1 0x20 DUP5 ADD RETURNDATACOPY JUMP JUMPDEST PUSH1 0x60 SWAP1 JUMP JUMPDEST PUSH1 0x6 SLOAD SWAP1 DUP2 ISZERO PUSH2 0x3681 JUMPI PUSH2 0x301C SWAP2 PUSH2 0x3678 SWAP2 PUSH2 0x35DA JUMP JUMPDEST PUSH1 0x5 SLOAD SWAP1 PUSH2 0x33AE JUMP JUMPDEST POP POP PUSH1 0x0 SWAP1 JUMP JUMPDEST SWAP1 DUP2 ISZERO PUSH2 0x3695 DUP2 ISZERO PUSH2 0x3491 JUMP JUMPDEST PUSH2 0x36A0 DUP3 ISZERO ISZERO PUSH2 0x34E7 JUMP JUMPDEST PUSH3 0xF4240 DUP1 DUP5 MUL SWAP4 DUP5 DIV EQ OR ISZERO PUSH2 0x63D JUMPI PUSH2 0x301C SWAP2 PUSH2 0x33AE JUMP JUMPDEST PUSH1 0x6 SLOAD DUP1 ISZERO PUSH2 0x3681 JUMPI PUSH2 0xFBE PUSH2 0x301C SWAP3 PUSH1 0x5 SLOAD SWAP1 PUSH2 0x35DA JUMP JUMPDEST PUSH1 0xFF PUSH1 0xA SLOAD PUSH1 0xA8 SHR AND ISZERO PUSH2 0x3726 JUMPI PUSH1 0x6 SLOAD PUSH1 0x0 SWAP2 DUP2 ISZERO PUSH2 0x371B JUMPI PUSH2 0x36FD DUP3 PUSH2 0xFBE PUSH1 0x5 SLOAD DUP7 PUSH2 0x35DA JUMP JUMPDEST SWAP2 PUSH2 0x2710 SWAP1 DUP2 DUP6 MUL SWAP2 DUP6 DUP4 DIV EQ DUP6 ISZERO OR ISZERO PUSH2 0x63D JUMPI PUSH2 0x301C SWAP2 PUSH2 0x33AE JUMP JUMPDEST PUSH1 0x0 SWAP3 POP DUP3 SWAP2 POP DUP2 SWAP1 JUMP JUMPDEST PUSH1 0x0 SWAP1 PUSH1 0x0 SWAP1 PUSH1 0x0 SWAP1 JUMP JUMPDEST PUSH1 0x6 SLOAD DUP1 ISZERO PUSH2 0x3749 JUMPI PUSH2 0x301C SWAP1 PUSH1 0x64 PUSH1 0x7 SLOAD DIV PUSH2 0x33AE JUMP JUMPDEST POP PUSH1 0x0 SWAP1 JUMP JUMPDEST PUSH1 0xFF PUSH1 0xA SLOAD PUSH1 0xA8 SHR AND ISZERO DUP1 ISZERO PUSH2 0x3782 JUMPI JUMPDEST PUSH2 0x377D JUMPI PUSH1 0x7 SLOAD ISZERO PUSH1 0x1 OR ISZERO PUSH2 0x63D JUMPI PUSH1 0x6 SLOAD ISZERO PUSH2 0x33B8 JUMPI PUSH1 0x0 SWAP1 JUMP JUMPDEST PUSH1 0x0 SWAP1 JUMP JUMPDEST POP PUSH1 0x6 SLOAD ISZERO PUSH2 0x3760 JUMP JUMPDEST PUSH1 0x40 MLOAD SWAP1 PUSH2 0x3799 DUP3 PUSH2 0x2EEC JUMP JUMPDEST PUSH1 0x0 PUSH1 0x80 DUP4 DUP3 DUP2 MSTORE DUP3 PUSH1 0x20 DUP3 ADD MSTORE DUP3 PUSH1 0x40 DUP3 ADD MSTORE DUP3 PUSH1 0x60 DUP3 ADD MSTORE ADD MSTORE JUMP JUMPDEST DUP1 PUSH1 0x3 SIGNEXTEND SWAP1 PUSH1 0x16 DUP3 EQ PUSH2 0x42BF JUMPI PUSH1 0x9 DUP3 EQ PUSH2 0x426A JUMPI PUSH1 0xA DUP3 EQ PUSH2 0x4209 JUMPI PUSH1 0x7 DUP3 EQ PUSH2 0x41B1 JUMPI PUSH1 0xF DUP3 EQ PUSH2 0x4150 JUMPI PUSH1 0x10 DUP3 EQ PUSH2 0x40EF JUMPI PUSH1 0x1E DUP3 EQ PUSH2 0x40A1 JUMPI PUSH1 0x22 DUP3 EQ PUSH2 0x4040 JUMPI PUSH1 0x6F DUP3 EQ PUSH2 0x3FF1 JUMPI PUSH1 0xAA DUP3 EQ PUSH2 0x3F90 JUMPI PUSH1 0xAB DUP3 EQ PUSH2 0x3F3E JUMPI PUSH1 0xAE DUP3 EQ PUSH2 0x3EEA JUMPI PUSH1 0xAF DUP3 EQ PUSH2 0x3E89 JUMPI PUSH1 0xBE DUP3 EQ PUSH2 0x3E39 JUMPI PUSH1 0xBF DUP3 EQ PUSH2 0x3DE0 JUMPI PUSH1 0xA8 DUP3 EQ PUSH2 0x3D7F JUMPI PUSH1 0xA9 DUP3 EQ PUSH2 0x3D1E JUMPI PUSH1 0xBD DUP3 EQ PUSH2 0x3CD0 JUMPI PUSH1 0x9B DUP3 EQ PUSH2 0x3C84 JUMPI PUSH1 0x1A DUP3 EQ PUSH2 0x3C3A JUMPI PUSH1 0x1B DUP3 EQ PUSH2 0x3BF0 JUMPI PUSH1 0x26 DUP3 EQ PUSH2 0x3B97 JUMPI PUSH1 0x40 SWAP2 DUP3 DUP2 EQ PUSH2 0x3B40 JUMPI PUSH1 0x41 DUP2 EQ PUSH2 0x3AD4 JUMPI PUSH2 0x117 DUP2 EQ PUSH2 0x3A7C JUMPI PUSH2 0x145 DUP2 EQ PUSH2 0x3A1D JUMPI PUSH2 0x146 DUP2 EQ PUSH2 0x39BE JUMPI PUSH2 0x147 DUP2 EQ PUSH2 0x3955 JUMPI PUSH2 0x148 EQ PUSH2 0x3901 JUMPI PUSH1 0x33 PUSH2 0x38BE PUSH4 0xFFFFFFFF PUSH2 0x301C SWAP4 AND PUSH2 0x42E4 JUMP JUMPDEST SWAP3 MLOAD DUP1 SWAP4 PUSH19 0x554E4B4E4F574E5F4552524F525F434F44455F PUSH1 0x68 SHL PUSH1 0x20 DUP4 ADD MSTORE PUSH2 0x38F1 DUP2 MLOAD DUP1 SWAP3 PUSH1 0x20 DUP7 DUP7 ADD SWAP2 ADD PUSH2 0x301F JUMP JUMPDEST DUP2 ADD SUB PUSH1 0x13 DUP2 ADD DUP5 MSTORE ADD DUP3 PUSH2 0x2F8E JUMP JUMPDEST POP PUSH19 0x206D616E79206368696C64207265636F726473 PUSH1 0x68 SHL DUP2 MLOAD SWAP2 PUSH2 0x3925 DUP4 PUSH2 0x2F73 JUMP JUMPDEST PUSH1 0x33 DUP4 MSTORE PUSH32 0x4D41585F4348494C445F5245434F5244535F4558434545444544202D20546F6F PUSH1 0x20 DUP5 ADD MSTORE DUP3 ADD MSTORE SWAP1 JUMP JUMPDEST POP POP PUSH32 0x6666696369656E742062616C616E636520666F722073746F726167652072656E DUP2 MLOAD SWAP2 PUSH2 0x3984 DUP4 PUSH2 0x2F58 JUMP JUMPDEST PUSH1 0x41 DUP4 MSTORE PUSH32 0x494E53554646494349454E545F53544F524147455F52454E54202D20496E7375 PUSH1 0x20 DUP5 ADD MSTORE DUP3 ADD MSTORE PUSH1 0x1D PUSH1 0xFA SHL PUSH1 0x60 DUP3 ADD MSTORE SWAP1 JUMP JUMPDEST POP POP PUSH32 0x6E76616C6964207369676E617475726520666F7220707265636F6D70696C6500 DUP2 MLOAD SWAP2 PUSH2 0x39ED DUP4 PUSH2 0x2F73 JUMP JUMPDEST PUSH1 0x3F DUP4 MSTORE PUSH32 0x494E56414C49445F505245434F4D50494C455F5349474E4154555245202D2049 PUSH1 0x20 DUP5 ADD MSTORE DUP3 ADD MSTORE SWAP1 JUMP JUMPDEST POP POP PUSH32 0x6E74697469657320696E20707269636520726567696D65207265616368656400 DUP2 MLOAD SWAP2 PUSH2 0x3A4C DUP4 PUSH2 0x2F73 JUMP JUMPDEST PUSH1 0x3F DUP4 MSTORE PUSH32 0x4D41585F454E5449544945535F43524541544544202D204D6178696D756D2065 PUSH1 0x20 DUP5 ADD MSTORE DUP3 ADD MSTORE SWAP1 JUMP JUMPDEST POP POP PUSH22 0x1CDD5CC81B9BD9194819D85CC8195E1A185D5CDD1959 PUSH1 0x52 SHL DUP2 MLOAD SWAP2 PUSH2 0x3AA4 DUP4 PUSH2 0x2F73 JUMP JUMPDEST PUSH1 0x36 DUP4 MSTORE PUSH32 0x434F4E53454E5355535F4741535F455848415553544544202D20436F6E73656E PUSH1 0x20 DUP5 ADD MSTORE DUP3 ADD MSTORE SWAP1 JUMP JUMPDEST POP POP PUSH32 0x616E73616374696F6E2068617320746F6F206D616E79206E6573746564206C61 DUP2 MLOAD SWAP2 PUSH2 0x3B03 DUP4 PUSH2 0x2F58 JUMP JUMPDEST PUSH1 0x44 DUP4 MSTORE PUSH32 0x5452414E53414354494F4E5F544F4F5F4D414E595F4C4159455253202D205472 PUSH1 0x20 DUP5 ADD MSTORE DUP3 ADD MSTORE PUSH4 0x79657273 PUSH1 0xE0 SHL PUSH1 0x60 DUP3 ADD MSTORE SWAP1 JUMP JUMPDEST POP POP PUSH21 0x1BDB88195E18D959591CC81CDA5E99481B1A5B5A5D PUSH1 0x5A SHL DUP2 MLOAD SWAP2 PUSH2 0x3B67 DUP4 PUSH2 0x2F73 JUMP JUMPDEST PUSH1 0x35 DUP4 MSTORE PUSH32 0x5452414E53414354494F4E5F4F56455253495A45202D205472616E7361637469 PUSH1 0x20 DUP5 ADD MSTORE DUP3 ADD MSTORE SWAP1 JUMP JUMPDEST POP POP PUSH1 0x40 MLOAD PUSH2 0x3BA5 DUP2 PUSH2 0x2F73 JUMP JUMPDEST PUSH1 0x35 DUP2 MSTORE PUSH32 0x494E56414C49445F4B45595F454E434F44494E47202D204B657920656E636F64 PUSH1 0x20 DUP3 ADD MSTORE PUSH21 0x1A5B99C8199BDC9B585D081A5CC81A5B9D985B1A59 PUSH1 0x5A SHL PUSH1 0x40 DUP3 ADD MSTORE SWAP1 JUMP JUMPDEST POP POP PUSH1 0x40 MLOAD PUSH2 0x3BFE DUP2 PUSH2 0x2F73 JUMP JUMPDEST PUSH1 0x26 DUP2 MSTORE PUSH32 0x4241445F454E434F44494E47202D204B657920656E636F64696E672069732069 PUSH1 0x20 DUP3 ADD MSTORE PUSH6 0x1B9D985B1A59 PUSH1 0xD2 SHL PUSH1 0x40 DUP3 ADD MSTORE SWAP1 JUMP JUMPDEST POP POP PUSH1 0x40 MLOAD PUSH2 0x3C48 DUP2 PUSH2 0x2F73 JUMP JUMPDEST PUSH1 0x26 DUP2 MSTORE PUSH32 0x4B45595F5245515549524544202D205265717569726564206B6579206973206D PUSH1 0x20 DUP3 ADD MSTORE PUSH6 0x697373696E67 PUSH1 0xD0 SHL PUSH1 0x40 DUP3 ADD MSTORE SWAP1 JUMP JUMPDEST POP POP PUSH1 0x40 MLOAD PUSH2 0x3C92 DUP2 PUSH2 0x2F73 JUMP JUMPDEST PUSH1 0x28 DUP2 MSTORE PUSH32 0x494E56414C49445F41444D494E5F4B4559202D2041646D696E206B6579206973 PUSH1 0x20 DUP3 ADD MSTORE PUSH8 0x81A5B9D985B1A59 PUSH1 0xC2 SHL PUSH1 0x40 DUP3 ADD MSTORE SWAP1 JUMP JUMPDEST POP POP PUSH1 0x40 MLOAD PUSH2 0x3CDE DUP2 PUSH2 0x2F73 JUMP JUMPDEST PUSH1 0x2A DUP2 MSTORE PUSH32 0x494E56414C49445F535550504C595F4B4559202D20537570706C79206B657920 PUSH1 0x20 DUP3 ADD MSTORE PUSH10 0x1A5CC81A5B9D985B1A59 PUSH1 0xB2 SHL PUSH1 0x40 DUP3 ADD MSTORE SWAP1 JUMP JUMPDEST POP POP PUSH1 0x40 MLOAD PUSH2 0x3D2C DUP2 PUSH2 0x2F73 JUMP JUMPDEST PUSH1 0x3E DUP2 MSTORE PUSH32 0x494E56414C49445F544F4B454E5F494E495449414C5F535550504C59202D2049 PUSH1 0x20 DUP3 ADD MSTORE PUSH32 0x6E697469616C20737570706C792076616C756520697320696E76616C69640000 PUSH1 0x40 DUP3 ADD MSTORE SWAP1 JUMP JUMPDEST POP POP PUSH1 0x40 MLOAD PUSH2 0x3D8D DUP2 PUSH2 0x2F73 JUMP JUMPDEST PUSH1 0x38 DUP2 MSTORE PUSH32 0x494E56414C49445F544F4B454E5F444543494D414C53202D20546F6B656E2064 PUSH1 0x20 DUP3 ADD MSTORE PUSH32 0x6563696D616C732076616C756520697320696E76616C69640000000000000000 PUSH1 0x40 DUP3 ADD MSTORE SWAP1 JUMP JUMPDEST POP POP PUSH1 0x40 MLOAD PUSH2 0x3DEE DUP2 PUSH2 0x2F73 JUMP JUMPDEST PUSH1 0x35 DUP2 MSTORE PUSH32 0x544F4B454E5F4E414D455F544F4F5F4C4F4E47202D20546F6B656E206E616D65 PUSH1 0x20 DUP3 ADD MSTORE PUSH21 0x8195E18D959591CC81B195B99DD1A081B1A5B5A5D PUSH1 0x5A SHL PUSH1 0x40 DUP3 ADD MSTORE SWAP1 JUMP JUMPDEST POP POP PUSH1 0x40 MLOAD PUSH2 0x3E47 DUP2 PUSH2 0x2F73 JUMP JUMPDEST PUSH1 0x2C DUP2 MSTORE PUSH32 0x4D495353494E475F544F4B454E5F4E414D45202D20546F6B656E206E616D6520 PUSH1 0x20 DUP3 ADD MSTORE PUSH12 0x1B9BDD081C1C9BDD9A591959 PUSH1 0xA2 SHL PUSH1 0x40 DUP3 ADD MSTORE SWAP1 JUMP JUMPDEST POP POP PUSH1 0x40 MLOAD PUSH2 0x3E97 DUP2 PUSH2 0x2F73 JUMP JUMPDEST PUSH1 0x39 DUP2 MSTORE PUSH32 0x544F4B454E5F53594D424F4C5F544F4F5F4C4F4E47202D20546F6B656E207379 PUSH1 0x20 DUP3 ADD MSTORE PUSH32 0x6D626F6C2065786365656473206C656E677468206C696D697400000000000000 PUSH1 0x40 DUP3 ADD MSTORE SWAP1 JUMP JUMPDEST POP POP PUSH1 0x40 MLOAD PUSH2 0x3EF8 DUP2 PUSH2 0x2F73 JUMP JUMPDEST PUSH1 0x30 DUP2 MSTORE PUSH32 0x4D495353494E475F544F4B454E5F53594D424F4C202D20546F6B656E2073796D PUSH1 0x20 DUP3 ADD MSTORE PUSH16 0x189BDB081B9BDD081C1C9BDD9A591959 PUSH1 0x82 SHL PUSH1 0x40 DUP3 ADD MSTORE SWAP1 JUMP JUMPDEST POP POP PUSH1 0x40 MLOAD PUSH2 0x3F4C DUP2 PUSH2 0x2F73 JUMP JUMPDEST PUSH1 0x2E DUP2 MSTORE PUSH32 0x494E56414C49445F544F4B454E5F53594D424F4C202D20546F6B656E2073796D PUSH1 0x20 DUP3 ADD MSTORE PUSH14 0x189BDB081A5CC81A5B9D985B1A59 PUSH1 0x92 SHL PUSH1 0x40 DUP3 ADD MSTORE SWAP1 JUMP JUMPDEST POP POP PUSH1 0x40 MLOAD PUSH2 0x3F9E DUP2 PUSH2 0x2F73 JUMP JUMPDEST PUSH1 0x3D DUP2 MSTORE PUSH32 0x494E56414C49445F54524541535552595F4143434F554E545F464F525F544F4B PUSH1 0x20 DUP3 ADD MSTORE PUSH32 0x454E202D205472656173757279206163636F756E7420696E76616C6964000000 PUSH1 0x40 DUP3 ADD MSTORE SWAP1 JUMP JUMPDEST POP POP PUSH1 0x40 MLOAD PUSH2 0x3FFF DUP2 PUSH2 0x2F73 JUMP JUMPDEST PUSH1 0x2B DUP2 MSTORE PUSH32 0x4D41585F4741535F4C494D49545F4558434545444544202D20476173206C696D PUSH1 0x20 DUP3 ADD MSTORE PUSH11 0x1A5D08195E18D959591959 PUSH1 0xAA SHL PUSH1 0x40 DUP3 ADD MSTORE SWAP1 JUMP JUMPDEST POP POP PUSH1 0x40 MLOAD PUSH2 0x404E DUP2 PUSH2 0x2F73 JUMP JUMPDEST PUSH1 0x38 DUP2 MSTORE PUSH32 0x434F4E54524143545F455845435554494F4E5F455843455054494F4E202D2043 PUSH1 0x20 DUP3 ADD MSTORE PUSH32 0x6F6E747261637420657865637574696F6E206661696C65640000000000000000 PUSH1 0x40 DUP3 ADD MSTORE SWAP1 JUMP JUMPDEST POP POP PUSH1 0x40 MLOAD PUSH2 0x40AF DUP2 PUSH2 0x2F73 JUMP JUMPDEST PUSH1 0x2A DUP2 MSTORE PUSH32 0x494E53554646494349454E545F474153202D204E6F7420656E6F756768206761 PUSH1 0x20 DUP3 ADD MSTORE PUSH10 0x1CC81CDD5C1C1B1A5959 PUSH1 0xB2 SHL PUSH1 0x40 DUP3 ADD MSTORE SWAP1 JUMP JUMPDEST POP POP PUSH1 0x40 MLOAD PUSH2 0x40FD DUP2 PUSH2 0x2F73 JUMP JUMPDEST PUSH1 0x3E DUP2 MSTORE PUSH32 0x494E56414C49445F434F4E54524143545F4944202D20436F6E74726163742049 PUSH1 0x20 DUP3 ADD MSTORE PUSH32 0x4420697320696E76616C6964206F7220646F6573206E6F742065786973740000 PUSH1 0x40 DUP3 ADD MSTORE SWAP1 JUMP JUMPDEST POP POP PUSH1 0x40 MLOAD PUSH2 0x415E DUP2 PUSH2 0x2F73 JUMP JUMPDEST PUSH1 0x3C DUP2 MSTORE PUSH32 0x494E56414C49445F4143434F554E545F4944202D204163636F756E7420494420 PUSH1 0x20 DUP3 ADD MSTORE PUSH32 0x697320696E76616C6964206F7220646F6573206E6F7420657869737400000000 PUSH1 0x40 DUP3 ADD MSTORE SWAP1 JUMP JUMPDEST POP POP PUSH1 0x40 MLOAD PUSH2 0x41BF DUP2 PUSH2 0x2F73 JUMP JUMPDEST PUSH1 0x34 DUP2 MSTORE PUSH32 0x494E56414C49445F5349474E4154555245202D205472616E73616374696F6E20 PUSH1 0x20 DUP3 ADD MSTORE PUSH20 0x1CDA59DB985D1D5C99481A5CC81A5B9D985B1A59 PUSH1 0x62 SHL PUSH1 0x40 DUP3 ADD MSTORE SWAP1 JUMP JUMPDEST POP POP PUSH1 0x40 MLOAD PUSH2 0x4217 DUP2 PUSH2 0x2F73 JUMP JUMPDEST PUSH1 0x40 DUP2 MSTORE PUSH32 0x494E53554646494349454E545F50415945525F42414C414E4345202D20506179 PUSH1 0x20 DUP3 ADD MSTORE PUSH32 0x6572206163636F756E742068617320696E73756666696369656E742048424152 PUSH1 0x40 DUP3 ADD MSTORE SWAP1 JUMP JUMPDEST POP POP PUSH1 0x40 MLOAD PUSH2 0x4278 DUP2 PUSH2 0x2F73 JUMP JUMPDEST PUSH1 0x31 DUP2 MSTORE PUSH32 0x494E53554646494349454E545F54585F464545202D204E6F7420656E6F756768 PUSH1 0x20 DUP3 ADD MSTORE PUSH17 0x819D85CCBD99959481C1C9BDD9A591959 PUSH1 0x7A SHL PUSH1 0x40 DUP3 ADD MSTORE SWAP1 JUMP JUMPDEST POP POP PUSH1 0x40 MLOAD PUSH2 0x42CD DUP2 PUSH2 0x2F07 JUMP JUMPDEST PUSH1 0x7 DUP2 MSTORE PUSH7 0x53554343455353 PUSH1 0xC8 SHL PUSH1 0x20 DUP3 ADD MSTORE SWAP1 JUMP JUMPDEST DUP1 ISZERO PUSH2 0x43A4 JUMPI DUP1 DUP2 PUSH1 0x0 SWAP3 JUMPDEST PUSH2 0x4390 JUMPI POP DUP1 PUSH2 0x42FF DUP4 PUSH2 0x2FAF JUMP JUMPDEST SWAP3 PUSH2 0x430D PUSH1 0x40 MLOAD SWAP5 DUP6 PUSH2 0x2F8E JUMP JUMPDEST DUP1 DUP5 MSTORE PUSH1 0x1F NOT PUSH2 0x431C DUP3 PUSH2 0x2FAF JUMP JUMPDEST ADD CALLDATASIZE PUSH1 0x20 DUP7 ADD CALLDATACOPY SWAP2 JUMPDEST PUSH2 0x432E JUMPI POP POP SWAP1 JUMP JUMPDEST PUSH1 0x0 NOT DUP3 ADD SWAP2 DUP1 DUP4 GT PUSH2 0x63D JUMPI DUP3 PUSH1 0xA SWAP1 DUP2 DUP5 DIV SWAP4 DUP3 DUP6 MUL SWAP3 DUP6 DUP5 DIV EQ DUP6 ISZERO OR ISZERO PUSH2 0x63D JUMPI PUSH2 0x4360 PUSH1 0xFF SWAP4 DUP5 SWAP3 PUSH2 0x35ED JUMP JUMPDEST AND PUSH1 0x30 ADD SWAP2 DUP3 GT PUSH2 0x63D JUMPI DUP6 MLOAD GT ISZERO PUSH2 0x31EC JUMPI PUSH1 0xF8 SHL PUSH1 0x1 PUSH1 0x1 PUSH1 0xF8 SHL SUB NOT AND PUSH1 0x0 BYTE SWAP1 DUP5 ADD PUSH1 0x1F ADD MSTORE8 DUP1 PUSH2 0x4325 JUMP JUMPDEST SWAP2 PUSH2 0x439C PUSH1 0xA SWAP2 PUSH2 0x35CB JUMP JUMPDEST SWAP3 DIV DUP1 PUSH2 0x42F0 JUMP JUMPDEST POP PUSH1 0x40 MLOAD PUSH2 0x43B1 DUP2 PUSH2 0x2F07 JUMP JUMPDEST PUSH1 0x1 DUP2 MSTORE PUSH1 0x3 PUSH1 0xFC SHL PUSH1 0x20 DUP3 ADD MSTORE SWAP1 JUMP JUMPDEST PUSH1 0xFF PUSH1 0x2 SLOAD AND ISZERO PUSH2 0x43CF JUMPI JUMP JUMPDEST PUSH1 0x40 MLOAD PUSH4 0x8DFC202B PUSH1 0xE0 SHL DUP2 MSTORE PUSH1 0x4 SWAP1 REVERT JUMPDEST ISZERO PUSH2 0x43E8 JUMPI JUMP JUMPDEST PUSH1 0x40 MLOAD PUSH3 0x461BCD PUSH1 0xE5 SHL DUP2 MSTORE PUSH1 0x20 PUSH1 0x4 DUP3 ADD MSTORE PUSH1 0x16 PUSH1 0x24 DUP3 ADD MSTORE PUSH22 0x1190D114881D1BDAD95B881B9BDD0818DC99585D1959 PUSH1 0x52 SHL PUSH1 0x44 DUP3 ADD MSTORE PUSH1 0x64 SWAP1 REVERT JUMPDEST ISZERO PUSH2 0x442D JUMPI JUMP JUMPDEST PUSH1 0x40 MLOAD PUSH3 0x461BCD PUSH1 0xE5 SHL DUP2 MSTORE PUSH1 0x20 PUSH1 0x4 DUP3 ADD MSTORE PUSH1 0xF PUSH1 0x24 DUP3 ADD MSTORE PUSH15 0x125B9D985B1A59081190D114881251 PUSH1 0x8A SHL PUSH1 0x44 DUP3 ADD MSTORE PUSH1 0x64 SWAP1 REVERT JUMPDEST MLOAD SWAP1 DUP2 PUSH1 0x3 SIGNEXTEND DUP3 SUB PUSH2 0x2F8 JUMPI JUMP JUMPDEST MLOAD SWAP1 DUP2 PUSH1 0x7 SIGNEXTEND DUP3 SUB PUSH2 0x2F8 JUMPI JUMP JUMPDEST SWAP2 SWAP1 PUSH1 0x40 SWAP2 DUP3 MLOAD SWAP1 PUSH1 0x20 SWAP5 DUP6 DUP4 ADD SWAP4 PUSH4 0x707A02CD PUSH1 0xE1 SHL DUP6 MSTORE PUSH1 0x84 DUP5 ADD SWAP2 PUSH1 0x1 DUP1 PUSH1 0xA0 SHL SUB AND PUSH1 0x24 DUP6 ADD MSTORE PUSH1 0x7 SIGNEXTEND PUSH1 0x44 DUP5 ADD MSTORE PUSH1 0x60 PUSH1 0x64 DUP5 ADD MSTORE DUP2 MLOAD DUP1 SWAP2 MSTORE PUSH1 0xA4 DUP4 ADD SWAP1 DUP7 PUSH1 0xA4 DUP3 PUSH1 0x5 SHL DUP7 ADD ADD SWAP4 ADD SWAP2 PUSH1 0x0 SWAP1 JUMPDEST DUP9 DUP4 DUP4 LT PUSH2 0x45E0 JUMPI POP POP POP POP POP SWAP2 DUP2 PUSH2 0x44FB PUSH1 0x0 SWAP5 SWAP4 DUP6 SWAP5 SUB PUSH1 0x1F NOT DUP2 ADD DUP4 MSTORE DUP3 PUSH2 0x2F8E JUMP JUMPDEST MLOAD SWAP1 DUP3 PUSH2 0x167 GAS CALL SWAP2 PUSH2 0x450C PUSH2 0x3631 JUMP JUMPDEST SWAP3 PUSH1 0x0 SWAP1 ISZERO PUSH2 0x45C1 JUMPI POP DUP3 MLOAD DUP4 ADD SWAP1 PUSH1 0x60 DUP5 DUP3 DUP5 ADD SWAP4 SUB SLT PUSH2 0x2F8 JUMPI PUSH2 0x4533 DUP2 DUP6 ADD PUSH2 0x4464 JUMP JUMPDEST SWAP2 PUSH2 0x453F DUP5 DUP7 ADD PUSH2 0x4472 JUMP JUMPDEST SWAP5 PUSH1 0x60 DUP2 ADD MLOAD SWAP1 PUSH1 0x1 PUSH1 0x1 PUSH1 0x40 SHL SUB DUP3 GT PUSH2 0x2F8 JUMPI ADD SWAP4 DUP2 PUSH1 0x3F DUP7 ADD SLT ISZERO PUSH2 0x2F8 JUMPI DUP3 DUP6 ADD MLOAD SWAP1 PUSH2 0x456F DUP3 PUSH2 0x32D3 JUMP JUMPDEST SWAP6 PUSH2 0x457C DUP3 MLOAD SWAP8 DUP9 PUSH2 0x2F8E JUMP JUMPDEST DUP3 DUP8 MSTORE DUP2 DUP6 DUP9 ADD SWAP4 PUSH1 0x5 SHL DUP3 ADD ADD SWAP4 DUP5 GT PUSH2 0x2F8 JUMPI ADD SWAP1 JUMPDEST DUP3 DUP3 LT PUSH2 0x45AA JUMPI POP POP POP POP SWAP2 SWAP1 JUMPDEST SWAP1 SWAP2 PUSH1 0x3 SIGNEXTEND SWAP3 JUMP JUMPDEST DUP4 DUP1 SWAP2 PUSH2 0x45B6 DUP5 PUSH2 0x4472 JUMP JUMPDEST DUP2 MSTORE ADD SWAP2 ADD SWAP1 PUSH2 0x4594 JUMP JUMPDEST SWAP3 POP POP MLOAD SWAP1 PUSH2 0x45CF DUP3 PUSH2 0x2F22 JUMP JUMPDEST DUP1 DUP3 MSTORE CALLDATASIZE DUP2 CALLDATACOPY PUSH1 0x15 SWAP1 PUSH1 0x0 SWAP1 PUSH2 0x45A2 JUMP JUMPDEST DUP1 PUSH2 0x45FB PUSH1 0x1 SWAP4 SWAP5 SWAP6 SWAP7 SWAP8 PUSH1 0xA3 NOT DUP11 DUP3 SUB ADD DUP7 MSTORE DUP9 MLOAD PUSH2 0x3042 JUMP JUMPDEST SWAP7 ADD SWAP3 ADD SWAP3 ADD SWAP1 SWAP3 SWAP2 PUSH2 0x44D5 JUMP JUMPDEST PUSH2 0x4611 PUSH2 0x3316 JUMP JUMPDEST POP PUSH1 0x4 PUSH1 0x0 MSTORE PUSH1 0x3 PUSH1 0x20 MSTORE PUSH32 0x83EC6A1F0257B830B5E016457C9CF1435391BF56CC98F369A58A54FE93772465 SLOAD SWAP1 PUSH2 0x4647 PUSH2 0x32EA JUMP JUMPDEST PUSH1 0x1 PUSH1 0x1 PUSH1 0xA0 SHL SUB SWAP1 SWAP2 AND PUSH1 0x20 DUP3 ADD MSTORE PUSH1 0x40 MLOAD SWAP2 PUSH2 0x4664 DUP4 PUSH2 0x2F07 JUMP JUMPDEST DUP3 MSTORE PUSH1 0x20 DUP3 ADD MSTORE SWAP1 JUMP INVALID RETURN 0xF7 0xA9 INVALID CALLDATASIZE 0x4F 0xAA 0xB9 EXTCODESIZE 0x21 PUSH14 0xA50A3214154F22A0A2B415B23A84 0xC8 AND SWAP15 DUP12 PUSH4 0x6EE36E15 BLOCKHASH OR SHL PUSH13 0xC960B71A7020D9F60077F6AF9 BALANCE 0xA8 0xBB CREATE2 SWAP1 0xDA MUL 0x23 0xDA 0xCF PUSH22 0xC7AFA2646970667358221220DF4D41FCCCE97E64859A PUSH7 0xC8D62F2167E94F LOG0 0xD4 JUMPI 0xCA COINBASE SWAP16 0x2E 0x26 0x5D DIV ADDRESS SWAP7 JUMP 0x21 PUSH5 0x736F6C6343 STOP ADDMOD EQ STOP CALLER "},"methodIdentifiers":{"FEE_BPS()":"bf333f2c","FEE_DENOMINATOR()":"d73792a9","MIN_LIQUIDITY()":"21b77d63","addLiquidity(uint256,uint256,uint256)":"422f1043","addLiquidityWithUSD(uint256,uint256,uint256)":"545466a5","burnFCDR(uint256)":"734c79b6","calculateCSLPFromUSD(uint256,uint256)":"b79c41a2","calculateHBAR(uint256)":"34111bbf","calculateLPTokens(uint256)":"42c649de","createFCDRToken()":"bc031c52","createLPToken(string,string)":"4edec1ff","emergencyWithdraw()":"db2e21bc","fcdrMetadata(uint256)":"38b37d1c","fcdrToken()":"0a5579d1","getErrorMessage(int32)":"be591129","getFCDRMetadata(uint256)":"4ddd1c54","getOwnerFCDRs(address)":"1cf2e698","getPoolInfo()":"60246c88","getPurchaseMetadata(uint256)":"240f1b62","getTokenInfo()":"abb1dc44","getTotalFCDRs()":"32acf78b","getTotalPurchases()":"ea04f155","getUserPurchases(address)":"c6e5d8f6","getUserShare(address)":"bbbaee4c","getUserValue(address)":"a78c849b","getValuePerLPToken()":"2fb9125d","initializePool()":"250e6de0","isTokenCreated()":"185c112a","lpToken()":"5fcbd285","owner()":"8da5cb5b","ownerFCDRs(address,uint256)":"7d56be3c","pause()":"8456cb59","paused()":"5c975abb","purchaseMetadata(uint256)":"3474d1f9","redirectForToken(address,bytes)":"618dc65e","removeLiquidity(uint256,uint256)":"9d7de6b3","renounceOwnership()":"715018a6","tokenInfo()":"6addb663","totalFCDRs()":"a7112efe","totalHBAR()":"28999437","totalLPTokens()":"ef6283d9","totalPurchases()":"5962a941","totalValue()":"d4c3eea0","transferFrom(address,address,address,uint256)":"15dacbea","transferFromNFT(address,address,address,uint256)":"9b23d3d9","transferOwnership(address)":"f2fde38b","unpause()":"3f4ba83a","userPurchases(address,uint256)":"cf2c0334"}}}}}