{"contracts/CDR/AcrossCarbonRetirementReceiver.sol":{"AcrossCarbonRetirementReceiver":{"abi":[{"inputs":[{"internalType":"address","name":"_klimaAggregator","type":"address"},{"internalType":"address","name":"_usdc","type":"address"},{"internalType":"address","name":"_defaultPoolToken","type":"address"},{"internalType":"address","name":"_multicallHandler","type":"address"}],"stateMutability":"nonpayable","type":"constructor"},{"inputs":[{"internalType":"address","name":"owner","type":"address"}],"name":"OwnableInvalidOwner","type":"error"},{"inputs":[{"internalType":"address","name":"account","type":"address"}],"name":"OwnableUnauthorizedAccount","type":"error"},{"inputs":[],"name":"ReentrancyGuardReentrantCall","type":"error"},{"anonymous":false,"inputs":[{"indexed":true,"internalType":"address","name":"previousOwner","type":"address"},{"indexed":true,"internalType":"address","name":"newOwner","type":"address"}],"name":"OwnershipTransferred","type":"event"},{"anonymous":false,"inputs":[{"indexed":true,"internalType":"address","name":"beneficiary","type":"address"},{"indexed":false,"internalType":"string","name":"beneficiaryName","type":"string"},{"indexed":false,"internalType":"address","name":"poolToken","type":"address"},{"indexed":false,"internalType":"uint256","name":"usdcAmount","type":"uint256"},{"indexed":false,"internalType":"uint256","name":"carbonAmount","type":"uint256"}],"name":"RetirementExecuted","type":"event"},{"anonymous":false,"inputs":[{"indexed":true,"internalType":"address","name":"beneficiary","type":"address"},{"indexed":false,"internalType":"address","name":"poolToken","type":"address"},{"indexed":false,"internalType":"uint256","name":"usdcAmount","type":"uint256"},{"indexed":false,"internalType":"string","name":"reason","type":"string"}],"name":"RetirementFailed","type":"event"},{"inputs":[],"name":"DEFAULT_POOL_TOKEN","outputs":[{"internalType":"address","name":"","type":"address"}],"stateMutability":"view","type":"function"},{"inputs":[],"name":"KLIMA_AGGREGATOR","outputs":[{"internalType":"address","name":"","type":"address"}],"stateMutability":"view","type":"function"},{"inputs":[],"name":"MULTICALL_HANDLER_ADDRESS","outputs":[{"internalType":"address","name":"","type":"address"}],"stateMutability":"view","type":"function"},{"inputs":[],"name":"USDC_TOKEN","outputs":[{"internalType":"address","name":"","type":"address"}],"stateMutability":"view","type":"function"},{"inputs":[{"internalType":"address","name":"recipient","type":"address"},{"internalType":"uint256","name":"amount","type":"uint256"},{"internalType":"bytes","name":"message","type":"bytes"}],"name":"handleAcrossTransfer","outputs":[],"stateMutability":"nonpayable","type":"function"},{"inputs":[{"internalType":"uint256","name":"usdcAmount","type":"uint256"},{"internalType":"address","name":"beneficiary","type":"address"},{"internalType":"string","name":"beneficiaryName","type":"string"},{"internalType":"address","name":"poolToken","type":"address"}],"name":"manualRetire","outputs":[],"stateMutability":"nonpayable","type":"function"},{"inputs":[],"name":"owner","outputs":[{"internalType":"address","name":"","type":"address"}],"stateMutability":"view","type":"function"},{"inputs":[],"name":"recoverEth","outputs":[],"stateMutability":"nonpayable","type":"function"},{"inputs":[{"internalType":"address","name":"token","type":"address"},{"internalType":"uint256","name":"amount","type":"uint256"}],"name":"recoverTokens","outputs":[],"stateMutability":"nonpayable","type":"function"},{"inputs":[],"name":"renounceOwnership","outputs":[],"stateMutability":"nonpayable","type":"function"},{"inputs":[{"internalType":"address","name":"operator","type":"address"},{"internalType":"address","name":"from","type":"address"},{"internalType":"address","name":"to","type":"address"},{"internalType":"uint256","name":"amount","type":"uint256"},{"internalType":"bytes","name":"userData","type":"bytes"},{"internalType":"bytes","name":"operatorData","type":"bytes"}],"name":"tokensReceived","outputs":[],"stateMutability":"nonpayable","type":"function"},{"inputs":[{"internalType":"address","name":"newOwner","type":"address"}],"name":"transferOwnership","outputs":[],"stateMutability":"nonpayable","type":"function"},{"inputs":[{"internalType":"bytes","name":"data","type":"bytes"}],"name":"tryAbiDecode","outputs":[{"internalType":"address","name":"beneficiary","type":"address"},{"internalType":"string","name":"beneficiaryName","type":"string"},{"internalType":"address","name":"poolToken","type":"address"}],"stateMutability":"pure","type":"function"},{"stateMutability":"payable","type":"receive"}],"evm":{"bytecode":{"linkReferences":{},"object":"6101006040523480156200001257600080fd5b5060405162001fec38038062001fec8339810160408190526200003591620002de565b33806200005d57604051631e4fbdf760e01b8152600060048201526024015b60405180910390fd5b620000688162000271565b50600180556001600160a01b038416620000b55760405162461bcd60e51b815260206004820152600d60248201526c696e76616c6964206b6c696d6160981b604482015260640162000054565b6001600160a01b038316620000fc5760405162461bcd60e51b815260206004820152600c60248201526b696e76616c6964207573646360a01b604482015260640162000054565b6001600160a01b038216620001435760405162461bcd60e51b815260206004820152600c60248201526b1a5b9d985b1a59081c1bdbdb60a21b604482015260640162000054565b6001600160a01b03848116608081905284821660a081905284831660c05291831660e05260405163095ea7b360e01b81526004810191909152600019602482015263095ea7b3906044016020604051808303816000875af1158015620001ad573d6000803e3d6000fd5b505050506040513d601f19601f82011682018060405250810190620001d391906200033b565b506040516329965a1d60e01b815230600482018190527fb281fc8c12954d22544db45de3159a39272895b169a852b314f9cc762e44c53b60248301526044820152731820a4b7618bde71dce8cdc73aab6c95905fad24906329965a1d90606401600060405180830381600087803b1580156200024e57600080fd5b505af115801562000263573d6000803e3d6000fd5b505050505050505062000366565b600080546001600160a01b038381166001600160a01b0319831681178455604051919092169283917f8be0079c531659141344cd1fd0a4f28419497f9722a3daafe3b4186f6b6457e09190a35050565b80516001600160a01b0381168114620002d957600080fd5b919050565b60008060008060808587031215620002f557600080fd5b6200030085620002c1565b93506200031060208601620002c1565b92506200032060408601620002c1565b91506200033060608601620002c1565b905092959194509250565b6000602082840312156200034e57600080fd5b815180151581146200035f57600080fd5b9392505050565b60805160a05160c05160e051611c1b620003d1600039600081816101fc01526105d701526000818161015d01528181610340015261099e0152600081816102b90152818161047a015281816106a50152610a0e01526000818161026501526109d70152611c1b6000f3fe6080604052600436106100c55760003560e01c80638da5cb5b1161007f578063d4d0f98411610059578063d4d0f98414610233578063db3ac0ce14610253578063f2fde38b14610287578063fa569274146102a757600080fd5b80638da5cb5b146101cc5780639df875f0146101ea578063bcdb446b1461021e57600080fd5b806223de29146100d1578063069c9fae146100f35780632254528f1461011357806335e860701461014b57806340429fe114610197578063715018a6146101b757600080fd5b366100cc57005b600080fd5b3480156100dd57600080fd5b506100f16100ec3660046114c6565b6102db565b005b3480156100ff57600080fd5b506100f161010e366004611577565b610383565b34801561011f57600080fd5b5061013361012e3660046115a3565b610433565b60405161014293929190611635565b60405180910390f35b34801561015757600080fd5b5061017f7f000000000000000000000000000000000000000000000000000000000000000081565b6040516001600160a01b039091168152602001610142565b3480156101a357600080fd5b506100f16101b2366004611731565b610452565b3480156101c357600080fd5b506100f161055c565b3480156101d857600080fd5b506000546001600160a01b031661017f565b3480156101f657600080fd5b5061017f7f000000000000000000000000000000000000000000000000000000000000000081565b34801561022a57600080fd5b506100f1610570565b34801561023f57600080fd5b506100f161024e36600461179d565b6105c4565b34801561025f57600080fd5b5061017f7f000000000000000000000000000000000000000000000000000000000000000081565b34801561029357600080fd5b506100f16102a23660046117f9565b610794565b3480156102b357600080fd5b5061017f7f000000000000000000000000000000000000000000000000000000000000000081565b6102e36107d2565b306001600160a01b0387160361037057600060608185156103145761030887876107fc565b91945092509050610360565b505060408051808201909152600e81526d27b33339b2ba2d30b8102ab9b2b960911b60208201528891507f00000000000000000000000000000000000000000000000000000000000000005b61036c888484846109c8565b5050505b61037960018055565b5050505050505050565b61038b610bc5565b6103936107d2565b816001600160a01b031663a9059cbb6103b46000546001600160a01b031690565b6040516001600160e01b031960e084901b1681526001600160a01b039091166004820152602481018490526044016020604051808303816000875af1158015610401573d6000803e3d6000fd5b505050506040513d601f19601f82011682018060405250810190610425919061181d565b5061042f60018055565b5050565b60006060816104448486018661183f565b9250925092505b9250925092565b61045a610bc5565b6104626107d2565b6040516370a0823160e01b81523060048201526000907f00000000000000000000000000000000000000000000000000000000000000006001600160a01b0316906370a0823190602401602060405180830381865afa1580156104c9573d6000803e3d6000fd5b505050506040513d601f19601f820116820180604052508101906104ed91906118a3565b9050848110156105405760405162461bcd60e51b8152602060048201526019602482015278496e73756666696369656e7420555344432062616c616e636560381b60448201526064015b60405180910390fd5b61054c858585856109c8565b5061055660018055565b50505050565b610564610bc5565b61056e6000610bf2565b565b610578610bc5565b6105806107d2565b600080546040516001600160a01b03909116914780156108fc02929091818181858888f193505050501580156105ba573d6000803e3d6000fd5b5061056e60018055565b6105cc6107d2565b336001600160a01b037f000000000000000000000000000000000000000000000000000000000000000016146106355760405162461bcd60e51b815260206004820152600e60248201526d13db9b1e481b5d5b1d1a58d85b1b60921b6044820152606401610537565b6001600160a01b038416301461068d5760405162461bcd60e51b815260206004820152601f60248201527f526563697069656e74206d757374206265207468697320636f6e7472616374006044820152606401610537565b6040516370a0823160e01b81523060048201526000907f00000000000000000000000000000000000000000000000000000000000000006001600160a01b0316906370a0823190602401602060405180830381865afa1580156106f4573d6000803e3d6000fd5b505050506040513d601f19601f8201168201806040525081019061071891906118a3565b9050838110156107665760405162461bcd60e51b8152602060048201526019602482015278496e73756666696369656e7420555344432062616c616e636560381b6044820152606401610537565b600080600061077586866107fc565b925092509250610787878484846109c8565b5050505061055660018055565b61079c610bc5565b6001600160a01b0381166107c657604051631e4fbdf760e01b815260006004820152602401610537565b6107cf81610bf2565b50565b6002600154036107f557604051633ee5aeb560e01b815260040160405180910390fd5b6002600155565b600060608181841061087c57604051632254528f60e01b81523090632254528f9061082d90889088906004016118bc565b600060405180830381865afa92505050801561086b57506040513d6000823e601f3d908101601f1916820160405261086891908101906118eb565b60015b1561087c579194509250905061044b565b600085858080601f0160208091040260200160405190810160405280939291908181526020018383808284376000920191909152505060408051808201909152600b81526a62656e656669636961727960a81b60208201529293506108e5928492509050610c42565b9350610918816040518060400160405280600f81526020016e62656e65666963696172794e616d6560881b815250610f0c565b925061094581604051806040016040528060098152602001683837b7b62a37b5b2b760b91b815250610c42565b91506001600160a01b03841661095b5761dead93505b825160000361098e576040518060400160405280600e81526020016d27b33339b2ba2d30b8102ab9b2b960911b81525092505b6001600160a01b0382166109c0577f000000000000000000000000000000000000000000000000000000000000000091505b509250925092565b604051636fb9367f60e11b81527f0000000000000000000000000000000000000000000000000000000000000000906001600160a01b0382169063df726cfe90610a41907f00000000000000000000000000000000000000000000000000000000000000009086908a908a908a9060009060040161198c565b6020604051808303816000875af1925050508015610a7c575060408051601f3d908101601f19168201909252610a79918101906118a3565b60015b610b7557610a88611a3a565b806308c379a003610af25750610a9c611a56565b80610aa75750610af4565b846001600160a01b03167fd80252b4823cfb933240fde61f4f459729a50f971c0c76746e264117496d5e94848884604051610ae493929190611ae0565b60405180910390a250610bbe565b505b836001600160a01b03167fd80252b4823cfb933240fde61f4f459729a50f971c0c76746e264117496d5e948387604051610b689291906001600160a01b039290921682526020820152606060408201819052600d908201526c2ab735b737bbb71032b93937b960991b608082015260a00190565b60405180910390a2610bbe565b846001600160a01b03167f9844159a631815b14cd3c5871074053d7610ffe1a6a016d77b7524e53c41af9a85858985604051610bb49493929190611b10565b60405180910390a2505b5050505050565b6000546001600160a01b0316331461056e5760405163118cdaa760e01b8152336004820152602401610537565b600080546001600160a01b038381166001600160a01b0319831681178455604051919092169283917f8be0079c531659141344cd1fd0a4f28419497f9722a3daafe3b4186f6b6457e09190a35050565b600080610c4f8484610f0c565b90508051600003610c64576000915050610f06565b80518190600090828282610c7a57610c7a611b48565b01602001516001600160f81b031916601160f91b03610c9857600191505b82610ca4600183611b74565b81518110610cb457610cb4611b48565b01602001516001600160f81b031916601160f91b03610cdb57610cd8600182611b74565b90505b6002610ce78383611b74565b10158015610d195750828281518110610d0257610d02611b48565b6020910101516001600160f81b031916600360fc1b145b8015610d53575082610d2c836001611b87565b81518110610d3c57610d3c611b48565b6020910101516001600160f81b031916600f60fb1b145b15610d6657610d63826002611b87565b91505b6040805160148082528183019092526000916020820181803683370190505090506000835b8381108015610d9a5750601482105b15610e585783610dab826001611b87565b1015610e46576000610ddc878381518110610dc857610dc8611b48565b01602001516001600160f81b03191661124e565b90506000610dff88610def856001611b87565b81518110610dc857610dc8611b48565b9050610ff0600483901b16811760f81b8585610e1a81611b9a565b965081518110610e2c57610e2c611b48565b60200101906001600160f81b031916908160001a90535050505b610e51600282611b87565b9050610d8b565b5060408051602080825281830190925260009160208201818036833701905050905060005b601481108015610e8d5750835181105b15610ef857838181518110610ea457610ea4611b48565b01602001516001600160f81b03191682610ebf83600c611b87565b81518110610ecf57610ecf611b48565b60200101906001600160f81b031916908160001a90535080610ef081611b9a565b915050610e7d565b506020015196505050505050505b92915050565b606082826000610f1c8383611385565b90506000198103610f4157604051806020016040528060008152509350505050610f06565b6000825182610f509190611b87565b90505b835181108015610f885750838181518110610f7057610f70611b48565b6020910101516001600160f81b031916601d60f91b14155b15610f9f5780610f9781611b9a565b915050610f53565b83518110610fc25760405180602001604052806000815250945050505050610f06565b80610fcc81611b9a565b9150505b8351811080156110325750838181518110610fed57610fed611b48565b6020910101516001600160f81b031916600160fd1b1480611032575083818151811061101b5761101b611b48565b6020910101516001600160f81b031916600960f81b145b15611049578061104181611b9a565b915050610fd0565b835181908110801561107f575084818151811061106857611068611b48565b6020910101516001600160f81b031916601160f91b145b15611092578061108e81611b9a565b9150505b805b855181101561117a578581815181106110af576110af611b48565b6020910101516001600160f81b031916601160f91b1480156111095750818114806111095750856110e1600183611b74565b815181106110f1576110f1611b48565b6020910101516001600160f81b031916601760fa1b14155b61117a5785818151811061111f5761111f611b48565b6020910101516001600160f81b031916600b60fa1b1480611164575085818151811061114d5761114d611b48565b6020910101516001600160f81b031916607d60f81b145b61117a578061117281611b9a565b915050611094565b60006111868383611b74565b67ffffffffffffffff81111561119e5761119e61166a565b6040519080825280601f01601f1916602001820160405280156111c8576020820181803683370190505b50905060005b6111d88484611b74565b81101561124057876111ea8286611b87565b815181106111fa576111fa611b48565b602001015160f81c60f81b82828151811061121757611217611b48565b60200101906001600160f81b031916908160001a9053508061123881611b9a565b9150506111ce565b509998505050505050505050565b6000600360fc1b603960f81b606160f81b603360f91b604160f81b602360f91b6001600160f81b03198816861180159061129557506001600160f81b031980861690891611155b156112b8578560f81c8860f81c6112ac9190611bb3565b98975050505050505050565b6001600160f81b0319808516908916108015906112e257506001600160f81b031980841690891611155b15611304578360f81c8860f81c6112f99190611bb3565b6112ac90600a611bcc565b6001600160f81b03198083169089161080159061132e57506001600160f81b031980821690891611155b15611345578160f81c8860f81c6112f99190611bb3565b60405162461bcd60e51b815260206004820152601560248201527424b73b30b634b2103432bc1031b430b930b1ba32b960591b6044820152606401610537565b6000815160000361139857506000610f06565b8251825111156113ab5750600019610f06565b60005b825184516113bc9190611b74565b811161145d57600160005b845181101561143b578481815181106113e2576113e2611b48565b01602001516001600160f81b031916866113fc8386611b87565b8151811061140c5761140c611b48565b01602001516001600160f81b03191614611429576000915061143b565b8061143381611b9a565b9150506113c7565b50801561144a57509050610f06565b508061145581611b9a565b9150506113ae565b506000199392505050565b6001600160a01b03811681146107cf57600080fd5b60008083601f84011261148f57600080fd5b50813567ffffffffffffffff8111156114a757600080fd5b6020830191508360208285010111156114bf57600080fd5b9250929050565b60008060008060008060008060c0898b0312156114e257600080fd5b88356114ed81611468565b975060208901356114fd81611468565b9650604089013561150d81611468565b955060608901359450608089013567ffffffffffffffff8082111561153157600080fd5b61153d8c838d0161147d565b909650945060a08b013591508082111561155657600080fd5b506115638b828c0161147d565b999c989b5096995094979396929594505050565b6000806040838503121561158a57600080fd5b823561159581611468565b946020939093013593505050565b600080602083850312156115b657600080fd5b823567ffffffffffffffff8111156115cd57600080fd5b6115d98582860161147d565b90969095509350505050565b60005b838110156116005781810151838201526020016115e8565b50506000910152565b600081518084526116218160208601602086016115e5565b601f01601f19169290920160200192915050565b600060018060a01b038086168352606060208401526116576060840186611609565b9150808416604084015250949350505050565b634e487b7160e01b600052604160045260246000fd5b601f8201601f1916810167ffffffffffffffff811182821017156116a6576116a661166a565b6040525050565b600067ffffffffffffffff8211156116c7576116c761166a565b50601f01601f191660200190565b600082601f8301126116e657600080fd5b81356116f1816116ad565b6040516116fe8282611680565b82815285602084870101111561171357600080fd5b82602086016020830137600092810160200192909252509392505050565b6000806000806080858703121561174757600080fd5b84359350602085013561175981611468565b9250604085013567ffffffffffffffff81111561177557600080fd5b611781878288016116d5565b925050606085013561179281611468565b939692955090935050565b600080600080606085870312156117b357600080fd5b84356117be81611468565b935060208501359250604085013567ffffffffffffffff8111156117e157600080fd5b6117ed8782880161147d565b95989497509550505050565b60006020828403121561180b57600080fd5b813561181681611468565b9392505050565b60006020828403121561182f57600080fd5b8151801515811461181657600080fd5b60008060006060848603121561185457600080fd5b833561185f81611468565b9250602084013567ffffffffffffffff81111561187b57600080fd5b611887868287016116d5565b925050604084013561189881611468565b809150509250925092565b6000602082840312156118b557600080fd5b5051919050565b60208152816020820152818360408301376000818301604090810191909152601f909201601f19160101919050565b60008060006060848603121561190057600080fd5b835161190b81611468565b602085015190935067ffffffffffffffff81111561192857600080fd5b8401601f8101861361193957600080fd5b8051611944816116ad565b6040516119518282611680565b82815288602084860101111561196657600080fd5b6119778360208301602087016115e5565b80955050505050604084015161189881611468565b6001600160a01b038781168252868116602083015260408201869052610100606083018190526009908301526804f66667365745a61760bc1b6101208301528416608082015261014060a082018190526000906119eb81840186611609565b905082810360c0840152601b81527f436172626f6e206f666673657420766961204f66667365745a6170000000000060208201526040810191505060ff831660e0830152979650505050505050565b600060033d1115611a535760046000803e5060005160e01c5b90565b600060443d1015611a645790565b6040516003193d81016004833e81513d67ffffffffffffffff8160248401118184111715611a9457505050505090565b8285019150815181811115611aac5750505050505090565b843d8701016020828501011115611ac65750505050505090565b611ad560208286010187611680565b509095945050505050565b60018060a01b0384168152826020820152606060408201526000611b076060830184611609565b95945050505050565b608081526000611b236080830187611609565b6001600160a01b03959095166020830152506040810192909252606090910152919050565b634e487b7160e01b600052603260045260246000fd5b634e487b7160e01b600052601160045260246000fd5b81810381811115610f0657610f06611b5e565b80820180821115610f0657610f06611b5e565b600060018201611bac57611bac611b5e565b5060010190565b60ff8281168282160390811115610f0657610f06611b5e565b60ff8181168382160190811115610f0657610f06611b5e56fea26469706673582212206486a75c7c0878a0e8a8b448afd599986e0a9450d3293f4ed36280a10a881eb364736f6c63430008140033","opcodes":"PUSH2 0x100 PUSH1 0x40 MSTORE CALLVALUE DUP1 ISZERO PUSH3 0x12 JUMPI PUSH1 0x0 DUP1 REVERT JUMPDEST POP PUSH1 0x40 MLOAD PUSH3 0x1FEC CODESIZE SUB DUP1 PUSH3 0x1FEC DUP4 CODECOPY DUP2 ADD PUSH1 0x40 DUP2 SWAP1 MSTORE PUSH3 0x35 SWAP2 PUSH3 0x2DE JUMP JUMPDEST CALLER DUP1 PUSH3 0x5D JUMPI PUSH1 0x40 MLOAD PUSH4 0x1E4FBDF7 PUSH1 0xE0 SHL DUP2 MSTORE PUSH1 0x0 PUSH1 0x4 DUP3 ADD MSTORE PUSH1 0x24 ADD JUMPDEST PUSH1 0x40 MLOAD DUP1 SWAP2 SUB SWAP1 REVERT JUMPDEST PUSH3 0x68 DUP2 PUSH3 0x271 JUMP JUMPDEST POP PUSH1 0x1 DUP1 SSTORE PUSH1 0x1 PUSH1 0x1 PUSH1 0xA0 SHL SUB DUP5 AND PUSH3 0xB5 JUMPI PUSH1 0x40 MLOAD PUSH3 0x461BCD PUSH1 0xE5 SHL DUP2 MSTORE PUSH1 0x20 PUSH1 0x4 DUP3 ADD MSTORE PUSH1 0xD PUSH1 0x24 DUP3 ADD MSTORE PUSH13 0x696E76616C6964206B6C696D61 PUSH1 0x98 SHL PUSH1 0x44 DUP3 ADD MSTORE PUSH1 0x64 ADD PUSH3 0x54 JUMP JUMPDEST PUSH1 0x1 PUSH1 0x1 PUSH1 0xA0 SHL SUB DUP4 AND PUSH3 0xFC JUMPI PUSH1 0x40 MLOAD PUSH3 0x461BCD PUSH1 0xE5 SHL DUP2 MSTORE PUSH1 0x20 PUSH1 0x4 DUP3 ADD MSTORE PUSH1 0xC PUSH1 0x24 DUP3 ADD MSTORE PUSH12 0x696E76616C69642075736463 PUSH1 0xA0 SHL PUSH1 0x44 DUP3 ADD MSTORE PUSH1 0x64 ADD PUSH3 0x54 JUMP JUMPDEST PUSH1 0x1 PUSH1 0x1 PUSH1 0xA0 SHL SUB DUP3 AND PUSH3 0x143 JUMPI PUSH1 0x40 MLOAD PUSH3 0x461BCD PUSH1 0xE5 SHL DUP2 MSTORE PUSH1 0x20 PUSH1 0x4 DUP3 ADD MSTORE PUSH1 0xC PUSH1 0x24 DUP3 ADD MSTORE PUSH12 0x1A5B9D985B1A59081C1BDBDB PUSH1 0xA2 SHL PUSH1 0x44 DUP3 ADD MSTORE PUSH1 0x64 ADD PUSH3 0x54 JUMP JUMPDEST PUSH1 0x1 PUSH1 0x1 PUSH1 0xA0 SHL SUB DUP5 DUP2 AND PUSH1 0x80 DUP2 SWAP1 MSTORE DUP5 DUP3 AND PUSH1 0xA0 DUP2 SWAP1 MSTORE DUP5 DUP4 AND PUSH1 0xC0 MSTORE SWAP2 DUP4 AND PUSH1 0xE0 MSTORE PUSH1 0x40 MLOAD PUSH4 0x95EA7B3 PUSH1 0xE0 SHL DUP2 MSTORE PUSH1 0x4 DUP2 ADD SWAP2 SWAP1 SWAP2 MSTORE PUSH1 0x0 NOT PUSH1 0x24 DUP3 ADD MSTORE PUSH4 0x95EA7B3 SWAP1 PUSH1 0x44 ADD PUSH1 0x20 PUSH1 0x40 MLOAD DUP1 DUP4 SUB DUP2 PUSH1 0x0 DUP8 GAS CALL ISZERO DUP1 ISZERO PUSH3 0x1AD JUMPI RETURNDATASIZE PUSH1 0x0 DUP1 RETURNDATACOPY RETURNDATASIZE PUSH1 0x0 REVERT JUMPDEST POP POP POP POP PUSH1 0x40 MLOAD RETURNDATASIZE PUSH1 0x1F NOT PUSH1 0x1F DUP3 ADD AND DUP3 ADD DUP1 PUSH1 0x40 MSTORE POP DUP2 ADD SWAP1 PUSH3 0x1D3 SWAP2 SWAP1 PUSH3 0x33B JUMP JUMPDEST POP PUSH1 0x40 MLOAD PUSH4 0x29965A1D PUSH1 0xE0 SHL DUP2 MSTORE ADDRESS PUSH1 0x4 DUP3 ADD DUP2 SWAP1 MSTORE PUSH32 0xB281FC8C12954D22544DB45DE3159A39272895B169A852B314F9CC762E44C53B PUSH1 0x24 DUP4 ADD MSTORE PUSH1 0x44 DUP3 ADD MSTORE PUSH20 0x1820A4B7618BDE71DCE8CDC73AAB6C95905FAD24 SWAP1 PUSH4 0x29965A1D SWAP1 PUSH1 0x64 ADD PUSH1 0x0 PUSH1 0x40 MLOAD DUP1 DUP4 SUB DUP2 PUSH1 0x0 DUP8 DUP1 EXTCODESIZE ISZERO DUP1 ISZERO PUSH3 0x24E JUMPI PUSH1 0x0 DUP1 REVERT JUMPDEST POP GAS CALL ISZERO DUP1 ISZERO PUSH3 0x263 JUMPI RETURNDATASIZE PUSH1 0x0 DUP1 RETURNDATACOPY RETURNDATASIZE PUSH1 0x0 REVERT JUMPDEST POP POP POP POP POP POP POP POP PUSH3 0x366 JUMP JUMPDEST PUSH1 0x0 DUP1 SLOAD PUSH1 0x1 PUSH1 0x1 PUSH1 0xA0 SHL SUB DUP4 DUP2 AND PUSH1 0x1 PUSH1 0x1 PUSH1 0xA0 SHL SUB NOT DUP4 AND DUP2 OR DUP5 SSTORE PUSH1 0x40 MLOAD SWAP2 SWAP1 SWAP3 AND SWAP3 DUP4 SWAP2 PUSH32 0x8BE0079C531659141344CD1FD0A4F28419497F9722A3DAAFE3B4186F6B6457E0 SWAP2 SWAP1 LOG3 POP POP JUMP JUMPDEST DUP1 MLOAD PUSH1 0x1 PUSH1 0x1 PUSH1 0xA0 SHL SUB DUP2 AND DUP2 EQ PUSH3 0x2D9 JUMPI PUSH1 0x0 DUP1 REVERT JUMPDEST SWAP2 SWAP1 POP JUMP JUMPDEST PUSH1 0x0 DUP1 PUSH1 0x0 DUP1 PUSH1 0x80 DUP6 DUP8 SUB SLT ISZERO PUSH3 0x2F5 JUMPI PUSH1 0x0 DUP1 REVERT JUMPDEST PUSH3 0x300 DUP6 PUSH3 0x2C1 JUMP JUMPDEST SWAP4 POP PUSH3 0x310 PUSH1 0x20 DUP7 ADD PUSH3 0x2C1 JUMP JUMPDEST SWAP3 POP PUSH3 0x320 PUSH1 0x40 DUP7 ADD PUSH3 0x2C1 JUMP JUMPDEST SWAP2 POP PUSH3 0x330 PUSH1 0x60 DUP7 ADD PUSH3 0x2C1 JUMP JUMPDEST SWAP1 POP SWAP3 SWAP6 SWAP2 SWAP5 POP SWAP3 POP JUMP JUMPDEST PUSH1 0x0 PUSH1 0x20 DUP3 DUP5 SUB SLT ISZERO PUSH3 0x34E JUMPI PUSH1 0x0 DUP1 REVERT JUMPDEST DUP2 MLOAD DUP1 ISZERO ISZERO DUP2 EQ PUSH3 0x35F JUMPI PUSH1 0x0 DUP1 REVERT JUMPDEST SWAP4 SWAP3 POP POP POP JUMP JUMPDEST PUSH1 0x80 MLOAD PUSH1 0xA0 MLOAD PUSH1 0xC0 MLOAD PUSH1 0xE0 MLOAD PUSH2 0x1C1B PUSH3 0x3D1 PUSH1 0x0 CODECOPY PUSH1 0x0 DUP2 DUP2 PUSH2 0x1FC ADD MSTORE PUSH2 0x5D7 ADD MSTORE PUSH1 0x0 DUP2 DUP2 PUSH2 0x15D ADD MSTORE DUP2 DUP2 PUSH2 0x340 ADD MSTORE PUSH2 0x99E ADD MSTORE PUSH1 0x0 DUP2 DUP2 PUSH2 0x2B9 ADD MSTORE DUP2 DUP2 PUSH2 0x47A ADD MSTORE DUP2 DUP2 PUSH2 0x6A5 ADD MSTORE PUSH2 0xA0E ADD MSTORE PUSH1 0x0 DUP2 DUP2 PUSH2 0x265 ADD MSTORE PUSH2 0x9D7 ADD MSTORE PUSH2 0x1C1B PUSH1 0x0 RETURN INVALID PUSH1 0x80 PUSH1 0x40 MSTORE PUSH1 0x4 CALLDATASIZE LT PUSH2 0xC5 JUMPI PUSH1 0x0 CALLDATALOAD PUSH1 0xE0 SHR DUP1 PUSH4 0x8DA5CB5B GT PUSH2 0x7F JUMPI DUP1 PUSH4 0xD4D0F984 GT PUSH2 0x59 JUMPI DUP1 PUSH4 0xD4D0F984 EQ PUSH2 0x233 JUMPI DUP1 PUSH4 0xDB3AC0CE EQ PUSH2 0x253 JUMPI DUP1 PUSH4 0xF2FDE38B EQ PUSH2 0x287 JUMPI DUP1 PUSH4 0xFA569274 EQ PUSH2 0x2A7 JUMPI PUSH1 0x0 DUP1 REVERT JUMPDEST DUP1 PUSH4 0x8DA5CB5B EQ PUSH2 0x1CC JUMPI DUP1 PUSH4 0x9DF875F0 EQ PUSH2 0x1EA JUMPI DUP1 PUSH4 0xBCDB446B EQ PUSH2 0x21E JUMPI PUSH1 0x0 DUP1 REVERT JUMPDEST DUP1 PUSH3 0x23DE29 EQ PUSH2 0xD1 JUMPI DUP1 PUSH4 0x69C9FAE EQ PUSH2 0xF3 JUMPI DUP1 PUSH4 0x2254528F EQ PUSH2 0x113 JUMPI DUP1 PUSH4 0x35E86070 EQ PUSH2 0x14B JUMPI DUP1 PUSH4 0x40429FE1 EQ PUSH2 0x197 JUMPI DUP1 PUSH4 0x715018A6 EQ PUSH2 0x1B7 JUMPI PUSH1 0x0 DUP1 REVERT JUMPDEST CALLDATASIZE PUSH2 0xCC JUMPI STOP JUMPDEST PUSH1 0x0 DUP1 REVERT JUMPDEST CALLVALUE DUP1 ISZERO PUSH2 0xDD JUMPI PUSH1 0x0 DUP1 REVERT JUMPDEST POP PUSH2 0xF1 PUSH2 0xEC CALLDATASIZE PUSH1 0x4 PUSH2 0x14C6 JUMP JUMPDEST PUSH2 0x2DB JUMP JUMPDEST STOP JUMPDEST CALLVALUE DUP1 ISZERO PUSH2 0xFF JUMPI PUSH1 0x0 DUP1 REVERT JUMPDEST POP PUSH2 0xF1 PUSH2 0x10E CALLDATASIZE PUSH1 0x4 PUSH2 0x1577 JUMP JUMPDEST PUSH2 0x383 JUMP JUMPDEST CALLVALUE DUP1 ISZERO PUSH2 0x11F JUMPI PUSH1 0x0 DUP1 REVERT JUMPDEST POP PUSH2 0x133 PUSH2 0x12E CALLDATASIZE PUSH1 0x4 PUSH2 0x15A3 JUMP JUMPDEST PUSH2 0x433 JUMP JUMPDEST PUSH1 0x40 MLOAD PUSH2 0x142 SWAP4 SWAP3 SWAP2 SWAP1 PUSH2 0x1635 JUMP JUMPDEST PUSH1 0x40 MLOAD DUP1 SWAP2 SUB SWAP1 RETURN JUMPDEST CALLVALUE DUP1 ISZERO PUSH2 0x157 JUMPI PUSH1 0x0 DUP1 REVERT JUMPDEST POP PUSH2 0x17F PUSH32 0x0 DUP2 JUMP JUMPDEST PUSH1 0x40 MLOAD PUSH1 0x1 PUSH1 0x1 PUSH1 0xA0 SHL SUB SWAP1 SWAP2 AND DUP2 MSTORE PUSH1 0x20 ADD PUSH2 0x142 JUMP JUMPDEST CALLVALUE DUP1 ISZERO PUSH2 0x1A3 JUMPI PUSH1 0x0 DUP1 REVERT JUMPDEST POP PUSH2 0xF1 PUSH2 0x1B2 CALLDATASIZE PUSH1 0x4 PUSH2 0x1731 JUMP JUMPDEST PUSH2 0x452 JUMP JUMPDEST CALLVALUE DUP1 ISZERO PUSH2 0x1C3 JUMPI PUSH1 0x0 DUP1 REVERT JUMPDEST POP PUSH2 0xF1 PUSH2 0x55C JUMP JUMPDEST CALLVALUE DUP1 ISZERO PUSH2 0x1D8 JUMPI PUSH1 0x0 DUP1 REVERT JUMPDEST POP PUSH1 0x0 SLOAD PUSH1 0x1 PUSH1 0x1 PUSH1 0xA0 SHL SUB AND PUSH2 0x17F JUMP JUMPDEST CALLVALUE DUP1 ISZERO PUSH2 0x1F6 JUMPI PUSH1 0x0 DUP1 REVERT JUMPDEST POP PUSH2 0x17F PUSH32 0x0 DUP2 JUMP JUMPDEST CALLVALUE DUP1 ISZERO PUSH2 0x22A JUMPI PUSH1 0x0 DUP1 REVERT JUMPDEST POP PUSH2 0xF1 PUSH2 0x570 JUMP JUMPDEST CALLVALUE DUP1 ISZERO PUSH2 0x23F JUMPI PUSH1 0x0 DUP1 REVERT JUMPDEST POP PUSH2 0xF1 PUSH2 0x24E CALLDATASIZE PUSH1 0x4 PUSH2 0x179D JUMP JUMPDEST PUSH2 0x5C4 JUMP JUMPDEST CALLVALUE DUP1 ISZERO PUSH2 0x25F JUMPI PUSH1 0x0 DUP1 REVERT JUMPDEST POP PUSH2 0x17F PUSH32 0x0 DUP2 JUMP JUMPDEST CALLVALUE DUP1 ISZERO PUSH2 0x293 JUMPI PUSH1 0x0 DUP1 REVERT JUMPDEST POP PUSH2 0xF1 PUSH2 0x2A2 CALLDATASIZE PUSH1 0x4 PUSH2 0x17F9 JUMP JUMPDEST PUSH2 0x794 JUMP JUMPDEST CALLVALUE DUP1 ISZERO PUSH2 0x2B3 JUMPI PUSH1 0x0 DUP1 REVERT JUMPDEST POP PUSH2 0x17F PUSH32 0x0 DUP2 JUMP JUMPDEST PUSH2 0x2E3 PUSH2 0x7D2 JUMP JUMPDEST ADDRESS PUSH1 0x1 PUSH1 0x1 PUSH1 0xA0 SHL SUB DUP8 AND SUB PUSH2 0x370 JUMPI PUSH1 0x0 PUSH1 0x60 DUP2 DUP6 ISZERO PUSH2 0x314 JUMPI PUSH2 0x308 DUP8 DUP8 PUSH2 0x7FC JUMP JUMPDEST SWAP2 SWAP5 POP SWAP3 POP SWAP1 POP PUSH2 0x360 JUMP JUMPDEST POP POP PUSH1 0x40 DUP1 MLOAD DUP1 DUP3 ADD SWAP1 SWAP2 MSTORE PUSH1 0xE DUP2 MSTORE PUSH14 0x27B33339B2BA2D30B8102AB9B2B9 PUSH1 0x91 SHL PUSH1 0x20 DUP3 ADD MSTORE DUP9 SWAP2 POP PUSH32 0x0 JUMPDEST PUSH2 0x36C DUP9 DUP5 DUP5 DUP5 PUSH2 0x9C8 JUMP JUMPDEST POP POP POP JUMPDEST PUSH2 0x379 PUSH1 0x1 DUP1 SSTORE JUMP JUMPDEST POP POP POP POP POP POP POP POP JUMP JUMPDEST PUSH2 0x38B PUSH2 0xBC5 JUMP JUMPDEST PUSH2 0x393 PUSH2 0x7D2 JUMP JUMPDEST DUP2 PUSH1 0x1 PUSH1 0x1 PUSH1 0xA0 SHL SUB AND PUSH4 0xA9059CBB PUSH2 0x3B4 PUSH1 0x0 SLOAD PUSH1 0x1 PUSH1 0x1 PUSH1 0xA0 SHL SUB AND SWAP1 JUMP JUMPDEST PUSH1 0x40 MLOAD PUSH1 0x1 PUSH1 0x1 PUSH1 0xE0 SHL SUB NOT PUSH1 0xE0 DUP5 SWAP1 SHL AND DUP2 MSTORE PUSH1 0x1 PUSH1 0x1 PUSH1 0xA0 SHL SUB SWAP1 SWAP2 AND PUSH1 0x4 DUP3 ADD MSTORE PUSH1 0x24 DUP2 ADD DUP5 SWAP1 MSTORE PUSH1 0x44 ADD PUSH1 0x20 PUSH1 0x40 MLOAD DUP1 DUP4 SUB DUP2 PUSH1 0x0 DUP8 GAS CALL ISZERO DUP1 ISZERO PUSH2 0x401 JUMPI RETURNDATASIZE PUSH1 0x0 DUP1 RETURNDATACOPY RETURNDATASIZE PUSH1 0x0 REVERT JUMPDEST POP POP POP POP PUSH1 0x40 MLOAD RETURNDATASIZE PUSH1 0x1F NOT PUSH1 0x1F DUP3 ADD AND DUP3 ADD DUP1 PUSH1 0x40 MSTORE POP DUP2 ADD SWAP1 PUSH2 0x425 SWAP2 SWAP1 PUSH2 0x181D JUMP JUMPDEST POP PUSH2 0x42F PUSH1 0x1 DUP1 SSTORE JUMP JUMPDEST POP POP JUMP JUMPDEST PUSH1 0x0 PUSH1 0x60 DUP2 PUSH2 0x444 DUP5 DUP7 ADD DUP7 PUSH2 0x183F JUMP JUMPDEST SWAP3 POP SWAP3 POP SWAP3 POP JUMPDEST SWAP3 POP SWAP3 POP SWAP3 JUMP JUMPDEST PUSH2 0x45A PUSH2 0xBC5 JUMP JUMPDEST PUSH2 0x462 PUSH2 0x7D2 JUMP JUMPDEST PUSH1 0x40 MLOAD PUSH4 0x70A08231 PUSH1 0xE0 SHL DUP2 MSTORE ADDRESS PUSH1 0x4 DUP3 ADD MSTORE PUSH1 0x0 SWAP1 PUSH32 0x0 PUSH1 0x1 PUSH1 0x1 PUSH1 0xA0 SHL SUB AND SWAP1 PUSH4 0x70A08231 SWAP1 PUSH1 0x24 ADD PUSH1 0x20 PUSH1 0x40 MLOAD DUP1 DUP4 SUB DUP2 DUP7 GAS STATICCALL ISZERO DUP1 ISZERO PUSH2 0x4C9 JUMPI RETURNDATASIZE PUSH1 0x0 DUP1 RETURNDATACOPY RETURNDATASIZE PUSH1 0x0 REVERT JUMPDEST POP POP POP POP PUSH1 0x40 MLOAD RETURNDATASIZE PUSH1 0x1F NOT PUSH1 0x1F DUP3 ADD AND DUP3 ADD DUP1 PUSH1 0x40 MSTORE POP DUP2 ADD SWAP1 PUSH2 0x4ED SWAP2 SWAP1 PUSH2 0x18A3 JUMP JUMPDEST SWAP1 POP DUP5 DUP2 LT ISZERO PUSH2 0x540 JUMPI PUSH1 0x40 MLOAD PUSH3 0x461BCD PUSH1 0xE5 SHL DUP2 MSTORE PUSH1 0x20 PUSH1 0x4 DUP3 ADD MSTORE PUSH1 0x19 PUSH1 0x24 DUP3 ADD MSTORE PUSH25 0x496E73756666696369656E7420555344432062616C616E6365 PUSH1 0x38 SHL PUSH1 0x44 DUP3 ADD MSTORE PUSH1 0x64 ADD JUMPDEST PUSH1 0x40 MLOAD DUP1 SWAP2 SUB SWAP1 REVERT JUMPDEST PUSH2 0x54C DUP6 DUP6 DUP6 DUP6 PUSH2 0x9C8 JUMP JUMPDEST POP PUSH2 0x556 PUSH1 0x1 DUP1 SSTORE JUMP JUMPDEST POP POP POP POP JUMP JUMPDEST PUSH2 0x564 PUSH2 0xBC5 JUMP JUMPDEST PUSH2 0x56E PUSH1 0x0 PUSH2 0xBF2 JUMP JUMPDEST JUMP JUMPDEST PUSH2 0x578 PUSH2 0xBC5 JUMP JUMPDEST PUSH2 0x580 PUSH2 0x7D2 JUMP JUMPDEST PUSH1 0x0 DUP1 SLOAD PUSH1 0x40 MLOAD PUSH1 0x1 PUSH1 0x1 PUSH1 0xA0 SHL SUB SWAP1 SWAP2 AND SWAP2 SELFBALANCE DUP1 ISZERO PUSH2 0x8FC MUL SWAP3 SWAP1 SWAP2 DUP2 DUP2 DUP2 DUP6 DUP9 DUP9 CALL SWAP4 POP POP POP POP ISZERO DUP1 ISZERO PUSH2 0x5BA JUMPI RETURNDATASIZE PUSH1 0x0 DUP1 RETURNDATACOPY RETURNDATASIZE PUSH1 0x0 REVERT JUMPDEST POP PUSH2 0x56E PUSH1 0x1 DUP1 SSTORE JUMP JUMPDEST PUSH2 0x5CC PUSH2 0x7D2 JUMP JUMPDEST CALLER PUSH1 0x1 PUSH1 0x1 PUSH1 0xA0 SHL SUB PUSH32 0x0 AND EQ PUSH2 0x635 JUMPI PUSH1 0x40 MLOAD PUSH3 0x461BCD PUSH1 0xE5 SHL DUP2 MSTORE PUSH1 0x20 PUSH1 0x4 DUP3 ADD MSTORE PUSH1 0xE PUSH1 0x24 DUP3 ADD MSTORE PUSH14 0x13DB9B1E481B5D5B1D1A58D85B1B PUSH1 0x92 SHL PUSH1 0x44 DUP3 ADD MSTORE PUSH1 0x64 ADD PUSH2 0x537 JUMP JUMPDEST PUSH1 0x1 PUSH1 0x1 PUSH1 0xA0 SHL SUB DUP5 AND ADDRESS EQ PUSH2 0x68D JUMPI PUSH1 0x40 MLOAD PUSH3 0x461BCD PUSH1 0xE5 SHL DUP2 MSTORE PUSH1 0x20 PUSH1 0x4 DUP3 ADD MSTORE PUSH1 0x1F PUSH1 0x24 DUP3 ADD MSTORE PUSH32 0x526563697069656E74206D757374206265207468697320636F6E747261637400 PUSH1 0x44 DUP3 ADD MSTORE PUSH1 0x64 ADD PUSH2 0x537 JUMP JUMPDEST PUSH1 0x40 MLOAD PUSH4 0x70A08231 PUSH1 0xE0 SHL DUP2 MSTORE ADDRESS PUSH1 0x4 DUP3 ADD MSTORE PUSH1 0x0 SWAP1 PUSH32 0x0 PUSH1 0x1 PUSH1 0x1 PUSH1 0xA0 SHL SUB AND SWAP1 PUSH4 0x70A08231 SWAP1 PUSH1 0x24 ADD PUSH1 0x20 PUSH1 0x40 MLOAD DUP1 DUP4 SUB DUP2 DUP7 GAS STATICCALL ISZERO DUP1 ISZERO PUSH2 0x6F4 JUMPI RETURNDATASIZE PUSH1 0x0 DUP1 RETURNDATACOPY RETURNDATASIZE PUSH1 0x0 REVERT JUMPDEST POP POP POP POP PUSH1 0x40 MLOAD RETURNDATASIZE PUSH1 0x1F NOT PUSH1 0x1F DUP3 ADD AND DUP3 ADD DUP1 PUSH1 0x40 MSTORE POP DUP2 ADD SWAP1 PUSH2 0x718 SWAP2 SWAP1 PUSH2 0x18A3 JUMP JUMPDEST SWAP1 POP DUP4 DUP2 LT ISZERO PUSH2 0x766 JUMPI PUSH1 0x40 MLOAD PUSH3 0x461BCD PUSH1 0xE5 SHL DUP2 MSTORE PUSH1 0x20 PUSH1 0x4 DUP3 ADD MSTORE PUSH1 0x19 PUSH1 0x24 DUP3 ADD MSTORE PUSH25 0x496E73756666696369656E7420555344432062616C616E6365 PUSH1 0x38 SHL PUSH1 0x44 DUP3 ADD MSTORE PUSH1 0x64 ADD PUSH2 0x537 JUMP JUMPDEST PUSH1 0x0 DUP1 PUSH1 0x0 PUSH2 0x775 DUP7 DUP7 PUSH2 0x7FC JUMP JUMPDEST SWAP3 POP SWAP3 POP SWAP3 POP PUSH2 0x787 DUP8 DUP5 DUP5 DUP5 PUSH2 0x9C8 JUMP JUMPDEST POP POP POP POP PUSH2 0x556 PUSH1 0x1 DUP1 SSTORE JUMP JUMPDEST PUSH2 0x79C PUSH2 0xBC5 JUMP JUMPDEST PUSH1 0x1 PUSH1 0x1 PUSH1 0xA0 SHL SUB DUP2 AND PUSH2 0x7C6 JUMPI PUSH1 0x40 MLOAD PUSH4 0x1E4FBDF7 PUSH1 0xE0 SHL DUP2 MSTORE PUSH1 0x0 PUSH1 0x4 DUP3 ADD MSTORE PUSH1 0x24 ADD PUSH2 0x537 JUMP JUMPDEST PUSH2 0x7CF DUP2 PUSH2 0xBF2 JUMP JUMPDEST POP JUMP JUMPDEST PUSH1 0x2 PUSH1 0x1 SLOAD SUB PUSH2 0x7F5 JUMPI PUSH1 0x40 MLOAD PUSH4 0x3EE5AEB5 PUSH1 0xE0 SHL DUP2 MSTORE PUSH1 0x4 ADD PUSH1 0x40 MLOAD DUP1 SWAP2 SUB SWAP1 REVERT JUMPDEST PUSH1 0x2 PUSH1 0x1 SSTORE JUMP JUMPDEST PUSH1 0x0 PUSH1 0x60 DUP2 DUP2 DUP5 LT PUSH2 0x87C JUMPI PUSH1 0x40 MLOAD PUSH4 0x2254528F PUSH1 0xE0 SHL DUP2 MSTORE ADDRESS SWAP1 PUSH4 0x2254528F SWAP1 PUSH2 0x82D SWAP1 DUP9 SWAP1 DUP9 SWAP1 PUSH1 0x4 ADD PUSH2 0x18BC JUMP JUMPDEST PUSH1 0x0 PUSH1 0x40 MLOAD DUP1 DUP4 SUB DUP2 DUP7 GAS STATICCALL SWAP3 POP POP POP DUP1 ISZERO PUSH2 0x86B JUMPI POP PUSH1 0x40 MLOAD RETURNDATASIZE PUSH1 0x0 DUP3 RETURNDATACOPY PUSH1 0x1F RETURNDATASIZE SWAP1 DUP2 ADD PUSH1 0x1F NOT AND DUP3 ADD PUSH1 0x40 MSTORE PUSH2 0x868 SWAP2 SWAP1 DUP2 ADD SWAP1 PUSH2 0x18EB JUMP JUMPDEST PUSH1 0x1 JUMPDEST ISZERO PUSH2 0x87C JUMPI SWAP2 SWAP5 POP SWAP3 POP SWAP1 POP PUSH2 0x44B JUMP JUMPDEST PUSH1 0x0 DUP6 DUP6 DUP1 DUP1 PUSH1 0x1F ADD PUSH1 0x20 DUP1 SWAP2 DIV MUL PUSH1 0x20 ADD PUSH1 0x40 MLOAD SWAP1 DUP2 ADD PUSH1 0x40 MSTORE DUP1 SWAP4 SWAP3 SWAP2 SWAP1 DUP2 DUP2 MSTORE PUSH1 0x20 ADD DUP4 DUP4 DUP1 DUP3 DUP5 CALLDATACOPY PUSH1 0x0 SWAP3 ADD SWAP2 SWAP1 SWAP2 MSTORE POP POP PUSH1 0x40 DUP1 MLOAD DUP1 DUP3 ADD SWAP1 SWAP2 MSTORE PUSH1 0xB DUP2 MSTORE PUSH11 0x62656E6566696369617279 PUSH1 0xA8 SHL PUSH1 0x20 DUP3 ADD MSTORE SWAP3 SWAP4 POP PUSH2 0x8E5 SWAP3 DUP5 SWAP3 POP SWAP1 POP PUSH2 0xC42 JUMP JUMPDEST SWAP4 POP PUSH2 0x918 DUP2 PUSH1 0x40 MLOAD DUP1 PUSH1 0x40 ADD PUSH1 0x40 MSTORE DUP1 PUSH1 0xF DUP2 MSTORE PUSH1 0x20 ADD PUSH15 0x62656E65666963696172794E616D65 PUSH1 0x88 SHL DUP2 MSTORE POP PUSH2 0xF0C JUMP JUMPDEST SWAP3 POP PUSH2 0x945 DUP2 PUSH1 0x40 MLOAD DUP1 PUSH1 0x40 ADD PUSH1 0x40 MSTORE DUP1 PUSH1 0x9 DUP2 MSTORE PUSH1 0x20 ADD PUSH9 0x3837B7B62A37B5B2B7 PUSH1 0xB9 SHL DUP2 MSTORE POP PUSH2 0xC42 JUMP JUMPDEST SWAP2 POP PUSH1 0x1 PUSH1 0x1 PUSH1 0xA0 SHL SUB DUP5 AND PUSH2 0x95B JUMPI PUSH2 0xDEAD SWAP4 POP JUMPDEST DUP3 MLOAD PUSH1 0x0 SUB PUSH2 0x98E JUMPI PUSH1 0x40 MLOAD DUP1 PUSH1 0x40 ADD PUSH1 0x40 MSTORE DUP1 PUSH1 0xE DUP2 MSTORE PUSH1 0x20 ADD PUSH14 0x27B33339B2BA2D30B8102AB9B2B9 PUSH1 0x91 SHL DUP2 MSTORE POP SWAP3 POP JUMPDEST PUSH1 0x1 PUSH1 0x1 PUSH1 0xA0 SHL SUB DUP3 AND PUSH2 0x9C0 JUMPI PUSH32 0x0 SWAP2 POP JUMPDEST POP SWAP3 POP SWAP3 POP SWAP3 JUMP JUMPDEST PUSH1 0x40 MLOAD PUSH4 0x6FB9367F PUSH1 0xE1 SHL DUP2 MSTORE PUSH32 0x0 SWAP1 PUSH1 0x1 PUSH1 0x1 PUSH1 0xA0 SHL SUB DUP3 AND SWAP1 PUSH4 0xDF726CFE SWAP1 PUSH2 0xA41 SWAP1 PUSH32 0x0 SWAP1 DUP7 SWAP1 DUP11 SWAP1 DUP11 SWAP1 DUP11 SWAP1 PUSH1 0x0 SWAP1 PUSH1 0x4 ADD PUSH2 0x198C JUMP JUMPDEST PUSH1 0x20 PUSH1 0x40 MLOAD DUP1 DUP4 SUB DUP2 PUSH1 0x0 DUP8 GAS CALL SWAP3 POP POP POP DUP1 ISZERO PUSH2 0xA7C JUMPI POP PUSH1 0x40 DUP1 MLOAD PUSH1 0x1F RETURNDATASIZE SWAP1 DUP2 ADD PUSH1 0x1F NOT AND DUP3 ADD SWAP1 SWAP3 MSTORE PUSH2 0xA79 SWAP2 DUP2 ADD SWAP1 PUSH2 0x18A3 JUMP JUMPDEST PUSH1 0x1 JUMPDEST PUSH2 0xB75 JUMPI PUSH2 0xA88 PUSH2 0x1A3A JUMP JUMPDEST DUP1 PUSH4 0x8C379A0 SUB PUSH2 0xAF2 JUMPI POP PUSH2 0xA9C PUSH2 0x1A56 JUMP JUMPDEST DUP1 PUSH2 0xAA7 JUMPI POP PUSH2 0xAF4 JUMP JUMPDEST DUP5 PUSH1 0x1 PUSH1 0x1 PUSH1 0xA0 SHL SUB AND PUSH32 0xD80252B4823CFB933240FDE61F4F459729A50F971C0C76746E264117496D5E94 DUP5 DUP9 DUP5 PUSH1 0x40 MLOAD PUSH2 0xAE4 SWAP4 SWAP3 SWAP2 SWAP1 PUSH2 0x1AE0 JUMP JUMPDEST PUSH1 0x40 MLOAD DUP1 SWAP2 SUB SWAP1 LOG2 POP PUSH2 0xBBE JUMP JUMPDEST POP JUMPDEST DUP4 PUSH1 0x1 PUSH1 0x1 PUSH1 0xA0 SHL SUB AND PUSH32 0xD80252B4823CFB933240FDE61F4F459729A50F971C0C76746E264117496D5E94 DUP4 DUP8 PUSH1 0x40 MLOAD PUSH2 0xB68 SWAP3 SWAP2 SWAP1 PUSH1 0x1 PUSH1 0x1 PUSH1 0xA0 SHL SUB SWAP3 SWAP1 SWAP3 AND DUP3 MSTORE PUSH1 0x20 DUP3 ADD MSTORE PUSH1 0x60 PUSH1 0x40 DUP3 ADD DUP2 SWAP1 MSTORE PUSH1 0xD SWAP1 DUP3 ADD MSTORE PUSH13 0x2AB735B737BBB71032B93937B9 PUSH1 0x99 SHL PUSH1 0x80 DUP3 ADD MSTORE PUSH1 0xA0 ADD SWAP1 JUMP JUMPDEST PUSH1 0x40 MLOAD DUP1 SWAP2 SUB SWAP1 LOG2 PUSH2 0xBBE JUMP JUMPDEST DUP5 PUSH1 0x1 PUSH1 0x1 PUSH1 0xA0 SHL SUB AND PUSH32 0x9844159A631815B14CD3C5871074053D7610FFE1A6A016D77B7524E53C41AF9A DUP6 DUP6 DUP10 DUP6 PUSH1 0x40 MLOAD PUSH2 0xBB4 SWAP5 SWAP4 SWAP3 SWAP2 SWAP1 PUSH2 0x1B10 JUMP JUMPDEST PUSH1 0x40 MLOAD DUP1 SWAP2 SUB SWAP1 LOG2 POP JUMPDEST POP POP POP POP POP JUMP JUMPDEST PUSH1 0x0 SLOAD PUSH1 0x1 PUSH1 0x1 PUSH1 0xA0 SHL SUB AND CALLER EQ PUSH2 0x56E JUMPI PUSH1 0x40 MLOAD PUSH4 0x118CDAA7 PUSH1 0xE0 SHL DUP2 MSTORE CALLER PUSH1 0x4 DUP3 ADD MSTORE PUSH1 0x24 ADD PUSH2 0x537 JUMP JUMPDEST PUSH1 0x0 DUP1 SLOAD PUSH1 0x1 PUSH1 0x1 PUSH1 0xA0 SHL SUB DUP4 DUP2 AND PUSH1 0x1 PUSH1 0x1 PUSH1 0xA0 SHL SUB NOT DUP4 AND DUP2 OR DUP5 SSTORE PUSH1 0x40 MLOAD SWAP2 SWAP1 SWAP3 AND SWAP3 DUP4 SWAP2 PUSH32 0x8BE0079C531659141344CD1FD0A4F28419497F9722A3DAAFE3B4186F6B6457E0 SWAP2 SWAP1 LOG3 POP POP JUMP JUMPDEST PUSH1 0x0 DUP1 PUSH2 0xC4F DUP5 DUP5 PUSH2 0xF0C JUMP JUMPDEST SWAP1 POP DUP1 MLOAD PUSH1 0x0 SUB PUSH2 0xC64 JUMPI PUSH1 0x0 SWAP2 POP POP PUSH2 0xF06 JUMP JUMPDEST DUP1 MLOAD DUP2 SWAP1 PUSH1 0x0 SWAP1 DUP3 DUP3 DUP3 PUSH2 0xC7A JUMPI PUSH2 0xC7A PUSH2 0x1B48 JUMP JUMPDEST ADD PUSH1 0x20 ADD MLOAD PUSH1 0x1 PUSH1 0x1 PUSH1 0xF8 SHL SUB NOT AND PUSH1 0x11 PUSH1 0xF9 SHL SUB PUSH2 0xC98 JUMPI PUSH1 0x1 SWAP2 POP JUMPDEST DUP3 PUSH2 0xCA4 PUSH1 0x1 DUP4 PUSH2 0x1B74 JUMP JUMPDEST DUP2 MLOAD DUP2 LT PUSH2 0xCB4 JUMPI PUSH2 0xCB4 PUSH2 0x1B48 JUMP JUMPDEST ADD PUSH1 0x20 ADD MLOAD PUSH1 0x1 PUSH1 0x1 PUSH1 0xF8 SHL SUB NOT AND PUSH1 0x11 PUSH1 0xF9 SHL SUB PUSH2 0xCDB JUMPI PUSH2 0xCD8 PUSH1 0x1 DUP3 PUSH2 0x1B74 JUMP JUMPDEST SWAP1 POP JUMPDEST PUSH1 0x2 PUSH2 0xCE7 DUP4 DUP4 PUSH2 0x1B74 JUMP JUMPDEST LT ISZERO DUP1 ISZERO PUSH2 0xD19 JUMPI POP DUP3 DUP3 DUP2 MLOAD DUP2 LT PUSH2 0xD02 JUMPI PUSH2 0xD02 PUSH2 0x1B48 JUMP JUMPDEST PUSH1 0x20 SWAP2 ADD ADD MLOAD PUSH1 0x1 PUSH1 0x1 PUSH1 0xF8 SHL SUB NOT AND PUSH1 0x3 PUSH1 0xFC SHL EQ JUMPDEST DUP1 ISZERO PUSH2 0xD53 JUMPI POP DUP3 PUSH2 0xD2C DUP4 PUSH1 0x1 PUSH2 0x1B87 JUMP JUMPDEST DUP2 MLOAD DUP2 LT PUSH2 0xD3C JUMPI PUSH2 0xD3C PUSH2 0x1B48 JUMP JUMPDEST PUSH1 0x20 SWAP2 ADD ADD MLOAD PUSH1 0x1 PUSH1 0x1 PUSH1 0xF8 SHL SUB NOT AND PUSH1 0xF PUSH1 0xFB SHL EQ JUMPDEST ISZERO PUSH2 0xD66 JUMPI PUSH2 0xD63 DUP3 PUSH1 0x2 PUSH2 0x1B87 JUMP JUMPDEST SWAP2 POP JUMPDEST PUSH1 0x40 DUP1 MLOAD PUSH1 0x14 DUP1 DUP3 MSTORE DUP2 DUP4 ADD SWAP1 SWAP3 MSTORE PUSH1 0x0 SWAP2 PUSH1 0x20 DUP3 ADD DUP2 DUP1 CALLDATASIZE DUP4 CALLDATACOPY ADD SWAP1 POP POP SWAP1 POP PUSH1 0x0 DUP4 JUMPDEST DUP4 DUP2 LT DUP1 ISZERO PUSH2 0xD9A JUMPI POP PUSH1 0x14 DUP3 LT JUMPDEST ISZERO PUSH2 0xE58 JUMPI DUP4 PUSH2 0xDAB DUP3 PUSH1 0x1 PUSH2 0x1B87 JUMP JUMPDEST LT ISZERO PUSH2 0xE46 JUMPI PUSH1 0x0 PUSH2 0xDDC DUP8 DUP4 DUP2 MLOAD DUP2 LT PUSH2 0xDC8 JUMPI PUSH2 0xDC8 PUSH2 0x1B48 JUMP JUMPDEST ADD PUSH1 0x20 ADD MLOAD PUSH1 0x1 PUSH1 0x1 PUSH1 0xF8 SHL SUB NOT AND PUSH2 0x124E JUMP JUMPDEST SWAP1 POP PUSH1 0x0 PUSH2 0xDFF DUP9 PUSH2 0xDEF DUP6 PUSH1 0x1 PUSH2 0x1B87 JUMP JUMPDEST DUP2 MLOAD DUP2 LT PUSH2 0xDC8 JUMPI PUSH2 0xDC8 PUSH2 0x1B48 JUMP JUMPDEST SWAP1 POP PUSH2 0xFF0 PUSH1 0x4 DUP4 SWAP1 SHL AND DUP2 OR PUSH1 0xF8 SHL DUP6 DUP6 PUSH2 0xE1A DUP2 PUSH2 0x1B9A JUMP JUMPDEST SWAP7 POP DUP2 MLOAD DUP2 LT PUSH2 0xE2C JUMPI PUSH2 0xE2C PUSH2 0x1B48 JUMP JUMPDEST PUSH1 0x20 ADD ADD SWAP1 PUSH1 0x1 PUSH1 0x1 PUSH1 0xF8 SHL SUB NOT AND SWAP1 DUP2 PUSH1 0x0 BYTE SWAP1 MSTORE8 POP POP POP JUMPDEST PUSH2 0xE51 PUSH1 0x2 DUP3 PUSH2 0x1B87 JUMP JUMPDEST SWAP1 POP PUSH2 0xD8B JUMP JUMPDEST POP PUSH1 0x40 DUP1 MLOAD PUSH1 0x20 DUP1 DUP3 MSTORE DUP2 DUP4 ADD SWAP1 SWAP3 MSTORE PUSH1 0x0 SWAP2 PUSH1 0x20 DUP3 ADD DUP2 DUP1 CALLDATASIZE DUP4 CALLDATACOPY ADD SWAP1 POP POP SWAP1 POP PUSH1 0x0 JUMPDEST PUSH1 0x14 DUP2 LT DUP1 ISZERO PUSH2 0xE8D JUMPI POP DUP4 MLOAD DUP2 LT JUMPDEST ISZERO PUSH2 0xEF8 JUMPI DUP4 DUP2 DUP2 MLOAD DUP2 LT PUSH2 0xEA4 JUMPI PUSH2 0xEA4 PUSH2 0x1B48 JUMP JUMPDEST ADD PUSH1 0x20 ADD MLOAD PUSH1 0x1 PUSH1 0x1 PUSH1 0xF8 SHL SUB NOT AND DUP3 PUSH2 0xEBF DUP4 PUSH1 0xC PUSH2 0x1B87 JUMP JUMPDEST DUP2 MLOAD DUP2 LT PUSH2 0xECF JUMPI PUSH2 0xECF PUSH2 0x1B48 JUMP JUMPDEST PUSH1 0x20 ADD ADD SWAP1 PUSH1 0x1 PUSH1 0x1 PUSH1 0xF8 SHL SUB NOT AND SWAP1 DUP2 PUSH1 0x0 BYTE SWAP1 MSTORE8 POP DUP1 PUSH2 0xEF0 DUP2 PUSH2 0x1B9A JUMP JUMPDEST SWAP2 POP POP PUSH2 0xE7D JUMP JUMPDEST POP PUSH1 0x20 ADD MLOAD SWAP7 POP POP POP POP POP POP POP JUMPDEST SWAP3 SWAP2 POP POP JUMP JUMPDEST PUSH1 0x60 DUP3 DUP3 PUSH1 0x0 PUSH2 0xF1C DUP4 DUP4 PUSH2 0x1385 JUMP JUMPDEST SWAP1 POP PUSH1 0x0 NOT DUP2 SUB PUSH2 0xF41 JUMPI PUSH1 0x40 MLOAD DUP1 PUSH1 0x20 ADD PUSH1 0x40 MSTORE DUP1 PUSH1 0x0 DUP2 MSTORE POP SWAP4 POP POP POP POP PUSH2 0xF06 JUMP JUMPDEST PUSH1 0x0 DUP3 MLOAD DUP3 PUSH2 0xF50 SWAP2 SWAP1 PUSH2 0x1B87 JUMP JUMPDEST SWAP1 POP JUMPDEST DUP4 MLOAD DUP2 LT DUP1 ISZERO PUSH2 0xF88 JUMPI POP DUP4 DUP2 DUP2 MLOAD DUP2 LT PUSH2 0xF70 JUMPI PUSH2 0xF70 PUSH2 0x1B48 JUMP JUMPDEST PUSH1 0x20 SWAP2 ADD ADD MLOAD PUSH1 0x1 PUSH1 0x1 PUSH1 0xF8 SHL SUB NOT AND PUSH1 0x1D PUSH1 0xF9 SHL EQ ISZERO JUMPDEST ISZERO PUSH2 0xF9F JUMPI DUP1 PUSH2 0xF97 DUP2 PUSH2 0x1B9A JUMP JUMPDEST SWAP2 POP POP PUSH2 0xF53 JUMP JUMPDEST DUP4 MLOAD DUP2 LT PUSH2 0xFC2 JUMPI PUSH1 0x40 MLOAD DUP1 PUSH1 0x20 ADD PUSH1 0x40 MSTORE DUP1 PUSH1 0x0 DUP2 MSTORE POP SWAP5 POP POP POP POP POP PUSH2 0xF06 JUMP JUMPDEST DUP1 PUSH2 0xFCC DUP2 PUSH2 0x1B9A JUMP JUMPDEST SWAP2 POP POP JUMPDEST DUP4 MLOAD DUP2 LT DUP1 ISZERO PUSH2 0x1032 JUMPI POP DUP4 DUP2 DUP2 MLOAD DUP2 LT PUSH2 0xFED JUMPI PUSH2 0xFED PUSH2 0x1B48 JUMP JUMPDEST PUSH1 0x20 SWAP2 ADD ADD MLOAD PUSH1 0x1 PUSH1 0x1 PUSH1 0xF8 SHL SUB NOT AND PUSH1 0x1 PUSH1 0xFD SHL EQ DUP1 PUSH2 0x1032 JUMPI POP DUP4 DUP2 DUP2 MLOAD DUP2 LT PUSH2 0x101B JUMPI PUSH2 0x101B PUSH2 0x1B48 JUMP JUMPDEST PUSH1 0x20 SWAP2 ADD ADD MLOAD PUSH1 0x1 PUSH1 0x1 PUSH1 0xF8 SHL SUB NOT AND PUSH1 0x9 PUSH1 0xF8 SHL EQ JUMPDEST ISZERO PUSH2 0x1049 JUMPI DUP1 PUSH2 0x1041 DUP2 PUSH2 0x1B9A JUMP JUMPDEST SWAP2 POP POP PUSH2 0xFD0 JUMP JUMPDEST DUP4 MLOAD DUP2 SWAP1 DUP2 LT DUP1 ISZERO PUSH2 0x107F JUMPI POP DUP5 DUP2 DUP2 MLOAD DUP2 LT PUSH2 0x1068 JUMPI PUSH2 0x1068 PUSH2 0x1B48 JUMP JUMPDEST PUSH1 0x20 SWAP2 ADD ADD MLOAD PUSH1 0x1 PUSH1 0x1 PUSH1 0xF8 SHL SUB NOT AND PUSH1 0x11 PUSH1 0xF9 SHL EQ JUMPDEST ISZERO PUSH2 0x1092 JUMPI DUP1 PUSH2 0x108E DUP2 PUSH2 0x1B9A JUMP JUMPDEST SWAP2 POP POP JUMPDEST DUP1 JUMPDEST DUP6 MLOAD DUP2 LT ISZERO PUSH2 0x117A JUMPI DUP6 DUP2 DUP2 MLOAD DUP2 LT PUSH2 0x10AF JUMPI PUSH2 0x10AF PUSH2 0x1B48 JUMP JUMPDEST PUSH1 0x20 SWAP2 ADD ADD MLOAD PUSH1 0x1 PUSH1 0x1 PUSH1 0xF8 SHL SUB NOT AND PUSH1 0x11 PUSH1 0xF9 SHL EQ DUP1 ISZERO PUSH2 0x1109 JUMPI POP DUP2 DUP2 EQ DUP1 PUSH2 0x1109 JUMPI POP DUP6 PUSH2 0x10E1 PUSH1 0x1 DUP4 PUSH2 0x1B74 JUMP JUMPDEST DUP2 MLOAD DUP2 LT PUSH2 0x10F1 JUMPI PUSH2 0x10F1 PUSH2 0x1B48 JUMP JUMPDEST PUSH1 0x20 SWAP2 ADD ADD MLOAD PUSH1 0x1 PUSH1 0x1 PUSH1 0xF8 SHL SUB NOT AND PUSH1 0x17 PUSH1 0xFA SHL EQ ISZERO JUMPDEST PUSH2 0x117A JUMPI DUP6 DUP2 DUP2 MLOAD DUP2 LT PUSH2 0x111F JUMPI PUSH2 0x111F PUSH2 0x1B48 JUMP JUMPDEST PUSH1 0x20 SWAP2 ADD ADD MLOAD PUSH1 0x1 PUSH1 0x1 PUSH1 0xF8 SHL SUB NOT AND PUSH1 0xB PUSH1 0xFA SHL EQ DUP1 PUSH2 0x1164 JUMPI POP DUP6 DUP2 DUP2 MLOAD DUP2 LT PUSH2 0x114D JUMPI PUSH2 0x114D PUSH2 0x1B48 JUMP JUMPDEST PUSH1 0x20 SWAP2 ADD ADD MLOAD PUSH1 0x1 PUSH1 0x1 PUSH1 0xF8 SHL SUB NOT AND PUSH1 0x7D PUSH1 0xF8 SHL EQ JUMPDEST PUSH2 0x117A JUMPI DUP1 PUSH2 0x1172 DUP2 PUSH2 0x1B9A JUMP JUMPDEST SWAP2 POP POP PUSH2 0x1094 JUMP JUMPDEST PUSH1 0x0 PUSH2 0x1186 DUP4 DUP4 PUSH2 0x1B74 JUMP JUMPDEST PUSH8 0xFFFFFFFFFFFFFFFF DUP2 GT ISZERO PUSH2 0x119E JUMPI PUSH2 0x119E PUSH2 0x166A JUMP JUMPDEST PUSH1 0x40 MLOAD SWAP1 DUP1 DUP3 MSTORE DUP1 PUSH1 0x1F ADD PUSH1 0x1F NOT AND PUSH1 0x20 ADD DUP3 ADD PUSH1 0x40 MSTORE DUP1 ISZERO PUSH2 0x11C8 JUMPI PUSH1 0x20 DUP3 ADD DUP2 DUP1 CALLDATASIZE DUP4 CALLDATACOPY ADD SWAP1 POP JUMPDEST POP SWAP1 POP PUSH1 0x0 JUMPDEST PUSH2 0x11D8 DUP5 DUP5 PUSH2 0x1B74 JUMP JUMPDEST DUP2 LT ISZERO PUSH2 0x1240 JUMPI DUP8 PUSH2 0x11EA DUP3 DUP7 PUSH2 0x1B87 JUMP JUMPDEST DUP2 MLOAD DUP2 LT PUSH2 0x11FA JUMPI PUSH2 0x11FA PUSH2 0x1B48 JUMP JUMPDEST PUSH1 0x20 ADD ADD MLOAD PUSH1 0xF8 SHR PUSH1 0xF8 SHL DUP3 DUP3 DUP2 MLOAD DUP2 LT PUSH2 0x1217 JUMPI PUSH2 0x1217 PUSH2 0x1B48 JUMP JUMPDEST PUSH1 0x20 ADD ADD SWAP1 PUSH1 0x1 PUSH1 0x1 PUSH1 0xF8 SHL SUB NOT AND SWAP1 DUP2 PUSH1 0x0 BYTE SWAP1 MSTORE8 POP DUP1 PUSH2 0x1238 DUP2 PUSH2 0x1B9A JUMP JUMPDEST SWAP2 POP POP PUSH2 0x11CE JUMP JUMPDEST POP SWAP10 SWAP9 POP POP POP POP POP POP POP POP POP JUMP JUMPDEST PUSH1 0x0 PUSH1 0x3 PUSH1 0xFC SHL PUSH1 0x39 PUSH1 0xF8 SHL PUSH1 0x61 PUSH1 0xF8 SHL PUSH1 0x33 PUSH1 0xF9 SHL PUSH1 0x41 PUSH1 0xF8 SHL PUSH1 0x23 PUSH1 0xF9 SHL PUSH1 0x1 PUSH1 0x1 PUSH1 0xF8 SHL SUB NOT DUP9 AND DUP7 GT DUP1 ISZERO SWAP1 PUSH2 0x1295 JUMPI POP PUSH1 0x1 PUSH1 0x1 PUSH1 0xF8 SHL SUB NOT DUP1 DUP7 AND SWAP1 DUP10 AND GT ISZERO JUMPDEST ISZERO PUSH2 0x12B8 JUMPI DUP6 PUSH1 0xF8 SHR DUP9 PUSH1 0xF8 SHR PUSH2 0x12AC SWAP2 SWAP1 PUSH2 0x1BB3 JUMP JUMPDEST SWAP9 SWAP8 POP POP POP POP POP POP POP POP JUMP JUMPDEST PUSH1 0x1 PUSH1 0x1 PUSH1 0xF8 SHL SUB NOT DUP1 DUP6 AND SWAP1 DUP10 AND LT DUP1 ISZERO SWAP1 PUSH2 0x12E2 JUMPI POP PUSH1 0x1 PUSH1 0x1 PUSH1 0xF8 SHL SUB NOT DUP1 DUP5 AND SWAP1 DUP10 AND GT ISZERO JUMPDEST ISZERO PUSH2 0x1304 JUMPI DUP4 PUSH1 0xF8 SHR DUP9 PUSH1 0xF8 SHR PUSH2 0x12F9 SWAP2 SWAP1 PUSH2 0x1BB3 JUMP JUMPDEST PUSH2 0x12AC SWAP1 PUSH1 0xA PUSH2 0x1BCC JUMP JUMPDEST PUSH1 0x1 PUSH1 0x1 PUSH1 0xF8 SHL SUB NOT DUP1 DUP4 AND SWAP1 DUP10 AND LT DUP1 ISZERO SWAP1 PUSH2 0x132E JUMPI POP PUSH1 0x1 PUSH1 0x1 PUSH1 0xF8 SHL SUB NOT DUP1 DUP3 AND SWAP1 DUP10 AND GT ISZERO JUMPDEST ISZERO PUSH2 0x1345 JUMPI DUP2 PUSH1 0xF8 SHR DUP9 PUSH1 0xF8 SHR PUSH2 0x12F9 SWAP2 SWAP1 PUSH2 0x1BB3 JUMP JUMPDEST PUSH1 0x40 MLOAD PUSH3 0x461BCD PUSH1 0xE5 SHL DUP2 MSTORE PUSH1 0x20 PUSH1 0x4 DUP3 ADD MSTORE PUSH1 0x15 PUSH1 0x24 DUP3 ADD MSTORE PUSH21 0x24B73B30B634B2103432BC1031B430B930B1BA32B9 PUSH1 0x59 SHL PUSH1 0x44 DUP3 ADD MSTORE PUSH1 0x64 ADD PUSH2 0x537 JUMP JUMPDEST PUSH1 0x0 DUP2 MLOAD PUSH1 0x0 SUB PUSH2 0x1398 JUMPI POP PUSH1 0x0 PUSH2 0xF06 JUMP JUMPDEST DUP3 MLOAD DUP3 MLOAD GT ISZERO PUSH2 0x13AB JUMPI POP PUSH1 0x0 NOT PUSH2 0xF06 JUMP JUMPDEST PUSH1 0x0 JUMPDEST DUP3 MLOAD DUP5 MLOAD PUSH2 0x13BC SWAP2 SWAP1 PUSH2 0x1B74 JUMP JUMPDEST DUP2 GT PUSH2 0x145D JUMPI PUSH1 0x1 PUSH1 0x0 JUMPDEST DUP5 MLOAD DUP2 LT ISZERO PUSH2 0x143B JUMPI DUP5 DUP2 DUP2 MLOAD DUP2 LT PUSH2 0x13E2 JUMPI PUSH2 0x13E2 PUSH2 0x1B48 JUMP JUMPDEST ADD PUSH1 0x20 ADD MLOAD PUSH1 0x1 PUSH1 0x1 PUSH1 0xF8 SHL SUB NOT AND DUP7 PUSH2 0x13FC DUP4 DUP7 PUSH2 0x1B87 JUMP JUMPDEST DUP2 MLOAD DUP2 LT PUSH2 0x140C JUMPI PUSH2 0x140C PUSH2 0x1B48 JUMP JUMPDEST ADD PUSH1 0x20 ADD MLOAD PUSH1 0x1 PUSH1 0x1 PUSH1 0xF8 SHL SUB NOT AND EQ PUSH2 0x1429 JUMPI PUSH1 0x0 SWAP2 POP PUSH2 0x143B JUMP JUMPDEST DUP1 PUSH2 0x1433 DUP2 PUSH2 0x1B9A JUMP JUMPDEST SWAP2 POP POP PUSH2 0x13C7 JUMP JUMPDEST POP DUP1 ISZERO PUSH2 0x144A JUMPI POP SWAP1 POP PUSH2 0xF06 JUMP JUMPDEST POP DUP1 PUSH2 0x1455 DUP2 PUSH2 0x1B9A JUMP JUMPDEST SWAP2 POP POP PUSH2 0x13AE JUMP JUMPDEST POP PUSH1 0x0 NOT SWAP4 SWAP3 POP POP POP JUMP JUMPDEST PUSH1 0x1 PUSH1 0x1 PUSH1 0xA0 SHL SUB DUP2 AND DUP2 EQ PUSH2 0x7CF JUMPI PUSH1 0x0 DUP1 REVERT JUMPDEST PUSH1 0x0 DUP1 DUP4 PUSH1 0x1F DUP5 ADD SLT PUSH2 0x148F JUMPI PUSH1 0x0 DUP1 REVERT JUMPDEST POP DUP2 CALLDATALOAD PUSH8 0xFFFFFFFFFFFFFFFF DUP2 GT ISZERO PUSH2 0x14A7 JUMPI PUSH1 0x0 DUP1 REVERT JUMPDEST PUSH1 0x20 DUP4 ADD SWAP2 POP DUP4 PUSH1 0x20 DUP3 DUP6 ADD ADD GT ISZERO PUSH2 0x14BF JUMPI PUSH1 0x0 DUP1 REVERT JUMPDEST SWAP3 POP SWAP3 SWAP1 POP JUMP JUMPDEST PUSH1 0x0 DUP1 PUSH1 0x0 DUP1 PUSH1 0x0 DUP1 PUSH1 0x0 DUP1 PUSH1 0xC0 DUP10 DUP12 SUB SLT ISZERO PUSH2 0x14E2 JUMPI PUSH1 0x0 DUP1 REVERT JUMPDEST DUP9 CALLDATALOAD PUSH2 0x14ED DUP2 PUSH2 0x1468 JUMP JUMPDEST SWAP8 POP PUSH1 0x20 DUP10 ADD CALLDATALOAD PUSH2 0x14FD DUP2 PUSH2 0x1468 JUMP JUMPDEST SWAP7 POP PUSH1 0x40 DUP10 ADD CALLDATALOAD PUSH2 0x150D DUP2 PUSH2 0x1468 JUMP JUMPDEST SWAP6 POP PUSH1 0x60 DUP10 ADD CALLDATALOAD SWAP5 POP PUSH1 0x80 DUP10 ADD CALLDATALOAD PUSH8 0xFFFFFFFFFFFFFFFF DUP1 DUP3 GT ISZERO PUSH2 0x1531 JUMPI PUSH1 0x0 DUP1 REVERT JUMPDEST PUSH2 0x153D DUP13 DUP4 DUP14 ADD PUSH2 0x147D JUMP JUMPDEST SWAP1 SWAP7 POP SWAP5 POP PUSH1 0xA0 DUP12 ADD CALLDATALOAD SWAP2 POP DUP1 DUP3 GT ISZERO PUSH2 0x1556 JUMPI PUSH1 0x0 DUP1 REVERT JUMPDEST POP PUSH2 0x1563 DUP12 DUP3 DUP13 ADD PUSH2 0x147D JUMP JUMPDEST SWAP10 SWAP13 SWAP9 SWAP12 POP SWAP7 SWAP10 POP SWAP5 SWAP8 SWAP4 SWAP7 SWAP3 SWAP6 SWAP5 POP POP POP JUMP JUMPDEST PUSH1 0x0 DUP1 PUSH1 0x40 DUP4 DUP6 SUB SLT ISZERO PUSH2 0x158A JUMPI PUSH1 0x0 DUP1 REVERT JUMPDEST DUP3 CALLDATALOAD PUSH2 0x1595 DUP2 PUSH2 0x1468 JUMP JUMPDEST SWAP5 PUSH1 0x20 SWAP4 SWAP1 SWAP4 ADD CALLDATALOAD SWAP4 POP POP POP JUMP JUMPDEST PUSH1 0x0 DUP1 PUSH1 0x20 DUP4 DUP6 SUB SLT ISZERO PUSH2 0x15B6 JUMPI PUSH1 0x0 DUP1 REVERT JUMPDEST DUP3 CALLDATALOAD PUSH8 0xFFFFFFFFFFFFFFFF DUP2 GT ISZERO PUSH2 0x15CD JUMPI PUSH1 0x0 DUP1 REVERT JUMPDEST PUSH2 0x15D9 DUP6 DUP3 DUP7 ADD PUSH2 0x147D JUMP JUMPDEST SWAP1 SWAP7 SWAP1 SWAP6 POP SWAP4 POP POP POP POP JUMP JUMPDEST PUSH1 0x0 JUMPDEST DUP4 DUP2 LT ISZERO PUSH2 0x1600 JUMPI DUP2 DUP2 ADD MLOAD DUP4 DUP3 ADD MSTORE PUSH1 0x20 ADD PUSH2 0x15E8 JUMP JUMPDEST POP POP PUSH1 0x0 SWAP2 ADD MSTORE JUMP JUMPDEST PUSH1 0x0 DUP2 MLOAD DUP1 DUP5 MSTORE PUSH2 0x1621 DUP2 PUSH1 0x20 DUP7 ADD PUSH1 0x20 DUP7 ADD PUSH2 0x15E5 JUMP JUMPDEST PUSH1 0x1F ADD PUSH1 0x1F NOT AND SWAP3 SWAP1 SWAP3 ADD PUSH1 0x20 ADD SWAP3 SWAP2 POP POP JUMP JUMPDEST PUSH1 0x0 PUSH1 0x1 DUP1 PUSH1 0xA0 SHL SUB DUP1 DUP7 AND DUP4 MSTORE PUSH1 0x60 PUSH1 0x20 DUP5 ADD MSTORE PUSH2 0x1657 PUSH1 0x60 DUP5 ADD DUP7 PUSH2 0x1609 JUMP JUMPDEST SWAP2 POP DUP1 DUP5 AND PUSH1 0x40 DUP5 ADD MSTORE POP SWAP5 SWAP4 POP POP POP POP JUMP JUMPDEST PUSH4 0x4E487B71 PUSH1 0xE0 SHL PUSH1 0x0 MSTORE PUSH1 0x41 PUSH1 0x4 MSTORE PUSH1 0x24 PUSH1 0x0 REVERT JUMPDEST PUSH1 0x1F DUP3 ADD PUSH1 0x1F NOT AND DUP2 ADD PUSH8 0xFFFFFFFFFFFFFFFF DUP2 GT DUP3 DUP3 LT OR ISZERO PUSH2 0x16A6 JUMPI PUSH2 0x16A6 PUSH2 0x166A JUMP JUMPDEST PUSH1 0x40 MSTORE POP POP JUMP JUMPDEST PUSH1 0x0 PUSH8 0xFFFFFFFFFFFFFFFF DUP3 GT ISZERO PUSH2 0x16C7 JUMPI PUSH2 0x16C7 PUSH2 0x166A JUMP JUMPDEST POP PUSH1 0x1F ADD PUSH1 0x1F NOT AND PUSH1 0x20 ADD SWAP1 JUMP JUMPDEST PUSH1 0x0 DUP3 PUSH1 0x1F DUP4 ADD SLT PUSH2 0x16E6 JUMPI PUSH1 0x0 DUP1 REVERT JUMPDEST DUP2 CALLDATALOAD PUSH2 0x16F1 DUP2 PUSH2 0x16AD JUMP JUMPDEST PUSH1 0x40 MLOAD PUSH2 0x16FE DUP3 DUP3 PUSH2 0x1680 JUMP JUMPDEST DUP3 DUP2 MSTORE DUP6 PUSH1 0x20 DUP5 DUP8 ADD ADD GT ISZERO PUSH2 0x1713 JUMPI PUSH1 0x0 DUP1 REVERT JUMPDEST DUP3 PUSH1 0x20 DUP7 ADD PUSH1 0x20 DUP4 ADD CALLDATACOPY PUSH1 0x0 SWAP3 DUP2 ADD PUSH1 0x20 ADD SWAP3 SWAP1 SWAP3 MSTORE POP SWAP4 SWAP3 POP POP POP JUMP JUMPDEST PUSH1 0x0 DUP1 PUSH1 0x0 DUP1 PUSH1 0x80 DUP6 DUP8 SUB SLT ISZERO PUSH2 0x1747 JUMPI PUSH1 0x0 DUP1 REVERT JUMPDEST DUP5 CALLDATALOAD SWAP4 POP PUSH1 0x20 DUP6 ADD CALLDATALOAD PUSH2 0x1759 DUP2 PUSH2 0x1468 JUMP JUMPDEST SWAP3 POP PUSH1 0x40 DUP6 ADD CALLDATALOAD PUSH8 0xFFFFFFFFFFFFFFFF DUP2 GT ISZERO PUSH2 0x1775 JUMPI PUSH1 0x0 DUP1 REVERT JUMPDEST PUSH2 0x1781 DUP8 DUP3 DUP9 ADD PUSH2 0x16D5 JUMP JUMPDEST SWAP3 POP POP PUSH1 0x60 DUP6 ADD CALLDATALOAD PUSH2 0x1792 DUP2 PUSH2 0x1468 JUMP JUMPDEST SWAP4 SWAP7 SWAP3 SWAP6 POP SWAP1 SWAP4 POP POP JUMP JUMPDEST PUSH1 0x0 DUP1 PUSH1 0x0 DUP1 PUSH1 0x60 DUP6 DUP8 SUB SLT ISZERO PUSH2 0x17B3 JUMPI PUSH1 0x0 DUP1 REVERT JUMPDEST DUP5 CALLDATALOAD PUSH2 0x17BE DUP2 PUSH2 0x1468 JUMP JUMPDEST SWAP4 POP PUSH1 0x20 DUP6 ADD CALLDATALOAD SWAP3 POP PUSH1 0x40 DUP6 ADD CALLDATALOAD PUSH8 0xFFFFFFFFFFFFFFFF DUP2 GT ISZERO PUSH2 0x17E1 JUMPI PUSH1 0x0 DUP1 REVERT JUMPDEST PUSH2 0x17ED DUP8 DUP3 DUP9 ADD PUSH2 0x147D JUMP JUMPDEST SWAP6 SWAP9 SWAP5 SWAP8 POP SWAP6 POP POP POP POP JUMP JUMPDEST PUSH1 0x0 PUSH1 0x20 DUP3 DUP5 SUB SLT ISZERO PUSH2 0x180B JUMPI PUSH1 0x0 DUP1 REVERT JUMPDEST DUP2 CALLDATALOAD PUSH2 0x1816 DUP2 PUSH2 0x1468 JUMP JUMPDEST SWAP4 SWAP3 POP POP POP JUMP JUMPDEST PUSH1 0x0 PUSH1 0x20 DUP3 DUP5 SUB SLT ISZERO PUSH2 0x182F JUMPI PUSH1 0x0 DUP1 REVERT JUMPDEST DUP2 MLOAD DUP1 ISZERO ISZERO DUP2 EQ PUSH2 0x1816 JUMPI PUSH1 0x0 DUP1 REVERT JUMPDEST PUSH1 0x0 DUP1 PUSH1 0x0 PUSH1 0x60 DUP5 DUP7 SUB SLT ISZERO PUSH2 0x1854 JUMPI PUSH1 0x0 DUP1 REVERT JUMPDEST DUP4 CALLDATALOAD PUSH2 0x185F DUP2 PUSH2 0x1468 JUMP JUMPDEST SWAP3 POP PUSH1 0x20 DUP5 ADD CALLDATALOAD PUSH8 0xFFFFFFFFFFFFFFFF DUP2 GT ISZERO PUSH2 0x187B JUMPI PUSH1 0x0 DUP1 REVERT JUMPDEST PUSH2 0x1887 DUP7 DUP3 DUP8 ADD PUSH2 0x16D5 JUMP JUMPDEST SWAP3 POP POP PUSH1 0x40 DUP5 ADD CALLDATALOAD PUSH2 0x1898 DUP2 PUSH2 0x1468 JUMP JUMPDEST DUP1 SWAP2 POP POP SWAP3 POP SWAP3 POP SWAP3 JUMP JUMPDEST PUSH1 0x0 PUSH1 0x20 DUP3 DUP5 SUB SLT ISZERO PUSH2 0x18B5 JUMPI PUSH1 0x0 DUP1 REVERT JUMPDEST POP MLOAD SWAP2 SWAP1 POP JUMP JUMPDEST PUSH1 0x20 DUP2 MSTORE DUP2 PUSH1 0x20 DUP3 ADD MSTORE DUP2 DUP4 PUSH1 0x40 DUP4 ADD CALLDATACOPY PUSH1 0x0 DUP2 DUP4 ADD PUSH1 0x40 SWAP1 DUP2 ADD SWAP2 SWAP1 SWAP2 MSTORE PUSH1 0x1F SWAP1 SWAP3 ADD PUSH1 0x1F NOT AND ADD ADD SWAP2 SWAP1 POP JUMP JUMPDEST PUSH1 0x0 DUP1 PUSH1 0x0 PUSH1 0x60 DUP5 DUP7 SUB SLT ISZERO PUSH2 0x1900 JUMPI PUSH1 0x0 DUP1 REVERT JUMPDEST DUP4 MLOAD PUSH2 0x190B DUP2 PUSH2 0x1468 JUMP JUMPDEST PUSH1 0x20 DUP6 ADD MLOAD SWAP1 SWAP4 POP PUSH8 0xFFFFFFFFFFFFFFFF DUP2 GT ISZERO PUSH2 0x1928 JUMPI PUSH1 0x0 DUP1 REVERT JUMPDEST DUP5 ADD PUSH1 0x1F DUP2 ADD DUP7 SGT PUSH2 0x1939 JUMPI PUSH1 0x0 DUP1 REVERT JUMPDEST DUP1 MLOAD PUSH2 0x1944 DUP2 PUSH2 0x16AD JUMP JUMPDEST PUSH1 0x40 MLOAD PUSH2 0x1951 DUP3 DUP3 PUSH2 0x1680 JUMP JUMPDEST DUP3 DUP2 MSTORE DUP9 PUSH1 0x20 DUP5 DUP7 ADD ADD GT ISZERO PUSH2 0x1966 JUMPI PUSH1 0x0 DUP1 REVERT JUMPDEST PUSH2 0x1977 DUP4 PUSH1 0x20 DUP4 ADD PUSH1 0x20 DUP8 ADD PUSH2 0x15E5 JUMP JUMPDEST DUP1 SWAP6 POP POP POP POP POP PUSH1 0x40 DUP5 ADD MLOAD PUSH2 0x1898 DUP2 PUSH2 0x1468 JUMP JUMPDEST PUSH1 0x1 PUSH1 0x1 PUSH1 0xA0 SHL SUB DUP8 DUP2 AND DUP3 MSTORE DUP7 DUP2 AND PUSH1 0x20 DUP4 ADD MSTORE PUSH1 0x40 DUP3 ADD DUP7 SWAP1 MSTORE PUSH2 0x100 PUSH1 0x60 DUP4 ADD DUP2 SWAP1 MSTORE PUSH1 0x9 SWAP1 DUP4 ADD MSTORE PUSH9 0x4F66667365745A617 PUSH1 0xBC SHL PUSH2 0x120 DUP4 ADD MSTORE DUP5 AND PUSH1 0x80 DUP3 ADD MSTORE PUSH2 0x140 PUSH1 0xA0 DUP3 ADD DUP2 SWAP1 MSTORE PUSH1 0x0 SWAP1 PUSH2 0x19EB DUP2 DUP5 ADD DUP7 PUSH2 0x1609 JUMP JUMPDEST SWAP1 POP DUP3 DUP2 SUB PUSH1 0xC0 DUP5 ADD MSTORE PUSH1 0x1B DUP2 MSTORE PUSH32 0x436172626F6E206F666673657420766961204F66667365745A61700000000000 PUSH1 0x20 DUP3 ADD MSTORE PUSH1 0x40 DUP2 ADD SWAP2 POP POP PUSH1 0xFF DUP4 AND PUSH1 0xE0 DUP4 ADD MSTORE SWAP8 SWAP7 POP POP POP POP POP POP POP JUMP JUMPDEST PUSH1 0x0 PUSH1 0x3 RETURNDATASIZE GT ISZERO PUSH2 0x1A53 JUMPI PUSH1 0x4 PUSH1 0x0 DUP1 RETURNDATACOPY POP PUSH1 0x0 MLOAD PUSH1 0xE0 SHR JUMPDEST SWAP1 JUMP JUMPDEST PUSH1 0x0 PUSH1 0x44 RETURNDATASIZE LT ISZERO PUSH2 0x1A64 JUMPI SWAP1 JUMP JUMPDEST PUSH1 0x40 MLOAD PUSH1 0x3 NOT RETURNDATASIZE DUP2 ADD PUSH1 0x4 DUP4 RETURNDATACOPY DUP2 MLOAD RETURNDATASIZE PUSH8 0xFFFFFFFFFFFFFFFF DUP2 PUSH1 0x24 DUP5 ADD GT DUP2 DUP5 GT OR ISZERO PUSH2 0x1A94 JUMPI POP POP POP POP POP SWAP1 JUMP JUMPDEST DUP3 DUP6 ADD SWAP2 POP DUP2 MLOAD DUP2 DUP2 GT ISZERO PUSH2 0x1AAC JUMPI POP POP POP POP POP POP SWAP1 JUMP JUMPDEST DUP5 RETURNDATASIZE DUP8 ADD ADD PUSH1 0x20 DUP3 DUP6 ADD ADD GT ISZERO PUSH2 0x1AC6 JUMPI POP POP POP POP POP POP SWAP1 JUMP JUMPDEST PUSH2 0x1AD5 PUSH1 0x20 DUP3 DUP7 ADD ADD DUP8 PUSH2 0x1680 JUMP JUMPDEST POP SWAP1 SWAP6 SWAP5 POP POP POP POP POP JUMP JUMPDEST PUSH1 0x1 DUP1 PUSH1 0xA0 SHL SUB DUP5 AND DUP2 MSTORE DUP3 PUSH1 0x20 DUP3 ADD MSTORE PUSH1 0x60 PUSH1 0x40 DUP3 ADD MSTORE PUSH1 0x0 PUSH2 0x1B07 PUSH1 0x60 DUP4 ADD DUP5 PUSH2 0x1609 JUMP JUMPDEST SWAP6 SWAP5 POP POP POP POP POP JUMP JUMPDEST PUSH1 0x80 DUP2 MSTORE PUSH1 0x0 PUSH2 0x1B23 PUSH1 0x80 DUP4 ADD DUP8 PUSH2 0x1609 JUMP JUMPDEST PUSH1 0x1 PUSH1 0x1 PUSH1 0xA0 SHL SUB SWAP6 SWAP1 SWAP6 AND PUSH1 0x20 DUP4 ADD MSTORE POP PUSH1 0x40 DUP2 ADD SWAP3 SWAP1 SWAP3 MSTORE PUSH1 0x60 SWAP1 SWAP2 ADD MSTORE SWAP2 SWAP1 POP JUMP JUMPDEST PUSH4 0x4E487B71 PUSH1 0xE0 SHL PUSH1 0x0 MSTORE PUSH1 0x32 PUSH1 0x4 MSTORE PUSH1 0x24 PUSH1 0x0 REVERT JUMPDEST PUSH4 0x4E487B71 PUSH1 0xE0 SHL PUSH1 0x0 MSTORE PUSH1 0x11 PUSH1 0x4 MSTORE PUSH1 0x24 PUSH1 0x0 REVERT JUMPDEST DUP2 DUP2 SUB DUP2 DUP2 GT ISZERO PUSH2 0xF06 JUMPI PUSH2 0xF06 PUSH2 0x1B5E JUMP JUMPDEST DUP1 DUP3 ADD DUP1 DUP3 GT ISZERO PUSH2 0xF06 JUMPI PUSH2 0xF06 PUSH2 0x1B5E JUMP JUMPDEST PUSH1 0x0 PUSH1 0x1 DUP3 ADD PUSH2 0x1BAC JUMPI PUSH2 0x1BAC PUSH2 0x1B5E JUMP JUMPDEST POP PUSH1 0x1 ADD SWAP1 JUMP JUMPDEST PUSH1 0xFF DUP3 DUP2 AND DUP3 DUP3 AND SUB SWAP1 DUP2 GT ISZERO PUSH2 0xF06 JUMPI PUSH2 0xF06 PUSH2 0x1B5E JUMP JUMPDEST PUSH1 0xFF DUP2 DUP2 AND DUP4 DUP3 AND ADD SWAP1 DUP2 GT ISZERO PUSH2 0xF06 JUMPI PUSH2 0xF06 PUSH2 0x1B5E JUMP INVALID LOG2 PUSH5 0x6970667358 0x22 SLT KECCAK256 PUSH5 0x86A75C7C08 PUSH25 0xA0E8A8B448AFD599986E0A9450D3293F4ED36280A10A881EB3 PUSH5 0x736F6C6343 STOP ADDMOD EQ STOP CALLER "},"methodIdentifiers":{"DEFAULT_POOL_TOKEN()":"35e86070","KLIMA_AGGREGATOR()":"db3ac0ce","MULTICALL_HANDLER_ADDRESS()":"9df875f0","USDC_TOKEN()":"fa569274","handleAcrossTransfer(address,uint256,bytes)":"d4d0f984","manualRetire(uint256,address,string,address)":"40429fe1","owner()":"8da5cb5b","recoverEth()":"bcdb446b","recoverTokens(address,uint256)":"069c9fae","renounceOwnership()":"715018a6","tokensReceived(address,address,address,uint256,bytes,bytes)":"0023de29","transferOwnership(address)":"f2fde38b","tryAbiDecode(bytes)":"2254528f"}}}}}