{"contracts/CDR/PolygonCDR.sol":{"AcrossCarbonRetirementReceiver":{"abi":[{"inputs":[{"internalType":"address","name":"_klimaAggregator","type":"address"},{"internalType":"address","name":"_usdc","type":"address"},{"internalType":"address","name":"_defaultPoolToken","type":"address"},{"internalType":"address","name":"_spokePool","type":"address"},{"internalType":"address","name":"_multicallHandler","type":"address"}],"stateMutability":"nonpayable","type":"constructor"},{"inputs":[{"internalType":"address","name":"owner","type":"address"}],"name":"OwnableInvalidOwner","type":"error"},{"inputs":[{"internalType":"address","name":"account","type":"address"}],"name":"OwnableUnauthorizedAccount","type":"error"},{"inputs":[],"name":"ReentrancyGuardReentrantCall","type":"error"},{"anonymous":false,"inputs":[{"indexed":true,"internalType":"address","name":"previousOwner","type":"address"},{"indexed":true,"internalType":"address","name":"newOwner","type":"address"}],"name":"OwnershipTransferred","type":"event"},{"anonymous":false,"inputs":[{"indexed":true,"internalType":"address","name":"beneficiary","type":"address"},{"indexed":false,"internalType":"string","name":"beneficiaryName","type":"string"},{"indexed":false,"internalType":"address","name":"poolToken","type":"address"},{"indexed":false,"internalType":"uint256","name":"usdcAmount","type":"uint256"},{"indexed":false,"internalType":"uint256","name":"carbonAmount","type":"uint256"}],"name":"RetirementExecuted","type":"event"},{"anonymous":false,"inputs":[{"indexed":true,"internalType":"address","name":"beneficiary","type":"address"},{"indexed":false,"internalType":"address","name":"poolToken","type":"address"},{"indexed":false,"internalType":"uint256","name":"usdcAmount","type":"uint256"},{"indexed":false,"internalType":"string","name":"reason","type":"string"}],"name":"RetirementFailed","type":"event"},{"inputs":[],"name":"ACROSS_SPOKE_POOL","outputs":[{"internalType":"address","name":"","type":"address"}],"stateMutability":"view","type":"function"},{"inputs":[],"name":"DEFAULT_POOL_TOKEN","outputs":[{"internalType":"address","name":"","type":"address"}],"stateMutability":"view","type":"function"},{"inputs":[],"name":"KLIMA_AGGREGATOR","outputs":[{"internalType":"address","name":"","type":"address"}],"stateMutability":"view","type":"function"},{"inputs":[],"name":"MULTICALL_HANDLER_ADDRESS","outputs":[{"internalType":"address","name":"","type":"address"}],"stateMutability":"view","type":"function"},{"inputs":[],"name":"USDC_TOKEN","outputs":[{"internalType":"address","name":"","type":"address"}],"stateMutability":"view","type":"function"},{"inputs":[{"internalType":"address","name":"recipient","type":"address"},{"internalType":"uint256","name":"amount","type":"uint256"},{"internalType":"bytes","name":"message","type":"bytes"}],"name":"handleAcrossTransfer","outputs":[],"stateMutability":"nonpayable","type":"function"},{"inputs":[{"internalType":"uint256","name":"usdcAmount","type":"uint256"},{"internalType":"address","name":"beneficiary","type":"address"},{"internalType":"string","name":"beneficiaryName","type":"string"},{"internalType":"address","name":"poolToken","type":"address"}],"name":"manualRetire","outputs":[],"stateMutability":"nonpayable","type":"function"},{"inputs":[],"name":"owner","outputs":[{"internalType":"address","name":"","type":"address"}],"stateMutability":"view","type":"function"},{"inputs":[],"name":"recoverEth","outputs":[],"stateMutability":"nonpayable","type":"function"},{"inputs":[{"internalType":"address","name":"token","type":"address"},{"internalType":"uint256","name":"amount","type":"uint256"}],"name":"recoverTokens","outputs":[],"stateMutability":"nonpayable","type":"function"},{"inputs":[],"name":"renounceOwnership","outputs":[],"stateMutability":"nonpayable","type":"function"},{"inputs":[{"internalType":"address","name":"operator","type":"address"},{"internalType":"address","name":"from","type":"address"},{"internalType":"address","name":"to","type":"address"},{"internalType":"uint256","name":"amount","type":"uint256"},{"internalType":"bytes","name":"userData","type":"bytes"},{"internalType":"bytes","name":"operatorData","type":"bytes"}],"name":"tokensReceived","outputs":[],"stateMutability":"nonpayable","type":"function"},{"inputs":[{"internalType":"address","name":"newOwner","type":"address"}],"name":"transferOwnership","outputs":[],"stateMutability":"nonpayable","type":"function"},{"inputs":[{"internalType":"bytes","name":"data","type":"bytes"}],"name":"tryAbiDecode","outputs":[{"internalType":"address","name":"beneficiary","type":"address"},{"internalType":"string","name":"beneficiaryName","type":"string"},{"internalType":"address","name":"poolToken","type":"address"}],"stateMutability":"pure","type":"function"},{"stateMutability":"payable","type":"receive"}],"evm":{"bytecode":{"linkReferences":{},"object":"6101206040523480156200001257600080fd5b50604051620021373803806200213783398101604081905262000035916200032e565b33806200005d57604051631e4fbdf760e01b8152600060048201526024015b60405180910390fd5b6200006881620002c1565b50600180556001600160a01b038516620000b55760405162461bcd60e51b815260206004820152600d60248201526c696e76616c6964206b6c696d6160981b604482015260640162000054565b6001600160a01b038416620000fc5760405162461bcd60e51b815260206004820152600c60248201526b696e76616c6964207573646360a01b604482015260640162000054565b6001600160a01b038316620001435760405162461bcd60e51b815260206004820152600c60248201526b1a5b9d985b1a59081c1bdbdb60a21b604482015260640162000054565b6001600160a01b0382166200018b5760405162461bcd60e51b815260206004820152600d60248201526c696e76616c69642073706f6b6560981b604482015260640162000054565b6001600160a01b03858116608081905285821660a081905285831660c05284831660e0529183166101005260405163095ea7b360e01b81526004810191909152600019602482015263095ea7b3906044016020604051808303816000875af1158015620001fc573d6000803e3d6000fd5b505050506040513d601f19601f820116820180604052508101906200022291906200039e565b506040516329965a1d60e01b815230600482018190527fb281fc8c12954d22544db45de3159a39272895b169a852b314f9cc762e44c53b60248301526044820152731820a4b7618bde71dce8cdc73aab6c95905fad24906329965a1d90606401600060405180830381600087803b1580156200029d57600080fd5b505af1158015620002b2573d6000803e3d6000fd5b505050505050505050620003c9565b600080546001600160a01b038381166001600160a01b0319831681178455604051919092169283917f8be0079c531659141344cd1fd0a4f28419497f9722a3daafe3b4186f6b6457e09190a35050565b80516001600160a01b03811681146200032957600080fd5b919050565b600080600080600060a086880312156200034757600080fd5b620003528662000311565b9450620003626020870162000311565b9350620003726040870162000311565b9250620003826060870162000311565b9150620003926080870162000311565b90509295509295909350565b600060208284031215620003b157600080fd5b81518015158114620003c257600080fd5b9392505050565b60805160a05160c05160e05161010051611cea6200044d600039600081816102170152610696015260008181610280015281816103340152610664015260008181610178015281816103cd0152610a6d01526000818161030801528181610507015281816107740152610add0152600081816102b40152610aa60152611cea6000f3fe6080604052600436106100e05760003560e01c80639df875f01161007f578063d72b1de111610059578063d72b1de11461026e578063db3ac0ce146102a2578063f2fde38b146102d6578063fa569274146102f657600080fd5b80639df875f014610205578063bcdb446b14610239578063d4d0f9841461024e57600080fd5b806335e86070116100bb57806335e860701461016657806340429fe1146101b2578063715018a6146101d25780638da5cb5b146101e757600080fd5b806223de29146100ec578063069c9fae1461010e5780632254528f1461012e57600080fd5b366100e757005b600080fd5b3480156100f857600080fd5b5061010c610107366004611595565b61032a565b005b34801561011a57600080fd5b5061010c610129366004611646565b610410565b34801561013a57600080fd5b5061014e610149366004611672565b6104c0565b60405161015d93929190611704565b60405180910390f35b34801561017257600080fd5b5061019a7f000000000000000000000000000000000000000000000000000000000000000081565b6040516001600160a01b03909116815260200161015d565b3480156101be57600080fd5b5061010c6101cd366004611800565b6104df565b3480156101de57600080fd5b5061010c6105e9565b3480156101f357600080fd5b506000546001600160a01b031661019a565b34801561021157600080fd5b5061019a7f000000000000000000000000000000000000000000000000000000000000000081565b34801561024557600080fd5b5061010c6105fd565b34801561025a57600080fd5b5061010c61026936600461186c565b610651565b34801561027a57600080fd5b5061019a7f000000000000000000000000000000000000000000000000000000000000000081565b3480156102ae57600080fd5b5061019a7f000000000000000000000000000000000000000000000000000000000000000081565b3480156102e257600080fd5b5061010c6102f13660046118c8565b610863565b34801561030257600080fd5b5061019a7f000000000000000000000000000000000000000000000000000000000000000081565b6103326108a1565b7f00000000000000000000000000000000000000000000000000000000000000006001600160a01b0316876001600160a01b031614801561037b57506001600160a01b03861630145b156103fd57600060608185156103a15761039587876108cb565b919450925090506103ed565b505060408051808201909152600e81526d27b33339b2ba2d30b8102ab9b2b960911b60208201528891507f00000000000000000000000000000000000000000000000000000000000000005b6103f988848484610a97565b5050505b61040660018055565b5050505050505050565b610418610c94565b6104206108a1565b816001600160a01b031663a9059cbb6104416000546001600160a01b031690565b6040516001600160e01b031960e084901b1681526001600160a01b039091166004820152602481018490526044016020604051808303816000875af115801561048e573d6000803e3d6000fd5b505050506040513d601f19601f820116820180604052508101906104b291906118ec565b506104bc60018055565b5050565b60006060816104d18486018661190e565b9250925092505b9250925092565b6104e7610c94565b6104ef6108a1565b6040516370a0823160e01b81523060048201526000907f00000000000000000000000000000000000000000000000000000000000000006001600160a01b0316906370a0823190602401602060405180830381865afa158015610556573d6000803e3d6000fd5b505050506040513d601f19601f8201168201806040525081019061057a9190611972565b9050848110156105cd5760405162461bcd60e51b8152602060048201526019602482015278496e73756666696369656e7420555344432062616c616e636560381b60448201526064015b60405180910390fd5b6105d985858585610a97565b506105e360018055565b50505050565b6105f1610c94565b6105fb6000610cc1565b565b610605610c94565b61060d6108a1565b600080546040516001600160a01b03909116914780156108fc02929091818181858888f19350505050158015610647573d6000803e3d6000fd5b506105fb60018055565b6106596108a1565b336001600160a01b037f00000000000000000000000000000000000000000000000000000000000000001614806106b85750336001600160a01b037f000000000000000000000000000000000000000000000000000000000000000016145b6107045760405162461bcd60e51b815260206004820152601760248201527f4f6e6c792053706f6b65206f72206d756c746963616c6c00000000000000000060448201526064016105c4565b6001600160a01b038416301461075c5760405162461bcd60e51b815260206004820152601f60248201527f526563697069656e74206d757374206265207468697320636f6e74726163740060448201526064016105c4565b6040516370a0823160e01b81523060048201526000907f00000000000000000000000000000000000000000000000000000000000000006001600160a01b0316906370a0823190602401602060405180830381865afa1580156107c3573d6000803e3d6000fd5b505050506040513d601f19601f820116820180604052508101906107e79190611972565b9050838110156108355760405162461bcd60e51b8152602060048201526019602482015278496e73756666696369656e7420555344432062616c616e636560381b60448201526064016105c4565b600080600061084486866108cb565b92509250925061085687848484610a97565b505050506105e360018055565b61086b610c94565b6001600160a01b03811661089557604051631e4fbdf760e01b8152600060048201526024016105c4565b61089e81610cc1565b50565b6002600154036108c457604051633ee5aeb560e01b815260040160405180910390fd5b6002600155565b600060608181841061094b57604051632254528f60e01b81523090632254528f906108fc908890889060040161198b565b600060405180830381865afa92505050801561093a57506040513d6000823e601f3d908101601f1916820160405261093791908101906119ba565b60015b1561094b57919450925090506104d8565b600085858080601f0160208091040260200160405190810160405280939291908181526020018383808284376000920191909152505060408051808201909152600b81526a62656e656669636961727960a81b60208201529293506109b4928492509050610d11565b93506109e7816040518060400160405280600f81526020016e62656e65666963696172794e616d6560881b815250610fdb565b9250610a1481604051806040016040528060098152602001683837b7b62a37b5b2b760b91b815250610d11565b91506001600160a01b038416610a2a5761dead93505b8251600003610a5d576040518060400160405280600e81526020016d27b33339b2ba2d30b8102ab9b2b960911b81525092505b6001600160a01b038216610a8f577f000000000000000000000000000000000000000000000000000000000000000091505b509250925092565b604051636fb9367f60e11b81527f0000000000000000000000000000000000000000000000000000000000000000906001600160a01b0382169063df726cfe90610b10907f00000000000000000000000000000000000000000000000000000000000000009086908a908a908a90600090600401611a5b565b6020604051808303816000875af1925050508015610b4b575060408051601f3d908101601f19168201909252610b4891810190611972565b60015b610c4457610b57611b09565b806308c379a003610bc15750610b6b611b25565b80610b765750610bc3565b846001600160a01b03167fd80252b4823cfb933240fde61f4f459729a50f971c0c76746e264117496d5e94848884604051610bb393929190611baf565b60405180910390a250610c8d565b505b836001600160a01b03167fd80252b4823cfb933240fde61f4f459729a50f971c0c76746e264117496d5e948387604051610c379291906001600160a01b039290921682526020820152606060408201819052600d908201526c2ab735b737bbb71032b93937b960991b608082015260a00190565b60405180910390a2610c8d565b846001600160a01b03167f9844159a631815b14cd3c5871074053d7610ffe1a6a016d77b7524e53c41af9a85858985604051610c839493929190611bdf565b60405180910390a2505b5050505050565b6000546001600160a01b031633146105fb5760405163118cdaa760e01b81523360048201526024016105c4565b600080546001600160a01b038381166001600160a01b0319831681178455604051919092169283917f8be0079c531659141344cd1fd0a4f28419497f9722a3daafe3b4186f6b6457e09190a35050565b600080610d1e8484610fdb565b90508051600003610d33576000915050610fd5565b80518190600090828282610d4957610d49611c17565b01602001516001600160f81b031916601160f91b03610d6757600191505b82610d73600183611c43565b81518110610d8357610d83611c17565b01602001516001600160f81b031916601160f91b03610daa57610da7600182611c43565b90505b6002610db68383611c43565b10158015610de85750828281518110610dd157610dd1611c17565b6020910101516001600160f81b031916600360fc1b145b8015610e22575082610dfb836001611c56565b81518110610e0b57610e0b611c17565b6020910101516001600160f81b031916600f60fb1b145b15610e3557610e32826002611c56565b91505b6040805160148082528183019092526000916020820181803683370190505090506000835b8381108015610e695750601482105b15610f275783610e7a826001611c56565b1015610f15576000610eab878381518110610e9757610e97611c17565b01602001516001600160f81b03191661131d565b90506000610ece88610ebe856001611c56565b81518110610e9757610e97611c17565b9050610ff0600483901b16811760f81b8585610ee981611c69565b965081518110610efb57610efb611c17565b60200101906001600160f81b031916908160001a90535050505b610f20600282611c56565b9050610e5a565b5060408051602080825281830190925260009160208201818036833701905050905060005b601481108015610f5c5750835181105b15610fc757838181518110610f7357610f73611c17565b01602001516001600160f81b03191682610f8e83600c611c56565b81518110610f9e57610f9e611c17565b60200101906001600160f81b031916908160001a90535080610fbf81611c69565b915050610f4c565b506020015196505050505050505b92915050565b606082826000610feb8383611454565b9050600019810361101057604051806020016040528060008152509350505050610fd5565b600082518261101f9190611c56565b90505b835181108015611057575083818151811061103f5761103f611c17565b6020910101516001600160f81b031916601d60f91b14155b1561106e578061106681611c69565b915050611022565b835181106110915760405180602001604052806000815250945050505050610fd5565b8061109b81611c69565b9150505b83518110801561110157508381815181106110bc576110bc611c17565b6020910101516001600160f81b031916600160fd1b148061110157508381815181106110ea576110ea611c17565b6020910101516001600160f81b031916600960f81b145b15611118578061111081611c69565b91505061109f565b835181908110801561114e575084818151811061113757611137611c17565b6020910101516001600160f81b031916601160f91b145b15611161578061115d81611c69565b9150505b805b85518110156112495785818151811061117e5761117e611c17565b6020910101516001600160f81b031916601160f91b1480156111d85750818114806111d85750856111b0600183611c43565b815181106111c0576111c0611c17565b6020910101516001600160f81b031916601760fa1b14155b611249578581815181106111ee576111ee611c17565b6020910101516001600160f81b031916600b60fa1b1480611233575085818151811061121c5761121c611c17565b6020910101516001600160f81b031916607d60f81b145b611249578061124181611c69565b915050611163565b60006112558383611c43565b67ffffffffffffffff81111561126d5761126d611739565b6040519080825280601f01601f191660200182016040528015611297576020820181803683370190505b50905060005b6112a78484611c43565b81101561130f57876112b98286611c56565b815181106112c9576112c9611c17565b602001015160f81c60f81b8282815181106112e6576112e6611c17565b60200101906001600160f81b031916908160001a9053508061130781611c69565b91505061129d565b509998505050505050505050565b6000600360fc1b603960f81b606160f81b603360f91b604160f81b602360f91b6001600160f81b03198816861180159061136457506001600160f81b031980861690891611155b15611387578560f81c8860f81c61137b9190611c82565b98975050505050505050565b6001600160f81b0319808516908916108015906113b157506001600160f81b031980841690891611155b156113d3578360f81c8860f81c6113c89190611c82565b61137b90600a611c9b565b6001600160f81b0319808316908916108015906113fd57506001600160f81b031980821690891611155b15611414578160f81c8860f81c6113c89190611c82565b60405162461bcd60e51b815260206004820152601560248201527424b73b30b634b2103432bc1031b430b930b1ba32b960591b60448201526064016105c4565b6000815160000361146757506000610fd5565b82518251111561147a5750600019610fd5565b60005b8251845161148b9190611c43565b811161152c57600160005b845181101561150a578481815181106114b1576114b1611c17565b01602001516001600160f81b031916866114cb8386611c56565b815181106114db576114db611c17565b01602001516001600160f81b031916146114f8576000915061150a565b8061150281611c69565b915050611496565b50801561151957509050610fd5565b508061152481611c69565b91505061147d565b506000199392505050565b6001600160a01b038116811461089e57600080fd5b60008083601f84011261155e57600080fd5b50813567ffffffffffffffff81111561157657600080fd5b60208301915083602082850101111561158e57600080fd5b9250929050565b60008060008060008060008060c0898b0312156115b157600080fd5b88356115bc81611537565b975060208901356115cc81611537565b965060408901356115dc81611537565b955060608901359450608089013567ffffffffffffffff8082111561160057600080fd5b61160c8c838d0161154c565b909650945060a08b013591508082111561162557600080fd5b506116328b828c0161154c565b999c989b5096995094979396929594505050565b6000806040838503121561165957600080fd5b823561166481611537565b946020939093013593505050565b6000806020838503121561168557600080fd5b823567ffffffffffffffff81111561169c57600080fd5b6116a88582860161154c565b90969095509350505050565b60005b838110156116cf5781810151838201526020016116b7565b50506000910152565b600081518084526116f08160208601602086016116b4565b601f01601f19169290920160200192915050565b600060018060a01b0380861683526060602084015261172660608401866116d8565b9150808416604084015250949350505050565b634e487b7160e01b600052604160045260246000fd5b601f8201601f1916810167ffffffffffffffff8111828210171561177557611775611739565b6040525050565b600067ffffffffffffffff82111561179657611796611739565b50601f01601f191660200190565b600082601f8301126117b557600080fd5b81356117c08161177c565b6040516117cd828261174f565b8281528560208487010111156117e257600080fd5b82602086016020830137600092810160200192909252509392505050565b6000806000806080858703121561181657600080fd5b84359350602085013561182881611537565b9250604085013567ffffffffffffffff81111561184457600080fd5b611850878288016117a4565b925050606085013561186181611537565b939692955090935050565b6000806000806060858703121561188257600080fd5b843561188d81611537565b935060208501359250604085013567ffffffffffffffff8111156118b057600080fd5b6118bc8782880161154c565b95989497509550505050565b6000602082840312156118da57600080fd5b81356118e581611537565b9392505050565b6000602082840312156118fe57600080fd5b815180151581146118e557600080fd5b60008060006060848603121561192357600080fd5b833561192e81611537565b9250602084013567ffffffffffffffff81111561194a57600080fd5b611956868287016117a4565b925050604084013561196781611537565b809150509250925092565b60006020828403121561198457600080fd5b5051919050565b60208152816020820152818360408301376000818301604090810191909152601f909201601f19160101919050565b6000806000606084860312156119cf57600080fd5b83516119da81611537565b602085015190935067ffffffffffffffff8111156119f757600080fd5b8401601f81018613611a0857600080fd5b8051611a138161177c565b604051611a20828261174f565b828152886020848601011115611a3557600080fd5b611a468360208301602087016116b4565b80955050505050604084015161196781611537565b6001600160a01b038781168252868116602083015260408201869052610100606083018190526009908301526804f66667365745a61760bc1b6101208301528416608082015261014060a08201819052600090611aba818401866116d8565b905082810360c0840152601b81527f436172626f6e206f666673657420766961204f66667365745a6170000000000060208201526040810191505060ff831660e0830152979650505050505050565b600060033d1115611b225760046000803e5060005160e01c5b90565b600060443d1015611b335790565b6040516003193d81016004833e81513d67ffffffffffffffff8160248401118184111715611b6357505050505090565b8285019150815181811115611b7b5750505050505090565b843d8701016020828501011115611b955750505050505090565b611ba46020828601018761174f565b509095945050505050565b60018060a01b0384168152826020820152606060408201526000611bd660608301846116d8565b95945050505050565b608081526000611bf260808301876116d8565b6001600160a01b03959095166020830152506040810192909252606090910152919050565b634e487b7160e01b600052603260045260246000fd5b634e487b7160e01b600052601160045260246000fd5b81810381811115610fd557610fd5611c2d565b80820180821115610fd557610fd5611c2d565b600060018201611c7b57611c7b611c2d565b5060010190565b60ff8281168282160390811115610fd557610fd5611c2d565b60ff8181168382160190811115610fd557610fd5611c2d56fea2646970667358221220fcaa9822cf90c254f9cb84af2612ded3b275b6769cb3dbe72a6bb79b589f807964736f6c63430008140033","opcodes":"PUSH2 0x120 PUSH1 0x40 MSTORE CALLVALUE DUP1 ISZERO PUSH3 0x12 JUMPI PUSH1 0x0 DUP1 REVERT JUMPDEST POP PUSH1 0x40 MLOAD PUSH3 0x2137 CODESIZE SUB DUP1 PUSH3 0x2137 DUP4 CODECOPY DUP2 ADD PUSH1 0x40 DUP2 SWAP1 MSTORE PUSH3 0x35 SWAP2 PUSH3 0x32E JUMP JUMPDEST CALLER DUP1 PUSH3 0x5D JUMPI PUSH1 0x40 MLOAD PUSH4 0x1E4FBDF7 PUSH1 0xE0 SHL DUP2 MSTORE PUSH1 0x0 PUSH1 0x4 DUP3 ADD MSTORE PUSH1 0x24 ADD JUMPDEST PUSH1 0x40 MLOAD DUP1 SWAP2 SUB SWAP1 REVERT JUMPDEST PUSH3 0x68 DUP2 PUSH3 0x2C1 JUMP JUMPDEST POP PUSH1 0x1 DUP1 SSTORE PUSH1 0x1 PUSH1 0x1 PUSH1 0xA0 SHL SUB DUP6 AND PUSH3 0xB5 JUMPI PUSH1 0x40 MLOAD PUSH3 0x461BCD PUSH1 0xE5 SHL DUP2 MSTORE PUSH1 0x20 PUSH1 0x4 DUP3 ADD MSTORE PUSH1 0xD PUSH1 0x24 DUP3 ADD MSTORE PUSH13 0x696E76616C6964206B6C696D61 PUSH1 0x98 SHL PUSH1 0x44 DUP3 ADD MSTORE PUSH1 0x64 ADD PUSH3 0x54 JUMP JUMPDEST PUSH1 0x1 PUSH1 0x1 PUSH1 0xA0 SHL SUB DUP5 AND PUSH3 0xFC JUMPI PUSH1 0x40 MLOAD PUSH3 0x461BCD PUSH1 0xE5 SHL DUP2 MSTORE PUSH1 0x20 PUSH1 0x4 DUP3 ADD MSTORE PUSH1 0xC PUSH1 0x24 DUP3 ADD MSTORE PUSH12 0x696E76616C69642075736463 PUSH1 0xA0 SHL PUSH1 0x44 DUP3 ADD MSTORE PUSH1 0x64 ADD PUSH3 0x54 JUMP JUMPDEST PUSH1 0x1 PUSH1 0x1 PUSH1 0xA0 SHL SUB DUP4 AND PUSH3 0x143 JUMPI PUSH1 0x40 MLOAD PUSH3 0x461BCD PUSH1 0xE5 SHL DUP2 MSTORE PUSH1 0x20 PUSH1 0x4 DUP3 ADD MSTORE PUSH1 0xC PUSH1 0x24 DUP3 ADD MSTORE PUSH12 0x1A5B9D985B1A59081C1BDBDB PUSH1 0xA2 SHL PUSH1 0x44 DUP3 ADD MSTORE PUSH1 0x64 ADD PUSH3 0x54 JUMP JUMPDEST PUSH1 0x1 PUSH1 0x1 PUSH1 0xA0 SHL SUB DUP3 AND PUSH3 0x18B JUMPI PUSH1 0x40 MLOAD PUSH3 0x461BCD PUSH1 0xE5 SHL DUP2 MSTORE PUSH1 0x20 PUSH1 0x4 DUP3 ADD MSTORE PUSH1 0xD PUSH1 0x24 DUP3 ADD MSTORE PUSH13 0x696E76616C69642073706F6B65 PUSH1 0x98 SHL PUSH1 0x44 DUP3 ADD MSTORE PUSH1 0x64 ADD PUSH3 0x54 JUMP JUMPDEST PUSH1 0x1 PUSH1 0x1 PUSH1 0xA0 SHL SUB DUP6 DUP2 AND PUSH1 0x80 DUP2 SWAP1 MSTORE DUP6 DUP3 AND PUSH1 0xA0 DUP2 SWAP1 MSTORE DUP6 DUP4 AND PUSH1 0xC0 MSTORE DUP5 DUP4 AND PUSH1 0xE0 MSTORE SWAP2 DUP4 AND PUSH2 0x100 MSTORE PUSH1 0x40 MLOAD PUSH4 0x95EA7B3 PUSH1 0xE0 SHL DUP2 MSTORE PUSH1 0x4 DUP2 ADD SWAP2 SWAP1 SWAP2 MSTORE PUSH1 0x0 NOT PUSH1 0x24 DUP3 ADD MSTORE PUSH4 0x95EA7B3 SWAP1 PUSH1 0x44 ADD PUSH1 0x20 PUSH1 0x40 MLOAD DUP1 DUP4 SUB DUP2 PUSH1 0x0 DUP8 GAS CALL ISZERO DUP1 ISZERO PUSH3 0x1FC JUMPI RETURNDATASIZE PUSH1 0x0 DUP1 RETURNDATACOPY RETURNDATASIZE PUSH1 0x0 REVERT JUMPDEST POP POP POP POP PUSH1 0x40 MLOAD RETURNDATASIZE PUSH1 0x1F NOT PUSH1 0x1F DUP3 ADD AND DUP3 ADD DUP1 PUSH1 0x40 MSTORE POP DUP2 ADD SWAP1 PUSH3 0x222 SWAP2 SWAP1 PUSH3 0x39E JUMP JUMPDEST POP PUSH1 0x40 MLOAD PUSH4 0x29965A1D PUSH1 0xE0 SHL DUP2 MSTORE ADDRESS PUSH1 0x4 DUP3 ADD DUP2 SWAP1 MSTORE PUSH32 0xB281FC8C12954D22544DB45DE3159A39272895B169A852B314F9CC762E44C53B PUSH1 0x24 DUP4 ADD MSTORE PUSH1 0x44 DUP3 ADD MSTORE PUSH20 0x1820A4B7618BDE71DCE8CDC73AAB6C95905FAD24 SWAP1 PUSH4 0x29965A1D SWAP1 PUSH1 0x64 ADD PUSH1 0x0 PUSH1 0x40 MLOAD DUP1 DUP4 SUB DUP2 PUSH1 0x0 DUP8 DUP1 EXTCODESIZE ISZERO DUP1 ISZERO PUSH3 0x29D JUMPI PUSH1 0x0 DUP1 REVERT JUMPDEST POP GAS CALL ISZERO DUP1 ISZERO PUSH3 0x2B2 JUMPI RETURNDATASIZE PUSH1 0x0 DUP1 RETURNDATACOPY RETURNDATASIZE PUSH1 0x0 REVERT JUMPDEST POP POP POP POP POP POP POP POP POP PUSH3 0x3C9 JUMP JUMPDEST PUSH1 0x0 DUP1 SLOAD PUSH1 0x1 PUSH1 0x1 PUSH1 0xA0 SHL SUB DUP4 DUP2 AND PUSH1 0x1 PUSH1 0x1 PUSH1 0xA0 SHL SUB NOT DUP4 AND DUP2 OR DUP5 SSTORE PUSH1 0x40 MLOAD SWAP2 SWAP1 SWAP3 AND SWAP3 DUP4 SWAP2 PUSH32 0x8BE0079C531659141344CD1FD0A4F28419497F9722A3DAAFE3B4186F6B6457E0 SWAP2 SWAP1 LOG3 POP POP JUMP JUMPDEST DUP1 MLOAD PUSH1 0x1 PUSH1 0x1 PUSH1 0xA0 SHL SUB DUP2 AND DUP2 EQ PUSH3 0x329 JUMPI PUSH1 0x0 DUP1 REVERT JUMPDEST SWAP2 SWAP1 POP JUMP JUMPDEST PUSH1 0x0 DUP1 PUSH1 0x0 DUP1 PUSH1 0x0 PUSH1 0xA0 DUP7 DUP9 SUB SLT ISZERO PUSH3 0x347 JUMPI PUSH1 0x0 DUP1 REVERT JUMPDEST PUSH3 0x352 DUP7 PUSH3 0x311 JUMP JUMPDEST SWAP5 POP PUSH3 0x362 PUSH1 0x20 DUP8 ADD PUSH3 0x311 JUMP JUMPDEST SWAP4 POP PUSH3 0x372 PUSH1 0x40 DUP8 ADD PUSH3 0x311 JUMP JUMPDEST SWAP3 POP PUSH3 0x382 PUSH1 0x60 DUP8 ADD PUSH3 0x311 JUMP JUMPDEST SWAP2 POP PUSH3 0x392 PUSH1 0x80 DUP8 ADD PUSH3 0x311 JUMP JUMPDEST SWAP1 POP SWAP3 SWAP6 POP SWAP3 SWAP6 SWAP1 SWAP4 POP JUMP JUMPDEST PUSH1 0x0 PUSH1 0x20 DUP3 DUP5 SUB SLT ISZERO PUSH3 0x3B1 JUMPI PUSH1 0x0 DUP1 REVERT JUMPDEST DUP2 MLOAD DUP1 ISZERO ISZERO DUP2 EQ PUSH3 0x3C2 JUMPI PUSH1 0x0 DUP1 REVERT JUMPDEST SWAP4 SWAP3 POP POP POP JUMP JUMPDEST PUSH1 0x80 MLOAD PUSH1 0xA0 MLOAD PUSH1 0xC0 MLOAD PUSH1 0xE0 MLOAD PUSH2 0x100 MLOAD PUSH2 0x1CEA PUSH3 0x44D PUSH1 0x0 CODECOPY PUSH1 0x0 DUP2 DUP2 PUSH2 0x217 ADD MSTORE PUSH2 0x696 ADD MSTORE PUSH1 0x0 DUP2 DUP2 PUSH2 0x280 ADD MSTORE DUP2 DUP2 PUSH2 0x334 ADD MSTORE PUSH2 0x664 ADD MSTORE PUSH1 0x0 DUP2 DUP2 PUSH2 0x178 ADD MSTORE DUP2 DUP2 PUSH2 0x3CD ADD MSTORE PUSH2 0xA6D ADD MSTORE PUSH1 0x0 DUP2 DUP2 PUSH2 0x308 ADD MSTORE DUP2 DUP2 PUSH2 0x507 ADD MSTORE DUP2 DUP2 PUSH2 0x774 ADD MSTORE PUSH2 0xADD ADD MSTORE PUSH1 0x0 DUP2 DUP2 PUSH2 0x2B4 ADD MSTORE PUSH2 0xAA6 ADD MSTORE PUSH2 0x1CEA PUSH1 0x0 RETURN INVALID PUSH1 0x80 PUSH1 0x40 MSTORE PUSH1 0x4 CALLDATASIZE LT PUSH2 0xE0 JUMPI PUSH1 0x0 CALLDATALOAD PUSH1 0xE0 SHR DUP1 PUSH4 0x9DF875F0 GT PUSH2 0x7F JUMPI DUP1 PUSH4 0xD72B1DE1 GT PUSH2 0x59 JUMPI DUP1 PUSH4 0xD72B1DE1 EQ PUSH2 0x26E JUMPI DUP1 PUSH4 0xDB3AC0CE EQ PUSH2 0x2A2 JUMPI DUP1 PUSH4 0xF2FDE38B EQ PUSH2 0x2D6 JUMPI DUP1 PUSH4 0xFA569274 EQ PUSH2 0x2F6 JUMPI PUSH1 0x0 DUP1 REVERT JUMPDEST DUP1 PUSH4 0x9DF875F0 EQ PUSH2 0x205 JUMPI DUP1 PUSH4 0xBCDB446B EQ PUSH2 0x239 JUMPI DUP1 PUSH4 0xD4D0F984 EQ PUSH2 0x24E JUMPI PUSH1 0x0 DUP1 REVERT JUMPDEST DUP1 PUSH4 0x35E86070 GT PUSH2 0xBB JUMPI DUP1 PUSH4 0x35E86070 EQ PUSH2 0x166 JUMPI DUP1 PUSH4 0x40429FE1 EQ PUSH2 0x1B2 JUMPI DUP1 PUSH4 0x715018A6 EQ PUSH2 0x1D2 JUMPI DUP1 PUSH4 0x8DA5CB5B EQ PUSH2 0x1E7 JUMPI PUSH1 0x0 DUP1 REVERT JUMPDEST DUP1 PUSH3 0x23DE29 EQ PUSH2 0xEC JUMPI DUP1 PUSH4 0x69C9FAE EQ PUSH2 0x10E JUMPI DUP1 PUSH4 0x2254528F EQ PUSH2 0x12E JUMPI PUSH1 0x0 DUP1 REVERT JUMPDEST CALLDATASIZE PUSH2 0xE7 JUMPI STOP JUMPDEST PUSH1 0x0 DUP1 REVERT JUMPDEST CALLVALUE DUP1 ISZERO PUSH2 0xF8 JUMPI PUSH1 0x0 DUP1 REVERT JUMPDEST POP PUSH2 0x10C PUSH2 0x107 CALLDATASIZE PUSH1 0x4 PUSH2 0x1595 JUMP JUMPDEST PUSH2 0x32A JUMP JUMPDEST STOP JUMPDEST CALLVALUE DUP1 ISZERO PUSH2 0x11A JUMPI PUSH1 0x0 DUP1 REVERT JUMPDEST POP PUSH2 0x10C PUSH2 0x129 CALLDATASIZE PUSH1 0x4 PUSH2 0x1646 JUMP JUMPDEST PUSH2 0x410 JUMP JUMPDEST CALLVALUE DUP1 ISZERO PUSH2 0x13A JUMPI PUSH1 0x0 DUP1 REVERT JUMPDEST POP PUSH2 0x14E PUSH2 0x149 CALLDATASIZE PUSH1 0x4 PUSH2 0x1672 JUMP JUMPDEST PUSH2 0x4C0 JUMP JUMPDEST PUSH1 0x40 MLOAD PUSH2 0x15D SWAP4 SWAP3 SWAP2 SWAP1 PUSH2 0x1704 JUMP JUMPDEST PUSH1 0x40 MLOAD DUP1 SWAP2 SUB SWAP1 RETURN JUMPDEST CALLVALUE DUP1 ISZERO PUSH2 0x172 JUMPI PUSH1 0x0 DUP1 REVERT JUMPDEST POP PUSH2 0x19A PUSH32 0x0 DUP2 JUMP JUMPDEST PUSH1 0x40 MLOAD PUSH1 0x1 PUSH1 0x1 PUSH1 0xA0 SHL SUB SWAP1 SWAP2 AND DUP2 MSTORE PUSH1 0x20 ADD PUSH2 0x15D JUMP JUMPDEST CALLVALUE DUP1 ISZERO PUSH2 0x1BE JUMPI PUSH1 0x0 DUP1 REVERT JUMPDEST POP PUSH2 0x10C PUSH2 0x1CD CALLDATASIZE PUSH1 0x4 PUSH2 0x1800 JUMP JUMPDEST PUSH2 0x4DF JUMP JUMPDEST CALLVALUE DUP1 ISZERO PUSH2 0x1DE JUMPI PUSH1 0x0 DUP1 REVERT JUMPDEST POP PUSH2 0x10C PUSH2 0x5E9 JUMP JUMPDEST CALLVALUE DUP1 ISZERO PUSH2 0x1F3 JUMPI PUSH1 0x0 DUP1 REVERT JUMPDEST POP PUSH1 0x0 SLOAD PUSH1 0x1 PUSH1 0x1 PUSH1 0xA0 SHL SUB AND PUSH2 0x19A JUMP JUMPDEST CALLVALUE DUP1 ISZERO PUSH2 0x211 JUMPI PUSH1 0x0 DUP1 REVERT JUMPDEST POP PUSH2 0x19A PUSH32 0x0 DUP2 JUMP JUMPDEST CALLVALUE DUP1 ISZERO PUSH2 0x245 JUMPI PUSH1 0x0 DUP1 REVERT JUMPDEST POP PUSH2 0x10C PUSH2 0x5FD JUMP JUMPDEST CALLVALUE DUP1 ISZERO PUSH2 0x25A JUMPI PUSH1 0x0 DUP1 REVERT JUMPDEST POP PUSH2 0x10C PUSH2 0x269 CALLDATASIZE PUSH1 0x4 PUSH2 0x186C JUMP JUMPDEST PUSH2 0x651 JUMP JUMPDEST CALLVALUE DUP1 ISZERO PUSH2 0x27A JUMPI PUSH1 0x0 DUP1 REVERT JUMPDEST POP PUSH2 0x19A PUSH32 0x0 DUP2 JUMP JUMPDEST CALLVALUE DUP1 ISZERO PUSH2 0x2AE JUMPI PUSH1 0x0 DUP1 REVERT JUMPDEST POP PUSH2 0x19A PUSH32 0x0 DUP2 JUMP JUMPDEST CALLVALUE DUP1 ISZERO PUSH2 0x2E2 JUMPI PUSH1 0x0 DUP1 REVERT JUMPDEST POP PUSH2 0x10C PUSH2 0x2F1 CALLDATASIZE PUSH1 0x4 PUSH2 0x18C8 JUMP JUMPDEST PUSH2 0x863 JUMP JUMPDEST CALLVALUE DUP1 ISZERO PUSH2 0x302 JUMPI PUSH1 0x0 DUP1 REVERT JUMPDEST POP PUSH2 0x19A PUSH32 0x0 DUP2 JUMP JUMPDEST PUSH2 0x332 PUSH2 0x8A1 JUMP JUMPDEST PUSH32 0x0 PUSH1 0x1 PUSH1 0x1 PUSH1 0xA0 SHL SUB AND DUP8 PUSH1 0x1 PUSH1 0x1 PUSH1 0xA0 SHL SUB AND EQ DUP1 ISZERO PUSH2 0x37B JUMPI POP PUSH1 0x1 PUSH1 0x1 PUSH1 0xA0 SHL SUB DUP7 AND ADDRESS EQ JUMPDEST ISZERO PUSH2 0x3FD JUMPI PUSH1 0x0 PUSH1 0x60 DUP2 DUP6 ISZERO PUSH2 0x3A1 JUMPI PUSH2 0x395 DUP8 DUP8 PUSH2 0x8CB JUMP JUMPDEST SWAP2 SWAP5 POP SWAP3 POP SWAP1 POP PUSH2 0x3ED JUMP JUMPDEST POP POP PUSH1 0x40 DUP1 MLOAD DUP1 DUP3 ADD SWAP1 SWAP2 MSTORE PUSH1 0xE DUP2 MSTORE PUSH14 0x27B33339B2BA2D30B8102AB9B2B9 PUSH1 0x91 SHL PUSH1 0x20 DUP3 ADD MSTORE DUP9 SWAP2 POP PUSH32 0x0 JUMPDEST PUSH2 0x3F9 DUP9 DUP5 DUP5 DUP5 PUSH2 0xA97 JUMP JUMPDEST POP POP POP JUMPDEST PUSH2 0x406 PUSH1 0x1 DUP1 SSTORE JUMP JUMPDEST POP POP POP POP POP POP POP POP JUMP JUMPDEST PUSH2 0x418 PUSH2 0xC94 JUMP JUMPDEST PUSH2 0x420 PUSH2 0x8A1 JUMP JUMPDEST DUP2 PUSH1 0x1 PUSH1 0x1 PUSH1 0xA0 SHL SUB AND PUSH4 0xA9059CBB PUSH2 0x441 PUSH1 0x0 SLOAD PUSH1 0x1 PUSH1 0x1 PUSH1 0xA0 SHL SUB AND SWAP1 JUMP JUMPDEST PUSH1 0x40 MLOAD PUSH1 0x1 PUSH1 0x1 PUSH1 0xE0 SHL SUB NOT PUSH1 0xE0 DUP5 SWAP1 SHL AND DUP2 MSTORE PUSH1 0x1 PUSH1 0x1 PUSH1 0xA0 SHL SUB SWAP1 SWAP2 AND PUSH1 0x4 DUP3 ADD MSTORE PUSH1 0x24 DUP2 ADD DUP5 SWAP1 MSTORE PUSH1 0x44 ADD PUSH1 0x20 PUSH1 0x40 MLOAD DUP1 DUP4 SUB DUP2 PUSH1 0x0 DUP8 GAS CALL ISZERO DUP1 ISZERO PUSH2 0x48E JUMPI RETURNDATASIZE PUSH1 0x0 DUP1 RETURNDATACOPY RETURNDATASIZE PUSH1 0x0 REVERT JUMPDEST POP POP POP POP PUSH1 0x40 MLOAD RETURNDATASIZE PUSH1 0x1F NOT PUSH1 0x1F DUP3 ADD AND DUP3 ADD DUP1 PUSH1 0x40 MSTORE POP DUP2 ADD SWAP1 PUSH2 0x4B2 SWAP2 SWAP1 PUSH2 0x18EC JUMP JUMPDEST POP PUSH2 0x4BC PUSH1 0x1 DUP1 SSTORE JUMP JUMPDEST POP POP JUMP JUMPDEST PUSH1 0x0 PUSH1 0x60 DUP2 PUSH2 0x4D1 DUP5 DUP7 ADD DUP7 PUSH2 0x190E JUMP JUMPDEST SWAP3 POP SWAP3 POP SWAP3 POP JUMPDEST SWAP3 POP SWAP3 POP SWAP3 JUMP JUMPDEST PUSH2 0x4E7 PUSH2 0xC94 JUMP JUMPDEST PUSH2 0x4EF PUSH2 0x8A1 JUMP JUMPDEST PUSH1 0x40 MLOAD PUSH4 0x70A08231 PUSH1 0xE0 SHL DUP2 MSTORE ADDRESS PUSH1 0x4 DUP3 ADD MSTORE PUSH1 0x0 SWAP1 PUSH32 0x0 PUSH1 0x1 PUSH1 0x1 PUSH1 0xA0 SHL SUB AND SWAP1 PUSH4 0x70A08231 SWAP1 PUSH1 0x24 ADD PUSH1 0x20 PUSH1 0x40 MLOAD DUP1 DUP4 SUB DUP2 DUP7 GAS STATICCALL ISZERO DUP1 ISZERO PUSH2 0x556 JUMPI RETURNDATASIZE PUSH1 0x0 DUP1 RETURNDATACOPY RETURNDATASIZE PUSH1 0x0 REVERT JUMPDEST POP POP POP POP PUSH1 0x40 MLOAD RETURNDATASIZE PUSH1 0x1F NOT PUSH1 0x1F DUP3 ADD AND DUP3 ADD DUP1 PUSH1 0x40 MSTORE POP DUP2 ADD SWAP1 PUSH2 0x57A SWAP2 SWAP1 PUSH2 0x1972 JUMP JUMPDEST SWAP1 POP DUP5 DUP2 LT ISZERO PUSH2 0x5CD JUMPI PUSH1 0x40 MLOAD PUSH3 0x461BCD PUSH1 0xE5 SHL DUP2 MSTORE PUSH1 0x20 PUSH1 0x4 DUP3 ADD MSTORE PUSH1 0x19 PUSH1 0x24 DUP3 ADD MSTORE PUSH25 0x496E73756666696369656E7420555344432062616C616E6365 PUSH1 0x38 SHL PUSH1 0x44 DUP3 ADD MSTORE PUSH1 0x64 ADD JUMPDEST PUSH1 0x40 MLOAD DUP1 SWAP2 SUB SWAP1 REVERT JUMPDEST PUSH2 0x5D9 DUP6 DUP6 DUP6 DUP6 PUSH2 0xA97 JUMP JUMPDEST POP PUSH2 0x5E3 PUSH1 0x1 DUP1 SSTORE JUMP JUMPDEST POP POP POP POP JUMP JUMPDEST PUSH2 0x5F1 PUSH2 0xC94 JUMP JUMPDEST PUSH2 0x5FB PUSH1 0x0 PUSH2 0xCC1 JUMP JUMPDEST JUMP JUMPDEST PUSH2 0x605 PUSH2 0xC94 JUMP JUMPDEST PUSH2 0x60D PUSH2 0x8A1 JUMP JUMPDEST PUSH1 0x0 DUP1 SLOAD PUSH1 0x40 MLOAD PUSH1 0x1 PUSH1 0x1 PUSH1 0xA0 SHL SUB SWAP1 SWAP2 AND SWAP2 SELFBALANCE DUP1 ISZERO PUSH2 0x8FC MUL SWAP3 SWAP1 SWAP2 DUP2 DUP2 DUP2 DUP6 DUP9 DUP9 CALL SWAP4 POP POP POP POP ISZERO DUP1 ISZERO PUSH2 0x647 JUMPI RETURNDATASIZE PUSH1 0x0 DUP1 RETURNDATACOPY RETURNDATASIZE PUSH1 0x0 REVERT JUMPDEST POP PUSH2 0x5FB PUSH1 0x1 DUP1 SSTORE JUMP JUMPDEST PUSH2 0x659 PUSH2 0x8A1 JUMP JUMPDEST CALLER PUSH1 0x1 PUSH1 0x1 PUSH1 0xA0 SHL SUB PUSH32 0x0 AND EQ DUP1 PUSH2 0x6B8 JUMPI POP CALLER PUSH1 0x1 PUSH1 0x1 PUSH1 0xA0 SHL SUB PUSH32 0x0 AND EQ JUMPDEST PUSH2 0x704 JUMPI PUSH1 0x40 MLOAD PUSH3 0x461BCD PUSH1 0xE5 SHL DUP2 MSTORE PUSH1 0x20 PUSH1 0x4 DUP3 ADD MSTORE PUSH1 0x17 PUSH1 0x24 DUP3 ADD MSTORE PUSH32 0x4F6E6C792053706F6B65206F72206D756C746963616C6C000000000000000000 PUSH1 0x44 DUP3 ADD MSTORE PUSH1 0x64 ADD PUSH2 0x5C4 JUMP JUMPDEST PUSH1 0x1 PUSH1 0x1 PUSH1 0xA0 SHL SUB DUP5 AND ADDRESS EQ PUSH2 0x75C JUMPI PUSH1 0x40 MLOAD PUSH3 0x461BCD PUSH1 0xE5 SHL DUP2 MSTORE PUSH1 0x20 PUSH1 0x4 DUP3 ADD MSTORE PUSH1 0x1F PUSH1 0x24 DUP3 ADD MSTORE PUSH32 0x526563697069656E74206D757374206265207468697320636F6E747261637400 PUSH1 0x44 DUP3 ADD MSTORE PUSH1 0x64 ADD PUSH2 0x5C4 JUMP JUMPDEST PUSH1 0x40 MLOAD PUSH4 0x70A08231 PUSH1 0xE0 SHL DUP2 MSTORE ADDRESS PUSH1 0x4 DUP3 ADD MSTORE PUSH1 0x0 SWAP1 PUSH32 0x0 PUSH1 0x1 PUSH1 0x1 PUSH1 0xA0 SHL SUB AND SWAP1 PUSH4 0x70A08231 SWAP1 PUSH1 0x24 ADD PUSH1 0x20 PUSH1 0x40 MLOAD DUP1 DUP4 SUB DUP2 DUP7 GAS STATICCALL ISZERO DUP1 ISZERO PUSH2 0x7C3 JUMPI RETURNDATASIZE PUSH1 0x0 DUP1 RETURNDATACOPY RETURNDATASIZE PUSH1 0x0 REVERT JUMPDEST POP POP POP POP PUSH1 0x40 MLOAD RETURNDATASIZE PUSH1 0x1F NOT PUSH1 0x1F DUP3 ADD AND DUP3 ADD DUP1 PUSH1 0x40 MSTORE POP DUP2 ADD SWAP1 PUSH2 0x7E7 SWAP2 SWAP1 PUSH2 0x1972 JUMP JUMPDEST SWAP1 POP DUP4 DUP2 LT ISZERO PUSH2 0x835 JUMPI PUSH1 0x40 MLOAD PUSH3 0x461BCD PUSH1 0xE5 SHL DUP2 MSTORE PUSH1 0x20 PUSH1 0x4 DUP3 ADD MSTORE PUSH1 0x19 PUSH1 0x24 DUP3 ADD MSTORE PUSH25 0x496E73756666696369656E7420555344432062616C616E6365 PUSH1 0x38 SHL PUSH1 0x44 DUP3 ADD MSTORE PUSH1 0x64 ADD PUSH2 0x5C4 JUMP JUMPDEST PUSH1 0x0 DUP1 PUSH1 0x0 PUSH2 0x844 DUP7 DUP7 PUSH2 0x8CB JUMP JUMPDEST SWAP3 POP SWAP3 POP SWAP3 POP PUSH2 0x856 DUP8 DUP5 DUP5 DUP5 PUSH2 0xA97 JUMP JUMPDEST POP POP POP POP PUSH2 0x5E3 PUSH1 0x1 DUP1 SSTORE JUMP JUMPDEST PUSH2 0x86B PUSH2 0xC94 JUMP JUMPDEST PUSH1 0x1 PUSH1 0x1 PUSH1 0xA0 SHL SUB DUP2 AND PUSH2 0x895 JUMPI PUSH1 0x40 MLOAD PUSH4 0x1E4FBDF7 PUSH1 0xE0 SHL DUP2 MSTORE PUSH1 0x0 PUSH1 0x4 DUP3 ADD MSTORE PUSH1 0x24 ADD PUSH2 0x5C4 JUMP JUMPDEST PUSH2 0x89E DUP2 PUSH2 0xCC1 JUMP JUMPDEST POP JUMP JUMPDEST PUSH1 0x2 PUSH1 0x1 SLOAD SUB PUSH2 0x8C4 JUMPI PUSH1 0x40 MLOAD PUSH4 0x3EE5AEB5 PUSH1 0xE0 SHL DUP2 MSTORE PUSH1 0x4 ADD PUSH1 0x40 MLOAD DUP1 SWAP2 SUB SWAP1 REVERT JUMPDEST PUSH1 0x2 PUSH1 0x1 SSTORE JUMP JUMPDEST PUSH1 0x0 PUSH1 0x60 DUP2 DUP2 DUP5 LT PUSH2 0x94B JUMPI PUSH1 0x40 MLOAD PUSH4 0x2254528F PUSH1 0xE0 SHL DUP2 MSTORE ADDRESS SWAP1 PUSH4 0x2254528F SWAP1 PUSH2 0x8FC SWAP1 DUP9 SWAP1 DUP9 SWAP1 PUSH1 0x4 ADD PUSH2 0x198B JUMP JUMPDEST PUSH1 0x0 PUSH1 0x40 MLOAD DUP1 DUP4 SUB DUP2 DUP7 GAS STATICCALL SWAP3 POP POP POP DUP1 ISZERO PUSH2 0x93A JUMPI POP PUSH1 0x40 MLOAD RETURNDATASIZE PUSH1 0x0 DUP3 RETURNDATACOPY PUSH1 0x1F RETURNDATASIZE SWAP1 DUP2 ADD PUSH1 0x1F NOT AND DUP3 ADD PUSH1 0x40 MSTORE PUSH2 0x937 SWAP2 SWAP1 DUP2 ADD SWAP1 PUSH2 0x19BA JUMP JUMPDEST PUSH1 0x1 JUMPDEST ISZERO PUSH2 0x94B JUMPI SWAP2 SWAP5 POP SWAP3 POP SWAP1 POP PUSH2 0x4D8 JUMP JUMPDEST PUSH1 0x0 DUP6 DUP6 DUP1 DUP1 PUSH1 0x1F ADD PUSH1 0x20 DUP1 SWAP2 DIV MUL PUSH1 0x20 ADD PUSH1 0x40 MLOAD SWAP1 DUP2 ADD PUSH1 0x40 MSTORE DUP1 SWAP4 SWAP3 SWAP2 SWAP1 DUP2 DUP2 MSTORE PUSH1 0x20 ADD DUP4 DUP4 DUP1 DUP3 DUP5 CALLDATACOPY PUSH1 0x0 SWAP3 ADD SWAP2 SWAP1 SWAP2 MSTORE POP POP PUSH1 0x40 DUP1 MLOAD DUP1 DUP3 ADD SWAP1 SWAP2 MSTORE PUSH1 0xB DUP2 MSTORE PUSH11 0x62656E6566696369617279 PUSH1 0xA8 SHL PUSH1 0x20 DUP3 ADD MSTORE SWAP3 SWAP4 POP PUSH2 0x9B4 SWAP3 DUP5 SWAP3 POP SWAP1 POP PUSH2 0xD11 JUMP JUMPDEST SWAP4 POP PUSH2 0x9E7 DUP2 PUSH1 0x40 MLOAD DUP1 PUSH1 0x40 ADD PUSH1 0x40 MSTORE DUP1 PUSH1 0xF DUP2 MSTORE PUSH1 0x20 ADD PUSH15 0x62656E65666963696172794E616D65 PUSH1 0x88 SHL DUP2 MSTORE POP PUSH2 0xFDB JUMP JUMPDEST SWAP3 POP PUSH2 0xA14 DUP2 PUSH1 0x40 MLOAD DUP1 PUSH1 0x40 ADD PUSH1 0x40 MSTORE DUP1 PUSH1 0x9 DUP2 MSTORE PUSH1 0x20 ADD PUSH9 0x3837B7B62A37B5B2B7 PUSH1 0xB9 SHL DUP2 MSTORE POP PUSH2 0xD11 JUMP JUMPDEST SWAP2 POP PUSH1 0x1 PUSH1 0x1 PUSH1 0xA0 SHL SUB DUP5 AND PUSH2 0xA2A JUMPI PUSH2 0xDEAD SWAP4 POP JUMPDEST DUP3 MLOAD PUSH1 0x0 SUB PUSH2 0xA5D JUMPI PUSH1 0x40 MLOAD DUP1 PUSH1 0x40 ADD PUSH1 0x40 MSTORE DUP1 PUSH1 0xE DUP2 MSTORE PUSH1 0x20 ADD PUSH14 0x27B33339B2BA2D30B8102AB9B2B9 PUSH1 0x91 SHL DUP2 MSTORE POP SWAP3 POP JUMPDEST PUSH1 0x1 PUSH1 0x1 PUSH1 0xA0 SHL SUB DUP3 AND PUSH2 0xA8F JUMPI PUSH32 0x0 SWAP2 POP JUMPDEST POP SWAP3 POP SWAP3 POP SWAP3 JUMP JUMPDEST PUSH1 0x40 MLOAD PUSH4 0x6FB9367F PUSH1 0xE1 SHL DUP2 MSTORE PUSH32 0x0 SWAP1 PUSH1 0x1 PUSH1 0x1 PUSH1 0xA0 SHL SUB DUP3 AND SWAP1 PUSH4 0xDF726CFE SWAP1 PUSH2 0xB10 SWAP1 PUSH32 0x0 SWAP1 DUP7 SWAP1 DUP11 SWAP1 DUP11 SWAP1 DUP11 SWAP1 PUSH1 0x0 SWAP1 PUSH1 0x4 ADD PUSH2 0x1A5B JUMP JUMPDEST PUSH1 0x20 PUSH1 0x40 MLOAD DUP1 DUP4 SUB DUP2 PUSH1 0x0 DUP8 GAS CALL SWAP3 POP POP POP DUP1 ISZERO PUSH2 0xB4B JUMPI POP PUSH1 0x40 DUP1 MLOAD PUSH1 0x1F RETURNDATASIZE SWAP1 DUP2 ADD PUSH1 0x1F NOT AND DUP3 ADD SWAP1 SWAP3 MSTORE PUSH2 0xB48 SWAP2 DUP2 ADD SWAP1 PUSH2 0x1972 JUMP JUMPDEST PUSH1 0x1 JUMPDEST PUSH2 0xC44 JUMPI PUSH2 0xB57 PUSH2 0x1B09 JUMP JUMPDEST DUP1 PUSH4 0x8C379A0 SUB PUSH2 0xBC1 JUMPI POP PUSH2 0xB6B PUSH2 0x1B25 JUMP JUMPDEST DUP1 PUSH2 0xB76 JUMPI POP PUSH2 0xBC3 JUMP JUMPDEST DUP5 PUSH1 0x1 PUSH1 0x1 PUSH1 0xA0 SHL SUB AND PUSH32 0xD80252B4823CFB933240FDE61F4F459729A50F971C0C76746E264117496D5E94 DUP5 DUP9 DUP5 PUSH1 0x40 MLOAD PUSH2 0xBB3 SWAP4 SWAP3 SWAP2 SWAP1 PUSH2 0x1BAF JUMP JUMPDEST PUSH1 0x40 MLOAD DUP1 SWAP2 SUB SWAP1 LOG2 POP PUSH2 0xC8D JUMP JUMPDEST POP JUMPDEST DUP4 PUSH1 0x1 PUSH1 0x1 PUSH1 0xA0 SHL SUB AND PUSH32 0xD80252B4823CFB933240FDE61F4F459729A50F971C0C76746E264117496D5E94 DUP4 DUP8 PUSH1 0x40 MLOAD PUSH2 0xC37 SWAP3 SWAP2 SWAP1 PUSH1 0x1 PUSH1 0x1 PUSH1 0xA0 SHL SUB SWAP3 SWAP1 SWAP3 AND DUP3 MSTORE PUSH1 0x20 DUP3 ADD MSTORE PUSH1 0x60 PUSH1 0x40 DUP3 ADD DUP2 SWAP1 MSTORE PUSH1 0xD SWAP1 DUP3 ADD MSTORE PUSH13 0x2AB735B737BBB71032B93937B9 PUSH1 0x99 SHL PUSH1 0x80 DUP3 ADD MSTORE PUSH1 0xA0 ADD SWAP1 JUMP JUMPDEST PUSH1 0x40 MLOAD DUP1 SWAP2 SUB SWAP1 LOG2 PUSH2 0xC8D JUMP JUMPDEST DUP5 PUSH1 0x1 PUSH1 0x1 PUSH1 0xA0 SHL SUB AND PUSH32 0x9844159A631815B14CD3C5871074053D7610FFE1A6A016D77B7524E53C41AF9A DUP6 DUP6 DUP10 DUP6 PUSH1 0x40 MLOAD PUSH2 0xC83 SWAP5 SWAP4 SWAP3 SWAP2 SWAP1 PUSH2 0x1BDF JUMP JUMPDEST PUSH1 0x40 MLOAD DUP1 SWAP2 SUB SWAP1 LOG2 POP JUMPDEST POP POP POP POP POP JUMP JUMPDEST PUSH1 0x0 SLOAD PUSH1 0x1 PUSH1 0x1 PUSH1 0xA0 SHL SUB AND CALLER EQ PUSH2 0x5FB JUMPI PUSH1 0x40 MLOAD PUSH4 0x118CDAA7 PUSH1 0xE0 SHL DUP2 MSTORE CALLER PUSH1 0x4 DUP3 ADD MSTORE PUSH1 0x24 ADD PUSH2 0x5C4 JUMP JUMPDEST PUSH1 0x0 DUP1 SLOAD PUSH1 0x1 PUSH1 0x1 PUSH1 0xA0 SHL SUB DUP4 DUP2 AND PUSH1 0x1 PUSH1 0x1 PUSH1 0xA0 SHL SUB NOT DUP4 AND DUP2 OR DUP5 SSTORE PUSH1 0x40 MLOAD SWAP2 SWAP1 SWAP3 AND SWAP3 DUP4 SWAP2 PUSH32 0x8BE0079C531659141344CD1FD0A4F28419497F9722A3DAAFE3B4186F6B6457E0 SWAP2 SWAP1 LOG3 POP POP JUMP JUMPDEST PUSH1 0x0 DUP1 PUSH2 0xD1E DUP5 DUP5 PUSH2 0xFDB JUMP JUMPDEST SWAP1 POP DUP1 MLOAD PUSH1 0x0 SUB PUSH2 0xD33 JUMPI PUSH1 0x0 SWAP2 POP POP PUSH2 0xFD5 JUMP JUMPDEST DUP1 MLOAD DUP2 SWAP1 PUSH1 0x0 SWAP1 DUP3 DUP3 DUP3 PUSH2 0xD49 JUMPI PUSH2 0xD49 PUSH2 0x1C17 JUMP JUMPDEST ADD PUSH1 0x20 ADD MLOAD PUSH1 0x1 PUSH1 0x1 PUSH1 0xF8 SHL SUB NOT AND PUSH1 0x11 PUSH1 0xF9 SHL SUB PUSH2 0xD67 JUMPI PUSH1 0x1 SWAP2 POP JUMPDEST DUP3 PUSH2 0xD73 PUSH1 0x1 DUP4 PUSH2 0x1C43 JUMP JUMPDEST DUP2 MLOAD DUP2 LT PUSH2 0xD83 JUMPI PUSH2 0xD83 PUSH2 0x1C17 JUMP JUMPDEST ADD PUSH1 0x20 ADD MLOAD PUSH1 0x1 PUSH1 0x1 PUSH1 0xF8 SHL SUB NOT AND PUSH1 0x11 PUSH1 0xF9 SHL SUB PUSH2 0xDAA JUMPI PUSH2 0xDA7 PUSH1 0x1 DUP3 PUSH2 0x1C43 JUMP JUMPDEST SWAP1 POP JUMPDEST PUSH1 0x2 PUSH2 0xDB6 DUP4 DUP4 PUSH2 0x1C43 JUMP JUMPDEST LT ISZERO DUP1 ISZERO PUSH2 0xDE8 JUMPI POP DUP3 DUP3 DUP2 MLOAD DUP2 LT PUSH2 0xDD1 JUMPI PUSH2 0xDD1 PUSH2 0x1C17 JUMP JUMPDEST PUSH1 0x20 SWAP2 ADD ADD MLOAD PUSH1 0x1 PUSH1 0x1 PUSH1 0xF8 SHL SUB NOT AND PUSH1 0x3 PUSH1 0xFC SHL EQ JUMPDEST DUP1 ISZERO PUSH2 0xE22 JUMPI POP DUP3 PUSH2 0xDFB DUP4 PUSH1 0x1 PUSH2 0x1C56 JUMP JUMPDEST DUP2 MLOAD DUP2 LT PUSH2 0xE0B JUMPI PUSH2 0xE0B PUSH2 0x1C17 JUMP JUMPDEST PUSH1 0x20 SWAP2 ADD ADD MLOAD PUSH1 0x1 PUSH1 0x1 PUSH1 0xF8 SHL SUB NOT AND PUSH1 0xF PUSH1 0xFB SHL EQ JUMPDEST ISZERO PUSH2 0xE35 JUMPI PUSH2 0xE32 DUP3 PUSH1 0x2 PUSH2 0x1C56 JUMP JUMPDEST SWAP2 POP JUMPDEST PUSH1 0x40 DUP1 MLOAD PUSH1 0x14 DUP1 DUP3 MSTORE DUP2 DUP4 ADD SWAP1 SWAP3 MSTORE PUSH1 0x0 SWAP2 PUSH1 0x20 DUP3 ADD DUP2 DUP1 CALLDATASIZE DUP4 CALLDATACOPY ADD SWAP1 POP POP SWAP1 POP PUSH1 0x0 DUP4 JUMPDEST DUP4 DUP2 LT DUP1 ISZERO PUSH2 0xE69 JUMPI POP PUSH1 0x14 DUP3 LT JUMPDEST ISZERO PUSH2 0xF27 JUMPI DUP4 PUSH2 0xE7A DUP3 PUSH1 0x1 PUSH2 0x1C56 JUMP JUMPDEST LT ISZERO PUSH2 0xF15 JUMPI PUSH1 0x0 PUSH2 0xEAB DUP8 DUP4 DUP2 MLOAD DUP2 LT PUSH2 0xE97 JUMPI PUSH2 0xE97 PUSH2 0x1C17 JUMP JUMPDEST ADD PUSH1 0x20 ADD MLOAD PUSH1 0x1 PUSH1 0x1 PUSH1 0xF8 SHL SUB NOT AND PUSH2 0x131D JUMP JUMPDEST SWAP1 POP PUSH1 0x0 PUSH2 0xECE DUP9 PUSH2 0xEBE DUP6 PUSH1 0x1 PUSH2 0x1C56 JUMP JUMPDEST DUP2 MLOAD DUP2 LT PUSH2 0xE97 JUMPI PUSH2 0xE97 PUSH2 0x1C17 JUMP JUMPDEST SWAP1 POP PUSH2 0xFF0 PUSH1 0x4 DUP4 SWAP1 SHL AND DUP2 OR PUSH1 0xF8 SHL DUP6 DUP6 PUSH2 0xEE9 DUP2 PUSH2 0x1C69 JUMP JUMPDEST SWAP7 POP DUP2 MLOAD DUP2 LT PUSH2 0xEFB JUMPI PUSH2 0xEFB PUSH2 0x1C17 JUMP JUMPDEST PUSH1 0x20 ADD ADD SWAP1 PUSH1 0x1 PUSH1 0x1 PUSH1 0xF8 SHL SUB NOT AND SWAP1 DUP2 PUSH1 0x0 BYTE SWAP1 MSTORE8 POP POP POP JUMPDEST PUSH2 0xF20 PUSH1 0x2 DUP3 PUSH2 0x1C56 JUMP JUMPDEST SWAP1 POP PUSH2 0xE5A JUMP JUMPDEST POP PUSH1 0x40 DUP1 MLOAD PUSH1 0x20 DUP1 DUP3 MSTORE DUP2 DUP4 ADD SWAP1 SWAP3 MSTORE PUSH1 0x0 SWAP2 PUSH1 0x20 DUP3 ADD DUP2 DUP1 CALLDATASIZE DUP4 CALLDATACOPY ADD SWAP1 POP POP SWAP1 POP PUSH1 0x0 JUMPDEST PUSH1 0x14 DUP2 LT DUP1 ISZERO PUSH2 0xF5C JUMPI POP DUP4 MLOAD DUP2 LT JUMPDEST ISZERO PUSH2 0xFC7 JUMPI DUP4 DUP2 DUP2 MLOAD DUP2 LT PUSH2 0xF73 JUMPI PUSH2 0xF73 PUSH2 0x1C17 JUMP JUMPDEST ADD PUSH1 0x20 ADD MLOAD PUSH1 0x1 PUSH1 0x1 PUSH1 0xF8 SHL SUB NOT AND DUP3 PUSH2 0xF8E DUP4 PUSH1 0xC PUSH2 0x1C56 JUMP JUMPDEST DUP2 MLOAD DUP2 LT PUSH2 0xF9E JUMPI PUSH2 0xF9E PUSH2 0x1C17 JUMP JUMPDEST PUSH1 0x20 ADD ADD SWAP1 PUSH1 0x1 PUSH1 0x1 PUSH1 0xF8 SHL SUB NOT AND SWAP1 DUP2 PUSH1 0x0 BYTE SWAP1 MSTORE8 POP DUP1 PUSH2 0xFBF DUP2 PUSH2 0x1C69 JUMP JUMPDEST SWAP2 POP POP PUSH2 0xF4C JUMP JUMPDEST POP PUSH1 0x20 ADD MLOAD SWAP7 POP POP POP POP POP POP POP JUMPDEST SWAP3 SWAP2 POP POP JUMP JUMPDEST PUSH1 0x60 DUP3 DUP3 PUSH1 0x0 PUSH2 0xFEB DUP4 DUP4 PUSH2 0x1454 JUMP JUMPDEST SWAP1 POP PUSH1 0x0 NOT DUP2 SUB PUSH2 0x1010 JUMPI PUSH1 0x40 MLOAD DUP1 PUSH1 0x20 ADD PUSH1 0x40 MSTORE DUP1 PUSH1 0x0 DUP2 MSTORE POP SWAP4 POP POP POP POP PUSH2 0xFD5 JUMP JUMPDEST PUSH1 0x0 DUP3 MLOAD DUP3 PUSH2 0x101F SWAP2 SWAP1 PUSH2 0x1C56 JUMP JUMPDEST SWAP1 POP JUMPDEST DUP4 MLOAD DUP2 LT DUP1 ISZERO PUSH2 0x1057 JUMPI POP DUP4 DUP2 DUP2 MLOAD DUP2 LT PUSH2 0x103F JUMPI PUSH2 0x103F PUSH2 0x1C17 JUMP JUMPDEST PUSH1 0x20 SWAP2 ADD ADD MLOAD PUSH1 0x1 PUSH1 0x1 PUSH1 0xF8 SHL SUB NOT AND PUSH1 0x1D PUSH1 0xF9 SHL EQ ISZERO JUMPDEST ISZERO PUSH2 0x106E JUMPI DUP1 PUSH2 0x1066 DUP2 PUSH2 0x1C69 JUMP JUMPDEST SWAP2 POP POP PUSH2 0x1022 JUMP JUMPDEST DUP4 MLOAD DUP2 LT PUSH2 0x1091 JUMPI PUSH1 0x40 MLOAD DUP1 PUSH1 0x20 ADD PUSH1 0x40 MSTORE DUP1 PUSH1 0x0 DUP2 MSTORE POP SWAP5 POP POP POP POP POP PUSH2 0xFD5 JUMP JUMPDEST DUP1 PUSH2 0x109B DUP2 PUSH2 0x1C69 JUMP JUMPDEST SWAP2 POP POP JUMPDEST DUP4 MLOAD DUP2 LT DUP1 ISZERO PUSH2 0x1101 JUMPI POP DUP4 DUP2 DUP2 MLOAD DUP2 LT PUSH2 0x10BC JUMPI PUSH2 0x10BC PUSH2 0x1C17 JUMP JUMPDEST PUSH1 0x20 SWAP2 ADD ADD MLOAD PUSH1 0x1 PUSH1 0x1 PUSH1 0xF8 SHL SUB NOT AND PUSH1 0x1 PUSH1 0xFD SHL EQ DUP1 PUSH2 0x1101 JUMPI POP DUP4 DUP2 DUP2 MLOAD DUP2 LT PUSH2 0x10EA JUMPI PUSH2 0x10EA PUSH2 0x1C17 JUMP JUMPDEST PUSH1 0x20 SWAP2 ADD ADD MLOAD PUSH1 0x1 PUSH1 0x1 PUSH1 0xF8 SHL SUB NOT AND PUSH1 0x9 PUSH1 0xF8 SHL EQ JUMPDEST ISZERO PUSH2 0x1118 JUMPI DUP1 PUSH2 0x1110 DUP2 PUSH2 0x1C69 JUMP JUMPDEST SWAP2 POP POP PUSH2 0x109F JUMP JUMPDEST DUP4 MLOAD DUP2 SWAP1 DUP2 LT DUP1 ISZERO PUSH2 0x114E JUMPI POP DUP5 DUP2 DUP2 MLOAD DUP2 LT PUSH2 0x1137 JUMPI PUSH2 0x1137 PUSH2 0x1C17 JUMP JUMPDEST PUSH1 0x20 SWAP2 ADD ADD MLOAD PUSH1 0x1 PUSH1 0x1 PUSH1 0xF8 SHL SUB NOT AND PUSH1 0x11 PUSH1 0xF9 SHL EQ JUMPDEST ISZERO PUSH2 0x1161 JUMPI DUP1 PUSH2 0x115D DUP2 PUSH2 0x1C69 JUMP JUMPDEST SWAP2 POP POP JUMPDEST DUP1 JUMPDEST DUP6 MLOAD DUP2 LT ISZERO PUSH2 0x1249 JUMPI DUP6 DUP2 DUP2 MLOAD DUP2 LT PUSH2 0x117E JUMPI PUSH2 0x117E PUSH2 0x1C17 JUMP JUMPDEST PUSH1 0x20 SWAP2 ADD ADD MLOAD PUSH1 0x1 PUSH1 0x1 PUSH1 0xF8 SHL SUB NOT AND PUSH1 0x11 PUSH1 0xF9 SHL EQ DUP1 ISZERO PUSH2 0x11D8 JUMPI POP DUP2 DUP2 EQ DUP1 PUSH2 0x11D8 JUMPI POP DUP6 PUSH2 0x11B0 PUSH1 0x1 DUP4 PUSH2 0x1C43 JUMP JUMPDEST DUP2 MLOAD DUP2 LT PUSH2 0x11C0 JUMPI PUSH2 0x11C0 PUSH2 0x1C17 JUMP JUMPDEST PUSH1 0x20 SWAP2 ADD ADD MLOAD PUSH1 0x1 PUSH1 0x1 PUSH1 0xF8 SHL SUB NOT AND PUSH1 0x17 PUSH1 0xFA SHL EQ ISZERO JUMPDEST PUSH2 0x1249 JUMPI DUP6 DUP2 DUP2 MLOAD DUP2 LT PUSH2 0x11EE JUMPI PUSH2 0x11EE PUSH2 0x1C17 JUMP JUMPDEST PUSH1 0x20 SWAP2 ADD ADD MLOAD PUSH1 0x1 PUSH1 0x1 PUSH1 0xF8 SHL SUB NOT AND PUSH1 0xB PUSH1 0xFA SHL EQ DUP1 PUSH2 0x1233 JUMPI POP DUP6 DUP2 DUP2 MLOAD DUP2 LT PUSH2 0x121C JUMPI PUSH2 0x121C PUSH2 0x1C17 JUMP JUMPDEST PUSH1 0x20 SWAP2 ADD ADD MLOAD PUSH1 0x1 PUSH1 0x1 PUSH1 0xF8 SHL SUB NOT AND PUSH1 0x7D PUSH1 0xF8 SHL EQ JUMPDEST PUSH2 0x1249 JUMPI DUP1 PUSH2 0x1241 DUP2 PUSH2 0x1C69 JUMP JUMPDEST SWAP2 POP POP PUSH2 0x1163 JUMP JUMPDEST PUSH1 0x0 PUSH2 0x1255 DUP4 DUP4 PUSH2 0x1C43 JUMP JUMPDEST PUSH8 0xFFFFFFFFFFFFFFFF DUP2 GT ISZERO PUSH2 0x126D JUMPI PUSH2 0x126D PUSH2 0x1739 JUMP JUMPDEST PUSH1 0x40 MLOAD SWAP1 DUP1 DUP3 MSTORE DUP1 PUSH1 0x1F ADD PUSH1 0x1F NOT AND PUSH1 0x20 ADD DUP3 ADD PUSH1 0x40 MSTORE DUP1 ISZERO PUSH2 0x1297 JUMPI PUSH1 0x20 DUP3 ADD DUP2 DUP1 CALLDATASIZE DUP4 CALLDATACOPY ADD SWAP1 POP JUMPDEST POP SWAP1 POP PUSH1 0x0 JUMPDEST PUSH2 0x12A7 DUP5 DUP5 PUSH2 0x1C43 JUMP JUMPDEST DUP2 LT ISZERO PUSH2 0x130F JUMPI DUP8 PUSH2 0x12B9 DUP3 DUP7 PUSH2 0x1C56 JUMP JUMPDEST DUP2 MLOAD DUP2 LT PUSH2 0x12C9 JUMPI PUSH2 0x12C9 PUSH2 0x1C17 JUMP JUMPDEST PUSH1 0x20 ADD ADD MLOAD PUSH1 0xF8 SHR PUSH1 0xF8 SHL DUP3 DUP3 DUP2 MLOAD DUP2 LT PUSH2 0x12E6 JUMPI PUSH2 0x12E6 PUSH2 0x1C17 JUMP JUMPDEST PUSH1 0x20 ADD ADD SWAP1 PUSH1 0x1 PUSH1 0x1 PUSH1 0xF8 SHL SUB NOT AND SWAP1 DUP2 PUSH1 0x0 BYTE SWAP1 MSTORE8 POP DUP1 PUSH2 0x1307 DUP2 PUSH2 0x1C69 JUMP JUMPDEST SWAP2 POP POP PUSH2 0x129D JUMP JUMPDEST POP SWAP10 SWAP9 POP POP POP POP POP POP POP POP POP JUMP JUMPDEST PUSH1 0x0 PUSH1 0x3 PUSH1 0xFC SHL PUSH1 0x39 PUSH1 0xF8 SHL PUSH1 0x61 PUSH1 0xF8 SHL PUSH1 0x33 PUSH1 0xF9 SHL PUSH1 0x41 PUSH1 0xF8 SHL PUSH1 0x23 PUSH1 0xF9 SHL PUSH1 0x1 PUSH1 0x1 PUSH1 0xF8 SHL SUB NOT DUP9 AND DUP7 GT DUP1 ISZERO SWAP1 PUSH2 0x1364 JUMPI POP PUSH1 0x1 PUSH1 0x1 PUSH1 0xF8 SHL SUB NOT DUP1 DUP7 AND SWAP1 DUP10 AND GT ISZERO JUMPDEST ISZERO PUSH2 0x1387 JUMPI DUP6 PUSH1 0xF8 SHR DUP9 PUSH1 0xF8 SHR PUSH2 0x137B SWAP2 SWAP1 PUSH2 0x1C82 JUMP JUMPDEST SWAP9 SWAP8 POP POP POP POP POP POP POP POP JUMP JUMPDEST PUSH1 0x1 PUSH1 0x1 PUSH1 0xF8 SHL SUB NOT DUP1 DUP6 AND SWAP1 DUP10 AND LT DUP1 ISZERO SWAP1 PUSH2 0x13B1 JUMPI POP PUSH1 0x1 PUSH1 0x1 PUSH1 0xF8 SHL SUB NOT DUP1 DUP5 AND SWAP1 DUP10 AND GT ISZERO JUMPDEST ISZERO PUSH2 0x13D3 JUMPI DUP4 PUSH1 0xF8 SHR DUP9 PUSH1 0xF8 SHR PUSH2 0x13C8 SWAP2 SWAP1 PUSH2 0x1C82 JUMP JUMPDEST PUSH2 0x137B SWAP1 PUSH1 0xA PUSH2 0x1C9B JUMP JUMPDEST PUSH1 0x1 PUSH1 0x1 PUSH1 0xF8 SHL SUB NOT DUP1 DUP4 AND SWAP1 DUP10 AND LT DUP1 ISZERO SWAP1 PUSH2 0x13FD JUMPI POP PUSH1 0x1 PUSH1 0x1 PUSH1 0xF8 SHL SUB NOT DUP1 DUP3 AND SWAP1 DUP10 AND GT ISZERO JUMPDEST ISZERO PUSH2 0x1414 JUMPI DUP2 PUSH1 0xF8 SHR DUP9 PUSH1 0xF8 SHR PUSH2 0x13C8 SWAP2 SWAP1 PUSH2 0x1C82 JUMP JUMPDEST PUSH1 0x40 MLOAD PUSH3 0x461BCD PUSH1 0xE5 SHL DUP2 MSTORE PUSH1 0x20 PUSH1 0x4 DUP3 ADD MSTORE PUSH1 0x15 PUSH1 0x24 DUP3 ADD MSTORE PUSH21 0x24B73B30B634B2103432BC1031B430B930B1BA32B9 PUSH1 0x59 SHL PUSH1 0x44 DUP3 ADD MSTORE PUSH1 0x64 ADD PUSH2 0x5C4 JUMP JUMPDEST PUSH1 0x0 DUP2 MLOAD PUSH1 0x0 SUB PUSH2 0x1467 JUMPI POP PUSH1 0x0 PUSH2 0xFD5 JUMP JUMPDEST DUP3 MLOAD DUP3 MLOAD GT ISZERO PUSH2 0x147A JUMPI POP PUSH1 0x0 NOT PUSH2 0xFD5 JUMP JUMPDEST PUSH1 0x0 JUMPDEST DUP3 MLOAD DUP5 MLOAD PUSH2 0x148B SWAP2 SWAP1 PUSH2 0x1C43 JUMP JUMPDEST DUP2 GT PUSH2 0x152C JUMPI PUSH1 0x1 PUSH1 0x0 JUMPDEST DUP5 MLOAD DUP2 LT ISZERO PUSH2 0x150A JUMPI DUP5 DUP2 DUP2 MLOAD DUP2 LT PUSH2 0x14B1 JUMPI PUSH2 0x14B1 PUSH2 0x1C17 JUMP JUMPDEST ADD PUSH1 0x20 ADD MLOAD PUSH1 0x1 PUSH1 0x1 PUSH1 0xF8 SHL SUB NOT AND DUP7 PUSH2 0x14CB DUP4 DUP7 PUSH2 0x1C56 JUMP JUMPDEST DUP2 MLOAD DUP2 LT PUSH2 0x14DB JUMPI PUSH2 0x14DB PUSH2 0x1C17 JUMP JUMPDEST ADD PUSH1 0x20 ADD MLOAD PUSH1 0x1 PUSH1 0x1 PUSH1 0xF8 SHL SUB NOT AND EQ PUSH2 0x14F8 JUMPI PUSH1 0x0 SWAP2 POP PUSH2 0x150A JUMP JUMPDEST DUP1 PUSH2 0x1502 DUP2 PUSH2 0x1C69 JUMP JUMPDEST SWAP2 POP POP PUSH2 0x1496 JUMP JUMPDEST POP DUP1 ISZERO PUSH2 0x1519 JUMPI POP SWAP1 POP PUSH2 0xFD5 JUMP JUMPDEST POP DUP1 PUSH2 0x1524 DUP2 PUSH2 0x1C69 JUMP JUMPDEST SWAP2 POP POP PUSH2 0x147D JUMP JUMPDEST POP PUSH1 0x0 NOT SWAP4 SWAP3 POP POP POP JUMP JUMPDEST PUSH1 0x1 PUSH1 0x1 PUSH1 0xA0 SHL SUB DUP2 AND DUP2 EQ PUSH2 0x89E JUMPI PUSH1 0x0 DUP1 REVERT JUMPDEST PUSH1 0x0 DUP1 DUP4 PUSH1 0x1F DUP5 ADD SLT PUSH2 0x155E JUMPI PUSH1 0x0 DUP1 REVERT JUMPDEST POP DUP2 CALLDATALOAD PUSH8 0xFFFFFFFFFFFFFFFF DUP2 GT ISZERO PUSH2 0x1576 JUMPI PUSH1 0x0 DUP1 REVERT JUMPDEST PUSH1 0x20 DUP4 ADD SWAP2 POP DUP4 PUSH1 0x20 DUP3 DUP6 ADD ADD GT ISZERO PUSH2 0x158E JUMPI PUSH1 0x0 DUP1 REVERT JUMPDEST SWAP3 POP SWAP3 SWAP1 POP JUMP JUMPDEST PUSH1 0x0 DUP1 PUSH1 0x0 DUP1 PUSH1 0x0 DUP1 PUSH1 0x0 DUP1 PUSH1 0xC0 DUP10 DUP12 SUB SLT ISZERO PUSH2 0x15B1 JUMPI PUSH1 0x0 DUP1 REVERT JUMPDEST DUP9 CALLDATALOAD PUSH2 0x15BC DUP2 PUSH2 0x1537 JUMP JUMPDEST SWAP8 POP PUSH1 0x20 DUP10 ADD CALLDATALOAD PUSH2 0x15CC DUP2 PUSH2 0x1537 JUMP JUMPDEST SWAP7 POP PUSH1 0x40 DUP10 ADD CALLDATALOAD PUSH2 0x15DC DUP2 PUSH2 0x1537 JUMP JUMPDEST SWAP6 POP PUSH1 0x60 DUP10 ADD CALLDATALOAD SWAP5 POP PUSH1 0x80 DUP10 ADD CALLDATALOAD PUSH8 0xFFFFFFFFFFFFFFFF DUP1 DUP3 GT ISZERO PUSH2 0x1600 JUMPI PUSH1 0x0 DUP1 REVERT JUMPDEST PUSH2 0x160C DUP13 DUP4 DUP14 ADD PUSH2 0x154C JUMP JUMPDEST SWAP1 SWAP7 POP SWAP5 POP PUSH1 0xA0 DUP12 ADD CALLDATALOAD SWAP2 POP DUP1 DUP3 GT ISZERO PUSH2 0x1625 JUMPI PUSH1 0x0 DUP1 REVERT JUMPDEST POP PUSH2 0x1632 DUP12 DUP3 DUP13 ADD PUSH2 0x154C JUMP JUMPDEST SWAP10 SWAP13 SWAP9 SWAP12 POP SWAP7 SWAP10 POP SWAP5 SWAP8 SWAP4 SWAP7 SWAP3 SWAP6 SWAP5 POP POP POP JUMP JUMPDEST PUSH1 0x0 DUP1 PUSH1 0x40 DUP4 DUP6 SUB SLT ISZERO PUSH2 0x1659 JUMPI PUSH1 0x0 DUP1 REVERT JUMPDEST DUP3 CALLDATALOAD PUSH2 0x1664 DUP2 PUSH2 0x1537 JUMP JUMPDEST SWAP5 PUSH1 0x20 SWAP4 SWAP1 SWAP4 ADD CALLDATALOAD SWAP4 POP POP POP JUMP JUMPDEST PUSH1 0x0 DUP1 PUSH1 0x20 DUP4 DUP6 SUB SLT ISZERO PUSH2 0x1685 JUMPI PUSH1 0x0 DUP1 REVERT JUMPDEST DUP3 CALLDATALOAD PUSH8 0xFFFFFFFFFFFFFFFF DUP2 GT ISZERO PUSH2 0x169C JUMPI PUSH1 0x0 DUP1 REVERT JUMPDEST PUSH2 0x16A8 DUP6 DUP3 DUP7 ADD PUSH2 0x154C JUMP JUMPDEST SWAP1 SWAP7 SWAP1 SWAP6 POP SWAP4 POP POP POP POP JUMP JUMPDEST PUSH1 0x0 JUMPDEST DUP4 DUP2 LT ISZERO PUSH2 0x16CF JUMPI DUP2 DUP2 ADD MLOAD DUP4 DUP3 ADD MSTORE PUSH1 0x20 ADD PUSH2 0x16B7 JUMP JUMPDEST POP POP PUSH1 0x0 SWAP2 ADD MSTORE JUMP JUMPDEST PUSH1 0x0 DUP2 MLOAD DUP1 DUP5 MSTORE PUSH2 0x16F0 DUP2 PUSH1 0x20 DUP7 ADD PUSH1 0x20 DUP7 ADD PUSH2 0x16B4 JUMP JUMPDEST PUSH1 0x1F ADD PUSH1 0x1F NOT AND SWAP3 SWAP1 SWAP3 ADD PUSH1 0x20 ADD SWAP3 SWAP2 POP POP JUMP JUMPDEST PUSH1 0x0 PUSH1 0x1 DUP1 PUSH1 0xA0 SHL SUB DUP1 DUP7 AND DUP4 MSTORE PUSH1 0x60 PUSH1 0x20 DUP5 ADD MSTORE PUSH2 0x1726 PUSH1 0x60 DUP5 ADD DUP7 PUSH2 0x16D8 JUMP JUMPDEST SWAP2 POP DUP1 DUP5 AND PUSH1 0x40 DUP5 ADD MSTORE POP SWAP5 SWAP4 POP POP POP POP JUMP JUMPDEST PUSH4 0x4E487B71 PUSH1 0xE0 SHL PUSH1 0x0 MSTORE PUSH1 0x41 PUSH1 0x4 MSTORE PUSH1 0x24 PUSH1 0x0 REVERT JUMPDEST PUSH1 0x1F DUP3 ADD PUSH1 0x1F NOT AND DUP2 ADD PUSH8 0xFFFFFFFFFFFFFFFF DUP2 GT DUP3 DUP3 LT OR ISZERO PUSH2 0x1775 JUMPI PUSH2 0x1775 PUSH2 0x1739 JUMP JUMPDEST PUSH1 0x40 MSTORE POP POP JUMP JUMPDEST PUSH1 0x0 PUSH8 0xFFFFFFFFFFFFFFFF DUP3 GT ISZERO PUSH2 0x1796 JUMPI PUSH2 0x1796 PUSH2 0x1739 JUMP JUMPDEST POP PUSH1 0x1F ADD PUSH1 0x1F NOT AND PUSH1 0x20 ADD SWAP1 JUMP JUMPDEST PUSH1 0x0 DUP3 PUSH1 0x1F DUP4 ADD SLT PUSH2 0x17B5 JUMPI PUSH1 0x0 DUP1 REVERT JUMPDEST DUP2 CALLDATALOAD PUSH2 0x17C0 DUP2 PUSH2 0x177C JUMP JUMPDEST PUSH1 0x40 MLOAD PUSH2 0x17CD DUP3 DUP3 PUSH2 0x174F JUMP JUMPDEST DUP3 DUP2 MSTORE DUP6 PUSH1 0x20 DUP5 DUP8 ADD ADD GT ISZERO PUSH2 0x17E2 JUMPI PUSH1 0x0 DUP1 REVERT JUMPDEST DUP3 PUSH1 0x20 DUP7 ADD PUSH1 0x20 DUP4 ADD CALLDATACOPY PUSH1 0x0 SWAP3 DUP2 ADD PUSH1 0x20 ADD SWAP3 SWAP1 SWAP3 MSTORE POP SWAP4 SWAP3 POP POP POP JUMP JUMPDEST PUSH1 0x0 DUP1 PUSH1 0x0 DUP1 PUSH1 0x80 DUP6 DUP8 SUB SLT ISZERO PUSH2 0x1816 JUMPI PUSH1 0x0 DUP1 REVERT JUMPDEST DUP5 CALLDATALOAD SWAP4 POP PUSH1 0x20 DUP6 ADD CALLDATALOAD PUSH2 0x1828 DUP2 PUSH2 0x1537 JUMP JUMPDEST SWAP3 POP PUSH1 0x40 DUP6 ADD CALLDATALOAD PUSH8 0xFFFFFFFFFFFFFFFF DUP2 GT ISZERO PUSH2 0x1844 JUMPI PUSH1 0x0 DUP1 REVERT JUMPDEST PUSH2 0x1850 DUP8 DUP3 DUP9 ADD PUSH2 0x17A4 JUMP JUMPDEST SWAP3 POP POP PUSH1 0x60 DUP6 ADD CALLDATALOAD PUSH2 0x1861 DUP2 PUSH2 0x1537 JUMP JUMPDEST SWAP4 SWAP7 SWAP3 SWAP6 POP SWAP1 SWAP4 POP POP JUMP JUMPDEST PUSH1 0x0 DUP1 PUSH1 0x0 DUP1 PUSH1 0x60 DUP6 DUP8 SUB SLT ISZERO PUSH2 0x1882 JUMPI PUSH1 0x0 DUP1 REVERT JUMPDEST DUP5 CALLDATALOAD PUSH2 0x188D DUP2 PUSH2 0x1537 JUMP JUMPDEST SWAP4 POP PUSH1 0x20 DUP6 ADD CALLDATALOAD SWAP3 POP PUSH1 0x40 DUP6 ADD CALLDATALOAD PUSH8 0xFFFFFFFFFFFFFFFF DUP2 GT ISZERO PUSH2 0x18B0 JUMPI PUSH1 0x0 DUP1 REVERT JUMPDEST PUSH2 0x18BC DUP8 DUP3 DUP9 ADD PUSH2 0x154C JUMP JUMPDEST SWAP6 SWAP9 SWAP5 SWAP8 POP SWAP6 POP POP POP POP JUMP JUMPDEST PUSH1 0x0 PUSH1 0x20 DUP3 DUP5 SUB SLT ISZERO PUSH2 0x18DA JUMPI PUSH1 0x0 DUP1 REVERT JUMPDEST DUP2 CALLDATALOAD PUSH2 0x18E5 DUP2 PUSH2 0x1537 JUMP JUMPDEST SWAP4 SWAP3 POP POP POP JUMP JUMPDEST PUSH1 0x0 PUSH1 0x20 DUP3 DUP5 SUB SLT ISZERO PUSH2 0x18FE JUMPI PUSH1 0x0 DUP1 REVERT JUMPDEST DUP2 MLOAD DUP1 ISZERO ISZERO DUP2 EQ PUSH2 0x18E5 JUMPI PUSH1 0x0 DUP1 REVERT JUMPDEST PUSH1 0x0 DUP1 PUSH1 0x0 PUSH1 0x60 DUP5 DUP7 SUB SLT ISZERO PUSH2 0x1923 JUMPI PUSH1 0x0 DUP1 REVERT JUMPDEST DUP4 CALLDATALOAD PUSH2 0x192E DUP2 PUSH2 0x1537 JUMP JUMPDEST SWAP3 POP PUSH1 0x20 DUP5 ADD CALLDATALOAD PUSH8 0xFFFFFFFFFFFFFFFF DUP2 GT ISZERO PUSH2 0x194A JUMPI PUSH1 0x0 DUP1 REVERT JUMPDEST PUSH2 0x1956 DUP7 DUP3 DUP8 ADD PUSH2 0x17A4 JUMP JUMPDEST SWAP3 POP POP PUSH1 0x40 DUP5 ADD CALLDATALOAD PUSH2 0x1967 DUP2 PUSH2 0x1537 JUMP JUMPDEST DUP1 SWAP2 POP POP SWAP3 POP SWAP3 POP SWAP3 JUMP JUMPDEST PUSH1 0x0 PUSH1 0x20 DUP3 DUP5 SUB SLT ISZERO PUSH2 0x1984 JUMPI PUSH1 0x0 DUP1 REVERT JUMPDEST POP MLOAD SWAP2 SWAP1 POP JUMP JUMPDEST PUSH1 0x20 DUP2 MSTORE DUP2 PUSH1 0x20 DUP3 ADD MSTORE DUP2 DUP4 PUSH1 0x40 DUP4 ADD CALLDATACOPY PUSH1 0x0 DUP2 DUP4 ADD PUSH1 0x40 SWAP1 DUP2 ADD SWAP2 SWAP1 SWAP2 MSTORE PUSH1 0x1F SWAP1 SWAP3 ADD PUSH1 0x1F NOT AND ADD ADD SWAP2 SWAP1 POP JUMP JUMPDEST PUSH1 0x0 DUP1 PUSH1 0x0 PUSH1 0x60 DUP5 DUP7 SUB SLT ISZERO PUSH2 0x19CF JUMPI PUSH1 0x0 DUP1 REVERT JUMPDEST DUP4 MLOAD PUSH2 0x19DA DUP2 PUSH2 0x1537 JUMP JUMPDEST PUSH1 0x20 DUP6 ADD MLOAD SWAP1 SWAP4 POP PUSH8 0xFFFFFFFFFFFFFFFF DUP2 GT ISZERO PUSH2 0x19F7 JUMPI PUSH1 0x0 DUP1 REVERT JUMPDEST DUP5 ADD PUSH1 0x1F DUP2 ADD DUP7 SGT PUSH2 0x1A08 JUMPI PUSH1 0x0 DUP1 REVERT JUMPDEST DUP1 MLOAD PUSH2 0x1A13 DUP2 PUSH2 0x177C JUMP JUMPDEST PUSH1 0x40 MLOAD PUSH2 0x1A20 DUP3 DUP3 PUSH2 0x174F JUMP JUMPDEST DUP3 DUP2 MSTORE DUP9 PUSH1 0x20 DUP5 DUP7 ADD ADD GT ISZERO PUSH2 0x1A35 JUMPI PUSH1 0x0 DUP1 REVERT JUMPDEST PUSH2 0x1A46 DUP4 PUSH1 0x20 DUP4 ADD PUSH1 0x20 DUP8 ADD PUSH2 0x16B4 JUMP JUMPDEST DUP1 SWAP6 POP POP POP POP POP PUSH1 0x40 DUP5 ADD MLOAD PUSH2 0x1967 DUP2 PUSH2 0x1537 JUMP JUMPDEST PUSH1 0x1 PUSH1 0x1 PUSH1 0xA0 SHL SUB DUP8 DUP2 AND DUP3 MSTORE DUP7 DUP2 AND PUSH1 0x20 DUP4 ADD MSTORE PUSH1 0x40 DUP3 ADD DUP7 SWAP1 MSTORE PUSH2 0x100 PUSH1 0x60 DUP4 ADD DUP2 SWAP1 MSTORE PUSH1 0x9 SWAP1 DUP4 ADD MSTORE PUSH9 0x4F66667365745A617 PUSH1 0xBC SHL PUSH2 0x120 DUP4 ADD MSTORE DUP5 AND PUSH1 0x80 DUP3 ADD MSTORE PUSH2 0x140 PUSH1 0xA0 DUP3 ADD DUP2 SWAP1 MSTORE PUSH1 0x0 SWAP1 PUSH2 0x1ABA DUP2 DUP5 ADD DUP7 PUSH2 0x16D8 JUMP JUMPDEST SWAP1 POP DUP3 DUP2 SUB PUSH1 0xC0 DUP5 ADD MSTORE PUSH1 0x1B DUP2 MSTORE PUSH32 0x436172626F6E206F666673657420766961204F66667365745A61700000000000 PUSH1 0x20 DUP3 ADD MSTORE PUSH1 0x40 DUP2 ADD SWAP2 POP POP PUSH1 0xFF DUP4 AND PUSH1 0xE0 DUP4 ADD MSTORE SWAP8 SWAP7 POP POP POP POP POP POP POP JUMP JUMPDEST PUSH1 0x0 PUSH1 0x3 RETURNDATASIZE GT ISZERO PUSH2 0x1B22 JUMPI PUSH1 0x4 PUSH1 0x0 DUP1 RETURNDATACOPY POP PUSH1 0x0 MLOAD PUSH1 0xE0 SHR JUMPDEST SWAP1 JUMP JUMPDEST PUSH1 0x0 PUSH1 0x44 RETURNDATASIZE LT ISZERO PUSH2 0x1B33 JUMPI SWAP1 JUMP JUMPDEST PUSH1 0x40 MLOAD PUSH1 0x3 NOT RETURNDATASIZE DUP2 ADD PUSH1 0x4 DUP4 RETURNDATACOPY DUP2 MLOAD RETURNDATASIZE PUSH8 0xFFFFFFFFFFFFFFFF DUP2 PUSH1 0x24 DUP5 ADD GT DUP2 DUP5 GT OR ISZERO PUSH2 0x1B63 JUMPI POP POP POP POP POP SWAP1 JUMP JUMPDEST DUP3 DUP6 ADD SWAP2 POP DUP2 MLOAD DUP2 DUP2 GT ISZERO PUSH2 0x1B7B JUMPI POP POP POP POP POP POP SWAP1 JUMP JUMPDEST DUP5 RETURNDATASIZE DUP8 ADD ADD PUSH1 0x20 DUP3 DUP6 ADD ADD GT ISZERO PUSH2 0x1B95 JUMPI POP POP POP POP POP POP SWAP1 JUMP JUMPDEST PUSH2 0x1BA4 PUSH1 0x20 DUP3 DUP7 ADD ADD DUP8 PUSH2 0x174F JUMP JUMPDEST POP SWAP1 SWAP6 SWAP5 POP POP POP POP POP JUMP JUMPDEST PUSH1 0x1 DUP1 PUSH1 0xA0 SHL SUB DUP5 AND DUP2 MSTORE DUP3 PUSH1 0x20 DUP3 ADD MSTORE PUSH1 0x60 PUSH1 0x40 DUP3 ADD MSTORE PUSH1 0x0 PUSH2 0x1BD6 PUSH1 0x60 DUP4 ADD DUP5 PUSH2 0x16D8 JUMP JUMPDEST SWAP6 SWAP5 POP POP POP POP POP JUMP JUMPDEST PUSH1 0x80 DUP2 MSTORE PUSH1 0x0 PUSH2 0x1BF2 PUSH1 0x80 DUP4 ADD DUP8 PUSH2 0x16D8 JUMP JUMPDEST PUSH1 0x1 PUSH1 0x1 PUSH1 0xA0 SHL SUB SWAP6 SWAP1 SWAP6 AND PUSH1 0x20 DUP4 ADD MSTORE POP PUSH1 0x40 DUP2 ADD SWAP3 SWAP1 SWAP3 MSTORE PUSH1 0x60 SWAP1 SWAP2 ADD MSTORE SWAP2 SWAP1 POP JUMP JUMPDEST PUSH4 0x4E487B71 PUSH1 0xE0 SHL PUSH1 0x0 MSTORE PUSH1 0x32 PUSH1 0x4 MSTORE PUSH1 0x24 PUSH1 0x0 REVERT JUMPDEST PUSH4 0x4E487B71 PUSH1 0xE0 SHL PUSH1 0x0 MSTORE PUSH1 0x11 PUSH1 0x4 MSTORE PUSH1 0x24 PUSH1 0x0 REVERT JUMPDEST DUP2 DUP2 SUB DUP2 DUP2 GT ISZERO PUSH2 0xFD5 JUMPI PUSH2 0xFD5 PUSH2 0x1C2D JUMP JUMPDEST DUP1 DUP3 ADD DUP1 DUP3 GT ISZERO PUSH2 0xFD5 JUMPI PUSH2 0xFD5 PUSH2 0x1C2D JUMP JUMPDEST PUSH1 0x0 PUSH1 0x1 DUP3 ADD PUSH2 0x1C7B JUMPI PUSH2 0x1C7B PUSH2 0x1C2D JUMP JUMPDEST POP PUSH1 0x1 ADD SWAP1 JUMP JUMPDEST PUSH1 0xFF DUP3 DUP2 AND DUP3 DUP3 AND SUB SWAP1 DUP2 GT ISZERO PUSH2 0xFD5 JUMPI PUSH2 0xFD5 PUSH2 0x1C2D JUMP JUMPDEST PUSH1 0xFF DUP2 DUP2 AND DUP4 DUP3 AND ADD SWAP1 DUP2 GT ISZERO PUSH2 0xFD5 JUMPI PUSH2 0xFD5 PUSH2 0x1C2D JUMP INVALID LOG2 PUSH5 0x6970667358 0x22 SLT KECCAK256 0xFC 0xAA SWAP9 0x22 0xCF SWAP1 0xC2 SLOAD 0xF9 0xCB DUP5 0xAF 0x26 SLT 0xDE 0xD3 0xB2 PUSH22 0xB6769CB3DBE72A6BB79B589F807964736F6C63430008 EQ STOP CALLER "},"methodIdentifiers":{"ACROSS_SPOKE_POOL()":"d72b1de1","DEFAULT_POOL_TOKEN()":"35e86070","KLIMA_AGGREGATOR()":"db3ac0ce","MULTICALL_HANDLER_ADDRESS()":"9df875f0","USDC_TOKEN()":"fa569274","handleAcrossTransfer(address,uint256,bytes)":"d4d0f984","manualRetire(uint256,address,string,address)":"40429fe1","owner()":"8da5cb5b","recoverEth()":"bcdb446b","recoverTokens(address,uint256)":"069c9fae","renounceOwnership()":"715018a6","tokensReceived(address,address,address,uint256,bytes,bytes)":"0023de29","transferOwnership(address)":"f2fde38b","tryAbiDecode(bytes)":"2254528f"}}}}}