{"contracts/ClearSkyLiquidityPool.sol":{"ClearSkyLiquidityPool":{"abi":[{"inputs":[{"internalType":"address","name":"_lpToken","type":"address"},{"internalType":"address","name":"_owner","type":"address"}],"stateMutability":"nonpayable","type":"constructor"},{"inputs":[],"name":"EnforcedPause","type":"error"},{"inputs":[],"name":"ExpectedPause","type":"error"},{"inputs":[],"name":"InsufficientAmount","type":"error"},{"inputs":[],"name":"InsufficientInitialLiquidity","type":"error"},{"inputs":[],"name":"InsufficientLPBalance","type":"error"},{"inputs":[],"name":"InsufficientLiquidity","type":"error"},{"inputs":[],"name":"InvalidAmounts","type":"error"},{"inputs":[],"name":"NoLiquidityProvided","type":"error"},{"inputs":[{"internalType":"address","name":"owner","type":"address"}],"name":"OwnableInvalidOwner","type":"error"},{"inputs":[{"internalType":"address","name":"account","type":"address"}],"name":"OwnableUnauthorizedAccount","type":"error"},{"inputs":[],"name":"PoolAlreadyInitialized","type":"error"},{"inputs":[],"name":"PoolNotActive","type":"error"},{"inputs":[],"name":"ReentrancyGuardReentrantCall","type":"error"},{"inputs":[],"name":"SlippageExceeded","type":"error"},{"anonymous":false,"inputs":[{"indexed":false,"internalType":"bool","name":"","type":"bool"},{"indexed":false,"internalType":"bytes","name":"","type":"bytes"}],"name":"CallResponseEvent","type":"event"},{"anonymous":false,"inputs":[{"indexed":true,"internalType":"address","name":"collector","type":"address"},{"indexed":false,"internalType":"uint256","name":"hbarAmount","type":"uint256"},{"indexed":false,"internalType":"uint256","name":"timestamp","type":"uint256"}],"name":"FeesCollected","type":"event"},{"anonymous":false,"inputs":[{"indexed":true,"internalType":"address","name":"token","type":"address"},{"indexed":true,"internalType":"address","name":"account","type":"address"}],"name":"HTSAssociateAttempt","type":"event"},{"anonymous":false,"inputs":[{"indexed":true,"internalType":"address","name":"token","type":"address"},{"indexed":true,"internalType":"address","name":"account","type":"address"},{"indexed":false,"internalType":"string","name":"reason","type":"string"}],"name":"HTSAssociateSkipped","type":"event"},{"anonymous":false,"inputs":[{"indexed":true,"internalType":"address","name":"token","type":"address"},{"indexed":true,"internalType":"address","name":"account","type":"address"}],"name":"HTSAssociateSuccess","type":"event"},{"anonymous":false,"inputs":[{"indexed":true,"internalType":"address","name":"token","type":"address"},{"indexed":true,"internalType":"address","name":"to","type":"address"},{"indexed":false,"internalType":"int64","name":"amount","type":"int64"}],"name":"HTSMintAttempt","type":"event"},{"anonymous":false,"inputs":[{"indexed":true,"internalType":"address","name":"token","type":"address"},{"indexed":true,"internalType":"address","name":"to","type":"address"},{"indexed":false,"internalType":"int64","name":"amount","type":"int64"},{"indexed":false,"internalType":"int32","name":"responseCode","type":"int32"}],"name":"HTSMintFailed","type":"event"},{"anonymous":false,"inputs":[{"indexed":true,"internalType":"address","name":"token","type":"address"},{"indexed":true,"internalType":"address","name":"to","type":"address"},{"indexed":false,"internalType":"int64","name":"amount","type":"int64"},{"indexed":false,"internalType":"int64","name":"newTotalSupply","type":"int64"}],"name":"HTSMintSuccess","type":"event"},{"anonymous":false,"inputs":[{"indexed":true,"internalType":"address","name":"token","type":"address"},{"indexed":true,"internalType":"address","name":"from","type":"address"},{"indexed":true,"internalType":"address","name":"to","type":"address"},{"indexed":false,"internalType":"int64","name":"amount","type":"int64"}],"name":"HTSTransferAttempt","type":"event"},{"anonymous":false,"inputs":[{"indexed":true,"internalType":"address","name":"token","type":"address"},{"indexed":true,"internalType":"address","name":"from","type":"address"},{"indexed":true,"internalType":"address","name":"to","type":"address"},{"indexed":false,"internalType":"int64","name":"amount","type":"int64"},{"indexed":false,"internalType":"int32","name":"responseCode","type":"int32"}],"name":"HTSTransferFailed","type":"event"},{"anonymous":false,"inputs":[{"indexed":true,"internalType":"address","name":"token","type":"address"},{"indexed":true,"internalType":"address","name":"from","type":"address"},{"indexed":true,"internalType":"address","name":"to","type":"address"},{"indexed":false,"internalType":"int64","name":"amount","type":"int64"}],"name":"HTSTransferSuccess","type":"event"},{"anonymous":false,"inputs":[{"indexed":true,"internalType":"address","name":"user","type":"address"},{"indexed":false,"internalType":"uint256","name":"hbarAmount","type":"uint256"},{"indexed":false,"internalType":"uint256","name":"lpTokensMinted","type":"uint256"},{"indexed":false,"internalType":"uint256","name":"timestamp","type":"uint256"}],"name":"LiquidityAdded","type":"event"},{"anonymous":false,"inputs":[{"indexed":true,"internalType":"address","name":"user","type":"address"},{"indexed":false,"internalType":"uint256","name":"hbarAmount","type":"uint256"},{"indexed":false,"internalType":"uint256","name":"lpTokensBurned","type":"uint256"},{"indexed":false,"internalType":"uint256","name":"timestamp","type":"uint256"}],"name":"LiquidityRemoved","type":"event"},{"anonymous":false,"inputs":[{"indexed":true,"internalType":"address","name":"previousOwner","type":"address"},{"indexed":true,"internalType":"address","name":"newOwner","type":"address"}],"name":"OwnershipTransferred","type":"event"},{"anonymous":false,"inputs":[{"indexed":false,"internalType":"address","name":"account","type":"address"}],"name":"Paused","type":"event"},{"anonymous":false,"inputs":[{"indexed":true,"internalType":"address","name":"initializer","type":"address"},{"indexed":false,"internalType":"uint256","name":"hbarAmount","type":"uint256"},{"indexed":false,"internalType":"uint256","name":"timestamp","type":"uint256"}],"name":"PoolInitialized","type":"event"},{"anonymous":false,"inputs":[{"indexed":true,"internalType":"address","name":"pauser","type":"address"},{"indexed":false,"internalType":"uint256","name":"timestamp","type":"uint256"}],"name":"PoolPaused","type":"event"},{"anonymous":false,"inputs":[{"indexed":true,"internalType":"address","name":"unpauser","type":"address"},{"indexed":false,"internalType":"uint256","name":"timestamp","type":"uint256"}],"name":"PoolUnpaused","type":"event"},{"anonymous":false,"inputs":[{"indexed":false,"internalType":"address","name":"account","type":"address"}],"name":"Unpaused","type":"event"},{"inputs":[],"name":"FEE_BPS","outputs":[{"internalType":"uint256","name":"","type":"uint256"}],"stateMutability":"view","type":"function"},{"inputs":[],"name":"FEE_DENOMINATOR","outputs":[{"internalType":"uint256","name":"","type":"uint256"}],"stateMutability":"view","type":"function"},{"inputs":[],"name":"MIN_LIQUIDITY","outputs":[{"internalType":"uint256","name":"","type":"uint256"}],"stateMutability":"view","type":"function"},{"inputs":[{"internalType":"uint256","name":"minLPTokens","type":"uint256"}],"name":"addLiquidity","outputs":[],"stateMutability":"payable","type":"function"},{"inputs":[{"internalType":"uint256","name":"hbarAmount","type":"uint256"}],"name":"calculateLPTokens","outputs":[{"internalType":"uint256","name":"lpTokens","type":"uint256"}],"stateMutability":"view","type":"function"},{"inputs":[],"name":"collectFees","outputs":[],"stateMutability":"nonpayable","type":"function"},{"inputs":[],"name":"emergencyWithdraw","outputs":[],"stateMutability":"nonpayable","type":"function"},{"inputs":[],"name":"getPoolInfo","outputs":[{"internalType":"uint256","name":"hbarBalance","type":"uint256"},{"internalType":"uint256","name":"lpTokenSupply","type":"uint256"},{"internalType":"uint256","name":"totalPoolValue","type":"uint256"}],"stateMutability":"view","type":"function"},{"inputs":[{"internalType":"address","name":"user","type":"address"}],"name":"getUserShare","outputs":[{"internalType":"uint256","name":"hbarShare","type":"uint256"},{"internalType":"uint256","name":"lpBalance","type":"uint256"}],"stateMutability":"view","type":"function"},{"inputs":[{"internalType":"address","name":"user","type":"address"}],"name":"getUserValue","outputs":[{"internalType":"uint256","name":"userValue","type":"uint256"}],"stateMutability":"view","type":"function"},{"inputs":[],"name":"getValuePerLPToken","outputs":[{"internalType":"uint256","name":"valuePerToken","type":"uint256"}],"stateMutability":"view","type":"function"},{"inputs":[],"name":"initializePool","outputs":[],"stateMutability":"payable","type":"function"},{"inputs":[],"name":"isInitialized","outputs":[{"internalType":"bool","name":"initialized","type":"bool"}],"stateMutability":"view","type":"function"},{"inputs":[],"name":"lpToken","outputs":[{"internalType":"address","name":"","type":"address"}],"stateMutability":"view","type":"function"},{"inputs":[],"name":"owner","outputs":[{"internalType":"address","name":"","type":"address"}],"stateMutability":"view","type":"function"},{"inputs":[],"name":"pause","outputs":[],"stateMutability":"nonpayable","type":"function"},{"inputs":[],"name":"paused","outputs":[{"internalType":"bool","name":"","type":"bool"}],"stateMutability":"view","type":"function"},{"inputs":[{"internalType":"address","name":"token","type":"address"},{"internalType":"bytes","name":"encodedFunctionSelector","type":"bytes"}],"name":"redirectForToken","outputs":[{"internalType":"int256","name":"responseCode","type":"int256"},{"internalType":"bytes","name":"response","type":"bytes"}],"stateMutability":"nonpayable","type":"function"},{"inputs":[{"internalType":"uint256","name":"lpTokens","type":"uint256"},{"internalType":"uint256","name":"minHBAR","type":"uint256"}],"name":"removeLiquidity","outputs":[],"stateMutability":"nonpayable","type":"function"},{"inputs":[],"name":"renounceOwnership","outputs":[],"stateMutability":"nonpayable","type":"function"},{"inputs":[],"name":"totalHBAR","outputs":[{"internalType":"uint256","name":"","type":"uint256"}],"stateMutability":"view","type":"function"},{"inputs":[],"name":"totalLPTokens","outputs":[{"internalType":"uint256","name":"","type":"uint256"}],"stateMutability":"view","type":"function"},{"inputs":[],"name":"totalValue","outputs":[{"internalType":"uint256","name":"","type":"uint256"}],"stateMutability":"view","type":"function"},{"inputs":[{"internalType":"address","name":"token","type":"address"},{"internalType":"address","name":"from","type":"address"},{"internalType":"address","name":"to","type":"address"},{"internalType":"uint256","name":"amount","type":"uint256"}],"name":"transferFrom","outputs":[{"internalType":"int64","name":"responseCode","type":"int64"}],"stateMutability":"nonpayable","type":"function"},{"inputs":[{"internalType":"address","name":"token","type":"address"},{"internalType":"address","name":"from","type":"address"},{"internalType":"address","name":"to","type":"address"},{"internalType":"uint256","name":"serialNumber","type":"uint256"}],"name":"transferFromNFT","outputs":[{"internalType":"int64","name":"responseCode","type":"int64"}],"stateMutability":"nonpayable","type":"function"},{"inputs":[{"internalType":"address","name":"newOwner","type":"address"}],"name":"transferOwnership","outputs":[],"stateMutability":"nonpayable","type":"function"},{"inputs":[],"name":"unpause","outputs":[],"stateMutability":"nonpayable","type":"function"},{"stateMutability":"payable","type":"receive"}],"evm":{"bytecode":{"linkReferences":{},"object":"60a0346200015657601f62001b4c38819003918201601f19168301916001600160401b038311848410176200015b578084926040948552833981010312620001565760206200004e8262000171565b916001600160a01b0391829162000066910162000171565b169081156200013d57600080546001600160a01b03198116841782556040519391908316907f8be0079c531659141344cd1fd0a4f28419497f9722a3daafe3b4186f6b6457e09080a360018055821615620000fb57506080526040516119c5908162000187823960805181818161044e0152818161099901528181610a8d0152818161116a0152818161165a01526117230152f35b62461bcd60e51b815260206004820152601860248201527f496e76616c6964204c5020746f6b656e206164647265737300000000000000006044820152606490fd5b604051631e4fbdf760e01b815260006004820152602490fd5b600080fd5b634e487b7160e01b600052604160045260246000fd5b51906001600160a01b0382168203620001565756fe60806040818152600480361015610021575b505050361561001f57600080fd5b005b60009283803560e01c91826315dacbea14611380575050806321b77d6314611362578063250e6de01461111757806328999437146110f85780632fb9125d146110db578063392e53cd146110bc5780633f4ba83a1461102a57806342c649de1461100a57806351c6590a146109ec5780635c975abb146109c85780635fcbd2851461098457806360246c8814610952578063618dc65e14610804578063715018a6146107aa5780638456cb59146107255780638da5cb5b146106fd5780639b23d3d91461064a5780639d7de6b3146103da578063a78c849b146103ad578063bbbaee4c1461037a578063bf333f2c1461035e578063c87965721461029c578063d4c3eea01461027d578063d73792a914610260578063db2e21bc146101fb578063ef6283d9146101de5763f2fde38b0361001157346101da5760203660031901126101da5761016e6113d8565b906101776114e4565b6001600160a01b039182169283156101c457505082546001600160a01b0319811683178455167f8be0079c531659141344cd1fd0a4f28419497f9722a3daafe3b4186f6b6457e08380a380f35b51631e4fbdf760e01b8152908101849052602490fd5b8280fd5b50346101da57826003193601126101da5760209250549051908152f35b50503461025c578160031936011261025c576102156114e4565b81478015908115610224578280f35b82809291819260018060a01b03835416908390610253575bf115610249578181808280f35b51903d90823e3d90fd5b506108fc61023c565b5080fd5b50503461025c578160031936011261025c57602090516127108152f35b50503461025c578160031936011261025c576020906005549051908152f35b50346101da57826003193601126101da576102b56114e4565b60035490601e820291808304601e149015171561034b5750612710900490811580156102df578380f35b838080808660018060a01b039586835416908390610342575bf11561033857907f2e4fb6077d4acf86e12bb7411fb82b2b3eaa6a49787f4b1e17b423e7ea84116991845416928151908152426020820152a23880808380f35b81513d85823e3d90fd5b506108fc6102f8565b634e487b7160e01b845260119052602483fd5b50503461025c578160031936011261025c5760209051601e8152f35b8284346103aa5760203660031901126103aa575061039e6103996113d8565b6116f9565b82519182526020820152f35b80fd5b50503461025c57602036600319011261025c576020906103d36103ce6113d8565b611630565b9051908152f35b50346101da57816003193601126101da578035916103f661154e565b6103fe611530565b821561063d57815480841161062f576104229061041d60055486611571565b611510565b91602435831061062157815161043781611434565b8581528251636b48868360e11b60208083019182527f00000000000000000000000000000000000000000000000000000000000000006001600160a01b0316602484015267ffffffffffffffff8816600790810b604485015260606064850152845160848501819052919460a48501948b949390929187019185905b888383106106045750505050506104d481849503601f198101835282611466565b5190826101675af16104e46117b8565b90156105fa5783818051810103126105f6578061050f8561050885601695016117e8565b92016117f6565b505b60030b036105b6575061052584825461159a565b90556105338260035461159a565b6003556105428260055461159a565b60055583808380156105ac575b8280929181923390f1156105a35751908152602081019190915242604082015233907f1dc8bb69df2b8e91fbdcbfcf93d951b3f0000f085a95fe3f7946d6161439245d9080606081015b0390a26001805580f35b513d84823e3d90fd5b6108fc915061054f565b606492519162461bcd60e51b8352820152601860248201527f48545320746f6b656e206275726e696e67206661696c656400000000000000006044820152fd5b8680fd5b5060166015610511565b8451820b8952978801978e975090930192600191909101906104b3565b9051638199f5f360e01b8152fd5b50516384b8f6a160e01b8152fd5b51636c2b7e2d60e11b8152fd5b50503461025c5781806106b36106a5610662366113f3565b8851639b23d3d960e01b602082019081526001600160a01b03958616602483015293851660448201529390911660648401526084830152929091829060a4820190565b03601f198101835282611466565b5190826101675af1916106c46117b8565b92156106f0576020838051810103126103aa57506106e560208093016117e8565b905b519060030b8152f35b50602091506015906106e7565b50503461025c578160031936011261025c57905490516001600160a01b039091168152602090f35b50503461025c578160031936011261025c5761073f6114e4565b610747611530565b600160ff1960025416176002557f62e78cea01bee320cd4e420270b5ea74000d11b0c9f74754ebdbfc544b05a25860208251338152a1514281527fdeccd871bd16197ce3d021a73302372354d5cd2b5c3f57065638c772bf5a7c2860203392a280f35b83346103aa57806003193601126103aa576107c36114e4565b80546001600160a01b03198116825581906001600160a01b03167f8be0079c531659141344cd1fd0a4f28419497f9722a3daafe3b4186f6b6457e08280a380f35b5082903461025c578260031936011261025c5761081f6113d8565b906024359067ffffffffffffffff821161094e573660238301121561094e5781013561084a81611488565b9161085786519384611466565b818352366024838301011161094a576108b78594929385602086829760246106a59701838601378301015287516330c6e32f60e11b602082019081526001600160a01b0390951660248201526044810189905292839160648301906114a4565b5190826101675af1906108c86117b8565b917f4af4780e06fe8cb9df64b0794fa6f01399af979175bb988e35e0e57e594567bc8451821515815285602082015280610904878201876114a4565b0390a115610930575061092c6016915b835193849360030b84528060208501528301906114a4565b0390f35b8251915061093d82611434565b815261092c601591610914565b8480fd5b8380fd5b5082346103aa57806003193601126103aa57506003549054600554925191825260208201526040810191909152606090f35b50503461025c578160031936011261025c57517f00000000000000000000000000000000000000000000000000000000000000006001600160a01b03168152602090f35b50503461025c578160031936011261025c5760209060ff6002541690519015158152f35b509190602090816003193601126101da57610a0561154e565b610a0d611530565b83548015610fd0573415610f9a57610a259034611571565b91610a336005548094611510565b601e8102818104601e1482151715610f875790612710610a5492049061159a565b9285358410610f7757610a7790610a6d346003546115a7565b60035534906115a7565b60055567ffffffffffffffff9485841660070b907f000000000000000000000000000000000000000000000000000000000000000090610afa60018060a01b038316928651858152847fb7555d949a897acb395f95e3f2df8b700519404826bb13cd6526b756f6a1c907883393a384875191610af283611434565b8a8352611804565b50919060168103610ee2575085519833847e76f2144a259bc469a1890872ec3851efddbfeb0a9150fed87b7ba8650b1d0c8b80a3858a019063248a35ef60e11b82528960249b338d820152866044820152604481526080810181811084821117610ed0579082918b52516101679482865af18a8c610b766117b8565b9215610ec55750508781805181010312610ec1578a9291610b99898e93016117e8565b60030b60168103610dd2575033877ffdda3a3d0687144c9bd8edbb3cc99da0c2a20b000492b79076f963d71f3339c28680a35b89518881523390887fd9cd850143c0756b15b46ebdc8b4ed7701b66aaed30858ee17a225eb005cca2e8c3093a4895190878a83019363eca3691760e01b85528301523060448301523360648301528860848301526084825260c082019082821090821117610dc0578493929184918c5251925af1610c486117b8565b9015610db8578581805181010312610db45785610c6591016117e8565b60030b9860168a03610d29575086979850610ca27f64b83944e79c3ce8d4c297411de637c3e102d064677aac0c163976ebdcd6f50e9782546115a7565b90558451600784810b82529190910b6020820152339082907fad91542866f4da9ebed5a2b1713258f4bf970f84e7b2a0b8aab2de28d11ffffd90604090a383519182527f67325b2f3de1d8273fc1aeeaf3b161488fc28427430d9f6b341831dedfc2d63333933093a451348152602081019290925242604083015233918060608101610599565b90601960649287898d89897fcc975f63304dfdaa80a8ecbfbfc654fd86ea8a7cdb68086a0d883f26ad08e4c1845180610d783396309683909291602090604083019460070b835260030b910152565b0390a45162461bcd60e51b8152938401528201527f48545320746f6b656e207472616e73666572206661696c6564000000000000006044820152fd5b8880fd5b506015610c65565b634e487b7160e01b8552604186528d85fd5b92935091905060c28103610e365750908a8a92895189815260128a82015271105b1c9958591e48185cdcdbd8da585d195960721b8b820152877f393657bca6819244b5099fc39434a68f9839dbda30aaaf13dc6bab90313d9b2d60603393a3610bcc565b8360188d8a8c8b8b7f03f5e21a75677e84382c9f010b9f5780b534bb2a966c378fa090d12ba52caa08610e856064998551918291339683909291602090604083019460070b835260030b910152565b0390a35162461bcd60e51b8152938401528201527f546f6b656e206173736f63696174696f6e206661696c656400000000000000006044820152fd5b8a80fd5b915092916015610b99565b634e487b7160e01b8352604186528d83fd5b8651600786900b815260039190910b6020820152610f7391908790339086907f03f5e21a75677e84382c9f010b9f5780b534bb2a966c378fa090d12ba52caa089080604081015b0390a35191829162461bcd60e51b8352820160609060208152601860208201527f48545320746f6b656e206d696e74696e67206661696c6564000000000000000060408201520190565b0390fd5b8251638199f5f360e01b81528690fd5b634e487b7160e01b865260118752602486fd5b815162461bcd60e51b8152808601849052601060248201526f139bc812109054881c1c9bdd9a59195960821b6044820152606490fd5b815162461bcd60e51b81528086018490526014602482015273141bdbdb081b9bdd081a5b9a5d1a585b1a5e995960621b6044820152606490fd5b5091346103aa5760203660031901126103aa57506103d3602092356115b4565b50346101da57826003193601126101da576110436114e4565b6002549060ff8216156110ae575060ff19166002557f5db9ee0a495bf2e6ff9c91a7834c1ba4fdd244a5e8aa4e537bd38aeae4b073aa60208251338152a1514281527f7218b4a8a456456c2cf5dbcd9202a02880a891c6f9dfafd90e7be5531523a03160203392a280f35b8251638dfc202b60e01b8152fd5b50346101da57826003193601126101da57602092505415159051908152f35b50503461025c578160031936011261025c576020906103d36115ff565b50503461025c578160031936011261025c576020906003549051908152f35b5090826003193601126101da5761112c6114e4565b61113461154e565b61113c611530565b815461131f57620186a034106112dc573460035534600555606434049167ffffffffffffffff831660070b907f0000000000000000000000000000000000000000000000000000000000000000906111d860018060a01b038316928551858152847fb7555d949a897acb395f95e3f2df8b700519404826bb13cd6526b756f6a1c90760203393a3848651916111d083611434565b898352611804565b5091906016810361129157508590558351600793840b8152920b60208301527f64b83944e79c3ce8d4c297411de637c3e102d064677aac0c163976ebdcd6f50e92913391907fad91542866f4da9ebed5a2b1713258f4bf970f84e7b2a0b8aab2de28d11ffffd90604090a380513481524260208201527f997f3e422a7446ccf056e7a989c8a281f20af906a7ac6ad0e6f9fea0edd6055c823392a251348152602081019290925242604083015233918060608101610599565b8551600786900b815260039190910b6020820152610f7391908690339086907f03f5e21a75677e84382c9f010b9f5780b534bb2a966c378fa090d12ba52caa08908060408101610f29565b906020606492519162461bcd60e51b8352820152601e60248201527f496e73756666696369656e7420696e697469616c206c697175696469747900006044820152fd5b906020606492519162461bcd60e51b8352820152601860248201527f506f6f6c20616c726561647920696e697469616c697a656400000000000000006044820152fd5b50503461025c578160031936011261025c5760209051620186a08152f35b8185913461025c576106a5816106b3849361139a366113f3565b630aed65f560e11b602086019081526001600160a01b03948516602487015292841660448601529216606484015260848301919091529360a4820190565b600435906001600160a01b03821682036113ee57565b600080fd5b60809060031901126113ee576001600160a01b0360043581811681036113ee579160243582811681036113ee579160443590811681036113ee579060643590565b6020810190811067ffffffffffffffff82111761145057604052565b634e487b7160e01b600052604160045260246000fd5b90601f8019910116810190811067ffffffffffffffff82111761145057604052565b67ffffffffffffffff811161145057601f01601f191660200190565b919082519283825260005b8481106114d0575050826000602080949584010152601f8019910116010190565b6020818301810151848301820152016114af565b6000546001600160a01b031633036114f857565b60405163118cdaa760e01b8152336004820152602490fd5b811561151a570490565b634e487b7160e01b600052601260045260246000fd5b60ff6002541661153c57565b60405163d93c066560e01b8152600490fd5b60026001541461155f576002600155565b604051633ee5aeb560e01b8152600490fd5b8181029291811591840414171561158457565b634e487b7160e01b600052601160045260246000fd5b9190820391821161158457565b9190820180921161158457565b6004549081156115f8576115d4916115cb91611571565b60055490611510565b601e810290808204601e1481151715611584576127106115f592049061159a565b90565b5050600090565b600454801561162a5760055490620f424091828102928184041490151715611584576115f591611510565b50600090565b6040516370a0823160e01b81526001600160a01b03918216600482015290602090829060249082907f0000000000000000000000000000000000000000000000000000000000000000165afa9081156116ed576000916116bc575b50801580156116b2575b61162a576116a96115f59160055490611571565b60045490611510565b5060045415611695565b906020823d82116116e5575b816116d560209383611466565b810103126103aa5750513861168b565b3d91506116c8565b6040513d6000823e3d90fd5b6040516370a0823160e01b81526001600160a01b03918216600482015290602090829060249082907f0000000000000000000000000000000000000000000000000000000000000000165afa9081156116ed57600091611787575b508015801561177d575b611774576117716116a960055483611571565b91565b50600090600090565b506004541561175e565b906020823d82116117b0575b816117a060209383611466565b810103126103aa57505138611754565b3d9150611793565b3d156117e3573d906117c982611488565b916117d76040519384611466565b82523d6000602084013e565b606090565b51908160030b82036113ee57565b51908160070b82036113ee57565b906040928351906020938483019363707a02cd60e11b8552608484019160018060a01b0316602485015260070b604484015260606064840152815180915260a48301908560a48260051b8601019301916000905b87838310611966575050505050918161187e60009493859403601f198101835282611466565b5190826101675af19061188f6117b8565b9160009015611946575081518201906060838284019303126113ee576118b68184016117e8565b916118c28585016117f6565b94606085015167ffffffffffffffff958682116113ee57019082603f830112156113ee5783820151958611611450578560051b9181519661190586850189611466565b875281858801938201019384116113ee5701905b82821061192f575050505091905b909160030b92565b83809161193b846117f6565b815201910190611919565b92915050519061195582611434565b808252368137601590600090611927565b806119816001939495969760a3198a820301865288516114a4565b96019201920190929161185856fea264697066735822122063effe9b1dad7ab5ad0a464d7e8505fcfe5453831fefbeaebe3ad365e2803b2164736f6c63430008140033","opcodes":"PUSH1 0xA0 CALLVALUE PUSH3 0x156 JUMPI PUSH1 0x1F PUSH3 0x1B4C CODESIZE DUP2 SWAP1 SUB SWAP2 DUP3 ADD PUSH1 0x1F NOT AND DUP4 ADD SWAP2 PUSH1 0x1 PUSH1 0x1 PUSH1 0x40 SHL SUB DUP4 GT DUP5 DUP5 LT OR PUSH3 0x15B JUMPI DUP1 DUP5 SWAP3 PUSH1 0x40 SWAP5 DUP6 MSTORE DUP4 CODECOPY DUP2 ADD SUB SLT PUSH3 0x156 JUMPI PUSH1 0x20 PUSH3 0x4E DUP3 PUSH3 0x171 JUMP JUMPDEST SWAP2 PUSH1 0x1 PUSH1 0x1 PUSH1 0xA0 SHL SUB SWAP2 DUP3 SWAP2 PUSH3 0x66 SWAP2 ADD PUSH3 0x171 JUMP JUMPDEST AND SWAP1 DUP2 ISZERO PUSH3 0x13D JUMPI PUSH1 0x0 DUP1 SLOAD PUSH1 0x1 PUSH1 0x1 PUSH1 0xA0 SHL SUB NOT DUP2 AND DUP5 OR DUP3 SSTORE PUSH1 0x40 MLOAD SWAP4 SWAP2 SWAP1 DUP4 AND SWAP1 PUSH32 0x8BE0079C531659141344CD1FD0A4F28419497F9722A3DAAFE3B4186F6B6457E0 SWAP1 DUP1 LOG3 PUSH1 0x1 DUP1 SSTORE DUP3 AND ISZERO PUSH3 0xFB JUMPI POP PUSH1 0x80 MSTORE PUSH1 0x40 MLOAD PUSH2 0x19C5 SWAP1 DUP2 PUSH3 0x187 DUP3 CODECOPY PUSH1 0x80 MLOAD DUP2 DUP2 DUP2 PUSH2 0x44E ADD MSTORE DUP2 DUP2 PUSH2 0x999 ADD MSTORE DUP2 DUP2 PUSH2 0xA8D ADD MSTORE DUP2 DUP2 PUSH2 0x116A ADD MSTORE DUP2 DUP2 PUSH2 0x165A ADD MSTORE PUSH2 0x1723 ADD MSTORE RETURN JUMPDEST PUSH3 0x461BCD PUSH1 0xE5 SHL DUP2 MSTORE PUSH1 0x20 PUSH1 0x4 DUP3 ADD MSTORE PUSH1 0x18 PUSH1 0x24 DUP3 ADD MSTORE PUSH32 0x496E76616C6964204C5020746F6B656E20616464726573730000000000000000 PUSH1 0x44 DUP3 ADD MSTORE PUSH1 0x64 SWAP1 REVERT JUMPDEST PUSH1 0x40 MLOAD PUSH4 0x1E4FBDF7 PUSH1 0xE0 SHL DUP2 MSTORE PUSH1 0x0 PUSH1 0x4 DUP3 ADD MSTORE PUSH1 0x24 SWAP1 REVERT JUMPDEST PUSH1 0x0 DUP1 REVERT JUMPDEST PUSH4 0x4E487B71 PUSH1 0xE0 SHL PUSH1 0x0 MSTORE PUSH1 0x41 PUSH1 0x4 MSTORE PUSH1 0x24 PUSH1 0x0 REVERT JUMPDEST MLOAD SWAP1 PUSH1 0x1 PUSH1 0x1 PUSH1 0xA0 SHL SUB DUP3 AND DUP3 SUB PUSH3 0x156 JUMPI JUMP INVALID PUSH1 0x80 PUSH1 0x40 DUP2 DUP2 MSTORE PUSH1 0x4 DUP1 CALLDATASIZE LT ISZERO PUSH2 0x21 JUMPI JUMPDEST POP POP POP CALLDATASIZE ISZERO PUSH2 0x1F JUMPI PUSH1 0x0 DUP1 REVERT JUMPDEST STOP JUMPDEST PUSH1 0x0 SWAP3 DUP4 DUP1 CALLDATALOAD PUSH1 0xE0 SHR SWAP2 DUP3 PUSH4 0x15DACBEA EQ PUSH2 0x1380 JUMPI POP POP DUP1 PUSH4 0x21B77D63 EQ PUSH2 0x1362 JUMPI DUP1 PUSH4 0x250E6DE0 EQ PUSH2 0x1117 JUMPI DUP1 PUSH4 0x28999437 EQ PUSH2 0x10F8 JUMPI DUP1 PUSH4 0x2FB9125D EQ PUSH2 0x10DB JUMPI DUP1 PUSH4 0x392E53CD EQ PUSH2 0x10BC JUMPI DUP1 PUSH4 0x3F4BA83A EQ PUSH2 0x102A JUMPI DUP1 PUSH4 0x42C649DE EQ PUSH2 0x100A JUMPI DUP1 PUSH4 0x51C6590A EQ PUSH2 0x9EC JUMPI DUP1 PUSH4 0x5C975ABB EQ PUSH2 0x9C8 JUMPI DUP1 PUSH4 0x5FCBD285 EQ PUSH2 0x984 JUMPI DUP1 PUSH4 0x60246C88 EQ PUSH2 0x952 JUMPI DUP1 PUSH4 0x618DC65E EQ PUSH2 0x804 JUMPI DUP1 PUSH4 0x715018A6 EQ PUSH2 0x7AA JUMPI DUP1 PUSH4 0x8456CB59 EQ PUSH2 0x725 JUMPI DUP1 PUSH4 0x8DA5CB5B EQ PUSH2 0x6FD JUMPI DUP1 PUSH4 0x9B23D3D9 EQ PUSH2 0x64A JUMPI DUP1 PUSH4 0x9D7DE6B3 EQ PUSH2 0x3DA JUMPI DUP1 PUSH4 0xA78C849B EQ PUSH2 0x3AD JUMPI DUP1 PUSH4 0xBBBAEE4C EQ PUSH2 0x37A JUMPI DUP1 PUSH4 0xBF333F2C EQ PUSH2 0x35E JUMPI DUP1 PUSH4 0xC8796572 EQ PUSH2 0x29C JUMPI DUP1 PUSH4 0xD4C3EEA0 EQ PUSH2 0x27D JUMPI DUP1 PUSH4 0xD73792A9 EQ PUSH2 0x260 JUMPI DUP1 PUSH4 0xDB2E21BC EQ PUSH2 0x1FB JUMPI DUP1 PUSH4 0xEF6283D9 EQ PUSH2 0x1DE JUMPI PUSH4 0xF2FDE38B SUB PUSH2 0x11 JUMPI CALLVALUE PUSH2 0x1DA JUMPI PUSH1 0x20 CALLDATASIZE PUSH1 0x3 NOT ADD SLT PUSH2 0x1DA JUMPI PUSH2 0x16E PUSH2 0x13D8 JUMP JUMPDEST SWAP1 PUSH2 0x177 PUSH2 0x14E4 JUMP JUMPDEST PUSH1 0x1 PUSH1 0x1 PUSH1 0xA0 SHL SUB SWAP2 DUP3 AND SWAP3 DUP4 ISZERO PUSH2 0x1C4 JUMPI POP POP DUP3 SLOAD PUSH1 0x1 PUSH1 0x1 PUSH1 0xA0 SHL SUB NOT DUP2 AND DUP4 OR DUP5 SSTORE AND PUSH32 0x8BE0079C531659141344CD1FD0A4F28419497F9722A3DAAFE3B4186F6B6457E0 DUP4 DUP1 LOG3 DUP1 RETURN JUMPDEST MLOAD PUSH4 0x1E4FBDF7 PUSH1 0xE0 SHL DUP2 MSTORE SWAP1 DUP2 ADD DUP5 SWAP1 MSTORE PUSH1 0x24 SWAP1 REVERT JUMPDEST DUP3 DUP1 REVERT JUMPDEST POP CALLVALUE PUSH2 0x1DA JUMPI DUP3 PUSH1 0x3 NOT CALLDATASIZE ADD SLT PUSH2 0x1DA JUMPI PUSH1 0x20 SWAP3 POP SLOAD SWAP1 MLOAD SWAP1 DUP2 MSTORE RETURN JUMPDEST POP POP CALLVALUE PUSH2 0x25C JUMPI DUP2 PUSH1 0x3 NOT CALLDATASIZE ADD SLT PUSH2 0x25C JUMPI PUSH2 0x215 PUSH2 0x14E4 JUMP JUMPDEST DUP2 SELFBALANCE DUP1 ISZERO SWAP1 DUP2 ISZERO PUSH2 0x224 JUMPI DUP3 DUP1 RETURN JUMPDEST DUP3 DUP1 SWAP3 SWAP2 DUP2 SWAP3 PUSH1 0x1 DUP1 PUSH1 0xA0 SHL SUB DUP4 SLOAD AND SWAP1 DUP4 SWAP1 PUSH2 0x253 JUMPI JUMPDEST CALL ISZERO PUSH2 0x249 JUMPI DUP2 DUP2 DUP1 DUP3 DUP1 RETURN JUMPDEST MLOAD SWAP1 RETURNDATASIZE SWAP1 DUP3 RETURNDATACOPY RETURNDATASIZE SWAP1 REVERT JUMPDEST POP PUSH2 0x8FC PUSH2 0x23C JUMP JUMPDEST POP DUP1 REVERT JUMPDEST POP POP CALLVALUE PUSH2 0x25C JUMPI DUP2 PUSH1 0x3 NOT CALLDATASIZE ADD SLT PUSH2 0x25C JUMPI PUSH1 0x20 SWAP1 MLOAD PUSH2 0x2710 DUP2 MSTORE RETURN JUMPDEST POP POP CALLVALUE PUSH2 0x25C JUMPI DUP2 PUSH1 0x3 NOT CALLDATASIZE ADD SLT PUSH2 0x25C JUMPI PUSH1 0x20 SWAP1 PUSH1 0x5 SLOAD SWAP1 MLOAD SWAP1 DUP2 MSTORE RETURN JUMPDEST POP CALLVALUE PUSH2 0x1DA JUMPI DUP3 PUSH1 0x3 NOT CALLDATASIZE ADD SLT PUSH2 0x1DA JUMPI PUSH2 0x2B5 PUSH2 0x14E4 JUMP JUMPDEST PUSH1 0x3 SLOAD SWAP1 PUSH1 0x1E DUP3 MUL SWAP2 DUP1 DUP4 DIV PUSH1 0x1E EQ SWAP1 ISZERO OR ISZERO PUSH2 0x34B JUMPI POP PUSH2 0x2710 SWAP1 DIV SWAP1 DUP2 ISZERO DUP1 ISZERO PUSH2 0x2DF JUMPI DUP4 DUP1 RETURN JUMPDEST DUP4 DUP1 DUP1 DUP1 DUP7 PUSH1 0x1 DUP1 PUSH1 0xA0 SHL SUB SWAP6 DUP7 DUP4 SLOAD AND SWAP1 DUP4 SWAP1 PUSH2 0x342 JUMPI JUMPDEST CALL ISZERO PUSH2 0x338 JUMPI SWAP1 PUSH32 0x2E4FB6077D4ACF86E12BB7411FB82B2B3EAA6A49787F4B1E17B423E7EA841169 SWAP2 DUP5 SLOAD AND SWAP3 DUP2 MLOAD SWAP1 DUP2 MSTORE TIMESTAMP PUSH1 0x20 DUP3 ADD MSTORE LOG2 CODESIZE DUP1 DUP1 DUP4 DUP1 RETURN JUMPDEST DUP2 MLOAD RETURNDATASIZE DUP6 DUP3 RETURNDATACOPY RETURNDATASIZE SWAP1 REVERT JUMPDEST POP PUSH2 0x8FC PUSH2 0x2F8 JUMP JUMPDEST PUSH4 0x4E487B71 PUSH1 0xE0 SHL DUP5 MSTORE PUSH1 0x11 SWAP1 MSTORE PUSH1 0x24 DUP4 REVERT JUMPDEST POP POP CALLVALUE PUSH2 0x25C JUMPI DUP2 PUSH1 0x3 NOT CALLDATASIZE ADD SLT PUSH2 0x25C JUMPI PUSH1 0x20 SWAP1 MLOAD PUSH1 0x1E DUP2 MSTORE RETURN JUMPDEST DUP3 DUP5 CALLVALUE PUSH2 0x3AA JUMPI PUSH1 0x20 CALLDATASIZE PUSH1 0x3 NOT ADD SLT PUSH2 0x3AA JUMPI POP PUSH2 0x39E PUSH2 0x399 PUSH2 0x13D8 JUMP JUMPDEST PUSH2 0x16F9 JUMP JUMPDEST DUP3 MLOAD SWAP2 DUP3 MSTORE PUSH1 0x20 DUP3 ADD MSTORE RETURN JUMPDEST DUP1 REVERT JUMPDEST POP POP CALLVALUE PUSH2 0x25C JUMPI PUSH1 0x20 CALLDATASIZE PUSH1 0x3 NOT ADD SLT PUSH2 0x25C JUMPI PUSH1 0x20 SWAP1 PUSH2 0x3D3 PUSH2 0x3CE PUSH2 0x13D8 JUMP JUMPDEST PUSH2 0x1630 JUMP JUMPDEST SWAP1 MLOAD SWAP1 DUP2 MSTORE RETURN JUMPDEST POP CALLVALUE PUSH2 0x1DA JUMPI DUP2 PUSH1 0x3 NOT CALLDATASIZE ADD SLT PUSH2 0x1DA JUMPI DUP1 CALLDATALOAD SWAP2 PUSH2 0x3F6 PUSH2 0x154E JUMP JUMPDEST PUSH2 0x3FE PUSH2 0x1530 JUMP JUMPDEST DUP3 ISZERO PUSH2 0x63D JUMPI DUP2 SLOAD DUP1 DUP5 GT PUSH2 0x62F JUMPI PUSH2 0x422 SWAP1 PUSH2 0x41D PUSH1 0x5 SLOAD DUP7 PUSH2 0x1571 JUMP JUMPDEST PUSH2 0x1510 JUMP JUMPDEST SWAP2 PUSH1 0x24 CALLDATALOAD DUP4 LT PUSH2 0x621 JUMPI DUP2 MLOAD PUSH2 0x437 DUP2 PUSH2 0x1434 JUMP JUMPDEST DUP6 DUP2 MSTORE DUP3 MLOAD PUSH4 0x6B488683 PUSH1 0xE1 SHL PUSH1 0x20 DUP1 DUP4 ADD SWAP2 DUP3 MSTORE PUSH32 0x0 PUSH1 0x1 PUSH1 0x1 PUSH1 0xA0 SHL SUB AND PUSH1 0x24 DUP5 ADD MSTORE PUSH8 0xFFFFFFFFFFFFFFFF DUP9 AND PUSH1 0x7 SWAP1 DUP2 SIGNEXTEND PUSH1 0x44 DUP6 ADD MSTORE PUSH1 0x60 PUSH1 0x64 DUP6 ADD MSTORE DUP5 MLOAD PUSH1 0x84 DUP6 ADD DUP2 SWAP1 MSTORE SWAP2 SWAP5 PUSH1 0xA4 DUP6 ADD SWAP5 DUP12 SWAP5 SWAP4 SWAP1 SWAP3 SWAP2 DUP8 ADD SWAP2 DUP6 SWAP1 JUMPDEST DUP9 DUP4 DUP4 LT PUSH2 0x604 JUMPI POP POP POP POP POP PUSH2 0x4D4 DUP2 DUP5 SWAP6 SUB PUSH1 0x1F NOT DUP2 ADD DUP4 MSTORE DUP3 PUSH2 0x1466 JUMP JUMPDEST MLOAD SWAP1 DUP3 PUSH2 0x167 GAS CALL PUSH2 0x4E4 PUSH2 0x17B8 JUMP JUMPDEST SWAP1 ISZERO PUSH2 0x5FA JUMPI DUP4 DUP2 DUP1 MLOAD DUP2 ADD SUB SLT PUSH2 0x5F6 JUMPI DUP1 PUSH2 0x50F DUP6 PUSH2 0x508 DUP6 PUSH1 0x16 SWAP6 ADD PUSH2 0x17E8 JUMP JUMPDEST SWAP3 ADD PUSH2 0x17F6 JUMP JUMPDEST POP JUMPDEST PUSH1 0x3 SIGNEXTEND SUB PUSH2 0x5B6 JUMPI POP PUSH2 0x525 DUP5 DUP3 SLOAD PUSH2 0x159A JUMP JUMPDEST SWAP1 SSTORE PUSH2 0x533 DUP3 PUSH1 0x3 SLOAD PUSH2 0x159A JUMP JUMPDEST PUSH1 0x3 SSTORE PUSH2 0x542 DUP3 PUSH1 0x5 SLOAD PUSH2 0x159A JUMP JUMPDEST PUSH1 0x5 SSTORE DUP4 DUP1 DUP4 DUP1 ISZERO PUSH2 0x5AC JUMPI JUMPDEST DUP3 DUP1 SWAP3 SWAP2 DUP2 SWAP3 CALLER SWAP1 CALL ISZERO PUSH2 0x5A3 JUMPI MLOAD SWAP1 DUP2 MSTORE PUSH1 0x20 DUP2 ADD SWAP2 SWAP1 SWAP2 MSTORE TIMESTAMP PUSH1 0x40 DUP3 ADD MSTORE CALLER SWAP1 PUSH32 0x1DC8BB69DF2B8E91FBDCBFCF93D951B3F0000F085A95FE3F7946D6161439245D SWAP1 DUP1 PUSH1 0x60 DUP2 ADD JUMPDEST SUB SWAP1 LOG2 PUSH1 0x1 DUP1 SSTORE DUP1 RETURN JUMPDEST MLOAD RETURNDATASIZE DUP5 DUP3 RETURNDATACOPY RETURNDATASIZE SWAP1 REVERT JUMPDEST PUSH2 0x8FC SWAP2 POP PUSH2 0x54F JUMP JUMPDEST PUSH1 0x64 SWAP3 MLOAD SWAP2 PUSH3 0x461BCD PUSH1 0xE5 SHL DUP4 MSTORE DUP3 ADD MSTORE PUSH1 0x18 PUSH1 0x24 DUP3 ADD MSTORE PUSH32 0x48545320746F6B656E206275726E696E67206661696C65640000000000000000 PUSH1 0x44 DUP3 ADD MSTORE REVERT JUMPDEST DUP7 DUP1 REVERT JUMPDEST POP PUSH1 0x16 PUSH1 0x15 PUSH2 0x511 JUMP JUMPDEST DUP5 MLOAD DUP3 SIGNEXTEND DUP10 MSTORE SWAP8 DUP9 ADD SWAP8 DUP15 SWAP8 POP SWAP1 SWAP4 ADD SWAP3 PUSH1 0x1 SWAP2 SWAP1 SWAP2 ADD SWAP1 PUSH2 0x4B3 JUMP JUMPDEST SWAP1 MLOAD PUSH4 0x8199F5F3 PUSH1 0xE0 SHL DUP2 MSTORE REVERT JUMPDEST POP MLOAD PUSH4 0x84B8F6A1 PUSH1 0xE0 SHL DUP2 MSTORE REVERT JUMPDEST MLOAD PUSH4 0x6C2B7E2D PUSH1 0xE1 SHL DUP2 MSTORE REVERT JUMPDEST POP POP CALLVALUE PUSH2 0x25C JUMPI DUP2 DUP1 PUSH2 0x6B3 PUSH2 0x6A5 PUSH2 0x662 CALLDATASIZE PUSH2 0x13F3 JUMP JUMPDEST DUP9 MLOAD PUSH4 0x9B23D3D9 PUSH1 0xE0 SHL PUSH1 0x20 DUP3 ADD SWAP1 DUP2 MSTORE PUSH1 0x1 PUSH1 0x1 PUSH1 0xA0 SHL SUB SWAP6 DUP7 AND PUSH1 0x24 DUP4 ADD MSTORE SWAP4 DUP6 AND PUSH1 0x44 DUP3 ADD MSTORE SWAP4 SWAP1 SWAP2 AND PUSH1 0x64 DUP5 ADD MSTORE PUSH1 0x84 DUP4 ADD MSTORE SWAP3 SWAP1 SWAP2 DUP3 SWAP1 PUSH1 0xA4 DUP3 ADD SWAP1 JUMP JUMPDEST SUB PUSH1 0x1F NOT DUP2 ADD DUP4 MSTORE DUP3 PUSH2 0x1466 JUMP JUMPDEST MLOAD SWAP1 DUP3 PUSH2 0x167 GAS CALL SWAP2 PUSH2 0x6C4 PUSH2 0x17B8 JUMP JUMPDEST SWAP3 ISZERO PUSH2 0x6F0 JUMPI PUSH1 0x20 DUP4 DUP1 MLOAD DUP2 ADD SUB SLT PUSH2 0x3AA JUMPI POP PUSH2 0x6E5 PUSH1 0x20 DUP1 SWAP4 ADD PUSH2 0x17E8 JUMP JUMPDEST SWAP1 JUMPDEST MLOAD SWAP1 PUSH1 0x3 SIGNEXTEND DUP2 MSTORE RETURN JUMPDEST POP PUSH1 0x20 SWAP2 POP PUSH1 0x15 SWAP1 PUSH2 0x6E7 JUMP JUMPDEST POP POP CALLVALUE PUSH2 0x25C JUMPI DUP2 PUSH1 0x3 NOT CALLDATASIZE ADD SLT PUSH2 0x25C JUMPI SWAP1 SLOAD SWAP1 MLOAD PUSH1 0x1 PUSH1 0x1 PUSH1 0xA0 SHL SUB SWAP1 SWAP2 AND DUP2 MSTORE PUSH1 0x20 SWAP1 RETURN JUMPDEST POP POP CALLVALUE PUSH2 0x25C JUMPI DUP2 PUSH1 0x3 NOT CALLDATASIZE ADD SLT PUSH2 0x25C JUMPI PUSH2 0x73F PUSH2 0x14E4 JUMP JUMPDEST PUSH2 0x747 PUSH2 0x1530 JUMP JUMPDEST PUSH1 0x1 PUSH1 0xFF NOT PUSH1 0x2 SLOAD AND OR PUSH1 0x2 SSTORE PUSH32 0x62E78CEA01BEE320CD4E420270B5EA74000D11B0C9F74754EBDBFC544B05A258 PUSH1 0x20 DUP3 MLOAD CALLER DUP2 MSTORE LOG1 MLOAD TIMESTAMP DUP2 MSTORE PUSH32 0xDECCD871BD16197CE3D021A73302372354D5CD2B5C3F57065638C772BF5A7C28 PUSH1 0x20 CALLER SWAP3 LOG2 DUP1 RETURN JUMPDEST DUP4 CALLVALUE PUSH2 0x3AA JUMPI DUP1 PUSH1 0x3 NOT CALLDATASIZE ADD SLT PUSH2 0x3AA JUMPI PUSH2 0x7C3 PUSH2 0x14E4 JUMP JUMPDEST DUP1 SLOAD PUSH1 0x1 PUSH1 0x1 PUSH1 0xA0 SHL SUB NOT DUP2 AND DUP3 SSTORE DUP2 SWAP1 PUSH1 0x1 PUSH1 0x1 PUSH1 0xA0 SHL SUB AND PUSH32 0x8BE0079C531659141344CD1FD0A4F28419497F9722A3DAAFE3B4186F6B6457E0 DUP3 DUP1 LOG3 DUP1 RETURN JUMPDEST POP DUP3 SWAP1 CALLVALUE PUSH2 0x25C JUMPI DUP3 PUSH1 0x3 NOT CALLDATASIZE ADD SLT PUSH2 0x25C JUMPI PUSH2 0x81F PUSH2 0x13D8 JUMP JUMPDEST SWAP1 PUSH1 0x24 CALLDATALOAD SWAP1 PUSH8 0xFFFFFFFFFFFFFFFF DUP3 GT PUSH2 0x94E JUMPI CALLDATASIZE PUSH1 0x23 DUP4 ADD SLT ISZERO PUSH2 0x94E JUMPI DUP2 ADD CALLDATALOAD PUSH2 0x84A DUP2 PUSH2 0x1488 JUMP JUMPDEST SWAP2 PUSH2 0x857 DUP7 MLOAD SWAP4 DUP5 PUSH2 0x1466 JUMP JUMPDEST DUP2 DUP4 MSTORE CALLDATASIZE PUSH1 0x24 DUP4 DUP4 ADD ADD GT PUSH2 0x94A JUMPI PUSH2 0x8B7 DUP6 SWAP5 SWAP3 SWAP4 DUP6 PUSH1 0x20 DUP7 DUP3 SWAP8 PUSH1 0x24 PUSH2 0x6A5 SWAP8 ADD DUP4 DUP7 ADD CALLDATACOPY DUP4 ADD ADD MSTORE DUP8 MLOAD PUSH4 0x30C6E32F PUSH1 0xE1 SHL PUSH1 0x20 DUP3 ADD SWAP1 DUP2 MSTORE PUSH1 0x1 PUSH1 0x1 PUSH1 0xA0 SHL SUB SWAP1 SWAP6 AND PUSH1 0x24 DUP3 ADD MSTORE PUSH1 0x44 DUP2 ADD DUP10 SWAP1 MSTORE SWAP3 DUP4 SWAP2 PUSH1 0x64 DUP4 ADD SWAP1 PUSH2 0x14A4 JUMP JUMPDEST MLOAD SWAP1 DUP3 PUSH2 0x167 GAS CALL SWAP1 PUSH2 0x8C8 PUSH2 0x17B8 JUMP JUMPDEST SWAP2 PUSH32 0x4AF4780E06FE8CB9DF64B0794FA6F01399AF979175BB988E35E0E57E594567BC DUP5 MLOAD DUP3 ISZERO ISZERO DUP2 MSTORE DUP6 PUSH1 0x20 DUP3 ADD MSTORE DUP1 PUSH2 0x904 DUP8 DUP3 ADD DUP8 PUSH2 0x14A4 JUMP JUMPDEST SUB SWAP1 LOG1 ISZERO PUSH2 0x930 JUMPI POP PUSH2 0x92C PUSH1 0x16 SWAP2 JUMPDEST DUP4 MLOAD SWAP4 DUP5 SWAP4 PUSH1 0x3 SIGNEXTEND DUP5 MSTORE DUP1 PUSH1 0x20 DUP6 ADD MSTORE DUP4 ADD SWAP1 PUSH2 0x14A4 JUMP JUMPDEST SUB SWAP1 RETURN JUMPDEST DUP3 MLOAD SWAP2 POP PUSH2 0x93D DUP3 PUSH2 0x1434 JUMP JUMPDEST DUP2 MSTORE PUSH2 0x92C PUSH1 0x15 SWAP2 PUSH2 0x914 JUMP JUMPDEST DUP5 DUP1 REVERT JUMPDEST DUP4 DUP1 REVERT JUMPDEST POP DUP3 CALLVALUE PUSH2 0x3AA JUMPI DUP1 PUSH1 0x3 NOT CALLDATASIZE ADD SLT PUSH2 0x3AA JUMPI POP PUSH1 0x3 SLOAD SWAP1 SLOAD PUSH1 0x5 SLOAD SWAP3 MLOAD SWAP2 DUP3 MSTORE PUSH1 0x20 DUP3 ADD MSTORE PUSH1 0x40 DUP2 ADD SWAP2 SWAP1 SWAP2 MSTORE PUSH1 0x60 SWAP1 RETURN JUMPDEST POP POP CALLVALUE PUSH2 0x25C JUMPI DUP2 PUSH1 0x3 NOT CALLDATASIZE ADD SLT PUSH2 0x25C JUMPI MLOAD PUSH32 0x0 PUSH1 0x1 PUSH1 0x1 PUSH1 0xA0 SHL SUB AND DUP2 MSTORE PUSH1 0x20 SWAP1 RETURN JUMPDEST POP POP CALLVALUE PUSH2 0x25C JUMPI DUP2 PUSH1 0x3 NOT CALLDATASIZE ADD SLT PUSH2 0x25C JUMPI PUSH1 0x20 SWAP1 PUSH1 0xFF PUSH1 0x2 SLOAD AND SWAP1 MLOAD SWAP1 ISZERO ISZERO DUP2 MSTORE RETURN JUMPDEST POP SWAP2 SWAP1 PUSH1 0x20 SWAP1 DUP2 PUSH1 0x3 NOT CALLDATASIZE ADD SLT PUSH2 0x1DA JUMPI PUSH2 0xA05 PUSH2 0x154E JUMP JUMPDEST PUSH2 0xA0D PUSH2 0x1530 JUMP JUMPDEST DUP4 SLOAD DUP1 ISZERO PUSH2 0xFD0 JUMPI CALLVALUE ISZERO PUSH2 0xF9A JUMPI PUSH2 0xA25 SWAP1 CALLVALUE PUSH2 0x1571 JUMP JUMPDEST SWAP2 PUSH2 0xA33 PUSH1 0x5 SLOAD DUP1 SWAP5 PUSH2 0x1510 JUMP JUMPDEST PUSH1 0x1E DUP2 MUL DUP2 DUP2 DIV PUSH1 0x1E EQ DUP3 ISZERO OR ISZERO PUSH2 0xF87 JUMPI SWAP1 PUSH2 0x2710 PUSH2 0xA54 SWAP3 DIV SWAP1 PUSH2 0x159A JUMP JUMPDEST SWAP3 DUP6 CALLDATALOAD DUP5 LT PUSH2 0xF77 JUMPI PUSH2 0xA77 SWAP1 PUSH2 0xA6D CALLVALUE PUSH1 0x3 SLOAD PUSH2 0x15A7 JUMP JUMPDEST PUSH1 0x3 SSTORE CALLVALUE SWAP1 PUSH2 0x15A7 JUMP JUMPDEST PUSH1 0x5 SSTORE PUSH8 0xFFFFFFFFFFFFFFFF SWAP5 DUP6 DUP5 AND PUSH1 0x7 SIGNEXTEND SWAP1 PUSH32 0x0 SWAP1 PUSH2 0xAFA PUSH1 0x1 DUP1 PUSH1 0xA0 SHL SUB DUP4 AND SWAP3 DUP7 MLOAD DUP6 DUP2 MSTORE DUP5 PUSH32 0xB7555D949A897ACB395F95E3F2DF8B700519404826BB13CD6526B756F6A1C907 DUP9 CALLER SWAP4 LOG3 DUP5 DUP8 MLOAD SWAP2 PUSH2 0xAF2 DUP4 PUSH2 0x1434 JUMP JUMPDEST DUP11 DUP4 MSTORE PUSH2 0x1804 JUMP JUMPDEST POP SWAP2 SWAP1 PUSH1 0x16 DUP2 SUB PUSH2 0xEE2 JUMPI POP DUP6 MLOAD SWAP9 CALLER DUP5 PUSH31 0x76F2144A259BC469A1890872EC3851EFDDBFEB0A9150FED87B7BA8650B1D0C DUP12 DUP1 LOG3 DUP6 DUP11 ADD SWAP1 PUSH4 0x248A35EF PUSH1 0xE1 SHL DUP3 MSTORE DUP10 PUSH1 0x24 SWAP12 CALLER DUP14 DUP3 ADD MSTORE DUP7 PUSH1 0x44 DUP3 ADD MSTORE PUSH1 0x44 DUP2 MSTORE PUSH1 0x80 DUP2 ADD DUP2 DUP2 LT DUP5 DUP3 GT OR PUSH2 0xED0 JUMPI SWAP1 DUP3 SWAP2 DUP12 MSTORE MLOAD PUSH2 0x167 SWAP5 DUP3 DUP7 GAS CALL DUP11 DUP13 PUSH2 0xB76 PUSH2 0x17B8 JUMP JUMPDEST SWAP3 ISZERO PUSH2 0xEC5 JUMPI POP POP DUP8 DUP2 DUP1 MLOAD DUP2 ADD SUB SLT PUSH2 0xEC1 JUMPI DUP11 SWAP3 SWAP2 PUSH2 0xB99 DUP10 DUP15 SWAP4 ADD PUSH2 0x17E8 JUMP JUMPDEST PUSH1 0x3 SIGNEXTEND PUSH1 0x16 DUP2 SUB PUSH2 0xDD2 JUMPI POP CALLER DUP8 PUSH32 0xFDDA3A3D0687144C9BD8EDBB3CC99DA0C2A20B000492B79076F963D71F3339C2 DUP7 DUP1 LOG3 JUMPDEST DUP10 MLOAD DUP9 DUP2 MSTORE CALLER SWAP1 DUP9 PUSH32 0xD9CD850143C0756B15B46EBDC8B4ED7701B66AAED30858EE17A225EB005CCA2E DUP13 ADDRESS SWAP4 LOG4 DUP10 MLOAD SWAP1 DUP8 DUP11 DUP4 ADD SWAP4 PUSH4 0xECA36917 PUSH1 0xE0 SHL DUP6 MSTORE DUP4 ADD MSTORE ADDRESS PUSH1 0x44 DUP4 ADD MSTORE CALLER PUSH1 0x64 DUP4 ADD MSTORE DUP9 PUSH1 0x84 DUP4 ADD MSTORE PUSH1 0x84 DUP3 MSTORE PUSH1 0xC0 DUP3 ADD SWAP1 DUP3 DUP3 LT SWAP1 DUP3 GT OR PUSH2 0xDC0 JUMPI DUP5 SWAP4 SWAP3 SWAP2 DUP5 SWAP2 DUP13 MSTORE MLOAD SWAP3 GAS CALL PUSH2 0xC48 PUSH2 0x17B8 JUMP JUMPDEST SWAP1 ISZERO PUSH2 0xDB8 JUMPI DUP6 DUP2 DUP1 MLOAD DUP2 ADD SUB SLT PUSH2 0xDB4 JUMPI DUP6 PUSH2 0xC65 SWAP2 ADD PUSH2 0x17E8 JUMP JUMPDEST PUSH1 0x3 SIGNEXTEND SWAP9 PUSH1 0x16 DUP11 SUB PUSH2 0xD29 JUMPI POP DUP7 SWAP8 SWAP9 POP PUSH2 0xCA2 PUSH32 0x64B83944E79C3CE8D4C297411DE637C3E102D064677AAC0C163976EBDCD6F50E SWAP8 DUP3 SLOAD PUSH2 0x15A7 JUMP JUMPDEST SWAP1 SSTORE DUP5 MLOAD PUSH1 0x7 DUP5 DUP2 SIGNEXTEND DUP3 MSTORE SWAP2 SWAP1 SWAP2 SIGNEXTEND PUSH1 0x20 DUP3 ADD MSTORE CALLER SWAP1 DUP3 SWAP1 PUSH32 0xAD91542866F4DA9EBED5A2B1713258F4BF970F84E7B2A0B8AAB2DE28D11FFFFD SWAP1 PUSH1 0x40 SWAP1 LOG3 DUP4 MLOAD SWAP2 DUP3 MSTORE PUSH32 0x67325B2F3DE1D8273FC1AEEAF3B161488FC28427430D9F6B341831DEDFC2D633 CALLER SWAP4 ADDRESS SWAP4 LOG4 MLOAD CALLVALUE DUP2 MSTORE PUSH1 0x20 DUP2 ADD SWAP3 SWAP1 SWAP3 MSTORE TIMESTAMP PUSH1 0x40 DUP4 ADD MSTORE CALLER SWAP2 DUP1 PUSH1 0x60 DUP2 ADD PUSH2 0x599 JUMP JUMPDEST SWAP1 PUSH1 0x19 PUSH1 0x64 SWAP3 DUP8 DUP10 DUP14 DUP10 DUP10 PUSH32 0xCC975F63304DFDAA80A8ECBFBFC654FD86EA8A7CDB68086A0D883F26AD08E4C1 DUP5 MLOAD DUP1 PUSH2 0xD78 CALLER SWAP7 ADDRESS SWAP7 DUP4 SWAP1 SWAP3 SWAP2 PUSH1 0x20 SWAP1 PUSH1 0x40 DUP4 ADD SWAP5 PUSH1 0x7 SIGNEXTEND DUP4 MSTORE PUSH1 0x3 SIGNEXTEND SWAP2 ADD MSTORE JUMP JUMPDEST SUB SWAP1 LOG4 MLOAD PUSH3 0x461BCD PUSH1 0xE5 SHL DUP2 MSTORE SWAP4 DUP5 ADD MSTORE DUP3 ADD MSTORE PUSH32 0x48545320746F6B656E207472616E73666572206661696C656400000000000000 PUSH1 0x44 DUP3 ADD MSTORE REVERT JUMPDEST DUP9 DUP1 REVERT JUMPDEST POP PUSH1 0x15 PUSH2 0xC65 JUMP JUMPDEST PUSH4 0x4E487B71 PUSH1 0xE0 SHL DUP6 MSTORE PUSH1 0x41 DUP7 MSTORE DUP14 DUP6 REVERT JUMPDEST SWAP3 SWAP4 POP SWAP2 SWAP1 POP PUSH1 0xC2 DUP2 SUB PUSH2 0xE36 JUMPI POP SWAP1 DUP11 DUP11 SWAP3 DUP10 MLOAD DUP10 DUP2 MSTORE PUSH1 0x12 DUP11 DUP3 ADD MSTORE PUSH18 0x105B1C9958591E48185CDCDBD8DA585D1959 PUSH1 0x72 SHL DUP12 DUP3 ADD MSTORE DUP8 PUSH32 0x393657BCA6819244B5099FC39434A68F9839DBDA30AAAF13DC6BAB90313D9B2D PUSH1 0x60 CALLER SWAP4 LOG3 PUSH2 0xBCC JUMP JUMPDEST DUP4 PUSH1 0x18 DUP14 DUP11 DUP13 DUP12 DUP12 PUSH32 0x3F5E21A75677E84382C9F010B9F5780B534BB2A966C378FA090D12BA52CAA08 PUSH2 0xE85 PUSH1 0x64 SWAP10 DUP6 MLOAD SWAP2 DUP3 SWAP2 CALLER SWAP7 DUP4 SWAP1 SWAP3 SWAP2 PUSH1 0x20 SWAP1 PUSH1 0x40 DUP4 ADD SWAP5 PUSH1 0x7 SIGNEXTEND DUP4 MSTORE PUSH1 0x3 SIGNEXTEND SWAP2 ADD MSTORE JUMP JUMPDEST SUB SWAP1 LOG3 MLOAD PUSH3 0x461BCD PUSH1 0xE5 SHL DUP2 MSTORE SWAP4 DUP5 ADD MSTORE DUP3 ADD MSTORE PUSH32 0x546F6B656E206173736F63696174696F6E206661696C65640000000000000000 PUSH1 0x44 DUP3 ADD MSTORE REVERT JUMPDEST DUP11 DUP1 REVERT JUMPDEST SWAP2 POP SWAP3 SWAP2 PUSH1 0x15 PUSH2 0xB99 JUMP JUMPDEST PUSH4 0x4E487B71 PUSH1 0xE0 SHL DUP4 MSTORE PUSH1 0x41 DUP7 MSTORE DUP14 DUP4 REVERT JUMPDEST DUP7 MLOAD PUSH1 0x7 DUP7 SWAP1 SIGNEXTEND DUP2 MSTORE PUSH1 0x3 SWAP2 SWAP1 SWAP2 SIGNEXTEND PUSH1 0x20 DUP3 ADD MSTORE PUSH2 0xF73 SWAP2 SWAP1 DUP8 SWAP1 CALLER SWAP1 DUP7 SWAP1 PUSH32 0x3F5E21A75677E84382C9F010B9F5780B534BB2A966C378FA090D12BA52CAA08 SWAP1 DUP1 PUSH1 0x40 DUP2 ADD JUMPDEST SUB SWAP1 LOG3 MLOAD SWAP2 DUP3 SWAP2 PUSH3 0x461BCD PUSH1 0xE5 SHL DUP4 MSTORE DUP3 ADD PUSH1 0x60 SWAP1 PUSH1 0x20 DUP2 MSTORE PUSH1 0x18 PUSH1 0x20 DUP3 ADD MSTORE PUSH32 0x48545320746F6B656E206D696E74696E67206661696C65640000000000000000 PUSH1 0x40 DUP3 ADD MSTORE ADD SWAP1 JUMP JUMPDEST SUB SWAP1 REVERT JUMPDEST DUP3 MLOAD PUSH4 0x8199F5F3 PUSH1 0xE0 SHL DUP2 MSTORE DUP7 SWAP1 REVERT JUMPDEST PUSH4 0x4E487B71 PUSH1 0xE0 SHL DUP7 MSTORE PUSH1 0x11 DUP8 MSTORE PUSH1 0x24 DUP7 REVERT JUMPDEST DUP2 MLOAD PUSH3 0x461BCD PUSH1 0xE5 SHL DUP2 MSTORE DUP1 DUP7 ADD DUP5 SWAP1 MSTORE PUSH1 0x10 PUSH1 0x24 DUP3 ADD MSTORE PUSH16 0x139BC812109054881C1C9BDD9A591959 PUSH1 0x82 SHL PUSH1 0x44 DUP3 ADD MSTORE PUSH1 0x64 SWAP1 REVERT JUMPDEST DUP2 MLOAD PUSH3 0x461BCD PUSH1 0xE5 SHL DUP2 MSTORE DUP1 DUP7 ADD DUP5 SWAP1 MSTORE PUSH1 0x14 PUSH1 0x24 DUP3 ADD MSTORE PUSH20 0x141BDBDB081B9BDD081A5B9A5D1A585B1A5E9959 PUSH1 0x62 SHL PUSH1 0x44 DUP3 ADD MSTORE PUSH1 0x64 SWAP1 REVERT JUMPDEST POP SWAP2 CALLVALUE PUSH2 0x3AA JUMPI PUSH1 0x20 CALLDATASIZE PUSH1 0x3 NOT ADD SLT PUSH2 0x3AA JUMPI POP PUSH2 0x3D3 PUSH1 0x20 SWAP3 CALLDATALOAD PUSH2 0x15B4 JUMP JUMPDEST POP CALLVALUE PUSH2 0x1DA JUMPI DUP3 PUSH1 0x3 NOT CALLDATASIZE ADD SLT PUSH2 0x1DA JUMPI PUSH2 0x1043 PUSH2 0x14E4 JUMP JUMPDEST PUSH1 0x2 SLOAD SWAP1 PUSH1 0xFF DUP3 AND ISZERO PUSH2 0x10AE JUMPI POP PUSH1 0xFF NOT AND PUSH1 0x2 SSTORE PUSH32 0x5DB9EE0A495BF2E6FF9C91A7834C1BA4FDD244A5E8AA4E537BD38AEAE4B073AA PUSH1 0x20 DUP3 MLOAD CALLER DUP2 MSTORE LOG1 MLOAD TIMESTAMP DUP2 MSTORE PUSH32 0x7218B4A8A456456C2CF5DBCD9202A02880A891C6F9DFAFD90E7BE5531523A031 PUSH1 0x20 CALLER SWAP3 LOG2 DUP1 RETURN JUMPDEST DUP3 MLOAD PUSH4 0x8DFC202B PUSH1 0xE0 SHL DUP2 MSTORE REVERT JUMPDEST POP CALLVALUE PUSH2 0x1DA JUMPI DUP3 PUSH1 0x3 NOT CALLDATASIZE ADD SLT PUSH2 0x1DA JUMPI PUSH1 0x20 SWAP3 POP SLOAD ISZERO ISZERO SWAP1 MLOAD SWAP1 DUP2 MSTORE RETURN JUMPDEST POP POP CALLVALUE PUSH2 0x25C JUMPI DUP2 PUSH1 0x3 NOT CALLDATASIZE ADD SLT PUSH2 0x25C JUMPI PUSH1 0x20 SWAP1 PUSH2 0x3D3 PUSH2 0x15FF JUMP JUMPDEST POP POP CALLVALUE PUSH2 0x25C JUMPI DUP2 PUSH1 0x3 NOT CALLDATASIZE ADD SLT PUSH2 0x25C JUMPI PUSH1 0x20 SWAP1 PUSH1 0x3 SLOAD SWAP1 MLOAD SWAP1 DUP2 MSTORE RETURN JUMPDEST POP SWAP1 DUP3 PUSH1 0x3 NOT CALLDATASIZE ADD SLT PUSH2 0x1DA JUMPI PUSH2 0x112C PUSH2 0x14E4 JUMP JUMPDEST PUSH2 0x1134 PUSH2 0x154E JUMP JUMPDEST PUSH2 0x113C PUSH2 0x1530 JUMP JUMPDEST DUP2 SLOAD PUSH2 0x131F JUMPI PUSH3 0x186A0 CALLVALUE LT PUSH2 0x12DC JUMPI CALLVALUE PUSH1 0x3 SSTORE CALLVALUE PUSH1 0x5 SSTORE PUSH1 0x64 CALLVALUE DIV SWAP2 PUSH8 0xFFFFFFFFFFFFFFFF DUP4 AND PUSH1 0x7 SIGNEXTEND SWAP1 PUSH32 0x0 SWAP1 PUSH2 0x11D8 PUSH1 0x1 DUP1 PUSH1 0xA0 SHL SUB DUP4 AND SWAP3 DUP6 MLOAD DUP6 DUP2 MSTORE DUP5 PUSH32 0xB7555D949A897ACB395F95E3F2DF8B700519404826BB13CD6526B756F6A1C907 PUSH1 0x20 CALLER SWAP4 LOG3 DUP5 DUP7 MLOAD SWAP2 PUSH2 0x11D0 DUP4 PUSH2 0x1434 JUMP JUMPDEST DUP10 DUP4 MSTORE PUSH2 0x1804 JUMP JUMPDEST POP SWAP2 SWAP1 PUSH1 0x16 DUP2 SUB PUSH2 0x1291 JUMPI POP DUP6 SWAP1 SSTORE DUP4 MLOAD PUSH1 0x7 SWAP4 DUP5 SIGNEXTEND DUP2 MSTORE SWAP3 SIGNEXTEND PUSH1 0x20 DUP4 ADD MSTORE PUSH32 0x64B83944E79C3CE8D4C297411DE637C3E102D064677AAC0C163976EBDCD6F50E SWAP3 SWAP2 CALLER SWAP2 SWAP1 PUSH32 0xAD91542866F4DA9EBED5A2B1713258F4BF970F84E7B2A0B8AAB2DE28D11FFFFD SWAP1 PUSH1 0x40 SWAP1 LOG3 DUP1 MLOAD CALLVALUE DUP2 MSTORE TIMESTAMP PUSH1 0x20 DUP3 ADD MSTORE PUSH32 0x997F3E422A7446CCF056E7A989C8A281F20AF906A7AC6AD0E6F9FEA0EDD6055C DUP3 CALLER SWAP3 LOG2 MLOAD CALLVALUE DUP2 MSTORE PUSH1 0x20 DUP2 ADD SWAP3 SWAP1 SWAP3 MSTORE TIMESTAMP PUSH1 0x40 DUP4 ADD MSTORE CALLER SWAP2 DUP1 PUSH1 0x60 DUP2 ADD PUSH2 0x599 JUMP JUMPDEST DUP6 MLOAD PUSH1 0x7 DUP7 SWAP1 SIGNEXTEND DUP2 MSTORE PUSH1 0x3 SWAP2 SWAP1 SWAP2 SIGNEXTEND PUSH1 0x20 DUP3 ADD MSTORE PUSH2 0xF73 SWAP2 SWAP1 DUP7 SWAP1 CALLER SWAP1 DUP7 SWAP1 PUSH32 0x3F5E21A75677E84382C9F010B9F5780B534BB2A966C378FA090D12BA52CAA08 SWAP1 DUP1 PUSH1 0x40 DUP2 ADD PUSH2 0xF29 JUMP JUMPDEST SWAP1 PUSH1 0x20 PUSH1 0x64 SWAP3 MLOAD SWAP2 PUSH3 0x461BCD PUSH1 0xE5 SHL DUP4 MSTORE DUP3 ADD MSTORE PUSH1 0x1E PUSH1 0x24 DUP3 ADD MSTORE PUSH32 0x496E73756666696369656E7420696E697469616C206C69717569646974790000 PUSH1 0x44 DUP3 ADD MSTORE REVERT JUMPDEST SWAP1 PUSH1 0x20 PUSH1 0x64 SWAP3 MLOAD SWAP2 PUSH3 0x461BCD PUSH1 0xE5 SHL DUP4 MSTORE DUP3 ADD MSTORE PUSH1 0x18 PUSH1 0x24 DUP3 ADD MSTORE PUSH32 0x506F6F6C20616C726561647920696E697469616C697A65640000000000000000 PUSH1 0x44 DUP3 ADD MSTORE REVERT JUMPDEST POP POP CALLVALUE PUSH2 0x25C JUMPI DUP2 PUSH1 0x3 NOT CALLDATASIZE ADD SLT PUSH2 0x25C JUMPI PUSH1 0x20 SWAP1 MLOAD PUSH3 0x186A0 DUP2 MSTORE RETURN JUMPDEST DUP2 DUP6 SWAP2 CALLVALUE PUSH2 0x25C JUMPI PUSH2 0x6A5 DUP2 PUSH2 0x6B3 DUP5 SWAP4 PUSH2 0x139A CALLDATASIZE PUSH2 0x13F3 JUMP JUMPDEST PUSH4 0xAED65F5 PUSH1 0xE1 SHL PUSH1 0x20 DUP7 ADD SWAP1 DUP2 MSTORE PUSH1 0x1 PUSH1 0x1 PUSH1 0xA0 SHL SUB SWAP5 DUP6 AND PUSH1 0x24 DUP8 ADD MSTORE SWAP3 DUP5 AND PUSH1 0x44 DUP7 ADD MSTORE SWAP3 AND PUSH1 0x64 DUP5 ADD MSTORE PUSH1 0x84 DUP4 ADD SWAP2 SWAP1 SWAP2 MSTORE SWAP4 PUSH1 0xA4 DUP3 ADD SWAP1 JUMP JUMPDEST PUSH1 0x4 CALLDATALOAD SWAP1 PUSH1 0x1 PUSH1 0x1 PUSH1 0xA0 SHL SUB DUP3 AND DUP3 SUB PUSH2 0x13EE JUMPI JUMP JUMPDEST PUSH1 0x0 DUP1 REVERT JUMPDEST PUSH1 0x80 SWAP1 PUSH1 0x3 NOT ADD SLT PUSH2 0x13EE JUMPI PUSH1 0x1 PUSH1 0x1 PUSH1 0xA0 SHL SUB PUSH1 0x4 CALLDATALOAD DUP2 DUP2 AND DUP2 SUB PUSH2 0x13EE JUMPI SWAP2 PUSH1 0x24 CALLDATALOAD DUP3 DUP2 AND DUP2 SUB PUSH2 0x13EE JUMPI SWAP2 PUSH1 0x44 CALLDATALOAD SWAP1 DUP2 AND DUP2 SUB PUSH2 0x13EE JUMPI SWAP1 PUSH1 0x64 CALLDATALOAD SWAP1 JUMP JUMPDEST PUSH1 0x20 DUP2 ADD SWAP1 DUP2 LT PUSH8 0xFFFFFFFFFFFFFFFF DUP3 GT OR PUSH2 0x1450 JUMPI PUSH1 0x40 MSTORE JUMP JUMPDEST PUSH4 0x4E487B71 PUSH1 0xE0 SHL PUSH1 0x0 MSTORE PUSH1 0x41 PUSH1 0x4 MSTORE PUSH1 0x24 PUSH1 0x0 REVERT JUMPDEST SWAP1 PUSH1 0x1F DUP1 NOT SWAP2 ADD AND DUP2 ADD SWAP1 DUP2 LT PUSH8 0xFFFFFFFFFFFFFFFF DUP3 GT OR PUSH2 0x1450 JUMPI PUSH1 0x40 MSTORE JUMP JUMPDEST PUSH8 0xFFFFFFFFFFFFFFFF DUP2 GT PUSH2 0x1450 JUMPI PUSH1 0x1F ADD PUSH1 0x1F NOT AND PUSH1 0x20 ADD SWAP1 JUMP JUMPDEST SWAP2 SWAP1 DUP3 MLOAD SWAP3 DUP4 DUP3 MSTORE PUSH1 0x0 JUMPDEST DUP5 DUP2 LT PUSH2 0x14D0 JUMPI POP POP DUP3 PUSH1 0x0 PUSH1 0x20 DUP1 SWAP5 SWAP6 DUP5 ADD ADD MSTORE PUSH1 0x1F DUP1 NOT SWAP2 ADD AND ADD ADD SWAP1 JUMP JUMPDEST PUSH1 0x20 DUP2 DUP4 ADD DUP2 ADD MLOAD DUP5 DUP4 ADD DUP3 ADD MSTORE ADD PUSH2 0x14AF JUMP JUMPDEST PUSH1 0x0 SLOAD PUSH1 0x1 PUSH1 0x1 PUSH1 0xA0 SHL SUB AND CALLER SUB PUSH2 0x14F8 JUMPI JUMP JUMPDEST PUSH1 0x40 MLOAD PUSH4 0x118CDAA7 PUSH1 0xE0 SHL DUP2 MSTORE CALLER PUSH1 0x4 DUP3 ADD MSTORE PUSH1 0x24 SWAP1 REVERT JUMPDEST DUP2 ISZERO PUSH2 0x151A JUMPI DIV SWAP1 JUMP JUMPDEST PUSH4 0x4E487B71 PUSH1 0xE0 SHL PUSH1 0x0 MSTORE PUSH1 0x12 PUSH1 0x4 MSTORE PUSH1 0x24 PUSH1 0x0 REVERT JUMPDEST PUSH1 0xFF PUSH1 0x2 SLOAD AND PUSH2 0x153C JUMPI JUMP JUMPDEST PUSH1 0x40 MLOAD PUSH4 0xD93C0665 PUSH1 0xE0 SHL DUP2 MSTORE PUSH1 0x4 SWAP1 REVERT JUMPDEST PUSH1 0x2 PUSH1 0x1 SLOAD EQ PUSH2 0x155F JUMPI PUSH1 0x2 PUSH1 0x1 SSTORE JUMP JUMPDEST PUSH1 0x40 MLOAD PUSH4 0x3EE5AEB5 PUSH1 0xE0 SHL DUP2 MSTORE PUSH1 0x4 SWAP1 REVERT JUMPDEST DUP2 DUP2 MUL SWAP3 SWAP2 DUP2 ISZERO SWAP2 DUP5 DIV EQ OR ISZERO PUSH2 0x1584 JUMPI JUMP JUMPDEST PUSH4 0x4E487B71 PUSH1 0xE0 SHL PUSH1 0x0 MSTORE PUSH1 0x11 PUSH1 0x4 MSTORE PUSH1 0x24 PUSH1 0x0 REVERT JUMPDEST SWAP2 SWAP1 DUP3 SUB SWAP2 DUP3 GT PUSH2 0x1584 JUMPI JUMP JUMPDEST SWAP2 SWAP1 DUP3 ADD DUP1 SWAP3 GT PUSH2 0x1584 JUMPI JUMP JUMPDEST PUSH1 0x4 SLOAD SWAP1 DUP2 ISZERO PUSH2 0x15F8 JUMPI PUSH2 0x15D4 SWAP2 PUSH2 0x15CB SWAP2 PUSH2 0x1571 JUMP JUMPDEST PUSH1 0x5 SLOAD SWAP1 PUSH2 0x1510 JUMP JUMPDEST PUSH1 0x1E DUP2 MUL SWAP1 DUP1 DUP3 DIV PUSH1 0x1E EQ DUP2 ISZERO OR ISZERO PUSH2 0x1584 JUMPI PUSH2 0x2710 PUSH2 0x15F5 SWAP3 DIV SWAP1 PUSH2 0x159A JUMP JUMPDEST SWAP1 JUMP JUMPDEST POP POP PUSH1 0x0 SWAP1 JUMP JUMPDEST PUSH1 0x4 SLOAD DUP1 ISZERO PUSH2 0x162A JUMPI PUSH1 0x5 SLOAD SWAP1 PUSH3 0xF4240 SWAP2 DUP3 DUP2 MUL SWAP3 DUP2 DUP5 DIV EQ SWAP1 ISZERO OR ISZERO PUSH2 0x1584 JUMPI PUSH2 0x15F5 SWAP2 PUSH2 0x1510 JUMP JUMPDEST POP PUSH1 0x0 SWAP1 JUMP JUMPDEST PUSH1 0x40 MLOAD PUSH4 0x70A08231 PUSH1 0xE0 SHL DUP2 MSTORE PUSH1 0x1 PUSH1 0x1 PUSH1 0xA0 SHL SUB SWAP2 DUP3 AND PUSH1 0x4 DUP3 ADD MSTORE SWAP1 PUSH1 0x20 SWAP1 DUP3 SWAP1 PUSH1 0x24 SWAP1 DUP3 SWAP1 PUSH32 0x0 AND GAS STATICCALL SWAP1 DUP2 ISZERO PUSH2 0x16ED JUMPI PUSH1 0x0 SWAP2 PUSH2 0x16BC JUMPI JUMPDEST POP DUP1 ISZERO DUP1 ISZERO PUSH2 0x16B2 JUMPI JUMPDEST PUSH2 0x162A JUMPI PUSH2 0x16A9 PUSH2 0x15F5 SWAP2 PUSH1 0x5 SLOAD SWAP1 PUSH2 0x1571 JUMP JUMPDEST PUSH1 0x4 SLOAD SWAP1 PUSH2 0x1510 JUMP JUMPDEST POP PUSH1 0x4 SLOAD ISZERO PUSH2 0x1695 JUMP JUMPDEST SWAP1 PUSH1 0x20 DUP3 RETURNDATASIZE DUP3 GT PUSH2 0x16E5 JUMPI JUMPDEST DUP2 PUSH2 0x16D5 PUSH1 0x20 SWAP4 DUP4 PUSH2 0x1466 JUMP JUMPDEST DUP2 ADD SUB SLT PUSH2 0x3AA JUMPI POP MLOAD CODESIZE PUSH2 0x168B JUMP JUMPDEST RETURNDATASIZE SWAP2 POP PUSH2 0x16C8 JUMP JUMPDEST PUSH1 0x40 MLOAD RETURNDATASIZE PUSH1 0x0 DUP3 RETURNDATACOPY RETURNDATASIZE SWAP1 REVERT JUMPDEST PUSH1 0x40 MLOAD PUSH4 0x70A08231 PUSH1 0xE0 SHL DUP2 MSTORE PUSH1 0x1 PUSH1 0x1 PUSH1 0xA0 SHL SUB SWAP2 DUP3 AND PUSH1 0x4 DUP3 ADD MSTORE SWAP1 PUSH1 0x20 SWAP1 DUP3 SWAP1 PUSH1 0x24 SWAP1 DUP3 SWAP1 PUSH32 0x0 AND GAS STATICCALL SWAP1 DUP2 ISZERO PUSH2 0x16ED JUMPI PUSH1 0x0 SWAP2 PUSH2 0x1787 JUMPI JUMPDEST POP DUP1 ISZERO DUP1 ISZERO PUSH2 0x177D JUMPI JUMPDEST PUSH2 0x1774 JUMPI PUSH2 0x1771 PUSH2 0x16A9 PUSH1 0x5 SLOAD DUP4 PUSH2 0x1571 JUMP JUMPDEST SWAP2 JUMP JUMPDEST POP PUSH1 0x0 SWAP1 PUSH1 0x0 SWAP1 JUMP JUMPDEST POP PUSH1 0x4 SLOAD ISZERO PUSH2 0x175E JUMP JUMPDEST SWAP1 PUSH1 0x20 DUP3 RETURNDATASIZE DUP3 GT PUSH2 0x17B0 JUMPI JUMPDEST DUP2 PUSH2 0x17A0 PUSH1 0x20 SWAP4 DUP4 PUSH2 0x1466 JUMP JUMPDEST DUP2 ADD SUB SLT PUSH2 0x3AA JUMPI POP MLOAD CODESIZE PUSH2 0x1754 JUMP JUMPDEST RETURNDATASIZE SWAP2 POP PUSH2 0x1793 JUMP JUMPDEST RETURNDATASIZE ISZERO PUSH2 0x17E3 JUMPI RETURNDATASIZE SWAP1 PUSH2 0x17C9 DUP3 PUSH2 0x1488 JUMP JUMPDEST SWAP2 PUSH2 0x17D7 PUSH1 0x40 MLOAD SWAP4 DUP5 PUSH2 0x1466 JUMP JUMPDEST DUP3 MSTORE RETURNDATASIZE PUSH1 0x0 PUSH1 0x20 DUP5 ADD RETURNDATACOPY JUMP JUMPDEST PUSH1 0x60 SWAP1 JUMP JUMPDEST MLOAD SWAP1 DUP2 PUSH1 0x3 SIGNEXTEND DUP3 SUB PUSH2 0x13EE JUMPI JUMP JUMPDEST MLOAD SWAP1 DUP2 PUSH1 0x7 SIGNEXTEND DUP3 SUB PUSH2 0x13EE JUMPI JUMP JUMPDEST SWAP1 PUSH1 0x40 SWAP3 DUP4 MLOAD SWAP1 PUSH1 0x20 SWAP4 DUP5 DUP4 ADD SWAP4 PUSH4 0x707A02CD PUSH1 0xE1 SHL DUP6 MSTORE PUSH1 0x84 DUP5 ADD SWAP2 PUSH1 0x1 DUP1 PUSH1 0xA0 SHL SUB AND PUSH1 0x24 DUP6 ADD MSTORE PUSH1 0x7 SIGNEXTEND PUSH1 0x44 DUP5 ADD MSTORE PUSH1 0x60 PUSH1 0x64 DUP5 ADD MSTORE DUP2 MLOAD DUP1 SWAP2 MSTORE PUSH1 0xA4 DUP4 ADD SWAP1 DUP6 PUSH1 0xA4 DUP3 PUSH1 0x5 SHL DUP7 ADD ADD SWAP4 ADD SWAP2 PUSH1 0x0 SWAP1 JUMPDEST DUP8 DUP4 DUP4 LT PUSH2 0x1966 JUMPI POP POP POP POP POP SWAP2 DUP2 PUSH2 0x187E PUSH1 0x0 SWAP5 SWAP4 DUP6 SWAP5 SUB PUSH1 0x1F NOT DUP2 ADD DUP4 MSTORE DUP3 PUSH2 0x1466 JUMP JUMPDEST MLOAD SWAP1 DUP3 PUSH2 0x167 GAS CALL SWAP1 PUSH2 0x188F PUSH2 0x17B8 JUMP JUMPDEST SWAP2 PUSH1 0x0 SWAP1 ISZERO PUSH2 0x1946 JUMPI POP DUP2 MLOAD DUP3 ADD SWAP1 PUSH1 0x60 DUP4 DUP3 DUP5 ADD SWAP4 SUB SLT PUSH2 0x13EE JUMPI PUSH2 0x18B6 DUP2 DUP5 ADD PUSH2 0x17E8 JUMP JUMPDEST SWAP2 PUSH2 0x18C2 DUP6 DUP6 ADD PUSH2 0x17F6 JUMP JUMPDEST SWAP5 PUSH1 0x60 DUP6 ADD MLOAD PUSH8 0xFFFFFFFFFFFFFFFF SWAP6 DUP7 DUP3 GT PUSH2 0x13EE JUMPI ADD SWAP1 DUP3 PUSH1 0x3F DUP4 ADD SLT ISZERO PUSH2 0x13EE JUMPI DUP4 DUP3 ADD MLOAD SWAP6 DUP7 GT PUSH2 0x1450 JUMPI DUP6 PUSH1 0x5 SHL SWAP2 DUP2 MLOAD SWAP7 PUSH2 0x1905 DUP7 DUP6 ADD DUP10 PUSH2 0x1466 JUMP JUMPDEST DUP8 MSTORE DUP2 DUP6 DUP9 ADD SWAP4 DUP3 ADD ADD SWAP4 DUP5 GT PUSH2 0x13EE JUMPI ADD SWAP1 JUMPDEST DUP3 DUP3 LT PUSH2 0x192F JUMPI POP POP POP POP SWAP2 SWAP1 JUMPDEST SWAP1 SWAP2 PUSH1 0x3 SIGNEXTEND SWAP3 JUMP JUMPDEST DUP4 DUP1 SWAP2 PUSH2 0x193B DUP5 PUSH2 0x17F6 JUMP JUMPDEST DUP2 MSTORE ADD SWAP2 ADD SWAP1 PUSH2 0x1919 JUMP JUMPDEST SWAP3 SWAP2 POP POP MLOAD SWAP1 PUSH2 0x1955 DUP3 PUSH2 0x1434 JUMP JUMPDEST DUP1 DUP3 MSTORE CALLDATASIZE DUP2 CALLDATACOPY PUSH1 0x15 SWAP1 PUSH1 0x0 SWAP1 PUSH2 0x1927 JUMP JUMPDEST DUP1 PUSH2 0x1981 PUSH1 0x1 SWAP4 SWAP5 SWAP6 SWAP7 SWAP8 PUSH1 0xA3 NOT DUP11 DUP3 SUB ADD DUP7 MSTORE DUP9 MLOAD PUSH2 0x14A4 JUMP JUMPDEST SWAP7 ADD SWAP3 ADD SWAP3 ADD SWAP1 SWAP3 SWAP2 PUSH2 0x1858 JUMP INVALID LOG2 PUSH5 0x6970667358 0x22 SLT KECCAK256 PUSH4 0xEFFE9B1D 0xAD PUSH27 0xB5AD0A464D7E8505FCFE5453831FEFBEAEBE3AD365E2803B216473 PUSH16 0x6C634300081400330000000000000000 "},"methodIdentifiers":{"FEE_BPS()":"bf333f2c","FEE_DENOMINATOR()":"d73792a9","MIN_LIQUIDITY()":"21b77d63","addLiquidity(uint256)":"51c6590a","calculateLPTokens(uint256)":"42c649de","collectFees()":"c8796572","emergencyWithdraw()":"db2e21bc","getPoolInfo()":"60246c88","getUserShare(address)":"bbbaee4c","getUserValue(address)":"a78c849b","getValuePerLPToken()":"2fb9125d","initializePool()":"250e6de0","isInitialized()":"392e53cd","lpToken()":"5fcbd285","owner()":"8da5cb5b","pause()":"8456cb59","paused()":"5c975abb","redirectForToken(address,bytes)":"618dc65e","removeLiquidity(uint256,uint256)":"9d7de6b3","renounceOwnership()":"715018a6","totalHBAR()":"28999437","totalLPTokens()":"ef6283d9","totalValue()":"d4c3eea0","transferFrom(address,address,address,uint256)":"15dacbea","transferFromNFT(address,address,address,uint256)":"9b23d3d9","transferOwnership(address)":"f2fde38b","unpause()":"3f4ba83a"}}}}}