{
  "_format": "hh-sol-artifact-1",
  "contractName": "ClearSkyLiquidityPoolV3",
  "sourceName": "contracts/ClearSkyLiquidityPoolV3.sol",
  "abi": [
    {
      "inputs": [
        {
          "internalType": "address",
          "name": "_owner",
          "type": "address"
        }
      ],
      "stateMutability": "nonpayable",
      "type": "constructor"
    },
    {
      "inputs": [],
      "name": "EnforcedPause",
      "type": "error"
    },
    {
      "inputs": [],
      "name": "ExpectedPause",
      "type": "error"
    },
    {
      "inputs": [],
      "name": "InsufficientHBAR",
      "type": "error"
    },
    {
      "inputs": [],
      "name": "InsufficientInitialLiquidity",
      "type": "error"
    },
    {
      "inputs": [],
      "name": "InsufficientLPBalance",
      "type": "error"
    },
    {
      "inputs": [],
      "name": "InvalidAmounts",
      "type": "error"
    },
    {
      "inputs": [],
      "name": "NoLiquidityProvided",
      "type": "error"
    },
    {
      "inputs": [
        {
          "internalType": "address",
          "name": "owner",
          "type": "address"
        }
      ],
      "name": "OwnableInvalidOwner",
      "type": "error"
    },
    {
      "inputs": [
        {
          "internalType": "address",
          "name": "account",
          "type": "address"
        }
      ],
      "name": "OwnableUnauthorizedAccount",
      "type": "error"
    },
    {
      "inputs": [],
      "name": "PoolAlreadyInitialized",
      "type": "error"
    },
    {
      "inputs": [],
      "name": "PoolNotActive",
      "type": "error"
    },
    {
      "inputs": [],
      "name": "ReentrancyGuardReentrantCall",
      "type": "error"
    },
    {
      "inputs": [],
      "name": "SlippageExceeded",
      "type": "error"
    },
    {
      "inputs": [],
      "name": "TokenAlreadyCreated",
      "type": "error"
    },
    {
      "inputs": [
        {
          "internalType": "int32",
          "name": "responseCode",
          "type": "int32"
        }
      ],
      "name": "TokenCreationFailed",
      "type": "error"
    },
    {
      "inputs": [],
      "name": "TokenNotCreated",
      "type": "error"
    },
    {
      "anonymous": false,
      "inputs": [
        {
          "indexed": false,
          "internalType": "bool",
          "name": "",
          "type": "bool"
        },
        {
          "indexed": false,
          "internalType": "bytes",
          "name": "",
          "type": "bytes"
        }
      ],
      "name": "CallResponseEvent",
      "type": "event"
    },
    {
      "anonymous": false,
      "inputs": [
        {
          "indexed": true,
          "internalType": "address",
          "name": "owner",
          "type": "address"
        },
        {
          "indexed": false,
          "internalType": "uint256",
          "name": "fcdrId",
          "type": "uint256"
        },
        {
          "indexed": false,
          "internalType": "uint256",
          "name": "hbarAmount",
          "type": "uint256"
        },
        {
          "indexed": false,
          "internalType": "uint256",
          "name": "timestamp",
          "type": "uint256"
        }
      ],
      "name": "FCDRMinted",
      "type": "event"
    },
    {
      "anonymous": false,
      "inputs": [
        {
          "indexed": true,
          "internalType": "address",
          "name": "tokenAddress",
          "type": "address"
        },
        {
          "indexed": false,
          "internalType": "string",
          "name": "name",
          "type": "string"
        },
        {
          "indexed": false,
          "internalType": "string",
          "name": "symbol",
          "type": "string"
        },
        {
          "indexed": false,
          "internalType": "uint8",
          "name": "decimals",
          "type": "uint8"
        },
        {
          "indexed": false,
          "internalType": "address",
          "name": "treasury",
          "type": "address"
        }
      ],
      "name": "FCDRTokenCreated",
      "type": "event"
    },
    {
      "anonymous": false,
      "inputs": [
        {
          "indexed": true,
          "internalType": "address",
          "name": "collector",
          "type": "address"
        },
        {
          "indexed": false,
          "internalType": "uint256",
          "name": "hbarAmount",
          "type": "uint256"
        },
        {
          "indexed": false,
          "internalType": "uint256",
          "name": "timestamp",
          "type": "uint256"
        }
      ],
      "name": "FeesCollected",
      "type": "event"
    },
    {
      "anonymous": false,
      "inputs": [
        {
          "indexed": true,
          "internalType": "address",
          "name": "token",
          "type": "address"
        },
        {
          "indexed": true,
          "internalType": "address",
          "name": "account",
          "type": "address"
        }
      ],
      "name": "HTSAssociateAttempt",
      "type": "event"
    },
    {
      "anonymous": false,
      "inputs": [
        {
          "indexed": true,
          "internalType": "address",
          "name": "token",
          "type": "address"
        },
        {
          "indexed": true,
          "internalType": "address",
          "name": "account",
          "type": "address"
        },
        {
          "indexed": false,
          "internalType": "string",
          "name": "reason",
          "type": "string"
        }
      ],
      "name": "HTSAssociateSkipped",
      "type": "event"
    },
    {
      "anonymous": false,
      "inputs": [
        {
          "indexed": true,
          "internalType": "address",
          "name": "token",
          "type": "address"
        },
        {
          "indexed": true,
          "internalType": "address",
          "name": "account",
          "type": "address"
        }
      ],
      "name": "HTSAssociateSuccess",
      "type": "event"
    },
    {
      "anonymous": false,
      "inputs": [
        {
          "indexed": true,
          "internalType": "address",
          "name": "token",
          "type": "address"
        },
        {
          "indexed": false,
          "internalType": "int64",
          "name": "amount",
          "type": "int64"
        },
        {
          "indexed": false,
          "internalType": "int64[]",
          "name": "serialNumbers",
          "type": "int64[]"
        }
      ],
      "name": "HTSBurnAttempt",
      "type": "event"
    },
    {
      "anonymous": false,
      "inputs": [
        {
          "indexed": true,
          "internalType": "address",
          "name": "token",
          "type": "address"
        },
        {
          "indexed": false,
          "internalType": "int64",
          "name": "amount",
          "type": "int64"
        },
        {
          "indexed": false,
          "internalType": "int32",
          "name": "responseCode",
          "type": "int32"
        }
      ],
      "name": "HTSBurnFailed",
      "type": "event"
    },
    {
      "anonymous": false,
      "inputs": [
        {
          "indexed": true,
          "internalType": "address",
          "name": "token",
          "type": "address"
        },
        {
          "indexed": false,
          "internalType": "int64",
          "name": "amount",
          "type": "int64"
        },
        {
          "indexed": false,
          "internalType": "int64",
          "name": "newTotalSupply",
          "type": "int64"
        }
      ],
      "name": "HTSBurnSuccess",
      "type": "event"
    },
    {
      "anonymous": false,
      "inputs": [
        {
          "indexed": true,
          "internalType": "address",
          "name": "token",
          "type": "address"
        },
        {
          "indexed": true,
          "internalType": "address",
          "name": "to",
          "type": "address"
        },
        {
          "indexed": false,
          "internalType": "int64",
          "name": "amount",
          "type": "int64"
        }
      ],
      "name": "HTSMintAttempt",
      "type": "event"
    },
    {
      "anonymous": false,
      "inputs": [
        {
          "indexed": true,
          "internalType": "address",
          "name": "token",
          "type": "address"
        },
        {
          "indexed": true,
          "internalType": "address",
          "name": "to",
          "type": "address"
        },
        {
          "indexed": false,
          "internalType": "int64",
          "name": "amount",
          "type": "int64"
        },
        {
          "indexed": false,
          "internalType": "int32",
          "name": "responseCode",
          "type": "int32"
        }
      ],
      "name": "HTSMintFailed",
      "type": "event"
    },
    {
      "anonymous": false,
      "inputs": [
        {
          "indexed": true,
          "internalType": "address",
          "name": "token",
          "type": "address"
        },
        {
          "indexed": true,
          "internalType": "address",
          "name": "to",
          "type": "address"
        },
        {
          "indexed": false,
          "internalType": "int64",
          "name": "amount",
          "type": "int64"
        },
        {
          "indexed": false,
          "internalType": "int64",
          "name": "newTotalSupply",
          "type": "int64"
        }
      ],
      "name": "HTSMintSuccess",
      "type": "event"
    },
    {
      "anonymous": false,
      "inputs": [
        {
          "indexed": true,
          "internalType": "address",
          "name": "token",
          "type": "address"
        },
        {
          "indexed": true,
          "internalType": "address",
          "name": "from",
          "type": "address"
        },
        {
          "indexed": true,
          "internalType": "address",
          "name": "to",
          "type": "address"
        },
        {
          "indexed": false,
          "internalType": "int64",
          "name": "amount",
          "type": "int64"
        }
      ],
      "name": "HTSTransferAttempt",
      "type": "event"
    },
    {
      "anonymous": false,
      "inputs": [
        {
          "indexed": true,
          "internalType": "address",
          "name": "token",
          "type": "address"
        },
        {
          "indexed": true,
          "internalType": "address",
          "name": "from",
          "type": "address"
        },
        {
          "indexed": true,
          "internalType": "address",
          "name": "to",
          "type": "address"
        },
        {
          "indexed": false,
          "internalType": "int64",
          "name": "amount",
          "type": "int64"
        },
        {
          "indexed": false,
          "internalType": "int32",
          "name": "responseCode",
          "type": "int32"
        }
      ],
      "name": "HTSTransferFailed",
      "type": "event"
    },
    {
      "anonymous": false,
      "inputs": [
        {
          "indexed": true,
          "internalType": "address",
          "name": "token",
          "type": "address"
        },
        {
          "indexed": true,
          "internalType": "address",
          "name": "from",
          "type": "address"
        },
        {
          "indexed": true,
          "internalType": "address",
          "name": "to",
          "type": "address"
        },
        {
          "indexed": false,
          "internalType": "int64",
          "name": "amount",
          "type": "int64"
        }
      ],
      "name": "HTSTransferSuccess",
      "type": "event"
    },
    {
      "anonymous": false,
      "inputs": [
        {
          "indexed": true,
          "internalType": "address",
          "name": "user",
          "type": "address"
        },
        {
          "indexed": false,
          "internalType": "uint256",
          "name": "hbarAmount",
          "type": "uint256"
        },
        {
          "indexed": false,
          "internalType": "uint256",
          "name": "lpTokensMinted",
          "type": "uint256"
        },
        {
          "indexed": false,
          "internalType": "uint256",
          "name": "timestamp",
          "type": "uint256"
        }
      ],
      "name": "LiquidityAdded",
      "type": "event"
    },
    {
      "anonymous": false,
      "inputs": [
        {
          "indexed": true,
          "internalType": "address",
          "name": "user",
          "type": "address"
        },
        {
          "indexed": false,
          "internalType": "uint256",
          "name": "hbarAmount",
          "type": "uint256"
        },
        {
          "indexed": false,
          "internalType": "uint256",
          "name": "lpTokensBurned",
          "type": "uint256"
        },
        {
          "indexed": false,
          "internalType": "uint256",
          "name": "timestamp",
          "type": "uint256"
        }
      ],
      "name": "LiquidityRemoved",
      "type": "event"
    },
    {
      "anonymous": false,
      "inputs": [
        {
          "indexed": true,
          "internalType": "address",
          "name": "previousOwner",
          "type": "address"
        },
        {
          "indexed": true,
          "internalType": "address",
          "name": "newOwner",
          "type": "address"
        }
      ],
      "name": "OwnershipTransferred",
      "type": "event"
    },
    {
      "anonymous": false,
      "inputs": [
        {
          "indexed": false,
          "internalType": "address",
          "name": "account",
          "type": "address"
        }
      ],
      "name": "Paused",
      "type": "event"
    },
    {
      "anonymous": false,
      "inputs": [
        {
          "indexed": true,
          "internalType": "address",
          "name": "tokenAddress",
          "type": "address"
        },
        {
          "indexed": false,
          "internalType": "string",
          "name": "name",
          "type": "string"
        },
        {
          "indexed": false,
          "internalType": "string",
          "name": "symbol",
          "type": "string"
        },
        {
          "indexed": false,
          "internalType": "uint8",
          "name": "decimals",
          "type": "uint8"
        },
        {
          "indexed": false,
          "internalType": "address",
          "name": "treasury",
          "type": "address"
        }
      ],
      "name": "TokenCreated",
      "type": "event"
    },
    {
      "anonymous": false,
      "inputs": [
        {
          "indexed": false,
          "internalType": "int32",
          "name": "responseCode",
          "type": "int32"
        },
        {
          "indexed": false,
          "internalType": "string",
          "name": "errorMessage",
          "type": "string"
        }
      ],
      "name": "TokenCreationFailedEvent",
      "type": "event"
    },
    {
      "anonymous": false,
      "inputs": [
        {
          "indexed": false,
          "internalType": "address",
          "name": "account",
          "type": "address"
        }
      ],
      "name": "Unpaused",
      "type": "event"
    },
    {
      "stateMutability": "payable",
      "type": "fallback"
    },
    {
      "inputs": [],
      "name": "FEE_BPS",
      "outputs": [
        {
          "internalType": "uint256",
          "name": "",
          "type": "uint256"
        }
      ],
      "stateMutability": "view",
      "type": "function"
    },
    {
      "inputs": [],
      "name": "FEE_DENOMINATOR",
      "outputs": [
        {
          "internalType": "uint256",
          "name": "",
          "type": "uint256"
        }
      ],
      "stateMutability": "view",
      "type": "function"
    },
    {
      "inputs": [],
      "name": "MIN_LIQUIDITY",
      "outputs": [
        {
          "internalType": "uint256",
          "name": "",
          "type": "uint256"
        }
      ],
      "stateMutability": "view",
      "type": "function"
    },
    {
      "inputs": [
        {
          "internalType": "uint256",
          "name": "minLPTokens",
          "type": "uint256"
        },
        {
          "internalType": "uint256",
          "name": "usdAmount",
          "type": "uint256"
        },
        {
          "internalType": "uint256",
          "name": "maturationAmount",
          "type": "uint256"
        }
      ],
      "name": "addLiquidity",
      "outputs": [],
      "stateMutability": "payable",
      "type": "function"
    },
    {
      "inputs": [
        {
          "internalType": "uint256",
          "name": "usdAmount",
          "type": "uint256"
        },
        {
          "internalType": "uint256",
          "name": "maturationAmount",
          "type": "uint256"
        },
        {
          "internalType": "uint256",
          "name": "minLPTokens",
          "type": "uint256"
        }
      ],
      "name": "addLiquidityWithUSD",
      "outputs": [],
      "stateMutability": "payable",
      "type": "function"
    },
    {
      "inputs": [
        {
          "internalType": "uint256",
          "name": "fcdrId",
          "type": "uint256"
        }
      ],
      "name": "burnFCDR",
      "outputs": [],
      "stateMutability": "nonpayable",
      "type": "function"
    },
    {
      "inputs": [
        {
          "internalType": "uint256",
          "name": "usdAmount",
          "type": "uint256"
        },
        {
          "internalType": "uint256",
          "name": "maturationAmount",
          "type": "uint256"
        }
      ],
      "name": "calculateCSLPFromUSD",
      "outputs": [
        {
          "internalType": "uint256",
          "name": "cslpTokens",
          "type": "uint256"
        }
      ],
      "stateMutability": "pure",
      "type": "function"
    },
    {
      "inputs": [
        {
          "internalType": "uint256",
          "name": "lpTokenAmount",
          "type": "uint256"
        }
      ],
      "name": "calculateHBAR",
      "outputs": [
        {
          "internalType": "uint256",
          "name": "hbarAmount",
          "type": "uint256"
        }
      ],
      "stateMutability": "view",
      "type": "function"
    },
    {
      "inputs": [
        {
          "internalType": "uint256",
          "name": "hbarAmount",
          "type": "uint256"
        }
      ],
      "name": "calculateLPTokens",
      "outputs": [
        {
          "internalType": "uint256",
          "name": "lpTokens",
          "type": "uint256"
        }
      ],
      "stateMutability": "view",
      "type": "function"
    },
    {
      "inputs": [],
      "name": "createFCDRToken",
      "outputs": [],
      "stateMutability": "payable",
      "type": "function"
    },
    {
      "inputs": [
        {
          "internalType": "string",
          "name": "_tokenName",
          "type": "string"
        },
        {
          "internalType": "string",
          "name": "_tokenSymbol",
          "type": "string"
        }
      ],
      "name": "createLPToken",
      "outputs": [],
      "stateMutability": "payable",
      "type": "function"
    },
    {
      "inputs": [],
      "name": "emergencyWithdraw",
      "outputs": [],
      "stateMutability": "nonpayable",
      "type": "function"
    },
    {
      "inputs": [
        {
          "internalType": "uint256",
          "name": "",
          "type": "uint256"
        }
      ],
      "name": "fcdrMetadata",
      "outputs": [
        {
          "internalType": "uint256",
          "name": "hbarAmount",
          "type": "uint256"
        },
        {
          "internalType": "uint256",
          "name": "timestamp",
          "type": "uint256"
        },
        {
          "internalType": "address",
          "name": "ownerAddress",
          "type": "address"
        },
        {
          "internalType": "address",
          "name": "poolAddress",
          "type": "address"
        },
        {
          "internalType": "uint256",
          "name": "fcdrId",
          "type": "uint256"
        }
      ],
      "stateMutability": "view",
      "type": "function"
    },
    {
      "inputs": [],
      "name": "fcdrToken",
      "outputs": [
        {
          "internalType": "address",
          "name": "",
          "type": "address"
        }
      ],
      "stateMutability": "view",
      "type": "function"
    },
    {
      "inputs": [
        {
          "internalType": "int32",
          "name": "responseCode",
          "type": "int32"
        }
      ],
      "name": "getErrorMessage",
      "outputs": [
        {
          "internalType": "string",
          "name": "errorMessage",
          "type": "string"
        }
      ],
      "stateMutability": "pure",
      "type": "function"
    },
    {
      "inputs": [
        {
          "internalType": "uint256",
          "name": "fcdrId",
          "type": "uint256"
        }
      ],
      "name": "getFCDRMetadata",
      "outputs": [
        {
          "components": [
            {
              "internalType": "uint256",
              "name": "hbarAmount",
              "type": "uint256"
            },
            {
              "internalType": "uint256",
              "name": "timestamp",
              "type": "uint256"
            },
            {
              "internalType": "address",
              "name": "ownerAddress",
              "type": "address"
            },
            {
              "internalType": "address",
              "name": "poolAddress",
              "type": "address"
            },
            {
              "internalType": "uint256",
              "name": "fcdrId",
              "type": "uint256"
            }
          ],
          "internalType": "struct ClearSkyLiquidityPoolV3.FCDRMetadata",
          "name": "",
          "type": "tuple"
        }
      ],
      "stateMutability": "view",
      "type": "function"
    },
    {
      "inputs": [
        {
          "internalType": "address",
          "name": "owner",
          "type": "address"
        }
      ],
      "name": "getOwnerFCDRs",
      "outputs": [
        {
          "internalType": "uint256[]",
          "name": "",
          "type": "uint256[]"
        }
      ],
      "stateMutability": "view",
      "type": "function"
    },
    {
      "inputs": [],
      "name": "getPoolInfo",
      "outputs": [
        {
          "internalType": "uint256",
          "name": "_totalHBAR",
          "type": "uint256"
        },
        {
          "internalType": "uint256",
          "name": "_totalLPTokens",
          "type": "uint256"
        },
        {
          "internalType": "uint256",
          "name": "_totalValue",
          "type": "uint256"
        }
      ],
      "stateMutability": "view",
      "type": "function"
    },
    {
      "inputs": [
        {
          "internalType": "uint256",
          "name": "purchaseId",
          "type": "uint256"
        }
      ],
      "name": "getPurchaseMetadata",
      "outputs": [
        {
          "components": [
            {
              "internalType": "uint256",
              "name": "hbarAmount",
              "type": "uint256"
            },
            {
              "internalType": "uint256",
              "name": "timestamp",
              "type": "uint256"
            },
            {
              "internalType": "uint256",
              "name": "numUsed",
              "type": "uint256"
            },
            {
              "internalType": "address",
              "name": "purchaser",
              "type": "address"
            },
            {
              "internalType": "uint256",
              "name": "purchaseId",
              "type": "uint256"
            }
          ],
          "internalType": "struct ClearSkyLiquidityPoolV3.PurchaseMetadata",
          "name": "",
          "type": "tuple"
        }
      ],
      "stateMutability": "view",
      "type": "function"
    },
    {
      "inputs": [],
      "name": "getTokenInfo",
      "outputs": [
        {
          "components": [
            {
              "internalType": "string",
              "name": "name",
              "type": "string"
            },
            {
              "internalType": "string",
              "name": "symbol",
              "type": "string"
            },
            {
              "internalType": "uint8",
              "name": "decimals",
              "type": "uint8"
            },
            {
              "internalType": "address",
              "name": "tokenAddress",
              "type": "address"
            },
            {
              "internalType": "bool",
              "name": "created",
              "type": "bool"
            }
          ],
          "internalType": "struct ClearSkyLiquidityPoolV3.TokenInfo",
          "name": "",
          "type": "tuple"
        }
      ],
      "stateMutability": "view",
      "type": "function"
    },
    {
      "inputs": [],
      "name": "getTotalFCDRs",
      "outputs": [
        {
          "internalType": "uint256",
          "name": "",
          "type": "uint256"
        }
      ],
      "stateMutability": "view",
      "type": "function"
    },
    {
      "inputs": [],
      "name": "getTotalPurchases",
      "outputs": [
        {
          "internalType": "uint256",
          "name": "",
          "type": "uint256"
        }
      ],
      "stateMutability": "view",
      "type": "function"
    },
    {
      "inputs": [
        {
          "internalType": "address",
          "name": "user",
          "type": "address"
        }
      ],
      "name": "getUserPurchases",
      "outputs": [
        {
          "internalType": "uint256[]",
          "name": "",
          "type": "uint256[]"
        }
      ],
      "stateMutability": "view",
      "type": "function"
    },
    {
      "inputs": [
        {
          "internalType": "address",
          "name": "user",
          "type": "address"
        }
      ],
      "name": "getUserShare",
      "outputs": [
        {
          "internalType": "uint256",
          "name": "userLPBalance",
          "type": "uint256"
        },
        {
          "internalType": "uint256",
          "name": "userHBARValue",
          "type": "uint256"
        },
        {
          "internalType": "uint256",
          "name": "sharePercentage",
          "type": "uint256"
        }
      ],
      "stateMutability": "view",
      "type": "function"
    },
    {
      "inputs": [
        {
          "internalType": "address",
          "name": "user",
          "type": "address"
        }
      ],
      "name": "getUserValue",
      "outputs": [
        {
          "internalType": "uint256",
          "name": "userValue",
          "type": "uint256"
        }
      ],
      "stateMutability": "view",
      "type": "function"
    },
    {
      "inputs": [],
      "name": "getValuePerLPToken",
      "outputs": [
        {
          "internalType": "uint256",
          "name": "valuePerToken",
          "type": "uint256"
        }
      ],
      "stateMutability": "view",
      "type": "function"
    },
    {
      "inputs": [],
      "name": "initializePool",
      "outputs": [],
      "stateMutability": "payable",
      "type": "function"
    },
    {
      "inputs": [],
      "name": "isTokenCreated",
      "outputs": [
        {
          "internalType": "bool",
          "name": "created",
          "type": "bool"
        }
      ],
      "stateMutability": "view",
      "type": "function"
    },
    {
      "inputs": [],
      "name": "lpToken",
      "outputs": [
        {
          "internalType": "address",
          "name": "",
          "type": "address"
        }
      ],
      "stateMutability": "view",
      "type": "function"
    },
    {
      "inputs": [],
      "name": "owner",
      "outputs": [
        {
          "internalType": "address",
          "name": "",
          "type": "address"
        }
      ],
      "stateMutability": "view",
      "type": "function"
    },
    {
      "inputs": [
        {
          "internalType": "address",
          "name": "",
          "type": "address"
        },
        {
          "internalType": "uint256",
          "name": "",
          "type": "uint256"
        }
      ],
      "name": "ownerFCDRs",
      "outputs": [
        {
          "internalType": "uint256",
          "name": "",
          "type": "uint256"
        }
      ],
      "stateMutability": "view",
      "type": "function"
    },
    {
      "inputs": [],
      "name": "pause",
      "outputs": [],
      "stateMutability": "nonpayable",
      "type": "function"
    },
    {
      "inputs": [],
      "name": "paused",
      "outputs": [
        {
          "internalType": "bool",
          "name": "",
          "type": "bool"
        }
      ],
      "stateMutability": "view",
      "type": "function"
    },
    {
      "inputs": [
        {
          "internalType": "uint256",
          "name": "",
          "type": "uint256"
        }
      ],
      "name": "purchaseMetadata",
      "outputs": [
        {
          "internalType": "uint256",
          "name": "hbarAmount",
          "type": "uint256"
        },
        {
          "internalType": "uint256",
          "name": "timestamp",
          "type": "uint256"
        },
        {
          "internalType": "uint256",
          "name": "numUsed",
          "type": "uint256"
        },
        {
          "internalType": "address",
          "name": "purchaser",
          "type": "address"
        },
        {
          "internalType": "uint256",
          "name": "purchaseId",
          "type": "uint256"
        }
      ],
      "stateMutability": "view",
      "type": "function"
    },
    {
      "inputs": [
        {
          "internalType": "address",
          "name": "token",
          "type": "address"
        },
        {
          "internalType": "bytes",
          "name": "encodedFunctionSelector",
          "type": "bytes"
        }
      ],
      "name": "redirectForToken",
      "outputs": [
        {
          "internalType": "int256",
          "name": "responseCode",
          "type": "int256"
        },
        {
          "internalType": "bytes",
          "name": "response",
          "type": "bytes"
        }
      ],
      "stateMutability": "nonpayable",
      "type": "function"
    },
    {
      "inputs": [
        {
          "internalType": "uint256",
          "name": "lpTokenAmount",
          "type": "uint256"
        },
        {
          "internalType": "uint256",
          "name": "minHBAR",
          "type": "uint256"
        }
      ],
      "name": "removeLiquidity",
      "outputs": [],
      "stateMutability": "nonpayable",
      "type": "function"
    },
    {
      "inputs": [],
      "name": "renounceOwnership",
      "outputs": [],
      "stateMutability": "nonpayable",
      "type": "function"
    },
    {
      "inputs": [],
      "name": "tokenInfo",
      "outputs": [
        {
          "internalType": "string",
          "name": "name",
          "type": "string"
        },
        {
          "internalType": "string",
          "name": "symbol",
          "type": "string"
        },
        {
          "internalType": "uint8",
          "name": "decimals",
          "type": "uint8"
        },
        {
          "internalType": "address",
          "name": "tokenAddress",
          "type": "address"
        },
        {
          "internalType": "bool",
          "name": "created",
          "type": "bool"
        }
      ],
      "stateMutability": "view",
      "type": "function"
    },
    {
      "inputs": [],
      "name": "totalFCDRs",
      "outputs": [
        {
          "internalType": "uint256",
          "name": "",
          "type": "uint256"
        }
      ],
      "stateMutability": "view",
      "type": "function"
    },
    {
      "inputs": [],
      "name": "totalHBAR",
      "outputs": [
        {
          "internalType": "uint256",
          "name": "",
          "type": "uint256"
        }
      ],
      "stateMutability": "view",
      "type": "function"
    },
    {
      "inputs": [],
      "name": "totalLPTokens",
      "outputs": [
        {
          "internalType": "uint256",
          "name": "",
          "type": "uint256"
        }
      ],
      "stateMutability": "view",
      "type": "function"
    },
    {
      "inputs": [],
      "name": "totalPurchases",
      "outputs": [
        {
          "internalType": "uint256",
          "name": "",
          "type": "uint256"
        }
      ],
      "stateMutability": "view",
      "type": "function"
    },
    {
      "inputs": [],
      "name": "totalValue",
      "outputs": [
        {
          "internalType": "uint256",
          "name": "",
          "type": "uint256"
        }
      ],
      "stateMutability": "view",
      "type": "function"
    },
    {
      "inputs": [
        {
          "internalType": "address",
          "name": "token",
          "type": "address"
        },
        {
          "internalType": "address",
          "name": "from",
          "type": "address"
        },
        {
          "internalType": "address",
          "name": "to",
          "type": "address"
        },
        {
          "internalType": "uint256",
          "name": "amount",
          "type": "uint256"
        }
      ],
      "name": "transferFrom",
      "outputs": [
        {
          "internalType": "int64",
          "name": "responseCode",
          "type": "int64"
        }
      ],
      "stateMutability": "nonpayable",
      "type": "function"
    },
    {
      "inputs": [
        {
          "internalType": "address",
          "name": "token",
          "type": "address"
        },
        {
          "internalType": "address",
          "name": "from",
          "type": "address"
        },
        {
          "internalType": "address",
          "name": "to",
          "type": "address"
        },
        {
          "internalType": "uint256",
          "name": "serialNumber",
          "type": "uint256"
        }
      ],
      "name": "transferFromNFT",
      "outputs": [
        {
          "internalType": "int64",
          "name": "responseCode",
          "type": "int64"
        }
      ],
      "stateMutability": "nonpayable",
      "type": "function"
    },
    {
      "inputs": [
        {
          "internalType": "address",
          "name": "newOwner",
          "type": "address"
        }
      ],
      "name": "transferOwnership",
      "outputs": [],
      "stateMutability": "nonpayable",
      "type": "function"
    },
    {
      "inputs": [],
      "name": "unpause",
      "outputs": [],
      "stateMutability": "nonpayable",
      "type": "function"
    },
    {
      "inputs": [
        {
          "internalType": "address",
          "name": "",
          "type": "address"
        },
        {
          "internalType": "uint256",
          "name": "",
          "type": "uint256"
        }
      ],
      "name": "userPurchases",
      "outputs": [
        {
          "internalType": "uint256",
          "name": "",
          "type": "uint256"
        }
      ],
      "stateMutability": "view",
      "type": "function"
    },
    {
      "stateMutability": "payable",
      "type": "receive"
    }
  ],
  "bytecode": "0x6080346200054d57601f62004c5738819003918201601f19168301916001600160401b0383118484101762000436578084926020946040528339810103126200054d57516001600160a01b03808216918290036200054d57811562000534576000548260018060a01b0319821617600055167f8be0079c531659141344cd1fd0a4f28419497f9722a3daafe3b4186f6b6457e0600080a3600180805560028054610100600160a81b0319168155600360209081527f3617319a054d772f909f7c479a2cebe5066e836a939412e32403c99029b92eff929092557fa15bc60c955c405d20d9149c709e2460f1c2d9a497496a7f46004d1772c3054c5560047fc3a24b0501bd2c13a7e57f2db4369ec4c223447539fc0724a9d55ac4a06ebd4d5560087fcbc4e5fb02c3d1de23a9f1e014b4d2ee5aeaea9505df5e855c9210bf472495af5560107f83ec6a1f0257b830b5e016457c9cf1435391bf56cc98f369a58a54fe93772465557f405aad32e1adbac89bb7f176e338b8fc6e994ca210c9bb7bdca249b46594225055600660005260407fc69056f16cbaa3c616b828e333ab7d3a32310765507f8f58359e99ebb7a885f38190555160a081016001600160401b038111828210176200043657604052620001d862000552565b600081528152620001e862000552565b600081526020820152600060408201526000606082015260006080820152805190815160018060401b0381116200043657600854600181811c9116801562000529575b60208210146200041557601f8111620004c3575b50602092601f82116001146200045857928192936000926200044c575b50508160011b916000199060031b1c1916176008555b602081015180519091906001600160401b0381116200043657600954600181811c911680156200042b575b60208210146200041557601f8111620003ab575b50602092601f821160011462000340579281929360009262000334575b50508160011b916000199060031b1c1916176009555b60ff60408201511690600a5491610100600160a81b03606083015160081b1691608060ff60a81b910151151560a81b169260018060b01b031916171717600a556040516146e49081620005738239f35b015190503880620002ce565b601f19821693600960005260206000209160005b86811062000392575083600195961062000378575b505050811b01600955620002e4565b015160001960f88460031b161c1916905538808062000369565b9192602060018192868501518155019401920162000354565b60096000527f6e1540171b6c0c960b71a7020d9f60077f6af931a8bbf590da0223dacf75c7af601f830160051c810191602084106200040a575b601f0160051c01905b818110620003fd5750620002b1565b60008155600101620003ee565b9091508190620003e5565b634e487b7160e01b600052602260045260246000fd5b90607f16906200029d565b634e487b7160e01b600052604160045260246000fd5b0151905038806200025c565b601f19821693600860005260206000209160005b868110620004aa575083600195961062000490575b505050811b0160085562000272565b015160001960f88460031b161c1916905538808062000481565b919260206001819286850151815501940192016200046c565b60086000527ff3f7a9fe364faab93b216da50a3214154f22a0a2b415b23a84c8169e8b636ee3601f830160051c81016020841062000521575b601f830160051c82018110620005145750506200023f565b60008155600101620004fc565b5080620004fc565b90607f16906200022b565b604051631e4fbdf760e01b815260006004820152602490fd5b600080fd5b60405190602082016001600160401b03811183821017620004365760405256fe6080806040526004361015610052575b5036156100505760405162461bcd60e51b8152602060048201526012602482015271119d5b98dd1a5bdb881b9bdd08199bdd5b9960721b6044820152606490fd5b005b60003560e01c9081630a5579d114612e1c5750806315dacbea14612dc1578063185c112a14612d9b5780631cf2e69814612d2357806321b77d6314612d05578063240f1b6214612c6c578063250e6de014612aa65780632899943714612a885780632fb9125d14612a6d57806332acf78b14610f4e57806334111bbf14612a4f5780633474d1f9146129f057806338b37d1c1461298e5780633f4ba83a14612937578063422f1043146124ac57806342c649de1461248e5780634ddd1c54146123e35780634edec1ff14611c5f578063545466a5146118cb5780635962a9411461031b5780635c975abb146118a85780635fcbd2851461187f57806360246c881461184d578063618dc65e146117315780636addb663146116b5578063715018a61461165c578063734c79b6146114c85780637d56be3c1461147e5780638456cb59146114245780638da5cb5b146113fb5780639b23d3d91461135b5780639d7de6b314610f6c578063a7112efe14610f4e578063a78c849b14610f2a578063abb1dc4414610e49578063b79c41a214610e28578063bbbaee4c14610de6578063bc031c52146108d2578063be59112914610894578063bf333f2c14610878578063c6e5d8f6146107f0578063cf2c033414610798578063d4c3eea01461077a578063d73792a91461075d578063db2e21bc14610339578063ea04f1551461031b578063ef6283d9146102fd5763f2fde38b1461026f573861000f565b346102f85760203660031901126102f857610288612e40565b610290613218565b6001600160a01b039081169081156102df57600054826001600160601b0360a01b821617600055167f8be0079c531659141344cd1fd0a4f28419497f9722a3daafe3b4186f6b6457e0600080a3005b604051631e4fbdf760e01b815260006004820152602490fd5b600080fd5b346102f85760003660031901126102f8576020600654604051908152f35b346102f85760003660031901126102f8576020600d54604051908152f35b346102f85760003660031901126102f857610352613218565b61035a6143c2565b47801561072257600e546001600160a01b039081169190610385831515610380816143e1565b6143e1565b6040519261039284612f22565b60008452604051936020948581019163707a02cd60e11b83526084820193602483015260019384604484015260606064840152815180915260a48301908860a48260051b8601019301916000905b878b8484106106fa578b8b836000808d8d610404818f03601f198101835282612f8e565b5190826101675af1610414613631565b90156106e357805181016060828783019203126102f857610436868301614464565b9161044360408201614472565b506060810151906001600160401b0382116102f8570181603f820112156102f85786810151604088610474836132d3565b61048083519182612f8e565b838152019160051b8301019283116102f8576040889201905b8382106106cc57505050505b60030b6016810361065357506000546011546040519260049285166104c985612eec565b868552878501914283526040860191825260608601923084526080870194808652600052600f8a5260406000209651875551908601558560028601915116906001600160601b0360a01b91828254161790558560038601925116908254161790555191015580600054166000526010835261054b604060002060115490613591565b6105566011546135cb565b806011558160005416600019820191821161063d5760408051928352602083018590524290830152600091829182918291879181907fb5d1185f9eb3bc9f64976a0642fa385671626df86e9aecd91bcda7206b04566690606090a25af16105bb613631565b50156105f8577f2e4fb6077d4acf86e12bb7411fb82b2b3eaa6a49787f4b1e17b423e7ea84116991604091600054169382519182524290820152a2005b60405162461bcd60e51b815260048101849052601b60248201527f456d657267656e6379207769746864726177616c206661696c656400000000006044820152606490fd5b634e487b7160e01b600052601160045260246000fd5b61065d85916137b7565b906106a7603560405180947402321a2291036b4b73a34b733903330b4b632b21d1605d1b858301526106978151809287868601910161301f565b8101036015810185520183612f8e565b6106c860405192839262461bcd60e51b845260048401526024830190613042565b0390fd5b8280916106d884614472565b815201910190610499565b5060006040516106f281612f22565b5260156104a5565b6107148192939495969760a3198a82030186528851613042565b9601920192019092916103e0565b60405162461bcd60e51b81526020600482015260136024820152724e6f204842415220746f20776974686472617760681b6044820152606490fd5b346102f85760003660031901126102f85760206040516127108152f35b346102f85760003660031901126102f8576020600754604051908152f35b346102f85760403660031901126102f8576107b1612e40565b6001600160a01b03166000908152600c60205260409020805460243591908210156102f8576020916107e2916131d4565b90546040519160031b1c8152f35b346102f8576020806003193601126102f8576001600160a01b03610812612e40565b16600052600c8152604060002090604051908181845491828152019360005281600020916000905b8282106108615761085d8561085181890382612f8e565b60405191829182612e97565b0390f35b83548652948501946001938401939091019061083a565b346102f85760003660031901126102f8576020604051601e8152f35b346102f85760203660031901126102f8576004358060030b81036102f8576108be61085d916137b7565b604051918291602083526020830190613042565b60003660031901126102f8576108e6613218565b600e546001600160a01b0316610da1576108fe613244565b60405161090a81612f07565b600a815269233aba3ab9329021a22960b11b6020820152815260405161092f81612f07565b60048152632321a22960e11b6020820152602082015230604082015260405161095781612f58565b604c81527f4e6f6e2d7472616461626c6520746f6b656e20726570726573656e74696e672060208201527f656d657267656e63792048424152207769746864726177616c2066726f6d204360408201526b1b19585c94dade481c1bdbdb60a21b606082015260608201526040516109cd81612f73565b6002815260005b60408110610d8a575060e0820152610a036109ee30614609565b60e0830151906109fd82613337565b52613337565b50610a0c613316565b5060036000526003602052610a57604060002054610a286132ea565b30602082015260405191610a3b83612f07565b8252602082015260e083015190610a5182613344565b52613344565b50610100810151805160070b1580610d7b575b610d6c575b50604051630fb65bf360e01b602082015260606024820152610ae4610abb610aa5845161016060848601526101e4850190613042565b60208501518482036083190160a4860152613042565b60408401516001600160a01b031660c484015260608401518382036083190160e4850152613042565b916080810151151561010483015260a081015160070b61012483015260c0810151151561014483015260e08101519260831983820301610164840152835180825260208201916020808360051b8301019601926000915b838310610cdc5760008088610b96818c60406101008d0151805160070b61018485015260018060a01b036020820151166101a4850152015160070b6101c483015284604483015284606483015203601f198101835282612f8e565b602081519101346101675af1610baa613631565b9015610cd2576040818051810103126102f8576040610bcb60208301614464565b9101516001600160a01b03811691908290036102f85760030b5b60030b60168103610c7d575060018060a01b0316806001600160601b0360a01b600e541617600e557fcd448de8793f622663eef5d50c680ab37b5a19871f9bbc24fa81e2a715a43e4f61010060405160808152600a608082015269233aba3ab9329021a22960b11b60a082015260c06020820152600460c0820152632321a22960e11b60e082015260006040820152306060820152a2005b807f8e087745dd680d08f64711bfdd63e4496157eaa1c1774fddd382c76431dc1054610cba610cad6024946137b7565b6040519182918583613354565b0390a160405190631dd454b160e01b82526004820152fd5b5060006015610be5565b9091929396602080600192601f19858203018652818b5180518352015190604083820152815115156040820152848060a01b038383015116606082015260c0610d4d610d37604085015160a0608086015260e0850190613042565b6060850151848203603f190160a0860152613042565b926080878060a01b039101511691015299019301930191939290610b3b565b60406276a70091015281610a6f565b50604081015160070b15610a6a565b602090610d95613316565b828285010152016109d4565b60405162461bcd60e51b815260206004820152601a60248201527f4643445220746f6b656e20616c726561647920637265617465640000000000006044820152606490fd5b346102f85760203660031901126102f857610dff612e40565b5061085d610e0b6136d3565b604080519384526020840192909252908201529081906060820190565b346102f8576020610e41610e3b36613202565b90613688565b604051908152f35b346102f85760003660031901126102f85760006080604051610e6a81612eec565b60608152606060208201528260408201528260608201520152610efc604051610e9281612eec565b610e9a6130a1565b8152610ea461314d565b60208201908152600a54604083019160ff821683526060840160ff610f0f60018060a01b0393848660081c16845282608089019660a81c161515865260405198899860208a525160a060208b015260c08a0190613042565b9051888203601f190160408a0152613042565b94511660608601525116608084015251151560a08301520390f35b346102f85760203660031901126102f857610f43612e40565b506020610e4161374f565b346102f85760003660031901126102f8576020601154604051908152f35b346102f857610f7a36613202565b610f826133ec565b610f8a6133ce565b610f9b60ff600a5460a81c1661336e565b811561131d5760065480156112e157600554610fcc610fc383610fbe84886135da565b6133ae565b93841015613544565b47831161129c57610fea91610fe28486936135ed565b6005556135ed565b600655610ff9816007546135ed565b6007556001600160401b03821660070b60405161101581612f22565b6000815260008060018060a01b03926110a16110af856004541692837fb310aaac57f9a89f4e3661e38cb8df5ea9428b82d1bb2b8ab6a77c3f52818f026040518a8152604060208201528061106d60408201866135fa565b0390a26040519283916020830195636b48868360e11b875260248401528960448401526060606484015260848301906135fa565b03601f198101835282612f8e565b5190826101675af1906110c0613631565b9115611291576040828051810103126102f8576110eb60406110e460208501614464565b9301614472565b915b60030b601681036111d7575060045460408051600795860b81529390940b602084015216917f7b2f31b2ffda9d7a1ac640400c8f7eb1c8d0071689111f45797448a14697587c91a2600080808084335af1611146613631565b501561119b576111927f1dc8bb69df2b8e91fbdcbfcf93d951b3f0000f085a95fe3f7946d6161439245d9160405191829133954291846040919493926060820195825260208201520152565b0390a260018055005b60405162461bcd60e51b815260206004820152601460248201527312109054881d1c985b9cd9995c8819985a5b195960621b6044820152606490fd5b9150611221846112188761120f7fcccb9ca916a4b1199913d752d315547b23a41451ab4c699f6bae82cecf211b1e9798600554613584565b50600654613584565b50600754613584565b50600454169261124960405192839283909291602090604083019460070b835260030b910152565b0390a260405162461bcd60e51b815260206004820152601860248201527f48545320746f6b656e206275726e696e67206661696c656400000000000000006044820152606490fd5b6000915060156110ed565b60405162461bcd60e51b815260206004820152601960248201527f496e73756666696369656e74204842415220696e20706f6f6c000000000000006044820152606490fd5b60405162461bcd60e51b8152602060048201526014602482015273139bc81b1a5c5d5a591a5d1e481a5b881c1bdbdb60621b6044820152606490fd5b60405162461bcd60e51b8152602060048201526016602482015275139bc81314081d1bdad95b9cc81cdc1958da599a595960521b6044820152606490fd5b346102f8576000806113b66110a161137236612e56565b604051639b23d3d960e01b602082019081526001600160a01b03958616602483015293851660448201529390911660648401526084830152929091829060a4820190565b5190826101675af16113c6613631565b90156113f1576020818051810103126102f8576113e66020809201614464565b6040519060030b8152f35b50602060156113e6565b346102f85760003660031901126102f8576000546040516001600160a01b039091168152602090f35b346102f85760003660031901126102f85761143d613218565b6114456133ce565b600160ff1960025416176002557f62e78cea01bee320cd4e420270b5ea74000d11b0c9f74754ebdbfc544b05a2586020604051338152a1005b346102f85760403660031901126102f857611497612e40565b6001600160a01b03166000908152601060205260409020805460243591908210156102f8576020916107e2916131d4565b346102f8576020806003193601126102f8576004356114e5613218565b600e546001600160a01b03908116916114ff8315156143e1565b61150c6011548210614426565b600052600f835260406000209060405161152581612eec565b825481526001830154858201526080600483600286015416948560408501528460038201541660608501520154910152600054160361161757600080916040518481019163efef57f960e01b83526024820152306044820152600160648201526064815261159281612eec565b5190826101675af16115a2613631565b901561160f5781818051810103126102f857816115bf9101614464565b60030b601681036115cc57005b6115d5906137b7565b906106a7603560405180947402321a22910313ab93734b733903330b4b632b21d1605d1b858301526106978151809287868601910161301f565b5060156115bf565b60405162461bcd60e51b815260048101839052601a60248201527f4e6f7420746865206f776e6572206f66207468697320464344520000000000006044820152606490fd5b346102f85760003660031901126102f857611675613218565b600080546001600160a01b0319811682556001600160a01b03167f8be0079c531659141344cd1fd0a4f28419497f9722a3daafe3b4186f6b6457e08280a3005b346102f85760003660031901126102f8576116f66116d16130a1565b6116d961314d565b60ff611704600a549260405195869560a0875260a0870190613042565b908582036020870152613042565b8183166040850152600883901c6001600160a01b0316606085015260a89290921c16151560808301520390f35b346102f85760403660031901126102f85761174a612e40565b6024356001600160401b0381116102f857366023820112156102f8576000916110a16117bc61178485943690602481600401359101612fca565b604080516330c6e32f60e11b602082019081526001600160a01b03909616602482015260448101919091529283916064830190613042565b5190826101675af16117cc613631565b907f4af4780e06fe8cb9df64b0794fa6f01399af979175bb988e35e0e57e594567bc6040518215158152604060208201528061180b6040820186613042565b0390a1156118355760165b61085d60405192839260030b8352604060208401526040830190613042565b5060405161184281612f22565b600081526015611816565b346102f85760003660031901126102f85760055460065460075460408051938452602084019290925290820152606090f35b346102f85760003660031901126102f8576004546040516001600160a01b039091168152602090f35b346102f85760003660031901126102f857602060ff600254166040519015158152f35b6119306119396118da36612ed2565b93916118e46133ec565b6118ec6133ce565b6118fd60ff600a5460a81c1661336e565b61190a600654151561340f565b611915341515613452565b611920811515613491565b61192b8215156134e7565b613688565b91821015613544565b61194534600554613584565b60055561195434600754613584565b6007556001600160401b03811660070b60018060a01b03908160045416916119bc60405193838552602094817fb7555d949a897acb395f95e3f2df8b700519404826bb13cd6526b756f6a1c907873393a383604051916119b383612f22565b60008352614480565b50919060168103611bd1575060008082600454166040518681523390827fd9cd850143c0756b15b46ebdc8b4ed7701b66aaed30858ee17a225eb005cca2e8a3093a46040518781019163eca3691760e01b8352602482015230604482015233606482015286608482015260848152611a3381612f3d565b5190826101675af1611a43613631565b9015611bc95784818051810103126102f85784611a609101614464565b60030b60168103611b365750611a7885600654613584565b6006556004541690817fad91542866f4da9ebed5a2b1713258f4bf970f84e7b2a0b8aab2de28d11ffffd60405180611ac533958883909291602090604083019460070b835260070b910152565b0390a36040519182527f67325b2f3de1d8273fc1aeeaf3b161488fc28427430d9f6b341831dedfc2d63333933093a4604080513481526020810192909252429082015233907f64b83944e79c3ce8d4c297411de637c3e102d064677aac0c163976ebdcd6f50e908060608101611192565b8382600454167fcc975f63304dfdaa80a8ecbfbfc654fd86ea8a7cdb68086a0d883f26ad08e4c160405180611b813396309683909291602090604083019460070b835260030b910152565b0390a460405162461bcd60e51b815260206004820152601960248201527f48545320746f6b656e207472616e73666572206661696c6564000000000000006044820152606490fd5b506015611a60565b60045460408051600787900b815260039390930b60208401523392918416917f03f5e21a75677e84382c9f010b9f5780b534bb2a966c378fa090d12ba52caa0891819081015b0390a360405162461bcd60e51b815260206004820152601860248201527f48545320746f6b656e206d696e74696e67206661696c656400000000000000006044820152606490fd5b60403660031901126102f8576004356001600160401b0381116102f857611c8a903690600401613001565b6024356001600160401b0381116102f857611ca9903690600401613001565b611cb1613218565b60ff600a5460a81c166123a65781511561236b5780511561232e57611cd4613244565b91808352816020840152306040840152604051611cf081612f07565b6001815260005b60208110612317575060e0840152611d20611d1130614609565b60e0850151906109fd82613337565b50610100830151805160070b1580612308575b6122f9575b50604051630fb65bf360e01b602082015260606024820152611dad611d84611d6e865161016060848601526101e4850190613042565b60208701518482036083190160a4860152613042565b60408601516001600160a01b031660c484015260608601518382036083190160e4850152613042565b936080810151151561010483015260a081015160070b61012483015260c0810151151561014483015260e08101519060831983870301610164840152815180875260208701906020808260051b8a01019401916000905b8282106122815788886000808a611e62818c60406101008e0151805160070b61018485015260018060a01b036020820151166101a4850152015160070b6101c48301528460448301526006606483015203601f198101835282612f8e565b602081519101346101675af191611e77613631565b9215612276576040838051810103126102f8576040611e9860208501614464565b9301516001600160a01b03811693908490036102f85760030b5b60030b60168103610c7d5750600480546001600160a01b0319166001600160a01b038516179055604051611ee581612eec565b82815260208101829052600660408201526001600160a01b03841660608201526001608082015282516001600160401b03811161217957611f27600854613067565b601f811161220d575b50806020601f821160011461219a5760009161218f575b508160011b916000199060031b1c1916176008555b60208101518051906001600160401b03821161217957611f7d600954613067565b601f8111612110575b50602090601f83116001146120725792826120499361203b96937f8fb1ffd0ab3f6379154037519ff749b01e1fa060a331f5394175f393c3db596b9896600092612067575b50508160011b916000199060031b1c1916176009555b60ff60408201511690600a5491610100600160a81b03606083015160081b1691608060ff60a81b910151151560a81b169269ffffffffffffffffffff60b01b16171717600a55604051938493608085526080850190613042565b908382036020850152613042565b600660408301523060608301526001600160a01b03909416930390a2005b015190508980611fcb565b90601f19831691600960005260008051602061468f8339815191529260005b8181106120f857509361203b96937f8fb1ffd0ab3f6379154037519ff749b01e1fa060a331f5394175f393c3db596b9896936001938361204998106120df575b505050811b01600955611fe1565b015160001960f88460031b161c191690558980806120d1565b92936020600181928786015181550195019301612091565b6009600052601f830160051c60008051602061468f8339815191520160208410612164575b601f820160051c60008051602061468f8339815191520181106121585750611f86565b60008155600101612135565b5060008051602061468f833981519152612135565b634e487b7160e01b600052604160045260246000fd5b905084015186611f47565b9150600860005260008051602061466f8339815191526000925b601f19831684106121f5576001935082601f198116106121dc575b5050811b01600855611f5c565b86015160001960f88460031b161c1916905586806121cf565b868101518255602093840193600190920191016121b4565b6008600052601f820160051c60008051602061466f8339815191520160208310612261575b601f820160051c60008051602061466f8339815191520181106122555750611f30565b60008155600101612232565b5060008051602061466f833981519152612232565b600092506015611eb2565b90919294602080600192601f198d820301855281895180518352015190604083820152815115156040820152848060a01b038383015116606082015260c06122db610d37604085015160a0608086015260e0850190613042565b926080878060a01b0391015116910152970192019201909291611e04565b60406276a70091015283611d38565b50604081015160070b15611d33565b602090612322613316565b82828501015201611cf7565b60405162461bcd60e51b8152602060048201526015602482015274151bdad95b881cde5b589bdb081c995c5d5a5c9959605a1b6044820152606490fd5b60405162461bcd60e51b8152602060048201526013602482015272151bdad95b881b985b59481c995c5d5a5c9959606a1b6044820152606490fd5b60405162461bcd60e51b8152602060048201526015602482015274151bdad95b88185b1c9958591e4818dc99585d1959605a1b6044820152606490fd5b346102f85760203660031901126102f8576004356123ff61378c565b5061240d6011548210614426565b600052600f60205260a0604060002060405161242881612eec565b81549182825260018101549060208301918252600180861b03809281600284015416906040860191825260806004846003870154169560608901968752015496019586526040519687525160208701525116604085015251166060830152516080820152f35b346102f85760203660031901126102f8576020610e41600435613661565b6124c46124b836612ed2565b906118e49392936133ec565b906124d5620f424091821015613544565b6124e134600554613584565b6005556124f034600754613584565b60075560018060a01b03806004541660405193838552602094827fb7555d949a897acb395f95e3f2df8b700519404826bb13cd6526b756f6a1c907873393a360405161253b81612f22565b60008152604051908682019363707a02cd60e11b85526084830190602484015286604484015260606064840152815180915260a48301908860a48260051b8601019301916000905b8a83831061290e575050505050816125a7600093849303601f198101835282612f8e565b516101679482865af1916125b9613631565b92156128f357825183016060848883019203126102f8576125db878501614464565b906125e860408601614472565b946060810151906001600160401b0382116102f8570181603f820112156102f8578881015160408a612619836132d3565b61262583519182612f8e565b838152019160051b8301019283116102f85760408a9201905b8382106128dc57505050505b60030b6016810361289457506000809185600454166040518881523390827fd9cd850143c0756b15b46ebdc8b4ed7701b66aaed30858ee17a225eb005cca2e8c3093a4826040518a81019263eca3691760e01b84526024820152306044820152336064820152896084820152608481526126c381612f3d565b51925af16126cf613631565b901561288c5785818051810103126102f857856126ec9101614464565b60030b6016810361284057506006549184830180931161063d5760049260065583835416906040519086825260070b87820152817fad91542866f4da9ebed5a2b1713258f4bf970f84e7b2a0b8aab2de28d11ffffd60403393a360405185815233917f67325b2f3de1d8273fc1aeeaf3b161488fc28427430d9f6b341831dedfc2d633883093a4600d54906040519361278485612eec565b348552868501914283526040860190815260608601923384526080870194808652600052600b8952604060002096518755516001870155516002860155600385019151166001600160601b0360a01b8254161790555191015533600052600c82526127f66040600020600d5490613591565b612801600d546135cb565b600d55604051913483528201524260408201527f64b83944e79c3ce8d4c297411de637c3e102d064677aac0c163976ebdcd6f50e60603392a260018055005b836004541690604051917fcc975f63304dfdaa80a8ecbfbfc654fd86ea8a7cdb68086a0d883f26ad08e4c1339380611b8130958291909160206040820193620f4240835260030b910152565b5060156126ec565b84600454167f03f5e21a75677e84382c9f010b9f5780b534bb2a966c378fa090d12ba52caa0860405180611c1733958291909160206040820193620f4240835260030b910152565b8280916128e884614472565b81520191019061263e565b9150600060405161290381612f22565b52600091601561264a565b806129296001939495969760a3198a82030186528851613042565b960192019201909291612583565b346102f85760003660031901126102f857612950613218565b6129586143c2565b60ff19600254166002557f5db9ee0a495bf2e6ff9c91a7834c1ba4fdd244a5e8aa4e537bd38aeae4b073aa6020604051338152a1005b346102f85760203660031901126102f857600435600052600f60205260a06040600020805490600181015490600180851b0360048160028401541691600384015416920154926040519485526020850152604084015260608301526080820152f35b346102f85760203660031901126102f857600435600052600b60205260a0604060002080549060018101549060028101546004600180871b03600384015416920154926040519485526020850152604084015260608301526080820152f35b346102f85760203660031901126102f8576020610e416004356136ba565b346102f85760003660031901126102f8576020610e41613731565b346102f85760003660031901126102f8576020600554604051908152f35b60003660031901126102f857612aba613218565b612ac26133ec565b612aca6133ce565b612adb60ff600a5460a81c1661336e565b600654612c2757620186a03410612be2573460055534600755606434046001600160401b03811660070b60018060a01b03612b4f8160045416604051848152817fb7555d949a897acb395f95e3f2df8b700519404826bb13cd6526b756f6a1c90760203393a383604051916119b383612f22565b50919060168103611bd15750600684905560045460408051600795860b81529390940b602084015233939116917fad91542866f4da9ebed5a2b1713258f4bf970f84e7b2a0b8aab2de28d11ffffd9190a3604080513481526020810192909252429082015233907f64b83944e79c3ce8d4c297411de637c3e102d064677aac0c163976ebdcd6f50e908060608101611192565b60405162461bcd60e51b815260206004820152601e60248201527f496e73756666696369656e7420696e697469616c206c697175696469747900006044820152606490fd5b60405162461bcd60e51b815260206004820152601860248201527f506f6f6c20616c726561647920696e697469616c697a656400000000000000006044820152606490fd5b346102f85760203660031901126102f857612c8561378c565b50600435600052600b60205260a06040600020604051612ca481612eec565b81549182825260018101549060208301918252600281015460408401908152600180871b0392608060048560038601541694606088019586520154950194855260405195865251602086015251604085015251166060830152516080820152f35b346102f85760003660031901126102f8576020604051620186a08152f35b346102f8576020806003193601126102f8576001600160a01b03612d45612e40565b1660005260108152604060002090604051908181845491828152019360005281600020916000905b828210612d845761085d8561085181890382612f8e565b835486529485019460019384019390910190612d6d565b346102f85760003660031901126102f857602060ff600a5460a81c166040519015158152f35b346102f8576000806113b66110a1612dd836612e56565b604051630aed65f560e11b602082019081526001600160a01b03958616602483015293851660448201529390911660648401526084830152929091829060a4820190565b346102f85760003660031901126102f857600e546001600160a01b03168152602090f35b600435906001600160a01b03821682036102f857565b60809060031901126102f8576001600160a01b0360043581811681036102f8579160243582811681036102f8579160443590811681036102f8579060643590565b6020908160408183019282815285518094520193019160005b828110612ebe575050505090565b835185529381019392810192600101612eb0565b60609060031901126102f857600435906024359060443590565b60a081019081106001600160401b0382111761217957604052565b604081019081106001600160401b0382111761217957604052565b602081019081106001600160401b0382111761217957604052565b60c081019081106001600160401b0382111761217957604052565b608081019081106001600160401b0382111761217957604052565b606081019081106001600160401b0382111761217957604052565b90601f801991011681019081106001600160401b0382111761217957604052565b6001600160401b03811161217957601f01601f191660200190565b929192612fd682612faf565b91612fe46040519384612f8e565b8294818452818301116102f8578281602093846000960137010152565b9080601f830112156102f85781602061301c93359101612fca565b90565b60005b8381106130325750506000910152565b8181015183820152602001613022565b9060209161305b8151809281855285808601910161301f565b601f01601f1916010190565b90600182811c92168015613097575b602083101461308157565b634e487b7160e01b600052602260045260246000fd5b91607f1691613076565b60405190600082600854916130b583613067565b8083529260019081811690811561312b57506001146130de575b506130dc92500383612f8e565b565b60086000908152915060008051602061466f8339815191525b84831061311057506130dc9350508101602001386130cf565b81935090816020925483858a010152019101909185926130f7565b9050602092506130dc94915060ff191682840152151560051b820101386130cf565b604051906000826009549161316183613067565b8083529260019081811690811561312b575060011461318757506130dc92500383612f8e565b60096000908152915060008051602061468f8339815191525b8483106131b957506130dc9350508101602001386130cf565b81935090816020925483858a010152019101909185926131a0565b80548210156131ec5760005260206000200190600090565b634e487b7160e01b600052603260045260246000fd5b60409060031901126102f8576004359060243590565b6000546001600160a01b0316330361322c57565b60405163118cdaa760e01b8152336004820152602490fd5b604080516001600160401b039291906101208101848111828210176121795782528093606092838352836020840152600091828285015284808501528260808501528260a08501528260c08501528460e0850152815194850190858210908211176132bf578152818452602084018290528301526101000152565b634e487b7160e01b83526041600452602483fd5b6001600160401b0381116121795760051b60200190565b604051906132f782612eec565b6000608083828152826020820152606060408201526060808201520152565b6040519061332382612f07565b816000815260206133326132ea565b910152565b8051156131ec5760200190565b8051600110156131ec5760400190565b60409061301c939260030b81528160208201520190613042565b1561337557565b60405162461bcd60e51b8152602060048201526011602482015270151bdad95b881b9bdd0818dc99585d1959607a1b6044820152606490fd5b81156133b8570490565b634e487b7160e01b600052601260045260246000fd5b60ff600254166133da57565b60405163d93c066560e01b8152600490fd5b6002600154146133fd576002600155565b604051633ee5aeb560e01b8152600490fd5b1561341657565b60405162461bcd60e51b8152602060048201526014602482015273141bdbdb081b9bdd081a5b9a5d1a585b1a5e995960621b6044820152606490fd5b1561345957565b60405162461bcd60e51b815260206004820152601060248201526f139bc812109054881c1c9bdd9a59195960821b6044820152606490fd5b1561349857565b60405162461bcd60e51b815260206004820152602160248201527f55534420616d6f756e74206d7573742062652067726561746572207468616e206044820152600360fc1b6064820152608490fd5b156134ee57565b60405162461bcd60e51b815260206004820152602860248201527f4d617475726174696f6e20616d6f756e74206d75737420626520677265617465604482015267072207468616e20360c41b6064820152608490fd5b1561354b57565b60405162461bcd60e51b815260206004820152601160248201527014db1a5c1c1859d948195e18d959591959607a1b6044820152606490fd5b9190820180921161063d57565b805468010000000000000000811015612179576135b3916001820181556131d4565b819291549060031b91821b91600019901b1916179055565b600019811461063d5760010190565b8181029291811591840414171561063d57565b9190820391821161063d57565b90815180825260208080930193019160005b82811061361a575050505090565b835160070b8552938101939281019260010161360c565b3d1561365c573d9061364282612faf565b916136506040519384612f8e565b82523d6000602084013e565b606090565b6006549081156136815761301c91613678916135da565b600554906133ae565b5050600090565b9081156136958115613491565b6136a08215156134e7565b620f424080840293840414171561063d5761301c916133ae565b600654801561368157610fbe61301c92600554906135da565b60ff600a5460a81c161561372657600654600091811561371b576136fd82610fbe600554866135da565b916127109081850291858304148515171561063d5761301c916133ae565b600092508291508190565b600090600090600090565b60065480156137495761301c906064600754046133ae565b50600090565b60ff600a5460a81c16158015613782575b61377d57600754156001171561063d57600654156133b857600090565b600090565b5060065415613760565b6040519061379982612eec565b60006080838281528260208201528260408201528260608201520152565b8060030b90601682146142bf576009821461426a57600a821461420957600782146141b157600f821461415057601082146140ef57601e82146140a1576022821461404057606f8214613ff15760aa8214613f905760ab8214613f3e5760ae8214613eea5760af8214613e895760be8214613e395760bf8214613de05760a88214613d7f5760a98214613d1e5760bd8214613cd057609b8214613c8457601a8214613c3a57601b8214613bf05760268214613b9757604091828114613b405760418114613ad4576101178114613a7c576101458114613a1d5761014681146139be57610147811461395557610148146139015760336138be63ffffffff61301c93166142e4565b9251809372554e4b4e4f574e5f4552524f525f434f44455f60681b60208301526138f1815180926020868601910161301f565b8101036013810184520182612f8e565b5072206d616e79206368696c64207265636f72647360681b81519161392583612f73565b603383527f4d41585f4348494c445f5245434f5244535f4558434545444544202d20546f6f602084015282015290565b50507f6666696369656e742062616c616e636520666f722073746f726167652072656e81519161398483612f58565b604183527f494e53554646494349454e545f53544f524147455f52454e54202d20496e73756020840152820152601d60fa1b606082015290565b50507f6e76616c6964207369676e617475726520666f7220707265636f6d70696c65008151916139ed83612f73565b603f83527f494e56414c49445f505245434f4d50494c455f5349474e4154555245202d2049602084015282015290565b50507f6e74697469657320696e20707269636520726567696d65207265616368656400815191613a4c83612f73565b603f83527f4d41585f454e5449544945535f43524541544544202d204d6178696d756d2065602084015282015290565b5050751cdd5cc81b9bd9194819d85cc8195e1a185d5cdd195960521b815191613aa483612f73565b603683527f434f4e53454e5355535f4741535f455848415553544544202d20436f6e73656e602084015282015290565b50507f616e73616374696f6e2068617320746f6f206d616e79206e6573746564206c61815191613b0383612f58565b604483527f5452414e53414354494f4e5f544f4f5f4d414e595f4c4159455253202d2054726020840152820152637965727360e01b606082015290565b5050741bdb88195e18d959591cc81cda5e99481b1a5b5a5d605a1b815191613b6783612f73565b603583527f5452414e53414354494f4e5f4f56455253495a45202d205472616e7361637469602084015282015290565b5050604051613ba581612f73565b603581527f494e56414c49445f4b45595f454e434f44494e47202d204b657920656e636f646020820152741a5b99c8199bdc9b585d081a5cc81a5b9d985b1a59605a1b604082015290565b5050604051613bfe81612f73565b602681527f4241445f454e434f44494e47202d204b657920656e636f64696e6720697320696020820152651b9d985b1a5960d21b604082015290565b5050604051613c4881612f73565b602681527f4b45595f5245515549524544202d205265717569726564206b6579206973206d602082015265697373696e6760d01b604082015290565b5050604051613c9281612f73565b602881527f494e56414c49445f41444d494e5f4b4559202d2041646d696e206b6579206973602082015267081a5b9d985b1a5960c21b604082015290565b5050604051613cde81612f73565b602a81527f494e56414c49445f535550504c595f4b4559202d20537570706c79206b6579206020820152691a5cc81a5b9d985b1a5960b21b604082015290565b5050604051613d2c81612f73565b603e81527f494e56414c49445f544f4b454e5f494e495449414c5f535550504c59202d204960208201527f6e697469616c20737570706c792076616c756520697320696e76616c69640000604082015290565b5050604051613d8d81612f73565b603881527f494e56414c49445f544f4b454e5f444543494d414c53202d20546f6b656e206460208201527f6563696d616c732076616c756520697320696e76616c69640000000000000000604082015290565b5050604051613dee81612f73565b603581527f544f4b454e5f4e414d455f544f4f5f4c4f4e47202d20546f6b656e206e616d6560208201527408195e18d959591cc81b195b99dd1a081b1a5b5a5d605a1b604082015290565b5050604051613e4781612f73565b602c81527f4d495353494e475f544f4b454e5f4e414d45202d20546f6b656e206e616d652060208201526b1b9bdd081c1c9bdd9a59195960a21b604082015290565b5050604051613e9781612f73565b603981527f544f4b454e5f53594d424f4c5f544f4f5f4c4f4e47202d20546f6b656e20737960208201527f6d626f6c2065786365656473206c656e677468206c696d697400000000000000604082015290565b5050604051613ef881612f73565b603081527f4d495353494e475f544f4b454e5f53594d424f4c202d20546f6b656e2073796d60208201526f189bdb081b9bdd081c1c9bdd9a59195960821b604082015290565b5050604051613f4c81612f73565b602e81527f494e56414c49445f544f4b454e5f53594d424f4c202d20546f6b656e2073796d60208201526d189bdb081a5cc81a5b9d985b1a5960921b604082015290565b5050604051613f9e81612f73565b603d81527f494e56414c49445f54524541535552595f4143434f554e545f464f525f544f4b60208201527f454e202d205472656173757279206163636f756e7420696e76616c6964000000604082015290565b5050604051613fff81612f73565b602b81527f4d41585f4741535f4c494d49545f4558434545444544202d20476173206c696d60208201526a1a5d08195e18d95959195960aa1b604082015290565b505060405161404e81612f73565b603881527f434f4e54524143545f455845435554494f4e5f455843455054494f4e202d204360208201527f6f6e747261637420657865637574696f6e206661696c65640000000000000000604082015290565b50506040516140af81612f73565b602a81527f494e53554646494349454e545f474153202d204e6f7420656e6f7567682067616020820152691cc81cdd5c1c1b1a595960b21b604082015290565b50506040516140fd81612f73565b603e81527f494e56414c49445f434f4e54524143545f4944202d20436f6e7472616374204960208201527f4420697320696e76616c6964206f7220646f6573206e6f742065786973740000604082015290565b505060405161415e81612f73565b603c81527f494e56414c49445f4143434f554e545f4944202d204163636f756e742049442060208201527f697320696e76616c6964206f7220646f6573206e6f7420657869737400000000604082015290565b50506040516141bf81612f73565b603481527f494e56414c49445f5349474e4154555245202d205472616e73616374696f6e206020820152731cda59db985d1d5c99481a5cc81a5b9d985b1a5960621b604082015290565b505060405161421781612f73565b604081527f494e53554646494349454e545f50415945525f42414c414e4345202d2050617960208201527f6572206163636f756e742068617320696e73756666696369656e742048424152604082015290565b505060405161427881612f73565b603181527f494e53554646494349454e545f54585f464545202d204e6f7420656e6f7567686020820152700819d85ccbd99959481c1c9bdd9a591959607a1b604082015290565b50506040516142cd81612f07565b60078152665355434345535360c81b602082015290565b80156143a45780816000925b6143905750806142ff83612faf565b9261430d6040519485612f8e565b808452601f1961431c82612faf565b01366020860137915b61432e57505090565b60001982019180831161063d5782600a908184049382850292858404148515171561063d5761436060ff9384926135ed565b1660300191821161063d57855111156131ec5760f81b6001600160f81b03191660001a908401601f015380614325565b9161439c600a916135cb565b9204806142f0565b506040516143b181612f07565b60018152600360fc1b602082015290565b60ff60025416156143cf57565b604051638dfc202b60e01b8152600490fd5b156143e857565b60405162461bcd60e51b81526020600482015260166024820152751190d114881d1bdad95b881b9bdd0818dc99585d195960521b6044820152606490fd5b1561442d57565b60405162461bcd60e51b815260206004820152600f60248201526e125b9d985b1a59081190d114881251608a1b6044820152606490fd5b51908160030b82036102f857565b51908160070b82036102f857565b91906040918251906020948583019363707a02cd60e11b8552608484019160018060a01b0316602485015260070b604484015260606064840152815180915260a48301908660a48260051b8601019301916000905b888383106145e057505050505091816144fb60009493859403601f198101835282612f8e565b5190826101675af19161450c613631565b92600090156145c1575082518301906060848284019303126102f857614533818501614464565b9161453f848601614472565b946060810151906001600160401b0382116102f857019381603f860112156102f857828501519061456f826132d3565b9561457c82519788612f8e565b828752818588019360051b8201019384116102f85701905b8282106145aa575050505091905b909160030b92565b8380916145b684614472565b815201910190614594565b92505051906145cf82612f22565b8082523681376015906000906145a2565b806145fb6001939495969760a3198a82030186528851613042565b9601920192019092916144d5565b614611613316565b50600460005260036020527f83ec6a1f0257b830b5e016457c9cf1435391bf56cc98f369a58a54fe9377246554906146476132ea565b6001600160a01b0390911660208201526040519161466483612f07565b825260208201529056fef3f7a9fe364faab93b216da50a3214154f22a0a2b415b23a84c8169e8b636ee36e1540171b6c0c960b71a7020d9f60077f6af931a8bbf590da0223dacf75c7afa2646970667358221220df4d41fccce97e64859a66c8d62f2167e94fa0d457ca419f2e265d043096562164736f6c63430008140033",
  "linkReferences": {},
  "deployedLinkReferences": {}
}