{
  "_format": "hh-sol-artifact-1",
  "contractName": "ClearSkyLiquidityPoolV3",
  "sourceName": "contracts/ClearSkyLiquidityPoolV3.sol",
  "abi": [
    {
      "inputs": [
        {
          "internalType": "address",
          "name": "_owner",
          "type": "address"
        }
      ],
      "stateMutability": "nonpayable",
      "type": "constructor"
    },
    {
      "inputs": [],
      "name": "EnforcedPause",
      "type": "error"
    },
    {
      "inputs": [],
      "name": "ExpectedPause",
      "type": "error"
    },
    {
      "inputs": [],
      "name": "InsufficientHBAR",
      "type": "error"
    },
    {
      "inputs": [],
      "name": "InsufficientInitialLiquidity",
      "type": "error"
    },
    {
      "inputs": [],
      "name": "InsufficientLPBalance",
      "type": "error"
    },
    {
      "inputs": [],
      "name": "InvalidAmounts",
      "type": "error"
    },
    {
      "inputs": [],
      "name": "NoLiquidityProvided",
      "type": "error"
    },
    {
      "inputs": [
        {
          "internalType": "address",
          "name": "owner",
          "type": "address"
        }
      ],
      "name": "OwnableInvalidOwner",
      "type": "error"
    },
    {
      "inputs": [
        {
          "internalType": "address",
          "name": "account",
          "type": "address"
        }
      ],
      "name": "OwnableUnauthorizedAccount",
      "type": "error"
    },
    {
      "inputs": [],
      "name": "PoolAlreadyInitialized",
      "type": "error"
    },
    {
      "inputs": [],
      "name": "PoolNotActive",
      "type": "error"
    },
    {
      "inputs": [],
      "name": "ReentrancyGuardReentrantCall",
      "type": "error"
    },
    {
      "inputs": [],
      "name": "SlippageExceeded",
      "type": "error"
    },
    {
      "inputs": [],
      "name": "TokenAlreadyCreated",
      "type": "error"
    },
    {
      "inputs": [
        {
          "internalType": "int32",
          "name": "responseCode",
          "type": "int32"
        }
      ],
      "name": "TokenCreationFailed",
      "type": "error"
    },
    {
      "inputs": [],
      "name": "TokenNotCreated",
      "type": "error"
    },
    {
      "anonymous": false,
      "inputs": [
        {
          "indexed": false,
          "internalType": "bool",
          "name": "",
          "type": "bool"
        },
        {
          "indexed": false,
          "internalType": "bytes",
          "name": "",
          "type": "bytes"
        }
      ],
      "name": "CallResponseEvent",
      "type": "event"
    },
    {
      "anonymous": false,
      "inputs": [
        {
          "indexed": true,
          "internalType": "address",
          "name": "owner",
          "type": "address"
        },
        {
          "indexed": false,
          "internalType": "uint256",
          "name": "fcdrId",
          "type": "uint256"
        },
        {
          "indexed": false,
          "internalType": "uint256",
          "name": "hbarAmount",
          "type": "uint256"
        },
        {
          "indexed": false,
          "internalType": "uint256",
          "name": "timestamp",
          "type": "uint256"
        }
      ],
      "name": "FCDRMinted",
      "type": "event"
    },
    {
      "anonymous": false,
      "inputs": [
        {
          "indexed": true,
          "internalType": "address",
          "name": "tokenAddress",
          "type": "address"
        },
        {
          "indexed": false,
          "internalType": "string",
          "name": "name",
          "type": "string"
        },
        {
          "indexed": false,
          "internalType": "string",
          "name": "symbol",
          "type": "string"
        },
        {
          "indexed": false,
          "internalType": "uint8",
          "name": "decimals",
          "type": "uint8"
        },
        {
          "indexed": false,
          "internalType": "address",
          "name": "treasury",
          "type": "address"
        }
      ],
      "name": "FCDRTokenCreated",
      "type": "event"
    },
    {
      "anonymous": false,
      "inputs": [
        {
          "indexed": true,
          "internalType": "address",
          "name": "collector",
          "type": "address"
        },
        {
          "indexed": false,
          "internalType": "uint256",
          "name": "hbarAmount",
          "type": "uint256"
        },
        {
          "indexed": false,
          "internalType": "uint256",
          "name": "timestamp",
          "type": "uint256"
        }
      ],
      "name": "FeesCollected",
      "type": "event"
    },
    {
      "anonymous": false,
      "inputs": [
        {
          "indexed": true,
          "internalType": "address",
          "name": "token",
          "type": "address"
        },
        {
          "indexed": true,
          "internalType": "address",
          "name": "account",
          "type": "address"
        }
      ],
      "name": "HTSAssociateAttempt",
      "type": "event"
    },
    {
      "anonymous": false,
      "inputs": [
        {
          "indexed": true,
          "internalType": "address",
          "name": "token",
          "type": "address"
        },
        {
          "indexed": true,
          "internalType": "address",
          "name": "account",
          "type": "address"
        },
        {
          "indexed": false,
          "internalType": "string",
          "name": "reason",
          "type": "string"
        }
      ],
      "name": "HTSAssociateSkipped",
      "type": "event"
    },
    {
      "anonymous": false,
      "inputs": [
        {
          "indexed": true,
          "internalType": "address",
          "name": "token",
          "type": "address"
        },
        {
          "indexed": true,
          "internalType": "address",
          "name": "account",
          "type": "address"
        }
      ],
      "name": "HTSAssociateSuccess",
      "type": "event"
    },
    {
      "anonymous": false,
      "inputs": [
        {
          "indexed": true,
          "internalType": "address",
          "name": "token",
          "type": "address"
        },
        {
          "indexed": false,
          "internalType": "int64",
          "name": "amount",
          "type": "int64"
        },
        {
          "indexed": false,
          "internalType": "int64[]",
          "name": "serialNumbers",
          "type": "int64[]"
        }
      ],
      "name": "HTSBurnAttempt",
      "type": "event"
    },
    {
      "anonymous": false,
      "inputs": [
        {
          "indexed": true,
          "internalType": "address",
          "name": "token",
          "type": "address"
        },
        {
          "indexed": false,
          "internalType": "int64",
          "name": "amount",
          "type": "int64"
        },
        {
          "indexed": false,
          "internalType": "int32",
          "name": "responseCode",
          "type": "int32"
        }
      ],
      "name": "HTSBurnFailed",
      "type": "event"
    },
    {
      "anonymous": false,
      "inputs": [
        {
          "indexed": true,
          "internalType": "address",
          "name": "token",
          "type": "address"
        },
        {
          "indexed": false,
          "internalType": "int64",
          "name": "amount",
          "type": "int64"
        },
        {
          "indexed": false,
          "internalType": "int64",
          "name": "newTotalSupply",
          "type": "int64"
        }
      ],
      "name": "HTSBurnSuccess",
      "type": "event"
    },
    {
      "anonymous": false,
      "inputs": [
        {
          "indexed": true,
          "internalType": "address",
          "name": "token",
          "type": "address"
        },
        {
          "indexed": true,
          "internalType": "address",
          "name": "to",
          "type": "address"
        },
        {
          "indexed": false,
          "internalType": "int64",
          "name": "amount",
          "type": "int64"
        }
      ],
      "name": "HTSMintAttempt",
      "type": "event"
    },
    {
      "anonymous": false,
      "inputs": [
        {
          "indexed": true,
          "internalType": "address",
          "name": "token",
          "type": "address"
        },
        {
          "indexed": true,
          "internalType": "address",
          "name": "to",
          "type": "address"
        },
        {
          "indexed": false,
          "internalType": "int64",
          "name": "amount",
          "type": "int64"
        },
        {
          "indexed": false,
          "internalType": "int32",
          "name": "responseCode",
          "type": "int32"
        }
      ],
      "name": "HTSMintFailed",
      "type": "event"
    },
    {
      "anonymous": false,
      "inputs": [
        {
          "indexed": true,
          "internalType": "address",
          "name": "token",
          "type": "address"
        },
        {
          "indexed": true,
          "internalType": "address",
          "name": "to",
          "type": "address"
        },
        {
          "indexed": false,
          "internalType": "int64",
          "name": "amount",
          "type": "int64"
        },
        {
          "indexed": false,
          "internalType": "int64",
          "name": "newTotalSupply",
          "type": "int64"
        }
      ],
      "name": "HTSMintSuccess",
      "type": "event"
    },
    {
      "anonymous": false,
      "inputs": [
        {
          "indexed": true,
          "internalType": "address",
          "name": "token",
          "type": "address"
        },
        {
          "indexed": true,
          "internalType": "address",
          "name": "from",
          "type": "address"
        },
        {
          "indexed": true,
          "internalType": "address",
          "name": "to",
          "type": "address"
        },
        {
          "indexed": false,
          "internalType": "int64",
          "name": "amount",
          "type": "int64"
        }
      ],
      "name": "HTSTransferAttempt",
      "type": "event"
    },
    {
      "anonymous": false,
      "inputs": [
        {
          "indexed": true,
          "internalType": "address",
          "name": "token",
          "type": "address"
        },
        {
          "indexed": true,
          "internalType": "address",
          "name": "from",
          "type": "address"
        },
        {
          "indexed": true,
          "internalType": "address",
          "name": "to",
          "type": "address"
        },
        {
          "indexed": false,
          "internalType": "int64",
          "name": "amount",
          "type": "int64"
        },
        {
          "indexed": false,
          "internalType": "int32",
          "name": "responseCode",
          "type": "int32"
        }
      ],
      "name": "HTSTransferFailed",
      "type": "event"
    },
    {
      "anonymous": false,
      "inputs": [
        {
          "indexed": true,
          "internalType": "address",
          "name": "token",
          "type": "address"
        },
        {
          "indexed": true,
          "internalType": "address",
          "name": "from",
          "type": "address"
        },
        {
          "indexed": true,
          "internalType": "address",
          "name": "to",
          "type": "address"
        },
        {
          "indexed": false,
          "internalType": "int64",
          "name": "amount",
          "type": "int64"
        }
      ],
      "name": "HTSTransferSuccess",
      "type": "event"
    },
    {
      "anonymous": false,
      "inputs": [
        {
          "indexed": true,
          "internalType": "address",
          "name": "user",
          "type": "address"
        },
        {
          "indexed": false,
          "internalType": "uint256",
          "name": "hbarAmount",
          "type": "uint256"
        },
        {
          "indexed": false,
          "internalType": "uint256",
          "name": "lpTokensMinted",
          "type": "uint256"
        },
        {
          "indexed": false,
          "internalType": "uint256",
          "name": "timestamp",
          "type": "uint256"
        }
      ],
      "name": "LiquidityAdded",
      "type": "event"
    },
    {
      "anonymous": false,
      "inputs": [
        {
          "indexed": true,
          "internalType": "address",
          "name": "user",
          "type": "address"
        },
        {
          "indexed": false,
          "internalType": "uint256",
          "name": "hbarAmount",
          "type": "uint256"
        },
        {
          "indexed": false,
          "internalType": "uint256",
          "name": "lpTokensBurned",
          "type": "uint256"
        },
        {
          "indexed": false,
          "internalType": "uint256",
          "name": "timestamp",
          "type": "uint256"
        }
      ],
      "name": "LiquidityRemoved",
      "type": "event"
    },
    {
      "anonymous": false,
      "inputs": [
        {
          "indexed": true,
          "internalType": "address",
          "name": "previousOwner",
          "type": "address"
        },
        {
          "indexed": true,
          "internalType": "address",
          "name": "newOwner",
          "type": "address"
        }
      ],
      "name": "OwnershipTransferred",
      "type": "event"
    },
    {
      "anonymous": false,
      "inputs": [
        {
          "indexed": false,
          "internalType": "address",
          "name": "account",
          "type": "address"
        }
      ],
      "name": "Paused",
      "type": "event"
    },
    {
      "anonymous": false,
      "inputs": [
        {
          "indexed": true,
          "internalType": "address",
          "name": "tokenAddress",
          "type": "address"
        },
        {
          "indexed": false,
          "internalType": "string",
          "name": "name",
          "type": "string"
        },
        {
          "indexed": false,
          "internalType": "string",
          "name": "symbol",
          "type": "string"
        },
        {
          "indexed": false,
          "internalType": "uint8",
          "name": "decimals",
          "type": "uint8"
        },
        {
          "indexed": false,
          "internalType": "address",
          "name": "treasury",
          "type": "address"
        }
      ],
      "name": "TokenCreated",
      "type": "event"
    },
    {
      "anonymous": false,
      "inputs": [
        {
          "indexed": false,
          "internalType": "int32",
          "name": "responseCode",
          "type": "int32"
        },
        {
          "indexed": false,
          "internalType": "string",
          "name": "errorMessage",
          "type": "string"
        }
      ],
      "name": "TokenCreationFailedEvent",
      "type": "event"
    },
    {
      "anonymous": false,
      "inputs": [
        {
          "indexed": false,
          "internalType": "address",
          "name": "account",
          "type": "address"
        }
      ],
      "name": "Unpaused",
      "type": "event"
    },
    {
      "stateMutability": "payable",
      "type": "fallback"
    },
    {
      "inputs": [],
      "name": "FEE_BPS",
      "outputs": [
        {
          "internalType": "uint256",
          "name": "",
          "type": "uint256"
        }
      ],
      "stateMutability": "view",
      "type": "function"
    },
    {
      "inputs": [],
      "name": "FEE_DENOMINATOR",
      "outputs": [
        {
          "internalType": "uint256",
          "name": "",
          "type": "uint256"
        }
      ],
      "stateMutability": "view",
      "type": "function"
    },
    {
      "inputs": [],
      "name": "HBAR_withdrawal",
      "outputs": [],
      "stateMutability": "nonpayable",
      "type": "function"
    },
    {
      "inputs": [],
      "name": "MIN_LIQUIDITY",
      "outputs": [
        {
          "internalType": "uint256",
          "name": "",
          "type": "uint256"
        }
      ],
      "stateMutability": "view",
      "type": "function"
    },
    {
      "inputs": [
        {
          "internalType": "uint256",
          "name": "minLPTokens",
          "type": "uint256"
        },
        {
          "internalType": "uint256",
          "name": "usdAmount",
          "type": "uint256"
        },
        {
          "internalType": "uint256",
          "name": "maturationAmount",
          "type": "uint256"
        },
        {
          "internalType": "uint256",
          "name": "cslpTokensToMint",
          "type": "uint256"
        }
      ],
      "name": "addLiquidity",
      "outputs": [],
      "stateMutability": "payable",
      "type": "function"
    },
    {
      "inputs": [
        {
          "internalType": "uint256",
          "name": "usdAmount",
          "type": "uint256"
        },
        {
          "internalType": "uint256",
          "name": "maturationAmount",
          "type": "uint256"
        },
        {
          "internalType": "uint256",
          "name": "minLPTokens",
          "type": "uint256"
        }
      ],
      "name": "addLiquidityWithUSD",
      "outputs": [],
      "stateMutability": "payable",
      "type": "function"
    },
    {
      "inputs": [
        {
          "internalType": "uint256",
          "name": "fcdrId",
          "type": "uint256"
        }
      ],
      "name": "burnFCDR",
      "outputs": [],
      "stateMutability": "nonpayable",
      "type": "function"
    },
    {
      "inputs": [
        {
          "internalType": "uint256",
          "name": "usdAmount",
          "type": "uint256"
        },
        {
          "internalType": "uint256",
          "name": "maturationAmount",
          "type": "uint256"
        }
      ],
      "name": "calculateCSLPFromUSD",
      "outputs": [
        {
          "internalType": "uint256",
          "name": "cslpTokens",
          "type": "uint256"
        }
      ],
      "stateMutability": "pure",
      "type": "function"
    },
    {
      "inputs": [
        {
          "internalType": "uint256",
          "name": "lpTokenAmount",
          "type": "uint256"
        }
      ],
      "name": "calculateHBAR",
      "outputs": [
        {
          "internalType": "uint256",
          "name": "hbarAmount",
          "type": "uint256"
        }
      ],
      "stateMutability": "view",
      "type": "function"
    },
    {
      "inputs": [
        {
          "internalType": "uint256",
          "name": "hbarAmount",
          "type": "uint256"
        }
      ],
      "name": "calculateLPTokens",
      "outputs": [
        {
          "internalType": "uint256",
          "name": "lpTokens",
          "type": "uint256"
        }
      ],
      "stateMutability": "view",
      "type": "function"
    },
    {
      "inputs": [],
      "name": "createFCDRToken",
      "outputs": [],
      "stateMutability": "payable",
      "type": "function"
    },
    {
      "inputs": [
        {
          "internalType": "string",
          "name": "_tokenName",
          "type": "string"
        },
        {
          "internalType": "string",
          "name": "_tokenSymbol",
          "type": "string"
        }
      ],
      "name": "createLPToken",
      "outputs": [],
      "stateMutability": "payable",
      "type": "function"
    },
    {
      "inputs": [],
      "name": "emergencyWithdraw",
      "outputs": [],
      "stateMutability": "nonpayable",
      "type": "function"
    },
    {
      "inputs": [
        {
          "internalType": "uint256",
          "name": "",
          "type": "uint256"
        }
      ],
      "name": "fcdrMetadata",
      "outputs": [
        {
          "internalType": "uint256",
          "name": "hbarAmount",
          "type": "uint256"
        },
        {
          "internalType": "uint256",
          "name": "timestamp",
          "type": "uint256"
        },
        {
          "internalType": "address",
          "name": "ownerAddress",
          "type": "address"
        },
        {
          "internalType": "address",
          "name": "poolAddress",
          "type": "address"
        },
        {
          "internalType": "uint256",
          "name": "fcdrId",
          "type": "uint256"
        }
      ],
      "stateMutability": "view",
      "type": "function"
    },
    {
      "inputs": [],
      "name": "fcdrToken",
      "outputs": [
        {
          "internalType": "address",
          "name": "",
          "type": "address"
        }
      ],
      "stateMutability": "view",
      "type": "function"
    },
    {
      "inputs": [
        {
          "internalType": "int32",
          "name": "responseCode",
          "type": "int32"
        }
      ],
      "name": "getErrorMessage",
      "outputs": [
        {
          "internalType": "string",
          "name": "errorMessage",
          "type": "string"
        }
      ],
      "stateMutability": "pure",
      "type": "function"
    },
    {
      "inputs": [
        {
          "internalType": "uint256",
          "name": "fcdrId",
          "type": "uint256"
        }
      ],
      "name": "getFCDRMetadata",
      "outputs": [
        {
          "components": [
            {
              "internalType": "uint256",
              "name": "hbarAmount",
              "type": "uint256"
            },
            {
              "internalType": "uint256",
              "name": "timestamp",
              "type": "uint256"
            },
            {
              "internalType": "address",
              "name": "ownerAddress",
              "type": "address"
            },
            {
              "internalType": "address",
              "name": "poolAddress",
              "type": "address"
            },
            {
              "internalType": "uint256",
              "name": "fcdrId",
              "type": "uint256"
            }
          ],
          "internalType": "struct ClearSkyLiquidityPoolV3.FCDRMetadata",
          "name": "",
          "type": "tuple"
        }
      ],
      "stateMutability": "view",
      "type": "function"
    },
    {
      "inputs": [
        {
          "internalType": "address",
          "name": "owner",
          "type": "address"
        }
      ],
      "name": "getOwnerFCDRs",
      "outputs": [
        {
          "internalType": "uint256[]",
          "name": "",
          "type": "uint256[]"
        }
      ],
      "stateMutability": "view",
      "type": "function"
    },
    {
      "inputs": [],
      "name": "getPoolInfo",
      "outputs": [
        {
          "internalType": "uint256",
          "name": "_totalHBAR",
          "type": "uint256"
        },
        {
          "internalType": "uint256",
          "name": "_totalLPTokens",
          "type": "uint256"
        },
        {
          "internalType": "uint256",
          "name": "_totalValue",
          "type": "uint256"
        }
      ],
      "stateMutability": "view",
      "type": "function"
    },
    {
      "inputs": [
        {
          "internalType": "uint256",
          "name": "purchaseId",
          "type": "uint256"
        }
      ],
      "name": "getPurchaseMetadata",
      "outputs": [
        {
          "components": [
            {
              "internalType": "uint256",
              "name": "hbarAmount",
              "type": "uint256"
            },
            {
              "internalType": "uint256",
              "name": "timestamp",
              "type": "uint256"
            },
            {
              "internalType": "uint256",
              "name": "numUsed",
              "type": "uint256"
            },
            {
              "internalType": "uint256",
              "name": "cslpTokensMinted",
              "type": "uint256"
            },
            {
              "internalType": "address",
              "name": "purchaser",
              "type": "address"
            },
            {
              "internalType": "address",
              "name": "lpAddress",
              "type": "address"
            }
          ],
          "internalType": "struct ClearSkyLiquidityPoolV3.PurchaseMetadata",
          "name": "",
          "type": "tuple"
        }
      ],
      "stateMutability": "view",
      "type": "function"
    },
    {
      "inputs": [],
      "name": "getTokenInfo",
      "outputs": [
        {
          "components": [
            {
              "internalType": "string",
              "name": "name",
              "type": "string"
            },
            {
              "internalType": "string",
              "name": "symbol",
              "type": "string"
            },
            {
              "internalType": "uint8",
              "name": "decimals",
              "type": "uint8"
            },
            {
              "internalType": "address",
              "name": "tokenAddress",
              "type": "address"
            },
            {
              "internalType": "bool",
              "name": "created",
              "type": "bool"
            }
          ],
          "internalType": "struct ClearSkyLiquidityPoolV3.TokenInfo",
          "name": "",
          "type": "tuple"
        }
      ],
      "stateMutability": "view",
      "type": "function"
    },
    {
      "inputs": [],
      "name": "getTotalFCDRs",
      "outputs": [
        {
          "internalType": "uint256",
          "name": "",
          "type": "uint256"
        }
      ],
      "stateMutability": "view",
      "type": "function"
    },
    {
      "inputs": [],
      "name": "getTotalPurchases",
      "outputs": [
        {
          "internalType": "uint256",
          "name": "",
          "type": "uint256"
        }
      ],
      "stateMutability": "view",
      "type": "function"
    },
    {
      "inputs": [
        {
          "internalType": "address",
          "name": "user",
          "type": "address"
        }
      ],
      "name": "getUserPurchases",
      "outputs": [
        {
          "internalType": "uint256[]",
          "name": "",
          "type": "uint256[]"
        }
      ],
      "stateMutability": "view",
      "type": "function"
    },
    {
      "inputs": [
        {
          "internalType": "address",
          "name": "user",
          "type": "address"
        }
      ],
      "name": "getUserShare",
      "outputs": [
        {
          "internalType": "uint256",
          "name": "userLPBalance",
          "type": "uint256"
        },
        {
          "internalType": "uint256",
          "name": "userHBARValue",
          "type": "uint256"
        },
        {
          "internalType": "uint256",
          "name": "sharePercentage",
          "type": "uint256"
        }
      ],
      "stateMutability": "view",
      "type": "function"
    },
    {
      "inputs": [
        {
          "internalType": "address",
          "name": "user",
          "type": "address"
        }
      ],
      "name": "getUserValue",
      "outputs": [
        {
          "internalType": "uint256",
          "name": "userValue",
          "type": "uint256"
        }
      ],
      "stateMutability": "view",
      "type": "function"
    },
    {
      "inputs": [],
      "name": "getValuePerLPToken",
      "outputs": [
        {
          "internalType": "uint256",
          "name": "valuePerToken",
          "type": "uint256"
        }
      ],
      "stateMutability": "view",
      "type": "function"
    },
    {
      "inputs": [],
      "name": "initializePool",
      "outputs": [],
      "stateMutability": "payable",
      "type": "function"
    },
    {
      "inputs": [],
      "name": "isTokenCreated",
      "outputs": [
        {
          "internalType": "bool",
          "name": "created",
          "type": "bool"
        }
      ],
      "stateMutability": "view",
      "type": "function"
    },
    {
      "inputs": [],
      "name": "lpToken",
      "outputs": [
        {
          "internalType": "address",
          "name": "",
          "type": "address"
        }
      ],
      "stateMutability": "view",
      "type": "function"
    },
    {
      "inputs": [],
      "name": "owner",
      "outputs": [
        {
          "internalType": "address",
          "name": "",
          "type": "address"
        }
      ],
      "stateMutability": "view",
      "type": "function"
    },
    {
      "inputs": [
        {
          "internalType": "address",
          "name": "",
          "type": "address"
        },
        {
          "internalType": "uint256",
          "name": "",
          "type": "uint256"
        }
      ],
      "name": "ownerFCDRs",
      "outputs": [
        {
          "internalType": "uint256",
          "name": "",
          "type": "uint256"
        }
      ],
      "stateMutability": "view",
      "type": "function"
    },
    {
      "inputs": [],
      "name": "pause",
      "outputs": [],
      "stateMutability": "nonpayable",
      "type": "function"
    },
    {
      "inputs": [],
      "name": "paused",
      "outputs": [
        {
          "internalType": "bool",
          "name": "",
          "type": "bool"
        }
      ],
      "stateMutability": "view",
      "type": "function"
    },
    {
      "inputs": [
        {
          "internalType": "uint256",
          "name": "",
          "type": "uint256"
        }
      ],
      "name": "purchaseMetadata",
      "outputs": [
        {
          "internalType": "uint256",
          "name": "hbarAmount",
          "type": "uint256"
        },
        {
          "internalType": "uint256",
          "name": "timestamp",
          "type": "uint256"
        },
        {
          "internalType": "uint256",
          "name": "numUsed",
          "type": "uint256"
        },
        {
          "internalType": "uint256",
          "name": "cslpTokensMinted",
          "type": "uint256"
        },
        {
          "internalType": "address",
          "name": "purchaser",
          "type": "address"
        },
        {
          "internalType": "address",
          "name": "lpAddress",
          "type": "address"
        }
      ],
      "stateMutability": "view",
      "type": "function"
    },
    {
      "inputs": [
        {
          "internalType": "address",
          "name": "token",
          "type": "address"
        },
        {
          "internalType": "bytes",
          "name": "encodedFunctionSelector",
          "type": "bytes"
        }
      ],
      "name": "redirectForToken",
      "outputs": [
        {
          "internalType": "int256",
          "name": "responseCode",
          "type": "int256"
        },
        {
          "internalType": "bytes",
          "name": "response",
          "type": "bytes"
        }
      ],
      "stateMutability": "nonpayable",
      "type": "function"
    },
    {
      "inputs": [
        {
          "internalType": "uint256",
          "name": "lpTokenAmount",
          "type": "uint256"
        },
        {
          "internalType": "uint256",
          "name": "minHBAR",
          "type": "uint256"
        }
      ],
      "name": "removeLiquidity",
      "outputs": [],
      "stateMutability": "nonpayable",
      "type": "function"
    },
    {
      "inputs": [],
      "name": "renounceOwnership",
      "outputs": [],
      "stateMutability": "nonpayable",
      "type": "function"
    },
    {
      "inputs": [],
      "name": "tokenInfo",
      "outputs": [
        {
          "internalType": "string",
          "name": "name",
          "type": "string"
        },
        {
          "internalType": "string",
          "name": "symbol",
          "type": "string"
        },
        {
          "internalType": "uint8",
          "name": "decimals",
          "type": "uint8"
        },
        {
          "internalType": "address",
          "name": "tokenAddress",
          "type": "address"
        },
        {
          "internalType": "bool",
          "name": "created",
          "type": "bool"
        }
      ],
      "stateMutability": "view",
      "type": "function"
    },
    {
      "inputs": [],
      "name": "totalFCDRs",
      "outputs": [
        {
          "internalType": "uint256",
          "name": "",
          "type": "uint256"
        }
      ],
      "stateMutability": "view",
      "type": "function"
    },
    {
      "inputs": [],
      "name": "totalHBAR",
      "outputs": [
        {
          "internalType": "uint256",
          "name": "",
          "type": "uint256"
        }
      ],
      "stateMutability": "view",
      "type": "function"
    },
    {
      "inputs": [],
      "name": "totalLPTokens",
      "outputs": [
        {
          "internalType": "uint256",
          "name": "",
          "type": "uint256"
        }
      ],
      "stateMutability": "view",
      "type": "function"
    },
    {
      "inputs": [],
      "name": "totalPurchases",
      "outputs": [
        {
          "internalType": "uint256",
          "name": "",
          "type": "uint256"
        }
      ],
      "stateMutability": "view",
      "type": "function"
    },
    {
      "inputs": [],
      "name": "totalValue",
      "outputs": [
        {
          "internalType": "uint256",
          "name": "",
          "type": "uint256"
        }
      ],
      "stateMutability": "view",
      "type": "function"
    },
    {
      "inputs": [
        {
          "internalType": "address",
          "name": "token",
          "type": "address"
        },
        {
          "internalType": "address",
          "name": "from",
          "type": "address"
        },
        {
          "internalType": "address",
          "name": "to",
          "type": "address"
        },
        {
          "internalType": "uint256",
          "name": "amount",
          "type": "uint256"
        }
      ],
      "name": "transferFrom",
      "outputs": [
        {
          "internalType": "int64",
          "name": "responseCode",
          "type": "int64"
        }
      ],
      "stateMutability": "nonpayable",
      "type": "function"
    },
    {
      "inputs": [
        {
          "internalType": "address",
          "name": "token",
          "type": "address"
        },
        {
          "internalType": "address",
          "name": "from",
          "type": "address"
        },
        {
          "internalType": "address",
          "name": "to",
          "type": "address"
        },
        {
          "internalType": "uint256",
          "name": "serialNumber",
          "type": "uint256"
        }
      ],
      "name": "transferFromNFT",
      "outputs": [
        {
          "internalType": "int64",
          "name": "responseCode",
          "type": "int64"
        }
      ],
      "stateMutability": "nonpayable",
      "type": "function"
    },
    {
      "inputs": [
        {
          "internalType": "address",
          "name": "newOwner",
          "type": "address"
        }
      ],
      "name": "transferOwnership",
      "outputs": [],
      "stateMutability": "nonpayable",
      "type": "function"
    },
    {
      "inputs": [],
      "name": "unpause",
      "outputs": [],
      "stateMutability": "nonpayable",
      "type": "function"
    },
    {
      "inputs": [
        {
          "internalType": "address",
          "name": "",
          "type": "address"
        },
        {
          "internalType": "uint256",
          "name": "",
          "type": "uint256"
        }
      ],
      "name": "userPurchases",
      "outputs": [
        {
          "internalType": "uint256",
          "name": "",
          "type": "uint256"
        }
      ],
      "stateMutability": "view",
      "type": "function"
    },
    {
      "stateMutability": "payable",
      "type": "receive"
    }
  ],
  "bytecode": "0x6080346200054d57601f62004bd238819003918201601f19168301916001600160401b0383118484101762000436578084926020946040528339810103126200054d57516001600160a01b03808216918290036200054d57811562000534576000548260018060a01b0319821617600055167f8be0079c531659141344cd1fd0a4f28419497f9722a3daafe3b4186f6b6457e0600080a3600180805560028054610100600160a81b0319168155600360209081527f3617319a054d772f909f7c479a2cebe5066e836a939412e32403c99029b92eff929092557fa15bc60c955c405d20d9149c709e2460f1c2d9a497496a7f46004d1772c3054c5560047fc3a24b0501bd2c13a7e57f2db4369ec4c223447539fc0724a9d55ac4a06ebd4d5560087fcbc4e5fb02c3d1de23a9f1e014b4d2ee5aeaea9505df5e855c9210bf472495af5560107f83ec6a1f0257b830b5e016457c9cf1435391bf56cc98f369a58a54fe93772465557f405aad32e1adbac89bb7f176e338b8fc6e994ca210c9bb7bdca249b46594225055600660005260407fc69056f16cbaa3c616b828e333ab7d3a32310765507f8f58359e99ebb7a885f38190555160a081016001600160401b038111828210176200043657604052620001d862000552565b600081528152620001e862000552565b600081526020820152600060408201526000606082015260006080820152805190815160018060401b0381116200043657600854600181811c9116801562000529575b60208210146200041557601f8111620004c3575b50602092601f82116001146200045857928192936000926200044c575b50508160011b916000199060031b1c1916176008555b602081015180519091906001600160401b0381116200043657600954600181811c911680156200042b575b60208210146200041557601f8111620003ab575b50602092601f821160011462000340579281929360009262000334575b50508160011b916000199060031b1c1916176009555b60ff60408201511690600a5491610100600160a81b03606083015160081b1691608060ff60a81b910151151560a81b169260018060b01b031916171717600a5560405161465f9081620005738239f35b015190503880620002ce565b601f19821693600960005260206000209160005b86811062000392575083600195961062000378575b505050811b01600955620002e4565b015160001960f88460031b161c1916905538808062000369565b9192602060018192868501518155019401920162000354565b60096000527f6e1540171b6c0c960b71a7020d9f60077f6af931a8bbf590da0223dacf75c7af601f830160051c810191602084106200040a575b601f0160051c01905b818110620003fd5750620002b1565b60008155600101620003ee565b9091508190620003e5565b634e487b7160e01b600052602260045260246000fd5b90607f16906200029d565b634e487b7160e01b600052604160045260246000fd5b0151905038806200025c565b601f19821693600860005260206000209160005b868110620004aa575083600195961062000490575b505050811b0160085562000272565b015160001960f88460031b161c1916905538808062000481565b919260206001819286850151815501940192016200046c565b60086000527ff3f7a9fe364faab93b216da50a3214154f22a0a2b415b23a84c8169e8b636ee3601f830160051c81016020841062000521575b601f830160051c82018110620005145750506200023f565b60008155600101620004fc565b5080620004fc565b90607f16906200022b565b604051631e4fbdf760e01b815260006004820152602490fd5b600080fd5b60405190602082016001600160401b03811183821017620004365760405256fe6080806040526004361015610052575b5036156100505760405162461bcd60e51b8152602060048201526012602482015271119d5b98dd1a5bdb881b9bdd08199bdd5b9960721b6044820152606490fd5b005b60003560e01c9081630a5579d114612d065750806315dacbea14612cab578063185c112a14612c855780631cf2e69814612c0d57806321b77d6314612bef578063240f1b6214612b19578063250e6de01461290957806328999437146128eb5780632fb9125d146128d057806332acf78b146113ea57806334111bbf146128b25780633474d1f91461284557806338b37d1c146127e35780633f4ba83a1461278c57806342c649de1461276e5780634ddd1c54146126a55780634edec1ff14611f21578063545466a514611d5e5780635962a941146103265780635c975abb14611d3b5780635fcbd28514611d1257806360246c8814611ce0578063618dc65e14611bc45780636addb66314611b48578063715018a614611aef578063734c79b61461195b5780637d56be3c146119115780638456cb59146118b75780638da5cb5b1461188e5780639b23d3d9146117ee5780639d7de6b314611408578063a7112efe146113ea578063a78c849b146113c6578063abb1dc44146112e5578063aebf3e4114610ee1578063b79c41a214610ec0578063bbbaee4c14610e7e578063bc031c521461096a578063be5911291461092c578063bf333f2c14610910578063c6e5d8f614610888578063cf2c033414610830578063d4c3eea014610812578063d73792a9146107f5578063db2e21bc1461072b578063e783402914610344578063ea04f15514610326578063ef6283d9146103085763f2fde38b1461027a573861000f565b3461030357602036600319011261030357610293612d2a565b61029b6130e8565b6001600160a01b039081169081156102ea57600054826001600160601b0360a01b821617600055167f8be0079c531659141344cd1fd0a4f28419497f9722a3daafe3b4186f6b6457e0600080a3005b604051631e4fbdf760e01b815260006004820152602490fd5b600080fd5b34610303576000366003190112610303576020600654604051908152f35b34610303576000366003190112610303576020600d54604051908152f35b346103035760003660031901126103035761035d6130e8565b610365614267565b47610371811515614286565b600e546001600160a01b039081169190610395831515610390816142c8565b6142c8565b604051926103a284612e0d565b60008452604051936020948581019163707a02cd60e11b83526084820193602483015260019384604484015260606064840152815180915260a48301908860a48260051b8601019301916000905b878b848410610703578b8b836000808d8d610414818f03601f198101835282612e5e565b5190826101675af1610424613501565b90156106ec57805181016060828783019203126103035761044686830161434b565b9161045360408201614359565b506060810151906001600160401b038211610303570181603f820112156103035786810151604088610484836131a3565b61049083519182612e5e565b838152019160051b830101928311610303576040889201905b8382106106d557505050505b60030b6016810361065c57506000546011546040519260049285166104d985612dd7565b868552878501914283526040860191825260608601923084526080870194808652600052600f8a5260406000209651875551908601558560028601915116906001600160601b0360a01b91828254161790558560038601925116908254161790555191015580600054166000526010835261055b604060002060115490613461565b61056660115461349b565b80601155816000541660001982019182116106465760408051928352602083018590524290830152600091829182918291879181907fb5d1185f9eb3bc9f64976a0642fa385671626df86e9aecd91bcda7206b04566690606090a25af16105cb613501565b5015610608577f2e4fb6077d4acf86e12bb7411fb82b2b3eaa6a49787f4b1e17b423e7ea84116991604091600054169382519182524290820152a2005b60405162461bcd60e51b815260048101849052601660248201527512109054881dda5d1a191c985dd85b0819985a5b195960521b6044820152606490fd5b634e487b7160e01b600052601160045260246000fd5b610666859161365c565b906106b0603560405180947402321a2291036b4b73a34b733903330b4b632b21d1605d1b858301526106a081518092878686019101612eef565b8101036015810185520183612e5e565b6106d160405192839262461bcd60e51b845260048401526024830190612f12565b0390fd5b8280916106e184614359565b8152019101906104a9565b5060006040516106fb81612e0d565b5260156104b5565b61071d8192939495969760a3198a82030186528851612f12565b9601920192019092916103f0565b34610303576000366003190112610303576107446130e8565b61074c614267565b47610758811515614286565b60018060a01b03600080808085858254165af1610773613501565b50156107b05760407f2e4fb6077d4acf86e12bb7411fb82b2b3eaa6a49787f4b1e17b423e7ea8411699160005416928151908152426020820152a2005b60405162461bcd60e51b815260206004820152601b60248201527f456d657267656e6379207769746864726177616c206661696c656400000000006044820152606490fd5b346103035760003660031901126103035760206040516127108152f35b34610303576000366003190112610303576020600754604051908152f35b3461030357604036600319011261030357610849612d2a565b6001600160a01b03166000908152600c60205260409020805460243591908210156103035760209161087a916130a4565b90546040519160031b1c8152f35b3461030357602080600319360112610303576001600160a01b036108aa612d2a565b16600052600c8152604060002090604051908181845491828152019360005281600020916000905b8282106108f9576108f5856108e981890382612e5e565b60405191829182612d81565b0390f35b8354865294850194600193840193909101906108d2565b34610303576000366003190112610303576020604051601e8152f35b34610303576020366003190112610303576004358060030b8103610303576109566108f59161365c565b604051918291602083526020830190612f12565b60003660031901126103035761097e6130e8565b600e546001600160a01b0316610e3957610996613114565b6040516109a281612df2565b600a815269233aba3ab9329021a22960b11b602082015281526040516109c781612df2565b60048152632321a22960e11b602082015260208201523060408201526040516109ef81612e28565b604c81527f4e6f6e2d7472616461626c6520746f6b656e20726570726573656e74696e672060208201527f656d657267656e63792048424152207769746864726177616c2066726f6d204360408201526b1b19585c94dade481c1bdbdb60a21b60608201526060820152604051610a6581612e43565b6002815260005b60408110610e22575060e0820152610a9b610a8630614584565b60e083015190610a9582613207565b52613207565b50610aa46131e6565b5060036000526003602052610aef604060002054610ac06131ba565b30602082015260405191610ad383612df2565b8252602082015260e083015190610ae982613214565b52613214565b50610100810151805160070b1580610e13575b610e04575b50604051630fb65bf360e01b602082015260606024820152610b7c610b53610b3d845161016060848601526101e4850190612f12565b60208501518482036083190160a4860152612f12565b60408401516001600160a01b031660c484015260608401518382036083190160e4850152612f12565b916080810151151561010483015260a081015160070b61012483015260c0810151151561014483015260e08101519260831983820301610164840152835180825260208201916020808360051b8301019601926000915b838310610d745760008088610c2e818c60406101008d0151805160070b61018485015260018060a01b036020820151166101a4850152015160070b6101c483015284604483015284606483015203601f198101835282612e5e565b602081519101346101675af1610c42613501565b9015610d6a57604081805181010312610303576040610c636020830161434b565b9101516001600160a01b03811691908290036103035760030b5b60030b60168103610d15575060018060a01b0316806001600160601b0360a01b600e541617600e557fcd448de8793f622663eef5d50c680ab37b5a19871f9bbc24fa81e2a715a43e4f61010060405160808152600a608082015269233aba3ab9329021a22960b11b60a082015260c06020820152600460c0820152632321a22960e11b60e082015260006040820152306060820152a2005b807f8e087745dd680d08f64711bfdd63e4496157eaa1c1774fddd382c76431dc1054610d52610d4560249461365c565b6040519182918583613224565b0390a160405190631dd454b160e01b82526004820152fd5b5060006015610c7d565b9091929396602080600192601f19858203018652818b5180518352015190604083820152815115156040820152848060a01b038383015116606082015260c0610de5610dcf604085015160a0608086015260e0850190612f12565b6060850151848203603f190160a0860152612f12565b926080878060a01b039101511691015299019301930191939290610bd3565b60406276a70091015281610b07565b50604081015160070b15610b02565b602090610e2d6131e6565b82828501015201610a6c565b60405162461bcd60e51b815260206004820152601a60248201527f4643445220746f6b656e20616c726561647920637265617465640000000000006044820152606490fd5b3461030357602036600319011261030357610e97612d2a565b506108f5610ea36135a3565b604080519384526020840192909252908201529081906060820190565b34610303576020610ed9610ed3366130d2565b90613558565b604051908152f35b608036600319011261030357606435610f4d604435602435610f016132bc565b610f0961329e565b610f1a60ff600a5460a81c1661323e565b610f2760065415156132df565b610f32341515613322565b610f3d811515613361565b610f488215156133b7565b613558565b610f5934600554613414565b600555610f6834600754613414565b60075581156112e057610f7f600435831015613421565b6001600160401b03821660070b60018060a01b0390610fe08260045416604051838152817fb7555d949a897acb395f95e3f2df8b700519404826bb13cd6526b756f6a1c90760203393a38260405191610fd783612e0d565b60008352614367565b50929060168103611252575061102d8282600454166040518281523390827fd9cd850143c0756b15b46ebdc8b4ed7701b66aaed30858ee17a225eb005cca2e60203093a4339030906144f0565b601681036111bc575061104285600654613414565b6006556004541691827fad91542866f4da9ebed5a2b1713258f4bf970f84e7b2a0b8aab2de28d11ffffd6040518061108f33958783909291602090604083019460070b835260070b910152565b0390a360405190815233917f67325b2f3de1d8273fc1aeeaf3b161488fc28427430d9f6b341831dedfc2d63360203093a45b6040516110cd81612dbc565b34815260208101914283526040820190815260608201848152608083019133835260a0840194308652600d54600052600b6020526040600020945185555160018501555160028401555160038301556005600483019260018060a01b0380935116936001600160601b0360a01b9485825416179055019251169082541617905533600052600c6020526111676040600020600d5490613461565b611172600d5461349b565b600d55604080513481526020810192909252429082015233907f64b83944e79c3ce8d4c297411de637c3e102d064677aac0c163976ebdcd6f50e9080606081015b0390a260018055005b90600454167fcc975f63304dfdaa80a8ecbfbfc654fd86ea8a7cdb68086a0d883f26ad08e4c16040518061120a3396309660030b9083909291602090604083019460070b835260030b910152565b0390a460405162461bcd60e51b815260206004820152601960248201527f48545320746f6b656e207472616e73666572206661696c6564000000000000006044820152606490fd5b60045460408051600786900b815260039390930b60208401523392918416917f03f5e21a75677e84382c9f010b9f5780b534bb2a966c378fa090d12ba52caa0891819081015b0390a360405162461bcd60e51b815260206004820152601860248201527f48545320746f6b656e206d696e74696e67206661696c656400000000000000006044820152606490fd5b6110c1565b34610303576000366003190112610303576000608060405161130681612dd7565b6060815260606020820152826040820152826060820152015261139860405161132e81612dd7565b611336612f71565b815261134061301d565b60208201908152600a54604083019160ff821683526060840160ff6113ab60018060a01b0393848660081c16845282608089019660a81c161515865260405198899860208a525160a060208b015260c08a0190612f12565b9051888203601f190160408a0152612f12565b94511660608601525116608084015251151560a08301520390f35b34610303576020366003190112610303576113df612d2a565b506020610ed961361f565b34610303576000366003190112610303576020601154604051908152f35b3461030357611416366130d2565b61141e6132bc565b61142661329e565b61143760ff600a5460a81c1661323e565b81156117b05760065480156117745760055461146861145f8361145a84886134aa565b61327e565b93841015613421565b47831161172f576114869161147e8486936134bd565b6005556134bd565b600655611495816007546134bd565b6007556001600160401b03821660070b6040516114b181612e0d565b6000815260008060018060a01b039261153d61154b856004541692837fb310aaac57f9a89f4e3661e38cb8df5ea9428b82d1bb2b8ab6a77c3f52818f026040518a8152604060208201528061150960408201866134ca565b0390a26040519283916020830195636b48868360e11b875260248401528960448401526060606484015260848301906134ca565b03601f198101835282612e5e565b5190826101675af19061155c613501565b9115611724576040828051810103126103035761158760406115806020850161434b565b9301614359565b915b60030b6016810361166a575060045460408051600795860b81529390940b602084015216917f7b2f31b2ffda9d7a1ac640400c8f7eb1c8d0071689111f45797448a14697587c91a2600080808084335af16115e2613501565b501561162e576111b37f1dc8bb69df2b8e91fbdcbfcf93d951b3f0000f085a95fe3f7946d6161439245d9160405191829133954291846040919493926060820195825260208201520152565b60405162461bcd60e51b815260206004820152601460248201527312109054881d1c985b9cd9995c8819985a5b195960621b6044820152606490fd5b91506116b4846116ab876116a27fcccb9ca916a4b1199913d752d315547b23a41451ab4c699f6bae82cecf211b1e9798600554613414565b50600654613414565b50600754613414565b5060045416926116dc60405192839283909291602090604083019460070b835260030b910152565b0390a260405162461bcd60e51b815260206004820152601860248201527f48545320746f6b656e206275726e696e67206661696c656400000000000000006044820152606490fd5b600091506015611589565b60405162461bcd60e51b815260206004820152601960248201527f496e73756666696369656e74204842415220696e20706f6f6c000000000000006044820152606490fd5b60405162461bcd60e51b8152602060048201526014602482015273139bc81b1a5c5d5a591a5d1e481a5b881c1bdbdb60621b6044820152606490fd5b60405162461bcd60e51b8152602060048201526016602482015275139bc81314081d1bdad95b9cc81cdc1958da599a595960521b6044820152606490fd5b346103035760008061184961153d61180536612d40565b604051639b23d3d960e01b602082019081526001600160a01b03958616602483015293851660448201529390911660648401526084830152929091829060a4820190565b5190826101675af1611859613501565b90156118845760208180518101031261030357611879602080920161434b565b6040519060030b8152f35b5060206015611879565b34610303576000366003190112610303576000546040516001600160a01b039091168152602090f35b34610303576000366003190112610303576118d06130e8565b6118d861329e565b600160ff1960025416176002557f62e78cea01bee320cd4e420270b5ea74000d11b0c9f74754ebdbfc544b05a2586020604051338152a1005b346103035760403660031901126103035761192a612d2a565b6001600160a01b03166000908152601060205260409020805460243591908210156103035760209161087a916130a4565b3461030357602080600319360112610303576004356119786130e8565b600e546001600160a01b03908116916119928315156142c8565b61199f601154821061430d565b600052600f83526040600020906040516119b881612dd7565b8254815260018301548582015260806004836002860154169485604085015284600382015416606085015201549101526000541603611aaa57600080916040518481019163efef57f960e01b835260248201523060448201526001606482015260648152611a2581612dd7565b5190826101675af1611a35613501565b9015611aa25781818051810103126103035781611a52910161434b565b60030b60168103611a5f57005b611a689061365c565b906106b0603560405180947402321a22910313ab93734b733903330b4b632b21d1605d1b858301526106a081518092878686019101612eef565b506015611a52565b60405162461bcd60e51b815260048101839052601a60248201527f4e6f7420746865206f776e6572206f66207468697320464344520000000000006044820152606490fd5b3461030357600036600319011261030357611b086130e8565b600080546001600160a01b0319811682556001600160a01b03167f8be0079c531659141344cd1fd0a4f28419497f9722a3daafe3b4186f6b6457e08280a3005b3461030357600036600319011261030357611b89611b64612f71565b611b6c61301d565b60ff611b97600a549260405195869560a0875260a0870190612f12565b908582036020870152612f12565b8183166040850152600883901c6001600160a01b0316606085015260a89290921c16151560808301520390f35b3461030357604036600319011261030357611bdd612d2a565b6024356001600160401b03811161030357366023820112156103035760009161153d611c4f611c1785943690602481600401359101612e9a565b604080516330c6e32f60e11b602082019081526001600160a01b03909616602482015260448101919091529283916064830190612f12565b5190826101675af1611c5f613501565b907f4af4780e06fe8cb9df64b0794fa6f01399af979175bb988e35e0e57e594567bc60405182151581526040602082015280611c9e6040820186612f12565b0390a115611cc85760165b6108f560405192839260030b8352604060208401526040830190612f12565b50604051611cd581612e0d565b600081526015611ca9565b346103035760003660031901126103035760055460065460075460408051938452602084019290925290820152606090f35b34610303576000366003190112610303576004546040516001600160a01b039091168152602090f35b3461030357600036600319011261030357602060ff600254166040519015158152f35b606036600319011261030357611d7b602435600435610f016132bc565b611d89604435821015613421565b611d9534600554613414565b600555611da434600754613414565b6007556001600160401b03811660070b60018060a01b0390611dff8260045416604051838152817fb7555d949a897acb395f95e3f2df8b700519404826bb13cd6526b756f6a1c90760203393a38260405191610fd783612e0d565b509290601681036112525750611e4c8282600454166040518281523390827fd9cd850143c0756b15b46ebdc8b4ed7701b66aaed30858ee17a225eb005cca2e60203093a4339030906144f0565b601681036111bc5750611e6184600654613414565b6006556004541691827fad91542866f4da9ebed5a2b1713258f4bf970f84e7b2a0b8aab2de28d11ffffd60405180611eae33958783909291602090604083019460070b835260070b910152565b0390a360405190815233917f67325b2f3de1d8273fc1aeeaf3b161488fc28427430d9f6b341831dedfc2d63360203093a4604080513481526020810192909252429082015233907f64b83944e79c3ce8d4c297411de637c3e102d064677aac0c163976ebdcd6f50e9080606081016111b3565b6040366003190112610303576004356001600160401b03811161030357611f4c903690600401612ed1565b6024356001600160401b03811161030357611f6b903690600401612ed1565b611f736130e8565b60ff600a5460a81c166126685781511561262d578051156125f057611f96613114565b91808352816020840152306040840152604051611fb281612df2565b6001815260005b602081106125d9575060e0840152611fe2611fd330614584565b60e085015190610a9582613207565b50610100830151805160070b15806125ca575b6125bb575b50604051630fb65bf360e01b60208201526060602482015261206f612046612030865161016060848601526101e4850190612f12565b60208701518482036083190160a4860152612f12565b60408601516001600160a01b031660c484015260608601518382036083190160e4850152612f12565b936080810151151561010483015260a081015160070b61012483015260c0810151151561014483015260e08101519060831983870301610164840152815180875260208701906020808260051b8a01019401916000905b8282106125435788886000808a612124818c60406101008e0151805160070b61018485015260018060a01b036020820151166101a4850152015160070b6101c48301528460448301526006606483015203601f198101835282612e5e565b602081519101346101675af191612139613501565b92156125385760408380518101031261030357604061215a6020850161434b565b9301516001600160a01b03811693908490036103035760030b5b60030b60168103610d155750600480546001600160a01b0319166001600160a01b0385161790556040516121a781612dd7565b82815260208101829052600660408201526001600160a01b03841660608201526001608082015282516001600160401b03811161243b576121e9600854612f37565b601f81116124cf575b50806020601f821160011461245c57600091612451575b508160011b916000199060031b1c1916176008555b60208101518051906001600160401b03821161243b5761223f600954612f37565b601f81116123d2575b50602090601f831160011461233457928261230b936122fd96937f8fb1ffd0ab3f6379154037519ff749b01e1fa060a331f5394175f393c3db596b9896600092612329575b50508160011b916000199060031b1c1916176009555b60ff60408201511690600a5491610100600160a81b03606083015160081b1691608060ff60a81b910151151560a81b169269ffffffffffffffffffff60b01b16171717600a55604051938493608085526080850190612f12565b908382036020850152612f12565b600660408301523060608301526001600160a01b03909416930390a2005b01519050898061228d565b90601f19831691600960005260008051602061460a8339815191529260005b8181106123ba5750936122fd96937f8fb1ffd0ab3f6379154037519ff749b01e1fa060a331f5394175f393c3db596b9896936001938361230b98106123a1575b505050811b016009556122a3565b015160001960f88460031b161c19169055898080612393565b92936020600181928786015181550195019301612353565b6009600052601f830160051c60008051602061460a8339815191520160208410612426575b601f820160051c60008051602061460a83398151915201811061241a5750612248565b600081556001016123f7565b5060008051602061460a8339815191526123f7565b634e487b7160e01b600052604160045260246000fd5b905084015186612209565b915060086000526000805160206145ea8339815191526000925b601f19831684106124b7576001935082601f1981161061249e575b5050811b0160085561221e565b86015160001960f88460031b161c191690558680612491565b86810151825560209384019360019092019101612476565b6008600052601f820160051c6000805160206145ea8339815191520160208310612523575b601f820160051c6000805160206145ea83398151915201811061251757506121f2565b600081556001016124f4565b506000805160206145ea8339815191526124f4565b600092506015612174565b90919294602080600192601f198d820301855281895180518352015190604083820152815115156040820152848060a01b038383015116606082015260c061259d610dcf604085015160a0608086015260e0850190612f12565b926080878060a01b03910151169101529701920192019092916120c6565b60406276a70091015283611ffa565b50604081015160070b15611ff5565b6020906125e46131e6565b82828501015201611fb9565b60405162461bcd60e51b8152602060048201526015602482015274151bdad95b881cde5b589bdb081c995c5d5a5c9959605a1b6044820152606490fd5b60405162461bcd60e51b8152602060048201526013602482015272151bdad95b881b985b59481c995c5d5a5c9959606a1b6044820152606490fd5b60405162461bcd60e51b8152602060048201526015602482015274151bdad95b88185b1c9958591e4818dc99585d1959605a1b6044820152606490fd5b3461030357602036600319011261030357600435600060806040516126c981612dd7565b82815282602082015282604082015282606082015201526126ed601154821061430d565b600052600f60205260a0604060002060405161270881612dd7565b81549182825260018101549060208301918252600180861b03809281600284015416906040860191825260806004846003870154169560608901968752015496019586526040519687525160208701525116604085015251166060830152516080820152f35b34610303576020366003190112610303576020610ed9600435613531565b34610303576000366003190112610303576127a56130e8565b6127ad614267565b60ff19600254166002557f5db9ee0a495bf2e6ff9c91a7834c1ba4fdd244a5e8aa4e537bd38aeae4b073aa6020604051338152a1005b3461030357602036600319011261030357600435600052600f60205260a06040600020805490600181015490600180851b0360048160028401541691600384015416920154926040519485526020850152604084015260608301526080820152f35b3461030357602036600319011261030357600435600052600b60205260c06040600020805490600181015490600281015460038201549060018060a01b036005816004860154169401541693604051958652602086015260408501526060840152608083015260a0820152f35b34610303576020366003190112610303576020610ed960043561358a565b34610303576000366003190112610303576020610ed9613601565b34610303576000366003190112610303576020600554604051908152f35b60003660031901126103035761291d6130e8565b6129256132bc565b61292d61329e565b61293e60ff600a5460a81c1661323e565b600654612ad457620186a03410612a8f573460055534600755606434046001600160401b03811660070b60018060a01b036129b28160045416604051848152817fb7555d949a897acb395f95e3f2df8b700519404826bb13cd6526b756f6a1c90760203393a38360405191610fd783612e0d565b50919060168103612a455750600684905560045460408051600795860b81529390940b602084015233939116917fad91542866f4da9ebed5a2b1713258f4bf970f84e7b2a0b8aab2de28d11ffffd9190a3604080513481526020810192909252429082015233907f64b83944e79c3ce8d4c297411de637c3e102d064677aac0c163976ebdcd6f50e9080606081016111b3565b60045460408051600787900b815260039390930b60208401523392918416917f03f5e21a75677e84382c9f010b9f5780b534bb2a966c378fa090d12ba52caa089181908101611298565b60405162461bcd60e51b815260206004820152601e60248201527f496e73756666696369656e7420696e697469616c206c697175696469747900006044820152606490fd5b60405162461bcd60e51b815260206004820152601860248201527f506f6f6c20616c726561647920696e697469616c697a656400000000000000006044820152606490fd5b3461030357602036600319011261030357600060a0604051612b3a81612dbc565b8281528260208201528260408201528260608201528260808201520152600435600052600b60205260c0604060002060405190612b7682612dbc565b8054918281526001820154602082019081526002830154926040830193845260038101546060840190815260018060a01b0394859360a0856005816004880154169660808a01978852015416960195865260405197885251602088015251604087015251606086015251166080840152511660a0820152f35b34610303576000366003190112610303576020604051620186a08152f35b3461030357602080600319360112610303576001600160a01b03612c2f612d2a565b1660005260108152604060002090604051908181845491828152019360005281600020916000905b828210612c6e576108f5856108e981890382612e5e565b835486529485019460019384019390910190612c57565b3461030357600036600319011261030357602060ff600a5460a81c166040519015158152f35b346103035760008061184961153d612cc236612d40565b604051630aed65f560e11b602082019081526001600160a01b03958616602483015293851660448201529390911660648401526084830152929091829060a4820190565b3461030357600036600319011261030357600e546001600160a01b03168152602090f35b600435906001600160a01b038216820361030357565b6080906003190112610303576001600160a01b0360043581811681036103035791602435828116810361030357916044359081168103610303579060643590565b6020908160408183019282815285518094520193019160005b828110612da8575050505090565b835185529381019392810192600101612d9a565b60c081019081106001600160401b0382111761243b57604052565b60a081019081106001600160401b0382111761243b57604052565b604081019081106001600160401b0382111761243b57604052565b602081019081106001600160401b0382111761243b57604052565b608081019081106001600160401b0382111761243b57604052565b606081019081106001600160401b0382111761243b57604052565b90601f801991011681019081106001600160401b0382111761243b57604052565b6001600160401b03811161243b57601f01601f191660200190565b929192612ea682612e7f565b91612eb46040519384612e5e565b829481845281830111610303578281602093846000960137010152565b9080601f8301121561030357816020612eec93359101612e9a565b90565b60005b838110612f025750506000910152565b8181015183820152602001612ef2565b90602091612f2b81518092818552858086019101612eef565b601f01601f1916010190565b90600182811c92168015612f67575b6020831014612f5157565b634e487b7160e01b600052602260045260246000fd5b91607f1691612f46565b6040519060008260085491612f8583612f37565b80835292600190818116908115612ffb5750600114612fae575b50612fac92500383612e5e565b565b6008600090815291506000805160206145ea8339815191525b848310612fe05750612fac935050810160200138612f9f565b81935090816020925483858a01015201910190918592612fc7565b905060209250612fac94915060ff191682840152151560051b82010138612f9f565b604051906000826009549161303183612f37565b80835292600190818116908115612ffb57506001146130575750612fac92500383612e5e565b60096000908152915060008051602061460a8339815191525b8483106130895750612fac935050810160200138612f9f565b81935090816020925483858a01015201910190918592613070565b80548210156130bc5760005260206000200190600090565b634e487b7160e01b600052603260045260246000fd5b6040906003190112610303576004359060243590565b6000546001600160a01b031633036130fc57565b60405163118cdaa760e01b8152336004820152602490fd5b604080516001600160401b0392919061012081018481118282101761243b5782528093606092838352836020840152600091828285015284808501528260808501528260a08501528260c08501528460e08501528151948501908582109082111761318f578152818452602084018290528301526101000152565b634e487b7160e01b83526041600452602483fd5b6001600160401b03811161243b5760051b60200190565b604051906131c782612dd7565b6000608083828152826020820152606060408201526060808201520152565b604051906131f382612df2565b816000815260206132026131ba565b910152565b8051156130bc5760200190565b8051600110156130bc5760400190565b604090612eec939260030b81528160208201520190612f12565b1561324557565b60405162461bcd60e51b8152602060048201526011602482015270151bdad95b881b9bdd0818dc99585d1959607a1b6044820152606490fd5b8115613288570490565b634e487b7160e01b600052601260045260246000fd5b60ff600254166132aa57565b60405163d93c066560e01b8152600490fd5b6002600154146132cd576002600155565b604051633ee5aeb560e01b8152600490fd5b156132e657565b60405162461bcd60e51b8152602060048201526014602482015273141bdbdb081b9bdd081a5b9a5d1a585b1a5e995960621b6044820152606490fd5b1561332957565b60405162461bcd60e51b815260206004820152601060248201526f139bc812109054881c1c9bdd9a59195960821b6044820152606490fd5b1561336857565b60405162461bcd60e51b815260206004820152602160248201527f55534420616d6f756e74206d7573742062652067726561746572207468616e206044820152600360fc1b6064820152608490fd5b156133be57565b60405162461bcd60e51b815260206004820152602860248201527f4d617475726174696f6e20616d6f756e74206d75737420626520677265617465604482015267072207468616e20360c41b6064820152608490fd5b9190820180921161064657565b1561342857565b60405162461bcd60e51b815260206004820152601160248201527014db1a5c1c1859d948195e18d959591959607a1b6044820152606490fd5b80546801000000000000000081101561243b57613483916001820181556130a4565b819291549060031b91821b91600019901b1916179055565b60001981146106465760010190565b8181029291811591840414171561064657565b9190820391821161064657565b90815180825260208080930193019160005b8281106134ea575050505090565b835160070b855293810193928101926001016134dc565b3d1561352c573d9061351282612e7f565b916135206040519384612e5e565b82523d6000602084013e565b606090565b60065490811561355157612eec91613548916134aa565b6005549061327e565b5050600090565b9081156135658115613361565b6135708215156133b7565b620f424080840293840414171561064657612eec9161327e565b60065480156135515761145a612eec92600554906134aa565b60ff600a5460a81c16156135f65760065460009181156135eb576135cd8261145a600554866134aa565b916127109081850291858304148515171561064657612eec9161327e565b600092508291508190565b600090600090600090565b600654801561361957612eec9060646007540461327e565b50600090565b60ff600a5460a81c16158015613652575b61364d576007541560011715610646576006541561328857600090565b600090565b5060065415613630565b8060030b9060168214614164576009821461410f57600a82146140ae576007821461405657600f8214613ff55760108214613f9457601e8214613f465760228214613ee557606f8214613e965760aa8214613e355760ab8214613de35760ae8214613d8f5760af8214613d2e5760be8214613cde5760bf8214613c855760a88214613c245760a98214613bc35760bd8214613b7557609b8214613b2957601a8214613adf57601b8214613a955760268214613a3c576040918281146139e557604181146139795761011781146139215761014581146138c25761014681146138635761014781146137fa57610148146137a657603361376363ffffffff612eec9316614189565b9251809372554e4b4e4f574e5f4552524f525f434f44455f60681b60208301526137968151809260208686019101612eef565b8101036013810184520182612e5e565b5072206d616e79206368696c64207265636f72647360681b8151916137ca83612e43565b603383527f4d41585f4348494c445f5245434f5244535f4558434545444544202d20546f6f602084015282015290565b50507f6666696369656e742062616c616e636520666f722073746f726167652072656e81519161382983612e28565b604183527f494e53554646494349454e545f53544f524147455f52454e54202d20496e73756020840152820152601d60fa1b606082015290565b50507f6e76616c6964207369676e617475726520666f7220707265636f6d70696c650081519161389283612e43565b603f83527f494e56414c49445f505245434f4d50494c455f5349474e4154555245202d2049602084015282015290565b50507f6e74697469657320696e20707269636520726567696d652072656163686564008151916138f183612e43565b603f83527f4d41585f454e5449544945535f43524541544544202d204d6178696d756d2065602084015282015290565b5050751cdd5cc81b9bd9194819d85cc8195e1a185d5cdd195960521b81519161394983612e43565b603683527f434f4e53454e5355535f4741535f455848415553544544202d20436f6e73656e602084015282015290565b50507f616e73616374696f6e2068617320746f6f206d616e79206e6573746564206c618151916139a883612e28565b604483527f5452414e53414354494f4e5f544f4f5f4d414e595f4c4159455253202d2054726020840152820152637965727360e01b606082015290565b5050741bdb88195e18d959591cc81cda5e99481b1a5b5a5d605a1b815191613a0c83612e43565b603583527f5452414e53414354494f4e5f4f56455253495a45202d205472616e7361637469602084015282015290565b5050604051613a4a81612e43565b603581527f494e56414c49445f4b45595f454e434f44494e47202d204b657920656e636f646020820152741a5b99c8199bdc9b585d081a5cc81a5b9d985b1a59605a1b604082015290565b5050604051613aa381612e43565b602681527f4241445f454e434f44494e47202d204b657920656e636f64696e6720697320696020820152651b9d985b1a5960d21b604082015290565b5050604051613aed81612e43565b602681527f4b45595f5245515549524544202d205265717569726564206b6579206973206d602082015265697373696e6760d01b604082015290565b5050604051613b3781612e43565b602881527f494e56414c49445f41444d494e5f4b4559202d2041646d696e206b6579206973602082015267081a5b9d985b1a5960c21b604082015290565b5050604051613b8381612e43565b602a81527f494e56414c49445f535550504c595f4b4559202d20537570706c79206b6579206020820152691a5cc81a5b9d985b1a5960b21b604082015290565b5050604051613bd181612e43565b603e81527f494e56414c49445f544f4b454e5f494e495449414c5f535550504c59202d204960208201527f6e697469616c20737570706c792076616c756520697320696e76616c69640000604082015290565b5050604051613c3281612e43565b603881527f494e56414c49445f544f4b454e5f444543494d414c53202d20546f6b656e206460208201527f6563696d616c732076616c756520697320696e76616c69640000000000000000604082015290565b5050604051613c9381612e43565b603581527f544f4b454e5f4e414d455f544f4f5f4c4f4e47202d20546f6b656e206e616d6560208201527408195e18d959591cc81b195b99dd1a081b1a5b5a5d605a1b604082015290565b5050604051613cec81612e43565b602c81527f4d495353494e475f544f4b454e5f4e414d45202d20546f6b656e206e616d652060208201526b1b9bdd081c1c9bdd9a59195960a21b604082015290565b5050604051613d3c81612e43565b603981527f544f4b454e5f53594d424f4c5f544f4f5f4c4f4e47202d20546f6b656e20737960208201527f6d626f6c2065786365656473206c656e677468206c696d697400000000000000604082015290565b5050604051613d9d81612e43565b603081527f4d495353494e475f544f4b454e5f53594d424f4c202d20546f6b656e2073796d60208201526f189bdb081b9bdd081c1c9bdd9a59195960821b604082015290565b5050604051613df181612e43565b602e81527f494e56414c49445f544f4b454e5f53594d424f4c202d20546f6b656e2073796d60208201526d189bdb081a5cc81a5b9d985b1a5960921b604082015290565b5050604051613e4381612e43565b603d81527f494e56414c49445f54524541535552595f4143434f554e545f464f525f544f4b60208201527f454e202d205472656173757279206163636f756e7420696e76616c6964000000604082015290565b5050604051613ea481612e43565b602b81527f4d41585f4741535f4c494d49545f4558434545444544202d20476173206c696d60208201526a1a5d08195e18d95959195960aa1b604082015290565b5050604051613ef381612e43565b603881527f434f4e54524143545f455845435554494f4e5f455843455054494f4e202d204360208201527f6f6e747261637420657865637574696f6e206661696c65640000000000000000604082015290565b5050604051613f5481612e43565b602a81527f494e53554646494349454e545f474153202d204e6f7420656e6f7567682067616020820152691cc81cdd5c1c1b1a595960b21b604082015290565b5050604051613fa281612e43565b603e81527f494e56414c49445f434f4e54524143545f4944202d20436f6e7472616374204960208201527f4420697320696e76616c6964206f7220646f6573206e6f742065786973740000604082015290565b505060405161400381612e43565b603c81527f494e56414c49445f4143434f554e545f4944202d204163636f756e742049442060208201527f697320696e76616c6964206f7220646f6573206e6f7420657869737400000000604082015290565b505060405161406481612e43565b603481527f494e56414c49445f5349474e4154555245202d205472616e73616374696f6e206020820152731cda59db985d1d5c99481a5cc81a5b9d985b1a5960621b604082015290565b50506040516140bc81612e43565b604081527f494e53554646494349454e545f50415945525f42414c414e4345202d2050617960208201527f6572206163636f756e742068617320696e73756666696369656e742048424152604082015290565b505060405161411d81612e43565b603181527f494e53554646494349454e545f54585f464545202d204e6f7420656e6f7567686020820152700819d85ccbd99959481c1c9bdd9a591959607a1b604082015290565b505060405161417281612df2565b60078152665355434345535360c81b602082015290565b80156142495780816000925b6142355750806141a483612e7f565b926141b26040519485612e5e565b808452601f196141c182612e7f565b01366020860137915b6141d357505090565b6000198201918083116106465782600a90818404938285029285840414851517156106465761420560ff9384926134bd565b1660300191821161064657855111156130bc5760f81b6001600160f81b03191660001a908401601f0153806141ca565b91614241600a9161349b565b920480614195565b5060405161425681612df2565b60018152600360fc1b602082015290565b60ff600254161561427457565b604051638dfc202b60e01b8152600490fd5b1561428d57565b60405162461bcd60e51b81526020600482015260136024820152724e6f204842415220746f20776974686472617760681b6044820152606490fd5b156142cf57565b60405162461bcd60e51b81526020600482015260166024820152751190d114881d1bdad95b881b9bdd0818dc99585d195960521b6044820152606490fd5b1561431457565b60405162461bcd60e51b815260206004820152600f60248201526e125b9d985b1a59081190d114881251608a1b6044820152606490fd5b51908160030b820361030357565b51908160070b820361030357565b91906040918251906020948583019363707a02cd60e11b8552608484019160018060a01b0316602485015260070b604484015260606064840152815180915260a48301908660a48260051b8601019301916000905b888383106144c757505050505091816143e260009493859403601f198101835282612e5e565b5190826101675af1916143f3613501565b92600090156144a8575082518301906060848284019303126103035761441a81850161434b565b91614426848601614359565b946060810151906001600160401b03821161030357019381603f86011215610303578285015190614456826131a3565b9561446382519788612e5e565b828752818588019360051b8201019384116103035701905b828210614491575050505091905b909160030b92565b83809161449d84614359565b81520191019061447b565b92505051906144b682612e0d565b808252368137601590600090614489565b806144e26001939495969760a3198a82030186528851612f12565b9601920192019092916143bc565b60405163eca3691760e01b602082019081526001600160a01b03928316602483015292821660448201529216606483015260079290920b608480830191909152815261453b81612dbc565b6000809281925190826101675af190614552613501565b911561457b5760208280518101031261457857506020614572910161434b565b60030b90565b80fd5b50506015614572565b61458c6131e6565b50600460005260036020527f83ec6a1f0257b830b5e016457c9cf1435391bf56cc98f369a58a54fe9377246554906145c26131ba565b6001600160a01b039091166020820152604051916145df83612df2565b825260208201529056fef3f7a9fe364faab93b216da50a3214154f22a0a2b415b23a84c8169e8b636ee36e1540171b6c0c960b71a7020d9f60077f6af931a8bbf590da0223dacf75c7afa26469706673582212200d7350160d6e7312b6e55554610a13685565ef58ab257e7d27409103be36571364736f6c63430008140033",
  "linkReferences": {},
  "deployedLinkReferences": {}
}